{
  "address": "0xdC67466b59Bd0ca2926Bf237a1EfC78841F360D0",
  "abi": [
    {
      "inputs": [
        {
          "internalType": "contract IConfigurableRightsPool",
          "name": "crp",
          "type": "address"
        },
        {
          "internalType": "uint256[]",
          "name": "sort",
          "type": "uint256[]"
        },
        {
          "internalType": "address[]",
          "name": "token",
          "type": "address[]"
        }
      ],
      "name": "addTokenToWhitelist",
      "outputs": [],
      "stateMutability": "nonpayable",
      "type": "function"
    },
    {
      "inputs": [
        {
          "internalType": "address",
          "name": "_userVault",
          "type": "address"
        },
        {
          "internalType": "address",
          "name": "pool",
          "type": "address"
        }
      ],
      "name": "claimKolReward",
      "outputs": [],
      "stateMutability": "nonpayable",
      "type": "function"
    },
    {
      "inputs": [
        {
          "internalType": "contract IConfigurableRightsPool",
          "name": "crp",
          "type": "address"
        }
      ],
      "name": "claimManagementFee",
      "outputs": [],
      "stateMutability": "nonpayable",
      "type": "function"
    },
    {
      "inputs": [
        {
          "internalType": "address",
          "name": "_userVault",
          "type": "address"
        },
        {
          "internalType": "address",
          "name": "pool",
          "type": "address"
        }
      ],
      "name": "claimManagersReward",
      "outputs": [],
      "stateMutability": "nonpayable",
      "type": "function"
    },
    {
      "inputs": [
        {
          "internalType": "contract FactoryActions",
          "name": "factory",
          "type": "address"
        },
        {
          "internalType": "address[]",
          "name": "tokens",
          "type": "address[]"
        },
        {
          "internalType": "uint256[]",
          "name": "balances",
          "type": "uint256[]"
        },
        {
          "internalType": "uint256[]",
          "name": "weights",
          "type": "uint256[]"
        },
        {
          "internalType": "uint256",
          "name": "swapFee",
          "type": "uint256"
        },
        {
          "internalType": "bool",
          "name": "finalize",
          "type": "bool"
        }
      ],
      "name": "create",
      "outputs": [
        {
          "internalType": "contract LiquidityPoolActions",
          "name": "pool",
          "type": "address"
        }
      ],
      "stateMutability": "nonpayable",
      "type": "function"
    },
    {
      "inputs": [
        {
          "internalType": "contract ICRPFactory",
          "name": "factory",
          "type": "address"
        },
        {
          "internalType": "contract FactoryActions",
          "name": "coreFactory",
          "type": "address"
        },
        {
          "components": [
            {
              "internalType": "string",
              "name": "poolTokenSymbol",
              "type": "string"
            },
            {
              "internalType": "string",
              "name": "poolTokenName",
              "type": "string"
            },
            {
              "internalType": "address[]",
              "name": "constituentTokens",
              "type": "address[]"
            },
            {
              "internalType": "uint256[]",
              "name": "tokenBalances",
              "type": "uint256[]"
            },
            {
              "internalType": "uint256[]",
              "name": "tokenWeights",
              "type": "uint256[]"
            },
            {
              "internalType": "uint256",
              "name": "swapFee",
              "type": "uint256"
            },
            {
              "internalType": "uint256",
              "name": "managerFee",
              "type": "uint256"
            },
            {
              "internalType": "uint256",
              "name": "redeemFee",
              "type": "uint256"
            },
            {
              "internalType": "uint256",
              "name": "issueFee",
              "type": "uint256"
            },
            {
              "internalType": "uint256",
              "name": "perfermanceFee",
              "type": "uint256"
            },
            {
              "internalType": "enum IConfigurableRightsPool.Etypes",
              "name": "etype",
              "type": "uint8"
            }
          ],
          "internalType": "struct IConfigurableRightsPool.PoolParams",
          "name": "poolParams",
          "type": "tuple"
        },
        {
          "components": [
            {
              "internalType": "uint256",
              "name": "initialSupply",
              "type": "uint256"
            },
            {
              "internalType": "uint256",
              "name": "collectPeriod",
              "type": "uint256"
            },
            {
              "internalType": "enum IConfigurableRightsPool.Period",
              "name": "period",
              "type": "uint8"
            }
          ],
          "internalType": "struct IConfigurableRightsPool.CrpParams",
          "name": "crpParams",
          "type": "tuple"
        },
        {
          "components": [
            {
              "internalType": "bool",
              "name": "canPauseSwapping",
              "type": "bool"
            },
            {
              "internalType": "bool",
              "name": "canChangeSwapFee",
              "type": "bool"
            },
            {
              "internalType": "bool",
              "name": "canChangeWeights",
              "type": "bool"
            },
            {
              "internalType": "bool",
              "name": "canAddRemoveTokens",
              "type": "bool"
            },
            {
              "internalType": "bool",
              "name": "canWhitelistLPs",
              "type": "bool"
            },
            {
              "internalType": "bool",
              "name": "canTokenWhiteLists",
              "type": "bool"
            }
          ],
          "internalType": "struct RightsManager.Rights",
          "name": "rights",
          "type": "tuple"
        },
        {
          "components": [
            {
              "components": [
                {
                  "components": [
                    {
                      "internalType": "uint256",
                      "name": "level",
                      "type": "uint256"
                    },
                    {
                      "internalType": "uint256",
                      "name": "ratio",
                      "type": "uint256"
                    }
                  ],
                  "internalType": "struct SmartPoolManager.levelParams",
                  "name": "firstLevel",
                  "type": "tuple"
                },
                {
                  "components": [
                    {
                      "internalType": "uint256",
                      "name": "level",
                      "type": "uint256"
                    },
                    {
                      "internalType": "uint256",
                      "name": "ratio",
                      "type": "uint256"
                    }
                  ],
                  "internalType": "struct SmartPoolManager.levelParams",
                  "name": "secondLevel",
                  "type": "tuple"
                },
                {
                  "components": [
                    {
                      "internalType": "uint256",
                      "name": "level",
                      "type": "uint256"
                    },
                    {
                      "internalType": "uint256",
                      "name": "ratio",
                      "type": "uint256"
                    }
                  ],
                  "internalType": "struct SmartPoolManager.levelParams",
                  "name": "thirdLevel",
                  "type": "tuple"
                },
                {
                  "components": [
                    {
                      "internalType": "uint256",
                      "name": "level",
                      "type": "uint256"
                    },
                    {
                      "internalType": "uint256",
                      "name": "ratio",
                      "type": "uint256"
                    }
                  ],
                  "internalType": "struct SmartPoolManager.levelParams",
                  "name": "fourLevel",
                  "type": "tuple"
                }
              ],
              "internalType": "struct SmartPoolManager.feeParams",
              "name": "managerFee",
              "type": "tuple"
            },
            {
              "components": [
                {
                  "components": [
                    {
                      "internalType": "uint256",
                      "name": "level",
                      "type": "uint256"
                    },
                    {
                      "internalType": "uint256",
                      "name": "ratio",
                      "type": "uint256"
                    }
                  ],
                  "internalType": "struct SmartPoolManager.levelParams",
                  "name": "firstLevel",
                  "type": "tuple"
                },
                {
                  "components": [
                    {
                      "internalType": "uint256",
                      "name": "level",
                      "type": "uint256"
                    },
                    {
                      "internalType": "uint256",
                      "name": "ratio",
                      "type": "uint256"
                    }
                  ],
                  "internalType": "struct SmartPoolManager.levelParams",
                  "name": "secondLevel",
                  "type": "tuple"
                },
                {
                  "components": [
                    {
                      "internalType": "uint256",
                      "name": "level",
                      "type": "uint256"
                    },
                    {
                      "internalType": "uint256",
                      "name": "ratio",
                      "type": "uint256"
                    }
                  ],
                  "internalType": "struct SmartPoolManager.levelParams",
                  "name": "thirdLevel",
                  "type": "tuple"
                },
                {
                  "components": [
                    {
                      "internalType": "uint256",
                      "name": "level",
                      "type": "uint256"
                    },
                    {
                      "internalType": "uint256",
                      "name": "ratio",
                      "type": "uint256"
                    }
                  ],
                  "internalType": "struct SmartPoolManager.levelParams",
                  "name": "fourLevel",
                  "type": "tuple"
                }
              ],
              "internalType": "struct SmartPoolManager.feeParams",
              "name": "issueFee",
              "type": "tuple"
            },
            {
              "components": [
                {
                  "components": [
                    {
                      "internalType": "uint256",
                      "name": "level",
                      "type": "uint256"
                    },
                    {
                      "internalType": "uint256",
                      "name": "ratio",
                      "type": "uint256"
                    }
                  ],
                  "internalType": "struct SmartPoolManager.levelParams",
                  "name": "firstLevel",
                  "type": "tuple"
                },
                {
                  "components": [
                    {
                      "internalType": "uint256",
                      "name": "level",
                      "type": "uint256"
                    },
                    {
                      "internalType": "uint256",
                      "name": "ratio",
                      "type": "uint256"
                    }
                  ],
                  "internalType": "struct SmartPoolManager.levelParams",
                  "name": "secondLevel",
                  "type": "tuple"
                },
                {
                  "components": [
                    {
                      "internalType": "uint256",
                      "name": "level",
                      "type": "uint256"
                    },
                    {
                      "internalType": "uint256",
                      "name": "ratio",
                      "type": "uint256"
                    }
                  ],
                  "internalType": "struct SmartPoolManager.levelParams",
                  "name": "thirdLevel",
                  "type": "tuple"
                },
                {
                  "components": [
                    {
                      "internalType": "uint256",
                      "name": "level",
                      "type": "uint256"
                    },
                    {
                      "internalType": "uint256",
                      "name": "ratio",
                      "type": "uint256"
                    }
                  ],
                  "internalType": "struct SmartPoolManager.levelParams",
                  "name": "fourLevel",
                  "type": "tuple"
                }
              ],
              "internalType": "struct SmartPoolManager.feeParams",
              "name": "redeemFee",
              "type": "tuple"
            },
            {
              "components": [
                {
                  "components": [
                    {
                      "internalType": "uint256",
                      "name": "level",
                      "type": "uint256"
                    },
                    {
                      "internalType": "uint256",
                      "name": "ratio",
                      "type": "uint256"
                    }
                  ],
                  "internalType": "struct SmartPoolManager.levelParams",
                  "name": "firstLevel",
                  "type": "tuple"
                },
                {
                  "components": [
                    {
                      "internalType": "uint256",
                      "name": "level",
                      "type": "uint256"
                    },
                    {
                      "internalType": "uint256",
                      "name": "ratio",
                      "type": "uint256"
                    }
                  ],
                  "internalType": "struct SmartPoolManager.levelParams",
                  "name": "secondLevel",
                  "type": "tuple"
                },
                {
                  "components": [
                    {
                      "internalType": "uint256",
                      "name": "level",
                      "type": "uint256"
                    },
                    {
                      "internalType": "uint256",
                      "name": "ratio",
                      "type": "uint256"
                    }
                  ],
                  "internalType": "struct SmartPoolManager.levelParams",
                  "name": "thirdLevel",
                  "type": "tuple"
                },
                {
                  "components": [
                    {
                      "internalType": "uint256",
                      "name": "level",
                      "type": "uint256"
                    },
                    {
                      "internalType": "uint256",
                      "name": "ratio",
                      "type": "uint256"
                    }
                  ],
                  "internalType": "struct SmartPoolManager.levelParams",
                  "name": "fourLevel",
                  "type": "tuple"
                }
              ],
              "internalType": "struct SmartPoolManager.feeParams",
              "name": "perfermanceFee",
              "type": "tuple"
            }
          ],
          "internalType": "struct SmartPoolManager.KolPoolParams",
          "name": "kolPoolParams",
          "type": "tuple"
        },
        {
          "internalType": "address[]",
          "name": "owners",
          "type": "address[]"
        },
        {
          "internalType": "uint256[]",
          "name": "ownerPercentage",
          "type": "uint256[]"
        },
        {
          "components": [
            {
              "internalType": "uint256",
              "name": "bspFloor",
              "type": "uint256"
            },
            {
              "internalType": "uint256",
              "name": "bspCap",
              "type": "uint256"
            }
          ],
          "internalType": "struct IConfigurableRightsPool.PoolTokenRange",
          "name": "tokenRange",
          "type": "tuple"
        }
      ],
      "name": "createSmartPool",
      "outputs": [
        {
          "internalType": "contract IConfigurableRightsPool",
          "name": "crp",
          "type": "address"
        }
      ],
      "stateMutability": "nonpayable",
      "type": "function"
    },
    {
      "inputs": [
        {
          "internalType": "contract IConfigurableRightsPool",
          "name": "pool",
          "type": "address"
        },
        {
          "internalType": "uint256",
          "name": "poolAmountIn",
          "type": "uint256"
        },
        {
          "internalType": "uint256[]",
          "name": "minAmountsOut",
          "type": "uint256[]"
        }
      ],
      "name": "exitPool",
      "outputs": [],
      "stateMutability": "nonpayable",
      "type": "function"
    },
    {
      "inputs": [
        {
          "internalType": "contract LiquidityPoolActions",
          "name": "pool",
          "type": "address"
        }
      ],
      "name": "finalize",
      "outputs": [],
      "stateMutability": "nonpayable",
      "type": "function"
    },
    {
      "inputs": [
        {
          "internalType": "contract LiquidityPoolActions",
          "name": "pool",
          "type": "address"
        },
        {
          "internalType": "uint256",
          "name": "poolAmountOut",
          "type": "uint256"
        },
        {
          "internalType": "uint256[]",
          "name": "maxAmountsIn",
          "type": "uint256[]"
        }
      ],
      "name": "joinPool",
      "outputs": [],
      "stateMutability": "nonpayable",
      "type": "function"
    },
    {
      "inputs": [
        {
          "internalType": "contract IConfigurableRightsPool",
          "name": "pool",
          "type": "address"
        },
        {
          "internalType": "uint256",
          "name": "poolAmountOut",
          "type": "uint256"
        },
        {
          "internalType": "uint256[]",
          "name": "maxAmountsIn",
          "type": "uint256[]"
        },
        {
          "internalType": "address",
          "name": "kol",
          "type": "address"
        }
      ],
      "name": "joinSmartPool",
      "outputs": [],
      "stateMutability": "nonpayable",
      "type": "function"
    },
    {
      "inputs": [
        {
          "internalType": "contract IConfigurableRightsPool",
          "name": "crp",
          "type": "address"
        },
        {
          "internalType": "address",
          "name": "tokenA",
          "type": "address"
        },
        {
          "internalType": "address",
          "name": "tokenB",
          "type": "address"
        },
        {
          "internalType": "uint256",
          "name": "deltaWeight",
          "type": "uint256"
        },
        {
          "internalType": "uint256",
          "name": "minAmountOut",
          "type": "uint256"
        }
      ],
      "name": "rebalance",
      "outputs": [],
      "stateMutability": "nonpayable",
      "type": "function"
    },
    {
      "inputs": [
        {
          "internalType": "contract IConfigurableRightsPool",
          "name": "crp",
          "type": "address"
        },
        {
          "internalType": "address",
          "name": "provider",
          "type": "address"
        }
      ],
      "name": "removeWhitelistedLiquidityProvider",
      "outputs": [],
      "stateMutability": "nonpayable",
      "type": "function"
    },
    {
      "inputs": [
        {
          "internalType": "contract IConfigurableRightsPool",
          "name": "crp",
          "type": "address"
        },
        {
          "internalType": "uint256",
          "name": "newCap",
          "type": "uint256"
        }
      ],
      "name": "setCap",
      "outputs": [],
      "stateMutability": "nonpayable",
      "type": "function"
    },
    {
      "inputs": [
        {
          "internalType": "contract AbstractPool",
          "name": "pool",
          "type": "address"
        },
        {
          "internalType": "address",
          "name": "vault",
          "type": "address"
        },
        {
          "internalType": "address",
          "name": "newController",
          "type": "address"
        }
      ],
      "name": "setController",
      "outputs": [],
      "stateMutability": "nonpayable",
      "type": "function"
    },
    {
      "inputs": [
        {
          "internalType": "contract AbstractPool",
          "name": "pool",
          "type": "address"
        },
        {
          "internalType": "address",
          "name": "vault",
          "type": "address"
        },
        {
          "internalType": "address[]",
          "name": "_owners",
          "type": "address[]"
        },
        {
          "internalType": "uint256[]",
          "name": "_ownerPercentage",
          "type": "uint256[]"
        }
      ],
      "name": "setManagersInfo",
      "outputs": [],
      "stateMutability": "nonpayable",
      "type": "function"
    },
    {
      "inputs": [
        {
          "internalType": "contract AbstractPool",
          "name": "pool",
          "type": "address"
        },
        {
          "internalType": "bool",
          "name": "publicSwap",
          "type": "bool"
        }
      ],
      "name": "setPublicSwap",
      "outputs": [],
      "stateMutability": "nonpayable",
      "type": "function"
    },
    {
      "inputs": [
        {
          "internalType": "contract AbstractPool",
          "name": "pool",
          "type": "address"
        },
        {
          "internalType": "uint256",
          "name": "newFee",
          "type": "uint256"
        }
      ],
      "name": "setSwapFee",
      "outputs": [],
      "stateMutability": "nonpayable",
      "type": "function"
    },
    {
      "inputs": [
        {
          "internalType": "contract LiquidityPoolActions",
          "name": "pool",
          "type": "address"
        },
        {
          "internalType": "address[]",
          "name": "tokens",
          "type": "address[]"
        },
        {
          "internalType": "uint256[]",
          "name": "balances",
          "type": "uint256[]"
        },
        {
          "internalType": "uint256[]",
          "name": "denorms",
          "type": "uint256[]"
        }
      ],
      "name": "setTokens",
      "outputs": [],
      "stateMutability": "nonpayable",
      "type": "function"
    },
    {
      "inputs": [
        {
          "internalType": "contract IConfigurableRightsPool",
          "name": "crp",
          "type": "address"
        },
        {
          "internalType": "address",
          "name": "provider",
          "type": "address"
        }
      ],
      "name": "whitelistLiquidityProvider",
      "outputs": [],
      "stateMutability": "nonpayable",
      "type": "function"
    }
  ],
  "transactionHash": "0x491dfa47337702147b87340732afa69097abe5e938a882b0c82c030057eb24c1",
  "args": [],
  "numDeployments": 1,
  "solcInputHash": "db1bbd35822d98d7e95e73010e06935d",
  "bytecode": "0x608060405234801561001057600080fd5b5061330f806100206000396000f3fe608060405234801561001057600080fd5b50600436106100f15760003560e01c8063135b968d146100f65780631a78a2751461010b5780631eccc18514610134578063333fbeef146101475780634ef39b751461015a5780635606d81f1461016d57806363ced092146101805780637840fb6c1461019357806380ad2cf3146101a65780638a5c57df146101b95780639589da76146101cc578063991991c7146101df578063a7f28da7146101f2578063affdd4ee14610205578063d945940714610218578063e0d945bf1461022b578063e221e73a1461023e578063fa4452bd14610251578063fb41126514610264575b600080fd5b610109610104366004612a01565b610277565b005b61011e610119366004612752565b6103a9565b60405161012b9190612e13565b60405180910390f35b6101096101423660046126fa565b610853565b610109610155366004612923565b6108ad565b61010961016836600461251c565b6108d9565b61010961017b36600461262b565b610a40565b61010961018e366004612a72565b610aad565b6101096101a136600461253f565b610ba8565b6101096101b4366004612727565b610bd4565b6101096101c7366004612b66565b610c00565b6101096101da36600461298f565b610cc1565b6101096101ed366004612727565b610cef565b610109610200366004612923565b610d1b565b610109610213366004612935565b610d47565b61011e610226366004612816565b610db2565b610109610239366004612abe565b6110f3565b61010961024c36600461253f565b61191b565b61010961025f366004612675565b611978565b61010961027236600461251c565b6119de565b6060856001600160a01b031663b64ef17b6040518163ffffffff1660e01b815260040160206040518083038186803b1580156102b257600080fd5b505afa1580156102c6573d6000803e3d6000fd5b505050506040513d601f19601f820116820180604052508101906102ea9190612907565b6001600160a01b031663cc77828d6040518163ffffffff1660e01b815260040160006040518083038186803b15801561032257600080fd5b505afa158015610336573d6000803e3d6000fd5b505050506040513d6000823e601f3d908101601f1916820160405261035e9190810190612577565b90506103a1868287878780806020026020016040519081016040528093929190818152602001838360200280828437600092019190915250899250611a33915050565b505050505050565b60008786146103d35760405162461bcd60e51b81526004016103ca906130a3565b60405180910390fd5b8784146103f25760405162461bcd60e51b81526004016103ca906130a3565b896001600160a01b03166391cefde46040518163ffffffff1660e01b8152600401602060405180830381600087803b15801561042d57600080fd5b505af1158015610441573d6000803e3d6000fd5b505050506040513d601f19601f820116820180604052508101906104659190612907565b6040516334e1990760e01b81529091506001600160a01b038216906334e19907906104949086906004016130fd565b600060405180830381600087803b1580156104ae57600080fd5b505af11580156104c2573d6000803e3d6000fd5b5050505060005b888110156106765760008a8a838181106104df57fe5b90506020020160208101906104f4919061251c565b9050806001600160a01b03166323b872dd33308c8c8781811061051357fe5b905060200201356040518463ffffffff1660e01b815260040161053893929190612e27565b602060405180830381600087803b15801561055257600080fd5b505af1158015610566573d6000803e3d6000fd5b505050506040513d601f19601f8201168201806040525081019061058a919061260f565b6105a65760405162461bcd60e51b81526004016103ca906130d0565b6105c381848b8b868181106105b757fe5b90506020020135611e87565b826001600160a01b031663e4e1e5388c8c858181106105de57fe5b90506020020160208101906105f3919061251c565b8b8b868181106105ff57fe5b905060200201358a8a8781811061061257fe5b905060200201356040518463ffffffff1660e01b815260040161063793929190613024565b600060405180830381600087803b15801561065157600080fd5b505af1158015610665573d6000803e3d6000fd5b5050600190930192506104c9915050565b5081156107e657806001600160a01b0316634bb278f36040518163ffffffff1660e01b8152600401600060405180830381600087803b1580156106b857600080fd5b505af11580156106cc573d6000803e3d6000fd5b50506040516370a0823160e01b81526001600160a01b038416925063a9059cbb9150339083906370a0823190610706903090600401612e13565b60206040518083038186803b15801561071e57600080fd5b505afa158015610732573d6000803e3d6000fd5b505050506040513d601f19601f820116820180604052508101906107569190612bde565b6040518363ffffffff1660e01b8152600401610773929190612e4b565b602060405180830381600087803b15801561078d57600080fd5b505af11580156107a1573d6000803e3d6000fd5b505050506040513d601f19601f820116820180604052508101906107c5919061260f565b6107e15760405162461bcd60e51b81526004016103ca906130d0565b610846565b6040516324dacaa960e11b81526001600160a01b038216906349b595529061081390600190600401613098565b600060405180830381600087803b15801561082d57600080fd5b505af1158015610841573d6000803e3d6000fd5b505050505b9998505050505050505050565b6040516324dacaa960e11b81526001600160a01b038316906349b595529061087f908490600401613098565b600060405180830381600087803b15801561089957600080fd5b505af11580156103a1573d6000803e3d6000fd5b60405163c83a1c2d60e01b81526001600160a01b0383169063c83a1c2d9061087f908490600401612e13565b806001600160a01b0316634bb278f36040518163ffffffff1660e01b8152600401600060405180830381600087803b15801561091457600080fd5b505af1158015610928573d6000803e3d6000fd5b50506040516370a0823160e01b81526001600160a01b038416925063a9059cbb9150339083906370a0823190610962903090600401612e13565b60206040518083038186803b15801561097a57600080fd5b505afa15801561098e573d6000803e3d6000fd5b505050506040513d601f19601f820116820180604052508101906109b29190612bde565b6040518363ffffffff1660e01b81526004016109cf929190612e4b565b602060405180830381600087803b1580156109e957600080fd5b505af11580156109fd573d6000803e3d6000fd5b505050506040513d601f19601f82011682018060405250810190610a21919061260f565b610a3d5760405162461bcd60e51b81526004016103ca906130d0565b50565b610a4a8284612011565b6040516392eefe9b60e01b81526001600160a01b038416906392eefe9b90610a76908490600401612e13565b600060405180830381600087803b158015610a9057600080fd5b505af1158015610aa4573d6000803e3d6000fd5b50505050505050565b6060836001600160a01b031663b64ef17b6040518163ffffffff1660e01b815260040160206040518083038186803b158015610ae857600080fd5b505afa158015610afc573d6000803e3d6000fd5b505050506040513d601f19601f82011682018060405250810190610b209190612907565b6001600160a01b031663cc77828d6040518163ffffffff1660e01b815260040160006040518083038186803b158015610b5857600080fd5b505afa158015610b6c573d6000803e3d6000fd5b505050506040513d6000823e601f3d908101601f19168201604052610b949190810190612577565b9050610ba284848484612024565b50505050565b60405163325a48a760e21b81526001600160a01b0383169063c969229c9061087f908490600401612e13565b6040516347786d3760e01b81526001600160a01b038316906347786d379061087f9084906004016130fd565b6060846001600160a01b031663be3bbd2e6040518163ffffffff1660e01b815260040160006040518083038186803b158015610c3b57600080fd5b505afa158015610c4f573d6000803e3d6000fd5b505050506040513d6000823e601f3d908101601f19168201604052610c779190810190612577565b9050610cba858286868680806020026020016040519081016040528093929190818152602001838360200280828437600092019190915250339250611a33915050565b5050505050565b6040516329b0917160e21b81526001600160a01b0384169063a6c245c490610a769085908590600401613073565b6040516334e1990760e01b81526001600160a01b038316906334e199079061087f9084906004016130fd565b60405163e2762d4b60e01b81526001600160a01b0383169063e2762d4b9061087f908490600401612e13565b604051631b9276c760e21b81526001600160a01b03861690636e49db1c90610d79908790879087908790600401612e7e565b600060405180830381600087803b158015610d9357600080fd5b505af1158015610da7573d6000803e3d6000fd5b505050505050505050565b6000610dc16060890189613190565b9050610dd060408a018a613190565b905014610def5760405162461bcd60e51b81526004016103ca906130a3565b610dfc6080890189613190565b9050610e0b60408a018a613190565b905014610e2a5760405162461bcd60e51b81526004016103ca906130a3565b60405163074aa1b960e51b81526001600160a01b038b169063e954372090610e60908c908c908b908b908b908b90600401612ea7565b602060405180830381600087803b158015610e7a57600080fd5b505af1158015610e8e573d6000803e3d6000fd5b505050506040513d601f19601f82011682018060405250810190610eb29190612907565b905060005b610ec460408a018a613190565b9050811015610fdd576000610edc60408b018b613190565b83818110610ee657fe5b9050602002016020810190610efb919061251c565b90506001600160a01b0381166323b872dd3330610f1b60608f018f613190565b87818110610f2557fe5b905060200201356040518463ffffffff1660e01b8152600401610f4a93929190612e27565b602060405180830381600087803b158015610f6457600080fd5b505af1158015610f78573d6000803e3d6000fd5b505050506040513d601f19601f82011682018060405250810190610f9c919061260f565b610fb85760405162461bcd60e51b81526004016103ca906130d0565b610fd48184610fca60608e018e613190565b868181106105b757fe5b50600101610eb7565b506001600160a01b038116630892b93d883560208a013561100460608c0160408d01612bbf565b866040518563ffffffff1660e01b81526004016110249493929190613158565b600060405180830381600087803b15801561103e57600080fd5b505af1158015611052573d6000803e3d6000fd5b505060405163a9059cbb60e01b81526001600160a01b038416925063a9059cbb91506110859033908b3590600401612e4b565b602060405180830381600087803b15801561109f57600080fd5b505af11580156110b3573d6000803e3d6000fd5b505050506040513d601f19601f820116820180604052508101906110d7919061260f565b6108465760405162461bcd60e51b81526004016103ca906130d0565b8483146111125760405162461bcd60e51b81526004016103ca906130a3565b8481146111315760405162461bcd60e51b81526004016103ca906130a3565b60005b8581101561191157600087878381811061114a57fe5b905060200201602081019061115f919061251c565b9050886001600160a01b0316632f37b62489898581811061117c57fe5b9050602002016020810190611191919061251c565b6040518263ffffffff1660e01b81526004016111ad9190612e13565b60206040518083038186803b1580156111c557600080fd5b505afa1580156111d9573d6000803e3d6000fd5b505050506040513d601f19601f820116820180604052508101906111fd919061260f565b1561160a57886001600160a01b031663f8b2cb4f89898581811061121d57fe5b9050602002016020810190611232919061251c565b6040518263ffffffff1660e01b815260040161124e9190612e13565b60206040518083038186803b15801561126657600080fd5b505afa15801561127a573d6000803e3d6000fd5b505050506040513d601f19601f8201168201806040525081019061129e9190612bde565b8686848181106112aa57fe5b9050602002013511156114be57806001600160a01b03166323b872dd33308c6001600160a01b031663f8b2cb4f8d8d898181106112e357fe5b90506020020160208101906112f8919061251c565b6040518263ffffffff1660e01b81526004016113149190612e13565b60206040518083038186803b15801561132c57600080fd5b505afa158015611340573d6000803e3d6000fd5b505050506040513d601f19601f820116820180604052508101906113649190612bde565b8a8a8881811061137057fe5b90506020020135036040518463ffffffff1660e01b815260040161139693929190612e27565b602060405180830381600087803b1580156113b057600080fd5b505af11580156113c4573d6000803e3d6000fd5b505050506040513d601f19601f820116820180604052508101906113e8919061260f565b6114045760405162461bcd60e51b81526004016103ca906130d0565b6114be818a8b6001600160a01b031663f8b2cb4f8c8c8881811061142457fe5b9050602002016020810190611439919061251c565b6040518263ffffffff1660e01b81526004016114559190612e13565b60206040518083038186803b15801561146d57600080fd5b505afa158015611481573d6000803e3d6000fd5b505050506040513d601f19601f820116820180604052508101906114a59190612bde565b8989878181106114b157fe5b9050602002013503611e87565b620f42408686848181106114ce57fe5b90506020020135111561158657886001600160a01b0316633fdddaa28989858181106114f657fe5b905060200201602081019061150b919061251c565b88888681811061151757fe5b9050602002013587878781811061152a57fe5b905060200201356040518463ffffffff1660e01b815260040161154f93929190613024565b600060405180830381600087803b15801561156957600080fd5b505af115801561157d573d6000803e3d6000fd5b50505050611605565b886001600160a01b031663cf5e7bd38989858181106115a157fe5b90506020020160208101906115b6919061251c565b6040518263ffffffff1660e01b81526004016115d29190612e13565b600060405180830381600087803b1580156115ec57600080fd5b505af1158015611600573d6000803e3d6000fd5b505050505b611772565b806001600160a01b03166323b872dd333089898781811061162757fe5b905060200201356040518463ffffffff1660e01b815260040161164c93929190612e27565b602060405180830381600087803b15801561166657600080fd5b505af115801561167a573d6000803e3d6000fd5b505050506040513d601f19601f8201168201806040525081019061169e919061260f565b6116ba5760405162461bcd60e51b81526004016103ca906130d0565b6116cb818a8888868181106105b757fe5b886001600160a01b031663e4e1e5388989858181106116e657fe5b90506020020160208101906116fb919061251c565b88888681811061170757fe5b9050602002013587878781811061171a57fe5b905060200201356040518463ffffffff1660e01b815260040161173f93929190613024565b600060405180830381600087803b15801561175957600080fd5b505af115801561176d573d6000803e3d6000fd5b505050505b6040516370a0823160e01b81526000906001600160a01b038316906370a08231906117a1903090600401612e13565b60206040518083038186803b1580156117b957600080fd5b505afa1580156117cd573d6000803e3d6000fd5b505050506040513d601f19601f820116820180604052508101906117f19190612bde565b1115611908576040516370a0823160e01b81526001600160a01b0382169063a9059cbb90339083906370a082319061182d903090600401612e13565b60206040518083038186803b15801561184557600080fd5b505afa158015611859573d6000803e3d6000fd5b505050506040513d601f19601f8201168201806040525081019061187d9190612bde565b6040518363ffffffff1660e01b815260040161189a929190612e4b565b602060405180830381600087803b1580156118b457600080fd5b505af11580156118c8573d6000803e3d6000fd5b505050506040513d601f19601f820116820180604052508101906118ec919061260f565b6119085760405162461bcd60e51b81526004016103ca906130d0565b50600101611134565b5050505050505050565b60405163edb12adf60e01b81526001600160a01b0383169063edb12adf90611947908490600401612e13565b600060405180830381600087803b15801561196157600080fd5b505af1925050508015611972575060015b505b5050565b6119828385612011565b6040516303c153ef60e61b81526001600160a01b0385169063f054fbc0906119b09085908590600401613045565b600060405180830381600087803b1580156119ca57600080fd5b505af1158015611911573d6000803e3d6000fd5b806001600160a01b031663d2fed42e6040518163ffffffff1660e01b8152600401600060405180830381600087803b158015611a1957600080fd5b505af1925050508015611a2a575060015b610a3d57610a3d565b8351825114611a545760405162461bcd60e51b81526004016103ca906130a3565b60005b8451811015611b50576000858281518110611a6e57fe5b60200260200101519050806001600160a01b03166323b872dd3330878681518110611a9557fe5b60200260200101516040518463ffffffff1660e01b8152600401611abb93929190612e27565b602060405180830381600087803b158015611ad557600080fd5b505af1158015611ae9573d6000803e3d6000fd5b505050506040513d601f19601f82011682018060405250810190611b0d919061260f565b611b295760405162461bcd60e51b81526004016103ca906130d0565b611b478188868581518110611b3a57fe5b6020026020010151611e87565b50600101611a57565b5060405163077df9bd60e31b81526001600160a01b03861690633befcde890611b8190869086908690600401613127565b600060405180830381600087803b158015611b9b57600080fd5b505af1158015611baf573d6000803e3d6000fd5b5050505060005b8451811015611d75576000858281518110611bcd57fe5b602002602001015190506000816001600160a01b03166370a08231306040518263ffffffff1660e01b8152600401611c059190612e13565b60206040518083038186803b158015611c1d57600080fd5b505afa158015611c31573d6000803e3d6000fd5b505050506040513d601f19601f82011682018060405250810190611c559190612bde565b1115611d6c576040516370a0823160e01b81526001600160a01b0382169063a9059cbb90339083906370a0823190611c91903090600401612e13565b60206040518083038186803b158015611ca957600080fd5b505afa158015611cbd573d6000803e3d6000fd5b505050506040513d601f19601f82011682018060405250810190611ce19190612bde565b6040518363ffffffff1660e01b8152600401611cfe929190612e4b565b602060405180830381600087803b158015611d1857600080fd5b505af1158015611d2c573d6000803e3d6000fd5b505050506040513d601f19601f82011682018060405250810190611d50919061260f565b611d6c5760405162461bcd60e51b81526004016103ca906130d0565b50600101611bb6565b506040516370a0823160e01b81526001600160a01b0386169063a9059cbb90339083906370a0823190611dac903090600401612e13565b60206040518083038186803b158015611dc457600080fd5b505afa158015611dd8573d6000803e3d6000fd5b505050506040513d601f19601f82011682018060405250810190611dfc9190612bde565b6040518363ffffffff1660e01b8152600401611e19929190612e4b565b602060405180830381600087803b158015611e3357600080fd5b505af1158015611e47573d6000803e3d6000fd5b505050506040513d601f19601f82011682018060405250810190611e6b919061260f565b610cba5760405162461bcd60e51b81526004016103ca906130d0565b604051636eb1769f60e11b81526000906001600160a01b0385169063dd62ed3e90611eb89030908790600401612e64565b60206040518083038186803b158015611ed057600080fd5b505afa158015611ee4573d6000803e3d6000fd5b505050506040513d601f19601f82011682018060405250810190611f089190612bde565b1115611f915760405163095ea7b360e01b81526001600160a01b0384169063095ea7b390611f3d908590600090600401612e4b565b602060405180830381600087803b158015611f5757600080fd5b505af1158015611f6b573d6000803e3d6000fd5b505050506040513d601f19601f82011682018060405250810190611f8f919061260f565b505b60405163095ea7b360e01b81526001600160a01b0384169063095ea7b390611fbf9085908590600401612e4b565b602060405180830381600087803b158015611fd957600080fd5b505af1158015611fed573d6000803e3d6000fd5b505050506040513d601f19601f82011682018060405250810190610ba2919061260f565b61201a816119de565b611974828261191b565b6040516370a0823160e01b81526000906001600160a01b038616906370a0823190612053903390600401612e13565b60206040518083038186803b15801561206b57600080fd5b505afa15801561207f573d6000803e3d6000fd5b505050506040513d601f19601f820116820180604052508101906120a39190612bde565b6040516323b872dd60e01b81529091506001600160a01b038616906323b872dd906120d690339030908690600401612e27565b602060405180830381600087803b1580156120f057600080fd5b505af1158015612104573d6000803e3d6000fd5b505050506040513d601f19601f82011682018060405250810190612128919061260f565b6121445760405162461bcd60e51b81526004016103ca906130d0565b61214f858683611e87565b60405163b02f0b7360e01b81526001600160a01b0386169063b02f0b739061217d9087908790600401613106565b600060405180830381600087803b15801561219757600080fd5b505af11580156121ab573d6000803e3d6000fd5b5050505060005b8251811015611d755760008382815181106121c957fe5b602002602001015190506000816001600160a01b03166370a08231306040518263ffffffff1660e01b81526004016122019190612e13565b60206040518083038186803b15801561221957600080fd5b505afa15801561222d573d6000803e3d6000fd5b505050506040513d601f19601f820116820180604052508101906122519190612bde565b1115612368576040516370a0823160e01b81526001600160a01b0382169063a9059cbb90339083906370a082319061228d903090600401612e13565b60206040518083038186803b1580156122a557600080fd5b505afa1580156122b9573d6000803e3d6000fd5b505050506040513d601f19601f820116820180604052508101906122dd9190612bde565b6040518363ffffffff1660e01b81526004016122fa929190612e4b565b602060405180830381600087803b15801561231457600080fd5b505af1158015612328573d6000803e3d6000fd5b505050506040513d601f19601f8201168201806040525081019061234c919061260f565b6123685760405162461bcd60e51b81526004016103ca906130d0565b506001016121b2565b60008083601f840112612382578182fd5b5081356001600160401b03811115612398578182fd5b60208301915083602080830285010111156123b257600080fd5b9250929050565b600082601f8301126123c9578081fd5b81356123dc6123d7826131fc565b6131d6565b8181529150602080830190848101818402860182018710156123fd57600080fd5b60005b84811015612425578135612413816132b6565b84529282019290820190600101612400565b505050505092915050565b600082601f830112612440578081fd5b813561244e6123d7826131fc565b81815291506020808301908481018184028601820187101561246f57600080fd5b60005b8481101561242557813584529282019290820190600101612472565b8035612499816132b6565b92915050565b6000606082840312156124b0578081fd5b50919050565b600061040082840312156124b0578081fd5b600061016082840312156124b0578081fd5b6000604082840312156124eb578081fd5b6124f560406131d6565b9050813581526020820135602082015292915050565b600060c082840312156124b0578081fd5b60006020828403121561252d578081fd5b8135612538816132b6565b9392505050565b60008060408385031215612551578081fd5b823561255c816132b6565b9150602083013561256c816132b6565b809150509250929050565b60006020808385031215612589578182fd5b82516001600160401b0381111561259e578283fd5b8301601f810185136125ae578283fd5b80516125bc6123d7826131fc565b81815283810190838501858402850186018910156125d8578687fd5b8694505b838510156126035780516125ef816132b6565b8352600194909401939185019185016125dc565b50979650505050505050565b600060208284031215612620578081fd5b8151612538816132cb565b60008060006060848603121561263f578081fd5b833561264a816132b6565b9250602084013561265a816132b6565b9150604084013561266a816132b6565b809150509250925092565b6000806000806080858703121561268a578182fd5b8435612695816132b6565b935060208501356126a5816132b6565b925060408501356001600160401b03808211156126c0578384fd5b6126cc888389016123b9565b935060608701359150808211156126e1578283fd5b506126ee87828801612430565b91505092959194509250565b6000806040838503121561270c578182fd5b8235612717816132b6565b9150602083013561256c816132cb565b60008060408385031215612739578182fd5b8235612744816132b6565b946020939093013593505050565b600080600080600080600080600060c08a8c03121561276f578687fd5b893561277a816132b6565b985060208a01356001600160401b0380821115612795578889fd5b6127a18d838e01612371565b909a50985060408c01359150808211156127b9578687fd5b6127c58d838e01612371565b909850965060608c01359150808211156127dd578586fd5b506127ea8c828d01612371565b90955093505060808a0135915060a08a0135612805816132cb565b809150509295985092959850929598565b60008060008060008060008060006106008a8c031215612834578283fd5b61283e8b8b61248e565b985061284d8b60208c0161248e565b975060408a01356001600160401b0380821115612868578485fd5b6128748d838e016124c8565b98506128838d60608e0161249f565b97506128928d60c08e0161250b565b96506128a28d6101808e016124b6565b95506105808c01359150808211156128b8578485fd5b6128c48d838e016123b9565b94506105a08c01359150808211156128da578384fd5b506128e78c828d01612430565b9250506128f88b6105c08c016124da565b90509295985092959850929598565b600060208284031215612918578081fd5b8151612538816132b6565b60008060408385031215612551578182fd5b600080600080600060a0868803121561294c578283fd5b8535612957816132b6565b94506020860135612967816132b6565b93506040860135612977816132b6565b94979396509394606081013594506080013592915050565b6000806000606084860312156129a3578081fd5b83356129ae816132b6565b925060208401356001600160401b03808211156129c9578283fd5b6129d587838801612430565b935060408601359150808211156129ea578283fd5b506129f7868287016123b9565b9150509250925092565b600080600080600060808688031215612a18578283fd5b8535612a23816132b6565b94506020860135935060408601356001600160401b03811115612a44578384fd5b612a5088828901612371565b9094509250506060860135612a64816132b6565b809150509295509295909350565b600080600060608486031215612a86578081fd5b8335612a91816132b6565b92506020840135915060408401356001600160401b03811115612ab2578182fd5b6129f786828701612430565b60008060008060008060006080888a031215612ad8578081fd5b8735612ae3816132b6565b965060208801356001600160401b0380821115612afe578283fd5b612b0a8b838c01612371565b909850965060408a0135915080821115612b22578283fd5b612b2e8b838c01612371565b909650945060608a0135915080821115612b46578283fd5b50612b538a828b01612371565b989b979a50959850939692959293505050565b60008060008060608587031215612b7b578182fd5b8435612b86816132b6565b93506020850135925060408501356001600160401b03811115612ba7578283fd5b612bb387828801612371565b95989497509550505050565b600060208284031215612bd0578081fd5b813560038110612538578182fd5b600060208284031215612bef578081fd5b5051919050565b60008284526020808501945082825b85811015612c33578135612c18816132b6565b6001600160a01b031687529582019590820190600101612c05565b509495945050505050565b6000815180845260208085019450808401835b83811015612c335781516001600160a01b031687529582019590820190600101612c51565b81835260006001600160fb1b03831115612c8e578081fd5b6020830280836020870137939093016020019283525090919050565b6000815180845260208085019450808401835b83811015612c3357815187529582019590820190600101612cbd565b60028110612ce357fe5b9052565b60008284528282602086013780602084860101526020601f19601f85011685010190509392505050565b612d1b8282612dce565b610100612d2c818401828401612dce565b50610200612d3e818401828401612dce565b50610300611972818401828401612dce565b8035612d5b816132cb565b151582526020810135612d6d816132cb565b151560208301526040810135612d82816132cb565b151560408301526060810135612d97816132cb565b151560608301526080810135612dac816132cb565b1515608083015260a0810135612dc1816132cb565b80151560a0840152505050565b612dd88282612e04565b612de86040830160408301612e04565b612df86080830160808301612e04565b61197460c0830160c083015b80358252602090810135910152565b6001600160a01b0391909116815260200190565b6001600160a01b039384168152919092166020820152604081019190915260600190565b6001600160a01b03929092168252602082015260400190565b6001600160a01b0392831681529116602082015260400190565b6001600160a01b0394851681529290931660208301526040820152606081019190915260800190565b6001600160a01b038716815261054060208201819052600090612eca8880613272565b61016083860152612ee06106a086018284612ce7565b92505050612ef16020890189613272565b61053f198086850301610560870152612f0b848385612ce7565b9350612f1a60408c018c61321b565b935091508086850301610580870152612f34848484612bf6565b9350612f4360608c018c61321b565b9350915080868503016105a0870152612f5d848484612c76565b9350612f6c60808c018c61321b565b9350915080868503016105c087015250612f87838383612c76565b9250505060a08801356105e084015260c088013561060084015260e088013561062084015261010080890135610640850152610120890135610660850152612fd36101408a018a613262565b612fe1610680860182612cd9565b50612fef6040850189612d50565b612ffb81850188612d11565b5082810361050084015261300f8186612c3e565b90508281036105208401526108468185612caa565b6001600160a01b039390931683526020830191909152604082015260600190565b6000604082526130586040830185612c3e565b828103602084015261306a8185612caa565b95945050505050565b6000604082526130866040830185612caa565b828103602084015261306a8185612c3e565b901515815260200190565b60208082526013908201527208aa4a4be988a9c8ea890be9a92a69a82a8869606b1b604082015260600190565b60208082526013908201527211549497d514905394d1915497d19052531151606a1b604082015260600190565b90815260200190565b60008382526040602083015261311f6040830184612caa565b949350505050565b6000848252606060208301526131406060830185612caa565b905060018060a01b0383166040830152949350505050565b8481526020810184905260a081016003841061317057fe5b836040830152825160608301526020830151608083015295945050505050565b6000808335601e198436030181126131a6578283fd5b8301803591506001600160401b038211156131bf578283fd5b60209081019250810236038213156123b257600080fd5b6040518181016001600160401b03811182821017156131f457600080fd5b604052919050565b60006001600160401b03821115613211578081fd5b5060209081020190565b6000808335601e19843603018112613231578283fd5b83016020810192503590506001600160401b0381111561325057600080fd5b6020810236038313156123b257600080fd5b6000823560028110612538578182fd5b6000808335601e19843603018112613288578283fd5b83016020810192503590506001600160401b038111156132a757600080fd5b8036038313156123b257600080fd5b6001600160a01b0381168114610a3d57600080fd5b8015158114610a3d57600080fdfea26469706673582212208b271536b515a625fa6a1ffcfa1c33d938266543471109f581c49a236b14910864736f6c634300060c0033",
  "libraries": {},
  "devdoc": {
    "kind": "dev",
    "methods": {},
    "version": 1
  },
  "userdoc": {
    "kind": "user",
    "methods": {},
    "version": 1
  },
  "storageLayout": {
    "storage": [],
    "types": null
  }
}