{
  "address": "0xC98e2c6E6945B6C9e22309046d2b11ab4fa1184B",
  "abi": [
    {
      "inputs": [
        {
          "internalType": "address",
          "name": "_userVault",
          "type": "address"
        },
        {
          "internalType": "address",
          "name": "pool",
          "type": "address"
        }
      ],
      "name": "claimKolReward",
      "outputs": [],
      "stateMutability": "nonpayable",
      "type": "function"
    },
    {
      "inputs": [
        {
          "internalType": "address",
          "name": "_userVault",
          "type": "address"
        },
        {
          "internalType": "address",
          "name": "pool",
          "type": "address"
        }
      ],
      "name": "claimManagersReward",
      "outputs": [],
      "stateMutability": "nonpayable",
      "type": "function"
    },
    {
      "inputs": [
        {
          "internalType": "contract FactoryActions",
          "name": "factory",
          "type": "address"
        },
        {
          "internalType": "address[]",
          "name": "tokens",
          "type": "address[]"
        },
        {
          "internalType": "uint256[]",
          "name": "balances",
          "type": "uint256[]"
        },
        {
          "internalType": "uint256[]",
          "name": "weights",
          "type": "uint256[]"
        },
        {
          "internalType": "uint256",
          "name": "swapFee",
          "type": "uint256"
        },
        {
          "internalType": "bool",
          "name": "finalize",
          "type": "bool"
        }
      ],
      "name": "create",
      "outputs": [
        {
          "internalType": "contract LiquidityPoolActions",
          "name": "pool",
          "type": "address"
        }
      ],
      "stateMutability": "nonpayable",
      "type": "function"
    },
    {
      "inputs": [
        {
          "internalType": "contract ICRPFactory",
          "name": "factory",
          "type": "address"
        },
        {
          "internalType": "contract FactoryActions",
          "name": "coreFactory",
          "type": "address"
        },
        {
          "components": [
            {
              "internalType": "string",
              "name": "poolTokenSymbol",
              "type": "string"
            },
            {
              "internalType": "string",
              "name": "poolTokenName",
              "type": "string"
            },
            {
              "internalType": "address[]",
              "name": "constituentTokens",
              "type": "address[]"
            },
            {
              "internalType": "uint256[]",
              "name": "tokenBalances",
              "type": "uint256[]"
            },
            {
              "internalType": "uint256[]",
              "name": "tokenWeights",
              "type": "uint256[]"
            },
            {
              "internalType": "uint256",
              "name": "swapFee",
              "type": "uint256"
            },
            {
              "internalType": "uint256",
              "name": "managerFee",
              "type": "uint256"
            },
            {
              "internalType": "uint256",
              "name": "redeemFee",
              "type": "uint256"
            },
            {
              "internalType": "uint256",
              "name": "issueFee",
              "type": "uint256"
            },
            {
              "internalType": "uint256",
              "name": "perfermanceFee",
              "type": "uint256"
            },
            {
              "internalType": "enum IConfigurableRightsPool.Etypes",
              "name": "etype",
              "type": "uint8"
            }
          ],
          "internalType": "struct IConfigurableRightsPool.PoolParams",
          "name": "poolParams",
          "type": "tuple"
        },
        {
          "components": [
            {
              "internalType": "uint256",
              "name": "initialSupply",
              "type": "uint256"
            },
            {
              "internalType": "uint256",
              "name": "collectPeriod",
              "type": "uint256"
            },
            {
              "internalType": "enum IConfigurableRightsPool.Period",
              "name": "period",
              "type": "uint8"
            }
          ],
          "internalType": "struct IConfigurableRightsPool.CrpParams",
          "name": "crpParams",
          "type": "tuple"
        },
        {
          "components": [
            {
              "internalType": "bool",
              "name": "canPauseSwapping",
              "type": "bool"
            },
            {
              "internalType": "bool",
              "name": "canChangeSwapFee",
              "type": "bool"
            },
            {
              "internalType": "bool",
              "name": "canChangeWeights",
              "type": "bool"
            },
            {
              "internalType": "bool",
              "name": "canAddRemoveTokens",
              "type": "bool"
            },
            {
              "internalType": "bool",
              "name": "canWhitelistLPs",
              "type": "bool"
            },
            {
              "internalType": "bool",
              "name": "canTokenWhiteLists",
              "type": "bool"
            }
          ],
          "internalType": "struct RightsManager.Rights",
          "name": "rights",
          "type": "tuple"
        },
        {
          "components": [
            {
              "components": [
                {
                  "components": [
                    {
                      "internalType": "uint256",
                      "name": "level",
                      "type": "uint256"
                    },
                    {
                      "internalType": "uint256",
                      "name": "ratio",
                      "type": "uint256"
                    }
                  ],
                  "internalType": "struct SmartPoolManager.levelParams",
                  "name": "firstLevel",
                  "type": "tuple"
                },
                {
                  "components": [
                    {
                      "internalType": "uint256",
                      "name": "level",
                      "type": "uint256"
                    },
                    {
                      "internalType": "uint256",
                      "name": "ratio",
                      "type": "uint256"
                    }
                  ],
                  "internalType": "struct SmartPoolManager.levelParams",
                  "name": "secondLevel",
                  "type": "tuple"
                },
                {
                  "components": [
                    {
                      "internalType": "uint256",
                      "name": "level",
                      "type": "uint256"
                    },
                    {
                      "internalType": "uint256",
                      "name": "ratio",
                      "type": "uint256"
                    }
                  ],
                  "internalType": "struct SmartPoolManager.levelParams",
                  "name": "thirdLevel",
                  "type": "tuple"
                },
                {
                  "components": [
                    {
                      "internalType": "uint256",
                      "name": "level",
                      "type": "uint256"
                    },
                    {
                      "internalType": "uint256",
                      "name": "ratio",
                      "type": "uint256"
                    }
                  ],
                  "internalType": "struct SmartPoolManager.levelParams",
                  "name": "fourLevel",
                  "type": "tuple"
                }
              ],
              "internalType": "struct SmartPoolManager.feeParams",
              "name": "managerFee",
              "type": "tuple"
            },
            {
              "components": [
                {
                  "components": [
                    {
                      "internalType": "uint256",
                      "name": "level",
                      "type": "uint256"
                    },
                    {
                      "internalType": "uint256",
                      "name": "ratio",
                      "type": "uint256"
                    }
                  ],
                  "internalType": "struct SmartPoolManager.levelParams",
                  "name": "firstLevel",
                  "type": "tuple"
                },
                {
                  "components": [
                    {
                      "internalType": "uint256",
                      "name": "level",
                      "type": "uint256"
                    },
                    {
                      "internalType": "uint256",
                      "name": "ratio",
                      "type": "uint256"
                    }
                  ],
                  "internalType": "struct SmartPoolManager.levelParams",
                  "name": "secondLevel",
                  "type": "tuple"
                },
                {
                  "components": [
                    {
                      "internalType": "uint256",
                      "name": "level",
                      "type": "uint256"
                    },
                    {
                      "internalType": "uint256",
                      "name": "ratio",
                      "type": "uint256"
                    }
                  ],
                  "internalType": "struct SmartPoolManager.levelParams",
                  "name": "thirdLevel",
                  "type": "tuple"
                },
                {
                  "components": [
                    {
                      "internalType": "uint256",
                      "name": "level",
                      "type": "uint256"
                    },
                    {
                      "internalType": "uint256",
                      "name": "ratio",
                      "type": "uint256"
                    }
                  ],
                  "internalType": "struct SmartPoolManager.levelParams",
                  "name": "fourLevel",
                  "type": "tuple"
                }
              ],
              "internalType": "struct SmartPoolManager.feeParams",
              "name": "issueFee",
              "type": "tuple"
            },
            {
              "components": [
                {
                  "components": [
                    {
                      "internalType": "uint256",
                      "name": "level",
                      "type": "uint256"
                    },
                    {
                      "internalType": "uint256",
                      "name": "ratio",
                      "type": "uint256"
                    }
                  ],
                  "internalType": "struct SmartPoolManager.levelParams",
                  "name": "firstLevel",
                  "type": "tuple"
                },
                {
                  "components": [
                    {
                      "internalType": "uint256",
                      "name": "level",
                      "type": "uint256"
                    },
                    {
                      "internalType": "uint256",
                      "name": "ratio",
                      "type": "uint256"
                    }
                  ],
                  "internalType": "struct SmartPoolManager.levelParams",
                  "name": "secondLevel",
                  "type": "tuple"
                },
                {
                  "components": [
                    {
                      "internalType": "uint256",
                      "name": "level",
                      "type": "uint256"
                    },
                    {
                      "internalType": "uint256",
                      "name": "ratio",
                      "type": "uint256"
                    }
                  ],
                  "internalType": "struct SmartPoolManager.levelParams",
                  "name": "thirdLevel",
                  "type": "tuple"
                },
                {
                  "components": [
                    {
                      "internalType": "uint256",
                      "name": "level",
                      "type": "uint256"
                    },
                    {
                      "internalType": "uint256",
                      "name": "ratio",
                      "type": "uint256"
                    }
                  ],
                  "internalType": "struct SmartPoolManager.levelParams",
                  "name": "fourLevel",
                  "type": "tuple"
                }
              ],
              "internalType": "struct SmartPoolManager.feeParams",
              "name": "redeemFee",
              "type": "tuple"
            },
            {
              "components": [
                {
                  "components": [
                    {
                      "internalType": "uint256",
                      "name": "level",
                      "type": "uint256"
                    },
                    {
                      "internalType": "uint256",
                      "name": "ratio",
                      "type": "uint256"
                    }
                  ],
                  "internalType": "struct SmartPoolManager.levelParams",
                  "name": "firstLevel",
                  "type": "tuple"
                },
                {
                  "components": [
                    {
                      "internalType": "uint256",
                      "name": "level",
                      "type": "uint256"
                    },
                    {
                      "internalType": "uint256",
                      "name": "ratio",
                      "type": "uint256"
                    }
                  ],
                  "internalType": "struct SmartPoolManager.levelParams",
                  "name": "secondLevel",
                  "type": "tuple"
                },
                {
                  "components": [
                    {
                      "internalType": "uint256",
                      "name": "level",
                      "type": "uint256"
                    },
                    {
                      "internalType": "uint256",
                      "name": "ratio",
                      "type": "uint256"
                    }
                  ],
                  "internalType": "struct SmartPoolManager.levelParams",
                  "name": "thirdLevel",
                  "type": "tuple"
                },
                {
                  "components": [
                    {
                      "internalType": "uint256",
                      "name": "level",
                      "type": "uint256"
                    },
                    {
                      "internalType": "uint256",
                      "name": "ratio",
                      "type": "uint256"
                    }
                  ],
                  "internalType": "struct SmartPoolManager.levelParams",
                  "name": "fourLevel",
                  "type": "tuple"
                }
              ],
              "internalType": "struct SmartPoolManager.feeParams",
              "name": "perfermanceFee",
              "type": "tuple"
            }
          ],
          "internalType": "struct SmartPoolManager.KolPoolParams",
          "name": "kolPoolParams",
          "type": "tuple"
        },
        {
          "internalType": "address[]",
          "name": "owners",
          "type": "address[]"
        },
        {
          "internalType": "uint256[]",
          "name": "ownerPercentage",
          "type": "uint256[]"
        },
        {
          "components": [
            {
              "internalType": "uint256",
              "name": "bspFloor",
              "type": "uint256"
            },
            {
              "internalType": "uint256",
              "name": "bspCap",
              "type": "uint256"
            }
          ],
          "internalType": "struct IConfigurableRightsPool.PoolTokenRange",
          "name": "tokenRange",
          "type": "tuple"
        }
      ],
      "name": "createSmartPool",
      "outputs": [
        {
          "internalType": "contract IConfigurableRightsPool",
          "name": "crp",
          "type": "address"
        }
      ],
      "stateMutability": "nonpayable",
      "type": "function"
    },
    {
      "inputs": [
        {
          "internalType": "contract LiquidityPoolActions",
          "name": "pool",
          "type": "address"
        }
      ],
      "name": "finalize",
      "outputs": [],
      "stateMutability": "nonpayable",
      "type": "function"
    },
    {
      "inputs": [
        {
          "internalType": "contract LiquidityPoolActions",
          "name": "pool",
          "type": "address"
        },
        {
          "internalType": "uint256",
          "name": "poolAmountOut",
          "type": "uint256"
        },
        {
          "internalType": "uint256[]",
          "name": "maxAmountsIn",
          "type": "uint256[]"
        }
      ],
      "name": "joinPool",
      "outputs": [],
      "stateMutability": "nonpayable",
      "type": "function"
    },
    {
      "inputs": [
        {
          "internalType": "contract IConfigurableRightsPool",
          "name": "pool",
          "type": "address"
        },
        {
          "internalType": "uint256",
          "name": "poolAmountOut",
          "type": "uint256"
        },
        {
          "internalType": "uint256[]",
          "name": "maxAmountsIn",
          "type": "uint256[]"
        },
        {
          "internalType": "address",
          "name": "kol",
          "type": "address"
        }
      ],
      "name": "joinSmartPool",
      "outputs": [],
      "stateMutability": "nonpayable",
      "type": "function"
    },
    {
      "inputs": [
        {
          "internalType": "contract IConfigurableRightsPool",
          "name": "crp",
          "type": "address"
        },
        {
          "internalType": "address",
          "name": "tokenA",
          "type": "address"
        },
        {
          "internalType": "address",
          "name": "tokenB",
          "type": "address"
        },
        {
          "internalType": "uint256",
          "name": "deltaWeight",
          "type": "uint256"
        },
        {
          "internalType": "uint256",
          "name": "minAmountOut",
          "type": "uint256"
        }
      ],
      "name": "rebalance",
      "outputs": [],
      "stateMutability": "nonpayable",
      "type": "function"
    },
    {
      "inputs": [
        {
          "internalType": "contract IConfigurableRightsPool",
          "name": "crp",
          "type": "address"
        },
        {
          "internalType": "address",
          "name": "provider",
          "type": "address"
        }
      ],
      "name": "removeWhitelistedLiquidityProvider",
      "outputs": [],
      "stateMutability": "nonpayable",
      "type": "function"
    },
    {
      "inputs": [
        {
          "internalType": "contract IConfigurableRightsPool",
          "name": "crp",
          "type": "address"
        },
        {
          "internalType": "uint256",
          "name": "newCap",
          "type": "uint256"
        }
      ],
      "name": "setCap",
      "outputs": [],
      "stateMutability": "nonpayable",
      "type": "function"
    },
    {
      "inputs": [
        {
          "internalType": "contract AbstractPool",
          "name": "pool",
          "type": "address"
        },
        {
          "internalType": "address",
          "name": "newController",
          "type": "address"
        }
      ],
      "name": "setController",
      "outputs": [],
      "stateMutability": "nonpayable",
      "type": "function"
    },
    {
      "inputs": [
        {
          "internalType": "contract AbstractPool",
          "name": "pool",
          "type": "address"
        },
        {
          "internalType": "bool",
          "name": "publicSwap",
          "type": "bool"
        }
      ],
      "name": "setPublicSwap",
      "outputs": [],
      "stateMutability": "nonpayable",
      "type": "function"
    },
    {
      "inputs": [
        {
          "internalType": "contract AbstractPool",
          "name": "pool",
          "type": "address"
        },
        {
          "internalType": "uint256",
          "name": "newFee",
          "type": "uint256"
        }
      ],
      "name": "setSwapFee",
      "outputs": [],
      "stateMutability": "nonpayable",
      "type": "function"
    },
    {
      "inputs": [
        {
          "internalType": "contract LiquidityPoolActions",
          "name": "pool",
          "type": "address"
        },
        {
          "internalType": "address[]",
          "name": "tokens",
          "type": "address[]"
        },
        {
          "internalType": "uint256[]",
          "name": "balances",
          "type": "uint256[]"
        },
        {
          "internalType": "uint256[]",
          "name": "denorms",
          "type": "uint256[]"
        }
      ],
      "name": "setTokens",
      "outputs": [],
      "stateMutability": "nonpayable",
      "type": "function"
    },
    {
      "inputs": [
        {
          "internalType": "contract IConfigurableRightsPool",
          "name": "crp",
          "type": "address"
        },
        {
          "internalType": "address",
          "name": "provider",
          "type": "address"
        }
      ],
      "name": "whitelistLiquidityProvider",
      "outputs": [],
      "stateMutability": "nonpayable",
      "type": "function"
    }
  ],
  "transactionHash": "0xa47f36b7fc85ffc570564c9d2e31186cb4c288b489e84b5dcf3c674fa659c485",
  "args": [],
  "numDeployments": 1,
  "solcInputHash": "9b997fc78ba6c4832a214c7fe0ff54c7",
  "bytecode": "0x608060405234801561001057600080fd5b50612af3806100206000396000f3fe608060405234801561001057600080fd5b50600436106100c55760003560e01c8063135b968d146100ca5780631a78a275146100df5780631eccc18514610108578063333fbeef1461011b5780634ef39b751461012e5780637840fb6c146101415780637b7d6c681461015457806380ad2cf3146101675780638a5c57df1461017a578063991991c71461018d578063a7f28da7146101a0578063affdd4ee146101b3578063d9459407146101c6578063e0d945bf146101d9578063e221e73a146101ec575b600080fd5b6100dd6100d8366004612298565b6101ff565b005b6100f26100ed36600461206d565b610331565b6040516100ff919061266b565b60405180910390f35b6100dd610116366004612015565b6107db565b6100dd610129366004612003565b610835565b6100dd61013c366004611ef4565b610861565b6100dd61014f366004611f17565b6109c8565b6100dd610162366004612003565b6109f4565b6100dd610175366004612042565b610a20565b6100dd6101883660046123b1565b610a4c565b6100dd61019b366004612042565b610b0d565b6100dd6101ae366004612003565b610b39565b6100dd6101c136600461223e565b610b65565b6100f26101d4366004612131565b610bd0565b6100dd6101e7366004612309565b610f11565b6100dd6101fa366004611f17565b611739565b6060856001600160a01b031663b64ef17b6040518163ffffffff1660e01b815260040160206040518083038186803b15801561023a57600080fd5b505afa15801561024e573d6000803e3d6000fd5b505050506040513d601f19601f820116820180604052508101906102729190612222565b6001600160a01b031663cc77828d6040518163ffffffff1660e01b815260040160006040518083038186803b1580156102aa57600080fd5b505afa1580156102be573d6000803e3d6000fd5b505050506040513d6000823e601f3d908101601f191682016040526102e69190810190611f4f565b9050610329868287878780806020026020016040519081016040528093929190818152602001838360200280828437600092019190915250899250611765915050565b505050505050565b600087861461035b5760405162461bcd60e51b8152600401610352906128a8565b60405180910390fd5b87841461037a5760405162461bcd60e51b8152600401610352906128a8565b896001600160a01b03166391cefde46040518163ffffffff1660e01b8152600401602060405180830381600087803b1580156103b557600080fd5b505af11580156103c9573d6000803e3d6000fd5b505050506040513d601f19601f820116820180604052508101906103ed9190612222565b6040516334e1990760e01b81529091506001600160a01b038216906334e199079061041c908690600401612902565b600060405180830381600087803b15801561043657600080fd5b505af115801561044a573d6000803e3d6000fd5b5050505060005b888110156105fe5760008a8a8381811061046757fe5b905060200201602081019061047c9190611ef4565b9050806001600160a01b03166323b872dd33308c8c8781811061049b57fe5b905060200201356040518463ffffffff1660e01b81526004016104c09392919061267f565b602060405180830381600087803b1580156104da57600080fd5b505af11580156104ee573d6000803e3d6000fd5b505050506040513d601f19601f820116820180604052508101906105129190611fe7565b61052e5760405162461bcd60e51b8152600401610352906128d5565b61054b81848b8b8681811061053f57fe5b90506020020135611bb9565b826001600160a01b031663e4e1e5388c8c8581811061056657fe5b905060200201602081019061057b9190611ef4565b8b8b8681811061058757fe5b905060200201358a8a8781811061059a57fe5b905060200201356040518463ffffffff1660e01b81526004016105bf9392919061287c565b600060405180830381600087803b1580156105d957600080fd5b505af11580156105ed573d6000803e3d6000fd5b505060019093019250610451915050565b50811561076e57806001600160a01b0316634bb278f36040518163ffffffff1660e01b8152600401600060405180830381600087803b15801561064057600080fd5b505af1158015610654573d6000803e3d6000fd5b50506040516370a0823160e01b81526001600160a01b038416925063a9059cbb9150339083906370a082319061068e90309060040161266b565b60206040518083038186803b1580156106a657600080fd5b505afa1580156106ba573d6000803e3d6000fd5b505050506040513d601f19601f820116820180604052508101906106de9190612429565b6040518363ffffffff1660e01b81526004016106fb9291906126a3565b602060405180830381600087803b15801561071557600080fd5b505af1158015610729573d6000803e3d6000fd5b505050506040513d601f19601f8201168201806040525081019061074d9190611fe7565b6107695760405162461bcd60e51b8152600401610352906128d5565b6107ce565b6040516324dacaa960e11b81526001600160a01b038216906349b595529061079b9060019060040161289d565b600060405180830381600087803b1580156107b557600080fd5b505af11580156107c9573d6000803e3d6000fd5b505050505b9998505050505050505050565b6040516324dacaa960e11b81526001600160a01b038316906349b595529061080790849060040161289d565b600060405180830381600087803b15801561082157600080fd5b505af1158015610329573d6000803e3d6000fd5b60405163c83a1c2d60e01b81526001600160a01b0383169063c83a1c2d9061080790849060040161266b565b806001600160a01b0316634bb278f36040518163ffffffff1660e01b8152600401600060405180830381600087803b15801561089c57600080fd5b505af11580156108b0573d6000803e3d6000fd5b50506040516370a0823160e01b81526001600160a01b038416925063a9059cbb9150339083906370a08231906108ea90309060040161266b565b60206040518083038186803b15801561090257600080fd5b505afa158015610916573d6000803e3d6000fd5b505050506040513d601f19601f8201168201806040525081019061093a9190612429565b6040518363ffffffff1660e01b81526004016109579291906126a3565b602060405180830381600087803b15801561097157600080fd5b505af1158015610985573d6000803e3d6000fd5b505050506040513d601f19601f820116820180604052508101906109a99190611fe7565b6109c55760405162461bcd60e51b8152600401610352906128d5565b50565b604051636936674d60e01b81526001600160a01b03831690636936674d9061080790849060040161266b565b6040516392eefe9b60e01b81526001600160a01b038316906392eefe9b9061080790849060040161266b565b6040516347786d3760e01b81526001600160a01b038316906347786d3790610807908490600401612902565b6060846001600160a01b031663be3bbd2e6040518163ffffffff1660e01b815260040160006040518083038186803b158015610a8757600080fd5b505afa158015610a9b573d6000803e3d6000fd5b505050506040513d6000823e601f3d908101601f19168201604052610ac39190810190611f4f565b9050610b06858286868680806020026020016040519081016040528093929190818152602001838360200280828437600092019190915250339250611765915050565b5050505050565b6040516334e1990760e01b81526001600160a01b038316906334e1990790610807908490600401612902565b60405163e2762d4b60e01b81526001600160a01b0383169063e2762d4b9061080790849060040161266b565b604051631b9276c760e21b81526001600160a01b03861690636e49db1c90610b979087908790879087906004016126d6565b600060405180830381600087803b158015610bb157600080fd5b505af1158015610bc5573d6000803e3d6000fd5b505050505050505050565b6000610bdf6060890189612974565b9050610bee60408a018a612974565b905014610c0d5760405162461bcd60e51b8152600401610352906128a8565b610c1a6080890189612974565b9050610c2960408a018a612974565b905014610c485760405162461bcd60e51b8152600401610352906128a8565b60405163074aa1b960e51b81526001600160a01b038b169063e954372090610c7e908c908c908b908b908b908b906004016126ff565b602060405180830381600087803b158015610c9857600080fd5b505af1158015610cac573d6000803e3d6000fd5b505050506040513d601f19601f82011682018060405250810190610cd09190612222565b905060005b610ce260408a018a612974565b9050811015610dfb576000610cfa60408b018b612974565b83818110610d0457fe5b9050602002016020810190610d199190611ef4565b90506001600160a01b0381166323b872dd3330610d3960608f018f612974565b87818110610d4357fe5b905060200201356040518463ffffffff1660e01b8152600401610d689392919061267f565b602060405180830381600087803b158015610d8257600080fd5b505af1158015610d96573d6000803e3d6000fd5b505050506040513d601f19601f82011682018060405250810190610dba9190611fe7565b610dd65760405162461bcd60e51b8152600401610352906128d5565b610df28184610de860608e018e612974565b8681811061053f57fe5b50600101610cd5565b506001600160a01b038116630892b93d883560208a0135610e2260608c0160408d0161240a565b866040518563ffffffff1660e01b8152600401610e42949392919061293c565b600060405180830381600087803b158015610e5c57600080fd5b505af1158015610e70573d6000803e3d6000fd5b505060405163a9059cbb60e01b81526001600160a01b038416925063a9059cbb9150610ea39033908b35906004016126a3565b602060405180830381600087803b158015610ebd57600080fd5b505af1158015610ed1573d6000803e3d6000fd5b505050506040513d601f19601f82011682018060405250810190610ef59190611fe7565b6107ce5760405162461bcd60e51b8152600401610352906128d5565b848314610f305760405162461bcd60e51b8152600401610352906128a8565b848114610f4f5760405162461bcd60e51b8152600401610352906128a8565b60005b8581101561172f576000878783818110610f6857fe5b9050602002016020810190610f7d9190611ef4565b9050886001600160a01b0316632f37b624898985818110610f9a57fe5b9050602002016020810190610faf9190611ef4565b6040518263ffffffff1660e01b8152600401610fcb919061266b565b60206040518083038186803b158015610fe357600080fd5b505afa158015610ff7573d6000803e3d6000fd5b505050506040513d601f19601f8201168201806040525081019061101b9190611fe7565b1561142857886001600160a01b031663f8b2cb4f89898581811061103b57fe5b90506020020160208101906110509190611ef4565b6040518263ffffffff1660e01b815260040161106c919061266b565b60206040518083038186803b15801561108457600080fd5b505afa158015611098573d6000803e3d6000fd5b505050506040513d601f19601f820116820180604052508101906110bc9190612429565b8686848181106110c857fe5b9050602002013511156112dc57806001600160a01b03166323b872dd33308c6001600160a01b031663f8b2cb4f8d8d8981811061110157fe5b90506020020160208101906111169190611ef4565b6040518263ffffffff1660e01b8152600401611132919061266b565b60206040518083038186803b15801561114a57600080fd5b505afa15801561115e573d6000803e3d6000fd5b505050506040513d601f19601f820116820180604052508101906111829190612429565b8a8a8881811061118e57fe5b90506020020135036040518463ffffffff1660e01b81526004016111b49392919061267f565b602060405180830381600087803b1580156111ce57600080fd5b505af11580156111e2573d6000803e3d6000fd5b505050506040513d601f19601f820116820180604052508101906112069190611fe7565b6112225760405162461bcd60e51b8152600401610352906128d5565b6112dc818a8b6001600160a01b031663f8b2cb4f8c8c8881811061124257fe5b90506020020160208101906112579190611ef4565b6040518263ffffffff1660e01b8152600401611273919061266b565b60206040518083038186803b15801561128b57600080fd5b505afa15801561129f573d6000803e3d6000fd5b505050506040513d601f19601f820116820180604052508101906112c39190612429565b8989878181106112cf57fe5b9050602002013503611bb9565b620f42408686848181106112ec57fe5b9050602002013511156113a457886001600160a01b0316633fdddaa289898581811061131457fe5b90506020020160208101906113299190611ef4565b88888681811061133557fe5b9050602002013587878781811061134857fe5b905060200201356040518463ffffffff1660e01b815260040161136d9392919061287c565b600060405180830381600087803b15801561138757600080fd5b505af115801561139b573d6000803e3d6000fd5b50505050611423565b886001600160a01b031663cf5e7bd38989858181106113bf57fe5b90506020020160208101906113d49190611ef4565b6040518263ffffffff1660e01b81526004016113f0919061266b565b600060405180830381600087803b15801561140a57600080fd5b505af115801561141e573d6000803e3d6000fd5b505050505b611590565b806001600160a01b03166323b872dd333089898781811061144557fe5b905060200201356040518463ffffffff1660e01b815260040161146a9392919061267f565b602060405180830381600087803b15801561148457600080fd5b505af1158015611498573d6000803e3d6000fd5b505050506040513d601f19601f820116820180604052508101906114bc9190611fe7565b6114d85760405162461bcd60e51b8152600401610352906128d5565b6114e9818a88888681811061053f57fe5b886001600160a01b031663e4e1e53889898581811061150457fe5b90506020020160208101906115199190611ef4565b88888681811061152557fe5b9050602002013587878781811061153857fe5b905060200201356040518463ffffffff1660e01b815260040161155d9392919061287c565b600060405180830381600087803b15801561157757600080fd5b505af115801561158b573d6000803e3d6000fd5b505050505b6040516370a0823160e01b81526000906001600160a01b038316906370a08231906115bf90309060040161266b565b60206040518083038186803b1580156115d757600080fd5b505afa1580156115eb573d6000803e3d6000fd5b505050506040513d601f19601f8201168201806040525081019061160f9190612429565b1115611726576040516370a0823160e01b81526001600160a01b0382169063a9059cbb90339083906370a082319061164b90309060040161266b565b60206040518083038186803b15801561166357600080fd5b505afa158015611677573d6000803e3d6000fd5b505050506040513d601f19601f8201168201806040525081019061169b9190612429565b6040518363ffffffff1660e01b81526004016116b89291906126a3565b602060405180830381600087803b1580156116d257600080fd5b505af11580156116e6573d6000803e3d6000fd5b505050506040513d601f19601f8201168201806040525081019061170a9190611fe7565b6117265760405162461bcd60e51b8152600401610352906128d5565b50600101610f52565b5050505050505050565b60405163edb12adf60e01b81526001600160a01b0383169063edb12adf9061080790849060040161266b565b83518251146117865760405162461bcd60e51b8152600401610352906128a8565b60005b84518110156118825760008582815181106117a057fe5b60200260200101519050806001600160a01b03166323b872dd33308786815181106117c757fe5b60200260200101516040518463ffffffff1660e01b81526004016117ed9392919061267f565b602060405180830381600087803b15801561180757600080fd5b505af115801561181b573d6000803e3d6000fd5b505050506040513d601f19601f8201168201806040525081019061183f9190611fe7565b61185b5760405162461bcd60e51b8152600401610352906128d5565b611879818886858151811061186c57fe5b6020026020010151611bb9565b50600101611789565b5060405163077df9bd60e31b81526001600160a01b03861690633befcde8906118b39086908690869060040161290b565b600060405180830381600087803b1580156118cd57600080fd5b505af11580156118e1573d6000803e3d6000fd5b5050505060005b8451811015611aa75760008582815181106118ff57fe5b602002602001015190506000816001600160a01b03166370a08231306040518263ffffffff1660e01b8152600401611937919061266b565b60206040518083038186803b15801561194f57600080fd5b505afa158015611963573d6000803e3d6000fd5b505050506040513d601f19601f820116820180604052508101906119879190612429565b1115611a9e576040516370a0823160e01b81526001600160a01b0382169063a9059cbb90339083906370a08231906119c390309060040161266b565b60206040518083038186803b1580156119db57600080fd5b505afa1580156119ef573d6000803e3d6000fd5b505050506040513d601f19601f82011682018060405250810190611a139190612429565b6040518363ffffffff1660e01b8152600401611a309291906126a3565b602060405180830381600087803b158015611a4a57600080fd5b505af1158015611a5e573d6000803e3d6000fd5b505050506040513d601f19601f82011682018060405250810190611a829190611fe7565b611a9e5760405162461bcd60e51b8152600401610352906128d5565b506001016118e8565b506040516370a0823160e01b81526001600160a01b0386169063a9059cbb90339083906370a0823190611ade90309060040161266b565b60206040518083038186803b158015611af657600080fd5b505afa158015611b0a573d6000803e3d6000fd5b505050506040513d601f19601f82011682018060405250810190611b2e9190612429565b6040518363ffffffff1660e01b8152600401611b4b9291906126a3565b602060405180830381600087803b158015611b6557600080fd5b505af1158015611b79573d6000803e3d6000fd5b505050506040513d601f19601f82011682018060405250810190611b9d9190611fe7565b610b065760405162461bcd60e51b8152600401610352906128d5565b604051636eb1769f60e11b81526000906001600160a01b0385169063dd62ed3e90611bea90309087906004016126bc565b60206040518083038186803b158015611c0257600080fd5b505afa158015611c16573d6000803e3d6000fd5b505050506040513d601f19601f82011682018060405250810190611c3a9190612429565b1115611cc35760405163095ea7b360e01b81526001600160a01b0384169063095ea7b390611c6f9085906000906004016126a3565b602060405180830381600087803b158015611c8957600080fd5b505af1158015611c9d573d6000803e3d6000fd5b505050506040513d601f19601f82011682018060405250810190611cc19190611fe7565b505b60405163095ea7b360e01b81526001600160a01b0384169063095ea7b390611cf190859085906004016126a3565b602060405180830381600087803b158015611d0b57600080fd5b505af1158015611d1f573d6000803e3d6000fd5b505050506040513d601f19601f82011682018060405250810190611d439190611fe7565b50505050565b60008083601f840112611d5a578182fd5b5081356001600160401b03811115611d70578182fd5b6020830191508360208083028501011115611d8a57600080fd5b9250929050565b600082601f830112611da1578081fd5b8135611db4611daf826129e0565b6129ba565b818152915060208083019084810181840286018201871015611dd557600080fd5b60005b84811015611dfd578135611deb81612a9a565b84529282019290820190600101611dd8565b505050505092915050565b600082601f830112611e18578081fd5b8135611e26611daf826129e0565b818152915060208083019084810181840286018201871015611e4757600080fd5b60005b84811015611dfd57813584529282019290820190600101611e4a565b8035611e7181612a9a565b92915050565b600060608284031215611e88578081fd5b50919050565b60006104008284031215611e88578081fd5b60006101608284031215611e88578081fd5b600060408284031215611ec3578081fd5b611ecd60406129ba565b9050813581526020820135602082015292915050565b600060c08284031215611e88578081fd5b600060208284031215611f05578081fd5b8135611f1081612a9a565b9392505050565b60008060408385031215611f29578081fd5b8235611f3481612a9a565b91506020830135611f4481612a9a565b809150509250929050565b60006020808385031215611f61578182fd5b82516001600160401b03811115611f76578283fd5b8301601f81018513611f86578283fd5b8051611f94611daf826129e0565b8181528381019083850185840285018601891015611fb0578687fd5b8694505b83851015611fdb578051611fc781612a9a565b835260019490940193918501918501611fb4565b50979650505050505050565b600060208284031215611ff8578081fd5b8151611f1081612aaf565b60008060408385031215611f29578182fd5b60008060408385031215612027578182fd5b823561203281612a9a565b91506020830135611f4481612aaf565b60008060408385031215612054578182fd5b823561205f81612a9a565b946020939093013593505050565b600080600080600080600080600060c08a8c03121561208a578485fd5b893561209581612a9a565b985060208a01356001600160401b03808211156120b0578687fd5b6120bc8d838e01611d49565b909a50985060408c01359150808211156120d4578687fd5b6120e08d838e01611d49565b909850965060608c01359150808211156120f8578586fd5b506121058c828d01611d49565b90955093505060808a0135915060a08a013561212081612aaf565b809150509295985092959850929598565b60008060008060008060008060006106008a8c03121561214f578283fd5b6121598b8b611e66565b98506121688b60208c01611e66565b975060408a01356001600160401b0380821115612183578485fd5b61218f8d838e01611ea0565b985061219e8d60608e01611e77565b97506121ad8d60c08e01611ee3565b96506121bd8d6101808e01611e8e565b95506105808c01359150808211156121d3578485fd5b6121df8d838e01611d91565b94506105a08c01359150808211156121f5578384fd5b506122028c828d01611e08565b9250506122138b6105c08c01611eb2565b90509295985092959850929598565b600060208284031215612233578081fd5b8151611f1081612a9a565b600080600080600060a08688031215612255578283fd5b853561226081612a9a565b9450602086013561227081612a9a565b9350604086013561228081612a9a565b94979396509394606081013594506080013592915050565b6000806000806000608086880312156122af578283fd5b85356122ba81612a9a565b94506020860135935060408601356001600160401b038111156122db578384fd5b6122e788828901611d49565b90945092505060608601356122fb81612a9a565b809150509295509295909350565b60008060008060008060006080888a031215612323578081fd5b873561232e81612a9a565b965060208801356001600160401b0380821115612349578283fd5b6123558b838c01611d49565b909850965060408a013591508082111561236d578283fd5b6123798b838c01611d49565b909650945060608a0135915080821115612391578283fd5b5061239e8a828b01611d49565b989b979a50959850939692959293505050565b600080600080606085870312156123c6578182fd5b84356123d181612a9a565b93506020850135925060408501356001600160401b038111156123f2578283fd5b6123fe87828801611d49565b95989497509550505050565b60006020828403121561241b578081fd5b813560038110611f10578182fd5b60006020828403121561243a578081fd5b5051919050565b60008284526020808501945082825b8581101561247e57813561246381612a9a565b6001600160a01b031687529582019590820190600101612450565b509495945050505050565b6000815180845260208085019450808401835b8381101561247e5781516001600160a01b03168752958201959082019060010161249c565b81835260006001600160fb1b038311156124d9578081fd5b6020830280836020870137939093016020019283525090919050565b6000815180845260208085019450808401835b8381101561247e57815187529582019590820190600101612508565b6002811061252e57fe5b9052565b60008284528282602086013780602084860101526020601f19601f85011685010190509392505050565b612566828261261e565b61010061257781840182840161261e565b5061020061258981840182840161261e565b5061030061259b81840182840161261e565b505050565b80356125ab81612aaf565b1515825260208101356125bd81612aaf565b1515602083015260408101356125d281612aaf565b1515604083015260608101356125e781612aaf565b1515606083015260808101356125fc81612aaf565b1515608083015260a081013561261181612aaf565b80151560a0840152505050565b612628828261265c565b612638604083016040830161265c565b612648608083016080830161265c565b61265860c0830160c0830161265c565b5050565b80358252602090810135910152565b6001600160a01b0391909116815260200190565b6001600160a01b039384168152919092166020820152604081019190915260600190565b6001600160a01b03929092168252602082015260400190565b6001600160a01b0392831681529116602082015260400190565b6001600160a01b0394851681529290931660208301526040820152606081019190915260800190565b6001600160a01b0387168152610540602082018190526000906127228880612a56565b610160838601526127386106a086018284612532565b925050506127496020890189612a56565b61053f198086850301610560870152612763848385612532565b935061277260408c018c6129ff565b93509150808685030161058087015261278c848484612441565b935061279b60608c018c6129ff565b9350915080868503016105a08701526127b58484846124c1565b93506127c460808c018c6129ff565b9350915080868503016105c0870152506127df8383836124c1565b9250505060a08801356105e084015260c088013561060084015260e08801356106208401526101008089013561064085015261012089013561066085015261282b6101408a018a612a46565b612839610680860182612524565b5061284760408501896125a0565b6128538185018861255c565b508281036105008401526128678186612489565b90508281036105208401526107ce81856124f5565b6001600160a01b039390931683526020830191909152604082015260600190565b901515815260200190565b60208082526013908201527208aa4a4be988a9c8ea890be9a92a69a82a8869606b1b604082015260600190565b60208082526013908201527211549497d514905394d1915497d19052531151606a1b604082015260600190565b90815260200190565b60008482526060602083015261292460608301856124f5565b905060018060a01b0383166040830152949350505050565b8481526020810184905260a081016003841061295457fe5b836040830152825160608301526020830151608083015295945050505050565b6000808335601e1984360301811261298a578283fd5b8301803591506001600160401b038211156129a3578283fd5b6020908101925081023603821315611d8a57600080fd5b6040518181016001600160401b03811182821017156129d857600080fd5b604052919050565b60006001600160401b038211156129f5578081fd5b5060209081020190565b6000808335601e19843603018112612a15578283fd5b83016020810192503590506001600160401b03811115612a3457600080fd5b602081023603831315611d8a57600080fd5b6000823560028110611f10578182fd5b6000808335601e19843603018112612a6c578283fd5b83016020810192503590506001600160401b03811115612a8b57600080fd5b803603831315611d8a57600080fd5b6001600160a01b03811681146109c557600080fd5b80151581146109c557600080fdfea26469706673582212205cbb81bbf5c4ea84f91c8459b01edecc6a8b52598606e3776027e231798f127a64736f6c634300060c0033",
  "devdoc": {
    "kind": "dev",
    "methods": {},
    "version": 1
  },
  "userdoc": {
    "kind": "user",
    "methods": {},
    "version": 1
  },
  "storageLayout": {
    "storage": [],
    "types": null
  }
}