{
  "address": "0xaEd29Ee80eD9c9D7e7692366614BB63c16D08cC9",
  "abi": [
    {
      "inputs": [
        {
          "internalType": "contract IConfigurableRightsPool",
          "name": "crp",
          "type": "address"
        },
        {
          "internalType": "uint256[]",
          "name": "sort",
          "type": "uint256[]"
        },
        {
          "internalType": "address[]",
          "name": "token",
          "type": "address[]"
        }
      ],
      "name": "addTokenToWhitelist",
      "outputs": [],
      "stateMutability": "nonpayable",
      "type": "function"
    },
    {
      "inputs": [
        {
          "internalType": "address",
          "name": "_userVault",
          "type": "address"
        },
        {
          "internalType": "address",
          "name": "pool",
          "type": "address"
        }
      ],
      "name": "claimKolReward",
      "outputs": [],
      "stateMutability": "nonpayable",
      "type": "function"
    },
    {
      "inputs": [
        {
          "internalType": "address",
          "name": "_userVault",
          "type": "address"
        },
        {
          "internalType": "address",
          "name": "pool",
          "type": "address"
        }
      ],
      "name": "claimManagersReward",
      "outputs": [],
      "stateMutability": "nonpayable",
      "type": "function"
    },
    {
      "inputs": [
        {
          "internalType": "contract FactoryActions",
          "name": "factory",
          "type": "address"
        },
        {
          "internalType": "address[]",
          "name": "tokens",
          "type": "address[]"
        },
        {
          "internalType": "uint256[]",
          "name": "balances",
          "type": "uint256[]"
        },
        {
          "internalType": "uint256[]",
          "name": "weights",
          "type": "uint256[]"
        },
        {
          "internalType": "uint256",
          "name": "swapFee",
          "type": "uint256"
        },
        {
          "internalType": "bool",
          "name": "finalize",
          "type": "bool"
        }
      ],
      "name": "create",
      "outputs": [
        {
          "internalType": "contract LiquidityPoolActions",
          "name": "pool",
          "type": "address"
        }
      ],
      "stateMutability": "nonpayable",
      "type": "function"
    },
    {
      "inputs": [
        {
          "internalType": "contract ICRPFactory",
          "name": "factory",
          "type": "address"
        },
        {
          "internalType": "contract FactoryActions",
          "name": "coreFactory",
          "type": "address"
        },
        {
          "components": [
            {
              "internalType": "string",
              "name": "poolTokenSymbol",
              "type": "string"
            },
            {
              "internalType": "string",
              "name": "poolTokenName",
              "type": "string"
            },
            {
              "internalType": "address[]",
              "name": "constituentTokens",
              "type": "address[]"
            },
            {
              "internalType": "uint256[]",
              "name": "tokenBalances",
              "type": "uint256[]"
            },
            {
              "internalType": "uint256[]",
              "name": "tokenWeights",
              "type": "uint256[]"
            },
            {
              "internalType": "uint256",
              "name": "swapFee",
              "type": "uint256"
            },
            {
              "internalType": "uint256",
              "name": "managerFee",
              "type": "uint256"
            },
            {
              "internalType": "uint256",
              "name": "redeemFee",
              "type": "uint256"
            },
            {
              "internalType": "uint256",
              "name": "issueFee",
              "type": "uint256"
            },
            {
              "internalType": "uint256",
              "name": "perfermanceFee",
              "type": "uint256"
            },
            {
              "internalType": "enum IConfigurableRightsPool.Etypes",
              "name": "etype",
              "type": "uint8"
            }
          ],
          "internalType": "struct IConfigurableRightsPool.PoolParams",
          "name": "poolParams",
          "type": "tuple"
        },
        {
          "components": [
            {
              "internalType": "uint256",
              "name": "initialSupply",
              "type": "uint256"
            },
            {
              "internalType": "uint256",
              "name": "collectPeriod",
              "type": "uint256"
            },
            {
              "internalType": "enum IConfigurableRightsPool.Period",
              "name": "period",
              "type": "uint8"
            }
          ],
          "internalType": "struct IConfigurableRightsPool.CrpParams",
          "name": "crpParams",
          "type": "tuple"
        },
        {
          "components": [
            {
              "internalType": "bool",
              "name": "canPauseSwapping",
              "type": "bool"
            },
            {
              "internalType": "bool",
              "name": "canChangeSwapFee",
              "type": "bool"
            },
            {
              "internalType": "bool",
              "name": "canChangeWeights",
              "type": "bool"
            },
            {
              "internalType": "bool",
              "name": "canAddRemoveTokens",
              "type": "bool"
            },
            {
              "internalType": "bool",
              "name": "canWhitelistLPs",
              "type": "bool"
            },
            {
              "internalType": "bool",
              "name": "canTokenWhiteLists",
              "type": "bool"
            }
          ],
          "internalType": "struct RightsManager.Rights",
          "name": "rights",
          "type": "tuple"
        },
        {
          "components": [
            {
              "components": [
                {
                  "components": [
                    {
                      "internalType": "uint256",
                      "name": "level",
                      "type": "uint256"
                    },
                    {
                      "internalType": "uint256",
                      "name": "ratio",
                      "type": "uint256"
                    }
                  ],
                  "internalType": "struct SmartPoolManager.levelParams",
                  "name": "firstLevel",
                  "type": "tuple"
                },
                {
                  "components": [
                    {
                      "internalType": "uint256",
                      "name": "level",
                      "type": "uint256"
                    },
                    {
                      "internalType": "uint256",
                      "name": "ratio",
                      "type": "uint256"
                    }
                  ],
                  "internalType": "struct SmartPoolManager.levelParams",
                  "name": "secondLevel",
                  "type": "tuple"
                },
                {
                  "components": [
                    {
                      "internalType": "uint256",
                      "name": "level",
                      "type": "uint256"
                    },
                    {
                      "internalType": "uint256",
                      "name": "ratio",
                      "type": "uint256"
                    }
                  ],
                  "internalType": "struct SmartPoolManager.levelParams",
                  "name": "thirdLevel",
                  "type": "tuple"
                },
                {
                  "components": [
                    {
                      "internalType": "uint256",
                      "name": "level",
                      "type": "uint256"
                    },
                    {
                      "internalType": "uint256",
                      "name": "ratio",
                      "type": "uint256"
                    }
                  ],
                  "internalType": "struct SmartPoolManager.levelParams",
                  "name": "fourLevel",
                  "type": "tuple"
                }
              ],
              "internalType": "struct SmartPoolManager.feeParams",
              "name": "managerFee",
              "type": "tuple"
            },
            {
              "components": [
                {
                  "components": [
                    {
                      "internalType": "uint256",
                      "name": "level",
                      "type": "uint256"
                    },
                    {
                      "internalType": "uint256",
                      "name": "ratio",
                      "type": "uint256"
                    }
                  ],
                  "internalType": "struct SmartPoolManager.levelParams",
                  "name": "firstLevel",
                  "type": "tuple"
                },
                {
                  "components": [
                    {
                      "internalType": "uint256",
                      "name": "level",
                      "type": "uint256"
                    },
                    {
                      "internalType": "uint256",
                      "name": "ratio",
                      "type": "uint256"
                    }
                  ],
                  "internalType": "struct SmartPoolManager.levelParams",
                  "name": "secondLevel",
                  "type": "tuple"
                },
                {
                  "components": [
                    {
                      "internalType": "uint256",
                      "name": "level",
                      "type": "uint256"
                    },
                    {
                      "internalType": "uint256",
                      "name": "ratio",
                      "type": "uint256"
                    }
                  ],
                  "internalType": "struct SmartPoolManager.levelParams",
                  "name": "thirdLevel",
                  "type": "tuple"
                },
                {
                  "components": [
                    {
                      "internalType": "uint256",
                      "name": "level",
                      "type": "uint256"
                    },
                    {
                      "internalType": "uint256",
                      "name": "ratio",
                      "type": "uint256"
                    }
                  ],
                  "internalType": "struct SmartPoolManager.levelParams",
                  "name": "fourLevel",
                  "type": "tuple"
                }
              ],
              "internalType": "struct SmartPoolManager.feeParams",
              "name": "issueFee",
              "type": "tuple"
            },
            {
              "components": [
                {
                  "components": [
                    {
                      "internalType": "uint256",
                      "name": "level",
                      "type": "uint256"
                    },
                    {
                      "internalType": "uint256",
                      "name": "ratio",
                      "type": "uint256"
                    }
                  ],
                  "internalType": "struct SmartPoolManager.levelParams",
                  "name": "firstLevel",
                  "type": "tuple"
                },
                {
                  "components": [
                    {
                      "internalType": "uint256",
                      "name": "level",
                      "type": "uint256"
                    },
                    {
                      "internalType": "uint256",
                      "name": "ratio",
                      "type": "uint256"
                    }
                  ],
                  "internalType": "struct SmartPoolManager.levelParams",
                  "name": "secondLevel",
                  "type": "tuple"
                },
                {
                  "components": [
                    {
                      "internalType": "uint256",
                      "name": "level",
                      "type": "uint256"
                    },
                    {
                      "internalType": "uint256",
                      "name": "ratio",
                      "type": "uint256"
                    }
                  ],
                  "internalType": "struct SmartPoolManager.levelParams",
                  "name": "thirdLevel",
                  "type": "tuple"
                },
                {
                  "components": [
                    {
                      "internalType": "uint256",
                      "name": "level",
                      "type": "uint256"
                    },
                    {
                      "internalType": "uint256",
                      "name": "ratio",
                      "type": "uint256"
                    }
                  ],
                  "internalType": "struct SmartPoolManager.levelParams",
                  "name": "fourLevel",
                  "type": "tuple"
                }
              ],
              "internalType": "struct SmartPoolManager.feeParams",
              "name": "redeemFee",
              "type": "tuple"
            },
            {
              "components": [
                {
                  "components": [
                    {
                      "internalType": "uint256",
                      "name": "level",
                      "type": "uint256"
                    },
                    {
                      "internalType": "uint256",
                      "name": "ratio",
                      "type": "uint256"
                    }
                  ],
                  "internalType": "struct SmartPoolManager.levelParams",
                  "name": "firstLevel",
                  "type": "tuple"
                },
                {
                  "components": [
                    {
                      "internalType": "uint256",
                      "name": "level",
                      "type": "uint256"
                    },
                    {
                      "internalType": "uint256",
                      "name": "ratio",
                      "type": "uint256"
                    }
                  ],
                  "internalType": "struct SmartPoolManager.levelParams",
                  "name": "secondLevel",
                  "type": "tuple"
                },
                {
                  "components": [
                    {
                      "internalType": "uint256",
                      "name": "level",
                      "type": "uint256"
                    },
                    {
                      "internalType": "uint256",
                      "name": "ratio",
                      "type": "uint256"
                    }
                  ],
                  "internalType": "struct SmartPoolManager.levelParams",
                  "name": "thirdLevel",
                  "type": "tuple"
                },
                {
                  "components": [
                    {
                      "internalType": "uint256",
                      "name": "level",
                      "type": "uint256"
                    },
                    {
                      "internalType": "uint256",
                      "name": "ratio",
                      "type": "uint256"
                    }
                  ],
                  "internalType": "struct SmartPoolManager.levelParams",
                  "name": "fourLevel",
                  "type": "tuple"
                }
              ],
              "internalType": "struct SmartPoolManager.feeParams",
              "name": "perfermanceFee",
              "type": "tuple"
            }
          ],
          "internalType": "struct SmartPoolManager.KolPoolParams",
          "name": "kolPoolParams",
          "type": "tuple"
        },
        {
          "internalType": "address[]",
          "name": "owners",
          "type": "address[]"
        },
        {
          "internalType": "uint256[]",
          "name": "ownerPercentage",
          "type": "uint256[]"
        },
        {
          "components": [
            {
              "internalType": "uint256",
              "name": "bspFloor",
              "type": "uint256"
            },
            {
              "internalType": "uint256",
              "name": "bspCap",
              "type": "uint256"
            }
          ],
          "internalType": "struct IConfigurableRightsPool.PoolTokenRange",
          "name": "tokenRange",
          "type": "tuple"
        }
      ],
      "name": "createSmartPool",
      "outputs": [
        {
          "internalType": "contract IConfigurableRightsPool",
          "name": "crp",
          "type": "address"
        }
      ],
      "stateMutability": "nonpayable",
      "type": "function"
    },
    {
      "inputs": [
        {
          "internalType": "contract IConfigurableRightsPool",
          "name": "pool",
          "type": "address"
        },
        {
          "internalType": "uint256",
          "name": "poolAmountIn",
          "type": "uint256"
        },
        {
          "internalType": "uint256[]",
          "name": "minAmountsOut",
          "type": "uint256[]"
        }
      ],
      "name": "exitPool",
      "outputs": [],
      "stateMutability": "nonpayable",
      "type": "function"
    },
    {
      "inputs": [
        {
          "internalType": "contract LiquidityPoolActions",
          "name": "pool",
          "type": "address"
        }
      ],
      "name": "finalize",
      "outputs": [],
      "stateMutability": "nonpayable",
      "type": "function"
    },
    {
      "inputs": [
        {
          "internalType": "contract LiquidityPoolActions",
          "name": "pool",
          "type": "address"
        },
        {
          "internalType": "uint256",
          "name": "poolAmountOut",
          "type": "uint256"
        },
        {
          "internalType": "uint256[]",
          "name": "maxAmountsIn",
          "type": "uint256[]"
        }
      ],
      "name": "joinPool",
      "outputs": [],
      "stateMutability": "nonpayable",
      "type": "function"
    },
    {
      "inputs": [
        {
          "internalType": "contract IConfigurableRightsPool",
          "name": "pool",
          "type": "address"
        },
        {
          "internalType": "uint256",
          "name": "poolAmountOut",
          "type": "uint256"
        },
        {
          "internalType": "uint256[]",
          "name": "maxAmountsIn",
          "type": "uint256[]"
        },
        {
          "internalType": "address",
          "name": "kol",
          "type": "address"
        }
      ],
      "name": "joinSmartPool",
      "outputs": [],
      "stateMutability": "nonpayable",
      "type": "function"
    },
    {
      "inputs": [
        {
          "internalType": "contract IConfigurableRightsPool",
          "name": "crp",
          "type": "address"
        },
        {
          "internalType": "address",
          "name": "tokenA",
          "type": "address"
        },
        {
          "internalType": "address",
          "name": "tokenB",
          "type": "address"
        },
        {
          "internalType": "uint256",
          "name": "deltaWeight",
          "type": "uint256"
        },
        {
          "internalType": "uint256",
          "name": "minAmountOut",
          "type": "uint256"
        }
      ],
      "name": "rebalance",
      "outputs": [],
      "stateMutability": "nonpayable",
      "type": "function"
    },
    {
      "inputs": [
        {
          "internalType": "contract AbstractPool",
          "name": "pool",
          "type": "address"
        },
        {
          "internalType": "address",
          "name": "owner",
          "type": "address"
        }
      ],
      "name": "removeOwner",
      "outputs": [],
      "stateMutability": "nonpayable",
      "type": "function"
    },
    {
      "inputs": [
        {
          "internalType": "contract IConfigurableRightsPool",
          "name": "crp",
          "type": "address"
        },
        {
          "internalType": "address",
          "name": "provider",
          "type": "address"
        }
      ],
      "name": "removeWhitelistedLiquidityProvider",
      "outputs": [],
      "stateMutability": "nonpayable",
      "type": "function"
    },
    {
      "inputs": [
        {
          "internalType": "contract AbstractPool",
          "name": "pool",
          "type": "address"
        },
        {
          "internalType": "address",
          "name": "newOwner",
          "type": "address"
        },
        {
          "internalType": "uint256",
          "name": "_ownerPercentage",
          "type": "uint256"
        }
      ],
      "name": "setAddAdminList",
      "outputs": [],
      "stateMutability": "nonpayable",
      "type": "function"
    },
    {
      "inputs": [
        {
          "internalType": "contract IConfigurableRightsPool",
          "name": "crp",
          "type": "address"
        },
        {
          "internalType": "uint256",
          "name": "newCap",
          "type": "uint256"
        }
      ],
      "name": "setCap",
      "outputs": [],
      "stateMutability": "nonpayable",
      "type": "function"
    },
    {
      "inputs": [
        {
          "internalType": "contract AbstractPool",
          "name": "pool",
          "type": "address"
        },
        {
          "internalType": "address",
          "name": "newController",
          "type": "address"
        }
      ],
      "name": "setController",
      "outputs": [],
      "stateMutability": "nonpayable",
      "type": "function"
    },
    {
      "inputs": [
        {
          "internalType": "contract AbstractPool",
          "name": "pool",
          "type": "address"
        },
        {
          "internalType": "bool",
          "name": "publicSwap",
          "type": "bool"
        }
      ],
      "name": "setPublicSwap",
      "outputs": [],
      "stateMutability": "nonpayable",
      "type": "function"
    },
    {
      "inputs": [
        {
          "internalType": "contract AbstractPool",
          "name": "pool",
          "type": "address"
        },
        {
          "internalType": "uint256",
          "name": "newFee",
          "type": "uint256"
        }
      ],
      "name": "setSwapFee",
      "outputs": [],
      "stateMutability": "nonpayable",
      "type": "function"
    },
    {
      "inputs": [
        {
          "internalType": "contract LiquidityPoolActions",
          "name": "pool",
          "type": "address"
        },
        {
          "internalType": "address[]",
          "name": "tokens",
          "type": "address[]"
        },
        {
          "internalType": "uint256[]",
          "name": "balances",
          "type": "uint256[]"
        },
        {
          "internalType": "uint256[]",
          "name": "denorms",
          "type": "uint256[]"
        }
      ],
      "name": "setTokens",
      "outputs": [],
      "stateMutability": "nonpayable",
      "type": "function"
    },
    {
      "inputs": [
        {
          "internalType": "contract IConfigurableRightsPool",
          "name": "crp",
          "type": "address"
        },
        {
          "internalType": "address",
          "name": "provider",
          "type": "address"
        }
      ],
      "name": "whitelistLiquidityProvider",
      "outputs": [],
      "stateMutability": "nonpayable",
      "type": "function"
    }
  ],
  "transactionHash": "0xde038209e87e9a2dc3a1734ebc7f574cbdd003cf91eef3a25956c7e8fb6b6633",
  "args": [],
  "numDeployments": 1,
  "solcInputHash": "0e997af3b88dbcb9772d4d5054dabb5f",
  "bytecode": "0x608060405234801561001057600080fd5b506131b9806100206000396000f3fe608060405234801561001057600080fd5b50600436106100f15760003560e01c8063135b968d146100f65780631a78a2751461010b5780631eccc18514610134578063333fbeef146101475780634ef39b751461015a57806363ced0921461016d5780637840fb6c146101805780637b7d6c681461019357806380ad2cf3146101a65780638a5c57df146101b95780639589da76146101cc578063991991c7146101df578063a7f28da7146101f2578063affdd4ee14610205578063d46dadd114610218578063d94594071461022b578063e0d945bf1461023e578063e221e73a14610251578063fbe5ce0a14610264575b600080fd5b6101096101043660046128c3565b610277565b005b61011e610119366004612626565b6103a9565b60405161012b9190612ce2565b60405180910390f35b6101096101423660046125ce565b610853565b61010961015536600461257c565b6108ad565b61010961016836600461246d565b6108d9565b61010961017b366004612934565b610a40565b61010961018e366004612490565b610b3b565b6101096101a136600461257c565b610b67565b6101096101b43660046125fb565b610b93565b6101096101c7366004612a28565b610bbf565b6101096101da366004612851565b610c80565b6101096101ed3660046125fb565b610ce5565b61010961020036600461257c565b610d11565b6101096102133660046127f7565b610d3d565b61010961022636600461258e565b610da8565b61011e6102393660046126ea565b610dd6565b61010961024c366004612980565b611117565b61010961025f366004612490565b61193f565b61010961027236600461257c565b61196b565b6060856001600160a01b031663b64ef17b6040518163ffffffff1660e01b815260040160206040518083038186803b1580156102b257600080fd5b505afa1580156102c6573d6000803e3d6000fd5b505050506040513d601f19601f820116820180604052508101906102ea91906127db565b6001600160a01b031663cc77828d6040518163ffffffff1660e01b815260040160006040518083038186803b15801561032257600080fd5b505afa158015610336573d6000803e3d6000fd5b505050506040513d6000823e601f3d908101601f1916820160405261035e91908101906124c8565b90506103a1868287878780806020026020016040519081016040528093929190818152602001838360200280828437600092019190915250899250611997915050565b505050505050565b60008786146103d35760405162461bcd60e51b81526004016103ca90612f4d565b60405180910390fd5b8784146103f25760405162461bcd60e51b81526004016103ca90612f4d565b896001600160a01b03166391cefde46040518163ffffffff1660e01b8152600401602060405180830381600087803b15801561042d57600080fd5b505af1158015610441573d6000803e3d6000fd5b505050506040513d601f19601f8201168201806040525081019061046591906127db565b6040516334e1990760e01b81529091506001600160a01b038216906334e1990790610494908690600401612fa7565b600060405180830381600087803b1580156104ae57600080fd5b505af11580156104c2573d6000803e3d6000fd5b5050505060005b888110156106765760008a8a838181106104df57fe5b90506020020160208101906104f4919061246d565b9050806001600160a01b03166323b872dd33308c8c8781811061051357fe5b905060200201356040518463ffffffff1660e01b815260040161053893929190612cf6565b602060405180830381600087803b15801561055257600080fd5b505af1158015610566573d6000803e3d6000fd5b505050506040513d601f19601f8201168201806040525081019061058a9190612560565b6105a65760405162461bcd60e51b81526004016103ca90612f7a565b6105c381848b8b868181106105b757fe5b90506020020135611deb565b826001600160a01b031663e4e1e5388c8c858181106105de57fe5b90506020020160208101906105f3919061246d565b8b8b868181106105ff57fe5b905060200201358a8a8781811061061257fe5b905060200201356040518463ffffffff1660e01b815260040161063793929190612ef3565b600060405180830381600087803b15801561065157600080fd5b505af1158015610665573d6000803e3d6000fd5b5050600190930192506104c9915050565b5081156107e657806001600160a01b0316634bb278f36040518163ffffffff1660e01b8152600401600060405180830381600087803b1580156106b857600080fd5b505af11580156106cc573d6000803e3d6000fd5b50506040516370a0823160e01b81526001600160a01b038416925063a9059cbb9150339083906370a0823190610706903090600401612ce2565b60206040518083038186803b15801561071e57600080fd5b505afa158015610732573d6000803e3d6000fd5b505050506040513d601f19601f820116820180604052508101906107569190612aa0565b6040518363ffffffff1660e01b8152600401610773929190612d1a565b602060405180830381600087803b15801561078d57600080fd5b505af11580156107a1573d6000803e3d6000fd5b505050506040513d601f19601f820116820180604052508101906107c59190612560565b6107e15760405162461bcd60e51b81526004016103ca90612f7a565b610846565b6040516324dacaa960e11b81526001600160a01b038216906349b595529061081390600190600401612f42565b600060405180830381600087803b15801561082d57600080fd5b505af1158015610841573d6000803e3d6000fd5b505050505b9998505050505050505050565b6040516324dacaa960e11b81526001600160a01b038316906349b595529061087f908490600401612f42565b600060405180830381600087803b15801561089957600080fd5b505af11580156103a1573d6000803e3d6000fd5b60405163c83a1c2d60e01b81526001600160a01b0383169063c83a1c2d9061087f908490600401612ce2565b806001600160a01b0316634bb278f36040518163ffffffff1660e01b8152600401600060405180830381600087803b15801561091457600080fd5b505af1158015610928573d6000803e3d6000fd5b50506040516370a0823160e01b81526001600160a01b038416925063a9059cbb9150339083906370a0823190610962903090600401612ce2565b60206040518083038186803b15801561097a57600080fd5b505afa15801561098e573d6000803e3d6000fd5b505050506040513d601f19601f820116820180604052508101906109b29190612aa0565b6040518363ffffffff1660e01b81526004016109cf929190612d1a565b602060405180830381600087803b1580156109e957600080fd5b505af11580156109fd573d6000803e3d6000fd5b505050506040513d601f19601f82011682018060405250810190610a219190612560565b610a3d5760405162461bcd60e51b81526004016103ca90612f7a565b50565b6060836001600160a01b031663b64ef17b6040518163ffffffff1660e01b815260040160206040518083038186803b158015610a7b57600080fd5b505afa158015610a8f573d6000803e3d6000fd5b505050506040513d601f19601f82011682018060405250810190610ab391906127db565b6001600160a01b031663cc77828d6040518163ffffffff1660e01b815260040160006040518083038186803b158015610aeb57600080fd5b505afa158015610aff573d6000803e3d6000fd5b505050506040513d6000823e601f3d908101601f19168201604052610b2791908101906124c8565b9050610b3584848484611f75565b50505050565b604051636936674d60e01b81526001600160a01b03831690636936674d9061087f908490600401612ce2565b6040516392eefe9b60e01b81526001600160a01b038316906392eefe9b9061087f908490600401612ce2565b6040516347786d3760e01b81526001600160a01b038316906347786d379061087f908490600401612fa7565b6060846001600160a01b031663be3bbd2e6040518163ffffffff1660e01b815260040160006040518083038186803b158015610bfa57600080fd5b505afa158015610c0e573d6000803e3d6000fd5b505050506040513d6000823e601f3d908101601f19168201604052610c3691908101906124c8565b9050610c79858286868680806020026020016040519081016040528093929190818152602001838360200280828437600092019190915250339250611997915050565b5050505050565b6040516329b0917160e21b81526001600160a01b0384169063a6c245c490610cae9085908590600401612f14565b600060405180830381600087803b158015610cc857600080fd5b505af1158015610cdc573d6000803e3d6000fd5b50505050505050565b6040516334e1990760e01b81526001600160a01b038316906334e199079061087f908490600401612fa7565b60405163e2762d4b60e01b81526001600160a01b0383169063e2762d4b9061087f908490600401612ce2565b604051631b9276c760e21b81526001600160a01b03861690636e49db1c90610d6f908790879087908790600401612d4d565b600060405180830381600087803b158015610d8957600080fd5b505af1158015610d9d573d6000803e3d6000fd5b505050505050505050565b60405163992f6ba560e01b81526001600160a01b0384169063992f6ba590610cae9085908590600401612d1a565b6000610de5606089018961303a565b9050610df460408a018a61303a565b905014610e135760405162461bcd60e51b81526004016103ca90612f4d565b610e20608089018961303a565b9050610e2f60408a018a61303a565b905014610e4e5760405162461bcd60e51b81526004016103ca90612f4d565b60405163074aa1b960e51b81526001600160a01b038b169063e954372090610e84908c908c908b908b908b908b90600401612d76565b602060405180830381600087803b158015610e9e57600080fd5b505af1158015610eb2573d6000803e3d6000fd5b505050506040513d601f19601f82011682018060405250810190610ed691906127db565b905060005b610ee860408a018a61303a565b9050811015611001576000610f0060408b018b61303a565b83818110610f0a57fe5b9050602002016020810190610f1f919061246d565b90506001600160a01b0381166323b872dd3330610f3f60608f018f61303a565b87818110610f4957fe5b905060200201356040518463ffffffff1660e01b8152600401610f6e93929190612cf6565b602060405180830381600087803b158015610f8857600080fd5b505af1158015610f9c573d6000803e3d6000fd5b505050506040513d601f19601f82011682018060405250810190610fc09190612560565b610fdc5760405162461bcd60e51b81526004016103ca90612f7a565b610ff88184610fee60608e018e61303a565b868181106105b757fe5b50600101610edb565b506001600160a01b038116630892b93d883560208a013561102860608c0160408d01612a81565b866040518563ffffffff1660e01b81526004016110489493929190613002565b600060405180830381600087803b15801561106257600080fd5b505af1158015611076573d6000803e3d6000fd5b505060405163a9059cbb60e01b81526001600160a01b038416925063a9059cbb91506110a99033908b3590600401612d1a565b602060405180830381600087803b1580156110c357600080fd5b505af11580156110d7573d6000803e3d6000fd5b505050506040513d601f19601f820116820180604052508101906110fb9190612560565b6108465760405162461bcd60e51b81526004016103ca90612f7a565b8483146111365760405162461bcd60e51b81526004016103ca90612f4d565b8481146111555760405162461bcd60e51b81526004016103ca90612f4d565b60005b8581101561193557600087878381811061116e57fe5b9050602002016020810190611183919061246d565b9050886001600160a01b0316632f37b6248989858181106111a057fe5b90506020020160208101906111b5919061246d565b6040518263ffffffff1660e01b81526004016111d19190612ce2565b60206040518083038186803b1580156111e957600080fd5b505afa1580156111fd573d6000803e3d6000fd5b505050506040513d601f19601f820116820180604052508101906112219190612560565b1561162e57886001600160a01b031663f8b2cb4f89898581811061124157fe5b9050602002016020810190611256919061246d565b6040518263ffffffff1660e01b81526004016112729190612ce2565b60206040518083038186803b15801561128a57600080fd5b505afa15801561129e573d6000803e3d6000fd5b505050506040513d601f19601f820116820180604052508101906112c29190612aa0565b8686848181106112ce57fe5b9050602002013511156114e257806001600160a01b03166323b872dd33308c6001600160a01b031663f8b2cb4f8d8d8981811061130757fe5b905060200201602081019061131c919061246d565b6040518263ffffffff1660e01b81526004016113389190612ce2565b60206040518083038186803b15801561135057600080fd5b505afa158015611364573d6000803e3d6000fd5b505050506040513d601f19601f820116820180604052508101906113889190612aa0565b8a8a8881811061139457fe5b90506020020135036040518463ffffffff1660e01b81526004016113ba93929190612cf6565b602060405180830381600087803b1580156113d457600080fd5b505af11580156113e8573d6000803e3d6000fd5b505050506040513d601f19601f8201168201806040525081019061140c9190612560565b6114285760405162461bcd60e51b81526004016103ca90612f7a565b6114e2818a8b6001600160a01b031663f8b2cb4f8c8c8881811061144857fe5b905060200201602081019061145d919061246d565b6040518263ffffffff1660e01b81526004016114799190612ce2565b60206040518083038186803b15801561149157600080fd5b505afa1580156114a5573d6000803e3d6000fd5b505050506040513d601f19601f820116820180604052508101906114c99190612aa0565b8989878181106114d557fe5b9050602002013503611deb565b620f42408686848181106114f257fe5b9050602002013511156115aa57886001600160a01b0316633fdddaa289898581811061151a57fe5b905060200201602081019061152f919061246d565b88888681811061153b57fe5b9050602002013587878781811061154e57fe5b905060200201356040518463ffffffff1660e01b815260040161157393929190612ef3565b600060405180830381600087803b15801561158d57600080fd5b505af11580156115a1573d6000803e3d6000fd5b50505050611629565b886001600160a01b031663cf5e7bd38989858181106115c557fe5b90506020020160208101906115da919061246d565b6040518263ffffffff1660e01b81526004016115f69190612ce2565b600060405180830381600087803b15801561161057600080fd5b505af1158015611624573d6000803e3d6000fd5b505050505b611796565b806001600160a01b03166323b872dd333089898781811061164b57fe5b905060200201356040518463ffffffff1660e01b815260040161167093929190612cf6565b602060405180830381600087803b15801561168a57600080fd5b505af115801561169e573d6000803e3d6000fd5b505050506040513d601f19601f820116820180604052508101906116c29190612560565b6116de5760405162461bcd60e51b81526004016103ca90612f7a565b6116ef818a8888868181106105b757fe5b886001600160a01b031663e4e1e53889898581811061170a57fe5b905060200201602081019061171f919061246d565b88888681811061172b57fe5b9050602002013587878781811061173e57fe5b905060200201356040518463ffffffff1660e01b815260040161176393929190612ef3565b600060405180830381600087803b15801561177d57600080fd5b505af1158015611791573d6000803e3d6000fd5b505050505b6040516370a0823160e01b81526000906001600160a01b038316906370a08231906117c5903090600401612ce2565b60206040518083038186803b1580156117dd57600080fd5b505afa1580156117f1573d6000803e3d6000fd5b505050506040513d601f19601f820116820180604052508101906118159190612aa0565b111561192c576040516370a0823160e01b81526001600160a01b0382169063a9059cbb90339083906370a0823190611851903090600401612ce2565b60206040518083038186803b15801561186957600080fd5b505afa15801561187d573d6000803e3d6000fd5b505050506040513d601f19601f820116820180604052508101906118a19190612aa0565b6040518363ffffffff1660e01b81526004016118be929190612d1a565b602060405180830381600087803b1580156118d857600080fd5b505af11580156118ec573d6000803e3d6000fd5b505050506040513d601f19601f820116820180604052508101906119109190612560565b61192c5760405162461bcd60e51b81526004016103ca90612f7a565b50600101611158565b5050505050505050565b60405163edb12adf60e01b81526001600160a01b0383169063edb12adf9061087f908490600401612ce2565b60405163173825d960e01b81526001600160a01b0383169063173825d99061087f908490600401612ce2565b83518251146119b85760405162461bcd60e51b81526004016103ca90612f4d565b60005b8451811015611ab45760008582815181106119d257fe5b60200260200101519050806001600160a01b03166323b872dd33308786815181106119f957fe5b60200260200101516040518463ffffffff1660e01b8152600401611a1f93929190612cf6565b602060405180830381600087803b158015611a3957600080fd5b505af1158015611a4d573d6000803e3d6000fd5b505050506040513d601f19601f82011682018060405250810190611a719190612560565b611a8d5760405162461bcd60e51b81526004016103ca90612f7a565b611aab8188868581518110611a9e57fe5b6020026020010151611deb565b506001016119bb565b5060405163077df9bd60e31b81526001600160a01b03861690633befcde890611ae590869086908690600401612fd1565b600060405180830381600087803b158015611aff57600080fd5b505af1158015611b13573d6000803e3d6000fd5b5050505060005b8451811015611cd9576000858281518110611b3157fe5b602002602001015190506000816001600160a01b03166370a08231306040518263ffffffff1660e01b8152600401611b699190612ce2565b60206040518083038186803b158015611b8157600080fd5b505afa158015611b95573d6000803e3d6000fd5b505050506040513d601f19601f82011682018060405250810190611bb99190612aa0565b1115611cd0576040516370a0823160e01b81526001600160a01b0382169063a9059cbb90339083906370a0823190611bf5903090600401612ce2565b60206040518083038186803b158015611c0d57600080fd5b505afa158015611c21573d6000803e3d6000fd5b505050506040513d601f19601f82011682018060405250810190611c459190612aa0565b6040518363ffffffff1660e01b8152600401611c62929190612d1a565b602060405180830381600087803b158015611c7c57600080fd5b505af1158015611c90573d6000803e3d6000fd5b505050506040513d601f19601f82011682018060405250810190611cb49190612560565b611cd05760405162461bcd60e51b81526004016103ca90612f7a565b50600101611b1a565b506040516370a0823160e01b81526001600160a01b0386169063a9059cbb90339083906370a0823190611d10903090600401612ce2565b60206040518083038186803b158015611d2857600080fd5b505afa158015611d3c573d6000803e3d6000fd5b505050506040513d601f19601f82011682018060405250810190611d609190612aa0565b6040518363ffffffff1660e01b8152600401611d7d929190612d1a565b602060405180830381600087803b158015611d9757600080fd5b505af1158015611dab573d6000803e3d6000fd5b505050506040513d601f19601f82011682018060405250810190611dcf9190612560565b610c795760405162461bcd60e51b81526004016103ca90612f7a565b604051636eb1769f60e11b81526000906001600160a01b0385169063dd62ed3e90611e1c9030908790600401612d33565b60206040518083038186803b158015611e3457600080fd5b505afa158015611e48573d6000803e3d6000fd5b505050506040513d601f19601f82011682018060405250810190611e6c9190612aa0565b1115611ef55760405163095ea7b360e01b81526001600160a01b0384169063095ea7b390611ea1908590600090600401612d1a565b602060405180830381600087803b158015611ebb57600080fd5b505af1158015611ecf573d6000803e3d6000fd5b505050506040513d601f19601f82011682018060405250810190611ef39190612560565b505b60405163095ea7b360e01b81526001600160a01b0384169063095ea7b390611f239085908590600401612d1a565b602060405180830381600087803b158015611f3d57600080fd5b505af1158015611f51573d6000803e3d6000fd5b505050506040513d601f19601f82011682018060405250810190610b359190612560565b6040516370a0823160e01b81526000906001600160a01b038616906370a0823190611fa4903390600401612ce2565b60206040518083038186803b158015611fbc57600080fd5b505afa158015611fd0573d6000803e3d6000fd5b505050506040513d601f19601f82011682018060405250810190611ff49190612aa0565b6040516323b872dd60e01b81529091506001600160a01b038616906323b872dd9061202790339030908690600401612cf6565b602060405180830381600087803b15801561204157600080fd5b505af1158015612055573d6000803e3d6000fd5b505050506040513d601f19601f820116820180604052508101906120799190612560565b6120955760405162461bcd60e51b81526004016103ca90612f7a565b6120a0858683611deb565b60405163b02f0b7360e01b81526001600160a01b0386169063b02f0b73906120ce9087908790600401612fb0565b600060405180830381600087803b1580156120e857600080fd5b505af11580156120fc573d6000803e3d6000fd5b5050505060005b8251811015611cd957600083828151811061211a57fe5b602002602001015190506000816001600160a01b03166370a08231306040518263ffffffff1660e01b81526004016121529190612ce2565b60206040518083038186803b15801561216a57600080fd5b505afa15801561217e573d6000803e3d6000fd5b505050506040513d601f19601f820116820180604052508101906121a29190612aa0565b11156122b9576040516370a0823160e01b81526001600160a01b0382169063a9059cbb90339083906370a08231906121de903090600401612ce2565b60206040518083038186803b1580156121f657600080fd5b505afa15801561220a573d6000803e3d6000fd5b505050506040513d601f19601f8201168201806040525081019061222e9190612aa0565b6040518363ffffffff1660e01b815260040161224b929190612d1a565b602060405180830381600087803b15801561226557600080fd5b505af1158015612279573d6000803e3d6000fd5b505050506040513d601f19601f8201168201806040525081019061229d9190612560565b6122b95760405162461bcd60e51b81526004016103ca90612f7a565b50600101612103565b60008083601f8401126122d3578182fd5b5081356001600160401b038111156122e9578182fd5b602083019150836020808302850101111561230357600080fd5b9250929050565b600082601f83011261231a578081fd5b813561232d612328826130a6565b613080565b81815291506020808301908481018184028601820187101561234e57600080fd5b60005b8481101561237657813561236481613160565b84529282019290820190600101612351565b505050505092915050565b600082601f830112612391578081fd5b813561239f612328826130a6565b8181529150602080830190848101818402860182018710156123c057600080fd5b60005b84811015612376578135845292820192908201906001016123c3565b80356123ea81613160565b92915050565b600060608284031215612401578081fd5b50919050565b60006104008284031215612401578081fd5b60006101608284031215612401578081fd5b60006040828403121561243c578081fd5b6124466040613080565b9050813581526020820135602082015292915050565b600060c08284031215612401578081fd5b60006020828403121561247e578081fd5b813561248981613160565b9392505050565b600080604083850312156124a2578081fd5b82356124ad81613160565b915060208301356124bd81613160565b809150509250929050565b600060208083850312156124da578182fd5b82516001600160401b038111156124ef578283fd5b8301601f810185136124ff578283fd5b805161250d612328826130a6565b8181528381019083850185840285018601891015612529578687fd5b8694505b8385101561255457805161254081613160565b83526001949094019391850191850161252d565b50979650505050505050565b600060208284031215612571578081fd5b815161248981613175565b600080604083850312156124a2578182fd5b6000806000606084860312156125a2578081fd5b83356125ad81613160565b925060208401356125bd81613160565b929592945050506040919091013590565b600080604083850312156125e0578182fd5b82356125eb81613160565b915060208301356124bd81613175565b6000806040838503121561260d578182fd5b823561261881613160565b946020939093013593505050565b600080600080600080600080600060c08a8c031215612643578687fd5b893561264e81613160565b985060208a01356001600160401b0380821115612669578889fd5b6126758d838e016122c2565b909a50985060408c013591508082111561268d578687fd5b6126998d838e016122c2565b909850965060608c01359150808211156126b1578586fd5b506126be8c828d016122c2565b90955093505060808a0135915060a08a01356126d981613175565b809150509295985092959850929598565b60008060008060008060008060006106008a8c031215612708578283fd5b6127128b8b6123df565b98506127218b60208c016123df565b975060408a01356001600160401b038082111561273c578485fd5b6127488d838e01612419565b98506127578d60608e016123f0565b97506127668d60c08e0161245c565b96506127768d6101808e01612407565b95506105808c013591508082111561278c578485fd5b6127988d838e0161230a565b94506105a08c01359150808211156127ae578384fd5b506127bb8c828d01612381565b9250506127cc8b6105c08c0161242b565b90509295985092959850929598565b6000602082840312156127ec578081fd5b815161248981613160565b600080600080600060a0868803121561280e578283fd5b853561281981613160565b9450602086013561282981613160565b9350604086013561283981613160565b94979396509394606081013594506080013592915050565b600080600060608486031215612865578081fd5b833561287081613160565b925060208401356001600160401b038082111561288b578283fd5b61289787838801612381565b935060408601359150808211156128ac578283fd5b506128b98682870161230a565b9150509250925092565b6000806000806000608086880312156128da578283fd5b85356128e581613160565b94506020860135935060408601356001600160401b03811115612906578384fd5b612912888289016122c2565b909450925050606086013561292681613160565b809150509295509295909350565b600080600060608486031215612948578081fd5b833561295381613160565b92506020840135915060408401356001600160401b03811115612974578182fd5b6128b986828701612381565b60008060008060008060006080888a03121561299a578081fd5b87356129a581613160565b965060208801356001600160401b03808211156129c0578283fd5b6129cc8b838c016122c2565b909850965060408a01359150808211156129e4578283fd5b6129f08b838c016122c2565b909650945060608a0135915080821115612a08578283fd5b50612a158a828b016122c2565b989b979a50959850939692959293505050565b60008060008060608587031215612a3d578182fd5b8435612a4881613160565b93506020850135925060408501356001600160401b03811115612a69578283fd5b612a75878288016122c2565b95989497509550505050565b600060208284031215612a92578081fd5b813560038110612489578182fd5b600060208284031215612ab1578081fd5b5051919050565b60008284526020808501945082825b85811015612af5578135612ada81613160565b6001600160a01b031687529582019590820190600101612ac7565b509495945050505050565b6000815180845260208085019450808401835b83811015612af55781516001600160a01b031687529582019590820190600101612b13565b81835260006001600160fb1b03831115612b50578081fd5b6020830280836020870137939093016020019283525090919050565b6000815180845260208085019450808401835b83811015612af557815187529582019590820190600101612b7f565b60028110612ba557fe5b9052565b60008284528282602086013780602084860101526020601f19601f85011685010190509392505050565b612bdd8282612c95565b610100612bee818401828401612c95565b50610200612c00818401828401612c95565b50610300612c12818401828401612c95565b505050565b8035612c2281613175565b151582526020810135612c3481613175565b151560208301526040810135612c4981613175565b151560408301526060810135612c5e81613175565b151560608301526080810135612c7381613175565b1515608083015260a0810135612c8881613175565b80151560a0840152505050565b612c9f8282612cd3565b612caf6040830160408301612cd3565b612cbf6080830160808301612cd3565b612ccf60c0830160c08301612cd3565b5050565b80358252602090810135910152565b6001600160a01b0391909116815260200190565b6001600160a01b039384168152919092166020820152604081019190915260600190565b6001600160a01b03929092168252602082015260400190565b6001600160a01b0392831681529116602082015260400190565b6001600160a01b0394851681529290931660208301526040820152606081019190915260800190565b6001600160a01b038716815261054060208201819052600090612d99888061311c565b61016083860152612daf6106a086018284612ba9565b92505050612dc0602089018961311c565b61053f198086850301610560870152612dda848385612ba9565b9350612de960408c018c6130c5565b935091508086850301610580870152612e03848484612ab8565b9350612e1260608c018c6130c5565b9350915080868503016105a0870152612e2c848484612b38565b9350612e3b60808c018c6130c5565b9350915080868503016105c087015250612e56838383612b38565b9250505060a08801356105e084015260c088013561060084015260e088013561062084015261010080890135610640850152610120890135610660850152612ea26101408a018a61310c565b612eb0610680860182612b9b565b50612ebe6040850189612c17565b612eca81850188612bd3565b50828103610500840152612ede8186612b00565b90508281036105208401526108468185612b6c565b6001600160a01b039390931683526020830191909152604082015260600190565b600060408252612f276040830185612b6c565b8281036020840152612f398185612b00565b95945050505050565b901515815260200190565b60208082526013908201527208aa4a4be988a9c8ea890be9a92a69a82a8869606b1b604082015260600190565b60208082526013908201527211549497d514905394d1915497d19052531151606a1b604082015260600190565b90815260200190565b600083825260406020830152612fc96040830184612b6c565b949350505050565b600084825260606020830152612fea6060830185612b6c565b905060018060a01b0383166040830152949350505050565b8481526020810184905260a081016003841061301a57fe5b836040830152825160608301526020830151608083015295945050505050565b6000808335601e19843603018112613050578283fd5b8301803591506001600160401b03821115613069578283fd5b602090810192508102360382131561230357600080fd5b6040518181016001600160401b038111828210171561309e57600080fd5b604052919050565b60006001600160401b038211156130bb578081fd5b5060209081020190565b6000808335601e198436030181126130db578283fd5b83016020810192503590506001600160401b038111156130fa57600080fd5b60208102360383131561230357600080fd5b6000823560028110612489578182fd5b6000808335601e19843603018112613132578283fd5b83016020810192503590506001600160401b0381111561315157600080fd5b80360383131561230357600080fd5b6001600160a01b0381168114610a3d57600080fd5b8015158114610a3d57600080fdfea2646970667358221220f888ec3048cd5b90cbaa5d2c868bd757e99df34739bc21203c72b2cca4573e3664736f6c634300060c0033",
  "libraries": {},
  "devdoc": {
    "kind": "dev",
    "methods": {},
    "version": 1
  },
  "userdoc": {
    "kind": "user",
    "methods": {},
    "version": 1
  },
  "storageLayout": {
    "storage": [],
    "types": null
  }
}