{
  "address": "0x51a3295d374418d9E44F3D08420b1BeaF3f0fb66",
  "abi": [
    {
      "inputs": [
        {
          "internalType": "contract IConfigurableRightsPool",
          "name": "crp",
          "type": "address"
        },
        {
          "internalType": "uint256[]",
          "name": "sort",
          "type": "uint256[]"
        },
        {
          "internalType": "address[]",
          "name": "token",
          "type": "address[]"
        }
      ],
      "name": "addTokenToWhitelist",
      "outputs": [],
      "stateMutability": "nonpayable",
      "type": "function"
    },
    {
      "inputs": [
        {
          "internalType": "address",
          "name": "_userVault",
          "type": "address"
        },
        {
          "internalType": "address",
          "name": "pool",
          "type": "address"
        }
      ],
      "name": "claimKolReward",
      "outputs": [],
      "stateMutability": "nonpayable",
      "type": "function"
    },
    {
      "inputs": [
        {
          "internalType": "contract IConfigurableRightsPool",
          "name": "crp",
          "type": "address"
        }
      ],
      "name": "claimManagementFee",
      "outputs": [],
      "stateMutability": "nonpayable",
      "type": "function"
    },
    {
      "inputs": [
        {
          "internalType": "address",
          "name": "_userVault",
          "type": "address"
        },
        {
          "internalType": "address",
          "name": "pool",
          "type": "address"
        }
      ],
      "name": "claimManagersReward",
      "outputs": [],
      "stateMutability": "nonpayable",
      "type": "function"
    },
    {
      "inputs": [
        {
          "internalType": "contract FactoryActions",
          "name": "factory",
          "type": "address"
        },
        {
          "internalType": "address[]",
          "name": "tokens",
          "type": "address[]"
        },
        {
          "internalType": "uint256[]",
          "name": "balances",
          "type": "uint256[]"
        },
        {
          "internalType": "uint256[]",
          "name": "weights",
          "type": "uint256[]"
        },
        {
          "internalType": "uint256",
          "name": "swapFee",
          "type": "uint256"
        },
        {
          "internalType": "bool",
          "name": "finalize",
          "type": "bool"
        }
      ],
      "name": "create",
      "outputs": [
        {
          "internalType": "contract LiquidityPoolActions",
          "name": "pool",
          "type": "address"
        }
      ],
      "stateMutability": "nonpayable",
      "type": "function"
    },
    {
      "inputs": [
        {
          "internalType": "contract ICRPFactory",
          "name": "factory",
          "type": "address"
        },
        {
          "internalType": "contract FactoryActions",
          "name": "coreFactory",
          "type": "address"
        },
        {
          "components": [
            {
              "internalType": "string",
              "name": "poolTokenSymbol",
              "type": "string"
            },
            {
              "internalType": "string",
              "name": "poolTokenName",
              "type": "string"
            },
            {
              "internalType": "address[]",
              "name": "constituentTokens",
              "type": "address[]"
            },
            {
              "internalType": "uint256[]",
              "name": "tokenBalances",
              "type": "uint256[]"
            },
            {
              "internalType": "uint256[]",
              "name": "tokenWeights",
              "type": "uint256[]"
            },
            {
              "internalType": "uint256",
              "name": "swapFee",
              "type": "uint256"
            },
            {
              "internalType": "uint256",
              "name": "managerFee",
              "type": "uint256"
            },
            {
              "internalType": "uint256",
              "name": "redeemFee",
              "type": "uint256"
            },
            {
              "internalType": "uint256",
              "name": "issueFee",
              "type": "uint256"
            },
            {
              "internalType": "uint256",
              "name": "perfermanceFee",
              "type": "uint256"
            },
            {
              "internalType": "enum IConfigurableRightsPool.Etypes",
              "name": "etype",
              "type": "uint8"
            }
          ],
          "internalType": "struct IConfigurableRightsPool.PoolParams",
          "name": "poolParams",
          "type": "tuple"
        },
        {
          "components": [
            {
              "internalType": "uint256",
              "name": "initialSupply",
              "type": "uint256"
            },
            {
              "internalType": "uint256",
              "name": "collectPeriod",
              "type": "uint256"
            },
            {
              "internalType": "enum IConfigurableRightsPool.Period",
              "name": "period",
              "type": "uint8"
            }
          ],
          "internalType": "struct IConfigurableRightsPool.CrpParams",
          "name": "crpParams",
          "type": "tuple"
        },
        {
          "components": [
            {
              "internalType": "bool",
              "name": "canPauseSwapping",
              "type": "bool"
            },
            {
              "internalType": "bool",
              "name": "canChangeSwapFee",
              "type": "bool"
            },
            {
              "internalType": "bool",
              "name": "canChangeWeights",
              "type": "bool"
            },
            {
              "internalType": "bool",
              "name": "canAddRemoveTokens",
              "type": "bool"
            },
            {
              "internalType": "bool",
              "name": "canWhitelistLPs",
              "type": "bool"
            },
            {
              "internalType": "bool",
              "name": "canTokenWhiteLists",
              "type": "bool"
            }
          ],
          "internalType": "struct RightsManager.Rights",
          "name": "rights",
          "type": "tuple"
        },
        {
          "components": [
            {
              "components": [
                {
                  "components": [
                    {
                      "internalType": "uint256",
                      "name": "level",
                      "type": "uint256"
                    },
                    {
                      "internalType": "uint256",
                      "name": "ratio",
                      "type": "uint256"
                    }
                  ],
                  "internalType": "struct SmartPoolManager.levelParams",
                  "name": "firstLevel",
                  "type": "tuple"
                },
                {
                  "components": [
                    {
                      "internalType": "uint256",
                      "name": "level",
                      "type": "uint256"
                    },
                    {
                      "internalType": "uint256",
                      "name": "ratio",
                      "type": "uint256"
                    }
                  ],
                  "internalType": "struct SmartPoolManager.levelParams",
                  "name": "secondLevel",
                  "type": "tuple"
                },
                {
                  "components": [
                    {
                      "internalType": "uint256",
                      "name": "level",
                      "type": "uint256"
                    },
                    {
                      "internalType": "uint256",
                      "name": "ratio",
                      "type": "uint256"
                    }
                  ],
                  "internalType": "struct SmartPoolManager.levelParams",
                  "name": "thirdLevel",
                  "type": "tuple"
                },
                {
                  "components": [
                    {
                      "internalType": "uint256",
                      "name": "level",
                      "type": "uint256"
                    },
                    {
                      "internalType": "uint256",
                      "name": "ratio",
                      "type": "uint256"
                    }
                  ],
                  "internalType": "struct SmartPoolManager.levelParams",
                  "name": "fourLevel",
                  "type": "tuple"
                }
              ],
              "internalType": "struct SmartPoolManager.feeParams",
              "name": "managerFee",
              "type": "tuple"
            },
            {
              "components": [
                {
                  "components": [
                    {
                      "internalType": "uint256",
                      "name": "level",
                      "type": "uint256"
                    },
                    {
                      "internalType": "uint256",
                      "name": "ratio",
                      "type": "uint256"
                    }
                  ],
                  "internalType": "struct SmartPoolManager.levelParams",
                  "name": "firstLevel",
                  "type": "tuple"
                },
                {
                  "components": [
                    {
                      "internalType": "uint256",
                      "name": "level",
                      "type": "uint256"
                    },
                    {
                      "internalType": "uint256",
                      "name": "ratio",
                      "type": "uint256"
                    }
                  ],
                  "internalType": "struct SmartPoolManager.levelParams",
                  "name": "secondLevel",
                  "type": "tuple"
                },
                {
                  "components": [
                    {
                      "internalType": "uint256",
                      "name": "level",
                      "type": "uint256"
                    },
                    {
                      "internalType": "uint256",
                      "name": "ratio",
                      "type": "uint256"
                    }
                  ],
                  "internalType": "struct SmartPoolManager.levelParams",
                  "name": "thirdLevel",
                  "type": "tuple"
                },
                {
                  "components": [
                    {
                      "internalType": "uint256",
                      "name": "level",
                      "type": "uint256"
                    },
                    {
                      "internalType": "uint256",
                      "name": "ratio",
                      "type": "uint256"
                    }
                  ],
                  "internalType": "struct SmartPoolManager.levelParams",
                  "name": "fourLevel",
                  "type": "tuple"
                }
              ],
              "internalType": "struct SmartPoolManager.feeParams",
              "name": "issueFee",
              "type": "tuple"
            },
            {
              "components": [
                {
                  "components": [
                    {
                      "internalType": "uint256",
                      "name": "level",
                      "type": "uint256"
                    },
                    {
                      "internalType": "uint256",
                      "name": "ratio",
                      "type": "uint256"
                    }
                  ],
                  "internalType": "struct SmartPoolManager.levelParams",
                  "name": "firstLevel",
                  "type": "tuple"
                },
                {
                  "components": [
                    {
                      "internalType": "uint256",
                      "name": "level",
                      "type": "uint256"
                    },
                    {
                      "internalType": "uint256",
                      "name": "ratio",
                      "type": "uint256"
                    }
                  ],
                  "internalType": "struct SmartPoolManager.levelParams",
                  "name": "secondLevel",
                  "type": "tuple"
                },
                {
                  "components": [
                    {
                      "internalType": "uint256",
                      "name": "level",
                      "type": "uint256"
                    },
                    {
                      "internalType": "uint256",
                      "name": "ratio",
                      "type": "uint256"
                    }
                  ],
                  "internalType": "struct SmartPoolManager.levelParams",
                  "name": "thirdLevel",
                  "type": "tuple"
                },
                {
                  "components": [
                    {
                      "internalType": "uint256",
                      "name": "level",
                      "type": "uint256"
                    },
                    {
                      "internalType": "uint256",
                      "name": "ratio",
                      "type": "uint256"
                    }
                  ],
                  "internalType": "struct SmartPoolManager.levelParams",
                  "name": "fourLevel",
                  "type": "tuple"
                }
              ],
              "internalType": "struct SmartPoolManager.feeParams",
              "name": "redeemFee",
              "type": "tuple"
            },
            {
              "components": [
                {
                  "components": [
                    {
                      "internalType": "uint256",
                      "name": "level",
                      "type": "uint256"
                    },
                    {
                      "internalType": "uint256",
                      "name": "ratio",
                      "type": "uint256"
                    }
                  ],
                  "internalType": "struct SmartPoolManager.levelParams",
                  "name": "firstLevel",
                  "type": "tuple"
                },
                {
                  "components": [
                    {
                      "internalType": "uint256",
                      "name": "level",
                      "type": "uint256"
                    },
                    {
                      "internalType": "uint256",
                      "name": "ratio",
                      "type": "uint256"
                    }
                  ],
                  "internalType": "struct SmartPoolManager.levelParams",
                  "name": "secondLevel",
                  "type": "tuple"
                },
                {
                  "components": [
                    {
                      "internalType": "uint256",
                      "name": "level",
                      "type": "uint256"
                    },
                    {
                      "internalType": "uint256",
                      "name": "ratio",
                      "type": "uint256"
                    }
                  ],
                  "internalType": "struct SmartPoolManager.levelParams",
                  "name": "thirdLevel",
                  "type": "tuple"
                },
                {
                  "components": [
                    {
                      "internalType": "uint256",
                      "name": "level",
                      "type": "uint256"
                    },
                    {
                      "internalType": "uint256",
                      "name": "ratio",
                      "type": "uint256"
                    }
                  ],
                  "internalType": "struct SmartPoolManager.levelParams",
                  "name": "fourLevel",
                  "type": "tuple"
                }
              ],
              "internalType": "struct SmartPoolManager.feeParams",
              "name": "perfermanceFee",
              "type": "tuple"
            }
          ],
          "internalType": "struct SmartPoolManager.KolPoolParams",
          "name": "kolPoolParams",
          "type": "tuple"
        },
        {
          "internalType": "address[]",
          "name": "owners",
          "type": "address[]"
        },
        {
          "internalType": "uint256[]",
          "name": "ownerPercentage",
          "type": "uint256[]"
        },
        {
          "components": [
            {
              "internalType": "uint256",
              "name": "bspFloor",
              "type": "uint256"
            },
            {
              "internalType": "uint256",
              "name": "bspCap",
              "type": "uint256"
            }
          ],
          "internalType": "struct IConfigurableRightsPool.PoolTokenRange",
          "name": "tokenRange",
          "type": "tuple"
        }
      ],
      "name": "createSmartPool",
      "outputs": [
        {
          "internalType": "contract IConfigurableRightsPool",
          "name": "crp",
          "type": "address"
        }
      ],
      "stateMutability": "nonpayable",
      "type": "function"
    },
    {
      "inputs": [
        {
          "internalType": "contract IConfigurableRightsPool",
          "name": "pool",
          "type": "address"
        },
        {
          "internalType": "uint256",
          "name": "poolAmountIn",
          "type": "uint256"
        },
        {
          "internalType": "uint256[]",
          "name": "minAmountsOut",
          "type": "uint256[]"
        }
      ],
      "name": "exitPool",
      "outputs": [],
      "stateMutability": "nonpayable",
      "type": "function"
    },
    {
      "inputs": [
        {
          "internalType": "contract LiquidityPoolActions",
          "name": "pool",
          "type": "address"
        }
      ],
      "name": "finalize",
      "outputs": [],
      "stateMutability": "nonpayable",
      "type": "function"
    },
    {
      "inputs": [
        {
          "internalType": "contract LiquidityPoolActions",
          "name": "pool",
          "type": "address"
        },
        {
          "internalType": "uint256",
          "name": "poolAmountOut",
          "type": "uint256"
        },
        {
          "internalType": "uint256[]",
          "name": "maxAmountsIn",
          "type": "uint256[]"
        }
      ],
      "name": "joinPool",
      "outputs": [],
      "stateMutability": "nonpayable",
      "type": "function"
    },
    {
      "inputs": [
        {
          "internalType": "contract IConfigurableRightsPool",
          "name": "pool",
          "type": "address"
        },
        {
          "internalType": "uint256",
          "name": "poolAmountOut",
          "type": "uint256"
        },
        {
          "internalType": "uint256[]",
          "name": "maxAmountsIn",
          "type": "uint256[]"
        },
        {
          "internalType": "address",
          "name": "kol",
          "type": "address"
        }
      ],
      "name": "joinSmartPool",
      "outputs": [],
      "stateMutability": "nonpayable",
      "type": "function"
    },
    {
      "inputs": [
        {
          "internalType": "contract IConfigurableRightsPool",
          "name": "crp",
          "type": "address"
        },
        {
          "internalType": "address",
          "name": "tokenA",
          "type": "address"
        },
        {
          "internalType": "address",
          "name": "tokenB",
          "type": "address"
        },
        {
          "internalType": "uint256",
          "name": "deltaWeight",
          "type": "uint256"
        },
        {
          "internalType": "uint256",
          "name": "minAmountOut",
          "type": "uint256"
        }
      ],
      "name": "rebalance",
      "outputs": [],
      "stateMutability": "nonpayable",
      "type": "function"
    },
    {
      "inputs": [
        {
          "internalType": "contract AbstractPool",
          "name": "pool",
          "type": "address"
        },
        {
          "internalType": "address",
          "name": "owner",
          "type": "address"
        }
      ],
      "name": "removeOwner",
      "outputs": [],
      "stateMutability": "nonpayable",
      "type": "function"
    },
    {
      "inputs": [
        {
          "internalType": "contract IConfigurableRightsPool",
          "name": "crp",
          "type": "address"
        },
        {
          "internalType": "address",
          "name": "provider",
          "type": "address"
        }
      ],
      "name": "removeWhitelistedLiquidityProvider",
      "outputs": [],
      "stateMutability": "nonpayable",
      "type": "function"
    },
    {
      "inputs": [
        {
          "internalType": "contract AbstractPool",
          "name": "pool",
          "type": "address"
        },
        {
          "internalType": "address",
          "name": "newOwner",
          "type": "address"
        },
        {
          "internalType": "uint256",
          "name": "_ownerPercentage",
          "type": "uint256"
        }
      ],
      "name": "setAddAdminList",
      "outputs": [],
      "stateMutability": "nonpayable",
      "type": "function"
    },
    {
      "inputs": [
        {
          "internalType": "contract IConfigurableRightsPool",
          "name": "crp",
          "type": "address"
        },
        {
          "internalType": "uint256",
          "name": "newCap",
          "type": "uint256"
        }
      ],
      "name": "setCap",
      "outputs": [],
      "stateMutability": "nonpayable",
      "type": "function"
    },
    {
      "inputs": [
        {
          "internalType": "contract AbstractPool",
          "name": "pool",
          "type": "address"
        },
        {
          "internalType": "address",
          "name": "newController",
          "type": "address"
        }
      ],
      "name": "setController",
      "outputs": [],
      "stateMutability": "nonpayable",
      "type": "function"
    },
    {
      "inputs": [
        {
          "internalType": "contract AbstractPool",
          "name": "pool",
          "type": "address"
        },
        {
          "internalType": "bool",
          "name": "publicSwap",
          "type": "bool"
        }
      ],
      "name": "setPublicSwap",
      "outputs": [],
      "stateMutability": "nonpayable",
      "type": "function"
    },
    {
      "inputs": [
        {
          "internalType": "contract AbstractPool",
          "name": "pool",
          "type": "address"
        },
        {
          "internalType": "uint256",
          "name": "newFee",
          "type": "uint256"
        }
      ],
      "name": "setSwapFee",
      "outputs": [],
      "stateMutability": "nonpayable",
      "type": "function"
    },
    {
      "inputs": [
        {
          "internalType": "contract LiquidityPoolActions",
          "name": "pool",
          "type": "address"
        },
        {
          "internalType": "address[]",
          "name": "tokens",
          "type": "address[]"
        },
        {
          "internalType": "uint256[]",
          "name": "balances",
          "type": "uint256[]"
        },
        {
          "internalType": "uint256[]",
          "name": "denorms",
          "type": "uint256[]"
        }
      ],
      "name": "setTokens",
      "outputs": [],
      "stateMutability": "nonpayable",
      "type": "function"
    },
    {
      "inputs": [
        {
          "internalType": "contract IConfigurableRightsPool",
          "name": "crp",
          "type": "address"
        },
        {
          "internalType": "address",
          "name": "provider",
          "type": "address"
        }
      ],
      "name": "whitelistLiquidityProvider",
      "outputs": [],
      "stateMutability": "nonpayable",
      "type": "function"
    }
  ],
  "transactionHash": "0x9e7f44d1db503d91b1ac14a421f96b67823a64f3fa8d7edee8669b959d966c46",
  "args": [],
  "numDeployments": 1,
  "solcInputHash": "f3f40e75f34851262c6dcc334fe9a5d7",
  "bytecode": "0x608060405234801561001057600080fd5b50613226806100206000396000f3fe608060405234801561001057600080fd5b50600436106100fc5760003560e01c8063135b968d146101015780631a78a275146101165780631eccc1851461013f578063333fbeef146101525780634ef39b751461016557806363ced092146101785780637840fb6c1461018b5780637b7d6c681461019e57806380ad2cf3146101b15780638a5c57df146101c45780639589da76146101d7578063991991c7146101ea578063a7f28da7146101fd578063affdd4ee14610210578063d46dadd114610223578063d945940714610236578063e0d945bf14610249578063e221e73a1461025c578063fb4112651461026f578063fbe5ce0a14610282575b600080fd5b61011461010f366004612930565b610295565b005b610129610124366004612693565b6103c7565b6040516101369190612d4f565b60405180910390f35b61011461014d36600461263b565b610871565b6101146101603660046125e9565b6108cb565b6101146101733660046124da565b6108f7565b6101146101863660046129a1565b610a5e565b6101146101993660046124fd565b610b59565b6101146101ac3660046125e9565b610b85565b6101146101bf366004612668565b610bb1565b6101146101d2366004612a95565b610bdd565b6101146101e53660046128be565b610c9e565b6101146101f8366004612668565b610d03565b61011461020b3660046125e9565b610d2f565b61011461021e366004612864565b610d5b565b6101146102313660046125fb565b610dc6565b610129610244366004612757565b610df4565b6101146102573660046129ed565b611135565b61011461026a3660046124fd565b61195d565b61011461027d3660046124da565b611989565b6101146102903660046125e9565b6119d8565b6060856001600160a01b031663b64ef17b6040518163ffffffff1660e01b815260040160206040518083038186803b1580156102d057600080fd5b505afa1580156102e4573d6000803e3d6000fd5b505050506040513d601f19601f820116820180604052508101906103089190612848565b6001600160a01b031663cc77828d6040518163ffffffff1660e01b815260040160006040518083038186803b15801561034057600080fd5b505afa158015610354573d6000803e3d6000fd5b505050506040513d6000823e601f3d908101601f1916820160405261037c9190810190612535565b90506103bf868287878780806020026020016040519081016040528093929190818152602001838360200280828437600092019190915250899250611a04915050565b505050505050565b60008786146103f15760405162461bcd60e51b81526004016103e890612fba565b60405180910390fd5b8784146104105760405162461bcd60e51b81526004016103e890612fba565b896001600160a01b03166391cefde46040518163ffffffff1660e01b8152600401602060405180830381600087803b15801561044b57600080fd5b505af115801561045f573d6000803e3d6000fd5b505050506040513d601f19601f820116820180604052508101906104839190612848565b6040516334e1990760e01b81529091506001600160a01b038216906334e19907906104b2908690600401613014565b600060405180830381600087803b1580156104cc57600080fd5b505af11580156104e0573d6000803e3d6000fd5b5050505060005b888110156106945760008a8a838181106104fd57fe5b905060200201602081019061051291906124da565b9050806001600160a01b03166323b872dd33308c8c8781811061053157fe5b905060200201356040518463ffffffff1660e01b815260040161055693929190612d63565b602060405180830381600087803b15801561057057600080fd5b505af1158015610584573d6000803e3d6000fd5b505050506040513d601f19601f820116820180604052508101906105a891906125cd565b6105c45760405162461bcd60e51b81526004016103e890612fe7565b6105e181848b8b868181106105d557fe5b90506020020135611e58565b826001600160a01b031663e4e1e5388c8c858181106105fc57fe5b905060200201602081019061061191906124da565b8b8b8681811061061d57fe5b905060200201358a8a8781811061063057fe5b905060200201356040518463ffffffff1660e01b815260040161065593929190612f60565b600060405180830381600087803b15801561066f57600080fd5b505af1158015610683573d6000803e3d6000fd5b5050600190930192506104e7915050565b50811561080457806001600160a01b0316634bb278f36040518163ffffffff1660e01b8152600401600060405180830381600087803b1580156106d657600080fd5b505af11580156106ea573d6000803e3d6000fd5b50506040516370a0823160e01b81526001600160a01b038416925063a9059cbb9150339083906370a0823190610724903090600401612d4f565b60206040518083038186803b15801561073c57600080fd5b505afa158015610750573d6000803e3d6000fd5b505050506040513d601f19601f820116820180604052508101906107749190612b0d565b6040518363ffffffff1660e01b8152600401610791929190612d87565b602060405180830381600087803b1580156107ab57600080fd5b505af11580156107bf573d6000803e3d6000fd5b505050506040513d601f19601f820116820180604052508101906107e391906125cd565b6107ff5760405162461bcd60e51b81526004016103e890612fe7565b610864565b6040516324dacaa960e11b81526001600160a01b038216906349b595529061083190600190600401612faf565b600060405180830381600087803b15801561084b57600080fd5b505af115801561085f573d6000803e3d6000fd5b505050505b9998505050505050505050565b6040516324dacaa960e11b81526001600160a01b038316906349b595529061089d908490600401612faf565b600060405180830381600087803b1580156108b757600080fd5b505af11580156103bf573d6000803e3d6000fd5b60405163c83a1c2d60e01b81526001600160a01b0383169063c83a1c2d9061089d908490600401612d4f565b806001600160a01b0316634bb278f36040518163ffffffff1660e01b8152600401600060405180830381600087803b15801561093257600080fd5b505af1158015610946573d6000803e3d6000fd5b50506040516370a0823160e01b81526001600160a01b038416925063a9059cbb9150339083906370a0823190610980903090600401612d4f565b60206040518083038186803b15801561099857600080fd5b505afa1580156109ac573d6000803e3d6000fd5b505050506040513d601f19601f820116820180604052508101906109d09190612b0d565b6040518363ffffffff1660e01b81526004016109ed929190612d87565b602060405180830381600087803b158015610a0757600080fd5b505af1158015610a1b573d6000803e3d6000fd5b505050506040513d601f19601f82011682018060405250810190610a3f91906125cd565b610a5b5760405162461bcd60e51b81526004016103e890612fe7565b50565b6060836001600160a01b031663b64ef17b6040518163ffffffff1660e01b815260040160206040518083038186803b158015610a9957600080fd5b505afa158015610aad573d6000803e3d6000fd5b505050506040513d601f19601f82011682018060405250810190610ad19190612848565b6001600160a01b031663cc77828d6040518163ffffffff1660e01b815260040160006040518083038186803b158015610b0957600080fd5b505afa158015610b1d573d6000803e3d6000fd5b505050506040513d6000823e601f3d908101601f19168201604052610b459190810190612535565b9050610b5384848484611fe2565b50505050565b60405163325a48a760e21b81526001600160a01b0383169063c969229c9061089d908490600401612d4f565b6040516392eefe9b60e01b81526001600160a01b038316906392eefe9b9061089d908490600401612d4f565b6040516347786d3760e01b81526001600160a01b038316906347786d379061089d908490600401613014565b6060846001600160a01b031663be3bbd2e6040518163ffffffff1660e01b815260040160006040518083038186803b158015610c1857600080fd5b505afa158015610c2c573d6000803e3d6000fd5b505050506040513d6000823e601f3d908101601f19168201604052610c549190810190612535565b9050610c97858286868680806020026020016040519081016040528093929190818152602001838360200280828437600092019190915250339250611a04915050565b5050505050565b6040516329b0917160e21b81526001600160a01b0384169063a6c245c490610ccc9085908590600401612f81565b600060405180830381600087803b158015610ce657600080fd5b505af1158015610cfa573d6000803e3d6000fd5b50505050505050565b6040516334e1990760e01b81526001600160a01b038316906334e199079061089d908490600401613014565b60405163e2762d4b60e01b81526001600160a01b0383169063e2762d4b9061089d908490600401612d4f565b604051631b9276c760e21b81526001600160a01b03861690636e49db1c90610d8d908790879087908790600401612dba565b600060405180830381600087803b158015610da757600080fd5b505af1158015610dbb573d6000803e3d6000fd5b505050505050505050565b60405163992f6ba560e01b81526001600160a01b0384169063992f6ba590610ccc9085908590600401612d87565b6000610e0360608901896130a7565b9050610e1260408a018a6130a7565b905014610e315760405162461bcd60e51b81526004016103e890612fba565b610e3e60808901896130a7565b9050610e4d60408a018a6130a7565b905014610e6c5760405162461bcd60e51b81526004016103e890612fba565b60405163074aa1b960e51b81526001600160a01b038b169063e954372090610ea2908c908c908b908b908b908b90600401612de3565b602060405180830381600087803b158015610ebc57600080fd5b505af1158015610ed0573d6000803e3d6000fd5b505050506040513d601f19601f82011682018060405250810190610ef49190612848565b905060005b610f0660408a018a6130a7565b905081101561101f576000610f1e60408b018b6130a7565b83818110610f2857fe5b9050602002016020810190610f3d91906124da565b90506001600160a01b0381166323b872dd3330610f5d60608f018f6130a7565b87818110610f6757fe5b905060200201356040518463ffffffff1660e01b8152600401610f8c93929190612d63565b602060405180830381600087803b158015610fa657600080fd5b505af1158015610fba573d6000803e3d6000fd5b505050506040513d601f19601f82011682018060405250810190610fde91906125cd565b610ffa5760405162461bcd60e51b81526004016103e890612fe7565b611016818461100c60608e018e6130a7565b868181106105d557fe5b50600101610ef9565b506001600160a01b038116630892b93d883560208a013561104660608c0160408d01612aee565b866040518563ffffffff1660e01b8152600401611066949392919061306f565b600060405180830381600087803b15801561108057600080fd5b505af1158015611094573d6000803e3d6000fd5b505060405163a9059cbb60e01b81526001600160a01b038416925063a9059cbb91506110c79033908b3590600401612d87565b602060405180830381600087803b1580156110e157600080fd5b505af11580156110f5573d6000803e3d6000fd5b505050506040513d601f19601f8201168201806040525081019061111991906125cd565b6108645760405162461bcd60e51b81526004016103e890612fe7565b8483146111545760405162461bcd60e51b81526004016103e890612fba565b8481146111735760405162461bcd60e51b81526004016103e890612fba565b60005b8581101561195357600087878381811061118c57fe5b90506020020160208101906111a191906124da565b9050886001600160a01b0316632f37b6248989858181106111be57fe5b90506020020160208101906111d391906124da565b6040518263ffffffff1660e01b81526004016111ef9190612d4f565b60206040518083038186803b15801561120757600080fd5b505afa15801561121b573d6000803e3d6000fd5b505050506040513d601f19601f8201168201806040525081019061123f91906125cd565b1561164c57886001600160a01b031663f8b2cb4f89898581811061125f57fe5b905060200201602081019061127491906124da565b6040518263ffffffff1660e01b81526004016112909190612d4f565b60206040518083038186803b1580156112a857600080fd5b505afa1580156112bc573d6000803e3d6000fd5b505050506040513d601f19601f820116820180604052508101906112e09190612b0d565b8686848181106112ec57fe5b90506020020135111561150057806001600160a01b03166323b872dd33308c6001600160a01b031663f8b2cb4f8d8d8981811061132557fe5b905060200201602081019061133a91906124da565b6040518263ffffffff1660e01b81526004016113569190612d4f565b60206040518083038186803b15801561136e57600080fd5b505afa158015611382573d6000803e3d6000fd5b505050506040513d601f19601f820116820180604052508101906113a69190612b0d565b8a8a888181106113b257fe5b90506020020135036040518463ffffffff1660e01b81526004016113d893929190612d63565b602060405180830381600087803b1580156113f257600080fd5b505af1158015611406573d6000803e3d6000fd5b505050506040513d601f19601f8201168201806040525081019061142a91906125cd565b6114465760405162461bcd60e51b81526004016103e890612fe7565b611500818a8b6001600160a01b031663f8b2cb4f8c8c8881811061146657fe5b905060200201602081019061147b91906124da565b6040518263ffffffff1660e01b81526004016114979190612d4f565b60206040518083038186803b1580156114af57600080fd5b505afa1580156114c3573d6000803e3d6000fd5b505050506040513d601f19601f820116820180604052508101906114e79190612b0d565b8989878181106114f357fe5b9050602002013503611e58565b620f424086868481811061151057fe5b9050602002013511156115c857886001600160a01b0316633fdddaa289898581811061153857fe5b905060200201602081019061154d91906124da565b88888681811061155957fe5b9050602002013587878781811061156c57fe5b905060200201356040518463ffffffff1660e01b815260040161159193929190612f60565b600060405180830381600087803b1580156115ab57600080fd5b505af11580156115bf573d6000803e3d6000fd5b50505050611647565b886001600160a01b031663cf5e7bd38989858181106115e357fe5b90506020020160208101906115f891906124da565b6040518263ffffffff1660e01b81526004016116149190612d4f565b600060405180830381600087803b15801561162e57600080fd5b505af1158015611642573d6000803e3d6000fd5b505050505b6117b4565b806001600160a01b03166323b872dd333089898781811061166957fe5b905060200201356040518463ffffffff1660e01b815260040161168e93929190612d63565b602060405180830381600087803b1580156116a857600080fd5b505af11580156116bc573d6000803e3d6000fd5b505050506040513d601f19601f820116820180604052508101906116e091906125cd565b6116fc5760405162461bcd60e51b81526004016103e890612fe7565b61170d818a8888868181106105d557fe5b886001600160a01b031663e4e1e53889898581811061172857fe5b905060200201602081019061173d91906124da565b88888681811061174957fe5b9050602002013587878781811061175c57fe5b905060200201356040518463ffffffff1660e01b815260040161178193929190612f60565b600060405180830381600087803b15801561179b57600080fd5b505af11580156117af573d6000803e3d6000fd5b505050505b6040516370a0823160e01b81526000906001600160a01b038316906370a08231906117e3903090600401612d4f565b60206040518083038186803b1580156117fb57600080fd5b505afa15801561180f573d6000803e3d6000fd5b505050506040513d601f19601f820116820180604052508101906118339190612b0d565b111561194a576040516370a0823160e01b81526001600160a01b0382169063a9059cbb90339083906370a082319061186f903090600401612d4f565b60206040518083038186803b15801561188757600080fd5b505afa15801561189b573d6000803e3d6000fd5b505050506040513d601f19601f820116820180604052508101906118bf9190612b0d565b6040518363ffffffff1660e01b81526004016118dc929190612d87565b602060405180830381600087803b1580156118f657600080fd5b505af115801561190a573d6000803e3d6000fd5b505050506040513d601f19601f8201168201806040525081019061192e91906125cd565b61194a5760405162461bcd60e51b81526004016103e890612fe7565b50600101611176565b5050505050505050565b60405163edb12adf60e01b81526001600160a01b0383169063edb12adf9061089d908490600401612d4f565b806001600160a01b031663d2fed42e6040518163ffffffff1660e01b8152600401600060405180830381600087803b1580156119c457600080fd5b505af1158015610c97573d6000803e3d6000fd5b60405163173825d960e01b81526001600160a01b0383169063173825d99061089d908490600401612d4f565b8351825114611a255760405162461bcd60e51b81526004016103e890612fba565b60005b8451811015611b21576000858281518110611a3f57fe5b60200260200101519050806001600160a01b03166323b872dd3330878681518110611a6657fe5b60200260200101516040518463ffffffff1660e01b8152600401611a8c93929190612d63565b602060405180830381600087803b158015611aa657600080fd5b505af1158015611aba573d6000803e3d6000fd5b505050506040513d601f19601f82011682018060405250810190611ade91906125cd565b611afa5760405162461bcd60e51b81526004016103e890612fe7565b611b188188868581518110611b0b57fe5b6020026020010151611e58565b50600101611a28565b5060405163077df9bd60e31b81526001600160a01b03861690633befcde890611b529086908690869060040161303e565b600060405180830381600087803b158015611b6c57600080fd5b505af1158015611b80573d6000803e3d6000fd5b5050505060005b8451811015611d46576000858281518110611b9e57fe5b602002602001015190506000816001600160a01b03166370a08231306040518263ffffffff1660e01b8152600401611bd69190612d4f565b60206040518083038186803b158015611bee57600080fd5b505afa158015611c02573d6000803e3d6000fd5b505050506040513d601f19601f82011682018060405250810190611c269190612b0d565b1115611d3d576040516370a0823160e01b81526001600160a01b0382169063a9059cbb90339083906370a0823190611c62903090600401612d4f565b60206040518083038186803b158015611c7a57600080fd5b505afa158015611c8e573d6000803e3d6000fd5b505050506040513d601f19601f82011682018060405250810190611cb29190612b0d565b6040518363ffffffff1660e01b8152600401611ccf929190612d87565b602060405180830381600087803b158015611ce957600080fd5b505af1158015611cfd573d6000803e3d6000fd5b505050506040513d601f19601f82011682018060405250810190611d2191906125cd565b611d3d5760405162461bcd60e51b81526004016103e890612fe7565b50600101611b87565b506040516370a0823160e01b81526001600160a01b0386169063a9059cbb90339083906370a0823190611d7d903090600401612d4f565b60206040518083038186803b158015611d9557600080fd5b505afa158015611da9573d6000803e3d6000fd5b505050506040513d601f19601f82011682018060405250810190611dcd9190612b0d565b6040518363ffffffff1660e01b8152600401611dea929190612d87565b602060405180830381600087803b158015611e0457600080fd5b505af1158015611e18573d6000803e3d6000fd5b505050506040513d601f19601f82011682018060405250810190611e3c91906125cd565b610c975760405162461bcd60e51b81526004016103e890612fe7565b604051636eb1769f60e11b81526000906001600160a01b0385169063dd62ed3e90611e899030908790600401612da0565b60206040518083038186803b158015611ea157600080fd5b505afa158015611eb5573d6000803e3d6000fd5b505050506040513d601f19601f82011682018060405250810190611ed99190612b0d565b1115611f625760405163095ea7b360e01b81526001600160a01b0384169063095ea7b390611f0e908590600090600401612d87565b602060405180830381600087803b158015611f2857600080fd5b505af1158015611f3c573d6000803e3d6000fd5b505050506040513d601f19601f82011682018060405250810190611f6091906125cd565b505b60405163095ea7b360e01b81526001600160a01b0384169063095ea7b390611f909085908590600401612d87565b602060405180830381600087803b158015611faa57600080fd5b505af1158015611fbe573d6000803e3d6000fd5b505050506040513d601f19601f82011682018060405250810190610b5391906125cd565b6040516370a0823160e01b81526000906001600160a01b038616906370a0823190612011903390600401612d4f565b60206040518083038186803b15801561202957600080fd5b505afa15801561203d573d6000803e3d6000fd5b505050506040513d601f19601f820116820180604052508101906120619190612b0d565b6040516323b872dd60e01b81529091506001600160a01b038616906323b872dd9061209490339030908690600401612d63565b602060405180830381600087803b1580156120ae57600080fd5b505af11580156120c2573d6000803e3d6000fd5b505050506040513d601f19601f820116820180604052508101906120e691906125cd565b6121025760405162461bcd60e51b81526004016103e890612fe7565b61210d858683611e58565b60405163b02f0b7360e01b81526001600160a01b0386169063b02f0b739061213b908790879060040161301d565b600060405180830381600087803b15801561215557600080fd5b505af1158015612169573d6000803e3d6000fd5b5050505060005b8251811015611d4657600083828151811061218757fe5b602002602001015190506000816001600160a01b03166370a08231306040518263ffffffff1660e01b81526004016121bf9190612d4f565b60206040518083038186803b1580156121d757600080fd5b505afa1580156121eb573d6000803e3d6000fd5b505050506040513d601f19601f8201168201806040525081019061220f9190612b0d565b1115612326576040516370a0823160e01b81526001600160a01b0382169063a9059cbb90339083906370a082319061224b903090600401612d4f565b60206040518083038186803b15801561226357600080fd5b505afa158015612277573d6000803e3d6000fd5b505050506040513d601f19601f8201168201806040525081019061229b9190612b0d565b6040518363ffffffff1660e01b81526004016122b8929190612d87565b602060405180830381600087803b1580156122d257600080fd5b505af11580156122e6573d6000803e3d6000fd5b505050506040513d601f19601f8201168201806040525081019061230a91906125cd565b6123265760405162461bcd60e51b81526004016103e890612fe7565b50600101612170565b60008083601f840112612340578182fd5b5081356001600160401b03811115612356578182fd5b602083019150836020808302850101111561237057600080fd5b9250929050565b600082601f830112612387578081fd5b813561239a61239582613113565b6130ed565b8181529150602080830190848101818402860182018710156123bb57600080fd5b60005b848110156123e35781356123d1816131cd565b845292820192908201906001016123be565b505050505092915050565b600082601f8301126123fe578081fd5b813561240c61239582613113565b81815291506020808301908481018184028601820187101561242d57600080fd5b60005b848110156123e357813584529282019290820190600101612430565b8035612457816131cd565b92915050565b60006060828403121561246e578081fd5b50919050565b6000610400828403121561246e578081fd5b6000610160828403121561246e578081fd5b6000604082840312156124a9578081fd5b6124b360406130ed565b9050813581526020820135602082015292915050565b600060c0828403121561246e578081fd5b6000602082840312156124eb578081fd5b81356124f6816131cd565b9392505050565b6000806040838503121561250f578081fd5b823561251a816131cd565b9150602083013561252a816131cd565b809150509250929050565b60006020808385031215612547578182fd5b82516001600160401b0381111561255c578283fd5b8301601f8101851361256c578283fd5b805161257a61239582613113565b8181528381019083850185840285018601891015612596578687fd5b8694505b838510156125c15780516125ad816131cd565b83526001949094019391850191850161259a565b50979650505050505050565b6000602082840312156125de578081fd5b81516124f6816131e2565b6000806040838503121561250f578182fd5b60008060006060848603121561260f578081fd5b833561261a816131cd565b9250602084013561262a816131cd565b929592945050506040919091013590565b6000806040838503121561264d578182fd5b8235612658816131cd565b9150602083013561252a816131e2565b6000806040838503121561267a578182fd5b8235612685816131cd565b946020939093013593505050565b600080600080600080600080600060c08a8c0312156126b0578687fd5b89356126bb816131cd565b985060208a01356001600160401b03808211156126d6578889fd5b6126e28d838e0161232f565b909a50985060408c01359150808211156126fa578687fd5b6127068d838e0161232f565b909850965060608c013591508082111561271e578586fd5b5061272b8c828d0161232f565b90955093505060808a0135915060a08a0135612746816131e2565b809150509295985092959850929598565b60008060008060008060008060006106008a8c031215612775578283fd5b61277f8b8b61244c565b985061278e8b60208c0161244c565b975060408a01356001600160401b03808211156127a9578485fd5b6127b58d838e01612486565b98506127c48d60608e0161245d565b97506127d38d60c08e016124c9565b96506127e38d6101808e01612474565b95506105808c01359150808211156127f9578485fd5b6128058d838e01612377565b94506105a08c013591508082111561281b578384fd5b506128288c828d016123ee565b9250506128398b6105c08c01612498565b90509295985092959850929598565b600060208284031215612859578081fd5b81516124f6816131cd565b600080600080600060a0868803121561287b578283fd5b8535612886816131cd565b94506020860135612896816131cd565b935060408601356128a6816131cd565b94979396509394606081013594506080013592915050565b6000806000606084860312156128d2578081fd5b83356128dd816131cd565b925060208401356001600160401b03808211156128f8578283fd5b612904878388016123ee565b93506040860135915080821115612919578283fd5b5061292686828701612377565b9150509250925092565b600080600080600060808688031215612947578283fd5b8535612952816131cd565b94506020860135935060408601356001600160401b03811115612973578384fd5b61297f8882890161232f565b9094509250506060860135612993816131cd565b809150509295509295909350565b6000806000606084860312156129b5578081fd5b83356129c0816131cd565b92506020840135915060408401356001600160401b038111156129e1578182fd5b612926868287016123ee565b60008060008060008060006080888a031215612a07578081fd5b8735612a12816131cd565b965060208801356001600160401b0380821115612a2d578283fd5b612a398b838c0161232f565b909850965060408a0135915080821115612a51578283fd5b612a5d8b838c0161232f565b909650945060608a0135915080821115612a75578283fd5b50612a828a828b0161232f565b989b979a50959850939692959293505050565b60008060008060608587031215612aaa578182fd5b8435612ab5816131cd565b93506020850135925060408501356001600160401b03811115612ad6578283fd5b612ae28782880161232f565b95989497509550505050565b600060208284031215612aff578081fd5b8135600381106124f6578182fd5b600060208284031215612b1e578081fd5b5051919050565b60008284526020808501945082825b85811015612b62578135612b47816131cd565b6001600160a01b031687529582019590820190600101612b34565b509495945050505050565b6000815180845260208085019450808401835b83811015612b625781516001600160a01b031687529582019590820190600101612b80565b81835260006001600160fb1b03831115612bbd578081fd5b6020830280836020870137939093016020019283525090919050565b6000815180845260208085019450808401835b83811015612b6257815187529582019590820190600101612bec565b60028110612c1257fe5b9052565b60008284528282602086013780602084860101526020601f19601f85011685010190509392505050565b612c4a8282612d02565b610100612c5b818401828401612d02565b50610200612c6d818401828401612d02565b50610300612c7f818401828401612d02565b505050565b8035612c8f816131e2565b151582526020810135612ca1816131e2565b151560208301526040810135612cb6816131e2565b151560408301526060810135612ccb816131e2565b151560608301526080810135612ce0816131e2565b1515608083015260a0810135612cf5816131e2565b80151560a0840152505050565b612d0c8282612d40565b612d1c6040830160408301612d40565b612d2c6080830160808301612d40565b612d3c60c0830160c08301612d40565b5050565b80358252602090810135910152565b6001600160a01b0391909116815260200190565b6001600160a01b039384168152919092166020820152604081019190915260600190565b6001600160a01b03929092168252602082015260400190565b6001600160a01b0392831681529116602082015260400190565b6001600160a01b0394851681529290931660208301526040820152606081019190915260800190565b6001600160a01b038716815261054060208201819052600090612e068880613189565b61016083860152612e1c6106a086018284612c16565b92505050612e2d6020890189613189565b61053f198086850301610560870152612e47848385612c16565b9350612e5660408c018c613132565b935091508086850301610580870152612e70848484612b25565b9350612e7f60608c018c613132565b9350915080868503016105a0870152612e99848484612ba5565b9350612ea860808c018c613132565b9350915080868503016105c087015250612ec3838383612ba5565b9250505060a08801356105e084015260c088013561060084015260e088013561062084015261010080890135610640850152610120890135610660850152612f0f6101408a018a613179565b612f1d610680860182612c08565b50612f2b6040850189612c84565b612f3781850188612c40565b50828103610500840152612f4b8186612b6d565b90508281036105208401526108648185612bd9565b6001600160a01b039390931683526020830191909152604082015260600190565b600060408252612f946040830185612bd9565b8281036020840152612fa68185612b6d565b95945050505050565b901515815260200190565b60208082526013908201527208aa4a4be988a9c8ea890be9a92a69a82a8869606b1b604082015260600190565b60208082526013908201527211549497d514905394d1915497d19052531151606a1b604082015260600190565b90815260200190565b6000838252604060208301526130366040830184612bd9565b949350505050565b6000848252606060208301526130576060830185612bd9565b905060018060a01b0383166040830152949350505050565b8481526020810184905260a081016003841061308757fe5b836040830152825160608301526020830151608083015295945050505050565b6000808335601e198436030181126130bd578283fd5b8301803591506001600160401b038211156130d6578283fd5b602090810192508102360382131561237057600080fd5b6040518181016001600160401b038111828210171561310b57600080fd5b604052919050565b60006001600160401b03821115613128578081fd5b5060209081020190565b6000808335601e19843603018112613148578283fd5b83016020810192503590506001600160401b0381111561316757600080fd5b60208102360383131561237057600080fd5b60008235600281106124f6578182fd5b6000808335601e1984360301811261319f578283fd5b83016020810192503590506001600160401b038111156131be57600080fd5b80360383131561237057600080fd5b6001600160a01b0381168114610a5b57600080fd5b8015158114610a5b57600080fdfea264697066735822122043718210a021d00d2a4c9d39caf252cff2561664888d3ce32356f34664e36c3664736f6c634300060c0033",
  "libraries": {},
  "devdoc": {
    "kind": "dev",
    "methods": {},
    "version": 1
  },
  "userdoc": {
    "kind": "user",
    "methods": {},
    "version": 1
  },
  "storageLayout": {
    "storage": [],
    "types": null
  }
}