{
  "address": "0x4F2A274352D129CdeEBdE02CD020B5d09e0669eD",
  "abi": [
    {
      "inputs": [
        {
          "internalType": "contract FactoryActions",
          "name": "factory",
          "type": "address"
        },
        {
          "internalType": "address[]",
          "name": "tokens",
          "type": "address[]"
        },
        {
          "internalType": "uint256[]",
          "name": "balances",
          "type": "uint256[]"
        },
        {
          "internalType": "uint256[]",
          "name": "weights",
          "type": "uint256[]"
        },
        {
          "internalType": "uint256",
          "name": "swapFee",
          "type": "uint256"
        },
        {
          "internalType": "bool",
          "name": "finalize",
          "type": "bool"
        }
      ],
      "name": "create",
      "outputs": [
        {
          "internalType": "contract LiquidityPoolActions",
          "name": "pool",
          "type": "address"
        }
      ],
      "stateMutability": "nonpayable",
      "type": "function"
    },
    {
      "inputs": [
        {
          "internalType": "contract ICRPFactory",
          "name": "factory",
          "type": "address"
        },
        {
          "internalType": "contract FactoryActions",
          "name": "coreFactory",
          "type": "address"
        },
        {
          "components": [
            {
              "internalType": "string",
              "name": "poolTokenSymbol",
              "type": "string"
            },
            {
              "internalType": "string",
              "name": "poolTokenName",
              "type": "string"
            },
            {
              "internalType": "address[]",
              "name": "constituentTokens",
              "type": "address[]"
            },
            {
              "internalType": "uint256[]",
              "name": "tokenBalances",
              "type": "uint256[]"
            },
            {
              "internalType": "uint256[]",
              "name": "tokenWeights",
              "type": "uint256[]"
            },
            {
              "internalType": "uint256",
              "name": "swapFee",
              "type": "uint256"
            },
            {
              "internalType": "uint256",
              "name": "managerFee",
              "type": "uint256"
            },
            {
              "internalType": "uint256",
              "name": "redeemFee",
              "type": "uint256"
            },
            {
              "internalType": "uint256",
              "name": "issueFee",
              "type": "uint256"
            },
            {
              "internalType": "uint256",
              "name": "perfermanceFee",
              "type": "uint256"
            },
            {
              "internalType": "enum IConfigurableRightsPool.Etypes",
              "name": "etype",
              "type": "uint8"
            }
          ],
          "internalType": "struct IConfigurableRightsPool.PoolParams",
          "name": "poolParams",
          "type": "tuple"
        },
        {
          "components": [
            {
              "internalType": "uint256",
              "name": "initialSupply",
              "type": "uint256"
            },
            {
              "internalType": "uint256",
              "name": "collectPeriod",
              "type": "uint256"
            },
            {
              "internalType": "enum IConfigurableRightsPool.Period",
              "name": "period",
              "type": "uint8"
            }
          ],
          "internalType": "struct IConfigurableRightsPool.CrpParams",
          "name": "crpParams",
          "type": "tuple"
        },
        {
          "components": [
            {
              "internalType": "bool",
              "name": "canPauseSwapping",
              "type": "bool"
            },
            {
              "internalType": "bool",
              "name": "canChangeSwapFee",
              "type": "bool"
            },
            {
              "internalType": "bool",
              "name": "canChangeWeights",
              "type": "bool"
            },
            {
              "internalType": "bool",
              "name": "canAddRemoveTokens",
              "type": "bool"
            },
            {
              "internalType": "bool",
              "name": "canWhitelistLPs",
              "type": "bool"
            },
            {
              "internalType": "bool",
              "name": "canTokenWhiteLists",
              "type": "bool"
            }
          ],
          "internalType": "struct RightsManager.Rights",
          "name": "rights",
          "type": "tuple"
        },
        {
          "components": [
            {
              "components": [
                {
                  "components": [
                    {
                      "internalType": "uint256",
                      "name": "level",
                      "type": "uint256"
                    },
                    {
                      "internalType": "uint256",
                      "name": "ratio",
                      "type": "uint256"
                    }
                  ],
                  "internalType": "struct SmartPoolManager.levelParams",
                  "name": "firstLevel",
                  "type": "tuple"
                },
                {
                  "components": [
                    {
                      "internalType": "uint256",
                      "name": "level",
                      "type": "uint256"
                    },
                    {
                      "internalType": "uint256",
                      "name": "ratio",
                      "type": "uint256"
                    }
                  ],
                  "internalType": "struct SmartPoolManager.levelParams",
                  "name": "secondLevel",
                  "type": "tuple"
                },
                {
                  "components": [
                    {
                      "internalType": "uint256",
                      "name": "level",
                      "type": "uint256"
                    },
                    {
                      "internalType": "uint256",
                      "name": "ratio",
                      "type": "uint256"
                    }
                  ],
                  "internalType": "struct SmartPoolManager.levelParams",
                  "name": "thirdLevel",
                  "type": "tuple"
                },
                {
                  "components": [
                    {
                      "internalType": "uint256",
                      "name": "level",
                      "type": "uint256"
                    },
                    {
                      "internalType": "uint256",
                      "name": "ratio",
                      "type": "uint256"
                    }
                  ],
                  "internalType": "struct SmartPoolManager.levelParams",
                  "name": "fourLevel",
                  "type": "tuple"
                }
              ],
              "internalType": "struct SmartPoolManager.feeParams",
              "name": "managerFee",
              "type": "tuple"
            },
            {
              "components": [
                {
                  "components": [
                    {
                      "internalType": "uint256",
                      "name": "level",
                      "type": "uint256"
                    },
                    {
                      "internalType": "uint256",
                      "name": "ratio",
                      "type": "uint256"
                    }
                  ],
                  "internalType": "struct SmartPoolManager.levelParams",
                  "name": "firstLevel",
                  "type": "tuple"
                },
                {
                  "components": [
                    {
                      "internalType": "uint256",
                      "name": "level",
                      "type": "uint256"
                    },
                    {
                      "internalType": "uint256",
                      "name": "ratio",
                      "type": "uint256"
                    }
                  ],
                  "internalType": "struct SmartPoolManager.levelParams",
                  "name": "secondLevel",
                  "type": "tuple"
                },
                {
                  "components": [
                    {
                      "internalType": "uint256",
                      "name": "level",
                      "type": "uint256"
                    },
                    {
                      "internalType": "uint256",
                      "name": "ratio",
                      "type": "uint256"
                    }
                  ],
                  "internalType": "struct SmartPoolManager.levelParams",
                  "name": "thirdLevel",
                  "type": "tuple"
                },
                {
                  "components": [
                    {
                      "internalType": "uint256",
                      "name": "level",
                      "type": "uint256"
                    },
                    {
                      "internalType": "uint256",
                      "name": "ratio",
                      "type": "uint256"
                    }
                  ],
                  "internalType": "struct SmartPoolManager.levelParams",
                  "name": "fourLevel",
                  "type": "tuple"
                }
              ],
              "internalType": "struct SmartPoolManager.feeParams",
              "name": "issueFee",
              "type": "tuple"
            },
            {
              "components": [
                {
                  "components": [
                    {
                      "internalType": "uint256",
                      "name": "level",
                      "type": "uint256"
                    },
                    {
                      "internalType": "uint256",
                      "name": "ratio",
                      "type": "uint256"
                    }
                  ],
                  "internalType": "struct SmartPoolManager.levelParams",
                  "name": "firstLevel",
                  "type": "tuple"
                },
                {
                  "components": [
                    {
                      "internalType": "uint256",
                      "name": "level",
                      "type": "uint256"
                    },
                    {
                      "internalType": "uint256",
                      "name": "ratio",
                      "type": "uint256"
                    }
                  ],
                  "internalType": "struct SmartPoolManager.levelParams",
                  "name": "secondLevel",
                  "type": "tuple"
                },
                {
                  "components": [
                    {
                      "internalType": "uint256",
                      "name": "level",
                      "type": "uint256"
                    },
                    {
                      "internalType": "uint256",
                      "name": "ratio",
                      "type": "uint256"
                    }
                  ],
                  "internalType": "struct SmartPoolManager.levelParams",
                  "name": "thirdLevel",
                  "type": "tuple"
                },
                {
                  "components": [
                    {
                      "internalType": "uint256",
                      "name": "level",
                      "type": "uint256"
                    },
                    {
                      "internalType": "uint256",
                      "name": "ratio",
                      "type": "uint256"
                    }
                  ],
                  "internalType": "struct SmartPoolManager.levelParams",
                  "name": "fourLevel",
                  "type": "tuple"
                }
              ],
              "internalType": "struct SmartPoolManager.feeParams",
              "name": "redeemFee",
              "type": "tuple"
            },
            {
              "components": [
                {
                  "components": [
                    {
                      "internalType": "uint256",
                      "name": "level",
                      "type": "uint256"
                    },
                    {
                      "internalType": "uint256",
                      "name": "ratio",
                      "type": "uint256"
                    }
                  ],
                  "internalType": "struct SmartPoolManager.levelParams",
                  "name": "firstLevel",
                  "type": "tuple"
                },
                {
                  "components": [
                    {
                      "internalType": "uint256",
                      "name": "level",
                      "type": "uint256"
                    },
                    {
                      "internalType": "uint256",
                      "name": "ratio",
                      "type": "uint256"
                    }
                  ],
                  "internalType": "struct SmartPoolManager.levelParams",
                  "name": "secondLevel",
                  "type": "tuple"
                },
                {
                  "components": [
                    {
                      "internalType": "uint256",
                      "name": "level",
                      "type": "uint256"
                    },
                    {
                      "internalType": "uint256",
                      "name": "ratio",
                      "type": "uint256"
                    }
                  ],
                  "internalType": "struct SmartPoolManager.levelParams",
                  "name": "thirdLevel",
                  "type": "tuple"
                },
                {
                  "components": [
                    {
                      "internalType": "uint256",
                      "name": "level",
                      "type": "uint256"
                    },
                    {
                      "internalType": "uint256",
                      "name": "ratio",
                      "type": "uint256"
                    }
                  ],
                  "internalType": "struct SmartPoolManager.levelParams",
                  "name": "fourLevel",
                  "type": "tuple"
                }
              ],
              "internalType": "struct SmartPoolManager.feeParams",
              "name": "perfermanceFee",
              "type": "tuple"
            }
          ],
          "internalType": "struct SmartPoolManager.KolPoolParams",
          "name": "kolPoolParams",
          "type": "tuple"
        },
        {
          "internalType": "address[]",
          "name": "owners",
          "type": "address[]"
        },
        {
          "internalType": "uint256[]",
          "name": "ownerPercentage",
          "type": "uint256[]"
        },
        {
          "components": [
            {
              "internalType": "uint256",
              "name": "bspFloor",
              "type": "uint256"
            },
            {
              "internalType": "uint256",
              "name": "bspCap",
              "type": "uint256"
            }
          ],
          "internalType": "struct IConfigurableRightsPool.PoolTokenRange",
          "name": "tokenRange",
          "type": "tuple"
        }
      ],
      "name": "createSmartPool",
      "outputs": [
        {
          "internalType": "contract IConfigurableRightsPool",
          "name": "crp",
          "type": "address"
        }
      ],
      "stateMutability": "nonpayable",
      "type": "function"
    },
    {
      "inputs": [
        {
          "internalType": "contract LiquidityPoolActions",
          "name": "pool",
          "type": "address"
        }
      ],
      "name": "finalize",
      "outputs": [],
      "stateMutability": "nonpayable",
      "type": "function"
    },
    {
      "inputs": [
        {
          "internalType": "contract LiquidityPoolActions",
          "name": "pool",
          "type": "address"
        },
        {
          "internalType": "uint256",
          "name": "poolAmountOut",
          "type": "uint256"
        },
        {
          "internalType": "uint256[]",
          "name": "maxAmountsIn",
          "type": "uint256[]"
        }
      ],
      "name": "joinPool",
      "outputs": [],
      "stateMutability": "nonpayable",
      "type": "function"
    },
    {
      "inputs": [
        {
          "internalType": "contract IConfigurableRightsPool",
          "name": "pool",
          "type": "address"
        },
        {
          "internalType": "uint256",
          "name": "poolAmountOut",
          "type": "uint256"
        },
        {
          "internalType": "uint256[]",
          "name": "maxAmountsIn",
          "type": "uint256[]"
        },
        {
          "internalType": "address",
          "name": "kol",
          "type": "address"
        }
      ],
      "name": "joinSmartPool",
      "outputs": [],
      "stateMutability": "nonpayable",
      "type": "function"
    },
    {
      "inputs": [
        {
          "internalType": "contract IConfigurableRightsPool",
          "name": "crp",
          "type": "address"
        },
        {
          "internalType": "address",
          "name": "tokenA",
          "type": "address"
        },
        {
          "internalType": "address",
          "name": "tokenB",
          "type": "address"
        },
        {
          "internalType": "uint256",
          "name": "deltaWeight",
          "type": "uint256"
        },
        {
          "internalType": "uint256",
          "name": "minAmountOut",
          "type": "uint256"
        }
      ],
      "name": "rebalance",
      "outputs": [],
      "stateMutability": "nonpayable",
      "type": "function"
    },
    {
      "inputs": [
        {
          "internalType": "contract IConfigurableRightsPool",
          "name": "crp",
          "type": "address"
        },
        {
          "internalType": "address",
          "name": "provider",
          "type": "address"
        }
      ],
      "name": "removeWhitelistedLiquidityProvider",
      "outputs": [],
      "stateMutability": "nonpayable",
      "type": "function"
    },
    {
      "inputs": [
        {
          "internalType": "contract IConfigurableRightsPool",
          "name": "crp",
          "type": "address"
        },
        {
          "internalType": "uint256",
          "name": "newCap",
          "type": "uint256"
        }
      ],
      "name": "setCap",
      "outputs": [],
      "stateMutability": "nonpayable",
      "type": "function"
    },
    {
      "inputs": [
        {
          "internalType": "contract AbstractPool",
          "name": "pool",
          "type": "address"
        },
        {
          "internalType": "address",
          "name": "newController",
          "type": "address"
        }
      ],
      "name": "setController",
      "outputs": [],
      "stateMutability": "nonpayable",
      "type": "function"
    },
    {
      "inputs": [
        {
          "internalType": "contract AbstractPool",
          "name": "pool",
          "type": "address"
        },
        {
          "internalType": "bool",
          "name": "publicSwap",
          "type": "bool"
        }
      ],
      "name": "setPublicSwap",
      "outputs": [],
      "stateMutability": "nonpayable",
      "type": "function"
    },
    {
      "inputs": [
        {
          "internalType": "contract AbstractPool",
          "name": "pool",
          "type": "address"
        },
        {
          "internalType": "uint256",
          "name": "newFee",
          "type": "uint256"
        }
      ],
      "name": "setSwapFee",
      "outputs": [],
      "stateMutability": "nonpayable",
      "type": "function"
    },
    {
      "inputs": [
        {
          "internalType": "contract LiquidityPoolActions",
          "name": "pool",
          "type": "address"
        },
        {
          "internalType": "address[]",
          "name": "tokens",
          "type": "address[]"
        },
        {
          "internalType": "uint256[]",
          "name": "balances",
          "type": "uint256[]"
        },
        {
          "internalType": "uint256[]",
          "name": "denorms",
          "type": "uint256[]"
        }
      ],
      "name": "setTokens",
      "outputs": [],
      "stateMutability": "nonpayable",
      "type": "function"
    },
    {
      "inputs": [
        {
          "internalType": "contract IConfigurableRightsPool",
          "name": "crp",
          "type": "address"
        },
        {
          "internalType": "address",
          "name": "provider",
          "type": "address"
        }
      ],
      "name": "whitelistLiquidityProvider",
      "outputs": [],
      "stateMutability": "nonpayable",
      "type": "function"
    }
  ],
  "transactionHash": "0x2e1ee581406045e2fd402f26304ec5460bdfb90e405801e27a781ed93112d3d9",
  "args": [],
  "numDeployments": 1,
  "solcInputHash": "c4935c7bbb687e1b5444e68bf79f180c",
  "bytecode": "0x608060405234801561001057600080fd5b50612a5f806100206000396000f3fe608060405234801561001057600080fd5b50600436106100af5760003560e01c8063135b968d146100b45780631a78a275146100c95780631eccc185146100f2578063333fbeef146101055780634ef39b75146101185780637b7d6c681461012b57806380ad2cf31461013e5780638a5c57df14610151578063991991c714610164578063a7f28da714610177578063affdd4ee1461018a578063d94594071461019d578063e0d945bf146101b0575b600080fd5b6100c76100c2366004612204565b6101c3565b005b6100dc6100d7366004611fc7565b6102f5565b6040516100e991906125d7565b60405180910390f35b6100c7610100366004611f6f565b61079f565b6100c7610113366004612198565b6107f9565b6100c7610126366004611e60565b610825565b6100c7610139366004611f37565b61098c565b6100c761014c366004611f9c565b6109b8565b6100c761015f36600461231d565b6109e4565b6100c7610172366004611f9c565b610aa5565b6100c7610185366004612198565b610ad1565b6100c76101983660046121aa565b610afd565b6100dc6101ab36600461208b565b610b68565b6100c76101be366004612275565b610ea9565b6060856001600160a01b031663b64ef17b6040518163ffffffff1660e01b815260040160206040518083038186803b1580156101fe57600080fd5b505afa158015610212573d6000803e3d6000fd5b505050506040513d601f19601f82011682018060405250810190610236919061217c565b6001600160a01b031663cc77828d6040518163ffffffff1660e01b815260040160006040518083038186803b15801561026e57600080fd5b505afa158015610282573d6000803e3d6000fd5b505050506040513d6000823e601f3d908101601f191682016040526102aa9190810190611e83565b90506102ed8682878787808060200260200160405190810160405280939291908181526020018383602002808284376000920191909152508992506116d1915050565b505050505050565b600087861461031f5760405162461bcd60e51b815260040161031690612814565b60405180910390fd5b87841461033e5760405162461bcd60e51b815260040161031690612814565b896001600160a01b03166391cefde46040518163ffffffff1660e01b8152600401602060405180830381600087803b15801561037957600080fd5b505af115801561038d573d6000803e3d6000fd5b505050506040513d601f19601f820116820180604052508101906103b1919061217c565b6040516334e1990760e01b81529091506001600160a01b038216906334e19907906103e090869060040161286e565b600060405180830381600087803b1580156103fa57600080fd5b505af115801561040e573d6000803e3d6000fd5b5050505060005b888110156105c25760008a8a8381811061042b57fe5b90506020020160208101906104409190611e60565b9050806001600160a01b03166323b872dd33308c8c8781811061045f57fe5b905060200201356040518463ffffffff1660e01b8152600401610484939291906125eb565b602060405180830381600087803b15801561049e57600080fd5b505af11580156104b2573d6000803e3d6000fd5b505050506040513d601f19601f820116820180604052508101906104d69190611f1b565b6104f25760405162461bcd60e51b815260040161031690612841565b61050f81848b8b8681811061050357fe5b90506020020135611b25565b826001600160a01b031663e4e1e5388c8c8581811061052a57fe5b905060200201602081019061053f9190611e60565b8b8b8681811061054b57fe5b905060200201358a8a8781811061055e57fe5b905060200201356040518463ffffffff1660e01b8152600401610583939291906127e8565b600060405180830381600087803b15801561059d57600080fd5b505af11580156105b1573d6000803e3d6000fd5b505060019093019250610415915050565b50811561073257806001600160a01b0316634bb278f36040518163ffffffff1660e01b8152600401600060405180830381600087803b15801561060457600080fd5b505af1158015610618573d6000803e3d6000fd5b50506040516370a0823160e01b81526001600160a01b038416925063a9059cbb9150339083906370a08231906106529030906004016125d7565b60206040518083038186803b15801561066a57600080fd5b505afa15801561067e573d6000803e3d6000fd5b505050506040513d601f19601f820116820180604052508101906106a29190612395565b6040518363ffffffff1660e01b81526004016106bf92919061260f565b602060405180830381600087803b1580156106d957600080fd5b505af11580156106ed573d6000803e3d6000fd5b505050506040513d601f19601f820116820180604052508101906107119190611f1b565b61072d5760405162461bcd60e51b815260040161031690612841565b610792565b6040516324dacaa960e11b81526001600160a01b038216906349b595529061075f90600190600401612809565b600060405180830381600087803b15801561077957600080fd5b505af115801561078d573d6000803e3d6000fd5b505050505b9998505050505050505050565b6040516324dacaa960e11b81526001600160a01b038316906349b59552906107cb908490600401612809565b600060405180830381600087803b1580156107e557600080fd5b505af11580156102ed573d6000803e3d6000fd5b60405163c83a1c2d60e01b81526001600160a01b0383169063c83a1c2d906107cb9084906004016125d7565b806001600160a01b0316634bb278f36040518163ffffffff1660e01b8152600401600060405180830381600087803b15801561086057600080fd5b505af1158015610874573d6000803e3d6000fd5b50506040516370a0823160e01b81526001600160a01b038416925063a9059cbb9150339083906370a08231906108ae9030906004016125d7565b60206040518083038186803b1580156108c657600080fd5b505afa1580156108da573d6000803e3d6000fd5b505050506040513d601f19601f820116820180604052508101906108fe9190612395565b6040518363ffffffff1660e01b815260040161091b92919061260f565b602060405180830381600087803b15801561093557600080fd5b505af1158015610949573d6000803e3d6000fd5b505050506040513d601f19601f8201168201806040525081019061096d9190611f1b565b6109895760405162461bcd60e51b815260040161031690612841565b50565b6040516392eefe9b60e01b81526001600160a01b038316906392eefe9b906107cb9084906004016125d7565b6040516347786d3760e01b81526001600160a01b038316906347786d37906107cb90849060040161286e565b6060846001600160a01b031663be3bbd2e6040518163ffffffff1660e01b815260040160006040518083038186803b158015610a1f57600080fd5b505afa158015610a33573d6000803e3d6000fd5b505050506040513d6000823e601f3d908101601f19168201604052610a5b9190810190611e83565b9050610a9e8582868686808060200260200160405190810160405280939291908181526020018383602002808284376000920191909152503392506116d1915050565b5050505050565b6040516334e1990760e01b81526001600160a01b038316906334e19907906107cb90849060040161286e565b60405163e2762d4b60e01b81526001600160a01b0383169063e2762d4b906107cb9084906004016125d7565b604051631b9276c760e21b81526001600160a01b03861690636e49db1c90610b2f908790879087908790600401612642565b600060405180830381600087803b158015610b4957600080fd5b505af1158015610b5d573d6000803e3d6000fd5b505050505050505050565b6000610b7760608901896128e0565b9050610b8660408a018a6128e0565b905014610ba55760405162461bcd60e51b815260040161031690612814565b610bb260808901896128e0565b9050610bc160408a018a6128e0565b905014610be05760405162461bcd60e51b815260040161031690612814565b60405163074aa1b960e51b81526001600160a01b038b169063e954372090610c16908c908c908b908b908b908b9060040161266b565b602060405180830381600087803b158015610c3057600080fd5b505af1158015610c44573d6000803e3d6000fd5b505050506040513d601f19601f82011682018060405250810190610c68919061217c565b905060005b610c7a60408a018a6128e0565b9050811015610d93576000610c9260408b018b6128e0565b83818110610c9c57fe5b9050602002016020810190610cb19190611e60565b90506001600160a01b0381166323b872dd3330610cd160608f018f6128e0565b87818110610cdb57fe5b905060200201356040518463ffffffff1660e01b8152600401610d00939291906125eb565b602060405180830381600087803b158015610d1a57600080fd5b505af1158015610d2e573d6000803e3d6000fd5b505050506040513d601f19601f82011682018060405250810190610d529190611f1b565b610d6e5760405162461bcd60e51b815260040161031690612841565b610d8a8184610d8060608e018e6128e0565b8681811061050357fe5b50600101610c6d565b506001600160a01b038116630892b93d883560208a0135610dba60608c0160408d01612376565b866040518563ffffffff1660e01b8152600401610dda94939291906128a8565b600060405180830381600087803b158015610df457600080fd5b505af1158015610e08573d6000803e3d6000fd5b505060405163a9059cbb60e01b81526001600160a01b038416925063a9059cbb9150610e3b9033908b359060040161260f565b602060405180830381600087803b158015610e5557600080fd5b505af1158015610e69573d6000803e3d6000fd5b505050506040513d601f19601f82011682018060405250810190610e8d9190611f1b565b6107925760405162461bcd60e51b815260040161031690612841565b848314610ec85760405162461bcd60e51b815260040161031690612814565b848114610ee75760405162461bcd60e51b815260040161031690612814565b60005b858110156116c7576000878783818110610f0057fe5b9050602002016020810190610f159190611e60565b9050886001600160a01b0316632f37b624898985818110610f3257fe5b9050602002016020810190610f479190611e60565b6040518263ffffffff1660e01b8152600401610f6391906125d7565b60206040518083038186803b158015610f7b57600080fd5b505afa158015610f8f573d6000803e3d6000fd5b505050506040513d601f19601f82011682018060405250810190610fb39190611f1b565b156113c057886001600160a01b031663f8b2cb4f898985818110610fd357fe5b9050602002016020810190610fe89190611e60565b6040518263ffffffff1660e01b815260040161100491906125d7565b60206040518083038186803b15801561101c57600080fd5b505afa158015611030573d6000803e3d6000fd5b505050506040513d601f19601f820116820180604052508101906110549190612395565b86868481811061106057fe5b90506020020135111561127457806001600160a01b03166323b872dd33308c6001600160a01b031663f8b2cb4f8d8d8981811061109957fe5b90506020020160208101906110ae9190611e60565b6040518263ffffffff1660e01b81526004016110ca91906125d7565b60206040518083038186803b1580156110e257600080fd5b505afa1580156110f6573d6000803e3d6000fd5b505050506040513d601f19601f8201168201806040525081019061111a9190612395565b8a8a8881811061112657fe5b90506020020135036040518463ffffffff1660e01b815260040161114c939291906125eb565b602060405180830381600087803b15801561116657600080fd5b505af115801561117a573d6000803e3d6000fd5b505050506040513d601f19601f8201168201806040525081019061119e9190611f1b565b6111ba5760405162461bcd60e51b815260040161031690612841565b611274818a8b6001600160a01b031663f8b2cb4f8c8c888181106111da57fe5b90506020020160208101906111ef9190611e60565b6040518263ffffffff1660e01b815260040161120b91906125d7565b60206040518083038186803b15801561122357600080fd5b505afa158015611237573d6000803e3d6000fd5b505050506040513d601f19601f8201168201806040525081019061125b9190612395565b89898781811061126757fe5b9050602002013503611b25565b620f424086868481811061128457fe5b90506020020135111561133c57886001600160a01b0316633fdddaa28989858181106112ac57fe5b90506020020160208101906112c19190611e60565b8888868181106112cd57fe5b905060200201358787878181106112e057fe5b905060200201356040518463ffffffff1660e01b8152600401611305939291906127e8565b600060405180830381600087803b15801561131f57600080fd5b505af1158015611333573d6000803e3d6000fd5b505050506113bb565b886001600160a01b031663cf5e7bd389898581811061135757fe5b905060200201602081019061136c9190611e60565b6040518263ffffffff1660e01b815260040161138891906125d7565b600060405180830381600087803b1580156113a257600080fd5b505af11580156113b6573d6000803e3d6000fd5b505050505b611528565b806001600160a01b03166323b872dd33308989878181106113dd57fe5b905060200201356040518463ffffffff1660e01b8152600401611402939291906125eb565b602060405180830381600087803b15801561141c57600080fd5b505af1158015611430573d6000803e3d6000fd5b505050506040513d601f19601f820116820180604052508101906114549190611f1b565b6114705760405162461bcd60e51b815260040161031690612841565b611481818a88888681811061050357fe5b886001600160a01b031663e4e1e53889898581811061149c57fe5b90506020020160208101906114b19190611e60565b8888868181106114bd57fe5b905060200201358787878181106114d057fe5b905060200201356040518463ffffffff1660e01b81526004016114f5939291906127e8565b600060405180830381600087803b15801561150f57600080fd5b505af1158015611523573d6000803e3d6000fd5b505050505b6040516370a0823160e01b81526000906001600160a01b038316906370a08231906115579030906004016125d7565b60206040518083038186803b15801561156f57600080fd5b505afa158015611583573d6000803e3d6000fd5b505050506040513d601f19601f820116820180604052508101906115a79190612395565b11156116be576040516370a0823160e01b81526001600160a01b0382169063a9059cbb90339083906370a08231906115e39030906004016125d7565b60206040518083038186803b1580156115fb57600080fd5b505afa15801561160f573d6000803e3d6000fd5b505050506040513d601f19601f820116820180604052508101906116339190612395565b6040518363ffffffff1660e01b815260040161165092919061260f565b602060405180830381600087803b15801561166a57600080fd5b505af115801561167e573d6000803e3d6000fd5b505050506040513d601f19601f820116820180604052508101906116a29190611f1b565b6116be5760405162461bcd60e51b815260040161031690612841565b50600101610eea565b5050505050505050565b83518251146116f25760405162461bcd60e51b815260040161031690612814565b60005b84518110156117ee57600085828151811061170c57fe5b60200260200101519050806001600160a01b03166323b872dd333087868151811061173357fe5b60200260200101516040518463ffffffff1660e01b8152600401611759939291906125eb565b602060405180830381600087803b15801561177357600080fd5b505af1158015611787573d6000803e3d6000fd5b505050506040513d601f19601f820116820180604052508101906117ab9190611f1b565b6117c75760405162461bcd60e51b815260040161031690612841565b6117e581888685815181106117d857fe5b6020026020010151611b25565b506001016116f5565b5060405163077df9bd60e31b81526001600160a01b03861690633befcde89061181f90869086908690600401612877565b600060405180830381600087803b15801561183957600080fd5b505af115801561184d573d6000803e3d6000fd5b5050505060005b8451811015611a1357600085828151811061186b57fe5b602002602001015190506000816001600160a01b03166370a08231306040518263ffffffff1660e01b81526004016118a391906125d7565b60206040518083038186803b1580156118bb57600080fd5b505afa1580156118cf573d6000803e3d6000fd5b505050506040513d601f19601f820116820180604052508101906118f39190612395565b1115611a0a576040516370a0823160e01b81526001600160a01b0382169063a9059cbb90339083906370a082319061192f9030906004016125d7565b60206040518083038186803b15801561194757600080fd5b505afa15801561195b573d6000803e3d6000fd5b505050506040513d601f19601f8201168201806040525081019061197f9190612395565b6040518363ffffffff1660e01b815260040161199c92919061260f565b602060405180830381600087803b1580156119b657600080fd5b505af11580156119ca573d6000803e3d6000fd5b505050506040513d601f19601f820116820180604052508101906119ee9190611f1b565b611a0a5760405162461bcd60e51b815260040161031690612841565b50600101611854565b506040516370a0823160e01b81526001600160a01b0386169063a9059cbb90339083906370a0823190611a4a9030906004016125d7565b60206040518083038186803b158015611a6257600080fd5b505afa158015611a76573d6000803e3d6000fd5b505050506040513d601f19601f82011682018060405250810190611a9a9190612395565b6040518363ffffffff1660e01b8152600401611ab792919061260f565b602060405180830381600087803b158015611ad157600080fd5b505af1158015611ae5573d6000803e3d6000fd5b505050506040513d601f19601f82011682018060405250810190611b099190611f1b565b610a9e5760405162461bcd60e51b815260040161031690612841565b604051636eb1769f60e11b81526000906001600160a01b0385169063dd62ed3e90611b569030908790600401612628565b60206040518083038186803b158015611b6e57600080fd5b505afa158015611b82573d6000803e3d6000fd5b505050506040513d601f19601f82011682018060405250810190611ba69190612395565b1115611c2f5760405163095ea7b360e01b81526001600160a01b0384169063095ea7b390611bdb90859060009060040161260f565b602060405180830381600087803b158015611bf557600080fd5b505af1158015611c09573d6000803e3d6000fd5b505050506040513d601f19601f82011682018060405250810190611c2d9190611f1b565b505b60405163095ea7b360e01b81526001600160a01b0384169063095ea7b390611c5d908590859060040161260f565b602060405180830381600087803b158015611c7757600080fd5b505af1158015611c8b573d6000803e3d6000fd5b505050506040513d601f19601f82011682018060405250810190611caf9190611f1b565b50505050565b60008083601f840112611cc6578182fd5b5081356001600160401b03811115611cdc578182fd5b6020830191508360208083028501011115611cf657600080fd5b9250929050565b600082601f830112611d0d578081fd5b8135611d20611d1b8261294c565b612926565b818152915060208083019084810181840286018201871015611d4157600080fd5b60005b84811015611d69578135611d5781612a06565b84529282019290820190600101611d44565b505050505092915050565b600082601f830112611d84578081fd5b8135611d92611d1b8261294c565b818152915060208083019084810181840286018201871015611db357600080fd5b60005b84811015611d6957813584529282019290820190600101611db6565b8035611ddd81612a06565b92915050565b600060608284031215611df4578081fd5b50919050565b60006104008284031215611df4578081fd5b60006101608284031215611df4578081fd5b600060408284031215611e2f578081fd5b611e396040612926565b9050813581526020820135602082015292915050565b600060c08284031215611df4578081fd5b600060208284031215611e71578081fd5b8135611e7c81612a06565b9392505050565b60006020808385031215611e95578182fd5b82516001600160401b03811115611eaa578283fd5b8301601f81018513611eba578283fd5b8051611ec8611d1b8261294c565b8181528381019083850185840285018601891015611ee4578687fd5b8694505b83851015611f0f578051611efb81612a06565b835260019490940193918501918501611ee8565b50979650505050505050565b600060208284031215611f2c578081fd5b8151611e7c81612a1b565b60008060408385031215611f49578081fd5b8235611f5481612a06565b91506020830135611f6481612a06565b809150509250929050565b60008060408385031215611f81578182fd5b8235611f8c81612a06565b91506020830135611f6481612a1b565b60008060408385031215611fae578182fd5b8235611fb981612a06565b946020939093013593505050565b600080600080600080600080600060c08a8c031215611fe4578485fd5b8935611fef81612a06565b985060208a01356001600160401b038082111561200a578687fd5b6120168d838e01611cb5565b909a50985060408c013591508082111561202e578687fd5b61203a8d838e01611cb5565b909850965060608c0135915080821115612052578586fd5b5061205f8c828d01611cb5565b90955093505060808a0135915060a08a013561207a81612a1b565b809150509295985092959850929598565b60008060008060008060008060006106008a8c0312156120a9578283fd5b6120b38b8b611dd2565b98506120c28b60208c01611dd2565b975060408a01356001600160401b03808211156120dd578485fd5b6120e98d838e01611e0c565b98506120f88d60608e01611de3565b97506121078d60c08e01611e4f565b96506121178d6101808e01611dfa565b95506105808c013591508082111561212d578485fd5b6121398d838e01611cfd565b94506105a08c013591508082111561214f578384fd5b5061215c8c828d01611d74565b92505061216d8b6105c08c01611e1e565b90509295985092959850929598565b60006020828403121561218d578081fd5b8151611e7c81612a06565b60008060408385031215611f49578182fd5b600080600080600060a086880312156121c1578283fd5b85356121cc81612a06565b945060208601356121dc81612a06565b935060408601356121ec81612a06565b94979396509394606081013594506080013592915050565b60008060008060006080868803121561221b578283fd5b853561222681612a06565b94506020860135935060408601356001600160401b03811115612247578384fd5b61225388828901611cb5565b909450925050606086013561226781612a06565b809150509295509295909350565b60008060008060008060006080888a03121561228f578081fd5b873561229a81612a06565b965060208801356001600160401b03808211156122b5578283fd5b6122c18b838c01611cb5565b909850965060408a01359150808211156122d9578283fd5b6122e58b838c01611cb5565b909650945060608a01359150808211156122fd578283fd5b5061230a8a828b01611cb5565b989b979a50959850939692959293505050565b60008060008060608587031215612332578182fd5b843561233d81612a06565b93506020850135925060408501356001600160401b0381111561235e578283fd5b61236a87828801611cb5565b95989497509550505050565b600060208284031215612387578081fd5b813560038110611e7c578182fd5b6000602082840312156123a6578081fd5b5051919050565b60008284526020808501945082825b858110156123ea5781356123cf81612a06565b6001600160a01b0316875295820195908201906001016123bc565b509495945050505050565b6000815180845260208085019450808401835b838110156123ea5781516001600160a01b031687529582019590820190600101612408565b81835260006001600160fb1b03831115612445578081fd5b6020830280836020870137939093016020019283525090919050565b6000815180845260208085019450808401835b838110156123ea57815187529582019590820190600101612474565b6002811061249a57fe5b9052565b60008284528282602086013780602084860101526020601f19601f85011685010190509392505050565b6124d2828261258a565b6101006124e381840182840161258a565b506102006124f581840182840161258a565b5061030061250781840182840161258a565b505050565b803561251781612a1b565b15158252602081013561252981612a1b565b15156020830152604081013561253e81612a1b565b15156040830152606081013561255381612a1b565b15156060830152608081013561256881612a1b565b1515608083015260a081013561257d81612a1b565b80151560a0840152505050565b61259482826125c8565b6125a460408301604083016125c8565b6125b460808301608083016125c8565b6125c460c0830160c083016125c8565b5050565b80358252602090810135910152565b6001600160a01b0391909116815260200190565b6001600160a01b039384168152919092166020820152604081019190915260600190565b6001600160a01b03929092168252602082015260400190565b6001600160a01b0392831681529116602082015260400190565b6001600160a01b0394851681529290931660208301526040820152606081019190915260800190565b6001600160a01b03871681526105406020820181905260009061268e88806129c2565b610160838601526126a46106a08601828461249e565b925050506126b560208901896129c2565b61053f1980868503016105608701526126cf84838561249e565b93506126de60408c018c61296b565b9350915080868503016105808701526126f88484846123ad565b935061270760608c018c61296b565b9350915080868503016105a087015261272184848461242d565b935061273060808c018c61296b565b9350915080868503016105c08701525061274b83838361242d565b9250505060a08801356105e084015260c088013561060084015260e0880135610620840152610100808901356106408501526101208901356106608501526127976101408a018a6129b2565b6127a5610680860182612490565b506127b3604085018961250c565b6127bf818501886124c8565b508281036105008401526127d381866123f5565b90508281036105208401526107928185612461565b6001600160a01b039390931683526020830191909152604082015260600190565b901515815260200190565b60208082526013908201527208aa4a4be988a9c8ea890be9a92a69a82a8869606b1b604082015260600190565b60208082526013908201527211549497d514905394d1915497d19052531151606a1b604082015260600190565b90815260200190565b6000848252606060208301526128906060830185612461565b905060018060a01b0383166040830152949350505050565b8481526020810184905260a08101600384106128c057fe5b836040830152825160608301526020830151608083015295945050505050565b6000808335601e198436030181126128f6578283fd5b8301803591506001600160401b0382111561290f578283fd5b6020908101925081023603821315611cf657600080fd5b6040518181016001600160401b038111828210171561294457600080fd5b604052919050565b60006001600160401b03821115612961578081fd5b5060209081020190565b6000808335601e19843603018112612981578283fd5b83016020810192503590506001600160401b038111156129a057600080fd5b602081023603831315611cf657600080fd5b6000823560028110611e7c578182fd5b6000808335601e198436030181126129d8578283fd5b83016020810192503590506001600160401b038111156129f757600080fd5b803603831315611cf657600080fd5b6001600160a01b038116811461098957600080fd5b801515811461098957600080fdfea264697066735822122080a84d21f712b11ea777cf29ebf218711731e3423fb5f06efa1e66f4817bbf7164736f6c634300060c0033",
  "devdoc": {
    "kind": "dev",
    "methods": {},
    "version": 1
  },
  "userdoc": {
    "kind": "user",
    "methods": {},
    "version": 1
  },
  "storageLayout": {
    "storage": [],
    "types": null
  }
}