{
  "address": "0x2C9deF8f1EAB18B284f173099CD33E396Ca8e7Cd",
  "abi": [
    {
      "inputs": [
        {
          "internalType": "contract IConfigurableRightsPool",
          "name": "crp",
          "type": "address"
        },
        {
          "internalType": "uint256[]",
          "name": "sort",
          "type": "uint256[]"
        },
        {
          "internalType": "address[]",
          "name": "token",
          "type": "address[]"
        }
      ],
      "name": "addTokenToWhitelist",
      "outputs": [],
      "stateMutability": "nonpayable",
      "type": "function"
    },
    {
      "inputs": [
        {
          "internalType": "address",
          "name": "pool",
          "type": "address"
        }
      ],
      "name": "claimKolReward",
      "outputs": [],
      "stateMutability": "nonpayable",
      "type": "function"
    },
    {
      "inputs": [
        {
          "internalType": "contract IConfigurableRightsPool",
          "name": "crp",
          "type": "address"
        }
      ],
      "name": "claimManagementFee",
      "outputs": [],
      "stateMutability": "nonpayable",
      "type": "function"
    },
    {
      "inputs": [
        {
          "internalType": "address",
          "name": "vault_",
          "type": "address"
        },
        {
          "internalType": "address",
          "name": "pool",
          "type": "address"
        }
      ],
      "name": "claimManagersReward",
      "outputs": [],
      "stateMutability": "nonpayable",
      "type": "function"
    },
    {
      "inputs": [
        {
          "internalType": "contract FactoryActions",
          "name": "factory",
          "type": "address"
        },
        {
          "internalType": "address[]",
          "name": "tokens",
          "type": "address[]"
        },
        {
          "internalType": "uint256[]",
          "name": "balances",
          "type": "uint256[]"
        },
        {
          "internalType": "uint256[]",
          "name": "weights",
          "type": "uint256[]"
        },
        {
          "internalType": "uint256",
          "name": "swapFee",
          "type": "uint256"
        },
        {
          "internalType": "bool",
          "name": "finalize",
          "type": "bool"
        }
      ],
      "name": "create",
      "outputs": [
        {
          "internalType": "contract LiquidityPoolActions",
          "name": "pool",
          "type": "address"
        }
      ],
      "stateMutability": "nonpayable",
      "type": "function"
    },
    {
      "inputs": [
        {
          "internalType": "contract ICRPFactory",
          "name": "factory",
          "type": "address"
        },
        {
          "internalType": "contract FactoryActions",
          "name": "coreFactory",
          "type": "address"
        },
        {
          "components": [
            {
              "internalType": "string",
              "name": "poolTokenSymbol",
              "type": "string"
            },
            {
              "internalType": "string",
              "name": "poolTokenName",
              "type": "string"
            },
            {
              "internalType": "address[]",
              "name": "constituentTokens",
              "type": "address[]"
            },
            {
              "internalType": "uint256[]",
              "name": "tokenBalances",
              "type": "uint256[]"
            },
            {
              "internalType": "uint256[]",
              "name": "tokenWeights",
              "type": "uint256[]"
            },
            {
              "internalType": "uint256",
              "name": "swapFee",
              "type": "uint256"
            },
            {
              "internalType": "uint256",
              "name": "managerFee",
              "type": "uint256"
            },
            {
              "internalType": "uint256",
              "name": "redeemFee",
              "type": "uint256"
            },
            {
              "internalType": "uint256",
              "name": "issueFee",
              "type": "uint256"
            },
            {
              "internalType": "uint256",
              "name": "perfermanceFee",
              "type": "uint256"
            },
            {
              "internalType": "enum IConfigurableRightsPool.Etypes",
              "name": "etype",
              "type": "uint8"
            }
          ],
          "internalType": "struct IConfigurableRightsPool.PoolParams",
          "name": "poolParams",
          "type": "tuple"
        },
        {
          "components": [
            {
              "internalType": "uint256",
              "name": "initialSupply",
              "type": "uint256"
            },
            {
              "internalType": "uint256",
              "name": "collectPeriod",
              "type": "uint256"
            },
            {
              "internalType": "enum IConfigurableRightsPool.Period",
              "name": "period",
              "type": "uint8"
            }
          ],
          "internalType": "struct IConfigurableRightsPool.CrpParams",
          "name": "crpParams",
          "type": "tuple"
        },
        {
          "components": [
            {
              "internalType": "bool",
              "name": "canPauseSwapping",
              "type": "bool"
            },
            {
              "internalType": "bool",
              "name": "canChangeSwapFee",
              "type": "bool"
            },
            {
              "internalType": "bool",
              "name": "canChangeWeights",
              "type": "bool"
            },
            {
              "internalType": "bool",
              "name": "canAddRemoveTokens",
              "type": "bool"
            },
            {
              "internalType": "bool",
              "name": "canWhitelistLPs",
              "type": "bool"
            },
            {
              "internalType": "bool",
              "name": "canTokenWhiteLists",
              "type": "bool"
            }
          ],
          "internalType": "struct RightsManager.Rights",
          "name": "rights",
          "type": "tuple"
        },
        {
          "components": [
            {
              "components": [
                {
                  "components": [
                    {
                      "internalType": "uint256",
                      "name": "level",
                      "type": "uint256"
                    },
                    {
                      "internalType": "uint256",
                      "name": "ratio",
                      "type": "uint256"
                    }
                  ],
                  "internalType": "struct SmartPoolManager.levelParams",
                  "name": "firstLevel",
                  "type": "tuple"
                },
                {
                  "components": [
                    {
                      "internalType": "uint256",
                      "name": "level",
                      "type": "uint256"
                    },
                    {
                      "internalType": "uint256",
                      "name": "ratio",
                      "type": "uint256"
                    }
                  ],
                  "internalType": "struct SmartPoolManager.levelParams",
                  "name": "secondLevel",
                  "type": "tuple"
                },
                {
                  "components": [
                    {
                      "internalType": "uint256",
                      "name": "level",
                      "type": "uint256"
                    },
                    {
                      "internalType": "uint256",
                      "name": "ratio",
                      "type": "uint256"
                    }
                  ],
                  "internalType": "struct SmartPoolManager.levelParams",
                  "name": "thirdLevel",
                  "type": "tuple"
                },
                {
                  "components": [
                    {
                      "internalType": "uint256",
                      "name": "level",
                      "type": "uint256"
                    },
                    {
                      "internalType": "uint256",
                      "name": "ratio",
                      "type": "uint256"
                    }
                  ],
                  "internalType": "struct SmartPoolManager.levelParams",
                  "name": "fourLevel",
                  "type": "tuple"
                }
              ],
              "internalType": "struct SmartPoolManager.feeParams",
              "name": "managerFee",
              "type": "tuple"
            },
            {
              "components": [
                {
                  "components": [
                    {
                      "internalType": "uint256",
                      "name": "level",
                      "type": "uint256"
                    },
                    {
                      "internalType": "uint256",
                      "name": "ratio",
                      "type": "uint256"
                    }
                  ],
                  "internalType": "struct SmartPoolManager.levelParams",
                  "name": "firstLevel",
                  "type": "tuple"
                },
                {
                  "components": [
                    {
                      "internalType": "uint256",
                      "name": "level",
                      "type": "uint256"
                    },
                    {
                      "internalType": "uint256",
                      "name": "ratio",
                      "type": "uint256"
                    }
                  ],
                  "internalType": "struct SmartPoolManager.levelParams",
                  "name": "secondLevel",
                  "type": "tuple"
                },
                {
                  "components": [
                    {
                      "internalType": "uint256",
                      "name": "level",
                      "type": "uint256"
                    },
                    {
                      "internalType": "uint256",
                      "name": "ratio",
                      "type": "uint256"
                    }
                  ],
                  "internalType": "struct SmartPoolManager.levelParams",
                  "name": "thirdLevel",
                  "type": "tuple"
                },
                {
                  "components": [
                    {
                      "internalType": "uint256",
                      "name": "level",
                      "type": "uint256"
                    },
                    {
                      "internalType": "uint256",
                      "name": "ratio",
                      "type": "uint256"
                    }
                  ],
                  "internalType": "struct SmartPoolManager.levelParams",
                  "name": "fourLevel",
                  "type": "tuple"
                }
              ],
              "internalType": "struct SmartPoolManager.feeParams",
              "name": "issueFee",
              "type": "tuple"
            },
            {
              "components": [
                {
                  "components": [
                    {
                      "internalType": "uint256",
                      "name": "level",
                      "type": "uint256"
                    },
                    {
                      "internalType": "uint256",
                      "name": "ratio",
                      "type": "uint256"
                    }
                  ],
                  "internalType": "struct SmartPoolManager.levelParams",
                  "name": "firstLevel",
                  "type": "tuple"
                },
                {
                  "components": [
                    {
                      "internalType": "uint256",
                      "name": "level",
                      "type": "uint256"
                    },
                    {
                      "internalType": "uint256",
                      "name": "ratio",
                      "type": "uint256"
                    }
                  ],
                  "internalType": "struct SmartPoolManager.levelParams",
                  "name": "secondLevel",
                  "type": "tuple"
                },
                {
                  "components": [
                    {
                      "internalType": "uint256",
                      "name": "level",
                      "type": "uint256"
                    },
                    {
                      "internalType": "uint256",
                      "name": "ratio",
                      "type": "uint256"
                    }
                  ],
                  "internalType": "struct SmartPoolManager.levelParams",
                  "name": "thirdLevel",
                  "type": "tuple"
                },
                {
                  "components": [
                    {
                      "internalType": "uint256",
                      "name": "level",
                      "type": "uint256"
                    },
                    {
                      "internalType": "uint256",
                      "name": "ratio",
                      "type": "uint256"
                    }
                  ],
                  "internalType": "struct SmartPoolManager.levelParams",
                  "name": "fourLevel",
                  "type": "tuple"
                }
              ],
              "internalType": "struct SmartPoolManager.feeParams",
              "name": "redeemFee",
              "type": "tuple"
            },
            {
              "components": [
                {
                  "components": [
                    {
                      "internalType": "uint256",
                      "name": "level",
                      "type": "uint256"
                    },
                    {
                      "internalType": "uint256",
                      "name": "ratio",
                      "type": "uint256"
                    }
                  ],
                  "internalType": "struct SmartPoolManager.levelParams",
                  "name": "firstLevel",
                  "type": "tuple"
                },
                {
                  "components": [
                    {
                      "internalType": "uint256",
                      "name": "level",
                      "type": "uint256"
                    },
                    {
                      "internalType": "uint256",
                      "name": "ratio",
                      "type": "uint256"
                    }
                  ],
                  "internalType": "struct SmartPoolManager.levelParams",
                  "name": "secondLevel",
                  "type": "tuple"
                },
                {
                  "components": [
                    {
                      "internalType": "uint256",
                      "name": "level",
                      "type": "uint256"
                    },
                    {
                      "internalType": "uint256",
                      "name": "ratio",
                      "type": "uint256"
                    }
                  ],
                  "internalType": "struct SmartPoolManager.levelParams",
                  "name": "thirdLevel",
                  "type": "tuple"
                },
                {
                  "components": [
                    {
                      "internalType": "uint256",
                      "name": "level",
                      "type": "uint256"
                    },
                    {
                      "internalType": "uint256",
                      "name": "ratio",
                      "type": "uint256"
                    }
                  ],
                  "internalType": "struct SmartPoolManager.levelParams",
                  "name": "fourLevel",
                  "type": "tuple"
                }
              ],
              "internalType": "struct SmartPoolManager.feeParams",
              "name": "perfermanceFee",
              "type": "tuple"
            }
          ],
          "internalType": "struct SmartPoolManager.KolPoolParams",
          "name": "kolPoolParams",
          "type": "tuple"
        },
        {
          "internalType": "address[]",
          "name": "owners",
          "type": "address[]"
        },
        {
          "internalType": "uint256[]",
          "name": "ownerPercentage",
          "type": "uint256[]"
        },
        {
          "components": [
            {
              "internalType": "uint256",
              "name": "bspFloor",
              "type": "uint256"
            },
            {
              "internalType": "uint256",
              "name": "bspCap",
              "type": "uint256"
            }
          ],
          "internalType": "struct IConfigurableRightsPool.PoolTokenRange",
          "name": "tokenRange",
          "type": "tuple"
        }
      ],
      "name": "createSmartPool",
      "outputs": [
        {
          "internalType": "contract IConfigurableRightsPool",
          "name": "crp",
          "type": "address"
        }
      ],
      "stateMutability": "nonpayable",
      "type": "function"
    },
    {
      "inputs": [
        {
          "internalType": "contract IConfigurableRightsPool",
          "name": "pool",
          "type": "address"
        },
        {
          "internalType": "uint256",
          "name": "poolAmountIn",
          "type": "uint256"
        },
        {
          "internalType": "uint256[]",
          "name": "minAmountsOut",
          "type": "uint256[]"
        }
      ],
      "name": "exitPool",
      "outputs": [],
      "stateMutability": "nonpayable",
      "type": "function"
    },
    {
      "inputs": [
        {
          "internalType": "contract LiquidityPoolActions",
          "name": "pool",
          "type": "address"
        }
      ],
      "name": "finalize",
      "outputs": [],
      "stateMutability": "nonpayable",
      "type": "function"
    },
    {
      "inputs": [
        {
          "internalType": "contract LiquidityPoolActions",
          "name": "pool",
          "type": "address"
        },
        {
          "internalType": "uint256",
          "name": "poolAmountOut",
          "type": "uint256"
        },
        {
          "internalType": "uint256[]",
          "name": "maxAmountsIn",
          "type": "uint256[]"
        }
      ],
      "name": "joinPool",
      "outputs": [],
      "stateMutability": "nonpayable",
      "type": "function"
    },
    {
      "inputs": [
        {
          "internalType": "contract IConfigurableRightsPool",
          "name": "pool",
          "type": "address"
        },
        {
          "internalType": "uint256",
          "name": "poolAmountOut",
          "type": "uint256"
        },
        {
          "internalType": "uint256[]",
          "name": "maxAmountsIn",
          "type": "uint256[]"
        },
        {
          "internalType": "address",
          "name": "kol",
          "type": "address"
        }
      ],
      "name": "joinSmartPool",
      "outputs": [],
      "stateMutability": "nonpayable",
      "type": "function"
    },
    {
      "inputs": [
        {
          "internalType": "contract IConfigurableRightsPool",
          "name": "crp",
          "type": "address"
        },
        {
          "internalType": "address",
          "name": "tokenA",
          "type": "address"
        },
        {
          "internalType": "address",
          "name": "tokenB",
          "type": "address"
        },
        {
          "internalType": "uint256",
          "name": "deltaWeight",
          "type": "uint256"
        },
        {
          "internalType": "uint256",
          "name": "minAmountOut",
          "type": "uint256"
        }
      ],
      "name": "rebalance",
      "outputs": [],
      "stateMutability": "nonpayable",
      "type": "function"
    },
    {
      "inputs": [
        {
          "internalType": "contract IConfigurableRightsPool",
          "name": "crp",
          "type": "address"
        },
        {
          "internalType": "address",
          "name": "provider",
          "type": "address"
        }
      ],
      "name": "removeWhitelistedLiquidityProvider",
      "outputs": [],
      "stateMutability": "nonpayable",
      "type": "function"
    },
    {
      "inputs": [
        {
          "internalType": "contract IConfigurableRightsPool",
          "name": "crp",
          "type": "address"
        },
        {
          "internalType": "uint256",
          "name": "newCap",
          "type": "uint256"
        }
      ],
      "name": "setCap",
      "outputs": [],
      "stateMutability": "nonpayable",
      "type": "function"
    },
    {
      "inputs": [
        {
          "internalType": "contract AbstractPool",
          "name": "pool",
          "type": "address"
        },
        {
          "internalType": "address",
          "name": "newController",
          "type": "address"
        }
      ],
      "name": "setController",
      "outputs": [],
      "stateMutability": "nonpayable",
      "type": "function"
    },
    {
      "inputs": [
        {
          "internalType": "contract AbstractPool",
          "name": "pool",
          "type": "address"
        },
        {
          "internalType": "address[]",
          "name": "_owners",
          "type": "address[]"
        },
        {
          "internalType": "uint256[]",
          "name": "_ownerPercentage",
          "type": "uint256[]"
        }
      ],
      "name": "setManagersInfo",
      "outputs": [],
      "stateMutability": "nonpayable",
      "type": "function"
    },
    {
      "inputs": [
        {
          "internalType": "contract AbstractPool",
          "name": "pool",
          "type": "address"
        },
        {
          "internalType": "bool",
          "name": "publicSwap",
          "type": "bool"
        }
      ],
      "name": "setPublicSwap",
      "outputs": [],
      "stateMutability": "nonpayable",
      "type": "function"
    },
    {
      "inputs": [
        {
          "internalType": "contract AbstractPool",
          "name": "pool",
          "type": "address"
        },
        {
          "internalType": "uint256",
          "name": "newFee",
          "type": "uint256"
        }
      ],
      "name": "setSwapFee",
      "outputs": [],
      "stateMutability": "nonpayable",
      "type": "function"
    },
    {
      "inputs": [
        {
          "internalType": "contract LiquidityPoolActions",
          "name": "pool",
          "type": "address"
        },
        {
          "internalType": "address[]",
          "name": "tokens",
          "type": "address[]"
        },
        {
          "internalType": "uint256[]",
          "name": "balances",
          "type": "uint256[]"
        },
        {
          "internalType": "uint256[]",
          "name": "denorms",
          "type": "uint256[]"
        }
      ],
      "name": "setTokens",
      "outputs": [],
      "stateMutability": "nonpayable",
      "type": "function"
    },
    {
      "inputs": [
        {
          "internalType": "contract IConfigurableRightsPool",
          "name": "crp",
          "type": "address"
        },
        {
          "internalType": "address",
          "name": "provider",
          "type": "address"
        }
      ],
      "name": "whitelistLiquidityProvider",
      "outputs": [],
      "stateMutability": "nonpayable",
      "type": "function"
    }
  ],
  "transactionHash": "0x2e043edfdee75f5447923e2fcba82ddf426ccf1c87ae9121ed0bb2476115dc3c",
  "args": [],
  "numDeployments": 2,
  "solcInputHash": "47f93d84f7f504b55c540a420e74e5ec",
  "bytecode": "0x608060405234801561001057600080fd5b50613605806100206000396000f3fe608060405234801561001057600080fd5b50600436106100f15760003560e01c8063135b968d146100f65780631a78a2751461010b5780631eccc18514610134578063333fbeef146101475780634ef39b751461015a5780635135aafb1461016d57806363ced092146101805780636936674d146101935780637b7d6c68146101a657806380ad2cf3146101b95780638a5c57df146101cc5780639589da76146101df578063991991c7146101f2578063a7f28da714610205578063affdd4ee14610218578063d94594071461022b578063e0d945bf1461023e578063e221e73a14610251578063fb41126514610264575b600080fd5b610109610104366004612cc4565b610277565b005b61011e610119366004612a4d565b6103a9565b60405161012b91906130ff565b60405180910390f35b6101096101423660046129f5565b610853565b610109610155366004612971565b6108ad565b61010961016836600461284d565b6108d9565b61010961017b366004612983565b610a40565b61010961018e366004612d35565b610aae565b6101096101a136600461284d565b610ba9565b6101096101b4366004612971565b610be3565b6101096101c7366004612a22565b610c18565b6101096101da366004612e29565b610c44565b6101096101ed366004612c5c565b610d05565b610109610200366004612a22565b610d33565b610109610213366004612971565b610d5f565b610109610226366004612c02565b610d8b565b61011e610239366004612b11565b610df6565b61010961024c366004612d81565b611137565b61010961025f366004612885565b61195f565b61010961027236600461284d565b61198b565b6060856001600160a01b031663b64ef17b6040518163ffffffff1660e01b815260040160206040518083038186803b1580156102b257600080fd5b505afa1580156102c6573d6000803e3d6000fd5b505050506040513d601f19601f820116820180604052508101906102ea9190612869565b6001600160a01b031663cc77828d6040518163ffffffff1660e01b815260040160006040518083038186803b15801561032257600080fd5b505afa158015610336573d6000803e3d6000fd5b505050506040513d6000823e601f3d908101601f1916820160405261035e91908101906128bd565b90506103a18682878787808060200260200160405190810160405280939291908181526020018383602002808284376000920191909152508992506119da915050565b505050505050565b60008786146103d35760405162461bcd60e51b81526004016103ca9061338f565b60405180910390fd5b8784146103f25760405162461bcd60e51b81526004016103ca9061338f565b896001600160a01b03166391cefde46040518163ffffffff1660e01b8152600401602060405180830381600087803b15801561042d57600080fd5b505af1158015610441573d6000803e3d6000fd5b505050506040513d601f19601f820116820180604052508101906104659190612869565b6040516334e1990760e01b81529091506001600160a01b038216906334e19907906104949086906004016133e9565b600060405180830381600087803b1580156104ae57600080fd5b505af11580156104c2573d6000803e3d6000fd5b5050505060005b888110156106765760008a8a838181106104df57fe5b90506020020160208101906104f4919061284d565b9050806001600160a01b03166323b872dd33308c8c8781811061051357fe5b905060200201356040518463ffffffff1660e01b815260040161053893929190613113565b602060405180830381600087803b15801561055257600080fd5b505af1158015610566573d6000803e3d6000fd5b505050506040513d601f19601f8201168201806040525081019061058a9190612955565b6105a65760405162461bcd60e51b81526004016103ca906133bc565b6105c381848b8b868181106105b757fe5b90506020020135611e2e565b826001600160a01b031663e4e1e5388c8c858181106105de57fe5b90506020020160208101906105f3919061284d565b8b8b868181106105ff57fe5b905060200201358a8a8781811061061257fe5b905060200201356040518463ffffffff1660e01b815260040161063793929190613310565b600060405180830381600087803b15801561065157600080fd5b505af1158015610665573d6000803e3d6000fd5b5050600190930192506104c9915050565b5081156107e657806001600160a01b0316634bb278f36040518163ffffffff1660e01b8152600401600060405180830381600087803b1580156106b857600080fd5b505af11580156106cc573d6000803e3d6000fd5b50506040516370a0823160e01b81526001600160a01b038416925063a9059cbb9150339083906370a08231906107069030906004016130ff565b60206040518083038186803b15801561071e57600080fd5b505afa158015610732573d6000803e3d6000fd5b505050506040513d601f19601f820116820180604052508101906107569190612ebd565b6040518363ffffffff1660e01b8152600401610773929190613137565b602060405180830381600087803b15801561078d57600080fd5b505af11580156107a1573d6000803e3d6000fd5b505050506040513d601f19601f820116820180604052508101906107c59190612955565b6107e15760405162461bcd60e51b81526004016103ca906133bc565b610846565b6040516324dacaa960e11b81526001600160a01b038216906349b595529061081390600190600401613384565b600060405180830381600087803b15801561082d57600080fd5b505af1158015610841573d6000803e3d6000fd5b505050505b9998505050505050505050565b6040516324dacaa960e11b81526001600160a01b038316906349b595529061087f908490600401613384565b600060405180830381600087803b15801561089957600080fd5b505af11580156103a1573d6000803e3d6000fd5b60405163c83a1c2d60e01b81526001600160a01b0383169063c83a1c2d9061087f9084906004016130ff565b806001600160a01b0316634bb278f36040518163ffffffff1660e01b8152600401600060405180830381600087803b15801561091457600080fd5b505af1158015610928573d6000803e3d6000fd5b50506040516370a0823160e01b81526001600160a01b038416925063a9059cbb9150339083906370a08231906109629030906004016130ff565b60206040518083038186803b15801561097a57600080fd5b505afa15801561098e573d6000803e3d6000fd5b505050506040513d601f19601f820116820180604052508101906109b29190612ebd565b6040518363ffffffff1660e01b81526004016109cf929190613137565b602060405180830381600087803b1580156109e957600080fd5b505af11580156109fd573d6000803e3d6000fd5b505050506040513d601f19601f82011682018060405250810190610a219190612955565b610a3d5760405162461bcd60e51b81526004016103ca906133bc565b50565b610a4983611fb8565b6040516303c153ef60e61b81526001600160a01b0384169063f054fbc090610a779085908590600401613331565b600060405180830381600087803b158015610a9157600080fd5b505af1158015610aa5573d6000803e3d6000fd5b50505050505050565b6060836001600160a01b031663b64ef17b6040518163ffffffff1660e01b815260040160206040518083038186803b158015610ae957600080fd5b505afa158015610afd573d6000803e3d6000fd5b505050506040513d601f19601f82011682018060405250810190610b219190612869565b6001600160a01b031663cc77828d6040518163ffffffff1660e01b815260040160006040518083038186803b158015610b5957600080fd5b505afa158015610b6d573d6000803e3d6000fd5b505050506040513d6000823e601f3d908101601f19168201604052610b9591908101906128bd565b9050610ba384848484611fca565b50505050565b6000610bb482612317565b60405163325a48a760e21b81529091506001600160a01b0382169063c969229c9061087f9085906004016130ff565b610bec82611fb8565b6040516392eefe9b60e01b81526001600160a01b038316906392eefe9b9061087f9084906004016130ff565b6040516347786d3760e01b81526001600160a01b038316906347786d379061087f9084906004016133e9565b6060846001600160a01b031663be3bbd2e6040518163ffffffff1660e01b815260040160006040518083038186803b158015610c7f57600080fd5b505afa158015610c93573d6000803e3d6000fd5b505050506040513d6000823e601f3d908101601f19168201604052610cbb91908101906128bd565b9050610cfe8582868686808060200260200160405190810160405280939291908181526020018383602002808284376000920191909152503392506119da915050565b5050505050565b6040516329b0917160e21b81526001600160a01b0384169063a6c245c490610a77908590859060040161335f565b6040516334e1990760e01b81526001600160a01b038316906334e199079061087f9084906004016133e9565b60405163e2762d4b60e01b81526001600160a01b0383169063e2762d4b9061087f9084906004016130ff565b604051631b9276c760e21b81526001600160a01b03861690636e49db1c90610dbd90879087908790879060040161316a565b600060405180830381600087803b158015610dd757600080fd5b505af1158015610deb573d6000803e3d6000fd5b505050505050505050565b6000610e05606089018961347c565b9050610e1460408a018a61347c565b905014610e335760405162461bcd60e51b81526004016103ca9061338f565b610e40608089018961347c565b9050610e4f60408a018a61347c565b905014610e6e5760405162461bcd60e51b81526004016103ca9061338f565b60405163074aa1b960e51b81526001600160a01b038b169063e954372090610ea4908c908c908b908b908b908b90600401613193565b602060405180830381600087803b158015610ebe57600080fd5b505af1158015610ed2573d6000803e3d6000fd5b505050506040513d601f19601f82011682018060405250810190610ef69190612869565b905060005b610f0860408a018a61347c565b9050811015611021576000610f2060408b018b61347c565b83818110610f2a57fe5b9050602002016020810190610f3f919061284d565b90506001600160a01b0381166323b872dd3330610f5f60608f018f61347c565b87818110610f6957fe5b905060200201356040518463ffffffff1660e01b8152600401610f8e93929190613113565b602060405180830381600087803b158015610fa857600080fd5b505af1158015610fbc573d6000803e3d6000fd5b505050506040513d601f19601f82011682018060405250810190610fe09190612955565b610ffc5760405162461bcd60e51b81526004016103ca906133bc565b611018818461100e60608e018e61347c565b868181106105b757fe5b50600101610efb565b506001600160a01b038116630892b93d883560208a013561104860608c0160408d01612e9e565b866040518563ffffffff1660e01b81526004016110689493929190613444565b600060405180830381600087803b15801561108257600080fd5b505af1158015611096573d6000803e3d6000fd5b505060405163a9059cbb60e01b81526001600160a01b038416925063a9059cbb91506110c99033908b3590600401613137565b602060405180830381600087803b1580156110e357600080fd5b505af11580156110f7573d6000803e3d6000fd5b505050506040513d601f19601f8201168201806040525081019061111b9190612955565b6108465760405162461bcd60e51b81526004016103ca906133bc565b8483146111565760405162461bcd60e51b81526004016103ca9061338f565b8481146111755760405162461bcd60e51b81526004016103ca9061338f565b60005b8581101561195557600087878381811061118e57fe5b90506020020160208101906111a3919061284d565b9050886001600160a01b0316632f37b6248989858181106111c057fe5b90506020020160208101906111d5919061284d565b6040518263ffffffff1660e01b81526004016111f191906130ff565b60206040518083038186803b15801561120957600080fd5b505afa15801561121d573d6000803e3d6000fd5b505050506040513d601f19601f820116820180604052508101906112419190612955565b1561164e57886001600160a01b031663f8b2cb4f89898581811061126157fe5b9050602002016020810190611276919061284d565b6040518263ffffffff1660e01b815260040161129291906130ff565b60206040518083038186803b1580156112aa57600080fd5b505afa1580156112be573d6000803e3d6000fd5b505050506040513d601f19601f820116820180604052508101906112e29190612ebd565b8686848181106112ee57fe5b90506020020135111561150257806001600160a01b03166323b872dd33308c6001600160a01b031663f8b2cb4f8d8d8981811061132757fe5b905060200201602081019061133c919061284d565b6040518263ffffffff1660e01b815260040161135891906130ff565b60206040518083038186803b15801561137057600080fd5b505afa158015611384573d6000803e3d6000fd5b505050506040513d601f19601f820116820180604052508101906113a89190612ebd565b8a8a888181106113b457fe5b90506020020135036040518463ffffffff1660e01b81526004016113da93929190613113565b602060405180830381600087803b1580156113f457600080fd5b505af1158015611408573d6000803e3d6000fd5b505050506040513d601f19601f8201168201806040525081019061142c9190612955565b6114485760405162461bcd60e51b81526004016103ca906133bc565b611502818a8b6001600160a01b031663f8b2cb4f8c8c8881811061146857fe5b905060200201602081019061147d919061284d565b6040518263ffffffff1660e01b815260040161149991906130ff565b60206040518083038186803b1580156114b157600080fd5b505afa1580156114c5573d6000803e3d6000fd5b505050506040513d601f19601f820116820180604052508101906114e99190612ebd565b8989878181106114f557fe5b9050602002013503611e2e565b620f424086868481811061151257fe5b9050602002013511156115ca57886001600160a01b0316633fdddaa289898581811061153a57fe5b905060200201602081019061154f919061284d565b88888681811061155b57fe5b9050602002013587878781811061156e57fe5b905060200201356040518463ffffffff1660e01b815260040161159393929190613310565b600060405180830381600087803b1580156115ad57600080fd5b505af11580156115c1573d6000803e3d6000fd5b50505050611649565b886001600160a01b031663cf5e7bd38989858181106115e557fe5b90506020020160208101906115fa919061284d565b6040518263ffffffff1660e01b815260040161161691906130ff565b600060405180830381600087803b15801561163057600080fd5b505af1158015611644573d6000803e3d6000fd5b505050505b6117b6565b806001600160a01b03166323b872dd333089898781811061166b57fe5b905060200201356040518463ffffffff1660e01b815260040161169093929190613113565b602060405180830381600087803b1580156116aa57600080fd5b505af11580156116be573d6000803e3d6000fd5b505050506040513d601f19601f820116820180604052508101906116e29190612955565b6116fe5760405162461bcd60e51b81526004016103ca906133bc565b61170f818a8888868181106105b757fe5b886001600160a01b031663e4e1e53889898581811061172a57fe5b905060200201602081019061173f919061284d565b88888681811061174b57fe5b9050602002013587878781811061175e57fe5b905060200201356040518463ffffffff1660e01b815260040161178393929190613310565b600060405180830381600087803b15801561179d57600080fd5b505af11580156117b1573d6000803e3d6000fd5b505050505b6040516370a0823160e01b81526000906001600160a01b038316906370a08231906117e59030906004016130ff565b60206040518083038186803b1580156117fd57600080fd5b505afa158015611811573d6000803e3d6000fd5b505050506040513d601f19601f820116820180604052508101906118359190612ebd565b111561194c576040516370a0823160e01b81526001600160a01b0382169063a9059cbb90339083906370a08231906118719030906004016130ff565b60206040518083038186803b15801561188957600080fd5b505afa15801561189d573d6000803e3d6000fd5b505050506040513d601f19601f820116820180604052508101906118c19190612ebd565b6040518363ffffffff1660e01b81526004016118de929190613137565b602060405180830381600087803b1580156118f857600080fd5b505af115801561190c573d6000803e3d6000fd5b505050506040513d601f19601f820116820180604052508101906119309190612955565b61194c5760405162461bcd60e51b81526004016103ca906133bc565b50600101611178565b5050505050505050565b60405163edb12adf60e01b81526001600160a01b0383169063edb12adf9061087f9084906004016130ff565b806001600160a01b031663d2fed42e6040518163ffffffff1660e01b8152600401600060405180830381600087803b1580156119c657600080fd5b505af1158015610cfe573d6000803e3d6000fd5b83518251146119fb5760405162461bcd60e51b81526004016103ca9061338f565b60005b8451811015611af7576000858281518110611a1557fe5b60200260200101519050806001600160a01b03166323b872dd3330878681518110611a3c57fe5b60200260200101516040518463ffffffff1660e01b8152600401611a6293929190613113565b602060405180830381600087803b158015611a7c57600080fd5b505af1158015611a90573d6000803e3d6000fd5b505050506040513d601f19601f82011682018060405250810190611ab49190612955565b611ad05760405162461bcd60e51b81526004016103ca906133bc565b611aee8188868581518110611ae157fe5b6020026020010151611e2e565b506001016119fe565b5060405163077df9bd60e31b81526001600160a01b03861690633befcde890611b2890869086908690600401613413565b600060405180830381600087803b158015611b4257600080fd5b505af1158015611b56573d6000803e3d6000fd5b5050505060005b8451811015611d1c576000858281518110611b7457fe5b602002602001015190506000816001600160a01b03166370a08231306040518263ffffffff1660e01b8152600401611bac91906130ff565b60206040518083038186803b158015611bc457600080fd5b505afa158015611bd8573d6000803e3d6000fd5b505050506040513d601f19601f82011682018060405250810190611bfc9190612ebd565b1115611d13576040516370a0823160e01b81526001600160a01b0382169063a9059cbb90339083906370a0823190611c389030906004016130ff565b60206040518083038186803b158015611c5057600080fd5b505afa158015611c64573d6000803e3d6000fd5b505050506040513d601f19601f82011682018060405250810190611c889190612ebd565b6040518363ffffffff1660e01b8152600401611ca5929190613137565b602060405180830381600087803b158015611cbf57600080fd5b505af1158015611cd3573d6000803e3d6000fd5b505050506040513d601f19601f82011682018060405250810190611cf79190612955565b611d135760405162461bcd60e51b81526004016103ca906133bc565b50600101611b5d565b506040516370a0823160e01b81526001600160a01b0386169063a9059cbb90339083906370a0823190611d539030906004016130ff565b60206040518083038186803b158015611d6b57600080fd5b505afa158015611d7f573d6000803e3d6000fd5b505050506040513d601f19601f82011682018060405250810190611da39190612ebd565b6040518363ffffffff1660e01b8152600401611dc0929190613137565b602060405180830381600087803b158015611dda57600080fd5b505af1158015611dee573d6000803e3d6000fd5b505050506040513d601f19601f82011682018060405250810190611e129190612955565b610cfe5760405162461bcd60e51b81526004016103ca906133bc565b604051636eb1769f60e11b81526000906001600160a01b0385169063dd62ed3e90611e5f9030908790600401613150565b60206040518083038186803b158015611e7757600080fd5b505afa158015611e8b573d6000803e3d6000fd5b505050506040513d601f19601f82011682018060405250810190611eaf9190612ebd565b1115611f385760405163095ea7b360e01b81526001600160a01b0384169063095ea7b390611ee4908590600090600401613137565b602060405180830381600087803b158015611efe57600080fd5b505af1158015611f12573d6000803e3d6000fd5b505050506040513d601f19601f82011682018060405250810190611f369190612955565b505b60405163095ea7b360e01b81526001600160a01b0384169063095ea7b390611f669085908590600401613137565b602060405180830381600087803b158015611f8057600080fd5b505af1158015611f94573d6000803e3d6000fd5b505050506040513d601f19601f82011682018060405250810190610ba39190612955565b611fc18161198b565b610a3d8161239f565b6040516370a0823160e01b81526000906001600160a01b038616906370a0823190611ff99033906004016130ff565b60206040518083038186803b15801561201157600080fd5b505afa158015612025573d6000803e3d6000fd5b505050506040513d601f19601f820116820180604052508101906120499190612ebd565b6040516323b872dd60e01b81529091506001600160a01b038616906323b872dd9061207c90339030908690600401613113565b602060405180830381600087803b15801561209657600080fd5b505af11580156120aa573d6000803e3d6000fd5b505050506040513d601f19601f820116820180604052508101906120ce9190612955565b6120ea5760405162461bcd60e51b81526004016103ca906133bc565b6120f5858683611e2e565b60405163b02f0b7360e01b81526001600160a01b0386169063b02f0b739061212390879087906004016133f2565b600060405180830381600087803b15801561213d57600080fd5b505af1158015612151573d6000803e3d6000fd5b5050505060005b8251811015611d1c57600083828151811061216f57fe5b602002602001015190506000816001600160a01b03166370a08231306040518263ffffffff1660e01b81526004016121a791906130ff565b60206040518083038186803b1580156121bf57600080fd5b505afa1580156121d3573d6000803e3d6000fd5b505050506040513d601f19601f820116820180604052508101906121f79190612ebd565b111561230e576040516370a0823160e01b81526001600160a01b0382169063a9059cbb90339083906370a08231906122339030906004016130ff565b60206040518083038186803b15801561224b57600080fd5b505afa15801561225f573d6000803e3d6000fd5b505050506040513d601f19601f820116820180604052508101906122839190612ebd565b6040518363ffffffff1660e01b81526004016122a0929190613137565b602060405180830381600087803b1580156122ba57600080fd5b505af11580156122ce573d6000803e3d6000fd5b505050506040513d601f19601f820116820180604052508101906122f29190612955565b61230e5760405162461bcd60e51b81526004016103ca906133bc565b50600101612158565b6000806123238361262f565b9050806001600160a01b0316639daafec76040518163ffffffff1660e01b8152600401602060405180830381600087803b15801561236057600080fd5b505af1158015612374573d6000803e3d6000fd5b505050506040513d601f19601f820116820180604052508101906123989190612869565b9392505050565b60006123aa8261262f565b905060006123b783612317565b90506000826001600160a01b031663c0fcb166856040518263ffffffff1660e01b81526004016123e791906130ff565b60206040518083038186803b1580156123ff57600080fd5b505afa158015612413573d6000803e3d6000fd5b505050506040513d601f19601f820116820180604052508101906124379190612955565b90506000826001600160a01b031663c0fcb166866040518263ffffffff1660e01b815260040161246791906130ff565b60206040518083038186803b15801561247f57600080fd5b505afa158015612493573d6000803e3d6000fd5b505050506040513d601f19601f820116820180604052508101906124b79190612955565b90506000856001600160a01b03166373a9855c6040518163ffffffff1660e01b8152600401602060405180830381600087803b1580156124f657600080fd5b505af115801561250a573d6000803e3d6000fd5b505050506040513d601f19601f8201168201806040525081019061252e9190612e82565b9050600081600181111561253e57fe5b1480156125485750825b156125ac5760405163edb12adf60e01b81526001600160a01b0386169063edb12adf906125799089906004016130ff565b600060405180830381600087803b15801561259357600080fd5b505af11580156125a7573d6000803e3d6000fd5b505050505b60018160018111156125ba57fe5b1480156125c45750815b156103a15760405163edb12adf60e01b81526001600160a01b0385169063edb12adf906125f59089906004016130ff565b600060405180830381600087803b15801561260f57600080fd5b505af1158015612623573d6000803e3d6000fd5b50505050505050505050565b6000816001600160a01b031663430bf08a6040518163ffffffff1660e01b815260040160206040518083038186803b15801561266a57600080fd5b505afa15801561267e573d6000803e3d6000fd5b505050506040513d601f19601f820116820180604052508101906126a29190612869565b92915050565b60008083601f8401126126b9578182fd5b5081356001600160401b038111156126cf578182fd5b60208301915083602080830285010111156126e957600080fd5b9250929050565b600082601f830112612700578081fd5b813561271361270e826134e8565b6134c2565b81815291506020808301908481018184028601820187101561273457600080fd5b60005b8481101561275c57813561274a8161359f565b84529282019290820190600101612737565b505050505092915050565b600082601f830112612777578081fd5b813561278561270e826134e8565b8181529150602080830190848101818402860182018710156127a657600080fd5b60005b8481101561275c578135845292820192908201906001016127a9565b80356126a28161359f565b6000606082840312156127e1578081fd5b50919050565b600061040082840312156127e1578081fd5b600061016082840312156127e1578081fd5b60006040828403121561281c578081fd5b61282660406134c2565b9050813581526020820135602082015292915050565b600060c082840312156127e1578081fd5b60006020828403121561285e578081fd5b81356123988161359f565b60006020828403121561287a578081fd5b81516123988161359f565b60008060408385031215612897578081fd5b82356128a28161359f565b915060208301356128b28161359f565b809150509250929050565b600060208083850312156128cf578182fd5b82516001600160401b038111156128e4578283fd5b8301601f810185136128f4578283fd5b805161290261270e826134e8565b818152838101908385018584028501860189101561291e578687fd5b8694505b838510156129495780516129358161359f565b835260019490940193918501918501612922565b50979650505050505050565b600060208284031215612966578081fd5b8151612398816135b4565b60008060408385031215612897578182fd5b600080600060608486031215612997578081fd5b83356129a28161359f565b925060208401356001600160401b03808211156129bd578283fd5b6129c9878388016126f0565b935060408601359150808211156129de578283fd5b506129eb86828701612767565b9150509250925092565b60008060408385031215612a07578182fd5b8235612a128161359f565b915060208301356128b2816135b4565b60008060408385031215612a34578182fd5b8235612a3f8161359f565b946020939093013593505050565b600080600080600080600080600060c08a8c031215612a6a578687fd5b8935612a758161359f565b985060208a01356001600160401b0380821115612a90578889fd5b612a9c8d838e016126a8565b909a50985060408c0135915080821115612ab4578687fd5b612ac08d838e016126a8565b909850965060608c0135915080821115612ad8578586fd5b50612ae58c828d016126a8565b90955093505060808a0135915060a08a0135612b00816135b4565b809150509295985092959850929598565b60008060008060008060008060006106008a8c031215612b2f578283fd5b612b398b8b6127c5565b9850612b488b60208c016127c5565b975060408a01356001600160401b0380821115612b63578485fd5b612b6f8d838e016127f9565b9850612b7e8d60608e016127d0565b9750612b8d8d60c08e0161283c565b9650612b9d8d6101808e016127e7565b95506105808c0135915080821115612bb3578485fd5b612bbf8d838e016126f0565b94506105a08c0135915080821115612bd5578384fd5b50612be28c828d01612767565b925050612bf38b6105c08c0161280b565b90509295985092959850929598565b600080600080600060a08688031215612c19578283fd5b8535612c248161359f565b94506020860135612c348161359f565b93506040860135612c448161359f565b94979396509394606081013594506080013592915050565b600080600060608486031215612c70578081fd5b8335612c7b8161359f565b925060208401356001600160401b0380821115612c96578283fd5b612ca287838801612767565b93506040860135915080821115612cb7578283fd5b506129eb868287016126f0565b600080600080600060808688031215612cdb578283fd5b8535612ce68161359f565b94506020860135935060408601356001600160401b03811115612d07578384fd5b612d13888289016126a8565b9094509250506060860135612d278161359f565b809150509295509295909350565b600080600060608486031215612d49578081fd5b8335612d548161359f565b92506020840135915060408401356001600160401b03811115612d75578182fd5b6129eb86828701612767565b60008060008060008060006080888a031215612d9b578081fd5b8735612da68161359f565b965060208801356001600160401b0380821115612dc1578283fd5b612dcd8b838c016126a8565b909850965060408a0135915080821115612de5578283fd5b612df18b838c016126a8565b909650945060608a0135915080821115612e09578283fd5b50612e168a828b016126a8565b989b979a50959850939692959293505050565b60008060008060608587031215612e3e578182fd5b8435612e498161359f565b93506020850135925060408501356001600160401b03811115612e6a578283fd5b612e76878288016126a8565b95989497509550505050565b600060208284031215612e93578081fd5b8151612398816135c2565b600060208284031215612eaf578081fd5b813560038110612398578182fd5b600060208284031215612ece578081fd5b5051919050565b60008284526020808501945082825b85811015612f12578135612ef78161359f565b6001600160a01b031687529582019590820190600101612ee4565b509495945050505050565b6000815180845260208085019450808401835b83811015612f125781516001600160a01b031687529582019590820190600101612f30565b81835260006001600160fb1b03831115612f6d578081fd5b6020830280836020870137939093016020019283525090919050565b6000815180845260208085019450808401835b83811015612f1257815187529582019590820190600101612f9c565b60028110612fc257fe5b9052565b60008284528282602086013780602084860101526020601f19601f85011685010190509392505050565b612ffa82826130b2565b61010061300b8184018284016130b2565b5061020061301d8184018284016130b2565b5061030061302f8184018284016130b2565b505050565b803561303f816135b4565b151582526020810135613051816135b4565b151560208301526040810135613066816135b4565b15156040830152606081013561307b816135b4565b151560608301526080810135613090816135b4565b1515608083015260a08101356130a5816135b4565b80151560a0840152505050565b6130bc82826130f0565b6130cc60408301604083016130f0565b6130dc60808301608083016130f0565b6130ec60c0830160c083016130f0565b5050565b80358252602090810135910152565b6001600160a01b0391909116815260200190565b6001600160a01b039384168152919092166020820152604081019190915260600190565b6001600160a01b03929092168252602082015260400190565b6001600160a01b0392831681529116602082015260400190565b6001600160a01b0394851681529290931660208301526040820152606081019190915260800190565b6001600160a01b0387168152610540602082018190526000906131b6888061355b565b610160838601526131cc6106a086018284612fc6565b925050506131dd602089018961355b565b61053f1980868503016105608701526131f7848385612fc6565b935061320660408c018c613507565b935091508086850301610580870152613220848484612ed5565b935061322f60608c018c613507565b9350915080868503016105a0870152613249848484612f55565b935061325860808c018c613507565b9350915080868503016105c087015250613273838383612f55565b9250505060a08801356105e084015260c088013561060084015260e0880135610620840152610100808901356106408501526101208901356106608501526132bf6101408a018a61354e565b6132cd610680860182612fb8565b506132db6040850189613034565b6132e781850188612ff0565b508281036105008401526132fb8186612f1d565b90508281036105208401526108468185612f89565b6001600160a01b039390931683526020830191909152604082015260600190565b6000604082526133446040830185612f1d565b82810360208401526133568185612f89565b95945050505050565b6000604082526133726040830185612f89565b82810360208401526133568185612f1d565b901515815260200190565b60208082526013908201527208aa4a4be988a9c8ea890be9a92a69a82a8869606b1b604082015260600190565b60208082526013908201527211549497d514905394d1915497d19052531151606a1b604082015260600190565b90815260200190565b60008382526040602083015261340b6040830184612f89565b949350505050565b60008482526060602083015261342c6060830185612f89565b905060018060a01b0383166040830152949350505050565b8481526020810184905260a081016003841061345c57fe5b836040830152825160608301526020830151608083015295945050505050565b6000808335601e19843603018112613492578283fd5b8301803591506001600160401b038211156134ab578283fd5b60209081019250810236038213156126e957600080fd5b6040518181016001600160401b03811182821017156134e057600080fd5b604052919050565b60006001600160401b038211156134fd578081fd5b5060209081020190565b6000808335601e1984360301811261351d578283fd5b83016020810192503590506001600160401b0381111561353c57600080fd5b6020810236038313156126e957600080fd5b60008235612398816135c2565b6000808335601e19843603018112613571578283fd5b83016020810192503590506001600160401b0381111561359057600080fd5b8036038313156126e957600080fd5b6001600160a01b0381168114610a3d57600080fd5b8015158114610a3d57600080fd5b60028110610a3d57600080fdfea2646970667358221220110ea98f9990f49c7efbc0b15659b8af3c87f00d53a1c833755947515ef41e1464736f6c634300060c0033",
  "libraries": {},
  "devdoc": {
    "kind": "dev",
    "methods": {},
    "version": 1
  },
  "userdoc": {
    "kind": "user",
    "methods": {},
    "version": 1
  },
  "storageLayout": {
    "storage": [],
    "types": null
  }
}