{
  "address": "0x0dB613E9Cb2E407c20C428E2EC81FA5107a7e6E9",
  "abi": [
    {
      "inputs": [
        {
          "internalType": "address",
          "name": "_userVault",
          "type": "address"
        },
        {
          "internalType": "address",
          "name": "pool",
          "type": "address"
        }
      ],
      "name": "claimKolReward",
      "outputs": [],
      "stateMutability": "nonpayable",
      "type": "function"
    },
    {
      "inputs": [
        {
          "internalType": "address",
          "name": "_userVault",
          "type": "address"
        },
        {
          "internalType": "address",
          "name": "pool",
          "type": "address"
        }
      ],
      "name": "claimManagersReward",
      "outputs": [],
      "stateMutability": "nonpayable",
      "type": "function"
    },
    {
      "inputs": [
        {
          "internalType": "contract FactoryActions",
          "name": "factory",
          "type": "address"
        },
        {
          "internalType": "address[]",
          "name": "tokens",
          "type": "address[]"
        },
        {
          "internalType": "uint256[]",
          "name": "balances",
          "type": "uint256[]"
        },
        {
          "internalType": "uint256[]",
          "name": "weights",
          "type": "uint256[]"
        },
        {
          "internalType": "uint256",
          "name": "swapFee",
          "type": "uint256"
        },
        {
          "internalType": "bool",
          "name": "finalize",
          "type": "bool"
        }
      ],
      "name": "create",
      "outputs": [
        {
          "internalType": "contract LiquidityPoolActions",
          "name": "pool",
          "type": "address"
        }
      ],
      "stateMutability": "nonpayable",
      "type": "function"
    },
    {
      "inputs": [
        {
          "internalType": "contract ICRPFactory",
          "name": "factory",
          "type": "address"
        },
        {
          "internalType": "contract FactoryActions",
          "name": "coreFactory",
          "type": "address"
        },
        {
          "components": [
            {
              "internalType": "string",
              "name": "poolTokenSymbol",
              "type": "string"
            },
            {
              "internalType": "string",
              "name": "poolTokenName",
              "type": "string"
            },
            {
              "internalType": "address[]",
              "name": "constituentTokens",
              "type": "address[]"
            },
            {
              "internalType": "uint256[]",
              "name": "tokenBalances",
              "type": "uint256[]"
            },
            {
              "internalType": "uint256[]",
              "name": "tokenWeights",
              "type": "uint256[]"
            },
            {
              "internalType": "uint256",
              "name": "swapFee",
              "type": "uint256"
            },
            {
              "internalType": "uint256",
              "name": "managerFee",
              "type": "uint256"
            },
            {
              "internalType": "uint256",
              "name": "redeemFee",
              "type": "uint256"
            },
            {
              "internalType": "uint256",
              "name": "issueFee",
              "type": "uint256"
            },
            {
              "internalType": "uint256",
              "name": "perfermanceFee",
              "type": "uint256"
            },
            {
              "internalType": "enum IConfigurableRightsPool.Etypes",
              "name": "etype",
              "type": "uint8"
            }
          ],
          "internalType": "struct IConfigurableRightsPool.PoolParams",
          "name": "poolParams",
          "type": "tuple"
        },
        {
          "components": [
            {
              "internalType": "uint256",
              "name": "initialSupply",
              "type": "uint256"
            },
            {
              "internalType": "uint256",
              "name": "collectPeriod",
              "type": "uint256"
            },
            {
              "internalType": "enum IConfigurableRightsPool.Period",
              "name": "period",
              "type": "uint8"
            }
          ],
          "internalType": "struct IConfigurableRightsPool.CrpParams",
          "name": "crpParams",
          "type": "tuple"
        },
        {
          "components": [
            {
              "internalType": "bool",
              "name": "canPauseSwapping",
              "type": "bool"
            },
            {
              "internalType": "bool",
              "name": "canChangeSwapFee",
              "type": "bool"
            },
            {
              "internalType": "bool",
              "name": "canChangeWeights",
              "type": "bool"
            },
            {
              "internalType": "bool",
              "name": "canAddRemoveTokens",
              "type": "bool"
            },
            {
              "internalType": "bool",
              "name": "canWhitelistLPs",
              "type": "bool"
            },
            {
              "internalType": "bool",
              "name": "canTokenWhiteLists",
              "type": "bool"
            }
          ],
          "internalType": "struct RightsManager.Rights",
          "name": "rights",
          "type": "tuple"
        },
        {
          "components": [
            {
              "components": [
                {
                  "components": [
                    {
                      "internalType": "uint256",
                      "name": "level",
                      "type": "uint256"
                    },
                    {
                      "internalType": "uint256",
                      "name": "ratio",
                      "type": "uint256"
                    }
                  ],
                  "internalType": "struct SmartPoolManager.levelParams",
                  "name": "firstLevel",
                  "type": "tuple"
                },
                {
                  "components": [
                    {
                      "internalType": "uint256",
                      "name": "level",
                      "type": "uint256"
                    },
                    {
                      "internalType": "uint256",
                      "name": "ratio",
                      "type": "uint256"
                    }
                  ],
                  "internalType": "struct SmartPoolManager.levelParams",
                  "name": "secondLevel",
                  "type": "tuple"
                },
                {
                  "components": [
                    {
                      "internalType": "uint256",
                      "name": "level",
                      "type": "uint256"
                    },
                    {
                      "internalType": "uint256",
                      "name": "ratio",
                      "type": "uint256"
                    }
                  ],
                  "internalType": "struct SmartPoolManager.levelParams",
                  "name": "thirdLevel",
                  "type": "tuple"
                },
                {
                  "components": [
                    {
                      "internalType": "uint256",
                      "name": "level",
                      "type": "uint256"
                    },
                    {
                      "internalType": "uint256",
                      "name": "ratio",
                      "type": "uint256"
                    }
                  ],
                  "internalType": "struct SmartPoolManager.levelParams",
                  "name": "fourLevel",
                  "type": "tuple"
                }
              ],
              "internalType": "struct SmartPoolManager.feeParams",
              "name": "managerFee",
              "type": "tuple"
            },
            {
              "components": [
                {
                  "components": [
                    {
                      "internalType": "uint256",
                      "name": "level",
                      "type": "uint256"
                    },
                    {
                      "internalType": "uint256",
                      "name": "ratio",
                      "type": "uint256"
                    }
                  ],
                  "internalType": "struct SmartPoolManager.levelParams",
                  "name": "firstLevel",
                  "type": "tuple"
                },
                {
                  "components": [
                    {
                      "internalType": "uint256",
                      "name": "level",
                      "type": "uint256"
                    },
                    {
                      "internalType": "uint256",
                      "name": "ratio",
                      "type": "uint256"
                    }
                  ],
                  "internalType": "struct SmartPoolManager.levelParams",
                  "name": "secondLevel",
                  "type": "tuple"
                },
                {
                  "components": [
                    {
                      "internalType": "uint256",
                      "name": "level",
                      "type": "uint256"
                    },
                    {
                      "internalType": "uint256",
                      "name": "ratio",
                      "type": "uint256"
                    }
                  ],
                  "internalType": "struct SmartPoolManager.levelParams",
                  "name": "thirdLevel",
                  "type": "tuple"
                },
                {
                  "components": [
                    {
                      "internalType": "uint256",
                      "name": "level",
                      "type": "uint256"
                    },
                    {
                      "internalType": "uint256",
                      "name": "ratio",
                      "type": "uint256"
                    }
                  ],
                  "internalType": "struct SmartPoolManager.levelParams",
                  "name": "fourLevel",
                  "type": "tuple"
                }
              ],
              "internalType": "struct SmartPoolManager.feeParams",
              "name": "issueFee",
              "type": "tuple"
            },
            {
              "components": [
                {
                  "components": [
                    {
                      "internalType": "uint256",
                      "name": "level",
                      "type": "uint256"
                    },
                    {
                      "internalType": "uint256",
                      "name": "ratio",
                      "type": "uint256"
                    }
                  ],
                  "internalType": "struct SmartPoolManager.levelParams",
                  "name": "firstLevel",
                  "type": "tuple"
                },
                {
                  "components": [
                    {
                      "internalType": "uint256",
                      "name": "level",
                      "type": "uint256"
                    },
                    {
                      "internalType": "uint256",
                      "name": "ratio",
                      "type": "uint256"
                    }
                  ],
                  "internalType": "struct SmartPoolManager.levelParams",
                  "name": "secondLevel",
                  "type": "tuple"
                },
                {
                  "components": [
                    {
                      "internalType": "uint256",
                      "name": "level",
                      "type": "uint256"
                    },
                    {
                      "internalType": "uint256",
                      "name": "ratio",
                      "type": "uint256"
                    }
                  ],
                  "internalType": "struct SmartPoolManager.levelParams",
                  "name": "thirdLevel",
                  "type": "tuple"
                },
                {
                  "components": [
                    {
                      "internalType": "uint256",
                      "name": "level",
                      "type": "uint256"
                    },
                    {
                      "internalType": "uint256",
                      "name": "ratio",
                      "type": "uint256"
                    }
                  ],
                  "internalType": "struct SmartPoolManager.levelParams",
                  "name": "fourLevel",
                  "type": "tuple"
                }
              ],
              "internalType": "struct SmartPoolManager.feeParams",
              "name": "redeemFee",
              "type": "tuple"
            },
            {
              "components": [
                {
                  "components": [
                    {
                      "internalType": "uint256",
                      "name": "level",
                      "type": "uint256"
                    },
                    {
                      "internalType": "uint256",
                      "name": "ratio",
                      "type": "uint256"
                    }
                  ],
                  "internalType": "struct SmartPoolManager.levelParams",
                  "name": "firstLevel",
                  "type": "tuple"
                },
                {
                  "components": [
                    {
                      "internalType": "uint256",
                      "name": "level",
                      "type": "uint256"
                    },
                    {
                      "internalType": "uint256",
                      "name": "ratio",
                      "type": "uint256"
                    }
                  ],
                  "internalType": "struct SmartPoolManager.levelParams",
                  "name": "secondLevel",
                  "type": "tuple"
                },
                {
                  "components": [
                    {
                      "internalType": "uint256",
                      "name": "level",
                      "type": "uint256"
                    },
                    {
                      "internalType": "uint256",
                      "name": "ratio",
                      "type": "uint256"
                    }
                  ],
                  "internalType": "struct SmartPoolManager.levelParams",
                  "name": "thirdLevel",
                  "type": "tuple"
                },
                {
                  "components": [
                    {
                      "internalType": "uint256",
                      "name": "level",
                      "type": "uint256"
                    },
                    {
                      "internalType": "uint256",
                      "name": "ratio",
                      "type": "uint256"
                    }
                  ],
                  "internalType": "struct SmartPoolManager.levelParams",
                  "name": "fourLevel",
                  "type": "tuple"
                }
              ],
              "internalType": "struct SmartPoolManager.feeParams",
              "name": "perfermanceFee",
              "type": "tuple"
            }
          ],
          "internalType": "struct SmartPoolManager.KolPoolParams",
          "name": "kolPoolParams",
          "type": "tuple"
        },
        {
          "internalType": "address[]",
          "name": "owners",
          "type": "address[]"
        },
        {
          "internalType": "uint256[]",
          "name": "ownerPercentage",
          "type": "uint256[]"
        },
        {
          "components": [
            {
              "internalType": "uint256",
              "name": "bspFloor",
              "type": "uint256"
            },
            {
              "internalType": "uint256",
              "name": "bspCap",
              "type": "uint256"
            }
          ],
          "internalType": "struct IConfigurableRightsPool.PoolTokenRange",
          "name": "tokenRange",
          "type": "tuple"
        }
      ],
      "name": "createSmartPool",
      "outputs": [
        {
          "internalType": "contract IConfigurableRightsPool",
          "name": "crp",
          "type": "address"
        }
      ],
      "stateMutability": "nonpayable",
      "type": "function"
    },
    {
      "inputs": [
        {
          "internalType": "contract IConfigurableRightsPool",
          "name": "pool",
          "type": "address"
        },
        {
          "internalType": "uint256",
          "name": "poolAmountIn",
          "type": "uint256"
        },
        {
          "internalType": "uint256[]",
          "name": "minAmountsOut",
          "type": "uint256[]"
        }
      ],
      "name": "exitPool",
      "outputs": [],
      "stateMutability": "nonpayable",
      "type": "function"
    },
    {
      "inputs": [
        {
          "internalType": "contract LiquidityPoolActions",
          "name": "pool",
          "type": "address"
        }
      ],
      "name": "finalize",
      "outputs": [],
      "stateMutability": "nonpayable",
      "type": "function"
    },
    {
      "inputs": [
        {
          "internalType": "contract LiquidityPoolActions",
          "name": "pool",
          "type": "address"
        },
        {
          "internalType": "uint256",
          "name": "poolAmountOut",
          "type": "uint256"
        },
        {
          "internalType": "uint256[]",
          "name": "maxAmountsIn",
          "type": "uint256[]"
        }
      ],
      "name": "joinPool",
      "outputs": [],
      "stateMutability": "nonpayable",
      "type": "function"
    },
    {
      "inputs": [
        {
          "internalType": "contract IConfigurableRightsPool",
          "name": "pool",
          "type": "address"
        },
        {
          "internalType": "uint256",
          "name": "poolAmountOut",
          "type": "uint256"
        },
        {
          "internalType": "uint256[]",
          "name": "maxAmountsIn",
          "type": "uint256[]"
        },
        {
          "internalType": "address",
          "name": "kol",
          "type": "address"
        }
      ],
      "name": "joinSmartPool",
      "outputs": [],
      "stateMutability": "nonpayable",
      "type": "function"
    },
    {
      "inputs": [
        {
          "internalType": "contract IConfigurableRightsPool",
          "name": "crp",
          "type": "address"
        },
        {
          "internalType": "address",
          "name": "tokenA",
          "type": "address"
        },
        {
          "internalType": "address",
          "name": "tokenB",
          "type": "address"
        },
        {
          "internalType": "uint256",
          "name": "deltaWeight",
          "type": "uint256"
        },
        {
          "internalType": "uint256",
          "name": "minAmountOut",
          "type": "uint256"
        }
      ],
      "name": "rebalance",
      "outputs": [],
      "stateMutability": "nonpayable",
      "type": "function"
    },
    {
      "inputs": [
        {
          "internalType": "contract IConfigurableRightsPool",
          "name": "crp",
          "type": "address"
        },
        {
          "internalType": "address",
          "name": "provider",
          "type": "address"
        }
      ],
      "name": "removeWhitelistedLiquidityProvider",
      "outputs": [],
      "stateMutability": "nonpayable",
      "type": "function"
    },
    {
      "inputs": [
        {
          "internalType": "contract IConfigurableRightsPool",
          "name": "crp",
          "type": "address"
        },
        {
          "internalType": "uint256",
          "name": "newCap",
          "type": "uint256"
        }
      ],
      "name": "setCap",
      "outputs": [],
      "stateMutability": "nonpayable",
      "type": "function"
    },
    {
      "inputs": [
        {
          "internalType": "contract AbstractPool",
          "name": "pool",
          "type": "address"
        },
        {
          "internalType": "address",
          "name": "newController",
          "type": "address"
        }
      ],
      "name": "setController",
      "outputs": [],
      "stateMutability": "nonpayable",
      "type": "function"
    },
    {
      "inputs": [
        {
          "internalType": "contract AbstractPool",
          "name": "pool",
          "type": "address"
        },
        {
          "internalType": "bool",
          "name": "publicSwap",
          "type": "bool"
        }
      ],
      "name": "setPublicSwap",
      "outputs": [],
      "stateMutability": "nonpayable",
      "type": "function"
    },
    {
      "inputs": [
        {
          "internalType": "contract AbstractPool",
          "name": "pool",
          "type": "address"
        },
        {
          "internalType": "uint256",
          "name": "newFee",
          "type": "uint256"
        }
      ],
      "name": "setSwapFee",
      "outputs": [],
      "stateMutability": "nonpayable",
      "type": "function"
    },
    {
      "inputs": [
        {
          "internalType": "contract LiquidityPoolActions",
          "name": "pool",
          "type": "address"
        },
        {
          "internalType": "address[]",
          "name": "tokens",
          "type": "address[]"
        },
        {
          "internalType": "uint256[]",
          "name": "balances",
          "type": "uint256[]"
        },
        {
          "internalType": "uint256[]",
          "name": "denorms",
          "type": "uint256[]"
        }
      ],
      "name": "setTokens",
      "outputs": [],
      "stateMutability": "nonpayable",
      "type": "function"
    },
    {
      "inputs": [
        {
          "internalType": "contract IConfigurableRightsPool",
          "name": "crp",
          "type": "address"
        },
        {
          "internalType": "address",
          "name": "provider",
          "type": "address"
        }
      ],
      "name": "whitelistLiquidityProvider",
      "outputs": [],
      "stateMutability": "nonpayable",
      "type": "function"
    }
  ],
  "transactionHash": "0x923250bc851a2e094422d06082536a96c5eaf519da586c00493c7021804bf1ab",
  "args": [],
  "numDeployments": 1,
  "solcInputHash": "c6e8b1faa34d5d48d0982392945c24ca",
  "bytecode": "0x608060405234801561001057600080fd5b50612fca806100206000396000f3fe608060405234801561001057600080fd5b50600436106100d05760003560e01c8063135b968d146100d55780631a78a275146100ea5780631eccc18514610113578063333fbeef146101265780634ef39b751461013957806363ced0921461014c5780637840fb6c1461015f5780637b7d6c681461017257806380ad2cf3146101855780638a5c57df14610198578063991991c7146101ab578063a7f28da7146101be578063affdd4ee146101d1578063d9459407146101e4578063e0d945bf146101f7578063e221e73a1461020a575b600080fd5b6100e86100e33660046126f8565b61021d565b005b6100fd6100f83660046124cd565b61034f565b60405161010a9190612b21565b60405180910390f35b6100e8610121366004612475565b6107f9565b6100e8610134366004612463565b610853565b6100e8610147366004612354565b61087f565b6100e861015a366004612769565b6109e6565b6100e861016d366004612377565b610ae1565b6100e8610180366004612463565b610b0d565b6100e86101933660046124a2565b610b39565b6100e86101a6366004612867565b610b65565b6100e86101b93660046124a2565b610c26565b6100e86101cc366004612463565b610c52565b6100e86101df36600461269e565b610c7e565b6100fd6101f2366004612591565b610ce9565b6100e86102053660046127bf565b61102a565b6100e8610218366004612377565b611852565b6060856001600160a01b031663b64ef17b6040518163ffffffff1660e01b815260040160206040518083038186803b15801561025857600080fd5b505afa15801561026c573d6000803e3d6000fd5b505050506040513d601f19601f820116820180604052508101906102909190612682565b6001600160a01b031663cc77828d6040518163ffffffff1660e01b815260040160006040518083038186803b1580156102c857600080fd5b505afa1580156102dc573d6000803e3d6000fd5b505050506040513d6000823e601f3d908101601f1916820160405261030491908101906123af565b905061034786828787878080602002602001604051908101604052809392919081815260200183836020028082843760009201919091525089925061187e915050565b505050505050565b60008786146103795760405162461bcd60e51b815260040161037090612d5e565b60405180910390fd5b8784146103985760405162461bcd60e51b815260040161037090612d5e565b896001600160a01b03166391cefde46040518163ffffffff1660e01b8152600401602060405180830381600087803b1580156103d357600080fd5b505af11580156103e7573d6000803e3d6000fd5b505050506040513d601f19601f8201168201806040525081019061040b9190612682565b6040516334e1990760e01b81529091506001600160a01b038216906334e199079061043a908690600401612db8565b600060405180830381600087803b15801561045457600080fd5b505af1158015610468573d6000803e3d6000fd5b5050505060005b8881101561061c5760008a8a8381811061048557fe5b905060200201602081019061049a9190612354565b9050806001600160a01b03166323b872dd33308c8c878181106104b957fe5b905060200201356040518463ffffffff1660e01b81526004016104de93929190612b35565b602060405180830381600087803b1580156104f857600080fd5b505af115801561050c573d6000803e3d6000fd5b505050506040513d601f19601f820116820180604052508101906105309190612447565b61054c5760405162461bcd60e51b815260040161037090612d8b565b61056981848b8b8681811061055d57fe5b90506020020135611cd2565b826001600160a01b031663e4e1e5388c8c8581811061058457fe5b90506020020160208101906105999190612354565b8b8b868181106105a557fe5b905060200201358a8a878181106105b857fe5b905060200201356040518463ffffffff1660e01b81526004016105dd93929190612d32565b600060405180830381600087803b1580156105f757600080fd5b505af115801561060b573d6000803e3d6000fd5b50506001909301925061046f915050565b50811561078c57806001600160a01b0316634bb278f36040518163ffffffff1660e01b8152600401600060405180830381600087803b15801561065e57600080fd5b505af1158015610672573d6000803e3d6000fd5b50506040516370a0823160e01b81526001600160a01b038416925063a9059cbb9150339083906370a08231906106ac903090600401612b21565b60206040518083038186803b1580156106c457600080fd5b505afa1580156106d8573d6000803e3d6000fd5b505050506040513d601f19601f820116820180604052508101906106fc91906128df565b6040518363ffffffff1660e01b8152600401610719929190612b59565b602060405180830381600087803b15801561073357600080fd5b505af1158015610747573d6000803e3d6000fd5b505050506040513d601f19601f8201168201806040525081019061076b9190612447565b6107875760405162461bcd60e51b815260040161037090612d8b565b6107ec565b6040516324dacaa960e11b81526001600160a01b038216906349b59552906107b990600190600401612d53565b600060405180830381600087803b1580156107d357600080fd5b505af11580156107e7573d6000803e3d6000fd5b505050505b9998505050505050505050565b6040516324dacaa960e11b81526001600160a01b038316906349b5955290610825908490600401612d53565b600060405180830381600087803b15801561083f57600080fd5b505af1158015610347573d6000803e3d6000fd5b60405163c83a1c2d60e01b81526001600160a01b0383169063c83a1c2d90610825908490600401612b21565b806001600160a01b0316634bb278f36040518163ffffffff1660e01b8152600401600060405180830381600087803b1580156108ba57600080fd5b505af11580156108ce573d6000803e3d6000fd5b50506040516370a0823160e01b81526001600160a01b038416925063a9059cbb9150339083906370a0823190610908903090600401612b21565b60206040518083038186803b15801561092057600080fd5b505afa158015610934573d6000803e3d6000fd5b505050506040513d601f19601f8201168201806040525081019061095891906128df565b6040518363ffffffff1660e01b8152600401610975929190612b59565b602060405180830381600087803b15801561098f57600080fd5b505af11580156109a3573d6000803e3d6000fd5b505050506040513d601f19601f820116820180604052508101906109c79190612447565b6109e35760405162461bcd60e51b815260040161037090612d8b565b50565b6060836001600160a01b031663b64ef17b6040518163ffffffff1660e01b815260040160206040518083038186803b158015610a2157600080fd5b505afa158015610a35573d6000803e3d6000fd5b505050506040513d601f19601f82011682018060405250810190610a599190612682565b6001600160a01b031663cc77828d6040518163ffffffff1660e01b815260040160006040518083038186803b158015610a9157600080fd5b505afa158015610aa5573d6000803e3d6000fd5b505050506040513d6000823e601f3d908101601f19168201604052610acd91908101906123af565b9050610adb84848484611e5c565b50505050565b604051636936674d60e01b81526001600160a01b03831690636936674d90610825908490600401612b21565b6040516392eefe9b60e01b81526001600160a01b038316906392eefe9b90610825908490600401612b21565b6040516347786d3760e01b81526001600160a01b038316906347786d3790610825908490600401612db8565b6060846001600160a01b031663be3bbd2e6040518163ffffffff1660e01b815260040160006040518083038186803b158015610ba057600080fd5b505afa158015610bb4573d6000803e3d6000fd5b505050506040513d6000823e601f3d908101601f19168201604052610bdc91908101906123af565b9050610c1f85828686868080602002602001604051908101604052809392919081815260200183836020028082843760009201919091525033925061187e915050565b5050505050565b6040516334e1990760e01b81526001600160a01b038316906334e1990790610825908490600401612db8565b60405163e2762d4b60e01b81526001600160a01b0383169063e2762d4b90610825908490600401612b21565b604051631b9276c760e21b81526001600160a01b03861690636e49db1c90610cb0908790879087908790600401612b8c565b600060405180830381600087803b158015610cca57600080fd5b505af1158015610cde573d6000803e3d6000fd5b505050505050505050565b6000610cf86060890189612e4b565b9050610d0760408a018a612e4b565b905014610d265760405162461bcd60e51b815260040161037090612d5e565b610d336080890189612e4b565b9050610d4260408a018a612e4b565b905014610d615760405162461bcd60e51b815260040161037090612d5e565b60405163074aa1b960e51b81526001600160a01b038b169063e954372090610d97908c908c908b908b908b908b90600401612bb5565b602060405180830381600087803b158015610db157600080fd5b505af1158015610dc5573d6000803e3d6000fd5b505050506040513d601f19601f82011682018060405250810190610de99190612682565b905060005b610dfb60408a018a612e4b565b9050811015610f14576000610e1360408b018b612e4b565b83818110610e1d57fe5b9050602002016020810190610e329190612354565b90506001600160a01b0381166323b872dd3330610e5260608f018f612e4b565b87818110610e5c57fe5b905060200201356040518463ffffffff1660e01b8152600401610e8193929190612b35565b602060405180830381600087803b158015610e9b57600080fd5b505af1158015610eaf573d6000803e3d6000fd5b505050506040513d601f19601f82011682018060405250810190610ed39190612447565b610eef5760405162461bcd60e51b815260040161037090612d8b565b610f0b8184610f0160608e018e612e4b565b8681811061055d57fe5b50600101610dee565b506001600160a01b038116630892b93d883560208a0135610f3b60608c0160408d016128c0565b866040518563ffffffff1660e01b8152600401610f5b9493929190612e13565b600060405180830381600087803b158015610f7557600080fd5b505af1158015610f89573d6000803e3d6000fd5b505060405163a9059cbb60e01b81526001600160a01b038416925063a9059cbb9150610fbc9033908b3590600401612b59565b602060405180830381600087803b158015610fd657600080fd5b505af1158015610fea573d6000803e3d6000fd5b505050506040513d601f19601f8201168201806040525081019061100e9190612447565b6107ec5760405162461bcd60e51b815260040161037090612d8b565b8483146110495760405162461bcd60e51b815260040161037090612d5e565b8481146110685760405162461bcd60e51b815260040161037090612d5e565b60005b8581101561184857600087878381811061108157fe5b90506020020160208101906110969190612354565b9050886001600160a01b0316632f37b6248989858181106110b357fe5b90506020020160208101906110c89190612354565b6040518263ffffffff1660e01b81526004016110e49190612b21565b60206040518083038186803b1580156110fc57600080fd5b505afa158015611110573d6000803e3d6000fd5b505050506040513d601f19601f820116820180604052508101906111349190612447565b1561154157886001600160a01b031663f8b2cb4f89898581811061115457fe5b90506020020160208101906111699190612354565b6040518263ffffffff1660e01b81526004016111859190612b21565b60206040518083038186803b15801561119d57600080fd5b505afa1580156111b1573d6000803e3d6000fd5b505050506040513d601f19601f820116820180604052508101906111d591906128df565b8686848181106111e157fe5b9050602002013511156113f557806001600160a01b03166323b872dd33308c6001600160a01b031663f8b2cb4f8d8d8981811061121a57fe5b905060200201602081019061122f9190612354565b6040518263ffffffff1660e01b815260040161124b9190612b21565b60206040518083038186803b15801561126357600080fd5b505afa158015611277573d6000803e3d6000fd5b505050506040513d601f19601f8201168201806040525081019061129b91906128df565b8a8a888181106112a757fe5b90506020020135036040518463ffffffff1660e01b81526004016112cd93929190612b35565b602060405180830381600087803b1580156112e757600080fd5b505af11580156112fb573d6000803e3d6000fd5b505050506040513d601f19601f8201168201806040525081019061131f9190612447565b61133b5760405162461bcd60e51b815260040161037090612d8b565b6113f5818a8b6001600160a01b031663f8b2cb4f8c8c8881811061135b57fe5b90506020020160208101906113709190612354565b6040518263ffffffff1660e01b815260040161138c9190612b21565b60206040518083038186803b1580156113a457600080fd5b505afa1580156113b8573d6000803e3d6000fd5b505050506040513d601f19601f820116820180604052508101906113dc91906128df565b8989878181106113e857fe5b9050602002013503611cd2565b620f424086868481811061140557fe5b9050602002013511156114bd57886001600160a01b0316633fdddaa289898581811061142d57fe5b90506020020160208101906114429190612354565b88888681811061144e57fe5b9050602002013587878781811061146157fe5b905060200201356040518463ffffffff1660e01b815260040161148693929190612d32565b600060405180830381600087803b1580156114a057600080fd5b505af11580156114b4573d6000803e3d6000fd5b5050505061153c565b886001600160a01b031663cf5e7bd38989858181106114d857fe5b90506020020160208101906114ed9190612354565b6040518263ffffffff1660e01b81526004016115099190612b21565b600060405180830381600087803b15801561152357600080fd5b505af1158015611537573d6000803e3d6000fd5b505050505b6116a9565b806001600160a01b03166323b872dd333089898781811061155e57fe5b905060200201356040518463ffffffff1660e01b815260040161158393929190612b35565b602060405180830381600087803b15801561159d57600080fd5b505af11580156115b1573d6000803e3d6000fd5b505050506040513d601f19601f820116820180604052508101906115d59190612447565b6115f15760405162461bcd60e51b815260040161037090612d8b565b611602818a88888681811061055d57fe5b886001600160a01b031663e4e1e53889898581811061161d57fe5b90506020020160208101906116329190612354565b88888681811061163e57fe5b9050602002013587878781811061165157fe5b905060200201356040518463ffffffff1660e01b815260040161167693929190612d32565b600060405180830381600087803b15801561169057600080fd5b505af11580156116a4573d6000803e3d6000fd5b505050505b6040516370a0823160e01b81526000906001600160a01b038316906370a08231906116d8903090600401612b21565b60206040518083038186803b1580156116f057600080fd5b505afa158015611704573d6000803e3d6000fd5b505050506040513d601f19601f8201168201806040525081019061172891906128df565b111561183f576040516370a0823160e01b81526001600160a01b0382169063a9059cbb90339083906370a0823190611764903090600401612b21565b60206040518083038186803b15801561177c57600080fd5b505afa158015611790573d6000803e3d6000fd5b505050506040513d601f19601f820116820180604052508101906117b491906128df565b6040518363ffffffff1660e01b81526004016117d1929190612b59565b602060405180830381600087803b1580156117eb57600080fd5b505af11580156117ff573d6000803e3d6000fd5b505050506040513d601f19601f820116820180604052508101906118239190612447565b61183f5760405162461bcd60e51b815260040161037090612d8b565b5060010161106b565b5050505050505050565b60405163edb12adf60e01b81526001600160a01b0383169063edb12adf90610825908490600401612b21565b835182511461189f5760405162461bcd60e51b815260040161037090612d5e565b60005b845181101561199b5760008582815181106118b957fe5b60200260200101519050806001600160a01b03166323b872dd33308786815181106118e057fe5b60200260200101516040518463ffffffff1660e01b815260040161190693929190612b35565b602060405180830381600087803b15801561192057600080fd5b505af1158015611934573d6000803e3d6000fd5b505050506040513d601f19601f820116820180604052508101906119589190612447565b6119745760405162461bcd60e51b815260040161037090612d8b565b611992818886858151811061198557fe5b6020026020010151611cd2565b506001016118a2565b5060405163077df9bd60e31b81526001600160a01b03861690633befcde8906119cc90869086908690600401612de2565b600060405180830381600087803b1580156119e657600080fd5b505af11580156119fa573d6000803e3d6000fd5b5050505060005b8451811015611bc0576000858281518110611a1857fe5b602002602001015190506000816001600160a01b03166370a08231306040518263ffffffff1660e01b8152600401611a509190612b21565b60206040518083038186803b158015611a6857600080fd5b505afa158015611a7c573d6000803e3d6000fd5b505050506040513d601f19601f82011682018060405250810190611aa091906128df565b1115611bb7576040516370a0823160e01b81526001600160a01b0382169063a9059cbb90339083906370a0823190611adc903090600401612b21565b60206040518083038186803b158015611af457600080fd5b505afa158015611b08573d6000803e3d6000fd5b505050506040513d601f19601f82011682018060405250810190611b2c91906128df565b6040518363ffffffff1660e01b8152600401611b49929190612b59565b602060405180830381600087803b158015611b6357600080fd5b505af1158015611b77573d6000803e3d6000fd5b505050506040513d601f19601f82011682018060405250810190611b9b9190612447565b611bb75760405162461bcd60e51b815260040161037090612d8b565b50600101611a01565b506040516370a0823160e01b81526001600160a01b0386169063a9059cbb90339083906370a0823190611bf7903090600401612b21565b60206040518083038186803b158015611c0f57600080fd5b505afa158015611c23573d6000803e3d6000fd5b505050506040513d601f19601f82011682018060405250810190611c4791906128df565b6040518363ffffffff1660e01b8152600401611c64929190612b59565b602060405180830381600087803b158015611c7e57600080fd5b505af1158015611c92573d6000803e3d6000fd5b505050506040513d601f19601f82011682018060405250810190611cb69190612447565b610c1f5760405162461bcd60e51b815260040161037090612d8b565b604051636eb1769f60e11b81526000906001600160a01b0385169063dd62ed3e90611d039030908790600401612b72565b60206040518083038186803b158015611d1b57600080fd5b505afa158015611d2f573d6000803e3d6000fd5b505050506040513d601f19601f82011682018060405250810190611d5391906128df565b1115611ddc5760405163095ea7b360e01b81526001600160a01b0384169063095ea7b390611d88908590600090600401612b59565b602060405180830381600087803b158015611da257600080fd5b505af1158015611db6573d6000803e3d6000fd5b505050506040513d601f19601f82011682018060405250810190611dda9190612447565b505b60405163095ea7b360e01b81526001600160a01b0384169063095ea7b390611e0a9085908590600401612b59565b602060405180830381600087803b158015611e2457600080fd5b505af1158015611e38573d6000803e3d6000fd5b505050506040513d601f19601f82011682018060405250810190610adb9190612447565b6040516370a0823160e01b81526000906001600160a01b038616906370a0823190611e8b903390600401612b21565b60206040518083038186803b158015611ea357600080fd5b505afa158015611eb7573d6000803e3d6000fd5b505050506040513d601f19601f82011682018060405250810190611edb91906128df565b6040516323b872dd60e01b81529091506001600160a01b038616906323b872dd90611f0e90339030908690600401612b35565b602060405180830381600087803b158015611f2857600080fd5b505af1158015611f3c573d6000803e3d6000fd5b505050506040513d601f19601f82011682018060405250810190611f609190612447565b611f7c5760405162461bcd60e51b815260040161037090612d8b565b611f87858683611cd2565b60405163b02f0b7360e01b81526001600160a01b0386169063b02f0b7390611fb59087908790600401612dc1565b600060405180830381600087803b158015611fcf57600080fd5b505af1158015611fe3573d6000803e3d6000fd5b5050505060005b8251811015611bc057600083828151811061200157fe5b602002602001015190506000816001600160a01b03166370a08231306040518263ffffffff1660e01b81526004016120399190612b21565b60206040518083038186803b15801561205157600080fd5b505afa158015612065573d6000803e3d6000fd5b505050506040513d601f19601f8201168201806040525081019061208991906128df565b11156121a0576040516370a0823160e01b81526001600160a01b0382169063a9059cbb90339083906370a08231906120c5903090600401612b21565b60206040518083038186803b1580156120dd57600080fd5b505afa1580156120f1573d6000803e3d6000fd5b505050506040513d601f19601f8201168201806040525081019061211591906128df565b6040518363ffffffff1660e01b8152600401612132929190612b59565b602060405180830381600087803b15801561214c57600080fd5b505af1158015612160573d6000803e3d6000fd5b505050506040513d601f19601f820116820180604052508101906121849190612447565b6121a05760405162461bcd60e51b815260040161037090612d8b565b50600101611fea565b60008083601f8401126121ba578182fd5b5081356001600160401b038111156121d0578182fd5b60208301915083602080830285010111156121ea57600080fd5b9250929050565b600082601f830112612201578081fd5b813561221461220f82612eb7565b612e91565b81815291506020808301908481018184028601820187101561223557600080fd5b60005b8481101561225d57813561224b81612f71565b84529282019290820190600101612238565b505050505092915050565b600082601f830112612278578081fd5b813561228661220f82612eb7565b8181529150602080830190848101818402860182018710156122a757600080fd5b60005b8481101561225d578135845292820192908201906001016122aa565b80356122d181612f71565b92915050565b6000606082840312156122e8578081fd5b50919050565b600061040082840312156122e8578081fd5b600061016082840312156122e8578081fd5b600060408284031215612323578081fd5b61232d6040612e91565b9050813581526020820135602082015292915050565b600060c082840312156122e8578081fd5b600060208284031215612365578081fd5b813561237081612f71565b9392505050565b60008060408385031215612389578081fd5b823561239481612f71565b915060208301356123a481612f71565b809150509250929050565b600060208083850312156123c1578182fd5b82516001600160401b038111156123d6578283fd5b8301601f810185136123e6578283fd5b80516123f461220f82612eb7565b8181528381019083850185840285018601891015612410578687fd5b8694505b8385101561243b57805161242781612f71565b835260019490940193918501918501612414565b50979650505050505050565b600060208284031215612458578081fd5b815161237081612f86565b60008060408385031215612389578182fd5b60008060408385031215612487578182fd5b823561249281612f71565b915060208301356123a481612f86565b600080604083850312156124b4578182fd5b82356124bf81612f71565b946020939093013593505050565b600080600080600080600080600060c08a8c0312156124ea578485fd5b89356124f581612f71565b985060208a01356001600160401b0380821115612510578687fd5b61251c8d838e016121a9565b909a50985060408c0135915080821115612534578687fd5b6125408d838e016121a9565b909850965060608c0135915080821115612558578586fd5b506125658c828d016121a9565b90955093505060808a0135915060a08a013561258081612f86565b809150509295985092959850929598565b60008060008060008060008060006106008a8c0312156125af578283fd5b6125b98b8b6122c6565b98506125c88b60208c016122c6565b975060408a01356001600160401b03808211156125e3578485fd5b6125ef8d838e01612300565b98506125fe8d60608e016122d7565b975061260d8d60c08e01612343565b965061261d8d6101808e016122ee565b95506105808c0135915080821115612633578485fd5b61263f8d838e016121f1565b94506105a08c0135915080821115612655578384fd5b506126628c828d01612268565b9250506126738b6105c08c01612312565b90509295985092959850929598565b600060208284031215612693578081fd5b815161237081612f71565b600080600080600060a086880312156126b5578283fd5b85356126c081612f71565b945060208601356126d081612f71565b935060408601356126e081612f71565b94979396509394606081013594506080013592915050565b60008060008060006080868803121561270f578283fd5b853561271a81612f71565b94506020860135935060408601356001600160401b0381111561273b578384fd5b612747888289016121a9565b909450925050606086013561275b81612f71565b809150509295509295909350565b60008060006060848603121561277d578081fd5b833561278881612f71565b92506020840135915060408401356001600160401b038111156127a9578182fd5b6127b586828701612268565b9150509250925092565b60008060008060008060006080888a0312156127d9578081fd5b87356127e481612f71565b965060208801356001600160401b03808211156127ff578283fd5b61280b8b838c016121a9565b909850965060408a0135915080821115612823578283fd5b61282f8b838c016121a9565b909650945060608a0135915080821115612847578283fd5b506128548a828b016121a9565b989b979a50959850939692959293505050565b6000806000806060858703121561287c578182fd5b843561288781612f71565b93506020850135925060408501356001600160401b038111156128a8578283fd5b6128b4878288016121a9565b95989497509550505050565b6000602082840312156128d1578081fd5b813560038110612370578182fd5b6000602082840312156128f0578081fd5b5051919050565b60008284526020808501945082825b8581101561293457813561291981612f71565b6001600160a01b031687529582019590820190600101612906565b509495945050505050565b6000815180845260208085019450808401835b838110156129345781516001600160a01b031687529582019590820190600101612952565b81835260006001600160fb1b0383111561298f578081fd5b6020830280836020870137939093016020019283525090919050565b6000815180845260208085019450808401835b83811015612934578151875295820195908201906001016129be565b600281106129e457fe5b9052565b60008284528282602086013780602084860101526020601f19601f85011685010190509392505050565b612a1c8282612ad4565b610100612a2d818401828401612ad4565b50610200612a3f818401828401612ad4565b50610300612a51818401828401612ad4565b505050565b8035612a6181612f86565b151582526020810135612a7381612f86565b151560208301526040810135612a8881612f86565b151560408301526060810135612a9d81612f86565b151560608301526080810135612ab281612f86565b1515608083015260a0810135612ac781612f86565b80151560a0840152505050565b612ade8282612b12565b612aee6040830160408301612b12565b612afe6080830160808301612b12565b612b0e60c0830160c08301612b12565b5050565b80358252602090810135910152565b6001600160a01b0391909116815260200190565b6001600160a01b039384168152919092166020820152604081019190915260600190565b6001600160a01b03929092168252602082015260400190565b6001600160a01b0392831681529116602082015260400190565b6001600160a01b0394851681529290931660208301526040820152606081019190915260800190565b6001600160a01b038716815261054060208201819052600090612bd88880612f2d565b61016083860152612bee6106a0860182846129e8565b92505050612bff6020890189612f2d565b61053f198086850301610560870152612c198483856129e8565b9350612c2860408c018c612ed6565b935091508086850301610580870152612c428484846128f7565b9350612c5160608c018c612ed6565b9350915080868503016105a0870152612c6b848484612977565b9350612c7a60808c018c612ed6565b9350915080868503016105c087015250612c95838383612977565b9250505060a08801356105e084015260c088013561060084015260e088013561062084015261010080890135610640850152610120890135610660850152612ce16101408a018a612f1d565b612cef6106808601826129da565b50612cfd6040850189612a56565b612d0981850188612a12565b50828103610500840152612d1d818661293f565b90508281036105208401526107ec81856129ab565b6001600160a01b039390931683526020830191909152604082015260600190565b901515815260200190565b60208082526013908201527208aa4a4be988a9c8ea890be9a92a69a82a8869606b1b604082015260600190565b60208082526013908201527211549497d514905394d1915497d19052531151606a1b604082015260600190565b90815260200190565b600083825260406020830152612dda60408301846129ab565b949350505050565b600084825260606020830152612dfb60608301856129ab565b905060018060a01b0383166040830152949350505050565b8481526020810184905260a0810160038410612e2b57fe5b836040830152825160608301526020830151608083015295945050505050565b6000808335601e19843603018112612e61578283fd5b8301803591506001600160401b03821115612e7a578283fd5b60209081019250810236038213156121ea57600080fd5b6040518181016001600160401b0381118282101715612eaf57600080fd5b604052919050565b60006001600160401b03821115612ecc578081fd5b5060209081020190565b6000808335601e19843603018112612eec578283fd5b83016020810192503590506001600160401b03811115612f0b57600080fd5b6020810236038313156121ea57600080fd5b6000823560028110612370578182fd5b6000808335601e19843603018112612f43578283fd5b83016020810192503590506001600160401b03811115612f6257600080fd5b8036038313156121ea57600080fd5b6001600160a01b03811681146109e357600080fd5b80151581146109e357600080fdfea2646970667358221220433a298cc6ff2a755593e00b1f3cd716f85848139b631d4419326563e9f95e1d64736f6c634300060c0033",
  "libraries": {},
  "devdoc": {
    "kind": "dev",
    "methods": {},
    "version": 1
  },
  "userdoc": {
    "kind": "user",
    "methods": {},
    "version": 1
  },
  "storageLayout": {
    "storage": [],
    "types": null
  }
}