{
  "address": "0x331A540684B6851FC9481f4Ba1db5eb54b9d56D1",
  "abi": [
    {
      "inputs": [
        {
          "internalType": "string",
          "name": "tokenSymbol",
          "type": "string"
        },
        {
          "internalType": "string",
          "name": "tokenName",
          "type": "string"
        }
      ],
      "stateMutability": "nonpayable",
      "type": "constructor"
    },
    {
      "anonymous": false,
      "inputs": [
        {
          "indexed": true,
          "internalType": "address",
          "name": "newAdmin",
          "type": "address"
        },
        {
          "indexed": true,
          "internalType": "uint256",
          "name": "amount",
          "type": "uint256"
        }
      ],
      "name": "AddAdmin",
      "type": "event"
    },
    {
      "anonymous": false,
      "inputs": [
        {
          "indexed": true,
          "internalType": "address",
          "name": "owner",
          "type": "address"
        },
        {
          "indexed": true,
          "internalType": "address",
          "name": "spender",
          "type": "address"
        },
        {
          "indexed": false,
          "internalType": "uint256",
          "name": "value",
          "type": "uint256"
        }
      ],
      "name": "Approval",
      "type": "event"
    },
    {
      "anonymous": false,
      "inputs": [
        {
          "indexed": true,
          "internalType": "address",
          "name": "spender",
          "type": "address"
        },
        {
          "indexed": true,
          "internalType": "uint256",
          "name": "sort",
          "type": "uint256"
        },
        {
          "indexed": true,
          "internalType": "address",
          "name": "caller",
          "type": "address"
        },
        {
          "indexed": false,
          "internalType": "address",
          "name": "token",
          "type": "address"
        }
      ],
      "name": "LOG_DEL_WHITELIST",
      "type": "event"
    },
    {
      "anonymous": false,
      "inputs": [
        {
          "indexed": true,
          "internalType": "address",
          "name": "spender",
          "type": "address"
        },
        {
          "indexed": true,
          "internalType": "uint256",
          "name": "sort",
          "type": "uint256"
        },
        {
          "indexed": true,
          "internalType": "address",
          "name": "caller",
          "type": "address"
        },
        {
          "indexed": false,
          "internalType": "address",
          "name": "token",
          "type": "address"
        }
      ],
      "name": "LOG_WHITELIST",
      "type": "event"
    },
    {
      "anonymous": true,
      "inputs": [
        {
          "indexed": true,
          "internalType": "bytes4",
          "name": "sig",
          "type": "bytes4"
        },
        {
          "indexed": true,
          "internalType": "address",
          "name": "caller",
          "type": "address"
        },
        {
          "indexed": false,
          "internalType": "bytes",
          "name": "data",
          "type": "bytes"
        }
      ],
      "name": "LogCall",
      "type": "event"
    },
    {
      "anonymous": false,
      "inputs": [
        {
          "indexed": true,
          "internalType": "address",
          "name": "caller",
          "type": "address"
        },
        {
          "indexed": true,
          "internalType": "address",
          "name": "tokenOut",
          "type": "address"
        },
        {
          "indexed": false,
          "internalType": "uint256",
          "name": "tokenAmountOut",
          "type": "uint256"
        }
      ],
      "name": "LogExit",
      "type": "event"
    },
    {
      "anonymous": false,
      "inputs": [
        {
          "indexed": true,
          "internalType": "address",
          "name": "caller",
          "type": "address"
        },
        {
          "indexed": true,
          "internalType": "address",
          "name": "tokenIn",
          "type": "address"
        },
        {
          "indexed": false,
          "internalType": "uint256",
          "name": "tokenAmountIn",
          "type": "uint256"
        }
      ],
      "name": "LogJoin",
      "type": "event"
    },
    {
      "anonymous": false,
      "inputs": [
        {
          "indexed": true,
          "internalType": "address",
          "name": "previousOwner",
          "type": "address"
        },
        {
          "indexed": true,
          "internalType": "address",
          "name": "newOwner",
          "type": "address"
        }
      ],
      "name": "OwnershipTransferred",
      "type": "event"
    },
    {
      "anonymous": false,
      "inputs": [
        {
          "indexed": true,
          "internalType": "address",
          "name": "caller",
          "type": "address"
        },
        {
          "indexed": false,
          "internalType": "address",
          "name": "pool",
          "type": "address"
        },
        {
          "indexed": false,
          "internalType": "address",
          "name": "initToken",
          "type": "address"
        },
        {
          "indexed": false,
          "internalType": "uint256",
          "name": "initTokenTotal",
          "type": "uint256"
        },
        {
          "indexed": false,
          "internalType": "uint256",
          "name": "initShare",
          "type": "uint256"
        }
      ],
      "name": "PoolTokenInit",
      "type": "event"
    },
    {
      "anonymous": false,
      "inputs": [
        {
          "indexed": true,
          "internalType": "address",
          "name": "oldAdmin",
          "type": "address"
        },
        {
          "indexed": true,
          "internalType": "uint256",
          "name": "amount",
          "type": "uint256"
        }
      ],
      "name": "RemoveAdmin",
      "type": "event"
    },
    {
      "anonymous": false,
      "inputs": [
        {
          "indexed": true,
          "internalType": "uint256",
          "name": "managerFee",
          "type": "uint256"
        },
        {
          "indexed": true,
          "internalType": "uint256",
          "name": "issueFee",
          "type": "uint256"
        },
        {
          "indexed": true,
          "internalType": "uint256",
          "name": "redeemFee",
          "type": "uint256"
        },
        {
          "indexed": false,
          "internalType": "uint256",
          "name": "perfermanceFee",
          "type": "uint256"
        }
      ],
      "name": "SetManagerFee",
      "type": "event"
    },
    {
      "anonymous": false,
      "inputs": [
        {
          "indexed": true,
          "internalType": "address",
          "name": "caller",
          "type": "address"
        },
        {
          "indexed": true,
          "internalType": "string",
          "name": "sizeType",
          "type": "string"
        },
        {
          "indexed": false,
          "internalType": "uint256",
          "name": "oldSize",
          "type": "uint256"
        },
        {
          "indexed": false,
          "internalType": "uint256",
          "name": "newSize",
          "type": "uint256"
        }
      ],
      "name": "SizeChanged",
      "type": "event"
    },
    {
      "anonymous": false,
      "inputs": [
        {
          "indexed": true,
          "internalType": "address",
          "name": "from",
          "type": "address"
        },
        {
          "indexed": true,
          "internalType": "address",
          "name": "to",
          "type": "address"
        },
        {
          "indexed": false,
          "internalType": "uint256",
          "name": "value",
          "type": "uint256"
        }
      ],
      "name": "Transfer",
      "type": "event"
    },
    {
      "inputs": [],
      "name": "DECIMALS",
      "outputs": [
        {
          "internalType": "uint8",
          "name": "",
          "type": "uint8"
        }
      ],
      "stateMutability": "view",
      "type": "function"
    },
    {
      "inputs": [],
      "name": "NAME",
      "outputs": [
        {
          "internalType": "string",
          "name": "",
          "type": "string"
        }
      ],
      "stateMutability": "view",
      "type": "function"
    },
    {
      "inputs": [
        {
          "internalType": "uint256[]",
          "name": "sort",
          "type": "uint256[]"
        },
        {
          "internalType": "address[]",
          "name": "token",
          "type": "address[]"
        }
      ],
      "name": "addTokenToWhitelist",
      "outputs": [],
      "stateMutability": "nonpayable",
      "type": "function"
    },
    {
      "inputs": [
        {
          "internalType": "address",
          "name": "",
          "type": "address"
        }
      ],
      "name": "adminList",
      "outputs": [
        {
          "internalType": "bool",
          "name": "",
          "type": "bool"
        }
      ],
      "stateMutability": "view",
      "type": "function"
    },
    {
      "inputs": [],
      "name": "allOwnerPercentage",
      "outputs": [
        {
          "internalType": "uint256",
          "name": "",
          "type": "uint256"
        }
      ],
      "stateMutability": "view",
      "type": "function"
    },
    {
      "inputs": [
        {
          "internalType": "address",
          "name": "owner",
          "type": "address"
        },
        {
          "internalType": "address",
          "name": "spender",
          "type": "address"
        }
      ],
      "name": "allowance",
      "outputs": [
        {
          "internalType": "uint256",
          "name": "",
          "type": "uint256"
        }
      ],
      "stateMutability": "view",
      "type": "function"
    },
    {
      "inputs": [
        {
          "internalType": "address",
          "name": "spender",
          "type": "address"
        },
        {
          "internalType": "uint256",
          "name": "amount",
          "type": "uint256"
        }
      ],
      "name": "approve",
      "outputs": [
        {
          "internalType": "bool",
          "name": "",
          "type": "bool"
        }
      ],
      "stateMutability": "nonpayable",
      "type": "function"
    },
    {
      "inputs": [],
      "name": "bFactory",
      "outputs": [
        {
          "internalType": "contract IBFactory",
          "name": "",
          "type": "address"
        }
      ],
      "stateMutability": "view",
      "type": "function"
    },
    {
      "inputs": [],
      "name": "bPool",
      "outputs": [
        {
          "internalType": "contract IBPool",
          "name": "",
          "type": "address"
        }
      ],
      "stateMutability": "view",
      "type": "function"
    },
    {
      "inputs": [
        {
          "internalType": "address",
          "name": "account",
          "type": "address"
        }
      ],
      "name": "balanceOf",
      "outputs": [
        {
          "internalType": "uint256",
          "name": "",
          "type": "uint256"
        }
      ],
      "stateMutability": "view",
      "type": "function"
    },
    {
      "inputs": [
        {
          "internalType": "address",
          "name": "",
          "type": "address"
        }
      ],
      "name": "beginFund",
      "outputs": [
        {
          "internalType": "uint256",
          "name": "etfAmount",
          "type": "uint256"
        },
        {
          "internalType": "uint256",
          "name": "fundAmount",
          "type": "uint256"
        }
      ],
      "stateMutability": "view",
      "type": "function"
    },
    {
      "inputs": [
        {
          "internalType": "uint256",
          "name": "amount",
          "type": "uint256"
        }
      ],
      "name": "burnPoolShareFromLib",
      "outputs": [],
      "stateMutability": "nonpayable",
      "type": "function"
    },
    {
      "inputs": [
        {
          "internalType": "address",
          "name": "provider",
          "type": "address"
        }
      ],
      "name": "canProvideLiquidity",
      "outputs": [
        {
          "internalType": "bool",
          "name": "",
          "type": "bool"
        }
      ],
      "stateMutability": "view",
      "type": "function"
    },
    {
      "inputs": [],
      "name": "claimManagerFee",
      "outputs": [],
      "stateMutability": "nonpayable",
      "type": "function"
    },
    {
      "inputs": [],
      "name": "claimPeriod",
      "outputs": [
        {
          "internalType": "uint256",
          "name": "",
          "type": "uint256"
        }
      ],
      "stateMutability": "view",
      "type": "function"
    },
    {
      "inputs": [
        {
          "internalType": "uint256",
          "name": "initialSupply",
          "type": "uint256"
        },
        {
          "internalType": "uint256",
          "name": "collectPeriod",
          "type": "uint256"
        },
        {
          "internalType": "enum SmartPoolManager.Period",
          "name": "closurePeriod",
          "type": "uint8"
        },
        {
          "components": [
            {
              "internalType": "uint256",
              "name": "bspFloor",
              "type": "uint256"
            },
            {
              "internalType": "uint256",
              "name": "bspCap",
              "type": "uint256"
            }
          ],
          "internalType": "struct SmartPoolManager.PoolTokenRange",
          "name": "tokenRange",
          "type": "tuple"
        }
      ],
      "name": "createPool",
      "outputs": [],
      "stateMutability": "nonpayable",
      "type": "function"
    },
    {
      "inputs": [],
      "name": "decimals",
      "outputs": [
        {
          "internalType": "uint8",
          "name": "",
          "type": "uint8"
        }
      ],
      "stateMutability": "view",
      "type": "function"
    },
    {
      "inputs": [
        {
          "internalType": "address",
          "name": "spender",
          "type": "address"
        },
        {
          "internalType": "uint256",
          "name": "amount",
          "type": "uint256"
        }
      ],
      "name": "decreaseApproval",
      "outputs": [
        {
          "internalType": "bool",
          "name": "",
          "type": "bool"
        }
      ],
      "stateMutability": "nonpayable",
      "type": "function"
    },
    {
      "inputs": [
        {
          "internalType": "address",
          "name": "",
          "type": "address"
        }
      ],
      "name": "endFund",
      "outputs": [
        {
          "internalType": "uint256",
          "name": "etfAmount",
          "type": "uint256"
        },
        {
          "internalType": "uint256",
          "name": "fundAmount",
          "type": "uint256"
        }
      ],
      "stateMutability": "view",
      "type": "function"
    },
    {
      "inputs": [],
      "name": "etfStatus",
      "outputs": [
        {
          "internalType": "uint256",
          "name": "collectPeriod",
          "type": "uint256"
        },
        {
          "internalType": "uint256",
          "name": "collectEndTime",
          "type": "uint256"
        },
        {
          "internalType": "uint256",
          "name": "closurePeriod",
          "type": "uint256"
        },
        {
          "internalType": "uint256",
          "name": "closureEndTime",
          "type": "uint256"
        },
        {
          "internalType": "uint256",
          "name": "upperCap",
          "type": "uint256"
        },
        {
          "internalType": "uint256",
          "name": "floorCap",
          "type": "uint256"
        },
        {
          "internalType": "uint256",
          "name": "managerFee",
          "type": "uint256"
        },
        {
          "internalType": "uint256",
          "name": "redeemFee",
          "type": "uint256"
        },
        {
          "internalType": "uint256",
          "name": "issueFee",
          "type": "uint256"
        },
        {
          "internalType": "uint256",
          "name": "perfermanceFee",
          "type": "uint256"
        },
        {
          "internalType": "uint256",
          "name": "startClaimFeeTime",
          "type": "uint256"
        }
      ],
      "stateMutability": "view",
      "type": "function"
    },
    {
      "inputs": [],
      "name": "etype",
      "outputs": [
        {
          "internalType": "enum SmartPoolManager.Etypes",
          "name": "",
          "type": "uint8"
        }
      ],
      "stateMutability": "view",
      "type": "function"
    },
    {
      "inputs": [
        {
          "internalType": "address",
          "name": "_target",
          "type": "address"
        },
        {
          "internalType": "uint256",
          "name": "_value",
          "type": "uint256"
        },
        {
          "internalType": "bytes",
          "name": "_data",
          "type": "bytes"
        }
      ],
      "name": "execute",
      "outputs": [
        {
          "internalType": "bytes",
          "name": "_returnValue",
          "type": "bytes"
        }
      ],
      "stateMutability": "nonpayable",
      "type": "function"
    },
    {
      "inputs": [
        {
          "internalType": "uint256",
          "name": "poolAmountIn",
          "type": "uint256"
        },
        {
          "internalType": "uint256[]",
          "name": "minAmountsOut",
          "type": "uint256[]"
        }
      ],
      "name": "exitPool",
      "outputs": [],
      "stateMutability": "nonpayable",
      "type": "function"
    },
    {
      "inputs": [],
      "name": "getController",
      "outputs": [
        {
          "internalType": "address",
          "name": "",
          "type": "address"
        }
      ],
      "stateMutability": "view",
      "type": "function"
    },
    {
      "inputs": [],
      "name": "getDesynSafeMathVersion",
      "outputs": [
        {
          "internalType": "address",
          "name": "",
          "type": "address"
        }
      ],
      "stateMutability": "pure",
      "type": "function"
    },
    {
      "inputs": [],
      "name": "getOwnerPercentage",
      "outputs": [
        {
          "internalType": "uint256[]",
          "name": "",
          "type": "uint256[]"
        }
      ],
      "stateMutability": "view",
      "type": "function"
    },
    {
      "inputs": [],
      "name": "getOwners",
      "outputs": [
        {
          "internalType": "address[]",
          "name": "",
          "type": "address[]"
        }
      ],
      "stateMutability": "view",
      "type": "function"
    },
    {
      "inputs": [],
      "name": "getRightsManagerVersion",
      "outputs": [
        {
          "internalType": "address",
          "name": "",
          "type": "address"
        }
      ],
      "stateMutability": "pure",
      "type": "function"
    },
    {
      "inputs": [],
      "name": "getSmartPoolManagerVersion",
      "outputs": [
        {
          "internalType": "address",
          "name": "",
          "type": "address"
        }
      ],
      "stateMutability": "pure",
      "type": "function"
    },
    {
      "inputs": [
        {
          "internalType": "enum RightsManager.Permissions",
          "name": "permission",
          "type": "uint8"
        }
      ],
      "name": "hasPermission",
      "outputs": [
        {
          "internalType": "bool",
          "name": "",
          "type": "bool"
        }
      ],
      "stateMutability": "view",
      "type": "function"
    },
    {
      "inputs": [
        {
          "internalType": "address",
          "name": "spender",
          "type": "address"
        },
        {
          "internalType": "uint256",
          "name": "amount",
          "type": "uint256"
        }
      ],
      "name": "increaseApproval",
      "outputs": [
        {
          "internalType": "bool",
          "name": "",
          "type": "bool"
        }
      ],
      "stateMutability": "nonpayable",
      "type": "function"
    },
    {
      "inputs": [
        {
          "internalType": "address",
          "name": "factoryAddress",
          "type": "address"
        },
        {
          "components": [
            {
              "internalType": "string",
              "name": "poolTokenSymbol",
              "type": "string"
            },
            {
              "internalType": "string",
              "name": "poolTokenName",
              "type": "string"
            },
            {
              "internalType": "address[]",
              "name": "constituentTokens",
              "type": "address[]"
            },
            {
              "internalType": "uint256[]",
              "name": "tokenBalances",
              "type": "uint256[]"
            },
            {
              "internalType": "uint256[]",
              "name": "tokenWeights",
              "type": "uint256[]"
            },
            {
              "internalType": "uint256",
              "name": "swapFee",
              "type": "uint256"
            },
            {
              "internalType": "uint256",
              "name": "managerFee",
              "type": "uint256"
            },
            {
              "internalType": "uint256",
              "name": "redeemFee",
              "type": "uint256"
            },
            {
              "internalType": "uint256",
              "name": "issueFee",
              "type": "uint256"
            },
            {
              "internalType": "uint256",
              "name": "perfermanceFee",
              "type": "uint256"
            },
            {
              "internalType": "enum SmartPoolManager.Etypes",
              "name": "etype",
              "type": "uint8"
            }
          ],
          "internalType": "struct SmartPoolManager.PoolParams",
          "name": "poolParams",
          "type": "tuple"
        },
        {
          "components": [
            {
              "internalType": "bool",
              "name": "canPauseSwapping",
              "type": "bool"
            },
            {
              "internalType": "bool",
              "name": "canChangeSwapFee",
              "type": "bool"
            },
            {
              "internalType": "bool",
              "name": "canChangeWeights",
              "type": "bool"
            },
            {
              "internalType": "bool",
              "name": "canAddRemoveTokens",
              "type": "bool"
            },
            {
              "internalType": "bool",
              "name": "canWhitelistLPs",
              "type": "bool"
            },
            {
              "internalType": "bool",
              "name": "canTokenWhiteLists",
              "type": "bool"
            }
          ],
          "internalType": "struct RightsManager.Rights",
          "name": "rightsStruct",
          "type": "tuple"
        }
      ],
      "name": "init",
      "outputs": [],
      "stateMutability": "nonpayable",
      "type": "function"
    },
    {
      "inputs": [],
      "name": "initBool",
      "outputs": [
        {
          "internalType": "bool",
          "name": "",
          "type": "bool"
        }
      ],
      "stateMutability": "view",
      "type": "function"
    },
    {
      "inputs": [
        {
          "internalType": "address[]",
          "name": "_owners",
          "type": "address[]"
        },
        {
          "internalType": "uint256[]",
          "name": "_ownerPercentage",
          "type": "uint256[]"
        }
      ],
      "name": "initHandle",
      "outputs": [],
      "stateMutability": "nonpayable",
      "type": "function"
    },
    {
      "inputs": [],
      "name": "isCompletedCollect",
      "outputs": [
        {
          "internalType": "bool",
          "name": "",
          "type": "bool"
        }
      ],
      "stateMutability": "view",
      "type": "function"
    },
    {
      "inputs": [
        {
          "internalType": "uint256",
          "name": "poolAmountOut",
          "type": "uint256"
        },
        {
          "internalType": "uint256[]",
          "name": "maxAmountsIn",
          "type": "uint256[]"
        },
        {
          "internalType": "address",
          "name": "kol",
          "type": "address"
        }
      ],
      "name": "joinPool",
      "outputs": [],
      "stateMutability": "nonpayable",
      "type": "function"
    },
    {
      "inputs": [
        {
          "internalType": "uint256",
          "name": "amount",
          "type": "uint256"
        }
      ],
      "name": "mintPoolShareFromLib",
      "outputs": [],
      "stateMutability": "nonpayable",
      "type": "function"
    },
    {
      "inputs": [],
      "name": "name",
      "outputs": [
        {
          "internalType": "string",
          "name": "",
          "type": "string"
        }
      ],
      "stateMutability": "view",
      "type": "function"
    },
    {
      "inputs": [],
      "name": "oracleAddress",
      "outputs": [
        {
          "internalType": "address",
          "name": "",
          "type": "address"
        }
      ],
      "stateMutability": "view",
      "type": "function"
    },
    {
      "inputs": [
        {
          "internalType": "uint256",
          "name": "",
          "type": "uint256"
        }
      ],
      "name": "ownerPercentage",
      "outputs": [
        {
          "internalType": "uint256",
          "name": "",
          "type": "uint256"
        }
      ],
      "stateMutability": "view",
      "type": "function"
    },
    {
      "inputs": [
        {
          "internalType": "uint256",
          "name": "",
          "type": "uint256"
        }
      ],
      "name": "owners",
      "outputs": [
        {
          "internalType": "address",
          "name": "",
          "type": "address"
        }
      ],
      "stateMutability": "view",
      "type": "function"
    },
    {
      "inputs": [
        {
          "internalType": "address",
          "name": "from",
          "type": "address"
        },
        {
          "internalType": "uint256",
          "name": "amount",
          "type": "uint256"
        }
      ],
      "name": "pullPoolShareFromLib",
      "outputs": [],
      "stateMutability": "nonpayable",
      "type": "function"
    },
    {
      "inputs": [
        {
          "internalType": "address",
          "name": "to",
          "type": "address"
        },
        {
          "internalType": "uint256",
          "name": "amount",
          "type": "uint256"
        }
      ],
      "name": "pushPoolShareFromLib",
      "outputs": [],
      "stateMutability": "nonpayable",
      "type": "function"
    },
    {
      "inputs": [
        {
          "internalType": "address",
          "name": "tokenA",
          "type": "address"
        },
        {
          "internalType": "address",
          "name": "tokenB",
          "type": "address"
        },
        {
          "internalType": "uint256",
          "name": "deltaWeight",
          "type": "uint256"
        },
        {
          "internalType": "uint256",
          "name": "minAmountOut",
          "type": "uint256"
        }
      ],
      "name": "rebalance",
      "outputs": [],
      "stateMutability": "nonpayable",
      "type": "function"
    },
    {
      "inputs": [
        {
          "internalType": "address",
          "name": "owner",
          "type": "address"
        }
      ],
      "name": "removeOwner",
      "outputs": [],
      "stateMutability": "nonpayable",
      "type": "function"
    },
    {
      "inputs": [
        {
          "internalType": "address",
          "name": "provider",
          "type": "address"
        }
      ],
      "name": "removeWhitelistedLiquidityProvider",
      "outputs": [],
      "stateMutability": "nonpayable",
      "type": "function"
    },
    {
      "inputs": [],
      "name": "rights",
      "outputs": [
        {
          "internalType": "bool",
          "name": "canPauseSwapping",
          "type": "bool"
        },
        {
          "internalType": "bool",
          "name": "canChangeSwapFee",
          "type": "bool"
        },
        {
          "internalType": "bool",
          "name": "canChangeWeights",
          "type": "bool"
        },
        {
          "internalType": "bool",
          "name": "canAddRemoveTokens",
          "type": "bool"
        },
        {
          "internalType": "bool",
          "name": "canWhitelistLPs",
          "type": "bool"
        },
        {
          "internalType": "bool",
          "name": "canTokenWhiteLists",
          "type": "bool"
        }
      ],
      "stateMutability": "view",
      "type": "function"
    },
    {
      "inputs": [
        {
          "internalType": "address",
          "name": "newOwner",
          "type": "address"
        },
        {
          "internalType": "uint256",
          "name": "_ownerPercentage",
          "type": "uint256"
        }
      ],
      "name": "setAddAdminList",
      "outputs": [],
      "stateMutability": "nonpayable",
      "type": "function"
    },
    {
      "inputs": [
        {
          "internalType": "uint256",
          "name": "newCap",
          "type": "uint256"
        }
      ],
      "name": "setCap",
      "outputs": [],
      "stateMutability": "nonpayable",
      "type": "function"
    },
    {
      "inputs": [
        {
          "internalType": "address",
          "name": "newOwner",
          "type": "address"
        }
      ],
      "name": "setController",
      "outputs": [],
      "stateMutability": "nonpayable",
      "type": "function"
    },
    {
      "inputs": [],
      "name": "symbol",
      "outputs": [
        {
          "internalType": "string",
          "name": "",
          "type": "string"
        }
      ],
      "stateMutability": "view",
      "type": "function"
    },
    {
      "inputs": [],
      "name": "totalSupply",
      "outputs": [
        {
          "internalType": "uint256",
          "name": "",
          "type": "uint256"
        }
      ],
      "stateMutability": "view",
      "type": "function"
    },
    {
      "inputs": [
        {
          "internalType": "address",
          "name": "recipient",
          "type": "address"
        },
        {
          "internalType": "uint256",
          "name": "amount",
          "type": "uint256"
        }
      ],
      "name": "transfer",
      "outputs": [
        {
          "internalType": "bool",
          "name": "",
          "type": "bool"
        }
      ],
      "stateMutability": "nonpayable",
      "type": "function"
    },
    {
      "inputs": [
        {
          "internalType": "address",
          "name": "sender",
          "type": "address"
        },
        {
          "internalType": "address",
          "name": "recipient",
          "type": "address"
        },
        {
          "internalType": "uint256",
          "name": "amount",
          "type": "uint256"
        }
      ],
      "name": "transferFrom",
      "outputs": [
        {
          "internalType": "bool",
          "name": "",
          "type": "bool"
        }
      ],
      "stateMutability": "nonpayable",
      "type": "function"
    },
    {
      "inputs": [],
      "name": "vaultAddress",
      "outputs": [
        {
          "internalType": "address",
          "name": "",
          "type": "address"
        }
      ],
      "stateMutability": "view",
      "type": "function"
    },
    {
      "inputs": [
        {
          "internalType": "address",
          "name": "provider",
          "type": "address"
        }
      ],
      "name": "whitelistLiquidityProvider",
      "outputs": [],
      "stateMutability": "nonpayable",
      "type": "function"
    }
  ],
  "transactionHash": "0x34c7f50b99222c91d48a243e501e0cc7fc5e90c492934a73ca178b529debc7b3",
  "args": [
    "aaaaa",
    "swwsww"
  ],
  "numDeployments": 1,
  "solcInputHash": "d601d84ff848f2a9fda42bd4224c5cc5",
  "bytecode": "0x60806040526103846022553480156200001757600080fd5b5060405162006208380380620062088339810160408190526200003a91620001ce565b815182908290620000539060039060208501906200008b565b508051620000699060049060208401906200008b565b5050600580546001600160a01b0319163317905550506001600b555062000235565b828054600181600116156101000203166002900490600052602060002090601f016020900481019282601f10620000ce57805160ff1916838001178555620000fe565b82800160010185558215620000fe579182015b82811115620000fe578251825591602001919060010190620000e1565b506200010c92915062000110565b5090565b5b808211156200010c576000815560010162000111565b600082601f83011262000138578081fd5b81516001600160401b03808211156200014f578283fd5b6040516020601f8401601f191682018101838111838210171562000171578586fd5b806040525081945083825286818588010111156200018e57600080fd5b600092505b83831015620001b2578583018101518284018201529182019162000193565b83831115620001c45760008185840101525b5050505092915050565b60008060408385031215620001e1578182fd5b82516001600160401b0380821115620001f8578384fd5b620002068683870162000127565b935060208501519150808211156200021c578283fd5b506200022b8582860162000127565b9150509250929050565b615fc380620002456000396000f3fe608060405234801561001057600080fd5b50600436106102985760003560e01c80637228c87b116101635780637228c87b1461049c57806372ba9acd146104bb57806373a9855c146104dc57806374983a0d146104f15780637dc2cd98146104f9578063806c6f871461050157806391a806c91461051457806392eefe9b1461052757806395d89b411461053a578063980e8db614610542578063992f6ba51461055c5780639d829c2b1461056f578063a0e67e2b14610577578063a3f4df7e1461058c578063a6c245c414610594578063a89ae4ba146105a7578063a9059cbb146105af578063b02f0b73146105c2578063b61d27f6146105d5578063b64ef17b146105e8578063c5318d0f146105f0578063c83a1c2d14610603578063d29986c114610616578063d2fed42e1461061e578063d73dd62314610626578063dd62ed3e14610639578063e2762d4b1461064c578063f3b085721461065f57610298565b8063025e7c271461029d57806306fdde03146102c65780630892b93d146102db578063095dcccc146102f0578063095ea7b3146103035780630a16594014610323578063173825d91461032b57806318160ddd1461033e578063220eb7601461035357806323b872dd1461036657806327304dfd146103795780632e0f26251461038c5780633018205f146103a1578063309a042c146103a9578063313ce567146103be57806337c6f4d9146103c65780633befcde8146103d95780633ef14479146103ec578063430bf08a146103ff57806347786d37146104075780634ba578821461041a5780635468d6d71461042d57806355b190551461043557806355c32a231461044857806356fb3bd61461045b57806366188463146104635780636e49db1c1461047657806370a0823114610489575b600080fd5b6102b06102ab366004614f72565b610667565b6040516102bd9190615280565b60405180910390f35b6102ce61068e565b6040516102bd9190615542565b6102ee6102e9366004615047565b610724565b005b6102ee6102fe366004614c4f565b610c56565b610316610311366004614c4f565b610c83565b6040516102bd91906154ab565b6102b0610cdc565b6102ee6103393660046149ef565b610ceb565b610346610f05565b6040516102bd9190615d69565b6102ee610361366004614f72565b610f0b565b610316610374366004614a5f565b610f36565b6103166103873660046149ef565b611060565b610394611075565b6040516102bd9190615e64565b6102b061107a565b6103b1611089565b6040516102bd9190615498565b6103946110e0565b6103166103d4366004614f53565b6110e5565b6102ee6103e7366004614feb565b61117a565b6102ee6103fa366004614d95565b611a95565b6102b0611bee565b6102ee610415366004614f72565b611bfd565b6102ee610428366004614f72565b611d2b565b610316611d53565b6102ee610443366004614ae4565b611d63565b6102ee610456366004614c4f565b612156565b61031661217f565b610316610471366004614c4f565b61218f565b6102ee610484366004614a9f565b612269565b6103466104973660046149ef565b612613565b6104a461262e565b6040516102bd9b9a99989796959493929190615e16565b6104ce6104c93660046149ef565b612652565b6040516102bd929190615d89565b6104e461266b565b6040516102bd9190615791565b6102b0612674565b61034661268c565b61031661050f3660046149ef565b612692565b6104ce6105223660046149ef565b61278b565b6102ee6105353660046149ef565b6127a4565b6102ce61290a565b61054a61296b565b6040516102bd969594939291906154d7565b6102ee61056a366004614c4f565b6129a4565b6102b0612acd565b61057f612ae5565b6040516102bd91906153ee565b6102ce612b46565b6102ee6105a2366004614e78565b612b72565b6102b0612d25565b6103166105bd366004614c4f565b612d34565b6102ee6105d0366004614fa2565b612d70565b6102ce6105e3366004614c7a565b613530565b6102b06136f4565b6103466105fe366004614f72565b613703565b6102ee6106113660046149ef565b613721565b61034661383d565b6102ee613843565b610316610634366004614c4f565b613b27565b610346610647366004614a27565b613b9b565b6102ee61065a3660046149ef565b613bc6565b6102b0613cfb565b6007818154811061067457fe5b6000918252602090912001546001600160a01b0316905081565b60048054604080516020601f600260001961010060018816150201909516949094049384018190048102820181019092528281526060939092909183018282801561071a5780601f106106ef5761010080835404028352916020019161071a565b820191906000526020600020905b8154815290600101906020018083116106fd57829003601f168201915b5050505050905090565b6005546001600160a01b031633146107575760405162461bcd60e51b815260040161074e906157f4565b60405180910390fd5b336001600160a01b03166000356001600160e01b0319166001600160e01b031916600036604051610789929190615526565b60405180910390a26002600b5414156107b45760405162461bcd60e51b815260040161074e90615a3c565b6002600b55600f54604080516358c3de9360e11b815290516001600160a01b039092169163b187bd2691600480820192602092909190829003018186803b1580156107fe57600080fd5b505afa158015610812573d6000803e3d6000fd5b505050506040513d601f19601f820116820180604052508101906108369190614ece565b156108535760405162461bcd60e51b815260040161074e906159f1565b600160275460ff16600181111561086657fe5b1415610c4257601654604051633e9fc0bd60e01b8152730314725E3312e6453f745467572283E617881A8991633e9fc0bd916108a89187918990600401615d97565b60006040518083038186803b1580156108c057600080fd5b505af41580156108d4573d6000803e3d6000fd5b5050601654601754601f805492945090925061091b916000906108f357fe5b9060005260206000200154610915856020015189613d1390919063ffffffff16565b90613d90565b601655601f8054610949919060009061093057fe5b6000918252602090912001548451610915908990613d13565b601755601e805433917f8e15e99837ccd5505c7306f1c665c90b4710600100e4720421a8b2c3e86f4ff49130919060009061098057fe5b6000918252602082200154601f80546001600160a01b039092169290916109a357fe5b90600052602060002001548a6040516109bf9493929190615359565b60405180910390a26040516109d39061525e565b60405190819003812060165490913391600080516020615f2e833981519152916109fe918791615d89565b60405180910390a3604051610a129061526f565b60405190819003812060175490913391600080516020615f2e83398151915291610a3d918691615d89565b60405180910390a3600042860181866002811115610a5757fe5b1415610a67576103849150610a8e565b6001866002811115610a7557fe5b1415610a865762ed4e009150610a8e565b6301da9c0091505b601287905560138190556014829055808201601581905560245460405163108ad9bd60e21b81526000916001600160a01b03169063422b66f490610ada90601e90601f90600401615473565b602060405180830381600087803b158015610af457600080fd5b505af1158015610b08573d6000803e3d6000fd5b505050506040513d601f19601f82011682018060405250810190610b2c9190614f8a565b9050600f60009054906101000a90046001600160a01b03166001600160a01b031663703a9ec96040518163ffffffff1660e01b815260040160206040518083038186803b158015610b7c57600080fd5b505afa158015610b90573d6000803e3d6000fd5b505050506040513d601f19601f82011682018060405250810190610bb49190614a0b565b6001600160a01b031663d7256c703333601e601f6040518563ffffffff1660e01b8152600401610be79493929190615294565b600060405180830381600087803b158015610c0157600080fd5b505af1158015610c15573d6000803e3d6000fd5b505050506000811115610c3b573360009081526025602052604090208a81556001018190555b5050505050505b610c4b84613e21565b50506001600b555050565b333014610c755760405162461bcd60e51b815260040161074e906157f4565b610c7f8282614155565b5050565b3360008181526002602090815260408083206001600160a01b03871680855292528083208590555191929091600080516020615f6e83398151915290610cca908690615d69565b60405180910390a35060015b92915050565b600f546001600160a01b031681565b6005546001600160a01b03163314610d155760405162461bcd60e51b815260040161074e906157f4565b6001600160a01b03811660009081526006602052604090205460ff16610d4d5760405162461bcd60e51b815260040161074e90615847565b6001600160a01b0381166000908152600660205260408120805460ff19169055805b600754811015610e7157826001600160a01b031660078281548110610d9057fe5b6000918252602090912001546001600160a01b03161415610e6957600780546000198101908110610dbd57fe5b600091825260209091200154600780546001600160a01b039092169183908110610de357fe5b9060005260206000200160006101000a8154816001600160a01b0302191690836001600160a01b0316021790555060088181548110610e1e57fe5b90600052602060002001549150600860016008805490500381548110610e4057fe5b906000526020600020015460088281548110610e5857fe5b600091825260209091200155610e71565b600101610d6f565b506007805480610e7d57fe5b600082815260209020810160001990810180546001600160a01b03191690550190556008805480610eaa57fe5b600082815260208120820160001990810182905590910190915560098054839003905560405182916001600160a01b038516917f7b0884b4b6bb4e0c1385ad42168fa556c14d4d799c1bf22f081aff3efff6ea0c9190a35050565b60005490565b333014610f2a5760405162461bcd60e51b815260040161074e906157f4565b610f3381614160565b50565b60006001600160a01b038316610f5e5760405162461bcd60e51b815260040161074e90615923565b336001600160a01b0385161480610f9857506001600160a01b03841660009081526002602090815260408083203384529091529020548211155b610fb45760405162461bcd60e51b815260040161074e90615b5a565b610fbf8484846141c8565b6001600160a01b0384166000818152600260209081526040808320338085529252909120549114801590610ff557506000198114155b15611053576110048184614267565b6001600160a01b03861660008181526002602090815260408083203380855292529182902084905590519092600080516020615f6e8339815191529161104a9190615d69565b60405180910390a35b60019150505b9392505050565b60066020526000908152604090205460ff1681565b601281565b6005546001600160a01b031690565b6060600880548060200260200160405190810160405280929190818152602001828054801561071a57602002820191906000526020600020905b8154815260200190600101908083116110c3575050505050905090565b601290565b6040516322c1aa2560e11b81526000907311D61d0855aCfB43b3C9275b70403EcCC721253690634583544a90611122906011908690600401615cfc565b60206040518083038186803b15801561113a57600080fd5b505af415801561114e573d6000803e3d6000fd5b505050506040513d601f19601f820116820180604052508101906111729190614ece565b90505b919050565b336001600160a01b03166000356001600160e01b0319166001600160e01b0319166000366040516111ac929190615526565b60405180910390a26002600b5414156111d75760405162461bcd60e51b815260040161074e90615a3c565b6002600b556010546001600160a01b03166112045760405162461bcd60e51b815260040161074e90615980565b600f60009054906101000a90046001600160a01b03166001600160a01b031663b187bd266040518163ffffffff1660e01b815260040160206040518083038186803b15801561125257600080fd5b505afa158015611266573d6000803e3d6000fd5b505050506040513d601f19601f8201168201806040525081019061128a9190614ece565b156112a75760405162461bcd60e51b815260040161074e906159f1565b60115460405163806c6f8760e01b8152730314725E3312e6453f745467572283E617881A899163dba4989a91600160201b90910460ff1690309063806c6f87906112f5903390600401615280565b60206040518083038186803b15801561130d57600080fd5b505afa158015611321573d6000803e3d6000fd5b505050506040513d601f19601f820116820180604052508101906113459190614ece565b600160275460ff16600181111561135857fe5b146012600101546040518563ffffffff1660e01b815260040161137e9493929190615507565b60006040518083038186803b15801561139657600080fd5b505af41580156113aa573d6000803e3d6000fd5b5050601154600160281b900460ff161591506113e69050576113ca6142a0565b6113e65760405162461bcd60e51b815260040161074e90615c9e565b601054601a5460405163b78e0bc960e01b8152606092730314725E3312e6453f745467572283E617881A899263b78e0bc9926114399230926001600160a01b03909116918b918b918b919060040161574a565b60006040518083038186803b15801561145157600080fd5b505af4158015611465573d6000803e3d6000fd5b505050506040513d6000823e601f3d908101601f1916820160405261148d9190810190614df5565b90506060601060009054906101000a90046001600160a01b03166001600160a01b031663cc77828d6040518163ffffffff1660e01b815260040160006040518083038186803b1580156114df57600080fd5b505afa1580156114f3573d6000803e3d6000fd5b505050506040513d6000823e601f3d908101601f1916820160405261151b9190810190614cfd565b9050606081516001600160401b038111801561153657600080fd5b50604051908082528060200260200182016040528015611560578160200160208202803683370190505b50601a54909150600090600160275460ff16600181111561157d57fe5b141561170b5760245460405163108ad9bd60e21b81526001600160a01b039091169063422b66f4906115b59087908990600401615401565b602060405180830381600087803b1580156115cf57600080fd5b505af11580156115e3573d6000803e3d6000fd5b505050506040513d601f19601f820116820180604052508101906116079190614f8a565b9150600f60009054906101000a90046001600160a01b03166001600160a01b031663703a9ec96040518163ffffffff1660e01b815260040160206040518083038186803b15801561165757600080fd5b505afa15801561166b573d6000803e3d6000fd5b505050506040513d601f19601f8201168201806040525081019061168f9190614a0b565b6001600160a01b031663d7256c70873387896040518563ffffffff1660e01b81526004016116c0949392919061531b565b600060405180830381600087803b1580156116da57600080fd5b505af11580156116ee573d6000803e3d6000fd5b5050602454600160b01b900460ff161515915061170b9050575060005b60005b8451811015611877576000730314725E3312e6453f745467572283E617881A8963d378778c30601060009054906101000a90046001600160a01b031689868151811061175657fe5b60200260200101518b878151811061176a57fe5b6020026020010151886040518663ffffffff1660e01b815260040161179395949392919061561a565b60206040518083038186803b1580156117ab57600080fd5b505af41580156117bf573d6000803e3d6000fd5b505050506040513d601f19601f820116820180604052508101906117e39190614f8a565b90508582815181106117f157fe5b60200260200101516001600160a01b0316336001600160a01b03167fea39e3b35c5cd8937999ed5f7fbab30acd562a931fc4a887fed2a47c3074aa7289858151811061183957fe5b602002602001015160405161184e9190615d69565b60405180910390a38085838151811061186357fe5b60209081029190910101525060010161170e565b5080156118e857602354604051631483d99d60e01b81526001600160a01b0390911690631483d99d906118b590879087908190600090600401615426565b600060405180830381600087803b1580156118cf57600080fd5b505af11580156118e3573d6000803e3d6000fd5b505050505b6118f189611d4a565b6118fb338a610c75565b811561194257336000908152602560205260409020805461191c908b6142bb565b81553360009081526025602052604090206001015461193b90846142bb565b6001909101555b6000600160275460ff16600181111561195757fe5b1480156119d95750601260050154306001600160a01b03166318160ddd6040518163ffffffff1660e01b815260040160206040518083038186803b15801561199e57600080fd5b505afa1580156119b2573d6000803e3d6000fd5b505050506040513d601f19601f820116820180604052508101906119d69190614f8a565b10155b80156119ef5750602454600160b01b900460ff16155b90508015611a84576024805460ff60b01b1916600160b01b179055601054601a54604051630ff4d58d60e01b8152730314725E3312e6453f745467572283E617881A8992630ff4d58d92611a539230926001600160a01b0316918b9160040161568f565b60006040518083038186803b158015611a6b57600080fd5b505af4158015611a7f573d6000803e3d6000fd5b505050505b50506001600b555050505050505050565b6005546001600160a01b03163314611abf5760405162461bcd60e51b815260040161074e906157f4565b8051825114611ae05760405162461bcd60e51b815260040161074e906159d1565b600a5460ff1615611b035760405162461bcd60e51b815260040161074e9061586e565b60005b8251811015611bb4576000838281518110611b1d57fe5b6020908102919091018101516001600160a01b0381166000908152600690925260409091205490915060ff1615611b665760405162461bcd60e51b815260040161074e906158c4565b828281518110611b7257fe5b6020908102919091018101516009805490910190556001600160a01b039091166000908152600690915260409020805460ff1916600190811790915501611b06565b508151611bc890600790602085019061470d565b508051611bdc906008906020840190614772565b5050600a805460ff1916600117905550565b6023546001600160a01b031681565b336001600160a01b03166000356001600160e01b0319166001600160e01b031916600036604051611c2f929190615526565b60405180910390a26002600b541415611c5a5760405162461bcd60e51b815260040161074e90615a3c565b6002600b556010546001600160a01b0316611c875760405162461bcd60e51b815260040161074e90615980565b6005546001600160a01b03163314611cb15760405162461bcd60e51b815260040161074e906157f4565b600060275460ff166001811115611cc457fe5b14611ce15760405162461bcd60e51b815260040161074e90615cd1565b604051611ced9061525e565b60405190819003812060165490913391600080516020615f2e83398151915291611d1991908690615d89565b60405180910390a36016556001600b55565b333014611d4a5760405162461bcd60e51b815260040161074e906157f4565b610f33816142e0565b602454600160b01b900460ff1681565b730314725E3312e6453f745467572283E617881A896380681cab8360a001518460c001518561010001518660e001518761012001518860600151518960800151518a6040015151602460159054906101000a900460ff166040518a63ffffffff1660e01b8152600401611dde99989796959493929190615dd5565b60006040518083038186803b158015611df657600080fd5b505af4158015611e0a573d6000803e3d6000fd5b50506024805460ff60a81b1916600160a81b17905550508051601180546020808501516040808701516060880151608089015160a08a01511515600160281b0260ff60281b19911515600160201b0260ff60201b1993151563010000000263ff00000019951515620100000262ff0000199815156101000261ff00199d151560ff19909c169b909b179c909c169990991796909616999099179290921695909517949094169190911792909216939093179091558301518051611ed192601e92019061470d565b5060608201518051611eeb91601f91602090910190614772565b5060808201518051611f039160209190820190614772565b506040805161016081018252600080825260208201819052918101829052606081018290526000196080820181905260a0820183905260c08581015190830181905260e0808701519084018190526101008088015190850181905261012080890151908601819052426101409687018190526012889055601388905560148890556015889055601695909555601796909655601892909255601955601a55601b92909255601c919091558201516027805460ff191660018381811115611fc557fe5b0217905550600f80546001600160a01b0319166001600160a01b0385811691909117918290556040805163b18b78dd60e01b81529051929091169163b18b78dd91600480820192602092909190829003018186803b15801561202657600080fd5b505afa15801561203a573d6000803e3d6000fd5b505050506040513d601f19601f8201168201806040525081019061205e9190614a0b565b602480546001600160a01b0319166001600160a01b03928316179055600f54604080516311b2515f60e31b815290519190921691638d928af8916004808301926020929190829003018186803b1580156120b757600080fd5b505afa1580156120cb573d6000803e3d6000fd5b505050506040513d601f19601f820116820180604052508101906120ef9190614a0b565b602380546001600160a01b0319166001600160a01b0392909216919091179055601954601a54601854601b546040517f3d6667963e842e2b5ff1d4feab2c9b92f17c9003592e2ad229952eeb9a293fd09161214991615d69565b60405180910390a4505050565b3330146121755760405162461bcd60e51b815260040161074e906157f4565b610c7f828261430d565b602454600160a81b900460ff1681565b3360009081526002602090815260408083206001600160a01b03861684529091528120548083106121e3573360009081526002602090815260408083206001600160a01b0388168452909152812055612212565b6121ed8184614267565b3360009081526002602090815260408083206001600160a01b03891684529091529020555b3360008181526002602090815260408083206001600160a01b038916808552925291829020549151909291600080516020615f6e833981519152916122579190615d69565b60405180910390a35060019392505050565b336001600160a01b03166000356001600160e01b0319166001600160e01b03191660003660405161229b929190615526565b60405180910390a26002600b5414156122c65760405162461bcd60e51b815260040161074e90615a3c565b6002600b553360009081526006602052604090205460ff16806122f357506005546001600160a01b031633145b61230f5760405162461bcd60e51b815260040161074e906157d1565b6010546001600160a01b03166123375760405162461bcd60e51b815260040161074e90615980565b600f60009054906101000a90046001600160a01b03166001600160a01b031663b187bd266040518163ffffffff1660e01b815260040160206040518083038186803b15801561238557600080fd5b505afa158015612399573d6000803e3d6000fd5b505050506040513d601f19601f820116820180604052508101906123bd9190614ece565b156123da5760405162461bcd60e51b815260040161074e906159f1565b601054602454730314725E3312e6453f745467572283E617881A899163a782948d916001600160a01b0390911690600160b01b900460ff16600160275460ff16600181111561242557fe5b60135460155460115460405160e089901b6001600160e01b031916815261246497969594909414936201000090910460ff16908d908d90600401615555565b60006040518083038186803b15801561247c57600080fd5b505af4158015612490573d6000803e3d6000fd5b5050505061249d83614318565b60235460405163607e58b360e11b81526000916001600160a01b03169063c0fcb166906124ce903090600401615280565b60206040518083038186803b1580156124e657600080fd5b505afa1580156124fa573d6000803e3d6000fd5b505050506040513d601f19601f8201168201806040525081019061251e9190614ece565b905080156125895760235460405163edb12adf60e01b81526001600160a01b039091169063edb12adf90612556903090600401615280565b600060405180830381600087803b15801561257057600080fd5b505af1158015612584573d6000803e3d6000fd5b505050505b6010546040516350884c9160e01b8152730314725E3312e6453f745467572283E617881A89916350884c91916125d79130916001600160a01b03909116908a908a908a908a906004016155e0565b60006040518083038186803b1580156125ef57600080fd5b505af4158015612603573d6000803e3d6000fd5b50506001600b5550505050505050565b6001600160a01b031660009081526001602052604090205490565b601254601354601454601554601654601754601854601954601a54601b54601c548b565b6026602052600090815260409020805460019091015482565b60275460ff1681565b7311D61d0855aCfB43b3C9275b70403EcCC721253690565b60225481565b601154600090600160201b900460ff1615612779576001600160a01b03821660009081526021602052604090205460ff16806126e657506001600160a01b03821660009081526006602052604090205460ff165b806127725750306001600160a01b0316633018205f6040518163ffffffff1660e01b815260040160206040518083038186803b15801561272557600080fd5b505afa158015612739573d6000803e3d6000fd5b505050506040513d601f19601f8201168201806040525081019061275d9190614a0b565b6001600160a01b0316826001600160a01b0316145b9050611175565b506001600160a01b0381161515611175565b6025602052600090815260409020805460019091015482565b6005546001600160a01b031633146127ce5760405162461bcd60e51b815260040161074e906157f4565b6001600160a01b0381166127f45760405162461bcd60e51b815260040161074e90615923565b6005546040516001600160a01b038084169216907f8be0079c531659141344cd1fd0a4f28419497f9722a3daafe3b4186f6b6457e090600090a360005b6007548110156128b857600554600780546001600160a01b03909216918390811061285857fe5b6000918252602090912001546001600160a01b031614156128b057816007828154811061288157fe5b9060005260206000200160006101000a8154816001600160a01b0302191690836001600160a01b031602179055505b600101612831565b50600580546001600160a01b03908116600090815260066020526040808220805460ff1990811690915594909216808252919020805490931660011790925580546001600160a01b0319169091179055565b60038054604080516020601f600260001961010060018816150201909516949094049384018190048102820181019092528281526060939092909183018282801561071a5780601f106106ef5761010080835404028352916020019161071a565b60115460ff80821691610100810482169162010000820481169163010000008104821691600160201b8204811691600160281b90041686565b6005546001600160a01b031633146129ce5760405162461bcd60e51b815260040161074e906157f4565b6001600160a01b03821660009081526006602052604090205460ff1615612a075760405162461bcd60e51b815260040161074e906158c4565b6001600160a01b038216600081815260066020526040808220805460ff19166001908117909155600780548083019091557fa66cc928b5edb82af9bd49922954155ab7b0942694bea4ce44661d9a8736c6880180546001600160a01b0319168517905560088054918201815583527ff3f7a9fe364faab93b216da50a3214154f22a0a2b415b23a84c8169e8b636ee3018490556009805485019055518392917fbd5dcf0b25226117c4a68a0129ffdd4b0541ef5e482ad7de9a96ccb6d6a8ebde91a35050565b730314725E3312e6453f745467572283E617881A8990565b6060600780548060200260200160405190810160405280929190818152602001828054801561071a57602002820191906000526020600020905b81546001600160a01b03168152600190910190602001808311612b1f575050505050905090565b6040518060400160405280601081526020016f11195cde5b8814db585c9d08141bdbdb60821b81525081565b6005546001600160a01b03163314612b9c5760405162461bcd60e51b815260040161074e906157f4565b601154600160281b900460ff168015612bbf5750602454600160a01b900460ff16155b612bdb5760405162461bcd60e51b815260040161074e90615820565b8051825114612bfc5760405162461bcd60e51b815260040161074e90615b8a565b60005b8151811015612d0d57600f5483516000916001600160a01b031690638f49f44d90869085908110612c2c57fe5b6020026020010151858581518110612c4057fe5b60200260200101516040518363ffffffff1660e01b8152600401612c65929190615d72565b60206040518083038186803b158015612c7d57600080fd5b505afa158015612c91573d6000803e3d6000fd5b505050506040513d601f19601f82011682018060405250810190612cb59190614ece565b905080612cd45760405162461bcd60e51b815260040161074e9061594d565b612d04848381518110612ce357fe5b6020026020010151848481518110612cf757fe5b60200260200101516143eb565b50600101612bff565b50506024805460ff60a01b1916600160a01b17905550565b6024546001600160a01b031681565b60006001600160a01b038316612d5c5760405162461bcd60e51b815260040161074e90615923565b612d673384846141c8565b50600192915050565b336001600160a01b03166000356001600160e01b0319166001600160e01b031916600036604051612da2929190615526565b60405180910390a26002600b541415612dcd5760405162461bcd60e51b815260040161074e90615a3c565b6002600b556010546001600160a01b0316612dfa5760405162461bcd60e51b815260040161074e90615980565b600f60009054906101000a90046001600160a01b03166001600160a01b031663b187bd266040518163ffffffff1660e01b815260040160206040518083038186803b158015612e4857600080fd5b505afa158015612e5c573d6000803e3d6000fd5b505050506040513d601f19601f82011682018060405250810190612e809190614ece565b15612e9d5760405162461bcd60e51b815260040161074e906159f1565b6000730314725E3312e6453f745467572283E617881A8963c026fa3d30600160275460ff166001811115612ecd57fe5b60245460155460135433600090815260256020526040908190208054600190910154915160e08a901b6001600160e01b0319168152612f2598979690961495600160b01b90950460ff16949091908e9060040161559f565b60606040518083038186803b158015612f3d57600080fd5b505af4158015612f51573d6000803e3d6000fd5b505050506040513d601f19601f82011682018060405250810190612f7591906150b4565b3360009081526025602052604090819020600181019390935592909155601054915163151c70f960e21b8152909250606091730314725E3312e6453f745467572283E617881A8991635471c3e491612fe19130916001600160a01b03169087908a908a90600401615716565b60006040518083038186803b158015612ff957600080fd5b505af415801561300d573d6000803e3d6000fd5b505050506040513d6000823e601f3d908101601f191682016040526130359190810190614df5565b90506130413383612175565b61304a82610f2a565b6010546040805163cc77828d60e01b815290516060926001600160a01b03169163cc77828d916004808301926000929190829003018186803b15801561308f57600080fd5b505afa1580156130a3573d6000803e3d6000fd5b505050506040513d6000823e601f3d908101601f191682016040526130cb9190810190614cfd565b9050606081516001600160401b03811180156130e657600080fd5b50604051908082528060200260200182016040528015613110578160200160208202803683370190505b506019549091506000908190600160275460ff16600181111561312f57fe5b14156131ee57602454600090600160b01b900460ff1615801561315457506013544210155b9050801561316557600091506131ec565b60245460405163108ad9bd60e21b81526001600160a01b039091169063422b66f4906131979089908b90600401615401565b602060405180830381600087803b1580156131b157600080fd5b505af11580156131c5573d6000803e3d6000fd5b505050506040513d601f19601f820116820180604052508101906131e99190614f8a565b93505b505b82156132c957336000908152602660209081526040808320805460019182015460259094529382902080549101549151633796ed7f60e21b81528b94730314725E3312e6453f745467572283E617881A899463de5bb5fc9461325b94929391929188908c90600401615dad565b60606040518083038186803b15801561327357600080fd5b505af4158015613287573d6000803e3d6000fd5b505050506040513d601f19601f820116820180604052508101906132ab91906150b4565b33600090815260266020526040902060018101929092559190559250505b606085516001600160401b03811180156132e257600080fd5b5060405190808252806020026020018201604052801561330c578160200160208202803683370190505b50905060005b8651811015613494576000806000730314725E3312e6453f745467572283E617881A8963e844db6f30601060009054906101000a90046001600160a01b03168d888151811061335d57fe5b60200260200101518f898151811061337157fe5b60200260200101518b8d6012600901546040518863ffffffff1660e01b81526004016133a3979695949392919061564e565b60606040518083038186803b1580156133bb57600080fd5b505af41580156133cf573d6000803e3d6000fd5b505050506040513d601f19601f820116820180604052508101906133f391906150b4565b9250925092508085858151811061340657fe5b6020026020010181815250508289858151811061341f57fe5b60200260200101818152505089848151811061343757fe5b60200260200101516001600160a01b0316336001600160a01b03167fc62fc35ac75e3bff532648e2859a3e1694002cfa357614ae8e034df7f83db5e9846040516134819190615d69565b60405180910390a3505050600101613312565b50811515806134af57506000831180156134af5750601b5415155b1561351e57602354604051631483d99d60e01b81526001600160a01b0390911690631483d99d906134eb90899089908690600190600401615426565b600060405180830381600087803b15801561350557600080fd5b505af1158015613519573d6000803e3d6000fd5b505050505b50506001600b55505050505050505050565b6060336001600160a01b03166000356001600160e01b0319166001600160e01b031916600036604051613564929190615526565b60405180910390a26002600b54141561358f5760405162461bcd60e51b815260040161074e90615a3c565b6002600b556010546001600160a01b03166135bc5760405162461bcd60e51b815260040161074e90615980565b600f546040516338f0d24560e01b81526001600160a01b03909116906338f0d245906135ee9030903390600401615301565b60206040518083038186803b15801561360657600080fd5b505afa15801561361a573d6000803e3d6000fd5b505050506040513d601f19601f8201168201806040525081019061363e9190614ece565b61365a5760405162461bcd60e51b815260040161074e90615894565b601054604051635b0e93fb60e11b81526001600160a01b039091169063b61d27f69061369090889088908890889060040161539b565b600060405180830381600087803b1580156136aa57600080fd5b505af11580156136be573d6000803e3d6000fd5b505050506040513d6000823e601f3d908101601f191682016040526136e69190810190614eea565b6001600b5595945050505050565b6010546001600160a01b031681565b6008818154811061371057fe5b600091825260209091200154905081565b6005546001600160a01b0316331461374b5760405162461bcd60e51b815260040161074e906157f4565b6002600b54141561376e5760405162461bcd60e51b815260040161074e90615a3c565b6002600b556040513390600080356001600160e01b0319169161379391903690615526565b60405180910390a2601154604051630d3aa47160e41b8152730314725E3312e6453f745467572283E617881A899163d3aa4710916137e391600160201b900460ff169060019086906004016154b6565b60006040518083038186803b1580156137fb57600080fd5b505af415801561380f573d6000803e3d6000fd5b505050506001600160a01b03166000908152602160205260409020805460ff19166001908117909155600b55565b60095481565b336001600160a01b03166000356001600160e01b0319166001600160e01b031916600036604051613875929190615526565b60405180910390a26002600b5414156138a05760405162461bcd60e51b815260040161074e90615a3c565b6002600b553360009081526006602052604090205460ff16806138cd57506005546001600160a01b031633145b6138e95760405162461bcd60e51b815260040161074e906157d1565b6010546001600160a01b03166139115760405162461bcd60e51b815260040161074e90615980565b600160275460ff16600181111561392457fe5b141561395357602454600160b01b900460ff166139535760405162461bcd60e51b815260040161074e906157a5565b6000613964426012600a0154614267565b90506022548110156139885760405162461bcd60e51b815260040161074e90615a61565b6010546040805163cc77828d60e01b815290516060926001600160a01b03169163cc77828d916004808301926000929190829003018186803b1580156139cd57600080fd5b505afa1580156139e1573d6000803e3d6000fd5b505050506040513d6000823e601f3d908101601f19168201604052613a099190810190614cfd565b601054601854602254604051631abc9a6960e11b8152939450606093730314725E3312e6453f745467572283E617881A899363357934d293613a609330936001600160a01b03909316928992918b916004016156cc565b60006040518083038186803b158015613a7857600080fd5b505af4158015613a8c573d6000803e3d6000fd5b505050506040513d6000823e601f3d908101601f19168201604052613ab49190810190614df5565b602354604051630bac7b8160e01b81529192506001600160a01b031690630bac7b8190613ae79085908590600401615401565b600060405180830381600087803b158015613b0157600080fd5b505af1158015613b15573d6000803e3d6000fd5b505042601c5550506001600b55505050565b3360009081526002602090815260408083206001600160a01b0386168452909152812054613b5590836142bb565b3360008181526002602090815260408083206001600160a01b03891680855292529182902084905590519092600080516020615f6e83398151915291610cca9190615d69565b6001600160a01b03918216600090815260026020908152604080832093909416825291909152205490565b6005546001600160a01b03163314613bf05760405162461bcd60e51b815260040161074e906157f4565b6002600b541415613c135760405162461bcd60e51b815260040161074e90615a3c565b6002600b556040513390600080356001600160e01b03191691613c3891903690615526565b60405180910390a26011546001600160a01b03821660009081526021602052604090819020549051630d3aa47160e41b8152730314725E3312e6453f745467572283E617881A899263d3aa471092613ca592600160201b90920460ff9081169291169086906004016154b6565b60006040518083038186803b158015613cbd57600080fd5b505af4158015613cd1573d6000803e3d6000fd5b505050506001600160a01b03166000908152602160205260409020805460ff191690556001600b55565b734E9FA6fE9C793CC0864AB331b2c13EEAeAcd467990565b600082613d2257506000610cd6565b82820282848281613d2f57fe5b0414613d4d5760405162461bcd60e51b815260040161074e90615aa4565b6706f05b59d3b20000810181811015613d785760405162461bcd60e51b815260040161074e90615aa4565b6000670de0b6b3a7640000825b049695505050505050565b600081613daf5760405162461bcd60e51b815260040161074e90615b05565b82613dbc57506000610cd6565b670de0b6b3a764000083810290848281613dd257fe5b0414613df05760405162461bcd60e51b815260040161074e90615a12565b60028304810181811015613e165760405162461bcd60e51b815260040161074e90615a12565b6000848281613d8557fe5b6010546001600160a01b031615613e4a5760405162461bcd60e51b815260040161074e906159a9565b613e5381611d4a565b613e5d3382610c75565b600f60009054906101000a90046001600160a01b03166001600160a01b03166391cefde46040518163ffffffff1660e01b8152600401602060405180830381600087803b158015613ead57600080fd5b505af1158015613ec1573d6000803e3d6000fd5b505050506040513d601f19601f82011682018060405250810190613ee59190614a0b565b601080546001600160a01b0319166001600160a01b03928316179081905560405163d03f2a0f60e01b8152730314725E3312e6453f745467572283E617881A899263d03f2a0f92613f3d929116908590600401615382565b60006040518083038186803b158015613f5557600080fd5b505af4158015613f69573d6000803e3d6000fd5b5050505060005b601e54811015614119576000601e8281548110613f8957fe5b6000918252602082200154601f80546001600160a01b0390921693509084908110613fb057fe5b90600052602060002001549050600060208481548110613fcc57fe5b90600052602060002001549050613fe283614318565b6040516323b872dd60e01b81526000906001600160a01b038516906323b872dd90614015903390309088906004016152dd565b602060405180830381600087803b15801561402f57600080fd5b505af1158015614043573d6000803e3d6000fd5b505050506040513d601f19601f820116820180604052508101906140679190614ece565b9050806140865760405162461bcd60e51b815260040161074e90615bbb565b6010546140a2906001600160a01b0386811691166000196144c5565b50601054604051631c9c3ca760e31b81526001600160a01b039091169063e4e1e538906140d7908790879087906004016153cd565b600060405180830381600087803b1580156140f157600080fd5b505af1158015614105573d6000803e3d6000fd5b505060019096019550613f70945050505050565b505b601e5415610f3357601e80548061412e57fe5b600082815260209020810160001990810180546001600160a01b031916905501905561411b565b610c7f3083836141c8565b3060009081526001602052604090205461417a9082614267565b30600090815260016020526040812091909155546141989082614267565b60009081556040513090600080516020615f4e833981519152906141bd908590615d69565b60405180910390a350565b6001600160a01b0383166000908152600160205260409020546141eb9082614267565b6001600160a01b03808516600090815260016020526040808220939093559084168152205461421a90826142bb565b6001600160a01b038084166000818152600160205260409081902093909355915190851690600080516020615f4e8339815191529061425a908590615d69565b60405180910390a3505050565b6000806000614276858561466c565b9150915080156142985760405162461bcd60e51b815260040161074e90615c49565b509392505050565b6000600c546000146142b35760016142b6565b60005b905090565b6000828201838110156110595760405162461bcd60e51b815260040161074e90615c74565b6142e981614691565b6016546000541115610f335760405162461bcd60e51b815260040161074e90615b2b565b610c7f8230836141c8565b600f5460405163db7ca46b60e01b81526001600160a01b039091169063db7ca46b90614348908490600401615280565b60206040518083038186803b15801561436057600080fd5b505afa158015614374573d6000803e3d6000fd5b505050506040513d601f19601f820116820180604052508101906143989190614ece565b6143b45760405162461bcd60e51b815260040161074e90615ace565b602454600160a01b900460ff1615610f33576143cf816146ef565b610f335760405162461bcd60e51b815260040161074e906158ee565b6001600160a01b0381166144115760405162461bcd60e51b815260040161074e90615be4565b61441a816146ef565b156144375760405162461bcd60e51b815260040161074e90615c17565b6000828152600e602090815260408083206001600160a01b038516845282528083208054600160ff199182168117909255600d9093529281902080549092168317909155600c8054909201909155513390839030907f5ab6a0d7af8e86f78c34acea4f8aff1be027227ce1bc29e03f57f39b788f4b04906144b9908690615280565b60405180910390a45050565b600080846001600160a01b031663dd62ed3e30866040518363ffffffff1660e01b81526004016144f6929190615301565b60206040518083038186803b15801561450e57600080fd5b505afa158015614522573d6000803e3d6000fd5b505050506040513d601f19601f820116820180604052508101906145469190614f8a565b90508281141561455a576001915050611059565b80156145e35760405163095ea7b360e01b81526001600160a01b0386169063095ea7b39061458f908790600090600401615382565b602060405180830381600087803b1580156145a957600080fd5b505af11580156145bd573d6000803e3d6000fd5b505050506040513d601f19601f820116820180604052508101906145e19190614ece565b505b60405163095ea7b360e01b81526001600160a01b0386169063095ea7b3906146119087908790600401615382565b602060405180830381600087803b15801561462b57600080fd5b505af115801561463f573d6000803e3d6000fd5b505050506040513d601f19601f820116820180604052508101906146639190614ece565b95945050505050565b600080838311614682575050808203600061468a565b505081810360015b9250929050565b306000908152600160205260409020546146ab90826142bb565b30600090815260016020526040812091909155546146c990826142bb565b6000908155604051309190600080516020615f4e833981519152906141bd908590615d69565b6001600160a01b03166000908152600d602052604090205460ff1690565b828054828255906000526020600020908101928215614762579160200282015b8281111561476257825182546001600160a01b0319166001600160a01b0390911617825560209092019160019091019061472d565b5061476e9291506147b9565b5090565b8280548282559060005260206000209081019282156147ad579160200282015b828111156147ad578251825591602001919060010190614792565b5061476e9291506147d8565b5b8082111561476e5780546001600160a01b03191681556001016147ba565b5b8082111561476e57600081556001016147d9565b600082601f8301126147fd578081fd5b813561481061480b82615e98565b615e72565b81815291506020808301908481018184028601820187101561483157600080fd5b60005b8481101561485957813561484781615f0a565b84529282019290820190600101614834565b505050505092915050565b60008083601f840112614875578182fd5b5081356001600160401b0381111561488b578182fd5b602083019150836020808302850101111561468a57600080fd5b600082601f8301126148b5578081fd5b81356148c361480b82615e98565b8181529150602080830190848101818402860182018710156148e457600080fd5b60005b84811015614859578135845292820192908201906001016148e7565b803560028110610cd657600080fd5b600082601f830112614922578081fd5b813561493061480b82615eb7565b915080825283602082850101111561494757600080fd5b8060208401602084013760009082016020015292915050565b600060c08284031215614971578081fd5b61497b60c0615e72565b9050813561498881615f1f565b8152602082013561499881615f1f565b602082015260408201356149ab81615f1f565b604082015260608201356149be81615f1f565b606082015260808201356149d181615f1f565b608082015260a08201356149e481615f1f565b60a082015292915050565b600060208284031215614a00578081fd5b813561105981615f0a565b600060208284031215614a1c578081fd5b815161105981615f0a565b60008060408385031215614a39578081fd5b8235614a4481615f0a565b91506020830135614a5481615f0a565b809150509250929050565b600080600060608486031215614a73578081fd5b8335614a7e81615f0a565b92506020840135614a8e81615f0a565b929592945050506040919091013590565b60008060008060808587031215614ab4578182fd5b8435614abf81615f0a565b93506020850135614acf81615f0a565b93969395505050506040820135916060013590565b6000806000610100808587031215614afa578182fd5b8435614b0581615f0a565b935060208501356001600160401b0380821115614b20578384fd5b818701915061016080838a031215614b36578485fd5b614b3f81615e72565b9050823582811115614b4f578586fd5b614b5b8a828601614912565b825250602083013582811115614b6f578586fd5b614b7b8a828601614912565b602083015250604083013582811115614b92578586fd5b614b9e8a8286016147ed565b604083015250606083013582811115614bb5578586fd5b614bc18a8286016148a5565b606083015250608083013582811115614bd8578586fd5b614be48a8286016148a5565b60808301525060a083013560a082015260c083013560c082015260e083013560e08201528383013584820152610120935083830135848201526101409350614c2e89858501614903565b8482015280955050505050614c468560408601614960565b90509250925092565b60008060408385031215614c61578182fd5b8235614c6c81615f0a565b946020939093013593505050565b60008060008060608587031215614c8f578182fd5b8435614c9a81615f0a565b93506020850135925060408501356001600160401b0380821115614cbc578384fd5b818701915087601f830112614ccf578384fd5b813581811115614cdd578485fd5b886020828501011115614cee578485fd5b95989497505060200194505050565b60006020808385031215614d0f578182fd5b82516001600160401b03811115614d24578283fd5b8301601f81018513614d34578283fd5b8051614d4261480b82615e98565b8181528381019083850185840285018601891015614d5e578687fd5b8694505b83851015614d89578051614d7581615f0a565b835260019490940193918501918501614d62565b50979650505050505050565b60008060408385031215614da7578182fd5b82356001600160401b0380821115614dbd578384fd5b614dc9868387016147ed565b93506020850135915080821115614dde578283fd5b50614deb858286016148a5565b9150509250929050565b60006020808385031215614e07578182fd5b82516001600160401b03811115614e1c578283fd5b8301601f81018513614e2c578283fd5b8051614e3a61480b82615e98565b8181528381019083850185840285018601891015614e56578687fd5b8694505b83851015614d89578051835260019490940193918501918501614e5a565b60008060408385031215614e8a578182fd5b82356001600160401b0380821115614ea0578384fd5b614eac868387016148a5565b93506020850135915080821115614ec1578283fd5b50614deb858286016147ed565b600060208284031215614edf578081fd5b815161105981615f1f565b600060208284031215614efb578081fd5b81516001600160401b03811115614f10578182fd5b8201601f81018413614f20578182fd5b8051614f2e61480b82615eb7565b818152856020838501011115614f42578384fd5b614663826020830160208601615eda565b600060208284031215614f64578081fd5b813560068110611059578182fd5b600060208284031215614f83578081fd5b5035919050565b600060208284031215614f9b578081fd5b5051919050565b600080600060408486031215614fb6578081fd5b8335925060208401356001600160401b03811115614fd2578182fd5b614fde86828701614864565b9497909650939450505050565b60008060008060608587031215615000578182fd5b8435935060208501356001600160401b0381111561501c578283fd5b61502887828801614864565b909450925050604085013561503c81615f0a565b939692955090935050565b60008060008084860360a081121561505d578283fd5b8535945060208601359350604086013560038110615079578384fd5b92506040605f198201121561508c578182fd5b506150976040615e72565b606086013581526080909501356020860152509194909350909190565b6000806000606084860312156150c8578081fd5b8351925060208401519150604084015190509250925092565b6000815180845260208085019450808401835b838110156151195781516001600160a01b0316875295820195908201906001016150f4565b509495945050505050565b6000815480845260208085019450838352808320835b838110156151195781546001600160a01b03168752958201956001918201910161513a565b81835260006001600160fb1b03831115615177578081fd5b6020830280836020870137939093016020019283525090919050565b6000815180845260208085019450808401835b83811015615119578151875295820195908201906001016151a6565b6000815480845260208085019450838352808320835b83811015615119578154875295820195600191820191016151d8565b15159052565b60008284528282602086013780602084860101526020601f19601f85011685010190509392505050565b6000815180845261523c816020860160208601615eda565b601f01601f19169290920160200192915050565b6006811061525a57fe5b9052565b642aa82822a960d91b815260050190565b64232627a7a960d91b815260050190565b6001600160a01b0391909116815260200190565b6001600160a01b038581168252841660208201526080604082018190526000906152c090830185615124565b82810360608401526152d281856151c2565b979650505050505050565b6001600160a01b039384168152919092166020820152604081019190915260600190565b6001600160a01b0392831681529116602082015260400190565b6001600160a01b03858116825284166020820152608060408201819052600090615347908301856150e1565b82810360608401526152d28185615193565b6001600160a01b0394851681529290931660208301526040820152606081019190915260800190565b6001600160a01b03929092168252602082015260400190565b600060018060a01b0386168252846020830152606060408301526153c36060830184866151fa565b9695505050505050565b6001600160a01b039390931683526020830191909152604082015260600190565b60006020825261105960208301846150e1565b60006040825261541460408301856150e1565b82810360208401526146638185615193565b60006080825261543960808301876150e1565b828103602084015261544b8187615193565b9050828103604084015261545f8186615193565b915050821515606083015295945050505050565b6000604082526154866040830185615124565b828103602084015261466381856151c2565b6000602082526110596020830184615193565b901515815260200190565b921515835290151560208301526001600160a01b0316604082015260600190565b9515158652931515602086015291151560408501521515606084015215156080830152151560a082015260c00190565b9315158452911515602084015215156040830152606082015260800190565b60006020825261553a6020830184866151fa565b949350505050565b6000602082526110596020830184615224565b6001600160a01b0398891681529615156020880152941515604087015260608601939093526080850191909152151560a0840152831660c083015290911660e08201526101000190565b6001600160a01b03989098168852951515602088015293151560408701526060860192909252608085015260a084015260c083015260e08201526101000190565b6001600160a01b0396871681529486166020860152928516604085015293166060830152608082019290925260a081019190915260c00190565b6001600160a01b03958616815293851660208501529190931660408301526060820192909252608081019190915260a00190565b6001600160a01b03978816815295871660208701529390951660408501526060840191909152608083015260a082019290925260c081019190915260e00190565b6001600160a01b038581168252841660208201526080604082018190526000906156bb908301856150e1565b905082606083015295945050505050565b6001600160a01b0387811682528616602082015260c0604082018190526000906156f8908301876150e1565b606083019590955250608081019290925260a0909101529392505050565b6001600160a01b03868116825285166020820152604081018490526080606082018190526000906152d2908301848661515f565b6001600160a01b038781168252861660208201526040810185905260a06060820181905260009061577e908301858761515f565b9050826080830152979650505050505050565b602081016002831061579f57fe5b91905290565b602080825260129082015271436f6c6c656374696f6e206661696c65642160701b604082015260600190565b60208082526009908201526837b7363ca0b236b4b760b91b604082015260600190565b60208082526012908201527122a9292fa727aa2fa1a7a72a2927a62622a960711b604082015260600190565b6020808252600d908201526c4552525f4e4f5f52494748545360981b604082015260600190565b6020808252600d908201526c22a9292fa727aa2fa7aba722a960991b604082015260600190565b6020808252600c908201526b696e697469616c697a65642160a01b604082015260600190565b60208082526016908201527526a7a22aa6229024a9902727aa102922a3a4a9aa22a960511b604082015260600190565b60208082526010908201526f20b2323932b9b99034b99027bbb732b960811b604082015260600190565b6020808252601b908201527a11549497d393d517d5d212551157d513d2d15397d25397d413d3d3602a1b604082015260600190565b60208082526010908201526f4552525f5a45524f5f4144445245535360801b604082015260600190565b602080825260199082015278544f4b454e5f4d5553545f494e5f57484954455f4c4953545360381b604082015260600190565b6020808252600f908201526e11549497d393d517d0d49150551151608a1b604082015260600190565b6020808252600e908201526d11549497d254d7d0d4915055115160921b604082015260600190565b60208082526006908201526506f776e6572560d41b604082015260600190565b602080825260079082015266085c185d5cd95960ca1b604082015260600190565b60208082526010908201526f11549497d1125597d25395115493905360821b604082015260600190565b6020808252600b908201526a4552525f5245454e54525960a81b604082015260600190565b60208082526023908201527f54686520636f6c6c656374696f6e206379636c65206973206e6f7420726561636040820152621a195960ea1b606082015260800190565b60208082526010908201526f4552525f4d554c5f4f564552464c4f5760801b604082015260600190565b6020808252601e908201527f4552525f4e4f545f57484954455f544f4b454e5f494e5f464143544f52590000604082015260600190565b6020808252600c908201526b4552525f4449565f5a45524f60a01b604082015260600190565b60208082526015908201527411549497d0d05417d31253525517d4915050d21151605a1b604082015260600190565b60208082526016908201527522a9292fa821aa27a5a2a72fa120a22fa1a0a62622a960511b604082015260600190565b60208082526017908201527608aa4a4bea69ea4a8bea89e968a9cbe9a92a69a82a8869604b1b604082015260600190565b6020808252600f908201526e4552525f45524332305f46414c534560881b604082015260600190565b6020808252601990820152784552525f494e56414c49445f544f4b454e5f4144445245535360381b604082015260600190565b6020808252601890820152774552525f4841535f4245454e5f41444445445f574849544560401b604082015260600190565b6020808252601190820152704552525f5355425f554e444552464c4f5760781b604082015260600190565b60208082526010908201526f4552525f4144445f4f564552464c4f5760801b604082015260600190565b60208082526019908201527822a9292fa9a427aaa6222fa9a2aa2faba424aa22aa27a5a2a760391b604082015260600190565b60208082526011908201527022a9292fa6aaa9aa2fa7a822a72fa2aa2360791b604082015260600190565b600060e082019050835460ff80821615158452808260081c1615156020850152808260101c1615156040850152808260181c1615156060850152615d4860808501828460201c166151f4565b615d5a60a08501828460281c166151f4565b505061105960c0830184615250565b90815260200190565b9182526001600160a01b0316602082015260400190565b918252602082015260400190565b9283526020830191909152604082015260600190565b958652602086019490945260408501929092526060840152608083015260a082015260c00190565b988952602089019790975260408801959095526060870193909352608086019190915260a085015260c084015260e083015215156101008201526101200190565b9a8b5260208b019990995260408a01979097526060890195909552608088019390935260a087019190915260c086015260e08501526101008401526101208301526101408201526101600190565b60ff91909116815260200190565b6040518181016001600160401b0381118282101715615e9057600080fd5b604052919050565b60006001600160401b03821115615ead578081fd5b5060209081020190565b60006001600160401b03821115615ecc578081fd5b50601f01601f191660200190565b60005b83811015615ef5578181015183820152602001615edd565b83811115615f04576000848401525b50505050565b6001600160a01b0381168114610f3357600080fd5b8015158114610f3357600080fdfecc86385c52bf4aeaa8583735b29e4a0abc0c5489fae93dbaef02bd838c2d297dddf252ad1be2c89b69c2b068fc378daa952ba7f163c4a11628f55a4df523b3ef8c5be1e5ebec7d5bd14f71427d1e84f3dd0314c0f7b2291e5b200ac8c7c3b925a26469706673582212202605171825cedd191e05ea76422fe29415a8310ac027f4b8a0b6a1b91c42cf7964736f6c634300060c0033",
  "deployedBytecode": "0x608060405234801561001057600080fd5b50600436106102985760003560e01c80637228c87b116101635780637228c87b1461049c57806372ba9acd146104bb57806373a9855c146104dc57806374983a0d146104f15780637dc2cd98146104f9578063806c6f871461050157806391a806c91461051457806392eefe9b1461052757806395d89b411461053a578063980e8db614610542578063992f6ba51461055c5780639d829c2b1461056f578063a0e67e2b14610577578063a3f4df7e1461058c578063a6c245c414610594578063a89ae4ba146105a7578063a9059cbb146105af578063b02f0b73146105c2578063b61d27f6146105d5578063b64ef17b146105e8578063c5318d0f146105f0578063c83a1c2d14610603578063d29986c114610616578063d2fed42e1461061e578063d73dd62314610626578063dd62ed3e14610639578063e2762d4b1461064c578063f3b085721461065f57610298565b8063025e7c271461029d57806306fdde03146102c65780630892b93d146102db578063095dcccc146102f0578063095ea7b3146103035780630a16594014610323578063173825d91461032b57806318160ddd1461033e578063220eb7601461035357806323b872dd1461036657806327304dfd146103795780632e0f26251461038c5780633018205f146103a1578063309a042c146103a9578063313ce567146103be57806337c6f4d9146103c65780633befcde8146103d95780633ef14479146103ec578063430bf08a146103ff57806347786d37146104075780634ba578821461041a5780635468d6d71461042d57806355b190551461043557806355c32a231461044857806356fb3bd61461045b57806366188463146104635780636e49db1c1461047657806370a0823114610489575b600080fd5b6102b06102ab366004614f72565b610667565b6040516102bd9190615280565b60405180910390f35b6102ce61068e565b6040516102bd9190615542565b6102ee6102e9366004615047565b610724565b005b6102ee6102fe366004614c4f565b610c56565b610316610311366004614c4f565b610c83565b6040516102bd91906154ab565b6102b0610cdc565b6102ee6103393660046149ef565b610ceb565b610346610f05565b6040516102bd9190615d69565b6102ee610361366004614f72565b610f0b565b610316610374366004614a5f565b610f36565b6103166103873660046149ef565b611060565b610394611075565b6040516102bd9190615e64565b6102b061107a565b6103b1611089565b6040516102bd9190615498565b6103946110e0565b6103166103d4366004614f53565b6110e5565b6102ee6103e7366004614feb565b61117a565b6102ee6103fa366004614d95565b611a95565b6102b0611bee565b6102ee610415366004614f72565b611bfd565b6102ee610428366004614f72565b611d2b565b610316611d53565b6102ee610443366004614ae4565b611d63565b6102ee610456366004614c4f565b612156565b61031661217f565b610316610471366004614c4f565b61218f565b6102ee610484366004614a9f565b612269565b6103466104973660046149ef565b612613565b6104a461262e565b6040516102bd9b9a99989796959493929190615e16565b6104ce6104c93660046149ef565b612652565b6040516102bd929190615d89565b6104e461266b565b6040516102bd9190615791565b6102b0612674565b61034661268c565b61031661050f3660046149ef565b612692565b6104ce6105223660046149ef565b61278b565b6102ee6105353660046149ef565b6127a4565b6102ce61290a565b61054a61296b565b6040516102bd969594939291906154d7565b6102ee61056a366004614c4f565b6129a4565b6102b0612acd565b61057f612ae5565b6040516102bd91906153ee565b6102ce612b46565b6102ee6105a2366004614e78565b612b72565b6102b0612d25565b6103166105bd366004614c4f565b612d34565b6102ee6105d0366004614fa2565b612d70565b6102ce6105e3366004614c7a565b613530565b6102b06136f4565b6103466105fe366004614f72565b613703565b6102ee6106113660046149ef565b613721565b61034661383d565b6102ee613843565b610316610634366004614c4f565b613b27565b610346610647366004614a27565b613b9b565b6102ee61065a3660046149ef565b613bc6565b6102b0613cfb565b6007818154811061067457fe5b6000918252602090912001546001600160a01b0316905081565b60048054604080516020601f600260001961010060018816150201909516949094049384018190048102820181019092528281526060939092909183018282801561071a5780601f106106ef5761010080835404028352916020019161071a565b820191906000526020600020905b8154815290600101906020018083116106fd57829003601f168201915b5050505050905090565b6005546001600160a01b031633146107575760405162461bcd60e51b815260040161074e906157f4565b60405180910390fd5b336001600160a01b03166000356001600160e01b0319166001600160e01b031916600036604051610789929190615526565b60405180910390a26002600b5414156107b45760405162461bcd60e51b815260040161074e90615a3c565b6002600b55600f54604080516358c3de9360e11b815290516001600160a01b039092169163b187bd2691600480820192602092909190829003018186803b1580156107fe57600080fd5b505afa158015610812573d6000803e3d6000fd5b505050506040513d601f19601f820116820180604052508101906108369190614ece565b156108535760405162461bcd60e51b815260040161074e906159f1565b600160275460ff16600181111561086657fe5b1415610c4257601654604051633e9fc0bd60e01b815273__$c61de259b17579437cb458fbe4ba8c0f49$__91633e9fc0bd916108a89187918990600401615d97565b60006040518083038186803b1580156108c057600080fd5b505af41580156108d4573d6000803e3d6000fd5b5050601654601754601f805492945090925061091b916000906108f357fe5b9060005260206000200154610915856020015189613d1390919063ffffffff16565b90613d90565b601655601f8054610949919060009061093057fe5b6000918252602090912001548451610915908990613d13565b601755601e805433917f8e15e99837ccd5505c7306f1c665c90b4710600100e4720421a8b2c3e86f4ff49130919060009061098057fe5b6000918252602082200154601f80546001600160a01b039092169290916109a357fe5b90600052602060002001548a6040516109bf9493929190615359565b60405180910390a26040516109d39061525e565b60405190819003812060165490913391600080516020615f2e833981519152916109fe918791615d89565b60405180910390a3604051610a129061526f565b60405190819003812060175490913391600080516020615f2e83398151915291610a3d918691615d89565b60405180910390a3600042860181866002811115610a5757fe5b1415610a67576103849150610a8e565b6001866002811115610a7557fe5b1415610a865762ed4e009150610a8e565b6301da9c0091505b601287905560138190556014829055808201601581905560245460405163108ad9bd60e21b81526000916001600160a01b03169063422b66f490610ada90601e90601f90600401615473565b602060405180830381600087803b158015610af457600080fd5b505af1158015610b08573d6000803e3d6000fd5b505050506040513d601f19601f82011682018060405250810190610b2c9190614f8a565b9050600f60009054906101000a90046001600160a01b03166001600160a01b031663703a9ec96040518163ffffffff1660e01b815260040160206040518083038186803b158015610b7c57600080fd5b505afa158015610b90573d6000803e3d6000fd5b505050506040513d601f19601f82011682018060405250810190610bb49190614a0b565b6001600160a01b031663d7256c703333601e601f6040518563ffffffff1660e01b8152600401610be79493929190615294565b600060405180830381600087803b158015610c0157600080fd5b505af1158015610c15573d6000803e3d6000fd5b505050506000811115610c3b573360009081526025602052604090208a81556001018190555b5050505050505b610c4b84613e21565b50506001600b555050565b333014610c755760405162461bcd60e51b815260040161074e906157f4565b610c7f8282614155565b5050565b3360008181526002602090815260408083206001600160a01b03871680855292528083208590555191929091600080516020615f6e83398151915290610cca908690615d69565b60405180910390a35060015b92915050565b600f546001600160a01b031681565b6005546001600160a01b03163314610d155760405162461bcd60e51b815260040161074e906157f4565b6001600160a01b03811660009081526006602052604090205460ff16610d4d5760405162461bcd60e51b815260040161074e90615847565b6001600160a01b0381166000908152600660205260408120805460ff19169055805b600754811015610e7157826001600160a01b031660078281548110610d9057fe5b6000918252602090912001546001600160a01b03161415610e6957600780546000198101908110610dbd57fe5b600091825260209091200154600780546001600160a01b039092169183908110610de357fe5b9060005260206000200160006101000a8154816001600160a01b0302191690836001600160a01b0316021790555060088181548110610e1e57fe5b90600052602060002001549150600860016008805490500381548110610e4057fe5b906000526020600020015460088281548110610e5857fe5b600091825260209091200155610e71565b600101610d6f565b506007805480610e7d57fe5b600082815260209020810160001990810180546001600160a01b03191690550190556008805480610eaa57fe5b600082815260208120820160001990810182905590910190915560098054839003905560405182916001600160a01b038516917f7b0884b4b6bb4e0c1385ad42168fa556c14d4d799c1bf22f081aff3efff6ea0c9190a35050565b60005490565b333014610f2a5760405162461bcd60e51b815260040161074e906157f4565b610f3381614160565b50565b60006001600160a01b038316610f5e5760405162461bcd60e51b815260040161074e90615923565b336001600160a01b0385161480610f9857506001600160a01b03841660009081526002602090815260408083203384529091529020548211155b610fb45760405162461bcd60e51b815260040161074e90615b5a565b610fbf8484846141c8565b6001600160a01b0384166000818152600260209081526040808320338085529252909120549114801590610ff557506000198114155b15611053576110048184614267565b6001600160a01b03861660008181526002602090815260408083203380855292529182902084905590519092600080516020615f6e8339815191529161104a9190615d69565b60405180910390a35b60019150505b9392505050565b60066020526000908152604090205460ff1681565b601281565b6005546001600160a01b031690565b6060600880548060200260200160405190810160405280929190818152602001828054801561071a57602002820191906000526020600020905b8154815260200190600101908083116110c3575050505050905090565b601290565b6040516322c1aa2560e11b815260009073__$3a9c388c21df3b52adbbb2b73829b93ce6$__90634583544a90611122906011908690600401615cfc565b60206040518083038186803b15801561113a57600080fd5b505af415801561114e573d6000803e3d6000fd5b505050506040513d601f19601f820116820180604052508101906111729190614ece565b90505b919050565b336001600160a01b03166000356001600160e01b0319166001600160e01b0319166000366040516111ac929190615526565b60405180910390a26002600b5414156111d75760405162461bcd60e51b815260040161074e90615a3c565b6002600b556010546001600160a01b03166112045760405162461bcd60e51b815260040161074e90615980565b600f60009054906101000a90046001600160a01b03166001600160a01b031663b187bd266040518163ffffffff1660e01b815260040160206040518083038186803b15801561125257600080fd5b505afa158015611266573d6000803e3d6000fd5b505050506040513d601f19601f8201168201806040525081019061128a9190614ece565b156112a75760405162461bcd60e51b815260040161074e906159f1565b60115460405163806c6f8760e01b815273__$c61de259b17579437cb458fbe4ba8c0f49$__9163dba4989a91600160201b90910460ff1690309063806c6f87906112f5903390600401615280565b60206040518083038186803b15801561130d57600080fd5b505afa158015611321573d6000803e3d6000fd5b505050506040513d601f19601f820116820180604052508101906113459190614ece565b600160275460ff16600181111561135857fe5b146012600101546040518563ffffffff1660e01b815260040161137e9493929190615507565b60006040518083038186803b15801561139657600080fd5b505af41580156113aa573d6000803e3d6000fd5b5050601154600160281b900460ff161591506113e69050576113ca6142a0565b6113e65760405162461bcd60e51b815260040161074e90615c9e565b601054601a5460405163b78e0bc960e01b815260609273__$c61de259b17579437cb458fbe4ba8c0f49$__9263b78e0bc9926114399230926001600160a01b03909116918b918b918b919060040161574a565b60006040518083038186803b15801561145157600080fd5b505af4158015611465573d6000803e3d6000fd5b505050506040513d6000823e601f3d908101601f1916820160405261148d9190810190614df5565b90506060601060009054906101000a90046001600160a01b03166001600160a01b031663cc77828d6040518163ffffffff1660e01b815260040160006040518083038186803b1580156114df57600080fd5b505afa1580156114f3573d6000803e3d6000fd5b505050506040513d6000823e601f3d908101601f1916820160405261151b9190810190614cfd565b9050606081516001600160401b038111801561153657600080fd5b50604051908082528060200260200182016040528015611560578160200160208202803683370190505b50601a54909150600090600160275460ff16600181111561157d57fe5b141561170b5760245460405163108ad9bd60e21b81526001600160a01b039091169063422b66f4906115b59087908990600401615401565b602060405180830381600087803b1580156115cf57600080fd5b505af11580156115e3573d6000803e3d6000fd5b505050506040513d601f19601f820116820180604052508101906116079190614f8a565b9150600f60009054906101000a90046001600160a01b03166001600160a01b031663703a9ec96040518163ffffffff1660e01b815260040160206040518083038186803b15801561165757600080fd5b505afa15801561166b573d6000803e3d6000fd5b505050506040513d601f19601f8201168201806040525081019061168f9190614a0b565b6001600160a01b031663d7256c70873387896040518563ffffffff1660e01b81526004016116c0949392919061531b565b600060405180830381600087803b1580156116da57600080fd5b505af11580156116ee573d6000803e3d6000fd5b5050602454600160b01b900460ff161515915061170b9050575060005b60005b845181101561187757600073__$c61de259b17579437cb458fbe4ba8c0f49$__63d378778c30601060009054906101000a90046001600160a01b031689868151811061175657fe5b60200260200101518b878151811061176a57fe5b6020026020010151886040518663ffffffff1660e01b815260040161179395949392919061561a565b60206040518083038186803b1580156117ab57600080fd5b505af41580156117bf573d6000803e3d6000fd5b505050506040513d601f19601f820116820180604052508101906117e39190614f8a565b90508582815181106117f157fe5b60200260200101516001600160a01b0316336001600160a01b03167fea39e3b35c5cd8937999ed5f7fbab30acd562a931fc4a887fed2a47c3074aa7289858151811061183957fe5b602002602001015160405161184e9190615d69565b60405180910390a38085838151811061186357fe5b60209081029190910101525060010161170e565b5080156118e857602354604051631483d99d60e01b81526001600160a01b0390911690631483d99d906118b590879087908190600090600401615426565b600060405180830381600087803b1580156118cf57600080fd5b505af11580156118e3573d6000803e3d6000fd5b505050505b6118f189611d4a565b6118fb338a610c75565b811561194257336000908152602560205260409020805461191c908b6142bb565b81553360009081526025602052604090206001015461193b90846142bb565b6001909101555b6000600160275460ff16600181111561195757fe5b1480156119d95750601260050154306001600160a01b03166318160ddd6040518163ffffffff1660e01b815260040160206040518083038186803b15801561199e57600080fd5b505afa1580156119b2573d6000803e3d6000fd5b505050506040513d601f19601f820116820180604052508101906119d69190614f8a565b10155b80156119ef5750602454600160b01b900460ff16155b90508015611a84576024805460ff60b01b1916600160b01b179055601054601a54604051630ff4d58d60e01b815273__$c61de259b17579437cb458fbe4ba8c0f49$__92630ff4d58d92611a539230926001600160a01b0316918b9160040161568f565b60006040518083038186803b158015611a6b57600080fd5b505af4158015611a7f573d6000803e3d6000fd5b505050505b50506001600b555050505050505050565b6005546001600160a01b03163314611abf5760405162461bcd60e51b815260040161074e906157f4565b8051825114611ae05760405162461bcd60e51b815260040161074e906159d1565b600a5460ff1615611b035760405162461bcd60e51b815260040161074e9061586e565b60005b8251811015611bb4576000838281518110611b1d57fe5b6020908102919091018101516001600160a01b0381166000908152600690925260409091205490915060ff1615611b665760405162461bcd60e51b815260040161074e906158c4565b828281518110611b7257fe5b6020908102919091018101516009805490910190556001600160a01b039091166000908152600690915260409020805460ff1916600190811790915501611b06565b508151611bc890600790602085019061470d565b508051611bdc906008906020840190614772565b5050600a805460ff1916600117905550565b6023546001600160a01b031681565b336001600160a01b03166000356001600160e01b0319166001600160e01b031916600036604051611c2f929190615526565b60405180910390a26002600b541415611c5a5760405162461bcd60e51b815260040161074e90615a3c565b6002600b556010546001600160a01b0316611c875760405162461bcd60e51b815260040161074e90615980565b6005546001600160a01b03163314611cb15760405162461bcd60e51b815260040161074e906157f4565b600060275460ff166001811115611cc457fe5b14611ce15760405162461bcd60e51b815260040161074e90615cd1565b604051611ced9061525e565b60405190819003812060165490913391600080516020615f2e83398151915291611d1991908690615d89565b60405180910390a36016556001600b55565b333014611d4a5760405162461bcd60e51b815260040161074e906157f4565b610f33816142e0565b602454600160b01b900460ff1681565b73__$c61de259b17579437cb458fbe4ba8c0f49$__6380681cab8360a001518460c001518561010001518660e001518761012001518860600151518960800151518a6040015151602460159054906101000a900460ff166040518a63ffffffff1660e01b8152600401611dde99989796959493929190615dd5565b60006040518083038186803b158015611df657600080fd5b505af4158015611e0a573d6000803e3d6000fd5b50506024805460ff60a81b1916600160a81b17905550508051601180546020808501516040808701516060880151608089015160a08a01511515600160281b0260ff60281b19911515600160201b0260ff60201b1993151563010000000263ff00000019951515620100000262ff0000199815156101000261ff00199d151560ff19909c169b909b179c909c169990991796909616999099179290921695909517949094169190911792909216939093179091558301518051611ed192601e92019061470d565b5060608201518051611eeb91601f91602090910190614772565b5060808201518051611f039160209190820190614772565b506040805161016081018252600080825260208201819052918101829052606081018290526000196080820181905260a0820183905260c08581015190830181905260e0808701519084018190526101008088015190850181905261012080890151908601819052426101409687018190526012889055601388905560148890556015889055601695909555601796909655601892909255601955601a55601b92909255601c919091558201516027805460ff191660018381811115611fc557fe5b0217905550600f80546001600160a01b0319166001600160a01b0385811691909117918290556040805163b18b78dd60e01b81529051929091169163b18b78dd91600480820192602092909190829003018186803b15801561202657600080fd5b505afa15801561203a573d6000803e3d6000fd5b505050506040513d601f19601f8201168201806040525081019061205e9190614a0b565b602480546001600160a01b0319166001600160a01b03928316179055600f54604080516311b2515f60e31b815290519190921691638d928af8916004808301926020929190829003018186803b1580156120b757600080fd5b505afa1580156120cb573d6000803e3d6000fd5b505050506040513d601f19601f820116820180604052508101906120ef9190614a0b565b602380546001600160a01b0319166001600160a01b0392909216919091179055601954601a54601854601b546040517f3d6667963e842e2b5ff1d4feab2c9b92f17c9003592e2ad229952eeb9a293fd09161214991615d69565b60405180910390a4505050565b3330146121755760405162461bcd60e51b815260040161074e906157f4565b610c7f828261430d565b602454600160a81b900460ff1681565b3360009081526002602090815260408083206001600160a01b03861684529091528120548083106121e3573360009081526002602090815260408083206001600160a01b0388168452909152812055612212565b6121ed8184614267565b3360009081526002602090815260408083206001600160a01b03891684529091529020555b3360008181526002602090815260408083206001600160a01b038916808552925291829020549151909291600080516020615f6e833981519152916122579190615d69565b60405180910390a35060019392505050565b336001600160a01b03166000356001600160e01b0319166001600160e01b03191660003660405161229b929190615526565b60405180910390a26002600b5414156122c65760405162461bcd60e51b815260040161074e90615a3c565b6002600b553360009081526006602052604090205460ff16806122f357506005546001600160a01b031633145b61230f5760405162461bcd60e51b815260040161074e906157d1565b6010546001600160a01b03166123375760405162461bcd60e51b815260040161074e90615980565b600f60009054906101000a90046001600160a01b03166001600160a01b031663b187bd266040518163ffffffff1660e01b815260040160206040518083038186803b15801561238557600080fd5b505afa158015612399573d6000803e3d6000fd5b505050506040513d601f19601f820116820180604052508101906123bd9190614ece565b156123da5760405162461bcd60e51b815260040161074e906159f1565b60105460245473__$c61de259b17579437cb458fbe4ba8c0f49$__9163a782948d916001600160a01b0390911690600160b01b900460ff16600160275460ff16600181111561242557fe5b60135460155460115460405160e089901b6001600160e01b031916815261246497969594909414936201000090910460ff16908d908d90600401615555565b60006040518083038186803b15801561247c57600080fd5b505af4158015612490573d6000803e3d6000fd5b5050505061249d83614318565b60235460405163607e58b360e11b81526000916001600160a01b03169063c0fcb166906124ce903090600401615280565b60206040518083038186803b1580156124e657600080fd5b505afa1580156124fa573d6000803e3d6000fd5b505050506040513d601f19601f8201168201806040525081019061251e9190614ece565b905080156125895760235460405163edb12adf60e01b81526001600160a01b039091169063edb12adf90612556903090600401615280565b600060405180830381600087803b15801561257057600080fd5b505af1158015612584573d6000803e3d6000fd5b505050505b6010546040516350884c9160e01b815273__$c61de259b17579437cb458fbe4ba8c0f49$__916350884c91916125d79130916001600160a01b03909116908a908a908a908a906004016155e0565b60006040518083038186803b1580156125ef57600080fd5b505af4158015612603573d6000803e3d6000fd5b50506001600b5550505050505050565b6001600160a01b031660009081526001602052604090205490565b601254601354601454601554601654601754601854601954601a54601b54601c548b565b6026602052600090815260409020805460019091015482565b60275460ff1681565b73__$3a9c388c21df3b52adbbb2b73829b93ce6$__90565b60225481565b601154600090600160201b900460ff1615612779576001600160a01b03821660009081526021602052604090205460ff16806126e657506001600160a01b03821660009081526006602052604090205460ff165b806127725750306001600160a01b0316633018205f6040518163ffffffff1660e01b815260040160206040518083038186803b15801561272557600080fd5b505afa158015612739573d6000803e3d6000fd5b505050506040513d601f19601f8201168201806040525081019061275d9190614a0b565b6001600160a01b0316826001600160a01b0316145b9050611175565b506001600160a01b0381161515611175565b6025602052600090815260409020805460019091015482565b6005546001600160a01b031633146127ce5760405162461bcd60e51b815260040161074e906157f4565b6001600160a01b0381166127f45760405162461bcd60e51b815260040161074e90615923565b6005546040516001600160a01b038084169216907f8be0079c531659141344cd1fd0a4f28419497f9722a3daafe3b4186f6b6457e090600090a360005b6007548110156128b857600554600780546001600160a01b03909216918390811061285857fe5b6000918252602090912001546001600160a01b031614156128b057816007828154811061288157fe5b9060005260206000200160006101000a8154816001600160a01b0302191690836001600160a01b031602179055505b600101612831565b50600580546001600160a01b03908116600090815260066020526040808220805460ff1990811690915594909216808252919020805490931660011790925580546001600160a01b0319169091179055565b60038054604080516020601f600260001961010060018816150201909516949094049384018190048102820181019092528281526060939092909183018282801561071a5780601f106106ef5761010080835404028352916020019161071a565b60115460ff80821691610100810482169162010000820481169163010000008104821691600160201b8204811691600160281b90041686565b6005546001600160a01b031633146129ce5760405162461bcd60e51b815260040161074e906157f4565b6001600160a01b03821660009081526006602052604090205460ff1615612a075760405162461bcd60e51b815260040161074e906158c4565b6001600160a01b038216600081815260066020526040808220805460ff19166001908117909155600780548083019091557fa66cc928b5edb82af9bd49922954155ab7b0942694bea4ce44661d9a8736c6880180546001600160a01b0319168517905560088054918201815583527ff3f7a9fe364faab93b216da50a3214154f22a0a2b415b23a84c8169e8b636ee3018490556009805485019055518392917fbd5dcf0b25226117c4a68a0129ffdd4b0541ef5e482ad7de9a96ccb6d6a8ebde91a35050565b73__$c61de259b17579437cb458fbe4ba8c0f49$__90565b6060600780548060200260200160405190810160405280929190818152602001828054801561071a57602002820191906000526020600020905b81546001600160a01b03168152600190910190602001808311612b1f575050505050905090565b6040518060400160405280601081526020016f11195cde5b8814db585c9d08141bdbdb60821b81525081565b6005546001600160a01b03163314612b9c5760405162461bcd60e51b815260040161074e906157f4565b601154600160281b900460ff168015612bbf5750602454600160a01b900460ff16155b612bdb5760405162461bcd60e51b815260040161074e90615820565b8051825114612bfc5760405162461bcd60e51b815260040161074e90615b8a565b60005b8151811015612d0d57600f5483516000916001600160a01b031690638f49f44d90869085908110612c2c57fe5b6020026020010151858581518110612c4057fe5b60200260200101516040518363ffffffff1660e01b8152600401612c65929190615d72565b60206040518083038186803b158015612c7d57600080fd5b505afa158015612c91573d6000803e3d6000fd5b505050506040513d601f19601f82011682018060405250810190612cb59190614ece565b905080612cd45760405162461bcd60e51b815260040161074e9061594d565b612d04848381518110612ce357fe5b6020026020010151848481518110612cf757fe5b60200260200101516143eb565b50600101612bff565b50506024805460ff60a01b1916600160a01b17905550565b6024546001600160a01b031681565b60006001600160a01b038316612d5c5760405162461bcd60e51b815260040161074e90615923565b612d673384846141c8565b50600192915050565b336001600160a01b03166000356001600160e01b0319166001600160e01b031916600036604051612da2929190615526565b60405180910390a26002600b541415612dcd5760405162461bcd60e51b815260040161074e90615a3c565b6002600b556010546001600160a01b0316612dfa5760405162461bcd60e51b815260040161074e90615980565b600f60009054906101000a90046001600160a01b03166001600160a01b031663b187bd266040518163ffffffff1660e01b815260040160206040518083038186803b158015612e4857600080fd5b505afa158015612e5c573d6000803e3d6000fd5b505050506040513d601f19601f82011682018060405250810190612e809190614ece565b15612e9d5760405162461bcd60e51b815260040161074e906159f1565b600073__$c61de259b17579437cb458fbe4ba8c0f49$__63c026fa3d30600160275460ff166001811115612ecd57fe5b60245460155460135433600090815260256020526040908190208054600190910154915160e08a901b6001600160e01b0319168152612f2598979690961495600160b01b90950460ff16949091908e9060040161559f565b60606040518083038186803b158015612f3d57600080fd5b505af4158015612f51573d6000803e3d6000fd5b505050506040513d601f19601f82011682018060405250810190612f7591906150b4565b3360009081526025602052604090819020600181019390935592909155601054915163151c70f960e21b815290925060609173__$c61de259b17579437cb458fbe4ba8c0f49$__91635471c3e491612fe19130916001600160a01b03169087908a908a90600401615716565b60006040518083038186803b158015612ff957600080fd5b505af415801561300d573d6000803e3d6000fd5b505050506040513d6000823e601f3d908101601f191682016040526130359190810190614df5565b90506130413383612175565b61304a82610f2a565b6010546040805163cc77828d60e01b815290516060926001600160a01b03169163cc77828d916004808301926000929190829003018186803b15801561308f57600080fd5b505afa1580156130a3573d6000803e3d6000fd5b505050506040513d6000823e601f3d908101601f191682016040526130cb9190810190614cfd565b9050606081516001600160401b03811180156130e657600080fd5b50604051908082528060200260200182016040528015613110578160200160208202803683370190505b506019549091506000908190600160275460ff16600181111561312f57fe5b14156131ee57602454600090600160b01b900460ff1615801561315457506013544210155b9050801561316557600091506131ec565b60245460405163108ad9bd60e21b81526001600160a01b039091169063422b66f4906131979089908b90600401615401565b602060405180830381600087803b1580156131b157600080fd5b505af11580156131c5573d6000803e3d6000fd5b505050506040513d601f19601f820116820180604052508101906131e99190614f8a565b93505b505b82156132c957336000908152602660209081526040808320805460019182015460259094529382902080549101549151633796ed7f60e21b81528b9473__$c61de259b17579437cb458fbe4ba8c0f49$__9463de5bb5fc9461325b94929391929188908c90600401615dad565b60606040518083038186803b15801561327357600080fd5b505af4158015613287573d6000803e3d6000fd5b505050506040513d601f19601f820116820180604052508101906132ab91906150b4565b33600090815260266020526040902060018101929092559190559250505b606085516001600160401b03811180156132e257600080fd5b5060405190808252806020026020018201604052801561330c578160200160208202803683370190505b50905060005b865181101561349457600080600073__$c61de259b17579437cb458fbe4ba8c0f49$__63e844db6f30601060009054906101000a90046001600160a01b03168d888151811061335d57fe5b60200260200101518f898151811061337157fe5b60200260200101518b8d6012600901546040518863ffffffff1660e01b81526004016133a3979695949392919061564e565b60606040518083038186803b1580156133bb57600080fd5b505af41580156133cf573d6000803e3d6000fd5b505050506040513d601f19601f820116820180604052508101906133f391906150b4565b9250925092508085858151811061340657fe5b6020026020010181815250508289858151811061341f57fe5b60200260200101818152505089848151811061343757fe5b60200260200101516001600160a01b0316336001600160a01b03167fc62fc35ac75e3bff532648e2859a3e1694002cfa357614ae8e034df7f83db5e9846040516134819190615d69565b60405180910390a3505050600101613312565b50811515806134af57506000831180156134af5750601b5415155b1561351e57602354604051631483d99d60e01b81526001600160a01b0390911690631483d99d906134eb90899089908690600190600401615426565b600060405180830381600087803b15801561350557600080fd5b505af1158015613519573d6000803e3d6000fd5b505050505b50506001600b55505050505050505050565b6060336001600160a01b03166000356001600160e01b0319166001600160e01b031916600036604051613564929190615526565b60405180910390a26002600b54141561358f5760405162461bcd60e51b815260040161074e90615a3c565b6002600b556010546001600160a01b03166135bc5760405162461bcd60e51b815260040161074e90615980565b600f546040516338f0d24560e01b81526001600160a01b03909116906338f0d245906135ee9030903390600401615301565b60206040518083038186803b15801561360657600080fd5b505afa15801561361a573d6000803e3d6000fd5b505050506040513d601f19601f8201168201806040525081019061363e9190614ece565b61365a5760405162461bcd60e51b815260040161074e90615894565b601054604051635b0e93fb60e11b81526001600160a01b039091169063b61d27f69061369090889088908890889060040161539b565b600060405180830381600087803b1580156136aa57600080fd5b505af11580156136be573d6000803e3d6000fd5b505050506040513d6000823e601f3d908101601f191682016040526136e69190810190614eea565b6001600b5595945050505050565b6010546001600160a01b031681565b6008818154811061371057fe5b600091825260209091200154905081565b6005546001600160a01b0316331461374b5760405162461bcd60e51b815260040161074e906157f4565b6002600b54141561376e5760405162461bcd60e51b815260040161074e90615a3c565b6002600b556040513390600080356001600160e01b0319169161379391903690615526565b60405180910390a2601154604051630d3aa47160e41b815273__$c61de259b17579437cb458fbe4ba8c0f49$__9163d3aa4710916137e391600160201b900460ff169060019086906004016154b6565b60006040518083038186803b1580156137fb57600080fd5b505af415801561380f573d6000803e3d6000fd5b505050506001600160a01b03166000908152602160205260409020805460ff19166001908117909155600b55565b60095481565b336001600160a01b03166000356001600160e01b0319166001600160e01b031916600036604051613875929190615526565b60405180910390a26002600b5414156138a05760405162461bcd60e51b815260040161074e90615a3c565b6002600b553360009081526006602052604090205460ff16806138cd57506005546001600160a01b031633145b6138e95760405162461bcd60e51b815260040161074e906157d1565b6010546001600160a01b03166139115760405162461bcd60e51b815260040161074e90615980565b600160275460ff16600181111561392457fe5b141561395357602454600160b01b900460ff166139535760405162461bcd60e51b815260040161074e906157a5565b6000613964426012600a0154614267565b90506022548110156139885760405162461bcd60e51b815260040161074e90615a61565b6010546040805163cc77828d60e01b815290516060926001600160a01b03169163cc77828d916004808301926000929190829003018186803b1580156139cd57600080fd5b505afa1580156139e1573d6000803e3d6000fd5b505050506040513d6000823e601f3d908101601f19168201604052613a099190810190614cfd565b601054601854602254604051631abc9a6960e11b815293945060609373__$c61de259b17579437cb458fbe4ba8c0f49$__9363357934d293613a609330936001600160a01b03909316928992918b916004016156cc565b60006040518083038186803b158015613a7857600080fd5b505af4158015613a8c573d6000803e3d6000fd5b505050506040513d6000823e601f3d908101601f19168201604052613ab49190810190614df5565b602354604051630bac7b8160e01b81529192506001600160a01b031690630bac7b8190613ae79085908590600401615401565b600060405180830381600087803b158015613b0157600080fd5b505af1158015613b15573d6000803e3d6000fd5b505042601c5550506001600b55505050565b3360009081526002602090815260408083206001600160a01b0386168452909152812054613b5590836142bb565b3360008181526002602090815260408083206001600160a01b03891680855292529182902084905590519092600080516020615f6e83398151915291610cca9190615d69565b6001600160a01b03918216600090815260026020908152604080832093909416825291909152205490565b6005546001600160a01b03163314613bf05760405162461bcd60e51b815260040161074e906157f4565b6002600b541415613c135760405162461bcd60e51b815260040161074e90615a3c565b6002600b556040513390600080356001600160e01b03191691613c3891903690615526565b60405180910390a26011546001600160a01b03821660009081526021602052604090819020549051630d3aa47160e41b815273__$c61de259b17579437cb458fbe4ba8c0f49$__9263d3aa471092613ca592600160201b90920460ff9081169291169086906004016154b6565b60006040518083038186803b158015613cbd57600080fd5b505af4158015613cd1573d6000803e3d6000fd5b505050506001600160a01b03166000908152602160205260409020805460ff191690556001600b55565b73__$24afbdeda01e131946d055322cce080c01$__90565b600082613d2257506000610cd6565b82820282848281613d2f57fe5b0414613d4d5760405162461bcd60e51b815260040161074e90615aa4565b6706f05b59d3b20000810181811015613d785760405162461bcd60e51b815260040161074e90615aa4565b6000670de0b6b3a7640000825b049695505050505050565b600081613daf5760405162461bcd60e51b815260040161074e90615b05565b82613dbc57506000610cd6565b670de0b6b3a764000083810290848281613dd257fe5b0414613df05760405162461bcd60e51b815260040161074e90615a12565b60028304810181811015613e165760405162461bcd60e51b815260040161074e90615a12565b6000848281613d8557fe5b6010546001600160a01b031615613e4a5760405162461bcd60e51b815260040161074e906159a9565b613e5381611d4a565b613e5d3382610c75565b600f60009054906101000a90046001600160a01b03166001600160a01b03166391cefde46040518163ffffffff1660e01b8152600401602060405180830381600087803b158015613ead57600080fd5b505af1158015613ec1573d6000803e3d6000fd5b505050506040513d601f19601f82011682018060405250810190613ee59190614a0b565b601080546001600160a01b0319166001600160a01b03928316179081905560405163d03f2a0f60e01b815273__$c61de259b17579437cb458fbe4ba8c0f49$__9263d03f2a0f92613f3d929116908590600401615382565b60006040518083038186803b158015613f5557600080fd5b505af4158015613f69573d6000803e3d6000fd5b5050505060005b601e54811015614119576000601e8281548110613f8957fe5b6000918252602082200154601f80546001600160a01b0390921693509084908110613fb057fe5b90600052602060002001549050600060208481548110613fcc57fe5b90600052602060002001549050613fe283614318565b6040516323b872dd60e01b81526000906001600160a01b038516906323b872dd90614015903390309088906004016152dd565b602060405180830381600087803b15801561402f57600080fd5b505af1158015614043573d6000803e3d6000fd5b505050506040513d601f19601f820116820180604052508101906140679190614ece565b9050806140865760405162461bcd60e51b815260040161074e90615bbb565b6010546140a2906001600160a01b0386811691166000196144c5565b50601054604051631c9c3ca760e31b81526001600160a01b039091169063e4e1e538906140d7908790879087906004016153cd565b600060405180830381600087803b1580156140f157600080fd5b505af1158015614105573d6000803e3d6000fd5b505060019096019550613f70945050505050565b505b601e5415610f3357601e80548061412e57fe5b600082815260209020810160001990810180546001600160a01b031916905501905561411b565b610c7f3083836141c8565b3060009081526001602052604090205461417a9082614267565b30600090815260016020526040812091909155546141989082614267565b60009081556040513090600080516020615f4e833981519152906141bd908590615d69565b60405180910390a350565b6001600160a01b0383166000908152600160205260409020546141eb9082614267565b6001600160a01b03808516600090815260016020526040808220939093559084168152205461421a90826142bb565b6001600160a01b038084166000818152600160205260409081902093909355915190851690600080516020615f4e8339815191529061425a908590615d69565b60405180910390a3505050565b6000806000614276858561466c565b9150915080156142985760405162461bcd60e51b815260040161074e90615c49565b509392505050565b6000600c546000146142b35760016142b6565b60005b905090565b6000828201838110156110595760405162461bcd60e51b815260040161074e90615c74565b6142e981614691565b6016546000541115610f335760405162461bcd60e51b815260040161074e90615b2b565b610c7f8230836141c8565b600f5460405163db7ca46b60e01b81526001600160a01b039091169063db7ca46b90614348908490600401615280565b60206040518083038186803b15801561436057600080fd5b505afa158015614374573d6000803e3d6000fd5b505050506040513d601f19601f820116820180604052508101906143989190614ece565b6143b45760405162461bcd60e51b815260040161074e90615ace565b602454600160a01b900460ff1615610f33576143cf816146ef565b610f335760405162461bcd60e51b815260040161074e906158ee565b6001600160a01b0381166144115760405162461bcd60e51b815260040161074e90615be4565b61441a816146ef565b156144375760405162461bcd60e51b815260040161074e90615c17565b6000828152600e602090815260408083206001600160a01b038516845282528083208054600160ff199182168117909255600d9093529281902080549092168317909155600c8054909201909155513390839030907f5ab6a0d7af8e86f78c34acea4f8aff1be027227ce1bc29e03f57f39b788f4b04906144b9908690615280565b60405180910390a45050565b600080846001600160a01b031663dd62ed3e30866040518363ffffffff1660e01b81526004016144f6929190615301565b60206040518083038186803b15801561450e57600080fd5b505afa158015614522573d6000803e3d6000fd5b505050506040513d601f19601f820116820180604052508101906145469190614f8a565b90508281141561455a576001915050611059565b80156145e35760405163095ea7b360e01b81526001600160a01b0386169063095ea7b39061458f908790600090600401615382565b602060405180830381600087803b1580156145a957600080fd5b505af11580156145bd573d6000803e3d6000fd5b505050506040513d601f19601f820116820180604052508101906145e19190614ece565b505b60405163095ea7b360e01b81526001600160a01b0386169063095ea7b3906146119087908790600401615382565b602060405180830381600087803b15801561462b57600080fd5b505af115801561463f573d6000803e3d6000fd5b505050506040513d601f19601f820116820180604052508101906146639190614ece565b95945050505050565b600080838311614682575050808203600061468a565b505081810360015b9250929050565b306000908152600160205260409020546146ab90826142bb565b30600090815260016020526040812091909155546146c990826142bb565b6000908155604051309190600080516020615f4e833981519152906141bd908590615d69565b6001600160a01b03166000908152600d602052604090205460ff1690565b828054828255906000526020600020908101928215614762579160200282015b8281111561476257825182546001600160a01b0319166001600160a01b0390911617825560209092019160019091019061472d565b5061476e9291506147b9565b5090565b8280548282559060005260206000209081019282156147ad579160200282015b828111156147ad578251825591602001919060010190614792565b5061476e9291506147d8565b5b8082111561476e5780546001600160a01b03191681556001016147ba565b5b8082111561476e57600081556001016147d9565b600082601f8301126147fd578081fd5b813561481061480b82615e98565b615e72565b81815291506020808301908481018184028601820187101561483157600080fd5b60005b8481101561485957813561484781615f0a565b84529282019290820190600101614834565b505050505092915050565b60008083601f840112614875578182fd5b5081356001600160401b0381111561488b578182fd5b602083019150836020808302850101111561468a57600080fd5b600082601f8301126148b5578081fd5b81356148c361480b82615e98565b8181529150602080830190848101818402860182018710156148e457600080fd5b60005b84811015614859578135845292820192908201906001016148e7565b803560028110610cd657600080fd5b600082601f830112614922578081fd5b813561493061480b82615eb7565b915080825283602082850101111561494757600080fd5b8060208401602084013760009082016020015292915050565b600060c08284031215614971578081fd5b61497b60c0615e72565b9050813561498881615f1f565b8152602082013561499881615f1f565b602082015260408201356149ab81615f1f565b604082015260608201356149be81615f1f565b606082015260808201356149d181615f1f565b608082015260a08201356149e481615f1f565b60a082015292915050565b600060208284031215614a00578081fd5b813561105981615f0a565b600060208284031215614a1c578081fd5b815161105981615f0a565b60008060408385031215614a39578081fd5b8235614a4481615f0a565b91506020830135614a5481615f0a565b809150509250929050565b600080600060608486031215614a73578081fd5b8335614a7e81615f0a565b92506020840135614a8e81615f0a565b929592945050506040919091013590565b60008060008060808587031215614ab4578182fd5b8435614abf81615f0a565b93506020850135614acf81615f0a565b93969395505050506040820135916060013590565b6000806000610100808587031215614afa578182fd5b8435614b0581615f0a565b935060208501356001600160401b0380821115614b20578384fd5b818701915061016080838a031215614b36578485fd5b614b3f81615e72565b9050823582811115614b4f578586fd5b614b5b8a828601614912565b825250602083013582811115614b6f578586fd5b614b7b8a828601614912565b602083015250604083013582811115614b92578586fd5b614b9e8a8286016147ed565b604083015250606083013582811115614bb5578586fd5b614bc18a8286016148a5565b606083015250608083013582811115614bd8578586fd5b614be48a8286016148a5565b60808301525060a083013560a082015260c083013560c082015260e083013560e08201528383013584820152610120935083830135848201526101409350614c2e89858501614903565b8482015280955050505050614c468560408601614960565b90509250925092565b60008060408385031215614c61578182fd5b8235614c6c81615f0a565b946020939093013593505050565b60008060008060608587031215614c8f578182fd5b8435614c9a81615f0a565b93506020850135925060408501356001600160401b0380821115614cbc578384fd5b818701915087601f830112614ccf578384fd5b813581811115614cdd578485fd5b886020828501011115614cee578485fd5b95989497505060200194505050565b60006020808385031215614d0f578182fd5b82516001600160401b03811115614d24578283fd5b8301601f81018513614d34578283fd5b8051614d4261480b82615e98565b8181528381019083850185840285018601891015614d5e578687fd5b8694505b83851015614d89578051614d7581615f0a565b835260019490940193918501918501614d62565b50979650505050505050565b60008060408385031215614da7578182fd5b82356001600160401b0380821115614dbd578384fd5b614dc9868387016147ed565b93506020850135915080821115614dde578283fd5b50614deb858286016148a5565b9150509250929050565b60006020808385031215614e07578182fd5b82516001600160401b03811115614e1c578283fd5b8301601f81018513614e2c578283fd5b8051614e3a61480b82615e98565b8181528381019083850185840285018601891015614e56578687fd5b8694505b83851015614d89578051835260019490940193918501918501614e5a565b60008060408385031215614e8a578182fd5b82356001600160401b0380821115614ea0578384fd5b614eac868387016148a5565b93506020850135915080821115614ec1578283fd5b50614deb858286016147ed565b600060208284031215614edf578081fd5b815161105981615f1f565b600060208284031215614efb578081fd5b81516001600160401b03811115614f10578182fd5b8201601f81018413614f20578182fd5b8051614f2e61480b82615eb7565b818152856020838501011115614f42578384fd5b614663826020830160208601615eda565b600060208284031215614f64578081fd5b813560068110611059578182fd5b600060208284031215614f83578081fd5b5035919050565b600060208284031215614f9b578081fd5b5051919050565b600080600060408486031215614fb6578081fd5b8335925060208401356001600160401b03811115614fd2578182fd5b614fde86828701614864565b9497909650939450505050565b60008060008060608587031215615000578182fd5b8435935060208501356001600160401b0381111561501c578283fd5b61502887828801614864565b909450925050604085013561503c81615f0a565b939692955090935050565b60008060008084860360a081121561505d578283fd5b8535945060208601359350604086013560038110615079578384fd5b92506040605f198201121561508c578182fd5b506150976040615e72565b606086013581526080909501356020860152509194909350909190565b6000806000606084860312156150c8578081fd5b8351925060208401519150604084015190509250925092565b6000815180845260208085019450808401835b838110156151195781516001600160a01b0316875295820195908201906001016150f4565b509495945050505050565b6000815480845260208085019450838352808320835b838110156151195781546001600160a01b03168752958201956001918201910161513a565b81835260006001600160fb1b03831115615177578081fd5b6020830280836020870137939093016020019283525090919050565b6000815180845260208085019450808401835b83811015615119578151875295820195908201906001016151a6565b6000815480845260208085019450838352808320835b83811015615119578154875295820195600191820191016151d8565b15159052565b60008284528282602086013780602084860101526020601f19601f85011685010190509392505050565b6000815180845261523c816020860160208601615eda565b601f01601f19169290920160200192915050565b6006811061525a57fe5b9052565b642aa82822a960d91b815260050190565b64232627a7a960d91b815260050190565b6001600160a01b0391909116815260200190565b6001600160a01b038581168252841660208201526080604082018190526000906152c090830185615124565b82810360608401526152d281856151c2565b979650505050505050565b6001600160a01b039384168152919092166020820152604081019190915260600190565b6001600160a01b0392831681529116602082015260400190565b6001600160a01b03858116825284166020820152608060408201819052600090615347908301856150e1565b82810360608401526152d28185615193565b6001600160a01b0394851681529290931660208301526040820152606081019190915260800190565b6001600160a01b03929092168252602082015260400190565b600060018060a01b0386168252846020830152606060408301526153c36060830184866151fa565b9695505050505050565b6001600160a01b039390931683526020830191909152604082015260600190565b60006020825261105960208301846150e1565b60006040825261541460408301856150e1565b82810360208401526146638185615193565b60006080825261543960808301876150e1565b828103602084015261544b8187615193565b9050828103604084015261545f8186615193565b915050821515606083015295945050505050565b6000604082526154866040830185615124565b828103602084015261466381856151c2565b6000602082526110596020830184615193565b901515815260200190565b921515835290151560208301526001600160a01b0316604082015260600190565b9515158652931515602086015291151560408501521515606084015215156080830152151560a082015260c00190565b9315158452911515602084015215156040830152606082015260800190565b60006020825261553a6020830184866151fa565b949350505050565b6000602082526110596020830184615224565b6001600160a01b0398891681529615156020880152941515604087015260608601939093526080850191909152151560a0840152831660c083015290911660e08201526101000190565b6001600160a01b03989098168852951515602088015293151560408701526060860192909252608085015260a084015260c083015260e08201526101000190565b6001600160a01b0396871681529486166020860152928516604085015293166060830152608082019290925260a081019190915260c00190565b6001600160a01b03958616815293851660208501529190931660408301526060820192909252608081019190915260a00190565b6001600160a01b03978816815295871660208701529390951660408501526060840191909152608083015260a082019290925260c081019190915260e00190565b6001600160a01b038581168252841660208201526080604082018190526000906156bb908301856150e1565b905082606083015295945050505050565b6001600160a01b0387811682528616602082015260c0604082018190526000906156f8908301876150e1565b606083019590955250608081019290925260a0909101529392505050565b6001600160a01b03868116825285166020820152604081018490526080606082018190526000906152d2908301848661515f565b6001600160a01b038781168252861660208201526040810185905260a06060820181905260009061577e908301858761515f565b9050826080830152979650505050505050565b602081016002831061579f57fe5b91905290565b602080825260129082015271436f6c6c656374696f6e206661696c65642160701b604082015260600190565b60208082526009908201526837b7363ca0b236b4b760b91b604082015260600190565b60208082526012908201527122a9292fa727aa2fa1a7a72a2927a62622a960711b604082015260600190565b6020808252600d908201526c4552525f4e4f5f52494748545360981b604082015260600190565b6020808252600d908201526c22a9292fa727aa2fa7aba722a960991b604082015260600190565b6020808252600c908201526b696e697469616c697a65642160a01b604082015260600190565b60208082526016908201527526a7a22aa6229024a9902727aa102922a3a4a9aa22a960511b604082015260600190565b60208082526010908201526f20b2323932b9b99034b99027bbb732b960811b604082015260600190565b6020808252601b908201527a11549497d393d517d5d212551157d513d2d15397d25397d413d3d3602a1b604082015260600190565b60208082526010908201526f4552525f5a45524f5f4144445245535360801b604082015260600190565b602080825260199082015278544f4b454e5f4d5553545f494e5f57484954455f4c4953545360381b604082015260600190565b6020808252600f908201526e11549497d393d517d0d49150551151608a1b604082015260600190565b6020808252600e908201526d11549497d254d7d0d4915055115160921b604082015260600190565b60208082526006908201526506f776e6572560d41b604082015260600190565b602080825260079082015266085c185d5cd95960ca1b604082015260600190565b60208082526010908201526f11549497d1125597d25395115493905360821b604082015260600190565b6020808252600b908201526a4552525f5245454e54525960a81b604082015260600190565b60208082526023908201527f54686520636f6c6c656374696f6e206379636c65206973206e6f7420726561636040820152621a195960ea1b606082015260800190565b60208082526010908201526f4552525f4d554c5f4f564552464c4f5760801b604082015260600190565b6020808252601e908201527f4552525f4e4f545f57484954455f544f4b454e5f494e5f464143544f52590000604082015260600190565b6020808252600c908201526b4552525f4449565f5a45524f60a01b604082015260600190565b60208082526015908201527411549497d0d05417d31253525517d4915050d21151605a1b604082015260600190565b60208082526016908201527522a9292fa821aa27a5a2a72fa120a22fa1a0a62622a960511b604082015260600190565b60208082526017908201527608aa4a4bea69ea4a8bea89e968a9cbe9a92a69a82a8869604b1b604082015260600190565b6020808252600f908201526e4552525f45524332305f46414c534560881b604082015260600190565b6020808252601990820152784552525f494e56414c49445f544f4b454e5f4144445245535360381b604082015260600190565b6020808252601890820152774552525f4841535f4245454e5f41444445445f574849544560401b604082015260600190565b6020808252601190820152704552525f5355425f554e444552464c4f5760781b604082015260600190565b60208082526010908201526f4552525f4144445f4f564552464c4f5760801b604082015260600190565b60208082526019908201527822a9292fa9a427aaa6222fa9a2aa2faba424aa22aa27a5a2a760391b604082015260600190565b60208082526011908201527022a9292fa6aaa9aa2fa7a822a72fa2aa2360791b604082015260600190565b600060e082019050835460ff80821615158452808260081c1615156020850152808260101c1615156040850152808260181c1615156060850152615d4860808501828460201c166151f4565b615d5a60a08501828460281c166151f4565b505061105960c0830184615250565b90815260200190565b9182526001600160a01b0316602082015260400190565b918252602082015260400190565b9283526020830191909152604082015260600190565b958652602086019490945260408501929092526060840152608083015260a082015260c00190565b988952602089019790975260408801959095526060870193909352608086019190915260a085015260c084015260e083015215156101008201526101200190565b9a8b5260208b019990995260408a01979097526060890195909552608088019390935260a087019190915260c086015260e08501526101008401526101208301526101408201526101600190565b60ff91909116815260200190565b6040518181016001600160401b0381118282101715615e9057600080fd5b604052919050565b60006001600160401b03821115615ead578081fd5b5060209081020190565b60006001600160401b03821115615ecc578081fd5b50601f01601f191660200190565b60005b83811015615ef5578181015183820152602001615edd565b83811115615f04576000848401525b50505050565b6001600160a01b0381168114610f3357600080fd5b8015158114610f3357600080fdfecc86385c52bf4aeaa8583735b29e4a0abc0c5489fae93dbaef02bd838c2d297dddf252ad1be2c89b69c2b068fc378daa952ba7f163c4a11628f55a4df523b3ef8c5be1e5ebec7d5bd14f71427d1e84f3dd0314c0f7b2291e5b200ac8c7c3b925a26469706673582212202605171825cedd191e05ea76422fe29415a8310ac027f4b8a0b6a1b91c42cf7964736f6c634300060c0033",
  "libraries": {
    "DesynSafeMath": "0x4E9FA6fE9C793CC0864AB331b2c13EEAeAcd4679",
    "RightsManager": "0x11D61d0855aCfB43b3C9275b70403EcCC7212536",
    "SmartPoolManager": "0x0314725E3312e6453f745467572283E617881A89"
  },
  "devdoc": {
    "author": "Desyn Labs",
    "details": "Rights are defined as follows (index values into the array) Note that functions called on bPool and bFactory may look like internal calls,   but since they are contracts accessed through an interface, they are really external. To make this explicit, we could write \"IBPool(address(bPool)).function()\" everywhere,   instead of \"bPool.function()\".",
    "kind": "dev",
    "methods": {
      "allowance(address,address)": {
        "params": {
          "owner": "- owner of the tokens",
          "spender": "- entity allowed to spend the tokens"
        },
        "returns": {
          "_0": "uint - remaining amount spender is allowed to transfer"
        }
      },
      "approve(address,uint256)": {
        "details": "emits an Approval event",
        "params": {
          "amount": "- number of tokens being approved",
          "spender": "- entity the owner (sender) is approving to spend his tokens"
        },
        "returns": {
          "_0": "bool - result of the approval (will always be true if it doesn't revert)"
        }
      },
      "balanceOf(address)": {
        "params": {
          "account": "- address we're checking the balance of"
        },
        "returns": {
          "_0": "uint - token balance in the account"
        }
      },
      "canProvideLiquidity(address)": {
        "details": "If the whitelist feature is not enabled, anyone can provide liquidity (assuming finalized)",
        "returns": {
          "_0": "boolean value indicating whether the address can join a pool"
        }
      },
      "createPool(uint256,uint256,uint8,(uint256,uint256))": {
        "details": "Delegates to internal function",
        "params": {
          "closurePeriod": "the etf closure period",
          "initialSupply": "starting token balance"
        }
      },
      "decimals()": {
        "details": "Returns the number of decimals used to get its user representation. For example, if `decimals` equals `2`, a balance of `505` tokens should be displayed to a user as `5,05` (`505 / 10 ** 2`). Tokens usually opt for a value of 18, imitating the relationship between Ether and Wei. This is the value {ERC20} uses, unless {_setupDecimals} is called. NOTE: This information is only used for _display_ purposes: it in no way affects any of the arithmetic of the contract, including {IERC20-balanceOf} and {IERC20-transfer}."
      },
      "decreaseApproval(address,uint256)": {
        "details": "emits an Approval eventIf you try to decrease it below the current limit, it's just set to zero (not an error)",
        "params": {
          "amount": "- number of tokens being approved",
          "spender": "- entity the owner (sender) is approving to spend his tokens"
        },
        "returns": {
          "_0": "bool - result of the approval (will always be true if it doesn't revert)"
        }
      },
      "exitPool(uint256,uint256[])": {
        "details": "Emits a LogExit event for each token      bPool is a contract interface; function calls on it are external",
        "params": {
          "minAmountsOut": "- minimum amount of asset tokens to receive",
          "poolAmountIn": "- amount of pool tokens to redeem"
        }
      },
      "getController()": {
        "details": "external for gas optimization",
        "returns": {
          "_0": "address - of the owner (AKA controller)"
        }
      },
      "getDesynSafeMathVersion()": {
        "details": "Convenience function to get the address of the DesynSafeMath library (so clients can check version)",
        "returns": {
          "_0": "address of the DesynSafeMath library"
        }
      },
      "getRightsManagerVersion()": {
        "details": "Convenience function to get the address of the RightsManager library (so clients can check version)",
        "returns": {
          "_0": "address of the RightsManager library"
        }
      },
      "getSmartPoolManagerVersion()": {
        "details": "Convenience function to get the address of the SmartPoolManager library (so clients can check version)",
        "returns": {
          "_0": "address of the SmartPoolManager library"
        }
      },
      "hasPermission(uint8)": {
        "details": "value of the enum is just the 0-based index in the enumeration      For instance canPauseSwapping is 0; canChangeWeights is 2",
        "returns": {
          "_0": "token boolean true if we have the given permission"
        }
      },
      "increaseApproval(address,uint256)": {
        "details": "emits an Approval event",
        "params": {
          "amount": "- number of tokens being approved",
          "spender": "- entity the owner (sender) is approving to spend his tokens"
        },
        "returns": {
          "_0": "bool - result of the approval (will always be true if it doesn't revert)"
        }
      },
      "init(address,(string,string,address[],uint256[],uint256[],uint256,uint256,uint256,uint256,uint256,uint8),(bool,bool,bool,bool,bool,bool))": {
        "details": "_initialTokens and _swapFee are only used for temporary storage between construction      and create pool, and should not be used thereafter! _initialTokens is destroyed in      createPool to prevent this, and _swapFee is kept in sync (defensively), but      should never be used except in this constructor and createPool()",
        "params": {
          "factoryAddress": "- the BPoolFactory used to create the underlying pool",
          "poolParams": "- struct containing pool parameters",
          "rightsStruct": "- Set of permissions we are assigning to this smart pool"
        }
      },
      "joinPool(uint256,uint256[],address)": {
        "details": "Emits a LogJoin event (for each token)      bPool is a contract interface; function calls on it are external",
        "params": {
          "maxAmountsIn": "- Max amount of asset tokens to spend",
          "poolAmountOut": "- number of pool tokens to receive"
        }
      },
      "name()": {
        "details": "Returns the name of the token.      We allow the user to set this name (as well as the symbol).      Alternatives are 1) A fixed string (original design)                       2) A fixed string plus the user-defined symbol                          return string(abi.encodePacked(NAME, \"-\", _symbol));"
      },
      "removeOwner(address)": {
        "details": "Allows to remove an owner. Transaction has to be sent by wallet.",
        "params": {
          "owner": "Address of owner."
        }
      },
      "removeWhitelistedLiquidityProvider(address)": {
        "params": {
          "provider": "- address of the liquidity provider"
        }
      },
      "setAddAdminList(address,uint256)": {
        "details": "external for gas optimization",
        "params": {
          "newOwner": "- address of new owner"
        }
      },
      "setCap(uint256)": {
        "details": "_bspCap defaults in the constructor to unlimited      Can set to 0 (or anywhere below the current supply), to halt new investment      Prevent setting it before creating a pool, since createPool sets to intialSupply      (it does this to avoid an unlimited cap window between construction and createPool)      Therefore setting it before then has no effect, so should not be allowed",
        "params": {
          "newCap": "- new value of the cap"
        }
      },
      "setController(address)": {
        "details": "external for gas optimization",
        "params": {
          "newOwner": "- address of new owner"
        }
      },
      "symbol()": {
        "details": "Returns the symbol of the token, usually a shorter version of the name."
      },
      "totalSupply()": {
        "details": "declared external for gas optimization",
        "returns": {
          "_0": "uint - total number of tokens in existence"
        }
      },
      "transfer(address,uint256)": {
        "details": "_move emits a Transfer event if successful",
        "params": {
          "amount": "- number of tokens being transferred",
          "recipient": "- entity receiving the tokens"
        },
        "returns": {
          "_0": "bool - result of the transfer (will always be true if it doesn't revert)"
        }
      },
      "transferFrom(address,address,uint256)": {
        "details": "_move emits a Transfer event if successful; may also emit an Approval event",
        "params": {
          "amount": "- number of tokens being transferred",
          "recipient": "- recipient of the tokens",
          "sender": "- entity sending the tokens (must be caller or allowed to spend on behalf of caller)"
        },
        "returns": {
          "_0": "bool - result of the transfer (will always be true if it doesn't revert)"
        }
      },
      "whitelistLiquidityProvider(address)": {
        "params": {
          "provider": "- address of the liquidity provider"
        }
      }
    },
    "title": "Smart Pool with customizable features",
    "version": 1
  },
  "userdoc": {
    "kind": "user",
    "methods": {
      "allowance(address,address)": {
        "notice": "Getter for allowance: amount spender will be allowed to spend on behalf of owner"
      },
      "approve(address,uint256)": {
        "notice": "Approve owner (sender) to spend a certain amount"
      },
      "balanceOf(address)": {
        "notice": "Getter for current account balance"
      },
      "canProvideLiquidity(address)": {
        "notice": "Check if an address is a liquidity provider"
      },
      "createPool(uint256,uint256,uint8,(uint256,uint256))": {
        "notice": "Create a new Smart Pool"
      },
      "decreaseApproval(address,uint256)": {
        "notice": "Decrease the amount the spender is allowed to spend on behalf of the owner (sender)"
      },
      "exitPool(uint256,uint256[])": {
        "notice": "Exit a pool - redeem pool tokens for underlying assets"
      },
      "getController()": {
        "notice": "Returns the address of the current owner"
      },
      "getDesynSafeMathVersion()": {
        "notice": "Getter for the DesynSafeMath contract"
      },
      "getRightsManagerVersion()": {
        "notice": "Getter for the RightsManager contract"
      },
      "getSmartPoolManagerVersion()": {
        "notice": "Getter for the SmartPoolManager contract"
      },
      "hasPermission(uint8)": {
        "notice": "Getter for specific permissions"
      },
      "increaseApproval(address,uint256)": {
        "notice": "Increase the amount the spender is allowed to spend on behalf of the owner (sender)"
      },
      "init(address,(string,string,address[],uint256[],uint256[],uint256,uint256,uint256,uint256,uint256,uint8),(bool,bool,bool,bool,bool,bool))": {
        "notice": "Construct a new Configurable Rights Pool (wrapper around BPool)"
      },
      "joinPool(uint256,uint256[],address)": {
        "notice": "Join a pool"
      },
      "removeWhitelistedLiquidityProvider(address)": {
        "notice": "Remove from the whitelist of liquidity providers (if enabled)"
      },
      "setAddAdminList(address,uint256)": {
        "notice": "Transfers ownership of the contract to a new account (`newOwner`).         Can only be called by the current owner"
      },
      "setCap(uint256)": {
        "notice": "Set the cap (max # of pool tokens)"
      },
      "setController(address)": {
        "notice": "Transfers ownership of the contract to a new account (`newOwner`).         Can only be called by the current owner"
      },
      "totalSupply()": {
        "notice": "Getter for the total supply"
      },
      "transfer(address,uint256)": {
        "notice": "Transfer the given amount from sender (caller) to recipient"
      },
      "transferFrom(address,address,uint256)": {
        "notice": "Transfer the given amount from sender to recipient"
      },
      "whitelistLiquidityProvider(address)": {
        "notice": "Add to the whitelist of liquidity providers (if enabled)"
      }
    },
    "notice": "PCToken is the \"Desyn Smart Pool\" token (transferred upon finalization)",
    "version": 1
  },
  "storageLayout": {
    "storage": [
      {
        "astId": 5756,
        "contract": "contracts/base/ConfigurableRightsPool.sol:ConfigurableRightsPool",
        "label": "varTotalSupply",
        "offset": 0,
        "slot": "0",
        "type": "t_uint256"
      },
      {
        "astId": 5760,
        "contract": "contracts/base/ConfigurableRightsPool.sol:ConfigurableRightsPool",
        "label": "_balance",
        "offset": 0,
        "slot": "1",
        "type": "t_mapping(t_address,t_uint256)"
      },
      {
        "astId": 5766,
        "contract": "contracts/base/ConfigurableRightsPool.sol:ConfigurableRightsPool",
        "label": "_allowance",
        "offset": 0,
        "slot": "2",
        "type": "t_mapping(t_address,t_mapping(t_address,t_uint256))"
      },
      {
        "astId": 5768,
        "contract": "contracts/base/ConfigurableRightsPool.sol:ConfigurableRightsPool",
        "label": "_symbol",
        "offset": 0,
        "slot": "3",
        "type": "t_string_storage"
      },
      {
        "astId": 5770,
        "contract": "contracts/base/ConfigurableRightsPool.sol:ConfigurableRightsPool",
        "label": "_name",
        "offset": 0,
        "slot": "4",
        "type": "t_string_storage"
      },
      {
        "astId": 18311,
        "contract": "contracts/base/ConfigurableRightsPool.sol:ConfigurableRightsPool",
        "label": "_owner",
        "offset": 0,
        "slot": "5",
        "type": "t_address"
      },
      {
        "astId": 18315,
        "contract": "contracts/base/ConfigurableRightsPool.sol:ConfigurableRightsPool",
        "label": "adminList",
        "offset": 0,
        "slot": "6",
        "type": "t_mapping(t_address,t_bool)"
      },
      {
        "astId": 18318,
        "contract": "contracts/base/ConfigurableRightsPool.sol:ConfigurableRightsPool",
        "label": "owners",
        "offset": 0,
        "slot": "7",
        "type": "t_array(t_address)dyn_storage"
      },
      {
        "astId": 18321,
        "contract": "contracts/base/ConfigurableRightsPool.sol:ConfigurableRightsPool",
        "label": "ownerPercentage",
        "offset": 0,
        "slot": "8",
        "type": "t_array(t_uint256)dyn_storage"
      },
      {
        "astId": 18323,
        "contract": "contracts/base/ConfigurableRightsPool.sol:ConfigurableRightsPool",
        "label": "allOwnerPercentage",
        "offset": 0,
        "slot": "9",
        "type": "t_uint256"
      },
      {
        "astId": 18325,
        "contract": "contracts/base/ConfigurableRightsPool.sol:ConfigurableRightsPool",
        "label": "initialized",
        "offset": 0,
        "slot": "10",
        "type": "t_bool"
      },
      {
        "astId": 18704,
        "contract": "contracts/base/ConfigurableRightsPool.sol:ConfigurableRightsPool",
        "label": "_status",
        "offset": 0,
        "slot": "11",
        "type": "t_uint256"
      },
      {
        "astId": 6324,
        "contract": "contracts/base/ConfigurableRightsPool.sol:ConfigurableRightsPool",
        "label": "_whiteTokenCount",
        "offset": 0,
        "slot": "12",
        "type": "t_uint256"
      },
      {
        "astId": 6328,
        "contract": "contracts/base/ConfigurableRightsPool.sol:ConfigurableRightsPool",
        "label": "_isTokenWhitelisted",
        "offset": 0,
        "slot": "13",
        "type": "t_mapping(t_address,t_bool)"
      },
      {
        "astId": 6334,
        "contract": "contracts/base/ConfigurableRightsPool.sol:ConfigurableRightsPool",
        "label": "_tokenWhitelistedInfo",
        "offset": 0,
        "slot": "14",
        "type": "t_mapping(t_uint256,t_mapping(t_address,t_bool))"
      },
      {
        "astId": 198,
        "contract": "contracts/base/ConfigurableRightsPool.sol:ConfigurableRightsPool",
        "label": "bFactory",
        "offset": 0,
        "slot": "15",
        "type": "t_contract(IBFactory)14705"
      },
      {
        "astId": 200,
        "contract": "contracts/base/ConfigurableRightsPool.sol:ConfigurableRightsPool",
        "label": "bPool",
        "offset": 0,
        "slot": "16",
        "type": "t_contract(IBPool)14617"
      },
      {
        "astId": 202,
        "contract": "contracts/base/ConfigurableRightsPool.sol:ConfigurableRightsPool",
        "label": "rights",
        "offset": 0,
        "slot": "17",
        "type": "t_struct(Rights)16036_storage"
      },
      {
        "astId": 204,
        "contract": "contracts/base/ConfigurableRightsPool.sol:ConfigurableRightsPool",
        "label": "etfStatus",
        "offset": 0,
        "slot": "18",
        "type": "t_struct(Status)16711_storage"
      },
      {
        "astId": 206,
        "contract": "contracts/base/ConfigurableRightsPool.sol:ConfigurableRightsPool",
        "label": "_initialSwapFee",
        "offset": 0,
        "slot": "29",
        "type": "t_uint256"
      },
      {
        "astId": 209,
        "contract": "contracts/base/ConfigurableRightsPool.sol:ConfigurableRightsPool",
        "label": "_initialTokens",
        "offset": 0,
        "slot": "30",
        "type": "t_array(t_address)dyn_storage"
      },
      {
        "astId": 212,
        "contract": "contracts/base/ConfigurableRightsPool.sol:ConfigurableRightsPool",
        "label": "_initialBalances",
        "offset": 0,
        "slot": "31",
        "type": "t_array(t_uint256)dyn_storage"
      },
      {
        "astId": 215,
        "contract": "contracts/base/ConfigurableRightsPool.sol:ConfigurableRightsPool",
        "label": "_initialWeights",
        "offset": 0,
        "slot": "32",
        "type": "t_array(t_uint256)dyn_storage"
      },
      {
        "astId": 219,
        "contract": "contracts/base/ConfigurableRightsPool.sol:ConfigurableRightsPool",
        "label": "_liquidityProviderWhitelist",
        "offset": 0,
        "slot": "33",
        "type": "t_mapping(t_address,t_bool)"
      },
      {
        "astId": 222,
        "contract": "contracts/base/ConfigurableRightsPool.sol:ConfigurableRightsPool",
        "label": "claimPeriod",
        "offset": 0,
        "slot": "34",
        "type": "t_uint256"
      },
      {
        "astId": 224,
        "contract": "contracts/base/ConfigurableRightsPool.sol:ConfigurableRightsPool",
        "label": "vaultAddress",
        "offset": 0,
        "slot": "35",
        "type": "t_address"
      },
      {
        "astId": 226,
        "contract": "contracts/base/ConfigurableRightsPool.sol:ConfigurableRightsPool",
        "label": "oracleAddress",
        "offset": 0,
        "slot": "36",
        "type": "t_address"
      },
      {
        "astId": 228,
        "contract": "contracts/base/ConfigurableRightsPool.sol:ConfigurableRightsPool",
        "label": "hasSetWhiteTokens",
        "offset": 20,
        "slot": "36",
        "type": "t_bool"
      },
      {
        "astId": 230,
        "contract": "contracts/base/ConfigurableRightsPool.sol:ConfigurableRightsPool",
        "label": "initBool",
        "offset": 21,
        "slot": "36",
        "type": "t_bool"
      },
      {
        "astId": 232,
        "contract": "contracts/base/ConfigurableRightsPool.sol:ConfigurableRightsPool",
        "label": "isCompletedCollect",
        "offset": 22,
        "slot": "36",
        "type": "t_bool"
      },
      {
        "astId": 236,
        "contract": "contracts/base/ConfigurableRightsPool.sol:ConfigurableRightsPool",
        "label": "beginFund",
        "offset": 0,
        "slot": "37",
        "type": "t_mapping(t_address,t_struct(Fund)16747_storage)"
      },
      {
        "astId": 240,
        "contract": "contracts/base/ConfigurableRightsPool.sol:ConfigurableRightsPool",
        "label": "endFund",
        "offset": 0,
        "slot": "38",
        "type": "t_mapping(t_address,t_struct(Fund)16747_storage)"
      },
      {
        "astId": 242,
        "contract": "contracts/base/ConfigurableRightsPool.sol:ConfigurableRightsPool",
        "label": "etype",
        "offset": 0,
        "slot": "39",
        "type": "t_enum(Etypes)16684"
      }
    ],
    "types": {
      "t_address": {
        "encoding": "inplace",
        "label": "address",
        "numberOfBytes": "20"
      },
      "t_array(t_address)dyn_storage": {
        "base": "t_address",
        "encoding": "dynamic_array",
        "label": "address[]",
        "numberOfBytes": "32"
      },
      "t_array(t_uint256)dyn_storage": {
        "base": "t_uint256",
        "encoding": "dynamic_array",
        "label": "uint256[]",
        "numberOfBytes": "32"
      },
      "t_bool": {
        "encoding": "inplace",
        "label": "bool",
        "numberOfBytes": "1"
      },
      "t_contract(IBFactory)14705": {
        "encoding": "inplace",
        "label": "contract IBFactory",
        "numberOfBytes": "20"
      },
      "t_contract(IBPool)14617": {
        "encoding": "inplace",
        "label": "contract IBPool",
        "numberOfBytes": "20"
      },
      "t_enum(Etypes)16684": {
        "encoding": "inplace",
        "label": "enum SmartPoolManager.Etypes",
        "numberOfBytes": "1"
      },
      "t_mapping(t_address,t_bool)": {
        "encoding": "mapping",
        "key": "t_address",
        "label": "mapping(address => bool)",
        "numberOfBytes": "32",
        "value": "t_bool"
      },
      "t_mapping(t_address,t_mapping(t_address,t_uint256))": {
        "encoding": "mapping",
        "key": "t_address",
        "label": "mapping(address => mapping(address => uint256))",
        "numberOfBytes": "32",
        "value": "t_mapping(t_address,t_uint256)"
      },
      "t_mapping(t_address,t_struct(Fund)16747_storage)": {
        "encoding": "mapping",
        "key": "t_address",
        "label": "mapping(address => struct SmartPoolManager.Fund)",
        "numberOfBytes": "32",
        "value": "t_struct(Fund)16747_storage"
      },
      "t_mapping(t_address,t_uint256)": {
        "encoding": "mapping",
        "key": "t_address",
        "label": "mapping(address => uint256)",
        "numberOfBytes": "32",
        "value": "t_uint256"
      },
      "t_mapping(t_uint256,t_mapping(t_address,t_bool))": {
        "encoding": "mapping",
        "key": "t_uint256",
        "label": "mapping(uint256 => mapping(address => bool))",
        "numberOfBytes": "32",
        "value": "t_mapping(t_address,t_bool)"
      },
      "t_string_storage": {
        "encoding": "bytes",
        "label": "string",
        "numberOfBytes": "32"
      },
      "t_struct(Fund)16747_storage": {
        "encoding": "inplace",
        "label": "struct SmartPoolManager.Fund",
        "members": [
          {
            "astId": 16744,
            "contract": "contracts/base/ConfigurableRightsPool.sol:ConfigurableRightsPool",
            "label": "etfAmount",
            "offset": 0,
            "slot": "0",
            "type": "t_uint256"
          },
          {
            "astId": 16746,
            "contract": "contracts/base/ConfigurableRightsPool.sol:ConfigurableRightsPool",
            "label": "fundAmount",
            "offset": 0,
            "slot": "1",
            "type": "t_uint256"
          }
        ],
        "numberOfBytes": "64"
      },
      "t_struct(Rights)16036_storage": {
        "encoding": "inplace",
        "label": "struct RightsManager.Rights",
        "members": [
          {
            "astId": 16025,
            "contract": "contracts/base/ConfigurableRightsPool.sol:ConfigurableRightsPool",
            "label": "canPauseSwapping",
            "offset": 0,
            "slot": "0",
            "type": "t_bool"
          },
          {
            "astId": 16027,
            "contract": "contracts/base/ConfigurableRightsPool.sol:ConfigurableRightsPool",
            "label": "canChangeSwapFee",
            "offset": 1,
            "slot": "0",
            "type": "t_bool"
          },
          {
            "astId": 16029,
            "contract": "contracts/base/ConfigurableRightsPool.sol:ConfigurableRightsPool",
            "label": "canChangeWeights",
            "offset": 2,
            "slot": "0",
            "type": "t_bool"
          },
          {
            "astId": 16031,
            "contract": "contracts/base/ConfigurableRightsPool.sol:ConfigurableRightsPool",
            "label": "canAddRemoveTokens",
            "offset": 3,
            "slot": "0",
            "type": "t_bool"
          },
          {
            "astId": 16033,
            "contract": "contracts/base/ConfigurableRightsPool.sol:ConfigurableRightsPool",
            "label": "canWhitelistLPs",
            "offset": 4,
            "slot": "0",
            "type": "t_bool"
          },
          {
            "astId": 16035,
            "contract": "contracts/base/ConfigurableRightsPool.sol:ConfigurableRightsPool",
            "label": "canTokenWhiteLists",
            "offset": 5,
            "slot": "0",
            "type": "t_bool"
          }
        ],
        "numberOfBytes": "32"
      },
      "t_struct(Status)16711_storage": {
        "encoding": "inplace",
        "label": "struct SmartPoolManager.Status",
        "members": [
          {
            "astId": 16690,
            "contract": "contracts/base/ConfigurableRightsPool.sol:ConfigurableRightsPool",
            "label": "collectPeriod",
            "offset": 0,
            "slot": "0",
            "type": "t_uint256"
          },
          {
            "astId": 16692,
            "contract": "contracts/base/ConfigurableRightsPool.sol:ConfigurableRightsPool",
            "label": "collectEndTime",
            "offset": 0,
            "slot": "1",
            "type": "t_uint256"
          },
          {
            "astId": 16694,
            "contract": "contracts/base/ConfigurableRightsPool.sol:ConfigurableRightsPool",
            "label": "closurePeriod",
            "offset": 0,
            "slot": "2",
            "type": "t_uint256"
          },
          {
            "astId": 16696,
            "contract": "contracts/base/ConfigurableRightsPool.sol:ConfigurableRightsPool",
            "label": "closureEndTime",
            "offset": 0,
            "slot": "3",
            "type": "t_uint256"
          },
          {
            "astId": 16698,
            "contract": "contracts/base/ConfigurableRightsPool.sol:ConfigurableRightsPool",
            "label": "upperCap",
            "offset": 0,
            "slot": "4",
            "type": "t_uint256"
          },
          {
            "astId": 16700,
            "contract": "contracts/base/ConfigurableRightsPool.sol:ConfigurableRightsPool",
            "label": "floorCap",
            "offset": 0,
            "slot": "5",
            "type": "t_uint256"
          },
          {
            "astId": 16702,
            "contract": "contracts/base/ConfigurableRightsPool.sol:ConfigurableRightsPool",
            "label": "managerFee",
            "offset": 0,
            "slot": "6",
            "type": "t_uint256"
          },
          {
            "astId": 16704,
            "contract": "contracts/base/ConfigurableRightsPool.sol:ConfigurableRightsPool",
            "label": "redeemFee",
            "offset": 0,
            "slot": "7",
            "type": "t_uint256"
          },
          {
            "astId": 16706,
            "contract": "contracts/base/ConfigurableRightsPool.sol:ConfigurableRightsPool",
            "label": "issueFee",
            "offset": 0,
            "slot": "8",
            "type": "t_uint256"
          },
          {
            "astId": 16708,
            "contract": "contracts/base/ConfigurableRightsPool.sol:ConfigurableRightsPool",
            "label": "perfermanceFee",
            "offset": 0,
            "slot": "9",
            "type": "t_uint256"
          },
          {
            "astId": 16710,
            "contract": "contracts/base/ConfigurableRightsPool.sol:ConfigurableRightsPool",
            "label": "startClaimFeeTime",
            "offset": 0,
            "slot": "10",
            "type": "t_uint256"
          }
        ],
        "numberOfBytes": "352"
      },
      "t_uint256": {
        "encoding": "inplace",
        "label": "uint256",
        "numberOfBytes": "32"
      }
    }
  }
}