{
  "address": "0x526c3714577A0Acf34E43219668907D5436eAc08",
  "abi": [
    {
      "inputs": [
        {
          "internalType": "string",
          "name": "tokenSymbol",
          "type": "string"
        },
        {
          "internalType": "string",
          "name": "tokenName",
          "type": "string"
        }
      ],
      "stateMutability": "nonpayable",
      "type": "constructor"
    },
    {
      "anonymous": false,
      "inputs": [
        {
          "indexed": true,
          "internalType": "address",
          "name": "newAdmin",
          "type": "address"
        },
        {
          "indexed": true,
          "internalType": "uint256",
          "name": "amount",
          "type": "uint256"
        }
      ],
      "name": "AddAdmin",
      "type": "event"
    },
    {
      "anonymous": false,
      "inputs": [
        {
          "indexed": true,
          "internalType": "address",
          "name": "owner",
          "type": "address"
        },
        {
          "indexed": true,
          "internalType": "address",
          "name": "spender",
          "type": "address"
        },
        {
          "indexed": false,
          "internalType": "uint256",
          "name": "value",
          "type": "uint256"
        }
      ],
      "name": "Approval",
      "type": "event"
    },
    {
      "anonymous": false,
      "inputs": [
        {
          "indexed": true,
          "internalType": "address",
          "name": "spender",
          "type": "address"
        },
        {
          "indexed": true,
          "internalType": "uint256",
          "name": "sort",
          "type": "uint256"
        },
        {
          "indexed": true,
          "internalType": "address",
          "name": "caller",
          "type": "address"
        },
        {
          "indexed": false,
          "internalType": "address",
          "name": "token",
          "type": "address"
        }
      ],
      "name": "LOG_DEL_WHITELIST",
      "type": "event"
    },
    {
      "anonymous": false,
      "inputs": [
        {
          "indexed": true,
          "internalType": "address",
          "name": "spender",
          "type": "address"
        },
        {
          "indexed": true,
          "internalType": "uint256",
          "name": "sort",
          "type": "uint256"
        },
        {
          "indexed": true,
          "internalType": "address",
          "name": "caller",
          "type": "address"
        },
        {
          "indexed": false,
          "internalType": "address",
          "name": "token",
          "type": "address"
        }
      ],
      "name": "LOG_WHITELIST",
      "type": "event"
    },
    {
      "anonymous": true,
      "inputs": [
        {
          "indexed": true,
          "internalType": "bytes4",
          "name": "sig",
          "type": "bytes4"
        },
        {
          "indexed": true,
          "internalType": "address",
          "name": "caller",
          "type": "address"
        },
        {
          "indexed": false,
          "internalType": "bytes",
          "name": "data",
          "type": "bytes"
        }
      ],
      "name": "LogCall",
      "type": "event"
    },
    {
      "anonymous": false,
      "inputs": [
        {
          "indexed": true,
          "internalType": "address",
          "name": "caller",
          "type": "address"
        },
        {
          "indexed": true,
          "internalType": "address",
          "name": "tokenOut",
          "type": "address"
        },
        {
          "indexed": false,
          "internalType": "uint256",
          "name": "tokenAmountOut",
          "type": "uint256"
        }
      ],
      "name": "LogExit",
      "type": "event"
    },
    {
      "anonymous": false,
      "inputs": [
        {
          "indexed": true,
          "internalType": "address",
          "name": "caller",
          "type": "address"
        },
        {
          "indexed": true,
          "internalType": "address",
          "name": "tokenIn",
          "type": "address"
        },
        {
          "indexed": false,
          "internalType": "uint256",
          "name": "tokenAmountIn",
          "type": "uint256"
        }
      ],
      "name": "LogJoin",
      "type": "event"
    },
    {
      "anonymous": false,
      "inputs": [
        {
          "indexed": true,
          "internalType": "address",
          "name": "previousOwner",
          "type": "address"
        },
        {
          "indexed": true,
          "internalType": "address",
          "name": "newOwner",
          "type": "address"
        }
      ],
      "name": "OwnershipTransferred",
      "type": "event"
    },
    {
      "anonymous": false,
      "inputs": [
        {
          "indexed": true,
          "internalType": "address",
          "name": "oldAdmin",
          "type": "address"
        },
        {
          "indexed": true,
          "internalType": "uint256",
          "name": "amount",
          "type": "uint256"
        }
      ],
      "name": "RemoveAdmin",
      "type": "event"
    },
    {
      "anonymous": false,
      "inputs": [
        {
          "indexed": true,
          "internalType": "uint256",
          "name": "managerFee",
          "type": "uint256"
        },
        {
          "indexed": true,
          "internalType": "uint256",
          "name": "issueFee",
          "type": "uint256"
        },
        {
          "indexed": true,
          "internalType": "uint256",
          "name": "redeemFee",
          "type": "uint256"
        },
        {
          "indexed": false,
          "internalType": "uint256",
          "name": "perfermanceFee",
          "type": "uint256"
        }
      ],
      "name": "SetManagerFee",
      "type": "event"
    },
    {
      "anonymous": false,
      "inputs": [
        {
          "indexed": true,
          "internalType": "address",
          "name": "from",
          "type": "address"
        },
        {
          "indexed": true,
          "internalType": "address",
          "name": "to",
          "type": "address"
        },
        {
          "indexed": false,
          "internalType": "uint256",
          "name": "value",
          "type": "uint256"
        }
      ],
      "name": "Transfer",
      "type": "event"
    },
    {
      "anonymous": false,
      "inputs": [
        {
          "indexed": true,
          "internalType": "address",
          "name": "caller",
          "type": "address"
        },
        {
          "indexed": true,
          "internalType": "string",
          "name": "sizeType",
          "type": "string"
        },
        {
          "indexed": false,
          "internalType": "uint256",
          "name": "oldSize",
          "type": "uint256"
        },
        {
          "indexed": false,
          "internalType": "uint256",
          "name": "newSize",
          "type": "uint256"
        }
      ],
      "name": "sizeChanged",
      "type": "event"
    },
    {
      "inputs": [],
      "name": "DECIMALS",
      "outputs": [
        {
          "internalType": "uint8",
          "name": "",
          "type": "uint8"
        }
      ],
      "stateMutability": "view",
      "type": "function"
    },
    {
      "inputs": [],
      "name": "NAME",
      "outputs": [
        {
          "internalType": "string",
          "name": "",
          "type": "string"
        }
      ],
      "stateMutability": "view",
      "type": "function"
    },
    {
      "inputs": [
        {
          "internalType": "uint256[]",
          "name": "sort",
          "type": "uint256[]"
        },
        {
          "internalType": "address[]",
          "name": "token",
          "type": "address[]"
        }
      ],
      "name": "addTokenToWhitelist",
      "outputs": [],
      "stateMutability": "nonpayable",
      "type": "function"
    },
    {
      "inputs": [
        {
          "internalType": "address",
          "name": "",
          "type": "address"
        }
      ],
      "name": "adminList",
      "outputs": [
        {
          "internalType": "bool",
          "name": "",
          "type": "bool"
        }
      ],
      "stateMutability": "view",
      "type": "function"
    },
    {
      "inputs": [],
      "name": "allOwnerPercentage",
      "outputs": [
        {
          "internalType": "uint256",
          "name": "",
          "type": "uint256"
        }
      ],
      "stateMutability": "view",
      "type": "function"
    },
    {
      "inputs": [
        {
          "internalType": "address",
          "name": "owner",
          "type": "address"
        },
        {
          "internalType": "address",
          "name": "spender",
          "type": "address"
        }
      ],
      "name": "allowance",
      "outputs": [
        {
          "internalType": "uint256",
          "name": "",
          "type": "uint256"
        }
      ],
      "stateMutability": "view",
      "type": "function"
    },
    {
      "inputs": [
        {
          "internalType": "address",
          "name": "spender",
          "type": "address"
        },
        {
          "internalType": "uint256",
          "name": "amount",
          "type": "uint256"
        }
      ],
      "name": "approve",
      "outputs": [
        {
          "internalType": "bool",
          "name": "",
          "type": "bool"
        }
      ],
      "stateMutability": "nonpayable",
      "type": "function"
    },
    {
      "inputs": [],
      "name": "bFactory",
      "outputs": [
        {
          "internalType": "contract IBFactory",
          "name": "",
          "type": "address"
        }
      ],
      "stateMutability": "view",
      "type": "function"
    },
    {
      "inputs": [],
      "name": "bPool",
      "outputs": [
        {
          "internalType": "contract IBPool",
          "name": "",
          "type": "address"
        }
      ],
      "stateMutability": "view",
      "type": "function"
    },
    {
      "inputs": [
        {
          "internalType": "address",
          "name": "account",
          "type": "address"
        }
      ],
      "name": "balanceOf",
      "outputs": [
        {
          "internalType": "uint256",
          "name": "",
          "type": "uint256"
        }
      ],
      "stateMutability": "view",
      "type": "function"
    },
    {
      "inputs": [
        {
          "internalType": "address",
          "name": "",
          "type": "address"
        }
      ],
      "name": "beginFund",
      "outputs": [
        {
          "internalType": "uint256",
          "name": "etfAmount",
          "type": "uint256"
        },
        {
          "internalType": "uint256",
          "name": "fundAmount",
          "type": "uint256"
        }
      ],
      "stateMutability": "view",
      "type": "function"
    },
    {
      "inputs": [
        {
          "internalType": "uint256",
          "name": "amount",
          "type": "uint256"
        }
      ],
      "name": "burnPoolShareFromLib",
      "outputs": [],
      "stateMutability": "nonpayable",
      "type": "function"
    },
    {
      "inputs": [
        {
          "internalType": "address",
          "name": "provider",
          "type": "address"
        }
      ],
      "name": "canProvideLiquidity",
      "outputs": [
        {
          "internalType": "bool",
          "name": "",
          "type": "bool"
        }
      ],
      "stateMutability": "view",
      "type": "function"
    },
    {
      "inputs": [],
      "name": "claimManagerFee",
      "outputs": [],
      "stateMutability": "nonpayable",
      "type": "function"
    },
    {
      "inputs": [],
      "name": "claimPeriod",
      "outputs": [
        {
          "internalType": "uint256",
          "name": "",
          "type": "uint256"
        }
      ],
      "stateMutability": "view",
      "type": "function"
    },
    {
      "inputs": [
        {
          "internalType": "uint256",
          "name": "initialSupply",
          "type": "uint256"
        },
        {
          "internalType": "uint256",
          "name": "collectPeriod",
          "type": "uint256"
        },
        {
          "internalType": "enum SmartPoolManager.Period",
          "name": "closurePeriod",
          "type": "uint8"
        },
        {
          "components": [
            {
              "internalType": "uint256",
              "name": "bspFloor",
              "type": "uint256"
            },
            {
              "internalType": "uint256",
              "name": "bspCap",
              "type": "uint256"
            }
          ],
          "internalType": "struct SmartPoolManager.PoolTokenRange",
          "name": "tokenRange",
          "type": "tuple"
        }
      ],
      "name": "createPool",
      "outputs": [],
      "stateMutability": "nonpayable",
      "type": "function"
    },
    {
      "inputs": [],
      "name": "decimals",
      "outputs": [
        {
          "internalType": "uint8",
          "name": "",
          "type": "uint8"
        }
      ],
      "stateMutability": "view",
      "type": "function"
    },
    {
      "inputs": [
        {
          "internalType": "address",
          "name": "spender",
          "type": "address"
        },
        {
          "internalType": "uint256",
          "name": "amount",
          "type": "uint256"
        }
      ],
      "name": "decreaseApproval",
      "outputs": [
        {
          "internalType": "bool",
          "name": "",
          "type": "bool"
        }
      ],
      "stateMutability": "nonpayable",
      "type": "function"
    },
    {
      "inputs": [
        {
          "internalType": "address",
          "name": "",
          "type": "address"
        }
      ],
      "name": "endFund",
      "outputs": [
        {
          "internalType": "uint256",
          "name": "etfAmount",
          "type": "uint256"
        },
        {
          "internalType": "uint256",
          "name": "fundAmount",
          "type": "uint256"
        }
      ],
      "stateMutability": "view",
      "type": "function"
    },
    {
      "inputs": [],
      "name": "etfStatus",
      "outputs": [
        {
          "internalType": "uint256",
          "name": "collectPeriod",
          "type": "uint256"
        },
        {
          "internalType": "uint256",
          "name": "collectEndTime",
          "type": "uint256"
        },
        {
          "internalType": "uint256",
          "name": "closurePeriod",
          "type": "uint256"
        },
        {
          "internalType": "uint256",
          "name": "closureEndTime",
          "type": "uint256"
        },
        {
          "internalType": "uint256",
          "name": "upperCap",
          "type": "uint256"
        },
        {
          "internalType": "uint256",
          "name": "floorCap",
          "type": "uint256"
        },
        {
          "internalType": "uint256",
          "name": "managerFee",
          "type": "uint256"
        },
        {
          "internalType": "uint256",
          "name": "redeemFee",
          "type": "uint256"
        },
        {
          "internalType": "uint256",
          "name": "issueFee",
          "type": "uint256"
        },
        {
          "internalType": "uint256",
          "name": "perfermanceFee",
          "type": "uint256"
        },
        {
          "internalType": "uint256",
          "name": "startClaimFeeTime",
          "type": "uint256"
        }
      ],
      "stateMutability": "view",
      "type": "function"
    },
    {
      "inputs": [],
      "name": "etype",
      "outputs": [
        {
          "internalType": "enum SmartPoolManager.Etypes",
          "name": "",
          "type": "uint8"
        }
      ],
      "stateMutability": "view",
      "type": "function"
    },
    {
      "inputs": [
        {
          "internalType": "address",
          "name": "_target",
          "type": "address"
        },
        {
          "internalType": "uint256",
          "name": "_value",
          "type": "uint256"
        },
        {
          "internalType": "bytes",
          "name": "_data",
          "type": "bytes"
        }
      ],
      "name": "execute",
      "outputs": [
        {
          "internalType": "bytes",
          "name": "_returnValue",
          "type": "bytes"
        }
      ],
      "stateMutability": "nonpayable",
      "type": "function"
    },
    {
      "inputs": [
        {
          "internalType": "uint256",
          "name": "poolAmountIn",
          "type": "uint256"
        },
        {
          "internalType": "uint256[]",
          "name": "minAmountsOut",
          "type": "uint256[]"
        }
      ],
      "name": "exitPool",
      "outputs": [],
      "stateMutability": "nonpayable",
      "type": "function"
    },
    {
      "inputs": [],
      "name": "getController",
      "outputs": [
        {
          "internalType": "address",
          "name": "",
          "type": "address"
        }
      ],
      "stateMutability": "view",
      "type": "function"
    },
    {
      "inputs": [],
      "name": "getDesynSafeMathVersion",
      "outputs": [
        {
          "internalType": "address",
          "name": "",
          "type": "address"
        }
      ],
      "stateMutability": "pure",
      "type": "function"
    },
    {
      "inputs": [],
      "name": "getOwnerPercentage",
      "outputs": [
        {
          "internalType": "uint256[]",
          "name": "",
          "type": "uint256[]"
        }
      ],
      "stateMutability": "view",
      "type": "function"
    },
    {
      "inputs": [],
      "name": "getOwners",
      "outputs": [
        {
          "internalType": "address[]",
          "name": "",
          "type": "address[]"
        }
      ],
      "stateMutability": "view",
      "type": "function"
    },
    {
      "inputs": [],
      "name": "getRightsManagerVersion",
      "outputs": [
        {
          "internalType": "address",
          "name": "",
          "type": "address"
        }
      ],
      "stateMutability": "pure",
      "type": "function"
    },
    {
      "inputs": [],
      "name": "getSmartPoolManagerVersion",
      "outputs": [
        {
          "internalType": "address",
          "name": "",
          "type": "address"
        }
      ],
      "stateMutability": "pure",
      "type": "function"
    },
    {
      "inputs": [
        {
          "internalType": "enum RightsManager.Permissions",
          "name": "permission",
          "type": "uint8"
        }
      ],
      "name": "hasPermission",
      "outputs": [
        {
          "internalType": "bool",
          "name": "",
          "type": "bool"
        }
      ],
      "stateMutability": "view",
      "type": "function"
    },
    {
      "inputs": [
        {
          "internalType": "address",
          "name": "spender",
          "type": "address"
        },
        {
          "internalType": "uint256",
          "name": "amount",
          "type": "uint256"
        }
      ],
      "name": "increaseApproval",
      "outputs": [
        {
          "internalType": "bool",
          "name": "",
          "type": "bool"
        }
      ],
      "stateMutability": "nonpayable",
      "type": "function"
    },
    {
      "inputs": [
        {
          "internalType": "address",
          "name": "factoryAddress",
          "type": "address"
        },
        {
          "components": [
            {
              "internalType": "string",
              "name": "poolTokenSymbol",
              "type": "string"
            },
            {
              "internalType": "string",
              "name": "poolTokenName",
              "type": "string"
            },
            {
              "internalType": "address[]",
              "name": "constituentTokens",
              "type": "address[]"
            },
            {
              "internalType": "uint256[]",
              "name": "tokenBalances",
              "type": "uint256[]"
            },
            {
              "internalType": "uint256[]",
              "name": "tokenWeights",
              "type": "uint256[]"
            },
            {
              "internalType": "uint256",
              "name": "swapFee",
              "type": "uint256"
            },
            {
              "internalType": "uint256",
              "name": "managerFee",
              "type": "uint256"
            },
            {
              "internalType": "uint256",
              "name": "redeemFee",
              "type": "uint256"
            },
            {
              "internalType": "uint256",
              "name": "issueFee",
              "type": "uint256"
            },
            {
              "internalType": "uint256",
              "name": "perfermanceFee",
              "type": "uint256"
            },
            {
              "internalType": "enum SmartPoolManager.Etypes",
              "name": "etype",
              "type": "uint8"
            }
          ],
          "internalType": "struct SmartPoolManager.PoolParams",
          "name": "poolParams",
          "type": "tuple"
        },
        {
          "components": [
            {
              "internalType": "bool",
              "name": "canPauseSwapping",
              "type": "bool"
            },
            {
              "internalType": "bool",
              "name": "canChangeSwapFee",
              "type": "bool"
            },
            {
              "internalType": "bool",
              "name": "canChangeWeights",
              "type": "bool"
            },
            {
              "internalType": "bool",
              "name": "canAddRemoveTokens",
              "type": "bool"
            },
            {
              "internalType": "bool",
              "name": "canWhitelistLPs",
              "type": "bool"
            },
            {
              "internalType": "bool",
              "name": "canTokenWhiteLists",
              "type": "bool"
            }
          ],
          "internalType": "struct RightsManager.Rights",
          "name": "rightsStruct",
          "type": "tuple"
        }
      ],
      "name": "init",
      "outputs": [],
      "stateMutability": "nonpayable",
      "type": "function"
    },
    {
      "inputs": [],
      "name": "initBool",
      "outputs": [
        {
          "internalType": "bool",
          "name": "",
          "type": "bool"
        }
      ],
      "stateMutability": "view",
      "type": "function"
    },
    {
      "inputs": [
        {
          "internalType": "address[]",
          "name": "_owners",
          "type": "address[]"
        },
        {
          "internalType": "uint256[]",
          "name": "_ownerPercentage",
          "type": "uint256[]"
        }
      ],
      "name": "initHandle",
      "outputs": [],
      "stateMutability": "nonpayable",
      "type": "function"
    },
    {
      "inputs": [],
      "name": "isCompletedCollect",
      "outputs": [
        {
          "internalType": "bool",
          "name": "",
          "type": "bool"
        }
      ],
      "stateMutability": "view",
      "type": "function"
    },
    {
      "inputs": [
        {
          "internalType": "uint256",
          "name": "poolAmountOut",
          "type": "uint256"
        },
        {
          "internalType": "uint256[]",
          "name": "maxAmountsIn",
          "type": "uint256[]"
        },
        {
          "internalType": "address",
          "name": "kol",
          "type": "address"
        }
      ],
      "name": "joinPool",
      "outputs": [],
      "stateMutability": "nonpayable",
      "type": "function"
    },
    {
      "inputs": [
        {
          "internalType": "uint256",
          "name": "amount",
          "type": "uint256"
        }
      ],
      "name": "mintPoolShareFromLib",
      "outputs": [],
      "stateMutability": "nonpayable",
      "type": "function"
    },
    {
      "inputs": [],
      "name": "name",
      "outputs": [
        {
          "internalType": "string",
          "name": "",
          "type": "string"
        }
      ],
      "stateMutability": "view",
      "type": "function"
    },
    {
      "inputs": [],
      "name": "oracleAddress",
      "outputs": [
        {
          "internalType": "address",
          "name": "",
          "type": "address"
        }
      ],
      "stateMutability": "view",
      "type": "function"
    },
    {
      "inputs": [
        {
          "internalType": "uint256",
          "name": "",
          "type": "uint256"
        }
      ],
      "name": "ownerPercentage",
      "outputs": [
        {
          "internalType": "uint256",
          "name": "",
          "type": "uint256"
        }
      ],
      "stateMutability": "view",
      "type": "function"
    },
    {
      "inputs": [
        {
          "internalType": "uint256",
          "name": "",
          "type": "uint256"
        }
      ],
      "name": "owners",
      "outputs": [
        {
          "internalType": "address",
          "name": "",
          "type": "address"
        }
      ],
      "stateMutability": "view",
      "type": "function"
    },
    {
      "inputs": [
        {
          "internalType": "address",
          "name": "from",
          "type": "address"
        },
        {
          "internalType": "uint256",
          "name": "amount",
          "type": "uint256"
        }
      ],
      "name": "pullPoolShareFromLib",
      "outputs": [],
      "stateMutability": "nonpayable",
      "type": "function"
    },
    {
      "inputs": [
        {
          "internalType": "address",
          "name": "to",
          "type": "address"
        },
        {
          "internalType": "uint256",
          "name": "amount",
          "type": "uint256"
        }
      ],
      "name": "pushPoolShareFromLib",
      "outputs": [],
      "stateMutability": "nonpayable",
      "type": "function"
    },
    {
      "inputs": [
        {
          "internalType": "address",
          "name": "tokenA",
          "type": "address"
        },
        {
          "internalType": "address",
          "name": "tokenB",
          "type": "address"
        },
        {
          "internalType": "uint256",
          "name": "deltaWeight",
          "type": "uint256"
        },
        {
          "internalType": "uint256",
          "name": "minAmountOut",
          "type": "uint256"
        }
      ],
      "name": "rebalance",
      "outputs": [],
      "stateMutability": "nonpayable",
      "type": "function"
    },
    {
      "inputs": [
        {
          "internalType": "address",
          "name": "owner",
          "type": "address"
        }
      ],
      "name": "removeOwner",
      "outputs": [],
      "stateMutability": "nonpayable",
      "type": "function"
    },
    {
      "inputs": [
        {
          "internalType": "address",
          "name": "provider",
          "type": "address"
        }
      ],
      "name": "removeWhitelistedLiquidityProvider",
      "outputs": [],
      "stateMutability": "nonpayable",
      "type": "function"
    },
    {
      "inputs": [],
      "name": "rights",
      "outputs": [
        {
          "internalType": "bool",
          "name": "canPauseSwapping",
          "type": "bool"
        },
        {
          "internalType": "bool",
          "name": "canChangeSwapFee",
          "type": "bool"
        },
        {
          "internalType": "bool",
          "name": "canChangeWeights",
          "type": "bool"
        },
        {
          "internalType": "bool",
          "name": "canAddRemoveTokens",
          "type": "bool"
        },
        {
          "internalType": "bool",
          "name": "canWhitelistLPs",
          "type": "bool"
        },
        {
          "internalType": "bool",
          "name": "canTokenWhiteLists",
          "type": "bool"
        }
      ],
      "stateMutability": "view",
      "type": "function"
    },
    {
      "inputs": [
        {
          "internalType": "address",
          "name": "newOwner",
          "type": "address"
        },
        {
          "internalType": "uint256",
          "name": "_ownerPercentage",
          "type": "uint256"
        }
      ],
      "name": "setAddAdminList",
      "outputs": [],
      "stateMutability": "nonpayable",
      "type": "function"
    },
    {
      "inputs": [
        {
          "internalType": "uint256",
          "name": "newCap",
          "type": "uint256"
        }
      ],
      "name": "setCap",
      "outputs": [],
      "stateMutability": "nonpayable",
      "type": "function"
    },
    {
      "inputs": [
        {
          "internalType": "address",
          "name": "newOwner",
          "type": "address"
        }
      ],
      "name": "setController",
      "outputs": [],
      "stateMutability": "nonpayable",
      "type": "function"
    },
    {
      "inputs": [],
      "name": "symbol",
      "outputs": [
        {
          "internalType": "string",
          "name": "",
          "type": "string"
        }
      ],
      "stateMutability": "view",
      "type": "function"
    },
    {
      "inputs": [],
      "name": "totalSupply",
      "outputs": [
        {
          "internalType": "uint256",
          "name": "",
          "type": "uint256"
        }
      ],
      "stateMutability": "view",
      "type": "function"
    },
    {
      "inputs": [
        {
          "internalType": "address",
          "name": "recipient",
          "type": "address"
        },
        {
          "internalType": "uint256",
          "name": "amount",
          "type": "uint256"
        }
      ],
      "name": "transfer",
      "outputs": [
        {
          "internalType": "bool",
          "name": "",
          "type": "bool"
        }
      ],
      "stateMutability": "nonpayable",
      "type": "function"
    },
    {
      "inputs": [
        {
          "internalType": "address",
          "name": "sender",
          "type": "address"
        },
        {
          "internalType": "address",
          "name": "recipient",
          "type": "address"
        },
        {
          "internalType": "uint256",
          "name": "amount",
          "type": "uint256"
        }
      ],
      "name": "transferFrom",
      "outputs": [
        {
          "internalType": "bool",
          "name": "",
          "type": "bool"
        }
      ],
      "stateMutability": "nonpayable",
      "type": "function"
    },
    {
      "inputs": [],
      "name": "vaultAddress",
      "outputs": [
        {
          "internalType": "address",
          "name": "",
          "type": "address"
        }
      ],
      "stateMutability": "view",
      "type": "function"
    },
    {
      "inputs": [
        {
          "internalType": "address",
          "name": "provider",
          "type": "address"
        }
      ],
      "name": "whitelistLiquidityProvider",
      "outputs": [],
      "stateMutability": "nonpayable",
      "type": "function"
    }
  ],
  "transactionHash": "0x45d77bf0983ffb0b35a6d9167e1b855b0a5aa7234b743c1af77393c6200441a6",
  "args": [
    "aaaaa",
    "swwsww"
  ],
  "numDeployments": 1,
  "solcInputHash": "ad611d3edcdf2b99f8b7701d90abc71c",
  "bytecode": "0x60806040526107086022553480156200001757600080fd5b5060405162005fc138038062005fc18339810160408190526200003a91620001ce565b815182908290620000539060039060208501906200008b565b508051620000699060049060208401906200008b565b5050600580546001600160a01b0319163317905550506001600b555062000235565b828054600181600116156101000203166002900490600052602060002090601f016020900481019282601f10620000ce57805160ff1916838001178555620000fe565b82800160010185558215620000fe579182015b82811115620000fe578251825591602001919060010190620000e1565b506200010c92915062000110565b5090565b5b808211156200010c576000815560010162000111565b600082601f83011262000138578081fd5b81516001600160401b03808211156200014f578283fd5b6040516020601f8401601f191682018101838111838210171562000171578586fd5b806040525081945083825286818588010111156200018e57600080fd5b600092505b83831015620001b2578583018101518284018201529182019162000193565b83831115620001c45760008185840101525b5050505092915050565b60008060408385031215620001e1578182fd5b82516001600160401b0380821115620001f8578384fd5b620002068683870162000127565b935060208501519150808211156200021c578283fd5b506200022b8582860162000127565b9150509250929050565b615d7c80620002456000396000f3fe608060405234801561001057600080fd5b50600436106102985760003560e01c80637228c87b116101635780637228c87b1461049c57806372ba9acd146104bb57806373a9855c146104dc57806374983a0d146104f15780637dc2cd98146104f9578063806c6f871461050157806391a806c91461051457806392eefe9b1461052757806395d89b411461053a578063980e8db614610542578063992f6ba51461055c5780639d829c2b1461056f578063a0e67e2b14610577578063a3f4df7e1461058c578063a6c245c414610594578063a89ae4ba146105a7578063a9059cbb146105af578063b02f0b73146105c2578063b61d27f6146105d5578063b64ef17b146105e8578063c5318d0f146105f0578063c83a1c2d14610603578063d29986c114610616578063d2fed42e1461061e578063d73dd62314610626578063dd62ed3e14610639578063e2762d4b1461064c578063f3b085721461065f57610298565b8063025e7c271461029d57806306fdde03146102c65780630892b93d146102db578063095dcccc146102f0578063095ea7b3146103035780630a16594014610323578063173825d91461032b57806318160ddd1461033e578063220eb7601461035357806323b872dd1461036657806327304dfd146103795780632e0f26251461038c5780633018205f146103a1578063309a042c146103a9578063313ce567146103be57806337c6f4d9146103c65780633befcde8146103d95780633ef14479146103ec578063430bf08a146103ff57806347786d37146104075780634ba578821461041a5780635468d6d71461042d57806355b190551461043557806355c32a231461044857806356fb3bd61461045b57806366188463146104635780636e49db1c1461047657806370a0823114610489575b600080fd5b6102b06102ab366004614d5e565b610667565b6040516102bd919061505e565b60405180910390f35b6102ce61068e565b6040516102bd91906152f7565b6102ee6102e9366004614e33565b610724565b005b6102ee6102fe366004614a3b565b610bdb565b610316610311366004614a3b565b610c08565b6040516102bd9190615260565b6102b0610c61565b6102ee6103393660046147db565b610c70565b610346610e52565b6040516102bd9190615b17565b6102ee610361366004614d5e565b610e58565b61031661037436600461484b565b610e83565b6103166103873660046147db565b610fad565b610394610fc2565b6040516102bd9190615c12565b6102b0610fc7565b6103b1610fd6565b6040516102bd919061524d565b61039461102d565b6103166103d4366004614d3f565b611032565b6102ee6103e7366004614dd7565b6110c7565b6102ee6103fa366004614b81565b611981565b6102b0611aa4565b6102ee610415366004614d5e565b611ab3565b6102ee610428366004614d5e565b611be1565b610316611c09565b6102ee6104433660046148d0565b611c19565b6102ee610456366004614a3b565b61200c565b610316612035565b610316610471366004614a3b565b612045565b6102ee61048436600461488b565b61211f565b6103466104973660046147db565b6124c9565b6104a46124e4565b6040516102bd9b9a99989796959493929190615bc4565b6104ce6104c93660046147db565b612508565b6040516102bd929190615b37565b6104e4612521565b6040516102bd919061553c565b6102b061252a565b610346612542565b61031661050f3660046147db565b612548565b6104ce6105223660046147db565b612591565b6102ee6105353660046147db565b6125aa565b6102ce612656565b61054a6126b7565b6040516102bd9695949392919061528c565b6102ee61056a366004614a3b565b6126f0565b6102b0612819565b61057f612831565b6040516102bd91906151a3565b6102ce612892565b6102ee6105a2366004614c64565b6128be565b6102b0612a71565b6103166105bd366004614a3b565b612a80565b6102ee6105d0366004614d8e565b612abc565b6102ce6105e3366004614a66565b61329c565b6102b0613460565b6103466105fe366004614d5e565b61346f565b6102ee6106113660046147db565b61348d565b6103466135a9565b6102ee6135af565b610316610634366004614a3b565b613913565b610346610647366004614813565b613987565b6102ee61065a3660046147db565b6139b2565b6102b0613ae7565b6007818154811061067457fe5b6000918252602090912001546001600160a01b0316905081565b60048054604080516020601f600260001961010060018816150201909516949094049384018190048102820181019092528281526060939092909183018282801561071a5780601f106106ef5761010080835404028352916020019161071a565b820191906000526020600020905b8154815290600101906020018083116106fd57829003601f168201915b5050505050905090565b6005546001600160a01b031633146107575760405162461bcd60e51b815260040161074e9061559f565b60405180910390fd5b336001600160a01b03166000356001600160e01b0319166001600160e01b0319166000366040516107899291906152db565b60405180910390a26002600b5414156107b45760405162461bcd60e51b815260040161074e906157e2565b6002600b55600f54604080516358c3de9360e11b815290516001600160a01b039092169163b187bd2691600480820192602092909190829003018186803b1580156107fe57600080fd5b505afa158015610812573d6000803e3d6000fd5b505050506040513d601f19601f820116820180604052508101906108369190614cba565b156108535760405162461bcd60e51b815260040161074e90615797565b600160275460ff16600181111561086657fe5b1415610bc757601654604051633e9fc0bd60e01b815273F2C828cE47Be2b9974d2D336CE92199eB20A90F891633e9fc0bd916108a89187918990600401615b45565b60006040518083038186803b1580156108c057600080fd5b505af41580156108d4573d6000803e3d6000fd5b5050601654601754601f805492945090925061091b916000906108f357fe5b9060005260206000200154610915856020015189613aff90919063ffffffff16565b90613b7c565b601655601f8054610949919060009061093057fe5b6000918252602090912001548451610915908990613aff565b6017556040516109589061503c565b60405190819003812060165490913391600080516020615ce783398151915291610983918791615b37565b60405180910390a36040516109979061504d565b60405190819003812060175490913391600080516020615ce7833981519152916109c2918691615b37565b60405180910390a36000428601818660028111156109dc57fe5b14156109ec57610e109150610a13565b60018660028111156109fa57fe5b1415610a0b5762ed4e009150610a13565b6301da9c0091505b601287905560138190556014829055808201601581905560245460405163108ad9bd60e21b81526000916001600160a01b03169063422b66f490610a5f90601e90601f90600401615228565b602060405180830381600087803b158015610a7957600080fd5b505af1158015610a8d573d6000803e3d6000fd5b505050506040513d601f19601f82011682018060405250810190610ab19190614d76565b9050600f60009054906101000a90046001600160a01b03166001600160a01b031663703a9ec96040518163ffffffff1660e01b815260040160206040518083038186803b158015610b0157600080fd5b505afa158015610b15573d6000803e3d6000fd5b505050506040513d601f19601f82011682018060405250810190610b3991906147f7565b6001600160a01b031663d7256c703333601e601f6040518563ffffffff1660e01b8152600401610b6c9493929190615072565b600060405180830381600087803b158015610b8657600080fd5b505af1158015610b9a573d6000803e3d6000fd5b505050506000811115610bc0573360009081526025602052604090208a81556001018190555b5050505050505b610bd084613c0d565b50506001600b555050565b333014610bfa5760405162461bcd60e51b815260040161074e9061559f565b610c048282613f41565b5050565b3360008181526002602090815260408083206001600160a01b03871680855292528083208590555191929091600080516020615d2783398151915290610c4f908690615b17565b60405180910390a35060015b92915050565b600f546001600160a01b031681565b6005546001600160a01b03163314610c9a5760405162461bcd60e51b815260040161074e9061559f565b6001600160a01b0381166000908152600660205260408120805460ff19169055805b600754811015610dbe57826001600160a01b031660078281548110610cdd57fe5b6000918252602090912001546001600160a01b03161415610db657600780546000198101908110610d0a57fe5b600091825260209091200154600780546001600160a01b039092169183908110610d3057fe5b9060005260206000200160006101000a8154816001600160a01b0302191690836001600160a01b0316021790555060088181548110610d6b57fe5b90600052602060002001549150600860016008805490500381548110610d8d57fe5b906000526020600020015460088281548110610da557fe5b600091825260209091200155610dbe565b600101610cbc565b506007805480610dca57fe5b600082815260209020810160001990810180546001600160a01b03191690550190556008805480610df757fe5b600082815260208120820160001990810182905590910190915560098054839003905560405182916001600160a01b038516917f7b0884b4b6bb4e0c1385ad42168fa556c14d4d799c1bf22f081aff3efff6ea0c9190a35050565b60005490565b333014610e775760405162461bcd60e51b815260040161074e9061559f565b610e8081613f4c565b50565b60006001600160a01b038316610eab5760405162461bcd60e51b815260040161074e906156a7565b336001600160a01b0385161480610ee557506001600160a01b03841660009081526002602090815260408083203384529091529020548211155b610f015760405162461bcd60e51b815260040161074e90615900565b610f0c848484613fb4565b6001600160a01b0384166000818152600260209081526040808320338085529252909120549114801590610f4257506000198114155b15610fa057610f518184614053565b6001600160a01b03861660008181526002602090815260408083203380855292529182902084905590519092600080516020615d2783398151915291610f979190615b17565b60405180910390a35b60019150505b9392505050565b60066020526000908152604090205460ff1681565b601281565b6005546001600160a01b031690565b6060600880548060200260200160405190810160405280929190818152602001828054801561071a57602002820191906000526020600020905b815481526020019060010190808311611010575050505050905090565b601290565b6040516322c1aa2560e11b81526000907311D61d0855aCfB43b3C9275b70403EcCC721253690634583544a9061106f906011908690600401615aa2565b60206040518083038186803b15801561108757600080fd5b505af415801561109b573d6000803e3d6000fd5b505050506040513d601f19601f820116820180604052508101906110bf9190614cba565b90505b919050565b336001600160a01b03166000356001600160e01b0319166001600160e01b0319166000366040516110f99291906152db565b60405180910390a26002600b5414156111245760405162461bcd60e51b815260040161074e906157e2565b6002600b556010546001600160a01b03166111515760405162461bcd60e51b815260040161074e90615726565b600f60009054906101000a90046001600160a01b03166001600160a01b031663b187bd266040518163ffffffff1660e01b815260040160206040518083038186803b15801561119f57600080fd5b505afa1580156111b3573d6000803e3d6000fd5b505050506040513d601f19601f820116820180604052508101906111d79190614cba565b156111f45760405162461bcd60e51b815260040161074e90615797565b6011543360009081526021602052604090205473F2C828cE47Be2b9974d2D336CE92199eB20A90F89163dba4989a9160ff600160201b90920482169116600160275460ff16600181111561124457fe5b146012600101546040518563ffffffff1660e01b815260040161126a94939291906152bc565b60006040518083038186803b15801561128257600080fd5b505af4158015611296573d6000803e3d6000fd5b5050601154600160281b900460ff161591506112d29050576112b661408c565b6112d25760405162461bcd60e51b815260040161074e90615a44565b601054601a5460405163b78e0bc960e01b815260609273F2C828cE47Be2b9974d2D336CE92199eB20A90F89263b78e0bc9926113259230926001600160a01b03909116918b918b918b91906004016154f5565b60006040518083038186803b15801561133d57600080fd5b505af4158015611351573d6000803e3d6000fd5b505050506040513d6000823e601f3d908101601f191682016040526113799190810190614be1565b90506060601060009054906101000a90046001600160a01b03166001600160a01b031663cc77828d6040518163ffffffff1660e01b815260040160006040518083038186803b1580156113cb57600080fd5b505afa1580156113df573d6000803e3d6000fd5b505050506040513d6000823e601f3d908101601f191682016040526114079190810190614ae9565b9050606081516001600160401b038111801561142257600080fd5b5060405190808252806020026020018201604052801561144c578160200160208202803683370190505b50601a54909150600090600160275460ff16600181111561146957fe5b14156115f75760245460405163108ad9bd60e21b81526001600160a01b039091169063422b66f4906114a190879089906004016151b6565b602060405180830381600087803b1580156114bb57600080fd5b505af11580156114cf573d6000803e3d6000fd5b505050506040513d601f19601f820116820180604052508101906114f39190614d76565b9150600f60009054906101000a90046001600160a01b03166001600160a01b031663703a9ec96040518163ffffffff1660e01b815260040160206040518083038186803b15801561154357600080fd5b505afa158015611557573d6000803e3d6000fd5b505050506040513d601f19601f8201168201806040525081019061157b91906147f7565b6001600160a01b031663d7256c70873387896040518563ffffffff1660e01b81526004016115ac94939291906150f9565b600060405180830381600087803b1580156115c657600080fd5b505af11580156115da573d6000803e3d6000fd5b5050602454600160b01b900460ff16151591506115f79050575060005b60005b845181101561176357600073F2C828cE47Be2b9974d2D336CE92199eB20A90F863d378778c30601060009054906101000a90046001600160a01b031689868151811061164257fe5b60200260200101518b878151811061165657fe5b6020026020010151886040518663ffffffff1660e01b815260040161167f9594939291906153cf565b60206040518083038186803b15801561169757600080fd5b505af41580156116ab573d6000803e3d6000fd5b505050506040513d601f19601f820116820180604052508101906116cf9190614d76565b90508582815181106116dd57fe5b60200260200101516001600160a01b0316336001600160a01b03167fea39e3b35c5cd8937999ed5f7fbab30acd562a931fc4a887fed2a47c3074aa7289858151811061172557fe5b602002602001015160405161173a9190615b17565b60405180910390a38085838151811061174f57fe5b6020908102919091010152506001016115fa565b5080156117d457602354604051631483d99d60e01b81526001600160a01b0390911690631483d99d906117a1908790879081906000906004016151db565b600060405180830381600087803b1580156117bb57600080fd5b505af11580156117cf573d6000803e3d6000fd5b505050505b6117dd89611c00565b6117e7338a610bfa565b811561182e573360009081526025602052604090208054611808908b6140a7565b81553360009081526025602052604090206001015461182790846140a7565b6001909101555b6000600160275460ff16600181111561184357fe5b1480156118c55750601260050154306001600160a01b03166318160ddd6040518163ffffffff1660e01b815260040160206040518083038186803b15801561188a57600080fd5b505afa15801561189e573d6000803e3d6000fd5b505050506040513d601f19601f820116820180604052508101906118c29190614d76565b10155b80156118db5750602454600160b01b900460ff16155b90508015611970576024805460ff60b01b1916600160b01b179055601054601a54604051630ff4d58d60e01b815273F2C828cE47Be2b9974d2D336CE92199eB20A90F892630ff4d58d9261193f9230926001600160a01b0316918b91600401615444565b60006040518083038186803b15801561195757600080fd5b505af415801561196b573d6000803e3d6000fd5b505050505b50506001600b555050505050505050565b6005546001600160a01b031633146119ab5760405162461bcd60e51b815260040161074e9061559f565b80518251146119cc5760405162461bcd60e51b815260040161074e90615777565b600a5460ff16156119ef5760405162461bcd60e51b815260040161074e906155f2565b60005b8251811015611a6a57818181518110611a0757fe5b6020026020010151600960008282540192505081905550600160066000858481518110611a3057fe5b6020908102919091018101516001600160a01b03168252810191909152604001600020805460ff19169115159190911790556001016119f2565b508151611a7e9060079060208501906144f9565b508051611a9290600890602084019061455e565b5050600a805460ff1916600117905550565b6023546001600160a01b031681565b336001600160a01b03166000356001600160e01b0319166001600160e01b031916600036604051611ae59291906152db565b60405180910390a26002600b541415611b105760405162461bcd60e51b815260040161074e906157e2565b6002600b556010546001600160a01b0316611b3d5760405162461bcd60e51b815260040161074e90615726565b6005546001600160a01b03163314611b675760405162461bcd60e51b815260040161074e9061559f565b600060275460ff166001811115611b7a57fe5b14611b975760405162461bcd60e51b815260040161074e90615a77565b604051611ba39061503c565b60405190819003812060165490913391600080516020615ce783398151915291611bcf91908690615b37565b60405180910390a36016556001600b55565b333014611c005760405162461bcd60e51b815260040161074e9061559f565b610e80816140cc565b602454600160b01b900460ff1681565b73F2C828cE47Be2b9974d2D336CE92199eB20A90F86380681cab8360a001518460c001518561010001518660e001518761012001518860600151518960800151518a6040015151602460159054906101000a900460ff166040518a63ffffffff1660e01b8152600401611c9499989796959493929190615b83565b60006040518083038186803b158015611cac57600080fd5b505af4158015611cc0573d6000803e3d6000fd5b50506024805460ff60a81b1916600160a81b17905550508051601180546020808501516040808701516060880151608089015160a08a01511515600160281b0260ff60281b19911515600160201b0260ff60201b1993151563010000000263ff00000019951515620100000262ff0000199815156101000261ff00199d151560ff19909c169b909b179c909c169990991796909616999099179290921695909517949094169190911792909216939093179091558301518051611d8792601e9201906144f9565b5060608201518051611da191601f9160209091019061455e565b5060808201518051611db9916020919082019061455e565b506040805161016081018252600080825260208201819052918101829052606081018290526000196080820181905260a0820183905260c08581015190830181905260e0808701519084018190526101008088015190850181905261012080890151908601819052426101409687018190526012889055601388905560148890556015889055601695909555601796909655601892909255601955601a55601b92909255601c919091558201516027805460ff191660018381811115611e7b57fe5b0217905550600f80546001600160a01b0319166001600160a01b0385811691909117918290556040805163b18b78dd60e01b81529051929091169163b18b78dd91600480820192602092909190829003018186803b158015611edc57600080fd5b505afa158015611ef0573d6000803e3d6000fd5b505050506040513d601f19601f82011682018060405250810190611f1491906147f7565b602480546001600160a01b0319166001600160a01b03928316179055600f54604080516311b2515f60e31b815290519190921691638d928af8916004808301926020929190829003018186803b158015611f6d57600080fd5b505afa158015611f81573d6000803e3d6000fd5b505050506040513d601f19601f82011682018060405250810190611fa591906147f7565b602380546001600160a01b0319166001600160a01b0392909216919091179055601954601a54601854601b546040517f3d6667963e842e2b5ff1d4feab2c9b92f17c9003592e2ad229952eeb9a293fd091611fff91615b17565b60405180910390a4505050565b33301461202b5760405162461bcd60e51b815260040161074e9061559f565b610c0482826140f9565b602454600160a81b900460ff1681565b3360009081526002602090815260408083206001600160a01b0386168452909152812054808310612099573360009081526002602090815260408083206001600160a01b03881684529091528120556120c8565b6120a38184614053565b3360009081526002602090815260408083206001600160a01b03891684529091529020555b3360008181526002602090815260408083206001600160a01b038916808552925291829020549151909291600080516020615d278339815191529161210d9190615b17565b60405180910390a35060019392505050565b336001600160a01b03166000356001600160e01b0319166001600160e01b0319166000366040516121519291906152db565b60405180910390a26002600b54141561217c5760405162461bcd60e51b815260040161074e906157e2565b6002600b553360009081526006602052604090205460ff16806121a957506005546001600160a01b031633145b6121c55760405162461bcd60e51b815260040161074e9061557c565b6010546001600160a01b03166121ed5760405162461bcd60e51b815260040161074e90615726565b600f60009054906101000a90046001600160a01b03166001600160a01b031663b187bd266040518163ffffffff1660e01b815260040160206040518083038186803b15801561223b57600080fd5b505afa15801561224f573d6000803e3d6000fd5b505050506040513d601f19601f820116820180604052508101906122739190614cba565b156122905760405162461bcd60e51b815260040161074e90615797565b60105460245473F2C828cE47Be2b9974d2D336CE92199eB20A90F89163a782948d916001600160a01b0390911690600160b01b900460ff16600160275460ff1660018111156122db57fe5b60135460155460115460405160e089901b6001600160e01b031916815261231a97969594909414936201000090910460ff16908d908d9060040161530a565b60006040518083038186803b15801561233257600080fd5b505af4158015612346573d6000803e3d6000fd5b5050505061235383614104565b60235460405163607e58b360e11b81526000916001600160a01b03169063c0fcb1669061238490309060040161505e565b60206040518083038186803b15801561239c57600080fd5b505afa1580156123b0573d6000803e3d6000fd5b505050506040513d601f19601f820116820180604052508101906123d49190614cba565b9050801561243f5760235460405163edb12adf60e01b81526001600160a01b039091169063edb12adf9061240c90309060040161505e565b600060405180830381600087803b15801561242657600080fd5b505af115801561243a573d6000803e3d6000fd5b505050505b6010546040516350884c9160e01b815273F2C828cE47Be2b9974d2D336CE92199eB20A90F8916350884c919161248d9130916001600160a01b03909116908a908a908a908a90600401615395565b60006040518083038186803b1580156124a557600080fd5b505af41580156124b9573d6000803e3d6000fd5b50506001600b5550505050505050565b6001600160a01b031660009081526001602052604090205490565b601254601354601454601554601654601754601854601954601a54601b54601c548b565b6026602052600090815260409020805460019091015482565b60275460ff1681565b7311D61d0855aCfB43b3C9275b70403EcCC721253690565b60225481565b601154600090600160201b900460ff161561257f57506001600160a01b03811660009081526021602052604090205460ff166110c2565b506001600160a01b03811615156110c2565b6025602052600090815260409020805460019091015482565b6005546001600160a01b031633146125d45760405162461bcd60e51b815260040161074e9061559f565b6001600160a01b0381166125fa5760405162461bcd60e51b815260040161074e906156a7565b6005546040516001600160a01b038084169216907f8be0079c531659141344cd1fd0a4f28419497f9722a3daafe3b4186f6b6457e090600090a3600580546001600160a01b0319166001600160a01b0392909216919091179055565b60038054604080516020601f600260001961010060018816150201909516949094049384018190048102820181019092528281526060939092909183018282801561071a5780601f106106ef5761010080835404028352916020019161071a565b60115460ff80821691610100810482169162010000820481169163010000008104821691600160201b8204811691600160281b90041686565b6005546001600160a01b0316331461271a5760405162461bcd60e51b815260040161074e9061559f565b6001600160a01b03821660009081526006602052604090205460ff16156127535760405162461bcd60e51b815260040161074e90615648565b6001600160a01b038216600081815260066020526040808220805460ff19166001908117909155600780548083019091557fa66cc928b5edb82af9bd49922954155ab7b0942694bea4ce44661d9a8736c6880180546001600160a01b0319168517905560088054918201815583527ff3f7a9fe364faab93b216da50a3214154f22a0a2b415b23a84c8169e8b636ee3018490556009805485019055518392917fbd5dcf0b25226117c4a68a0129ffdd4b0541ef5e482ad7de9a96ccb6d6a8ebde91a35050565b73F2C828cE47Be2b9974d2D336CE92199eB20A90F890565b6060600780548060200260200160405190810160405280929190818152602001828054801561071a57602002820191906000526020600020905b81546001600160a01b0316815260019091019060200180831161286b575050505050905090565b6040518060400160405280601081526020016f11195cde5b8814db585c9d08141bdbdb60821b81525081565b6005546001600160a01b031633146128e85760405162461bcd60e51b815260040161074e9061559f565b601154600160281b900460ff16801561290b5750602454600160a01b900460ff16155b6129275760405162461bcd60e51b815260040161074e906155cb565b80518251146129485760405162461bcd60e51b815260040161074e90615930565b60005b8151811015612a5957600f5483516000916001600160a01b031690638f49f44d9086908590811061297857fe5b602002602001015185858151811061298c57fe5b60200260200101516040518363ffffffff1660e01b81526004016129b1929190615b20565b60206040518083038186803b1580156129c957600080fd5b505afa1580156129dd573d6000803e3d6000fd5b505050506040513d601f19601f82011682018060405250810190612a019190614cba565b905080612a205760405162461bcd60e51b815260040161074e906156d1565b612a50848381518110612a2f57fe5b6020026020010151848481518110612a4357fe5b60200260200101516141d7565b5060010161294b565b50506024805460ff60a01b1916600160a01b17905550565b6024546001600160a01b031681565b60006001600160a01b038316612aa85760405162461bcd60e51b815260040161074e906156a7565b612ab3338484613fb4565b50600192915050565b336001600160a01b03166000356001600160e01b0319166001600160e01b031916600036604051612aee9291906152db565b60405180910390a26002600b541415612b195760405162461bcd60e51b815260040161074e906157e2565b6002600b556010546001600160a01b0316612b465760405162461bcd60e51b815260040161074e90615726565b600f60009054906101000a90046001600160a01b03166001600160a01b031663b187bd266040518163ffffffff1660e01b815260040160206040518083038186803b158015612b9457600080fd5b505afa158015612ba8573d6000803e3d6000fd5b505050506040513d601f19601f82011682018060405250810190612bcc9190614cba565b15612be95760405162461bcd60e51b815260040161074e90615797565b600073F2C828cE47Be2b9974d2D336CE92199eB20A90F863c026fa3d30600160275460ff166001811115612c1957fe5b60245460155460135433600090815260256020526040908190208054600190910154915160e08a901b6001600160e01b0319168152612c7198979690961495600160b01b90950460ff16949091908e90600401615354565b60606040518083038186803b158015612c8957600080fd5b505af4158015612c9d573d6000803e3d6000fd5b505050506040513d601f19601f82011682018060405250810190612cc19190614ea0565b3360009081526025602052604090819020600181019390935592909155601054915163151c70f960e21b815290925060609173F2C828cE47Be2b9974d2D336CE92199eB20A90F891635471c3e491612d2d9130916001600160a01b03169087908a908a906004016154c1565b60006040518083038186803b158015612d4557600080fd5b505af4158015612d59573d6000803e3d6000fd5b505050506040513d6000823e601f3d908101601f19168201604052612d819190810190614be1565b9050612d8d338361202b565b612d9682610e77565b6010546040805163cc77828d60e01b815290516060926001600160a01b03169163cc77828d916004808301926000929190829003018186803b158015612ddb57600080fd5b505afa158015612def573d6000803e3d6000fd5b505050506040513d6000823e601f3d908101601f19168201604052612e179190810190614ae9565b9050606081516001600160401b0381118015612e3257600080fd5b50604051908082528060200260200182016040528015612e5c578160200160208202803683370190505b509050600080600160275460ff166001811115612e7557fe5b148015612e8457506015544210155b15612f105760245460405163108ad9bd60e21b81526001600160a01b039091169063422b66f490612ebb90879089906004016151b6565b602060405180830381600087803b158015612ed557600080fd5b505af1158015612ee9573d6000803e3d6000fd5b505050506040513d601f19601f82011682018060405250810190612f0d9190614d76565b91505b601954600160275460ff166001811115612f2657fe5b1415612f5a57602454600090600160b01b900460ff16158015612f4b57506013544210155b90508015612f5857600091505b505b821561303557336000908152602660209081526040808320805460019182015460259094529382902080549101549151633796ed7f60e21b81528b9473F2C828cE47Be2b9974d2D336CE92199eB20A90F89463de5bb5fc94612fc794929391929188908c90600401615b5b565b60606040518083038186803b158015612fdf57600080fd5b505af4158015612ff3573d6000803e3d6000fd5b505050506040513d601f19601f820116820180604052508101906130179190614ea0565b33600090815260266020526040902060018101929092559190559250505b606085516001600160401b038111801561304e57600080fd5b50604051908082528060200260200182016040528015613078578160200160208202803683370190505b50905060005b865181101561320057600080600073F2C828cE47Be2b9974d2D336CE92199eB20A90F863e844db6f30601060009054906101000a90046001600160a01b03168d88815181106130c957fe5b60200260200101518f89815181106130dd57fe5b60200260200101518b8d6012600901546040518863ffffffff1660e01b815260040161310f9796959493929190615403565b60606040518083038186803b15801561312757600080fd5b505af415801561313b573d6000803e3d6000fd5b505050506040513d601f19601f8201168201806040525081019061315f9190614ea0565b9250925092508085858151811061317257fe5b6020026020010181815250508289858151811061318b57fe5b6020026020010181815250508984815181106131a357fe5b60200260200101516001600160a01b0316336001600160a01b03167fc62fc35ac75e3bff532648e2859a3e1694002cfa357614ae8e034df7f83db5e9846040516131ed9190615b17565b60405180910390a350505060010161307e565b508115158061321b575060008311801561321b5750601b5415155b1561328a57602354604051631483d99d60e01b81526001600160a01b0390911690631483d99d90613257908990899086906001906004016151db565b600060405180830381600087803b15801561327157600080fd5b505af1158015613285573d6000803e3d6000fd5b505050505b50506001600b55505050505050505050565b6060336001600160a01b03166000356001600160e01b0319166001600160e01b0319166000366040516132d09291906152db565b60405180910390a26002600b5414156132fb5760405162461bcd60e51b815260040161074e906157e2565b6002600b556010546001600160a01b03166133285760405162461bcd60e51b815260040161074e90615726565b600f546040516338f0d24560e01b81526001600160a01b03909116906338f0d2459061335a90309033906004016150df565b60206040518083038186803b15801561337257600080fd5b505afa158015613386573d6000803e3d6000fd5b505050506040513d601f19601f820116820180604052508101906133aa9190614cba565b6133c65760405162461bcd60e51b815260040161074e90615618565b601054604051635b0e93fb60e11b81526001600160a01b039091169063b61d27f6906133fc908890889088908890600401615150565b600060405180830381600087803b15801561341657600080fd5b505af115801561342a573d6000803e3d6000fd5b505050506040513d6000823e601f3d908101601f191682016040526134529190810190614cd6565b6001600b5595945050505050565b6010546001600160a01b031681565b6008818154811061347c57fe5b600091825260209091200154905081565b6005546001600160a01b031633146134b75760405162461bcd60e51b815260040161074e9061559f565b6002600b5414156134da5760405162461bcd60e51b815260040161074e906157e2565b6002600b556040513390600080356001600160e01b031916916134ff919036906152db565b60405180910390a2601154604051630d3aa47160e41b815273F2C828cE47Be2b9974d2D336CE92199eB20A90F89163d3aa47109161354f91600160201b900460ff1690600190869060040161526b565b60006040518083038186803b15801561356757600080fd5b505af415801561357b573d6000803e3d6000fd5b505050506001600160a01b03166000908152602160205260409020805460ff19166001908117909155600b55565b60095481565b336001600160a01b03166000356001600160e01b0319166001600160e01b0319166000366040516135e19291906152db565b60405180910390a26002600b54141561360c5760405162461bcd60e51b815260040161074e906157e2565b6002600b55600f546040805163911fb03560e01b8152905133926001600160a01b03169163911fb035916004808301926020929190829003018186803b15801561365557600080fd5b505afa158015613669573d6000803e3d6000fd5b505050506040513d601f19601f8201168201806040525081019061368d91906147f7565b6001600160a01b0316146136b35760405162461bcd60e51b815260040161074e90615704565b6010546001600160a01b03166136db5760405162461bcd60e51b815260040161074e90615726565b600160275460ff1660018111156136ee57fe5b141561371d57602454600160b01b900460ff1661371d5760405162461bcd60e51b815260040161074e90615550565b600061372e426012600a0154614053565b90506022548110156137525760405162461bcd60e51b815260040161074e90615807565b6000602254828161375f57fe5b0490506060601060009054906101000a90046001600160a01b03166001600160a01b031663cc77828d6040518163ffffffff1660e01b815260040160006040518083038186803b1580156137b257600080fd5b505afa1580156137c6573d6000803e3d6000fd5b505050506040513d6000823e601f3d908101601f191682016040526137ee9190810190614ae9565b601054601854604051631aef8c2560e11b815292935060609273F2C828cE47Be2b9974d2D336CE92199eB20A90F8926335df184a9261383f9230926001600160a01b03169188918a90600401615481565b60006040518083038186803b15801561385757600080fd5b505af415801561386b573d6000803e3d6000fd5b505050506040513d6000823e601f3d908101601f191682016040526138939190810190614be1565b602354604051630bac7b8160e01b81529192506001600160a01b031690630bac7b81906138c690859085906004016151b6565b600060405180830381600087803b1580156138e057600080fd5b505af11580156138f4573d6000803e3d6000fd5b5050602254601c80549690910290950190945550506001600b55505050565b3360009081526002602090815260408083206001600160a01b038616845290915281205461394190836140a7565b3360008181526002602090815260408083206001600160a01b03891680855292529182902084905590519092600080516020615d2783398151915291610c4f9190615b17565b6001600160a01b03918216600090815260026020908152604080832093909416825291909152205490565b6005546001600160a01b031633146139dc5760405162461bcd60e51b815260040161074e9061559f565b6002600b5414156139ff5760405162461bcd60e51b815260040161074e906157e2565b6002600b556040513390600080356001600160e01b03191691613a24919036906152db565b60405180910390a26011546001600160a01b03821660009081526021602052604090819020549051630d3aa47160e41b815273F2C828cE47Be2b9974d2D336CE92199eB20A90F89263d3aa471092613a9192600160201b90920460ff90811692911690869060040161526b565b60006040518083038186803b158015613aa957600080fd5b505af4158015613abd573d6000803e3d6000fd5b505050506001600160a01b03166000908152602160205260409020805460ff191690556001600b55565b734E9FA6fE9C793CC0864AB331b2c13EEAeAcd467990565b600082613b0e57506000610c5b565b82820282848281613b1b57fe5b0414613b395760405162461bcd60e51b815260040161074e9061584a565b6706f05b59d3b20000810181811015613b645760405162461bcd60e51b815260040161074e9061584a565b6000670de0b6b3a7640000825b049695505050505050565b600081613b9b5760405162461bcd60e51b815260040161074e906158ab565b82613ba857506000610c5b565b670de0b6b3a764000083810290848281613bbe57fe5b0414613bdc5760405162461bcd60e51b815260040161074e906157b8565b60028304810181811015613c025760405162461bcd60e51b815260040161074e906157b8565b6000848281613b7157fe5b6010546001600160a01b031615613c365760405162461bcd60e51b815260040161074e9061574f565b613c3f81611c00565b613c493382610bfa565b600f60009054906101000a90046001600160a01b03166001600160a01b03166391cefde46040518163ffffffff1660e01b8152600401602060405180830381600087803b158015613c9957600080fd5b505af1158015613cad573d6000803e3d6000fd5b505050506040513d601f19601f82011682018060405250810190613cd191906147f7565b601080546001600160a01b0319166001600160a01b03928316179081905560405163d03f2a0f60e01b815273F2C828cE47Be2b9974d2D336CE92199eB20A90F89263d03f2a0f92613d29929116908590600401615137565b60006040518083038186803b158015613d4157600080fd5b505af4158015613d55573d6000803e3d6000fd5b5050505060005b601e54811015613f05576000601e8281548110613d7557fe5b6000918252602082200154601f80546001600160a01b0390921693509084908110613d9c57fe5b90600052602060002001549050600060208481548110613db857fe5b90600052602060002001549050613dce83614104565b6040516323b872dd60e01b81526000906001600160a01b038516906323b872dd90613e01903390309088906004016150bb565b602060405180830381600087803b158015613e1b57600080fd5b505af1158015613e2f573d6000803e3d6000fd5b505050506040513d601f19601f82011682018060405250810190613e539190614cba565b905080613e725760405162461bcd60e51b815260040161074e90615961565b601054613e8e906001600160a01b0386811691166000196142b1565b50601054604051631c9c3ca760e31b81526001600160a01b039091169063e4e1e53890613ec390879087908790600401615182565b600060405180830381600087803b158015613edd57600080fd5b505af1158015613ef1573d6000803e3d6000fd5b505060019096019550613d5c945050505050565b505b601e5415610e8057601e805480613f1a57fe5b600082815260209020810160001990810180546001600160a01b0319169055019055613f07565b610c04308383613fb4565b30600090815260016020526040902054613f669082614053565b3060009081526001602052604081209190915554613f849082614053565b60009081556040513090600080516020615d0783398151915290613fa9908590615b17565b60405180910390a350565b6001600160a01b038316600090815260016020526040902054613fd79082614053565b6001600160a01b03808516600090815260016020526040808220939093559084168152205461400690826140a7565b6001600160a01b038084166000818152600160205260409081902093909355915190851690600080516020615d0783398151915290614046908590615b17565b60405180910390a3505050565b60008060006140628585614458565b9150915080156140845760405162461bcd60e51b815260040161074e906159ef565b509392505050565b6000600c5460001461409f5760016140a2565b60005b905090565b600082820183811015610fa65760405162461bcd60e51b815260040161074e90615a1a565b6140d58161447d565b6016546000541115610e805760405162461bcd60e51b815260040161074e906158d1565b610c04823083613fb4565b600f5460405163db7ca46b60e01b81526001600160a01b039091169063db7ca46b9061413490849060040161505e565b60206040518083038186803b15801561414c57600080fd5b505afa158015614160573d6000803e3d6000fd5b505050506040513d601f19601f820116820180604052508101906141849190614cba565b6141a05760405162461bcd60e51b815260040161074e90615874565b602454600160a01b900460ff1615610e80576141bb816144db565b610e805760405162461bcd60e51b815260040161074e90615672565b6001600160a01b0381166141fd5760405162461bcd60e51b815260040161074e9061598a565b614206816144db565b156142235760405162461bcd60e51b815260040161074e906159bd565b6000828152600e602090815260408083206001600160a01b038516845282528083208054600160ff199182168117909255600d9093529281902080549092168317909155600c8054909201909155513390839030907f5ab6a0d7af8e86f78c34acea4f8aff1be027227ce1bc29e03f57f39b788f4b04906142a590869061505e565b60405180910390a45050565b600080846001600160a01b031663dd62ed3e30866040518363ffffffff1660e01b81526004016142e29291906150df565b60206040518083038186803b1580156142fa57600080fd5b505afa15801561430e573d6000803e3d6000fd5b505050506040513d601f19601f820116820180604052508101906143329190614d76565b905082811415614346576001915050610fa6565b80156143cf5760405163095ea7b360e01b81526001600160a01b0386169063095ea7b39061437b908790600090600401615137565b602060405180830381600087803b15801561439557600080fd5b505af11580156143a9573d6000803e3d6000fd5b505050506040513d601f19601f820116820180604052508101906143cd9190614cba565b505b60405163095ea7b360e01b81526001600160a01b0386169063095ea7b3906143fd9087908790600401615137565b602060405180830381600087803b15801561441757600080fd5b505af115801561442b573d6000803e3d6000fd5b505050506040513d601f19601f8201168201806040525081019061444f9190614cba565b95945050505050565b60008083831161446e5750508082036000614476565b505081810360015b9250929050565b3060009081526001602052604090205461449790826140a7565b30600090815260016020526040812091909155546144b590826140a7565b6000908155604051309190600080516020615d0783398151915290613fa9908590615b17565b6001600160a01b03166000908152600d602052604090205460ff1690565b82805482825590600052602060002090810192821561454e579160200282015b8281111561454e57825182546001600160a01b0319166001600160a01b03909116178255602090920191600190910190614519565b5061455a9291506145a5565b5090565b828054828255906000526020600020908101928215614599579160200282015b8281111561459957825182559160200191906001019061457e565b5061455a9291506145c4565b5b8082111561455a5780546001600160a01b03191681556001016145a6565b5b8082111561455a57600081556001016145c5565b600082601f8301126145e9578081fd5b81356145fc6145f782615c46565b615c20565b81815291506020808301908481018184028601820187101561461d57600080fd5b60005b8481101561464557813561463381615cc3565b84529282019290820190600101614620565b505050505092915050565b60008083601f840112614661578182fd5b5081356001600160401b03811115614677578182fd5b602083019150836020808302850101111561447657600080fd5b600082601f8301126146a1578081fd5b81356146af6145f782615c46565b8181529150602080830190848101818402860182018710156146d057600080fd5b60005b84811015614645578135845292820192908201906001016146d3565b803560028110610c5b57600080fd5b600082601f83011261470e578081fd5b813561471c6145f782615c65565b915080825283602082850101111561473357600080fd5b8060208401602084013760009082016020015292915050565b600060c0828403121561475d578081fd5b61476760c0615c20565b9050813561477481615cd8565b8152602082013561478481615cd8565b6020820152604082013561479781615cd8565b604082015260608201356147aa81615cd8565b606082015260808201356147bd81615cd8565b608082015260a08201356147d081615cd8565b60a082015292915050565b6000602082840312156147ec578081fd5b8135610fa681615cc3565b600060208284031215614808578081fd5b8151610fa681615cc3565b60008060408385031215614825578081fd5b823561483081615cc3565b9150602083013561484081615cc3565b809150509250929050565b60008060006060848603121561485f578081fd5b833561486a81615cc3565b9250602084013561487a81615cc3565b929592945050506040919091013590565b600080600080608085870312156148a0578182fd5b84356148ab81615cc3565b935060208501356148bb81615cc3565b93969395505050506040820135916060013590565b60008060006101008085870312156148e6578182fd5b84356148f181615cc3565b935060208501356001600160401b038082111561490c578384fd5b818701915061016080838a031215614922578485fd5b61492b81615c20565b905082358281111561493b578586fd5b6149478a8286016146fe565b82525060208301358281111561495b578586fd5b6149678a8286016146fe565b60208301525060408301358281111561497e578586fd5b61498a8a8286016145d9565b6040830152506060830135828111156149a1578586fd5b6149ad8a828601614691565b6060830152506080830135828111156149c4578586fd5b6149d08a828601614691565b60808301525060a083013560a082015260c083013560c082015260e083013560e08201528383013584820152610120935083830135848201526101409350614a1a898585016146ef565b8482015280955050505050614a32856040860161474c565b90509250925092565b60008060408385031215614a4d578182fd5b8235614a5881615cc3565b946020939093013593505050565b60008060008060608587031215614a7b578182fd5b8435614a8681615cc3565b93506020850135925060408501356001600160401b0380821115614aa8578384fd5b818701915087601f830112614abb578384fd5b813581811115614ac9578485fd5b886020828501011115614ada578485fd5b95989497505060200194505050565b60006020808385031215614afb578182fd5b82516001600160401b03811115614b10578283fd5b8301601f81018513614b20578283fd5b8051614b2e6145f782615c46565b8181528381019083850185840285018601891015614b4a578687fd5b8694505b83851015614b75578051614b6181615cc3565b835260019490940193918501918501614b4e565b50979650505050505050565b60008060408385031215614b93578182fd5b82356001600160401b0380821115614ba9578384fd5b614bb5868387016145d9565b93506020850135915080821115614bca578283fd5b50614bd785828601614691565b9150509250929050565b60006020808385031215614bf3578182fd5b82516001600160401b03811115614c08578283fd5b8301601f81018513614c18578283fd5b8051614c266145f782615c46565b8181528381019083850185840285018601891015614c42578687fd5b8694505b83851015614b75578051835260019490940193918501918501614c46565b60008060408385031215614c76578182fd5b82356001600160401b0380821115614c8c578384fd5b614c9886838701614691565b93506020850135915080821115614cad578283fd5b50614bd7858286016145d9565b600060208284031215614ccb578081fd5b8151610fa681615cd8565b600060208284031215614ce7578081fd5b81516001600160401b03811115614cfc578182fd5b8201601f81018413614d0c578182fd5b8051614d1a6145f782615c65565b818152856020838501011115614d2e578384fd5b61444f826020830160208601615c93565b600060208284031215614d50578081fd5b813560068110610fa6578182fd5b600060208284031215614d6f578081fd5b5035919050565b600060208284031215614d87578081fd5b5051919050565b600080600060408486031215614da2578081fd5b8335925060208401356001600160401b03811115614dbe578182fd5b614dca86828701614650565b9497909650939450505050565b60008060008060608587031215614dec578182fd5b8435935060208501356001600160401b03811115614e08578283fd5b614e1487828801614650565b9094509250506040850135614e2881615cc3565b939692955090935050565b60008060008084860360a0811215614e49578283fd5b8535945060208601359350604086013560038110614e65578384fd5b92506040605f1982011215614e78578182fd5b50614e836040615c20565b606086013581526080909501356020860152509194909350909190565b600080600060608486031215614eb4578081fd5b8351925060208401519150604084015190509250925092565b6000815180845260208085019450808401835b83811015614f055781516001600160a01b031687529582019590820190600101614ee0565b509495945050505050565b6000815480845260208085019450838352808320835b83811015614f055781546001600160a01b031687529582019560019182019101614f26565b81835260006001600160fb1b03831115614f63578081fd5b6020830280836020870137939093016020019283525090919050565b6000815180845260208085019450808401835b83811015614f0557815187529582019590820190600101614f92565b6000815480845260208085019450838352808320835b83811015614f0557815487529582019560019182019101614fc4565b15159052565b60008284528282602086013780602084860101526020601f19601f85011685010190509392505050565b60008151808452615028816020860160208601615c93565b601f01601f19169290920160200192915050565b642aa82822a960d91b815260050190565b64232627a7a960d91b815260050190565b6001600160a01b0391909116815260200190565b6001600160a01b0385811682528416602082015260806040820181905260009061509e90830185614f10565b82810360608401526150b08185614fae565b979650505050505050565b6001600160a01b039384168152919092166020820152604081019190915260600190565b6001600160a01b0392831681529116602082015260400190565b6001600160a01b0385811682528416602082015260806040820181905260009061512590830185614ecd565b82810360608401526150b08185614f7f565b6001600160a01b03929092168252602082015260400190565b600060018060a01b038616825284602083015260606040830152615178606083018486614fe6565b9695505050505050565b6001600160a01b039390931683526020830191909152604082015260600190565b600060208252610fa66020830184614ecd565b6000604082526151c96040830185614ecd565b828103602084015261444f8185614f7f565b6000608082526151ee6080830187614ecd565b82810360208401526152008187614f7f565b905082810360408401526152148186614f7f565b915050821515606083015295945050505050565b60006040825261523b6040830185614f10565b828103602084015261444f8185614fae565b600060208252610fa66020830184614f7f565b901515815260200190565b921515835290151560208301526001600160a01b0316604082015260600190565b9515158652931515602086015291151560408501521515606084015215156080830152151560a082015260c00190565b9315158452911515602084015215156040830152606082015260800190565b6000602082526152ef602083018486614fe6565b949350505050565b600060208252610fa66020830184615010565b6001600160a01b0398891681529615156020880152941515604087015260608601939093526080850191909152151560a0840152831660c083015290911660e08201526101000190565b6001600160a01b03989098168852951515602088015293151560408701526060860192909252608085015260a084015260c083015260e08201526101000190565b6001600160a01b0396871681529486166020860152928516604085015293166060830152608082019290925260a081019190915260c00190565b6001600160a01b03958616815293851660208501529190931660408301526060820192909252608081019190915260a00190565b6001600160a01b03978816815295871660208701529390951660408501526060840191909152608083015260a082019290925260c081019190915260e00190565b6001600160a01b0385811682528416602082015260806040820181905260009061547090830185614ecd565b905082606083015295945050505050565b6001600160a01b0386811682528516602082015260a0604082018190526000906154ad90830186614ecd565b606083019490945250608001529392505050565b6001600160a01b03868116825285166020820152604081018490526080606082018190526000906150b09083018486614f4b565b6001600160a01b038781168252861660208201526040810185905260a0606082018190526000906155299083018587614f4b565b9050826080830152979650505050505050565b602081016002831061554a57fe5b91905290565b602080825260129082015271436f6c6c656374696f6e206661696c65642160701b604082015260600190565b60208082526009908201526837b7363ca0b236b4b760b91b604082015260600190565b60208082526012908201527122a9292fa727aa2fa1a7a72a2927a62622a960711b604082015260600190565b6020808252600d908201526c4552525f4e4f5f52494748545360981b604082015260600190565b6020808252600c908201526b696e697469616c697a65642160a01b604082015260600190565b60208082526016908201527526a7a22aa6229024a9902727aa102922a3a4a9aa22a960511b604082015260600190565b60208082526010908201526f20b2323932b9b99034b99027bbb732b960811b604082015260600190565b6020808252601b908201527a11549497d393d517d5d212551157d513d2d15397d25397d413d3d3602a1b604082015260600190565b60208082526010908201526f4552525f5a45524f5f4144445245535360801b604082015260600190565b602080825260199082015278544f4b454e5f4d5553545f494e5f57484954455f4c4953545360381b604082015260600190565b60208082526008908201526727bbb730b13632a760c11b604082015260600190565b6020808252600f908201526e11549497d393d517d0d49150551151608a1b604082015260600190565b6020808252600e908201526d11549497d254d7d0d4915055115160921b604082015260600190565b60208082526006908201526506f776e6572560d41b604082015260600190565b602080825260079082015266085c185d5cd95960ca1b604082015260600190565b60208082526010908201526f11549497d1125597d25395115493905360821b604082015260600190565b6020808252600b908201526a4552525f5245454e54525960a81b604082015260600190565b60208082526023908201527f54686520636f6c6c656374696f6e206379636c65206973206e6f7420726561636040820152621a195960ea1b606082015260800190565b60208082526010908201526f4552525f4d554c5f4f564552464c4f5760801b604082015260600190565b6020808252601e908201527f4552525f4e4f545f57484954455f544f4b454e5f494e5f464143544f52590000604082015260600190565b6020808252600c908201526b4552525f4449565f5a45524f60a01b604082015260600190565b60208082526015908201527411549497d0d05417d31253525517d4915050d21151605a1b604082015260600190565b60208082526016908201527522a9292fa821aa27a5a2a72fa120a22fa1a0a62622a960511b604082015260600190565b60208082526017908201527608aa4a4bea69ea4a8bea89e968a9cbe9a92a69a82a8869604b1b604082015260600190565b6020808252600f908201526e4552525f45524332305f46414c534560881b604082015260600190565b6020808252601990820152784552525f494e56414c49445f544f4b454e5f4144445245535360381b604082015260600190565b6020808252601890820152774552525f4841535f4245454e5f41444445445f574849544560401b604082015260600190565b6020808252601190820152704552525f5355425f554e444552464c4f5760781b604082015260600190565b60208082526010908201526f4552525f4144445f4f564552464c4f5760801b604082015260600190565b60208082526019908201527822a9292fa9a427aaa6222fa9a2aa2faba424aa22aa27a5a2a760391b604082015260600190565b60208082526011908201527022a9292fa6aaa9aa2fa7a822a72fa2aa2360791b604082015260600190565b600060e082019050835460ff80821615158452808260081c1615156020850152808260101c1615156040850152808260181c1615156060850152615aee60808501828460201c16614fe0565b615b0060a08501828460281c16614fe0565b5050615b0b83615c88565b60c08301529392505050565b90815260200190565b9182526001600160a01b0316602082015260400190565b918252602082015260400190565b9283526020830191909152604082015260600190565b958652602086019490945260408501929092526060840152608083015260a082015260c00190565b988952602089019790975260408801959095526060870193909352608086019190915260a085015260c084015260e083015215156101008201526101200190565b9a8b5260208b019990995260408a01979097526060890195909552608088019390935260a087019190915260c086015260e08501526101008401526101208301526101408201526101600190565b60ff91909116815260200190565b6040518181016001600160401b0381118282101715615c3e57600080fd5b604052919050565b60006001600160401b03821115615c5b578081fd5b5060209081020190565b60006001600160401b03821115615c7a578081fd5b50601f01601f191660200190565b80600681106110c257fe5b60005b83811015615cae578181015183820152602001615c96565b83811115615cbd576000848401525b50505050565b6001600160a01b0381168114610e8057600080fd5b8015158114610e8057600080fdfe345c44e0d6869c4baccff8ecb8279bca00e6436947fce2da5beffcc9e5cabefbddf252ad1be2c89b69c2b068fc378daa952ba7f163c4a11628f55a4df523b3ef8c5be1e5ebec7d5bd14f71427d1e84f3dd0314c0f7b2291e5b200ac8c7c3b925a2646970667358221220e29a38b7edfa18cb5cffabf8235f2590668d7e299087428e71efea14382f88f664736f6c634300060c0033",
  "deployedBytecode": "0x608060405234801561001057600080fd5b50600436106102985760003560e01c80637228c87b116101635780637228c87b1461049c57806372ba9acd146104bb57806373a9855c146104dc57806374983a0d146104f15780637dc2cd98146104f9578063806c6f871461050157806391a806c91461051457806392eefe9b1461052757806395d89b411461053a578063980e8db614610542578063992f6ba51461055c5780639d829c2b1461056f578063a0e67e2b14610577578063a3f4df7e1461058c578063a6c245c414610594578063a89ae4ba146105a7578063a9059cbb146105af578063b02f0b73146105c2578063b61d27f6146105d5578063b64ef17b146105e8578063c5318d0f146105f0578063c83a1c2d14610603578063d29986c114610616578063d2fed42e1461061e578063d73dd62314610626578063dd62ed3e14610639578063e2762d4b1461064c578063f3b085721461065f57610298565b8063025e7c271461029d57806306fdde03146102c65780630892b93d146102db578063095dcccc146102f0578063095ea7b3146103035780630a16594014610323578063173825d91461032b57806318160ddd1461033e578063220eb7601461035357806323b872dd1461036657806327304dfd146103795780632e0f26251461038c5780633018205f146103a1578063309a042c146103a9578063313ce567146103be57806337c6f4d9146103c65780633befcde8146103d95780633ef14479146103ec578063430bf08a146103ff57806347786d37146104075780634ba578821461041a5780635468d6d71461042d57806355b190551461043557806355c32a231461044857806356fb3bd61461045b57806366188463146104635780636e49db1c1461047657806370a0823114610489575b600080fd5b6102b06102ab366004614d5e565b610667565b6040516102bd919061505e565b60405180910390f35b6102ce61068e565b6040516102bd91906152f7565b6102ee6102e9366004614e33565b610724565b005b6102ee6102fe366004614a3b565b610bdb565b610316610311366004614a3b565b610c08565b6040516102bd9190615260565b6102b0610c61565b6102ee6103393660046147db565b610c70565b610346610e52565b6040516102bd9190615b17565b6102ee610361366004614d5e565b610e58565b61031661037436600461484b565b610e83565b6103166103873660046147db565b610fad565b610394610fc2565b6040516102bd9190615c12565b6102b0610fc7565b6103b1610fd6565b6040516102bd919061524d565b61039461102d565b6103166103d4366004614d3f565b611032565b6102ee6103e7366004614dd7565b6110c7565b6102ee6103fa366004614b81565b611981565b6102b0611aa4565b6102ee610415366004614d5e565b611ab3565b6102ee610428366004614d5e565b611be1565b610316611c09565b6102ee6104433660046148d0565b611c19565b6102ee610456366004614a3b565b61200c565b610316612035565b610316610471366004614a3b565b612045565b6102ee61048436600461488b565b61211f565b6103466104973660046147db565b6124c9565b6104a46124e4565b6040516102bd9b9a99989796959493929190615bc4565b6104ce6104c93660046147db565b612508565b6040516102bd929190615b37565b6104e4612521565b6040516102bd919061553c565b6102b061252a565b610346612542565b61031661050f3660046147db565b612548565b6104ce6105223660046147db565b612591565b6102ee6105353660046147db565b6125aa565b6102ce612656565b61054a6126b7565b6040516102bd9695949392919061528c565b6102ee61056a366004614a3b565b6126f0565b6102b0612819565b61057f612831565b6040516102bd91906151a3565b6102ce612892565b6102ee6105a2366004614c64565b6128be565b6102b0612a71565b6103166105bd366004614a3b565b612a80565b6102ee6105d0366004614d8e565b612abc565b6102ce6105e3366004614a66565b61329c565b6102b0613460565b6103466105fe366004614d5e565b61346f565b6102ee6106113660046147db565b61348d565b6103466135a9565b6102ee6135af565b610316610634366004614a3b565b613913565b610346610647366004614813565b613987565b6102ee61065a3660046147db565b6139b2565b6102b0613ae7565b6007818154811061067457fe5b6000918252602090912001546001600160a01b0316905081565b60048054604080516020601f600260001961010060018816150201909516949094049384018190048102820181019092528281526060939092909183018282801561071a5780601f106106ef5761010080835404028352916020019161071a565b820191906000526020600020905b8154815290600101906020018083116106fd57829003601f168201915b5050505050905090565b6005546001600160a01b031633146107575760405162461bcd60e51b815260040161074e9061559f565b60405180910390fd5b336001600160a01b03166000356001600160e01b0319166001600160e01b0319166000366040516107899291906152db565b60405180910390a26002600b5414156107b45760405162461bcd60e51b815260040161074e906157e2565b6002600b55600f54604080516358c3de9360e11b815290516001600160a01b039092169163b187bd2691600480820192602092909190829003018186803b1580156107fe57600080fd5b505afa158015610812573d6000803e3d6000fd5b505050506040513d601f19601f820116820180604052508101906108369190614cba565b156108535760405162461bcd60e51b815260040161074e90615797565b600160275460ff16600181111561086657fe5b1415610bc757601654604051633e9fc0bd60e01b815273__$c61de259b17579437cb458fbe4ba8c0f49$__91633e9fc0bd916108a89187918990600401615b45565b60006040518083038186803b1580156108c057600080fd5b505af41580156108d4573d6000803e3d6000fd5b5050601654601754601f805492945090925061091b916000906108f357fe5b9060005260206000200154610915856020015189613aff90919063ffffffff16565b90613b7c565b601655601f8054610949919060009061093057fe5b6000918252602090912001548451610915908990613aff565b6017556040516109589061503c565b60405190819003812060165490913391600080516020615ce783398151915291610983918791615b37565b60405180910390a36040516109979061504d565b60405190819003812060175490913391600080516020615ce7833981519152916109c2918691615b37565b60405180910390a36000428601818660028111156109dc57fe5b14156109ec57610e109150610a13565b60018660028111156109fa57fe5b1415610a0b5762ed4e009150610a13565b6301da9c0091505b601287905560138190556014829055808201601581905560245460405163108ad9bd60e21b81526000916001600160a01b03169063422b66f490610a5f90601e90601f90600401615228565b602060405180830381600087803b158015610a7957600080fd5b505af1158015610a8d573d6000803e3d6000fd5b505050506040513d601f19601f82011682018060405250810190610ab19190614d76565b9050600f60009054906101000a90046001600160a01b03166001600160a01b031663703a9ec96040518163ffffffff1660e01b815260040160206040518083038186803b158015610b0157600080fd5b505afa158015610b15573d6000803e3d6000fd5b505050506040513d601f19601f82011682018060405250810190610b3991906147f7565b6001600160a01b031663d7256c703333601e601f6040518563ffffffff1660e01b8152600401610b6c9493929190615072565b600060405180830381600087803b158015610b8657600080fd5b505af1158015610b9a573d6000803e3d6000fd5b505050506000811115610bc0573360009081526025602052604090208a81556001018190555b5050505050505b610bd084613c0d565b50506001600b555050565b333014610bfa5760405162461bcd60e51b815260040161074e9061559f565b610c048282613f41565b5050565b3360008181526002602090815260408083206001600160a01b03871680855292528083208590555191929091600080516020615d2783398151915290610c4f908690615b17565b60405180910390a35060015b92915050565b600f546001600160a01b031681565b6005546001600160a01b03163314610c9a5760405162461bcd60e51b815260040161074e9061559f565b6001600160a01b0381166000908152600660205260408120805460ff19169055805b600754811015610dbe57826001600160a01b031660078281548110610cdd57fe5b6000918252602090912001546001600160a01b03161415610db657600780546000198101908110610d0a57fe5b600091825260209091200154600780546001600160a01b039092169183908110610d3057fe5b9060005260206000200160006101000a8154816001600160a01b0302191690836001600160a01b0316021790555060088181548110610d6b57fe5b90600052602060002001549150600860016008805490500381548110610d8d57fe5b906000526020600020015460088281548110610da557fe5b600091825260209091200155610dbe565b600101610cbc565b506007805480610dca57fe5b600082815260209020810160001990810180546001600160a01b03191690550190556008805480610df757fe5b600082815260208120820160001990810182905590910190915560098054839003905560405182916001600160a01b038516917f7b0884b4b6bb4e0c1385ad42168fa556c14d4d799c1bf22f081aff3efff6ea0c9190a35050565b60005490565b333014610e775760405162461bcd60e51b815260040161074e9061559f565b610e8081613f4c565b50565b60006001600160a01b038316610eab5760405162461bcd60e51b815260040161074e906156a7565b336001600160a01b0385161480610ee557506001600160a01b03841660009081526002602090815260408083203384529091529020548211155b610f015760405162461bcd60e51b815260040161074e90615900565b610f0c848484613fb4565b6001600160a01b0384166000818152600260209081526040808320338085529252909120549114801590610f4257506000198114155b15610fa057610f518184614053565b6001600160a01b03861660008181526002602090815260408083203380855292529182902084905590519092600080516020615d2783398151915291610f979190615b17565b60405180910390a35b60019150505b9392505050565b60066020526000908152604090205460ff1681565b601281565b6005546001600160a01b031690565b6060600880548060200260200160405190810160405280929190818152602001828054801561071a57602002820191906000526020600020905b815481526020019060010190808311611010575050505050905090565b601290565b6040516322c1aa2560e11b815260009073__$3a9c388c21df3b52adbbb2b73829b93ce6$__90634583544a9061106f906011908690600401615aa2565b60206040518083038186803b15801561108757600080fd5b505af415801561109b573d6000803e3d6000fd5b505050506040513d601f19601f820116820180604052508101906110bf9190614cba565b90505b919050565b336001600160a01b03166000356001600160e01b0319166001600160e01b0319166000366040516110f99291906152db565b60405180910390a26002600b5414156111245760405162461bcd60e51b815260040161074e906157e2565b6002600b556010546001600160a01b03166111515760405162461bcd60e51b815260040161074e90615726565b600f60009054906101000a90046001600160a01b03166001600160a01b031663b187bd266040518163ffffffff1660e01b815260040160206040518083038186803b15801561119f57600080fd5b505afa1580156111b3573d6000803e3d6000fd5b505050506040513d601f19601f820116820180604052508101906111d79190614cba565b156111f45760405162461bcd60e51b815260040161074e90615797565b6011543360009081526021602052604090205473__$c61de259b17579437cb458fbe4ba8c0f49$__9163dba4989a9160ff600160201b90920482169116600160275460ff16600181111561124457fe5b146012600101546040518563ffffffff1660e01b815260040161126a94939291906152bc565b60006040518083038186803b15801561128257600080fd5b505af4158015611296573d6000803e3d6000fd5b5050601154600160281b900460ff161591506112d29050576112b661408c565b6112d25760405162461bcd60e51b815260040161074e90615a44565b601054601a5460405163b78e0bc960e01b815260609273__$c61de259b17579437cb458fbe4ba8c0f49$__9263b78e0bc9926113259230926001600160a01b03909116918b918b918b91906004016154f5565b60006040518083038186803b15801561133d57600080fd5b505af4158015611351573d6000803e3d6000fd5b505050506040513d6000823e601f3d908101601f191682016040526113799190810190614be1565b90506060601060009054906101000a90046001600160a01b03166001600160a01b031663cc77828d6040518163ffffffff1660e01b815260040160006040518083038186803b1580156113cb57600080fd5b505afa1580156113df573d6000803e3d6000fd5b505050506040513d6000823e601f3d908101601f191682016040526114079190810190614ae9565b9050606081516001600160401b038111801561142257600080fd5b5060405190808252806020026020018201604052801561144c578160200160208202803683370190505b50601a54909150600090600160275460ff16600181111561146957fe5b14156115f75760245460405163108ad9bd60e21b81526001600160a01b039091169063422b66f4906114a190879089906004016151b6565b602060405180830381600087803b1580156114bb57600080fd5b505af11580156114cf573d6000803e3d6000fd5b505050506040513d601f19601f820116820180604052508101906114f39190614d76565b9150600f60009054906101000a90046001600160a01b03166001600160a01b031663703a9ec96040518163ffffffff1660e01b815260040160206040518083038186803b15801561154357600080fd5b505afa158015611557573d6000803e3d6000fd5b505050506040513d601f19601f8201168201806040525081019061157b91906147f7565b6001600160a01b031663d7256c70873387896040518563ffffffff1660e01b81526004016115ac94939291906150f9565b600060405180830381600087803b1580156115c657600080fd5b505af11580156115da573d6000803e3d6000fd5b5050602454600160b01b900460ff16151591506115f79050575060005b60005b845181101561176357600073__$c61de259b17579437cb458fbe4ba8c0f49$__63d378778c30601060009054906101000a90046001600160a01b031689868151811061164257fe5b60200260200101518b878151811061165657fe5b6020026020010151886040518663ffffffff1660e01b815260040161167f9594939291906153cf565b60206040518083038186803b15801561169757600080fd5b505af41580156116ab573d6000803e3d6000fd5b505050506040513d601f19601f820116820180604052508101906116cf9190614d76565b90508582815181106116dd57fe5b60200260200101516001600160a01b0316336001600160a01b03167fea39e3b35c5cd8937999ed5f7fbab30acd562a931fc4a887fed2a47c3074aa7289858151811061172557fe5b602002602001015160405161173a9190615b17565b60405180910390a38085838151811061174f57fe5b6020908102919091010152506001016115fa565b5080156117d457602354604051631483d99d60e01b81526001600160a01b0390911690631483d99d906117a1908790879081906000906004016151db565b600060405180830381600087803b1580156117bb57600080fd5b505af11580156117cf573d6000803e3d6000fd5b505050505b6117dd89611c00565b6117e7338a610bfa565b811561182e573360009081526025602052604090208054611808908b6140a7565b81553360009081526025602052604090206001015461182790846140a7565b6001909101555b6000600160275460ff16600181111561184357fe5b1480156118c55750601260050154306001600160a01b03166318160ddd6040518163ffffffff1660e01b815260040160206040518083038186803b15801561188a57600080fd5b505afa15801561189e573d6000803e3d6000fd5b505050506040513d601f19601f820116820180604052508101906118c29190614d76565b10155b80156118db5750602454600160b01b900460ff16155b90508015611970576024805460ff60b01b1916600160b01b179055601054601a54604051630ff4d58d60e01b815273__$c61de259b17579437cb458fbe4ba8c0f49$__92630ff4d58d9261193f9230926001600160a01b0316918b91600401615444565b60006040518083038186803b15801561195757600080fd5b505af415801561196b573d6000803e3d6000fd5b505050505b50506001600b555050505050505050565b6005546001600160a01b031633146119ab5760405162461bcd60e51b815260040161074e9061559f565b80518251146119cc5760405162461bcd60e51b815260040161074e90615777565b600a5460ff16156119ef5760405162461bcd60e51b815260040161074e906155f2565b60005b8251811015611a6a57818181518110611a0757fe5b6020026020010151600960008282540192505081905550600160066000858481518110611a3057fe5b6020908102919091018101516001600160a01b03168252810191909152604001600020805460ff19169115159190911790556001016119f2565b508151611a7e9060079060208501906144f9565b508051611a9290600890602084019061455e565b5050600a805460ff1916600117905550565b6023546001600160a01b031681565b336001600160a01b03166000356001600160e01b0319166001600160e01b031916600036604051611ae59291906152db565b60405180910390a26002600b541415611b105760405162461bcd60e51b815260040161074e906157e2565b6002600b556010546001600160a01b0316611b3d5760405162461bcd60e51b815260040161074e90615726565b6005546001600160a01b03163314611b675760405162461bcd60e51b815260040161074e9061559f565b600060275460ff166001811115611b7a57fe5b14611b975760405162461bcd60e51b815260040161074e90615a77565b604051611ba39061503c565b60405190819003812060165490913391600080516020615ce783398151915291611bcf91908690615b37565b60405180910390a36016556001600b55565b333014611c005760405162461bcd60e51b815260040161074e9061559f565b610e80816140cc565b602454600160b01b900460ff1681565b73__$c61de259b17579437cb458fbe4ba8c0f49$__6380681cab8360a001518460c001518561010001518660e001518761012001518860600151518960800151518a6040015151602460159054906101000a900460ff166040518a63ffffffff1660e01b8152600401611c9499989796959493929190615b83565b60006040518083038186803b158015611cac57600080fd5b505af4158015611cc0573d6000803e3d6000fd5b50506024805460ff60a81b1916600160a81b17905550508051601180546020808501516040808701516060880151608089015160a08a01511515600160281b0260ff60281b19911515600160201b0260ff60201b1993151563010000000263ff00000019951515620100000262ff0000199815156101000261ff00199d151560ff19909c169b909b179c909c169990991796909616999099179290921695909517949094169190911792909216939093179091558301518051611d8792601e9201906144f9565b5060608201518051611da191601f9160209091019061455e565b5060808201518051611db9916020919082019061455e565b506040805161016081018252600080825260208201819052918101829052606081018290526000196080820181905260a0820183905260c08581015190830181905260e0808701519084018190526101008088015190850181905261012080890151908601819052426101409687018190526012889055601388905560148890556015889055601695909555601796909655601892909255601955601a55601b92909255601c919091558201516027805460ff191660018381811115611e7b57fe5b0217905550600f80546001600160a01b0319166001600160a01b0385811691909117918290556040805163b18b78dd60e01b81529051929091169163b18b78dd91600480820192602092909190829003018186803b158015611edc57600080fd5b505afa158015611ef0573d6000803e3d6000fd5b505050506040513d601f19601f82011682018060405250810190611f1491906147f7565b602480546001600160a01b0319166001600160a01b03928316179055600f54604080516311b2515f60e31b815290519190921691638d928af8916004808301926020929190829003018186803b158015611f6d57600080fd5b505afa158015611f81573d6000803e3d6000fd5b505050506040513d601f19601f82011682018060405250810190611fa591906147f7565b602380546001600160a01b0319166001600160a01b0392909216919091179055601954601a54601854601b546040517f3d6667963e842e2b5ff1d4feab2c9b92f17c9003592e2ad229952eeb9a293fd091611fff91615b17565b60405180910390a4505050565b33301461202b5760405162461bcd60e51b815260040161074e9061559f565b610c0482826140f9565b602454600160a81b900460ff1681565b3360009081526002602090815260408083206001600160a01b0386168452909152812054808310612099573360009081526002602090815260408083206001600160a01b03881684529091528120556120c8565b6120a38184614053565b3360009081526002602090815260408083206001600160a01b03891684529091529020555b3360008181526002602090815260408083206001600160a01b038916808552925291829020549151909291600080516020615d278339815191529161210d9190615b17565b60405180910390a35060019392505050565b336001600160a01b03166000356001600160e01b0319166001600160e01b0319166000366040516121519291906152db565b60405180910390a26002600b54141561217c5760405162461bcd60e51b815260040161074e906157e2565b6002600b553360009081526006602052604090205460ff16806121a957506005546001600160a01b031633145b6121c55760405162461bcd60e51b815260040161074e9061557c565b6010546001600160a01b03166121ed5760405162461bcd60e51b815260040161074e90615726565b600f60009054906101000a90046001600160a01b03166001600160a01b031663b187bd266040518163ffffffff1660e01b815260040160206040518083038186803b15801561223b57600080fd5b505afa15801561224f573d6000803e3d6000fd5b505050506040513d601f19601f820116820180604052508101906122739190614cba565b156122905760405162461bcd60e51b815260040161074e90615797565b60105460245473__$c61de259b17579437cb458fbe4ba8c0f49$__9163a782948d916001600160a01b0390911690600160b01b900460ff16600160275460ff1660018111156122db57fe5b60135460155460115460405160e089901b6001600160e01b031916815261231a97969594909414936201000090910460ff16908d908d9060040161530a565b60006040518083038186803b15801561233257600080fd5b505af4158015612346573d6000803e3d6000fd5b5050505061235383614104565b60235460405163607e58b360e11b81526000916001600160a01b03169063c0fcb1669061238490309060040161505e565b60206040518083038186803b15801561239c57600080fd5b505afa1580156123b0573d6000803e3d6000fd5b505050506040513d601f19601f820116820180604052508101906123d49190614cba565b9050801561243f5760235460405163edb12adf60e01b81526001600160a01b039091169063edb12adf9061240c90309060040161505e565b600060405180830381600087803b15801561242657600080fd5b505af115801561243a573d6000803e3d6000fd5b505050505b6010546040516350884c9160e01b815273__$c61de259b17579437cb458fbe4ba8c0f49$__916350884c919161248d9130916001600160a01b03909116908a908a908a908a90600401615395565b60006040518083038186803b1580156124a557600080fd5b505af41580156124b9573d6000803e3d6000fd5b50506001600b5550505050505050565b6001600160a01b031660009081526001602052604090205490565b601254601354601454601554601654601754601854601954601a54601b54601c548b565b6026602052600090815260409020805460019091015482565b60275460ff1681565b73__$3a9c388c21df3b52adbbb2b73829b93ce6$__90565b60225481565b601154600090600160201b900460ff161561257f57506001600160a01b03811660009081526021602052604090205460ff166110c2565b506001600160a01b03811615156110c2565b6025602052600090815260409020805460019091015482565b6005546001600160a01b031633146125d45760405162461bcd60e51b815260040161074e9061559f565b6001600160a01b0381166125fa5760405162461bcd60e51b815260040161074e906156a7565b6005546040516001600160a01b038084169216907f8be0079c531659141344cd1fd0a4f28419497f9722a3daafe3b4186f6b6457e090600090a3600580546001600160a01b0319166001600160a01b0392909216919091179055565b60038054604080516020601f600260001961010060018816150201909516949094049384018190048102820181019092528281526060939092909183018282801561071a5780601f106106ef5761010080835404028352916020019161071a565b60115460ff80821691610100810482169162010000820481169163010000008104821691600160201b8204811691600160281b90041686565b6005546001600160a01b0316331461271a5760405162461bcd60e51b815260040161074e9061559f565b6001600160a01b03821660009081526006602052604090205460ff16156127535760405162461bcd60e51b815260040161074e90615648565b6001600160a01b038216600081815260066020526040808220805460ff19166001908117909155600780548083019091557fa66cc928b5edb82af9bd49922954155ab7b0942694bea4ce44661d9a8736c6880180546001600160a01b0319168517905560088054918201815583527ff3f7a9fe364faab93b216da50a3214154f22a0a2b415b23a84c8169e8b636ee3018490556009805485019055518392917fbd5dcf0b25226117c4a68a0129ffdd4b0541ef5e482ad7de9a96ccb6d6a8ebde91a35050565b73__$c61de259b17579437cb458fbe4ba8c0f49$__90565b6060600780548060200260200160405190810160405280929190818152602001828054801561071a57602002820191906000526020600020905b81546001600160a01b0316815260019091019060200180831161286b575050505050905090565b6040518060400160405280601081526020016f11195cde5b8814db585c9d08141bdbdb60821b81525081565b6005546001600160a01b031633146128e85760405162461bcd60e51b815260040161074e9061559f565b601154600160281b900460ff16801561290b5750602454600160a01b900460ff16155b6129275760405162461bcd60e51b815260040161074e906155cb565b80518251146129485760405162461bcd60e51b815260040161074e90615930565b60005b8151811015612a5957600f5483516000916001600160a01b031690638f49f44d9086908590811061297857fe5b602002602001015185858151811061298c57fe5b60200260200101516040518363ffffffff1660e01b81526004016129b1929190615b20565b60206040518083038186803b1580156129c957600080fd5b505afa1580156129dd573d6000803e3d6000fd5b505050506040513d601f19601f82011682018060405250810190612a019190614cba565b905080612a205760405162461bcd60e51b815260040161074e906156d1565b612a50848381518110612a2f57fe5b6020026020010151848481518110612a4357fe5b60200260200101516141d7565b5060010161294b565b50506024805460ff60a01b1916600160a01b17905550565b6024546001600160a01b031681565b60006001600160a01b038316612aa85760405162461bcd60e51b815260040161074e906156a7565b612ab3338484613fb4565b50600192915050565b336001600160a01b03166000356001600160e01b0319166001600160e01b031916600036604051612aee9291906152db565b60405180910390a26002600b541415612b195760405162461bcd60e51b815260040161074e906157e2565b6002600b556010546001600160a01b0316612b465760405162461bcd60e51b815260040161074e90615726565b600f60009054906101000a90046001600160a01b03166001600160a01b031663b187bd266040518163ffffffff1660e01b815260040160206040518083038186803b158015612b9457600080fd5b505afa158015612ba8573d6000803e3d6000fd5b505050506040513d601f19601f82011682018060405250810190612bcc9190614cba565b15612be95760405162461bcd60e51b815260040161074e90615797565b600073__$c61de259b17579437cb458fbe4ba8c0f49$__63c026fa3d30600160275460ff166001811115612c1957fe5b60245460155460135433600090815260256020526040908190208054600190910154915160e08a901b6001600160e01b0319168152612c7198979690961495600160b01b90950460ff16949091908e90600401615354565b60606040518083038186803b158015612c8957600080fd5b505af4158015612c9d573d6000803e3d6000fd5b505050506040513d601f19601f82011682018060405250810190612cc19190614ea0565b3360009081526025602052604090819020600181019390935592909155601054915163151c70f960e21b815290925060609173__$c61de259b17579437cb458fbe4ba8c0f49$__91635471c3e491612d2d9130916001600160a01b03169087908a908a906004016154c1565b60006040518083038186803b158015612d4557600080fd5b505af4158015612d59573d6000803e3d6000fd5b505050506040513d6000823e601f3d908101601f19168201604052612d819190810190614be1565b9050612d8d338361202b565b612d9682610e77565b6010546040805163cc77828d60e01b815290516060926001600160a01b03169163cc77828d916004808301926000929190829003018186803b158015612ddb57600080fd5b505afa158015612def573d6000803e3d6000fd5b505050506040513d6000823e601f3d908101601f19168201604052612e179190810190614ae9565b9050606081516001600160401b0381118015612e3257600080fd5b50604051908082528060200260200182016040528015612e5c578160200160208202803683370190505b509050600080600160275460ff166001811115612e7557fe5b148015612e8457506015544210155b15612f105760245460405163108ad9bd60e21b81526001600160a01b039091169063422b66f490612ebb90879089906004016151b6565b602060405180830381600087803b158015612ed557600080fd5b505af1158015612ee9573d6000803e3d6000fd5b505050506040513d601f19601f82011682018060405250810190612f0d9190614d76565b91505b601954600160275460ff166001811115612f2657fe5b1415612f5a57602454600090600160b01b900460ff16158015612f4b57506013544210155b90508015612f5857600091505b505b821561303557336000908152602660209081526040808320805460019182015460259094529382902080549101549151633796ed7f60e21b81528b9473__$c61de259b17579437cb458fbe4ba8c0f49$__9463de5bb5fc94612fc794929391929188908c90600401615b5b565b60606040518083038186803b158015612fdf57600080fd5b505af4158015612ff3573d6000803e3d6000fd5b505050506040513d601f19601f820116820180604052508101906130179190614ea0565b33600090815260266020526040902060018101929092559190559250505b606085516001600160401b038111801561304e57600080fd5b50604051908082528060200260200182016040528015613078578160200160208202803683370190505b50905060005b865181101561320057600080600073__$c61de259b17579437cb458fbe4ba8c0f49$__63e844db6f30601060009054906101000a90046001600160a01b03168d88815181106130c957fe5b60200260200101518f89815181106130dd57fe5b60200260200101518b8d6012600901546040518863ffffffff1660e01b815260040161310f9796959493929190615403565b60606040518083038186803b15801561312757600080fd5b505af415801561313b573d6000803e3d6000fd5b505050506040513d601f19601f8201168201806040525081019061315f9190614ea0565b9250925092508085858151811061317257fe5b6020026020010181815250508289858151811061318b57fe5b6020026020010181815250508984815181106131a357fe5b60200260200101516001600160a01b0316336001600160a01b03167fc62fc35ac75e3bff532648e2859a3e1694002cfa357614ae8e034df7f83db5e9846040516131ed9190615b17565b60405180910390a350505060010161307e565b508115158061321b575060008311801561321b5750601b5415155b1561328a57602354604051631483d99d60e01b81526001600160a01b0390911690631483d99d90613257908990899086906001906004016151db565b600060405180830381600087803b15801561327157600080fd5b505af1158015613285573d6000803e3d6000fd5b505050505b50506001600b55505050505050505050565b6060336001600160a01b03166000356001600160e01b0319166001600160e01b0319166000366040516132d09291906152db565b60405180910390a26002600b5414156132fb5760405162461bcd60e51b815260040161074e906157e2565b6002600b556010546001600160a01b03166133285760405162461bcd60e51b815260040161074e90615726565b600f546040516338f0d24560e01b81526001600160a01b03909116906338f0d2459061335a90309033906004016150df565b60206040518083038186803b15801561337257600080fd5b505afa158015613386573d6000803e3d6000fd5b505050506040513d601f19601f820116820180604052508101906133aa9190614cba565b6133c65760405162461bcd60e51b815260040161074e90615618565b601054604051635b0e93fb60e11b81526001600160a01b039091169063b61d27f6906133fc908890889088908890600401615150565b600060405180830381600087803b15801561341657600080fd5b505af115801561342a573d6000803e3d6000fd5b505050506040513d6000823e601f3d908101601f191682016040526134529190810190614cd6565b6001600b5595945050505050565b6010546001600160a01b031681565b6008818154811061347c57fe5b600091825260209091200154905081565b6005546001600160a01b031633146134b75760405162461bcd60e51b815260040161074e9061559f565b6002600b5414156134da5760405162461bcd60e51b815260040161074e906157e2565b6002600b556040513390600080356001600160e01b031916916134ff919036906152db565b60405180910390a2601154604051630d3aa47160e41b815273__$c61de259b17579437cb458fbe4ba8c0f49$__9163d3aa47109161354f91600160201b900460ff1690600190869060040161526b565b60006040518083038186803b15801561356757600080fd5b505af415801561357b573d6000803e3d6000fd5b505050506001600160a01b03166000908152602160205260409020805460ff19166001908117909155600b55565b60095481565b336001600160a01b03166000356001600160e01b0319166001600160e01b0319166000366040516135e19291906152db565b60405180910390a26002600b54141561360c5760405162461bcd60e51b815260040161074e906157e2565b6002600b55600f546040805163911fb03560e01b8152905133926001600160a01b03169163911fb035916004808301926020929190829003018186803b15801561365557600080fd5b505afa158015613669573d6000803e3d6000fd5b505050506040513d601f19601f8201168201806040525081019061368d91906147f7565b6001600160a01b0316146136b35760405162461bcd60e51b815260040161074e90615704565b6010546001600160a01b03166136db5760405162461bcd60e51b815260040161074e90615726565b600160275460ff1660018111156136ee57fe5b141561371d57602454600160b01b900460ff1661371d5760405162461bcd60e51b815260040161074e90615550565b600061372e426012600a0154614053565b90506022548110156137525760405162461bcd60e51b815260040161074e90615807565b6000602254828161375f57fe5b0490506060601060009054906101000a90046001600160a01b03166001600160a01b031663cc77828d6040518163ffffffff1660e01b815260040160006040518083038186803b1580156137b257600080fd5b505afa1580156137c6573d6000803e3d6000fd5b505050506040513d6000823e601f3d908101601f191682016040526137ee9190810190614ae9565b601054601854604051631aef8c2560e11b815292935060609273__$c61de259b17579437cb458fbe4ba8c0f49$__926335df184a9261383f9230926001600160a01b03169188918a90600401615481565b60006040518083038186803b15801561385757600080fd5b505af415801561386b573d6000803e3d6000fd5b505050506040513d6000823e601f3d908101601f191682016040526138939190810190614be1565b602354604051630bac7b8160e01b81529192506001600160a01b031690630bac7b81906138c690859085906004016151b6565b600060405180830381600087803b1580156138e057600080fd5b505af11580156138f4573d6000803e3d6000fd5b5050602254601c80549690910290950190945550506001600b55505050565b3360009081526002602090815260408083206001600160a01b038616845290915281205461394190836140a7565b3360008181526002602090815260408083206001600160a01b03891680855292529182902084905590519092600080516020615d2783398151915291610c4f9190615b17565b6001600160a01b03918216600090815260026020908152604080832093909416825291909152205490565b6005546001600160a01b031633146139dc5760405162461bcd60e51b815260040161074e9061559f565b6002600b5414156139ff5760405162461bcd60e51b815260040161074e906157e2565b6002600b556040513390600080356001600160e01b03191691613a24919036906152db565b60405180910390a26011546001600160a01b03821660009081526021602052604090819020549051630d3aa47160e41b815273__$c61de259b17579437cb458fbe4ba8c0f49$__9263d3aa471092613a9192600160201b90920460ff90811692911690869060040161526b565b60006040518083038186803b158015613aa957600080fd5b505af4158015613abd573d6000803e3d6000fd5b505050506001600160a01b03166000908152602160205260409020805460ff191690556001600b55565b73__$24afbdeda01e131946d055322cce080c01$__90565b600082613b0e57506000610c5b565b82820282848281613b1b57fe5b0414613b395760405162461bcd60e51b815260040161074e9061584a565b6706f05b59d3b20000810181811015613b645760405162461bcd60e51b815260040161074e9061584a565b6000670de0b6b3a7640000825b049695505050505050565b600081613b9b5760405162461bcd60e51b815260040161074e906158ab565b82613ba857506000610c5b565b670de0b6b3a764000083810290848281613bbe57fe5b0414613bdc5760405162461bcd60e51b815260040161074e906157b8565b60028304810181811015613c025760405162461bcd60e51b815260040161074e906157b8565b6000848281613b7157fe5b6010546001600160a01b031615613c365760405162461bcd60e51b815260040161074e9061574f565b613c3f81611c00565b613c493382610bfa565b600f60009054906101000a90046001600160a01b03166001600160a01b03166391cefde46040518163ffffffff1660e01b8152600401602060405180830381600087803b158015613c9957600080fd5b505af1158015613cad573d6000803e3d6000fd5b505050506040513d601f19601f82011682018060405250810190613cd191906147f7565b601080546001600160a01b0319166001600160a01b03928316179081905560405163d03f2a0f60e01b815273__$c61de259b17579437cb458fbe4ba8c0f49$__9263d03f2a0f92613d29929116908590600401615137565b60006040518083038186803b158015613d4157600080fd5b505af4158015613d55573d6000803e3d6000fd5b5050505060005b601e54811015613f05576000601e8281548110613d7557fe5b6000918252602082200154601f80546001600160a01b0390921693509084908110613d9c57fe5b90600052602060002001549050600060208481548110613db857fe5b90600052602060002001549050613dce83614104565b6040516323b872dd60e01b81526000906001600160a01b038516906323b872dd90613e01903390309088906004016150bb565b602060405180830381600087803b158015613e1b57600080fd5b505af1158015613e2f573d6000803e3d6000fd5b505050506040513d601f19601f82011682018060405250810190613e539190614cba565b905080613e725760405162461bcd60e51b815260040161074e90615961565b601054613e8e906001600160a01b0386811691166000196142b1565b50601054604051631c9c3ca760e31b81526001600160a01b039091169063e4e1e53890613ec390879087908790600401615182565b600060405180830381600087803b158015613edd57600080fd5b505af1158015613ef1573d6000803e3d6000fd5b505060019096019550613d5c945050505050565b505b601e5415610e8057601e805480613f1a57fe5b600082815260209020810160001990810180546001600160a01b0319169055019055613f07565b610c04308383613fb4565b30600090815260016020526040902054613f669082614053565b3060009081526001602052604081209190915554613f849082614053565b60009081556040513090600080516020615d0783398151915290613fa9908590615b17565b60405180910390a350565b6001600160a01b038316600090815260016020526040902054613fd79082614053565b6001600160a01b03808516600090815260016020526040808220939093559084168152205461400690826140a7565b6001600160a01b038084166000818152600160205260409081902093909355915190851690600080516020615d0783398151915290614046908590615b17565b60405180910390a3505050565b60008060006140628585614458565b9150915080156140845760405162461bcd60e51b815260040161074e906159ef565b509392505050565b6000600c5460001461409f5760016140a2565b60005b905090565b600082820183811015610fa65760405162461bcd60e51b815260040161074e90615a1a565b6140d58161447d565b6016546000541115610e805760405162461bcd60e51b815260040161074e906158d1565b610c04823083613fb4565b600f5460405163db7ca46b60e01b81526001600160a01b039091169063db7ca46b9061413490849060040161505e565b60206040518083038186803b15801561414c57600080fd5b505afa158015614160573d6000803e3d6000fd5b505050506040513d601f19601f820116820180604052508101906141849190614cba565b6141a05760405162461bcd60e51b815260040161074e90615874565b602454600160a01b900460ff1615610e80576141bb816144db565b610e805760405162461bcd60e51b815260040161074e90615672565b6001600160a01b0381166141fd5760405162461bcd60e51b815260040161074e9061598a565b614206816144db565b156142235760405162461bcd60e51b815260040161074e906159bd565b6000828152600e602090815260408083206001600160a01b038516845282528083208054600160ff199182168117909255600d9093529281902080549092168317909155600c8054909201909155513390839030907f5ab6a0d7af8e86f78c34acea4f8aff1be027227ce1bc29e03f57f39b788f4b04906142a590869061505e565b60405180910390a45050565b600080846001600160a01b031663dd62ed3e30866040518363ffffffff1660e01b81526004016142e29291906150df565b60206040518083038186803b1580156142fa57600080fd5b505afa15801561430e573d6000803e3d6000fd5b505050506040513d601f19601f820116820180604052508101906143329190614d76565b905082811415614346576001915050610fa6565b80156143cf5760405163095ea7b360e01b81526001600160a01b0386169063095ea7b39061437b908790600090600401615137565b602060405180830381600087803b15801561439557600080fd5b505af11580156143a9573d6000803e3d6000fd5b505050506040513d601f19601f820116820180604052508101906143cd9190614cba565b505b60405163095ea7b360e01b81526001600160a01b0386169063095ea7b3906143fd9087908790600401615137565b602060405180830381600087803b15801561441757600080fd5b505af115801561442b573d6000803e3d6000fd5b505050506040513d601f19601f8201168201806040525081019061444f9190614cba565b95945050505050565b60008083831161446e5750508082036000614476565b505081810360015b9250929050565b3060009081526001602052604090205461449790826140a7565b30600090815260016020526040812091909155546144b590826140a7565b6000908155604051309190600080516020615d0783398151915290613fa9908590615b17565b6001600160a01b03166000908152600d602052604090205460ff1690565b82805482825590600052602060002090810192821561454e579160200282015b8281111561454e57825182546001600160a01b0319166001600160a01b03909116178255602090920191600190910190614519565b5061455a9291506145a5565b5090565b828054828255906000526020600020908101928215614599579160200282015b8281111561459957825182559160200191906001019061457e565b5061455a9291506145c4565b5b8082111561455a5780546001600160a01b03191681556001016145a6565b5b8082111561455a57600081556001016145c5565b600082601f8301126145e9578081fd5b81356145fc6145f782615c46565b615c20565b81815291506020808301908481018184028601820187101561461d57600080fd5b60005b8481101561464557813561463381615cc3565b84529282019290820190600101614620565b505050505092915050565b60008083601f840112614661578182fd5b5081356001600160401b03811115614677578182fd5b602083019150836020808302850101111561447657600080fd5b600082601f8301126146a1578081fd5b81356146af6145f782615c46565b8181529150602080830190848101818402860182018710156146d057600080fd5b60005b84811015614645578135845292820192908201906001016146d3565b803560028110610c5b57600080fd5b600082601f83011261470e578081fd5b813561471c6145f782615c65565b915080825283602082850101111561473357600080fd5b8060208401602084013760009082016020015292915050565b600060c0828403121561475d578081fd5b61476760c0615c20565b9050813561477481615cd8565b8152602082013561478481615cd8565b6020820152604082013561479781615cd8565b604082015260608201356147aa81615cd8565b606082015260808201356147bd81615cd8565b608082015260a08201356147d081615cd8565b60a082015292915050565b6000602082840312156147ec578081fd5b8135610fa681615cc3565b600060208284031215614808578081fd5b8151610fa681615cc3565b60008060408385031215614825578081fd5b823561483081615cc3565b9150602083013561484081615cc3565b809150509250929050565b60008060006060848603121561485f578081fd5b833561486a81615cc3565b9250602084013561487a81615cc3565b929592945050506040919091013590565b600080600080608085870312156148a0578182fd5b84356148ab81615cc3565b935060208501356148bb81615cc3565b93969395505050506040820135916060013590565b60008060006101008085870312156148e6578182fd5b84356148f181615cc3565b935060208501356001600160401b038082111561490c578384fd5b818701915061016080838a031215614922578485fd5b61492b81615c20565b905082358281111561493b578586fd5b6149478a8286016146fe565b82525060208301358281111561495b578586fd5b6149678a8286016146fe565b60208301525060408301358281111561497e578586fd5b61498a8a8286016145d9565b6040830152506060830135828111156149a1578586fd5b6149ad8a828601614691565b6060830152506080830135828111156149c4578586fd5b6149d08a828601614691565b60808301525060a083013560a082015260c083013560c082015260e083013560e08201528383013584820152610120935083830135848201526101409350614a1a898585016146ef565b8482015280955050505050614a32856040860161474c565b90509250925092565b60008060408385031215614a4d578182fd5b8235614a5881615cc3565b946020939093013593505050565b60008060008060608587031215614a7b578182fd5b8435614a8681615cc3565b93506020850135925060408501356001600160401b0380821115614aa8578384fd5b818701915087601f830112614abb578384fd5b813581811115614ac9578485fd5b886020828501011115614ada578485fd5b95989497505060200194505050565b60006020808385031215614afb578182fd5b82516001600160401b03811115614b10578283fd5b8301601f81018513614b20578283fd5b8051614b2e6145f782615c46565b8181528381019083850185840285018601891015614b4a578687fd5b8694505b83851015614b75578051614b6181615cc3565b835260019490940193918501918501614b4e565b50979650505050505050565b60008060408385031215614b93578182fd5b82356001600160401b0380821115614ba9578384fd5b614bb5868387016145d9565b93506020850135915080821115614bca578283fd5b50614bd785828601614691565b9150509250929050565b60006020808385031215614bf3578182fd5b82516001600160401b03811115614c08578283fd5b8301601f81018513614c18578283fd5b8051614c266145f782615c46565b8181528381019083850185840285018601891015614c42578687fd5b8694505b83851015614b75578051835260019490940193918501918501614c46565b60008060408385031215614c76578182fd5b82356001600160401b0380821115614c8c578384fd5b614c9886838701614691565b93506020850135915080821115614cad578283fd5b50614bd7858286016145d9565b600060208284031215614ccb578081fd5b8151610fa681615cd8565b600060208284031215614ce7578081fd5b81516001600160401b03811115614cfc578182fd5b8201601f81018413614d0c578182fd5b8051614d1a6145f782615c65565b818152856020838501011115614d2e578384fd5b61444f826020830160208601615c93565b600060208284031215614d50578081fd5b813560068110610fa6578182fd5b600060208284031215614d6f578081fd5b5035919050565b600060208284031215614d87578081fd5b5051919050565b600080600060408486031215614da2578081fd5b8335925060208401356001600160401b03811115614dbe578182fd5b614dca86828701614650565b9497909650939450505050565b60008060008060608587031215614dec578182fd5b8435935060208501356001600160401b03811115614e08578283fd5b614e1487828801614650565b9094509250506040850135614e2881615cc3565b939692955090935050565b60008060008084860360a0811215614e49578283fd5b8535945060208601359350604086013560038110614e65578384fd5b92506040605f1982011215614e78578182fd5b50614e836040615c20565b606086013581526080909501356020860152509194909350909190565b600080600060608486031215614eb4578081fd5b8351925060208401519150604084015190509250925092565b6000815180845260208085019450808401835b83811015614f055781516001600160a01b031687529582019590820190600101614ee0565b509495945050505050565b6000815480845260208085019450838352808320835b83811015614f055781546001600160a01b031687529582019560019182019101614f26565b81835260006001600160fb1b03831115614f63578081fd5b6020830280836020870137939093016020019283525090919050565b6000815180845260208085019450808401835b83811015614f0557815187529582019590820190600101614f92565b6000815480845260208085019450838352808320835b83811015614f0557815487529582019560019182019101614fc4565b15159052565b60008284528282602086013780602084860101526020601f19601f85011685010190509392505050565b60008151808452615028816020860160208601615c93565b601f01601f19169290920160200192915050565b642aa82822a960d91b815260050190565b64232627a7a960d91b815260050190565b6001600160a01b0391909116815260200190565b6001600160a01b0385811682528416602082015260806040820181905260009061509e90830185614f10565b82810360608401526150b08185614fae565b979650505050505050565b6001600160a01b039384168152919092166020820152604081019190915260600190565b6001600160a01b0392831681529116602082015260400190565b6001600160a01b0385811682528416602082015260806040820181905260009061512590830185614ecd565b82810360608401526150b08185614f7f565b6001600160a01b03929092168252602082015260400190565b600060018060a01b038616825284602083015260606040830152615178606083018486614fe6565b9695505050505050565b6001600160a01b039390931683526020830191909152604082015260600190565b600060208252610fa66020830184614ecd565b6000604082526151c96040830185614ecd565b828103602084015261444f8185614f7f565b6000608082526151ee6080830187614ecd565b82810360208401526152008187614f7f565b905082810360408401526152148186614f7f565b915050821515606083015295945050505050565b60006040825261523b6040830185614f10565b828103602084015261444f8185614fae565b600060208252610fa66020830184614f7f565b901515815260200190565b921515835290151560208301526001600160a01b0316604082015260600190565b9515158652931515602086015291151560408501521515606084015215156080830152151560a082015260c00190565b9315158452911515602084015215156040830152606082015260800190565b6000602082526152ef602083018486614fe6565b949350505050565b600060208252610fa66020830184615010565b6001600160a01b0398891681529615156020880152941515604087015260608601939093526080850191909152151560a0840152831660c083015290911660e08201526101000190565b6001600160a01b03989098168852951515602088015293151560408701526060860192909252608085015260a084015260c083015260e08201526101000190565b6001600160a01b0396871681529486166020860152928516604085015293166060830152608082019290925260a081019190915260c00190565b6001600160a01b03958616815293851660208501529190931660408301526060820192909252608081019190915260a00190565b6001600160a01b03978816815295871660208701529390951660408501526060840191909152608083015260a082019290925260c081019190915260e00190565b6001600160a01b0385811682528416602082015260806040820181905260009061547090830185614ecd565b905082606083015295945050505050565b6001600160a01b0386811682528516602082015260a0604082018190526000906154ad90830186614ecd565b606083019490945250608001529392505050565b6001600160a01b03868116825285166020820152604081018490526080606082018190526000906150b09083018486614f4b565b6001600160a01b038781168252861660208201526040810185905260a0606082018190526000906155299083018587614f4b565b9050826080830152979650505050505050565b602081016002831061554a57fe5b91905290565b602080825260129082015271436f6c6c656374696f6e206661696c65642160701b604082015260600190565b60208082526009908201526837b7363ca0b236b4b760b91b604082015260600190565b60208082526012908201527122a9292fa727aa2fa1a7a72a2927a62622a960711b604082015260600190565b6020808252600d908201526c4552525f4e4f5f52494748545360981b604082015260600190565b6020808252600c908201526b696e697469616c697a65642160a01b604082015260600190565b60208082526016908201527526a7a22aa6229024a9902727aa102922a3a4a9aa22a960511b604082015260600190565b60208082526010908201526f20b2323932b9b99034b99027bbb732b960811b604082015260600190565b6020808252601b908201527a11549497d393d517d5d212551157d513d2d15397d25397d413d3d3602a1b604082015260600190565b60208082526010908201526f4552525f5a45524f5f4144445245535360801b604082015260600190565b602080825260199082015278544f4b454e5f4d5553545f494e5f57484954455f4c4953545360381b604082015260600190565b60208082526008908201526727bbb730b13632a760c11b604082015260600190565b6020808252600f908201526e11549497d393d517d0d49150551151608a1b604082015260600190565b6020808252600e908201526d11549497d254d7d0d4915055115160921b604082015260600190565b60208082526006908201526506f776e6572560d41b604082015260600190565b602080825260079082015266085c185d5cd95960ca1b604082015260600190565b60208082526010908201526f11549497d1125597d25395115493905360821b604082015260600190565b6020808252600b908201526a4552525f5245454e54525960a81b604082015260600190565b60208082526023908201527f54686520636f6c6c656374696f6e206379636c65206973206e6f7420726561636040820152621a195960ea1b606082015260800190565b60208082526010908201526f4552525f4d554c5f4f564552464c4f5760801b604082015260600190565b6020808252601e908201527f4552525f4e4f545f57484954455f544f4b454e5f494e5f464143544f52590000604082015260600190565b6020808252600c908201526b4552525f4449565f5a45524f60a01b604082015260600190565b60208082526015908201527411549497d0d05417d31253525517d4915050d21151605a1b604082015260600190565b60208082526016908201527522a9292fa821aa27a5a2a72fa120a22fa1a0a62622a960511b604082015260600190565b60208082526017908201527608aa4a4bea69ea4a8bea89e968a9cbe9a92a69a82a8869604b1b604082015260600190565b6020808252600f908201526e4552525f45524332305f46414c534560881b604082015260600190565b6020808252601990820152784552525f494e56414c49445f544f4b454e5f4144445245535360381b604082015260600190565b6020808252601890820152774552525f4841535f4245454e5f41444445445f574849544560401b604082015260600190565b6020808252601190820152704552525f5355425f554e444552464c4f5760781b604082015260600190565b60208082526010908201526f4552525f4144445f4f564552464c4f5760801b604082015260600190565b60208082526019908201527822a9292fa9a427aaa6222fa9a2aa2faba424aa22aa27a5a2a760391b604082015260600190565b60208082526011908201527022a9292fa6aaa9aa2fa7a822a72fa2aa2360791b604082015260600190565b600060e082019050835460ff80821615158452808260081c1615156020850152808260101c1615156040850152808260181c1615156060850152615aee60808501828460201c16614fe0565b615b0060a08501828460281c16614fe0565b5050615b0b83615c88565b60c08301529392505050565b90815260200190565b9182526001600160a01b0316602082015260400190565b918252602082015260400190565b9283526020830191909152604082015260600190565b958652602086019490945260408501929092526060840152608083015260a082015260c00190565b988952602089019790975260408801959095526060870193909352608086019190915260a085015260c084015260e083015215156101008201526101200190565b9a8b5260208b019990995260408a01979097526060890195909552608088019390935260a087019190915260c086015260e08501526101008401526101208301526101408201526101600190565b60ff91909116815260200190565b6040518181016001600160401b0381118282101715615c3e57600080fd5b604052919050565b60006001600160401b03821115615c5b578081fd5b5060209081020190565b60006001600160401b03821115615c7a578081fd5b50601f01601f191660200190565b80600681106110c257fe5b60005b83811015615cae578181015183820152602001615c96565b83811115615cbd576000848401525b50505050565b6001600160a01b0381168114610e8057600080fd5b8015158114610e8057600080fdfe345c44e0d6869c4baccff8ecb8279bca00e6436947fce2da5beffcc9e5cabefbddf252ad1be2c89b69c2b068fc378daa952ba7f163c4a11628f55a4df523b3ef8c5be1e5ebec7d5bd14f71427d1e84f3dd0314c0f7b2291e5b200ac8c7c3b925a2646970667358221220e29a38b7edfa18cb5cffabf8235f2590668d7e299087428e71efea14382f88f664736f6c634300060c0033",
  "libraries": {
    "DesynSafeMath": "0x4E9FA6fE9C793CC0864AB331b2c13EEAeAcd4679",
    "RightsManager": "0x11D61d0855aCfB43b3C9275b70403EcCC7212536",
    "SmartPoolManager": "0xF2C828cE47Be2b9974d2D336CE92199eB20A90F8"
  },
  "devdoc": {
    "author": "Desyn Labs",
    "details": "Rights are defined as follows (index values into the array) Note that functions called on bPool and bFactory may look like internal calls,   but since they are contracts accessed through an interface, they are really external. To make this explicit, we could write \"IBPool(address(bPool)).function()\" everywhere,   instead of \"bPool.function()\".",
    "kind": "dev",
    "methods": {
      "allowance(address,address)": {
        "params": {
          "owner": "- owner of the tokens",
          "spender": "- entity allowed to spend the tokens"
        },
        "returns": {
          "_0": "uint - remaining amount spender is allowed to transfer"
        }
      },
      "approve(address,uint256)": {
        "details": "emits an Approval event",
        "params": {
          "amount": "- number of tokens being approved",
          "spender": "- entity the owner (sender) is approving to spend his tokens"
        },
        "returns": {
          "_0": "bool - result of the approval (will always be true if it doesn't revert)"
        }
      },
      "balanceOf(address)": {
        "params": {
          "account": "- address we're checking the balance of"
        },
        "returns": {
          "_0": "uint - token balance in the account"
        }
      },
      "canProvideLiquidity(address)": {
        "details": "If the whitelist feature is not enabled, anyone can provide liquidity (assuming finalized)",
        "returns": {
          "_0": "boolean value indicating whether the address can join a pool"
        }
      },
      "createPool(uint256,uint256,uint8,(uint256,uint256))": {
        "details": "Delegates to internal function",
        "params": {
          "closurePeriod": "the etf closure period",
          "initialSupply": "starting token balance"
        }
      },
      "decimals()": {
        "details": "Returns the number of decimals used to get its user representation. For example, if `decimals` equals `2`, a balance of `505` tokens should be displayed to a user as `5,05` (`505 / 10 ** 2`). Tokens usually opt for a value of 18, imitating the relationship between Ether and Wei. This is the value {ERC20} uses, unless {_setupDecimals} is called. NOTE: This information is only used for _display_ purposes: it in no way affects any of the arithmetic of the contract, including {IERC20-balanceOf} and {IERC20-transfer}."
      },
      "decreaseApproval(address,uint256)": {
        "details": "emits an Approval eventIf you try to decrease it below the current limit, it's just set to zero (not an error)",
        "params": {
          "amount": "- number of tokens being approved",
          "spender": "- entity the owner (sender) is approving to spend his tokens"
        },
        "returns": {
          "_0": "bool - result of the approval (will always be true if it doesn't revert)"
        }
      },
      "exitPool(uint256,uint256[])": {
        "details": "Emits a LogExit event for each token      bPool is a contract interface; function calls on it are external",
        "params": {
          "minAmountsOut": "- minimum amount of asset tokens to receive",
          "poolAmountIn": "- amount of pool tokens to redeem"
        }
      },
      "getController()": {
        "details": "external for gas optimization",
        "returns": {
          "_0": "address - of the owner (AKA controller)"
        }
      },
      "getDesynSafeMathVersion()": {
        "details": "Convenience function to get the address of the DesynSafeMath library (so clients can check version)",
        "returns": {
          "_0": "address of the DesynSafeMath library"
        }
      },
      "getRightsManagerVersion()": {
        "details": "Convenience function to get the address of the RightsManager library (so clients can check version)",
        "returns": {
          "_0": "address of the RightsManager library"
        }
      },
      "getSmartPoolManagerVersion()": {
        "details": "Convenience function to get the address of the SmartPoolManager library (so clients can check version)",
        "returns": {
          "_0": "address of the SmartPoolManager library"
        }
      },
      "hasPermission(uint8)": {
        "details": "value of the enum is just the 0-based index in the enumeration      For instance canPauseSwapping is 0; canChangeWeights is 2",
        "returns": {
          "_0": "token boolean true if we have the given permission"
        }
      },
      "increaseApproval(address,uint256)": {
        "details": "emits an Approval event",
        "params": {
          "amount": "- number of tokens being approved",
          "spender": "- entity the owner (sender) is approving to spend his tokens"
        },
        "returns": {
          "_0": "bool - result of the approval (will always be true if it doesn't revert)"
        }
      },
      "init(address,(string,string,address[],uint256[],uint256[],uint256,uint256,uint256,uint256,uint256,uint8),(bool,bool,bool,bool,bool,bool))": {
        "details": "_initialTokens and _swapFee are only used for temporary storage between construction      and create pool, and should not be used thereafter! _initialTokens is destroyed in      createPool to prevent this, and _swapFee is kept in sync (defensively), but      should never be used except in this constructor and createPool()",
        "params": {
          "factoryAddress": "- the BPoolFactory used to create the underlying pool",
          "poolParams": "- struct containing pool parameters",
          "rightsStruct": "- Set of permissions we are assigning to this smart pool"
        }
      },
      "joinPool(uint256,uint256[],address)": {
        "details": "Emits a LogJoin event (for each token)      bPool is a contract interface; function calls on it are external",
        "params": {
          "maxAmountsIn": "- Max amount of asset tokens to spend",
          "poolAmountOut": "- number of pool tokens to receive"
        }
      },
      "name()": {
        "details": "Returns the name of the token.      We allow the user to set this name (as well as the symbol).      Alternatives are 1) A fixed string (original design)                       2) A fixed string plus the user-defined symbol                          return string(abi.encodePacked(NAME, \"-\", _symbol));"
      },
      "removeOwner(address)": {
        "details": "Allows to remove an owner. Transaction has to be sent by wallet.",
        "params": {
          "owner": "Address of owner."
        }
      },
      "removeWhitelistedLiquidityProvider(address)": {
        "params": {
          "provider": "- address of the liquidity provider"
        }
      },
      "setAddAdminList(address,uint256)": {
        "details": "external for gas optimization",
        "params": {
          "newOwner": "- address of new owner"
        }
      },
      "setCap(uint256)": {
        "details": "_bspCap defaults in the constructor to unlimited      Can set to 0 (or anywhere below the current supply), to halt new investment      Prevent setting it before creating a pool, since createPool sets to intialSupply      (it does this to avoid an unlimited cap window between construction and createPool)      Therefore setting it before then has no effect, so should not be allowed",
        "params": {
          "newCap": "- new value of the cap"
        }
      },
      "setController(address)": {
        "details": "external for gas optimization",
        "params": {
          "newOwner": "- address of new owner"
        }
      },
      "symbol()": {
        "details": "Returns the symbol of the token, usually a shorter version of the name."
      },
      "totalSupply()": {
        "details": "declared external for gas optimization",
        "returns": {
          "_0": "uint - total number of tokens in existence"
        }
      },
      "transfer(address,uint256)": {
        "details": "_move emits a Transfer event if successful",
        "params": {
          "amount": "- number of tokens being transferred",
          "recipient": "- entity receiving the tokens"
        },
        "returns": {
          "_0": "bool - result of the transfer (will always be true if it doesn't revert)"
        }
      },
      "transferFrom(address,address,uint256)": {
        "details": "_move emits a Transfer event if successful; may also emit an Approval event",
        "params": {
          "amount": "- number of tokens being transferred",
          "recipient": "- recipient of the tokens",
          "sender": "- entity sending the tokens (must be caller or allowed to spend on behalf of caller)"
        },
        "returns": {
          "_0": "bool - result of the transfer (will always be true if it doesn't revert)"
        }
      },
      "whitelistLiquidityProvider(address)": {
        "params": {
          "provider": "- address of the liquidity provider"
        }
      }
    },
    "title": "Smart Pool with customizable features",
    "version": 1
  },
  "userdoc": {
    "kind": "user",
    "methods": {
      "allowance(address,address)": {
        "notice": "Getter for allowance: amount spender will be allowed to spend on behalf of owner"
      },
      "approve(address,uint256)": {
        "notice": "Approve owner (sender) to spend a certain amount"
      },
      "balanceOf(address)": {
        "notice": "Getter for current account balance"
      },
      "canProvideLiquidity(address)": {
        "notice": "Check if an address is a liquidity provider"
      },
      "createPool(uint256,uint256,uint8,(uint256,uint256))": {
        "notice": "Create a new Smart Pool"
      },
      "decreaseApproval(address,uint256)": {
        "notice": "Decrease the amount the spender is allowed to spend on behalf of the owner (sender)"
      },
      "exitPool(uint256,uint256[])": {
        "notice": "Exit a pool - redeem pool tokens for underlying assets"
      },
      "getController()": {
        "notice": "Returns the address of the current owner"
      },
      "getDesynSafeMathVersion()": {
        "notice": "Getter for the DesynSafeMath contract"
      },
      "getRightsManagerVersion()": {
        "notice": "Getter for the RightsManager contract"
      },
      "getSmartPoolManagerVersion()": {
        "notice": "Getter for the SmartPoolManager contract"
      },
      "hasPermission(uint8)": {
        "notice": "Getter for specific permissions"
      },
      "increaseApproval(address,uint256)": {
        "notice": "Increase the amount the spender is allowed to spend on behalf of the owner (sender)"
      },
      "init(address,(string,string,address[],uint256[],uint256[],uint256,uint256,uint256,uint256,uint256,uint8),(bool,bool,bool,bool,bool,bool))": {
        "notice": "Construct a new Configurable Rights Pool (wrapper around BPool)"
      },
      "joinPool(uint256,uint256[],address)": {
        "notice": "Join a pool"
      },
      "removeWhitelistedLiquidityProvider(address)": {
        "notice": "Remove from the whitelist of liquidity providers (if enabled)"
      },
      "setAddAdminList(address,uint256)": {
        "notice": "Transfers ownership of the contract to a new account (`newOwner`).         Can only be called by the current owner"
      },
      "setCap(uint256)": {
        "notice": "Set the cap (max # of pool tokens)"
      },
      "setController(address)": {
        "notice": "Transfers ownership of the contract to a new account (`newOwner`).         Can only be called by the current owner"
      },
      "totalSupply()": {
        "notice": "Getter for the total supply"
      },
      "transfer(address,uint256)": {
        "notice": "Transfer the given amount from sender (caller) to recipient"
      },
      "transferFrom(address,address,uint256)": {
        "notice": "Transfer the given amount from sender to recipient"
      },
      "whitelistLiquidityProvider(address)": {
        "notice": "Add to the whitelist of liquidity providers (if enabled)"
      }
    },
    "notice": "PCToken is the \"Desyn Smart Pool\" token (transferred upon finalization)",
    "version": 1
  },
  "storageLayout": {
    "storage": [
      {
        "astId": 5696,
        "contract": "contracts/base/ConfigurableRightsPool.sol:ConfigurableRightsPool",
        "label": "varTotalSupply",
        "offset": 0,
        "slot": "0",
        "type": "t_uint256"
      },
      {
        "astId": 5700,
        "contract": "contracts/base/ConfigurableRightsPool.sol:ConfigurableRightsPool",
        "label": "_balance",
        "offset": 0,
        "slot": "1",
        "type": "t_mapping(t_address,t_uint256)"
      },
      {
        "astId": 5706,
        "contract": "contracts/base/ConfigurableRightsPool.sol:ConfigurableRightsPool",
        "label": "_allowance",
        "offset": 0,
        "slot": "2",
        "type": "t_mapping(t_address,t_mapping(t_address,t_uint256))"
      },
      {
        "astId": 5708,
        "contract": "contracts/base/ConfigurableRightsPool.sol:ConfigurableRightsPool",
        "label": "_symbol",
        "offset": 0,
        "slot": "3",
        "type": "t_string_storage"
      },
      {
        "astId": 5710,
        "contract": "contracts/base/ConfigurableRightsPool.sol:ConfigurableRightsPool",
        "label": "_name",
        "offset": 0,
        "slot": "4",
        "type": "t_string_storage"
      },
      {
        "astId": 18307,
        "contract": "contracts/base/ConfigurableRightsPool.sol:ConfigurableRightsPool",
        "label": "_owner",
        "offset": 0,
        "slot": "5",
        "type": "t_address"
      },
      {
        "astId": 18311,
        "contract": "contracts/base/ConfigurableRightsPool.sol:ConfigurableRightsPool",
        "label": "adminList",
        "offset": 0,
        "slot": "6",
        "type": "t_mapping(t_address,t_bool)"
      },
      {
        "astId": 18314,
        "contract": "contracts/base/ConfigurableRightsPool.sol:ConfigurableRightsPool",
        "label": "owners",
        "offset": 0,
        "slot": "7",
        "type": "t_array(t_address)dyn_storage"
      },
      {
        "astId": 18317,
        "contract": "contracts/base/ConfigurableRightsPool.sol:ConfigurableRightsPool",
        "label": "ownerPercentage",
        "offset": 0,
        "slot": "8",
        "type": "t_array(t_uint256)dyn_storage"
      },
      {
        "astId": 18319,
        "contract": "contracts/base/ConfigurableRightsPool.sol:ConfigurableRightsPool",
        "label": "allOwnerPercentage",
        "offset": 0,
        "slot": "9",
        "type": "t_uint256"
      },
      {
        "astId": 18321,
        "contract": "contracts/base/ConfigurableRightsPool.sol:ConfigurableRightsPool",
        "label": "initialized",
        "offset": 0,
        "slot": "10",
        "type": "t_bool"
      },
      {
        "astId": 18645,
        "contract": "contracts/base/ConfigurableRightsPool.sol:ConfigurableRightsPool",
        "label": "_status",
        "offset": 0,
        "slot": "11",
        "type": "t_uint256"
      },
      {
        "astId": 6264,
        "contract": "contracts/base/ConfigurableRightsPool.sol:ConfigurableRightsPool",
        "label": "_whiteTokenCount",
        "offset": 0,
        "slot": "12",
        "type": "t_uint256"
      },
      {
        "astId": 6268,
        "contract": "contracts/base/ConfigurableRightsPool.sol:ConfigurableRightsPool",
        "label": "_isTokenWhitelisted",
        "offset": 0,
        "slot": "13",
        "type": "t_mapping(t_address,t_bool)"
      },
      {
        "astId": 6274,
        "contract": "contracts/base/ConfigurableRightsPool.sol:ConfigurableRightsPool",
        "label": "_tokenWhitelistedInfo",
        "offset": 0,
        "slot": "14",
        "type": "t_mapping(t_uint256,t_mapping(t_address,t_bool))"
      },
      {
        "astId": 198,
        "contract": "contracts/base/ConfigurableRightsPool.sol:ConfigurableRightsPool",
        "label": "bFactory",
        "offset": 0,
        "slot": "15",
        "type": "t_contract(IBFactory)15223"
      },
      {
        "astId": 200,
        "contract": "contracts/base/ConfigurableRightsPool.sol:ConfigurableRightsPool",
        "label": "bPool",
        "offset": 0,
        "slot": "16",
        "type": "t_contract(IBPool)15135"
      },
      {
        "astId": 202,
        "contract": "contracts/base/ConfigurableRightsPool.sol:ConfigurableRightsPool",
        "label": "rights",
        "offset": 0,
        "slot": "17",
        "type": "t_struct(Rights)16175_storage"
      },
      {
        "astId": 204,
        "contract": "contracts/base/ConfigurableRightsPool.sol:ConfigurableRightsPool",
        "label": "etfStatus",
        "offset": 0,
        "slot": "18",
        "type": "t_struct(Status)16846_storage"
      },
      {
        "astId": 206,
        "contract": "contracts/base/ConfigurableRightsPool.sol:ConfigurableRightsPool",
        "label": "_initialSwapFee",
        "offset": 0,
        "slot": "29",
        "type": "t_uint256"
      },
      {
        "astId": 209,
        "contract": "contracts/base/ConfigurableRightsPool.sol:ConfigurableRightsPool",
        "label": "_initialTokens",
        "offset": 0,
        "slot": "30",
        "type": "t_array(t_address)dyn_storage"
      },
      {
        "astId": 212,
        "contract": "contracts/base/ConfigurableRightsPool.sol:ConfigurableRightsPool",
        "label": "_initialBalances",
        "offset": 0,
        "slot": "31",
        "type": "t_array(t_uint256)dyn_storage"
      },
      {
        "astId": 215,
        "contract": "contracts/base/ConfigurableRightsPool.sol:ConfigurableRightsPool",
        "label": "_initialWeights",
        "offset": 0,
        "slot": "32",
        "type": "t_array(t_uint256)dyn_storage"
      },
      {
        "astId": 219,
        "contract": "contracts/base/ConfigurableRightsPool.sol:ConfigurableRightsPool",
        "label": "_liquidityProviderWhitelist",
        "offset": 0,
        "slot": "33",
        "type": "t_mapping(t_address,t_bool)"
      },
      {
        "astId": 222,
        "contract": "contracts/base/ConfigurableRightsPool.sol:ConfigurableRightsPool",
        "label": "claimPeriod",
        "offset": 0,
        "slot": "34",
        "type": "t_uint256"
      },
      {
        "astId": 224,
        "contract": "contracts/base/ConfigurableRightsPool.sol:ConfigurableRightsPool",
        "label": "vaultAddress",
        "offset": 0,
        "slot": "35",
        "type": "t_address"
      },
      {
        "astId": 226,
        "contract": "contracts/base/ConfigurableRightsPool.sol:ConfigurableRightsPool",
        "label": "oracleAddress",
        "offset": 0,
        "slot": "36",
        "type": "t_address"
      },
      {
        "astId": 228,
        "contract": "contracts/base/ConfigurableRightsPool.sol:ConfigurableRightsPool",
        "label": "hasSetWhiteTokens",
        "offset": 20,
        "slot": "36",
        "type": "t_bool"
      },
      {
        "astId": 230,
        "contract": "contracts/base/ConfigurableRightsPool.sol:ConfigurableRightsPool",
        "label": "initBool",
        "offset": 21,
        "slot": "36",
        "type": "t_bool"
      },
      {
        "astId": 232,
        "contract": "contracts/base/ConfigurableRightsPool.sol:ConfigurableRightsPool",
        "label": "isCompletedCollect",
        "offset": 22,
        "slot": "36",
        "type": "t_bool"
      },
      {
        "astId": 236,
        "contract": "contracts/base/ConfigurableRightsPool.sol:ConfigurableRightsPool",
        "label": "beginFund",
        "offset": 0,
        "slot": "37",
        "type": "t_mapping(t_address,t_struct(Fund)16882_storage)"
      },
      {
        "astId": 240,
        "contract": "contracts/base/ConfigurableRightsPool.sol:ConfigurableRightsPool",
        "label": "endFund",
        "offset": 0,
        "slot": "38",
        "type": "t_mapping(t_address,t_struct(Fund)16882_storage)"
      },
      {
        "astId": 242,
        "contract": "contracts/base/ConfigurableRightsPool.sol:ConfigurableRightsPool",
        "label": "etype",
        "offset": 0,
        "slot": "39",
        "type": "t_enum(Etypes)16819"
      }
    ],
    "types": {
      "t_address": {
        "encoding": "inplace",
        "label": "address",
        "numberOfBytes": "20"
      },
      "t_array(t_address)dyn_storage": {
        "base": "t_address",
        "encoding": "dynamic_array",
        "label": "address[]",
        "numberOfBytes": "32"
      },
      "t_array(t_uint256)dyn_storage": {
        "base": "t_uint256",
        "encoding": "dynamic_array",
        "label": "uint256[]",
        "numberOfBytes": "32"
      },
      "t_bool": {
        "encoding": "inplace",
        "label": "bool",
        "numberOfBytes": "1"
      },
      "t_contract(IBFactory)15223": {
        "encoding": "inplace",
        "label": "contract IBFactory",
        "numberOfBytes": "20"
      },
      "t_contract(IBPool)15135": {
        "encoding": "inplace",
        "label": "contract IBPool",
        "numberOfBytes": "20"
      },
      "t_enum(Etypes)16819": {
        "encoding": "inplace",
        "label": "enum SmartPoolManager.Etypes",
        "numberOfBytes": "1"
      },
      "t_mapping(t_address,t_bool)": {
        "encoding": "mapping",
        "key": "t_address",
        "label": "mapping(address => bool)",
        "numberOfBytes": "32",
        "value": "t_bool"
      },
      "t_mapping(t_address,t_mapping(t_address,t_uint256))": {
        "encoding": "mapping",
        "key": "t_address",
        "label": "mapping(address => mapping(address => uint256))",
        "numberOfBytes": "32",
        "value": "t_mapping(t_address,t_uint256)"
      },
      "t_mapping(t_address,t_struct(Fund)16882_storage)": {
        "encoding": "mapping",
        "key": "t_address",
        "label": "mapping(address => struct SmartPoolManager.Fund)",
        "numberOfBytes": "32",
        "value": "t_struct(Fund)16882_storage"
      },
      "t_mapping(t_address,t_uint256)": {
        "encoding": "mapping",
        "key": "t_address",
        "label": "mapping(address => uint256)",
        "numberOfBytes": "32",
        "value": "t_uint256"
      },
      "t_mapping(t_uint256,t_mapping(t_address,t_bool))": {
        "encoding": "mapping",
        "key": "t_uint256",
        "label": "mapping(uint256 => mapping(address => bool))",
        "numberOfBytes": "32",
        "value": "t_mapping(t_address,t_bool)"
      },
      "t_string_storage": {
        "encoding": "bytes",
        "label": "string",
        "numberOfBytes": "32"
      },
      "t_struct(Fund)16882_storage": {
        "encoding": "inplace",
        "label": "struct SmartPoolManager.Fund",
        "members": [
          {
            "astId": 16879,
            "contract": "contracts/base/ConfigurableRightsPool.sol:ConfigurableRightsPool",
            "label": "etfAmount",
            "offset": 0,
            "slot": "0",
            "type": "t_uint256"
          },
          {
            "astId": 16881,
            "contract": "contracts/base/ConfigurableRightsPool.sol:ConfigurableRightsPool",
            "label": "fundAmount",
            "offset": 0,
            "slot": "1",
            "type": "t_uint256"
          }
        ],
        "numberOfBytes": "64"
      },
      "t_struct(Rights)16175_storage": {
        "encoding": "inplace",
        "label": "struct RightsManager.Rights",
        "members": [
          {
            "astId": 16164,
            "contract": "contracts/base/ConfigurableRightsPool.sol:ConfigurableRightsPool",
            "label": "canPauseSwapping",
            "offset": 0,
            "slot": "0",
            "type": "t_bool"
          },
          {
            "astId": 16166,
            "contract": "contracts/base/ConfigurableRightsPool.sol:ConfigurableRightsPool",
            "label": "canChangeSwapFee",
            "offset": 1,
            "slot": "0",
            "type": "t_bool"
          },
          {
            "astId": 16168,
            "contract": "contracts/base/ConfigurableRightsPool.sol:ConfigurableRightsPool",
            "label": "canChangeWeights",
            "offset": 2,
            "slot": "0",
            "type": "t_bool"
          },
          {
            "astId": 16170,
            "contract": "contracts/base/ConfigurableRightsPool.sol:ConfigurableRightsPool",
            "label": "canAddRemoveTokens",
            "offset": 3,
            "slot": "0",
            "type": "t_bool"
          },
          {
            "astId": 16172,
            "contract": "contracts/base/ConfigurableRightsPool.sol:ConfigurableRightsPool",
            "label": "canWhitelistLPs",
            "offset": 4,
            "slot": "0",
            "type": "t_bool"
          },
          {
            "astId": 16174,
            "contract": "contracts/base/ConfigurableRightsPool.sol:ConfigurableRightsPool",
            "label": "canTokenWhiteLists",
            "offset": 5,
            "slot": "0",
            "type": "t_bool"
          }
        ],
        "numberOfBytes": "32"
      },
      "t_struct(Status)16846_storage": {
        "encoding": "inplace",
        "label": "struct SmartPoolManager.Status",
        "members": [
          {
            "astId": 16825,
            "contract": "contracts/base/ConfigurableRightsPool.sol:ConfigurableRightsPool",
            "label": "collectPeriod",
            "offset": 0,
            "slot": "0",
            "type": "t_uint256"
          },
          {
            "astId": 16827,
            "contract": "contracts/base/ConfigurableRightsPool.sol:ConfigurableRightsPool",
            "label": "collectEndTime",
            "offset": 0,
            "slot": "1",
            "type": "t_uint256"
          },
          {
            "astId": 16829,
            "contract": "contracts/base/ConfigurableRightsPool.sol:ConfigurableRightsPool",
            "label": "closurePeriod",
            "offset": 0,
            "slot": "2",
            "type": "t_uint256"
          },
          {
            "astId": 16831,
            "contract": "contracts/base/ConfigurableRightsPool.sol:ConfigurableRightsPool",
            "label": "closureEndTime",
            "offset": 0,
            "slot": "3",
            "type": "t_uint256"
          },
          {
            "astId": 16833,
            "contract": "contracts/base/ConfigurableRightsPool.sol:ConfigurableRightsPool",
            "label": "upperCap",
            "offset": 0,
            "slot": "4",
            "type": "t_uint256"
          },
          {
            "astId": 16835,
            "contract": "contracts/base/ConfigurableRightsPool.sol:ConfigurableRightsPool",
            "label": "floorCap",
            "offset": 0,
            "slot": "5",
            "type": "t_uint256"
          },
          {
            "astId": 16837,
            "contract": "contracts/base/ConfigurableRightsPool.sol:ConfigurableRightsPool",
            "label": "managerFee",
            "offset": 0,
            "slot": "6",
            "type": "t_uint256"
          },
          {
            "astId": 16839,
            "contract": "contracts/base/ConfigurableRightsPool.sol:ConfigurableRightsPool",
            "label": "redeemFee",
            "offset": 0,
            "slot": "7",
            "type": "t_uint256"
          },
          {
            "astId": 16841,
            "contract": "contracts/base/ConfigurableRightsPool.sol:ConfigurableRightsPool",
            "label": "issueFee",
            "offset": 0,
            "slot": "8",
            "type": "t_uint256"
          },
          {
            "astId": 16843,
            "contract": "contracts/base/ConfigurableRightsPool.sol:ConfigurableRightsPool",
            "label": "perfermanceFee",
            "offset": 0,
            "slot": "9",
            "type": "t_uint256"
          },
          {
            "astId": 16845,
            "contract": "contracts/base/ConfigurableRightsPool.sol:ConfigurableRightsPool",
            "label": "startClaimFeeTime",
            "offset": 0,
            "slot": "10",
            "type": "t_uint256"
          }
        ],
        "numberOfBytes": "352"
      },
      "t_uint256": {
        "encoding": "inplace",
        "label": "uint256",
        "numberOfBytes": "32"
      }
    }
  }
}