{
  "address": "0x9668D2F6Dbb926030F31438B6d99326EbF9D63E1",
  "abi": [
    {
      "inputs": [
        {
          "internalType": "string",
          "name": "tokenSymbol",
          "type": "string"
        },
        {
          "internalType": "string",
          "name": "tokenName",
          "type": "string"
        }
      ],
      "stateMutability": "nonpayable",
      "type": "constructor"
    },
    {
      "anonymous": false,
      "inputs": [
        {
          "indexed": true,
          "internalType": "address",
          "name": "newAdmin",
          "type": "address"
        },
        {
          "indexed": true,
          "internalType": "uint256",
          "name": "amount",
          "type": "uint256"
        }
      ],
      "name": "AddAdmin",
      "type": "event"
    },
    {
      "anonymous": false,
      "inputs": [
        {
          "indexed": true,
          "internalType": "address",
          "name": "owner",
          "type": "address"
        },
        {
          "indexed": true,
          "internalType": "address",
          "name": "spender",
          "type": "address"
        },
        {
          "indexed": false,
          "internalType": "uint256",
          "name": "value",
          "type": "uint256"
        }
      ],
      "name": "Approval",
      "type": "event"
    },
    {
      "anonymous": false,
      "inputs": [
        {
          "indexed": true,
          "internalType": "address",
          "name": "spender",
          "type": "address"
        },
        {
          "indexed": true,
          "internalType": "uint256",
          "name": "sort",
          "type": "uint256"
        },
        {
          "indexed": true,
          "internalType": "address",
          "name": "caller",
          "type": "address"
        },
        {
          "indexed": false,
          "internalType": "address",
          "name": "token",
          "type": "address"
        }
      ],
      "name": "LOG_DEL_WHITELIST",
      "type": "event"
    },
    {
      "anonymous": false,
      "inputs": [
        {
          "indexed": true,
          "internalType": "address",
          "name": "spender",
          "type": "address"
        },
        {
          "indexed": true,
          "internalType": "uint256",
          "name": "sort",
          "type": "uint256"
        },
        {
          "indexed": true,
          "internalType": "address",
          "name": "caller",
          "type": "address"
        },
        {
          "indexed": false,
          "internalType": "address",
          "name": "token",
          "type": "address"
        }
      ],
      "name": "LOG_WHITELIST",
      "type": "event"
    },
    {
      "anonymous": true,
      "inputs": [
        {
          "indexed": true,
          "internalType": "bytes4",
          "name": "sig",
          "type": "bytes4"
        },
        {
          "indexed": true,
          "internalType": "address",
          "name": "caller",
          "type": "address"
        },
        {
          "indexed": false,
          "internalType": "bytes",
          "name": "data",
          "type": "bytes"
        }
      ],
      "name": "LogCall",
      "type": "event"
    },
    {
      "anonymous": false,
      "inputs": [
        {
          "indexed": true,
          "internalType": "address",
          "name": "caller",
          "type": "address"
        },
        {
          "indexed": true,
          "internalType": "address",
          "name": "tokenOut",
          "type": "address"
        },
        {
          "indexed": false,
          "internalType": "uint256",
          "name": "tokenAmountOut",
          "type": "uint256"
        }
      ],
      "name": "LogExit",
      "type": "event"
    },
    {
      "anonymous": false,
      "inputs": [
        {
          "indexed": true,
          "internalType": "address",
          "name": "caller",
          "type": "address"
        },
        {
          "indexed": true,
          "internalType": "address",
          "name": "tokenIn",
          "type": "address"
        },
        {
          "indexed": false,
          "internalType": "uint256",
          "name": "tokenAmountIn",
          "type": "uint256"
        }
      ],
      "name": "LogJoin",
      "type": "event"
    },
    {
      "anonymous": false,
      "inputs": [
        {
          "indexed": true,
          "internalType": "address",
          "name": "previousOwner",
          "type": "address"
        },
        {
          "indexed": true,
          "internalType": "address",
          "name": "newOwner",
          "type": "address"
        }
      ],
      "name": "OwnershipTransferred",
      "type": "event"
    },
    {
      "anonymous": false,
      "inputs": [
        {
          "indexed": true,
          "internalType": "address",
          "name": "oldAdmin",
          "type": "address"
        },
        {
          "indexed": true,
          "internalType": "uint256",
          "name": "amount",
          "type": "uint256"
        }
      ],
      "name": "RemoveAdmin",
      "type": "event"
    },
    {
      "anonymous": false,
      "inputs": [
        {
          "indexed": true,
          "internalType": "uint256",
          "name": "managerFee",
          "type": "uint256"
        },
        {
          "indexed": true,
          "internalType": "uint256",
          "name": "issueFee",
          "type": "uint256"
        },
        {
          "indexed": true,
          "internalType": "uint256",
          "name": "redeemFee",
          "type": "uint256"
        },
        {
          "indexed": false,
          "internalType": "uint256",
          "name": "perfermanceFee",
          "type": "uint256"
        }
      ],
      "name": "SetManagerFee",
      "type": "event"
    },
    {
      "anonymous": false,
      "inputs": [
        {
          "indexed": true,
          "internalType": "address",
          "name": "from",
          "type": "address"
        },
        {
          "indexed": true,
          "internalType": "address",
          "name": "to",
          "type": "address"
        },
        {
          "indexed": false,
          "internalType": "uint256",
          "name": "value",
          "type": "uint256"
        }
      ],
      "name": "Transfer",
      "type": "event"
    },
    {
      "anonymous": false,
      "inputs": [
        {
          "indexed": true,
          "internalType": "address",
          "name": "caller",
          "type": "address"
        },
        {
          "indexed": true,
          "internalType": "string",
          "name": "sizeType",
          "type": "string"
        },
        {
          "indexed": false,
          "internalType": "uint256",
          "name": "oldSize",
          "type": "uint256"
        },
        {
          "indexed": false,
          "internalType": "uint256",
          "name": "newSize",
          "type": "uint256"
        }
      ],
      "name": "sizeChanged",
      "type": "event"
    },
    {
      "inputs": [],
      "name": "DECIMALS",
      "outputs": [
        {
          "internalType": "uint8",
          "name": "",
          "type": "uint8"
        }
      ],
      "stateMutability": "view",
      "type": "function"
    },
    {
      "inputs": [],
      "name": "NAME",
      "outputs": [
        {
          "internalType": "string",
          "name": "",
          "type": "string"
        }
      ],
      "stateMutability": "view",
      "type": "function"
    },
    {
      "inputs": [
        {
          "internalType": "uint256[]",
          "name": "sort",
          "type": "uint256[]"
        },
        {
          "internalType": "address[]",
          "name": "token",
          "type": "address[]"
        }
      ],
      "name": "addTokenToWhitelist",
      "outputs": [],
      "stateMutability": "nonpayable",
      "type": "function"
    },
    {
      "inputs": [
        {
          "internalType": "address",
          "name": "",
          "type": "address"
        }
      ],
      "name": "adminList",
      "outputs": [
        {
          "internalType": "bool",
          "name": "",
          "type": "bool"
        }
      ],
      "stateMutability": "view",
      "type": "function"
    },
    {
      "inputs": [],
      "name": "allOwnerPercentage",
      "outputs": [
        {
          "internalType": "uint256",
          "name": "",
          "type": "uint256"
        }
      ],
      "stateMutability": "view",
      "type": "function"
    },
    {
      "inputs": [
        {
          "internalType": "address",
          "name": "owner",
          "type": "address"
        },
        {
          "internalType": "address",
          "name": "spender",
          "type": "address"
        }
      ],
      "name": "allowance",
      "outputs": [
        {
          "internalType": "uint256",
          "name": "",
          "type": "uint256"
        }
      ],
      "stateMutability": "view",
      "type": "function"
    },
    {
      "inputs": [
        {
          "internalType": "address",
          "name": "spender",
          "type": "address"
        },
        {
          "internalType": "uint256",
          "name": "amount",
          "type": "uint256"
        }
      ],
      "name": "approve",
      "outputs": [
        {
          "internalType": "bool",
          "name": "",
          "type": "bool"
        }
      ],
      "stateMutability": "nonpayable",
      "type": "function"
    },
    {
      "inputs": [],
      "name": "bFactory",
      "outputs": [
        {
          "internalType": "contract IBFactory",
          "name": "",
          "type": "address"
        }
      ],
      "stateMutability": "view",
      "type": "function"
    },
    {
      "inputs": [],
      "name": "bPool",
      "outputs": [
        {
          "internalType": "contract IBPool",
          "name": "",
          "type": "address"
        }
      ],
      "stateMutability": "view",
      "type": "function"
    },
    {
      "inputs": [
        {
          "internalType": "address",
          "name": "account",
          "type": "address"
        }
      ],
      "name": "balanceOf",
      "outputs": [
        {
          "internalType": "uint256",
          "name": "",
          "type": "uint256"
        }
      ],
      "stateMutability": "view",
      "type": "function"
    },
    {
      "inputs": [
        {
          "internalType": "address",
          "name": "",
          "type": "address"
        }
      ],
      "name": "beginFund",
      "outputs": [
        {
          "internalType": "uint256",
          "name": "etfAmount",
          "type": "uint256"
        },
        {
          "internalType": "uint256",
          "name": "fundAmount",
          "type": "uint256"
        }
      ],
      "stateMutability": "view",
      "type": "function"
    },
    {
      "inputs": [
        {
          "internalType": "uint256",
          "name": "amount",
          "type": "uint256"
        }
      ],
      "name": "burnPoolShareFromLib",
      "outputs": [],
      "stateMutability": "nonpayable",
      "type": "function"
    },
    {
      "inputs": [
        {
          "internalType": "address",
          "name": "provider",
          "type": "address"
        }
      ],
      "name": "canProvideLiquidity",
      "outputs": [
        {
          "internalType": "bool",
          "name": "",
          "type": "bool"
        }
      ],
      "stateMutability": "view",
      "type": "function"
    },
    {
      "inputs": [],
      "name": "claimManagerFee",
      "outputs": [],
      "stateMutability": "nonpayable",
      "type": "function"
    },
    {
      "inputs": [],
      "name": "claimPeriod",
      "outputs": [
        {
          "internalType": "uint256",
          "name": "",
          "type": "uint256"
        }
      ],
      "stateMutability": "view",
      "type": "function"
    },
    {
      "inputs": [
        {
          "internalType": "uint256",
          "name": "initialSupply",
          "type": "uint256"
        },
        {
          "internalType": "uint256",
          "name": "collectPeriod",
          "type": "uint256"
        },
        {
          "internalType": "enum SmartPoolManager.Period",
          "name": "closurePeriod",
          "type": "uint8"
        },
        {
          "components": [
            {
              "internalType": "uint256",
              "name": "bspFloor",
              "type": "uint256"
            },
            {
              "internalType": "uint256",
              "name": "bspCap",
              "type": "uint256"
            }
          ],
          "internalType": "struct SmartPoolManager.PoolTokenRange",
          "name": "tokenRange",
          "type": "tuple"
        }
      ],
      "name": "createPool",
      "outputs": [],
      "stateMutability": "nonpayable",
      "type": "function"
    },
    {
      "inputs": [
        {
          "internalType": "uint256",
          "name": "initialSupply",
          "type": "uint256"
        }
      ],
      "name": "createPool",
      "outputs": [],
      "stateMutability": "nonpayable",
      "type": "function"
    },
    {
      "inputs": [],
      "name": "decimals",
      "outputs": [
        {
          "internalType": "uint8",
          "name": "",
          "type": "uint8"
        }
      ],
      "stateMutability": "view",
      "type": "function"
    },
    {
      "inputs": [
        {
          "internalType": "address",
          "name": "spender",
          "type": "address"
        },
        {
          "internalType": "uint256",
          "name": "amount",
          "type": "uint256"
        }
      ],
      "name": "decreaseApproval",
      "outputs": [
        {
          "internalType": "bool",
          "name": "",
          "type": "bool"
        }
      ],
      "stateMutability": "nonpayable",
      "type": "function"
    },
    {
      "inputs": [
        {
          "internalType": "address",
          "name": "",
          "type": "address"
        }
      ],
      "name": "endFund",
      "outputs": [
        {
          "internalType": "uint256",
          "name": "etfAmount",
          "type": "uint256"
        },
        {
          "internalType": "uint256",
          "name": "fundAmount",
          "type": "uint256"
        }
      ],
      "stateMutability": "view",
      "type": "function"
    },
    {
      "inputs": [],
      "name": "etfStatus",
      "outputs": [
        {
          "internalType": "uint256",
          "name": "collectPeriod",
          "type": "uint256"
        },
        {
          "internalType": "uint256",
          "name": "collectEndTime",
          "type": "uint256"
        },
        {
          "internalType": "uint256",
          "name": "closurePeriod",
          "type": "uint256"
        },
        {
          "internalType": "uint256",
          "name": "closureEndTime",
          "type": "uint256"
        },
        {
          "internalType": "uint256",
          "name": "upperCap",
          "type": "uint256"
        },
        {
          "internalType": "uint256",
          "name": "floorCap",
          "type": "uint256"
        },
        {
          "internalType": "uint256",
          "name": "managerFee",
          "type": "uint256"
        },
        {
          "internalType": "uint256",
          "name": "redeemFee",
          "type": "uint256"
        },
        {
          "internalType": "uint256",
          "name": "issueFee",
          "type": "uint256"
        },
        {
          "internalType": "uint256",
          "name": "perfermanceFee",
          "type": "uint256"
        },
        {
          "internalType": "uint256",
          "name": "startClaimFeeTime",
          "type": "uint256"
        }
      ],
      "stateMutability": "view",
      "type": "function"
    },
    {
      "inputs": [],
      "name": "etype",
      "outputs": [
        {
          "internalType": "enum SmartPoolManager.Etypes",
          "name": "",
          "type": "uint8"
        }
      ],
      "stateMutability": "view",
      "type": "function"
    },
    {
      "inputs": [
        {
          "internalType": "address",
          "name": "_target",
          "type": "address"
        },
        {
          "internalType": "uint256",
          "name": "_value",
          "type": "uint256"
        },
        {
          "internalType": "bytes",
          "name": "_data",
          "type": "bytes"
        }
      ],
      "name": "execute",
      "outputs": [
        {
          "internalType": "bytes",
          "name": "_returnValue",
          "type": "bytes"
        }
      ],
      "stateMutability": "nonpayable",
      "type": "function"
    },
    {
      "inputs": [
        {
          "internalType": "uint256",
          "name": "poolAmountIn",
          "type": "uint256"
        },
        {
          "internalType": "uint256[]",
          "name": "minAmountsOut",
          "type": "uint256[]"
        }
      ],
      "name": "exitPool",
      "outputs": [],
      "stateMutability": "nonpayable",
      "type": "function"
    },
    {
      "inputs": [],
      "name": "getController",
      "outputs": [
        {
          "internalType": "address",
          "name": "",
          "type": "address"
        }
      ],
      "stateMutability": "view",
      "type": "function"
    },
    {
      "inputs": [],
      "name": "getDesynSafeMathVersion",
      "outputs": [
        {
          "internalType": "address",
          "name": "",
          "type": "address"
        }
      ],
      "stateMutability": "pure",
      "type": "function"
    },
    {
      "inputs": [],
      "name": "getOwnerPercentage",
      "outputs": [
        {
          "internalType": "uint256[]",
          "name": "",
          "type": "uint256[]"
        }
      ],
      "stateMutability": "view",
      "type": "function"
    },
    {
      "inputs": [],
      "name": "getOwners",
      "outputs": [
        {
          "internalType": "address[]",
          "name": "",
          "type": "address[]"
        }
      ],
      "stateMutability": "view",
      "type": "function"
    },
    {
      "inputs": [],
      "name": "getRightsManagerVersion",
      "outputs": [
        {
          "internalType": "address",
          "name": "",
          "type": "address"
        }
      ],
      "stateMutability": "pure",
      "type": "function"
    },
    {
      "inputs": [],
      "name": "getSmartPoolManagerVersion",
      "outputs": [
        {
          "internalType": "address",
          "name": "",
          "type": "address"
        }
      ],
      "stateMutability": "pure",
      "type": "function"
    },
    {
      "inputs": [
        {
          "internalType": "enum RightsManager.Permissions",
          "name": "permission",
          "type": "uint8"
        }
      ],
      "name": "hasPermission",
      "outputs": [
        {
          "internalType": "bool",
          "name": "",
          "type": "bool"
        }
      ],
      "stateMutability": "view",
      "type": "function"
    },
    {
      "inputs": [
        {
          "internalType": "address",
          "name": "spender",
          "type": "address"
        },
        {
          "internalType": "uint256",
          "name": "amount",
          "type": "uint256"
        }
      ],
      "name": "increaseApproval",
      "outputs": [
        {
          "internalType": "bool",
          "name": "",
          "type": "bool"
        }
      ],
      "stateMutability": "nonpayable",
      "type": "function"
    },
    {
      "inputs": [
        {
          "internalType": "address",
          "name": "factoryAddress",
          "type": "address"
        },
        {
          "components": [
            {
              "internalType": "string",
              "name": "poolTokenSymbol",
              "type": "string"
            },
            {
              "internalType": "string",
              "name": "poolTokenName",
              "type": "string"
            },
            {
              "internalType": "address[]",
              "name": "constituentTokens",
              "type": "address[]"
            },
            {
              "internalType": "uint256[]",
              "name": "tokenBalances",
              "type": "uint256[]"
            },
            {
              "internalType": "uint256[]",
              "name": "tokenWeights",
              "type": "uint256[]"
            },
            {
              "internalType": "uint256",
              "name": "swapFee",
              "type": "uint256"
            },
            {
              "internalType": "uint256",
              "name": "managerFee",
              "type": "uint256"
            },
            {
              "internalType": "uint256",
              "name": "redeemFee",
              "type": "uint256"
            },
            {
              "internalType": "uint256",
              "name": "issueFee",
              "type": "uint256"
            },
            {
              "internalType": "uint256",
              "name": "perfermanceFee",
              "type": "uint256"
            },
            {
              "internalType": "enum SmartPoolManager.Etypes",
              "name": "etype",
              "type": "uint8"
            }
          ],
          "internalType": "struct SmartPoolManager.PoolParams",
          "name": "poolParams",
          "type": "tuple"
        },
        {
          "components": [
            {
              "internalType": "bool",
              "name": "canPauseSwapping",
              "type": "bool"
            },
            {
              "internalType": "bool",
              "name": "canChangeSwapFee",
              "type": "bool"
            },
            {
              "internalType": "bool",
              "name": "canChangeWeights",
              "type": "bool"
            },
            {
              "internalType": "bool",
              "name": "canAddRemoveTokens",
              "type": "bool"
            },
            {
              "internalType": "bool",
              "name": "canWhitelistLPs",
              "type": "bool"
            },
            {
              "internalType": "bool",
              "name": "canTokenWhiteLists",
              "type": "bool"
            }
          ],
          "internalType": "struct RightsManager.Rights",
          "name": "rightsStruct",
          "type": "tuple"
        }
      ],
      "name": "init",
      "outputs": [],
      "stateMutability": "nonpayable",
      "type": "function"
    },
    {
      "inputs": [],
      "name": "initBool",
      "outputs": [
        {
          "internalType": "bool",
          "name": "",
          "type": "bool"
        }
      ],
      "stateMutability": "view",
      "type": "function"
    },
    {
      "inputs": [
        {
          "internalType": "address[]",
          "name": "_owners",
          "type": "address[]"
        },
        {
          "internalType": "uint256[]",
          "name": "_ownerPercentage",
          "type": "uint256[]"
        }
      ],
      "name": "initHandle",
      "outputs": [],
      "stateMutability": "nonpayable",
      "type": "function"
    },
    {
      "inputs": [],
      "name": "isCompletedCollect",
      "outputs": [
        {
          "internalType": "bool",
          "name": "",
          "type": "bool"
        }
      ],
      "stateMutability": "view",
      "type": "function"
    },
    {
      "inputs": [
        {
          "internalType": "uint256",
          "name": "poolAmountOut",
          "type": "uint256"
        },
        {
          "internalType": "uint256[]",
          "name": "maxAmountsIn",
          "type": "uint256[]"
        },
        {
          "internalType": "address",
          "name": "kol",
          "type": "address"
        }
      ],
      "name": "joinPool",
      "outputs": [],
      "stateMutability": "nonpayable",
      "type": "function"
    },
    {
      "inputs": [
        {
          "internalType": "uint256",
          "name": "amount",
          "type": "uint256"
        }
      ],
      "name": "mintPoolShareFromLib",
      "outputs": [],
      "stateMutability": "nonpayable",
      "type": "function"
    },
    {
      "inputs": [],
      "name": "name",
      "outputs": [
        {
          "internalType": "string",
          "name": "",
          "type": "string"
        }
      ],
      "stateMutability": "view",
      "type": "function"
    },
    {
      "inputs": [],
      "name": "oracleAddress",
      "outputs": [
        {
          "internalType": "address",
          "name": "",
          "type": "address"
        }
      ],
      "stateMutability": "view",
      "type": "function"
    },
    {
      "inputs": [
        {
          "internalType": "uint256",
          "name": "",
          "type": "uint256"
        }
      ],
      "name": "ownerPercentage",
      "outputs": [
        {
          "internalType": "uint256",
          "name": "",
          "type": "uint256"
        }
      ],
      "stateMutability": "view",
      "type": "function"
    },
    {
      "inputs": [
        {
          "internalType": "uint256",
          "name": "",
          "type": "uint256"
        }
      ],
      "name": "owners",
      "outputs": [
        {
          "internalType": "address",
          "name": "",
          "type": "address"
        }
      ],
      "stateMutability": "view",
      "type": "function"
    },
    {
      "inputs": [
        {
          "internalType": "address",
          "name": "from",
          "type": "address"
        },
        {
          "internalType": "uint256",
          "name": "amount",
          "type": "uint256"
        }
      ],
      "name": "pullPoolShareFromLib",
      "outputs": [],
      "stateMutability": "nonpayable",
      "type": "function"
    },
    {
      "inputs": [
        {
          "internalType": "address",
          "name": "to",
          "type": "address"
        },
        {
          "internalType": "uint256",
          "name": "amount",
          "type": "uint256"
        }
      ],
      "name": "pushPoolShareFromLib",
      "outputs": [],
      "stateMutability": "nonpayable",
      "type": "function"
    },
    {
      "inputs": [
        {
          "internalType": "address",
          "name": "tokenA",
          "type": "address"
        },
        {
          "internalType": "address",
          "name": "tokenB",
          "type": "address"
        },
        {
          "internalType": "uint256",
          "name": "deltaWeight",
          "type": "uint256"
        },
        {
          "internalType": "uint256",
          "name": "minAmountOut",
          "type": "uint256"
        }
      ],
      "name": "rebalance",
      "outputs": [],
      "stateMutability": "nonpayable",
      "type": "function"
    },
    {
      "inputs": [
        {
          "internalType": "address",
          "name": "owner",
          "type": "address"
        }
      ],
      "name": "removeOwner",
      "outputs": [],
      "stateMutability": "nonpayable",
      "type": "function"
    },
    {
      "inputs": [
        {
          "internalType": "address",
          "name": "provider",
          "type": "address"
        }
      ],
      "name": "removeWhitelistedLiquidityProvider",
      "outputs": [],
      "stateMutability": "nonpayable",
      "type": "function"
    },
    {
      "inputs": [],
      "name": "rights",
      "outputs": [
        {
          "internalType": "bool",
          "name": "canPauseSwapping",
          "type": "bool"
        },
        {
          "internalType": "bool",
          "name": "canChangeSwapFee",
          "type": "bool"
        },
        {
          "internalType": "bool",
          "name": "canChangeWeights",
          "type": "bool"
        },
        {
          "internalType": "bool",
          "name": "canAddRemoveTokens",
          "type": "bool"
        },
        {
          "internalType": "bool",
          "name": "canWhitelistLPs",
          "type": "bool"
        },
        {
          "internalType": "bool",
          "name": "canTokenWhiteLists",
          "type": "bool"
        }
      ],
      "stateMutability": "view",
      "type": "function"
    },
    {
      "inputs": [
        {
          "internalType": "address",
          "name": "newOwner",
          "type": "address"
        },
        {
          "internalType": "uint256",
          "name": "_ownerPercentage",
          "type": "uint256"
        }
      ],
      "name": "setAddAdminList",
      "outputs": [],
      "stateMutability": "nonpayable",
      "type": "function"
    },
    {
      "inputs": [
        {
          "internalType": "uint256",
          "name": "newCap",
          "type": "uint256"
        }
      ],
      "name": "setCap",
      "outputs": [],
      "stateMutability": "nonpayable",
      "type": "function"
    },
    {
      "inputs": [
        {
          "internalType": "address",
          "name": "newOwner",
          "type": "address"
        }
      ],
      "name": "setController",
      "outputs": [],
      "stateMutability": "nonpayable",
      "type": "function"
    },
    {
      "inputs": [],
      "name": "symbol",
      "outputs": [
        {
          "internalType": "string",
          "name": "",
          "type": "string"
        }
      ],
      "stateMutability": "view",
      "type": "function"
    },
    {
      "inputs": [],
      "name": "totalSupply",
      "outputs": [
        {
          "internalType": "uint256",
          "name": "",
          "type": "uint256"
        }
      ],
      "stateMutability": "view",
      "type": "function"
    },
    {
      "inputs": [
        {
          "internalType": "address",
          "name": "recipient",
          "type": "address"
        },
        {
          "internalType": "uint256",
          "name": "amount",
          "type": "uint256"
        }
      ],
      "name": "transfer",
      "outputs": [
        {
          "internalType": "bool",
          "name": "",
          "type": "bool"
        }
      ],
      "stateMutability": "nonpayable",
      "type": "function"
    },
    {
      "inputs": [
        {
          "internalType": "address",
          "name": "sender",
          "type": "address"
        },
        {
          "internalType": "address",
          "name": "recipient",
          "type": "address"
        },
        {
          "internalType": "uint256",
          "name": "amount",
          "type": "uint256"
        }
      ],
      "name": "transferFrom",
      "outputs": [
        {
          "internalType": "bool",
          "name": "",
          "type": "bool"
        }
      ],
      "stateMutability": "nonpayable",
      "type": "function"
    },
    {
      "inputs": [],
      "name": "vaultAddress",
      "outputs": [
        {
          "internalType": "address",
          "name": "",
          "type": "address"
        }
      ],
      "stateMutability": "view",
      "type": "function"
    },
    {
      "inputs": [
        {
          "internalType": "address",
          "name": "provider",
          "type": "address"
        }
      ],
      "name": "whitelistLiquidityProvider",
      "outputs": [],
      "stateMutability": "nonpayable",
      "type": "function"
    }
  ],
  "transactionHash": "0xd5adfe4bfcf4fcad7300c4daf024a2431214eca036d7b5671e45dca8dd8891f6",
  "args": [
    "aaaaa",
    "swwsww"
  ],
  "numDeployments": 1,
  "solcInputHash": "b8bb33a7d9d934ed409f82d3e4ddcb48",
  "bytecode": "0x608060405262278d006022553480156200001857600080fd5b5060405162006236380380620062368339810160408190526200003b91620001cf565b815182908290620000549060039060208501906200008c565b5080516200006a9060049060208401906200008c565b5050600580546001600160a01b0319163317905550506001600a555062000236565b828054600181600116156101000203166002900490600052602060002090601f016020900481019282601f10620000cf57805160ff1916838001178555620000ff565b82800160010185558215620000ff579182015b82811115620000ff578251825591602001919060010190620000e2565b506200010d92915062000111565b5090565b5b808211156200010d576000815560010162000112565b600082601f83011262000139578081fd5b81516001600160401b038082111562000150578283fd5b6040516020601f8401601f191682018101838111838210171562000172578586fd5b806040525081945083825286818588010111156200018f57600080fd5b600092505b83831015620001b3578583018101518284018201529182019162000194565b83831115620001c55760008185840101525b5050505092915050565b60008060408385031215620001e2578182fd5b82516001600160401b0380821115620001f9578384fd5b620002078683870162000128565b935060208501519150808211156200021d578283fd5b506200022c8582860162000128565b9150509250929050565b615ff080620002466000396000f3fe608060405234801561001057600080fd5b50600436106102a35760003560e01c80637228c87b1161016e5780637228c87b146104a757806372ba9acd146104c657806373a9855c146104e757806374983a0d146104fc5780637dc2cd9814610504578063806c6f871461050c5780638259e6a01461051f57806391a806c91461053257806392eefe9b1461054557806395d89b4114610558578063980e8db614610560578063992f6ba51461057a5780639d829c2b1461058d578063a0e67e2b14610595578063a3f4df7e146105aa578063a6c245c4146105b2578063a89ae4ba146105c5578063a9059cbb146105cd578063b02f0b73146105e0578063b61d27f6146105f3578063b64ef17b14610606578063c5318d0f1461060e578063c83a1c2d14610621578063d29986c114610634578063d2fed42e1461063c578063d73dd62314610644578063dd62ed3e14610657578063e2762d4b1461066a578063f3b085721461067d576102a3565b8063025e7c27146102a857806306fdde03146102d15780630892b93d146102e6578063095dcccc146102fb578063095ea7b31461030e5780630a1659401461032e578063173825d91461033657806318160ddd14610349578063220eb7601461035e57806323b872dd1461037157806327304dfd146103845780632e0f2625146103975780633018205f146103ac578063309a042c146103b4578063313ce567146103c957806337c6f4d9146103d15780633befcde8146103e45780633ef14479146103f7578063430bf08a1461040a57806347786d37146104125780634ba57882146104255780635468d6d71461043857806355b190551461044057806355c32a231461045357806356fb3bd614610466578063661884631461046e5780636e49db1c1461048157806370a0823114610494575b600080fd5b6102bb6102b6366004615212565b610685565b6040516102c891906154dc565b60405180910390f35b6102d96106ac565b6040516102c89190615774565b6102f96102f4366004615344565b610742565b005b6102f9610309366004614f38565b6109b7565b61032161031c366004614f38565b6109e4565b6040516102c8919061567b565b6102bb610a3d565b6102f9610344366004614cd8565b610a4c565b610351610c2e565b6040516102c89190615d89565b6102f961036c366004615212565b610c34565b61032161037f366004614d48565b610c5f565b610321610392366004614cd8565b610d89565b61039f610d9e565b6040516102c89190615e91565b6102bb610da3565b6103bc610db2565b6040516102c89190615668565b61039f610e09565b6103216103df3660046151f3565b610e0e565b6102f96103f236600461528b565b610ea3565b6102f961040536600461507e565b611641565b6102bb611734565b6102f9610420366004615212565b611743565b6102f9610433366004615212565b611871565b610321611899565b6102f961044e366004614dcd565b6118a9565b6102f9610461366004614f38565b611c9c565b610321611cc5565b61032161047c366004614f38565b611cd5565b6102f961048f366004614d88565b611daf565b6103516104a2366004614cd8565b61215a565b6104af612175565b6040516102c89b9a99989796959493929190615e43565b6104d96104d4366004614cd8565b612199565b6040516102c8929190615831565b6104ef6121b2565b6040516102c8919061581d565b6102bb6121bb565b6103516121d3565b61032161051a366004614cd8565b6121d9565b6102f961052d366004615212565b612222565b6104d9610540366004614cd8565b6122bf565b6102f9610553366004614cd8565b6122d8565b6102d9612384565b6105686123e5565b6040516102c8969594939291906156a7565b6102f9610588366004614f38565b61241e565b6102bb612547565b61059d61255f565b6040516102c891906155e3565b6102d96125c0565b6102f96105c0366004615118565b6125ec565b6102bb61279f565b6103216105db366004614f38565b6127ae565b6102f96105ee366004615242565b6127ea565b6102d9610601366004614f63565b612f73565b6102bb613137565b61035161061c366004615212565b613146565b6102f961062f366004614cd8565b613164565b610351613280565b6102f9613286565b610321610652366004614f38565b613660565b610351610665366004614d10565b6136d4565b6102f9610678366004614cd8565b6136ff565b6102bb613834565b6007818154811061069257fe5b6000918252602090912001546001600160a01b0316905081565b60048054604080516020601f60026000196101006001881615020190951694909404938401819004810282018101909252828152606093909290918301828280156107385780601f1061070d57610100808354040283529160200191610738565b820191906000526020600020905b81548152906001019060200180831161071b57829003601f168201915b5050505050905090565b6005546001600160a01b031633146107755760405162461bcd60e51b815260040161076c90615862565b60405180910390fd5b336001600160a01b03166000356001600160e01b0319166001600160e01b0319166000366040516107a7929190615760565b60405180910390a26002600a5414156107d25760405162461bcd60e51b815260040161076c90615a5e565b6002600a55600160275460ff1660018111156107ea57fe5b14156109a357601654604051633e9fc0bd60e01b815273D3090165Aa2A37e952Df395d95bd5305D811744591633e9fc0bd9161082c9187918990600401615da9565b60006040518083038186803b15801561084457600080fd5b505af4158015610858573d6000803e3d6000fd5b50505050610895601f60008154811061086d57fe5b906000526020600020015461088f83602001518761384c90919063ffffffff16565b906138c9565b601655601f80546108c391906000906108aa57fe5b600091825260209091200154825161088f90879061384c565b6017556040516108d2906154ba565b60405190819003812060165490913391600080516020615f5b833981519152916108fe91600091615831565b60405180910390a3604051610912906154cb565b60405190819003812060175490913391600080516020615f5b8339815191529161093e91600091615831565b60405180910390a360004284018184600281111561095857fe5b141561096757601e915061098f565b600184600281111561097557fe5b1415610987576301e13380915061098f565b6303c2670091505b601285905560138190556014829055016015555b6109ac8461395a565b50506001600a555050565b3330146109d65760405162461bcd60e51b815260040161076c90615862565b6109e08282613cac565b5050565b3360008181526002602090815260408083206001600160a01b03871680855292528083208590555191929091600080516020615f9b83398151915290610a2b908690615d89565b60405180910390a35060015b92915050565b600f546001600160a01b031681565b6005546001600160a01b03163314610a765760405162461bcd60e51b815260040161076c90615862565b6001600160a01b0381166000908152600660205260408120805460ff19169055805b600754811015610b9a57826001600160a01b031660078281548110610ab957fe5b6000918252602090912001546001600160a01b03161415610b9257600780546000198101908110610ae657fe5b600091825260209091200154600780546001600160a01b039092169183908110610b0c57fe5b9060005260206000200160006101000a8154816001600160a01b0302191690836001600160a01b0316021790555060088181548110610b4757fe5b90600052602060002001549150600860016008805490500381548110610b6957fe5b906000526020600020015460088281548110610b8157fe5b600091825260209091200155610b9a565b600101610a98565b506007805480610ba657fe5b600082815260209020810160001990810180546001600160a01b03191690550190556008805480610bd357fe5b600082815260208120820160001990810182905590910190915560098054839003905560405182916001600160a01b038516917f7b0884b4b6bb4e0c1385ad42168fa556c14d4d799c1bf22f081aff3efff6ea0c9190a35050565b60005490565b333014610c535760405162461bcd60e51b815260040161076c90615862565b610c5c81613cb7565b50565b60006001600160a01b038316610c875760405162461bcd60e51b815260040161076c90615944565b336001600160a01b0385161480610cc157506001600160a01b03841660009081526002602090815260408083203384529091529020548211155b610cdd5760405162461bcd60e51b815260040161076c90615bad565b610ce8848484613d1f565b6001600160a01b0384166000818152600260209081526040808320338085529252909120549114801590610d1e57506000198114155b15610d7c57610d2d8184613dbe565b6001600160a01b03861660008181526002602090815260408083203380855292529182902084905590519092600080516020615f9b83398151915291610d739190615d89565b60405180910390a35b60019150505b9392505050565b60066020526000908152604090205460ff1681565b601281565b6005546001600160a01b031690565b6060600880548060200260200160405190810160405280929190818152602001828054801561073857602002820191906000526020600020905b815481526020019060010190808311610dec575050505050905090565b601290565b6040516322c1aa2560e11b8152600090732c05086fbc0701a179e05416e8142c8ff100f85f90634583544a90610e4b906011908690600401615d1c565b60206040518083038186803b158015610e6357600080fd5b505af4158015610e77573d6000803e3d6000fd5b505050506040513d601f19601f82011682018060405250810190610e9b919061516e565b90505b919050565b336001600160a01b03166000356001600160e01b0319166001600160e01b031916600036604051610ed5929190615760565b60405180910390a26002600a541415610f005760405162461bcd60e51b815260040161076c90615a5e565b6002600a556010546001600160a01b0316610f2d5760405162461bcd60e51b815260040161076c906159c3565b6011543360009081526021602052604090205473D3090165Aa2A37e952Df395d95bd5305D81174459163dba4989a9160ff600160201b90920482169116600160275460ff166001811115610f7d57fe5b146012600101546040518563ffffffff1660e01b8152600401610fa394939291906156d7565b60006040518083038186803b158015610fbb57600080fd5b505af4158015610fcf573d6000803e3d6000fd5b505060105460405163a1925f1d60e01b81526060935073D3090165Aa2A37e952Df395d95bd5305D8117445925063a1925f1d916110209130916001600160a01b0316908a908a908a906004016157c1565b60006040518083038186803b15801561103857600080fd5b505af415801561104c573d6000803e3d6000fd5b505050506040513d6000823e601f3d908101601f1916820160405261107491908101906150de565b90506060601060009054906101000a90046001600160a01b03166001600160a01b031663cc77828d6040518163ffffffff1660e01b815260040160006040518083038186803b1580156110c657600080fd5b505afa1580156110da573d6000803e3d6000fd5b505050506040513d6000823e601f3d908101601f191682016040526111029190810190614fe6565b9050606081516001600160401b038111801561111d57600080fd5b50604051908082528060200260200182016040528015611147578160200160208202803683370190505b50601a54909150600090600160275460ff16600181111561116457fe5b14156112f25760245460405163108ad9bd60e21b81526001600160a01b039091169063422b66f49061119c90879089906004016155f6565b602060405180830381600087803b1580156111b657600080fd5b505af11580156111ca573d6000803e3d6000fd5b505050506040513d601f19601f820116820180604052508101906111ee919061522a565b9150600f60009054906101000a90046001600160a01b03166001600160a01b031663703a9ec96040518163ffffffff1660e01b815260040160206040518083038186803b15801561123e57600080fd5b505afa158015611252573d6000803e3d6000fd5b505050506040513d601f19601f820116820180604052508101906112769190614cf4565b6001600160a01b031663d7256c70873387896040518563ffffffff1660e01b81526004016112a7949392919061552e565b600060405180830381600087803b1580156112c157600080fd5b505af11580156112d5573d6000803e3d6000fd5b5050602454600160b01b900460ff16151591506112f29050575060005b60005b845181101561149557600085828151811061130c57fe5b60200260200101519050600087838151811061132457fe5b60200260200101519050816001600160a01b0316336001600160a01b03167fea39e3b35c5cd8937999ed5f7fbab30acd562a931fc4a887fed2a47c3074aa72836040516113719190615d89565b60405180910390a36000611385828661384c565b905061139b83336113968585613dbe565b613df7565b841561148a576040516323b872dd60e01b81526000906001600160a01b038516906323b872dd906113d4903390309087906004016154f0565b602060405180830381600087803b1580156113ee57600080fd5b505af1158015611402573d6000803e3d6000fd5b505050506040513d601f19601f82011682018060405250810190611426919061516e565b602354909150600090611446906001600160a01b03878116911685614040565b90508180156114525750805b61146e5760405162461bcd60e51b815260040161076c90615c0e565b8289878151811061147b57fe5b60200260200101818152505050505b5050506001016112f5565b50801561150657602354604051631483d99d60e01b81526001600160a01b0390911690631483d99d906114d39087908790819060009060040161561b565b600060405180830381600087803b1580156114ed57600080fd5b505af1158015611501573d6000803e3d6000fd5b505050505b61150f89611890565b611519338a6109d6565b811561156057336000908152602560205260409020805461153a908b6141e7565b81553360009081526025602052604090206001015461155990846141e7565b6001909101555b6000600160275460ff16600181111561157557fe5b1480156115f75750601260050154306001600160a01b03166318160ddd6040518163ffffffff1660e01b815260040160206040518083038186803b1580156115bc57600080fd5b505afa1580156115d0573d6000803e3d6000fd5b505050506040513d601f19601f820116820180604052508101906115f4919061522a565b10155b801561160d5750602454600160b01b900460ff16155b90508015611630576024805460ff60b01b1916600160b01b17905561163061420c565b50506001600a555050505050505050565b6005546001600160a01b0316331461166b5760405162461bcd60e51b815260040161076c90615862565b805182511461168c5760405162461bcd60e51b815260040161076c90615a14565b60005b8251811015611707578181815181106116a457fe5b60200260200101516009600082825401925050819055506001600660008584815181106116cd57fe5b6020908102919091018101516001600160a01b03168252810191909152604001600020805460ff191691151591909117905560010161168f565b50815161171b906007906020850190614998565b50805161172f9060089060208401906149fd565b505050565b6023546001600160a01b031681565b336001600160a01b03166000356001600160e01b0319166001600160e01b031916600036604051611775929190615760565b60405180910390a26002600a5414156117a05760405162461bcd60e51b815260040161076c90615a5e565b6002600a556010546001600160a01b03166117cd5760405162461bcd60e51b815260040161076c906159c3565b6005546001600160a01b031633146117f75760405162461bcd60e51b815260040161076c90615862565b600060275460ff16600181111561180a57fe5b146118275760405162461bcd60e51b815260040161076c90615cf1565b604051611833906154ba565b60405190819003812060165490913391600080516020615f5b8339815191529161185f91908690615831565b60405180910390a36016556001600a55565b3330146118905760405162461bcd60e51b815260040161076c90615862565b610c5c8161447b565b602454600160b01b900460ff1681565b73D3090165Aa2A37e952Df395d95bd5305D81174456380681cab8360a001518460c001518561010001518660e001518761012001518860600151518960800151518a6040015151602460159054906101000a900460ff166040518a63ffffffff1660e01b815260040161192499989796959493929190615e02565b60006040518083038186803b15801561193c57600080fd5b505af4158015611950573d6000803e3d6000fd5b50506024805460ff60a81b1916600160a81b17905550508051601180546020808501516040808701516060880151608089015160a08a01511515600160281b0260ff60281b19911515600160201b0260ff60201b1993151563010000000263ff00000019951515620100000262ff0000199815156101000261ff00199d151560ff19909c169b909b179c909c169990991796909616999099179290921695909517949094169190911792909216939093179091558301518051611a1792601e920190614998565b5060608201518051611a3191601f916020909101906149fd565b5060808201518051611a4991602091908201906149fd565b506040805161016081018252600080825260208201819052918101829052606081018290526000196080820181905260a0820183905260c08581015190830181905260e0808701519084018190526101008088015190850181905261012080890151908601819052426101409687018190526012889055601388905560148890556015889055601695909555601796909655601892909255601955601a55601b92909255601c919091558201516027805460ff191660018381811115611b0b57fe5b0217905550600f80546001600160a01b0319166001600160a01b0385811691909117918290556040805163b18b78dd60e01b81529051929091169163b18b78dd91600480820192602092909190829003018186803b158015611b6c57600080fd5b505afa158015611b80573d6000803e3d6000fd5b505050506040513d601f19601f82011682018060405250810190611ba49190614cf4565b602480546001600160a01b0319166001600160a01b03928316179055600f54604080516311b2515f60e31b815290519190921691638d928af8916004808301926020929190829003018186803b158015611bfd57600080fd5b505afa158015611c11573d6000803e3d6000fd5b505050506040513d601f19601f82011682018060405250810190611c359190614cf4565b602380546001600160a01b0319166001600160a01b0392909216919091179055601954601a54601854601b546040517f3d6667963e842e2b5ff1d4feab2c9b92f17c9003592e2ad229952eeb9a293fd091611c8f91615d89565b60405180910390a4505050565b333014611cbb5760405162461bcd60e51b815260040161076c90615862565b6109e082826144a8565b602454600160a81b900460ff1681565b3360009081526002602090815260408083206001600160a01b0386168452909152812054808310611d29573360009081526002602090815260408083206001600160a01b0388168452909152812055611d58565b611d338184613dbe565b3360009081526002602090815260408083206001600160a01b03891684529091529020555b3360008181526002602090815260408083206001600160a01b038916808552925291829020549151909291600080516020615f9b83398151915291611d9d9190615d89565b60405180910390a35060019392505050565b336001600160a01b03166000356001600160e01b0319166001600160e01b031916600036604051611de1929190615760565b60405180910390a26002600a541415611e0c5760405162461bcd60e51b815260040161076c90615a5e565b6002600a553360009081526006602052604090205460ff1680611e3957506005546001600160a01b031633145b611e555760405162461bcd60e51b815260040161076c9061583f565b6010546001600160a01b0316611e7d5760405162461bcd60e51b815260040161076c906159c3565b73D3090165Aa2A37e952Df395d95bd5305D811744563eab73485600160275460ff166001811115611eaa57fe5b60135460155460115460405160e087901b6001600160e01b0319168152611ee79594909414936201000090910460ff16908b908b90600401615728565b60006040518083038186803b158015611eff57600080fd5b505af4158015611f13573d6000803e3d6000fd5b50505050611f20836144b3565b60235460405163607e58b360e11b81526000916001600160a01b03169063c0fcb16690611f519030906004016154dc565b60206040518083038186803b158015611f6957600080fd5b505afa158015611f7d573d6000803e3d6000fd5b505050506040513d601f19601f82011682018060405250810190611fa1919061516e565b9050801561200c5760235460405163edb12adf60e01b81526001600160a01b039091169063edb12adf90611fd99030906004016154dc565b600060405180830381600087803b158015611ff357600080fd5b505af1158015612007573d6000803e3d6000fd5b505050505b601054604051630bcded8960e21b81526001600160a01b0390911690632f37b6249061203c9087906004016154dc565b60206040518083038186803b15801561205457600080fd5b505afa158015612068573d6000803e3d6000fd5b505050506040513d601f19601f8201168201806040525081019061208c919061516e565b6120d0576010546000906120af906001600160a01b038781169116600019614040565b9050806120ce5760405162461bcd60e51b815260040161076c90615c0e565b505b6010546040516350884c9160e01b815273D3090165Aa2A37e952Df395d95bd5305D8117445916350884c919161211e9130916001600160a01b03909116908a908a908a908a90600401615787565b60006040518083038186803b15801561213657600080fd5b505af415801561214a573d6000803e3d6000fd5b50506001600a5550505050505050565b6001600160a01b031660009081526001602052604090205490565b601254601354601454601554601654601754601854601954601a54601b54601c548b565b6026602052600090815260409020805460019091015482565b60275460ff1681565b732c05086fbc0701a179e05416e8142c8ff100f85f90565b60225481565b601154600090600160201b900460ff161561221057506001600160a01b03811660009081526021602052604090205460ff16610e9e565b506001600160a01b0381161515610e9e565b6005546001600160a01b0316331461224c5760405162461bcd60e51b815260040161076c90615862565b336001600160a01b03166000356001600160e01b0319166001600160e01b03191660003660405161227e929190615760565b60405180910390a26002600a5414156122a95760405162461bcd60e51b815260040161076c90615a5e565b6002600a556122b78161395a565b506001600a55565b6025602052600090815260409020805460019091015482565b6005546001600160a01b031633146123025760405162461bcd60e51b815260040161076c90615862565b6001600160a01b0381166123285760405162461bcd60e51b815260040161076c90615944565b6005546040516001600160a01b038084169216907f8be0079c531659141344cd1fd0a4f28419497f9722a3daafe3b4186f6b6457e090600090a3600580546001600160a01b0319166001600160a01b0392909216919091179055565b60038054604080516020601f60026000196101006001881615020190951694909404938401819004810282018101909252828152606093909290918301828280156107385780601f1061070d57610100808354040283529160200191610738565b60115460ff80821691610100810482169162010000820481169163010000008104821691600160201b8204811691600160281b90041686565b6005546001600160a01b031633146124485760405162461bcd60e51b815260040161076c90615862565b6001600160a01b03821660009081526006602052604090205460ff16156124815760405162461bcd60e51b815260040161076c906158e5565b6001600160a01b038216600081815260066020526040808220805460ff19166001908117909155600780548083019091557fa66cc928b5edb82af9bd49922954155ab7b0942694bea4ce44661d9a8736c6880180546001600160a01b0319168517905560088054918201815583527ff3f7a9fe364faab93b216da50a3214154f22a0a2b415b23a84c8169e8b636ee3018490556009805485019055518392917fbd5dcf0b25226117c4a68a0129ffdd4b0541ef5e482ad7de9a96ccb6d6a8ebde91a35050565b73D3090165Aa2A37e952Df395d95bd5305D811744590565b6060600780548060200260200160405190810160405280929190818152602001828054801561073857602002820191906000526020600020905b81546001600160a01b03168152600190910190602001808311612599575050505050905090565b6040518060400160405280601081526020016f11195cde5b8814db585c9d08141bdbdb60821b81525081565b6005546001600160a01b031633146126165760405162461bcd60e51b815260040161076c90615862565b601154600160281b900460ff1680156126395750602454600160a01b900460ff16155b6126555760405162461bcd60e51b815260040161076c9061588e565b80518251146126765760405162461bcd60e51b815260040161076c90615bdd565b60005b815181101561278757600f5483516000916001600160a01b031690638f49f44d908690859081106126a657fe5b60200260200101518585815181106126ba57fe5b60200260200101516040518363ffffffff1660e01b81526004016126df929190615d92565b60206040518083038186803b1580156126f757600080fd5b505afa15801561270b573d6000803e3d6000fd5b505050506040513d601f19601f8201168201806040525081019061272f919061516e565b90508061274e5760405162461bcd60e51b815260040161076c9061596e565b61277e84838151811061275d57fe5b602002602001015184848151811061277157fe5b6020026020010151614586565b50600101612679565b50506024805460ff60a01b1916600160a01b17905550565b6024546001600160a01b031681565b60006001600160a01b0383166127d65760405162461bcd60e51b815260040161076c90615944565b6127e1338484613d1f565b50600192915050565b336001600160a01b03166000356001600160e01b0319166001600160e01b03191660003660405161281c929190615760565b60405180910390a26002600a5414156128475760405162461bcd60e51b815260040161076c90615a5e565b6002600a556010546001600160a01b03166128745760405162461bcd60e51b815260040161076c906159c3565b73D3090165Aa2A37e952Df395d95bd5305D8117445633468facb600160275460ff1660018111156128a157fe5b60245460155460135433600090815260256020526040908190208054600190910154915160e089901b6001600160e01b03191681526128f8979690961495600160b01b90950460ff16949091908c906004016156f6565b604080518083038186803b15801561290f57600080fd5b505af4158015612923573d6000803e3d6000fd5b505050506040513d601f19601f820116820180604052508101906129479190615321565b33600090815260256020526040808220600181019390935592909155601054915163151c70f960e21b8152909160609173D3090165Aa2A37e952Df395d95bd5305D811744591635471c3e4916129b39130916001600160a01b03909116908a908a908a906004016157c1565b60006040518083038186803b1580156129cb57600080fd5b505af41580156129df573d6000803e3d6000fd5b505050506040513d6000823e601f3d908101601f19168201604052612a0791908101906152e7565b91509150612a153386611cbb565b612a1e82610c53565b6010546040805163cc77828d60e01b815290516060926001600160a01b03169163cc77828d916004808301926000929190829003018186803b158015612a6357600080fd5b505afa158015612a77573d6000803e3d6000fd5b505050506040513d6000823e601f3d908101601f19168201604052612a9f9190810190614fe6565b9050606081516001600160401b0381118015612aba57600080fd5b50604051908082528060200260200182016040528015612ae4578160200160208202803683370190505b509050600080600160275460ff166001811115612afd57fe5b148015612b0c57506015544210155b15612b985760245460405163108ad9bd60e21b81526001600160a01b039091169063422b66f490612b4390879089906004016155f6565b602060405180830381600087803b158015612b5d57600080fd5b505af1158015612b71573d6000803e3d6000fd5b505050506040513d601f19601f82011682018060405250810190612b95919061522a565b91505b601954600160275460ff166001811115612bae57fe5b1415612be257602454600090600160b01b900460ff16158015612bd357506013544210155b90508015612be057600091505b505b8215612cbd57336000908152602660209081526040808320805460019182015460259094529382902080549101549151633796ed7f60e21b81528e9473D3090165Aa2A37e952Df395d95bd5305D81174459463de5bb5fc94612c4f94929391929188908c90600401615dda565b60606040518083038186803b158015612c6757600080fd5b505af4158015612c7b573d6000803e3d6000fd5b505050506040513d601f19601f82011682018060405250810190612c9f91906153b1565b33600090815260266020526040902060018101929092559190559250505b606085516001600160401b0381118015612cd657600080fd5b50604051908082528060200260200182016040528015612d00578160200160208202803683370190505b50905060005b8651811015612ed7576000878281518110612d1d57fe5b60200260200101519050600080600073D3090165Aa2A37e952Df395d95bd5305D811744563c0dcb71f8d8781518110612d5257fe5b6020026020010151898b6012600901546040518563ffffffff1660e01b8152600401612d819493929190615dbf565b60606040518083038186803b158015612d9957600080fd5b505af4158015612dad573d6000803e3d6000fd5b505050506040513d601f19601f82011682018060405250810190612dd191906153b1565b92509250925080868681518110612de457fe5b602002602001018181525050836001600160a01b0316336001600160a01b03167fc62fc35ac75e3bff532648e2859a3e1694002cfa357614ae8e034df7f83db5e984604051612e339190615d89565b60405180910390a3612e4684338461468d565b86151580612e605750600088118015612e605750601b5415155b15612ec757612e7084308561468d565b602354600090612e8d906001600160a01b03878116911686614040565b905080612eac5760405162461bcd60e51b815260040161076c90615ac6565b838b8781518110612eb957fe5b602002602001018181525050505b505060019092019150612d069050565b5081151580612ef25750600083118015612ef25750601b5415155b15612f6157602354604051631483d99d60e01b81526001600160a01b0390911690631483d99d90612f2e9089908990869060019060040161561b565b600060405180830381600087803b158015612f4857600080fd5b505af1158015612f5c573d6000803e3d6000fd5b505050505b50506001600a55505050505050505050565b6060336001600160a01b03166000356001600160e01b0319166001600160e01b031916600036604051612fa7929190615760565b60405180910390a26002600a541415612fd25760405162461bcd60e51b815260040161076c90615a5e565b6002600a556010546001600160a01b0316612fff5760405162461bcd60e51b815260040161076c906159c3565b600f546040516338f0d24560e01b81526001600160a01b03909116906338f0d245906130319030903390600401615514565b60206040518083038186803b15801561304957600080fd5b505afa15801561305d573d6000803e3d6000fd5b505050506040513d601f19601f82011682018060405250810190613081919061516e565b61309d5760405162461bcd60e51b815260040161076c906158b5565b601054604051635b0e93fb60e11b81526001600160a01b039091169063b61d27f6906130d3908890889088908890600401615590565b600060405180830381600087803b1580156130ed57600080fd5b505af1158015613101573d6000803e3d6000fd5b505050506040513d6000823e601f3d908101601f19168201604052613129919081019061518a565b6001600a5595945050505050565b6010546001600160a01b031681565b6008818154811061315357fe5b600091825260209091200154905081565b6005546001600160a01b0316331461318e5760405162461bcd60e51b815260040161076c90615862565b6002600a5414156131b15760405162461bcd60e51b815260040161076c90615a5e565b6002600a556040513390600080356001600160e01b031916916131d691903690615760565b60405180910390a2601154604051630d3aa47160e41b815273D3090165Aa2A37e952Df395d95bd5305D81174459163d3aa47109161322691600160201b900460ff16906001908690600401615686565b60006040518083038186803b15801561323e57600080fd5b505af4158015613252573d6000803e3d6000fd5b505050506001600160a01b03166000908152602160205260409020805460ff19166001908117909155600a55565b60095481565b336001600160a01b03166000356001600160e01b0319166001600160e01b0319166000366040516132b8929190615760565b60405180910390a26002600a5414156132e35760405162461bcd60e51b815260040161076c90615a5e565b6002600a55600f546040805163911fb03560e01b8152905133926001600160a01b03169163911fb035916004808301926020929190829003018186803b15801561332c57600080fd5b505afa158015613340573d6000803e3d6000fd5b505050506040513d601f19601f820116820180604052508101906133649190614cf4565b6001600160a01b03161461338a5760405162461bcd60e51b815260040161076c906159a1565b6010546001600160a01b03166133b25760405162461bcd60e51b815260040161076c906159c3565b60006133c3426012600a0154613dbe565b90506022548110156133e75760405162461bcd60e51b815260040161076c90615a83565b600060225482816133f457fe5b0490506060601060009054906101000a90046001600160a01b03166001600160a01b031663cc77828d6040518163ffffffff1660e01b815260040160006040518083038186803b15801561344757600080fd5b505afa15801561345b573d6000803e3d6000fd5b505050506040513d6000823e601f3d908101601f191682016040526134839190810190614fe6565b9050606081516001600160401b038111801561349e57600080fd5b506040519080825280602002602001820160405280156134c8578160200160208202803683370190505b50905060005b82518110156135e05760008382815181106134e557fe5b602090810291909101015160105460405163f8b2cb4f60e01b81529192506000916001600160a01b039091169063f8b2cb4f906135269085906004016154dc565b60206040518083038186803b15801561353e57600080fd5b505afa158015613552573d6000803e3d6000fd5b505050506040513d601f19601f82011682018060405250810190613576919061522a565b9050600061359582600c89601260060154028161358f57fe5b0461384c565b90506135a283308361468d565b6023546135bc906001600160a01b03858116911683614040565b50808585815181106135ca57fe5b60209081029190910101525050506001016134ce565b50602354604051630bac7b8160e01b81526001600160a01b0390911690630bac7b819061361390859085906004016155f6565b600060405180830381600087803b15801561362d57600080fd5b505af1158015613641573d6000803e3d6000fd5b5050602254601c80549690910290950190945550506001600a55505050565b3360009081526002602090815260408083206001600160a01b038616845290915281205461368e90836141e7565b3360008181526002602090815260408083206001600160a01b03891680855292529182902084905590519092600080516020615f9b83398151915291610a2b9190615d89565b6001600160a01b03918216600090815260026020908152604080832093909416825291909152205490565b6005546001600160a01b031633146137295760405162461bcd60e51b815260040161076c90615862565b6002600a54141561374c5760405162461bcd60e51b815260040161076c90615a5e565b6002600a556040513390600080356001600160e01b0319169161377191903690615760565b60405180910390a26011546001600160a01b03821660009081526021602052604090819020549051630d3aa47160e41b815273D3090165Aa2A37e952Df395d95bd5305D81174459263d3aa4710926137de92600160201b90920460ff908116929116908690600401615686565b60006040518083038186803b1580156137f657600080fd5b505af415801561380a573d6000803e3d6000fd5b505050506001600160a01b03166000908152602160205260409020805460ff191690556001600a55565b73e96db147c2d1b7af2a3dd07388b1cc7b086f3c8d90565b60008261385b57506000610a37565b8282028284828161386857fe5b04146138865760405162461bcd60e51b815260040161076c90615af7565b6706f05b59d3b200008101818110156138b15760405162461bcd60e51b815260040161076c90615af7565b6000670de0b6b3a7640000825b049695505050505050565b6000816138e85760405162461bcd60e51b815260040161076c90615b58565b826138f557506000610a37565b670de0b6b3a76400008381029084828161390b57fe5b04146139295760405162461bcd60e51b815260040161076c90615a34565b6002830481018181101561394f5760405162461bcd60e51b815260040161076c90615a34565b60008482816138be57fe5b6010546001600160a01b0316156139835760405162461bcd60e51b815260040161076c906159ec565b61398c81611890565b61399633826109d6565b600f60009054906101000a90046001600160a01b03166001600160a01b03166391cefde46040518163ffffffff1660e01b8152600401602060405180830381600087803b1580156139e657600080fd5b505af11580156139fa573d6000803e3d6000fd5b505050506040513d601f19601f82011682018060405250810190613a1e9190614cf4565b601080546001600160a01b0319166001600160a01b03928316179081905560405163d03f2a0f60e01b815273D3090165Aa2A37e952Df395d95bd5305D81174459263d03f2a0f92613a76929116908590600401615577565b60006040518083038186803b158015613a8e57600080fd5b505af4158015613aa2573d6000803e3d6000fd5b5050505060005b601e54811015613c70576000601e8281548110613ac257fe5b6000918252602082200154601f80546001600160a01b0390921693509084908110613ae957fe5b90600052602060002001549050600060208481548110613b0557fe5b90600052602060002001549050613b1b836144b3565b6040516323b872dd60e01b81526000906001600160a01b038516906323b872dd90613b4e903390309088906004016154f0565b602060405180830381600087803b158015613b6857600080fd5b505af1158015613b7c573d6000803e3d6000fd5b505050506040513d601f19601f82011682018060405250810190613ba0919061516e565b905080613bbf5760405162461bcd60e51b815260040161076c90615c0e565b601054613bdb906001600160a01b038681169116600019614040565b905080613bfa5760405162461bcd60e51b815260040161076c90615c0e565b601054604051631c9c3ca760e31b81526001600160a01b039091169063e4e1e53890613c2e908790879087906004016155c2565b600060405180830381600087803b158015613c4857600080fd5b505af1158015613c5c573d6000803e3d6000fd5b505060019096019550613aa9945050505050565b505b601e5415610c5c57601e805480613c8557fe5b600082815260209020810160001990810180546001600160a01b0319169055019055613c72565b6109e0308383613d1f565b30600090815260016020526040902054613cd19082613dbe565b3060009081526001602052604081209190915554613cef9082613dbe565b60009081556040513090600080516020615f7b83398151915290613d14908590615d89565b60405180910390a350565b6001600160a01b038316600090815260016020526040902054613d429082613dbe565b6001600160a01b038085166000908152600160205260408082209390935590841681522054613d7190826141e7565b6001600160a01b038084166000818152600160205260409081902093909355915190851690600080516020615f7b83398151915290613db1908590615d89565b60405180910390a3505050565b6000806000613dcd85856148ce565b915091508015613def5760405162461bcd60e51b815260040161076c90615c9c565b509392505050565b6010546001600160a01b0316613e1f5760405162461bcd60e51b815260040161076c906159c3565b60105460405163f8b2cb4f60e01b81526000916001600160a01b03169063f8b2cb4f90613e509087906004016154dc565b60206040518083038186803b158015613e6857600080fd5b505afa158015613e7c573d6000803e3d6000fd5b505050506040513d601f19601f82011682018060405250810190613ea0919061522a565b601054604051634a46c67360e11b81529192506000916001600160a01b039091169063948d8ce690613ed69088906004016154dc565b60206040518083038186803b158015613eee57600080fd5b505afa158015613f02573d6000803e3d6000fd5b505050506040513d601f19601f82011682018060405250810190613f26919061522a565b90506000856001600160a01b03166323b872dd8630876040518463ffffffff1660e01b8152600401613f5a939291906154f0565b602060405180830381600087803b158015613f7457600080fd5b505af1158015613f88573d6000803e3d6000fd5b505050506040513d601f19601f82011682018060405250810190613fac919061516e565b905080613fcb5760405162461bcd60e51b815260040161076c90615c0e565b6010546001600160a01b0316633fdddaa287613fe786886141e7565b856040518463ffffffff1660e01b8152600401614006939291906155c2565b600060405180830381600087803b15801561402057600080fd5b505af1158015614034573d6000803e3d6000fd5b50505050505050505050565b600080846001600160a01b031663dd62ed3e30866040518363ffffffff1660e01b8152600401614071929190615514565b60206040518083038186803b15801561408957600080fd5b505afa15801561409d573d6000803e3d6000fd5b505050506040513d601f19601f820116820180604052508101906140c1919061522a565b9050828114156140d5576001915050610d82565b801561415e5760405163095ea7b360e01b81526001600160a01b0386169063095ea7b39061410a908790600090600401615577565b602060405180830381600087803b15801561412457600080fd5b505af1158015614138573d6000803e3d6000fd5b505050506040513d601f19601f8201168201806040525081019061415c919061516e565b505b60405163095ea7b360e01b81526001600160a01b0386169063095ea7b39061418c9087908790600401615577565b602060405180830381600087803b1580156141a657600080fd5b505af11580156141ba573d6000803e3d6000fd5b505050506040513d601f19601f820116820180604052508101906141de919061516e565b95945050505050565b600082820183811015610d825760405162461bcd60e51b815260040161076c90615cc7565b601a5415614479576010546040805163cc77828d60e01b815290516060926001600160a01b03169163cc77828d916004808301926000929190829003018186803b15801561425957600080fd5b505afa15801561426d573d6000803e3d6000fd5b505050506040513d6000823e601f3d908101601f191682016040526142959190810190614fe6565b9050606081516001600160401b03811180156142b057600080fd5b506040519080825280602002602001820160405280156142da578160200160208202803683370190505b50905060005b825181101561440c5760008382815181106142f757fe5b602090810291909101015160105460405163f8b2cb4f60e01b81529192506000916001600160a01b039091169063f8b2cb4f906143389085906004016154dc565b60206040518083038186803b15801561435057600080fd5b505afa158015614364573d6000803e3d6000fd5b505050506040513d601f19601f82011682018060405250810190614388919061522a565b9050600061439b8260126008015461384c565b90506143a883308361468d565b808585815181106143b557fe5b60209081029190910101526023546000906143dd906001600160a01b03868116911684614040565b9050806143fc5760405162461bcd60e51b815260040161076c90615c0e565b5050600190920191506142e09050565b50602354604051631483d99d60e01b81526001600160a01b0390911690631483d99d906144449085908590819060009060040161561b565b600060405180830381600087803b15801561445e57600080fd5b505af1158015614472573d6000803e3d6000fd5b5050505050505b565b614484816148f3565b6016546000541115610c5c5760405162461bcd60e51b815260040161076c90615b7e565b6109e0823083613d1f565b600f5460405163db7ca46b60e01b81526001600160a01b039091169063db7ca46b906144e39084906004016154dc565b60206040518083038186803b1580156144fb57600080fd5b505afa15801561450f573d6000803e3d6000fd5b505050506040513d601f19601f82011682018060405250810190614533919061516e565b61454f5760405162461bcd60e51b815260040161076c90615b21565b602454600160a01b900460ff1615610c5c5761456a81614951565b610c5c5760405162461bcd60e51b815260040161076c9061590f565b6001600160a01b0381166145ac5760405162461bcd60e51b815260040161076c90615c37565b6145b581614951565b156145d25760405162461bcd60e51b815260040161076c90615c6a565b6000828152600e602090815260408083206001600160a01b038516845282528083208054600160ff199182168117909255600d909352922080549091169091179055600b5460ff1661462c57600b805460ff191660011790555b600c8054600101905561463d61496f565b336001600160a01b031682306001600160a01b03167f5ab6a0d7af8e86f78c34acea4f8aff1be027227ce1bc29e03f57f39b788f4b048460405161468191906154dc565b60405180910390a45050565b6010546001600160a01b03166146b55760405162461bcd60e51b815260040161076c906159c3565b60105460405163f8b2cb4f60e01b81526000916001600160a01b03169063f8b2cb4f906146e69087906004016154dc565b60206040518083038186803b1580156146fe57600080fd5b505afa158015614712573d6000803e3d6000fd5b505050506040513d601f19601f82011682018060405250810190614736919061522a565b601054604051634a46c67360e11b81529192506000916001600160a01b039091169063948d8ce69061476c9088906004016154dc565b60206040518083038186803b15801561478457600080fd5b505afa158015614798573d6000803e3d6000fd5b505050506040513d601f19601f820116820180604052508101906147bc919061522a565b6010549091506001600160a01b0316633fdddaa2866147db8587613dbe565b846040518463ffffffff1660e01b81526004016147fa939291906155c2565b600060405180830381600087803b15801561481457600080fd5b505af1158015614828573d6000803e3d6000fd5b505060405163a9059cbb60e01b8152600092506001600160a01b038816915063a9059cbb9061485d9088908890600401615577565b602060405180830381600087803b15801561487757600080fd5b505af115801561488b573d6000803e3d6000fd5b505050506040513d601f19601f820116820180604052508101906148af919061516e565b9050806144725760405162461bcd60e51b815260040161076c90615c0e565b6000808383116148e457505080820360006148ec565b505081810360015b9250929050565b3060009081526001602052604090205461490d90826141e7565b306000908152600160205260408120919091555461492b90826141e7565b6000908155604051309190600080516020615f7b83398151915290613d14908590615d89565b6001600160a01b03166000908152600d602052604090205460ff1690565b600c541561498c57600b805460ff19166001908117909155610c5c565b600b805460ff19169055565b8280548282559060005260206000209081019282156149ed579160200282015b828111156149ed57825182546001600160a01b0319166001600160a01b039091161782556020909201916001909101906149b8565b506149f9929150614a44565b5090565b828054828255906000526020600020908101928215614a38579160200282015b82811115614a38578251825591602001919060010190614a1d565b506149f9929150614a63565b5b808211156149f95780546001600160a01b0319168155600101614a45565b5b808211156149f95760008155600101614a64565b600082601f830112614a88578081fd5b8135614a9b614a9682615ec5565b615e9f565b818152915060208083019084810181840286018201871015614abc57600080fd5b60005b84811015614ae4578135614ad281615f37565b84529282019290820190600101614abf565b505050505092915050565b60008083601f840112614b00578182fd5b5081356001600160401b03811115614b16578182fd5b60208301915083602080830285010111156148ec57600080fd5b600082601f830112614b40578081fd5b8135614b4e614a9682615ec5565b818152915060208083019084810181840286018201871015614b6f57600080fd5b60005b84811015614ae457813584529282019290820190600101614b72565b600082601f830112614b9e578081fd5b8151614bac614a9682615ec5565b818152915060208083019084810181840286018201871015614bcd57600080fd5b60005b84811015614ae457815184529282019290820190600101614bd0565b803560028110610a3757600080fd5b600082601f830112614c0b578081fd5b8135614c19614a9682615ee4565b9150808252836020828501011115614c3057600080fd5b8060208401602084013760009082016020015292915050565b600060c08284031215614c5a578081fd5b614c6460c0615e9f565b90508135614c7181615f4c565b81526020820135614c8181615f4c565b60208201526040820135614c9481615f4c565b60408201526060820135614ca781615f4c565b60608201526080820135614cba81615f4c565b608082015260a0820135614ccd81615f4c565b60a082015292915050565b600060208284031215614ce9578081fd5b8135610d8281615f37565b600060208284031215614d05578081fd5b8151610d8281615f37565b60008060408385031215614d22578081fd5b8235614d2d81615f37565b91506020830135614d3d81615f37565b809150509250929050565b600080600060608486031215614d5c578081fd5b8335614d6781615f37565b92506020840135614d7781615f37565b929592945050506040919091013590565b60008060008060808587031215614d9d578182fd5b8435614da881615f37565b93506020850135614db881615f37565b93969395505050506040820135916060013590565b6000806000610100808587031215614de3578182fd5b8435614dee81615f37565b935060208501356001600160401b0380821115614e09578384fd5b818701915061016080838a031215614e1f578485fd5b614e2881615e9f565b9050823582811115614e38578586fd5b614e448a828601614bfb565b825250602083013582811115614e58578586fd5b614e648a828601614bfb565b602083015250604083013582811115614e7b578586fd5b614e878a828601614a78565b604083015250606083013582811115614e9e578586fd5b614eaa8a828601614b30565b606083015250608083013582811115614ec1578586fd5b614ecd8a828601614b30565b60808301525060a083013560a082015260c083013560c082015260e083013560e08201528383013584820152610120935083830135848201526101409350614f1789858501614bec565b8482015280955050505050614f2f8560408601614c49565b90509250925092565b60008060408385031215614f4a578182fd5b8235614f5581615f37565b946020939093013593505050565b60008060008060608587031215614f78578182fd5b8435614f8381615f37565b93506020850135925060408501356001600160401b0380821115614fa5578384fd5b818701915087601f830112614fb8578384fd5b813581811115614fc6578485fd5b886020828501011115614fd7578485fd5b95989497505060200194505050565b60006020808385031215614ff8578182fd5b82516001600160401b0381111561500d578283fd5b8301601f8101851361501d578283fd5b805161502b614a9682615ec5565b8181528381019083850185840285018601891015615047578687fd5b8694505b8385101561507257805161505e81615f37565b83526001949094019391850191850161504b565b50979650505050505050565b60008060408385031215615090578182fd5b82356001600160401b03808211156150a6578384fd5b6150b286838701614a78565b935060208501359150808211156150c7578283fd5b506150d485828601614b30565b9150509250929050565b6000602082840312156150ef578081fd5b81516001600160401b03811115615104578182fd5b61511084828501614b8e565b949350505050565b6000806040838503121561512a578182fd5b82356001600160401b0380821115615140578384fd5b61514c86838701614b30565b93506020850135915080821115615161578283fd5b506150d485828601614a78565b60006020828403121561517f578081fd5b8151610d8281615f4c565b60006020828403121561519b578081fd5b81516001600160401b038111156151b0578182fd5b8201601f810184136151c0578182fd5b80516151ce614a9682615ee4565b8181528560208385010111156151e2578384fd5b6141de826020830160208601615f07565b600060208284031215615204578081fd5b813560068110610d82578182fd5b600060208284031215615223578081fd5b5035919050565b60006020828403121561523b578081fd5b5051919050565b600080600060408486031215615256578081fd5b8335925060208401356001600160401b03811115615272578182fd5b61527e86828701614aef565b9497909650939450505050565b600080600080606085870312156152a0578182fd5b8435935060208501356001600160401b038111156152bc578283fd5b6152c887828801614aef565b90945092505060408501356152dc81615f37565b939692955090935050565b600080604083850312156152f9578182fd5b8251915060208301516001600160401b03811115615315578182fd5b6150d485828601614b8e565b60008060408385031215615333578182fd5b505080516020909101519092909150565b60008060008084860360a081121561535a578283fd5b8535945060208601359350604086013560038110615376578384fd5b92506040605f1982011215615389578182fd5b506153946040615e9f565b606086013581526080909501356020860152509194909350909190565b6000806000606084860312156153c5578081fd5b8351925060208401519150604084015190509250925092565b6000815180845260208085019450808401835b838110156154165781516001600160a01b0316875295820195908201906001016153f1565b509495945050505050565b6000815180845260208085019450808401835b8381101561541657815187529582019590820190600101615434565b15159052565b60008284528282602086013780602084860101526020601f19601f85011685010190509392505050565b60008151808452615498816020860160208601615f07565b601f01601f19169290920160200192915050565b600681106154b657fe5b9052565b642aa82822a960d91b815260050190565b64232627a7a960d91b815260050190565b6001600160a01b0391909116815260200190565b6001600160a01b039384168152919092166020820152604081019190915260600190565b6001600160a01b0392831681529116602082015260400190565b6001600160a01b0385811682528416602082015260806040820181905260009061555a908301856153de565b828103606084015261556c8185615421565b979650505050505050565b6001600160a01b03929092168252602082015260400190565b600060018060a01b0386168252846020830152606060408301526155b8606083018486615456565b9695505050505050565b6001600160a01b039390931683526020830191909152604082015260600190565b600060208252610d8260208301846153de565b60006040825261560960408301856153de565b82810360208401526141de8185615421565b60006080825261562e60808301876153de565b82810360208401526156408187615421565b905082810360408401526156548186615421565b915050821515606083015295945050505050565b600060208252610d826020830184615421565b901515815260200190565b921515835290151560208301526001600160a01b0316604082015260600190565b9515158652931515602086015291151560408501521515606084015215156080830152151560a082015260c00190565b9315158452911515602084015215156040830152606082015260800190565b9615158752941515602087015260408601939093526060850191909152608084015260a083015260c082015260e00190565b951515865260208601949094526040850192909252151560608401526001600160a01b0390811660808401521660a082015260c00190565b600060208252615110602083018486615456565b600060208252610d826020830184615480565b6001600160a01b0396871681529486166020860152928516604085015293166060830152608082019290925260a081019190915260c00190565b6001600160a01b0386811682528516602082015260408101849052608060608201819052810182905260006001600160fb1b038311156157ff578081fd5b60208302808560a08501379190910160a00190815295945050505050565b602081016002831061582b57fe5b91905290565b918252602082015260400190565b60208082526009908201526837b7363ca0b236b4b760b91b604082015260600190565b60208082526012908201527122a9292fa727aa2fa1a7a72a2927a62622a960711b604082015260600190565b6020808252600d908201526c4552525f4e4f5f52494748545360981b604082015260600190565b60208082526016908201527526a7a22aa6229024a9902727aa102922a3a4a9aa22a960511b604082015260600190565b60208082526010908201526f20b2323932b9b99034b99027bbb732b960811b604082015260600190565b6020808252601b908201527a11549497d393d517d5d212551157d513d2d15397d25397d413d3d3602a1b604082015260600190565b60208082526010908201526f4552525f5a45524f5f4144445245535360801b604082015260600190565b602080825260199082015278544f4b454e5f4d5553545f494e5f57484954455f4c4953545360381b604082015260600190565b60208082526008908201526727bbb730b13632a760c11b604082015260600190565b6020808252600f908201526e11549497d393d517d0d49150551151608a1b604082015260600190565b6020808252600e908201526d11549497d254d7d0d4915055115160921b604082015260600190565b60208082526006908201526506f776e6572560d41b604082015260600190565b60208082526010908201526f11549497d1125597d25395115493905360821b604082015260600190565b6020808252600b908201526a4552525f5245454e54525960a81b604082015260600190565b60208082526023908201527f54686520636f6c6c656374696f6e206379636c65206973206e6f7420726561636040820152621a195960ea1b606082015260800190565b6020808252601790820152764552525f45524332305f415050524f56455f46414c534560481b604082015260600190565b60208082526010908201526f4552525f4d554c5f4f564552464c4f5760801b604082015260600190565b6020808252601e908201527f4552525f4e4f545f57484954455f544f4b454e5f494e5f464143544f52590000604082015260600190565b6020808252600c908201526b4552525f4449565f5a45524f60a01b604082015260600190565b60208082526015908201527411549497d0d05417d31253525517d4915050d21151605a1b604082015260600190565b60208082526016908201527522a9292fa821aa27a5a2a72fa120a22fa1a0a62622a960511b604082015260600190565b60208082526017908201527608aa4a4bea69ea4a8bea89e968a9cbe9a92a69a82a8869604b1b604082015260600190565b6020808252600f908201526e4552525f45524332305f46414c534560881b604082015260600190565b6020808252601990820152784552525f494e56414c49445f544f4b454e5f4144445245535360381b604082015260600190565b6020808252601890820152774552525f4841535f4245454e5f41444445445f574849544560401b604082015260600190565b6020808252601190820152704552525f5355425f554e444552464c4f5760781b604082015260600190565b60208082526010908201526f4552525f4144445f4f564552464c4f5760801b604082015260600190565b60208082526011908201527022a9292fa6aaa9aa2fa7a822a72fa2aa2360791b604082015260600190565b600060e082019050835460ff80821615158452808260081c1615156020850152808260101c1615156040850152808260181c1615156060850152615d6860808501828460201c16615450565b615d7a60a08501828460281c16615450565b5050610d8260c08301846154ac565b90815260200190565b9182526001600160a01b0316602082015260400190565b9283526020830191909152604082015260600190565b93845260208401929092526040830152606082015260800190565b958652602086019490945260408501929092526060840152608083015260a082015260c00190565b988952602089019790975260408801959095526060870193909352608086019190915260a085015260c084015260e083015215156101008201526101200190565b9a8b5260208b019990995260408a01979097526060890195909552608088019390935260a087019190915260c086015260e08501526101008401526101208301526101408201526101600190565b60ff91909116815260200190565b6040518181016001600160401b0381118282101715615ebd57600080fd5b604052919050565b60006001600160401b03821115615eda578081fd5b5060209081020190565b60006001600160401b03821115615ef9578081fd5b50601f01601f191660200190565b60005b83811015615f22578181015183820152602001615f0a565b83811115615f31576000848401525b50505050565b6001600160a01b0381168114610c5c57600080fd5b8015158114610c5c57600080fdfe345c44e0d6869c4baccff8ecb8279bca00e6436947fce2da5beffcc9e5cabefbddf252ad1be2c89b69c2b068fc378daa952ba7f163c4a11628f55a4df523b3ef8c5be1e5ebec7d5bd14f71427d1e84f3dd0314c0f7b2291e5b200ac8c7c3b925a2646970667358221220dd388a0162eb56582b4ec9529dd63695a3e4322d327c5b2b2c46a767d415a36e64736f6c634300060c0033",
  "deployedBytecode": "0x608060405234801561001057600080fd5b50600436106102a35760003560e01c80637228c87b1161016e5780637228c87b146104a757806372ba9acd146104c657806373a9855c146104e757806374983a0d146104fc5780637dc2cd9814610504578063806c6f871461050c5780638259e6a01461051f57806391a806c91461053257806392eefe9b1461054557806395d89b4114610558578063980e8db614610560578063992f6ba51461057a5780639d829c2b1461058d578063a0e67e2b14610595578063a3f4df7e146105aa578063a6c245c4146105b2578063a89ae4ba146105c5578063a9059cbb146105cd578063b02f0b73146105e0578063b61d27f6146105f3578063b64ef17b14610606578063c5318d0f1461060e578063c83a1c2d14610621578063d29986c114610634578063d2fed42e1461063c578063d73dd62314610644578063dd62ed3e14610657578063e2762d4b1461066a578063f3b085721461067d576102a3565b8063025e7c27146102a857806306fdde03146102d15780630892b93d146102e6578063095dcccc146102fb578063095ea7b31461030e5780630a1659401461032e578063173825d91461033657806318160ddd14610349578063220eb7601461035e57806323b872dd1461037157806327304dfd146103845780632e0f2625146103975780633018205f146103ac578063309a042c146103b4578063313ce567146103c957806337c6f4d9146103d15780633befcde8146103e45780633ef14479146103f7578063430bf08a1461040a57806347786d37146104125780634ba57882146104255780635468d6d71461043857806355b190551461044057806355c32a231461045357806356fb3bd614610466578063661884631461046e5780636e49db1c1461048157806370a0823114610494575b600080fd5b6102bb6102b6366004615212565b610685565b6040516102c891906154dc565b60405180910390f35b6102d96106ac565b6040516102c89190615774565b6102f96102f4366004615344565b610742565b005b6102f9610309366004614f38565b6109b7565b61032161031c366004614f38565b6109e4565b6040516102c8919061567b565b6102bb610a3d565b6102f9610344366004614cd8565b610a4c565b610351610c2e565b6040516102c89190615d89565b6102f961036c366004615212565b610c34565b61032161037f366004614d48565b610c5f565b610321610392366004614cd8565b610d89565b61039f610d9e565b6040516102c89190615e91565b6102bb610da3565b6103bc610db2565b6040516102c89190615668565b61039f610e09565b6103216103df3660046151f3565b610e0e565b6102f96103f236600461528b565b610ea3565b6102f961040536600461507e565b611641565b6102bb611734565b6102f9610420366004615212565b611743565b6102f9610433366004615212565b611871565b610321611899565b6102f961044e366004614dcd565b6118a9565b6102f9610461366004614f38565b611c9c565b610321611cc5565b61032161047c366004614f38565b611cd5565b6102f961048f366004614d88565b611daf565b6103516104a2366004614cd8565b61215a565b6104af612175565b6040516102c89b9a99989796959493929190615e43565b6104d96104d4366004614cd8565b612199565b6040516102c8929190615831565b6104ef6121b2565b6040516102c8919061581d565b6102bb6121bb565b6103516121d3565b61032161051a366004614cd8565b6121d9565b6102f961052d366004615212565b612222565b6104d9610540366004614cd8565b6122bf565b6102f9610553366004614cd8565b6122d8565b6102d9612384565b6105686123e5565b6040516102c8969594939291906156a7565b6102f9610588366004614f38565b61241e565b6102bb612547565b61059d61255f565b6040516102c891906155e3565b6102d96125c0565b6102f96105c0366004615118565b6125ec565b6102bb61279f565b6103216105db366004614f38565b6127ae565b6102f96105ee366004615242565b6127ea565b6102d9610601366004614f63565b612f73565b6102bb613137565b61035161061c366004615212565b613146565b6102f961062f366004614cd8565b613164565b610351613280565b6102f9613286565b610321610652366004614f38565b613660565b610351610665366004614d10565b6136d4565b6102f9610678366004614cd8565b6136ff565b6102bb613834565b6007818154811061069257fe5b6000918252602090912001546001600160a01b0316905081565b60048054604080516020601f60026000196101006001881615020190951694909404938401819004810282018101909252828152606093909290918301828280156107385780601f1061070d57610100808354040283529160200191610738565b820191906000526020600020905b81548152906001019060200180831161071b57829003601f168201915b5050505050905090565b6005546001600160a01b031633146107755760405162461bcd60e51b815260040161076c90615862565b60405180910390fd5b336001600160a01b03166000356001600160e01b0319166001600160e01b0319166000366040516107a7929190615760565b60405180910390a26002600a5414156107d25760405162461bcd60e51b815260040161076c90615a5e565b6002600a55600160275460ff1660018111156107ea57fe5b14156109a357601654604051633e9fc0bd60e01b815273__$c61de259b17579437cb458fbe4ba8c0f49$__91633e9fc0bd9161082c9187918990600401615da9565b60006040518083038186803b15801561084457600080fd5b505af4158015610858573d6000803e3d6000fd5b50505050610895601f60008154811061086d57fe5b906000526020600020015461088f83602001518761384c90919063ffffffff16565b906138c9565b601655601f80546108c391906000906108aa57fe5b600091825260209091200154825161088f90879061384c565b6017556040516108d2906154ba565b60405190819003812060165490913391600080516020615f5b833981519152916108fe91600091615831565b60405180910390a3604051610912906154cb565b60405190819003812060175490913391600080516020615f5b8339815191529161093e91600091615831565b60405180910390a360004284018184600281111561095857fe5b141561096757601e915061098f565b600184600281111561097557fe5b1415610987576301e13380915061098f565b6303c2670091505b601285905560138190556014829055016015555b6109ac8461395a565b50506001600a555050565b3330146109d65760405162461bcd60e51b815260040161076c90615862565b6109e08282613cac565b5050565b3360008181526002602090815260408083206001600160a01b03871680855292528083208590555191929091600080516020615f9b83398151915290610a2b908690615d89565b60405180910390a35060015b92915050565b600f546001600160a01b031681565b6005546001600160a01b03163314610a765760405162461bcd60e51b815260040161076c90615862565b6001600160a01b0381166000908152600660205260408120805460ff19169055805b600754811015610b9a57826001600160a01b031660078281548110610ab957fe5b6000918252602090912001546001600160a01b03161415610b9257600780546000198101908110610ae657fe5b600091825260209091200154600780546001600160a01b039092169183908110610b0c57fe5b9060005260206000200160006101000a8154816001600160a01b0302191690836001600160a01b0316021790555060088181548110610b4757fe5b90600052602060002001549150600860016008805490500381548110610b6957fe5b906000526020600020015460088281548110610b8157fe5b600091825260209091200155610b9a565b600101610a98565b506007805480610ba657fe5b600082815260209020810160001990810180546001600160a01b03191690550190556008805480610bd357fe5b600082815260208120820160001990810182905590910190915560098054839003905560405182916001600160a01b038516917f7b0884b4b6bb4e0c1385ad42168fa556c14d4d799c1bf22f081aff3efff6ea0c9190a35050565b60005490565b333014610c535760405162461bcd60e51b815260040161076c90615862565b610c5c81613cb7565b50565b60006001600160a01b038316610c875760405162461bcd60e51b815260040161076c90615944565b336001600160a01b0385161480610cc157506001600160a01b03841660009081526002602090815260408083203384529091529020548211155b610cdd5760405162461bcd60e51b815260040161076c90615bad565b610ce8848484613d1f565b6001600160a01b0384166000818152600260209081526040808320338085529252909120549114801590610d1e57506000198114155b15610d7c57610d2d8184613dbe565b6001600160a01b03861660008181526002602090815260408083203380855292529182902084905590519092600080516020615f9b83398151915291610d739190615d89565b60405180910390a35b60019150505b9392505050565b60066020526000908152604090205460ff1681565b601281565b6005546001600160a01b031690565b6060600880548060200260200160405190810160405280929190818152602001828054801561073857602002820191906000526020600020905b815481526020019060010190808311610dec575050505050905090565b601290565b6040516322c1aa2560e11b815260009073__$3a9c388c21df3b52adbbb2b73829b93ce6$__90634583544a90610e4b906011908690600401615d1c565b60206040518083038186803b158015610e6357600080fd5b505af4158015610e77573d6000803e3d6000fd5b505050506040513d601f19601f82011682018060405250810190610e9b919061516e565b90505b919050565b336001600160a01b03166000356001600160e01b0319166001600160e01b031916600036604051610ed5929190615760565b60405180910390a26002600a541415610f005760405162461bcd60e51b815260040161076c90615a5e565b6002600a556010546001600160a01b0316610f2d5760405162461bcd60e51b815260040161076c906159c3565b6011543360009081526021602052604090205473__$c61de259b17579437cb458fbe4ba8c0f49$__9163dba4989a9160ff600160201b90920482169116600160275460ff166001811115610f7d57fe5b146012600101546040518563ffffffff1660e01b8152600401610fa394939291906156d7565b60006040518083038186803b158015610fbb57600080fd5b505af4158015610fcf573d6000803e3d6000fd5b505060105460405163a1925f1d60e01b81526060935073__$c61de259b17579437cb458fbe4ba8c0f49$__925063a1925f1d916110209130916001600160a01b0316908a908a908a906004016157c1565b60006040518083038186803b15801561103857600080fd5b505af415801561104c573d6000803e3d6000fd5b505050506040513d6000823e601f3d908101601f1916820160405261107491908101906150de565b90506060601060009054906101000a90046001600160a01b03166001600160a01b031663cc77828d6040518163ffffffff1660e01b815260040160006040518083038186803b1580156110c657600080fd5b505afa1580156110da573d6000803e3d6000fd5b505050506040513d6000823e601f3d908101601f191682016040526111029190810190614fe6565b9050606081516001600160401b038111801561111d57600080fd5b50604051908082528060200260200182016040528015611147578160200160208202803683370190505b50601a54909150600090600160275460ff16600181111561116457fe5b14156112f25760245460405163108ad9bd60e21b81526001600160a01b039091169063422b66f49061119c90879089906004016155f6565b602060405180830381600087803b1580156111b657600080fd5b505af11580156111ca573d6000803e3d6000fd5b505050506040513d601f19601f820116820180604052508101906111ee919061522a565b9150600f60009054906101000a90046001600160a01b03166001600160a01b031663703a9ec96040518163ffffffff1660e01b815260040160206040518083038186803b15801561123e57600080fd5b505afa158015611252573d6000803e3d6000fd5b505050506040513d601f19601f820116820180604052508101906112769190614cf4565b6001600160a01b031663d7256c70873387896040518563ffffffff1660e01b81526004016112a7949392919061552e565b600060405180830381600087803b1580156112c157600080fd5b505af11580156112d5573d6000803e3d6000fd5b5050602454600160b01b900460ff16151591506112f29050575060005b60005b845181101561149557600085828151811061130c57fe5b60200260200101519050600087838151811061132457fe5b60200260200101519050816001600160a01b0316336001600160a01b03167fea39e3b35c5cd8937999ed5f7fbab30acd562a931fc4a887fed2a47c3074aa72836040516113719190615d89565b60405180910390a36000611385828661384c565b905061139b83336113968585613dbe565b613df7565b841561148a576040516323b872dd60e01b81526000906001600160a01b038516906323b872dd906113d4903390309087906004016154f0565b602060405180830381600087803b1580156113ee57600080fd5b505af1158015611402573d6000803e3d6000fd5b505050506040513d601f19601f82011682018060405250810190611426919061516e565b602354909150600090611446906001600160a01b03878116911685614040565b90508180156114525750805b61146e5760405162461bcd60e51b815260040161076c90615c0e565b8289878151811061147b57fe5b60200260200101818152505050505b5050506001016112f5565b50801561150657602354604051631483d99d60e01b81526001600160a01b0390911690631483d99d906114d39087908790819060009060040161561b565b600060405180830381600087803b1580156114ed57600080fd5b505af1158015611501573d6000803e3d6000fd5b505050505b61150f89611890565b611519338a6109d6565b811561156057336000908152602560205260409020805461153a908b6141e7565b81553360009081526025602052604090206001015461155990846141e7565b6001909101555b6000600160275460ff16600181111561157557fe5b1480156115f75750601260050154306001600160a01b03166318160ddd6040518163ffffffff1660e01b815260040160206040518083038186803b1580156115bc57600080fd5b505afa1580156115d0573d6000803e3d6000fd5b505050506040513d601f19601f820116820180604052508101906115f4919061522a565b10155b801561160d5750602454600160b01b900460ff16155b90508015611630576024805460ff60b01b1916600160b01b17905561163061420c565b50506001600a555050505050505050565b6005546001600160a01b0316331461166b5760405162461bcd60e51b815260040161076c90615862565b805182511461168c5760405162461bcd60e51b815260040161076c90615a14565b60005b8251811015611707578181815181106116a457fe5b60200260200101516009600082825401925050819055506001600660008584815181106116cd57fe5b6020908102919091018101516001600160a01b03168252810191909152604001600020805460ff191691151591909117905560010161168f565b50815161171b906007906020850190614998565b50805161172f9060089060208401906149fd565b505050565b6023546001600160a01b031681565b336001600160a01b03166000356001600160e01b0319166001600160e01b031916600036604051611775929190615760565b60405180910390a26002600a5414156117a05760405162461bcd60e51b815260040161076c90615a5e565b6002600a556010546001600160a01b03166117cd5760405162461bcd60e51b815260040161076c906159c3565b6005546001600160a01b031633146117f75760405162461bcd60e51b815260040161076c90615862565b600060275460ff16600181111561180a57fe5b146118275760405162461bcd60e51b815260040161076c90615cf1565b604051611833906154ba565b60405190819003812060165490913391600080516020615f5b8339815191529161185f91908690615831565b60405180910390a36016556001600a55565b3330146118905760405162461bcd60e51b815260040161076c90615862565b610c5c8161447b565b602454600160b01b900460ff1681565b73__$c61de259b17579437cb458fbe4ba8c0f49$__6380681cab8360a001518460c001518561010001518660e001518761012001518860600151518960800151518a6040015151602460159054906101000a900460ff166040518a63ffffffff1660e01b815260040161192499989796959493929190615e02565b60006040518083038186803b15801561193c57600080fd5b505af4158015611950573d6000803e3d6000fd5b50506024805460ff60a81b1916600160a81b17905550508051601180546020808501516040808701516060880151608089015160a08a01511515600160281b0260ff60281b19911515600160201b0260ff60201b1993151563010000000263ff00000019951515620100000262ff0000199815156101000261ff00199d151560ff19909c169b909b179c909c169990991796909616999099179290921695909517949094169190911792909216939093179091558301518051611a1792601e920190614998565b5060608201518051611a3191601f916020909101906149fd565b5060808201518051611a4991602091908201906149fd565b506040805161016081018252600080825260208201819052918101829052606081018290526000196080820181905260a0820183905260c08581015190830181905260e0808701519084018190526101008088015190850181905261012080890151908601819052426101409687018190526012889055601388905560148890556015889055601695909555601796909655601892909255601955601a55601b92909255601c919091558201516027805460ff191660018381811115611b0b57fe5b0217905550600f80546001600160a01b0319166001600160a01b0385811691909117918290556040805163b18b78dd60e01b81529051929091169163b18b78dd91600480820192602092909190829003018186803b158015611b6c57600080fd5b505afa158015611b80573d6000803e3d6000fd5b505050506040513d601f19601f82011682018060405250810190611ba49190614cf4565b602480546001600160a01b0319166001600160a01b03928316179055600f54604080516311b2515f60e31b815290519190921691638d928af8916004808301926020929190829003018186803b158015611bfd57600080fd5b505afa158015611c11573d6000803e3d6000fd5b505050506040513d601f19601f82011682018060405250810190611c359190614cf4565b602380546001600160a01b0319166001600160a01b0392909216919091179055601954601a54601854601b546040517f3d6667963e842e2b5ff1d4feab2c9b92f17c9003592e2ad229952eeb9a293fd091611c8f91615d89565b60405180910390a4505050565b333014611cbb5760405162461bcd60e51b815260040161076c90615862565b6109e082826144a8565b602454600160a81b900460ff1681565b3360009081526002602090815260408083206001600160a01b0386168452909152812054808310611d29573360009081526002602090815260408083206001600160a01b0388168452909152812055611d58565b611d338184613dbe565b3360009081526002602090815260408083206001600160a01b03891684529091529020555b3360008181526002602090815260408083206001600160a01b038916808552925291829020549151909291600080516020615f9b83398151915291611d9d9190615d89565b60405180910390a35060019392505050565b336001600160a01b03166000356001600160e01b0319166001600160e01b031916600036604051611de1929190615760565b60405180910390a26002600a541415611e0c5760405162461bcd60e51b815260040161076c90615a5e565b6002600a553360009081526006602052604090205460ff1680611e3957506005546001600160a01b031633145b611e555760405162461bcd60e51b815260040161076c9061583f565b6010546001600160a01b0316611e7d5760405162461bcd60e51b815260040161076c906159c3565b73__$c61de259b17579437cb458fbe4ba8c0f49$__63eab73485600160275460ff166001811115611eaa57fe5b60135460155460115460405160e087901b6001600160e01b0319168152611ee79594909414936201000090910460ff16908b908b90600401615728565b60006040518083038186803b158015611eff57600080fd5b505af4158015611f13573d6000803e3d6000fd5b50505050611f20836144b3565b60235460405163607e58b360e11b81526000916001600160a01b03169063c0fcb16690611f519030906004016154dc565b60206040518083038186803b158015611f6957600080fd5b505afa158015611f7d573d6000803e3d6000fd5b505050506040513d601f19601f82011682018060405250810190611fa1919061516e565b9050801561200c5760235460405163edb12adf60e01b81526001600160a01b039091169063edb12adf90611fd99030906004016154dc565b600060405180830381600087803b158015611ff357600080fd5b505af1158015612007573d6000803e3d6000fd5b505050505b601054604051630bcded8960e21b81526001600160a01b0390911690632f37b6249061203c9087906004016154dc565b60206040518083038186803b15801561205457600080fd5b505afa158015612068573d6000803e3d6000fd5b505050506040513d601f19601f8201168201806040525081019061208c919061516e565b6120d0576010546000906120af906001600160a01b038781169116600019614040565b9050806120ce5760405162461bcd60e51b815260040161076c90615c0e565b505b6010546040516350884c9160e01b815273__$c61de259b17579437cb458fbe4ba8c0f49$__916350884c919161211e9130916001600160a01b03909116908a908a908a908a90600401615787565b60006040518083038186803b15801561213657600080fd5b505af415801561214a573d6000803e3d6000fd5b50506001600a5550505050505050565b6001600160a01b031660009081526001602052604090205490565b601254601354601454601554601654601754601854601954601a54601b54601c548b565b6026602052600090815260409020805460019091015482565b60275460ff1681565b73__$3a9c388c21df3b52adbbb2b73829b93ce6$__90565b60225481565b601154600090600160201b900460ff161561221057506001600160a01b03811660009081526021602052604090205460ff16610e9e565b506001600160a01b0381161515610e9e565b6005546001600160a01b0316331461224c5760405162461bcd60e51b815260040161076c90615862565b336001600160a01b03166000356001600160e01b0319166001600160e01b03191660003660405161227e929190615760565b60405180910390a26002600a5414156122a95760405162461bcd60e51b815260040161076c90615a5e565b6002600a556122b78161395a565b506001600a55565b6025602052600090815260409020805460019091015482565b6005546001600160a01b031633146123025760405162461bcd60e51b815260040161076c90615862565b6001600160a01b0381166123285760405162461bcd60e51b815260040161076c90615944565b6005546040516001600160a01b038084169216907f8be0079c531659141344cd1fd0a4f28419497f9722a3daafe3b4186f6b6457e090600090a3600580546001600160a01b0319166001600160a01b0392909216919091179055565b60038054604080516020601f60026000196101006001881615020190951694909404938401819004810282018101909252828152606093909290918301828280156107385780601f1061070d57610100808354040283529160200191610738565b60115460ff80821691610100810482169162010000820481169163010000008104821691600160201b8204811691600160281b90041686565b6005546001600160a01b031633146124485760405162461bcd60e51b815260040161076c90615862565b6001600160a01b03821660009081526006602052604090205460ff16156124815760405162461bcd60e51b815260040161076c906158e5565b6001600160a01b038216600081815260066020526040808220805460ff19166001908117909155600780548083019091557fa66cc928b5edb82af9bd49922954155ab7b0942694bea4ce44661d9a8736c6880180546001600160a01b0319168517905560088054918201815583527ff3f7a9fe364faab93b216da50a3214154f22a0a2b415b23a84c8169e8b636ee3018490556009805485019055518392917fbd5dcf0b25226117c4a68a0129ffdd4b0541ef5e482ad7de9a96ccb6d6a8ebde91a35050565b73__$c61de259b17579437cb458fbe4ba8c0f49$__90565b6060600780548060200260200160405190810160405280929190818152602001828054801561073857602002820191906000526020600020905b81546001600160a01b03168152600190910190602001808311612599575050505050905090565b6040518060400160405280601081526020016f11195cde5b8814db585c9d08141bdbdb60821b81525081565b6005546001600160a01b031633146126165760405162461bcd60e51b815260040161076c90615862565b601154600160281b900460ff1680156126395750602454600160a01b900460ff16155b6126555760405162461bcd60e51b815260040161076c9061588e565b80518251146126765760405162461bcd60e51b815260040161076c90615bdd565b60005b815181101561278757600f5483516000916001600160a01b031690638f49f44d908690859081106126a657fe5b60200260200101518585815181106126ba57fe5b60200260200101516040518363ffffffff1660e01b81526004016126df929190615d92565b60206040518083038186803b1580156126f757600080fd5b505afa15801561270b573d6000803e3d6000fd5b505050506040513d601f19601f8201168201806040525081019061272f919061516e565b90508061274e5760405162461bcd60e51b815260040161076c9061596e565b61277e84838151811061275d57fe5b602002602001015184848151811061277157fe5b6020026020010151614586565b50600101612679565b50506024805460ff60a01b1916600160a01b17905550565b6024546001600160a01b031681565b60006001600160a01b0383166127d65760405162461bcd60e51b815260040161076c90615944565b6127e1338484613d1f565b50600192915050565b336001600160a01b03166000356001600160e01b0319166001600160e01b03191660003660405161281c929190615760565b60405180910390a26002600a5414156128475760405162461bcd60e51b815260040161076c90615a5e565b6002600a556010546001600160a01b03166128745760405162461bcd60e51b815260040161076c906159c3565b73__$c61de259b17579437cb458fbe4ba8c0f49$__633468facb600160275460ff1660018111156128a157fe5b60245460155460135433600090815260256020526040908190208054600190910154915160e089901b6001600160e01b03191681526128f8979690961495600160b01b90950460ff16949091908c906004016156f6565b604080518083038186803b15801561290f57600080fd5b505af4158015612923573d6000803e3d6000fd5b505050506040513d601f19601f820116820180604052508101906129479190615321565b33600090815260256020526040808220600181019390935592909155601054915163151c70f960e21b8152909160609173__$c61de259b17579437cb458fbe4ba8c0f49$__91635471c3e4916129b39130916001600160a01b03909116908a908a908a906004016157c1565b60006040518083038186803b1580156129cb57600080fd5b505af41580156129df573d6000803e3d6000fd5b505050506040513d6000823e601f3d908101601f19168201604052612a0791908101906152e7565b91509150612a153386611cbb565b612a1e82610c53565b6010546040805163cc77828d60e01b815290516060926001600160a01b03169163cc77828d916004808301926000929190829003018186803b158015612a6357600080fd5b505afa158015612a77573d6000803e3d6000fd5b505050506040513d6000823e601f3d908101601f19168201604052612a9f9190810190614fe6565b9050606081516001600160401b0381118015612aba57600080fd5b50604051908082528060200260200182016040528015612ae4578160200160208202803683370190505b509050600080600160275460ff166001811115612afd57fe5b148015612b0c57506015544210155b15612b985760245460405163108ad9bd60e21b81526001600160a01b039091169063422b66f490612b4390879089906004016155f6565b602060405180830381600087803b158015612b5d57600080fd5b505af1158015612b71573d6000803e3d6000fd5b505050506040513d601f19601f82011682018060405250810190612b95919061522a565b91505b601954600160275460ff166001811115612bae57fe5b1415612be257602454600090600160b01b900460ff16158015612bd357506013544210155b90508015612be057600091505b505b8215612cbd57336000908152602660209081526040808320805460019182015460259094529382902080549101549151633796ed7f60e21b81528e9473__$c61de259b17579437cb458fbe4ba8c0f49$__9463de5bb5fc94612c4f94929391929188908c90600401615dda565b60606040518083038186803b158015612c6757600080fd5b505af4158015612c7b573d6000803e3d6000fd5b505050506040513d601f19601f82011682018060405250810190612c9f91906153b1565b33600090815260266020526040902060018101929092559190559250505b606085516001600160401b0381118015612cd657600080fd5b50604051908082528060200260200182016040528015612d00578160200160208202803683370190505b50905060005b8651811015612ed7576000878281518110612d1d57fe5b60200260200101519050600080600073__$c61de259b17579437cb458fbe4ba8c0f49$__63c0dcb71f8d8781518110612d5257fe5b6020026020010151898b6012600901546040518563ffffffff1660e01b8152600401612d819493929190615dbf565b60606040518083038186803b158015612d9957600080fd5b505af4158015612dad573d6000803e3d6000fd5b505050506040513d601f19601f82011682018060405250810190612dd191906153b1565b92509250925080868681518110612de457fe5b602002602001018181525050836001600160a01b0316336001600160a01b03167fc62fc35ac75e3bff532648e2859a3e1694002cfa357614ae8e034df7f83db5e984604051612e339190615d89565b60405180910390a3612e4684338461468d565b86151580612e605750600088118015612e605750601b5415155b15612ec757612e7084308561468d565b602354600090612e8d906001600160a01b03878116911686614040565b905080612eac5760405162461bcd60e51b815260040161076c90615ac6565b838b8781518110612eb957fe5b602002602001018181525050505b505060019092019150612d069050565b5081151580612ef25750600083118015612ef25750601b5415155b15612f6157602354604051631483d99d60e01b81526001600160a01b0390911690631483d99d90612f2e9089908990869060019060040161561b565b600060405180830381600087803b158015612f4857600080fd5b505af1158015612f5c573d6000803e3d6000fd5b505050505b50506001600a55505050505050505050565b6060336001600160a01b03166000356001600160e01b0319166001600160e01b031916600036604051612fa7929190615760565b60405180910390a26002600a541415612fd25760405162461bcd60e51b815260040161076c90615a5e565b6002600a556010546001600160a01b0316612fff5760405162461bcd60e51b815260040161076c906159c3565b600f546040516338f0d24560e01b81526001600160a01b03909116906338f0d245906130319030903390600401615514565b60206040518083038186803b15801561304957600080fd5b505afa15801561305d573d6000803e3d6000fd5b505050506040513d601f19601f82011682018060405250810190613081919061516e565b61309d5760405162461bcd60e51b815260040161076c906158b5565b601054604051635b0e93fb60e11b81526001600160a01b039091169063b61d27f6906130d3908890889088908890600401615590565b600060405180830381600087803b1580156130ed57600080fd5b505af1158015613101573d6000803e3d6000fd5b505050506040513d6000823e601f3d908101601f19168201604052613129919081019061518a565b6001600a5595945050505050565b6010546001600160a01b031681565b6008818154811061315357fe5b600091825260209091200154905081565b6005546001600160a01b0316331461318e5760405162461bcd60e51b815260040161076c90615862565b6002600a5414156131b15760405162461bcd60e51b815260040161076c90615a5e565b6002600a556040513390600080356001600160e01b031916916131d691903690615760565b60405180910390a2601154604051630d3aa47160e41b815273__$c61de259b17579437cb458fbe4ba8c0f49$__9163d3aa47109161322691600160201b900460ff16906001908690600401615686565b60006040518083038186803b15801561323e57600080fd5b505af4158015613252573d6000803e3d6000fd5b505050506001600160a01b03166000908152602160205260409020805460ff19166001908117909155600a55565b60095481565b336001600160a01b03166000356001600160e01b0319166001600160e01b0319166000366040516132b8929190615760565b60405180910390a26002600a5414156132e35760405162461bcd60e51b815260040161076c90615a5e565b6002600a55600f546040805163911fb03560e01b8152905133926001600160a01b03169163911fb035916004808301926020929190829003018186803b15801561332c57600080fd5b505afa158015613340573d6000803e3d6000fd5b505050506040513d601f19601f820116820180604052508101906133649190614cf4565b6001600160a01b03161461338a5760405162461bcd60e51b815260040161076c906159a1565b6010546001600160a01b03166133b25760405162461bcd60e51b815260040161076c906159c3565b60006133c3426012600a0154613dbe565b90506022548110156133e75760405162461bcd60e51b815260040161076c90615a83565b600060225482816133f457fe5b0490506060601060009054906101000a90046001600160a01b03166001600160a01b031663cc77828d6040518163ffffffff1660e01b815260040160006040518083038186803b15801561344757600080fd5b505afa15801561345b573d6000803e3d6000fd5b505050506040513d6000823e601f3d908101601f191682016040526134839190810190614fe6565b9050606081516001600160401b038111801561349e57600080fd5b506040519080825280602002602001820160405280156134c8578160200160208202803683370190505b50905060005b82518110156135e05760008382815181106134e557fe5b602090810291909101015160105460405163f8b2cb4f60e01b81529192506000916001600160a01b039091169063f8b2cb4f906135269085906004016154dc565b60206040518083038186803b15801561353e57600080fd5b505afa158015613552573d6000803e3d6000fd5b505050506040513d601f19601f82011682018060405250810190613576919061522a565b9050600061359582600c89601260060154028161358f57fe5b0461384c565b90506135a283308361468d565b6023546135bc906001600160a01b03858116911683614040565b50808585815181106135ca57fe5b60209081029190910101525050506001016134ce565b50602354604051630bac7b8160e01b81526001600160a01b0390911690630bac7b819061361390859085906004016155f6565b600060405180830381600087803b15801561362d57600080fd5b505af1158015613641573d6000803e3d6000fd5b5050602254601c80549690910290950190945550506001600a55505050565b3360009081526002602090815260408083206001600160a01b038616845290915281205461368e90836141e7565b3360008181526002602090815260408083206001600160a01b03891680855292529182902084905590519092600080516020615f9b83398151915291610a2b9190615d89565b6001600160a01b03918216600090815260026020908152604080832093909416825291909152205490565b6005546001600160a01b031633146137295760405162461bcd60e51b815260040161076c90615862565b6002600a54141561374c5760405162461bcd60e51b815260040161076c90615a5e565b6002600a556040513390600080356001600160e01b0319169161377191903690615760565b60405180910390a26011546001600160a01b03821660009081526021602052604090819020549051630d3aa47160e41b815273__$c61de259b17579437cb458fbe4ba8c0f49$__9263d3aa4710926137de92600160201b90920460ff908116929116908690600401615686565b60006040518083038186803b1580156137f657600080fd5b505af415801561380a573d6000803e3d6000fd5b505050506001600160a01b03166000908152602160205260409020805460ff191690556001600a55565b73__$24afbdeda01e131946d055322cce080c01$__90565b60008261385b57506000610a37565b8282028284828161386857fe5b04146138865760405162461bcd60e51b815260040161076c90615af7565b6706f05b59d3b200008101818110156138b15760405162461bcd60e51b815260040161076c90615af7565b6000670de0b6b3a7640000825b049695505050505050565b6000816138e85760405162461bcd60e51b815260040161076c90615b58565b826138f557506000610a37565b670de0b6b3a76400008381029084828161390b57fe5b04146139295760405162461bcd60e51b815260040161076c90615a34565b6002830481018181101561394f5760405162461bcd60e51b815260040161076c90615a34565b60008482816138be57fe5b6010546001600160a01b0316156139835760405162461bcd60e51b815260040161076c906159ec565b61398c81611890565b61399633826109d6565b600f60009054906101000a90046001600160a01b03166001600160a01b03166391cefde46040518163ffffffff1660e01b8152600401602060405180830381600087803b1580156139e657600080fd5b505af11580156139fa573d6000803e3d6000fd5b505050506040513d601f19601f82011682018060405250810190613a1e9190614cf4565b601080546001600160a01b0319166001600160a01b03928316179081905560405163d03f2a0f60e01b815273__$c61de259b17579437cb458fbe4ba8c0f49$__9263d03f2a0f92613a76929116908590600401615577565b60006040518083038186803b158015613a8e57600080fd5b505af4158015613aa2573d6000803e3d6000fd5b5050505060005b601e54811015613c70576000601e8281548110613ac257fe5b6000918252602082200154601f80546001600160a01b0390921693509084908110613ae957fe5b90600052602060002001549050600060208481548110613b0557fe5b90600052602060002001549050613b1b836144b3565b6040516323b872dd60e01b81526000906001600160a01b038516906323b872dd90613b4e903390309088906004016154f0565b602060405180830381600087803b158015613b6857600080fd5b505af1158015613b7c573d6000803e3d6000fd5b505050506040513d601f19601f82011682018060405250810190613ba0919061516e565b905080613bbf5760405162461bcd60e51b815260040161076c90615c0e565b601054613bdb906001600160a01b038681169116600019614040565b905080613bfa5760405162461bcd60e51b815260040161076c90615c0e565b601054604051631c9c3ca760e31b81526001600160a01b039091169063e4e1e53890613c2e908790879087906004016155c2565b600060405180830381600087803b158015613c4857600080fd5b505af1158015613c5c573d6000803e3d6000fd5b505060019096019550613aa9945050505050565b505b601e5415610c5c57601e805480613c8557fe5b600082815260209020810160001990810180546001600160a01b0319169055019055613c72565b6109e0308383613d1f565b30600090815260016020526040902054613cd19082613dbe565b3060009081526001602052604081209190915554613cef9082613dbe565b60009081556040513090600080516020615f7b83398151915290613d14908590615d89565b60405180910390a350565b6001600160a01b038316600090815260016020526040902054613d429082613dbe565b6001600160a01b038085166000908152600160205260408082209390935590841681522054613d7190826141e7565b6001600160a01b038084166000818152600160205260409081902093909355915190851690600080516020615f7b83398151915290613db1908590615d89565b60405180910390a3505050565b6000806000613dcd85856148ce565b915091508015613def5760405162461bcd60e51b815260040161076c90615c9c565b509392505050565b6010546001600160a01b0316613e1f5760405162461bcd60e51b815260040161076c906159c3565b60105460405163f8b2cb4f60e01b81526000916001600160a01b03169063f8b2cb4f90613e509087906004016154dc565b60206040518083038186803b158015613e6857600080fd5b505afa158015613e7c573d6000803e3d6000fd5b505050506040513d601f19601f82011682018060405250810190613ea0919061522a565b601054604051634a46c67360e11b81529192506000916001600160a01b039091169063948d8ce690613ed69088906004016154dc565b60206040518083038186803b158015613eee57600080fd5b505afa158015613f02573d6000803e3d6000fd5b505050506040513d601f19601f82011682018060405250810190613f26919061522a565b90506000856001600160a01b03166323b872dd8630876040518463ffffffff1660e01b8152600401613f5a939291906154f0565b602060405180830381600087803b158015613f7457600080fd5b505af1158015613f88573d6000803e3d6000fd5b505050506040513d601f19601f82011682018060405250810190613fac919061516e565b905080613fcb5760405162461bcd60e51b815260040161076c90615c0e565b6010546001600160a01b0316633fdddaa287613fe786886141e7565b856040518463ffffffff1660e01b8152600401614006939291906155c2565b600060405180830381600087803b15801561402057600080fd5b505af1158015614034573d6000803e3d6000fd5b50505050505050505050565b600080846001600160a01b031663dd62ed3e30866040518363ffffffff1660e01b8152600401614071929190615514565b60206040518083038186803b15801561408957600080fd5b505afa15801561409d573d6000803e3d6000fd5b505050506040513d601f19601f820116820180604052508101906140c1919061522a565b9050828114156140d5576001915050610d82565b801561415e5760405163095ea7b360e01b81526001600160a01b0386169063095ea7b39061410a908790600090600401615577565b602060405180830381600087803b15801561412457600080fd5b505af1158015614138573d6000803e3d6000fd5b505050506040513d601f19601f8201168201806040525081019061415c919061516e565b505b60405163095ea7b360e01b81526001600160a01b0386169063095ea7b39061418c9087908790600401615577565b602060405180830381600087803b1580156141a657600080fd5b505af11580156141ba573d6000803e3d6000fd5b505050506040513d601f19601f820116820180604052508101906141de919061516e565b95945050505050565b600082820183811015610d825760405162461bcd60e51b815260040161076c90615cc7565b601a5415614479576010546040805163cc77828d60e01b815290516060926001600160a01b03169163cc77828d916004808301926000929190829003018186803b15801561425957600080fd5b505afa15801561426d573d6000803e3d6000fd5b505050506040513d6000823e601f3d908101601f191682016040526142959190810190614fe6565b9050606081516001600160401b03811180156142b057600080fd5b506040519080825280602002602001820160405280156142da578160200160208202803683370190505b50905060005b825181101561440c5760008382815181106142f757fe5b602090810291909101015160105460405163f8b2cb4f60e01b81529192506000916001600160a01b039091169063f8b2cb4f906143389085906004016154dc565b60206040518083038186803b15801561435057600080fd5b505afa158015614364573d6000803e3d6000fd5b505050506040513d601f19601f82011682018060405250810190614388919061522a565b9050600061439b8260126008015461384c565b90506143a883308361468d565b808585815181106143b557fe5b60209081029190910101526023546000906143dd906001600160a01b03868116911684614040565b9050806143fc5760405162461bcd60e51b815260040161076c90615c0e565b5050600190920191506142e09050565b50602354604051631483d99d60e01b81526001600160a01b0390911690631483d99d906144449085908590819060009060040161561b565b600060405180830381600087803b15801561445e57600080fd5b505af1158015614472573d6000803e3d6000fd5b5050505050505b565b614484816148f3565b6016546000541115610c5c5760405162461bcd60e51b815260040161076c90615b7e565b6109e0823083613d1f565b600f5460405163db7ca46b60e01b81526001600160a01b039091169063db7ca46b906144e39084906004016154dc565b60206040518083038186803b1580156144fb57600080fd5b505afa15801561450f573d6000803e3d6000fd5b505050506040513d601f19601f82011682018060405250810190614533919061516e565b61454f5760405162461bcd60e51b815260040161076c90615b21565b602454600160a01b900460ff1615610c5c5761456a81614951565b610c5c5760405162461bcd60e51b815260040161076c9061590f565b6001600160a01b0381166145ac5760405162461bcd60e51b815260040161076c90615c37565b6145b581614951565b156145d25760405162461bcd60e51b815260040161076c90615c6a565b6000828152600e602090815260408083206001600160a01b038516845282528083208054600160ff199182168117909255600d909352922080549091169091179055600b5460ff1661462c57600b805460ff191660011790555b600c8054600101905561463d61496f565b336001600160a01b031682306001600160a01b03167f5ab6a0d7af8e86f78c34acea4f8aff1be027227ce1bc29e03f57f39b788f4b048460405161468191906154dc565b60405180910390a45050565b6010546001600160a01b03166146b55760405162461bcd60e51b815260040161076c906159c3565b60105460405163f8b2cb4f60e01b81526000916001600160a01b03169063f8b2cb4f906146e69087906004016154dc565b60206040518083038186803b1580156146fe57600080fd5b505afa158015614712573d6000803e3d6000fd5b505050506040513d601f19601f82011682018060405250810190614736919061522a565b601054604051634a46c67360e11b81529192506000916001600160a01b039091169063948d8ce69061476c9088906004016154dc565b60206040518083038186803b15801561478457600080fd5b505afa158015614798573d6000803e3d6000fd5b505050506040513d601f19601f820116820180604052508101906147bc919061522a565b6010549091506001600160a01b0316633fdddaa2866147db8587613dbe565b846040518463ffffffff1660e01b81526004016147fa939291906155c2565b600060405180830381600087803b15801561481457600080fd5b505af1158015614828573d6000803e3d6000fd5b505060405163a9059cbb60e01b8152600092506001600160a01b038816915063a9059cbb9061485d9088908890600401615577565b602060405180830381600087803b15801561487757600080fd5b505af115801561488b573d6000803e3d6000fd5b505050506040513d601f19601f820116820180604052508101906148af919061516e565b9050806144725760405162461bcd60e51b815260040161076c90615c0e565b6000808383116148e457505080820360006148ec565b505081810360015b9250929050565b3060009081526001602052604090205461490d90826141e7565b306000908152600160205260408120919091555461492b90826141e7565b6000908155604051309190600080516020615f7b83398151915290613d14908590615d89565b6001600160a01b03166000908152600d602052604090205460ff1690565b600c541561498c57600b805460ff19166001908117909155610c5c565b600b805460ff19169055565b8280548282559060005260206000209081019282156149ed579160200282015b828111156149ed57825182546001600160a01b0319166001600160a01b039091161782556020909201916001909101906149b8565b506149f9929150614a44565b5090565b828054828255906000526020600020908101928215614a38579160200282015b82811115614a38578251825591602001919060010190614a1d565b506149f9929150614a63565b5b808211156149f95780546001600160a01b0319168155600101614a45565b5b808211156149f95760008155600101614a64565b600082601f830112614a88578081fd5b8135614a9b614a9682615ec5565b615e9f565b818152915060208083019084810181840286018201871015614abc57600080fd5b60005b84811015614ae4578135614ad281615f37565b84529282019290820190600101614abf565b505050505092915050565b60008083601f840112614b00578182fd5b5081356001600160401b03811115614b16578182fd5b60208301915083602080830285010111156148ec57600080fd5b600082601f830112614b40578081fd5b8135614b4e614a9682615ec5565b818152915060208083019084810181840286018201871015614b6f57600080fd5b60005b84811015614ae457813584529282019290820190600101614b72565b600082601f830112614b9e578081fd5b8151614bac614a9682615ec5565b818152915060208083019084810181840286018201871015614bcd57600080fd5b60005b84811015614ae457815184529282019290820190600101614bd0565b803560028110610a3757600080fd5b600082601f830112614c0b578081fd5b8135614c19614a9682615ee4565b9150808252836020828501011115614c3057600080fd5b8060208401602084013760009082016020015292915050565b600060c08284031215614c5a578081fd5b614c6460c0615e9f565b90508135614c7181615f4c565b81526020820135614c8181615f4c565b60208201526040820135614c9481615f4c565b60408201526060820135614ca781615f4c565b60608201526080820135614cba81615f4c565b608082015260a0820135614ccd81615f4c565b60a082015292915050565b600060208284031215614ce9578081fd5b8135610d8281615f37565b600060208284031215614d05578081fd5b8151610d8281615f37565b60008060408385031215614d22578081fd5b8235614d2d81615f37565b91506020830135614d3d81615f37565b809150509250929050565b600080600060608486031215614d5c578081fd5b8335614d6781615f37565b92506020840135614d7781615f37565b929592945050506040919091013590565b60008060008060808587031215614d9d578182fd5b8435614da881615f37565b93506020850135614db881615f37565b93969395505050506040820135916060013590565b6000806000610100808587031215614de3578182fd5b8435614dee81615f37565b935060208501356001600160401b0380821115614e09578384fd5b818701915061016080838a031215614e1f578485fd5b614e2881615e9f565b9050823582811115614e38578586fd5b614e448a828601614bfb565b825250602083013582811115614e58578586fd5b614e648a828601614bfb565b602083015250604083013582811115614e7b578586fd5b614e878a828601614a78565b604083015250606083013582811115614e9e578586fd5b614eaa8a828601614b30565b606083015250608083013582811115614ec1578586fd5b614ecd8a828601614b30565b60808301525060a083013560a082015260c083013560c082015260e083013560e08201528383013584820152610120935083830135848201526101409350614f1789858501614bec565b8482015280955050505050614f2f8560408601614c49565b90509250925092565b60008060408385031215614f4a578182fd5b8235614f5581615f37565b946020939093013593505050565b60008060008060608587031215614f78578182fd5b8435614f8381615f37565b93506020850135925060408501356001600160401b0380821115614fa5578384fd5b818701915087601f830112614fb8578384fd5b813581811115614fc6578485fd5b886020828501011115614fd7578485fd5b95989497505060200194505050565b60006020808385031215614ff8578182fd5b82516001600160401b0381111561500d578283fd5b8301601f8101851361501d578283fd5b805161502b614a9682615ec5565b8181528381019083850185840285018601891015615047578687fd5b8694505b8385101561507257805161505e81615f37565b83526001949094019391850191850161504b565b50979650505050505050565b60008060408385031215615090578182fd5b82356001600160401b03808211156150a6578384fd5b6150b286838701614a78565b935060208501359150808211156150c7578283fd5b506150d485828601614b30565b9150509250929050565b6000602082840312156150ef578081fd5b81516001600160401b03811115615104578182fd5b61511084828501614b8e565b949350505050565b6000806040838503121561512a578182fd5b82356001600160401b0380821115615140578384fd5b61514c86838701614b30565b93506020850135915080821115615161578283fd5b506150d485828601614a78565b60006020828403121561517f578081fd5b8151610d8281615f4c565b60006020828403121561519b578081fd5b81516001600160401b038111156151b0578182fd5b8201601f810184136151c0578182fd5b80516151ce614a9682615ee4565b8181528560208385010111156151e2578384fd5b6141de826020830160208601615f07565b600060208284031215615204578081fd5b813560068110610d82578182fd5b600060208284031215615223578081fd5b5035919050565b60006020828403121561523b578081fd5b5051919050565b600080600060408486031215615256578081fd5b8335925060208401356001600160401b03811115615272578182fd5b61527e86828701614aef565b9497909650939450505050565b600080600080606085870312156152a0578182fd5b8435935060208501356001600160401b038111156152bc578283fd5b6152c887828801614aef565b90945092505060408501356152dc81615f37565b939692955090935050565b600080604083850312156152f9578182fd5b8251915060208301516001600160401b03811115615315578182fd5b6150d485828601614b8e565b60008060408385031215615333578182fd5b505080516020909101519092909150565b60008060008084860360a081121561535a578283fd5b8535945060208601359350604086013560038110615376578384fd5b92506040605f1982011215615389578182fd5b506153946040615e9f565b606086013581526080909501356020860152509194909350909190565b6000806000606084860312156153c5578081fd5b8351925060208401519150604084015190509250925092565b6000815180845260208085019450808401835b838110156154165781516001600160a01b0316875295820195908201906001016153f1565b509495945050505050565b6000815180845260208085019450808401835b8381101561541657815187529582019590820190600101615434565b15159052565b60008284528282602086013780602084860101526020601f19601f85011685010190509392505050565b60008151808452615498816020860160208601615f07565b601f01601f19169290920160200192915050565b600681106154b657fe5b9052565b642aa82822a960d91b815260050190565b64232627a7a960d91b815260050190565b6001600160a01b0391909116815260200190565b6001600160a01b039384168152919092166020820152604081019190915260600190565b6001600160a01b0392831681529116602082015260400190565b6001600160a01b0385811682528416602082015260806040820181905260009061555a908301856153de565b828103606084015261556c8185615421565b979650505050505050565b6001600160a01b03929092168252602082015260400190565b600060018060a01b0386168252846020830152606060408301526155b8606083018486615456565b9695505050505050565b6001600160a01b039390931683526020830191909152604082015260600190565b600060208252610d8260208301846153de565b60006040825261560960408301856153de565b82810360208401526141de8185615421565b60006080825261562e60808301876153de565b82810360208401526156408187615421565b905082810360408401526156548186615421565b915050821515606083015295945050505050565b600060208252610d826020830184615421565b901515815260200190565b921515835290151560208301526001600160a01b0316604082015260600190565b9515158652931515602086015291151560408501521515606084015215156080830152151560a082015260c00190565b9315158452911515602084015215156040830152606082015260800190565b9615158752941515602087015260408601939093526060850191909152608084015260a083015260c082015260e00190565b951515865260208601949094526040850192909252151560608401526001600160a01b0390811660808401521660a082015260c00190565b600060208252615110602083018486615456565b600060208252610d826020830184615480565b6001600160a01b0396871681529486166020860152928516604085015293166060830152608082019290925260a081019190915260c00190565b6001600160a01b0386811682528516602082015260408101849052608060608201819052810182905260006001600160fb1b038311156157ff578081fd5b60208302808560a08501379190910160a00190815295945050505050565b602081016002831061582b57fe5b91905290565b918252602082015260400190565b60208082526009908201526837b7363ca0b236b4b760b91b604082015260600190565b60208082526012908201527122a9292fa727aa2fa1a7a72a2927a62622a960711b604082015260600190565b6020808252600d908201526c4552525f4e4f5f52494748545360981b604082015260600190565b60208082526016908201527526a7a22aa6229024a9902727aa102922a3a4a9aa22a960511b604082015260600190565b60208082526010908201526f20b2323932b9b99034b99027bbb732b960811b604082015260600190565b6020808252601b908201527a11549497d393d517d5d212551157d513d2d15397d25397d413d3d3602a1b604082015260600190565b60208082526010908201526f4552525f5a45524f5f4144445245535360801b604082015260600190565b602080825260199082015278544f4b454e5f4d5553545f494e5f57484954455f4c4953545360381b604082015260600190565b60208082526008908201526727bbb730b13632a760c11b604082015260600190565b6020808252600f908201526e11549497d393d517d0d49150551151608a1b604082015260600190565b6020808252600e908201526d11549497d254d7d0d4915055115160921b604082015260600190565b60208082526006908201526506f776e6572560d41b604082015260600190565b60208082526010908201526f11549497d1125597d25395115493905360821b604082015260600190565b6020808252600b908201526a4552525f5245454e54525960a81b604082015260600190565b60208082526023908201527f54686520636f6c6c656374696f6e206379636c65206973206e6f7420726561636040820152621a195960ea1b606082015260800190565b6020808252601790820152764552525f45524332305f415050524f56455f46414c534560481b604082015260600190565b60208082526010908201526f4552525f4d554c5f4f564552464c4f5760801b604082015260600190565b6020808252601e908201527f4552525f4e4f545f57484954455f544f4b454e5f494e5f464143544f52590000604082015260600190565b6020808252600c908201526b4552525f4449565f5a45524f60a01b604082015260600190565b60208082526015908201527411549497d0d05417d31253525517d4915050d21151605a1b604082015260600190565b60208082526016908201527522a9292fa821aa27a5a2a72fa120a22fa1a0a62622a960511b604082015260600190565b60208082526017908201527608aa4a4bea69ea4a8bea89e968a9cbe9a92a69a82a8869604b1b604082015260600190565b6020808252600f908201526e4552525f45524332305f46414c534560881b604082015260600190565b6020808252601990820152784552525f494e56414c49445f544f4b454e5f4144445245535360381b604082015260600190565b6020808252601890820152774552525f4841535f4245454e5f41444445445f574849544560401b604082015260600190565b6020808252601190820152704552525f5355425f554e444552464c4f5760781b604082015260600190565b60208082526010908201526f4552525f4144445f4f564552464c4f5760801b604082015260600190565b60208082526011908201527022a9292fa6aaa9aa2fa7a822a72fa2aa2360791b604082015260600190565b600060e082019050835460ff80821615158452808260081c1615156020850152808260101c1615156040850152808260181c1615156060850152615d6860808501828460201c16615450565b615d7a60a08501828460281c16615450565b5050610d8260c08301846154ac565b90815260200190565b9182526001600160a01b0316602082015260400190565b9283526020830191909152604082015260600190565b93845260208401929092526040830152606082015260800190565b958652602086019490945260408501929092526060840152608083015260a082015260c00190565b988952602089019790975260408801959095526060870193909352608086019190915260a085015260c084015260e083015215156101008201526101200190565b9a8b5260208b019990995260408a01979097526060890195909552608088019390935260a087019190915260c086015260e08501526101008401526101208301526101408201526101600190565b60ff91909116815260200190565b6040518181016001600160401b0381118282101715615ebd57600080fd5b604052919050565b60006001600160401b03821115615eda578081fd5b5060209081020190565b60006001600160401b03821115615ef9578081fd5b50601f01601f191660200190565b60005b83811015615f22578181015183820152602001615f0a565b83811115615f31576000848401525b50505050565b6001600160a01b0381168114610c5c57600080fd5b8015158114610c5c57600080fdfe345c44e0d6869c4baccff8ecb8279bca00e6436947fce2da5beffcc9e5cabefbddf252ad1be2c89b69c2b068fc378daa952ba7f163c4a11628f55a4df523b3ef8c5be1e5ebec7d5bd14f71427d1e84f3dd0314c0f7b2291e5b200ac8c7c3b925a2646970667358221220dd388a0162eb56582b4ec9529dd63695a3e4322d327c5b2b2c46a767d415a36e64736f6c634300060c0033",
  "libraries": {
    "DesynSafeMath": "0xe96db147c2d1b7af2a3dd07388b1cc7b086f3c8d",
    "RightsManager": "0x2c05086fbc0701a179e05416e8142c8ff100f85f",
    "SmartPoolManager": "0xD3090165Aa2A37e952Df395d95bd5305D8117445"
  },
  "devdoc": {
    "author": "Desyn Labs",
    "details": "Rights are defined as follows (index values into the array) Note that functions called on bPool and bFactory may look like internal calls,   but since they are contracts accessed through an interface, they are really external. To make this explicit, we could write \"IBPool(address(bPool)).function()\" everywhere,   instead of \"bPool.function()\".",
    "kind": "dev",
    "methods": {
      "allowance(address,address)": {
        "params": {
          "owner": "- owner of the tokens",
          "spender": "- entity allowed to spend the tokens"
        },
        "returns": {
          "_0": "uint - remaining amount spender is allowed to transfer"
        }
      },
      "approve(address,uint256)": {
        "details": "emits an Approval event",
        "params": {
          "amount": "- number of tokens being approved",
          "spender": "- entity the owner (sender) is approving to spend his tokens"
        },
        "returns": {
          "_0": "bool - result of the approval (will always be true if it doesn't revert)"
        }
      },
      "balanceOf(address)": {
        "params": {
          "account": "- address we're checking the balance of"
        },
        "returns": {
          "_0": "uint - token balance in the account"
        }
      },
      "canProvideLiquidity(address)": {
        "details": "If the whitelist feature is not enabled, anyone can provide liquidity (assuming finalized)",
        "returns": {
          "_0": "boolean value indicating whether the address can join a pool"
        }
      },
      "createPool(uint256)": {
        "details": "Delegates to internal function",
        "params": {
          "initialSupply": "starting token balance"
        }
      },
      "createPool(uint256,uint256,uint8,(uint256,uint256))": {
        "details": "Delegates to internal function",
        "params": {
          "closurePeriod": "the etf closure period",
          "initialSupply": "starting token balance"
        }
      },
      "decimals()": {
        "details": "Returns the number of decimals used to get its user representation. For example, if `decimals` equals `2`, a balance of `505` tokens should be displayed to a user as `5,05` (`505 / 10 ** 2`). Tokens usually opt for a value of 18, imitating the relationship between Ether and Wei. This is the value {ERC20} uses, unless {_setupDecimals} is called. NOTE: This information is only used for _display_ purposes: it in no way affects any of the arithmetic of the contract, including {IERC20-balanceOf} and {IERC20-transfer}."
      },
      "decreaseApproval(address,uint256)": {
        "details": "emits an Approval eventIf you try to decrease it below the current limit, it's just set to zero (not an error)",
        "params": {
          "amount": "- number of tokens being approved",
          "spender": "- entity the owner (sender) is approving to spend his tokens"
        },
        "returns": {
          "_0": "bool - result of the approval (will always be true if it doesn't revert)"
        }
      },
      "exitPool(uint256,uint256[])": {
        "details": "Emits a LogExit event for each token      bPool is a contract interface; function calls on it are external",
        "params": {
          "minAmountsOut": "- minimum amount of asset tokens to receive",
          "poolAmountIn": "- amount of pool tokens to redeem"
        }
      },
      "getController()": {
        "details": "external for gas optimization",
        "returns": {
          "_0": "address - of the owner (AKA controller)"
        }
      },
      "getDesynSafeMathVersion()": {
        "details": "Convenience function to get the address of the DesynSafeMath library (so clients can check version)",
        "returns": {
          "_0": "address of the DesynSafeMath library"
        }
      },
      "getRightsManagerVersion()": {
        "details": "Convenience function to get the address of the RightsManager library (so clients can check version)",
        "returns": {
          "_0": "address of the RightsManager library"
        }
      },
      "getSmartPoolManagerVersion()": {
        "details": "Convenience function to get the address of the SmartPoolManager library (so clients can check version)",
        "returns": {
          "_0": "address of the SmartPoolManager library"
        }
      },
      "hasPermission(uint8)": {
        "details": "value of the enum is just the 0-based index in the enumeration      For instance canPauseSwapping is 0; canChangeWeights is 2",
        "returns": {
          "_0": "token boolean true if we have the given permission"
        }
      },
      "increaseApproval(address,uint256)": {
        "details": "emits an Approval event",
        "params": {
          "amount": "- number of tokens being approved",
          "spender": "- entity the owner (sender) is approving to spend his tokens"
        },
        "returns": {
          "_0": "bool - result of the approval (will always be true if it doesn't revert)"
        }
      },
      "init(address,(string,string,address[],uint256[],uint256[],uint256,uint256,uint256,uint256,uint256,uint8),(bool,bool,bool,bool,bool,bool))": {
        "details": "_initialTokens and _swapFee are only used for temporary storage between construction      and create pool, and should not be used thereafter! _initialTokens is destroyed in      createPool to prevent this, and _swapFee is kept in sync (defensively), but      should never be used except in this constructor and createPool()",
        "params": {
          "factoryAddress": "- the BPoolFactory used to create the underlying pool",
          "poolParams": "- struct containing pool parameters",
          "rightsStruct": "- Set of permissions we are assigning to this smart pool"
        }
      },
      "joinPool(uint256,uint256[],address)": {
        "details": "Emits a LogJoin event (for each token)      bPool is a contract interface; function calls on it are external",
        "params": {
          "maxAmountsIn": "- Max amount of asset tokens to spend",
          "poolAmountOut": "- number of pool tokens to receive"
        }
      },
      "name()": {
        "details": "Returns the name of the token.      We allow the user to set this name (as well as the symbol).      Alternatives are 1) A fixed string (original design)                       2) A fixed string plus the user-defined symbol                          return string(abi.encodePacked(NAME, \"-\", _symbol));"
      },
      "removeOwner(address)": {
        "details": "Allows to remove an owner. Transaction has to be sent by wallet.",
        "params": {
          "owner": "Address of owner."
        }
      },
      "removeWhitelistedLiquidityProvider(address)": {
        "params": {
          "provider": "- address of the liquidity provider"
        }
      },
      "setAddAdminList(address,uint256)": {
        "details": "external for gas optimization",
        "params": {
          "newOwner": "- address of new owner"
        }
      },
      "setCap(uint256)": {
        "details": "_bspCap defaults in the constructor to unlimited      Can set to 0 (or anywhere below the current supply), to halt new investment      Prevent setting it before creating a pool, since createPool sets to intialSupply      (it does this to avoid an unlimited cap window between construction and createPool)      Therefore setting it before then has no effect, so should not be allowed",
        "params": {
          "newCap": "- new value of the cap"
        }
      },
      "setController(address)": {
        "details": "external for gas optimization",
        "params": {
          "newOwner": "- address of new owner"
        }
      },
      "symbol()": {
        "details": "Returns the symbol of the token, usually a shorter version of the name."
      },
      "totalSupply()": {
        "details": "declared external for gas optimization",
        "returns": {
          "_0": "uint - total number of tokens in existence"
        }
      },
      "transfer(address,uint256)": {
        "details": "_move emits a Transfer event if successful",
        "params": {
          "amount": "- number of tokens being transferred",
          "recipient": "- entity receiving the tokens"
        },
        "returns": {
          "_0": "bool - result of the transfer (will always be true if it doesn't revert)"
        }
      },
      "transferFrom(address,address,uint256)": {
        "details": "_move emits a Transfer event if successful; may also emit an Approval event",
        "params": {
          "amount": "- number of tokens being transferred",
          "recipient": "- recipient of the tokens",
          "sender": "- entity sending the tokens (must be caller or allowed to spend on behalf of caller)"
        },
        "returns": {
          "_0": "bool - result of the transfer (will always be true if it doesn't revert)"
        }
      },
      "whitelistLiquidityProvider(address)": {
        "params": {
          "provider": "- address of the liquidity provider"
        }
      }
    },
    "title": "Smart Pool with customizable features",
    "version": 1
  },
  "userdoc": {
    "kind": "user",
    "methods": {
      "allowance(address,address)": {
        "notice": "Getter for allowance: amount spender will be allowed to spend on behalf of owner"
      },
      "approve(address,uint256)": {
        "notice": "Approve owner (sender) to spend a certain amount"
      },
      "balanceOf(address)": {
        "notice": "Getter for current account balance"
      },
      "canProvideLiquidity(address)": {
        "notice": "Check if an address is a liquidity provider"
      },
      "createPool(uint256)": {
        "notice": "Create a new Smart Pool"
      },
      "createPool(uint256,uint256,uint8,(uint256,uint256))": {
        "notice": "Create a new Smart Pool"
      },
      "decreaseApproval(address,uint256)": {
        "notice": "Decrease the amount the spender is allowed to spend on behalf of the owner (sender)"
      },
      "exitPool(uint256,uint256[])": {
        "notice": "Exit a pool - redeem pool tokens for underlying assets"
      },
      "getController()": {
        "notice": "Returns the address of the current owner"
      },
      "getDesynSafeMathVersion()": {
        "notice": "Getter for the DesynSafeMath contract"
      },
      "getRightsManagerVersion()": {
        "notice": "Getter for the RightsManager contract"
      },
      "getSmartPoolManagerVersion()": {
        "notice": "Getter for the SmartPoolManager contract"
      },
      "hasPermission(uint8)": {
        "notice": "Getter for specific permissions"
      },
      "increaseApproval(address,uint256)": {
        "notice": "Increase the amount the spender is allowed to spend on behalf of the owner (sender)"
      },
      "init(address,(string,string,address[],uint256[],uint256[],uint256,uint256,uint256,uint256,uint256,uint8),(bool,bool,bool,bool,bool,bool))": {
        "notice": "Construct a new Configurable Rights Pool (wrapper around BPool)"
      },
      "joinPool(uint256,uint256[],address)": {
        "notice": "Join a pool"
      },
      "removeWhitelistedLiquidityProvider(address)": {
        "notice": "Remove from the whitelist of liquidity providers (if enabled)"
      },
      "setAddAdminList(address,uint256)": {
        "notice": "Transfers ownership of the contract to a new account (`newOwner`).         Can only be called by the current owner"
      },
      "setCap(uint256)": {
        "notice": "Set the cap (max # of pool tokens)"
      },
      "setController(address)": {
        "notice": "Transfers ownership of the contract to a new account (`newOwner`).         Can only be called by the current owner"
      },
      "totalSupply()": {
        "notice": "Getter for the total supply"
      },
      "transfer(address,uint256)": {
        "notice": "Transfer the given amount from sender (caller) to recipient"
      },
      "transferFrom(address,address,uint256)": {
        "notice": "Transfer the given amount from sender to recipient"
      },
      "whitelistLiquidityProvider(address)": {
        "notice": "Add to the whitelist of liquidity providers (if enabled)"
      }
    },
    "notice": "PCToken is the \"Desyn Smart Pool\" token (transferred upon finalization)",
    "version": 1
  },
  "storageLayout": {
    "storage": [
      {
        "astId": 5873,
        "contract": "contracts/base/ConfigurableRightsPool.sol:ConfigurableRightsPool",
        "label": "varTotalSupply",
        "offset": 0,
        "slot": "0",
        "type": "t_uint256"
      },
      {
        "astId": 5877,
        "contract": "contracts/base/ConfigurableRightsPool.sol:ConfigurableRightsPool",
        "label": "_balance",
        "offset": 0,
        "slot": "1",
        "type": "t_mapping(t_address,t_uint256)"
      },
      {
        "astId": 5883,
        "contract": "contracts/base/ConfigurableRightsPool.sol:ConfigurableRightsPool",
        "label": "_allowance",
        "offset": 0,
        "slot": "2",
        "type": "t_mapping(t_address,t_mapping(t_address,t_uint256))"
      },
      {
        "astId": 5885,
        "contract": "contracts/base/ConfigurableRightsPool.sol:ConfigurableRightsPool",
        "label": "_symbol",
        "offset": 0,
        "slot": "3",
        "type": "t_string_storage"
      },
      {
        "astId": 5887,
        "contract": "contracts/base/ConfigurableRightsPool.sol:ConfigurableRightsPool",
        "label": "_name",
        "offset": 0,
        "slot": "4",
        "type": "t_string_storage"
      },
      {
        "astId": 17499,
        "contract": "contracts/base/ConfigurableRightsPool.sol:ConfigurableRightsPool",
        "label": "_owner",
        "offset": 0,
        "slot": "5",
        "type": "t_address"
      },
      {
        "astId": 17503,
        "contract": "contracts/base/ConfigurableRightsPool.sol:ConfigurableRightsPool",
        "label": "adminList",
        "offset": 0,
        "slot": "6",
        "type": "t_mapping(t_address,t_bool)"
      },
      {
        "astId": 17506,
        "contract": "contracts/base/ConfigurableRightsPool.sol:ConfigurableRightsPool",
        "label": "owners",
        "offset": 0,
        "slot": "7",
        "type": "t_array(t_address)dyn_storage"
      },
      {
        "astId": 17509,
        "contract": "contracts/base/ConfigurableRightsPool.sol:ConfigurableRightsPool",
        "label": "ownerPercentage",
        "offset": 0,
        "slot": "8",
        "type": "t_array(t_uint256)dyn_storage"
      },
      {
        "astId": 17511,
        "contract": "contracts/base/ConfigurableRightsPool.sol:ConfigurableRightsPool",
        "label": "allOwnerPercentage",
        "offset": 0,
        "slot": "9",
        "type": "t_uint256"
      },
      {
        "astId": 17825,
        "contract": "contracts/base/ConfigurableRightsPool.sol:ConfigurableRightsPool",
        "label": "_status",
        "offset": 0,
        "slot": "10",
        "type": "t_uint256"
      },
      {
        "astId": 6441,
        "contract": "contracts/base/ConfigurableRightsPool.sol:ConfigurableRightsPool",
        "label": "_hasInit",
        "offset": 0,
        "slot": "11",
        "type": "t_bool"
      },
      {
        "astId": 6443,
        "contract": "contracts/base/ConfigurableRightsPool.sol:ConfigurableRightsPool",
        "label": "_whiteTokenCount",
        "offset": 0,
        "slot": "12",
        "type": "t_uint256"
      },
      {
        "astId": 6447,
        "contract": "contracts/base/ConfigurableRightsPool.sol:ConfigurableRightsPool",
        "label": "_isTokenWhitelisted",
        "offset": 0,
        "slot": "13",
        "type": "t_mapping(t_address,t_bool)"
      },
      {
        "astId": 6453,
        "contract": "contracts/base/ConfigurableRightsPool.sol:ConfigurableRightsPool",
        "label": "_tokenWhitelistedInfo",
        "offset": 0,
        "slot": "14",
        "type": "t_mapping(t_uint256,t_mapping(t_address,t_bool))"
      },
      {
        "astId": 198,
        "contract": "contracts/base/ConfigurableRightsPool.sol:ConfigurableRightsPool",
        "label": "bFactory",
        "offset": 0,
        "slot": "15",
        "type": "t_contract(IBFactory)14911"
      },
      {
        "astId": 200,
        "contract": "contracts/base/ConfigurableRightsPool.sol:ConfigurableRightsPool",
        "label": "bPool",
        "offset": 0,
        "slot": "16",
        "type": "t_contract(IBPool)14828"
      },
      {
        "astId": 202,
        "contract": "contracts/base/ConfigurableRightsPool.sol:ConfigurableRightsPool",
        "label": "rights",
        "offset": 0,
        "slot": "17",
        "type": "t_struct(Rights)15845_storage"
      },
      {
        "astId": 204,
        "contract": "contracts/base/ConfigurableRightsPool.sol:ConfigurableRightsPool",
        "label": "etfStatus",
        "offset": 0,
        "slot": "18",
        "type": "t_struct(Status)16510_storage"
      },
      {
        "astId": 206,
        "contract": "contracts/base/ConfigurableRightsPool.sol:ConfigurableRightsPool",
        "label": "_initialSwapFee",
        "offset": 0,
        "slot": "29",
        "type": "t_uint256"
      },
      {
        "astId": 209,
        "contract": "contracts/base/ConfigurableRightsPool.sol:ConfigurableRightsPool",
        "label": "_initialTokens",
        "offset": 0,
        "slot": "30",
        "type": "t_array(t_address)dyn_storage"
      },
      {
        "astId": 212,
        "contract": "contracts/base/ConfigurableRightsPool.sol:ConfigurableRightsPool",
        "label": "_initialBalances",
        "offset": 0,
        "slot": "31",
        "type": "t_array(t_uint256)dyn_storage"
      },
      {
        "astId": 215,
        "contract": "contracts/base/ConfigurableRightsPool.sol:ConfigurableRightsPool",
        "label": "_initialWeights",
        "offset": 0,
        "slot": "32",
        "type": "t_array(t_uint256)dyn_storage"
      },
      {
        "astId": 219,
        "contract": "contracts/base/ConfigurableRightsPool.sol:ConfigurableRightsPool",
        "label": "_liquidityProviderWhitelist",
        "offset": 0,
        "slot": "33",
        "type": "t_mapping(t_address,t_bool)"
      },
      {
        "astId": 228,
        "contract": "contracts/base/ConfigurableRightsPool.sol:ConfigurableRightsPool",
        "label": "claimPeriod",
        "offset": 0,
        "slot": "34",
        "type": "t_uint256"
      },
      {
        "astId": 230,
        "contract": "contracts/base/ConfigurableRightsPool.sol:ConfigurableRightsPool",
        "label": "vaultAddress",
        "offset": 0,
        "slot": "35",
        "type": "t_address"
      },
      {
        "astId": 232,
        "contract": "contracts/base/ConfigurableRightsPool.sol:ConfigurableRightsPool",
        "label": "oracleAddress",
        "offset": 0,
        "slot": "36",
        "type": "t_address"
      },
      {
        "astId": 234,
        "contract": "contracts/base/ConfigurableRightsPool.sol:ConfigurableRightsPool",
        "label": "hasSetWhiteTokens",
        "offset": 20,
        "slot": "36",
        "type": "t_bool"
      },
      {
        "astId": 236,
        "contract": "contracts/base/ConfigurableRightsPool.sol:ConfigurableRightsPool",
        "label": "initBool",
        "offset": 21,
        "slot": "36",
        "type": "t_bool"
      },
      {
        "astId": 238,
        "contract": "contracts/base/ConfigurableRightsPool.sol:ConfigurableRightsPool",
        "label": "isCompletedCollect",
        "offset": 22,
        "slot": "36",
        "type": "t_bool"
      },
      {
        "astId": 242,
        "contract": "contracts/base/ConfigurableRightsPool.sol:ConfigurableRightsPool",
        "label": "beginFund",
        "offset": 0,
        "slot": "37",
        "type": "t_mapping(t_address,t_struct(Fund)16546_storage)"
      },
      {
        "astId": 246,
        "contract": "contracts/base/ConfigurableRightsPool.sol:ConfigurableRightsPool",
        "label": "endFund",
        "offset": 0,
        "slot": "38",
        "type": "t_mapping(t_address,t_struct(Fund)16546_storage)"
      },
      {
        "astId": 248,
        "contract": "contracts/base/ConfigurableRightsPool.sol:ConfigurableRightsPool",
        "label": "etype",
        "offset": 0,
        "slot": "39",
        "type": "t_enum(Etypes)16483"
      }
    ],
    "types": {
      "t_address": {
        "encoding": "inplace",
        "label": "address",
        "numberOfBytes": "20"
      },
      "t_array(t_address)dyn_storage": {
        "base": "t_address",
        "encoding": "dynamic_array",
        "label": "address[]",
        "numberOfBytes": "32"
      },
      "t_array(t_uint256)dyn_storage": {
        "base": "t_uint256",
        "encoding": "dynamic_array",
        "label": "uint256[]",
        "numberOfBytes": "32"
      },
      "t_bool": {
        "encoding": "inplace",
        "label": "bool",
        "numberOfBytes": "1"
      },
      "t_contract(IBFactory)14911": {
        "encoding": "inplace",
        "label": "contract IBFactory",
        "numberOfBytes": "20"
      },
      "t_contract(IBPool)14828": {
        "encoding": "inplace",
        "label": "contract IBPool",
        "numberOfBytes": "20"
      },
      "t_enum(Etypes)16483": {
        "encoding": "inplace",
        "label": "enum SmartPoolManager.Etypes",
        "numberOfBytes": "1"
      },
      "t_mapping(t_address,t_bool)": {
        "encoding": "mapping",
        "key": "t_address",
        "label": "mapping(address => bool)",
        "numberOfBytes": "32",
        "value": "t_bool"
      },
      "t_mapping(t_address,t_mapping(t_address,t_uint256))": {
        "encoding": "mapping",
        "key": "t_address",
        "label": "mapping(address => mapping(address => uint256))",
        "numberOfBytes": "32",
        "value": "t_mapping(t_address,t_uint256)"
      },
      "t_mapping(t_address,t_struct(Fund)16546_storage)": {
        "encoding": "mapping",
        "key": "t_address",
        "label": "mapping(address => struct SmartPoolManager.Fund)",
        "numberOfBytes": "32",
        "value": "t_struct(Fund)16546_storage"
      },
      "t_mapping(t_address,t_uint256)": {
        "encoding": "mapping",
        "key": "t_address",
        "label": "mapping(address => uint256)",
        "numberOfBytes": "32",
        "value": "t_uint256"
      },
      "t_mapping(t_uint256,t_mapping(t_address,t_bool))": {
        "encoding": "mapping",
        "key": "t_uint256",
        "label": "mapping(uint256 => mapping(address => bool))",
        "numberOfBytes": "32",
        "value": "t_mapping(t_address,t_bool)"
      },
      "t_string_storage": {
        "encoding": "bytes",
        "label": "string",
        "numberOfBytes": "32"
      },
      "t_struct(Fund)16546_storage": {
        "encoding": "inplace",
        "label": "struct SmartPoolManager.Fund",
        "members": [
          {
            "astId": 16543,
            "contract": "contracts/base/ConfigurableRightsPool.sol:ConfigurableRightsPool",
            "label": "etfAmount",
            "offset": 0,
            "slot": "0",
            "type": "t_uint256"
          },
          {
            "astId": 16545,
            "contract": "contracts/base/ConfigurableRightsPool.sol:ConfigurableRightsPool",
            "label": "fundAmount",
            "offset": 0,
            "slot": "1",
            "type": "t_uint256"
          }
        ],
        "numberOfBytes": "64"
      },
      "t_struct(Rights)15845_storage": {
        "encoding": "inplace",
        "label": "struct RightsManager.Rights",
        "members": [
          {
            "astId": 15834,
            "contract": "contracts/base/ConfigurableRightsPool.sol:ConfigurableRightsPool",
            "label": "canPauseSwapping",
            "offset": 0,
            "slot": "0",
            "type": "t_bool"
          },
          {
            "astId": 15836,
            "contract": "contracts/base/ConfigurableRightsPool.sol:ConfigurableRightsPool",
            "label": "canChangeSwapFee",
            "offset": 1,
            "slot": "0",
            "type": "t_bool"
          },
          {
            "astId": 15838,
            "contract": "contracts/base/ConfigurableRightsPool.sol:ConfigurableRightsPool",
            "label": "canChangeWeights",
            "offset": 2,
            "slot": "0",
            "type": "t_bool"
          },
          {
            "astId": 15840,
            "contract": "contracts/base/ConfigurableRightsPool.sol:ConfigurableRightsPool",
            "label": "canAddRemoveTokens",
            "offset": 3,
            "slot": "0",
            "type": "t_bool"
          },
          {
            "astId": 15842,
            "contract": "contracts/base/ConfigurableRightsPool.sol:ConfigurableRightsPool",
            "label": "canWhitelistLPs",
            "offset": 4,
            "slot": "0",
            "type": "t_bool"
          },
          {
            "astId": 15844,
            "contract": "contracts/base/ConfigurableRightsPool.sol:ConfigurableRightsPool",
            "label": "canTokenWhiteLists",
            "offset": 5,
            "slot": "0",
            "type": "t_bool"
          }
        ],
        "numberOfBytes": "32"
      },
      "t_struct(Status)16510_storage": {
        "encoding": "inplace",
        "label": "struct SmartPoolManager.Status",
        "members": [
          {
            "astId": 16489,
            "contract": "contracts/base/ConfigurableRightsPool.sol:ConfigurableRightsPool",
            "label": "collectPeriod",
            "offset": 0,
            "slot": "0",
            "type": "t_uint256"
          },
          {
            "astId": 16491,
            "contract": "contracts/base/ConfigurableRightsPool.sol:ConfigurableRightsPool",
            "label": "collectEndTime",
            "offset": 0,
            "slot": "1",
            "type": "t_uint256"
          },
          {
            "astId": 16493,
            "contract": "contracts/base/ConfigurableRightsPool.sol:ConfigurableRightsPool",
            "label": "closurePeriod",
            "offset": 0,
            "slot": "2",
            "type": "t_uint256"
          },
          {
            "astId": 16495,
            "contract": "contracts/base/ConfigurableRightsPool.sol:ConfigurableRightsPool",
            "label": "closureEndTime",
            "offset": 0,
            "slot": "3",
            "type": "t_uint256"
          },
          {
            "astId": 16497,
            "contract": "contracts/base/ConfigurableRightsPool.sol:ConfigurableRightsPool",
            "label": "upperCap",
            "offset": 0,
            "slot": "4",
            "type": "t_uint256"
          },
          {
            "astId": 16499,
            "contract": "contracts/base/ConfigurableRightsPool.sol:ConfigurableRightsPool",
            "label": "floorCap",
            "offset": 0,
            "slot": "5",
            "type": "t_uint256"
          },
          {
            "astId": 16501,
            "contract": "contracts/base/ConfigurableRightsPool.sol:ConfigurableRightsPool",
            "label": "managerFee",
            "offset": 0,
            "slot": "6",
            "type": "t_uint256"
          },
          {
            "astId": 16503,
            "contract": "contracts/base/ConfigurableRightsPool.sol:ConfigurableRightsPool",
            "label": "redeemFee",
            "offset": 0,
            "slot": "7",
            "type": "t_uint256"
          },
          {
            "astId": 16505,
            "contract": "contracts/base/ConfigurableRightsPool.sol:ConfigurableRightsPool",
            "label": "issueFee",
            "offset": 0,
            "slot": "8",
            "type": "t_uint256"
          },
          {
            "astId": 16507,
            "contract": "contracts/base/ConfigurableRightsPool.sol:ConfigurableRightsPool",
            "label": "perfermanceFee",
            "offset": 0,
            "slot": "9",
            "type": "t_uint256"
          },
          {
            "astId": 16509,
            "contract": "contracts/base/ConfigurableRightsPool.sol:ConfigurableRightsPool",
            "label": "startClaimFeeTime",
            "offset": 0,
            "slot": "10",
            "type": "t_uint256"
          }
        ],
        "numberOfBytes": "352"
      },
      "t_uint256": {
        "encoding": "inplace",
        "label": "uint256",
        "numberOfBytes": "32"
      }
    }
  }
}