{
  "address": "0x6dbc07ec8341d9d38cbc22d001ce15113a640505",
  "abi": [
    {
      "inputs": [
        {
          "internalType": "bytes",
          "name": "_bytecode",
          "type": "bytes"
        }
      ],
      "stateMutability": "nonpayable",
      "type": "constructor"
    },
    {
      "anonymous": false,
      "inputs": [
        {
          "indexed": true,
          "internalType": "address",
          "name": "middleware",
          "type": "address"
        },
        {
          "indexed": true,
          "internalType": "address",
          "name": "caller",
          "type": "address"
        }
      ],
      "name": "LOG_MIDDLEWARE",
      "type": "event"
    },
    {
      "anonymous": false,
      "inputs": [
        {
          "indexed": true,
          "internalType": "address",
          "name": "vault",
          "type": "address"
        },
        {
          "indexed": true,
          "internalType": "address",
          "name": "caller",
          "type": "address"
        }
      ],
      "name": "LOG_USER_VAULT",
      "type": "event"
    },
    {
      "anonymous": false,
      "inputs": [
        {
          "indexed": true,
          "internalType": "address",
          "name": "caller",
          "type": "address"
        },
        {
          "indexed": true,
          "internalType": "address",
          "name": "pool",
          "type": "address"
        }
      ],
      "name": "LogNewCrp",
      "type": "event"
    },
    {
      "inputs": [],
      "name": "bytecodes",
      "outputs": [
        {
          "internalType": "bytes",
          "name": "",
          "type": "bytes"
        }
      ],
      "stateMutability": "view",
      "type": "function"
    },
    {
      "inputs": [
        {
          "internalType": "address",
          "name": "addr",
          "type": "address"
        }
      ],
      "name": "isCrp",
      "outputs": [
        {
          "internalType": "bool",
          "name": "",
          "type": "bool"
        }
      ],
      "stateMutability": "view",
      "type": "function"
    },
    {
      "inputs": [
        {
          "internalType": "address",
          "name": "factoryAddress",
          "type": "address"
        },
        {
          "components": [
            {
              "internalType": "string",
              "name": "poolTokenSymbol",
              "type": "string"
            },
            {
              "internalType": "string",
              "name": "poolTokenName",
              "type": "string"
            },
            {
              "internalType": "address[]",
              "name": "constituentTokens",
              "type": "address[]"
            },
            {
              "internalType": "uint256[]",
              "name": "tokenBalances",
              "type": "uint256[]"
            },
            {
              "internalType": "uint256[]",
              "name": "tokenWeights",
              "type": "uint256[]"
            },
            {
              "internalType": "uint256",
              "name": "swapFee",
              "type": "uint256"
            },
            {
              "internalType": "uint256",
              "name": "managerFee",
              "type": "uint256"
            },
            {
              "internalType": "uint256",
              "name": "redeemFee",
              "type": "uint256"
            },
            {
              "internalType": "uint256",
              "name": "issueFee",
              "type": "uint256"
            },
            {
              "internalType": "uint256",
              "name": "perfermanceFee",
              "type": "uint256"
            },
            {
              "internalType": "enum IConfigurableRightsPool.Etypes",
              "name": "etype",
              "type": "uint8"
            }
          ],
          "internalType": "struct IConfigurableRightsPool.PoolParams",
          "name": "poolParams",
          "type": "tuple"
        },
        {
          "components": [
            {
              "internalType": "bool",
              "name": "canPauseSwapping",
              "type": "bool"
            },
            {
              "internalType": "bool",
              "name": "canChangeSwapFee",
              "type": "bool"
            },
            {
              "internalType": "bool",
              "name": "canChangeWeights",
              "type": "bool"
            },
            {
              "internalType": "bool",
              "name": "canAddRemoveTokens",
              "type": "bool"
            },
            {
              "internalType": "bool",
              "name": "canWhitelistLPs",
              "type": "bool"
            },
            {
              "internalType": "bool",
              "name": "canTokenWhiteLists",
              "type": "bool"
            }
          ],
          "internalType": "struct RightsManager.Rights",
          "name": "rights",
          "type": "tuple"
        },
        {
          "components": [
            {
              "components": [
                {
                  "components": [
                    {
                      "internalType": "uint256",
                      "name": "level",
                      "type": "uint256"
                    },
                    {
                      "internalType": "uint256",
                      "name": "ratio",
                      "type": "uint256"
                    }
                  ],
                  "internalType": "struct SmartPoolManager.levelParams",
                  "name": "firstLevel",
                  "type": "tuple"
                },
                {
                  "components": [
                    {
                      "internalType": "uint256",
                      "name": "level",
                      "type": "uint256"
                    },
                    {
                      "internalType": "uint256",
                      "name": "ratio",
                      "type": "uint256"
                    }
                  ],
                  "internalType": "struct SmartPoolManager.levelParams",
                  "name": "secondLevel",
                  "type": "tuple"
                },
                {
                  "components": [
                    {
                      "internalType": "uint256",
                      "name": "level",
                      "type": "uint256"
                    },
                    {
                      "internalType": "uint256",
                      "name": "ratio",
                      "type": "uint256"
                    }
                  ],
                  "internalType": "struct SmartPoolManager.levelParams",
                  "name": "thirdLevel",
                  "type": "tuple"
                },
                {
                  "components": [
                    {
                      "internalType": "uint256",
                      "name": "level",
                      "type": "uint256"
                    },
                    {
                      "internalType": "uint256",
                      "name": "ratio",
                      "type": "uint256"
                    }
                  ],
                  "internalType": "struct SmartPoolManager.levelParams",
                  "name": "fourLevel",
                  "type": "tuple"
                }
              ],
              "internalType": "struct SmartPoolManager.feeParams",
              "name": "managerFee",
              "type": "tuple"
            },
            {
              "components": [
                {
                  "components": [
                    {
                      "internalType": "uint256",
                      "name": "level",
                      "type": "uint256"
                    },
                    {
                      "internalType": "uint256",
                      "name": "ratio",
                      "type": "uint256"
                    }
                  ],
                  "internalType": "struct SmartPoolManager.levelParams",
                  "name": "firstLevel",
                  "type": "tuple"
                },
                {
                  "components": [
                    {
                      "internalType": "uint256",
                      "name": "level",
                      "type": "uint256"
                    },
                    {
                      "internalType": "uint256",
                      "name": "ratio",
                      "type": "uint256"
                    }
                  ],
                  "internalType": "struct SmartPoolManager.levelParams",
                  "name": "secondLevel",
                  "type": "tuple"
                },
                {
                  "components": [
                    {
                      "internalType": "uint256",
                      "name": "level",
                      "type": "uint256"
                    },
                    {
                      "internalType": "uint256",
                      "name": "ratio",
                      "type": "uint256"
                    }
                  ],
                  "internalType": "struct SmartPoolManager.levelParams",
                  "name": "thirdLevel",
                  "type": "tuple"
                },
                {
                  "components": [
                    {
                      "internalType": "uint256",
                      "name": "level",
                      "type": "uint256"
                    },
                    {
                      "internalType": "uint256",
                      "name": "ratio",
                      "type": "uint256"
                    }
                  ],
                  "internalType": "struct SmartPoolManager.levelParams",
                  "name": "fourLevel",
                  "type": "tuple"
                }
              ],
              "internalType": "struct SmartPoolManager.feeParams",
              "name": "issueFee",
              "type": "tuple"
            },
            {
              "components": [
                {
                  "components": [
                    {
                      "internalType": "uint256",
                      "name": "level",
                      "type": "uint256"
                    },
                    {
                      "internalType": "uint256",
                      "name": "ratio",
                      "type": "uint256"
                    }
                  ],
                  "internalType": "struct SmartPoolManager.levelParams",
                  "name": "firstLevel",
                  "type": "tuple"
                },
                {
                  "components": [
                    {
                      "internalType": "uint256",
                      "name": "level",
                      "type": "uint256"
                    },
                    {
                      "internalType": "uint256",
                      "name": "ratio",
                      "type": "uint256"
                    }
                  ],
                  "internalType": "struct SmartPoolManager.levelParams",
                  "name": "secondLevel",
                  "type": "tuple"
                },
                {
                  "components": [
                    {
                      "internalType": "uint256",
                      "name": "level",
                      "type": "uint256"
                    },
                    {
                      "internalType": "uint256",
                      "name": "ratio",
                      "type": "uint256"
                    }
                  ],
                  "internalType": "struct SmartPoolManager.levelParams",
                  "name": "thirdLevel",
                  "type": "tuple"
                },
                {
                  "components": [
                    {
                      "internalType": "uint256",
                      "name": "level",
                      "type": "uint256"
                    },
                    {
                      "internalType": "uint256",
                      "name": "ratio",
                      "type": "uint256"
                    }
                  ],
                  "internalType": "struct SmartPoolManager.levelParams",
                  "name": "fourLevel",
                  "type": "tuple"
                }
              ],
              "internalType": "struct SmartPoolManager.feeParams",
              "name": "redeemFee",
              "type": "tuple"
            },
            {
              "components": [
                {
                  "components": [
                    {
                      "internalType": "uint256",
                      "name": "level",
                      "type": "uint256"
                    },
                    {
                      "internalType": "uint256",
                      "name": "ratio",
                      "type": "uint256"
                    }
                  ],
                  "internalType": "struct SmartPoolManager.levelParams",
                  "name": "firstLevel",
                  "type": "tuple"
                },
                {
                  "components": [
                    {
                      "internalType": "uint256",
                      "name": "level",
                      "type": "uint256"
                    },
                    {
                      "internalType": "uint256",
                      "name": "ratio",
                      "type": "uint256"
                    }
                  ],
                  "internalType": "struct SmartPoolManager.levelParams",
                  "name": "secondLevel",
                  "type": "tuple"
                },
                {
                  "components": [
                    {
                      "internalType": "uint256",
                      "name": "level",
                      "type": "uint256"
                    },
                    {
                      "internalType": "uint256",
                      "name": "ratio",
                      "type": "uint256"
                    }
                  ],
                  "internalType": "struct SmartPoolManager.levelParams",
                  "name": "thirdLevel",
                  "type": "tuple"
                },
                {
                  "components": [
                    {
                      "internalType": "uint256",
                      "name": "level",
                      "type": "uint256"
                    },
                    {
                      "internalType": "uint256",
                      "name": "ratio",
                      "type": "uint256"
                    }
                  ],
                  "internalType": "struct SmartPoolManager.levelParams",
                  "name": "fourLevel",
                  "type": "tuple"
                }
              ],
              "internalType": "struct SmartPoolManager.feeParams",
              "name": "perfermanceFee",
              "type": "tuple"
            }
          ],
          "internalType": "struct SmartPoolManager.KolPoolParams",
          "name": "kolPoolParams",
          "type": "tuple"
        },
        {
          "internalType": "address[]",
          "name": "owners",
          "type": "address[]"
        },
        {
          "internalType": "uint256[]",
          "name": "ownerPercentage",
          "type": "uint256[]"
        }
      ],
      "name": "newCrp",
      "outputs": [
        {
          "internalType": "contract IConfigurableRightsPool",
          "name": "",
          "type": "address"
        }
      ],
      "stateMutability": "nonpayable",
      "type": "function"
    },
    {
      "inputs": [
        {
          "internalType": "address",
          "name": "newVault",
          "type": "address"
        }
      ],
      "name": "setUserVault",
      "outputs": [],
      "stateMutability": "nonpayable",
      "type": "function"
    },
    {
      "inputs": [],
      "name": "userVault",
      "outputs": [
        {
          "internalType": "address",
          "name": "",
          "type": "address"
        }
      ],
      "stateMutability": "view",
      "type": "function"
    }
  ],
  "transactionHash": "0x676caf71f6785164b27f340bee3222a1f096bfa83e582be261208bee060e8d4d",
  "args": [
    "0x608060405262278d006022553480156200001857600080fd5b5060405162006236380380620062368339810160408190526200003b91620001cf565b815182908290620000549060039060208501906200008c565b5080516200006a9060049060208401906200008c565b5050600580546001600160a01b0319163317905550506001600a555062000236565b828054600181600116156101000203166002900490600052602060002090601f016020900481019282601f10620000cf57805160ff1916838001178555620000ff565b82800160010185558215620000ff579182015b82811115620000ff578251825591602001919060010190620000e2565b506200010d92915062000111565b5090565b5b808211156200010d576000815560010162000112565b600082601f83011262000139578081fd5b81516001600160401b038082111562000150578283fd5b6040516020601f8401601f191682018101838111838210171562000172578586fd5b806040525081945083825286818588010111156200018f57600080fd5b600092505b83831015620001b3578583018101518284018201529182019162000194565b83831115620001c55760008185840101525b5050505092915050565b60008060408385031215620001e2578182fd5b82516001600160401b0380821115620001f9578384fd5b620002078683870162000128565b935060208501519150808211156200021d578283fd5b506200022c8582860162000128565b9150509250929050565b615ff080620002466000396000f3fe608060405234801561001057600080fd5b50600436106102a35760003560e01c80637228c87b1161016e5780637228c87b146104a757806372ba9acd146104c657806373a9855c146104e757806374983a0d146104fc5780637dc2cd9814610504578063806c6f871461050c5780638259e6a01461051f57806391a806c91461053257806392eefe9b1461054557806395d89b4114610558578063980e8db614610560578063992f6ba51461057a5780639d829c2b1461058d578063a0e67e2b14610595578063a3f4df7e146105aa578063a6c245c4146105b2578063a89ae4ba146105c5578063a9059cbb146105cd578063b02f0b73146105e0578063b61d27f6146105f3578063b64ef17b14610606578063c5318d0f1461060e578063c83a1c2d14610621578063d29986c114610634578063d2fed42e1461063c578063d73dd62314610644578063dd62ed3e14610657578063e2762d4b1461066a578063f3b085721461067d576102a3565b8063025e7c27146102a857806306fdde03146102d15780630892b93d146102e6578063095dcccc146102fb578063095ea7b31461030e5780630a1659401461032e578063173825d91461033657806318160ddd14610349578063220eb7601461035e57806323b872dd1461037157806327304dfd146103845780632e0f2625146103975780633018205f146103ac578063309a042c146103b4578063313ce567146103c957806337c6f4d9146103d15780633befcde8146103e45780633ef14479146103f7578063430bf08a1461040a57806347786d37146104125780634ba57882146104255780635468d6d71461043857806355b190551461044057806355c32a231461045357806356fb3bd614610466578063661884631461046e5780636e49db1c1461048157806370a0823114610494575b600080fd5b6102bb6102b636600461520d565b610685565b6040516102c891906154c9565b60405180910390f35b6102d96106ac565b6040516102c89190615761565b6102f96102f436600461533f565b610742565b005b6102f9610309366004614f33565b6109b7565b61032161031c366004614f33565b6109e4565b6040516102c89190615668565b6102bb610a3d565b6102f9610344366004614cd3565b610a4c565b610351610c2e565b6040516102c89190615d7e565b6102f961036c36600461520d565b610c34565b61032161037f366004614d43565b610c5f565b610321610392366004614cd3565b610d89565b61039f610d9e565b6040516102c89190615e86565b6102bb610da3565b6103bc610db2565b6040516102c89190615655565b61039f610e09565b6103216103df3660046151ee565b610e0e565b6102f96103f2366004615286565b610ea3565b6102f9610405366004615079565b61165d565b6102bb611750565b6102f961042036600461520d565b61175f565b6102f961043336600461520d565b61188d565b6103216118b5565b6102f961044e366004614dc8565b6118c5565b6102f9610461366004614f33565b611cb8565b610321611ce1565b61032161047c366004614f33565b611cf1565b6102f961048f366004614d83565b611dcb565b6103516104a2366004614cd3565b612176565b6104af612191565b6040516102c89b9a99989796959493929190615e38565b6104d96104d4366004614cd3565b6121b5565b6040516102c892919061581e565b6104ef6121ce565b6040516102c8919061580a565b6102bb6121d7565b6103516121ef565b61032161051a366004614cd3565b6121f5565b6102f961052d36600461520d565b61223e565b6104d9610540366004614cd3565b6122db565b6102f9610553366004614cd3565b6122f4565b6102d96123a0565b610568612401565b6040516102c896959493929190615694565b6102f9610588366004614f33565b61243a565b6102bb612563565b61059d61257b565b6040516102c891906155d0565b6102d96125dc565b6102f96105c0366004615113565b612608565b6102bb6127bb565b6103216105db366004614f33565b6127ca565b6102f96105ee36600461523d565b612806565b6102d9610601366004614f5e565b612f6e565b6102bb613132565b61035161061c36600461520d565b613141565b6102f961062f366004614cd3565b61315f565b61035161327b565b6102f9613281565b610321610652366004614f33565b61365b565b610351610665366004614d0b565b6136cf565b6102f9610678366004614cd3565b6136fa565b6102bb61382f565b6007818154811061069257fe5b6000918252602090912001546001600160a01b0316905081565b60048054604080516020601f60026000196101006001881615020190951694909404938401819004810282018101909252828152606093909290918301828280156107385780601f1061070d57610100808354040283529160200191610738565b820191906000526020600020905b81548152906001019060200180831161071b57829003601f168201915b5050505050905090565b6005546001600160a01b031633146107755760405162461bcd60e51b815260040161076c9061584f565b60405180910390fd5b336001600160a01b03166000356001600160e01b0319166001600160e01b0319166000366040516107a792919061574d565b60405180910390a26002600a5414156107d25760405162461bcd60e51b815260040161076c90615a4b565b6002600a55600160275460ff1660018111156107ea57fe5b14156109a357601654604051633e9fc0bd60e01b815273D3090165Aa2A37e952Df395d95bd5305D811744591633e9fc0bd9161082c9187918990600401615d9e565b60006040518083038186803b15801561084457600080fd5b505af4158015610858573d6000803e3d6000fd5b50505050610895601f60008154811061086d57fe5b906000526020600020015461088f83602001518761384790919063ffffffff16565b906138c4565b601655601f80546108c391906000906108aa57fe5b600091825260209091200154825161088f908790613847565b6017556040516108d2906154a7565b60405190819003812060165490913391600080516020615f5b833981519152916108fe9160009161581e565b60405180910390a3604051610912906154b8565b60405190819003812060175490913391600080516020615f5b8339815191529161093e9160009161581e565b60405180910390a360004284018184600281111561095857fe5b141561096757601e915061098f565b600184600281111561097557fe5b1415610987576301e13380915061098f565b6303c2670091505b601285905560138190556014829055016015555b6109ac84613955565b50506001600a555050565b3330146109d65760405162461bcd60e51b815260040161076c9061584f565b6109e08282613ca7565b5050565b3360008181526002602090815260408083206001600160a01b03871680855292528083208590555191929091600080516020615f9b83398151915290610a2b908690615d7e565b60405180910390a35060015b92915050565b600f546001600160a01b031681565b6005546001600160a01b03163314610a765760405162461bcd60e51b815260040161076c9061584f565b6001600160a01b0381166000908152600660205260408120805460ff19169055805b600754811015610b9a57826001600160a01b031660078281548110610ab957fe5b6000918252602090912001546001600160a01b03161415610b9257600780546000198101908110610ae657fe5b600091825260209091200154600780546001600160a01b039092169183908110610b0c57fe5b9060005260206000200160006101000a8154816001600160a01b0302191690836001600160a01b0316021790555060088181548110610b4757fe5b90600052602060002001549150600860016008805490500381548110610b6957fe5b906000526020600020015460088281548110610b8157fe5b600091825260209091200155610b9a565b600101610a98565b506007805480610ba657fe5b600082815260209020810160001990810180546001600160a01b03191690550190556008805480610bd357fe5b600082815260208120820160001990810182905590910190915560098054839003905560405182916001600160a01b038516917f7b0884b4b6bb4e0c1385ad42168fa556c14d4d799c1bf22f081aff3efff6ea0c9190a35050565b60005490565b333014610c535760405162461bcd60e51b815260040161076c9061584f565b610c5c81613cb2565b50565b60006001600160a01b038316610c875760405162461bcd60e51b815260040161076c90615931565b336001600160a01b0385161480610cc157506001600160a01b03841660009081526002602090815260408083203384529091529020548211155b610cdd5760405162461bcd60e51b815260040161076c90615b9a565b610ce8848484613d1a565b6001600160a01b0384166000818152600260209081526040808320338085529252909120549114801590610d1e57506000198114155b15610d7c57610d2d8184613db9565b6001600160a01b03861660008181526002602090815260408083203380855292529182902084905590519092600080516020615f9b83398151915291610d739190615d7e565b60405180910390a35b60019150505b9392505050565b60066020526000908152604090205460ff1681565b601281565b6005546001600160a01b031690565b6060600880548060200260200160405190810160405280929190818152602001828054801561073857602002820191906000526020600020905b815481526020019060010190808311610dec575050505050905090565b601290565b6040516322c1aa2560e11b8152600090732c05086fbc0701a179e05416e8142c8ff100f85f90634583544a90610e4b906011908690600401615d09565b60206040518083038186803b158015610e6357600080fd5b505af4158015610e77573d6000803e3d6000fd5b505050506040513d601f19601f82011682018060405250810190610e9b9190615169565b90505b919050565b336001600160a01b03166000356001600160e01b0319166001600160e01b031916600036604051610ed592919061574d565b60405180910390a26002600a541415610f005760405162461bcd60e51b815260040161076c90615a4b565b6002600a556010546001600160a01b0316610f2d5760405162461bcd60e51b815260040161076c906159b0565b6011543360009081526021602052604090205473D3090165Aa2A37e952Df395d95bd5305D81174459163dba4989a9160ff600160201b90920482169116600160275460ff166001811115610f7d57fe5b146012600101546040518563ffffffff1660e01b8152600401610fa394939291906156c4565b60006040518083038186803b158015610fbb57600080fd5b505af4158015610fcf573d6000803e3d6000fd5b505060105460405163a1925f1d60e01b81526060935073D3090165Aa2A37e952Df395d95bd5305D8117445925063a1925f1d916110209130916001600160a01b0316908a908a908a906004016157ae565b60006040518083038186803b15801561103857600080fd5b505af415801561104c573d6000803e3d6000fd5b505050506040513d6000823e601f3d908101601f1916820160405261107491908101906150d9565b90506060601060009054906101000a90046001600160a01b03166001600160a01b031663cc77828d6040518163ffffffff1660e01b815260040160006040518083038186803b1580156110c657600080fd5b505afa1580156110da573d6000803e3d6000fd5b505050506040513d6000823e601f3d908101601f191682016040526111029190810190614fe1565b9050606081516001600160401b038111801561111d57600080fd5b50604051908082528060200260200182016040528015611147578160200160208202803683370190505b50601a54909150600090600160275460ff16600181111561116457fe5b14156112f25760245460405163108ad9bd60e21b81526001600160a01b039091169063422b66f49061119c90879089906004016155e3565b602060405180830381600087803b1580156111b657600080fd5b505af11580156111ca573d6000803e3d6000fd5b505050506040513d601f19601f820116820180604052508101906111ee9190615225565b9150600f60009054906101000a90046001600160a01b03166001600160a01b031663703a9ec96040518163ffffffff1660e01b815260040160206040518083038186803b15801561123e57600080fd5b505afa158015611252573d6000803e3d6000fd5b505050506040513d601f19601f820116820180604052508101906112769190614cef565b6001600160a01b031663d7256c70873387896040518563ffffffff1660e01b81526004016112a7949392919061551b565b600060405180830381600087803b1580156112c157600080fd5b505af11580156112d5573d6000803e3d6000fd5b5050602454600160b01b900460ff16151591506112f29050575060005b60005b845181101561147457600085828151811061130c57fe5b60200260200101519050600087838151811061132457fe5b60200260200101519050816001600160a01b0316336001600160a01b0316826040516113509190615d7e565b60405180910390a260006113648286613847565b905061137a83336113758585613db9565b613df2565b8415611469576040516323b872dd60e01b81526000906001600160a01b038516906323b872dd906113b3903390309087906004016154dd565b602060405180830381600087803b1580156113cd57600080fd5b505af11580156113e1573d6000803e3d6000fd5b505050506040513d601f19601f820116820180604052508101906114059190615169565b602354909150600090611425906001600160a01b0387811691168561403b565b90508180156114315750805b61144d5760405162461bcd60e51b815260040161076c90615bfb565b8289878151811061145a57fe5b60200260200101818152505050505b5050506001016112f5565b5080156114e557602354604051631483d99d60e01b81526001600160a01b0390911690631483d99d906114b290879087908190600090600401615608565b600060405180830381600087803b1580156114cc57600080fd5b505af11580156114e0573d6000803e3d6000fd5b505050505b6114ee896118ac565b6114f8338a6109d6565b811561153f573360009081526025602052604090208054611519908b6141e2565b81553360009081526025602052604090206001015461153890846141e2565b6001909101555b6000600160275460ff16600181111561155457fe5b1480156115d65750601260050154306001600160a01b03166318160ddd6040518163ffffffff1660e01b815260040160206040518083038186803b15801561159b57600080fd5b505afa1580156115af573d6000803e3d6000fd5b505050506040513d601f19601f820116820180604052508101906115d39190615225565b10155b80156115ec5750602454600160b01b900460ff16155b9050801561164c576024805460ff60b01b1916600160b01b17905561160f614207565b604051309033907f9c950e0ed06c25739b090d335d2f9a89f69ad1b4526959b521644fca3d99666090611643904290615d7e565b60405180910390a35b50506001600a555050505050505050565b6005546001600160a01b031633146116875760405162461bcd60e51b815260040161076c9061584f565b80518251146116a85760405162461bcd60e51b815260040161076c90615a01565b60005b8251811015611723578181815181106116c057fe5b60200260200101516009600082825401925050819055506001600660008584815181106116e957fe5b6020908102919091018101516001600160a01b03168252810191909152604001600020805460ff19169115159190911790556001016116ab565b508151611737906007906020850190614993565b50805161174b9060089060208401906149f8565b505050565b6023546001600160a01b031681565b336001600160a01b03166000356001600160e01b0319166001600160e01b03191660003660405161179192919061574d565b60405180910390a26002600a5414156117bc5760405162461bcd60e51b815260040161076c90615a4b565b6002600a556010546001600160a01b03166117e95760405162461bcd60e51b815260040161076c906159b0565b6005546001600160a01b031633146118135760405162461bcd60e51b815260040161076c9061584f565b600060275460ff16600181111561182657fe5b146118435760405162461bcd60e51b815260040161076c90615cde565b60405161184f906154a7565b60405190819003812060165490913391600080516020615f5b8339815191529161187b9190869061581e565b60405180910390a36016556001600a55565b3330146118ac5760405162461bcd60e51b815260040161076c9061584f565b610c5c81614476565b602454600160b01b900460ff1681565b73D3090165Aa2A37e952Df395d95bd5305D81174456380681cab8360a001518460c001518561010001518660e001518761012001518860600151518960800151518a6040015151602460159054906101000a900460ff166040518a63ffffffff1660e01b815260040161194099989796959493929190615df7565b60006040518083038186803b15801561195857600080fd5b505af415801561196c573d6000803e3d6000fd5b50506024805460ff60a81b1916600160a81b17905550508051601180546020808501516040808701516060880151608089015160a08a01511515600160281b0260ff60281b19911515600160201b0260ff60201b1993151563010000000263ff00000019951515620100000262ff0000199815156101000261ff00199d151560ff19909c169b909b179c909c169990991796909616999099179290921695909517949094169190911792909216939093179091558301518051611a3392601e920190614993565b5060608201518051611a4d91601f916020909101906149f8565b5060808201518051611a6591602091908201906149f8565b506040805161016081018252600080825260208201819052918101829052606081018290526000196080820181905260a0820183905260c08581015190830181905260e0808701519084018190526101008088015190850181905261012080890151908601819052426101409687018190526012889055601388905560148890556015889055601695909555601796909655601892909255601955601a55601b92909255601c919091558201516027805460ff191660018381811115611b2757fe5b0217905550600f80546001600160a01b0319166001600160a01b0385811691909117918290556040805163b18b78dd60e01b81529051929091169163b18b78dd91600480820192602092909190829003018186803b158015611b8857600080fd5b505afa158015611b9c573d6000803e3d6000fd5b505050506040513d601f19601f82011682018060405250810190611bc09190614cef565b602480546001600160a01b0319166001600160a01b03928316179055600f54604080516311b2515f60e31b815290519190921691638d928af8916004808301926020929190829003018186803b158015611c1957600080fd5b505afa158015611c2d573d6000803e3d6000fd5b505050506040513d601f19601f82011682018060405250810190611c519190614cef565b602380546001600160a01b0319166001600160a01b0392909216919091179055601954601a54601854601b546040517f3d6667963e842e2b5ff1d4feab2c9b92f17c9003592e2ad229952eeb9a293fd091611cab91615d7e565b60405180910390a4505050565b333014611cd75760405162461bcd60e51b815260040161076c9061584f565b6109e082826144a3565b602454600160a81b900460ff1681565b3360009081526002602090815260408083206001600160a01b0386168452909152812054808310611d45573360009081526002602090815260408083206001600160a01b0388168452909152812055611d74565b611d4f8184613db9565b3360009081526002602090815260408083206001600160a01b03891684529091529020555b3360008181526002602090815260408083206001600160a01b038916808552925291829020549151909291600080516020615f9b83398151915291611db99190615d7e565b60405180910390a35060019392505050565b336001600160a01b03166000356001600160e01b0319166001600160e01b031916600036604051611dfd92919061574d565b60405180910390a26002600a541415611e285760405162461bcd60e51b815260040161076c90615a4b565b6002600a553360009081526006602052604090205460ff1680611e5557506005546001600160a01b031633145b611e715760405162461bcd60e51b815260040161076c9061582c565b6010546001600160a01b0316611e995760405162461bcd60e51b815260040161076c906159b0565b73D3090165Aa2A37e952Df395d95bd5305D811744563eab73485600160275460ff166001811115611ec657fe5b60135460155460115460405160e087901b6001600160e01b0319168152611f039594909414936201000090910460ff16908b908b90600401615715565b60006040518083038186803b158015611f1b57600080fd5b505af4158015611f2f573d6000803e3d6000fd5b50505050611f3c836144ae565b60235460405163607e58b360e11b81526000916001600160a01b03169063c0fcb16690611f6d9030906004016154c9565b60206040518083038186803b158015611f8557600080fd5b505afa158015611f99573d6000803e3d6000fd5b505050506040513d601f19601f82011682018060405250810190611fbd9190615169565b905080156120285760235460405163edb12adf60e01b81526001600160a01b039091169063edb12adf90611ff59030906004016154c9565b600060405180830381600087803b15801561200f57600080fd5b505af1158015612023573d6000803e3d6000fd5b505050505b601054604051630bcded8960e21b81526001600160a01b0390911690632f37b624906120589087906004016154c9565b60206040518083038186803b15801561207057600080fd5b505afa158015612084573d6000803e3d6000fd5b505050506040513d601f19601f820116820180604052508101906120a89190615169565b6120ec576010546000906120cb906001600160a01b03878116911660001961403b565b9050806120ea5760405162461bcd60e51b815260040161076c90615bfb565b505b6010546040516350884c9160e01b815273D3090165Aa2A37e952Df395d95bd5305D8117445916350884c919161213a9130916001600160a01b03909116908a908a908a908a90600401615774565b60006040518083038186803b15801561215257600080fd5b505af4158015612166573d6000803e3d6000fd5b50506001600a5550505050505050565b6001600160a01b031660009081526001602052604090205490565b601254601354601454601554601654601754601854601954601a54601b54601c548b565b6026602052600090815260409020805460019091015482565b60275460ff1681565b732c05086fbc0701a179e05416e8142c8ff100f85f90565b60225481565b601154600090600160201b900460ff161561222c57506001600160a01b03811660009081526021602052604090205460ff16610e9e565b506001600160a01b0381161515610e9e565b6005546001600160a01b031633146122685760405162461bcd60e51b815260040161076c9061584f565b336001600160a01b03166000356001600160e01b0319166001600160e01b03191660003660405161229a92919061574d565b60405180910390a26002600a5414156122c55760405162461bcd60e51b815260040161076c90615a4b565b6002600a556122d381613955565b506001600a55565b6025602052600090815260409020805460019091015482565b6005546001600160a01b0316331461231e5760405162461bcd60e51b815260040161076c9061584f565b6001600160a01b0381166123445760405162461bcd60e51b815260040161076c90615931565b6005546040516001600160a01b038084169216907f8be0079c531659141344cd1fd0a4f28419497f9722a3daafe3b4186f6b6457e090600090a3600580546001600160a01b0319166001600160a01b0392909216919091179055565b60038054604080516020601f60026000196101006001881615020190951694909404938401819004810282018101909252828152606093909290918301828280156107385780601f1061070d57610100808354040283529160200191610738565b60115460ff80821691610100810482169162010000820481169163010000008104821691600160201b8204811691600160281b90041686565b6005546001600160a01b031633146124645760405162461bcd60e51b815260040161076c9061584f565b6001600160a01b03821660009081526006602052604090205460ff161561249d5760405162461bcd60e51b815260040161076c906158d2565b6001600160a01b038216600081815260066020526040808220805460ff19166001908117909155600780548083019091557fa66cc928b5edb82af9bd49922954155ab7b0942694bea4ce44661d9a8736c6880180546001600160a01b0319168517905560088054918201815583527ff3f7a9fe364faab93b216da50a3214154f22a0a2b415b23a84c8169e8b636ee3018490556009805485019055518392917fbd5dcf0b25226117c4a68a0129ffdd4b0541ef5e482ad7de9a96ccb6d6a8ebde91a35050565b73D3090165Aa2A37e952Df395d95bd5305D811744590565b6060600780548060200260200160405190810160405280929190818152602001828054801561073857602002820191906000526020600020905b81546001600160a01b031681526001909101906020018083116125b5575050505050905090565b6040518060400160405280601081526020016f11195cde5b8814db585c9d08141bdbdb60821b81525081565b6005546001600160a01b031633146126325760405162461bcd60e51b815260040161076c9061584f565b601154600160281b900460ff1680156126555750602454600160a01b900460ff16155b6126715760405162461bcd60e51b815260040161076c9061587b565b80518251146126925760405162461bcd60e51b815260040161076c90615bca565b60005b81518110156127a357600f5483516000916001600160a01b031690638f49f44d908690859081106126c257fe5b60200260200101518585815181106126d657fe5b60200260200101516040518363ffffffff1660e01b81526004016126fb929190615d87565b60206040518083038186803b15801561271357600080fd5b505afa158015612727573d6000803e3d6000fd5b505050506040513d601f19601f8201168201806040525081019061274b9190615169565b90508061276a5760405162461bcd60e51b815260040161076c9061595b565b61279a84838151811061277957fe5b602002602001015184848151811061278d57fe5b6020026020010151614581565b50600101612695565b50506024805460ff60a01b1916600160a01b17905550565b6024546001600160a01b031681565b60006001600160a01b0383166127f25760405162461bcd60e51b815260040161076c90615931565b6127fd338484613d1a565b50600192915050565b336001600160a01b03166000356001600160e01b0319166001600160e01b03191660003660405161283892919061574d565b60405180910390a26002600a5414156128635760405162461bcd60e51b815260040161076c90615a4b565b6002600a556010546001600160a01b03166128905760405162461bcd60e51b815260040161076c906159b0565b73D3090165Aa2A37e952Df395d95bd5305D8117445633468facb600160275460ff1660018111156128bd57fe5b60245460155460135433600090815260256020526040908190208054600190910154915160e089901b6001600160e01b0319168152612914979690961495600160b01b90950460ff16949091908c906004016156e3565b604080518083038186803b15801561292b57600080fd5b505af415801561293f573d6000803e3d6000fd5b505050506040513d601f19601f82011682018060405250810190612963919061531c565b33600090815260256020526040808220600181019390935592909155601054915163151c70f960e21b8152909160609173D3090165Aa2A37e952Df395d95bd5305D811744591635471c3e4916129cf9130916001600160a01b03909116908a908a908a906004016157ae565b60006040518083038186803b1580156129e757600080fd5b505af41580156129fb573d6000803e3d6000fd5b505050506040513d6000823e601f3d908101601f19168201604052612a2391908101906152e2565b91509150612a313386611cd7565b612a3a82610c53565b6010546040805163cc77828d60e01b815290516060926001600160a01b03169163cc77828d916004808301926000929190829003018186803b158015612a7f57600080fd5b505afa158015612a93573d6000803e3d6000fd5b505050506040513d6000823e601f3d908101601f19168201604052612abb9190810190614fe1565b9050606081516001600160401b0381118015612ad657600080fd5b50604051908082528060200260200182016040528015612b00578160200160208202803683370190505b509050600080600160275460ff166001811115612b1957fe5b148015612b2857506015544210155b15612bb45760245460405163108ad9bd60e21b81526001600160a01b039091169063422b66f490612b5f90879089906004016155e3565b602060405180830381600087803b158015612b7957600080fd5b505af1158015612b8d573d6000803e3d6000fd5b505050506040513d601f19601f82011682018060405250810190612bb19190615225565b91505b601954600160275460ff166001811115612bca57fe5b1415612bfe57602454600090600160b01b900460ff16158015612bef57506013544210155b90508015612bfc57600091505b505b8215612cd957336000908152602660209081526040808320805460019182015460259094529382902080549101549151633796ed7f60e21b81528e9473D3090165Aa2A37e952Df395d95bd5305D81174459463de5bb5fc94612c6b94929391929188908c90600401615dcf565b60606040518083038186803b158015612c8357600080fd5b505af4158015612c97573d6000803e3d6000fd5b505050506040513d601f19601f82011682018060405250810190612cbb91906153ac565b33600090815260266020526040902060018101929092559190559250505b606085516001600160401b0381118015612cf257600080fd5b50604051908082528060200260200182016040528015612d1c578160200160208202803683370190505b50905060005b8651811015612ed2576000878281518110612d3957fe5b60200260200101519050600080600073D3090165Aa2A37e952Df395d95bd5305D811744563c0dcb71f8d8781518110612d6e57fe5b6020026020010151898b6012600901546040518563ffffffff1660e01b8152600401612d9d9493929190615db4565b60606040518083038186803b158015612db557600080fd5b505af4158015612dc9573d6000803e3d6000fd5b505050506040513d601f19601f82011682018060405250810190612ded91906153ac565b92509250925080868681518110612e0057fe5b602002602001018181525050836001600160a01b0316336001600160a01b031683604051612e2e9190615d7e565b60405180910390a2612e41843384614688565b86151580612e5b5750600088118015612e5b5750601b5415155b15612ec257612e6b843085614688565b602354600090612e88906001600160a01b0387811691168661403b565b905080612ea75760405162461bcd60e51b815260040161076c90615ab3565b838b8781518110612eb457fe5b602002602001018181525050505b505060019092019150612d229050565b5081151580612eed5750600083118015612eed5750601b5415155b15612f5c57602354604051631483d99d60e01b81526001600160a01b0390911690631483d99d90612f2990899089908690600190600401615608565b600060405180830381600087803b158015612f4357600080fd5b505af1158015612f57573d6000803e3d6000fd5b505050505b50506001600a55505050505050505050565b6060336001600160a01b03166000356001600160e01b0319166001600160e01b031916600036604051612fa292919061574d565b60405180910390a26002600a541415612fcd5760405162461bcd60e51b815260040161076c90615a4b565b6002600a556010546001600160a01b0316612ffa5760405162461bcd60e51b815260040161076c906159b0565b600f546040516338f0d24560e01b81526001600160a01b03909116906338f0d2459061302c9030903390600401615501565b60206040518083038186803b15801561304457600080fd5b505afa158015613058573d6000803e3d6000fd5b505050506040513d601f19601f8201168201806040525081019061307c9190615169565b6130985760405162461bcd60e51b815260040161076c906158a2565b601054604051635b0e93fb60e11b81526001600160a01b039091169063b61d27f6906130ce90889088908890889060040161557d565b600060405180830381600087803b1580156130e857600080fd5b505af11580156130fc573d6000803e3d6000fd5b505050506040513d6000823e601f3d908101601f191682016040526131249190810190615185565b6001600a5595945050505050565b6010546001600160a01b031681565b6008818154811061314e57fe5b600091825260209091200154905081565b6005546001600160a01b031633146131895760405162461bcd60e51b815260040161076c9061584f565b6002600a5414156131ac5760405162461bcd60e51b815260040161076c90615a4b565b6002600a556040513390600080356001600160e01b031916916131d19190369061574d565b60405180910390a2601154604051630d3aa47160e41b815273D3090165Aa2A37e952Df395d95bd5305D81174459163d3aa47109161322191600160201b900460ff16906001908690600401615673565b60006040518083038186803b15801561323957600080fd5b505af415801561324d573d6000803e3d6000fd5b505050506001600160a01b03166000908152602160205260409020805460ff19166001908117909155600a55565b60095481565b336001600160a01b03166000356001600160e01b0319166001600160e01b0319166000366040516132b392919061574d565b60405180910390a26002600a5414156132de5760405162461bcd60e51b815260040161076c90615a4b565b6002600a55600f546040805163911fb03560e01b8152905133926001600160a01b03169163911fb035916004808301926020929190829003018186803b15801561332757600080fd5b505afa15801561333b573d6000803e3d6000fd5b505050506040513d601f19601f8201168201806040525081019061335f9190614cef565b6001600160a01b0316146133855760405162461bcd60e51b815260040161076c9061598e565b6010546001600160a01b03166133ad5760405162461bcd60e51b815260040161076c906159b0565b60006133be426012600a0154613db9565b90506022548110156133e25760405162461bcd60e51b815260040161076c90615a70565b600060225482816133ef57fe5b0490506060601060009054906101000a90046001600160a01b03166001600160a01b031663cc77828d6040518163ffffffff1660e01b815260040160006040518083038186803b15801561344257600080fd5b505afa158015613456573d6000803e3d6000fd5b505050506040513d6000823e601f3d908101601f1916820160405261347e9190810190614fe1565b9050606081516001600160401b038111801561349957600080fd5b506040519080825280602002602001820160405280156134c3578160200160208202803683370190505b50905060005b82518110156135db5760008382815181106134e057fe5b602090810291909101015160105460405163f8b2cb4f60e01b81529192506000916001600160a01b039091169063f8b2cb4f906135219085906004016154c9565b60206040518083038186803b15801561353957600080fd5b505afa15801561354d573d6000803e3d6000fd5b505050506040513d601f19601f820116820180604052508101906135719190615225565b9050600061359082600c89601260060154028161358a57fe5b04613847565b905061359d833083614688565b6023546135b7906001600160a01b0385811691168361403b565b50808585815181106135c557fe5b60209081029190910101525050506001016134c9565b50602354604051630bac7b8160e01b81526001600160a01b0390911690630bac7b819061360e90859085906004016155e3565b600060405180830381600087803b15801561362857600080fd5b505af115801561363c573d6000803e3d6000fd5b5050602254601c80549690910290950190945550506001600a55505050565b3360009081526002602090815260408083206001600160a01b038616845290915281205461368990836141e2565b3360008181526002602090815260408083206001600160a01b03891680855292529182902084905590519092600080516020615f9b83398151915291610a2b9190615d7e565b6001600160a01b03918216600090815260026020908152604080832093909416825291909152205490565b6005546001600160a01b031633146137245760405162461bcd60e51b815260040161076c9061584f565b6002600a5414156137475760405162461bcd60e51b815260040161076c90615a4b565b6002600a556040513390600080356001600160e01b0319169161376c9190369061574d565b60405180910390a26011546001600160a01b03821660009081526021602052604090819020549051630d3aa47160e41b815273D3090165Aa2A37e952Df395d95bd5305D81174459263d3aa4710926137d992600160201b90920460ff908116929116908690600401615673565b60006040518083038186803b1580156137f157600080fd5b505af4158015613805573d6000803e3d6000fd5b505050506001600160a01b03166000908152602160205260409020805460ff191690556001600a55565b73e96db147c2d1b7af2a3dd07388b1cc7b086f3c8d90565b60008261385657506000610a37565b8282028284828161386357fe5b04146138815760405162461bcd60e51b815260040161076c90615ae4565b6706f05b59d3b200008101818110156138ac5760405162461bcd60e51b815260040161076c90615ae4565b6000670de0b6b3a7640000825b049695505050505050565b6000816138e35760405162461bcd60e51b815260040161076c90615b45565b826138f057506000610a37565b670de0b6b3a76400008381029084828161390657fe5b04146139245760405162461bcd60e51b815260040161076c90615a21565b6002830481018181101561394a5760405162461bcd60e51b815260040161076c90615a21565b60008482816138b957fe5b6010546001600160a01b03161561397e5760405162461bcd60e51b815260040161076c906159d9565b613987816118ac565b61399133826109d6565b600f60009054906101000a90046001600160a01b03166001600160a01b03166391cefde46040518163ffffffff1660e01b8152600401602060405180830381600087803b1580156139e157600080fd5b505af11580156139f5573d6000803e3d6000fd5b505050506040513d601f19601f82011682018060405250810190613a199190614cef565b601080546001600160a01b0319166001600160a01b03928316179081905560405163d03f2a0f60e01b815273D3090165Aa2A37e952Df395d95bd5305D81174459263d03f2a0f92613a71929116908590600401615564565b60006040518083038186803b158015613a8957600080fd5b505af4158015613a9d573d6000803e3d6000fd5b5050505060005b601e54811015613c6b576000601e8281548110613abd57fe5b6000918252602082200154601f80546001600160a01b0390921693509084908110613ae457fe5b90600052602060002001549050600060208481548110613b0057fe5b90600052602060002001549050613b16836144ae565b6040516323b872dd60e01b81526000906001600160a01b038516906323b872dd90613b49903390309088906004016154dd565b602060405180830381600087803b158015613b6357600080fd5b505af1158015613b77573d6000803e3d6000fd5b505050506040513d601f19601f82011682018060405250810190613b9b9190615169565b905080613bba5760405162461bcd60e51b815260040161076c90615bfb565b601054613bd6906001600160a01b03868116911660001961403b565b905080613bf55760405162461bcd60e51b815260040161076c90615bfb565b601054604051631c9c3ca760e31b81526001600160a01b039091169063e4e1e53890613c29908790879087906004016155af565b600060405180830381600087803b158015613c4357600080fd5b505af1158015613c57573d6000803e3d6000fd5b505060019096019550613aa4945050505050565b505b601e5415610c5c57601e805480613c8057fe5b600082815260209020810160001990810180546001600160a01b0319169055019055613c6d565b6109e0308383613d1a565b30600090815260016020526040902054613ccc9082613db9565b3060009081526001602052604081209190915554613cea9082613db9565b60009081556040513090600080516020615f7b83398151915290613d0f908590615d7e565b60405180910390a350565b6001600160a01b038316600090815260016020526040902054613d3d9082613db9565b6001600160a01b038085166000908152600160205260408082209390935590841681522054613d6c90826141e2565b6001600160a01b038084166000818152600160205260409081902093909355915190851690600080516020615f7b83398151915290613dac908590615d7e565b60405180910390a3505050565b6000806000613dc885856148c9565b915091508015613dea5760405162461bcd60e51b815260040161076c90615c89565b509392505050565b6010546001600160a01b0316613e1a5760405162461bcd60e51b815260040161076c906159b0565b60105460405163f8b2cb4f60e01b81526000916001600160a01b03169063f8b2cb4f90613e4b9087906004016154c9565b60206040518083038186803b158015613e6357600080fd5b505afa158015613e77573d6000803e3d6000fd5b505050506040513d601f19601f82011682018060405250810190613e9b9190615225565b601054604051634a46c67360e11b81529192506000916001600160a01b039091169063948d8ce690613ed19088906004016154c9565b60206040518083038186803b158015613ee957600080fd5b505afa158015613efd573d6000803e3d6000fd5b505050506040513d601f19601f82011682018060405250810190613f219190615225565b90506000856001600160a01b03166323b872dd8630876040518463ffffffff1660e01b8152600401613f55939291906154dd565b602060405180830381600087803b158015613f6f57600080fd5b505af1158015613f83573d6000803e3d6000fd5b505050506040513d601f19601f82011682018060405250810190613fa79190615169565b905080613fc65760405162461bcd60e51b815260040161076c90615bfb565b6010546001600160a01b0316633fdddaa287613fe286886141e2565b856040518463ffffffff1660e01b8152600401614001939291906155af565b600060405180830381600087803b15801561401b57600080fd5b505af115801561402f573d6000803e3d6000fd5b50505050505050505050565b600080846001600160a01b031663dd62ed3e30866040518363ffffffff1660e01b815260040161406c929190615501565b60206040518083038186803b15801561408457600080fd5b505afa158015614098573d6000803e3d6000fd5b505050506040513d601f19601f820116820180604052508101906140bc9190615225565b9050828114156140d0576001915050610d82565b80156141595760405163095ea7b360e01b81526001600160a01b0386169063095ea7b390614105908790600090600401615564565b602060405180830381600087803b15801561411f57600080fd5b505af1158015614133573d6000803e3d6000fd5b505050506040513d601f19601f820116820180604052508101906141579190615169565b505b60405163095ea7b360e01b81526001600160a01b0386169063095ea7b3906141879087908790600401615564565b602060405180830381600087803b1580156141a157600080fd5b505af11580156141b5573d6000803e3d6000fd5b505050506040513d601f19601f820116820180604052508101906141d99190615169565b95945050505050565b600082820183811015610d825760405162461bcd60e51b815260040161076c90615cb4565b601a5415614474576010546040805163cc77828d60e01b815290516060926001600160a01b03169163cc77828d916004808301926000929190829003018186803b15801561425457600080fd5b505afa158015614268573d6000803e3d6000fd5b505050506040513d6000823e601f3d908101601f191682016040526142909190810190614fe1565b9050606081516001600160401b03811180156142ab57600080fd5b506040519080825280602002602001820160405280156142d5578160200160208202803683370190505b50905060005b82518110156144075760008382815181106142f257fe5b602090810291909101015160105460405163f8b2cb4f60e01b81529192506000916001600160a01b039091169063f8b2cb4f906143339085906004016154c9565b60206040518083038186803b15801561434b57600080fd5b505afa15801561435f573d6000803e3d6000fd5b505050506040513d601f19601f820116820180604052508101906143839190615225565b9050600061439682601260080154613847565b90506143a3833083614688565b808585815181106143b057fe5b60209081029190910101526023546000906143d8906001600160a01b0386811691168461403b565b9050806143f75760405162461bcd60e51b815260040161076c90615bfb565b5050600190920191506142db9050565b50602354604051631483d99d60e01b81526001600160a01b0390911690631483d99d9061443f90859085908190600090600401615608565b600060405180830381600087803b15801561445957600080fd5b505af115801561446d573d6000803e3d6000fd5b5050505050505b565b61447f816148ee565b6016546000541115610c5c5760405162461bcd60e51b815260040161076c90615b6b565b6109e0823083613d1a565b600f5460405163db7ca46b60e01b81526001600160a01b039091169063db7ca46b906144de9084906004016154c9565b60206040518083038186803b1580156144f657600080fd5b505afa15801561450a573d6000803e3d6000fd5b505050506040513d601f19601f8201168201806040525081019061452e9190615169565b61454a5760405162461bcd60e51b815260040161076c90615b0e565b602454600160a01b900460ff1615610c5c576145658161494c565b610c5c5760405162461bcd60e51b815260040161076c906158fc565b6001600160a01b0381166145a75760405162461bcd60e51b815260040161076c90615c24565b6145b08161494c565b156145cd5760405162461bcd60e51b815260040161076c90615c57565b6000828152600e602090815260408083206001600160a01b038516845282528083208054600160ff199182168117909255600d909352922080549091169091179055600b5460ff1661462757600b805460ff191660011790555b600c8054600101905561463861496a565b336001600160a01b031682306001600160a01b03167f5ab6a0d7af8e86f78c34acea4f8aff1be027227ce1bc29e03f57f39b788f4b048460405161467c91906154c9565b60405180910390a45050565b6010546001600160a01b03166146b05760405162461bcd60e51b815260040161076c906159b0565b60105460405163f8b2cb4f60e01b81526000916001600160a01b03169063f8b2cb4f906146e19087906004016154c9565b60206040518083038186803b1580156146f957600080fd5b505afa15801561470d573d6000803e3d6000fd5b505050506040513d601f19601f820116820180604052508101906147319190615225565b601054604051634a46c67360e11b81529192506000916001600160a01b039091169063948d8ce6906147679088906004016154c9565b60206040518083038186803b15801561477f57600080fd5b505afa158015614793573d6000803e3d6000fd5b505050506040513d601f19601f820116820180604052508101906147b79190615225565b6010549091506001600160a01b0316633fdddaa2866147d68587613db9565b846040518463ffffffff1660e01b81526004016147f5939291906155af565b600060405180830381600087803b15801561480f57600080fd5b505af1158015614823573d6000803e3d6000fd5b505060405163a9059cbb60e01b8152600092506001600160a01b038816915063a9059cbb906148589088908890600401615564565b602060405180830381600087803b15801561487257600080fd5b505af1158015614886573d6000803e3d6000fd5b505050506040513d601f19601f820116820180604052508101906148aa9190615169565b90508061446d5760405162461bcd60e51b815260040161076c90615bfb565b6000808383116148df57505080820360006148e7565b505081810360015b9250929050565b3060009081526001602052604090205461490890826141e2565b306000908152600160205260408120919091555461492690826141e2565b6000908155604051309190600080516020615f7b83398151915290613d0f908590615d7e565b6001600160a01b03166000908152600d602052604090205460ff1690565b600c541561498757600b805460ff19166001908117909155610c5c565b600b805460ff19169055565b8280548282559060005260206000209081019282156149e8579160200282015b828111156149e857825182546001600160a01b0319166001600160a01b039091161782556020909201916001909101906149b3565b506149f4929150614a3f565b5090565b828054828255906000526020600020908101928215614a33579160200282015b82811115614a33578251825591602001919060010190614a18565b506149f4929150614a5e565b5b808211156149f45780546001600160a01b0319168155600101614a40565b5b808211156149f45760008155600101614a5f565b600082601f830112614a83578081fd5b8135614a96614a9182615eba565b615e94565b818152915060208083019084810181840286018201871015614ab757600080fd5b60005b84811015614adf578135614acd81615f37565b84529282019290820190600101614aba565b505050505092915050565b60008083601f840112614afb578182fd5b5081356001600160401b03811115614b11578182fd5b60208301915083602080830285010111156148e757600080fd5b600082601f830112614b3b578081fd5b8135614b49614a9182615eba565b818152915060208083019084810181840286018201871015614b6a57600080fd5b60005b84811015614adf57813584529282019290820190600101614b6d565b600082601f830112614b99578081fd5b8151614ba7614a9182615eba565b818152915060208083019084810181840286018201871015614bc857600080fd5b60005b84811015614adf57815184529282019290820190600101614bcb565b803560028110610a3757600080fd5b600082601f830112614c06578081fd5b8135614c14614a9182615ed9565b9150808252836020828501011115614c2b57600080fd5b8060208401602084013760009082016020015292915050565b600060c08284031215614c55578081fd5b614c5f60c0615e94565b90508135614c6c81615f4c565b81526020820135614c7c81615f4c565b60208201526040820135614c8f81615f4c565b60408201526060820135614ca281615f4c565b60608201526080820135614cb581615f4c565b608082015260a0820135614cc881615f4c565b60a082015292915050565b600060208284031215614ce4578081fd5b8135610d8281615f37565b600060208284031215614d00578081fd5b8151610d8281615f37565b60008060408385031215614d1d578081fd5b8235614d2881615f37565b91506020830135614d3881615f37565b809150509250929050565b600080600060608486031215614d57578081fd5b8335614d6281615f37565b92506020840135614d7281615f37565b929592945050506040919091013590565b60008060008060808587031215614d98578182fd5b8435614da381615f37565b93506020850135614db381615f37565b93969395505050506040820135916060013590565b6000806000610100808587031215614dde578182fd5b8435614de981615f37565b935060208501356001600160401b0380821115614e04578384fd5b818701915061016080838a031215614e1a578485fd5b614e2381615e94565b9050823582811115614e33578586fd5b614e3f8a828601614bf6565b825250602083013582811115614e53578586fd5b614e5f8a828601614bf6565b602083015250604083013582811115614e76578586fd5b614e828a828601614a73565b604083015250606083013582811115614e99578586fd5b614ea58a828601614b2b565b606083015250608083013582811115614ebc578586fd5b614ec88a828601614b2b565b60808301525060a083013560a082015260c083013560c082015260e083013560e08201528383013584820152610120935083830135848201526101409350614f1289858501614be7565b8482015280955050505050614f2a8560408601614c44565b90509250925092565b60008060408385031215614f45578182fd5b8235614f5081615f37565b946020939093013593505050565b60008060008060608587031215614f73578182fd5b8435614f7e81615f37565b93506020850135925060408501356001600160401b0380821115614fa0578384fd5b818701915087601f830112614fb3578384fd5b813581811115614fc1578485fd5b886020828501011115614fd2578485fd5b95989497505060200194505050565b60006020808385031215614ff3578182fd5b82516001600160401b03811115615008578283fd5b8301601f81018513615018578283fd5b8051615026614a9182615eba565b8181528381019083850185840285018601891015615042578687fd5b8694505b8385101561506d57805161505981615f37565b835260019490940193918501918501615046565b50979650505050505050565b6000806040838503121561508b578182fd5b82356001600160401b03808211156150a1578384fd5b6150ad86838701614a73565b935060208501359150808211156150c2578283fd5b506150cf85828601614b2b565b9150509250929050565b6000602082840312156150ea578081fd5b81516001600160401b038111156150ff578182fd5b61510b84828501614b89565b949350505050565b60008060408385031215615125578182fd5b82356001600160401b038082111561513b578384fd5b61514786838701614b2b565b9350602085013591508082111561515c578283fd5b506150cf85828601614a73565b60006020828403121561517a578081fd5b8151610d8281615f4c565b600060208284031215615196578081fd5b81516001600160401b038111156151ab578182fd5b8201601f810184136151bb578182fd5b80516151c9614a9182615ed9565b8181528560208385010111156151dd578384fd5b6141d9826020830160208601615f07565b6000602082840312156151ff578081fd5b813560068110610d82578182fd5b60006020828403121561521e578081fd5b5035919050565b600060208284031215615236578081fd5b5051919050565b600080600060408486031215615251578081fd5b8335925060208401356001600160401b0381111561526d578182fd5b61527986828701614aea565b9497909650939450505050565b6000806000806060858703121561529b578182fd5b8435935060208501356001600160401b038111156152b7578283fd5b6152c387828801614aea565b90945092505060408501356152d781615f37565b939692955090935050565b600080604083850312156152f4578182fd5b8251915060208301516001600160401b03811115615310578182fd5b6150cf85828601614b89565b6000806040838503121561532e578182fd5b505080516020909101519092909150565b60008060008084860360a0811215615355578283fd5b8535945060208601359350604086013560038110615371578384fd5b92506040605f1982011215615384578182fd5b5061538f6040615e94565b606086013581526080909501356020860152509194909350909190565b6000806000606084860312156153c0578081fd5b8351925060208401519150604084015190509250925092565b6000815180845260208085019450808401835b838110156154115781516001600160a01b0316875295820195908201906001016153ec565b509495945050505050565b6000815180845260208085019450808401835b838110156154115781518752958201959082019060010161542f565b15159052565b60008284528282602086013780602084860101526020601f19601f85011685010190509392505050565b60008151808452615493816020860160208601615f07565b601f01601f19169290920160200192915050565b642aa82822a960d91b815260050190565b64232627a7a960d91b815260050190565b6001600160a01b0391909116815260200190565b6001600160a01b039384168152919092166020820152604081019190915260600190565b6001600160a01b0392831681529116602082015260400190565b6001600160a01b03858116825284166020820152608060408201819052600090615547908301856153d9565b8281036060840152615559818561541c565b979650505050505050565b6001600160a01b03929092168252602082015260400190565b600060018060a01b0386168252846020830152606060408301526155a5606083018486615451565b9695505050505050565b6001600160a01b039390931683526020830191909152604082015260600190565b600060208252610d8260208301846153d9565b6000604082526155f660408301856153d9565b82810360208401526141d9818561541c565b60006080825261561b60808301876153d9565b828103602084015261562d818761541c565b90508281036040840152615641818661541c565b915050821515606083015295945050505050565b600060208252610d82602083018461541c565b901515815260200190565b921515835290151560208301526001600160a01b0316604082015260600190565b9515158652931515602086015291151560408501521515606084015215156080830152151560a082015260c00190565b9315158452911515602084015215156040830152606082015260800190565b9615158752941515602087015260408601939093526060850191909152608084015260a083015260c082015260e00190565b951515865260208601949094526040850192909252151560608401526001600160a01b0390811660808401521660a082015260c00190565b60006020825261510b602083018486615451565b600060208252610d82602083018461547b565b6001600160a01b0396871681529486166020860152928516604085015293166060830152608082019290925260a081019190915260c00190565b6001600160a01b0386811682528516602082015260408101849052608060608201819052810182905260006001600160fb1b038311156157ec578081fd5b60208302808560a08501379190910160a00190815295945050505050565b602081016002831061581857fe5b91905290565b918252602082015260400190565b60208082526009908201526837b7363ca0b236b4b760b91b604082015260600190565b60208082526012908201527122a9292fa727aa2fa1a7a72a2927a62622a960711b604082015260600190565b6020808252600d908201526c4552525f4e4f5f52494748545360981b604082015260600190565b60208082526016908201527526a7a22aa6229024a9902727aa102922a3a4a9aa22a960511b604082015260600190565b60208082526010908201526f20b2323932b9b99034b99027bbb732b960811b604082015260600190565b6020808252601b908201527a11549497d393d517d5d212551157d513d2d15397d25397d413d3d3602a1b604082015260600190565b60208082526010908201526f4552525f5a45524f5f4144445245535360801b604082015260600190565b602080825260199082015278544f4b454e5f4d5553545f494e5f57484954455f4c4953545360381b604082015260600190565b60208082526008908201526727bbb730b13632a760c11b604082015260600190565b6020808252600f908201526e11549497d393d517d0d49150551151608a1b604082015260600190565b6020808252600e908201526d11549497d254d7d0d4915055115160921b604082015260600190565b60208082526006908201526506f776e6572560d41b604082015260600190565b60208082526010908201526f11549497d1125597d25395115493905360821b604082015260600190565b6020808252600b908201526a4552525f5245454e54525960a81b604082015260600190565b60208082526023908201527f54686520636f6c6c656374696f6e206379636c65206973206e6f7420726561636040820152621a195960ea1b606082015260800190565b6020808252601790820152764552525f45524332305f415050524f56455f46414c534560481b604082015260600190565b60208082526010908201526f4552525f4d554c5f4f564552464c4f5760801b604082015260600190565b6020808252601e908201527f4552525f4e4f545f57484954455f544f4b454e5f494e5f464143544f52590000604082015260600190565b6020808252600c908201526b4552525f4449565f5a45524f60a01b604082015260600190565b60208082526015908201527411549497d0d05417d31253525517d4915050d21151605a1b604082015260600190565b60208082526016908201527522a9292fa821aa27a5a2a72fa120a22fa1a0a62622a960511b604082015260600190565b60208082526017908201527608aa4a4bea69ea4a8bea89e968a9cbe9a92a69a82a8869604b1b604082015260600190565b6020808252600f908201526e4552525f45524332305f46414c534560881b604082015260600190565b6020808252601990820152784552525f494e56414c49445f544f4b454e5f4144445245535360381b604082015260600190565b6020808252601890820152774552525f4841535f4245454e5f41444445445f574849544560401b604082015260600190565b6020808252601190820152704552525f5355425f554e444552464c4f5760781b604082015260600190565b60208082526010908201526f4552525f4144445f4f564552464c4f5760801b604082015260600190565b60208082526011908201527022a9292fa6aaa9aa2fa7a822a72fa2aa2360791b604082015260600190565b600060e082019050835460ff80821615158452808260081c1615156020850152808260101c1615156040850152808260181c1615156060850152615d5560808501828460201c1661544b565b615d6760a08501828460281c1661544b565b5050615d7283615efc565b60c08301529392505050565b90815260200190565b9182526001600160a01b0316602082015260400190565b9283526020830191909152604082015260600190565b93845260208401929092526040830152606082015260800190565b958652602086019490945260408501929092526060840152608083015260a082015260c00190565b988952602089019790975260408801959095526060870193909352608086019190915260a085015260c084015260e083015215156101008201526101200190565b9a8b5260208b019990995260408a01979097526060890195909552608088019390935260a087019190915260c086015260e08501526101008401526101208301526101408201526101600190565b60ff91909116815260200190565b6040518181016001600160401b0381118282101715615eb257600080fd5b604052919050565b60006001600160401b03821115615ecf578081fd5b5060209081020190565b60006001600160401b03821115615eee578081fd5b50601f01601f191660200190565b8060068110610e9e57fe5b60005b83811015615f22578181015183820152602001615f0a565b83811115615f31576000848401525b50505050565b6001600160a01b0381168114610c5c57600080fd5b8015158114610c5c57600080fdfe345c44e0d6869c4baccff8ecb8279bca00e6436947fce2da5beffcc9e5cabefbddf252ad1be2c89b69c2b068fc378daa952ba7f163c4a11628f55a4df523b3ef8c5be1e5ebec7d5bd14f71427d1e84f3dd0314c0f7b2291e5b200ac8c7c3b925a2646970667358221220bdbc044d2e885e839b294db59ea23440ac79ba919319358a8b6b4119c1fd004a64736f6c634300060c0033"
  ],
  "numDeployments": 1,
  "solcInputHash": "c4935c7bbb687e1b5444e68bf79f180c",
  "bytecode": "0x60806040523480156200001157600080fd5b5060405162000f6138038062000f618339810160408190526200003491620000ff565b80516200004990600290602084019062000063565b5050600380546001600160a01b03191633179055620001c2565b828054600181600116156101000203166002900490600052602060002090601f016020900481019282601f10620000a657805160ff1916838001178555620000d6565b82800160010185558215620000d6579182015b82811115620000d6578251825591602001919060010190620000b9565b50620000e4929150620000e8565b5090565b5b80821115620000e45760008155600101620000e9565b6000602080838503121562000112578182fd5b82516001600160401b038082111562000129578384fd5b818501915085601f8301126200013d578384fd5b8151818111156200014c578485fd5b604051601f8201601f19168101850183811182821017156200016c578687fd5b604052818152838201850188101562000183578586fd5b8592505b81831015620001a6578383018501518184018601529184019162000187565b81831115620001b757858583830101525b979650505050505050565b610d8f80620001d26000396000f3fe608060405234801561001057600080fd5b50600436106100575760003560e01c8063084639651461005c5780638b0e8e671461007a5780639daafec71461008f578063dc19e842146100a4578063e9543720146100c4575b600080fd5b6100646100d7565b6040516100719190610b61565b60405180910390f35b61008d61008836600461065d565b610162565b005b6100976101e2565b604051610071919061090f565b6100b76100b236600461065d565b6101f1565b6040516100719190610b56565b6100976100d236600461067f565b61020f565b6002805460408051602060018416156101000260001901909316849004601f8101849004840282018401909252818152929183018282801561015a5780601f1061012f5761010080835404028352916020019161015a565b820191906000526020600020905b81548152906001019060200180831161013d57829003601f168201915b505050505081565b6003546001600160a01b031633146101955760405162461bcd60e51b815260040161018c90610bc6565b60405180910390fd5b600480546001600160a01b0319166001600160a01b0383169081179091556040513391907fbe29361fcb0d6d7a528b06b7e3c978b225c152a431ac559470986926fe26692590600090a350565b6004546001600160a01b031681565b6001600160a01b031660009081526020819052604090205460ff1690565b60008061021b876103fb565b6040519091506001600160a01b0382169033907f8aaa45dbe91f274e1c80489691f3d62dbf595d587fcc6a989fa27696e7c2a23290600090a36001600160a01b03811660008181526020819052604090819020805460ff19166001179055516355b1905560e01b81526355b190559061029c908b908b908b90600401610977565b600060405180830381600087803b1580156102b657600080fd5b505af11580156102ca573d6000803e3d6000fd5b505060048054604051634660c5a560e01b81526001600160a01b039091169350634660c5a592506102ff9185918a9101610923565b600060405180830381600087803b15801561031957600080fd5b505af115801561032d573d6000803e3d6000fd5b5050604051633ef1447960e01b81526001600160a01b0384169250633ef14479915061035f9087908790600401610ac8565b600060405180830381600087803b15801561037957600080fd5b505af115801561038d573d6000803e3d6000fd5b50506040516392eefe9b60e01b81526001600160a01b03841692506392eefe9b91506103bd90339060040161090f565b600060405180830381600087803b1580156103d757600080fd5b505af11580156103eb573d6000803e3d6000fd5b50929a9950505050505050505050565b6002805460408051602060018416156101000260001901909316849004601f8101849004840282018401909252818152600093606093919290918301828280156104865780601f1061045b57610100808354040283529160200191610486565b820191906000526020600020905b81548152906001019060200180831161046957829003601f168201915b505050505090506060818480600001906104a09190610bed565b6104ad6020880188610bed565b6040516020016104c09493929190610b94565b60408051601f19818403018152908290526104de92916020016108d7565b60408051601f19818403018152908290526001805480820190915590925060009161050c9190602001610906565b604051602081830303815290604052805190602001209050808251602084016000f59350833b61053b57600080fd5b505050919050565b80356001600160a01b038116811461055a57600080fd5b92915050565b600082601f830112610570578081fd5b813561058361057e82610c5e565b610c38565b8181529150602080830190848101818402860182018710156105a457600080fd5b60005b848110156105cb576105b98883610543565b845292820192908201906001016105a7565b505050505092915050565b600082601f8301126105e6578081fd5b81356105f461057e82610c5e565b81815291506020808301908481018184028601820187101561061557600080fd5b60005b848110156105cb57813584529282019290820190600101610618565b60006104008284031215610646578081fd5b50919050565b600060c08284031215610646578081fd5b60006020828403121561066e578081fd5b6106788383610543565b9392505050565b6000806000806000806105408789031215610698578182fd5b6106a28888610543565b955060208701356001600160401b03808211156106bd578384fd5b90880190610160828b0312156106d1578384fd5b8196506106e18a60408b0161064c565b95506106f18a6101008b01610634565b9450610500890135915080821115610707578384fd5b6107138a838b01610560565b9350610520890135915080821115610729578283fd5b5061073689828a016105d6565b9150509295509295509295565b815260200190565b6001600160a01b03169052565b60008284526020808501945082825b85811015610795578183016001600160a01b036107848285610543565b168852968301969150600101610767565b509495945050505050565b81835260006001600160fb1b038311156107b8578081fd5b6020830280836020870137939093016020019283525090919050565b600281106107de57fe5b9052565b60008284528282602086013780602084860101526020601f19601f85011685010190509392505050565b803561081781610d48565b15158252602081013561082981610d48565b15156020830152604081013561083e81610d48565b15156040830152606081013561085381610d48565b15156060830152608081013561086881610d48565b1515608083015260a081013561087d81610d48565b80151560a0840152505050565b61089482826108c8565b6108a460408301604083016108c8565b6108b460808301608083016108c8565b6108c460c0830160c083016108c8565b5050565b80358252602090810135910152565b600083516108e9818460208801610d18565b8351908301906108fd818360208801610d18565b01949350505050565b90815260200190565b6001600160a01b0391909116815260200190565b6001600160a01b03831681526104208101610941602083018461088a565b6109536101208301610100850161088a565b6109656102208301610200850161088a565b6106786103208301610300850161088a565b6001600160a01b03841681526101006020820181905260009061099a8580610cd4565b61016080848701526109b1610260870183856107e2565b92506109c06020890189610cd4565b925060ff196101208189870301818a01526109dc8686856107e2565b95506109eb60408c018c610c7d565b95509250610140828a880301818b0152610a06878786610758565b9650610a1560608d018d610c7d565b96509350828a880301858b0152610a2d8787866107a0565b9650610a3c60808d018d610c7d565b96509450828a8803016101808b0152610a568787876107a0565b965060a08c01356101a08b015260c08c01356101c08b015260e08c01356101e08b0152878c01356102008b0152818c01356102208b0152610a99818d018d610cc4565b9750505050505050610aaf6102408501836107d4565b9150610ac09050604083018461080c565b949350505050565b604080825283519082018190526000906020906060840190828701845b82811015610b0857610af884835161074b565b9284019290840190600101610ae5565b50505083810382850152808551610b1f8184610906565b91508387019250845b81811015610b4957610b3b838551610743565b938501939250600101610b28565b5090979650505050505050565b901515815260200190565b6000602082528251806020840152610b80816040850160208701610d18565b601f01601f19169190910160400192915050565b600060408252610ba86040830186886107e2565b8281036020840152610bbb8185876107e2565b979650505050505050565b6020808252600d908201526c4552525f4e4f545f424c41425360981b604082015260600190565b6000808335601e19843603018112610c03578283fd5b8301803591506001600160401b03821115610c1c578283fd5b602001915036819003821315610c3157600080fd5b9250929050565b6040518181016001600160401b0381118282101715610c5657600080fd5b604052919050565b60006001600160401b03821115610c73578081fd5b5060209081020190565b6000808335601e19843603018112610c93578283fd5b83016020810192503590506001600160401b03811115610cb257600080fd5b602081023603831315610c3157600080fd5b6000823560028110610678578182fd5b6000808335601e19843603018112610cea578283fd5b83016020810192503590506001600160401b03811115610d0957600080fd5b803603831315610c3157600080fd5b60005b83811015610d33578181015183820152602001610d1b565b83811115610d42576000848401525b50505050565b8015158114610d5657600080fd5b5056fea26469706673582212202a132ab692fa2e3469c336430c2394e34b212aecadd29ea09595310d3d4d674964736f6c634300060c0033",
  "devdoc": {
    "author": "Desyn Labs",
    "details": "Rights are held in a corresponding struct in ConfigurableRightsPool      Index values are as follows:      0: canPauseSwapping - can setPublicSwap back to false after turning it on                            by default, it is off on initialization and can only be turned on      1: canChangeSwapFee - can setSwapFee after initialization (by default, it is fixed at create time)      2: canChangeWeights - can bind new token weights (allowed by default in base pool)      3: canAddRemoveTokens - can bind/unbind tokens (allowed by default in base pool)      4: canWhitelistLPs - if set, only whitelisted addresses can join pools                           (enables private pools with more than one LP)      5: canChangeCap - can change the BSP cap (max # of pool tokens)",
    "kind": "dev",
    "methods": {
      "isCrp(address)": {
        "params": {
          "addr": "- address to check"
        },
        "returns": {
          "_0": "boolean indicating whether it is a CRP"
        }
      },
      "newCrp(address,(string,string,address[],uint256[],uint256[],uint256,uint256,uint256,uint256,uint256,uint8),(bool,bool,bool,bool,bool,bool),(((uint256,uint256),(uint256,uint256),(uint256,uint256),(uint256,uint256)),((uint256,uint256),(uint256,uint256),(uint256,uint256),(uint256,uint256)),((uint256,uint256),(uint256,uint256),(uint256,uint256),(uint256,uint256)),((uint256,uint256),(uint256,uint256),(uint256,uint256),(uint256,uint256))),address[],uint256[])": {
        "details": "emits a LogNewCRP event",
        "params": {
          "factoryAddress": "- the BFactory instance used to create the underlying pool",
          "poolParams": "- struct containing the names, tokens, weights, balances, and swap fee",
          "rights": "- struct of permissions, configuring this CRP instance (see above for definitions)"
        }
      }
    },
    "title": "Configurable Rights Pool Factory - create parameterized smart pools",
    "version": 1
  },
  "userdoc": {
    "kind": "user",
    "methods": {
      "isCrp(address)": {
        "notice": "Check to see if a given address is a CRP"
      },
      "newCrp(address,(string,string,address[],uint256[],uint256[],uint256,uint256,uint256,uint256,uint256,uint8),(bool,bool,bool,bool,bool,bool),(((uint256,uint256),(uint256,uint256),(uint256,uint256),(uint256,uint256)),((uint256,uint256),(uint256,uint256),(uint256,uint256),(uint256,uint256)),((uint256,uint256),(uint256,uint256),(uint256,uint256),(uint256,uint256)),((uint256,uint256),(uint256,uint256),(uint256,uint256),(uint256,uint256))),address[],uint256[])": {
        "notice": "Create a new CRP"
      }
    },
    "version": 1
  },
  "storageLayout": {
    "storage": [
      {
        "astId": 7870,
        "contract": "contracts/deploy/CRPFactory.sol:CRPFactory",
        "label": "_isCrp",
        "offset": 0,
        "slot": "0",
        "type": "t_mapping(t_address,t_bool)"
      },
      {
        "astId": 7890,
        "contract": "contracts/deploy/CRPFactory.sol:CRPFactory",
        "label": "counters",
        "offset": 0,
        "slot": "1",
        "type": "t_uint256"
      },
      {
        "astId": 7892,
        "contract": "contracts/deploy/CRPFactory.sol:CRPFactory",
        "label": "bytecodes",
        "offset": 0,
        "slot": "2",
        "type": "t_bytes_storage"
      },
      {
        "astId": 7894,
        "contract": "contracts/deploy/CRPFactory.sol:CRPFactory",
        "label": "_blabs",
        "offset": 0,
        "slot": "3",
        "type": "t_address"
      },
      {
        "astId": 7896,
        "contract": "contracts/deploy/CRPFactory.sol:CRPFactory",
        "label": "userVault",
        "offset": 0,
        "slot": "4",
        "type": "t_address"
      }
    ],
    "types": {
      "t_address": {
        "encoding": "inplace",
        "label": "address",
        "numberOfBytes": "20"
      },
      "t_bool": {
        "encoding": "inplace",
        "label": "bool",
        "numberOfBytes": "1"
      },
      "t_bytes_storage": {
        "encoding": "bytes",
        "label": "bytes",
        "numberOfBytes": "32"
      },
      "t_mapping(t_address,t_bool)": {
        "encoding": "mapping",
        "key": "t_address",
        "label": "mapping(address => bool)",
        "numberOfBytes": "32",
        "value": "t_bool"
      },
      "t_uint256": {
        "encoding": "inplace",
        "label": "uint256",
        "numberOfBytes": "32"
      }
    }
  }
}