{
  "address": "0xEC6Ee1D5af1cE6EE0Bad0C42858505E1b6d4A3a7",
  "abi": [
    {
      "inputs": [
        {
          "internalType": "address",
          "name": "twapOracle_",
          "type": "address"
        }
      ],
      "stateMutability": "nonpayable",
      "type": "constructor"
    },
    {
      "anonymous": false,
      "inputs": [
        {
          "indexed": false,
          "internalType": "address",
          "name": "feed",
          "type": "address"
        },
        {
          "indexed": false,
          "internalType": "string",
          "name": "symbol",
          "type": "string"
        }
      ],
      "name": "FeedSet",
      "type": "event"
    },
    {
      "anonymous": false,
      "inputs": [
        {
          "indexed": false,
          "internalType": "address",
          "name": "oldAdmin",
          "type": "address"
        },
        {
          "indexed": false,
          "internalType": "address",
          "name": "newAdmin",
          "type": "address"
        }
      ],
      "name": "NewAdmin",
      "type": "event"
    },
    {
      "anonymous": false,
      "inputs": [
        {
          "indexed": false,
          "internalType": "address",
          "name": "asset",
          "type": "address"
        },
        {
          "indexed": false,
          "internalType": "uint256",
          "name": "previousPriceMantissa",
          "type": "uint256"
        },
        {
          "indexed": false,
          "internalType": "uint256",
          "name": "requestedPriceMantissa",
          "type": "uint256"
        },
        {
          "indexed": false,
          "internalType": "uint256",
          "name": "newPriceMantissa",
          "type": "uint256"
        }
      ],
      "name": "PricePosted",
      "type": "event"
    },
    {
      "inputs": [],
      "name": "BONE",
      "outputs": [
        {
          "internalType": "uint256",
          "name": "",
          "type": "uint256"
        }
      ],
      "stateMutability": "view",
      "type": "function"
    },
    {
      "inputs": [],
      "name": "BPOW_PRECISION",
      "outputs": [
        {
          "internalType": "uint256",
          "name": "",
          "type": "uint256"
        }
      ],
      "stateMutability": "view",
      "type": "function"
    },
    {
      "inputs": [],
      "name": "EXIT_FEE",
      "outputs": [
        {
          "internalType": "uint256",
          "name": "",
          "type": "uint256"
        }
      ],
      "stateMutability": "view",
      "type": "function"
    },
    {
      "inputs": [],
      "name": "INIT_POOL_SUPPLY",
      "outputs": [
        {
          "internalType": "uint256",
          "name": "",
          "type": "uint256"
        }
      ],
      "stateMutability": "view",
      "type": "function"
    },
    {
      "inputs": [],
      "name": "MAX_BOUND_TOKENS",
      "outputs": [
        {
          "internalType": "uint256",
          "name": "",
          "type": "uint256"
        }
      ],
      "stateMutability": "view",
      "type": "function"
    },
    {
      "inputs": [],
      "name": "MAX_BPOW_BASE",
      "outputs": [
        {
          "internalType": "uint256",
          "name": "",
          "type": "uint256"
        }
      ],
      "stateMutability": "view",
      "type": "function"
    },
    {
      "inputs": [],
      "name": "MAX_FEE",
      "outputs": [
        {
          "internalType": "uint256",
          "name": "",
          "type": "uint256"
        }
      ],
      "stateMutability": "view",
      "type": "function"
    },
    {
      "inputs": [],
      "name": "MAX_IN_RATIO",
      "outputs": [
        {
          "internalType": "uint256",
          "name": "",
          "type": "uint256"
        }
      ],
      "stateMutability": "view",
      "type": "function"
    },
    {
      "inputs": [],
      "name": "MAX_OUT_RATIO",
      "outputs": [
        {
          "internalType": "uint256",
          "name": "",
          "type": "uint256"
        }
      ],
      "stateMutability": "view",
      "type": "function"
    },
    {
      "inputs": [],
      "name": "MAX_TOTAL_WEIGHT",
      "outputs": [
        {
          "internalType": "uint256",
          "name": "",
          "type": "uint256"
        }
      ],
      "stateMutability": "view",
      "type": "function"
    },
    {
      "inputs": [],
      "name": "MAX_WEIGHT",
      "outputs": [
        {
          "internalType": "uint256",
          "name": "",
          "type": "uint256"
        }
      ],
      "stateMutability": "view",
      "type": "function"
    },
    {
      "inputs": [],
      "name": "MIN_BALANCE",
      "outputs": [
        {
          "internalType": "uint256",
          "name": "",
          "type": "uint256"
        }
      ],
      "stateMutability": "view",
      "type": "function"
    },
    {
      "inputs": [],
      "name": "MIN_BOUND_TOKENS",
      "outputs": [
        {
          "internalType": "uint256",
          "name": "",
          "type": "uint256"
        }
      ],
      "stateMutability": "view",
      "type": "function"
    },
    {
      "inputs": [],
      "name": "MIN_BPOW_BASE",
      "outputs": [
        {
          "internalType": "uint256",
          "name": "",
          "type": "uint256"
        }
      ],
      "stateMutability": "view",
      "type": "function"
    },
    {
      "inputs": [],
      "name": "MIN_FEE",
      "outputs": [
        {
          "internalType": "uint256",
          "name": "",
          "type": "uint256"
        }
      ],
      "stateMutability": "view",
      "type": "function"
    },
    {
      "inputs": [],
      "name": "MIN_WEIGHT",
      "outputs": [
        {
          "internalType": "uint256",
          "name": "",
          "type": "uint256"
        }
      ],
      "stateMutability": "view",
      "type": "function"
    },
    {
      "inputs": [],
      "name": "admin",
      "outputs": [
        {
          "internalType": "address",
          "name": "",
          "type": "address"
        }
      ],
      "stateMutability": "view",
      "type": "function"
    },
    {
      "inputs": [
        {
          "internalType": "address",
          "name": "asset",
          "type": "address"
        }
      ],
      "name": "assetPrices",
      "outputs": [
        {
          "internalType": "uint256",
          "name": "",
          "type": "uint256"
        }
      ],
      "stateMutability": "view",
      "type": "function"
    },
    {
      "inputs": [
        {
          "internalType": "address[]",
          "name": "poolTokens",
          "type": "address[]"
        },
        {
          "internalType": "uint256[]",
          "name": "actualAmountsOut",
          "type": "uint256[]"
        }
      ],
      "name": "getAllPrice",
      "outputs": [
        {
          "internalType": "uint256",
          "name": "fundAll",
          "type": "uint256"
        }
      ],
      "stateMutability": "nonpayable",
      "type": "function"
    },
    {
      "inputs": [],
      "name": "getColor",
      "outputs": [
        {
          "internalType": "bytes32",
          "name": "",
          "type": "bytes32"
        }
      ],
      "stateMutability": "pure",
      "type": "function"
    },
    {
      "inputs": [
        {
          "internalType": "string",
          "name": "symbol",
          "type": "string"
        }
      ],
      "name": "getFeed",
      "outputs": [
        {
          "internalType": "contract AggregatorV2V3Interface",
          "name": "",
          "type": "address"
        }
      ],
      "stateMutability": "view",
      "type": "function"
    },
    {
      "inputs": [
        {
          "internalType": "address",
          "name": "tokenAddress",
          "type": "address"
        }
      ],
      "name": "getPrice",
      "outputs": [
        {
          "internalType": "uint256",
          "name": "price",
          "type": "uint256"
        }
      ],
      "stateMutability": "nonpayable",
      "type": "function"
    },
    {
      "inputs": [
        {
          "internalType": "address",
          "name": "newAdmin",
          "type": "address"
        }
      ],
      "name": "setAdmin",
      "outputs": [],
      "stateMutability": "nonpayable",
      "type": "function"
    },
    {
      "inputs": [
        {
          "internalType": "address",
          "name": "asset",
          "type": "address"
        },
        {
          "internalType": "uint256",
          "name": "price",
          "type": "uint256"
        }
      ],
      "name": "setDirectPrice",
      "outputs": [],
      "stateMutability": "nonpayable",
      "type": "function"
    },
    {
      "inputs": [
        {
          "internalType": "string",
          "name": "symbol",
          "type": "string"
        },
        {
          "internalType": "address",
          "name": "feed",
          "type": "address"
        }
      ],
      "name": "setFeed",
      "outputs": [],
      "stateMutability": "nonpayable",
      "type": "function"
    },
    {
      "inputs": [
        {
          "internalType": "uint256",
          "name": "",
          "type": "uint256"
        }
      ],
      "name": "testList",
      "outputs": [
        {
          "internalType": "uint256",
          "name": "",
          "type": "uint256"
        }
      ],
      "stateMutability": "view",
      "type": "function"
    },
    {
      "inputs": [],
      "name": "twapOracle",
      "outputs": [
        {
          "internalType": "contract IUniswapOracle",
          "name": "",
          "type": "address"
        }
      ],
      "stateMutability": "view",
      "type": "function"
    }
  ],
  "transactionHash": "0x8da92cc8d851388c8f088a19274ef07dce708dac0d7654e470a1343a8c5f16bf",
  "args": [
    "0xf2a0A4fCF770CaaDCcD786cE3C4F9c1FDE637487"
  ],
  "numDeployments": 1,
  "solcInputHash": "ec6aa3e489db51b52585f0a55af97c3a",
  "bytecode": "0x608060405234801561001057600080fd5b506040516111b03803806111b08339818101604052602081101561003357600080fd5b5051600080546001600160a01b03199081163317909155600180546001600160a01b039093169290911691909117905561113e806100726000396000f3fe608060405234801561001057600080fd5b50600436106101495760003560e01c806309a3bbe41461014e57806309a8acb0146101685780630c607acf14610196578063189d00ca1461020d578063218b5382146102155780633b39a51c1461021d57806341976e09146102dd578063422b66f4146103035780634e36fffe146103c15780635e9a523c146103de578063704b6c021461040457806376c7a3c71461042a578063867378c5146104325780639043292a1461043a5780639381cd2b14610442578063992e2a921461044a5780639a86139b14610452578063b0e0d1361461045a578063b7b800a414610462578063ba019dab14610462578063bc063e1a1461046a578063bc694ea214610472578063c36596a614610215578063c6580d121461047a578063e4a28a521461014e578063ec09302114610482578063f851a4401461048a575b600080fd5b610156610492565b60408051918252519081900360200190f35b6101946004803603604081101561017e57600080fd5b506001600160a01b03813516906020013561049f565b005b610194600480360360408110156101ac57600080fd5b810190602081018135600160201b8111156101c657600080fd5b8201836020820111156101d857600080fd5b803590602001918460018302840111600160201b831117156101f957600080fd5b9193509150356001600160a01b031661056e565b610156610709565b61015661071d565b6102c16004803603602081101561023357600080fd5b810190602081018135600160201b81111561024d57600080fd5b82018360208201111561025f57600080fd5b803590602001918460018302840111600160201b8311171561028057600080fd5b91908080601f016020809104026020016040519081016040528093929190818152602001838380828437600092019190915250929550610729945050505050565b604080516001600160a01b039092168252519081900360200190f35b610156600480360360208110156102f357600080fd5b50356001600160a01b03166107c7565b6101566004803603604081101561031957600080fd5b810190602081018135600160201b81111561033357600080fd5b82018360208201111561034557600080fd5b803590602001918460208302840111600160201b8311171561036657600080fd5b919390929091602081019035600160201b81111561038357600080fd5b82018360208201111561039557600080fd5b803590602001918460208302840111600160201b831117156103b657600080fd5b509092509050610a63565b610156600480360360208110156103d757600080fd5b5035610b11565b610156600480360360208110156103f457600080fd5b50356001600160a01b0316610b2f565b6101946004803603602081101561041a57600080fd5b50356001600160a01b0316610b4a565b610156610c02565b610156610c14565b6102c1610c28565b610156610c37565b610156610c44565b610156610c50565b610156610c5d565b610156610c62565b610156610c67565b610156610c77565b610156610c83565b610156610c88565b6102c1610c98565b6802b5e3af16b188000081565b6000546001600160a01b031633146104f4576040805162461bcd60e51b81526020600482015260136024820152721bdb9b1e4818591b5a5b881b585e4818d85b1b606a1b604482015290519081900360640190fd5b6001600160a01b0382166000818152600360209081526040918290205482519384529083015281810183905260608201839052517fdd71a1d19fcba687442a1d5c58578f1e409af71a79d10fd95a4d66efd8fa9ae79181900360800190a16001600160a01b03909116600090815260036020526040902055565b6000546001600160a01b031633146105c3576040805162461bcd60e51b81526020600482015260136024820152721bdb9b1e4818591b5a5b881b585e4818d85b1b606a1b604482015290519081900360640190fd5b6001600160a01b038116158015906105e457506001600160a01b0381163014155b61062c576040805162461bcd60e51b8152602060048201526014602482015273696e76616c69642066656564206164647265737360601b604482015290519081900360640190fd5b7fd9e7d1778ca05570ced72c9aeb12a41fcc76f7f57ea25853dea228f8836d002281848460405180846001600160a01b03168152602001806020018281038252848482818152602001925080828437600083820152604051601f909101601f1916909201829003965090945050505050a18060046000858560405160200180838380828437808301925050509250505060405160208183030381529060405280519060200120815260200190815260200160002060006101000a8154816001600160a01b0302191690836001600160a01b03160217905550505050565b6402540be400670de0b6b3a76400005b0481565b670de0b6b3a764000081565b600060046000836040516020018082805190602001908083835b602083106107625780518252601f199092019160209182019101610743565b6001836020036101000a03801982511681845116808217855250505050505090500191505060405160208183030381529060405280519060200120815260200190815260200160002060009054906101000a90046001600160a01b031690505b919050565b60008082905060006108fb826001600160a01b03166395d89b416040518163ffffffff1660e01b815260040160006040518083038186803b15801561080b57600080fd5b505afa15801561081f573d6000803e3d6000fd5b505050506040513d6000823e601f3d908101601f19168201604052602081101561084857600080fd5b8101908080516040519392919084600160201b82111561086757600080fd5b90830190602082018581111561087c57600080fd5b8251600160201b81118282018810171561089557600080fd5b82525081516020918201929091019080838360005b838110156108c25781810151838201526020016108aa565b50505050905090810190601f1680156108ef5780820380516001836020036101000a031916815260200191505b50604052505050610729565b6001600160a01b0383166000908152600360205260409020549091501561093c576001600160a01b03821660009081526003602052604090205492506109c7565b6001600160a01b0381161561095b5761095481610ca7565b92506109c7565b60015460408051630e0dc3b960e11b81526001600160a01b03858116600483015291519190921691631c1b877291602480830192600092919082900301818387803b1580156109a957600080fd5b505af19250505080156109ba575060015b506109c484610dd8565b92505b6000610a3b6012846001600160a01b031663313ce5676040518163ffffffff1660e01b815260040160206040518083038186803b158015610a0757600080fd5b505afa158015610a1b573d6000803e3d6000fd5b505050506040513d6020811015610a3157600080fd5b505160ff16610eed565b90508015610a5b57610a5184600a83900a610f51565b93505050506107c2565b5050506107c2565b6000805b84811015610b08576000868683818110610a7d57fe5b905060200201356001600160a01b031690506000858584818110610a9d57fe5b60028054600181018255600091909152602090910292909201357f405787fa12a823e0f2b7631cc41b3ba8828b3321ca811111fa75cd3aa3bb5ace909201829055509050610afc84610af7610af1856107c7565b84610fb1565b611075565b93505050600101610a67565b50949350505050565b60028181548110610b1e57fe5b600091825260209091200154905081565b6001600160a01b031660009081526003602052604090205490565b6000546001600160a01b03163314610b9f576040805162461bcd60e51b81526020600482015260136024820152721bdb9b1e4818591b5a5b881b585e4818d85b1b606a1b604482015290519081900360640190fd5b600080546001600160a01b038381166001600160a01b0319831681179093556040805191909216808252602082019390935281517ff9ffabca9c8276e99321725bcb43fb076a6c66a54b7f21c4e8146d8519b417dc929181900390910190a15050565b620f4240670de0b6b3a7640000610719565b64e8d4a51000670de0b6b3a7640000610719565b6001546001600160a01b031681565b68056bc75e2d6310000081565b6704a03ce68d21555681565b6542524f4e5a4560d01b90565b601081565b600181565b600a670de0b6b3a7640000610719565b671bc16d674ec7ffff81565b600081565b6002670de0b6b3a7640000610719565b6000546001600160a01b031681565b600080610ce86012846001600160a01b031663313ce5676040518163ffffffff1660e01b815260040160206040518083038186803b158015610a0757600080fd5b90508015610d6a57610d6281600a0a846001600160a01b03166350d25bcd6040518163ffffffff1660e01b815260040160206040518083038186803b158015610d3057600080fd5b505afa158015610d44573d6000803e3d6000fd5b505050506040513d6020811015610d5a57600080fd5b505190610f51565b9150506107c2565b826001600160a01b03166350d25bcd6040518163ffffffff1660e01b815260040160206040518083038186803b158015610da357600080fd5b505afa158015610db7573d6000803e3d6000fd5b505050506040513d6020811015610dcd57600080fd5b505191506107c29050565b6000808290506000600160009054906101000a90046001600160a01b03166001600160a01b0316633ddac95385846001600160a01b031663313ce5676040518163ffffffff1660e01b815260040160206040518083038186803b158015610e3e57600080fd5b505afa158015610e52573d6000803e3d6000fd5b505050506040513d6020811015610e6857600080fd5b5051604080516001600160e01b031960e086901b1681526001600160a01b03909316600484015260ff9091166024830152516044808301926020929190829003018186803b158015610eb957600080fd5b505afa158015610ecd573d6000803e3d6000fd5b505050506040513d6020811015610ee357600080fd5b5051949350505050565b6000806000610efc85856110c2565b915091508015610f47576040805162461bcd60e51b81526020600482015260116024820152704552525f5355425f554e444552464c4f5760781b604482015290519081900360640190fd5b5090505b92915050565b600082610f6057506000610f4b565b82820282848281610f6d57fe5b0414610faa5760405162461bcd60e51b81526004018080602001828103825260218152602001806110e86021913960400191505060405180910390fd5b9392505050565b6000828202831580610fcb575082848281610fc857fe5b04145b61100f576040805162461bcd60e51b815260206004820152601060248201526f4552525f4d554c5f4f564552464c4f5760801b604482015290519081900360640190fd5b6706f05b59d3b20000810181811015611062576040805162461bcd60e51b815260206004820152601060248201526f4552525f4d554c5f4f564552464c4f5760801b604482015290519081900360640190fd5b670de0b6b3a76400009004949350505050565b600082820183811015610faa576040805162461bcd60e51b815260206004820152601060248201526f4552525f4144445f4f564552464c4f5760801b604482015290519081900360640190fd5b6000808284106110d857505080820360006110e0565b505081810360015b925092905056fe536166654d6174683a206d756c7469706c69636174696f6e206f766572666c6f77a2646970667358221220f22f389e4be5ef1ffcb5aa248d38a1a516d02c8f5edc38f82185637bb980383764736f6c634300060c0033",
  "devdoc": {
    "kind": "dev",
    "methods": {},
    "version": 1
  },
  "userdoc": {
    "kind": "user",
    "methods": {},
    "version": 1
  },
  "storageLayout": {
    "storage": [
      {
        "astId": 8300,
        "contract": "contracts/deploy/DesynChainlinkOracle.sol:DesynChainlinkOracle",
        "label": "admin",
        "offset": 0,
        "slot": "0",
        "type": "t_address"
      },
      {
        "astId": 8305,
        "contract": "contracts/deploy/DesynChainlinkOracle.sol:DesynChainlinkOracle",
        "label": "twapOracle",
        "offset": 0,
        "slot": "1",
        "type": "t_contract(IUniswapOracle)15121"
      },
      {
        "astId": 8308,
        "contract": "contracts/deploy/DesynChainlinkOracle.sol:DesynChainlinkOracle",
        "label": "testList",
        "offset": 0,
        "slot": "2",
        "type": "t_array(t_uint256)dyn_storage"
      },
      {
        "astId": 8312,
        "contract": "contracts/deploy/DesynChainlinkOracle.sol:DesynChainlinkOracle",
        "label": "prices",
        "offset": 0,
        "slot": "3",
        "type": "t_mapping(t_address,t_uint256)"
      },
      {
        "astId": 8316,
        "contract": "contracts/deploy/DesynChainlinkOracle.sol:DesynChainlinkOracle",
        "label": "feeds",
        "offset": 0,
        "slot": "4",
        "type": "t_mapping(t_bytes32,t_contract(AggregatorV2V3Interface)14720)"
      }
    ],
    "types": {
      "t_address": {
        "encoding": "inplace",
        "label": "address",
        "numberOfBytes": "20"
      },
      "t_array(t_uint256)dyn_storage": {
        "base": "t_uint256",
        "encoding": "dynamic_array",
        "label": "uint256[]",
        "numberOfBytes": "32"
      },
      "t_bytes32": {
        "encoding": "inplace",
        "label": "bytes32",
        "numberOfBytes": "32"
      },
      "t_contract(AggregatorV2V3Interface)14720": {
        "encoding": "inplace",
        "label": "contract AggregatorV2V3Interface",
        "numberOfBytes": "20"
      },
      "t_contract(IUniswapOracle)15121": {
        "encoding": "inplace",
        "label": "contract IUniswapOracle",
        "numberOfBytes": "20"
      },
      "t_mapping(t_address,t_uint256)": {
        "encoding": "mapping",
        "key": "t_address",
        "label": "mapping(address => uint256)",
        "numberOfBytes": "32",
        "value": "t_uint256"
      },
      "t_mapping(t_bytes32,t_contract(AggregatorV2V3Interface)14720)": {
        "encoding": "mapping",
        "key": "t_bytes32",
        "label": "mapping(bytes32 => contract AggregatorV2V3Interface)",
        "numberOfBytes": "32",
        "value": "t_contract(AggregatorV2V3Interface)14720"
      },
      "t_uint256": {
        "encoding": "inplace",
        "label": "uint256",
        "numberOfBytes": "32"
      }
    }
  }
}