{
  "address": "0x308a694c2bB024a2Cd8cCCB80eFd170761482886",
  "abi": [
    {
      "inputs": [],
      "stateMutability": "nonpayable",
      "type": "constructor"
    },
    {
      "anonymous": false,
      "inputs": [
        {
          "indexed": true,
          "internalType": "address",
          "name": "sender",
          "type": "address"
        },
        {
          "indexed": true,
          "internalType": "address",
          "name": "owner",
          "type": "address"
        },
        {
          "indexed": false,
          "internalType": "address",
          "name": "proxy",
          "type": "address"
        },
        {
          "indexed": false,
          "internalType": "address",
          "name": "cache",
          "type": "address"
        }
      ],
      "name": "Created",
      "type": "event"
    },
    {
      "inputs": [],
      "name": "build",
      "outputs": [
        {
          "internalType": "address payable",
          "name": "proxy",
          "type": "address"
        }
      ],
      "stateMutability": "nonpayable",
      "type": "function"
    },
    {
      "inputs": [
        {
          "internalType": "address",
          "name": "owner",
          "type": "address"
        }
      ],
      "name": "build",
      "outputs": [
        {
          "internalType": "address payable",
          "name": "proxy",
          "type": "address"
        }
      ],
      "stateMutability": "nonpayable",
      "type": "function"
    },
    {
      "inputs": [],
      "name": "cache",
      "outputs": [
        {
          "internalType": "contract DSProxyCache",
          "name": "",
          "type": "address"
        }
      ],
      "stateMutability": "view",
      "type": "function"
    },
    {
      "inputs": [
        {
          "internalType": "address",
          "name": "",
          "type": "address"
        }
      ],
      "name": "isProxy",
      "outputs": [
        {
          "internalType": "bool",
          "name": "",
          "type": "bool"
        }
      ],
      "stateMutability": "view",
      "type": "function"
    }
  ],
  "transactionHash": "0x3690a3077519ec56192e6a96807ecb96ce2ba55320aa6a48e9c25ca6f0351b7e",
  "args": [],
  "numDeployments": 1,
  "solcInputHash": "a86e93456cfbb956ab843adb2133c9fc",
  "bytecode": "0x608060405234801561001057600080fd5b5060405161001d9061005f565b604051809103906000f080158015610039573d6000803e3d6000fd5b50600180546001600160a01b0319166001600160a01b039290921691909117905561006c565b6102628061117883390190565b6110fd8061007b6000396000f3fe608060405234801561001057600080fd5b506004361061004c5760003560e01c8063297103881461005157806360c7d2951461008b5780638e1a55fc146100af578063f3701da2146100b7575b600080fd5b6100776004803603602081101561006757600080fd5b50356001600160a01b03166100dd565b604080519115158252519081900360200190f35b6100936100f2565b604080516001600160a01b039092168252519081900360200190f35b610093610101565b610093600480360360208110156100cd57600080fd5b50356001600160a01b0316610111565b60006020819052908152604090205460ff1681565b6001546001600160a01b031681565b600061010c33610111565b905090565b6001546040516000916001600160a01b03169061012d9061023a565b6001600160a01b03909116815260405190819003602001906000f08015801561015a573d6000803e3d6000fd5b50600154604080516001600160a01b038085168252928316602082015281519394509185169233927f259b30ca39885c6d801a0b5dbc988640f3c25e2f37531fe138c5c5af8955d41b92908290030190a3806001600160a01b03166313af4035836040518263ffffffff1660e01b815260040180826001600160a01b03168152602001915050600060405180830381600087803b1580156101fa57600080fd5b505af115801561020e573d6000803e3d6000fd5b5050506001600160a01b0382166000908152602081905260409020805460ff1916600117905550919050565b610e80806102488339019056fe608060405234801561001057600080fd5b50604051610e80380380610e808339818101604052602081101561003357600080fd5b5051600180546001600160a01b031916339081179091556040517fce241d7ca1f669fee44b6fc00b8eba2df3bb514eed0f6f668f8f89096e81ed9490600090a261007c81610083565b50506102ca565b600061009a336001600160e01b03198335166101e1565b6100eb576040805162461bcd60e51b815260206004820152601460248201527f64732d617574682d756e617574686f72697a6564000000000000000000000000604482015290519081900360640190fd5b600435602435346001600160a01b03851661014d576040805162461bcd60e51b815260206004820152601f60248201527f64732d70726f78792d63616368652d616464726573732d726571756972656400604482015290519081900360640190fd5b600280546001600160a01b0387166001600160a01b0319909116179055600193508183336001600160a01b03166000356001600160e01b0319166001600160e01b0319168460003660405180848152602001806020018281038252848482818152602001925080828437600083820152604051601f909101601f1916909201829003965090945050505050a4505050919050565b60006001600160a01b0383163014156101fc575060016102c4565b6001546001600160a01b038481169116141561021a575060016102c4565b6000546001600160a01b0316610232575060006102c4565b6000546040805163b700961360e01b81526001600160a01b0386811660048301523060248301526001600160e01b0319861660448301529151919092169163b7009613916064808301926020929190829003018186803b15801561029557600080fd5b505afa1580156102a9573d6000803e3d6000fd5b505050506040513d60208110156102bf57600080fd5b505190505b92915050565b610ba7806102d96000396000f3fe60806040526004361061006b5760003560e01c806313af40351461006d5780631cff79cd146100a057806360c7d295146101c95780637a9e5e4b146101fa5780638da5cb5b1461022d578063948f5076146102425780639d7e5b2714610289578063bf7e214f1461043c575b005b34801561007957600080fd5b5061006b6004803603602081101561009057600080fd5b50356001600160a01b0316610451565b610154600480360360408110156100b657600080fd5b6001600160a01b038235169190810190604081016020820135600160201b8111156100e057600080fd5b8201836020820111156100f257600080fd5b803590602001918460018302840111600160201b8311171561011357600080fd5b91908080601f0160208091040260200160405190810160405280939291908181526020018383808284376000920191909152509295506104ff945050505050565b6040805160208082528351818301528351919283929083019185019080838360005b8381101561018e578181015183820152602001610176565b50505050905090810190601f1680156101bb5780820380516001836020036101000a031916815260200191505b509250505060405180910390f35b3480156101d557600080fd5b506101de61067f565b604080516001600160a01b039092168252519081900360200190f35b34801561020657600080fd5b5061006b6004803603602081101561021d57600080fd5b50356001600160a01b031661068e565b34801561023957600080fd5b506101de610738565b34801561024e57600080fd5b506102756004803603602081101561026557600080fd5b50356001600160a01b0316610747565b604080519115158252519081900360200190f35b6103b46004803603606081101561029f57600080fd5b810190602081018135600160201b8111156102b957600080fd5b8201836020820111156102cb57600080fd5b803590602001918460018302840111600160201b831117156102ec57600080fd5b91908080601f0160208091040260200160405190810160405280939291908181526020018383808284376000920191909152509295949360208101935035915050600160201b81111561033e57600080fd5b82018360208201111561035057600080fd5b803590602001918460018302840111600160201b8311171561037157600080fd5b91908080601f016020809104026020016040519081016040528093929190818152602001838380828437600092019190915250929550505050351515905061089d565b60405180836001600160a01b0316815260200180602001828103825283818151815260200191508051906020019080838360005b838110156104005781810151838201526020016103e8565b50505050905090810190601f16801561042d5780820380516001836020036101000a031916815260200191505b50935050505060405180910390f35b34801561044857600080fd5b506101de610a79565b610467336000356001600160e01b031916610a88565b6104af576040805162461bcd60e51b8152602060048201526014602482015273191ccb585d5d1a0b5d5b985d5d1a1bdc9a5e995960621b604482015290519081900360640190fd5b600180546001600160a01b0319166001600160a01b0383811691909117918290556040519116907fce241d7ca1f669fee44b6fc00b8eba2df3bb514eed0f6f668f8f89096e81ed9490600090a250565b6060610517336000356001600160e01b031916610a88565b61055f576040805162461bcd60e51b8152602060048201526014602482015273191ccb585d5d1a0b5d5b985d5d1a1bdc9a5e995960621b604482015290519081900360640190fd5b600435602435346001600160a01b0386166105c1576040805162461bcd60e51b815260206004820181905260248201527f64732d70726f78792d7461726765742d616464726573732d7265717569726564604482015290519081900360640190fd5b600080865160208801896113885a03f43d6040519550601f19601f6020830101168601604052808652806000602088013e81156001811461060157610608565b8160208801fd5b5050508183336001600160a01b03166000356001600160e01b0319166001600160e01b0319168460003660405180848152602001806020018281038252848482818152602001925080828437600083820152604051601f909101601f1916909201829003965090945050505050a450505092915050565b6002546001600160a01b031681565b6106a4336000356001600160e01b031916610a88565b6106ec576040805162461bcd60e51b8152602060048201526014602482015273191ccb585d5d1a0b5d5b985d5d1a1bdc9a5e995960621b604482015290519081900360640190fd5b600080546001600160a01b0319166001600160a01b03838116919091178083556040519116917f1abebea81bfa2637f28358c371278fb15ede7ea8dd28d2e03b112ff6d936ada491a250565b6001546001600160a01b031681565b600061075f336000356001600160e01b031916610a88565b6107a7576040805162461bcd60e51b8152602060048201526014602482015273191ccb585d5d1a0b5d5b985d5d1a1bdc9a5e995960621b604482015290519081900360640190fd5b600435602435346001600160a01b038516610809576040805162461bcd60e51b815260206004820152601f60248201527f64732d70726f78792d63616368652d616464726573732d726571756972656400604482015290519081900360640190fd5b600280546001600160a01b0387166001600160a01b0319909116179055600193508183336001600160a01b03166000356001600160e01b0319166001600160e01b0319168460003660405180848152602001806020018281038252848482818152602001925080828437600083820152604051601f909101601f1916909201829003965090945050505050a4505050919050565b6002546040516322fd145760e21b81526020600482018181528651602484015286516000946060946001600160a01b0390911693638bf4515c938a9390928392604490910191908501908083838c5b838110156109045781810151838201526020016108ec565b50505050905090810190601f1680156109315780820380516001836020036101000a031916815260200191505b509250505060206040518083038186803b15801561094e57600080fd5b505afa158015610962573d6000803e3d6000fd5b505050506040513d602081101561097857600080fd5b505191506001600160a01b038216610a6557600254604051633f6861d960e11b81526020600482018181528851602484015288516001600160a01b0390941693637ed0c3b2938a9383926044909201919085019080838360005b838110156109ea5781810151838201526020016109d2565b50505050905090810190601f168015610a175780820380516001836020036101000a031916815260200191505b5092505050602060405180830381600087803b158015610a3657600080fd5b505af1158015610a4a573d6000803e3d6000fd5b505050506040513d6020811015610a6057600080fd5b505191505b610a6f82856104ff565b9050935093915050565b6000546001600160a01b031681565b60006001600160a01b038316301415610aa357506001610b6b565b6001546001600160a01b0384811691161415610ac157506001610b6b565b6000546001600160a01b0316610ad957506000610b6b565b6000546040805163b700961360e01b81526001600160a01b0386811660048301523060248301526001600160e01b0319861660448301529151919092169163b7009613916064808301926020929190829003018186803b158015610b3c57600080fd5b505afa158015610b50573d6000803e3d6000fd5b505050506040513d6020811015610b6657600080fd5b505190505b9291505056fea26469706673582212205e37f669d5954222e515e41a2706083aaafc60eff220176a92c68bdac8cdd26f64736f6c634300060c0033a2646970667358221220ec7952041cb907d8f8d5e79f8ec0385fa3b38262f7e01eae63eeeb462e141ed464736f6c634300060c0033608060405234801561001057600080fd5b50610242806100206000396000f3fe608060405234801561001057600080fd5b50600436106100365760003560e01c80637ed0c3b21461003b5780638bf4515c146100fb575b600080fd5b6100df6004803603602081101561005157600080fd5b810190602081018135600160201b81111561006b57600080fd5b82018360208201111561007d57600080fd5b803590602001918460018302840111600160201b8311171561009e57600080fd5b91908080601f01602080910402602001604051908101604052809392919081815260200183838082843760009201919091525092955061019f945050505050565b604080516001600160a01b039092168252519081900360200190f35b6100df6004803603602081101561011157600080fd5b810190602081018135600160201b81111561012b57600080fd5b82018360208201111561013d57600080fd5b803590602001918460018302840111600160201b8311171561015e57600080fd5b91908080601f0160208091040260200160405190810160405280939291908181526020018383808284376000920191909152509295506101ea945050505050565b60008151602083016000f09050803b156001811461003657508151602092830120600090815291829052604090912080546001600160a01b0319166001600160a01b03831617905590565b805160209182012060009081529081905260409020546001600160a01b03169056fea264697066735822122038da65fa1fece43ee047ae1357885eeac04c8053ff1c5d9d9cbdfb6f982a7bb864736f6c634300060c0033",
  "libraries": {},
  "devdoc": {
    "kind": "dev",
    "methods": {},
    "version": 1
  },
  "userdoc": {
    "kind": "user",
    "methods": {},
    "version": 1
  },
  "storageLayout": {
    "storage": [
      {
        "astId": 313,
        "contract": "contracts/deploy/DSProxyContract.sol:DSProxyFactory",
        "label": "isProxy",
        "offset": 0,
        "slot": "0",
        "type": "t_mapping(t_address,t_bool)"
      },
      {
        "astId": 315,
        "contract": "contracts/deploy/DSProxyContract.sol:DSProxyFactory",
        "label": "cache",
        "offset": 0,
        "slot": "1",
        "type": "t_contract(DSProxyCache)431"
      }
    ],
    "types": {
      "t_address": {
        "encoding": "inplace",
        "label": "address",
        "numberOfBytes": "20"
      },
      "t_bool": {
        "encoding": "inplace",
        "label": "bool",
        "numberOfBytes": "1"
      },
      "t_contract(DSProxyCache)431": {
        "encoding": "inplace",
        "label": "contract DSProxyCache",
        "numberOfBytes": "20"
      },
      "t_mapping(t_address,t_bool)": {
        "encoding": "mapping",
        "key": "t_address",
        "label": "mapping(address => bool)",
        "numberOfBytes": "32",
        "value": "t_bool"
      }
    }
  }
}