{
  "address": "0xE76902E97203Cb9938d36C01E1ef975B4D394398",
  "abi": [
    {
      "inputs": [],
      "stateMutability": "nonpayable",
      "type": "constructor"
    },
    {
      "anonymous": false,
      "inputs": [
        {
          "indexed": true,
          "internalType": "address",
          "name": "caller",
          "type": "address"
        },
        {
          "indexed": true,
          "internalType": "address",
          "name": "blabs",
          "type": "address"
        }
      ],
      "name": "LOG_BLABS",
      "type": "event"
    },
    {
      "anonymous": false,
      "inputs": [
        {
          "indexed": true,
          "internalType": "address",
          "name": "spender",
          "type": "address"
        },
        {
          "indexed": true,
          "internalType": "uint256",
          "name": "sort",
          "type": "uint256"
        },
        {
          "indexed": true,
          "internalType": "address",
          "name": "caller",
          "type": "address"
        },
        {
          "indexed": false,
          "internalType": "address",
          "name": "token",
          "type": "address"
        }
      ],
      "name": "LOG_DEL_WHITELIST",
      "type": "event"
    },
    {
      "anonymous": false,
      "inputs": [
        {
          "indexed": true,
          "internalType": "address",
          "name": "manager",
          "type": "address"
        },
        {
          "indexed": true,
          "internalType": "address",
          "name": "caller",
          "type": "address"
        }
      ],
      "name": "LOG_MANAGER",
      "type": "event"
    },
    {
      "anonymous": false,
      "inputs": [
        {
          "indexed": true,
          "internalType": "address",
          "name": "caller",
          "type": "address"
        },
        {
          "indexed": true,
          "internalType": "address",
          "name": "pool",
          "type": "address"
        }
      ],
      "name": "LOG_NEW_POOL",
      "type": "event"
    },
    {
      "anonymous": false,
      "inputs": [
        {
          "indexed": true,
          "internalType": "address",
          "name": "caller",
          "type": "address"
        },
        {
          "indexed": true,
          "internalType": "address",
          "name": "oracle",
          "type": "address"
        }
      ],
      "name": "LOG_ORACLE",
      "type": "event"
    },
    {
      "anonymous": false,
      "inputs": [
        {
          "indexed": true,
          "internalType": "address",
          "name": "caller",
          "type": "address"
        },
        {
          "indexed": true,
          "internalType": "address",
          "name": "router",
          "type": "address"
        }
      ],
      "name": "LOG_ROUTER",
      "type": "event"
    },
    {
      "anonymous": false,
      "inputs": [
        {
          "indexed": true,
          "internalType": "address",
          "name": "vault",
          "type": "address"
        },
        {
          "indexed": true,
          "internalType": "address",
          "name": "caller",
          "type": "address"
        }
      ],
      "name": "LOG_USER_VAULT",
      "type": "event"
    },
    {
      "anonymous": false,
      "inputs": [
        {
          "indexed": true,
          "internalType": "address",
          "name": "vault",
          "type": "address"
        },
        {
          "indexed": true,
          "internalType": "address",
          "name": "caller",
          "type": "address"
        }
      ],
      "name": "LOG_VAULT",
      "type": "event"
    },
    {
      "anonymous": false,
      "inputs": [
        {
          "indexed": true,
          "internalType": "address",
          "name": "spender",
          "type": "address"
        },
        {
          "indexed": true,
          "internalType": "uint256",
          "name": "sort",
          "type": "uint256"
        },
        {
          "indexed": true,
          "internalType": "address",
          "name": "caller",
          "type": "address"
        },
        {
          "indexed": false,
          "internalType": "address",
          "name": "token",
          "type": "address"
        }
      ],
      "name": "LOG_WHITELIST",
      "type": "event"
    },
    {
      "anonymous": false,
      "inputs": [
        {
          "indexed": false,
          "internalType": "address",
          "name": "etf",
          "type": "address"
        },
        {
          "indexed": false,
          "internalType": "address",
          "name": "module",
          "type": "address"
        },
        {
          "indexed": false,
          "internalType": "bool",
          "name": "status",
          "type": "bool"
        }
      ],
      "name": "MODULE_STATUS_CHANGE",
      "type": "event"
    },
    {
      "inputs": [
        {
          "internalType": "uint256[]",
          "name": "sort",
          "type": "uint256[]"
        },
        {
          "internalType": "address[]",
          "name": "token",
          "type": "address[]"
        }
      ],
      "name": "addTokenToWhitelist",
      "outputs": [],
      "stateMutability": "nonpayable",
      "type": "function"
    },
    {
      "inputs": [],
      "name": "bytecodes",
      "outputs": [
        {
          "internalType": "bytes",
          "name": "",
          "type": "bytes"
        }
      ],
      "stateMutability": "view",
      "type": "function"
    },
    {
      "inputs": [
        {
          "internalType": "contract IERC20",
          "name": "token",
          "type": "address"
        }
      ],
      "name": "collect",
      "outputs": [],
      "stateMutability": "nonpayable",
      "type": "function"
    },
    {
      "inputs": [],
      "name": "getBLabs",
      "outputs": [
        {
          "internalType": "address",
          "name": "",
          "type": "address"
        }
      ],
      "stateMutability": "view",
      "type": "function"
    },
    {
      "inputs": [],
      "name": "getColor",
      "outputs": [
        {
          "internalType": "bytes32",
          "name": "",
          "type": "bytes32"
        }
      ],
      "stateMutability": "pure",
      "type": "function"
    },
    {
      "inputs": [],
      "name": "getManagerOwner",
      "outputs": [
        {
          "internalType": "address",
          "name": "",
          "type": "address"
        }
      ],
      "stateMutability": "view",
      "type": "function"
    },
    {
      "inputs": [
        {
          "internalType": "address",
          "name": "etf",
          "type": "address"
        },
        {
          "internalType": "address",
          "name": "module",
          "type": "address"
        }
      ],
      "name": "getModuleStatus",
      "outputs": [
        {
          "internalType": "bool",
          "name": "",
          "type": "bool"
        }
      ],
      "stateMutability": "view",
      "type": "function"
    },
    {
      "inputs": [],
      "name": "getOracleAddress",
      "outputs": [
        {
          "internalType": "address",
          "name": "",
          "type": "address"
        }
      ],
      "stateMutability": "view",
      "type": "function"
    },
    {
      "inputs": [],
      "name": "getSwapRouter",
      "outputs": [
        {
          "internalType": "address",
          "name": "",
          "type": "address"
        }
      ],
      "stateMutability": "view",
      "type": "function"
    },
    {
      "inputs": [],
      "name": "getUserVault",
      "outputs": [
        {
          "internalType": "address",
          "name": "",
          "type": "address"
        }
      ],
      "stateMutability": "view",
      "type": "function"
    },
    {
      "inputs": [],
      "name": "getVault",
      "outputs": [
        {
          "internalType": "address",
          "name": "",
          "type": "address"
        }
      ],
      "stateMutability": "view",
      "type": "function"
    },
    {
      "inputs": [
        {
          "internalType": "address",
          "name": "b",
          "type": "address"
        }
      ],
      "name": "isLiquidityPool",
      "outputs": [
        {
          "internalType": "bool",
          "name": "",
          "type": "bool"
        }
      ],
      "stateMutability": "view",
      "type": "function"
    },
    {
      "inputs": [
        {
          "internalType": "uint256",
          "name": "sort",
          "type": "uint256"
        },
        {
          "internalType": "address",
          "name": "token",
          "type": "address"
        }
      ],
      "name": "isTokenWhitelistedForVerify",
      "outputs": [
        {
          "internalType": "bool",
          "name": "",
          "type": "bool"
        }
      ],
      "stateMutability": "view",
      "type": "function"
    },
    {
      "inputs": [
        {
          "internalType": "address",
          "name": "token",
          "type": "address"
        }
      ],
      "name": "isTokenWhitelistedForVerify",
      "outputs": [
        {
          "internalType": "bool",
          "name": "",
          "type": "bool"
        }
      ],
      "stateMutability": "view",
      "type": "function"
    },
    {
      "inputs": [],
      "name": "newLiquidityPool",
      "outputs": [
        {
          "internalType": "contract IBPool",
          "name": "",
          "type": "address"
        }
      ],
      "stateMutability": "nonpayable",
      "type": "function"
    },
    {
      "inputs": [
        {
          "internalType": "address",
          "name": "etf",
          "type": "address"
        },
        {
          "internalType": "address",
          "name": "module",
          "type": "address"
        }
      ],
      "name": "registerModule",
      "outputs": [],
      "stateMutability": "nonpayable",
      "type": "function"
    },
    {
      "inputs": [
        {
          "internalType": "address",
          "name": "etf",
          "type": "address"
        },
        {
          "internalType": "address",
          "name": "module",
          "type": "address"
        }
      ],
      "name": "removeModule",
      "outputs": [],
      "stateMutability": "nonpayable",
      "type": "function"
    },
    {
      "inputs": [
        {
          "internalType": "uint256[]",
          "name": "sort",
          "type": "uint256[]"
        },
        {
          "internalType": "address[]",
          "name": "token",
          "type": "address[]"
        }
      ],
      "name": "removeTokenFromWhitelist",
      "outputs": [],
      "stateMutability": "nonpayable",
      "type": "function"
    },
    {
      "inputs": [
        {
          "internalType": "address",
          "name": "b",
          "type": "address"
        }
      ],
      "name": "setBLabs",
      "outputs": [],
      "stateMutability": "nonpayable",
      "type": "function"
    },
    {
      "inputs": [
        {
          "internalType": "address",
          "name": "newManagerOwner",
          "type": "address"
        }
      ],
      "name": "setManagerOwner",
      "outputs": [],
      "stateMutability": "nonpayable",
      "type": "function"
    },
    {
      "inputs": [
        {
          "internalType": "address",
          "name": "oracle",
          "type": "address"
        }
      ],
      "name": "setOracle",
      "outputs": [],
      "stateMutability": "nonpayable",
      "type": "function"
    },
    {
      "inputs": [
        {
          "internalType": "address",
          "name": "router",
          "type": "address"
        }
      ],
      "name": "setSwapRouter",
      "outputs": [],
      "stateMutability": "nonpayable",
      "type": "function"
    },
    {
      "inputs": [
        {
          "internalType": "address",
          "name": "newVault",
          "type": "address"
        }
      ],
      "name": "setUserVault",
      "outputs": [],
      "stateMutability": "nonpayable",
      "type": "function"
    },
    {
      "inputs": [
        {
          "internalType": "address",
          "name": "newVault",
          "type": "address"
        }
      ],
      "name": "setVault",
      "outputs": [],
      "stateMutability": "nonpayable",
      "type": "function"
    }
  ],
  "transactionHash": "0x103254b44add2faf965bbc8eed509f1b30f332a540bf6cb08675f4fe95e9a98b",
  "args": [],
  "numDeployments": 1,
  "solcInputHash": "ec6aa3e489db51b52585f0a55af97c3a",
  "bytecode": "0x608060408190526200001260a062000063565b601f1982820381018352601f9091011660405280516200003c916007916020919091019062000071565b503480156200004a57600080fd5b50600880546001600160a01b031916331790556200010d565b615856806200177e83390190565b828054600181600116156101000203166002900490600052602060002090601f016020900481019282601f10620000b457805160ff1916838001178555620000e4565b82800160010185558215620000e4579182015b82811115620000e4578251825591602001919060010190620000c7565b50620000f2929150620000f6565b5090565b5b80821115620000f25760008155600101620000f7565b611661806200011d6000396000f3fe608060405234801561001057600080fd5b50600436106101285760003560e01c806306ec16f81461012d5780630846396514610155578063131d6a12146101d257806336ffb167146102f557806338f0d24514610319578063412736571461035b5780636817031b146103815780636a36e3a2146103a7578063703a9ec9146103d5578063725c9c49146103dd5780637adbf973146103e55780638a53ea771461040b5780638b0e8e67146104395780638d928af81461045f5780638f49f44d14610467578063911fb0351461049357806391cefde41461049b5780639a86139b146104a3578063a6c245c4146104bd578063b18b78dd146105e0578063c6ce34fb146105e8578063ce2958ed1461060e578063db7ca46b14610634578063e85455d71461065a575b600080fd5b6101536004803603602081101561014357600080fd5b50356001600160a01b0316610680565b005b61015d61081d565b6040805160208082528351818301528351919283929083019185019080838360005b8381101561019757818101518382015260200161017f565b50505050905090810190601f1680156101c45780820380516001836020036101000a031916815260200191505b509250505060405180910390f35b610153600480360360408110156101e857600080fd5b810190602081018135600160201b81111561020257600080fd5b82018360208201111561021457600080fd5b803590602001918460208302840111600160201b8311171561023557600080fd5b9190808060200260200160405190810160405280939291908181526020018383602002808284376000920191909152509295949360208101935035915050600160201b81111561028457600080fd5b82018360208201111561029657600080fd5b803590602001918460208302840111600160201b831117156102b757600080fd5b9190808060200260200160405190810160405280939291908181526020018383602002808284376000920191909152509295506108ab945050505050565b6102fd61098e565b604080516001600160a01b039092168252519081900360200190f35b6103476004803603604081101561032f57600080fd5b506001600160a01b038135811691602001351661099d565b604080519115158252519081900360200190f35b6101536004803603602081101561037157600080fd5b50356001600160a01b03166109cb565b6101536004803603602081101561039757600080fd5b50356001600160a01b0316610a72565b610153600480360360408110156103bd57600080fd5b506001600160a01b0381358116916020013516610b0e565b6102fd610c65565b6102fd610c74565b610153600480360360208110156103fb57600080fd5b50356001600160a01b0316610c83565b6101536004803603604081101561042157600080fd5b506001600160a01b0381358116916020013516610d2a565b6101536004803603602081101561044f57600080fd5b50356001600160a01b0316610e8b565b6102fd610f27565b6103476004803603604081101561047d57600080fd5b50803590602001356001600160a01b0316610f36565b6102fd610f49565b6102fd610f58565b6104ab611017565b60408051918252519081900360200190f35b610153600480360360408110156104d357600080fd5b810190602081018135600160201b8111156104ed57600080fd5b8201836020820111156104ff57600080fd5b803590602001918460208302840111600160201b8311171561052057600080fd5b9190808060200260200160405190810160405280939291908181526020018383602002808284376000920191909152509295949360208101935035915050600160201b81111561056f57600080fd5b82018360208201111561058157600080fd5b803590602001918460208302840111600160201b831117156105a257600080fd5b919080806020026020016040519081016040528093929190818152602001838360200280828437600092019190915250929550611024945050505050565b6102fd611107565b610153600480360360208110156105fe57600080fd5b50356001600160a01b0316611116565b6101536004803603602081101561062457600080fd5b50356001600160a01b03166111bd565b6103476004803603602081101561064a57600080fd5b50356001600160a01b0316611259565b6103476004803603602081101561067057600080fd5b50356001600160a01b031661126a565b6008546001600160a01b031633146106cf576040805162461bcd60e51b815260206004820152600d60248201526c4552525f4e4f545f424c41425360981b604482015290519081900360640190fd5b6000816001600160a01b03166370a08231306040518263ffffffff1660e01b815260040180826001600160a01b0316815260200191505060206040518083038186803b15801561071e57600080fd5b505afa158015610732573d6000803e3d6000fd5b505050506040513d602081101561074857600080fd5b50516008546040805163a9059cbb60e01b81526001600160a01b0392831660048201526024810184905290519293506000929185169163a9059cbb9160448082019260209290919082900301818787803b1580156107a557600080fd5b505af11580156107b9573d6000803e3d6000fd5b505050506040513d60208110156107cf57600080fd5b5051905080610818576040805162461bcd60e51b815260206004820152601060248201526f11549497d15490cc8c17d1905253115160821b604482015290519081900360640190fd5b505050565b6007805460408051602060026001851615610100026000190190941693909304601f810184900484028201840190925281815292918301828280156108a35780601f10610878576101008083540402835291602001916108a3565b820191906000526020600020905b81548152906001019060200180831161088657829003601f168201915b505050505081565b6008546001600160a01b031633146108fa576040805162461bcd60e51b815260206004820152600d60248201526c4552525f4e4f545f424c41425360981b604482015290519081900360640190fd5b805182511461094a576040805162461bcd60e51b815260206004820152601760248201527608aa4a4bea69ea4a8bea89e968a9cbe9a92a69a82a8869604b1b604482015290519081900360640190fd5b60005b82518110156108185761098683828151811061096557fe5b602002602001015183838151811061097957fe5b6020026020010151611288565b60010161094d565b6008546001600160a01b031690565b6001600160a01b03918216600090815260056020908152604080832093909416825291909152205460ff1690565b6008546001600160a01b03163314610a1a576040805162461bcd60e51b815260206004820152600d60248201526c4552525f4e4f545f424c41425360981b604482015290519081900360640190fd5b6040516001600160a01b0382169033907ff815765bd6d6c517d28ff37f93b0a22f1aaee69b50d788b6266f2d13f20c6d0990600090a3600980546001600160a01b0319166001600160a01b0392909216919091179055565b6008546001600160a01b03163314610ac1576040805162461bcd60e51b815260206004820152600d60248201526c4552525f4e4f545f424c41425360981b604482015290519081900360640190fd5b600d80546001600160a01b0319166001600160a01b0383169081179091556040513391907fb4dea88882442451a462d3bdfdca2f8ef2b3516e079b0d5aaff6460ccdb706f490600090a350565b6008546001600160a01b03163314610b5d576040805162461bcd60e51b815260206004820152600d60248201526c4552525f4e4f545f424c41425360981b604482015290519081900360640190fd5b6001600160a01b038216610bab576040805162461bcd60e51b815260206004820152601060248201526f5a45524f20455446204144445245535360801b604482015290519081900360640190fd5b6001600160a01b038116610bf5576040805162461bcd60e51b815260206004820152600c60248201526b5a45524f204144445245535360a01b604482015290519081900360640190fd5b6001600160a01b038083166000818152600560209081526040808320948616808452948252808320805460ff191690558051938452908301939093528183015290517f68c33efced6f26119f0dd6351ae1fb557d5329dfac87e377d4f9d1a1d77d8acb9181900360600190a15050565b600e546001600160a01b031690565b6009546001600160a01b031690565b6008546001600160a01b03163314610cd2576040805162461bcd60e51b815260206004820152600d60248201526c4552525f4e4f545f424c41425360981b604482015290519081900360640190fd5b6040516001600160a01b0382169033907f7301a3fa5e149ffdc294fe3b3ac0abb0ec25be499c812f4daa2edacaa85e44cd90600090a3600b80546001600160a01b0319166001600160a01b0392909216919091179055565b6008546001600160a01b03163314610d79576040805162461bcd60e51b815260206004820152600d60248201526c4552525f4e4f545f424c41425360981b604482015290519081900360640190fd5b6001600160a01b038216610dc7576040805162461bcd60e51b815260206004820152601060248201526f5a45524f20455446204144445245535360801b604482015290519081900360640190fd5b6001600160a01b038116610e11576040805162461bcd60e51b815260206004820152600c60248201526b5a45524f204144445245535360a01b604482015290519081900360640190fd5b6001600160a01b03808316600081815260056020908152604080832094861680845294825291829020805460ff191660019081179091558251938452908301939093528181019290925290517f68c33efced6f26119f0dd6351ae1fb557d5329dfac87e377d4f9d1a1d77d8acb9181900360600190a15050565b6008546001600160a01b03163314610eda576040805162461bcd60e51b815260206004820152600d60248201526c4552525f4e4f545f424c41425360981b604482015290519081900360640190fd5b600e80546001600160a01b0319166001600160a01b0383169081179091556040513391907fbe29361fcb0d6d7a528b06b7e3c978b225c152a431ac559470986926fe26692590600090a350565b600d546001600160a01b031690565b6000610f428383611372565b9392505050565b600c546001600160a01b031690565b600080610f6361139d565b6001600160a01b038116600081815260046020526040808220805460ff1916600117905551929350909133917f8ccec77b0cb63ac2cafd0f5de8cdfadab91ce656d262240ba8a6343bccc5f94591a3604080516392eefe9b60e01b815233600482015290516001600160a01b038316916392eefe9b91602480830192600092919082900301818387803b158015610ff957600080fd5b505af115801561100d573d6000803e3d6000fd5b5092935050505090565b6542524f4e5a4560d01b90565b6008546001600160a01b03163314611073576040805162461bcd60e51b815260206004820152600d60248201526c4552525f4e4f545f424c41425360981b604482015290519081900360640190fd5b80518251146110c3576040805162461bcd60e51b815260206004820152601760248201527608aa4a4bea69ea4a8bea89e968a9cbe9a92a69a82a8869604b1b604482015290519081900360640190fd5b60005b8251811015610818576110ff8382815181106110de57fe5b60200260200101518383815181106110f257fe5b6020026020010151611487565b6001016110c6565b600b546001600160a01b031690565b6008546001600160a01b03163314611165576040805162461bcd60e51b815260206004820152600d60248201526c4552525f4e4f545f424c41425360981b604482015290519081900360640190fd5b6040516001600160a01b0382169033907ff586fa6ee1fc42f5b727f3b214ccbd0b6d7e698c45d49ba32f224fbb8670155d90600090a3600880546001600160a01b0319166001600160a01b0392909216919091179055565b6008546001600160a01b0316331461120c576040805162461bcd60e51b815260206004820152600d60248201526c4552525f4e4f545f424c41425360981b604482015290519081900360640190fd5b600c80546001600160a01b0319166001600160a01b0383169081179091556040513391907fdfa80e1b5701b0f43e2c819edc582ef49b743b1c914e8824cb01ed6156868c0a90600090a350565b6000611264826115e2565b92915050565b6001600160a01b031660009081526004602052604090205460ff1690565b611291816115e2565b15156001146112dd576040805162461bcd60e51b815260206004820152601360248201527222a9292fa727aa2faba424aa22afaa27a5a2a760691b604482015290519081900360640190fd5b60008281526003602090815260408083206001600160a01b03851684528252808320805460ff199081169091556002909252909120805490911690556001805460001901905561132b611600565b604080516001600160a01b038316815290513391849130917ff27ed63b9bdfafba10ef35fe37741d317458bbdb30dddc979bd9df79fc8b5d4f919081900360200190a45050565b60009182526003602090815260408084206001600160a01b0393909316845291905290205460ff1690565b6007805460408051602060026001851615610100026000190190941693909304601f81018490048402820184019092528181526000936060939192909183018282801561142b5780601f106114005761010080835404028352916020019161142b565b820191906000526020600020905b81548152906001019060200180831161140e57829003601f168201915b50506006805460018101909155604080516020808201939093528151808203840181529082019091528051908201208551959650948594509250850190506000f59250823b61147957600080fd5b505060068054600101905590565b6001600160a01b0381166114de576040805162461bcd60e51b81526020600482015260196024820152784552525f494e56414c49445f544f4b454e5f4144445245535360381b604482015290519081900360640190fd5b6114e7816115e2565b15611534576040805162461bcd60e51b81526020600482015260186024820152774552525f4841535f4245454e5f41444445445f574849544560401b604482015290519081900360640190fd5b60008281526003602090815260408083206001600160a01b038516845282528083208054600160ff199182168117909255600290935290832080549092161790555460ff1661158b576000805460ff191660011790555b600180548101905561159b611600565b604080516001600160a01b038316815290513391849130917f5ab6a0d7af8e86f78c34acea4f8aff1be027227ce1bc29e03f57f39b788f4b04919081900360200190a45050565b6001600160a01b031660009081526002602052604090205460ff1690565b6001541561161d576000805460ff19166001908117909155611628565b6000805460ff191681555b5056fea2646970667358221220a9f0a275ef6b3dd0f409912ae488579a0c18da988541594e9bb49be176dcbe1f64736f6c634300060c003360c0604052601060808190526f2232b9bcb7102837b7b6102a37b5b2b760811b60a090815262000033916003919062000175565b506040805180820190915260038082526211141560ea1b6020909201918252620000609160049162000175565b506005805460ff191660121790553480156200007b57600080fd5b5060068054336001600160a01b031990911681179091556005805462010000600160b01b03191662010000909202919091179055620f4240670de0b6b3a7640000046007556006805460ff60a01b191690556008805460ff191690556005546040805163b18b78dd60e01b81529051620100009092046001600160a01b03169163b18b78dd91600480820192602092909190829003018186803b1580156200012257600080fd5b505afa15801562000137573d6000803e3d6000fd5b505050506040513d60208110156200014e57600080fd5b5051600c80546001600160a01b0319166001600160a01b0390921691909117905562000211565b828054600181600116156101000203166002900490600052602060002090601f016020900481019282601f10620001b857805160ff1916838001178555620001e8565b82800160010185558215620001e8579182015b82811115620001e8578251825591602001919060010190620001cb565b50620001f6929150620001fa565b5090565b5b80821115620001f65760008155600101620001fb565b61563580620002216000396000f3fe6080604052600436106102bb5760003560e01c8063992e2a921161016c578063992e2a92146108a75780639a86139b146108bc578063a221ee49146108d1578063a61e44f514610913578063a9059cbb14610946578063b02f0b731461097f578063b0e0d13614610a01578063b61d27f614610a16578063b7b800a414610aa6578063ba019dab14610aa6578063ba9530a614610abb578063bc063e1a14610b03578063bc694ea214610b18578063be3bbd2e14610b2d578063c36596a6146103ef578063c6580d1214610b92578063cbf3a56b14610ba7578063cc77828d14610bfe578063cd2ed8fb14610c13578063cf5e7bd314610c28578063d4cadf6814610c5b578063d73dd62314610c70578063dd62ed3e14610ca9578063e4a28a521461039e578063e4e1e53814610ce4578063ec09302114610d23578063f1b8a9b714610d38578063f8b2cb4f14610d6b578063f8d6aed414610d9e578063fde924f714610de6576102c2565b806306fdde03146102c7578063095ea7b31461035157806309a3bbe41461039e57806318160ddd146103c5578063189d00ca146103da578063218b5382146103ef57806323b872dd146104045780632f37b624146104475780633018205f1461047a578063313ce567146104ab57806334e19907146104d65780633fdddaa21461050257806349b59552146105415780634bb278f31461056d5780634f69c0d4146105825780635c1bbaf714610604578063661884631461064c57806370a082311461068557806376c7a3c7146106b857806382f652ad146106cd5780638656b65314610715578063867378c51461075d57806389298012146107725780638c28cbe8146107ba5780638d4e4083146107ed57806392eefe9b14610802578063936c3477146108355780639381cd2b1461084a578063948d8ce61461085f57806395d89b4114610892576102c2565b366102c257005b600080fd5b3480156102d357600080fd5b506102dc610dfb565b6040805160208082528351818301528351919283929083019185019080838360005b838110156103165781810151838201526020016102fe565b50505050905090810190601f1680156103435780820380516001836020036101000a031916815260200191505b509250505060405180910390f35b34801561035d57600080fd5b5061038a6004803603604081101561037457600080fd5b506001600160a01b038135169060200135610e91565b604080519115158252519081900360200190f35b3480156103aa57600080fd5b506103b3610ee6565b60408051918252519081900360200190f35b3480156103d157600080fd5b506103b3610ef3565b3480156103e657600080fd5b506103b3610ef9565b3480156103fb57600080fd5b506103b3610f0d565b34801561041057600080fd5b5061038a6004803603606081101561042757600080fd5b506001600160a01b03813581169160208101359091169060400135610f19565b34801561045357600080fd5b5061038a6004803603602081101561046a57600080fd5b50356001600160a01b0316611070565b34801561048657600080fd5b5061048f61108e565b604080516001600160a01b039092168252519081900360200190f35b3480156104b757600080fd5b506104c06110ec565b6040805160ff9092168252519081900360200190f35b3480156104e257600080fd5b50610500600480360360208110156104f957600080fd5b50356110f5565b005b34801561050e57600080fd5b506105006004803603606081101561052557600080fd5b506001600160a01b0381351690602081013590604001356112e6565b34801561054d57600080fd5b506105006004803603602081101561056457600080fd5b503515156116b0565b34801561057957600080fd5b50610500611827565b34801561058e57600080fd5b50610500600480360360408110156105a557600080fd5b81359190810190604081016020820135600160201b8111156105c657600080fd5b8201836020820111156105d857600080fd5b803590602001918460208302840111600160201b831117156105f957600080fd5b509092509050611a12565b34801561061057600080fd5b506103b3600480360360c081101561062757600080fd5b5080359060208101359060408101359060608101359060808101359060a00135611d0b565b34801561065857600080fd5b5061038a6004803603604081101561066f57600080fd5b506001600160a01b038135169060200135611dc3565b34801561069157600080fd5b506103b3600480360360208110156106a857600080fd5b50356001600160a01b0316611e9b565b3480156106c457600080fd5b506103b3611eb6565b3480156106d957600080fd5b506103b3600480360360c08110156106f057600080fd5b5080359060208101359060408101359060608101359060808101359060a00135611ec8565b34801561072157600080fd5b506103b3600480360360c081101561073857600080fd5b5080359060208101359060408101359060608101359060808101359060a00135611f87565b34801561076957600080fd5b506103b3612028565b34801561077e57600080fd5b506103b3600480360360c081101561079557600080fd5b5080359060208101359060408101359060608101359060808101359060a0013561203c565b3480156107c657600080fd5b50610500600480360360208110156107dd57600080fd5b50356001600160a01b03166120ec565b3480156107f957600080fd5b5061038a6122a0565b34801561080e57600080fd5b506105006004803603602081101561082557600080fd5b50356001600160a01b03166122a9565b34801561084157600080fd5b506103b36123e0565b34801561085657600080fd5b506103b3612435565b34801561086b57600080fd5b506103b36004803603602081101561088257600080fd5b50356001600160a01b0316612442565b34801561089e57600080fd5b506102dc61250c565b3480156108b357600080fd5b506103b361256d565b3480156108c857600080fd5b506103b3612579565b3480156108dd57600080fd5b506103b3600480360360a08110156108f457600080fd5b5080359060208101359060408101359060608101359060800135612586565b34801561091f57600080fd5b506105006004803603602081101561093657600080fd5b50356001600160a01b03166125eb565b34801561095257600080fd5b5061038a6004803603604081101561096957600080fd5b506001600160a01b0381351690602001356128f3565b34801561098b57600080fd5b50610500600480360360408110156109a257600080fd5b81359190810190604081016020820135600160201b8111156109c357600080fd5b8201836020820111156109d557600080fd5b803590602001918460208302840111600160201b831117156109f657600080fd5b509092509050612909565b348015610a0d57600080fd5b506103b3612c02565b348015610a2257600080fd5b506102dc60048036036060811015610a3957600080fd5b6001600160a01b0382351691602081013591810190606081016040820135600160201b811115610a6857600080fd5b820183602082011115610a7a57600080fd5b803590602001918460018302840111600160201b83111715610a9b57600080fd5b509092509050612c07565b348015610ab257600080fd5b506103b3612db8565b348015610ac757600080fd5b506103b3600480360360c0811015610ade57600080fd5b5080359060208101359060408101359060608101359060808101359060a00135612dbd565b348015610b0f57600080fd5b506103b3612e3e565b348015610b2457600080fd5b506103b3612e4e565b348015610b3957600080fd5b50610b42612e5a565b60408051602080825283518183015283519192839290830191858101910280838360005b83811015610b7e578181015183820152602001610b66565b505050509050019250505060405180910390f35b348015610b9e57600080fd5b506103b3612f52565b348015610bb357600080fd5b50610500600480360360c0811015610bca57600080fd5b506001600160a01b038135811691602081013590911690604081013590606081013590608081013515159060a00135612f57565b348015610c0a57600080fd5b50610b42613d3d565b348015610c1f57600080fd5b506103b3613d8b565b348015610c3457600080fd5b5061050060048036036020811015610c4b57600080fd5b50356001600160a01b0316613d91565b348015610c6757600080fd5b506103b36140d5565b348015610c7c57600080fd5b5061038a60048036036040811015610c9357600080fd5b506001600160a01b03813516906020013561412a565b348015610cb557600080fd5b506103b360048036036040811015610ccc57600080fd5b506001600160a01b03813581169160200135166141ab565b348015610cf057600080fd5b5061050060048036036060811015610d0757600080fd5b506001600160a01b0381351690602081013590604001356141d6565b348015610d2f57600080fd5b506103b3614421565b348015610d4457600080fd5b506103b360048036036020811015610d5b57600080fd5b50356001600160a01b0316614431565b348015610d7757600080fd5b506103b360048036036020811015610d8e57600080fd5b50356001600160a01b031661473e565b348015610daa57600080fd5b506103b3600480360360c0811015610dc157600080fd5b5080359060208101359060408101359060608101359060808101359060a00135614808565b348015610df257600080fd5b5061038a61488b565b60038054604080516020601f6002600019610100600188161502019095169490940493840181900481028201810190925282815260609390929091830182828015610e875780601f10610e5c57610100808354040283529160200191610e87565b820191906000526020600020905b815481529060010190602001808311610e6a57829003601f168201915b5050505050905090565b3360008181526001602090815260408083206001600160a01b038716808552908352818420869055815186815291519394909390926000805160206155c0833981519152928290030190a35060015b92915050565b6802b5e3af16b188000081565b60025490565b6402540be400670de0b6b3a76400005b0481565b670de0b6b3a764000081565b6000336001600160a01b0385161480610f5557506001600160a01b03841660009081526001602090815260408083203384529091529020548211155b610f9f576040805162461bcd60e51b815260206004820152601660248201527522a9292fa6282a27a5a2a72fa120a22fa1a0a62622a960511b604482015290519081900360640190fd5b610faa84848461489b565b336001600160a01b03851614801590610fe857506001600160a01b038416600090815260016020908152604080832033845290915290205460001914155b15611066576001600160a01b038416600090815260016020908152604080832033845290915290205461101b9083614999565b6001600160a01b0385166000818152600160209081526040808320338085529083529281902085905580519485525191936000805160206155c0833981519152929081900390910190a35b5060019392505050565b6001600160a01b03166000908152600a602052604090205460ff1690565b600554600090610100900460ff16156110dc576040805162461bcd60e51b815260206004820152600b60248201526a4552525f5245454e54525960a81b604482015290519081900360640190fd5b506006546001600160a01b031690565b60055460ff1690565b336001600160a01b03166000356001600160e01b0319166001600160e01b03191660003660405180806020018281038252848482818152602001925080828437600083820152604051601f909101601f19169092018290039550909350505050a2600554610100900460ff16156111a1576040805162461bcd60e51b815260206004820152600b60248201526a4552525f5245454e54525960a81b604482015290519081900360640190fd5b6005805461ff00191661010017905560085460ff16156111f6576040805162461bcd60e51b815260206004820152601060248201526000805160206155e0833981519152604482015290519081900360640190fd5b6006546001600160a01b03163314611243576040805162461bcd60e51b81526020600482015260126024820152600080516020615557833981519152604482015290519081900360640190fd5b64e8d4a5100081101561128b576040805162461bcd60e51b815260206004820152600b60248201526a4552525f4d494e5f46454560a81b604482015290519081900360640190fd5b67016345785d8a00008111156112d6576040805162461bcd60e51b815260206004820152600b60248201526a4552525f4d41585f46454560a81b604482015290519081900360640190fd5b6007556005805461ff0019169055565b336001600160a01b03166000356001600160e01b0319166001600160e01b03191660003660405180806020018281038252848482818152602001925080828437600083820152604051601f909101601f19169092018290039550909350505050a2600554610100900460ff1615611392576040805162461bcd60e51b815260206004820152600b60248201526a4552525f5245454e54525960a81b604482015290519081900360640190fd5b6005805461ff001916610100179055600654336001600160a01b03909116146113f0576040805162461bcd60e51b81526020600482015260126024820152600080516020615557833981519152604482015290519081900360640190fd5b6001600160a01b0383166000908152600a602052604090205460ff1661144d576040805162461bcd60e51b815260206004820152600d60248201526c11549497d393d517d093d55391609a1b604482015290519081900360640190fd5b60085460ff1615611493576040805162461bcd60e51b815260206004820152601060248201526000805160206155e0833981519152604482015290519081900360640190fd5b670de0b6b3a76400008110156114e1576040805162461bcd60e51b815260206004820152600e60248201526d11549497d3525397d5d15251d21560921b604482015290519081900360640190fd5b6802b5e3af16b1880000811115611530576040805162461bcd60e51b815260206004820152600e60248201526d11549497d3505617d5d15251d21560921b604482015290519081900360640190fd5b620f424082101561157a576040805162461bcd60e51b815260206004820152600f60248201526e4552525f4d494e5f42414c414e434560881b604482015290519081900360640190fd5b6001600160a01b0383166000908152600a602052604090206002015480821115611611576115b3600b546115ae8484614999565b6149fb565b600b8190556802b5e3af16b1880000101561160c576040805162461bcd60e51b815260206004820152601460248201527311549497d3505617d513d5105317d5d15251d21560621b604482015290519081900360640190fd5b611632565b808210156116325761162e600b546116298385614999565b614999565b600b555b6001600160a01b0384166000908152600a60205260409020600281018390556003018054908490558084111561167b5761167685336116718785614999565b614a4f565b61169e565b8084101561169e57600061168f8286614999565b905061169c863383614b20565b505b50506005805461ff0019169055505050565b336001600160a01b03166000356001600160e01b0319166001600160e01b03191660003660405180806020018281038252848482818152602001925080828437600083820152604051601f909101601f19169092018290039550909350505050a2600554610100900460ff161561175c576040805162461bcd60e51b815260206004820152600b60248201526a4552525f5245454e54525960a81b604482015290519081900360640190fd5b6005805461ff00191661010017905560085460ff16156117b1576040805162461bcd60e51b815260206004820152601060248201526000805160206155e0833981519152604482015290519081900360640190fd5b6006546001600160a01b031633146117fe576040805162461bcd60e51b81526020600482015260126024820152600080516020615557833981519152604482015290519081900360640190fd5b60068054911515600160a01b0260ff60a01b199092169190911790556005805461ff0019169055565b336001600160a01b03166000356001600160e01b0319166001600160e01b03191660003660405180806020018281038252848482818152602001925080828437600083820152604051601f909101601f19169092018290039550909350505050a2600554610100900460ff16156118d3576040805162461bcd60e51b815260206004820152600b60248201526a4552525f5245454e54525960a81b604482015290519081900360640190fd5b6005805461ff001916610100179055600654336001600160a01b0390911614611931576040805162461bcd60e51b81526020600482015260126024820152600080516020615557833981519152604482015290519081900360640190fd5b60085460ff1615611977576040805162461bcd60e51b815260206004820152601060248201526000805160206155e0833981519152604482015290519081900360640190fd5b600954600111156119c0576040805162461bcd60e51b815260206004820152600e60248201526d4552525f4d494e5f544f4b454e5360901b604482015290519081900360640190fd5b6008805460ff191660011790556006805460ff60a01b1916600160a01b1790556119f268056bc75e2d63100000614b79565b611a053368056bc75e2d63100000614b85565b6005805461ff0019169055565b336001600160a01b03166000356001600160e01b0319166001600160e01b03191660003660405180806020018281038252848482818152602001925080828437600083820152604051601f909101601f19169092018290039550909350505050a2600554610100900460ff1615611abe576040805162461bcd60e51b815260206004820152600b60248201526a4552525f5245454e54525960a81b604482015290519081900360640190fd5b6005805461ff00191661010017905560085460ff16611b18576040805162461bcd60e51b815260206004820152601160248201527011549497d393d517d19253905312569151607a1b604482015290519081900360640190fd5b6000611b22610ef3565b90506000611b308583614b93565b905080611b76576040805162461bcd60e51b815260206004820152600f60248201526e08aa4a4be9a82a890be82a0a0a49eb608b1b604482015290519081900360640190fd5b60005b600954811015611cf757600060098281548110611b9257fe5b60009182526020808320909101546001600160a01b0316808352600a909152604082206003015490925090611bc78583614ca6565b905080611c0d576040805162461bcd60e51b815260206004820152600f60248201526e08aa4a4be9a82a890be82a0a0a49eb608b1b604482015290519081900360640190fd5b878785818110611c1957fe5b90506020020135811115611c63576040805162461bcd60e51b815260206004820152600c60248201526b22a9292fa624a6a4aa2fa4a760a11b604482015290519081900360640190fd5b6001600160a01b0383166000908152600a6020526040902060030154611c8990826149fb565b6001600160a01b0384166000818152600a60209081526040918290206003019390935580518481529051919233927f63982df10efd8dfaaaa0fcc7f50b2d93b7cba26ccc48adee2873220d485dc39a9281900390910190a3611cec833383614a4f565b505050600101611b79565b50611d0185614b79565b61169e3386614b85565b600080611d188786614b93565b90506000611d2687866149fb565b90506000611d348289614b93565b90506000611d4a670de0b6b3a764000085614b93565b90506000611d588383614d68565b90506000611d66828e614ca6565b90506000611d74828f614999565b90506000611d93611d8d670de0b6b3a76400008a614999565b8b614ca6565b9050611db082611dab670de0b6b3a764000084614999565b614b93565b9f9e505050505050505050505050505050565b3360009081526001602090815260408083206001600160a01b038616845290915281205480831115611e18573360009081526001602090815260408083206001600160a01b0388168452909152812055611e47565b611e228184614999565b3360009081526001602090815260408083206001600160a01b03891684529091529020555b3360008181526001602090815260408083206001600160a01b0389168085529083529281902054815190815290519293926000805160206155c0833981519152929181900390910190a35060019392505050565b6001600160a01b031660009081526020819052604090205490565b620f4240670de0b6b3a7640000610f09565b600080611ed58786614b93565b90506000611eeb670de0b6b3a764000083614999565b90506000611ef98286614ca6565b90506000611f1387611dab670de0b6b3a764000085614999565b90506000611f218c83614999565b90506000611f2f828e614b93565b90506000611f3d8288614d68565b90506000611f4b828e614ca6565b90506000611f598e83614999565b9050611f7281611dab670de0b6b3a76400006000614999565b99505050505050505050509695505050505050565b600080611f948786614b93565b90506000611fb3611fad670de0b6b3a764000084614999565b85614ca6565b90506000611fd286611fcd670de0b6b3a764000085614999565b614ca6565b90506000611fe08b836149fb565b90506000611fee828d614b93565b90506000611ffc8287614d68565b9050600061200a828d614ca6565b9050612016818d614999565b9e9d5050505050505050505050505050565b64e8d4a51000670de0b6b3a7640000610f09565b6000806120498786614b93565b9050600061206485611fcd670de0b6b3a76400006000614999565b905060006120728883614999565b90506000612080828a614b93565b9050600061209f8261209a670de0b6b3a764000088614b93565b614d68565b905060006120ad828e614ca6565b905060006120bb8e83614999565b905060006120d4611d8d670de0b6b3a76400008a614999565b9050611db082611fcd670de0b6b3a764000084614999565b336001600160a01b03166000356001600160e01b0319166001600160e01b03191660003660405180806020018281038252848482818152602001925080828437600083820152604051601f909101601f19169092018290039550909350505050a2600554610100900460ff1615612198576040805162461bcd60e51b815260206004820152600b60248201526a4552525f5245454e54525960a81b604482015290519081900360640190fd5b6005805461ff0019166101001790556001600160a01b0381166000908152600a602052604090205460ff16612204576040805162461bcd60e51b815260206004820152600d60248201526c11549497d393d517d093d55391609a1b604482015290519081900360640190fd5b604080516370a0823160e01b815230600482015290516001600160a01b038316916370a08231916024808301926020929190829003018186803b15801561224a57600080fd5b505afa15801561225e573d6000803e3d6000fd5b505050506040513d602081101561227457600080fd5b50516001600160a01b039091166000908152600a60205260409020600301556005805461ff0019169055565b60085460ff1690565b336001600160a01b03166000356001600160e01b0319166001600160e01b03191660003660405180806020018281038252848482818152602001925080828437600083820152604051601f909101601f19169092018290039550909350505050a2600554610100900460ff1615612355576040805162461bcd60e51b815260206004820152600b60248201526a4552525f5245454e54525960a81b604482015290519081900360640190fd5b6005805461ff001916610100179055600654336001600160a01b03909116146123b3576040805162461bcd60e51b81526020600482015260126024820152600080516020615557833981519152604482015290519081900360640190fd5b600680546001600160a01b0319166001600160a01b03929092169190911790556005805461ff0019169055565b600554600090610100900460ff161561242e576040805162461bcd60e51b815260206004820152600b60248201526a4552525f5245454e54525960a81b604482015290519081900360640190fd5b50600b5490565b68056bc75e2d6310000081565b600554600090610100900460ff1615612490576040805162461bcd60e51b815260206004820152600b60248201526a4552525f5245454e54525960a81b604482015290519081900360640190fd5b6001600160a01b0382166000908152600a602052604090205460ff166124ed576040805162461bcd60e51b815260206004820152600d60248201526c11549497d393d517d093d55391609a1b604482015290519081900360640190fd5b506001600160a01b03166000908152600a602052604090206002015490565b60048054604080516020601f6002600019610100600188161502019095169490940493840181900481028201810190925282815260609390929091830182828015610e875780601f10610e5c57610100808354040283529160200191610e87565b6704a03ce68d21555681565b6542524f4e5a4560d01b90565b6000806125938787614b93565b905060006125a18686614b93565b905060006125af8383614b93565b905060006125d1670de0b6b3a7640000611dab670de0b6b3a764000089614999565b90506125dd8282614ca6565b9a9950505050505050505050565b336001600160a01b03166000356001600160e01b0319166001600160e01b03191660003660405180806020018281038252848482818152602001925080828437600083820152604051601f909101601f19169092018290039550909350505050a2600554610100900460ff1615612697576040805162461bcd60e51b815260206004820152600b60248201526a4552525f5245454e54525960a81b604482015290519081900360640190fd5b6005805461ff001916610100179055600654336001600160a01b03909116146126f5576040805162461bcd60e51b81526020600482015260126024820152600080516020615557833981519152604482015290519081900360640190fd5b6001600160a01b0381166000908152600a602052604090205460ff16612752576040805162461bcd60e51b815260206004820152600d60248201526c11549497d393d517d093d55391609a1b604482015290519081900360640190fd5b60085460ff1615612798576040805162461bcd60e51b815260206004820152601060248201526000805160206155e0833981519152604482015290519081900360640190fd5b6001600160a01b0381166000908152600a60205260409020600101546009805460001981019190829081106127c957fe5b600091825260209091200154600980546001600160a01b0390921691849081106127ef57fe5b9060005260206000200160006101000a8154816001600160a01b0302191690836001600160a01b0316021790555081600a60006009858154811061282f57fe5b60009182526020808320909101546001600160a01b03168352820192909252604001902060010155600980548061286257fe5b60008281526020808220600019908401810180546001600160a01b031916905590920190925560408051608081018252838152808301848152818301858152606083018681526001600160a01b03999099168652600a909452919093209251835460ff1916901515178355516001830155516002820155925160039093019290925550506005805461ff0019169055565b600061290033848461489b565b50600192915050565b336001600160a01b03166000356001600160e01b0319166001600160e01b03191660003660405180806020018281038252848482818152602001925080828437600083820152604051601f909101601f19169092018290039550909350505050a2600554610100900460ff16156129b5576040805162461bcd60e51b815260206004820152600b60248201526a4552525f5245454e54525960a81b604482015290519081900360640190fd5b6005805461ff00191661010017905560085460ff16612a0f576040805162461bcd60e51b815260206004820152601160248201527011549497d393d517d19253905312569151607a1b604482015290519081900360640190fd5b6000612a19610ef3565b90506000612a278583614b93565b905080612a6d576040805162461bcd60e51b815260206004820152600f60248201526e08aa4a4be9a82a890be82a0a0a49eb608b1b604482015290519081900360640190fd5b612a773386614e6b565b612a8085614e75565b60005b60095481101561169c57600060098281548110612a9c57fe5b60009182526020808320909101546001600160a01b0316808352600a909152604082206003015490925090612ad18583614ca6565b905080612b17576040805162461bcd60e51b815260206004820152600f60248201526e08aa4a4be9a82a890be82a0a0a49eb608b1b604482015290519081900360640190fd5b878785818110612b2357fe5b90506020020135811015612b6e576040805162461bcd60e51b815260206004820152600d60248201526c11549497d31253525517d3d555609a1b604482015290519081900360640190fd5b6001600160a01b0383166000908152600a6020526040902060030154612b949082614999565b6001600160a01b0384166000818152600a60209081526040918290206003019390935580518481529051919233927fe74c91552b64c2e2e7bd255639e004e693bd3e1d01cc33e65610b86afcc1ffed9281900390910190a3612bf7833383614b20565b505050600101612a83565b601081565b6060336001600160a01b03166000356001600160e01b0319166001600160e01b03191660003660405180806020018281038252848482818152602001925080828437600083820152604051601f909101601f19169092018290039550909350505050a2600554610100900460ff1615612cb5576040805162461bcd60e51b815260206004820152600b60248201526a4552525f5245454e54525960a81b604482015290519081900360640190fd5b6005805461ff001916610100179055600654336001600160a01b0390911614612d13576040805162461bcd60e51b81526020600482015260126024820152600080516020615557833981519152604482015290519081900360640190fd5b60085460ff1615612d59576040805162461bcd60e51b815260206004820152601060248201526000805160206155e0833981519152604482015290519081900360640190fd5b612da483838080601f01602080910402602001604051908101604052809392919081815260200183838082843760009201919091525050506001600160a01b03881691905086614e7e565b6005805461ff001916905595945050505050565b600181565b600080612dca8786614b93565b90506000612de0670de0b6b3a764000085614999565b9050612dec8582614ca6565b90506000612dfe8a611dab8c856149fb565b90506000612e0c8285614d68565b90506000612e22670de0b6b3a764000083614999565b9050612e2e8a82614ca6565b9c9b505050505050505050505050565b600a670de0b6b3a7640000610f09565b671bc16d674ec7ffff81565b600554606090610100900460ff1615612ea8576040805162461bcd60e51b815260206004820152600b60248201526a4552525f5245454e54525960a81b604482015290519081900360640190fd5b60085460ff16612ef3576040805162461bcd60e51b815260206004820152601160248201527011549497d393d517d19253905312569151607a1b604482015290519081900360640190fd5b6009805480602002602001604051908101604052809291908181526020018280548015610e8757602002820191906000526020600020905b81546001600160a01b03168152600190910190602001808311612f2b575050505050905090565b600081565b336001600160a01b03166000356001600160e01b0319166001600160e01b03191660003660405180806020018281038252848482818152602001925080828437600083820152604051601f909101601f19169092018290039550909350505050a2600554610100900460ff1615613003576040805162461bcd60e51b815260206004820152600b60248201526a4552525f5245454e54525960a81b604482015290519081900360640190fd5b6005805461ff001916610100179055600654336001600160a01b0390911614613061576040805162461bcd60e51b81526020600482015260126024820152600080516020615557833981519152604482015290519081900360640190fd5b60085460ff16156130a7576040805162461bcd60e51b815260206004820152601060248201526000805160206155e0833981519152604482015290519081900360640190fd5b604080516002808252606080830184529260208301908036833701905050905086816000815181106130d557fe5b60200260200101906001600160a01b031690816001600160a01b031681525050858160018151811061310357fe5b60200260200101906001600160a01b031690816001600160a01b0316815250506000600560029054906101000a90046001600160a01b03166001600160a01b031663725c9c496040518163ffffffff1660e01b815260040160206040518083038186803b15801561317357600080fd5b505afa158015613187573d6000803e3d6000fd5b505050506040513d602081101561319d57600080fd5b50516001600160a01b0388166000908152600a602052604090205490915060ff16156136d4576001600160a01b0387166000908152600a60205260408120600281015460039091015490916131f2838a6149fb565b90506802b5e3af16b1880000811115613245576040805162461bcd60e51b815260206004820152601060248201526f22a9292fa6a0ac2faba2a4a3a42a2fa160811b604482015290519081900360640190fd5b86156132995760095460011115613294576040805162461bcd60e51b815260206004820152600e60248201526d4552525f4d494e5f544f4b454e5360901b604482015290519081900360640190fd5b61340b565b6001600160a01b038b166000908152600a602052604090205460ff166132f8576040805162461bcd60e51b815260206004820152600f60248201526e4552525f4e4f545f424f554e445f4160881b604482015290519081900360640190fd5b6001600160a01b038b166000908152600a602052604081206002015461331e908b614999565b6001600160a01b038d166000908152600a602052604081206003015491925090613348908b614999565b9050670de0b6b3a764000082101561339a576040805162461bcd60e51b815260206004820152601060248201526f4552525f4d494e5f5745494748545f4160801b604482015290519081900360640190fd5b620f42408110156133e6576040805162461bcd60e51b81526020600482015260116024820152704552525f4d494e5f42414c414e43455f4160781b604482015290519081900360640190fd5b6001600160a01b038d166000908152600a602052604090206003810191909155600201555b60008a6001600160a01b03166370a08231306040518263ffffffff1660e01b815260040180826001600160a01b0316815260200191505060206040518083038186803b15801561345a57600080fd5b505afa15801561346e573d6000803e3d6000fd5b505050506040513d602081101561348457600080fd5b505190506134958c86600019614eac565b846001600160a01b03166338ed17398a8989306134b4426107086149fb565b6040518663ffffffff1660e01b81526004018086815260200185815260200180602001846001600160a01b03168152602001838152602001828103825285818151815260200191508051906020019060200280838360005b8381101561352457818101518382015260200161350c565b505050509050019650505050505050600060405180830381600087803b15801561354d57600080fd5b505af1158015613561573d6000803e3d6000fd5b505050506040513d6000823e601f3d908101601f19168201604052602081101561358a57600080fd5b8101908080516040519392919084600160201b8211156135a957600080fd5b9083019060208201858111156135be57600080fd5b82518660208202830111600160201b821117156135da57600080fd5b82525081516020918201928201910280838360005b838110156136075781810151838201526020016135ef565b505050509050016040525050505060008b6001600160a01b03166370a08231306040518263ffffffff1660e01b815260040180826001600160a01b0316815260200191505060206040518083038186803b15801561366457600080fd5b505afa158015613678573d6000803e3d6000fd5b505050506040513d602081101561368e57600080fd5b5051905060006136a2856115ae8486614999565b6001600160a01b038e166000908152600a6020526040902060038101919091556002019390935550613ca29350505050565b83613893576001600160a01b0388166000908152600a602052604090205460ff16613738576040805162461bcd60e51b815260206004820152600f60248201526e4552525f4e4f545f424f554e445f4160881b604482015290519081900360640190fd5b6001600160a01b0388166000908152600a602052604081206002015461375e9088614999565b6001600160a01b038a166000908152600a6020526040812060030154919250906137889088614999565b9050670de0b6b3a76400008210156137da576040805162461bcd60e51b815260206004820152601060248201526f4552525f4d494e5f5745494748545f4160801b604482015290519081900360640190fd5b620f4240811015613826576040805162461bcd60e51b81526020600482015260116024820152704552525f4d494e5f42414c414e43455f4160781b604482015290519081900360640190fd5b60095460101161386e576040805162461bcd60e51b815260206004820152600e60248201526d4552525f4d41585f544f4b454e5360901b604482015290519081900360640190fd5b6001600160a01b038a166000908152600a602052604090206003810191909155600201555b6000876001600160a01b03166370a08231306040518263ffffffff1660e01b815260040180826001600160a01b0316815260200191505060206040518083038186803b1580156138e257600080fd5b505afa1580156138f6573d6000803e3d6000fd5b505050506040513d602081101561390c57600080fd5b5051905061391d8983600019614eac565b816001600160a01b03166338ed17398786863061393c426107086149fb565b6040518663ffffffff1660e01b81526004018086815260200185815260200180602001846001600160a01b03168152602001838152602001828103825285818151815260200191508051906020019060200280838360005b838110156139ac578181015183820152602001613994565b505050509050019650505050505050600060405180830381600087803b1580156139d557600080fd5b505af11580156139e9573d6000803e3d6000fd5b505050506040513d6000823e601f3d908101601f191682016040526020811015613a1257600080fd5b8101908080516040519392919084600160201b821115613a3157600080fd5b908301906020820185811115613a4657600080fd5b82518660208202830111600160201b82111715613a6257600080fd5b82525081516020918201928201910280838360005b83811015613a8f578181015183820152602001613a77565b50505050905001604052505050506000886001600160a01b03166370a08231306040518263ffffffff1660e01b815260040180826001600160a01b0316815260200191505060206040518083038186803b158015613aec57600080fd5b505afa158015613b00573d6000803e3d6000fd5b505050506040513d6020811015613b1657600080fd5b505190506000613b268284614999565b9050620f4240811015613b72576040805162461bcd60e51b815260206004820152600f60248201526e4552525f4d494e5f42414c414e434560881b604482015290519081900360640190fd5b670de0b6b3a7640000891015613bc6576040805162461bcd60e51b81526020600482015260146024820152734552525f4d494e5f5745494748545f44454c544160601b604482015290519081900360640190fd5b604051806080016040528060011515815260200160098054905081526020018a815260200182815250600a60008c6001600160a01b03166001600160a01b0316815260200190815260200160002060008201518160000160006101000a81548160ff02191690831515021790555060208201518160010155604082015181600201556060820151816003015590505060098a9080600181540180825580915050600190039060005260206000200160009091909190916101000a8154816001600160a01b0302191690836001600160a01b031602179055505050505b6001600160a01b038881166000818152600a60209081526040808320600280820154968e168086529483902090810154600392830154929091015483519788529387015285820152606085019190915287151560808501525190927f1443af20d568c33073f294c76ace1e6eaa41ce1c11cbfe69a4d58cb11410deb4919081900360a00190a350506005805461ff0019169055505050505050565b600554606090610100900460ff1615612ef3576040805162461bcd60e51b815260206004820152600b60248201526a4552525f5245454e54525960a81b604482015290519081900360640190fd5b60095490565b336001600160a01b03166000356001600160e01b0319166001600160e01b03191660003660405180806020018281038252848482818152602001925080828437600083820152604051601f909101601f19169092018290039550909350505050a2600554610100900460ff1615613e3d576040805162461bcd60e51b815260206004820152600b60248201526a4552525f5245454e54525960a81b604482015290519081900360640190fd5b6005805461ff001916610100179055600654336001600160a01b0390911614613e9b576040805162461bcd60e51b81526020600482015260126024820152600080516020615557833981519152604482015290519081900360640190fd5b6001600160a01b0381166000908152600a602052604090205460ff16613ef8576040805162461bcd60e51b815260206004820152600d60248201526c11549497d393d517d093d55391609a1b604482015290519081900360640190fd5b60085460ff1615613f3e576040805162461bcd60e51b815260206004820152601060248201526000805160206155e0833981519152604482015290519081900360640190fd5b6001600160a01b0381166000908152600a602052604090206003810154600b546002909201549091613f6f91614999565b600b556001600160a01b0382166000908152600a6020526040902060010154600980546000198101919082908110613fa357fe5b600091825260209091200154600980546001600160a01b039092169184908110613fc957fe5b9060005260206000200160006101000a8154816001600160a01b0302191690836001600160a01b0316021790555081600a60006009858154811061400957fe5b60009182526020808320909101546001600160a01b03168352820192909252604001902060010155600980548061403c57fe5b60008281526020808220600019908401810180546001600160a01b031916905590920190925560408051608081018252838152808301848152818301858152606083018681526001600160a01b038b168752600a909552929094209051815460ff191690151517815592516001840155516002830155516003909101556140c4843385614b20565b50506005805461ff00191690555050565b600554600090610100900460ff1615614123576040805162461bcd60e51b815260206004820152600b60248201526a4552525f5245454e54525960a81b604482015290519081900360640190fd5b5060075490565b3360009081526001602090815260408083206001600160a01b038616845290915281205461415890836149fb565b3360008181526001602090815260408083206001600160a01b0389168085529083529281902085905580519485525191936000805160206155c0833981519152929081900390910190a350600192915050565b6001600160a01b03918216600090815260016020908152604080832093909416825291909152205490565b336001600160a01b03166000356001600160e01b0319166001600160e01b03191660003660405180806020018281038252848482818152602001925080828437600083820152604051601f909101601f19169092018290039550909350505050a26006546001600160a01b03163314614284576040805162461bcd60e51b81526020600482015260126024820152600080516020615557833981519152604482015290519081900360640190fd5b6001600160a01b0383166000908152600a602052604090205460ff16156142e1576040805162461bcd60e51b815260206004820152600c60248201526b11549497d254d7d093d5539160a21b604482015290519081900360640190fd5b60085460ff1615614327576040805162461bcd60e51b815260206004820152601060248201526000805160206155e0833981519152604482015290519081900360640190fd5b60095460101161436f576040805162461bcd60e51b815260206004820152600e60248201526d4552525f4d41585f544f4b454e5360901b604482015290519081900360640190fd5b6040805160808101825260018082526009805460208085019182526000858701818152606087018281526001600160a01b038c16808452600a9094529782209651875460ff1916901515178755925186860155915160028601559451600390940193909355805491820181559091527f6e1540171b6c0c960b71a7020d9f60077f6af931a8bbf590da0223dacf75c7af0180546001600160a01b031916909117905561441c8383836112e6565b505050565b6002670de0b6b3a7640000610f09565b600554600090610100900460ff161561447f576040805162461bcd60e51b815260206004820152600b60248201526a4552525f5245454e54525960a81b604482015290519081900360640190fd5b6001600160a01b0382166000908152600a602052604090205460ff166144dc576040805162461bcd60e51b815260206004820152600d60248201526c11549497d393d517d093d55391609a1b604482015290519081900360640190fd5b6001600160a01b038083166000818152600a6020908152604080832060020154600c5482516341976e0960e01b8152600481019690965291519095939491909316926341976e099260248084019391929182900301818787803b15801561454257600080fd5b505af1158015614556573d6000803e3d6000fd5b505050506040513d602081101561456c57600080fd5b505160095490915060609067ffffffffffffffff8111801561458d57600080fd5b506040519080825280602002602001820160405280156145b7578160200160208202803683370190505b50905060005b600954811015614610576145f1600982815481106145d757fe5b6000918252602090912001546001600160a01b031661473e565b8282815181106145fd57fe5b60209081029190910101526001016145bd565b50600c546040805163108ad9bd60e21b81526004810191825260098054604483018190526000946001600160a01b03169363422b66f4938792829160248101916064909101908690801561468d57602002820191906000526020600020905b81546001600160a01b0316815260019091019060200180831161466f575b50508381038252845181528451602091820191808701910280838360005b838110156146c35781810151838201526020016146ab565b50505050905001945050505050602060405180830381600087803b1580156146ea57600080fd5b505af11580156146fe573d6000803e3d6000fd5b505050506040513d602081101561471457600080fd5b50519050600061472784611fcd8961473e565b90506147338183614b93565b979650505050505050565b600554600090610100900460ff161561478c576040805162461bcd60e51b815260206004820152600b60248201526a4552525f5245454e54525960a81b604482015290519081900360640190fd5b6001600160a01b0382166000908152600a602052604090205460ff166147e9576040805162461bcd60e51b815260206004820152600d60248201526c11549497d393d517d093d55391609a1b604482015290519081900360640190fd5b506001600160a01b03166000908152600a602052604090206003015490565b6000806148158588614b93565b905060006148238786614999565b905060006148318883614b93565b9050600061483f8285614d68565b905061485381670de0b6b3a7640000614999565b9050614867670de0b6b3a764000087614999565b945061487c6148768c83614ca6565b86614b93565b9b9a5050505050505050505050565b600654600160a01b900460ff1690565b6001600160a01b0383166000908152602081905260409020548111156148ff576040805162461bcd60e51b815260206004820152601460248201527311549497d25394d551919250d251539517d0905360621b604482015290519081900360640190fd5b6001600160a01b0383166000908152602081905260409020546149229082614999565b6001600160a01b03808516600090815260208190526040808220939093559084168152205461495190826149fb565b6001600160a01b038084166000818152602081815260409182902094909455805185815290519193928716926000805160206155a083398151915292918290030190a3505050565b60008060006149a8858561503c565b9150915080156149f3576040805162461bcd60e51b81526020600482015260116024820152704552525f5355425f554e444552464c4f5760781b604482015290519081900360640190fd5b509392505050565b600082820183811015614a48576040805162461bcd60e51b815260206004820152601060248201526f4552525f4144445f4f564552464c4f5760801b604482015290519081900360640190fd5b9392505050565b604080516323b872dd60e01b81526001600160a01b0384811660048301523060248301526044820184905291516000928616916323b872dd91606480830192602092919082900301818787803b158015614aa857600080fd5b505af1158015614abc573d6000803e3d6000fd5b505050506040513d6020811015614ad257600080fd5b5051905080614b1a576040805162461bcd60e51b815260206004820152600f60248201526e4552525f45524332305f46414c534560881b604482015290519081900360640190fd5b50505050565b6000836001600160a01b031663a9059cbb84846040518363ffffffff1660e01b815260040180836001600160a01b0316815260200182815260200192505050602060405180830381600087803b158015614aa857600080fd5b614b8281615061565b50565b614b8f82826150c4565b5050565b600081614bd6576040805162461bcd60e51b815260206004820152600c60248201526b4552525f4449565f5a45524f60a01b604482015290519081900360640190fd5b670de0b6b3a76400008302831580614bfe5750670de0b6b3a7640000848281614bfb57fe5b04145b614c42576040805162461bcd60e51b815260206004820152601060248201526f11549497d1125597d25395115493905360821b604482015290519081900360640190fd5b60028304810181811015614c90576040805162461bcd60e51b815260206004820152601060248201526f11549497d1125597d25395115493905360821b604482015290519081900360640190fd5b6000848281614c9b57fe5b049695505050505050565b6000828202831580614cc0575082848281614cbd57fe5b04145b614d04576040805162461bcd60e51b815260206004820152601060248201526f4552525f4d554c5f4f564552464c4f5760801b604482015290519081900360640190fd5b6706f05b59d3b20000810181811015614d57576040805162461bcd60e51b815260206004820152601060248201526f4552525f4d554c5f4f564552464c4f5760801b604482015290519081900360640190fd5b6000670de0b6b3a764000082614c9b565b60006001831015614db8576040805162461bcd60e51b81526020600482015260156024820152744552525f42504f575f424153455f544f4f5f4c4f5760581b604482015290519081900360640190fd5b671bc16d674ec7ffff831115614e0e576040805162461bcd60e51b815260206004820152601660248201527508aa4a4be84a09eaebe8482a68abea89e9ebe90928e960531b604482015290519081900360640190fd5b6000614e19836150cf565b90506000614e278483614999565b90506000614e3d86614e38856150ea565b6150f8565b905081614e4e579250610ee0915050565b6000614e5f87846305f5e10061514f565b90506147338282614ca6565b614b8f828261522d565b614b8281615238565b6060614ea4848484604051806060016040528060298152602001615577602991396152f6565b949350505050565b60408051636eb1769f60e11b81523060048201526001600160a01b038481166024830152915160009286169163dd62ed3e916044808301926020929190829003018186803b158015614efd57600080fd5b505afa158015614f11573d6000803e3d6000fd5b505050506040513d6020811015614f2757600080fd5b50511115614fb457826001600160a01b031663095ea7b38360006040518363ffffffff1660e01b815260040180836001600160a01b0316815260200182815260200192505050602060405180830381600087803b158015614f8757600080fd5b505af1158015614f9b573d6000803e3d6000fd5b505050506040513d6020811015614fb157600080fd5b50505b826001600160a01b031663095ea7b383836040518363ffffffff1660e01b815260040180836001600160a01b0316815260200182815260200192505050602060405180830381600087803b15801561500b57600080fd5b505af115801561501f573d6000803e3d6000fd5b505050506040513d602081101561503557600080fd5b5050505050565b600080828410615052575050808203600061505a565b505081810360015b9250929050565b3060009081526020819052604090205461507b90826149fb565b3060009081526020819052604090205560025461509890826149fb565b60025560408051828152905130916000916000805160206155a08339815191529181900360200190a350565b614b8f30838361489b565b6000670de0b6b3a76400006150e3836150ea565b0292915050565b670de0b6b3a7640000900490565b6000806002830661511157670de0b6b3a7640000615113565b835b90506002830492505b8215614a485761512c8485614ca6565b93506002830615615144576151418185614ca6565b90505b60028304925061511c565b600082818061516687670de0b6b3a764000061503c565b9092509050670de0b6b3a764000080600060015b88841061521e576000670de0b6b3a7640000820290506000806151ae8a6151a985670de0b6b3a7640000614999565b61503c565b915091506151c087611fcd848c614ca6565b96506151cc8784614b93565b9650866151db5750505061521e565b87156151e5579315935b80156151ef579315935b8415615206576151ff8688614999565b9550615213565b61521086886149fb565b95505b50505060010161517a565b50909998505050505050505050565b614b8f82308361489b565b30600090815260208190526040902054811115615293576040805162461bcd60e51b815260206004820152601460248201527311549497d25394d551919250d251539517d0905360621b604482015290519081900360640190fd5b306000908152602081905260409020546152ad9082614999565b306000908152602081905260409020556002546152ca9082614999565b60025560408051828152905160009130916000805160206155a08339815191529181900360200190a350565b6060824710156153375760405162461bcd60e51b81526004018080602001828103825260268152602001806155316026913960400191505060405180910390fd5b6153438585858561534c565b95945050505050565b6060615357856154f7565b6153a8576040805162461bcd60e51b815260206004820152601d60248201527f416464726573733a2063616c6c20746f206e6f6e2d636f6e7472616374000000604482015290519081900360640190fd5b60006060866001600160a01b031685876040518082805190602001908083835b602083106153e75780518252601f1990920191602091820191016153c8565b6001836020036101000a03801982511681845116808217855250505050505090500191505060006040518083038185875af1925050503d8060008114615449576040519150601f19603f3d011682016040523d82523d6000602084013e61544e565b606091505b50915091508115615462579150614ea49050565b8051156154725780518082602001fd5b8360405162461bcd60e51b81526004018080602001828103825283818151815260200191508051906020019080838360005b838110156154bc5781810151838201526020016154a4565b50505050905090810190601f1680156154e95780820380516001836020036101000a031916815260200191505b509250505060405180910390fd5b6000813f7fc5d2460186f7233c927e7db2dcc703c0e500b653ca82273b7bfad8045d85a470818114801590614ea457505015159291505056fe416464726573733a20696e73756666696369656e742062616c616e636520666f722063616c6c4552525f4e4f545f434f4e54524f4c4c45520000000000000000000000000000416464726573733a206c6f772d6c6576656c2063616c6c20776974682076616c7565206661696c6564ddf252ad1be2c89b69c2b068fc378daa952ba7f163c4a11628f55a4df523b3ef8c5be1e5ebec7d5bd14f71427d1e84f3dd0314c0f7b2291e5b200ac8c7c3b9254552525f49535f46494e414c495a454400000000000000000000000000000000a26469706673582212202d752baba28f5b3ba7bc1e75344a2156fc1170cf0b684a68997c65e202f9e73e64736f6c634300060c0033",
  "devdoc": {
    "kind": "dev",
    "methods": {},
    "version": 1
  },
  "userdoc": {
    "kind": "user",
    "methods": {},
    "version": 1
  },
  "storageLayout": {
    "storage": [
      {
        "astId": 6497,
        "contract": "contracts/deploy/Factory.sol:Factory",
        "label": "_hasInit",
        "offset": 0,
        "slot": "0",
        "type": "t_bool"
      },
      {
        "astId": 6499,
        "contract": "contracts/deploy/Factory.sol:Factory",
        "label": "_whiteTokenCount",
        "offset": 0,
        "slot": "1",
        "type": "t_uint256"
      },
      {
        "astId": 6503,
        "contract": "contracts/deploy/Factory.sol:Factory",
        "label": "_isTokenWhitelisted",
        "offset": 0,
        "slot": "2",
        "type": "t_mapping(t_address,t_bool)"
      },
      {
        "astId": 6509,
        "contract": "contracts/deploy/Factory.sol:Factory",
        "label": "_tokenWhitelistedInfo",
        "offset": 0,
        "slot": "3",
        "type": "t_mapping(t_uint256,t_mapping(t_address,t_bool))"
      },
      {
        "astId": 8811,
        "contract": "contracts/deploy/Factory.sol:Factory",
        "label": "_isLiquidityPool",
        "offset": 0,
        "slot": "4",
        "type": "t_mapping(t_address,t_bool)"
      },
      {
        "astId": 8817,
        "contract": "contracts/deploy/Factory.sol:Factory",
        "label": "_isModuleRegistered",
        "offset": 0,
        "slot": "5",
        "type": "t_mapping(t_address,t_mapping(t_address,t_bool))"
      },
      {
        "astId": 8819,
        "contract": "contracts/deploy/Factory.sol:Factory",
        "label": "counters",
        "offset": 0,
        "slot": "6",
        "type": "t_uint256"
      },
      {
        "astId": 8825,
        "contract": "contracts/deploy/Factory.sol:Factory",
        "label": "bytecodes",
        "offset": 0,
        "slot": "7",
        "type": "t_bytes_storage"
      },
      {
        "astId": 9011,
        "contract": "contracts/deploy/Factory.sol:Factory",
        "label": "_blabs",
        "offset": 0,
        "slot": "8",
        "type": "t_address"
      },
      {
        "astId": 9013,
        "contract": "contracts/deploy/Factory.sol:Factory",
        "label": "_swapRouter",
        "offset": 0,
        "slot": "9",
        "type": "t_address"
      },
      {
        "astId": 9015,
        "contract": "contracts/deploy/Factory.sol:Factory",
        "label": "_vault",
        "offset": 0,
        "slot": "10",
        "type": "t_address"
      },
      {
        "astId": 9017,
        "contract": "contracts/deploy/Factory.sol:Factory",
        "label": "_oracle",
        "offset": 0,
        "slot": "11",
        "type": "t_address"
      },
      {
        "astId": 9019,
        "contract": "contracts/deploy/Factory.sol:Factory",
        "label": "_managerOwner",
        "offset": 0,
        "slot": "12",
        "type": "t_address"
      },
      {
        "astId": 9021,
        "contract": "contracts/deploy/Factory.sol:Factory",
        "label": "_vaultAddress",
        "offset": 0,
        "slot": "13",
        "type": "t_address"
      },
      {
        "astId": 9023,
        "contract": "contracts/deploy/Factory.sol:Factory",
        "label": "_userVaultAddress",
        "offset": 0,
        "slot": "14",
        "type": "t_address"
      }
    ],
    "types": {
      "t_address": {
        "encoding": "inplace",
        "label": "address",
        "numberOfBytes": "20"
      },
      "t_bool": {
        "encoding": "inplace",
        "label": "bool",
        "numberOfBytes": "1"
      },
      "t_bytes_storage": {
        "encoding": "bytes",
        "label": "bytes",
        "numberOfBytes": "32"
      },
      "t_mapping(t_address,t_bool)": {
        "encoding": "mapping",
        "key": "t_address",
        "label": "mapping(address => bool)",
        "numberOfBytes": "32",
        "value": "t_bool"
      },
      "t_mapping(t_address,t_mapping(t_address,t_bool))": {
        "encoding": "mapping",
        "key": "t_address",
        "label": "mapping(address => mapping(address => bool))",
        "numberOfBytes": "32",
        "value": "t_mapping(t_address,t_bool)"
      },
      "t_mapping(t_uint256,t_mapping(t_address,t_bool))": {
        "encoding": "mapping",
        "key": "t_uint256",
        "label": "mapping(uint256 => mapping(address => bool))",
        "numberOfBytes": "32",
        "value": "t_mapping(t_address,t_bool)"
      },
      "t_uint256": {
        "encoding": "inplace",
        "label": "uint256",
        "numberOfBytes": "32"
      }
    }
  }
}