{
  "address": "0x364b83179950c74087afd3cAb46Bb6B0457CCC7D",
  "abi": [
    {
      "anonymous": false,
      "inputs": [
        {
          "indexed": true,
          "internalType": "address",
          "name": "owner",
          "type": "address"
        },
        {
          "indexed": true,
          "internalType": "address",
          "name": "spender",
          "type": "address"
        },
        {
          "indexed": false,
          "internalType": "uint256",
          "name": "value",
          "type": "uint256"
        }
      ],
      "name": "Approval",
      "type": "event"
    },
    {
      "anonymous": true,
      "inputs": [
        {
          "indexed": true,
          "internalType": "bytes4",
          "name": "sig",
          "type": "bytes4"
        },
        {
          "indexed": true,
          "internalType": "address",
          "name": "caller",
          "type": "address"
        },
        {
          "indexed": false,
          "internalType": "bytes",
          "name": "data",
          "type": "bytes"
        }
      ],
      "name": "LOG_CALL",
      "type": "event"
    },
    {
      "anonymous": false,
      "inputs": [
        {
          "indexed": true,
          "internalType": "address",
          "name": "caller",
          "type": "address"
        },
        {
          "indexed": true,
          "internalType": "address",
          "name": "tokenOut",
          "type": "address"
        },
        {
          "indexed": false,
          "internalType": "uint256",
          "name": "tokenAmountOut",
          "type": "uint256"
        }
      ],
      "name": "LOG_EXIT",
      "type": "event"
    },
    {
      "anonymous": false,
      "inputs": [
        {
          "indexed": true,
          "internalType": "address",
          "name": "caller",
          "type": "address"
        },
        {
          "indexed": true,
          "internalType": "address",
          "name": "tokenIn",
          "type": "address"
        },
        {
          "indexed": false,
          "internalType": "uint256",
          "name": "tokenAmountIn",
          "type": "uint256"
        }
      ],
      "name": "LOG_JOIN",
      "type": "event"
    },
    {
      "anonymous": false,
      "inputs": [
        {
          "indexed": true,
          "internalType": "address",
          "name": "tokenA",
          "type": "address"
        },
        {
          "indexed": true,
          "internalType": "address",
          "name": "tokenB",
          "type": "address"
        },
        {
          "indexed": false,
          "internalType": "uint256",
          "name": "newWeightA",
          "type": "uint256"
        },
        {
          "indexed": false,
          "internalType": "uint256",
          "name": "newWeightB",
          "type": "uint256"
        },
        {
          "indexed": false,
          "internalType": "uint256",
          "name": "newBalanceA",
          "type": "uint256"
        },
        {
          "indexed": false,
          "internalType": "uint256",
          "name": "newBalanceB",
          "type": "uint256"
        },
        {
          "indexed": false,
          "internalType": "bool",
          "name": "isSoldout",
          "type": "bool"
        }
      ],
      "name": "LOG_REBALANCE",
      "type": "event"
    },
    {
      "anonymous": false,
      "inputs": [
        {
          "indexed": true,
          "internalType": "address",
          "name": "from",
          "type": "address"
        },
        {
          "indexed": true,
          "internalType": "address",
          "name": "to",
          "type": "address"
        },
        {
          "indexed": false,
          "internalType": "uint256",
          "name": "value",
          "type": "uint256"
        }
      ],
      "name": "Transfer",
      "type": "event"
    },
    {
      "inputs": [],
      "name": "BONE",
      "outputs": [
        {
          "internalType": "uint256",
          "name": "",
          "type": "uint256"
        }
      ],
      "stateMutability": "view",
      "type": "function"
    },
    {
      "inputs": [],
      "name": "BPOW_PRECISION",
      "outputs": [
        {
          "internalType": "uint256",
          "name": "",
          "type": "uint256"
        }
      ],
      "stateMutability": "view",
      "type": "function"
    },
    {
      "inputs": [],
      "name": "EXIT_FEE",
      "outputs": [
        {
          "internalType": "uint256",
          "name": "",
          "type": "uint256"
        }
      ],
      "stateMutability": "view",
      "type": "function"
    },
    {
      "inputs": [],
      "name": "INIT_POOL_SUPPLY",
      "outputs": [
        {
          "internalType": "uint256",
          "name": "",
          "type": "uint256"
        }
      ],
      "stateMutability": "view",
      "type": "function"
    },
    {
      "inputs": [],
      "name": "MAX_BOUND_TOKENS",
      "outputs": [
        {
          "internalType": "uint256",
          "name": "",
          "type": "uint256"
        }
      ],
      "stateMutability": "view",
      "type": "function"
    },
    {
      "inputs": [],
      "name": "MAX_BPOW_BASE",
      "outputs": [
        {
          "internalType": "uint256",
          "name": "",
          "type": "uint256"
        }
      ],
      "stateMutability": "view",
      "type": "function"
    },
    {
      "inputs": [],
      "name": "MAX_FEE",
      "outputs": [
        {
          "internalType": "uint256",
          "name": "",
          "type": "uint256"
        }
      ],
      "stateMutability": "view",
      "type": "function"
    },
    {
      "inputs": [],
      "name": "MAX_IN_RATIO",
      "outputs": [
        {
          "internalType": "uint256",
          "name": "",
          "type": "uint256"
        }
      ],
      "stateMutability": "view",
      "type": "function"
    },
    {
      "inputs": [],
      "name": "MAX_OUT_RATIO",
      "outputs": [
        {
          "internalType": "uint256",
          "name": "",
          "type": "uint256"
        }
      ],
      "stateMutability": "view",
      "type": "function"
    },
    {
      "inputs": [],
      "name": "MAX_TOTAL_WEIGHT",
      "outputs": [
        {
          "internalType": "uint256",
          "name": "",
          "type": "uint256"
        }
      ],
      "stateMutability": "view",
      "type": "function"
    },
    {
      "inputs": [],
      "name": "MAX_WEIGHT",
      "outputs": [
        {
          "internalType": "uint256",
          "name": "",
          "type": "uint256"
        }
      ],
      "stateMutability": "view",
      "type": "function"
    },
    {
      "inputs": [],
      "name": "MIN_BALANCE",
      "outputs": [
        {
          "internalType": "uint256",
          "name": "",
          "type": "uint256"
        }
      ],
      "stateMutability": "view",
      "type": "function"
    },
    {
      "inputs": [],
      "name": "MIN_BOUND_TOKENS",
      "outputs": [
        {
          "internalType": "uint256",
          "name": "",
          "type": "uint256"
        }
      ],
      "stateMutability": "view",
      "type": "function"
    },
    {
      "inputs": [],
      "name": "MIN_BPOW_BASE",
      "outputs": [
        {
          "internalType": "uint256",
          "name": "",
          "type": "uint256"
        }
      ],
      "stateMutability": "view",
      "type": "function"
    },
    {
      "inputs": [],
      "name": "MIN_FEE",
      "outputs": [
        {
          "internalType": "uint256",
          "name": "",
          "type": "uint256"
        }
      ],
      "stateMutability": "view",
      "type": "function"
    },
    {
      "inputs": [],
      "name": "MIN_WEIGHT",
      "outputs": [
        {
          "internalType": "uint256",
          "name": "",
          "type": "uint256"
        }
      ],
      "stateMutability": "view",
      "type": "function"
    },
    {
      "inputs": [
        {
          "internalType": "address",
          "name": "src",
          "type": "address"
        },
        {
          "internalType": "address",
          "name": "dst",
          "type": "address"
        }
      ],
      "name": "allowance",
      "outputs": [
        {
          "internalType": "uint256",
          "name": "",
          "type": "uint256"
        }
      ],
      "stateMutability": "view",
      "type": "function"
    },
    {
      "inputs": [
        {
          "internalType": "address",
          "name": "dst",
          "type": "address"
        },
        {
          "internalType": "uint256",
          "name": "amt",
          "type": "uint256"
        }
      ],
      "name": "approve",
      "outputs": [
        {
          "internalType": "bool",
          "name": "",
          "type": "bool"
        }
      ],
      "stateMutability": "nonpayable",
      "type": "function"
    },
    {
      "inputs": [
        {
          "internalType": "address",
          "name": "whom",
          "type": "address"
        }
      ],
      "name": "balanceOf",
      "outputs": [
        {
          "internalType": "uint256",
          "name": "",
          "type": "uint256"
        }
      ],
      "stateMutability": "view",
      "type": "function"
    },
    {
      "inputs": [
        {
          "internalType": "address",
          "name": "token",
          "type": "address"
        },
        {
          "internalType": "uint256",
          "name": "balance",
          "type": "uint256"
        },
        {
          "internalType": "uint256",
          "name": "denorm",
          "type": "uint256"
        }
      ],
      "name": "bind",
      "outputs": [],
      "stateMutability": "nonpayable",
      "type": "function"
    },
    {
      "inputs": [
        {
          "internalType": "uint256",
          "name": "tokenBalanceIn",
          "type": "uint256"
        },
        {
          "internalType": "uint256",
          "name": "tokenWeightIn",
          "type": "uint256"
        },
        {
          "internalType": "uint256",
          "name": "tokenBalanceOut",
          "type": "uint256"
        },
        {
          "internalType": "uint256",
          "name": "tokenWeightOut",
          "type": "uint256"
        },
        {
          "internalType": "uint256",
          "name": "tokenAmountOut",
          "type": "uint256"
        },
        {
          "internalType": "uint256",
          "name": "swapFee",
          "type": "uint256"
        }
      ],
      "name": "calcInGivenOut",
      "outputs": [
        {
          "internalType": "uint256",
          "name": "tokenAmountIn",
          "type": "uint256"
        }
      ],
      "stateMutability": "pure",
      "type": "function"
    },
    {
      "inputs": [
        {
          "internalType": "uint256",
          "name": "tokenBalanceIn",
          "type": "uint256"
        },
        {
          "internalType": "uint256",
          "name": "tokenWeightIn",
          "type": "uint256"
        },
        {
          "internalType": "uint256",
          "name": "tokenBalanceOut",
          "type": "uint256"
        },
        {
          "internalType": "uint256",
          "name": "tokenWeightOut",
          "type": "uint256"
        },
        {
          "internalType": "uint256",
          "name": "tokenAmountIn",
          "type": "uint256"
        },
        {
          "internalType": "uint256",
          "name": "swapFee",
          "type": "uint256"
        }
      ],
      "name": "calcOutGivenIn",
      "outputs": [
        {
          "internalType": "uint256",
          "name": "tokenAmountOut",
          "type": "uint256"
        }
      ],
      "stateMutability": "pure",
      "type": "function"
    },
    {
      "inputs": [
        {
          "internalType": "uint256",
          "name": "tokenBalanceOut",
          "type": "uint256"
        },
        {
          "internalType": "uint256",
          "name": "tokenWeightOut",
          "type": "uint256"
        },
        {
          "internalType": "uint256",
          "name": "poolSupply",
          "type": "uint256"
        },
        {
          "internalType": "uint256",
          "name": "totalWeight",
          "type": "uint256"
        },
        {
          "internalType": "uint256",
          "name": "tokenAmountOut",
          "type": "uint256"
        },
        {
          "internalType": "uint256",
          "name": "swapFee",
          "type": "uint256"
        }
      ],
      "name": "calcPoolInGivenSingleOut",
      "outputs": [
        {
          "internalType": "uint256",
          "name": "poolAmountIn",
          "type": "uint256"
        }
      ],
      "stateMutability": "pure",
      "type": "function"
    },
    {
      "inputs": [
        {
          "internalType": "uint256",
          "name": "tokenBalanceIn",
          "type": "uint256"
        },
        {
          "internalType": "uint256",
          "name": "tokenWeightIn",
          "type": "uint256"
        },
        {
          "internalType": "uint256",
          "name": "poolSupply",
          "type": "uint256"
        },
        {
          "internalType": "uint256",
          "name": "totalWeight",
          "type": "uint256"
        },
        {
          "internalType": "uint256",
          "name": "tokenAmountIn",
          "type": "uint256"
        },
        {
          "internalType": "uint256",
          "name": "swapFee",
          "type": "uint256"
        }
      ],
      "name": "calcPoolOutGivenSingleIn",
      "outputs": [
        {
          "internalType": "uint256",
          "name": "poolAmountOut",
          "type": "uint256"
        }
      ],
      "stateMutability": "pure",
      "type": "function"
    },
    {
      "inputs": [
        {
          "internalType": "uint256",
          "name": "tokenBalanceIn",
          "type": "uint256"
        },
        {
          "internalType": "uint256",
          "name": "tokenWeightIn",
          "type": "uint256"
        },
        {
          "internalType": "uint256",
          "name": "poolSupply",
          "type": "uint256"
        },
        {
          "internalType": "uint256",
          "name": "totalWeight",
          "type": "uint256"
        },
        {
          "internalType": "uint256",
          "name": "poolAmountOut",
          "type": "uint256"
        },
        {
          "internalType": "uint256",
          "name": "swapFee",
          "type": "uint256"
        }
      ],
      "name": "calcSingleInGivenPoolOut",
      "outputs": [
        {
          "internalType": "uint256",
          "name": "tokenAmountIn",
          "type": "uint256"
        }
      ],
      "stateMutability": "pure",
      "type": "function"
    },
    {
      "inputs": [
        {
          "internalType": "uint256",
          "name": "tokenBalanceOut",
          "type": "uint256"
        },
        {
          "internalType": "uint256",
          "name": "tokenWeightOut",
          "type": "uint256"
        },
        {
          "internalType": "uint256",
          "name": "poolSupply",
          "type": "uint256"
        },
        {
          "internalType": "uint256",
          "name": "totalWeight",
          "type": "uint256"
        },
        {
          "internalType": "uint256",
          "name": "poolAmountIn",
          "type": "uint256"
        },
        {
          "internalType": "uint256",
          "name": "swapFee",
          "type": "uint256"
        }
      ],
      "name": "calcSingleOutGivenPoolIn",
      "outputs": [
        {
          "internalType": "uint256",
          "name": "tokenAmountOut",
          "type": "uint256"
        }
      ],
      "stateMutability": "pure",
      "type": "function"
    },
    {
      "inputs": [
        {
          "internalType": "uint256",
          "name": "tokenBalanceIn",
          "type": "uint256"
        },
        {
          "internalType": "uint256",
          "name": "tokenWeightIn",
          "type": "uint256"
        },
        {
          "internalType": "uint256",
          "name": "tokenBalanceOut",
          "type": "uint256"
        },
        {
          "internalType": "uint256",
          "name": "tokenWeightOut",
          "type": "uint256"
        },
        {
          "internalType": "uint256",
          "name": "swapFee",
          "type": "uint256"
        }
      ],
      "name": "calcSpotPrice",
      "outputs": [
        {
          "internalType": "uint256",
          "name": "spotPrice",
          "type": "uint256"
        }
      ],
      "stateMutability": "pure",
      "type": "function"
    },
    {
      "inputs": [],
      "name": "decimals",
      "outputs": [
        {
          "internalType": "uint8",
          "name": "",
          "type": "uint8"
        }
      ],
      "stateMutability": "view",
      "type": "function"
    },
    {
      "inputs": [
        {
          "internalType": "address",
          "name": "dst",
          "type": "address"
        },
        {
          "internalType": "uint256",
          "name": "amt",
          "type": "uint256"
        }
      ],
      "name": "decreaseApproval",
      "outputs": [
        {
          "internalType": "bool",
          "name": "",
          "type": "bool"
        }
      ],
      "stateMutability": "nonpayable",
      "type": "function"
    },
    {
      "inputs": [
        {
          "internalType": "address",
          "name": "_target",
          "type": "address"
        },
        {
          "internalType": "uint256",
          "name": "_value",
          "type": "uint256"
        },
        {
          "internalType": "bytes",
          "name": "_data",
          "type": "bytes"
        }
      ],
      "name": "execute",
      "outputs": [
        {
          "internalType": "bytes",
          "name": "_returnValue",
          "type": "bytes"
        }
      ],
      "stateMutability": "nonpayable",
      "type": "function"
    },
    {
      "inputs": [
        {
          "internalType": "uint256",
          "name": "poolAmountIn",
          "type": "uint256"
        },
        {
          "internalType": "uint256[]",
          "name": "minAmountsOut",
          "type": "uint256[]"
        }
      ],
      "name": "exitPool",
      "outputs": [],
      "stateMutability": "nonpayable",
      "type": "function"
    },
    {
      "inputs": [],
      "name": "finalize",
      "outputs": [],
      "stateMutability": "nonpayable",
      "type": "function"
    },
    {
      "inputs": [
        {
          "internalType": "address",
          "name": "token",
          "type": "address"
        }
      ],
      "name": "getBalance",
      "outputs": [
        {
          "internalType": "uint256",
          "name": "",
          "type": "uint256"
        }
      ],
      "stateMutability": "view",
      "type": "function"
    },
    {
      "inputs": [],
      "name": "getColor",
      "outputs": [
        {
          "internalType": "bytes32",
          "name": "",
          "type": "bytes32"
        }
      ],
      "stateMutability": "pure",
      "type": "function"
    },
    {
      "inputs": [],
      "name": "getController",
      "outputs": [
        {
          "internalType": "address",
          "name": "",
          "type": "address"
        }
      ],
      "stateMutability": "view",
      "type": "function"
    },
    {
      "inputs": [],
      "name": "getCurrentTokens",
      "outputs": [
        {
          "internalType": "address[]",
          "name": "tokens",
          "type": "address[]"
        }
      ],
      "stateMutability": "view",
      "type": "function"
    },
    {
      "inputs": [
        {
          "internalType": "address",
          "name": "token",
          "type": "address"
        }
      ],
      "name": "getDenormalizedWeight",
      "outputs": [
        {
          "internalType": "uint256",
          "name": "",
          "type": "uint256"
        }
      ],
      "stateMutability": "view",
      "type": "function"
    },
    {
      "inputs": [],
      "name": "getFinalTokens",
      "outputs": [
        {
          "internalType": "address[]",
          "name": "tokens",
          "type": "address[]"
        }
      ],
      "stateMutability": "view",
      "type": "function"
    },
    {
      "inputs": [
        {
          "internalType": "address",
          "name": "token",
          "type": "address"
        }
      ],
      "name": "getNormalizedWeight",
      "outputs": [
        {
          "internalType": "uint256",
          "name": "",
          "type": "uint256"
        }
      ],
      "stateMutability": "nonpayable",
      "type": "function"
    },
    {
      "inputs": [],
      "name": "getNumTokens",
      "outputs": [
        {
          "internalType": "uint256",
          "name": "",
          "type": "uint256"
        }
      ],
      "stateMutability": "view",
      "type": "function"
    },
    {
      "inputs": [],
      "name": "getSwapFee",
      "outputs": [
        {
          "internalType": "uint256",
          "name": "",
          "type": "uint256"
        }
      ],
      "stateMutability": "view",
      "type": "function"
    },
    {
      "inputs": [],
      "name": "getTotalDenormalizedWeight",
      "outputs": [
        {
          "internalType": "uint256",
          "name": "",
          "type": "uint256"
        }
      ],
      "stateMutability": "view",
      "type": "function"
    },
    {
      "inputs": [
        {
          "internalType": "address",
          "name": "token",
          "type": "address"
        }
      ],
      "name": "gulp",
      "outputs": [],
      "stateMutability": "nonpayable",
      "type": "function"
    },
    {
      "inputs": [
        {
          "internalType": "address",
          "name": "dst",
          "type": "address"
        },
        {
          "internalType": "uint256",
          "name": "amt",
          "type": "uint256"
        }
      ],
      "name": "increaseApproval",
      "outputs": [
        {
          "internalType": "bool",
          "name": "",
          "type": "bool"
        }
      ],
      "stateMutability": "nonpayable",
      "type": "function"
    },
    {
      "inputs": [
        {
          "internalType": "address",
          "name": "t",
          "type": "address"
        }
      ],
      "name": "isBound",
      "outputs": [
        {
          "internalType": "bool",
          "name": "",
          "type": "bool"
        }
      ],
      "stateMutability": "view",
      "type": "function"
    },
    {
      "inputs": [],
      "name": "isFinalized",
      "outputs": [
        {
          "internalType": "bool",
          "name": "",
          "type": "bool"
        }
      ],
      "stateMutability": "view",
      "type": "function"
    },
    {
      "inputs": [],
      "name": "isPublicSwap",
      "outputs": [
        {
          "internalType": "bool",
          "name": "",
          "type": "bool"
        }
      ],
      "stateMutability": "view",
      "type": "function"
    },
    {
      "inputs": [
        {
          "internalType": "uint256",
          "name": "poolAmountOut",
          "type": "uint256"
        },
        {
          "internalType": "uint256[]",
          "name": "maxAmountsIn",
          "type": "uint256[]"
        }
      ],
      "name": "joinPool",
      "outputs": [],
      "stateMutability": "nonpayable",
      "type": "function"
    },
    {
      "inputs": [],
      "name": "name",
      "outputs": [
        {
          "internalType": "string",
          "name": "",
          "type": "string"
        }
      ],
      "stateMutability": "view",
      "type": "function"
    },
    {
      "inputs": [
        {
          "internalType": "address",
          "name": "token",
          "type": "address"
        },
        {
          "internalType": "uint256",
          "name": "balance",
          "type": "uint256"
        },
        {
          "internalType": "uint256",
          "name": "denorm",
          "type": "uint256"
        }
      ],
      "name": "rebind",
      "outputs": [],
      "stateMutability": "nonpayable",
      "type": "function"
    },
    {
      "inputs": [
        {
          "internalType": "address",
          "name": "tokenA",
          "type": "address"
        },
        {
          "internalType": "address",
          "name": "tokenB",
          "type": "address"
        },
        {
          "internalType": "uint256",
          "name": "deltaWeight",
          "type": "uint256"
        },
        {
          "internalType": "uint256",
          "name": "deltaBalance",
          "type": "uint256"
        },
        {
          "internalType": "bool",
          "name": "isSoldout",
          "type": "bool"
        },
        {
          "internalType": "uint256",
          "name": "minAmountOut",
          "type": "uint256"
        }
      ],
      "name": "rebindSmart",
      "outputs": [],
      "stateMutability": "nonpayable",
      "type": "function"
    },
    {
      "inputs": [
        {
          "internalType": "address",
          "name": "manager",
          "type": "address"
        }
      ],
      "name": "setController",
      "outputs": [],
      "stateMutability": "nonpayable",
      "type": "function"
    },
    {
      "inputs": [
        {
          "internalType": "bool",
          "name": "public_",
          "type": "bool"
        }
      ],
      "name": "setPublicSwap",
      "outputs": [],
      "stateMutability": "nonpayable",
      "type": "function"
    },
    {
      "inputs": [
        {
          "internalType": "uint256",
          "name": "swapFee",
          "type": "uint256"
        }
      ],
      "name": "setSwapFee",
      "outputs": [],
      "stateMutability": "nonpayable",
      "type": "function"
    },
    {
      "inputs": [],
      "name": "symbol",
      "outputs": [
        {
          "internalType": "string",
          "name": "",
          "type": "string"
        }
      ],
      "stateMutability": "view",
      "type": "function"
    },
    {
      "inputs": [],
      "name": "totalSupply",
      "outputs": [
        {
          "internalType": "uint256",
          "name": "",
          "type": "uint256"
        }
      ],
      "stateMutability": "view",
      "type": "function"
    },
    {
      "inputs": [
        {
          "internalType": "address",
          "name": "dst",
          "type": "address"
        },
        {
          "internalType": "uint256",
          "name": "amt",
          "type": "uint256"
        }
      ],
      "name": "transfer",
      "outputs": [
        {
          "internalType": "bool",
          "name": "",
          "type": "bool"
        }
      ],
      "stateMutability": "nonpayable",
      "type": "function"
    },
    {
      "inputs": [
        {
          "internalType": "address",
          "name": "src",
          "type": "address"
        },
        {
          "internalType": "address",
          "name": "dst",
          "type": "address"
        },
        {
          "internalType": "uint256",
          "name": "amt",
          "type": "uint256"
        }
      ],
      "name": "transferFrom",
      "outputs": [
        {
          "internalType": "bool",
          "name": "",
          "type": "bool"
        }
      ],
      "stateMutability": "nonpayable",
      "type": "function"
    },
    {
      "inputs": [
        {
          "internalType": "address",
          "name": "token",
          "type": "address"
        }
      ],
      "name": "unbind",
      "outputs": [],
      "stateMutability": "nonpayable",
      "type": "function"
    },
    {
      "inputs": [
        {
          "internalType": "address",
          "name": "token",
          "type": "address"
        }
      ],
      "name": "unbindPure",
      "outputs": [],
      "stateMutability": "nonpayable",
      "type": "function"
    },
    {
      "stateMutability": "payable",
      "type": "receive"
    }
  ],
  "transactionHash": "0x63bc4c95a0b8bdccaa4006542ff878e3c1e58b11c57d2ac866fe9ca7e76bfa10",
  "args": [],
  "numDeployments": 1,
  "solcInputHash": "8d86acc6f386b16d6854398ac9304128",
  "bytecode": "0x60c0604052601060808190526f2232b9bcb7102837b7b6102a37b5b2b760811b60a090815262000033916003919062000082565b506040805180820190915260038082526211141560ea1b6020909201918252620000609160049162000082565b506005805460ff191660121790553480156200007b57600080fd5b506200011e565b828054600181600116156101000203166002900490600052602060002090601f016020900481019282601f10620000c557805160ff1916838001178555620000f5565b82800160010185558215620000f5579182015b82811115620000f5578251825591602001919060010190620000d8565b506200010392915062000107565b5090565b5b8082111562000103576000815560010162000108565b6154e0806200012e6000396000f3fe6080604052600436106102bb5760003560e01c8063992e2a921161016c578063992e2a92146108a75780639a86139b146108bc578063a221ee49146108d1578063a61e44f514610913578063a9059cbb14610946578063b02f0b731461097f578063b0e0d13614610a01578063b61d27f614610a16578063b7b800a414610aa6578063ba019dab14610aa6578063ba9530a614610abb578063bc063e1a14610b03578063bc694ea214610b18578063be3bbd2e14610b2d578063c36596a6146103ef578063c6580d121461075d578063cbf3a56b14610b92578063cc77828d14610be9578063cd2ed8fb14610bfe578063cf5e7bd314610c13578063d4cadf6814610c46578063d73dd62314610c5b578063dd62ed3e14610c94578063e4a28a521461039e578063e4e1e53814610ccf578063ec09302114610d0e578063f1b8a9b714610d23578063f8b2cb4f14610d56578063f8d6aed414610d89578063fde924f714610dd1576102c2565b806306fdde03146102c7578063095ea7b31461035157806309a3bbe41461039e57806318160ddd146103c5578063189d00ca146103da578063218b5382146103ef57806323b872dd146104045780632f37b624146104475780633018205f1461047a578063313ce567146104ab57806334e19907146104d65780633fdddaa21461050257806349b59552146105415780634bb278f31461056d5780634f69c0d4146105825780635c1bbaf714610604578063661884631461064c57806370a082311461068557806376c7a3c7146106b857806382f652ad146106cd5780638656b65314610715578063867378c51461075d57806389298012146107725780638c28cbe8146107ba5780638d4e4083146107ed57806392eefe9b14610802578063936c3477146108355780639381cd2b1461084a578063948d8ce61461085f57806395d89b4114610892576102c2565b366102c257005b600080fd5b3480156102d357600080fd5b506102dc610de6565b6040805160208082528351818301528351919283929083019185019080838360005b838110156103165781810151838201526020016102fe565b50505050905090810190601f1680156103435780820380516001836020036101000a031916815260200191505b509250505060405180910390f35b34801561035d57600080fd5b5061038a6004803603604081101561037457600080fd5b506001600160a01b038135169060200135610e7c565b604080519115158252519081900360200190f35b3480156103aa57600080fd5b506103b3610ed1565b60408051918252519081900360200190f35b3480156103d157600080fd5b506103b3610ede565b3480156103e657600080fd5b506103b3610ee4565b3480156103fb57600080fd5b506103b3610ef8565b34801561041057600080fd5b5061038a6004803603606081101561042757600080fd5b506001600160a01b03813581169160208101359091169060400135610f04565b34801561045357600080fd5b5061038a6004803603602081101561046a57600080fd5b50356001600160a01b031661105b565b34801561048657600080fd5b5061048f611079565b604080516001600160a01b039092168252519081900360200190f35b3480156104b757600080fd5b506104c06110d7565b6040805160ff9092168252519081900360200190f35b3480156104e257600080fd5b50610500600480360360208110156104f957600080fd5b50356110e0565b005b34801561050e57600080fd5b506105006004803603606081101561052557600080fd5b506001600160a01b0381351690602081013590604001356112d1565b34801561054d57600080fd5b506105006004803603602081101561056457600080fd5b50351515611651565b34801561057957600080fd5b506105006117c8565b34801561058e57600080fd5b50610500600480360360408110156105a557600080fd5b81359190810190604081016020820135600160201b8111156105c657600080fd5b8201836020820111156105d857600080fd5b803590602001918460208302840111600160201b831117156105f957600080fd5b5090925090506119b3565b34801561061057600080fd5b506103b3600480360360c081101561062757600080fd5b5080359060208101359060408101359060608101359060808101359060a00135611cac565b34801561065857600080fd5b5061038a6004803603604081101561066f57600080fd5b506001600160a01b038135169060200135611d64565b34801561069157600080fd5b506103b3600480360360208110156106a857600080fd5b50356001600160a01b0316611e3c565b3480156106c457600080fd5b506103b3611e57565b3480156106d957600080fd5b506103b3600480360360c08110156106f057600080fd5b5080359060208101359060408101359060608101359060808101359060a00135611e69565b34801561072157600080fd5b506103b3600480360360c081101561073857600080fd5b5080359060208101359060408101359060608101359060808101359060a00135611f28565b34801561076957600080fd5b506103b3611fc9565b34801561077e57600080fd5b506103b3600480360360c081101561079557600080fd5b5080359060208101359060408101359060608101359060808101359060a00135611fce565b3480156107c657600080fd5b50610500600480360360208110156107dd57600080fd5b50356001600160a01b031661207e565b3480156107f957600080fd5b5061038a612232565b34801561080e57600080fd5b506105006004803603602081101561082557600080fd5b50356001600160a01b031661223b565b34801561084157600080fd5b506103b3612372565b34801561085657600080fd5b506103b36123c7565b34801561086b57600080fd5b506103b36004803603602081101561088257600080fd5b50356001600160a01b03166123d4565b34801561089e57600080fd5b506102dc61249e565b3480156108b357600080fd5b506103b36124ff565b3480156108c857600080fd5b506103b361250b565b3480156108dd57600080fd5b506103b3600480360360a08110156108f457600080fd5b5080359060208101359060408101359060608101359060800135612518565b34801561091f57600080fd5b506105006004803603602081101561093657600080fd5b50356001600160a01b031661257d565b34801561095257600080fd5b5061038a6004803603604081101561096957600080fd5b506001600160a01b038135169060200135612885565b34801561098b57600080fd5b50610500600480360360408110156109a257600080fd5b81359190810190604081016020820135600160201b8111156109c357600080fd5b8201836020820111156109d557600080fd5b803590602001918460208302840111600160201b831117156109f657600080fd5b50909250905061289b565b348015610a0d57600080fd5b506103b3612b94565b348015610a2257600080fd5b506102dc60048036036060811015610a3957600080fd5b6001600160a01b0382351691602081013591810190606081016040820135600160201b811115610a6857600080fd5b820183602082011115610a7a57600080fd5b803590602001918460018302840111600160201b83111715610a9b57600080fd5b509092509050612b99565b348015610ab257600080fd5b506103b3612d4a565b348015610ac757600080fd5b506103b3600480360360c0811015610ade57600080fd5b5080359060208101359060408101359060608101359060808101359060a00135612d4f565b348015610b0f57600080fd5b506103b3612dd0565b348015610b2457600080fd5b506103b3612de0565b348015610b3957600080fd5b50610b42612dec565b60408051602080825283518183015283519192839290830191858101910280838360005b83811015610b7e578181015183820152602001610b66565b505050509050019250505060405180910390f35b348015610b9e57600080fd5b50610500600480360360c0811015610bb557600080fd5b506001600160a01b038135811691602081013590911690604081013590606081013590608081013515159060a00135612ee4565b348015610bf557600080fd5b50610b42613be8565b348015610c0a57600080fd5b506103b3613c36565b348015610c1f57600080fd5b5061050060048036036020811015610c3657600080fd5b50356001600160a01b0316613c3c565b348015610c5257600080fd5b506103b3613f80565b348015610c6757600080fd5b5061038a60048036036040811015610c7e57600080fd5b506001600160a01b038135169060200135613fd5565b348015610ca057600080fd5b506103b360048036036040811015610cb757600080fd5b506001600160a01b0381358116916020013516614056565b348015610cdb57600080fd5b5061050060048036036060811015610cf257600080fd5b506001600160a01b038135169060208101359060400135614081565b348015610d1a57600080fd5b506103b36142cc565b348015610d2f57600080fd5b506103b360048036036020811015610d4657600080fd5b50356001600160a01b03166142dc565b348015610d6257600080fd5b506103b360048036036020811015610d7957600080fd5b50356001600160a01b03166145e9565b348015610d9557600080fd5b506103b3600480360360c0811015610dac57600080fd5b5080359060208101359060408101359060608101359060808101359060a001356146b3565b348015610ddd57600080fd5b5061038a614736565b60038054604080516020601f6002600019610100600188161502019095169490940493840181900481028201810190925282815260609390929091830182828015610e725780601f10610e4757610100808354040283529160200191610e72565b820191906000526020600020905b815481529060010190602001808311610e5557829003601f168201915b5050505050905090565b3360008181526001602090815260408083206001600160a01b0387168085529083528184208690558151868152915193949093909260008051602061546b833981519152928290030190a35060015b92915050565b6802b5e3af16b188000081565b60025490565b6402540be400670de0b6b3a76400005b0481565b670de0b6b3a764000081565b6000336001600160a01b0385161480610f4057506001600160a01b03841660009081526001602090815260408083203384529091529020548211155b610f8a576040805162461bcd60e51b815260206004820152601660248201527522a9292fa6282a27a5a2a72fa120a22fa1a0a62622a960511b604482015290519081900360640190fd5b610f95848484614746565b336001600160a01b03851614801590610fd357506001600160a01b038416600090815260016020908152604080832033845290915290205460001914155b15611051576001600160a01b03841660009081526001602090815260408083203384529091529020546110069083614844565b6001600160a01b03851660008181526001602090815260408083203380855290835292819020859055805194855251919360008051602061546b833981519152929081900390910190a35b5060019392505050565b6001600160a01b03166000908152600a602052604090205460ff1690565b600554600090610100900460ff16156110c7576040805162461bcd60e51b815260206004820152600b60248201526a4552525f5245454e54525960a81b604482015290519081900360640190fd5b506006546001600160a01b031690565b60055460ff1690565b336001600160a01b03166000356001600160e01b0319166001600160e01b03191660003660405180806020018281038252848482818152602001925080828437600083820152604051601f909101601f19169092018290039550909350505050a2600554610100900460ff161561118c576040805162461bcd60e51b815260206004820152600b60248201526a4552525f5245454e54525960a81b604482015290519081900360640190fd5b6005805461ff00191661010017905560085460ff16156111e1576040805162461bcd60e51b8152602060048201526010602482015260008051602061548b833981519152604482015290519081900360640190fd5b6006546001600160a01b0316331461122e576040805162461bcd60e51b81526020600482015260126024820152600080516020615402833981519152604482015290519081900360640190fd5b64e8d4a51000811015611276576040805162461bcd60e51b815260206004820152600b60248201526a4552525f4d494e5f46454560a81b604482015290519081900360640190fd5b67016345785d8a00008111156112c1576040805162461bcd60e51b815260206004820152600b60248201526a4552525f4d41585f46454560a81b604482015290519081900360640190fd5b6007556005805461ff0019169055565b336001600160a01b03166000356001600160e01b0319166001600160e01b03191660003660405180806020018281038252848482818152602001925080828437600083820152604051601f909101601f19169092018290039550909350505050a2600554610100900460ff161561137d576040805162461bcd60e51b815260206004820152600b60248201526a4552525f5245454e54525960a81b604482015290519081900360640190fd5b6005805461ff001916610100179055600654336001600160a01b03909116146113db576040805162461bcd60e51b81526020600482015260126024820152600080516020615402833981519152604482015290519081900360640190fd5b6001600160a01b0383166000908152600a602052604090205460ff16611438576040805162461bcd60e51b815260206004820152600d60248201526c11549497d393d517d093d55391609a1b604482015290519081900360640190fd5b60085460ff161561147e576040805162461bcd60e51b8152602060048201526010602482015260008051602061548b833981519152604482015290519081900360640190fd5b670de0b6b3a76400008110156114cc576040805162461bcd60e51b815260206004820152600e60248201526d11549497d3525397d5d15251d21560921b604482015290519081900360640190fd5b6802b5e3af16b188000081111561151b576040805162461bcd60e51b815260206004820152600e60248201526d11549497d3505617d5d15251d21560921b604482015290519081900360640190fd5b6001600160a01b0383166000908152600a6020526040902060020154808211156115b257611554600b5461154f8484614844565b6148a6565b600b8190556802b5e3af16b188000010156115ad576040805162461bcd60e51b815260206004820152601460248201527311549497d3505617d513d5105317d5d15251d21560621b604482015290519081900360640190fd5b6115d3565b808210156115d3576115cf600b546115ca8385614844565b614844565b600b555b6001600160a01b0384166000908152600a60205260409020600281018390556003018054908490558084111561161c5761161785336116128785614844565b6148fa565b61163f565b8084101561163f5760006116308286614844565b905061163d8633836149cb565b505b50506005805461ff0019169055505050565b336001600160a01b03166000356001600160e01b0319166001600160e01b03191660003660405180806020018281038252848482818152602001925080828437600083820152604051601f909101601f19169092018290039550909350505050a2600554610100900460ff16156116fd576040805162461bcd60e51b815260206004820152600b60248201526a4552525f5245454e54525960a81b604482015290519081900360640190fd5b6005805461ff00191661010017905560085460ff1615611752576040805162461bcd60e51b8152602060048201526010602482015260008051602061548b833981519152604482015290519081900360640190fd5b6006546001600160a01b0316331461179f576040805162461bcd60e51b81526020600482015260126024820152600080516020615402833981519152604482015290519081900360640190fd5b60068054911515600160a01b0260ff60a01b199092169190911790556005805461ff0019169055565b336001600160a01b03166000356001600160e01b0319166001600160e01b03191660003660405180806020018281038252848482818152602001925080828437600083820152604051601f909101601f19169092018290039550909350505050a2600554610100900460ff1615611874576040805162461bcd60e51b815260206004820152600b60248201526a4552525f5245454e54525960a81b604482015290519081900360640190fd5b6005805461ff001916610100179055600654336001600160a01b03909116146118d2576040805162461bcd60e51b81526020600482015260126024820152600080516020615402833981519152604482015290519081900360640190fd5b60085460ff1615611918576040805162461bcd60e51b8152602060048201526010602482015260008051602061548b833981519152604482015290519081900360640190fd5b60095460011115611961576040805162461bcd60e51b815260206004820152600e60248201526d4552525f4d494e5f544f4b454e5360901b604482015290519081900360640190fd5b6008805460ff191660011790556006805460ff60a01b1916600160a01b17905561199368056bc75e2d63100000614a24565b6119a63368056bc75e2d63100000614a30565b6005805461ff0019169055565b336001600160a01b03166000356001600160e01b0319166001600160e01b03191660003660405180806020018281038252848482818152602001925080828437600083820152604051601f909101601f19169092018290039550909350505050a2600554610100900460ff1615611a5f576040805162461bcd60e51b815260206004820152600b60248201526a4552525f5245454e54525960a81b604482015290519081900360640190fd5b6005805461ff00191661010017905560085460ff16611ab9576040805162461bcd60e51b815260206004820152601160248201527011549497d393d517d19253905312569151607a1b604482015290519081900360640190fd5b6000611ac3610ede565b90506000611ad18583614a3e565b905080611b17576040805162461bcd60e51b815260206004820152600f60248201526e08aa4a4be9a82a890be82a0a0a49eb608b1b604482015290519081900360640190fd5b60005b600954811015611c9857600060098281548110611b3357fe5b60009182526020808320909101546001600160a01b0316808352600a909152604082206003015490925090611b688583614b51565b905080611bae576040805162461bcd60e51b815260206004820152600f60248201526e08aa4a4be9a82a890be82a0a0a49eb608b1b604482015290519081900360640190fd5b878785818110611bba57fe5b90506020020135811115611c04576040805162461bcd60e51b815260206004820152600c60248201526b22a9292fa624a6a4aa2fa4a760a11b604482015290519081900360640190fd5b6001600160a01b0383166000908152600a6020526040902060030154611c2a90826148a6565b6001600160a01b0384166000818152600a60209081526040918290206003019390935580518481529051919233927f63982df10efd8dfaaaa0fcc7f50b2d93b7cba26ccc48adee2873220d485dc39a9281900390910190a3611c8d8333836148fa565b505050600101611b1a565b50611ca285614a24565b61163f3386614a30565b600080611cb98786614a3e565b90506000611cc787866148a6565b90506000611cd58289614a3e565b90506000611ceb670de0b6b3a764000085614a3e565b90506000611cf98383614c13565b90506000611d07828e614b51565b90506000611d15828f614844565b90506000611d34611d2e670de0b6b3a76400008a614844565b8b614b51565b9050611d5182611d4c670de0b6b3a764000084614844565b614a3e565b9f9e505050505050505050505050505050565b3360009081526001602090815260408083206001600160a01b038616845290915281205480831115611db9573360009081526001602090815260408083206001600160a01b0388168452909152812055611de8565b611dc38184614844565b3360009081526001602090815260408083206001600160a01b03891684529091529020555b3360008181526001602090815260408083206001600160a01b03891680855290835292819020548151908152905192939260008051602061546b833981519152929181900390910190a35060019392505050565b6001600160a01b031660009081526020819052604090205490565b620f4240670de0b6b3a7640000610ef4565b600080611e768786614a3e565b90506000611e8c670de0b6b3a764000083614844565b90506000611e9a8286614b51565b90506000611eb487611d4c670de0b6b3a764000085614844565b90506000611ec28c83614844565b90506000611ed0828e614a3e565b90506000611ede8288614c13565b90506000611eec828e614b51565b90506000611efa8e83614844565b9050611f1381611d4c670de0b6b3a76400006000614844565b99505050505050505050509695505050505050565b600080611f358786614a3e565b90506000611f54611f4e670de0b6b3a764000084614844565b85614b51565b90506000611f7386611f6e670de0b6b3a764000085614844565b614b51565b90506000611f818b836148a6565b90506000611f8f828d614a3e565b90506000611f9d8287614c13565b90506000611fab828d614b51565b9050611fb7818d614844565b9e9d5050505050505050505050505050565b600081565b600080611fdb8786614a3e565b90506000611ff685611f6e670de0b6b3a76400006000614844565b905060006120048883614844565b90506000612012828a614a3e565b905060006120318261202c670de0b6b3a764000088614a3e565b614c13565b9050600061203f828e614b51565b9050600061204d8e83614844565b90506000612066611d2e670de0b6b3a76400008a614844565b9050611d5182611f6e670de0b6b3a764000084614844565b336001600160a01b03166000356001600160e01b0319166001600160e01b03191660003660405180806020018281038252848482818152602001925080828437600083820152604051601f909101601f19169092018290039550909350505050a2600554610100900460ff161561212a576040805162461bcd60e51b815260206004820152600b60248201526a4552525f5245454e54525960a81b604482015290519081900360640190fd5b6005805461ff0019166101001790556001600160a01b0381166000908152600a602052604090205460ff16612196576040805162461bcd60e51b815260206004820152600d60248201526c11549497d393d517d093d55391609a1b604482015290519081900360640190fd5b604080516370a0823160e01b815230600482015290516001600160a01b038316916370a08231916024808301926020929190829003018186803b1580156121dc57600080fd5b505afa1580156121f0573d6000803e3d6000fd5b505050506040513d602081101561220657600080fd5b50516001600160a01b039091166000908152600a60205260409020600301556005805461ff0019169055565b60085460ff1690565b336001600160a01b03166000356001600160e01b0319166001600160e01b03191660003660405180806020018281038252848482818152602001925080828437600083820152604051601f909101601f19169092018290039550909350505050a2600554610100900460ff16156122e7576040805162461bcd60e51b815260206004820152600b60248201526a4552525f5245454e54525960a81b604482015290519081900360640190fd5b6005805461ff001916610100179055600654336001600160a01b0390911614612345576040805162461bcd60e51b81526020600482015260126024820152600080516020615402833981519152604482015290519081900360640190fd5b600680546001600160a01b0319166001600160a01b03929092169190911790556005805461ff0019169055565b600554600090610100900460ff16156123c0576040805162461bcd60e51b815260206004820152600b60248201526a4552525f5245454e54525960a81b604482015290519081900360640190fd5b50600b5490565b68056bc75e2d6310000081565b600554600090610100900460ff1615612422576040805162461bcd60e51b815260206004820152600b60248201526a4552525f5245454e54525960a81b604482015290519081900360640190fd5b6001600160a01b0382166000908152600a602052604090205460ff1661247f576040805162461bcd60e51b815260206004820152600d60248201526c11549497d393d517d093d55391609a1b604482015290519081900360640190fd5b506001600160a01b03166000908152600a602052604090206002015490565b60048054604080516020601f6002600019610100600188161502019095169490940493840181900481028201810190925282815260609390929091830182828015610e725780601f10610e4757610100808354040283529160200191610e72565b6704a03ce68d21555681565b6542524f4e5a4560d01b90565b6000806125258787614a3e565b905060006125338686614a3e565b905060006125418383614a3e565b90506000612563670de0b6b3a7640000611d4c670de0b6b3a764000089614844565b905061256f8282614b51565b9a9950505050505050505050565b336001600160a01b03166000356001600160e01b0319166001600160e01b03191660003660405180806020018281038252848482818152602001925080828437600083820152604051601f909101601f19169092018290039550909350505050a2600554610100900460ff1615612629576040805162461bcd60e51b815260206004820152600b60248201526a4552525f5245454e54525960a81b604482015290519081900360640190fd5b6005805461ff001916610100179055600654336001600160a01b0390911614612687576040805162461bcd60e51b81526020600482015260126024820152600080516020615402833981519152604482015290519081900360640190fd5b6001600160a01b0381166000908152600a602052604090205460ff166126e4576040805162461bcd60e51b815260206004820152600d60248201526c11549497d393d517d093d55391609a1b604482015290519081900360640190fd5b60085460ff161561272a576040805162461bcd60e51b8152602060048201526010602482015260008051602061548b833981519152604482015290519081900360640190fd5b6001600160a01b0381166000908152600a602052604090206001015460098054600019810191908290811061275b57fe5b600091825260209091200154600980546001600160a01b03909216918490811061278157fe5b9060005260206000200160006101000a8154816001600160a01b0302191690836001600160a01b0316021790555081600a6000600985815481106127c157fe5b60009182526020808320909101546001600160a01b0316835282019290925260400190206001015560098054806127f457fe5b60008281526020808220600019908401810180546001600160a01b031916905590920190925560408051608081018252838152808301848152818301858152606083018681526001600160a01b03999099168652600a909452919093209251835460ff1916901515178355516001830155516002820155925160039093019290925550506005805461ff0019169055565b6000612892338484614746565b50600192915050565b336001600160a01b03166000356001600160e01b0319166001600160e01b03191660003660405180806020018281038252848482818152602001925080828437600083820152604051601f909101601f19169092018290039550909350505050a2600554610100900460ff1615612947576040805162461bcd60e51b815260206004820152600b60248201526a4552525f5245454e54525960a81b604482015290519081900360640190fd5b6005805461ff00191661010017905560085460ff166129a1576040805162461bcd60e51b815260206004820152601160248201527011549497d393d517d19253905312569151607a1b604482015290519081900360640190fd5b60006129ab610ede565b905060006129b98583614a3e565b9050806129ff576040805162461bcd60e51b815260206004820152600f60248201526e08aa4a4be9a82a890be82a0a0a49eb608b1b604482015290519081900360640190fd5b612a093386614d16565b612a1285614d20565b60005b60095481101561163d57600060098281548110612a2e57fe5b60009182526020808320909101546001600160a01b0316808352600a909152604082206003015490925090612a638583614b51565b905080612aa9576040805162461bcd60e51b815260206004820152600f60248201526e08aa4a4be9a82a890be82a0a0a49eb608b1b604482015290519081900360640190fd5b878785818110612ab557fe5b90506020020135811015612b00576040805162461bcd60e51b815260206004820152600d60248201526c11549497d31253525517d3d555609a1b604482015290519081900360640190fd5b6001600160a01b0383166000908152600a6020526040902060030154612b269082614844565b6001600160a01b0384166000818152600a60209081526040918290206003019390935580518481529051919233927fe74c91552b64c2e2e7bd255639e004e693bd3e1d01cc33e65610b86afcc1ffed9281900390910190a3612b898333836149cb565b505050600101612a15565b601081565b6060336001600160a01b03166000356001600160e01b0319166001600160e01b03191660003660405180806020018281038252848482818152602001925080828437600083820152604051601f909101601f19169092018290039550909350505050a2600554610100900460ff1615612c47576040805162461bcd60e51b815260206004820152600b60248201526a4552525f5245454e54525960a81b604482015290519081900360640190fd5b6005805461ff001916610100179055600654336001600160a01b0390911614612ca5576040805162461bcd60e51b81526020600482015260126024820152600080516020615402833981519152604482015290519081900360640190fd5b60085460ff1615612ceb576040805162461bcd60e51b8152602060048201526010602482015260008051602061548b833981519152604482015290519081900360640190fd5b612d3683838080601f01602080910402602001604051908101604052809392919081815260200183838082843760009201919091525050506001600160a01b03881691905086614d29565b6005805461ff001916905595945050505050565b600181565b600080612d5c8786614a3e565b90506000612d72670de0b6b3a764000085614844565b9050612d7e8582614b51565b90506000612d908a611d4c8c856148a6565b90506000612d9e8285614c13565b90506000612db4670de0b6b3a764000083614844565b9050612dc08a82614b51565b9c9b505050505050505050505050565b600a670de0b6b3a7640000610ef4565b671bc16d674ec7ffff81565b600554606090610100900460ff1615612e3a576040805162461bcd60e51b815260206004820152600b60248201526a4552525f5245454e54525960a81b604482015290519081900360640190fd5b60085460ff16612e85576040805162461bcd60e51b815260206004820152601160248201527011549497d393d517d19253905312569151607a1b604482015290519081900360640190fd5b6009805480602002602001604051908101604052809291908181526020018280548015610e7257602002820191906000526020600020905b81546001600160a01b03168152600190910190602001808311612ebd575050505050905090565b336001600160a01b03166000356001600160e01b0319166001600160e01b03191660003660405180806020018281038252848482818152602001925080828437600083820152604051601f909101601f19169092018290039550909350505050a2600554610100900460ff1615612f90576040805162461bcd60e51b815260206004820152600b60248201526a4552525f5245454e54525960a81b604482015290519081900360640190fd5b6005805461ff001916610100179055600654336001600160a01b0390911614612fee576040805162461bcd60e51b81526020600482015260126024820152600080516020615402833981519152604482015290519081900360640190fd5b60085460ff1615613034576040805162461bcd60e51b8152602060048201526010602482015260008051602061548b833981519152604482015290519081900360640190fd5b6040805160028082526060808301845292602083019080368337019050509050868160008151811061306257fe5b60200260200101906001600160a01b031690816001600160a01b031681525050858160018151811061309057fe5b60200260200101906001600160a01b031690816001600160a01b0316815250506000600560029054906101000a90046001600160a01b03166001600160a01b031663725c9c496040518163ffffffff1660e01b815260040160206040518083038186803b15801561310057600080fd5b505afa158015613114573d6000803e3d6000fd5b505050506040513d602081101561312a57600080fd5b50516001600160a01b0388166000908152600a602052604090205490915060ff1615613615576001600160a01b0387166000908152600a602052604081206002810154600390910154909161317f838a6148a6565b90506802b5e3af16b18800008111156131d2576040805162461bcd60e51b815260206004820152601060248201526f22a9292fa6a0ac2faba2a4a3a42a2fa160811b604482015290519081900360640190fd5b86156132265760095460011115613221576040805162461bcd60e51b815260206004820152600e60248201526d4552525f4d494e5f544f4b454e5360901b604482015290519081900360640190fd5b61334c565b6001600160a01b038b166000908152600a602052604090205460ff16613285576040805162461bcd60e51b815260206004820152600f60248201526e4552525f4e4f545f424f554e445f4160881b604482015290519081900360640190fd5b6001600160a01b038b166000908152600a60205260408120600201546132ab908b614844565b6001600160a01b038d166000908152600a6020526040812060030154919250906132d5908b614844565b9050670de0b6b3a7640000821015613327576040805162461bcd60e51b815260206004820152601060248201526f4552525f4d494e5f5745494748545f4160801b604482015290519081900360640190fd5b6001600160a01b038d166000908152600a602052604090206003810191909155600201555b60008a6001600160a01b03166370a08231306040518263ffffffff1660e01b815260040180826001600160a01b0316815260200191505060206040518083038186803b15801561339b57600080fd5b505afa1580156133af573d6000803e3d6000fd5b505050506040513d60208110156133c557600080fd5b505190506133d68c86600019614d57565b846001600160a01b03166338ed17398a8989306133f5426107086148a6565b6040518663ffffffff1660e01b81526004018086815260200185815260200180602001846001600160a01b03168152602001838152602001828103825285818151815260200191508051906020019060200280838360005b8381101561346557818101518382015260200161344d565b505050509050019650505050505050600060405180830381600087803b15801561348e57600080fd5b505af11580156134a2573d6000803e3d6000fd5b505050506040513d6000823e601f3d908101601f1916820160405260208110156134cb57600080fd5b8101908080516040519392919084600160201b8211156134ea57600080fd5b9083019060208201858111156134ff57600080fd5b82518660208202830111600160201b8211171561351b57600080fd5b82525081516020918201928201910280838360005b83811015613548578181015183820152602001613530565b505050509050016040525050505060008b6001600160a01b03166370a08231306040518263ffffffff1660e01b815260040180826001600160a01b0316815260200191505060206040518083038186803b1580156135a557600080fd5b505afa1580156135b9573d6000803e3d6000fd5b505050506040513d60208110156135cf57600080fd5b5051905060006135e38561154f8486614844565b6001600160a01b038e166000908152600a6020526040902060038101919091556002019390935550613b4d9350505050565b83613788576001600160a01b0388166000908152600a602052604090205460ff16613679576040805162461bcd60e51b815260206004820152600f60248201526e4552525f4e4f545f424f554e445f4160881b604482015290519081900360640190fd5b6001600160a01b0388166000908152600a602052604081206002015461369f9088614844565b6001600160a01b038a166000908152600a6020526040812060030154919250906136c99088614844565b9050670de0b6b3a764000082101561371b576040805162461bcd60e51b815260206004820152601060248201526f4552525f4d494e5f5745494748545f4160801b604482015290519081900360640190fd5b600954601011613763576040805162461bcd60e51b815260206004820152600e60248201526d4552525f4d41585f544f4b454e5360901b604482015290519081900360640190fd5b6001600160a01b038a166000908152600a602052604090206003810191909155600201555b6000876001600160a01b03166370a08231306040518263ffffffff1660e01b815260040180826001600160a01b0316815260200191505060206040518083038186803b1580156137d757600080fd5b505afa1580156137eb573d6000803e3d6000fd5b505050506040513d602081101561380157600080fd5b505190506138128983600019614d57565b816001600160a01b03166338ed173987868630613831426107086148a6565b6040518663ffffffff1660e01b81526004018086815260200185815260200180602001846001600160a01b03168152602001838152602001828103825285818151815260200191508051906020019060200280838360005b838110156138a1578181015183820152602001613889565b505050509050019650505050505050600060405180830381600087803b1580156138ca57600080fd5b505af11580156138de573d6000803e3d6000fd5b505050506040513d6000823e601f3d908101601f19168201604052602081101561390757600080fd5b8101908080516040519392919084600160201b82111561392657600080fd5b90830190602082018581111561393b57600080fd5b82518660208202830111600160201b8211171561395757600080fd5b82525081516020918201928201910280838360005b8381101561398457818101518382015260200161396c565b50505050905001604052505050506000886001600160a01b03166370a08231306040518263ffffffff1660e01b815260040180826001600160a01b0316815260200191505060206040518083038186803b1580156139e157600080fd5b505afa1580156139f5573d6000803e3d6000fd5b505050506040513d6020811015613a0b57600080fd5b505190506000613a1b8284614844565b9050670de0b6b3a7640000891015613a71576040805162461bcd60e51b81526020600482015260146024820152734552525f4d494e5f5745494748545f44454c544160601b604482015290519081900360640190fd5b604051806080016040528060011515815260200160098054905081526020018a815260200182815250600a60008c6001600160a01b03166001600160a01b0316815260200190815260200160002060008201518160000160006101000a81548160ff02191690831515021790555060208201518160010155604082015181600201556060820151816003015590505060098a9080600181540180825580915050600190039060005260206000200160009091909190916101000a8154816001600160a01b0302191690836001600160a01b031602179055505050505b6001600160a01b038881166000818152600a60209081526040808320600280820154968e168086529483902090810154600392830154929091015483519788529387015285820152606085019190915287151560808501525190927f1443af20d568c33073f294c76ace1e6eaa41ce1c11cbfe69a4d58cb11410deb4919081900360a00190a350506005805461ff0019169055505050505050565b600554606090610100900460ff1615612e85576040805162461bcd60e51b815260206004820152600b60248201526a4552525f5245454e54525960a81b604482015290519081900360640190fd5b60095490565b336001600160a01b03166000356001600160e01b0319166001600160e01b03191660003660405180806020018281038252848482818152602001925080828437600083820152604051601f909101601f19169092018290039550909350505050a2600554610100900460ff1615613ce8576040805162461bcd60e51b815260206004820152600b60248201526a4552525f5245454e54525960a81b604482015290519081900360640190fd5b6005805461ff001916610100179055600654336001600160a01b0390911614613d46576040805162461bcd60e51b81526020600482015260126024820152600080516020615402833981519152604482015290519081900360640190fd5b6001600160a01b0381166000908152600a602052604090205460ff16613da3576040805162461bcd60e51b815260206004820152600d60248201526c11549497d393d517d093d55391609a1b604482015290519081900360640190fd5b60085460ff1615613de9576040805162461bcd60e51b8152602060048201526010602482015260008051602061548b833981519152604482015290519081900360640190fd5b6001600160a01b0381166000908152600a602052604090206003810154600b546002909201549091613e1a91614844565b600b556001600160a01b0382166000908152600a6020526040902060010154600980546000198101919082908110613e4e57fe5b600091825260209091200154600980546001600160a01b039092169184908110613e7457fe5b9060005260206000200160006101000a8154816001600160a01b0302191690836001600160a01b0316021790555081600a600060098581548110613eb457fe5b60009182526020808320909101546001600160a01b031683528201929092526040019020600101556009805480613ee757fe5b60008281526020808220600019908401810180546001600160a01b031916905590920190925560408051608081018252838152808301848152818301858152606083018681526001600160a01b038b168752600a909552929094209051815460ff19169015151781559251600184015551600283015551600390910155613f6f8433856149cb565b50506005805461ff00191690555050565b600554600090610100900460ff1615613fce576040805162461bcd60e51b815260206004820152600b60248201526a4552525f5245454e54525960a81b604482015290519081900360640190fd5b5060075490565b3360009081526001602090815260408083206001600160a01b038616845290915281205461400390836148a6565b3360008181526001602090815260408083206001600160a01b03891680855290835292819020859055805194855251919360008051602061546b833981519152929081900390910190a350600192915050565b6001600160a01b03918216600090815260016020908152604080832093909416825291909152205490565b336001600160a01b03166000356001600160e01b0319166001600160e01b03191660003660405180806020018281038252848482818152602001925080828437600083820152604051601f909101601f19169092018290039550909350505050a26006546001600160a01b0316331461412f576040805162461bcd60e51b81526020600482015260126024820152600080516020615402833981519152604482015290519081900360640190fd5b6001600160a01b0383166000908152600a602052604090205460ff161561418c576040805162461bcd60e51b815260206004820152600c60248201526b11549497d254d7d093d5539160a21b604482015290519081900360640190fd5b60085460ff16156141d2576040805162461bcd60e51b8152602060048201526010602482015260008051602061548b833981519152604482015290519081900360640190fd5b60095460101161421a576040805162461bcd60e51b815260206004820152600e60248201526d4552525f4d41585f544f4b454e5360901b604482015290519081900360640190fd5b6040805160808101825260018082526009805460208085019182526000858701818152606087018281526001600160a01b038c16808452600a9094529782209651875460ff1916901515178755925186860155915160028601559451600390940193909355805491820181559091527f6e1540171b6c0c960b71a7020d9f60077f6af931a8bbf590da0223dacf75c7af0180546001600160a01b03191690911790556142c78383836112d1565b505050565b6002670de0b6b3a7640000610ef4565b600554600090610100900460ff161561432a576040805162461bcd60e51b815260206004820152600b60248201526a4552525f5245454e54525960a81b604482015290519081900360640190fd5b6001600160a01b0382166000908152600a602052604090205460ff16614387576040805162461bcd60e51b815260206004820152600d60248201526c11549497d393d517d093d55391609a1b604482015290519081900360640190fd5b6001600160a01b038083166000818152600a6020908152604080832060020154600c5482516341976e0960e01b8152600481019690965291519095939491909316926341976e099260248084019391929182900301818787803b1580156143ed57600080fd5b505af1158015614401573d6000803e3d6000fd5b505050506040513d602081101561441757600080fd5b505160095490915060609067ffffffffffffffff8111801561443857600080fd5b50604051908082528060200260200182016040528015614462578160200160208202803683370190505b50905060005b6009548110156144bb5761449c6009828154811061448257fe5b6000918252602090912001546001600160a01b03166145e9565b8282815181106144a857fe5b6020908102919091010152600101614468565b50600c546040805163108ad9bd60e21b81526004810191825260098054604483018190526000946001600160a01b03169363422b66f4938792829160248101916064909101908690801561453857602002820191906000526020600020905b81546001600160a01b0316815260019091019060200180831161451a575b50508381038252845181528451602091820191808701910280838360005b8381101561456e578181015183820152602001614556565b50505050905001945050505050602060405180830381600087803b15801561459557600080fd5b505af11580156145a9573d6000803e3d6000fd5b505050506040513d60208110156145bf57600080fd5b5051905060006145d284611f6e896145e9565b90506145de8183614a3e565b979650505050505050565b600554600090610100900460ff1615614637576040805162461bcd60e51b815260206004820152600b60248201526a4552525f5245454e54525960a81b604482015290519081900360640190fd5b6001600160a01b0382166000908152600a602052604090205460ff16614694576040805162461bcd60e51b815260206004820152600d60248201526c11549497d393d517d093d55391609a1b604482015290519081900360640190fd5b506001600160a01b03166000908152600a602052604090206003015490565b6000806146c08588614a3e565b905060006146ce8786614844565b905060006146dc8883614a3e565b905060006146ea8285614c13565b90506146fe81670de0b6b3a7640000614844565b9050614712670de0b6b3a764000087614844565b94506147276147218c83614b51565b86614a3e565b9b9a5050505050505050505050565b600654600160a01b900460ff1690565b6001600160a01b0383166000908152602081905260409020548111156147aa576040805162461bcd60e51b815260206004820152601460248201527311549497d25394d551919250d251539517d0905360621b604482015290519081900360640190fd5b6001600160a01b0383166000908152602081905260409020546147cd9082614844565b6001600160a01b0380851660009081526020819052604080822093909355908416815220546147fc90826148a6565b6001600160a01b0380841660008181526020818152604091829020949094558051858152905191939287169260008051602061544b83398151915292918290030190a3505050565b60008060006148538585614ee7565b91509150801561489e576040805162461bcd60e51b81526020600482015260116024820152704552525f5355425f554e444552464c4f5760781b604482015290519081900360640190fd5b509392505050565b6000828201838110156148f3576040805162461bcd60e51b815260206004820152601060248201526f4552525f4144445f4f564552464c4f5760801b604482015290519081900360640190fd5b9392505050565b604080516323b872dd60e01b81526001600160a01b0384811660048301523060248301526044820184905291516000928616916323b872dd91606480830192602092919082900301818787803b15801561495357600080fd5b505af1158015614967573d6000803e3d6000fd5b505050506040513d602081101561497d57600080fd5b50519050806149c5576040805162461bcd60e51b815260206004820152600f60248201526e4552525f45524332305f46414c534560881b604482015290519081900360640190fd5b50505050565b6000836001600160a01b031663a9059cbb84846040518363ffffffff1660e01b815260040180836001600160a01b0316815260200182815260200192505050602060405180830381600087803b15801561495357600080fd5b614a2d81614f0c565b50565b614a3a8282614f6f565b5050565b600081614a81576040805162461bcd60e51b815260206004820152600c60248201526b4552525f4449565f5a45524f60a01b604482015290519081900360640190fd5b670de0b6b3a76400008302831580614aa95750670de0b6b3a7640000848281614aa657fe5b04145b614aed576040805162461bcd60e51b815260206004820152601060248201526f11549497d1125597d25395115493905360821b604482015290519081900360640190fd5b60028304810181811015614b3b576040805162461bcd60e51b815260206004820152601060248201526f11549497d1125597d25395115493905360821b604482015290519081900360640190fd5b6000848281614b4657fe5b049695505050505050565b6000828202831580614b6b575082848281614b6857fe5b04145b614baf576040805162461bcd60e51b815260206004820152601060248201526f4552525f4d554c5f4f564552464c4f5760801b604482015290519081900360640190fd5b6706f05b59d3b20000810181811015614c02576040805162461bcd60e51b815260206004820152601060248201526f4552525f4d554c5f4f564552464c4f5760801b604482015290519081900360640190fd5b6000670de0b6b3a764000082614b46565b60006001831015614c63576040805162461bcd60e51b81526020600482015260156024820152744552525f42504f575f424153455f544f4f5f4c4f5760581b604482015290519081900360640190fd5b671bc16d674ec7ffff831115614cb9576040805162461bcd60e51b815260206004820152601660248201527508aa4a4be84a09eaebe8482a68abea89e9ebe90928e960531b604482015290519081900360640190fd5b6000614cc483614f7a565b90506000614cd28483614844565b90506000614ce886614ce385614f95565b614fa3565b905081614cf9579250610ecb915050565b6000614d0a87846305f5e100614ffa565b90506145de8282614b51565b614a3a82826150d8565b614a2d816150e3565b6060614d4f848484604051806060016040528060298152602001615422602991396151a1565b949350505050565b60408051636eb1769f60e11b81523060048201526001600160a01b038481166024830152915160009286169163dd62ed3e916044808301926020929190829003018186803b158015614da857600080fd5b505afa158015614dbc573d6000803e3d6000fd5b505050506040513d6020811015614dd257600080fd5b50511115614e5f57826001600160a01b031663095ea7b38360006040518363ffffffff1660e01b815260040180836001600160a01b0316815260200182815260200192505050602060405180830381600087803b158015614e3257600080fd5b505af1158015614e46573d6000803e3d6000fd5b505050506040513d6020811015614e5c57600080fd5b50505b826001600160a01b031663095ea7b383836040518363ffffffff1660e01b815260040180836001600160a01b0316815260200182815260200192505050602060405180830381600087803b158015614eb657600080fd5b505af1158015614eca573d6000803e3d6000fd5b505050506040513d6020811015614ee057600080fd5b5050505050565b600080828410614efd5750508082036000614f05565b505081810360015b9250929050565b30600090815260208190526040902054614f2690826148a6565b30600090815260208190526040902055600254614f4390826148a6565b600255604080518281529051309160009160008051602061544b8339815191529181900360200190a350565b614a3a308383614746565b6000670de0b6b3a7640000614f8e83614f95565b0292915050565b670de0b6b3a7640000900490565b60008060028306614fbc57670de0b6b3a7640000614fbe565b835b90506002830492505b82156148f357614fd78485614b51565b93506002830615614fef57614fec8185614b51565b90505b600283049250614fc7565b600082818061501187670de0b6b3a7640000614ee7565b9092509050670de0b6b3a764000080600060015b8884106150c9576000670de0b6b3a7640000820290506000806150598a61505485670de0b6b3a7640000614844565b614ee7565b9150915061506b87611f6e848c614b51565b96506150778784614a3e565b965086615086575050506150c9565b8715615090579315935b801561509a579315935b84156150b1576150aa8688614844565b95506150be565b6150bb86886148a6565b95505b505050600101615025565b50909998505050505050505050565b614a3a823083614746565b3060009081526020819052604090205481111561513e576040805162461bcd60e51b815260206004820152601460248201527311549497d25394d551919250d251539517d0905360621b604482015290519081900360640190fd5b306000908152602081905260409020546151589082614844565b306000908152602081905260409020556002546151759082614844565b600255604080518281529051600091309160008051602061544b8339815191529181900360200190a350565b6060824710156151e25760405162461bcd60e51b81526004018080602001828103825260268152602001806153dc6026913960400191505060405180910390fd5b6151ee858585856151f7565b95945050505050565b6060615202856153a2565b615253576040805162461bcd60e51b815260206004820152601d60248201527f416464726573733a2063616c6c20746f206e6f6e2d636f6e7472616374000000604482015290519081900360640190fd5b60006060866001600160a01b031685876040518082805190602001908083835b602083106152925780518252601f199092019160209182019101615273565b6001836020036101000a03801982511681845116808217855250505050505090500191505060006040518083038185875af1925050503d80600081146152f4576040519150601f19603f3d011682016040523d82523d6000602084013e6152f9565b606091505b5091509150811561530d579150614d4f9050565b80511561531d5780518082602001fd5b8360405162461bcd60e51b81526004018080602001828103825283818151815260200191508051906020019080838360005b8381101561536757818101518382015260200161534f565b50505050905090810190601f1680156153945780820380516001836020036101000a031916815260200191505b509250505060405180910390fd5b6000813f7fc5d2460186f7233c927e7db2dcc703c0e500b653ca82273b7bfad8045d85a470818114801590614d4f57505015159291505056fe416464726573733a20696e73756666696369656e742062616c616e636520666f722063616c6c4552525f4e4f545f434f4e54524f4c4c45520000000000000000000000000000416464726573733a206c6f772d6c6576656c2063616c6c20776974682076616c7565206661696c6564ddf252ad1be2c89b69c2b068fc378daa952ba7f163c4a11628f55a4df523b3ef8c5be1e5ebec7d5bd14f71427d1e84f3dd0314c0f7b2291e5b200ac8c7c3b9254552525f49535f46494e414c495a454400000000000000000000000000000000a264697066735822122046bc2175e4bc324d061bcff8ff9abaf1ed9a2d27ec7321d9763600207be4d99d64736f6c634300060c0033",
  "libraries": {},
  "devdoc": {
    "kind": "dev",
    "methods": {},
    "version": 1
  },
  "userdoc": {
    "kind": "user",
    "methods": {},
    "version": 1
  },
  "storageLayout": {
    "storage": [
      {
        "astId": 4081,
        "contract": "contracts/base/LiquidityPool.sol:LiquidityPool",
        "label": "_balance",
        "offset": 0,
        "slot": "0",
        "type": "t_mapping(t_address,t_uint256)"
      },
      {
        "astId": 4087,
        "contract": "contracts/base/LiquidityPool.sol:LiquidityPool",
        "label": "_allowance",
        "offset": 0,
        "slot": "1",
        "type": "t_mapping(t_address,t_mapping(t_address,t_uint256))"
      },
      {
        "astId": 4089,
        "contract": "contracts/base/LiquidityPool.sol:LiquidityPool",
        "label": "_totalSupply",
        "offset": 0,
        "slot": "2",
        "type": "t_uint256"
      },
      {
        "astId": 4290,
        "contract": "contracts/base/LiquidityPool.sol:LiquidityPool",
        "label": "_name",
        "offset": 0,
        "slot": "3",
        "type": "t_string_storage"
      },
      {
        "astId": 4293,
        "contract": "contracts/base/LiquidityPool.sol:LiquidityPool",
        "label": "_symbol",
        "offset": 0,
        "slot": "4",
        "type": "t_string_storage"
      },
      {
        "astId": 4296,
        "contract": "contracts/base/LiquidityPool.sol:LiquidityPool",
        "label": "_decimals",
        "offset": 0,
        "slot": "5",
        "type": "t_uint8"
      },
      {
        "astId": 2382,
        "contract": "contracts/base/LiquidityPool.sol:LiquidityPool",
        "label": "_mutex",
        "offset": 1,
        "slot": "5",
        "type": "t_bool"
      },
      {
        "astId": 2384,
        "contract": "contracts/base/LiquidityPool.sol:LiquidityPool",
        "label": "_factory",
        "offset": 2,
        "slot": "5",
        "type": "t_contract(IBFactory)15187"
      },
      {
        "astId": 2386,
        "contract": "contracts/base/LiquidityPool.sol:LiquidityPool",
        "label": "_controller",
        "offset": 0,
        "slot": "6",
        "type": "t_address"
      },
      {
        "astId": 2388,
        "contract": "contracts/base/LiquidityPool.sol:LiquidityPool",
        "label": "_publicSwap",
        "offset": 20,
        "slot": "6",
        "type": "t_bool"
      },
      {
        "astId": 2390,
        "contract": "contracts/base/LiquidityPool.sol:LiquidityPool",
        "label": "_swapFee",
        "offset": 0,
        "slot": "7",
        "type": "t_uint256"
      },
      {
        "astId": 2392,
        "contract": "contracts/base/LiquidityPool.sol:LiquidityPool",
        "label": "_finalized",
        "offset": 0,
        "slot": "8",
        "type": "t_bool"
      },
      {
        "astId": 2395,
        "contract": "contracts/base/LiquidityPool.sol:LiquidityPool",
        "label": "_tokens",
        "offset": 0,
        "slot": "9",
        "type": "t_array(t_address)dyn_storage"
      },
      {
        "astId": 2399,
        "contract": "contracts/base/LiquidityPool.sol:LiquidityPool",
        "label": "_records",
        "offset": 0,
        "slot": "10",
        "type": "t_mapping(t_address,t_struct(Record)2299_storage)"
      },
      {
        "astId": 2401,
        "contract": "contracts/base/LiquidityPool.sol:LiquidityPool",
        "label": "_totalWeight",
        "offset": 0,
        "slot": "11",
        "type": "t_uint256"
      },
      {
        "astId": 2403,
        "contract": "contracts/base/LiquidityPool.sol:LiquidityPool",
        "label": "oracle",
        "offset": 0,
        "slot": "12",
        "type": "t_contract(Oracles)15256"
      }
    ],
    "types": {
      "t_address": {
        "encoding": "inplace",
        "label": "address",
        "numberOfBytes": "20"
      },
      "t_array(t_address)dyn_storage": {
        "base": "t_address",
        "encoding": "dynamic_array",
        "label": "address[]",
        "numberOfBytes": "32"
      },
      "t_bool": {
        "encoding": "inplace",
        "label": "bool",
        "numberOfBytes": "1"
      },
      "t_contract(IBFactory)15187": {
        "encoding": "inplace",
        "label": "contract IBFactory",
        "numberOfBytes": "20"
      },
      "t_contract(Oracles)15256": {
        "encoding": "inplace",
        "label": "contract Oracles",
        "numberOfBytes": "20"
      },
      "t_mapping(t_address,t_mapping(t_address,t_uint256))": {
        "encoding": "mapping",
        "key": "t_address",
        "label": "mapping(address => mapping(address => uint256))",
        "numberOfBytes": "32",
        "value": "t_mapping(t_address,t_uint256)"
      },
      "t_mapping(t_address,t_struct(Record)2299_storage)": {
        "encoding": "mapping",
        "key": "t_address",
        "label": "mapping(address => struct LiquidityPool.Record)",
        "numberOfBytes": "32",
        "value": "t_struct(Record)2299_storage"
      },
      "t_mapping(t_address,t_uint256)": {
        "encoding": "mapping",
        "key": "t_address",
        "label": "mapping(address => uint256)",
        "numberOfBytes": "32",
        "value": "t_uint256"
      },
      "t_string_storage": {
        "encoding": "bytes",
        "label": "string",
        "numberOfBytes": "32"
      },
      "t_struct(Record)2299_storage": {
        "encoding": "inplace",
        "label": "struct LiquidityPool.Record",
        "members": [
          {
            "astId": 2292,
            "contract": "contracts/base/LiquidityPool.sol:LiquidityPool",
            "label": "bound",
            "offset": 0,
            "slot": "0",
            "type": "t_bool"
          },
          {
            "astId": 2294,
            "contract": "contracts/base/LiquidityPool.sol:LiquidityPool",
            "label": "index",
            "offset": 0,
            "slot": "1",
            "type": "t_uint256"
          },
          {
            "astId": 2296,
            "contract": "contracts/base/LiquidityPool.sol:LiquidityPool",
            "label": "denorm",
            "offset": 0,
            "slot": "2",
            "type": "t_uint256"
          },
          {
            "astId": 2298,
            "contract": "contracts/base/LiquidityPool.sol:LiquidityPool",
            "label": "balance",
            "offset": 0,
            "slot": "3",
            "type": "t_uint256"
          }
        ],
        "numberOfBytes": "128"
      },
      "t_uint256": {
        "encoding": "inplace",
        "label": "uint256",
        "numberOfBytes": "32"
      },
      "t_uint8": {
        "encoding": "inplace",
        "label": "uint8",
        "numberOfBytes": "1"
      }
    }
  }
}