{
  "address": "0xf2a0A4fCF770CaaDCcD786cE3C4F9c1FDE637487",
  "abi": [
    {
      "inputs": [],
      "stateMutability": "nonpayable",
      "type": "constructor"
    },
    {
      "inputs": [],
      "name": "PERIOD",
      "outputs": [
        {
          "internalType": "uint256",
          "name": "",
          "type": "uint256"
        }
      ],
      "stateMutability": "view",
      "type": "function"
    },
    {
      "inputs": [
        {
          "internalType": "address",
          "name": "token",
          "type": "address"
        },
        {
          "internalType": "uint256",
          "name": "amountIn",
          "type": "uint256"
        }
      ],
      "name": "consult",
      "outputs": [
        {
          "internalType": "uint256",
          "name": "amountOut",
          "type": "uint256"
        }
      ],
      "stateMutability": "view",
      "type": "function"
    },
    {
      "inputs": [],
      "name": "factory",
      "outputs": [
        {
          "internalType": "address",
          "name": "",
          "type": "address"
        }
      ],
      "stateMutability": "view",
      "type": "function"
    },
    {
      "inputs": [],
      "name": "price0Average",
      "outputs": [
        {
          "internalType": "uint224",
          "name": "_x",
          "type": "uint224"
        }
      ],
      "stateMutability": "view",
      "type": "function"
    },
    {
      "inputs": [],
      "name": "price1Average",
      "outputs": [
        {
          "internalType": "uint224",
          "name": "_x",
          "type": "uint224"
        }
      ],
      "stateMutability": "view",
      "type": "function"
    },
    {
      "inputs": [
        {
          "internalType": "address",
          "name": "tokenA",
          "type": "address"
        },
        {
          "internalType": "address",
          "name": "tokenB",
          "type": "address"
        }
      ],
      "name": "setNewTokenInfo",
      "outputs": [],
      "stateMutability": "nonpayable",
      "type": "function"
    },
    {
      "inputs": [
        {
          "internalType": "uint256",
          "name": "amount",
          "type": "uint256"
        }
      ],
      "name": "setPERIOD",
      "outputs": [],
      "stateMutability": "nonpayable",
      "type": "function"
    },
    {
      "inputs": [
        {
          "internalType": "address",
          "name": "",
          "type": "address"
        }
      ],
      "name": "tokenInfoList",
      "outputs": [
        {
          "internalType": "contract IUniswapV2Pair",
          "name": "pair",
          "type": "address"
        },
        {
          "internalType": "address",
          "name": "token0",
          "type": "address"
        },
        {
          "internalType": "address",
          "name": "token1",
          "type": "address"
        },
        {
          "internalType": "uint256",
          "name": "price0CumulativeLast",
          "type": "uint256"
        },
        {
          "internalType": "uint256",
          "name": "price1CumulativeLast",
          "type": "uint256"
        },
        {
          "internalType": "uint32",
          "name": "blockTimestampLast",
          "type": "uint32"
        },
        {
          "components": [
            {
              "internalType": "uint224",
              "name": "_x",
              "type": "uint224"
            }
          ],
          "internalType": "struct FixedPoint.uq112x112",
          "name": "price0Average",
          "type": "tuple"
        },
        {
          "components": [
            {
              "internalType": "uint224",
              "name": "_x",
              "type": "uint224"
            }
          ],
          "internalType": "struct FixedPoint.uq112x112",
          "name": "price1Average",
          "type": "tuple"
        }
      ],
      "stateMutability": "view",
      "type": "function"
    },
    {
      "inputs": [
        {
          "internalType": "address",
          "name": "token",
          "type": "address"
        }
      ],
      "name": "update",
      "outputs": [],
      "stateMutability": "nonpayable",
      "type": "function"
    }
  ],
  "transactionHash": "0x15d51cf21bcdda9cba2c406fed2a873d38598aec92831143b0c12b65be80cfc9",
  "args": [],
  "numDeployments": 1,
  "solcInputHash": "19336c6575a9c09dfa358ffd71432fe1",
  "bytecode": "0x6080604052603c600155600580546001600160a01b031916735c69bee701ef814a2b6a3edd4b1652cb9cc5aa6f17905534801561003b57600080fd5b50600080546001600160a01b031916331790556111538061005d6000396000f3fe608060405234801561001057600080fd5b50600436106100835760003560e01c80630173d100146100885780630a109ec31461009d5780631c1b8772146100cd5780633ddac953146100e05780635e6aaf2c14610100578063a6bb453914610115578063b4d1d7951461011d578063c45a015514610125578063fa4277a81461013a575b600080fd5b61009b610096366004610cea565b61014d565b005b6100b06100ab366004610cab565b6104c3565b6040516100c4989796959493929190610e58565b60405180910390f35b61009b6100db366004610cab565b61053f565b6100f36100ee366004610d22565b610690565b6040516100c491906110e7565b6101086107fc565b6040516100c491906110d3565b61010861080b565b6100f361081a565b61012d610820565b6040516100c49190610e44565b61009b610148366004610da1565b61082f565b6000546001600160a01b031633146101805760405162461bcd60e51b815260040161017790610f2b565b60405180910390fd5b60055460009061019a906001600160a01b03168484610862565b6001600160a01b0384811660009081526002602090815260409182902080546001600160a01b03191693851693841781558251630dfe168160e01b8152925194955093630dfe1681926004808201939291829003018186803b1580156101ff57600080fd5b505afa158015610213573d6000803e3d6000fd5b505050506040513d601f19601f820116820180604052508101906102379190610cce565b8160010160006101000a8154816001600160a01b0302191690836001600160a01b03160217905550816001600160a01b031663d21220a76040518163ffffffff1660e01b815260040160206040518083038186803b15801561029857600080fd5b505afa1580156102ac573d6000803e3d6000fd5b505050506040513d601f19601f820116820180604052508101906102d09190610cce565b8160020160006101000a8154816001600160a01b0302191690836001600160a01b03160217905550816001600160a01b0316635909c0d56040518163ffffffff1660e01b815260040160206040518083038186803b15801561033157600080fd5b505afa158015610345573d6000803e3d6000fd5b505050506040513d601f19601f820116820180604052508101906103699190610db9565b8160030181905550816001600160a01b0316635a3d54936040518163ffffffff1660e01b815260040160206040518083038186803b1580156103aa57600080fd5b505afa1580156103be573d6000803e3d6000fd5b505050506040513d601f19601f820116820180604052508101906103e29190610db9565b8160040181905550600080836001600160a01b0316630902f1ac6040518163ffffffff1660e01b815260040160606040518083038186803b15801561042657600080fd5b505afa15801561043a573d6000803e3d6000fd5b505050506040513d601f19601f8201168201806040525081019061045e9190610d4d565b60058601805463ffffffff191663ffffffff9290921691909117905590925090506001600160701b0382161580159061049f57506001600160701b03811615155b6104bb5760405162461bcd60e51b815260040161017790610ef6565b505050505050565b600260208181526000928352604092839020805460018201549382015460038301546004840154600585015488518088018a5260068701546001600160e01b0390811682528a51988901909a5260079096015490981686526001600160a01b0393841697968416969290931694909363ffffffff909216919088565b6001600160a01b03808216600090815260026020526040902080549091166105795760405162461bcd60e51b815260040161017790611038565b805460009081908190610594906001600160a01b03166108d2565b6005870154600154939650919450925063ffffffff90811683039190821610156105d05760405162461bcd60e51b815260040161017790610fae565b60405180602001604052808263ffffffff1687600301548703816105f057fe5b046001600160e01b0390811690915290516006870180546001600160e01b0319169190921617905560408051602081019091526004860154819063ffffffff84169086038161063b57fe5b046001600160e01b0390811690915290516007870180546001600160e01b0319169190921617905550600384019290925560048301556005909101805463ffffffff191663ffffffff90921691909117905550565b600061069a610c15565b506001600160a01b038084166000908152600260208181526040928390208351610100810185528154861681526001820154861681840152928101548516838501526003810154606084015260048101546080840152600581015463ffffffff1660a08401528351808301855260068201546001600160e01b03908116825260c0850191909152845192830190945260070154909216825260e0810191909152805190911661075b5760405162461bcd60e51b815260040161017790611038565b80602001516001600160a01b0316846001600160a01b031614156107a15760c08101516107919061078c9085610aa7565b610b06565b6001600160901b031691506107f5565b80604001516001600160a01b0316846001600160a01b0316146107d65760405162461bcd60e51b815260040161017790610f6c565b60e08101516107e99061078c9085610aa7565b6001600160901b031691505b5092915050565b6004546001600160e01b031681565b6003546001600160e01b031681565b60015481565b6005546001600160a01b031681565b6000546001600160a01b031633146108595760405162461bcd60e51b815260040161017790610f2b565b610e1002600155565b60008060006108718585610b0d565b91509150858282604051602001610889929190610dd1565b604051602081830303815290604052805190602001206040516020016108b0929190610df3565b60408051601f1981840301815291905280516020909101209695505050505050565b60008060006108df610b97565b9050836001600160a01b0316635909c0d56040518163ffffffff1660e01b815260040160206040518083038186803b15801561091a57600080fd5b505afa15801561092e573d6000803e3d6000fd5b505050506040513d601f19601f820116820180604052508101906109529190610db9565b9250836001600160a01b0316635a3d54936040518163ffffffff1660e01b815260040160206040518083038186803b15801561098d57600080fd5b505afa1580156109a1573d6000803e3d6000fd5b505050506040513d601f19601f820116820180604052508101906109c59190610db9565b91506000806000866001600160a01b0316630902f1ac6040518163ffffffff1660e01b815260040160606040518083038186803b158015610a0557600080fd5b505afa158015610a19573d6000803e3d6000fd5b505050506040513d601f19601f82011682018060405250810190610a3d9190610d4d565b9250925092508363ffffffff168163ffffffff1614610a9d5780840363ffffffff8116610a6a8486610ba1565b516001600160e01b031602969096019563ffffffff8116610a8b8585610ba1565b516001600160e01b0316029590950194505b5050509193909250565b610aaf610c86565b6000821580610ad557505082516001600160e01b031682810290838281610ad257fe5b04145b610af15760405162461bcd60e51b815260040161017790610ff5565b60408051602081019091529081529392505050565b5160701c90565b600080826001600160a01b0316846001600160a01b03161415610b425760405162461bcd60e51b815260040161017790610eb1565b826001600160a01b0316846001600160a01b031610610b62578284610b65565b83835b90925090506001600160a01b038216610b905760405162461bcd60e51b81526004016101779061106b565b9250929050565b63ffffffff421690565b610ba9610c99565b6000826001600160701b031611610bd25760405162461bcd60e51b8152600401610177906110a2565b6040805160208101909152806001600160701b038416600160701b600160e01b03607087901b1681610c0057fe5b046001600160e01b0316815250905092915050565b60405180610100016040528060006001600160a01b0316815260200160006001600160a01b0316815260200160006001600160a01b031681526020016000815260200160008152602001600063ffffffff168152602001610c74610c99565b8152602001610c81610c99565b905290565b6040518060200160405280600081525090565b60408051602081019091526000815290565b600060208284031215610cbc578081fd5b8135610cc7816110f0565b9392505050565b600060208284031215610cdf578081fd5b8151610cc7816110f0565b60008060408385031215610cfc578081fd5b8235610d07816110f0565b91506020830135610d17816110f0565b809150509250929050565b60008060408385031215610d34578182fd5b8235610d3f816110f0565b946020939093013593505050565b600080600060608486031215610d61578081fd5b8351610d6c81611108565b6020850151909350610d7d81611108565b604085015190925063ffffffff81168114610d96578182fd5b809150509250925092565b600060208284031215610db2578081fd5b5035919050565b600060208284031215610dca578081fd5b5051919050565b6001600160601b0319606093841b811682529190921b16601482015260280190565b6001600160f81b0319815260609290921b6001600160601b031916600183015260158201527f96e8ac4277198ff8b6f785478aa9a39f403cb768dd02cbee326c3e7da348845f603582015260550190565b6001600160a01b0391909116815260200190565b6001600160a01b03988916815296881660208801529490961660408601526060850192909252608084015263ffffffff1660a083015291516001600160e01b0390811660c0830152915190911660e08201526101000190565b60208082526025908201527f556e697377617056324c6962726172793a204944454e544943414c5f41444452604082015264455353455360d81b606082015260800190565b6020808252818101527f4578616d706c654f7261636c6553696d706c653a204e4f5f5245534552564553604082015260600190565b60208082526021908201527f4f776e61626c653a2063616c6c6572206973206e6f74207468652065726572656040820152603960f91b606082015260800190565b60208082526022908201527f4578616d706c654f7261636c6553696d706c653a20494e56414c49445f544f4b60408201526122a760f11b606082015260800190565b60208082526027908201527f4578616d706c654f7261636c6553696d706c653a20504552494f445f4e4f545f6040820152661153105414d15160ca1b606082015260800190565b60208082526023908201527f4669786564506f696e743a204d554c5449504c49434154494f4e5f4f564552466040820152624c4f5760e81b606082015260800190565b602080825260199082015278746f6b656e206973206e6f7420696e6974207375636365737360381b604082015260600190565b6020808252601e908201527f556e697377617056324c6962726172793a205a45524f5f414444524553530000604082015260600190565b6020808252601790820152764669786564506f696e743a204449565f42595f5a45524f60481b604082015260600190565b6001600160e01b0391909116815260200190565b90815260200190565b6001600160a01b038116811461110557600080fd5b50565b6001600160701b038116811461110557600080fdfea264697066735822122067743cd71d3cb5d75457811acaaa560eb08381b0117f14cfaeff59a58348bdd564736f6c634300060c0033",
  "devdoc": {
    "kind": "dev",
    "methods": {},
    "version": 1
  },
  "userdoc": {
    "kind": "user",
    "methods": {},
    "version": 1
  },
  "storageLayout": {
    "storage": [
      {
        "astId": 1372,
        "contract": "contracts/deploy/Oracle.sol:Oracle",
        "label": "dev_address",
        "offset": 0,
        "slot": "0",
        "type": "t_address"
      },
      {
        "astId": 1375,
        "contract": "contracts/deploy/Oracle.sol:Oracle",
        "label": "PERIOD",
        "offset": 0,
        "slot": "1",
        "type": "t_uint256"
      },
      {
        "astId": 1396,
        "contract": "contracts/deploy/Oracle.sol:Oracle",
        "label": "tokenInfoList",
        "offset": 0,
        "slot": "2",
        "type": "t_mapping(t_address,t_struct(tokenInfo)1392_storage)"
      },
      {
        "astId": 1398,
        "contract": "contracts/deploy/Oracle.sol:Oracle",
        "label": "price0Average",
        "offset": 0,
        "slot": "3",
        "type": "t_struct(uq112x112)558_storage"
      },
      {
        "astId": 1400,
        "contract": "contracts/deploy/Oracle.sol:Oracle",
        "label": "price1Average",
        "offset": 0,
        "slot": "4",
        "type": "t_struct(uq112x112)558_storage"
      },
      {
        "astId": 1403,
        "contract": "contracts/deploy/Oracle.sol:Oracle",
        "label": "factory",
        "offset": 0,
        "slot": "5",
        "type": "t_address"
      }
    ],
    "types": {
      "t_address": {
        "encoding": "inplace",
        "label": "address",
        "numberOfBytes": "20"
      },
      "t_contract(IUniswapV2Pair)303": {
        "encoding": "inplace",
        "label": "contract IUniswapV2Pair",
        "numberOfBytes": "20"
      },
      "t_mapping(t_address,t_struct(tokenInfo)1392_storage)": {
        "encoding": "mapping",
        "key": "t_address",
        "label": "mapping(address => struct Oracle.tokenInfo)",
        "numberOfBytes": "32",
        "value": "t_struct(tokenInfo)1392_storage"
      },
      "t_struct(tokenInfo)1392_storage": {
        "encoding": "inplace",
        "label": "struct Oracle.tokenInfo",
        "members": [
          {
            "astId": 1377,
            "contract": "contracts/deploy/Oracle.sol:Oracle",
            "label": "pair",
            "offset": 0,
            "slot": "0",
            "type": "t_contract(IUniswapV2Pair)303"
          },
          {
            "astId": 1379,
            "contract": "contracts/deploy/Oracle.sol:Oracle",
            "label": "token0",
            "offset": 0,
            "slot": "1",
            "type": "t_address"
          },
          {
            "astId": 1381,
            "contract": "contracts/deploy/Oracle.sol:Oracle",
            "label": "token1",
            "offset": 0,
            "slot": "2",
            "type": "t_address"
          },
          {
            "astId": 1383,
            "contract": "contracts/deploy/Oracle.sol:Oracle",
            "label": "price0CumulativeLast",
            "offset": 0,
            "slot": "3",
            "type": "t_uint256"
          },
          {
            "astId": 1385,
            "contract": "contracts/deploy/Oracle.sol:Oracle",
            "label": "price1CumulativeLast",
            "offset": 0,
            "slot": "4",
            "type": "t_uint256"
          },
          {
            "astId": 1387,
            "contract": "contracts/deploy/Oracle.sol:Oracle",
            "label": "blockTimestampLast",
            "offset": 0,
            "slot": "5",
            "type": "t_uint32"
          },
          {
            "astId": 1389,
            "contract": "contracts/deploy/Oracle.sol:Oracle",
            "label": "price0Average",
            "offset": 0,
            "slot": "6",
            "type": "t_struct(uq112x112)558_storage"
          },
          {
            "astId": 1391,
            "contract": "contracts/deploy/Oracle.sol:Oracle",
            "label": "price1Average",
            "offset": 0,
            "slot": "7",
            "type": "t_struct(uq112x112)558_storage"
          }
        ],
        "numberOfBytes": "256"
      },
      "t_struct(uq112x112)558_storage": {
        "encoding": "inplace",
        "label": "struct FixedPoint.uq112x112",
        "members": [
          {
            "astId": 557,
            "contract": "contracts/deploy/Oracle.sol:Oracle",
            "label": "_x",
            "offset": 0,
            "slot": "0",
            "type": "t_uint224"
          }
        ],
        "numberOfBytes": "32"
      },
      "t_uint224": {
        "encoding": "inplace",
        "label": "uint224",
        "numberOfBytes": "28"
      },
      "t_uint256": {
        "encoding": "inplace",
        "label": "uint256",
        "numberOfBytes": "32"
      },
      "t_uint32": {
        "encoding": "inplace",
        "label": "uint32",
        "numberOfBytes": "4"
      }
    }
  }
}