{
  "address": "0x090faD896CeE0D770fAF02d90D05e017d85f51F2",
  "abi": [
    {
      "inputs": [],
      "stateMutability": "nonpayable",
      "type": "constructor"
    },
    {
      "inputs": [],
      "name": "PERIOD",
      "outputs": [
        {
          "internalType": "uint256",
          "name": "",
          "type": "uint256"
        }
      ],
      "stateMutability": "view",
      "type": "function"
    },
    {
      "inputs": [
        {
          "internalType": "address",
          "name": "token",
          "type": "address"
        },
        {
          "internalType": "uint256",
          "name": "amountIn",
          "type": "uint256"
        }
      ],
      "name": "consult",
      "outputs": [
        {
          "internalType": "uint256",
          "name": "amountOut",
          "type": "uint256"
        }
      ],
      "stateMutability": "view",
      "type": "function"
    },
    {
      "inputs": [],
      "name": "factory",
      "outputs": [
        {
          "internalType": "address",
          "name": "",
          "type": "address"
        }
      ],
      "stateMutability": "view",
      "type": "function"
    },
    {
      "inputs": [],
      "name": "price0Average",
      "outputs": [
        {
          "internalType": "uint224",
          "name": "_x",
          "type": "uint224"
        }
      ],
      "stateMutability": "view",
      "type": "function"
    },
    {
      "inputs": [],
      "name": "price1Average",
      "outputs": [
        {
          "internalType": "uint224",
          "name": "_x",
          "type": "uint224"
        }
      ],
      "stateMutability": "view",
      "type": "function"
    },
    {
      "inputs": [
        {
          "internalType": "address",
          "name": "tokenA",
          "type": "address"
        },
        {
          "internalType": "address",
          "name": "tokenB",
          "type": "address"
        }
      ],
      "name": "setNewTokenInfo",
      "outputs": [],
      "stateMutability": "nonpayable",
      "type": "function"
    },
    {
      "inputs": [
        {
          "internalType": "address[]",
          "name": "tokensA",
          "type": "address[]"
        },
        {
          "internalType": "address[]",
          "name": "tokensB",
          "type": "address[]"
        }
      ],
      "name": "setNewTokensInfo",
      "outputs": [],
      "stateMutability": "nonpayable",
      "type": "function"
    },
    {
      "inputs": [
        {
          "internalType": "uint256",
          "name": "amount",
          "type": "uint256"
        }
      ],
      "name": "setPERIOD",
      "outputs": [],
      "stateMutability": "nonpayable",
      "type": "function"
    },
    {
      "inputs": [
        {
          "internalType": "address",
          "name": "",
          "type": "address"
        }
      ],
      "name": "tokenInfoList",
      "outputs": [
        {
          "internalType": "contract IUniswapV2Pair",
          "name": "pair",
          "type": "address"
        },
        {
          "internalType": "address",
          "name": "token0",
          "type": "address"
        },
        {
          "internalType": "address",
          "name": "token1",
          "type": "address"
        },
        {
          "internalType": "uint256",
          "name": "price0CumulativeLast",
          "type": "uint256"
        },
        {
          "internalType": "uint256",
          "name": "price1CumulativeLast",
          "type": "uint256"
        },
        {
          "internalType": "uint32",
          "name": "blockTimestampLast",
          "type": "uint32"
        },
        {
          "components": [
            {
              "internalType": "uint224",
              "name": "_x",
              "type": "uint224"
            }
          ],
          "internalType": "struct FixedPoint.uq112x112",
          "name": "price0Average",
          "type": "tuple"
        },
        {
          "components": [
            {
              "internalType": "uint224",
              "name": "_x",
              "type": "uint224"
            }
          ],
          "internalType": "struct FixedPoint.uq112x112",
          "name": "price1Average",
          "type": "tuple"
        }
      ],
      "stateMutability": "view",
      "type": "function"
    },
    {
      "inputs": [
        {
          "internalType": "address",
          "name": "token",
          "type": "address"
        }
      ],
      "name": "update",
      "outputs": [],
      "stateMutability": "nonpayable",
      "type": "function"
    }
  ],
  "transactionHash": "0xa4e761bf3e792b5164c3244f8633044d39d9cc605ef19f9aae556f2d3186c495",
  "args": [],
  "numDeployments": 1,
  "solcInputHash": "93d99761d7918f39b88570d3022a882e",
  "bytecode": "0x6080604052610e10600155600580546001600160a01b031916735c69bee701ef814a2b6a3edd4b1652cb9cc5aa6f17905534801561003c57600080fd5b50600080546001600160a01b0319163317905561133a8061005e6000396000f3fe608060405234801561001057600080fd5b506004361061008e5760003560e01c80630173d100146100935780630a109ec3146100a85780631c1b8772146100d85780633ddac953146100eb5780635e6aaf2c1461010b5780636ca94aac14610120578063a6bb453914610133578063b4d1d7951461013b578063c45a015514610143578063fa4277a814610158575b600080fd5b6100a66100a1366004610e43565b61016b565b005b6100bb6100b6366004610e04565b6104e1565b6040516100cf989796959493929190611011565b60405180910390f35b6100a66100e6366004610e04565b61055d565b6100fe6100f9366004610e7b565b6106ae565b6040516100cf91906112ce565b61011361081a565b6040516100cf91906112ba565b6100a661012e366004610ea6565b610829565b6101136108bd565b6100fe6108cc565b61014b6108d2565b6040516100cf9190610ffd565b6100a6610166366004610f5a565b6108e1565b6000546001600160a01b0316331461019e5760405162461bcd60e51b8152600401610195906110e4565b60405180910390fd5b6005546000906101b8906001600160a01b03168484610914565b6001600160a01b0384811660009081526002602090815260409182902080546001600160a01b03191693851693841781558251630dfe168160e01b8152925194955093630dfe1681926004808201939291829003018186803b15801561021d57600080fd5b505afa158015610231573d6000803e3d6000fd5b505050506040513d601f19601f820116820180604052508101906102559190610e27565b8160010160006101000a8154816001600160a01b0302191690836001600160a01b03160217905550816001600160a01b031663d21220a76040518163ffffffff1660e01b815260040160206040518083038186803b1580156102b657600080fd5b505afa1580156102ca573d6000803e3d6000fd5b505050506040513d601f19601f820116820180604052508101906102ee9190610e27565b8160020160006101000a8154816001600160a01b0302191690836001600160a01b03160217905550816001600160a01b0316635909c0d56040518163ffffffff1660e01b815260040160206040518083038186803b15801561034f57600080fd5b505afa158015610363573d6000803e3d6000fd5b505050506040513d601f19601f820116820180604052508101906103879190610f72565b8160030181905550816001600160a01b0316635a3d54936040518163ffffffff1660e01b815260040160206040518083038186803b1580156103c857600080fd5b505afa1580156103dc573d6000803e3d6000fd5b505050506040513d601f19601f820116820180604052508101906104009190610f72565b8160040181905550600080836001600160a01b0316630902f1ac6040518163ffffffff1660e01b815260040160606040518083038186803b15801561044457600080fd5b505afa158015610458573d6000803e3d6000fd5b505050506040513d601f19601f8201168201806040525081019061047c9190610f06565b60058601805463ffffffff191663ffffffff9290921691909117905590925090506001600160701b038216158015906104bd57506001600160701b03811615155b6104d95760405162461bcd60e51b8152600401610195906110af565b505050505050565b600260208181526000928352604092839020805460018201549382015460038301546004840154600585015488518088018a5260068701546001600160e01b0390811682528a51988901909a5260079096015490981686526001600160a01b0393841697968416969290931694909363ffffffff909216919088565b6001600160a01b03808216600090815260026020526040902080549091166105975760405162461bcd60e51b81526004016101959061121f565b8054600090819081906105b2906001600160a01b0316610984565b6005870154600154939650919450925063ffffffff90811683039190821610156105ee5760405162461bcd60e51b815260040161019590611167565b60405180602001604052808263ffffffff16876003015487038161060e57fe5b046001600160e01b0390811690915290516006870180546001600160e01b0319169190921617905560408051602081019091526004860154819063ffffffff84169086038161065957fe5b046001600160e01b0390811690915290516007870180546001600160e01b0319169190921617905550600384019290925560048301556005909101805463ffffffff191663ffffffff90921691909117905550565b60006106b8610cc9565b506001600160a01b038084166000908152600260208181526040928390208351610100810185528154861681526001820154861681840152928101548516838501526003810154606084015260048101546080840152600581015463ffffffff1660a08401528351808301855260068201546001600160e01b03908116825260c0850191909152845192830190945260070154909216825260e081019190915280519091166107795760405162461bcd60e51b81526004016101959061121f565b80602001516001600160a01b0316846001600160a01b031614156107bf5760c08101516107af906107aa9085610b59565b610bba565b6001600160901b03169150610813565b80604001516001600160a01b0316846001600160a01b0316146107f45760405162461bcd60e51b815260040161019590611125565b60e0810151610807906107aa9085610b59565b6001600160901b031691505b5092915050565b6004546001600160e01b031681565b6000546001600160a01b031633146108535760405162461bcd60e51b8152600401610195906110e4565b80518251146108745760405162461bcd60e51b8152600401610195906111ae565b60005b82518110156108b8576108b083828151811061088f57fe5b60200260200101518383815181106108a357fe5b602002602001015161016b565b600101610877565b505050565b6003546001600160e01b031681565b60015481565b6005546001600160a01b031681565b6000546001600160a01b0316331461090b5760405162461bcd60e51b8152600401610195906110e4565b610e1002600155565b60008060006109238585610bc1565b9150915085828260405160200161093b929190610f8a565b60405160208183030381529060405280519060200120604051602001610962929190610fac565b60408051601f1981840301815291905280516020909101209695505050505050565b6000806000610991610c4b565b9050836001600160a01b0316635909c0d56040518163ffffffff1660e01b815260040160206040518083038186803b1580156109cc57600080fd5b505afa1580156109e0573d6000803e3d6000fd5b505050506040513d601f19601f82011682018060405250810190610a049190610f72565b9250836001600160a01b0316635a3d54936040518163ffffffff1660e01b815260040160206040518083038186803b158015610a3f57600080fd5b505afa158015610a53573d6000803e3d6000fd5b505050506040513d601f19601f82011682018060405250810190610a779190610f72565b91506000806000866001600160a01b0316630902f1ac6040518163ffffffff1660e01b815260040160606040518083038186803b158015610ab757600080fd5b505afa158015610acb573d6000803e3d6000fd5b505050506040513d601f19601f82011682018060405250810190610aef9190610f06565b9250925092508363ffffffff168163ffffffff1614610b4f5780840363ffffffff8116610b1c8486610c55565b516001600160e01b031602969096019563ffffffff8116610b3d8585610c55565b516001600160e01b0316029590950194505b5050509193909250565b610b61610d3a565b6000821580610b8757505082516001600160e01b031682810290838281610b8457fe5b04145b610ba35760405162461bcd60e51b8152600401610195906111dc565b604080516020810190915290815290505b92915050565b5160701c90565b600080826001600160a01b0316846001600160a01b03161415610bf65760405162461bcd60e51b81526004016101959061106a565b826001600160a01b0316846001600160a01b031610610c16578284610c19565b83835b90925090506001600160a01b038216610c445760405162461bcd60e51b815260040161019590611252565b9250929050565b63ffffffff421690565b610c5d610d4d565b6000826001600160701b031611610c865760405162461bcd60e51b815260040161019590611289565b6040805160208101909152806001600160701b038416600160701b600160e01b03607087901b1681610cb457fe5b046001600160e01b0316815250905092915050565b60405180610100016040528060006001600160a01b0316815260200160006001600160a01b0316815260200160006001600160a01b031681526020016000815260200160008152602001600063ffffffff168152602001610d28610d4d565b8152602001610d35610d4d565b905290565b6040518060200160405280600081525090565b60408051602081019091526000815290565b8035610bb4816112d7565b600082601f830112610d7a578081fd5b81356001600160401b0380821115610d90578283fd5b602080830260405182828201018181108582111715610dad578687fd5b604052848152945081850192508582018187018301881015610dce57600080fd5b600091505b84821015610df957610de58882610d5f565b845292820192600191909101908201610dd3565b505050505092915050565b600060208284031215610e15578081fd5b8135610e20816112d7565b9392505050565b600060208284031215610e38578081fd5b8151610e20816112d7565b60008060408385031215610e55578081fd5b8235610e60816112d7565b91506020830135610e70816112d7565b809150509250929050565b60008060408385031215610e8d578182fd5b8235610e98816112d7565b946020939093013593505050565b60008060408385031215610eb8578182fd5b82356001600160401b0380821115610ece578384fd5b610eda86838701610d6a565b93506020850135915080821115610eef578283fd5b50610efc85828601610d6a565b9150509250929050565b600080600060608486031215610f1a578081fd5b8351610f25816112ef565b6020850151909350610f36816112ef565b604085015190925063ffffffff81168114610f4f578182fd5b809150509250925092565b600060208284031215610f6b578081fd5b5035919050565b600060208284031215610f83578081fd5b5051919050565b6001600160601b0319606093841b811682529190921b16601482015260280190565b6001600160f81b0319815260609290921b6001600160601b031916600183015260158201527f96e8ac4277198ff8b6f785478aa9a39f403cb768dd02cbee326c3e7da348845f603582015260550190565b6001600160a01b0391909116815260200190565b6001600160a01b03988916815296881660208801529490961660408601526060850192909252608084015263ffffffff1660a083015291516001600160e01b0390811660c0830152915190911660e08201526101000190565b60208082526025908201527f556e697377617056324c6962726172793a204944454e544943414c5f41444452604082015264455353455360d81b606082015260800190565b6020808252818101527f4578616d706c654f7261636c6553696d706c653a204e4f5f5245534552564553604082015260600190565b60208082526021908201527f4f776e61626c653a2063616c6c6572206973206e6f74207468652065726572656040820152603960f91b606082015260800190565b60208082526022908201527f4578616d706c654f7261636c6553696d706c653a20494e56414c49445f544f4b60408201526122a760f11b606082015260800190565b60208082526027908201527f4578616d706c654f7261636c6553696d706c653a20504552494f445f4e4f545f6040820152661153105414d15160ca1b606082015260800190565b60208082526014908201527308aa4a4be988a9c8ea890be9c9ea8be9a82a886960631b604082015260600190565b60208082526023908201527f4669786564506f696e743a204d554c5449504c49434154494f4e5f4f564552466040820152624c4f5760e81b606082015260800190565b602080825260199082015278746f6b656e206973206e6f7420696e6974207375636365737360381b604082015260600190565b6020808252601e908201527f556e697377617056324c6962726172793a205a45524f5f414444524553530000604082015260600190565b6020808252601790820152764669786564506f696e743a204449565f42595f5a45524f60481b604082015260600190565b6001600160e01b0391909116815260200190565b90815260200190565b6001600160a01b03811681146112ec57600080fd5b50565b6001600160701b03811681146112ec57600080fdfea2646970667358221220b848ff5706ba4e418c31a3e0869ab20a03d4dda5aa6d8598ad43e2371203fdb364736f6c634300060c0033",
  "libraries": {},
  "devdoc": {
    "kind": "dev",
    "methods": {},
    "version": 1
  },
  "userdoc": {
    "kind": "user",
    "methods": {},
    "version": 1
  },
  "storageLayout": {
    "storage": [
      {
        "astId": 1372,
        "contract": "contracts/deploy/Oracle.sol:Oracle",
        "label": "dev_address",
        "offset": 0,
        "slot": "0",
        "type": "t_address"
      },
      {
        "astId": 1375,
        "contract": "contracts/deploy/Oracle.sol:Oracle",
        "label": "PERIOD",
        "offset": 0,
        "slot": "1",
        "type": "t_uint256"
      },
      {
        "astId": 1396,
        "contract": "contracts/deploy/Oracle.sol:Oracle",
        "label": "tokenInfoList",
        "offset": 0,
        "slot": "2",
        "type": "t_mapping(t_address,t_struct(tokenInfo)1392_storage)"
      },
      {
        "astId": 1398,
        "contract": "contracts/deploy/Oracle.sol:Oracle",
        "label": "price0Average",
        "offset": 0,
        "slot": "3",
        "type": "t_struct(uq112x112)558_storage"
      },
      {
        "astId": 1400,
        "contract": "contracts/deploy/Oracle.sol:Oracle",
        "label": "price1Average",
        "offset": 0,
        "slot": "4",
        "type": "t_struct(uq112x112)558_storage"
      },
      {
        "astId": 1403,
        "contract": "contracts/deploy/Oracle.sol:Oracle",
        "label": "factory",
        "offset": 0,
        "slot": "5",
        "type": "t_address"
      }
    ],
    "types": {
      "t_address": {
        "encoding": "inplace",
        "label": "address",
        "numberOfBytes": "20"
      },
      "t_contract(IUniswapV2Pair)303": {
        "encoding": "inplace",
        "label": "contract IUniswapV2Pair",
        "numberOfBytes": "20"
      },
      "t_mapping(t_address,t_struct(tokenInfo)1392_storage)": {
        "encoding": "mapping",
        "key": "t_address",
        "label": "mapping(address => struct Oracle.tokenInfo)",
        "numberOfBytes": "32",
        "value": "t_struct(tokenInfo)1392_storage"
      },
      "t_struct(tokenInfo)1392_storage": {
        "encoding": "inplace",
        "label": "struct Oracle.tokenInfo",
        "members": [
          {
            "astId": 1377,
            "contract": "contracts/deploy/Oracle.sol:Oracle",
            "label": "pair",
            "offset": 0,
            "slot": "0",
            "type": "t_contract(IUniswapV2Pair)303"
          },
          {
            "astId": 1379,
            "contract": "contracts/deploy/Oracle.sol:Oracle",
            "label": "token0",
            "offset": 0,
            "slot": "1",
            "type": "t_address"
          },
          {
            "astId": 1381,
            "contract": "contracts/deploy/Oracle.sol:Oracle",
            "label": "token1",
            "offset": 0,
            "slot": "2",
            "type": "t_address"
          },
          {
            "astId": 1383,
            "contract": "contracts/deploy/Oracle.sol:Oracle",
            "label": "price0CumulativeLast",
            "offset": 0,
            "slot": "3",
            "type": "t_uint256"
          },
          {
            "astId": 1385,
            "contract": "contracts/deploy/Oracle.sol:Oracle",
            "label": "price1CumulativeLast",
            "offset": 0,
            "slot": "4",
            "type": "t_uint256"
          },
          {
            "astId": 1387,
            "contract": "contracts/deploy/Oracle.sol:Oracle",
            "label": "blockTimestampLast",
            "offset": 0,
            "slot": "5",
            "type": "t_uint32"
          },
          {
            "astId": 1389,
            "contract": "contracts/deploy/Oracle.sol:Oracle",
            "label": "price0Average",
            "offset": 0,
            "slot": "6",
            "type": "t_struct(uq112x112)558_storage"
          },
          {
            "astId": 1391,
            "contract": "contracts/deploy/Oracle.sol:Oracle",
            "label": "price1Average",
            "offset": 0,
            "slot": "7",
            "type": "t_struct(uq112x112)558_storage"
          }
        ],
        "numberOfBytes": "256"
      },
      "t_struct(uq112x112)558_storage": {
        "encoding": "inplace",
        "label": "struct FixedPoint.uq112x112",
        "members": [
          {
            "astId": 557,
            "contract": "contracts/deploy/Oracle.sol:Oracle",
            "label": "_x",
            "offset": 0,
            "slot": "0",
            "type": "t_uint224"
          }
        ],
        "numberOfBytes": "32"
      },
      "t_uint224": {
        "encoding": "inplace",
        "label": "uint224",
        "numberOfBytes": "28"
      },
      "t_uint256": {
        "encoding": "inplace",
        "label": "uint256",
        "numberOfBytes": "32"
      },
      "t_uint32": {
        "encoding": "inplace",
        "label": "uint32",
        "numberOfBytes": "4"
      }
    }
  }
}