{
  "address": "0x2c01d185d15Ec01f0cD461452DA6F13A8d6cA68a",
  "abi": [
    {
      "inputs": [
        {
          "internalType": "bool",
          "name": "bool1",
          "type": "bool"
        },
        {
          "internalType": "bool",
          "name": "bool2",
          "type": "bool"
        },
        {
          "internalType": "address",
          "name": "adr",
          "type": "address"
        }
      ],
      "name": "WhitelistHandle",
      "outputs": [],
      "stateMutability": "pure",
      "type": "function"
    },
    {
      "inputs": [
        {
          "internalType": "uint256",
          "name": "collectPeriod",
          "type": "uint256"
        },
        {
          "internalType": "uint256",
          "name": "upperCap",
          "type": "uint256"
        },
        {
          "internalType": "uint256",
          "name": "initialSupply",
          "type": "uint256"
        }
      ],
      "name": "createPoolHandle",
      "outputs": [],
      "stateMutability": "pure",
      "type": "function"
    },
    {
      "inputs": [
        {
          "internalType": "contract IBPool",
          "name": "bPool",
          "type": "IBPool"
        },
        {
          "internalType": "uint256",
          "name": "initialSupply",
          "type": "uint256"
        }
      ],
      "name": "createPoolInternalHandle",
      "outputs": [],
      "stateMutability": "view",
      "type": "function"
    },
    {
      "inputs": [
        {
          "internalType": "contract IConfigurableRightsPool",
          "name": "self",
          "type": "IConfigurableRightsPool"
        },
        {
          "internalType": "contract IBPool",
          "name": "bPool",
          "type": "IBPool"
        },
        {
          "internalType": "uint256",
          "name": "poolAmountIn",
          "type": "uint256"
        },
        {
          "internalType": "uint256[]",
          "name": "minAmountsOut",
          "type": "uint256[]"
        }
      ],
      "name": "exitPool",
      "outputs": [
        {
          "internalType": "uint256",
          "name": "pAiAfterExitFee",
          "type": "uint256"
        },
        {
          "internalType": "uint256[]",
          "name": "actualAmountsOut",
          "type": "uint256[]"
        }
      ],
      "stateMutability": "view",
      "type": "function"
    },
    {
      "inputs": [
        {
          "internalType": "uint256",
          "name": "_endEtfAmount",
          "type": "uint256"
        },
        {
          "internalType": "uint256",
          "name": "_endFundAmount",
          "type": "uint256"
        },
        {
          "internalType": "uint256",
          "name": "_beginEtfAmount",
          "type": "uint256"
        },
        {
          "internalType": "uint256",
          "name": "_beginFundAmount",
          "type": "uint256"
        },
        {
          "internalType": "uint256",
          "name": "poolAmountIn",
          "type": "uint256"
        },
        {
          "internalType": "uint256",
          "name": "totalEnd",
          "type": "uint256"
        }
      ],
      "name": "exitPoolHandle",
      "outputs": [
        {
          "internalType": "uint256",
          "name": "endEtfAmount",
          "type": "uint256"
        },
        {
          "internalType": "uint256",
          "name": "endFundAmount",
          "type": "uint256"
        },
        {
          "internalType": "uint256",
          "name": "profitRate",
          "type": "uint256"
        }
      ],
      "stateMutability": "pure",
      "type": "function"
    },
    {
      "inputs": [
        {
          "internalType": "uint256",
          "name": "_tokenAmountOut",
          "type": "uint256"
        },
        {
          "internalType": "uint256",
          "name": "redeemFee",
          "type": "uint256"
        },
        {
          "internalType": "uint256",
          "name": "profitRate",
          "type": "uint256"
        },
        {
          "internalType": "uint256",
          "name": "perfermanceFee",
          "type": "uint256"
        }
      ],
      "name": "exitPoolHandleA",
      "outputs": [
        {
          "internalType": "uint256",
          "name": "tokenAmountOutNew",
          "type": "uint256"
        },
        {
          "internalType": "uint256",
          "name": "amount",
          "type": "uint256"
        },
        {
          "internalType": "uint256",
          "name": "tokensAmountRedeem",
          "type": "uint256"
        }
      ],
      "stateMutability": "pure",
      "type": "function"
    },
    {
      "inputs": [
        {
          "internalType": "bool",
          "name": "bools",
          "type": "bool"
        },
        {
          "internalType": "bool",
          "name": "isCompletedCollect",
          "type": "bool"
        },
        {
          "internalType": "uint256",
          "name": "closureEndTime",
          "type": "uint256"
        },
        {
          "internalType": "uint256",
          "name": "collectEndTime",
          "type": "uint256"
        },
        {
          "internalType": "uint256",
          "name": "_etfAmount",
          "type": "uint256"
        },
        {
          "internalType": "uint256",
          "name": "_fundAmount",
          "type": "uint256"
        },
        {
          "internalType": "uint256",
          "name": "poolAmountIn",
          "type": "uint256"
        }
      ],
      "name": "exitPoolHandleB",
      "outputs": [
        {
          "internalType": "uint256",
          "name": "etfAmount",
          "type": "uint256"
        },
        {
          "internalType": "uint256",
          "name": "fundAmount",
          "type": "uint256"
        }
      ],
      "stateMutability": "view",
      "type": "function"
    },
    {
      "inputs": [
        {
          "internalType": "uint256",
          "name": "swapFee",
          "type": "uint256"
        },
        {
          "internalType": "uint256",
          "name": "managerFee",
          "type": "uint256"
        },
        {
          "internalType": "uint256",
          "name": "issueFee",
          "type": "uint256"
        },
        {
          "internalType": "uint256",
          "name": "redeemFee",
          "type": "uint256"
        },
        {
          "internalType": "uint256",
          "name": "perfermanceFee",
          "type": "uint256"
        },
        {
          "internalType": "uint256",
          "name": "tokenBalancesLength",
          "type": "uint256"
        },
        {
          "internalType": "uint256",
          "name": "tokenWeightsLength",
          "type": "uint256"
        },
        {
          "internalType": "uint256",
          "name": "constituentTokensLength",
          "type": "uint256"
        },
        {
          "internalType": "bool",
          "name": "initBool",
          "type": "bool"
        }
      ],
      "name": "initRequire",
      "outputs": [],
      "stateMutability": "pure",
      "type": "function"
    },
    {
      "inputs": [
        {
          "internalType": "contract IConfigurableRightsPool",
          "name": "self",
          "type": "IConfigurableRightsPool"
        },
        {
          "internalType": "contract IBPool",
          "name": "bPool",
          "type": "IBPool"
        },
        {
          "internalType": "uint256",
          "name": "poolAmountOut",
          "type": "uint256"
        },
        {
          "internalType": "uint256[]",
          "name": "maxAmountsIn",
          "type": "uint256[]"
        }
      ],
      "name": "joinPool",
      "outputs": [
        {
          "internalType": "uint256[]",
          "name": "actualAmountsIn",
          "type": "uint256[]"
        }
      ],
      "stateMutability": "view",
      "type": "function"
    },
    {
      "inputs": [
        {
          "internalType": "bool",
          "name": "canWhitelistLPs",
          "type": "bool"
        },
        {
          "internalType": "bool",
          "name": "isList",
          "type": "bool"
        },
        {
          "internalType": "bool",
          "name": "bools",
          "type": "bool"
        },
        {
          "internalType": "uint256",
          "name": "collectEndTime",
          "type": "uint256"
        }
      ],
      "name": "joinPoolHandle",
      "outputs": [],
      "stateMutability": "view",
      "type": "function"
    },
    {
      "inputs": [
        {
          "internalType": "bool",
          "name": "bools",
          "type": "bool"
        },
        {
          "internalType": "uint256",
          "name": "collectEndTime",
          "type": "uint256"
        },
        {
          "internalType": "uint256",
          "name": "closureEndTime",
          "type": "uint256"
        },
        {
          "internalType": "bool",
          "name": "canChangeWeights",
          "type": "bool"
        },
        {
          "internalType": "address",
          "name": "tokenA",
          "type": "address"
        },
        {
          "internalType": "address",
          "name": "tokenB",
          "type": "address"
        }
      ],
      "name": "rebalanceHandle",
      "outputs": [],
      "stateMutability": "view",
      "type": "function"
    }
  ],
  "transactionHash": "0x3daf90524b0fcfeb32f3e5acbb1aaf0c93c2405e83af2ed40b1f97b0ac6195c2",
  "args": [],
  "numDeployments": 1,
  "solcInputHash": "c4935c7bbb687e1b5444e68bf79f180c",
  "bytecode": "0x611eac610026600b82828239805160001a60731461001957fe5b30600052607381538281f3fe73000000000000000000000000000000000000000030146080604052600436106100c45760003560e01c80631c1af136146100c95780633468facb146100eb5780633e9fc0bd1461011557806350884c91146101285780635471c3e41461014857806377d443491461016957806380681cab14610189578063a1925f1d1461019c578063c0dcb71f146101bc578063d03f2a0f146101de578063d3aa4710146101f1578063dba4989a14610204578063de5bb5fc14610217578063eab734851461022a575b600080fd5b8180156100d557600080fd5b506100e96100e4366004611211565b61023d565b005b6100fe6100f93660046113cc565b610249565b60405161010c929190611e09565b60405180910390f35b6100e96101233660046115bc565b6102e7565b81801561013457600080fd5b506100e96101433660046114c7565b61032f565b61015b610156366004611534565b610548565b60405161010c929190611de8565b81801561017557600080fd5b506100e961018436600461122d565b610817565b6100e961019736600461165a565b610853565b6101af6101aa366004611534565b6109e9565b60405161010c919061176c565b6101cf6101ca3660046115e7565b610ca3565b60405161010c93929190611e17565b6100e96101ec36600461149c565b610cec565b6100e96101ff366004611332565b610dd2565b6100e961021236600461137c565b610e32565b6101cf610225366004611618565b610e84565b6100e961023836600461142d565b610efe565b61024681610f85565b50565b6000808815610299576000881580156102625750864210155b90504288111581806102715750805b6102965760405162461bcd60e51b815260040161028d90611cfb565b60405180910390fd5b50505b50839050828880156102ab5750854211155b156102db576102cc6102c66102c08786611027565b87611062565b856110fe565b90506102d88584611027565b91505b97509795505050505050565b624f1a0083111561030a5760405162461bcd60e51b815260040161028d90611c34565b8082101561032a5760405162461bcd60e51b815260040161028d9061189f565b505050565b604051634a46c67360e11b81526000906001600160a01b0387169063948d8ce69061035e908890600401611707565b60206040518083038186803b15801561037657600080fd5b505afa15801561038a573d6000803e3d6000fd5b505050506040513d601f19601f820116820180604052508101906103ae91906115a4565b90506000866001600160a01b031663f8b2cb4f876040518263ffffffff1660e01b81526004016103de9190611707565b60206040518083038186803b1580156103f657600080fd5b505afa15801561040a573d6000803e3d6000fd5b505050506040513d601f19601f8201168201806040525081019061042e91906115a4565b9050818411156104505760405162461bcd60e51b815260040161028d9061186d565b6000610465826104608786611062565b6110fe565b90506000838614156104d45760405163a61e44f560e01b81526001600160a01b038a169063a61e44f59061049d908b90600401611707565b600060405180830381600087803b1580156104b757600080fd5b505af11580156104cb573d6000803e3d6000fd5b50505050600190505b60405163cbf3a56b60e01b81526001600160a01b038a169063cbf3a56b9061050a908b908b908b90889088908d90600401611734565b600060405180830381600087803b15801561052457600080fd5b505af1158015610538573d6000803e3d6000fd5b5050505050505050505050505050565b6000606080866001600160a01b031663cc77828d6040518163ffffffff1660e01b815260040160006040518083038186803b15801561058657600080fd5b505afa15801561059a573d6000803e3d6000fd5b505050506040513d6000823e601f3d908101601f191682016040526105c2919081019061126c565b805190915084146105e55760405162461bcd60e51b815260040161028d906119e7565b6000886001600160a01b03166318160ddd6040518163ffffffff1660e01b815260040160206040518083038186803b15801561062057600080fd5b505afa158015610634573d6000803e3d6000fd5b505050506040513d601f19601f8201168201806040525081019061065891906115a4565b9050610665876000611027565b9350600061067d85610678846001611174565b611062565b90508061069c5760405162461bcd60e51b815260040161028d90611816565b82516001600160401b03811180156106b357600080fd5b506040519080825280602002602001820160405280156106dd578160200160208202803683370190505b50935060005b83518110156108095760008482815181106106fa57fe5b6020026020010151905060008b6001600160a01b031663f8b2cb4f836040518263ffffffff1660e01b81526004016107329190611707565b60206040518083038186803b15801561074a57600080fd5b505afa15801561075e573d6000803e3d6000fd5b505050506040513d601f19601f8201168201806040525081019061078291906115a4565b9050600061079585610460846001611027565b9050806107b45760405162461bcd60e51b815260040161028d90611816565b8a8a858181106107c057fe5b905060200201358110156107e65760405162461bcd60e51b815260040161028d90611a15565b808885815181106107f357fe5b60209081029190910101525050506001016106e3565b505050509550959350505050565b60005b8181101561032a5761084b83838381811061083157fe5b90506020020160208101906108469190611211565b610f85565b60010161081a565b80156108715760405162461bcd60e51b815260040161028d906119c4565b64e8d4a510008910156108965760405162461bcd60e51b815260040161028d90611c97565b67016345785d8a00008911156108be5760405162461bcd60e51b815260040161028d90611c97565b67016345785d8a00008811156108e65760405162461bcd60e51b815260040161028d9061177f565b67016345785d8a000087111561090e5760405162461bcd60e51b815260040161028d90611b25565b67016345785d8a00008611156109365760405162461bcd60e51b815260040161028d90611d8a565b6706f05b59d3b2000085111561095e5760405162461bcd60e51b815260040161028d90611a9e565b81841461097d5760405162461bcd60e51b815260040161028d90611a3c565b81831461099c5760405162461bcd60e51b815260040161028d906117e2565b60018210156109bd5760405162461bcd60e51b815260040161028d90611c6b565b60108211156109de5760405162461bcd60e51b815260040161028d90611d5d565b505050505050505050565b606080856001600160a01b031663cc77828d6040518163ffffffff1660e01b815260040160006040518083038186803b158015610a2557600080fd5b505afa158015610a39573d6000803e3d6000fd5b505050506040513d6000823e601f3d908101601f19168201604052610a61919081019061126c565b80519091508314610a845760405162461bcd60e51b815260040161028d906119e7565b6000876001600160a01b03166318160ddd6040518163ffffffff1660e01b815260040160206040518083038186803b158015610abf57600080fd5b505afa158015610ad3573d6000803e3d6000fd5b505050506040513d601f19601f82011682018060405250810190610af791906115a4565b90506000610b0a87610678846001611027565b905080610b295760405162461bcd60e51b815260040161028d90611816565b82516001600160401b0381118015610b4057600080fd5b50604051908082528060200260200182016040528015610b6a578160200160208202803683370190505b50935060005b8351811015610c96576000848281518110610b8757fe5b6020026020010151905060008a6001600160a01b031663f8b2cb4f836040518263ffffffff1660e01b8152600401610bbf9190611707565b60206040518083038186803b158015610bd757600080fd5b505afa158015610beb573d6000803e3d6000fd5b505050506040513d601f19601f82011682018060405250810190610c0f91906115a4565b90506000610c2285610460846001611174565b905080610c415760405162461bcd60e51b815260040161028d90611816565b898985818110610c4d57fe5b90506020020135811115610c735760405162461bcd60e51b815260040161028d90611aff565b80888581518110610c8057fe5b6020908102919091010152505050600101610b70565b5050505095945050505050565b6000808086610cb281886110fe565b9350839150610cd3610ccd610cc783896110fe565b876110fe565b85611174565b9350610cdf8185611027565b9250509450945094915050565b68056bc75e2d63100000811015610d155760405162461bcd60e51b815260040161028d90611a71565b676765c793fa10079d601b1b811115610d405760405162461bcd60e51b815260040161028d906118ff565b816001600160a01b031663c6580d126040518163ffffffff1660e01b815260040160206040518083038186803b158015610d7957600080fd5b505afa158015610d8d573d6000803e3d6000fd5b505050506040513d601f19601f82011682018060405250810190610db191906115a4565b15610dce5760405162461bcd60e51b815260040161028d90611c06565b5050565b82610def5760405162461bcd60e51b815260040161028d9061192c565b81610e0c5760405162461bcd60e51b815260040161028d90611994565b6001600160a01b03811661032a5760405162461bcd60e51b815260040161028d90611b58565b831580610e3c5750825b610e585760405162461bcd60e51b815260040161028d9061183f565b8115610e7e5780421115610e7e5760405162461bcd60e51b815260040161028d90611cc5565b50505050565b6000806000610e938986611174565b9250610e9f8885611174565b91506000610ead8385611062565b90506000610ebb888a611062565b905080821115610ef057610eed6102c0610ee7610ed88789611062565b610ee28c8e611062565b611027565b896110fe565b92505b505096509650969350505050565b8515610f2e578442118015610f1257508342105b610f2e5760405162461bcd60e51b815260040161028d906117b0565b82610f4b5760405162461bcd60e51b815260040161028d9061195e565b806001600160a01b0316826001600160a01b03161415610f7d5760405162461bcd60e51b815260040161028d906118d6565b505050505050565b60405163a9059cbb60e01b81526000906001600160a01b0383169063a9059cbb90610fb6903390859060040161171b565b602060405180830381600087803b158015610fd057600080fd5b505af1158015610fe4573d6000803e3d6000fd5b505050506040513d601f19601f820116820180604052508101906110089190611316565b905080610dce5760405162461bcd60e51b815260040161028d90611baf565b600080600061103685856111a0565b9150915080156110585760405162461bcd60e51b815260040161028d90611d32565b5090505b92915050565b6000816110815760405162461bcd60e51b815260040161028d90611be0565b8261108e5750600061105c565b670de0b6b3a7640000838102908482816110a457fe5b04146110c25760405162461bcd60e51b815260040161028d90611ad5565b600283048101818110156110e85760405162461bcd60e51b815260040161028d90611ad5565b60008482816110f357fe5b049695505050505050565b60008261110d5750600061105c565b8282028284828161111a57fe5b04146111385760405162461bcd60e51b815260040161028d90611b85565b6706f05b59d3b200008101818110156111635760405162461bcd60e51b815260040161028d90611b85565b6000670de0b6b3a7640000826110f3565b6000828201838110156111995760405162461bcd60e51b815260040161028d90611dbe565b9392505050565b6000808383116111b657505080820360006111be565b505081810360015b9250929050565b805161105c81611e53565b60008083601f8401126111e1578182fd5b5081356001600160401b038111156111f7578182fd5b60208301915083602080830285010111156111be57600080fd5b600060208284031215611222578081fd5b813561119981611e53565b6000806020838503121561123f578081fd5b82356001600160401b03811115611254578182fd5b611260858286016111d0565b90969095509350505050565b6000602080838503121561127e578182fd5b82516001600160401b0380821115611294578384fd5b818501915085601f8301126112a7578384fd5b8151818111156112b5578485fd5b83810291506112c5848301611e2d565b8181528481019084860184860187018a10156112df578788fd5b8795505b83861015611309576112f58a826111c5565b8352600195909501949186019186016112e3565b5098975050505050505050565b600060208284031215611327578081fd5b815161119981611e68565b600080600060608486031215611346578081fd5b833561135181611e68565b9250602084013561136181611e68565b9150604084013561137181611e53565b809150509250925092565b60008060008060808587031215611391578081fd5b843561139c81611e68565b935060208501356113ac81611e68565b925060408501356113bc81611e68565b9396929550929360600135925050565b600080600080600080600060e0888a0312156113e6578283fd5b87356113f181611e68565b9650602088013561140181611e68565b96999698505050506040850135946060810135946080820135945060a0820135935060c0909101359150565b60008060008060008060c08789031215611445578182fd5b863561145081611e68565b95506020870135945060408701359350606087013561146e81611e68565b9250608087013561147e81611e53565b915060a087013561148e81611e53565b809150509295509295509295565b600080604083850312156114ae578182fd5b82356114b981611e53565b946020939093013593505050565b60008060008060008060c087890312156114df578182fd5b86356114ea81611e53565b955060208701356114fa81611e53565b9450604087013561150a81611e53565b9350606087013561151a81611e53565b9598949750929560808101359460a0909101359350915050565b60008060008060006080868803121561154b578283fd5b853561155681611e53565b9450602086013561156681611e53565b93506040860135925060608601356001600160401b03811115611587578182fd5b611593888289016111d0565b969995985093965092949392505050565b6000602082840312156115b5578081fd5b5051919050565b6000806000606084860312156115d0578081fd5b505081359360208301359350604090920135919050565b600080600080608085870312156115fc578182fd5b5050823594602084013594506040840135936060013592509050565b60008060008060008060c08789031215611630578384fd5b505084359660208601359650604086013595606081013595506080810135945060a0013592509050565b60008060008060008060008060006101208a8c031215611678578283fd5b8935985060208a0135975060408a0135965060608a0135955060808a0135945060a08a0135935060c08a0135925060e08a013591506101008a01356116bc81611e68565b809150509295985092959850929598565b6000815180845260208085019450808401835b838110156116fc578151875295820195908201906001016116e0565b509495945050505050565b6001600160a01b0391909116815260200190565b6001600160a01b03929092168252602082015260400190565b6001600160a01b039687168152949095166020850152604084019290925260608301521515608082015260a081019190915260c00190565b60006020825261119960208301846116cd565b6020808252601790820152764552525f494e56414c49445f4d414e414745525f46454560481b604082015260600190565b60208082526018908201527711549497d393d517d491509053105390d157d411549253d160421b604082015260600190565b6020808252601a908201527908aa4a4bea6a882a4a8beae8a928e90a8a6be9a92a69a82a886960331b604082015260600190565b6020808252600f908201526e08aa4a4be9a82a890be82a0a0a49eb608b1b604082015260600190565b60208082526014908201527311549497d393d517d3d397d5d2125511531254d560621b604082015260600190565b6020808252601890820152774552525f44454c54415f5745494748545f544f4f5f42494760401b604082015260600190565b6020808252601e908201527f4552525f4341505f4249474745525f5448414e5f494e4954535550504c590000604082015260600190565b6020808252600f908201526e4552525f544f4b454e535f53414d4560881b604082015260600190565b60208082526013908201527208aa4a4be929c92a8bea6aaa0a098b2be9a82b606b1b604082015260600190565b6020808252601890820152774552525f43414e4e4f545f57484954454c4953545f4c505360401b604082015260600190565b6020808252601c908201527b4552525f4e4f545f434f4e464947555241424c455f5745494748545360201b604082015260600190565b60208082526016908201527511549497d31417d393d517d5d2125511531254d5115160521b604082015260600190565b602080825260099082015268125b9a5d0819985a5b60ba1b604082015260600190565b60208082526014908201527308aa4a4be829a9eaa9ca8a6be9a92a69a82a886960631b604082015260600190565b6020808252600d908201526c11549497d31253525517d3d555609a1b604082015260600190565b6020808252601b908201527a08aa4a4bea6a882a4a8be848298829c868aa6be9a92a69a82a8869602b1b604082015260600190565b60208082526013908201527222a9292fa4a724aa2fa9aaa828262cafa6a4a760691b604082015260600190565b6020808252601f908201527f4552525f494e56414c49445f5045524645524d414e43455f4d41585f46454500604082015260600190565b60208082526010908201526f11549497d1125597d25395115493905360821b604082015260600190565b6020808252600c908201526b22a9292fa624a6a4aa2fa4a760a11b604082015260600190565b6020808252601990820152784552525f494e56414c49445f49535355455f4d41585f46454560381b604082015260600190565b6020808252601390820152724552525f494e56414c49445f4144445245535360681b604082015260600190565b60208082526010908201526f4552525f4d554c5f4f564552464c4f5760801b604082015260600190565b60208082526017908201527622a9292fa727a721a7a72327a926a4a723afaa27a5a2a760491b604082015260600190565b6020808252600c908201526b4552525f4449565f5a45524f60a01b604082015260600190565b6020808252601490820152734552525f4e4f4e5a45524f5f455849545f46454560601b604082015260600190565b6020808252601f908201527f4552525f455843454544535f46554e445f52414953494e475f504552494f4400604082015260600190565b6020808252601290820152714552525f544f4f5f4645575f544f4b454e5360701b604082015260600190565b6020808252601490820152734552525f494e56414c49445f535741505f46454560601b604082015260600190565b6020808252601c908201527b4552525f434f4c4c4543545f504552494f445f46494e49534845442160201b604082015260600190565b6020808252601d908201527f4552525f434c4f535552455f54494d455f4e4f545f4152524956454421000000604082015260600190565b6020808252601190820152704552525f5355425f554e444552464c4f5760781b604082015260600190565b6020808252601390820152724552525f544f4f5f4d414e595f544f4b454e5360681b604082015260600190565b6020808252601a90820152794552525f494e56414c49445f52454445454d5f4d41585f46454560301b604082015260600190565b60208082526010908201526f4552525f4144445f4f564552464c4f5760801b604082015260600190565b600083825260406020830152611e0160408301846116cd565b949350505050565b918252602082015260400190565b9283526020830191909152604082015260600190565b6040518181016001600160401b0381118282101715611e4b57600080fd5b604052919050565b6001600160a01b038116811461024657600080fd5b801515811461024657600080fdfea2646970667358221220cedcb280372a2e9d94ee552ce4a552188372e56764b54917d328b2d39d70cdb664736f6c634300060c0033",
  "devdoc": {
    "author": "Desyn Labs",
    "kind": "dev",
    "methods": {
      "exitPool(IConfigurableRightsPool,IBPool,uint256,uint256[])": {
        "params": {
          "bPool": "- Core BPool the CRP is wrapping",
          "minAmountsOut": "- minimum amount of asset tokens to receive",
          "poolAmountIn": "- amount of pool tokens to redeem",
          "self": "- ConfigurableRightsPool instance calling the library"
        },
        "returns": {
          "actualAmountsOut": "- calculated amounts of each token to pull",
          "pAiAfterExitFee": "- final amount in (after accounting for exit fee)"
        }
      },
      "joinPool(IConfigurableRightsPool,IBPool,uint256,uint256[])": {
        "params": {
          "bPool": "- Core BPool the CRP is wrapping",
          "maxAmountsIn": "- Max amount of asset tokens to spend",
          "poolAmountOut": "- number of pool tokens to receive",
          "self": "- ConfigurableRightsPool instance calling the library"
        },
        "returns": {
          "actualAmountsIn": "- calculated values of the tokens to pull in"
        }
      },
      "rebalance(IConfigurableRightsPool,IBPool,address,address,uint256,uint256)": {
        "details": "Refactored to library to make CRPFactory deployable",
        "params": {
          "bPool": "- Core BPool the CRP is wrapping",
          "self": "- ConfigurableRightsPool instance calling the library",
          "tokenA": "- token to sell",
          "tokenB": "- token to buy"
        }
      },
      "verifyTokenCompliance(address)": {
        "details": "Will revert if invalid",
        "params": {
          "token": "- The prospective token to verify"
        }
      },
      "verifyTokenCompliance(address[])": {
        "details": "Will revert if invalid - overloaded to save space in the main contract",
        "params": {
          "tokens": "- The prospective tokens to verify"
        }
      }
    },
    "title": "Factor out the weight updates",
    "version": 1
  },
  "userdoc": {
    "kind": "user",
    "methods": {
      "exitPool(IConfigurableRightsPool,IBPool,uint256,uint256[])": {
        "notice": "Exit a pool - redeem pool tokens for underlying assets"
      },
      "joinPool(IConfigurableRightsPool,IBPool,uint256,uint256[])": {
        "notice": "Join a pool"
      },
      "rebalance(IConfigurableRightsPool,IBPool,address,address,uint256,uint256)": {
        "notice": "Update the weight of an existing token"
      },
      "verifyTokenCompliance(address)": {
        "notice": "Non ERC20-conforming tokens are problematic; don't allow them in pools"
      },
      "verifyTokenCompliance(address[])": {
        "notice": "Non ERC20-conforming tokens are problematic; don't allow them in pools"
      }
    },
    "version": 1
  },
  "storageLayout": {
    "storage": [],
    "types": null
  }
}