{
  "address": "0x10b5ad750fd6b7553a925211DA25aF25343A9C77",
  "abi": [
    {
      "constant": true,
      "inputs": [
        {
          "internalType": "address[][]",
          "name": "pools",
          "type": "address[][]"
        },
        {
          "internalType": "uint256",
          "name": "length",
          "type": "uint256"
        }
      ],
      "name": "getPoolInfo",
      "outputs": [
        {
          "internalType": "uint256[]",
          "name": "",
          "type": "uint256[]"
        }
      ],
      "payable": false,
      "stateMutability": "view",
      "type": "function"
    }
  ],
  "transactionHash": "0x5a447d9b8d825e822605b619b3d8c01f7899bc5e0dcda570a4baa4b35cd1003d",
  "args": [],
  "numDeployments": 1,
  "solcInputHash": "72715ab3b955ba1e264738aed24f0e4f",
  "bytecode": "0x608060405234801561001057600080fd5b506104bd806100206000396000f3fe608060405234801561001057600080fd5b506004361061002b5760003560e01c8063c2eacb2d14610030575b600080fd5b61004361003e366004610333565b610059565b604051610050919061041b565b60405180910390f35b60608082604051908082528060200260200182016040528015610086578160200160208202803883390190505b5090506000805b858110156102655760008787838181106100a357fe5b602002820190508035601e19368490030181126100bf57600080fd5b9091016020810191503567ffffffffffffffff8111156100de57600080fd5b6020810236038213156100f057600080fd5b60008181106100fb57fe5b9050602002016020610110919081019061030d565b905060015b88888481811061012157fe5b602002820190508035601e193684900301811261013d57600080fd5b9091016020810191503567ffffffffffffffff81111561015c57600080fd5b60208102360382131561016e57600080fd5b905081101561025b57600089898581811061018557fe5b602002820190508035601e19368490030181126101a157600080fd5b9091016020810191503567ffffffffffffffff8111156101c057600080fd5b6020810236038213156101d257600080fd5b838181106101dc57fe5b90506020020160206101f1919081019061030d565b90506102378382604051602401610208919061040d565b60408051601f198184030181529190526020810180516001600160e01b031663f8b2cb4f60e01b179052610270565b86868151811061024357fe5b60209081029190910101525060019384019301610115565b505060010161008d565b509095945050505050565b600080905060008083516020850186613e80fa60018114156102a15760203d14156102a15760206000803e60005191505b5092915050565b80356102b38161045a565b92915050565b60008083601f8401126102cb57600080fd5b50813567ffffffffffffffff8111156102e357600080fd5b6020830191508360208202830111156102fb57600080fd5b9250929050565b80356102b381610471565b60006020828403121561031f57600080fd5b600061032b84846102a8565b949350505050565b60008060006040848603121561034857600080fd5b833567ffffffffffffffff81111561035f57600080fd5b61036b868287016102b9565b9350935050602061037e86828701610302565b9150509250925092565b60006103948383610404565b505060200190565b6103a581610446565b82525050565b60006103b682610439565b6103c0818561043d565b93506103cb83610433565b8060005b838110156103f95781516103e38882610388565b97506103ee83610433565b9250506001016103cf565b509495945050505050565b6103a581610457565b602081016102b3828461039c565b6020808252810161042c81846103ab565b9392505050565b60200190565b5190565b90815260200190565b60006001600160a01b0382166102b3565b90565b61046381610446565b811461046e57600080fd5b50565b6104638161045756fea365627a7a72315820523d87a831c6ccfb4215365ce1b48961361d6246a3b9ddce914bbdce067462226c6578706572696d656e74616cf564736f6c634300050c0040",
  "libraries": {},
  "devdoc": {
    "methods": {}
  },
  "userdoc": {
    "methods": {}
  }
}