{
  "address": "0xe8D029b9cA7FC6FA20dDDc169Dc712c52B24a506",
  "abi": [
    {
      "inputs": [],
      "stateMutability": "nonpayable",
      "type": "constructor"
    },
    {
      "anonymous": false,
      "inputs": [
        {
          "indexed": true,
          "internalType": "address",
          "name": "newAdmin",
          "type": "address"
        },
        {
          "indexed": true,
          "internalType": "uint256",
          "name": "amount",
          "type": "uint256"
        }
      ],
      "name": "AddAdmin",
      "type": "event"
    },
    {
      "anonymous": false,
      "inputs": [
        {
          "indexed": true,
          "internalType": "address",
          "name": "manager",
          "type": "address"
        },
        {
          "indexed": true,
          "internalType": "address",
          "name": "caller",
          "type": "address"
        }
      ],
      "name": "LOGVaultAdr",
      "type": "event"
    },
    {
      "anonymous": false,
      "inputs": [
        {
          "indexed": true,
          "internalType": "address",
          "name": "previousOwner",
          "type": "address"
        },
        {
          "indexed": true,
          "internalType": "address",
          "name": "newOwner",
          "type": "address"
        }
      ],
      "name": "OwnershipTransferred",
      "type": "event"
    },
    {
      "anonymous": false,
      "inputs": [
        {
          "indexed": true,
          "internalType": "address",
          "name": "oldAdmin",
          "type": "address"
        },
        {
          "indexed": true,
          "internalType": "uint256",
          "name": "amount",
          "type": "uint256"
        }
      ],
      "name": "RemoveAdmin",
      "type": "event"
    },
    {
      "inputs": [
        {
          "internalType": "address",
          "name": "token",
          "type": "address"
        },
        {
          "internalType": "address",
          "name": "user",
          "type": "address"
        },
        {
          "internalType": "uint256",
          "name": "amount",
          "type": "uint256"
        }
      ],
      "name": "adminClaimToken",
      "outputs": [],
      "stateMutability": "nonpayable",
      "type": "function"
    },
    {
      "inputs": [
        {
          "internalType": "address",
          "name": "",
          "type": "address"
        }
      ],
      "name": "adminList",
      "outputs": [
        {
          "internalType": "bool",
          "name": "",
          "type": "bool"
        }
      ],
      "stateMutability": "view",
      "type": "function"
    },
    {
      "inputs": [],
      "name": "allOwnerPercentage",
      "outputs": [
        {
          "internalType": "uint256",
          "name": "",
          "type": "uint256"
        }
      ],
      "stateMutability": "view",
      "type": "function"
    },
    {
      "inputs": [
        {
          "internalType": "address",
          "name": "",
          "type": "address"
        }
      ],
      "name": "black_list",
      "outputs": [
        {
          "internalType": "bool",
          "name": "",
          "type": "bool"
        }
      ],
      "stateMutability": "view",
      "type": "function"
    },
    {
      "inputs": [
        {
          "internalType": "address",
          "name": "pool",
          "type": "address"
        }
      ],
      "name": "claimKolReward",
      "outputs": [],
      "stateMutability": "nonpayable",
      "type": "function"
    },
    {
      "inputs": [
        {
          "internalType": "address",
          "name": "pool",
          "type": "address"
        }
      ],
      "name": "claimManagersReward",
      "outputs": [],
      "stateMutability": "nonpayable",
      "type": "function"
    },
    {
      "inputs": [
        {
          "internalType": "address",
          "name": "pool",
          "type": "address"
        },
        {
          "internalType": "address",
          "name": "kol",
          "type": "address"
        },
        {
          "internalType": "uint256",
          "name": "types",
          "type": "uint256"
        }
      ],
      "name": "computeReward",
      "outputs": [
        {
          "internalType": "uint256",
          "name": "",
          "type": "uint256"
        }
      ],
      "stateMutability": "view",
      "type": "function"
    },
    {
      "inputs": [
        {
          "internalType": "address",
          "name": "pool",
          "type": "address"
        },
        {
          "internalType": "uint256",
          "name": "types",
          "type": "uint256"
        },
        {
          "internalType": "address[]",
          "name": "poolTokens",
          "type": "address[]"
        },
        {
          "internalType": "uint256[]",
          "name": "tokensAmount",
          "type": "uint256[]"
        }
      ],
      "name": "depositToken",
      "outputs": [],
      "stateMutability": "nonpayable",
      "type": "function"
    },
    {
      "inputs": [
        {
          "internalType": "address",
          "name": "pool",
          "type": "address"
        }
      ],
      "name": "getAllKolReward",
      "outputs": [
        {
          "internalType": "uint256",
          "name": "totalAmount",
          "type": "uint256"
        }
      ],
      "stateMutability": "view",
      "type": "function"
    },
    {
      "inputs": [
        {
          "internalType": "address",
          "name": "pool",
          "type": "address"
        }
      ],
      "name": "getAllManagersReward",
      "outputs": [
        {
          "internalType": "uint256",
          "name": "",
          "type": "uint256"
        }
      ],
      "stateMutability": "view",
      "type": "function"
    },
    {
      "inputs": [],
      "name": "getBNB",
      "outputs": [],
      "stateMutability": "payable",
      "type": "function"
    },
    {
      "inputs": [],
      "name": "getController",
      "outputs": [
        {
          "internalType": "address",
          "name": "",
          "type": "address"
        }
      ],
      "stateMutability": "view",
      "type": "function"
    },
    {
      "inputs": [
        {
          "internalType": "address",
          "name": "pool",
          "type": "address"
        }
      ],
      "name": "getKolsAdr",
      "outputs": [
        {
          "internalType": "address[]",
          "name": "",
          "type": "address[]"
        }
      ],
      "stateMutability": "view",
      "type": "function"
    },
    {
      "inputs": [
        {
          "internalType": "address",
          "name": "pool",
          "type": "address"
        }
      ],
      "name": "getManagerClaimBool",
      "outputs": [
        {
          "internalType": "bool",
          "name": "bools",
          "type": "bool"
        }
      ],
      "stateMutability": "view",
      "type": "function"
    },
    {
      "inputs": [
        {
          "internalType": "address",
          "name": "pool",
          "type": "address"
        },
        {
          "internalType": "address",
          "name": "maragerAdr",
          "type": "address"
        }
      ],
      "name": "getManagerReward",
      "outputs": [
        {
          "internalType": "uint256",
          "name": "",
          "type": "uint256"
        }
      ],
      "stateMutability": "view",
      "type": "function"
    },
    {
      "inputs": [],
      "name": "getOwnerPercentage",
      "outputs": [
        {
          "internalType": "uint256[]",
          "name": "",
          "type": "uint256[]"
        }
      ],
      "stateMutability": "view",
      "type": "function"
    },
    {
      "inputs": [],
      "name": "getOwners",
      "outputs": [
        {
          "internalType": "address[]",
          "name": "",
          "type": "address[]"
        }
      ],
      "stateMutability": "view",
      "type": "function"
    },
    {
      "inputs": [
        {
          "internalType": "address",
          "name": "pool",
          "type": "address"
        }
      ],
      "name": "getPoolAllFee",
      "outputs": [
        {
          "internalType": "uint256",
          "name": "totalAmount",
          "type": "uint256"
        }
      ],
      "stateMutability": "view",
      "type": "function"
    },
    {
      "inputs": [
        {
          "internalType": "address",
          "name": "pool",
          "type": "address"
        },
        {
          "internalType": "address",
          "name": "kol",
          "type": "address"
        }
      ],
      "name": "getPoolKolTotalAmounts",
      "outputs": [
        {
          "internalType": "uint256[]",
          "name": "",
          "type": "uint256[]"
        }
      ],
      "stateMutability": "view",
      "type": "function"
    },
    {
      "inputs": [
        {
          "internalType": "address",
          "name": "pool",
          "type": "address"
        },
        {
          "internalType": "address",
          "name": "kol",
          "type": "address"
        }
      ],
      "name": "getPoolKolUserInfo",
      "outputs": [
        {
          "components": [
            {
              "internalType": "address",
              "name": "userAdr",
              "type": "address"
            },
            {
              "internalType": "uint256[]",
              "name": "userAmount",
              "type": "uint256[]"
            }
          ],
          "internalType": "struct UserVault.kolUserInfo[]",
          "name": "info",
          "type": "tuple[]"
        }
      ],
      "stateMutability": "view",
      "type": "function"
    },
    {
      "inputs": [
        {
          "internalType": "address",
          "name": "pool",
          "type": "address"
        },
        {
          "internalType": "address",
          "name": "user",
          "type": "address"
        }
      ],
      "name": "getPoolUserKolAdr",
      "outputs": [
        {
          "internalType": "address",
          "name": "tokenAddress",
          "type": "address"
        }
      ],
      "stateMutability": "view",
      "type": "function"
    },
    {
      "inputs": [
        {
          "internalType": "address",
          "name": "pool",
          "type": "address"
        }
      ],
      "name": "getPoolUserList",
      "outputs": [
        {
          "internalType": "address[]",
          "name": "tokenList",
          "type": "address[]"
        }
      ],
      "stateMutability": "view",
      "type": "function"
    },
    {
      "inputs": [
        {
          "internalType": "address",
          "name": "pool",
          "type": "address"
        },
        {
          "internalType": "address",
          "name": "maragerAdr",
          "type": "address"
        }
      ],
      "name": "getUnManagerReward",
      "outputs": [
        {
          "internalType": "uint256",
          "name": "",
          "type": "uint256"
        }
      ],
      "stateMutability": "view",
      "type": "function"
    },
    {
      "inputs": [
        {
          "internalType": "address[]",
          "name": "_owners",
          "type": "address[]"
        },
        {
          "internalType": "uint256[]",
          "name": "_ownerPercentage",
          "type": "uint256[]"
        }
      ],
      "name": "initHandle",
      "outputs": [],
      "stateMutability": "nonpayable",
      "type": "function"
    },
    {
      "inputs": [
        {
          "internalType": "address",
          "name": "",
          "type": "address"
        }
      ],
      "name": "init_totalAmount_list",
      "outputs": [
        {
          "internalType": "uint256",
          "name": "",
          "type": "uint256"
        }
      ],
      "stateMutability": "view",
      "type": "function"
    },
    {
      "inputs": [
        {
          "internalType": "address",
          "name": "",
          "type": "address"
        }
      ],
      "name": "is_set_params",
      "outputs": [
        {
          "internalType": "bool",
          "name": "",
          "type": "bool"
        }
      ],
      "stateMutability": "view",
      "type": "function"
    },
    {
      "inputs": [
        {
          "internalType": "address",
          "name": "pool",
          "type": "address"
        },
        {
          "internalType": "address",
          "name": "kol",
          "type": "address"
        }
      ],
      "name": "kolClaimTotal",
      "outputs": [
        {
          "internalType": "uint256",
          "name": "",
          "type": "uint256"
        }
      ],
      "stateMutability": "view",
      "type": "function"
    },
    {
      "inputs": [
        {
          "internalType": "address",
          "name": "pool",
          "type": "address"
        },
        {
          "internalType": "address",
          "name": "kol",
          "type": "address"
        }
      ],
      "name": "kolUnClaimAmount",
      "outputs": [
        {
          "internalType": "uint256",
          "name": "",
          "type": "uint256"
        }
      ],
      "stateMutability": "view",
      "type": "function"
    },
    {
      "inputs": [
        {
          "internalType": "address",
          "name": "",
          "type": "address"
        },
        {
          "internalType": "address",
          "name": "",
          "type": "address"
        }
      ],
      "name": "kol_claimed_list",
      "outputs": [
        {
          "internalType": "uint256",
          "name": "",
          "type": "uint256"
        }
      ],
      "stateMutability": "view",
      "type": "function"
    },
    {
      "inputs": [
        {
          "internalType": "address",
          "name": "",
          "type": "address"
        }
      ],
      "name": "kol_pool_params",
      "outputs": [
        {
          "components": [
            {
              "components": [
                {
                  "internalType": "uint256",
                  "name": "level",
                  "type": "uint256"
                },
                {
                  "internalType": "uint256",
                  "name": "ratio",
                  "type": "uint256"
                }
              ],
              "internalType": "struct SmartPoolManager.levelParams",
              "name": "firstLevel",
              "type": "tuple"
            },
            {
              "components": [
                {
                  "internalType": "uint256",
                  "name": "level",
                  "type": "uint256"
                },
                {
                  "internalType": "uint256",
                  "name": "ratio",
                  "type": "uint256"
                }
              ],
              "internalType": "struct SmartPoolManager.levelParams",
              "name": "secondLevel",
              "type": "tuple"
            },
            {
              "components": [
                {
                  "internalType": "uint256",
                  "name": "level",
                  "type": "uint256"
                },
                {
                  "internalType": "uint256",
                  "name": "ratio",
                  "type": "uint256"
                }
              ],
              "internalType": "struct SmartPoolManager.levelParams",
              "name": "thirdLevel",
              "type": "tuple"
            },
            {
              "components": [
                {
                  "internalType": "uint256",
                  "name": "level",
                  "type": "uint256"
                },
                {
                  "internalType": "uint256",
                  "name": "ratio",
                  "type": "uint256"
                }
              ],
              "internalType": "struct SmartPoolManager.levelParams",
              "name": "fourLevel",
              "type": "tuple"
            }
          ],
          "internalType": "struct SmartPoolManager.feeParams",
          "name": "managerFee",
          "type": "tuple"
        },
        {
          "components": [
            {
              "components": [
                {
                  "internalType": "uint256",
                  "name": "level",
                  "type": "uint256"
                },
                {
                  "internalType": "uint256",
                  "name": "ratio",
                  "type": "uint256"
                }
              ],
              "internalType": "struct SmartPoolManager.levelParams",
              "name": "firstLevel",
              "type": "tuple"
            },
            {
              "components": [
                {
                  "internalType": "uint256",
                  "name": "level",
                  "type": "uint256"
                },
                {
                  "internalType": "uint256",
                  "name": "ratio",
                  "type": "uint256"
                }
              ],
              "internalType": "struct SmartPoolManager.levelParams",
              "name": "secondLevel",
              "type": "tuple"
            },
            {
              "components": [
                {
                  "internalType": "uint256",
                  "name": "level",
                  "type": "uint256"
                },
                {
                  "internalType": "uint256",
                  "name": "ratio",
                  "type": "uint256"
                }
              ],
              "internalType": "struct SmartPoolManager.levelParams",
              "name": "thirdLevel",
              "type": "tuple"
            },
            {
              "components": [
                {
                  "internalType": "uint256",
                  "name": "level",
                  "type": "uint256"
                },
                {
                  "internalType": "uint256",
                  "name": "ratio",
                  "type": "uint256"
                }
              ],
              "internalType": "struct SmartPoolManager.levelParams",
              "name": "fourLevel",
              "type": "tuple"
            }
          ],
          "internalType": "struct SmartPoolManager.feeParams",
          "name": "issueFee",
          "type": "tuple"
        },
        {
          "components": [
            {
              "components": [
                {
                  "internalType": "uint256",
                  "name": "level",
                  "type": "uint256"
                },
                {
                  "internalType": "uint256",
                  "name": "ratio",
                  "type": "uint256"
                }
              ],
              "internalType": "struct SmartPoolManager.levelParams",
              "name": "firstLevel",
              "type": "tuple"
            },
            {
              "components": [
                {
                  "internalType": "uint256",
                  "name": "level",
                  "type": "uint256"
                },
                {
                  "internalType": "uint256",
                  "name": "ratio",
                  "type": "uint256"
                }
              ],
              "internalType": "struct SmartPoolManager.levelParams",
              "name": "secondLevel",
              "type": "tuple"
            },
            {
              "components": [
                {
                  "internalType": "uint256",
                  "name": "level",
                  "type": "uint256"
                },
                {
                  "internalType": "uint256",
                  "name": "ratio",
                  "type": "uint256"
                }
              ],
              "internalType": "struct SmartPoolManager.levelParams",
              "name": "thirdLevel",
              "type": "tuple"
            },
            {
              "components": [
                {
                  "internalType": "uint256",
                  "name": "level",
                  "type": "uint256"
                },
                {
                  "internalType": "uint256",
                  "name": "ratio",
                  "type": "uint256"
                }
              ],
              "internalType": "struct SmartPoolManager.levelParams",
              "name": "fourLevel",
              "type": "tuple"
            }
          ],
          "internalType": "struct SmartPoolManager.feeParams",
          "name": "redeemFee",
          "type": "tuple"
        },
        {
          "components": [
            {
              "components": [
                {
                  "internalType": "uint256",
                  "name": "level",
                  "type": "uint256"
                },
                {
                  "internalType": "uint256",
                  "name": "ratio",
                  "type": "uint256"
                }
              ],
              "internalType": "struct SmartPoolManager.levelParams",
              "name": "firstLevel",
              "type": "tuple"
            },
            {
              "components": [
                {
                  "internalType": "uint256",
                  "name": "level",
                  "type": "uint256"
                },
                {
                  "internalType": "uint256",
                  "name": "ratio",
                  "type": "uint256"
                }
              ],
              "internalType": "struct SmartPoolManager.levelParams",
              "name": "secondLevel",
              "type": "tuple"
            },
            {
              "components": [
                {
                  "internalType": "uint256",
                  "name": "level",
                  "type": "uint256"
                },
                {
                  "internalType": "uint256",
                  "name": "ratio",
                  "type": "uint256"
                }
              ],
              "internalType": "struct SmartPoolManager.levelParams",
              "name": "thirdLevel",
              "type": "tuple"
            },
            {
              "components": [
                {
                  "internalType": "uint256",
                  "name": "level",
                  "type": "uint256"
                },
                {
                  "internalType": "uint256",
                  "name": "ratio",
                  "type": "uint256"
                }
              ],
              "internalType": "struct SmartPoolManager.levelParams",
              "name": "fourLevel",
              "type": "tuple"
            }
          ],
          "internalType": "struct SmartPoolManager.feeParams",
          "name": "perfermanceFee",
          "type": "tuple"
        }
      ],
      "stateMutability": "view",
      "type": "function"
    },
    {
      "inputs": [
        {
          "internalType": "address",
          "name": "",
          "type": "address"
        },
        {
          "internalType": "uint256",
          "name": "",
          "type": "uint256"
        }
      ],
      "name": "kol_token_list",
      "outputs": [
        {
          "internalType": "address",
          "name": "",
          "type": "address"
        }
      ],
      "stateMutability": "view",
      "type": "function"
    },
    {
      "inputs": [
        {
          "internalType": "address",
          "name": "",
          "type": "address"
        },
        {
          "internalType": "address",
          "name": "",
          "type": "address"
        },
        {
          "internalType": "uint256",
          "name": "",
          "type": "uint256"
        }
      ],
      "name": "kol_totalAmount_list",
      "outputs": [
        {
          "internalType": "uint256",
          "name": "",
          "type": "uint256"
        }
      ],
      "stateMutability": "view",
      "type": "function"
    },
    {
      "inputs": [
        {
          "internalType": "address",
          "name": "",
          "type": "address"
        },
        {
          "internalType": "address",
          "name": "",
          "type": "address"
        },
        {
          "internalType": "uint256",
          "name": "",
          "type": "uint256"
        }
      ],
      "name": "kol_user_info",
      "outputs": [
        {
          "internalType": "address",
          "name": "userAdr",
          "type": "address"
        }
      ],
      "stateMutability": "view",
      "type": "function"
    },
    {
      "inputs": [
        {
          "internalType": "address",
          "name": "",
          "type": "address"
        },
        {
          "internalType": "uint256",
          "name": "",
          "type": "uint256"
        }
      ],
      "name": "kols_list",
      "outputs": [
        {
          "internalType": "address",
          "name": "",
          "type": "address"
        }
      ],
      "stateMutability": "view",
      "type": "function"
    },
    {
      "inputs": [
        {
          "internalType": "address",
          "name": "",
          "type": "address"
        },
        {
          "internalType": "address",
          "name": "",
          "type": "address"
        }
      ],
      "name": "manager_claimed_list",
      "outputs": [
        {
          "internalType": "uint256",
          "name": "",
          "type": "uint256"
        }
      ],
      "stateMutability": "view",
      "type": "function"
    },
    {
      "inputs": [
        {
          "internalType": "uint256",
          "name": "",
          "type": "uint256"
        }
      ],
      "name": "ownerPercentage",
      "outputs": [
        {
          "internalType": "uint256",
          "name": "",
          "type": "uint256"
        }
      ],
      "stateMutability": "view",
      "type": "function"
    },
    {
      "inputs": [
        {
          "internalType": "uint256",
          "name": "",
          "type": "uint256"
        }
      ],
      "name": "owners",
      "outputs": [
        {
          "internalType": "address",
          "name": "",
          "type": "address"
        }
      ],
      "stateMutability": "view",
      "type": "function"
    },
    {
      "inputs": [
        {
          "internalType": "address",
          "name": "pool",
          "type": "address"
        }
      ],
      "name": "poolIssueTokenAmount",
      "outputs": [
        {
          "internalType": "uint256[]",
          "name": "tokenAmount",
          "type": "uint256[]"
        }
      ],
      "stateMutability": "view",
      "type": "function"
    },
    {
      "inputs": [
        {
          "internalType": "address",
          "name": "pool",
          "type": "address"
        }
      ],
      "name": "poolIssueTokenList",
      "outputs": [
        {
          "internalType": "address[]",
          "name": "tokens",
          "type": "address[]"
        }
      ],
      "stateMutability": "view",
      "type": "function"
    },
    {
      "inputs": [
        {
          "internalType": "address",
          "name": "pool",
          "type": "address"
        }
      ],
      "name": "poolManagerTokenAmount",
      "outputs": [
        {
          "internalType": "uint256[]",
          "name": "tokenAmount",
          "type": "uint256[]"
        }
      ],
      "stateMutability": "view",
      "type": "function"
    },
    {
      "inputs": [
        {
          "internalType": "address",
          "name": "pool",
          "type": "address"
        }
      ],
      "name": "poolManagerTokenList",
      "outputs": [
        {
          "internalType": "address[]",
          "name": "tokens",
          "type": "address[]"
        }
      ],
      "stateMutability": "view",
      "type": "function"
    },
    {
      "inputs": [
        {
          "internalType": "address",
          "name": "pool",
          "type": "address"
        }
      ],
      "name": "poolPerfermanceTokenAmount",
      "outputs": [
        {
          "internalType": "uint256[]",
          "name": "tokenAmount",
          "type": "uint256[]"
        }
      ],
      "stateMutability": "view",
      "type": "function"
    },
    {
      "inputs": [
        {
          "internalType": "address",
          "name": "pool",
          "type": "address"
        }
      ],
      "name": "poolPerfermanceTokenList",
      "outputs": [
        {
          "internalType": "address[]",
          "name": "tokens",
          "type": "address[]"
        }
      ],
      "stateMutability": "view",
      "type": "function"
    },
    {
      "inputs": [
        {
          "internalType": "address",
          "name": "pool",
          "type": "address"
        }
      ],
      "name": "poolRedeemTokenAmount",
      "outputs": [
        {
          "internalType": "uint256[]",
          "name": "tokenAmount",
          "type": "uint256[]"
        }
      ],
      "stateMutability": "view",
      "type": "function"
    },
    {
      "inputs": [
        {
          "internalType": "address",
          "name": "pool",
          "type": "address"
        }
      ],
      "name": "poolRedeemTokenList",
      "outputs": [
        {
          "internalType": "address[]",
          "name": "tokens",
          "type": "address[]"
        }
      ],
      "stateMutability": "view",
      "type": "function"
    },
    {
      "inputs": [
        {
          "internalType": "address",
          "name": "",
          "type": "address"
        },
        {
          "internalType": "uint256",
          "name": "",
          "type": "uint256"
        }
      ],
      "name": "pool_issue_tokenAmount",
      "outputs": [
        {
          "internalType": "uint256",
          "name": "",
          "type": "uint256"
        }
      ],
      "stateMutability": "view",
      "type": "function"
    },
    {
      "inputs": [
        {
          "internalType": "address",
          "name": "",
          "type": "address"
        },
        {
          "internalType": "uint256",
          "name": "",
          "type": "uint256"
        }
      ],
      "name": "pool_issue_tokenList",
      "outputs": [
        {
          "internalType": "address",
          "name": "",
          "type": "address"
        }
      ],
      "stateMutability": "view",
      "type": "function"
    },
    {
      "inputs": [
        {
          "internalType": "address",
          "name": "",
          "type": "address"
        }
      ],
      "name": "pool_manager",
      "outputs": [
        {
          "internalType": "address",
          "name": "",
          "type": "address"
        }
      ],
      "stateMutability": "view",
      "type": "function"
    },
    {
      "inputs": [
        {
          "internalType": "address",
          "name": "",
          "type": "address"
        }
      ],
      "name": "pool_manager_isClaim",
      "outputs": [
        {
          "internalType": "bool",
          "name": "",
          "type": "bool"
        }
      ],
      "stateMutability": "view",
      "type": "function"
    },
    {
      "inputs": [
        {
          "internalType": "address",
          "name": "",
          "type": "address"
        },
        {
          "internalType": "uint256",
          "name": "",
          "type": "uint256"
        }
      ],
      "name": "pool_manager_tokenAmount",
      "outputs": [
        {
          "internalType": "uint256",
          "name": "",
          "type": "uint256"
        }
      ],
      "stateMutability": "view",
      "type": "function"
    },
    {
      "inputs": [
        {
          "internalType": "address",
          "name": "",
          "type": "address"
        },
        {
          "internalType": "uint256",
          "name": "",
          "type": "uint256"
        }
      ],
      "name": "pool_manager_tokenList",
      "outputs": [
        {
          "internalType": "address",
          "name": "",
          "type": "address"
        }
      ],
      "stateMutability": "view",
      "type": "function"
    },
    {
      "inputs": [
        {
          "internalType": "address",
          "name": "",
          "type": "address"
        },
        {
          "internalType": "uint256",
          "name": "",
          "type": "uint256"
        }
      ],
      "name": "pool_perfermance_tokenAmount",
      "outputs": [
        {
          "internalType": "uint256",
          "name": "",
          "type": "uint256"
        }
      ],
      "stateMutability": "view",
      "type": "function"
    },
    {
      "inputs": [
        {
          "internalType": "address",
          "name": "",
          "type": "address"
        },
        {
          "internalType": "uint256",
          "name": "",
          "type": "uint256"
        }
      ],
      "name": "pool_perfermance_tokenList",
      "outputs": [
        {
          "internalType": "address",
          "name": "",
          "type": "address"
        }
      ],
      "stateMutability": "view",
      "type": "function"
    },
    {
      "inputs": [
        {
          "internalType": "address",
          "name": "",
          "type": "address"
        },
        {
          "internalType": "uint256",
          "name": "",
          "type": "uint256"
        }
      ],
      "name": "pool_redeem_tokenAmount",
      "outputs": [
        {
          "internalType": "uint256",
          "name": "",
          "type": "uint256"
        }
      ],
      "stateMutability": "view",
      "type": "function"
    },
    {
      "inputs": [
        {
          "internalType": "address",
          "name": "",
          "type": "address"
        },
        {
          "internalType": "uint256",
          "name": "",
          "type": "uint256"
        }
      ],
      "name": "pool_redeem_tokenList",
      "outputs": [
        {
          "internalType": "address",
          "name": "",
          "type": "address"
        }
      ],
      "stateMutability": "view",
      "type": "function"
    },
    {
      "inputs": [
        {
          "internalType": "address",
          "name": "kol",
          "type": "address"
        },
        {
          "internalType": "address",
          "name": "user",
          "type": "address"
        },
        {
          "internalType": "address[]",
          "name": "poolTokens",
          "type": "address[]"
        },
        {
          "internalType": "uint256[]",
          "name": "tokensAmount",
          "type": "uint256[]"
        }
      ],
      "name": "recordTokenInfo",
      "outputs": [],
      "stateMutability": "nonpayable",
      "type": "function"
    },
    {
      "inputs": [
        {
          "internalType": "address",
          "name": "",
          "type": "address"
        },
        {
          "internalType": "uint256",
          "name": "",
          "type": "uint256"
        }
      ],
      "name": "record_List",
      "outputs": [
        {
          "internalType": "uint256",
          "name": "time",
          "type": "uint256"
        }
      ],
      "stateMutability": "view",
      "type": "function"
    },
    {
      "inputs": [
        {
          "internalType": "address",
          "name": "",
          "type": "address"
        }
      ],
      "name": "record_number",
      "outputs": [
        {
          "internalType": "uint256",
          "name": "",
          "type": "uint256"
        }
      ],
      "stateMutability": "view",
      "type": "function"
    },
    {
      "inputs": [
        {
          "internalType": "address",
          "name": "owner",
          "type": "address"
        }
      ],
      "name": "removeOwner",
      "outputs": [],
      "stateMutability": "nonpayable",
      "type": "function"
    },
    {
      "inputs": [
        {
          "internalType": "address",
          "name": "newOwner",
          "type": "address"
        },
        {
          "internalType": "uint256",
          "name": "_ownerPercentage",
          "type": "uint256"
        }
      ],
      "name": "setAddAdminList",
      "outputs": [],
      "stateMutability": "nonpayable",
      "type": "function"
    },
    {
      "inputs": [
        {
          "internalType": "address",
          "name": "pool",
          "type": "address"
        },
        {
          "internalType": "bool",
          "name": "bools",
          "type": "bool"
        }
      ],
      "name": "setBlackList",
      "outputs": [],
      "stateMutability": "nonpayable",
      "type": "function"
    },
    {
      "inputs": [
        {
          "internalType": "address",
          "name": "newOwner",
          "type": "address"
        }
      ],
      "name": "setController",
      "outputs": [],
      "stateMutability": "nonpayable",
      "type": "function"
    },
    {
      "inputs": [
        {
          "internalType": "address",
          "name": "adr",
          "type": "address"
        }
      ],
      "name": "setCrpFactory",
      "outputs": [],
      "stateMutability": "nonpayable",
      "type": "function"
    },
    {
      "inputs": [
        {
          "internalType": "address",
          "name": "pool",
          "type": "address"
        },
        {
          "components": [
            {
              "components": [
                {
                  "components": [
                    {
                      "internalType": "uint256",
                      "name": "level",
                      "type": "uint256"
                    },
                    {
                      "internalType": "uint256",
                      "name": "ratio",
                      "type": "uint256"
                    }
                  ],
                  "internalType": "struct SmartPoolManager.levelParams",
                  "name": "firstLevel",
                  "type": "tuple"
                },
                {
                  "components": [
                    {
                      "internalType": "uint256",
                      "name": "level",
                      "type": "uint256"
                    },
                    {
                      "internalType": "uint256",
                      "name": "ratio",
                      "type": "uint256"
                    }
                  ],
                  "internalType": "struct SmartPoolManager.levelParams",
                  "name": "secondLevel",
                  "type": "tuple"
                },
                {
                  "components": [
                    {
                      "internalType": "uint256",
                      "name": "level",
                      "type": "uint256"
                    },
                    {
                      "internalType": "uint256",
                      "name": "ratio",
                      "type": "uint256"
                    }
                  ],
                  "internalType": "struct SmartPoolManager.levelParams",
                  "name": "thirdLevel",
                  "type": "tuple"
                },
                {
                  "components": [
                    {
                      "internalType": "uint256",
                      "name": "level",
                      "type": "uint256"
                    },
                    {
                      "internalType": "uint256",
                      "name": "ratio",
                      "type": "uint256"
                    }
                  ],
                  "internalType": "struct SmartPoolManager.levelParams",
                  "name": "fourLevel",
                  "type": "tuple"
                }
              ],
              "internalType": "struct SmartPoolManager.feeParams",
              "name": "managerFee",
              "type": "tuple"
            },
            {
              "components": [
                {
                  "components": [
                    {
                      "internalType": "uint256",
                      "name": "level",
                      "type": "uint256"
                    },
                    {
                      "internalType": "uint256",
                      "name": "ratio",
                      "type": "uint256"
                    }
                  ],
                  "internalType": "struct SmartPoolManager.levelParams",
                  "name": "firstLevel",
                  "type": "tuple"
                },
                {
                  "components": [
                    {
                      "internalType": "uint256",
                      "name": "level",
                      "type": "uint256"
                    },
                    {
                      "internalType": "uint256",
                      "name": "ratio",
                      "type": "uint256"
                    }
                  ],
                  "internalType": "struct SmartPoolManager.levelParams",
                  "name": "secondLevel",
                  "type": "tuple"
                },
                {
                  "components": [
                    {
                      "internalType": "uint256",
                      "name": "level",
                      "type": "uint256"
                    },
                    {
                      "internalType": "uint256",
                      "name": "ratio",
                      "type": "uint256"
                    }
                  ],
                  "internalType": "struct SmartPoolManager.levelParams",
                  "name": "thirdLevel",
                  "type": "tuple"
                },
                {
                  "components": [
                    {
                      "internalType": "uint256",
                      "name": "level",
                      "type": "uint256"
                    },
                    {
                      "internalType": "uint256",
                      "name": "ratio",
                      "type": "uint256"
                    }
                  ],
                  "internalType": "struct SmartPoolManager.levelParams",
                  "name": "fourLevel",
                  "type": "tuple"
                }
              ],
              "internalType": "struct SmartPoolManager.feeParams",
              "name": "issueFee",
              "type": "tuple"
            },
            {
              "components": [
                {
                  "components": [
                    {
                      "internalType": "uint256",
                      "name": "level",
                      "type": "uint256"
                    },
                    {
                      "internalType": "uint256",
                      "name": "ratio",
                      "type": "uint256"
                    }
                  ],
                  "internalType": "struct SmartPoolManager.levelParams",
                  "name": "firstLevel",
                  "type": "tuple"
                },
                {
                  "components": [
                    {
                      "internalType": "uint256",
                      "name": "level",
                      "type": "uint256"
                    },
                    {
                      "internalType": "uint256",
                      "name": "ratio",
                      "type": "uint256"
                    }
                  ],
                  "internalType": "struct SmartPoolManager.levelParams",
                  "name": "secondLevel",
                  "type": "tuple"
                },
                {
                  "components": [
                    {
                      "internalType": "uint256",
                      "name": "level",
                      "type": "uint256"
                    },
                    {
                      "internalType": "uint256",
                      "name": "ratio",
                      "type": "uint256"
                    }
                  ],
                  "internalType": "struct SmartPoolManager.levelParams",
                  "name": "thirdLevel",
                  "type": "tuple"
                },
                {
                  "components": [
                    {
                      "internalType": "uint256",
                      "name": "level",
                      "type": "uint256"
                    },
                    {
                      "internalType": "uint256",
                      "name": "ratio",
                      "type": "uint256"
                    }
                  ],
                  "internalType": "struct SmartPoolManager.levelParams",
                  "name": "fourLevel",
                  "type": "tuple"
                }
              ],
              "internalType": "struct SmartPoolManager.feeParams",
              "name": "redeemFee",
              "type": "tuple"
            },
            {
              "components": [
                {
                  "components": [
                    {
                      "internalType": "uint256",
                      "name": "level",
                      "type": "uint256"
                    },
                    {
                      "internalType": "uint256",
                      "name": "ratio",
                      "type": "uint256"
                    }
                  ],
                  "internalType": "struct SmartPoolManager.levelParams",
                  "name": "firstLevel",
                  "type": "tuple"
                },
                {
                  "components": [
                    {
                      "internalType": "uint256",
                      "name": "level",
                      "type": "uint256"
                    },
                    {
                      "internalType": "uint256",
                      "name": "ratio",
                      "type": "uint256"
                    }
                  ],
                  "internalType": "struct SmartPoolManager.levelParams",
                  "name": "secondLevel",
                  "type": "tuple"
                },
                {
                  "components": [
                    {
                      "internalType": "uint256",
                      "name": "level",
                      "type": "uint256"
                    },
                    {
                      "internalType": "uint256",
                      "name": "ratio",
                      "type": "uint256"
                    }
                  ],
                  "internalType": "struct SmartPoolManager.levelParams",
                  "name": "thirdLevel",
                  "type": "tuple"
                },
                {
                  "components": [
                    {
                      "internalType": "uint256",
                      "name": "level",
                      "type": "uint256"
                    },
                    {
                      "internalType": "uint256",
                      "name": "ratio",
                      "type": "uint256"
                    }
                  ],
                  "internalType": "struct SmartPoolManager.levelParams",
                  "name": "fourLevel",
                  "type": "tuple"
                }
              ],
              "internalType": "struct SmartPoolManager.feeParams",
              "name": "perfermanceFee",
              "type": "tuple"
            }
          ],
          "internalType": "struct SmartPoolManager.KolPoolParams",
          "name": "_poolParams",
          "type": "tuple"
        }
      ],
      "name": "setPoolParams",
      "outputs": [],
      "stateMutability": "nonpayable",
      "type": "function"
    },
    {
      "inputs": [
        {
          "internalType": "address",
          "name": "adr",
          "type": "address"
        }
      ],
      "name": "setVaultAdr",
      "outputs": [],
      "stateMutability": "nonpayable",
      "type": "function"
    },
    {
      "inputs": [],
      "name": "total_ratio",
      "outputs": [
        {
          "internalType": "uint256",
          "name": "",
          "type": "uint256"
        }
      ],
      "stateMutability": "view",
      "type": "function"
    },
    {
      "inputs": [
        {
          "internalType": "address",
          "name": "",
          "type": "address"
        },
        {
          "internalType": "address",
          "name": "",
          "type": "address"
        }
      ],
      "name": "user_index_list",
      "outputs": [
        {
          "internalType": "uint256",
          "name": "",
          "type": "uint256"
        }
      ],
      "stateMutability": "view",
      "type": "function"
    },
    {
      "inputs": [
        {
          "internalType": "address",
          "name": "",
          "type": "address"
        },
        {
          "internalType": "address",
          "name": "",
          "type": "address"
        }
      ],
      "name": "user_kol_list",
      "outputs": [
        {
          "internalType": "address",
          "name": "",
          "type": "address"
        }
      ],
      "stateMutability": "view",
      "type": "function"
    },
    {
      "inputs": [],
      "name": "vaultAddress",
      "outputs": [
        {
          "internalType": "address",
          "name": "",
          "type": "address"
        }
      ],
      "stateMutability": "view",
      "type": "function"
    },
    {
      "stateMutability": "payable",
      "type": "receive"
    }
  ],
  "transactionHash": "0x2d3c6acc3ae9a6a6c1535eff1fd48d3b5a022b6f9a284139d3dd5569cdebd035",
  "args": [],
  "numDeployments": 1,
  "solcInputHash": "848d7f24244776f3bd5955430eb8d847",
  "bytecode": "0x60806040526064601e5534801561001557600080fd5b50600080546001600160a01b03191633179055614f53806100376000396000f3fe60806040526004361061033e5760003560e01c806379f66374116101b3578063c5318d0f116100f3578063c5318d0f146109b7578063c90361dd146109d7578063cf4fe635146109f7578063d29986c114610a24578063d6b485a514610a39578063d7256c7014610a59578063d832839014610a79578063de7f302214610a99578063e0bea5ac14610ab9578063e65065d914610ad9578063e9c6931914610af9578063ebef44d914610b19578063ec7a4b5214610b39578063ed6aa3af14610b59578063ed76f94914610b79578063edbfb5f514610b99578063edd104a014610bb9578063f36ed92814610bd957610345565b806379f66374146107a25780638f799e12146107c25780639155dae7146107e257806392a0bb631461080257806392eefe9b14610822578063992f6ba514610842578063a0e67e2b14610862578063a5168ee214610877578063a97f9f3314610897578063a9884df4146108b7578063bbb6e808146108d7578063bc15c840146108f7578063bd0011c214610917578063bdac429814610937578063c0fcb16614610957578063c1e5762214610977578063c3e4d04f1461099757610345565b8063334a5d961161027e578063334a5d96146105955780633eedcfa0146105b55780633ef14479146105d557806341c65e83146105f5578063430bf08a146106155780634660c5a51461062a57806346bead891461064a5780634b414ab51461066a5780634bbe2fca1461068a5780634da38416146106aa578063528b5853146106ca578063549d9f60146106ea57806358d2dbf01461071a57806368092bd91461073a5780636936674d1461075a57806378a619de1461077a57806378c32a4b1461078257610345565b8063025e7c271461034a57806303a68ecb146103805780630b83e629146103ad5780630e99089c146103da57806311e1532a146103fa5780631374aaf01461041a578063154726b21461042f5780631556523a1461044f578063173825d91461047c5780631a46506e1461049e5780631eae039c146104be57806327304dfd146104de5780632b5230a9146104fe5780632c0bdbcf1461051e5780632c7c1bb51461054b5780633018205f1461056b578063309a042c1461058057610345565b3661034557005b600080fd5b34801561035657600080fd5b5061036a6103653660046149e2565b610bf9565b6040516103779190614a9a565b60405180910390f35b34801561038c57600080fd5b506103a061039b36600461467b565b610c20565b6040516103779190614eac565b3480156103b957600080fd5b506103cd6103c83660046145b2565b610c5b565b6040516103779190614b8e565b3480156103e657600080fd5b506103a06103f536600461457a565b610cd5565b34801561040657600080fd5b506103a061041536600461457a565b610e30565b34801561042657600080fd5b506103a0610e4d565b34801561043b57600080fd5b506103a061044a3660046145b2565b610e53565b34801561045b57600080fd5b5061046f61046a36600461457a565b610e9c565b6040516103779190614ba1565b34801561048857600080fd5b5061049c61049736600461457a565b610eb1565b005b3480156104aa57600080fd5b506103cd6104b936600461457a565b61109c565b3480156104ca57600080fd5b5061049c6104d936600461467b565b611108565b3480156104ea57600080fd5b5061046f6104f936600461457a565b6111b8565b34801561050a57600080fd5b506103cd61051936600461457a565b6111cd565b34801561052a57600080fd5b5061053e61053936600461457a565b611237565b6040516103779190614ac7565b34801561055757600080fd5b506103a06105663660046145b2565b6112ac565b34801561057757600080fd5b5061036a6112c9565b34801561058c57600080fd5b506103cd6112d8565b3480156105a157600080fd5b506103a06105b0366004614779565b611330565b3480156105c157600080fd5b506103a06105d03660046145b2565b61135e565b3480156105e157600080fd5b5061049c6105f0366004614881565b61137b565b34801561060157600080fd5b5061053e61061036600461457a565b61146d565b34801561062157600080fd5b5061036a6114e1565b34801561063657600080fd5b5061049c6106453660046146e8565b6114f0565b34801561065657600080fd5b506103a06106653660046145b2565b611733565b34801561067657600080fd5b5061036a610685366004614779565b611930565b34801561069657600080fd5b506103a06106a5366004614779565b611965565b3480156106b657600080fd5b5061053e6106c536600461457a565b611982565b3480156106d657600080fd5b506103a06106e536600461457a565b6119f6565b3480156106f657600080fd5b5061070a61070536600461457a565b611a08565b6040516103779493929190614e73565b34801561072657600080fd5b5061036a6107353660046145b2565b611bf0565b34801561074657600080fd5b5061049c6107553660046146bb565b611c1a565b34801561076657600080fd5b5061049c61077536600461457a565b611c6f565b61049c612044565b34801561078e57600080fd5b5061036a61079d366004614779565b61209d565b3480156107ae57600080fd5b5061036a6107bd3660046145b2565b6120b6565b3480156107ce57600080fd5b506103a06107dd3660046145b2565b6120dc565b3480156107ee57600080fd5b5061049c6107fd3660046147a4565b6120f9565b34801561080e57600080fd5b5061046f61081d36600461457a565b612266565b34801561082e57600080fd5b5061049c61083d36600461457a565b61227b565b34801561084e57600080fd5b5061049c61085d366004614779565b612326565b34801561086e57600080fd5b5061053e61244f565b34801561088357600080fd5b506103cd61089236600461457a565b6124b0565b3480156108a357600080fd5b506103cd6108b236600461457a565b61251a565b3480156108c357600080fd5b506103a06108d2366004614779565b612584565b3480156108e357600080fd5b5061036a6108f236600461467b565b61259d565b34801561090357600080fd5b5061036a610912366004614779565b6125e4565b34801561092357600080fd5b5061046f61093236600461457a565b6125fd565b34801561094357600080fd5b506103a0610952366004614779565b612612565b34801561096357600080fd5b5061046f61097236600461457a565b61262b565b34801561098357600080fd5b5061049c61099236600461457a565b612649565b3480156109a357600080fd5b5061036a6109b236600461457a565b612695565b3480156109c357600080fd5b506103a06109d23660046149e2565b6126b0565b3480156109e357600080fd5b5061053e6109f236600461457a565b6126ce565b348015610a0357600080fd5b50610a17610a123660046145b2565b612742565b6040516103779190614b14565b348015610a3057600080fd5b506103a0612827565b348015610a4557600080fd5b5061049c610a5436600461457a565b61282d565b348015610a6557600080fd5b5061049c610a743660046145ea565b6128ca565b348015610a8557600080fd5b5061036a610a94366004614779565b612df4565b348015610aa557600080fd5b5061053e610ab436600461457a565b612e0d565b348015610ac557600080fd5b5061036a610ad4366004614779565b612e81565b348015610ae557600080fd5b506103a0610af43660046145b2565b612e9a565b348015610b0557600080fd5b506103a0610b1436600461467b565b612f7d565b348015610b2557600080fd5b5061053e610b3436600461457a565b6133b9565b348015610b4557600080fd5b506103a0610b543660046145b2565b61342d565b348015610b6557600080fd5b5061049c610b7436600461457a565b61346a565b348015610b8557600080fd5b506103a0610b94366004614779565b613774565b348015610ba557600080fd5b506103a0610bb436600461457a565b61378d565b348015610bc557600080fd5b5061036a610bd4366004614779565b61379f565b348015610be557600080fd5b506103a0610bf436600461457a565b6137b8565b60028181548110610c0657fe5b6000918252602090912001546001600160a01b0316905081565b60186020528260005260406000206020528160005260406000208181548110610c4557fe5b9060005260206000200160009250925050505481565b6001600160a01b038083166000908152601860209081526040808320938516835292815290829020805483518184028101840190945280845260609392830182828015610cc757602002820191906000526020600020905b815481526020019060010190808311610cb3575b505050505090505b92915050565b6001600160a01b038116600090815260086020526040812054610cf9576000610d28565b6001600160a01b03821660009081526008602052604081208054909190610d1c57fe5b90600052602060002001545b6001600160a01b0383166000908152600a6020526040902054910190610d4f576000610d7e565b6001600160a01b0382166000908152600a602052604081208054909190610d7257fe5b90600052602060002001545b6001600160a01b0383166000908152600c6020526040902054910190610da5576000610dd4565b6001600160a01b0382166000908152600c602052604081208054909190610dc857fe5b90600052602060002001545b6001600160a01b0383166000908152600e6020526040902054910190610dfb576000610e2a565b6001600160a01b0382166000908152600e602052604081208054909190610e1e57fe5b90600052602060002001545b01919050565b6000610ccf610e3e836137b8565b610e4784610cd5565b90613867565b601e5481565b600080610e608484612e9a565b6001600160a01b03808616600090815260176020908152604080832093881683529290522054909150610e938282613867565b95945050505050565b601c6020526000908152604090205460ff1681565b6000546001600160a01b03163314610ee45760405162461bcd60e51b8152600401610edb90614bff565b60405180910390fd5b6001600160a01b0381166000908152600160205260408120805460ff19169055805b60025481101561100857826001600160a01b031660028281548110610f2757fe5b6000918252602090912001546001600160a01b0316141561100057600280546000198101908110610f5457fe5b600091825260209091200154600280546001600160a01b039092169183908110610f7a57fe5b9060005260206000200160006101000a8154816001600160a01b0302191690836001600160a01b0316021790555060038181548110610fb557fe5b90600052602060002001549150600360016003805490500381548110610fd757fe5b906000526020600020015460038281548110610fef57fe5b600091825260209091200155611008565b600101610f06565b50600280548061101457fe5b600082815260209020810160001990810180546001600160a01b0319169055019055600380548061104157fe5b600082815260208120820160001990810182905590910190915560048054839003905560405182916001600160a01b038516917f7b0884b4b6bb4e0c1385ad42168fa556c14d4d799c1bf22f081aff3efff6ea0c9190a35050565b6001600160a01b0381166000908152600e60209081526040918290208054835181840281018401909452808452606093928301828280156110fc57602002820191906000526020600020905b8154815260200190600101908083116110e8575b50505050509050919050565b6000546001600160a01b031633146111325760405162461bcd60e51b8152600401610edb90614bff565b60405163a9059cbb60e01b81526001600160a01b0384169063a9059cbb906111609085908590600401614aae565b602060405180830381600087803b15801561117a57600080fd5b505af115801561118e573d6000803e3d6000fd5b505050506040513d601f19601f820116820180604052508101906111b291906149c6565b50505050565b60016020526000908152604090205460ff1681565b6001600160a01b0381166000908152600c60209081526040918290208054835181840281018401909452808452606093928301828280156110fc57602002820191906000526020600020908154815260200190600101908083116110e85750505050509050919050565b6001600160a01b0381166000908152600b60209081526040918290208054835181840281018401909452808452606093928301828280156110fc57602002820191906000526020600020905b81546001600160a01b031681526001909101906020018083116112835750505050509050919050565b601960209081526000928352604080842090915290825290205481565b6000546001600160a01b031690565b6060600380548060200260200160405190810160405280929190818152602001828054801561132657602002820191906000526020600020905b815481526020019060010190808311611312575b5050505050905090565b6008602052816000526040600020818154811061134957fe5b90600052602060002001600091509150505481565b601760209081526000928352604080842090915290825290205481565b6000546001600160a01b031633146113a55760405162461bcd60e51b8152600401610edb90614bff565b80518251146113c65760405162461bcd60e51b8152600401610edb90614d00565b60005b8251811015611440578181815181106113de57fe5b6020026020010151600460008282540192505081905550600180600085848151811061140657fe5b6020908102919091018101516001600160a01b03168252810191909152604001600020805460ff19169115159190911790556001016113c9565b508151611454906002906020850190614265565b5080516114689060039060208401906142ca565b505050565b6001600160a01b0381166000908152600d60209081526040918290208054835181840281018401909452808452606093928301828280156110fc576020028201919060005260206000209081546001600160a01b031681526001909101906020018083116112835750505050509050919050565b601f546001600160a01b031681565b600554604051636e0cf42160e11b81526001600160a01b039091169063dc19e84290611520908590600401614a9a565b60206040518083038186803b15801561153857600080fd5b505afa15801561154c573d6000803e3d6000fd5b505050506040513d601f19601f8201168201806040525081019061157091906149c6565b61158c5760405162461bcd60e51b8152600401610edb90614d20565b6001600160a01b0382166000908152601c602052604090205460ff16156115c55760405162461bcd60e51b8152600401610edb90614d8a565b6001600160a01b039091166000908152601c60208181526040808420805460ff19166001908117909155601d808452948290208651805180518355850151928201929092558184015180516002830155840151600382015581830151805160048301558401516005820155606091820151805160068301558401516007820155868401518051805160088401558501516009830155808501518051600a840155850151600b830155808401518051600c840155850151600d8301558201518051600e830155840151600f8201558683015180518051601084015585015160118301558085015180516012840155850151601383015580840151805160148401558501516015830155820151805160168301558401516017820155958101518051805160188901558401516019880155808401518051601a890155840151601b8801559182015180519487019490945592820151938501939093559101518051601e8401550151601f90910155565b60008061173f84610e30565b90506060846001600160a01b031663a0e67e2b6040518163ffffffff1660e01b815260040160006040518083038186803b15801561177c57600080fd5b505afa158015611790573d6000803e3d6000fd5b505050506040513d6000823e601f3d908101601f191682016040526117b891908101906147e9565b90506060856001600160a01b031663309a042c6040518163ffffffff1660e01b815260040160006040518083038186803b1580156117f557600080fd5b505afa158015611809573d6000803e3d6000fd5b505050506040513d6000823e601f3d908101601f191682016040526118319190810190614943565b90506000866001600160a01b031663d29986c16040518163ffffffff1660e01b815260040160206040518083038186803b15801561186e57600080fd5b505afa158015611882573d6000803e3d6000fd5b505050506040513d601f19601f820116820180604052508101906118a691906149fa565b905060005b8351811015611925578381815181106118c057fe5b60200260200101516001600160a01b0316876001600160a01b0316141561191d576119118261190b8584815181106118f457fe5b6020026020010151886138a990919063ffffffff16565b906138e3565b95505050505050610ccf565b6001016118ab565b505050505092915050565b600b602052816000526040600020818154811061194957fe5b6000918252602090912001546001600160a01b03169150829050565b601260209081526000928352604080842090915290825290205481565b6001600160a01b0381166000908152601360209081526040918290208054835181840281018401909452808452606093928301828280156110fc576020028201919060005260206000209081546001600160a01b031681526001909101906020018083116112835750505050509050919050565b60156020526000908152604090205481565b601d60208181526000928352604092839020835160c0808201865282546080808401918252600185015460a080860191909152918452875180890189526002860154815260038601548188015284870152875180890189526004860154815260058601548188015284890152875180890189526006860154815260078601548188015260608086019190915288518085018a52600887015481840190815260098801548286015281528951808b018b52600a8801548152600b880154818a0152818901528951808b018b52600c8801548152600d880154818a0152818b01528951808b018b52600e8801548152600f880154818a01528183015289518086018b52601088015481850190815260118901548287015281528a51808c018c52601289015481526013890154818b0152818a01528a51808c018c52601489015481526015890154818b0152818c01528a51808c018c52601689015481526017890154818b0152818401528a519586018b5260188801549386019384526019880154948601949094529184528851808a018a52601a8701548152601b87015481890152848801528851808a018a52601c87015481529786015488880152838901979097528751808901909852601e8501548852601f9094015494870194909452938401949094529184565b6001600160a01b039182166000908152601a60209081526040808320938516835292905220541690565b6000546001600160a01b03163314611c445760405162461bcd60e51b8152600401610edb90614bff565b6001600160a01b03919091166000908152601060205260409020805460ff1916911515919091179055565b601f5460405163edb12adf60e01b81526001600160a01b039091169063edb12adf90611c9f908490600401614a9a565b600060405180830381600087803b158015611cb957600080fd5b505af1925050508015611cca575060015b50600554604051636e0cf42160e11b81526001600160a01b039091169063dc19e84290611cfb908490600401614a9a565b60206040518083038186803b158015611d1357600080fd5b505afa158015611d27573d6000803e3d6000fd5b505050506040513d601f19601f82011682018060405250810190611d4b91906149c6565b611d675760405162461bcd60e51b8152600401610edb90614d20565b806001600160a01b0316635468d6d76040518163ffffffff1660e01b815260040160206040518083038186803b158015611da057600080fd5b505afa158015611db4573d6000803e3d6000fd5b505050506040513d601f19601f82011682018060405250810190611dd891906149c6565b611df45760405162461bcd60e51b8152600401610edb90614e18565b6000611e008233610e53565b905060008111611e225760405162461bcd60e51b8152600401610edb90614df4565b6001600160a01b0382166000908152601760209081526040808320338085529252909120805483019055611e5590613922565b15611f90576001600160a01b03821660009081526013602052604081208054909190611e7d57fe5b9060005260206000200160009054906101000a90046001600160a01b03166001600160a01b031663a9059cbb336001600160a01b0316638da5cb5b6040518163ffffffff1660e01b815260040160206040518083038186803b158015611ee257600080fd5b505afa158015611ef6573d6000803e3d6000fd5b505050506040513d601f19601f82011682018060405250810190611f1a9190614596565b836040518363ffffffff1660e01b8152600401611f38929190614aae565b602060405180830381600087803b158015611f5257600080fd5b505af1158015611f66573d6000803e3d6000fd5b505050506040513d601f19601f82011682018060405250810190611f8a91906149c6565b50612040565b6001600160a01b03821660009081526013602052604081208054909190611fb357fe5b60009182526020909120015460405163a9059cbb60e01b81526001600160a01b039091169063a9059cbb90611fee9033908590600401614aae565b602060405180830381600087803b15801561200857600080fd5b505af115801561201c573d6000803e3d6000fd5b505050506040513d601f19601f8201168201806040525081019061146891906149c6565b5050565b6000546001600160a01b0316331461206e5760405162461bcd60e51b8152600401610edb90614bff565b60405133904780156108fc02916000818181858888f1935050505015801561209a573d6000803e3d6000fd5b50565b6007602052816000526040600020818154811061194957fe5b601a6020908152600092835260408084209091529082529020546001600160a01b031681565b601660209081526000928352604080842090915290825290205481565b601f546001600160a01b031633146121235760405162461bcd60e51b8152600401610edb90614bff565b8281146121425760405162461bcd60e51b8152600401610edb90614d49565b6001600160a01b0386811660009081526006602052604090205416612204576000866001600160a01b0316633018205f6040518163ffffffff1660e01b815260040160206040518083038186803b15801561219c57600080fd5b505afa1580156121b0573d6000803e3d6000fd5b505050506040513d601f19601f820116820180604052508101906121d49190614596565b6001600160a01b0380891660009081526006602052604090208054919092166001600160a01b0319909116179055505b606080612211888861395b565b91509150606080612227888888888e8989613d25565b915091506122378a8a8484613f89565b5050506001600160a01b039096166000908152600f60205260409020805460ff19166001179055505050505050565b600f6020526000908152604090205460ff1681565b6000546001600160a01b031633146122a55760405162461bcd60e51b8152600401610edb90614bff565b6001600160a01b0381166122cb5760405162461bcd60e51b8152600401610edb90614cb3565b600080546040516001600160a01b03808516939216917f8be0079c531659141344cd1fd0a4f28419497f9722a3daafe3b4186f6b6457e091a3600080546001600160a01b0319166001600160a01b0392909216919091179055565b6000546001600160a01b031633146123505760405162461bcd60e51b8152600401610edb90614bff565b6001600160a01b03821660009081526001602052604090205460ff16156123895760405162461bcd60e51b8152600401610edb90614c89565b6001600160a01b0382166000818152600160208190526040808320805460ff191683179055600280548084019091557f405787fa12a823e0f2b7631cc41b3ba8828b3321ca811111fa75cd3aa3bb5ace0180546001600160a01b0319168517905560038054928301815583527fc2575a0e9e593c00f959f8c92f12db2869c3395a3b0502d05e2516446f71f85b9091018490556004805485019055518392917fbd5dcf0b25226117c4a68a0129ffdd4b0541ef5e482ad7de9a96ccb6d6a8ebde91a35050565b6060600280548060200260200160405190810160405280929190818152602001828054801561132657602002820191906000526020600020905b81546001600160a01b03168152600190910190602001808311612489575050505050905090565b6001600160a01b0381166000908152600a60209081526040918290208054835181840281018401909452808452606093928301828280156110fc57602002820191906000526020600020908154815260200190600101908083116110e85750505050509050919050565b6001600160a01b0381166000908152600860209081526040918290208054835181840281018401909452808452606093928301828280156110fc57602002820191906000526020600020908154815260200190600101908083116110e85750505050509050919050565b600a602052816000526040600020818154811061134957fe5b601b60205282600052604060002060205281600052604060002081815481106125c257fe5b60009182526020909120600290910201546001600160a01b0316925083915050565b6009602052816000526040600020818154811061194957fe5b60106020526000908152604090205460ff1681565b600e602052816000526040600020818154811061134957fe5b6001600160a01b03166000908152600f602052604090205460ff1690565b6000546001600160a01b031633146126735760405162461bcd60e51b8152600401610edb90614bff565b600580546001600160a01b0319166001600160a01b0392909216919091179055565b6006602052600090815260409020546001600160a01b031681565b600381815481106126bd57fe5b600091825260209091200154905081565b6001600160a01b0381166000908152601460209081526040918290208054835181840281018401909452808452606093928301828280156110fc576020028201919060005260206000209081546001600160a01b031681526001909101906020018083116112835750505050509050919050565b6001600160a01b038083166000908152601b602090815260408083209385168352928152828220805484518184028101840190955280855260609493919290919084015b8282101561281b5760008481526020908190206040805180820182526002860290920180546001600160a01b0316835260018101805483518187028101870190945280845293949193858301939283018282801561280357602002820191906000526020600020905b8154815260200190600101908083116127ef575b50505050508152505081526020019060010190612786565b50505050905092915050565b60045481565b6000546001600160a01b031633146128575760405162461bcd60e51b8152600401610edb90614bff565b6001600160a01b03811661287d5760405162461bcd60e51b8152600401610edb90614c60565b601f80546001600160a01b0319166001600160a01b0383169081179091556040513391907ff5e71cc69e4610808e8e7c9099d63353897264c5dfc4da1a0320395866de497190600090a350565b8281146128e95760405162461bcd60e51b8152600401610edb90614d49565b600554604051636e0cf42160e11b81526001600160a01b039091169063dc19e84290612919903390600401614a9a565b60206040518083038186803b15801561293157600080fd5b505afa158015612945573d6000803e3d6000fd5b505050506040513d601f19601f8201168201806040525081019061296991906149c6565b6129855760405162461bcd60e51b8152600401610edb90614d20565b336000908152601360205260409020546129b5573360009081526013602052604090206129b3908585614311565b505b336000908152601a602090815260408083206001600160a01b0389811685529252909120541680612a415750336000818152601a602090815260408083206001600160a01b038a8116855290835281842080546001600160a01b0319908116928d1692831790915594845260148352908320805460018101825590845291909220018054909216179055855b6001600160a01b038116612a675760405162461bcd60e51b8152600401610edb90614e46565b612a9683836000818110612a7757fe5b3360009081526015602090815260409091205493910201359050614102565b336000908152601560205260409020556060846001600160401b0381118015612abe57600080fd5b50604051908082528060200260200182016040528015612ae8578160200160208202803683370190505b50905060005b85811015612bcf573360009081526018602090815260408083206001600160a01b0387168452909152902054612b4e57848482818110612b2a57fe5b90506020020135828281518110612b3d57fe5b602002602001018181525050612bc7565b3360009081526018602090815260408083206001600160a01b038716845290915290208054612bae919083908110612b8257fe5b9060005260206000200154868684818110612b9957fe5b9050602002013561410290919063ffffffff16565b828281518110612bba57fe5b6020026020010181815250505b600101612aee565b503360009081526018602090815260408083206001600160a01b038616845282529091208251612c01928401906142ca565b50336000818152601b602090815260408083206001600160a01b03878116855290835281842094845260198352818420908c16845290915290205480612d3257612c49614364565b6001600160a01b038a1681526040805160208089028281018201909352888252909189918991829185019084908082843760009201829052506020868101958652885460018082018b558a845292829020885160029092020180546001600160a01b0319166001600160a01b039092169190911781559551805188979650612cd89550928601935001906142ca565b505050828054905060196000336001600160a01b03166001600160a01b0316815260200190815260200160002060008c6001600160a01b03166001600160a01b031681526020019081526020016000208190555050612de8565b336000908152601b602090815260408083206001600160a01b0388168452909152812080546000198401908110612d6557fe5b9060005260206000209060020201905060005b6001820154811015612de557612dc2888883818110612d9357fe5b90506020020135836001018381548110612da957fe5b906000526020600020015461410290919063ffffffff16565b826001018281548110612dd157fe5b600091825260209091200155600101612d78565b50505b50505050505050505050565b600d602052816000526040600020818154811061194957fe5b6001600160a01b0381166000908152600960209081526040918290208054835181840281018401909452808452606093928301828280156110fc576020028201919060005260206000209081546001600160a01b031681526001909101906020018083116112835750505050509050919050565b6013602052816000526040600020818154811061194957fe5b6001600160a01b0380831660009081526018602090815260408083209385168352929052908120548190612ecf579050610ccf565b612ee5612ede85856000612f7d565b8290614102565b9050612ef6612ede85856001612f7d565b9050612f07612ede85856002612f7d565b9050612f18612ede85856003612f7d565b6001600160a01b038086166000908152601560209081526040808320546018835281842094891684529390915281208054939450612f759361190b9290612f5b57fe5b9060005260206000200154846138a990919063ffffffff16565b949350505050565b6001600160a01b0380841660009081526018602090815260408083209386168352929052908120548190612fb2576000612ff0565b6001600160a01b03808616600090815260186020908152604080832093881683529290529081208054909190612fe457fe5b90600052602060002001545b9050612ffa61437c565b506001600160a01b0385166000908152601d602081815260408084208151610140810183528154610100820190815260018301546101208301526080808301918252845180860186526002850154815260038501548188015260a080850191909152855180870187526004860154815260058601548189015260c08086019190915286518088018852600687015481526007870154818a015260e0860152928452855180840187526008860154818401908152600987015482840152815286518088018852600a8701548152600b870154818a01528189015286518088018852600c8701548152600d870154818a01528188015286518088018852600e8701548152600f870154818a015260608281019190915285890191909152865180850188526010870154818501908152601188015482850152815287518089018952601288015481526013880154818b0152818a015287518089018952601488015481526015880154818b01528189015287518089018952601688015481526017880154818b0152818301528588015286519384018752601886015492840192835260198601549184019190915290825284518086018652601a8501548152601b850154818801528287015284518086018652601c85015481529684015487870152818501969096528351808501909452601e8301548452601f909201549383019390935280840191909152918101919091529084613289576001600160a01b0387166000908152600860205260409020541561328457613281601e5461190b613245868660000151614127565b6001600160a01b038b166000908152600860205260408120805490919061326857fe5b90600052602060002001546138a990919063ffffffff16565b90505b6133af565b84600114156132ea576001600160a01b0387166000908152600a60205260409020541561328457613281601e5461190b6132c7868660200151614127565b6001600160a01b038b166000908152600a60205260408120805490919061326857fe5b846002141561334b576001600160a01b0387166000908152600c60205260409020541561328457613281601e5461190b613328868660400151614127565b6001600160a01b038b166000908152600c60205260408120805490919061326857fe5b84600314156133af576001600160a01b0387166000908152600e6020526040902054156133af576133ac601e5461190b613389868660600151614127565b6001600160a01b038b166000908152600e60205260408120805490919061326857fe5b90505b9695505050505050565b6001600160a01b0381166000908152600760209081526040918290208054835181840281018401909452808452606093928301828280156110fc576020028201919060005260206000209081546001600160a01b031681526001909101906020018083116112835750505050509050919050565b6001600160a01b03808316600090815260166020908152604080832093851683529290529081205461346390610e478585611733565b9392505050565b601f5460405163edb12adf60e01b81526001600160a01b039091169063edb12adf9061349a908490600401614a9a565b600060405180830381600087803b1580156134b457600080fd5b505af19250505080156134c5575060015b50600554604051636e0cf42160e11b81526001600160a01b039091169063dc19e842906134f6908490600401614a9a565b60206040518083038186803b15801561350e57600080fd5b505afa158015613522573d6000803e3d6000fd5b505050506040513d601f19601f8201168201806040525081019061354691906149c6565b6135625760405162461bcd60e51b8152600401610edb90614d20565b806001600160a01b0316635468d6d76040518163ffffffff1660e01b815260040160206040518083038186803b15801561359b57600080fd5b505afa1580156135af573d6000803e3d6000fd5b505050506040513d601f19601f820116820180604052508101906135d391906149c6565b6135ef5760405162461bcd60e51b8152600401610edb90614e18565b6040516327304dfd60e01b81526001600160a01b038216906327304dfd9061361b903390600401614a9a565b60206040518083038186803b15801561363357600080fd5b505afa158015613647573d6000803e3d6000fd5b505050506040513d601f19601f8201168201806040525081019061366b91906149c6565b806136f75750336001600160a01b0316816001600160a01b0316633018205f6040518163ffffffff1660e01b815260040160206040518083038186803b1580156136b457600080fd5b505afa1580156136c8573d6000803e3d6000fd5b505050506040513d601f19601f820116820180604052508101906136ec9190614596565b6001600160a01b0316145b6137135760405162461bcd60e51b8152600401610edb90614cdd565b600061371f823361342d565b9050600081116137415760405162461bcd60e51b8152600401610edb90614df4565b6001600160a01b0382166000908152601660209081526040808320338085529252909120805483019055611e5590613922565b600c602052816000526040600020818154811061134957fe5b60116020526000908152604090205481565b6014602052816000526040600020818154811061194957fe5b6001600160a01b0381166000908152601460209081526040808320805482518185028101850190935280835260609383018282801561382057602002820191906000526020600020905b81546001600160a01b03168152600190910190602001808311613802575b505083519394506000925050505b8181101561385f576138538584838151811061384657fe5b6020026020010151612e9a565b9093019260010161382e565b505050919050565b600061346383836040518060400160405280601e81526020017f536166654d6174683a207375627472616374696f6e206f766572666c6f770000815250614202565b6000826138b857506000610ccf565b828202828482816138c557fe5b04146134635760405162461bcd60e51b8152600401610edb90614db3565b600061346383836040518060400160405280601a815260200179536166654d6174683a206469766973696f6e206279207a65726f60301b81525061422e565b6000813f7fc5d2460186f7233c927e7db2dcc703c0e500b653ca82273b7bfad8045d85a470818114801590612f75575050151592915050565b60608082613a4d576001600160a01b038416600090815260076020908152604091829020805483518184028101840190945280845290918301828280156139cb57602002820191906000526020600020905b81546001600160a01b031681526001909101906020018083116139ad575b5050505050915060086000856001600160a01b03166001600160a01b03168152602001908152602001600020805480602002602001604051908101604052809291908181526020018280548015613a4157602002820191906000526020600020905b815481526020019060010190808311613a2d575b50505050509050613d1e565b8260011415613b3e576001600160a01b03841660009081526009602090815260409182902080548351818402810184019094528084529091830182828015613abe57602002820191906000526020600020905b81546001600160a01b03168152600190910190602001808311613aa0575b50505050509150600a6000856001600160a01b03166001600160a01b03168152602001908152602001600020805480602002602001604051908101604052809291908181526020018280548015613a415760200282019190600052602060002090815481526020019060010190808311613a2d5750505050509050613d1e565b8260021415613c2f576001600160a01b0384166000908152600b602090815260409182902080548351818402810184019094528084529091830182828015613baf57602002820191906000526020600020905b81546001600160a01b03168152600190910190602001808311613b91575b50505050509150600c6000856001600160a01b03166001600160a01b03168152602001908152602001600020805480602002602001604051908101604052809291908181526020018280548015613a415760200282019190600052602060002090815481526020019060010190808311613a2d5750505050509050613d1e565b8260031415613d1e576001600160a01b0384166000908152600d602090815260409182902080548351818402810184019094528084529091830182828015613ca057602002820191906000526020600020905b81546001600160a01b03168152600190910190602001808311613c82575b50505050509150600e6000856001600160a01b03166001600160a01b03168152602001908152602001600020805480602002602001604051908101604052809291908181526020018280548015613d1657602002820191906000526020600020905b815481526020019060010190808311613d02575b505050505090505b9250929050565b606080876001600160401b0381118015613d3e57600080fd5b50604051908082528060200260200182016040528015613d68578160200160208202803683370190505b509150876001600160401b0381118015613d8157600080fd5b50604051908082528060200260200182016040528015613dab578160200160208202803683370190505b50905082518451148015613dbe57508351155b80613de257506001600160a01b0385166000908152600f602052604090205460ff16155b15613e775760005b88811015613e7157898982818110613dfe57fe5b9050602002016020810190613e13919061457a565b838281518110613e1f57fe5b60200260200101906001600160a01b031690816001600160a01b031681525050878782818110613e4b57fe5b90506020020135828281518110613e5e57fe5b6020908102919091010152600101613dea565b50613f7d565b60005b88811015613f7b57898982818110613e8e57fe5b9050602002016020810190613ea3919061457a565b6001600160a01b0316858281518110613eb857fe5b60200260200101516001600160a01b03161415613f73576000888883818110613edd57fe5b9050602002013590508a8a83818110613ef257fe5b9050602002016020810190613f07919061457a565b848381518110613f1357fe5b60200260200101906001600160a01b031690816001600160a01b031681525050613f5981868481518110613f4357fe5b602002602001015161410290919063ffffffff16565b838381518110613f6557fe5b602002602001018181525050505b600101613e7a565b505b97509795505050505050565b82613fe7576001600160a01b03841660009081526007602090815260409091208351613fb792850190614265565b506001600160a01b03841660009081526008602090815260409091208251613fe1928401906142ca565b506111b2565b8260011415614043576001600160a01b0384166000908152600960209081526040909120835161401992850190614265565b506001600160a01b0384166000908152600a602090815260409091208251613fe1928401906142ca565b826002141561409f576001600160a01b0384166000908152600b60209081526040909120835161407592850190614265565b506001600160a01b0384166000908152600c602090815260409091208251613fe1928401906142ca565b82600314156111b2576001600160a01b0384166000908152600d6020908152604090912083516140d192850190614265565b506001600160a01b0384166000908152600e6020908152604090912082516140fb928401906142ca565b5050505050565b6000828201838110156134635760405162461bcd60e51b8152600401610edb90614c2b565b6000805b60048110156141fb578061416157825151841080159061414f575060208301515184105b15614161575050805160200151610ccf565b8060011415614197576020830151518410801590614183575060408301515184105b156141975750506020808201510151610ccf565b80600214156141ce5760408301515184108015906141b9575060608301515184105b156141ce575050604081015160200151610ccf565b80600314156141f35760608301515184106141f3575050606081015160200151610ccf565b60010161412b565b5092915050565b600081848411156142265760405162461bcd60e51b8152600401610edb9190614bac565b505050900390565b6000818361424f5760405162461bcd60e51b8152600401610edb9190614bac565b50600083858161425b57fe5b0495945050505050565b8280548282559060005260206000209081019282156142ba579160200282015b828111156142ba57825182546001600160a01b0319166001600160a01b03909116178255602090920191600190910190614285565b506142c69291506143bb565b5090565b828054828255906000526020600020908101928215614305579160200282015b828111156143055782518255916020019190600101906142ea565b506142c69291506143da565b8280548282559060005260206000209081019282156142ba579160200282015b828111156142ba5781546001600160a01b0319166001600160a01b03843516178255602090920191600190910190614331565b60408051808201909152600081526060602082015290565b604051806080016040528061438f6143ef565b815260200161439c6143ef565b81526020016143a96143ef565b81526020016143b66143ef565b905290565b5b808211156142c65780546001600160a01b03191681556001016143bc565b5b808211156142c657600081556001016143db565b6040518060800160405280614402614425565b815260200161440f614425565b815260200161441c614425565b81526020016143b65b604051806040016040528060008152602001600081525090565b60008083601f840112614450578182fd5b5081356001600160401b03811115614466578182fd5b6020830191508360208083028501011115613d1e57600080fd5b600082601f830112614490578081fd5b81356144a361449e82614edb565b614eb5565b8181529150602080830190848101818402860182018710156144c457600080fd5b60005b84811015611925578135845292820192908201906001016144c7565b600061010082840312156144f5578081fd5b6144ff6080614eb5565b905061450b8383614549565b815261451a8360408401614549565b602082015261452c8360808401614549565b604082015261453e8360c08401614549565b606082015292915050565b60006040828403121561455a578081fd5b6145646040614eb5565b9050813581526020820135602082015292915050565b60006020828403121561458b578081fd5b813561346381614efa565b6000602082840312156145a7578081fd5b815161346381614efa565b600080604083850312156145c4578081fd5b82356145cf81614efa565b915060208301356145df81614efa565b809150509250929050565b60008060008060008060808789031215614602578182fd5b863561460d81614efa565b9550602087013561461d81614efa565b945060408701356001600160401b0380821115614638578384fd5b6146448a838b0161443f565b9096509450606089013591508082111561465c578384fd5b5061466989828a0161443f565b979a9699509497509295939492505050565b60008060006060848603121561468f578283fd5b833561469a81614efa565b925060208401356146aa81614efa565b929592945050506040919091013590565b600080604083850312156146cd578182fd5b82356146d881614efa565b915060208301356145df81614f0f565b6000808284036104208112156146fc578283fd5b833561470781614efa565b9250610400601f198201121561471b578182fd5b506147266080614eb5565b61473385602086016144e3565b81526147438561012086016144e3565b60208201526147568561022086016144e3565b60408201526147698561032086016144e3565b6060820152809150509250929050565b6000806040838503121561478b578182fd5b823561479681614efa565b946020939093013593505050565b600080600080600080608087890312156147bc578384fd5b86356147c781614efa565b95506020870135945060408701356001600160401b0380821115614638578586fd5b600060208083850312156147fb578182fd5b82516001600160401b03811115614810578283fd5b8301601f81018513614820578283fd5b805161482e61449e82614edb565b818152838101908385018584028501860189101561484a578687fd5b8694505b8385101561487557805161486181614efa565b83526001949094019391850191850161484e565b50979650505050505050565b60008060408385031215614893578182fd5b82356001600160401b03808211156148a9578384fd5b818501915085601f8301126148bc578384fd5b81356148ca61449e82614edb565b80828252602080830192508086018a8283870289010111156148ea578889fd5b8896505b8487101561491557803561490181614efa565b8452600196909601959281019281016148ee565b50909650870135935050508082111561492c578283fd5b5061493985828601614480565b9150509250929050565b60006020808385031215614955578182fd5b82516001600160401b0381111561496a578283fd5b8301601f8101851361497a578283fd5b805161498861449e82614edb565b81815283810190838501858402850186018910156149a4578687fd5b8694505b838510156148755780518352600194909401939185019185016149a8565b6000602082840312156149d7578081fd5b815161346381614f0f565b6000602082840312156149f3578081fd5b5035919050565b600060208284031215614a0b578081fd5b5051919050565b6000815180845260208085019450808401835b83811015614a4157815187529582019590820190600101614a25565b509495945050505050565b614a57828251614a8b565b6020810151614a696040840182614a8b565b506040810151614a7c6080840182614a8b565b50606081015161146860c08401825b80518252602090810151910152565b6001600160a01b0391909116815260200190565b6001600160a01b03929092168252602082015260400190565b6020808252825182820181905260009190848201906040850190845b81811015614b085783516001600160a01b031683529284019291840191600101614ae3565b50909695505050505050565b60208082528251828201819052600091906040908185019080840286018301878501865b83811015614b8057888303603f19018552815180516001600160a01b03168452870151878401879052614b6d87850182614a12565b9588019593505090860190600101614b38565b509098975050505050505050565b6000602082526134636020830184614a12565b901515815260200190565b6000602080835283518082850152825b81811015614bd857858101830151858201604001528201614bbc565b81811115614be95783604083870101525b50601f01601f1916929092016040019392505050565b60208082526012908201527122a9292fa727aa2fa1a7a72a2927a62622a960711b604082015260600190565b6020808252601b908201527a536166654d6174683a206164646974696f6e206f766572666c6f7760281b604082015260600190565b6020808252600f908201526e41646472657373206973205a65726f60881b604082015260600190565b60208082526010908201526f20b2323932b9b99034b99027bbb732b960811b604082015260600190565b60208082526010908201526f4552525f5a45524f5f4144445245535360801b604082015260600190565b6020808252600990820152682737ba1027bbb732b960b91b604082015260600190565b60208082526006908201526506f776e6572560d41b604082015260600190565b6020808252600f908201526e696e76616c6964206164647265737360881b604082015260600190565b60208082526021908201527f546f6b656e206c697374206c656e677468206973206e6f742065657175616c716040820152607560f81b606082015260800190565b6020808252600f908201526e14185c985b5cc81a5cc81cd95d1959608a1b604082015260600190565b60208082526021908201527f536166654d6174683a206d756c7469706c69636174696f6e206f766572666c6f6040820152607760f81b606082015260800190565b6020808252600a9082015269139bdd0814995dd85c9960b21b604082015260600190565b602080825260149082015273139bdd0810dbdb5c1b195d195910dbdb1b1958dd60621b604082015260600190565b6020808252601390820152726b6f6c2061646472657373206973207a6f726560681b604082015260600190565b6104008101614e828287614a4c565b614e90610100830186614a4c565b614e9e610200830185614a4c565b610e93610300830184614a4c565b90815260200190565b6040518181016001600160401b0381118282101715614ed357600080fd5b604052919050565b60006001600160401b03821115614ef0578081fd5b5060209081020190565b6001600160a01b038116811461209a57600080fd5b801515811461209a57600080fdfea26469706673582212207e6c9bc5574103442bcabc291f51138e3bc298f5657ddb02003272d10cea88c764736f6c634300060c0033",
  "devdoc": {
    "author": "Desyn Labs",
    "kind": "dev",
    "methods": {
      "getController()": {
        "details": "external for gas optimization",
        "returns": {
          "_0": "address - of the owner (AKA controller)"
        }
      },
      "removeOwner(address)": {
        "details": "Allows to remove an owner. Transaction has to be sent by wallet.",
        "params": {
          "owner": "Address of owner."
        }
      },
      "setAddAdminList(address,uint256)": {
        "details": "external for gas optimization",
        "params": {
          "newOwner": "- address of new owner"
        }
      },
      "setController(address)": {
        "details": "external for gas optimization",
        "params": {
          "newOwner": "- address of new owner"
        }
      }
    },
    "title": "Vault managerFee",
    "version": 1
  },
  "userdoc": {
    "kind": "user",
    "methods": {
      "getController()": {
        "notice": "Returns the address of the current owner"
      },
      "setAddAdminList(address,uint256)": {
        "notice": "Transfers ownership of the contract to a new account (`newOwner`).         Can only be called by the current owner"
      },
      "setController(address)": {
        "notice": "Transfers ownership of the contract to a new account (`newOwner`).         Can only be called by the current owner"
      }
    },
    "version": 1
  },
  "storageLayout": {
    "storage": [
      {
        "astId": 17459,
        "contract": "contracts/deploy/UserVault.sol:UserVault",
        "label": "_owner",
        "offset": 0,
        "slot": "0",
        "type": "t_address"
      },
      {
        "astId": 17463,
        "contract": "contracts/deploy/UserVault.sol:UserVault",
        "label": "adminList",
        "offset": 0,
        "slot": "1",
        "type": "t_mapping(t_address,t_bool)"
      },
      {
        "astId": 17466,
        "contract": "contracts/deploy/UserVault.sol:UserVault",
        "label": "owners",
        "offset": 0,
        "slot": "2",
        "type": "t_array(t_address)dyn_storage"
      },
      {
        "astId": 17469,
        "contract": "contracts/deploy/UserVault.sol:UserVault",
        "label": "ownerPercentage",
        "offset": 0,
        "slot": "3",
        "type": "t_array(t_uint256)dyn_storage"
      },
      {
        "astId": 17471,
        "contract": "contracts/deploy/UserVault.sol:UserVault",
        "label": "allOwnerPercentage",
        "offset": 0,
        "slot": "4",
        "type": "t_uint256"
      },
      {
        "astId": 9843,
        "contract": "contracts/deploy/UserVault.sol:UserVault",
        "label": "crpFactory",
        "offset": 0,
        "slot": "5",
        "type": "t_contract(ICRPFactory)9801"
      },
      {
        "astId": 9847,
        "contract": "contracts/deploy/UserVault.sol:UserVault",
        "label": "pool_manager",
        "offset": 0,
        "slot": "6",
        "type": "t_mapping(t_address,t_address)"
      },
      {
        "astId": 9852,
        "contract": "contracts/deploy/UserVault.sol:UserVault",
        "label": "pool_manager_tokenList",
        "offset": 0,
        "slot": "7",
        "type": "t_mapping(t_address,t_array(t_address)dyn_storage)"
      },
      {
        "astId": 9857,
        "contract": "contracts/deploy/UserVault.sol:UserVault",
        "label": "pool_manager_tokenAmount",
        "offset": 0,
        "slot": "8",
        "type": "t_mapping(t_address,t_array(t_uint256)dyn_storage)"
      },
      {
        "astId": 9862,
        "contract": "contracts/deploy/UserVault.sol:UserVault",
        "label": "pool_issue_tokenList",
        "offset": 0,
        "slot": "9",
        "type": "t_mapping(t_address,t_array(t_address)dyn_storage)"
      },
      {
        "astId": 9867,
        "contract": "contracts/deploy/UserVault.sol:UserVault",
        "label": "pool_issue_tokenAmount",
        "offset": 0,
        "slot": "10",
        "type": "t_mapping(t_address,t_array(t_uint256)dyn_storage)"
      },
      {
        "astId": 9872,
        "contract": "contracts/deploy/UserVault.sol:UserVault",
        "label": "pool_redeem_tokenList",
        "offset": 0,
        "slot": "11",
        "type": "t_mapping(t_address,t_array(t_address)dyn_storage)"
      },
      {
        "astId": 9877,
        "contract": "contracts/deploy/UserVault.sol:UserVault",
        "label": "pool_redeem_tokenAmount",
        "offset": 0,
        "slot": "12",
        "type": "t_mapping(t_address,t_array(t_uint256)dyn_storage)"
      },
      {
        "astId": 9882,
        "contract": "contracts/deploy/UserVault.sol:UserVault",
        "label": "pool_perfermance_tokenList",
        "offset": 0,
        "slot": "13",
        "type": "t_mapping(t_address,t_array(t_address)dyn_storage)"
      },
      {
        "astId": 9887,
        "contract": "contracts/deploy/UserVault.sol:UserVault",
        "label": "pool_perfermance_tokenAmount",
        "offset": 0,
        "slot": "14",
        "type": "t_mapping(t_address,t_array(t_uint256)dyn_storage)"
      },
      {
        "astId": 9891,
        "contract": "contracts/deploy/UserVault.sol:UserVault",
        "label": "pool_manager_isClaim",
        "offset": 0,
        "slot": "15",
        "type": "t_mapping(t_address,t_bool)"
      },
      {
        "astId": 9895,
        "contract": "contracts/deploy/UserVault.sol:UserVault",
        "label": "black_list",
        "offset": 0,
        "slot": "16",
        "type": "t_mapping(t_address,t_bool)"
      },
      {
        "astId": 9899,
        "contract": "contracts/deploy/UserVault.sol:UserVault",
        "label": "record_number",
        "offset": 0,
        "slot": "17",
        "type": "t_mapping(t_address,t_uint256)"
      },
      {
        "astId": 9905,
        "contract": "contracts/deploy/UserVault.sol:UserVault",
        "label": "record_List",
        "offset": 0,
        "slot": "18",
        "type": "t_mapping(t_address,t_mapping(t_uint256,t_struct(claimRecordInfo)9841_storage))"
      },
      {
        "astId": 9916,
        "contract": "contracts/deploy/UserVault.sol:UserVault",
        "label": "kol_token_list",
        "offset": 0,
        "slot": "19",
        "type": "t_mapping(t_address,t_array(t_address)dyn_storage)"
      },
      {
        "astId": 9921,
        "contract": "contracts/deploy/UserVault.sol:UserVault",
        "label": "kols_list",
        "offset": 0,
        "slot": "20",
        "type": "t_mapping(t_address,t_array(t_address)dyn_storage)"
      },
      {
        "astId": 9925,
        "contract": "contracts/deploy/UserVault.sol:UserVault",
        "label": "init_totalAmount_list",
        "offset": 0,
        "slot": "21",
        "type": "t_mapping(t_address,t_uint256)"
      },
      {
        "astId": 9931,
        "contract": "contracts/deploy/UserVault.sol:UserVault",
        "label": "manager_claimed_list",
        "offset": 0,
        "slot": "22",
        "type": "t_mapping(t_address,t_mapping(t_address,t_uint256))"
      },
      {
        "astId": 9937,
        "contract": "contracts/deploy/UserVault.sol:UserVault",
        "label": "kol_claimed_list",
        "offset": 0,
        "slot": "23",
        "type": "t_mapping(t_address,t_mapping(t_address,t_uint256))"
      },
      {
        "astId": 9944,
        "contract": "contracts/deploy/UserVault.sol:UserVault",
        "label": "kol_totalAmount_list",
        "offset": 0,
        "slot": "24",
        "type": "t_mapping(t_address,t_mapping(t_address,t_array(t_uint256)dyn_storage))"
      },
      {
        "astId": 9950,
        "contract": "contracts/deploy/UserVault.sol:UserVault",
        "label": "user_index_list",
        "offset": 0,
        "slot": "25",
        "type": "t_mapping(t_address,t_mapping(t_address,t_uint256))"
      },
      {
        "astId": 9956,
        "contract": "contracts/deploy/UserVault.sol:UserVault",
        "label": "user_kol_list",
        "offset": 0,
        "slot": "26",
        "type": "t_mapping(t_address,t_mapping(t_address,t_address))"
      },
      {
        "astId": 9963,
        "contract": "contracts/deploy/UserVault.sol:UserVault",
        "label": "kol_user_info",
        "offset": 0,
        "slot": "27",
        "type": "t_mapping(t_address,t_mapping(t_address,t_array(t_struct(kolUserInfo)9911_storage)dyn_storage))"
      },
      {
        "astId": 9967,
        "contract": "contracts/deploy/UserVault.sol:UserVault",
        "label": "is_set_params",
        "offset": 0,
        "slot": "28",
        "type": "t_mapping(t_address,t_bool)"
      },
      {
        "astId": 9971,
        "contract": "contracts/deploy/UserVault.sol:UserVault",
        "label": "kol_pool_params",
        "offset": 0,
        "slot": "29",
        "type": "t_mapping(t_address,t_struct(KolPoolParams)16494_storage)"
      },
      {
        "astId": 9974,
        "contract": "contracts/deploy/UserVault.sol:UserVault",
        "label": "total_ratio",
        "offset": 0,
        "slot": "30",
        "type": "t_uint256"
      },
      {
        "astId": 9976,
        "contract": "contracts/deploy/UserVault.sol:UserVault",
        "label": "vaultAddress",
        "offset": 0,
        "slot": "31",
        "type": "t_address"
      }
    ],
    "types": {
      "t_address": {
        "encoding": "inplace",
        "label": "address",
        "numberOfBytes": "20"
      },
      "t_array(t_address)dyn_storage": {
        "base": "t_address",
        "encoding": "dynamic_array",
        "label": "address[]",
        "numberOfBytes": "32"
      },
      "t_array(t_struct(claimTokenInfo)9817_storage)dyn_storage": {
        "base": "t_struct(claimTokenInfo)9817_storage",
        "encoding": "dynamic_array",
        "label": "struct UserVault.claimTokenInfo[]",
        "numberOfBytes": "32"
      },
      "t_array(t_struct(kolUserInfo)9911_storage)dyn_storage": {
        "base": "t_struct(kolUserInfo)9911_storage",
        "encoding": "dynamic_array",
        "label": "struct UserVault.kolUserInfo[]",
        "numberOfBytes": "32"
      },
      "t_array(t_uint256)dyn_storage": {
        "base": "t_uint256",
        "encoding": "dynamic_array",
        "label": "uint256[]",
        "numberOfBytes": "32"
      },
      "t_bool": {
        "encoding": "inplace",
        "label": "bool",
        "numberOfBytes": "1"
      },
      "t_contract(ICRPFactory)9801": {
        "encoding": "inplace",
        "label": "contract ICRPFactory",
        "numberOfBytes": "20"
      },
      "t_mapping(t_address,t_address)": {
        "encoding": "mapping",
        "key": "t_address",
        "label": "mapping(address => address)",
        "numberOfBytes": "32",
        "value": "t_address"
      },
      "t_mapping(t_address,t_array(t_address)dyn_storage)": {
        "encoding": "mapping",
        "key": "t_address",
        "label": "mapping(address => address[])",
        "numberOfBytes": "32",
        "value": "t_array(t_address)dyn_storage"
      },
      "t_mapping(t_address,t_array(t_struct(kolUserInfo)9911_storage)dyn_storage)": {
        "encoding": "mapping",
        "key": "t_address",
        "label": "mapping(address => struct UserVault.kolUserInfo[])",
        "numberOfBytes": "32",
        "value": "t_array(t_struct(kolUserInfo)9911_storage)dyn_storage"
      },
      "t_mapping(t_address,t_array(t_uint256)dyn_storage)": {
        "encoding": "mapping",
        "key": "t_address",
        "label": "mapping(address => uint256[])",
        "numberOfBytes": "32",
        "value": "t_array(t_uint256)dyn_storage"
      },
      "t_mapping(t_address,t_bool)": {
        "encoding": "mapping",
        "key": "t_address",
        "label": "mapping(address => bool)",
        "numberOfBytes": "32",
        "value": "t_bool"
      },
      "t_mapping(t_address,t_mapping(t_address,t_address))": {
        "encoding": "mapping",
        "key": "t_address",
        "label": "mapping(address => mapping(address => address))",
        "numberOfBytes": "32",
        "value": "t_mapping(t_address,t_address)"
      },
      "t_mapping(t_address,t_mapping(t_address,t_array(t_struct(kolUserInfo)9911_storage)dyn_storage))": {
        "encoding": "mapping",
        "key": "t_address",
        "label": "mapping(address => mapping(address => struct UserVault.kolUserInfo[]))",
        "numberOfBytes": "32",
        "value": "t_mapping(t_address,t_array(t_struct(kolUserInfo)9911_storage)dyn_storage)"
      },
      "t_mapping(t_address,t_mapping(t_address,t_array(t_uint256)dyn_storage))": {
        "encoding": "mapping",
        "key": "t_address",
        "label": "mapping(address => mapping(address => uint256[]))",
        "numberOfBytes": "32",
        "value": "t_mapping(t_address,t_array(t_uint256)dyn_storage)"
      },
      "t_mapping(t_address,t_mapping(t_address,t_uint256))": {
        "encoding": "mapping",
        "key": "t_address",
        "label": "mapping(address => mapping(address => uint256))",
        "numberOfBytes": "32",
        "value": "t_mapping(t_address,t_uint256)"
      },
      "t_mapping(t_address,t_mapping(t_uint256,t_struct(claimRecordInfo)9841_storage))": {
        "encoding": "mapping",
        "key": "t_address",
        "label": "mapping(address => mapping(uint256 => struct UserVault.claimRecordInfo))",
        "numberOfBytes": "32",
        "value": "t_mapping(t_uint256,t_struct(claimRecordInfo)9841_storage)"
      },
      "t_mapping(t_address,t_struct(KolPoolParams)16494_storage)": {
        "encoding": "mapping",
        "key": "t_address",
        "label": "mapping(address => struct SmartPoolManager.KolPoolParams)",
        "numberOfBytes": "32",
        "value": "t_struct(KolPoolParams)16494_storage"
      },
      "t_mapping(t_address,t_uint256)": {
        "encoding": "mapping",
        "key": "t_address",
        "label": "mapping(address => uint256)",
        "numberOfBytes": "32",
        "value": "t_uint256"
      },
      "t_mapping(t_uint256,t_struct(claimRecordInfo)9841_storage)": {
        "encoding": "mapping",
        "key": "t_uint256",
        "label": "mapping(uint256 => struct UserVault.claimRecordInfo)",
        "numberOfBytes": "32",
        "value": "t_struct(claimRecordInfo)9841_storage"
      },
      "t_struct(KolPoolParams)16494_storage": {
        "encoding": "inplace",
        "label": "struct SmartPoolManager.KolPoolParams",
        "members": [
          {
            "astId": 16487,
            "contract": "contracts/deploy/UserVault.sol:UserVault",
            "label": "managerFee",
            "offset": 0,
            "slot": "0",
            "type": "t_struct(feeParams)16485_storage"
          },
          {
            "astId": 16489,
            "contract": "contracts/deploy/UserVault.sol:UserVault",
            "label": "issueFee",
            "offset": 0,
            "slot": "8",
            "type": "t_struct(feeParams)16485_storage"
          },
          {
            "astId": 16491,
            "contract": "contracts/deploy/UserVault.sol:UserVault",
            "label": "redeemFee",
            "offset": 0,
            "slot": "16",
            "type": "t_struct(feeParams)16485_storage"
          },
          {
            "astId": 16493,
            "contract": "contracts/deploy/UserVault.sol:UserVault",
            "label": "perfermanceFee",
            "offset": 0,
            "slot": "24",
            "type": "t_struct(feeParams)16485_storage"
          }
        ],
        "numberOfBytes": "1024"
      },
      "t_struct(claimRecordInfo)9841_storage": {
        "encoding": "inplace",
        "label": "struct UserVault.claimRecordInfo",
        "members": [
          {
            "astId": 9837,
            "contract": "contracts/deploy/UserVault.sol:UserVault",
            "label": "time",
            "offset": 0,
            "slot": "0",
            "type": "t_uint256"
          },
          {
            "astId": 9840,
            "contract": "contracts/deploy/UserVault.sol:UserVault",
            "label": "tokens",
            "offset": 0,
            "slot": "1",
            "type": "t_array(t_struct(claimTokenInfo)9817_storage)dyn_storage"
          }
        ],
        "numberOfBytes": "64"
      },
      "t_struct(claimTokenInfo)9817_storage": {
        "encoding": "inplace",
        "label": "struct UserVault.claimTokenInfo",
        "members": [
          {
            "astId": 9812,
            "contract": "contracts/deploy/UserVault.sol:UserVault",
            "label": "token",
            "offset": 0,
            "slot": "0",
            "type": "t_address"
          },
          {
            "astId": 9814,
            "contract": "contracts/deploy/UserVault.sol:UserVault",
            "label": "decimals",
            "offset": 0,
            "slot": "1",
            "type": "t_uint256"
          },
          {
            "astId": 9816,
            "contract": "contracts/deploy/UserVault.sol:UserVault",
            "label": "amount",
            "offset": 0,
            "slot": "2",
            "type": "t_uint256"
          }
        ],
        "numberOfBytes": "96"
      },
      "t_struct(feeParams)16485_storage": {
        "encoding": "inplace",
        "label": "struct SmartPoolManager.feeParams",
        "members": [
          {
            "astId": 16478,
            "contract": "contracts/deploy/UserVault.sol:UserVault",
            "label": "firstLevel",
            "offset": 0,
            "slot": "0",
            "type": "t_struct(levelParams)16476_storage"
          },
          {
            "astId": 16480,
            "contract": "contracts/deploy/UserVault.sol:UserVault",
            "label": "secondLevel",
            "offset": 0,
            "slot": "2",
            "type": "t_struct(levelParams)16476_storage"
          },
          {
            "astId": 16482,
            "contract": "contracts/deploy/UserVault.sol:UserVault",
            "label": "thirdLevel",
            "offset": 0,
            "slot": "4",
            "type": "t_struct(levelParams)16476_storage"
          },
          {
            "astId": 16484,
            "contract": "contracts/deploy/UserVault.sol:UserVault",
            "label": "fourLevel",
            "offset": 0,
            "slot": "6",
            "type": "t_struct(levelParams)16476_storage"
          }
        ],
        "numberOfBytes": "256"
      },
      "t_struct(kolUserInfo)9911_storage": {
        "encoding": "inplace",
        "label": "struct UserVault.kolUserInfo",
        "members": [
          {
            "astId": 9907,
            "contract": "contracts/deploy/UserVault.sol:UserVault",
            "label": "userAdr",
            "offset": 0,
            "slot": "0",
            "type": "t_address"
          },
          {
            "astId": 9910,
            "contract": "contracts/deploy/UserVault.sol:UserVault",
            "label": "userAmount",
            "offset": 0,
            "slot": "1",
            "type": "t_array(t_uint256)dyn_storage"
          }
        ],
        "numberOfBytes": "64"
      },
      "t_struct(levelParams)16476_storage": {
        "encoding": "inplace",
        "label": "struct SmartPoolManager.levelParams",
        "members": [
          {
            "astId": 16473,
            "contract": "contracts/deploy/UserVault.sol:UserVault",
            "label": "level",
            "offset": 0,
            "slot": "0",
            "type": "t_uint256"
          },
          {
            "astId": 16475,
            "contract": "contracts/deploy/UserVault.sol:UserVault",
            "label": "ratio",
            "offset": 0,
            "slot": "1",
            "type": "t_uint256"
          }
        ],
        "numberOfBytes": "64"
      },
      "t_uint256": {
        "encoding": "inplace",
        "label": "uint256",
        "numberOfBytes": "32"
      }
    }
  }
}