{
  "address": "0x9186bB1b6b4728d23683068822f1D9E1F1F0a9e4",
  "abi": [
    {
      "anonymous": false,
      "inputs": [
        {
          "indexed": true,
          "internalType": "address",
          "name": "newAdmin",
          "type": "address"
        },
        {
          "indexed": true,
          "internalType": "uint256",
          "name": "amount",
          "type": "uint256"
        }
      ],
      "name": "AddAdmin",
      "type": "event"
    },
    {
      "anonymous": false,
      "inputs": [
        {
          "indexed": true,
          "internalType": "address",
          "name": "manager",
          "type": "address"
        },
        {
          "indexed": true,
          "internalType": "address",
          "name": "caller",
          "type": "address"
        }
      ],
      "name": "LOGVaultAdr",
      "type": "event"
    },
    {
      "anonymous": false,
      "inputs": [
        {
          "indexed": true,
          "internalType": "address",
          "name": "previousOwner",
          "type": "address"
        },
        {
          "indexed": true,
          "internalType": "address",
          "name": "newOwner",
          "type": "address"
        }
      ],
      "name": "OwnershipTransferred",
      "type": "event"
    },
    {
      "anonymous": false,
      "inputs": [
        {
          "indexed": true,
          "internalType": "address",
          "name": "oldAdmin",
          "type": "address"
        },
        {
          "indexed": true,
          "internalType": "uint256",
          "name": "amount",
          "type": "uint256"
        }
      ],
      "name": "RemoveAdmin",
      "type": "event"
    },
    {
      "inputs": [],
      "name": "RATIO_TOTAL",
      "outputs": [
        {
          "internalType": "uint256",
          "name": "",
          "type": "uint256"
        }
      ],
      "stateMutability": "view",
      "type": "function"
    },
    {
      "inputs": [
        {
          "internalType": "address",
          "name": "token",
          "type": "address"
        },
        {
          "internalType": "address",
          "name": "user",
          "type": "address"
        },
        {
          "internalType": "uint256",
          "name": "amount",
          "type": "uint256"
        }
      ],
      "name": "adminClaimToken",
      "outputs": [],
      "stateMutability": "nonpayable",
      "type": "function"
    },
    {
      "inputs": [
        {
          "internalType": "address",
          "name": "",
          "type": "address"
        }
      ],
      "name": "adminList",
      "outputs": [
        {
          "internalType": "bool",
          "name": "",
          "type": "bool"
        }
      ],
      "stateMutability": "view",
      "type": "function"
    },
    {
      "inputs": [],
      "name": "allOwnerPercentage",
      "outputs": [
        {
          "internalType": "uint256",
          "name": "",
          "type": "uint256"
        }
      ],
      "stateMutability": "view",
      "type": "function"
    },
    {
      "inputs": [
        {
          "internalType": "address",
          "name": "pool",
          "type": "address"
        }
      ],
      "name": "claimKolReward",
      "outputs": [],
      "stateMutability": "nonpayable",
      "type": "function"
    },
    {
      "inputs": [
        {
          "internalType": "address",
          "name": "pool",
          "type": "address"
        }
      ],
      "name": "claimManagersReward",
      "outputs": [],
      "stateMutability": "nonpayable",
      "type": "function"
    },
    {
      "inputs": [
        {
          "internalType": "address",
          "name": "pool",
          "type": "address"
        },
        {
          "internalType": "address",
          "name": "kol",
          "type": "address"
        },
        {
          "internalType": "uint256",
          "name": "types",
          "type": "uint256"
        }
      ],
      "name": "computeReward",
      "outputs": [
        {
          "internalType": "uint256",
          "name": "",
          "type": "uint256"
        }
      ],
      "stateMutability": "view",
      "type": "function"
    },
    {
      "inputs": [
        {
          "internalType": "address",
          "name": "pool",
          "type": "address"
        },
        {
          "internalType": "uint256",
          "name": "types",
          "type": "uint256"
        },
        {
          "internalType": "address[]",
          "name": "poolTokens",
          "type": "address[]"
        },
        {
          "internalType": "uint256[]",
          "name": "tokensAmount",
          "type": "uint256[]"
        }
      ],
      "name": "depositToken",
      "outputs": [],
      "stateMutability": "nonpayable",
      "type": "function"
    },
    {
      "inputs": [
        {
          "internalType": "address",
          "name": "pool",
          "type": "address"
        }
      ],
      "name": "getAllKolReward",
      "outputs": [
        {
          "internalType": "uint256",
          "name": "totalAmount",
          "type": "uint256"
        }
      ],
      "stateMutability": "view",
      "type": "function"
    },
    {
      "inputs": [
        {
          "internalType": "address",
          "name": "pool",
          "type": "address"
        }
      ],
      "name": "getAllManagersReward",
      "outputs": [
        {
          "internalType": "uint256",
          "name": "",
          "type": "uint256"
        }
      ],
      "stateMutability": "view",
      "type": "function"
    },
    {
      "inputs": [],
      "name": "getBNB",
      "outputs": [],
      "stateMutability": "payable",
      "type": "function"
    },
    {
      "inputs": [],
      "name": "getController",
      "outputs": [
        {
          "internalType": "address",
          "name": "",
          "type": "address"
        }
      ],
      "stateMutability": "view",
      "type": "function"
    },
    {
      "inputs": [
        {
          "internalType": "address",
          "name": "pool",
          "type": "address"
        }
      ],
      "name": "getKolsAdr",
      "outputs": [
        {
          "internalType": "address[]",
          "name": "",
          "type": "address[]"
        }
      ],
      "stateMutability": "view",
      "type": "function"
    },
    {
      "inputs": [
        {
          "internalType": "address",
          "name": "pool",
          "type": "address"
        }
      ],
      "name": "getManagerClaimBool",
      "outputs": [
        {
          "internalType": "bool",
          "name": "bools",
          "type": "bool"
        }
      ],
      "stateMutability": "view",
      "type": "function"
    },
    {
      "inputs": [
        {
          "internalType": "address",
          "name": "pool",
          "type": "address"
        },
        {
          "internalType": "address",
          "name": "maragerAdr",
          "type": "address"
        }
      ],
      "name": "getManagerReward",
      "outputs": [
        {
          "internalType": "uint256",
          "name": "",
          "type": "uint256"
        }
      ],
      "stateMutability": "view",
      "type": "function"
    },
    {
      "inputs": [],
      "name": "getOwnerPercentage",
      "outputs": [
        {
          "internalType": "uint256[]",
          "name": "",
          "type": "uint256[]"
        }
      ],
      "stateMutability": "view",
      "type": "function"
    },
    {
      "inputs": [],
      "name": "getOwners",
      "outputs": [
        {
          "internalType": "address[]",
          "name": "",
          "type": "address[]"
        }
      ],
      "stateMutability": "view",
      "type": "function"
    },
    {
      "inputs": [
        {
          "internalType": "address",
          "name": "pool",
          "type": "address"
        }
      ],
      "name": "getPoolAllFee",
      "outputs": [
        {
          "internalType": "uint256",
          "name": "totalAmount",
          "type": "uint256"
        }
      ],
      "stateMutability": "view",
      "type": "function"
    },
    {
      "inputs": [
        {
          "internalType": "address",
          "name": "pool",
          "type": "address"
        },
        {
          "internalType": "address",
          "name": "kol",
          "type": "address"
        }
      ],
      "name": "getPoolKolTotalAmounts",
      "outputs": [
        {
          "internalType": "uint256[]",
          "name": "",
          "type": "uint256[]"
        }
      ],
      "stateMutability": "view",
      "type": "function"
    },
    {
      "inputs": [
        {
          "internalType": "address",
          "name": "pool",
          "type": "address"
        },
        {
          "internalType": "address",
          "name": "kol",
          "type": "address"
        }
      ],
      "name": "getPoolKolUserInfo",
      "outputs": [
        {
          "components": [
            {
              "internalType": "address",
              "name": "userAdr",
              "type": "address"
            },
            {
              "internalType": "uint256[]",
              "name": "userAmount",
              "type": "uint256[]"
            }
          ],
          "internalType": "struct UserVault.KolUserInfo[]",
          "name": "info",
          "type": "tuple[]"
        }
      ],
      "stateMutability": "view",
      "type": "function"
    },
    {
      "inputs": [
        {
          "internalType": "address",
          "name": "pool",
          "type": "address"
        },
        {
          "internalType": "address",
          "name": "user",
          "type": "address"
        }
      ],
      "name": "getPoolUserKolAdr",
      "outputs": [
        {
          "internalType": "address",
          "name": "tokenAddress",
          "type": "address"
        }
      ],
      "stateMutability": "view",
      "type": "function"
    },
    {
      "inputs": [
        {
          "internalType": "address",
          "name": "pool",
          "type": "address"
        }
      ],
      "name": "getPoolUserList",
      "outputs": [
        {
          "internalType": "address[]",
          "name": "tokenList",
          "type": "address[]"
        }
      ],
      "stateMutability": "view",
      "type": "function"
    },
    {
      "inputs": [
        {
          "internalType": "address",
          "name": "pool",
          "type": "address"
        },
        {
          "internalType": "address",
          "name": "maragerAdr",
          "type": "address"
        }
      ],
      "name": "getUnManagerReward",
      "outputs": [
        {
          "internalType": "uint256",
          "name": "",
          "type": "uint256"
        }
      ],
      "stateMutability": "view",
      "type": "function"
    },
    {
      "inputs": [
        {
          "internalType": "address[]",
          "name": "_owners",
          "type": "address[]"
        },
        {
          "internalType": "uint256[]",
          "name": "_ownerPercentage",
          "type": "uint256[]"
        }
      ],
      "name": "initHandle",
      "outputs": [],
      "stateMutability": "nonpayable",
      "type": "function"
    },
    {
      "inputs": [
        {
          "internalType": "address",
          "name": "",
          "type": "address"
        }
      ],
      "name": "init_totalAmount_list",
      "outputs": [
        {
          "internalType": "uint256",
          "name": "",
          "type": "uint256"
        }
      ],
      "stateMutability": "view",
      "type": "function"
    },
    {
      "inputs": [
        {
          "internalType": "address",
          "name": "pool",
          "type": "address"
        }
      ],
      "name": "isClosePool",
      "outputs": [
        {
          "internalType": "bool",
          "name": "",
          "type": "bool"
        }
      ],
      "stateMutability": "view",
      "type": "function"
    },
    {
      "inputs": [
        {
          "internalType": "address",
          "name": "pool",
          "type": "address"
        },
        {
          "internalType": "address",
          "name": "kol",
          "type": "address"
        }
      ],
      "name": "kolClaimTotal",
      "outputs": [
        {
          "internalType": "uint256",
          "name": "",
          "type": "uint256"
        }
      ],
      "stateMutability": "view",
      "type": "function"
    },
    {
      "inputs": [
        {
          "internalType": "address",
          "name": "pool",
          "type": "address"
        },
        {
          "internalType": "address",
          "name": "kol",
          "type": "address"
        }
      ],
      "name": "kolUnClaimAmount",
      "outputs": [
        {
          "internalType": "uint256",
          "name": "",
          "type": "uint256"
        }
      ],
      "stateMutability": "view",
      "type": "function"
    },
    {
      "inputs": [
        {
          "internalType": "address",
          "name": "",
          "type": "address"
        },
        {
          "internalType": "address",
          "name": "",
          "type": "address"
        }
      ],
      "name": "kol_claimed_list",
      "outputs": [
        {
          "internalType": "uint256",
          "name": "",
          "type": "uint256"
        }
      ],
      "stateMutability": "view",
      "type": "function"
    },
    {
      "inputs": [
        {
          "internalType": "address",
          "name": "",
          "type": "address"
        },
        {
          "internalType": "uint256",
          "name": "",
          "type": "uint256"
        }
      ],
      "name": "kol_token_list",
      "outputs": [
        {
          "internalType": "address",
          "name": "",
          "type": "address"
        }
      ],
      "stateMutability": "view",
      "type": "function"
    },
    {
      "inputs": [
        {
          "internalType": "address",
          "name": "",
          "type": "address"
        },
        {
          "internalType": "address",
          "name": "",
          "type": "address"
        },
        {
          "internalType": "uint256",
          "name": "",
          "type": "uint256"
        }
      ],
      "name": "kol_totalAmount_list",
      "outputs": [
        {
          "internalType": "uint256",
          "name": "",
          "type": "uint256"
        }
      ],
      "stateMutability": "view",
      "type": "function"
    },
    {
      "inputs": [
        {
          "internalType": "address",
          "name": "",
          "type": "address"
        },
        {
          "internalType": "address",
          "name": "",
          "type": "address"
        },
        {
          "internalType": "uint256",
          "name": "",
          "type": "uint256"
        }
      ],
      "name": "kol_user_info",
      "outputs": [
        {
          "internalType": "address",
          "name": "userAdr",
          "type": "address"
        }
      ],
      "stateMutability": "view",
      "type": "function"
    },
    {
      "inputs": [
        {
          "internalType": "address",
          "name": "",
          "type": "address"
        },
        {
          "internalType": "address",
          "name": "",
          "type": "address"
        }
      ],
      "name": "manager_claimed_list",
      "outputs": [
        {
          "internalType": "uint256",
          "name": "",
          "type": "uint256"
        }
      ],
      "stateMutability": "view",
      "type": "function"
    },
    {
      "inputs": [
        {
          "internalType": "uint256",
          "name": "",
          "type": "uint256"
        }
      ],
      "name": "ownerPercentage",
      "outputs": [
        {
          "internalType": "uint256",
          "name": "",
          "type": "uint256"
        }
      ],
      "stateMutability": "view",
      "type": "function"
    },
    {
      "inputs": [
        {
          "internalType": "uint256",
          "name": "",
          "type": "uint256"
        }
      ],
      "name": "owners",
      "outputs": [
        {
          "internalType": "address",
          "name": "",
          "type": "address"
        }
      ],
      "stateMutability": "view",
      "type": "function"
    },
    {
      "inputs": [
        {
          "internalType": "address",
          "name": "pool",
          "type": "address"
        }
      ],
      "name": "poolIssueTokenAmount",
      "outputs": [
        {
          "internalType": "uint256[]",
          "name": "tokenAmount",
          "type": "uint256[]"
        }
      ],
      "stateMutability": "view",
      "type": "function"
    },
    {
      "inputs": [
        {
          "internalType": "address",
          "name": "pool",
          "type": "address"
        }
      ],
      "name": "poolIssueTokenList",
      "outputs": [
        {
          "internalType": "address[]",
          "name": "tokens",
          "type": "address[]"
        }
      ],
      "stateMutability": "view",
      "type": "function"
    },
    {
      "inputs": [
        {
          "internalType": "address",
          "name": "pool",
          "type": "address"
        }
      ],
      "name": "poolManagerTokenAmount",
      "outputs": [
        {
          "internalType": "uint256[]",
          "name": "tokenAmount",
          "type": "uint256[]"
        }
      ],
      "stateMutability": "view",
      "type": "function"
    },
    {
      "inputs": [
        {
          "internalType": "address",
          "name": "pool",
          "type": "address"
        }
      ],
      "name": "poolManagerTokenList",
      "outputs": [
        {
          "internalType": "address[]",
          "name": "tokens",
          "type": "address[]"
        }
      ],
      "stateMutability": "view",
      "type": "function"
    },
    {
      "inputs": [
        {
          "internalType": "address",
          "name": "pool",
          "type": "address"
        }
      ],
      "name": "poolPerfermanceTokenAmount",
      "outputs": [
        {
          "internalType": "uint256[]",
          "name": "tokenAmount",
          "type": "uint256[]"
        }
      ],
      "stateMutability": "view",
      "type": "function"
    },
    {
      "inputs": [
        {
          "internalType": "address",
          "name": "pool",
          "type": "address"
        }
      ],
      "name": "poolPerfermanceTokenList",
      "outputs": [
        {
          "internalType": "address[]",
          "name": "tokens",
          "type": "address[]"
        }
      ],
      "stateMutability": "view",
      "type": "function"
    },
    {
      "inputs": [
        {
          "internalType": "address",
          "name": "pool",
          "type": "address"
        }
      ],
      "name": "poolRedeemTokenAmount",
      "outputs": [
        {
          "internalType": "uint256[]",
          "name": "tokenAmount",
          "type": "uint256[]"
        }
      ],
      "stateMutability": "view",
      "type": "function"
    },
    {
      "inputs": [
        {
          "internalType": "address",
          "name": "pool",
          "type": "address"
        }
      ],
      "name": "poolRedeemTokenList",
      "outputs": [
        {
          "internalType": "address[]",
          "name": "tokens",
          "type": "address[]"
        }
      ],
      "stateMutability": "view",
      "type": "function"
    },
    {
      "inputs": [
        {
          "internalType": "address",
          "name": "",
          "type": "address"
        }
      ],
      "name": "pool_manager",
      "outputs": [
        {
          "internalType": "address",
          "name": "",
          "type": "address"
        }
      ],
      "stateMutability": "view",
      "type": "function"
    },
    {
      "inputs": [
        {
          "internalType": "address",
          "name": "kol",
          "type": "address"
        },
        {
          "internalType": "address",
          "name": "user",
          "type": "address"
        },
        {
          "internalType": "address[]",
          "name": "poolTokens",
          "type": "address[]"
        },
        {
          "internalType": "uint256[]",
          "name": "tokensAmount",
          "type": "uint256[]"
        }
      ],
      "name": "recordTokenInfo",
      "outputs": [],
      "stateMutability": "nonpayable",
      "type": "function"
    },
    {
      "inputs": [
        {
          "internalType": "address",
          "name": "",
          "type": "address"
        },
        {
          "internalType": "uint256",
          "name": "",
          "type": "uint256"
        }
      ],
      "name": "record_List",
      "outputs": [
        {
          "internalType": "uint256",
          "name": "time",
          "type": "uint256"
        }
      ],
      "stateMutability": "view",
      "type": "function"
    },
    {
      "inputs": [
        {
          "internalType": "address",
          "name": "",
          "type": "address"
        }
      ],
      "name": "record_number",
      "outputs": [
        {
          "internalType": "uint256",
          "name": "",
          "type": "uint256"
        }
      ],
      "stateMutability": "view",
      "type": "function"
    },
    {
      "inputs": [
        {
          "internalType": "address",
          "name": "owner",
          "type": "address"
        }
      ],
      "name": "removeOwner",
      "outputs": [],
      "stateMutability": "nonpayable",
      "type": "function"
    },
    {
      "inputs": [
        {
          "internalType": "address",
          "name": "newOwner",
          "type": "address"
        },
        {
          "internalType": "uint256",
          "name": "_ownerPercentage",
          "type": "uint256"
        }
      ],
      "name": "setAddAdminList",
      "outputs": [],
      "stateMutability": "nonpayable",
      "type": "function"
    },
    {
      "inputs": [
        {
          "internalType": "address",
          "name": "pool",
          "type": "address"
        },
        {
          "internalType": "bool",
          "name": "bools",
          "type": "bool"
        }
      ],
      "name": "setBlackList",
      "outputs": [],
      "stateMutability": "nonpayable",
      "type": "function"
    },
    {
      "inputs": [
        {
          "internalType": "address",
          "name": "newOwner",
          "type": "address"
        }
      ],
      "name": "setController",
      "outputs": [],
      "stateMutability": "nonpayable",
      "type": "function"
    },
    {
      "inputs": [
        {
          "internalType": "address",
          "name": "adr",
          "type": "address"
        }
      ],
      "name": "setCrpFactory",
      "outputs": [],
      "stateMutability": "nonpayable",
      "type": "function"
    },
    {
      "inputs": [
        {
          "internalType": "address",
          "name": "pool",
          "type": "address"
        },
        {
          "components": [
            {
              "components": [
                {
                  "components": [
                    {
                      "internalType": "uint256",
                      "name": "level",
                      "type": "uint256"
                    },
                    {
                      "internalType": "uint256",
                      "name": "ratio",
                      "type": "uint256"
                    }
                  ],
                  "internalType": "struct SmartPoolManager.levelParams",
                  "name": "firstLevel",
                  "type": "tuple"
                },
                {
                  "components": [
                    {
                      "internalType": "uint256",
                      "name": "level",
                      "type": "uint256"
                    },
                    {
                      "internalType": "uint256",
                      "name": "ratio",
                      "type": "uint256"
                    }
                  ],
                  "internalType": "struct SmartPoolManager.levelParams",
                  "name": "secondLevel",
                  "type": "tuple"
                },
                {
                  "components": [
                    {
                      "internalType": "uint256",
                      "name": "level",
                      "type": "uint256"
                    },
                    {
                      "internalType": "uint256",
                      "name": "ratio",
                      "type": "uint256"
                    }
                  ],
                  "internalType": "struct SmartPoolManager.levelParams",
                  "name": "thirdLevel",
                  "type": "tuple"
                },
                {
                  "components": [
                    {
                      "internalType": "uint256",
                      "name": "level",
                      "type": "uint256"
                    },
                    {
                      "internalType": "uint256",
                      "name": "ratio",
                      "type": "uint256"
                    }
                  ],
                  "internalType": "struct SmartPoolManager.levelParams",
                  "name": "fourLevel",
                  "type": "tuple"
                }
              ],
              "internalType": "struct SmartPoolManager.feeParams",
              "name": "managerFee",
              "type": "tuple"
            },
            {
              "components": [
                {
                  "components": [
                    {
                      "internalType": "uint256",
                      "name": "level",
                      "type": "uint256"
                    },
                    {
                      "internalType": "uint256",
                      "name": "ratio",
                      "type": "uint256"
                    }
                  ],
                  "internalType": "struct SmartPoolManager.levelParams",
                  "name": "firstLevel",
                  "type": "tuple"
                },
                {
                  "components": [
                    {
                      "internalType": "uint256",
                      "name": "level",
                      "type": "uint256"
                    },
                    {
                      "internalType": "uint256",
                      "name": "ratio",
                      "type": "uint256"
                    }
                  ],
                  "internalType": "struct SmartPoolManager.levelParams",
                  "name": "secondLevel",
                  "type": "tuple"
                },
                {
                  "components": [
                    {
                      "internalType": "uint256",
                      "name": "level",
                      "type": "uint256"
                    },
                    {
                      "internalType": "uint256",
                      "name": "ratio",
                      "type": "uint256"
                    }
                  ],
                  "internalType": "struct SmartPoolManager.levelParams",
                  "name": "thirdLevel",
                  "type": "tuple"
                },
                {
                  "components": [
                    {
                      "internalType": "uint256",
                      "name": "level",
                      "type": "uint256"
                    },
                    {
                      "internalType": "uint256",
                      "name": "ratio",
                      "type": "uint256"
                    }
                  ],
                  "internalType": "struct SmartPoolManager.levelParams",
                  "name": "fourLevel",
                  "type": "tuple"
                }
              ],
              "internalType": "struct SmartPoolManager.feeParams",
              "name": "issueFee",
              "type": "tuple"
            },
            {
              "components": [
                {
                  "components": [
                    {
                      "internalType": "uint256",
                      "name": "level",
                      "type": "uint256"
                    },
                    {
                      "internalType": "uint256",
                      "name": "ratio",
                      "type": "uint256"
                    }
                  ],
                  "internalType": "struct SmartPoolManager.levelParams",
                  "name": "firstLevel",
                  "type": "tuple"
                },
                {
                  "components": [
                    {
                      "internalType": "uint256",
                      "name": "level",
                      "type": "uint256"
                    },
                    {
                      "internalType": "uint256",
                      "name": "ratio",
                      "type": "uint256"
                    }
                  ],
                  "internalType": "struct SmartPoolManager.levelParams",
                  "name": "secondLevel",
                  "type": "tuple"
                },
                {
                  "components": [
                    {
                      "internalType": "uint256",
                      "name": "level",
                      "type": "uint256"
                    },
                    {
                      "internalType": "uint256",
                      "name": "ratio",
                      "type": "uint256"
                    }
                  ],
                  "internalType": "struct SmartPoolManager.levelParams",
                  "name": "thirdLevel",
                  "type": "tuple"
                },
                {
                  "components": [
                    {
                      "internalType": "uint256",
                      "name": "level",
                      "type": "uint256"
                    },
                    {
                      "internalType": "uint256",
                      "name": "ratio",
                      "type": "uint256"
                    }
                  ],
                  "internalType": "struct SmartPoolManager.levelParams",
                  "name": "fourLevel",
                  "type": "tuple"
                }
              ],
              "internalType": "struct SmartPoolManager.feeParams",
              "name": "redeemFee",
              "type": "tuple"
            },
            {
              "components": [
                {
                  "components": [
                    {
                      "internalType": "uint256",
                      "name": "level",
                      "type": "uint256"
                    },
                    {
                      "internalType": "uint256",
                      "name": "ratio",
                      "type": "uint256"
                    }
                  ],
                  "internalType": "struct SmartPoolManager.levelParams",
                  "name": "firstLevel",
                  "type": "tuple"
                },
                {
                  "components": [
                    {
                      "internalType": "uint256",
                      "name": "level",
                      "type": "uint256"
                    },
                    {
                      "internalType": "uint256",
                      "name": "ratio",
                      "type": "uint256"
                    }
                  ],
                  "internalType": "struct SmartPoolManager.levelParams",
                  "name": "secondLevel",
                  "type": "tuple"
                },
                {
                  "components": [
                    {
                      "internalType": "uint256",
                      "name": "level",
                      "type": "uint256"
                    },
                    {
                      "internalType": "uint256",
                      "name": "ratio",
                      "type": "uint256"
                    }
                  ],
                  "internalType": "struct SmartPoolManager.levelParams",
                  "name": "thirdLevel",
                  "type": "tuple"
                },
                {
                  "components": [
                    {
                      "internalType": "uint256",
                      "name": "level",
                      "type": "uint256"
                    },
                    {
                      "internalType": "uint256",
                      "name": "ratio",
                      "type": "uint256"
                    }
                  ],
                  "internalType": "struct SmartPoolManager.levelParams",
                  "name": "fourLevel",
                  "type": "tuple"
                }
              ],
              "internalType": "struct SmartPoolManager.feeParams",
              "name": "perfermanceFee",
              "type": "tuple"
            }
          ],
          "internalType": "struct SmartPoolManager.KolPoolParams",
          "name": "_poolParams",
          "type": "tuple"
        }
      ],
      "name": "setPoolParams",
      "outputs": [],
      "stateMutability": "nonpayable",
      "type": "function"
    },
    {
      "inputs": [
        {
          "internalType": "address",
          "name": "adr",
          "type": "address"
        }
      ],
      "name": "setVaultAdr",
      "outputs": [],
      "stateMutability": "nonpayable",
      "type": "function"
    },
    {
      "inputs": [
        {
          "internalType": "address",
          "name": "",
          "type": "address"
        },
        {
          "internalType": "address",
          "name": "",
          "type": "address"
        }
      ],
      "name": "user_index_list",
      "outputs": [
        {
          "internalType": "uint256",
          "name": "",
          "type": "uint256"
        }
      ],
      "stateMutability": "view",
      "type": "function"
    },
    {
      "inputs": [
        {
          "internalType": "address",
          "name": "",
          "type": "address"
        },
        {
          "internalType": "address",
          "name": "",
          "type": "address"
        }
      ],
      "name": "user_kol_list",
      "outputs": [
        {
          "internalType": "address",
          "name": "",
          "type": "address"
        }
      ],
      "stateMutability": "view",
      "type": "function"
    },
    {
      "inputs": [],
      "name": "vaultAddress",
      "outputs": [
        {
          "internalType": "address",
          "name": "",
          "type": "address"
        }
      ],
      "stateMutability": "view",
      "type": "function"
    },
    {
      "stateMutability": "payable",
      "type": "receive"
    }
  ],
  "transactionHash": "0x589394bded57ab65d5ef5a61bf239857774e30e01b56b8ac8dfad4c909932737",
  "args": [],
  "numDeployments": 1,
  "solcInputHash": "b797a048c0c4a3d2fc0b1fe77be725b8",
  "bytecode": "0x6080604052606460155534801561001557600080fd5b50600080546001600160a01b03191633179055614fd6806100376000396000f3fe60806040526004361061029a5760003560e01c806378a619de1161016157806378a619de1461064657806379f663741461064e5780638da901ba1461066e5780638f799e121461068e5780639155dae7146106ae57806392eefe9b146106ce578063992f6ba5146106ee578063a0e67e2b1461070e578063a5168ee214610723578063a97f9f3314610743578063bbb6e80814610763578063c0fcb16614610783578063c1e57622146107a3578063c3e4d04f146107c3578063c5318d0f146107e3578063c90361dd14610803578063cf4fe63514610823578063d29986c114610850578063d6b485a514610865578063d7256c7014610885578063de7f3022146108a5578063e0bea5ac146108c5578063e65065d9146108e5578063e9c6931914610905578063ebef44d914610925578063ec7a4b5214610945578063ed6aa3af14610965578063edbfb5f514610985578063f36ed928146109a5576102a1565b8063025e7c27146102a657806303a68ecb146102dc5780630b83e629146103095780630e99089c1461033657806311e1532a14610356578063154726b214610376578063173825d9146103965780631a46506e146103b85780631eae039c146103d85780631f70e80b146103f857806327304dfd1461040d5780632b5230a91461043a5780632c0bdbcf1461045a5780632c7c1bb5146104875780633018205f146104a7578063309a042c146104bc5780633eedcfa0146104d15780633ef14479146104f157806341c65e8314610511578063430bf08a146105315780634660c5a51461054657806346bead89146105665780634bbe2fca146105865780634da38416146105a6578063528b5853146105c657806358d2dbf0146105e657806368092bd9146106065780636936674d14610626576102a1565b366102a157005b600080fd5b3480156102b257600080fd5b506102c66102c1366004614ab5565b6109c5565b6040516102d39190614b1f565b60405180910390f35b3480156102e857600080fd5b506102fc6102f736600461472f565b6109ec565b6040516102d39190614f2f565b34801561031557600080fd5b50610329610324366004614666565b610a27565b6040516102d39190614c13565b34801561034257600080fd5b506102fc61035136600461462e565b610aa1565b34801561036257600080fd5b506102fc61037136600461462e565b610e73565b34801561038257600080fd5b506102fc610391366004614666565b610e90565b3480156103a257600080fd5b506103b66103b136600461462e565b610ed9565b005b3480156103c457600080fd5b506103296103d336600461462e565b6110c4565b3480156103e457600080fd5b506103b66103f336600461472f565b611133565b34801561040457600080fd5b506102fc6111e3565b34801561041957600080fd5b5061042d61042836600461462e565b6111e9565b6040516102d39190614c26565b34801561044657600080fd5b5061032961045536600461462e565b6111fe565b34801561046657600080fd5b5061047a61047536600461462e565b61126b565b6040516102d39190614b4c565b34801561049357600080fd5b506102fc6104a2366004614666565b6112e3565b3480156104b357600080fd5b506102c6611300565b3480156104c857600080fd5b5061032961130f565b3480156104dd57600080fd5b506102fc6104ec366004614666565b611367565b3480156104fd57600080fd5b506103b661050c366004614935565b611384565b34801561051d57600080fd5b5061047a61052c36600461462e565b611476565b34801561053d57600080fd5b506102c66114ed565b34801561055257600080fd5b506103b661056136600461479c565b6114fc565b34801561057257600080fd5b506102fc610581366004614666565b61171f565b34801561059257600080fd5b506102fc6105a136600461482d565b61191c565b3480156105b257600080fd5b5061047a6105c136600461462e565b611939565b3480156105d257600080fd5b506102fc6105e136600461462e565b6119ad565b3480156105f257600080fd5b506102c6610601366004614666565b6119bf565b34801561061257600080fd5b506103b661062136600461476f565b6119e9565b34801561063257600080fd5b506103b661064136600461462e565b611a44565b6103b6611e28565b34801561065a57600080fd5b506102c6610669366004614666565b611e7e565b34801561067a57600080fd5b5061042d61068936600461462e565b611ea4565b34801561069a57600080fd5b506102fc6106a9366004614666565b611f2b565b3480156106ba57600080fd5b506103b66106c9366004614858565b611f48565b3480156106da57600080fd5b506103b66106e936600461462e565b6120b3565b3480156106fa57600080fd5b506103b661070936600461482d565b61215e565b34801561071a57600080fd5b5061047a612287565b34801561072f57600080fd5b5061032961073e36600461462e565b6122e8565b34801561074f57600080fd5b5061032961075e36600461462e565b612355565b34801561076f57600080fd5b506102c661077e36600461472f565b6123c2565b34801561078f57600080fd5b5061042d61079e36600461462e565b612409565b3480156107af57600080fd5b506103b66107be36600461462e565b612427565b3480156107cf57600080fd5b506102c66107de36600461462e565b612473565b3480156107ef57600080fd5b506102fc6107fe366004614ab5565b61248e565b34801561080f57600080fd5b5061047a61081e36600461462e565b6124ac565b34801561082f57600080fd5b5061084361083e366004614666565b6124d0565b6040516102d39190614b99565b34801561085c57600080fd5b506102fc6125b5565b34801561087157600080fd5b506103b661088036600461462e565b6125bb565b34801561089157600080fd5b506103b66108a036600461469e565b612658565b3480156108b157600080fd5b5061047a6108c036600461462e565b612bd2565b3480156108d157600080fd5b506102c66108e036600461482d565b612c49565b3480156108f157600080fd5b506102fc610900366004614666565b612c7e565b34801561091157600080fd5b506102fc61092036600461472f565b612d61565b34801561093157600080fd5b5061047a61094036600461462e565b61342d565b34801561095157600080fd5b506102fc610960366004614666565b6134a1565b34801561097157600080fd5b506103b661098036600461462e565b6134de565b34801561099157600080fd5b506102fc6109a036600461462e565b6137f6565b3480156109b157600080fd5b506102fc6109c036600461462e565b613808565b600281815481106109d257fe5b6000918252602090912001546001600160a01b0316905081565b60116020528260005260406000206020528160005260406000208181548110610a1157fe5b9060005260206000200160009250925050505481565b6001600160a01b038083166000908152601160209081526040808320938516835292815290829020805483518184028101840190945280845260609392830182828015610a9357602002820191906000526020600020905b815481526020019060010190808311610a7f575b505050505090505b92915050565b6000610aab6142cd565b6001600160a01b038316600090815260086020908152604091829020825181546101209381028201840190945261010081018481529093919284928491840182828015610b2157602002820191906000526020600020905b81546001600160a01b03168152600190910190602001808311610b03575b5050505050815260200160018201805480602002602001604051908101604052809291908181526020018280548015610b8357602002820191906000526020600020905b81546001600160a01b03168152600190910190602001808311610b65575b5050505050815260200160028201805480602002602001604051908101604052809291908181526020018280548015610be557602002820191906000526020600020905b81546001600160a01b03168152600190910190602001808311610bc7575b5050505050815260200160038201805480602002602001604051908101604052809291908181526020018280548015610c4757602002820191906000526020600020905b81546001600160a01b03168152600190910190602001808311610c29575b5050505050815260200160048201805480602002602001604051908101604052809291908181526020018280548015610c9f57602002820191906000526020600020905b815481526020019060010190808311610c8b575b5050505050815260200160058201805480602002602001604051908101604052809291908181526020018280548015610cf757602002820191906000526020600020905b815481526020019060010190808311610ce3575b5050505050815260200160068201805480602002602001604051908101604052809291908181526020018280548015610d4f57602002820191906000526020600020905b815481526020019060010190808311610d3b575b5050505050815260200160078201805480602002602001604051908101604052809291908181526020018280548015610da757602002820191906000526020600020905b815481526020019060010190808311610d93575b5050505050815250509050600081608001515111610dc6576000610de0565b8060800151600081518110610dd757fe5b60200260200101515b60a082015151920191610df4576000610e0e565b8060a00151600081518110610e0557fe5b60200260200101515b60c082015151920191610e22576000610e3c565b8060c00151600081518110610e3357fe5b60200260200101515b60e082015151920191610e50576000610e6a565b8060e00151600081518110610e6157fe5b60200260200101515b90910192915050565b6000610a9b610e8183613808565b610e8a84610aa1565b90613859565b600080610e9d8484612c7e565b6001600160a01b03808616600090815260106020908152604080832093881683529290522054909150610ed08282613859565b95945050505050565b6000546001600160a01b03163314610f0c5760405162461bcd60e51b8152600401610f0390614c84565b60405180910390fd5b6001600160a01b0381166000908152600160205260408120805460ff19169055805b60025481101561103057826001600160a01b031660028281548110610f4f57fe5b6000918252602090912001546001600160a01b0316141561102857600280546000198101908110610f7c57fe5b600091825260209091200154600280546001600160a01b039092169183908110610fa257fe5b9060005260206000200160006101000a8154816001600160a01b0302191690836001600160a01b0316021790555060038181548110610fdd57fe5b90600052602060002001549150600360016003805490500381548110610fff57fe5b90600052602060002001546003828154811061101757fe5b600091825260209091200155611030565b600101610f2e565b50600280548061103c57fe5b600082815260209020810160001990810180546001600160a01b0319169055019055600380548061106957fe5b600082815260208120820160001990810182905590910190915560048054839003905560405182916001600160a01b038516917f7b0884b4b6bb4e0c1385ad42168fa556c14d4d799c1bf22f081aff3efff6ea0c9190a35050565b6001600160a01b03811660009081526008602090815260409182902060070180548351818402810184019094528084526060939283018282801561112757602002820191906000526020600020905b815481526020019060010190808311611113575b50505050509050919050565b6000546001600160a01b0316331461115d5760405162461bcd60e51b8152600401610f0390614c84565b60405163a9059cbb60e01b81526001600160a01b0384169063a9059cbb9061118b9085908590600401614b33565b602060405180830381600087803b1580156111a557600080fd5b505af11580156111b9573d6000803e3d6000fd5b505050506040513d601f19601f820116820180604052508101906111dd9190614a7a565b50505050565b60155481565b60016020526000908152604090205460ff1681565b6001600160a01b03811660009081526008602090815260409182902060060180548351818402810184019094528084526060939283018282801561112757602002820191906000526020600020908154815260200190600101908083116111135750505050509050919050565b6001600160a01b03811660009081526008602090815260409182902060020180548351818402810184019094528084526060939283018282801561112757602002820191906000526020600020905b81546001600160a01b031681526001909101906020018083116112ba5750505050509050919050565b601360209081526000928352604080842090915290825290205481565b6000546001600160a01b031690565b6060600380548060200260200160405190810160405280929190818152602001828054801561135d57602002820191906000526020600020905b815481526020019060010190808311611349575b5050505050905090565b601060209081526000928352604080842090915290825290205481565b6000546001600160a01b031633146113ae5760405162461bcd60e51b8152600401610f0390614c84565b80518251146113cf5760405162461bcd60e51b8152600401610f0390614e0f565b60005b8251811015611449578181815181106113e757fe5b6020026020010151600460008282540192505081905550600180600085848151811061140f57fe5b6020908102919091018101516001600160a01b03168252810191909152604001600020805460ff19169115159190911790556001016113d2565b50815161145d906002906020850190614312565b508051611471906003906020840190614377565b505050565b6001600160a01b038116600090815260086020908152604091829020600301805483518184028101840190945280845260609392830182828015611127576020028201919060005260206000209081546001600160a01b031681526001909101906020018083116112ba5750505050509050919050565b6006546001600160a01b031681565b6001600160a01b03808316600090815260096020526040908190206005549151636e0cf42160e11b81529092919091169063dc19e84290611541908690600401614b1f565b60206040518083038186803b15801561155957600080fd5b505afa15801561156d573d6000803e3d6000fd5b505050506040513d601f19601f820116820180604052508101906115919190614a7a565b6115ad5760405162461bcd60e51b8152600401610f0390614e2f565b805462010000900460ff16156115d55760405162461bcd60e51b8152600401610f0390614ea2565b805462ff0000191662010000178155815180518051600184015560209081015160028401558082015180516003850155810151600484015560408083015180516005860155820151600685015560609283015180516007860155820151600885015581850151805180516009870155830151600a860155808301518051600b870155830151600c860155808201518051600d870155830151600e8601558301518051600f8601558201516010850155808501518051805160118701558301516012860155808301518051601387015583015160148601558082015180516015870155830151601686015583015180516017860155820151601885015593820151805180516019860155820151601a850155808201518051601b860155820151601c850155938401518051601d850155810151601e8401559201518051601f83015582015191015550565b60008061172b84610e73565b90506060846001600160a01b031663a0e67e2b6040518163ffffffff1660e01b815260040160006040518083038186803b15801561176857600080fd5b505afa15801561177c573d6000803e3d6000fd5b505050506040513d6000823e601f3d908101601f191682016040526117a4919081019061489d565b90506060856001600160a01b031663309a042c6040518163ffffffff1660e01b815260040160006040518083038186803b1580156117e157600080fd5b505afa1580156117f5573d6000803e3d6000fd5b505050506040513d6000823e601f3d908101601f1916820160405261181d91908101906149f7565b90506000866001600160a01b031663d29986c16040518163ffffffff1660e01b815260040160206040518083038186803b15801561185a57600080fd5b505afa15801561186e573d6000803e3d6000fd5b505050506040513d601f19601f820116820180604052508101906118929190614acd565b905060005b8351811015611911578381815181106118ac57fe5b60200260200101516001600160a01b0316876001600160a01b03161415611909576118fd826118f78584815181106118e057fe5b60200260200101518861389b90919063ffffffff16565b906138d5565b95505050505050610a9b565b600101611897565b505050505092915050565b600b60209081526000928352604080842090915290825290205481565b6001600160a01b0381166000908152600c6020908152604091829020805483518184028101840190945280845260609392830182828015611127576020028201919060005260206000209081546001600160a01b031681526001909101906020018083116112ba5750505050509050919050565b600d6020526000908152604090205481565b6001600160a01b039182166000908152601460209081526040808320938516835292905220541690565b6000546001600160a01b03163314611a135760405162461bcd60e51b8152600401610f0390614c84565b6001600160a01b03909116600090815260096020526040902080549115156101000261ff0019909216919091179055565b60065460405163edb12adf60e01b81526001600160a01b039091169063edb12adf90611a74908490600401614b1f565b600060405180830381600087803b158015611a8e57600080fd5b505af1925050508015611a9f575060015b50611aa981611ea4565b15611e2557600554604051636e0cf42160e11b81526001600160a01b039091169063dc19e84290611ade908490600401614b1f565b60206040518083038186803b158015611af657600080fd5b505afa158015611b0a573d6000803e3d6000fd5b505050506040513d601f19601f82011682018060405250810190611b2e9190614a7a565b611b4a5760405162461bcd60e51b8152600401610f0390614e2f565b806001600160a01b0316635468d6d76040518163ffffffff1660e01b815260040160206040518083038186803b158015611b8357600080fd5b505afa158015611b97573d6000803e3d6000fd5b505050506040513d601f19601f82011682018060405250810190611bbb9190614a7a565b611bd75760405162461bcd60e51b8152600401610f0390614efc565b6000611be38233610e90565b905060008111611c055760405162461bcd60e51b8152600401610f0390614cb0565b6001600160a01b0382166000908152601060209081526040808320338085529252909120805483019055611c3890613914565b15611d73576001600160a01b0382166000908152600c602052604081208054909190611c6057fe5b9060005260206000200160009054906101000a90046001600160a01b03166001600160a01b031663a9059cbb336001600160a01b0316638da5cb5b6040518163ffffffff1660e01b815260040160206040518083038186803b158015611cc557600080fd5b505afa158015611cd9573d6000803e3d6000fd5b505050506040513d601f19601f82011682018060405250810190611cfd919061464a565b836040518363ffffffff1660e01b8152600401611d1b929190614b33565b602060405180830381600087803b158015611d3557600080fd5b505af1158015611d49573d6000803e3d6000fd5b505050506040513d601f19601f82011682018060405250810190611d6d9190614a7a565b50611e23565b6001600160a01b0382166000908152600c602052604081208054909190611d9657fe5b60009182526020909120015460405163a9059cbb60e01b81526001600160a01b039091169063a9059cbb90611dd19033908590600401614b33565b602060405180830381600087803b158015611deb57600080fd5b505af1158015611dff573d6000803e3d6000fd5b505050506040513d601f19601f820116820180604052508101906114719190614a7a565b505b50565b6000546001600160a01b03163314611e525760405162461bcd60e51b8152600401610f0390614c84565b60405133904780156108fc02916000818181858888f19350505050158015611e25573d6000803e3d6000fd5b60146020908152600092835260408084209091529082529020546001600160a01b031681565b60006001826001600160a01b03166373a9855c6040518163ffffffff1660e01b815260040160206040518083038186803b158015611ee157600080fd5b505afa158015611ef5573d6000803e3d6000fd5b505050506040513d601f19601f82011682018060405250810190611f199190614a96565b6001811115611f2457fe5b1492915050565b600e60209081526000928352604080842090915290825290205481565b6006546001600160a01b03163314611f725760405162461bcd60e51b8152600401610f0390614c84565b828114611f915760405162461bcd60e51b8152600401610f0390614d10565b6001600160a01b038681166000908152600760205260409020541661205157856001600160a01b0316633018205f6040518163ffffffff1660e01b815260040160206040518083038186803b158015611fe957600080fd5b505afa158015611ffd573d6000803e3d6000fd5b505050506040513d601f19601f82011682018060405250810190612021919061464a565b6001600160a01b03878116600090815260076020526040902080546001600160a01b031916929091169190911790555b60608061205e888861394d565b91509150606080612074888888888e8989613ce5565b915091506120848a8a8484613f49565b5050506001600160a01b039096166000908152600960205260409020805460ff19166001179055505050505050565b6000546001600160a01b031633146120dd5760405162461bcd60e51b8152600401610f0390614c84565b6001600160a01b0381166121035760405162461bcd60e51b8152600401610f0390614dc2565b600080546040516001600160a01b03808516939216917f8be0079c531659141344cd1fd0a4f28419497f9722a3daafe3b4186f6b6457e091a3600080546001600160a01b0319166001600160a01b0392909216919091179055565b6000546001600160a01b031633146121885760405162461bcd60e51b8152600401610f0390614c84565b6001600160a01b03821660009081526001602052604090205460ff16156121c15760405162461bcd60e51b8152600401610f0390614d67565b6001600160a01b0382166000818152600160208190526040808320805460ff191683179055600280548084019091557f405787fa12a823e0f2b7631cc41b3ba8828b3321ca811111fa75cd3aa3bb5ace0180546001600160a01b0319168517905560038054928301815583527fc2575a0e9e593c00f959f8c92f12db2869c3395a3b0502d05e2516446f71f85b9091018490556004805485019055518392917fbd5dcf0b25226117c4a68a0129ffdd4b0541ef5e482ad7de9a96ccb6d6a8ebde91a35050565b6060600280548060200260200160405190810160405280929190818152602001828054801561135d57602002820191906000526020600020905b81546001600160a01b031681526001909101906020018083116122c1575050505050905090565b6001600160a01b03811660009081526008602090815260409182902060050180548351818402810184019094528084526060939283018282801561112757602002820191906000526020600020908154815260200190600101908083116111135750505050509050919050565b6001600160a01b03811660009081526008602090815260409182902060040180548351818402810184019094528084526060939283018282801561112757602002820191906000526020600020908154815260200190600101908083116111135750505050509050919050565b601260205282600052604060002060205281600052604060002081815481106123e757fe5b60009182526020909120600290910201546001600160a01b0316925083915050565b6001600160a01b031660009081526009602052604090205460ff1690565b6000546001600160a01b031633146124515760405162461bcd60e51b8152600401610f0390614c84565b600580546001600160a01b0319166001600160a01b0392909216919091179055565b6007602052600090815260409020546001600160a01b031681565b6003818154811061249b57fe5b600091825260209091200154905081565b6001600160a01b0381166000908152600f60205260409020606090610a9b90614039565b6001600160a01b0380831660009081526012602090815260408083209385168352928152828220805484518184028101840190955280855260609493919290919084015b828210156125a95760008481526020908190206040805180820182526002860290920180546001600160a01b0316835260018101805483518187028101870190945280845293949193858301939283018282801561259157602002820191906000526020600020905b81548152602001906001019080831161257d575b50505050508152505081526020019060010190612514565b50505050905092915050565b60045481565b6000546001600160a01b031633146125e55760405162461bcd60e51b8152600401610f0390614c84565b6001600160a01b03811661260b5760405162461bcd60e51b8152600401610f0390614ec9565b600680546001600160a01b0319166001600160a01b0383169081179091556040513391907ff5e71cc69e4610808e8e7c9099d63353897264c5dfc4da1a0320395866de497190600090a350565b338382146126785760405162461bcd60e51b8152600401610f0390614d10565b600554604051636e0cf42160e11b81526001600160a01b039091169063dc19e842906126a8908490600401614b1f565b60206040518083038186803b1580156126c057600080fd5b505afa1580156126d4573d6000803e3d6000fd5b505050506040513d601f19601f820116820180604052508101906126f89190614a7a565b6127145760405162461bcd60e51b8152600401610f0390614e2f565b6001600160a01b0381166000908152600c6020526040902054612756576001600160a01b0381166000908152600c602052604090206127549086866143be565b505b6001600160a01b0381811660009081526014602090815260408083208a8516845290915290205416806127fd576001600160a01b0382811660008181526014602090815260408083208c86168452825280832080546001600160a01b031916958e1695909517909455918152600f909152206127d29089614045565b6127fa576001600160a01b0382166000908152600f602052604090206127f8908961405a565b505b50865b6001600160a01b0381166128235760405162461bcd60e51b8152600401610f0390614d91565b61285b8484600081811061283357fe5b6001600160a01b0386166000908152600d60209081526040909120549391020135905061406f565b6001600160a01b0383166000908152600d60205260409020556060856001600160401b038111801561288c57600080fd5b506040519080825280602002602001820160405280156128b6578160200160208202803683370190505b50905060005b868110156129a1576001600160a01b0380851660009081526011602090815260408083209387168352929052205461291e578585828181106128fa57fe5b9050602002013582828151811061290d57fe5b602002602001018181525050612999565b6001600160a01b038085166000908152601160209081526040808320938716835292905220805461298091908390811061295457fe5b906000526020600020015487878481811061296b57fe5b9050602002013561406f90919063ffffffff16565b82828151811061298c57fe5b6020026020010181815250505b6001016128bc565b506001600160a01b038084166000908152601160209081526040808320938616835292815291902082516129d792840190614377565b506001600160a01b0380841660008181526012602090815260408083208786168452825280832093835260138252808320948d168352939052919091205480612b0b57612a22614411565b6001600160a01b038b168152604080516020808a02828101820190935289825290918a918a91829185019084908082843760009201829052506020868101958652885460018082018b558a845292829020885160029092020180546001600160a01b0319166001600160a01b039092169190911781559551805188979650612ab1955092860193500190614377565b505050828054905060136000886001600160a01b03166001600160a01b0316815260200190815260200160002060008d6001600160a01b03166001600160a01b031681526020019081526020016000208190555050612bc5565b6001600160a01b038086166000908152601260209081526040808320938816835292905290812080546000198401908110612b4257fe5b9060005260206000209060020201905060005b6001820154811015612bc257612b9f898983818110612b7057fe5b90506020020135836001018381548110612b8657fe5b906000526020600020015461406f90919063ffffffff16565b826001018281548110612bae57fe5b600091825260209091200155600101612b55565b50505b5050505050505050505050565b6001600160a01b038116600090815260086020908152604091829020600101805483518184028101840190945280845260609392830182828015611127576020028201919060005260206000209081546001600160a01b031681526001909101906020018083116112ba5750505050509050919050565b600c6020528160005260406000208181548110612c6257fe5b6000918252602090912001546001600160a01b03169150829050565b6001600160a01b0380831660009081526011602090815260408083209385168352929052908120548190612cb3579050610a9b565b612cc9612cc285856000612d61565b829061406f565b9050612cda612cc285856001612d61565b9050612ceb612cc285856002612d61565b9050612cfc612cc285856003612d61565b6001600160a01b038086166000908152600d60209081526040808320546011835281842094891684529390915281208054939450612d59936118f79290612d3f57fe5b90600052602060002001548461389b90919063ffffffff16565b949350505050565b6001600160a01b0380841660009081526011602090815260408083209386168352929052908120548190612d96576000612dd4565b6001600160a01b03808616600090815260116020908152604080832093881683529290529081208054909190612dc857fe5b90600052602060002001545b9050612dde614429565b506001600160a01b03851660009081526009602081815260408084208151610140810183526001820154610100820190815260028301546101208301526080808301918252845180860186526003850154815260048501548188015260a080850191909152855180870187526005860154815260068601548189015260c08086019190915286518088018852600787015481526008870154818a015260e08601529284528551808401875297850154888301908152600a86015489830152885285518087018752600b8601548152600c860154818901528888015285518087018752600d8601548152600e860154818901528887015285518087018752600f860154815260108601548189015260608981019190915284880198909852855180840187526011860154818401908152601287015482840152815286518088018852601387015481526014870154818a01528189015286518088018852601587015481526016870154818a01528188015286518088018852601787015481526018870154818a0152818a015284870152855192830186526019850154918301918252601a85015490830152815283518085018552601b8401548152601c840154818701528186015283518085018552601d8401548152601e84015481870152818501528351808501909452601f83015484529184015493830193909352808401919091529181019190915290612ff16142cd565b6001600160a01b03881660009081526008602090815260409182902082518154610120938102820184019094526101008101848152909391928492849184018282801561306757602002820191906000526020600020905b81546001600160a01b03168152600190910190602001808311613049575b50505050508152602001600182018054806020026020016040519081016040528092919081815260200182805480156130c957602002820191906000526020600020905b81546001600160a01b031681526001909101906020018083116130ab575b505050505081526020016002820180548060200260200160405190810160405280929190818152602001828054801561312b57602002820191906000526020600020905b81546001600160a01b0316815260019091019060200180831161310d575b505050505081526020016003820180548060200260200160405190810160405280929190818152602001828054801561318d57602002820191906000526020600020905b81546001600160a01b0316815260019091019060200180831161316f575b50505050508152602001600482018054806020026020016040519081016040528092919081815260200182805480156131e557602002820191906000526020600020905b8154815260200190600101908083116131d1575b505050505081526020016005820180548060200260200160405190810160405280929190818152602001828054801561323d57602002820191906000526020600020905b815481526020019060010190808311613229575b505050505081526020016006820180548060200260200160405190810160405280929190818152602001828054801561329557602002820191906000526020600020905b815481526020019060010190808311613281575b50505050508152602001600782018054806020026020016040519081016040528092919081815260200182805480156132ed57602002820191906000526020600020905b8154815260200190600101908083116132d9575b505050505081525050905085600014801561330d57506000816080015151115b15613353576133506015546118f7613329878760000151614094565b846080015160008151811061333a57fe5b602002602001015161389b90919063ffffffff16565b91505b856001148015613368575060008160a0015151115b15613398576133956015546118f7613384878760200151614094565b8460a0015160008151811061333a57fe5b91505b8560021480156133ad575060008160c0015151115b156133dd576133da6015546118f76133c9878760400151614094565b8460c0015160008151811061333a57fe5b91505b8560031480156133f2575060008160e0015151115b156134225761341f6015546118f761340e878760600151614094565b8460e0015160008151811061333a57fe5b91505b509695505050505050565b6001600160a01b038116600090815260086020908152604091829020805483518184028101840190945280845260609392830182828015611127576020028201919060005260206000209081546001600160a01b031681526001909101906020018083116112ba5750505050509050919050565b6001600160a01b038083166000908152600e602090815260408083209385168352929052908120546134d790610e8a858561171f565b9392505050565b60065460405163edb12adf60e01b81526001600160a01b039091169063edb12adf9061350e908490600401614b1f565b600060405180830381600087803b15801561352857600080fd5b505af1925050508015613539575060015b5061354381611ea4565b15611e2557600554604051636e0cf42160e11b81526001600160a01b039091169063dc19e84290613578908490600401614b1f565b60206040518083038186803b15801561359057600080fd5b505afa1580156135a4573d6000803e3d6000fd5b505050506040513d601f19601f820116820180604052508101906135c89190614a7a565b6135e45760405162461bcd60e51b8152600401610f0390614e2f565b806001600160a01b0316635468d6d76040518163ffffffff1660e01b815260040160206040518083038186803b15801561361d57600080fd5b505afa158015613631573d6000803e3d6000fd5b505050506040513d601f19601f820116820180604052508101906136559190614a7a565b6136715760405162461bcd60e51b8152600401610f0390614efc565b6040516327304dfd60e01b81526001600160a01b038216906327304dfd9061369d903390600401614b1f565b60206040518083038186803b1580156136b557600080fd5b505afa1580156136c9573d6000803e3d6000fd5b505050506040513d601f19601f820116820180604052508101906136ed9190614a7a565b806137795750336001600160a01b0316816001600160a01b0316633018205f6040518163ffffffff1660e01b815260040160206040518083038186803b15801561373657600080fd5b505afa15801561374a573d6000803e3d6000fd5b505050506040513d601f19601f8201168201806040525081019061376e919061464a565b6001600160a01b0316145b6137955760405162461bcd60e51b8152600401610f0390614dec565b60006137a182336134a1565b9050600081116137c35760405162461bcd60e51b8152600401610f0390614cb0565b6001600160a01b0382166000908152600e60209081526040808320338085529252909120805483019055611c3890613914565b600a6020526000908152604090205481565b6001600160a01b0381166000908152600f602052604081208161382a8261416f565b905060005b818110156138515761384585610900858461417a565b9093019260010161382f565b505050919050565b60006134d783836040518060400160405280601e81526020017f536166654d6174683a207375627472616374696f6e206f766572666c6f770000815250614186565b6000826138aa57506000610a9b565b828202828482816138b757fe5b04146134d75760405162461bcd60e51b8152600401610f0390614e61565b60006134d783836040518060400160405280601a815260200179536166654d6174683a206469766973696f6e206279207a65726f60301b8152506141b2565b6000813f7fc5d2460186f7233c927e7db2dcc703c0e500b653ca82273b7bfad8045d85a470818114801590612d59575050151592915050565b606080600483106139705760405162461bcd60e51b8152600401610f0390614d44565b6139786142cd565b6001600160a01b0385166000908152600860209081526040918290208251815461012093810282018401909452610100810184815290939192849284918401828280156139ee57602002820191906000526020600020905b81546001600160a01b031681526001909101906020018083116139d0575b5050505050815260200160018201805480602002602001604051908101604052809291908181526020018280548015613a5057602002820191906000526020600020905b81546001600160a01b03168152600190910190602001808311613a32575b5050505050815260200160028201805480602002602001604051908101604052809291908181526020018280548015613ab257602002820191906000526020600020905b81546001600160a01b03168152600190910190602001808311613a94575b5050505050815260200160038201805480602002602001604051908101604052809291908181526020018280548015613b1457602002820191906000526020600020905b81546001600160a01b03168152600190910190602001808311613af6575b5050505050815260200160048201805480602002602001604051908101604052809291908181526020018280548015613b6c57602002820191906000526020600020905b815481526020019060010190808311613b58575b5050505050815260200160058201805480602002602001604051908101604052809291908181526020018280548015613bc457602002820191906000526020600020905b815481526020019060010190808311613bb0575b5050505050815260200160068201805480602002602001604051908101604052809291908181526020018280548015613c1c57602002820191906000526020600020905b815481526020019060010190808311613c08575b5050505050815260200160078201805480602002602001604051908101604052809291908181526020018280548015613c7457602002820191906000526020600020905b815481526020019060010190808311613c60575b50505050508152505090508360001415613c95578051608082015190935091505b8360011415613cad57806020015192508060a0015191505b8360021415613cc557806040015192508060c0015191505b8360031415613cdd57806060015192508060e0015191505b509250929050565b606080876001600160401b0381118015613cfe57600080fd5b50604051908082528060200260200182016040528015613d28578160200160208202803683370190505b509150876001600160401b0381118015613d4157600080fd5b50604051908082528060200260200182016040528015613d6b578160200160208202803683370190505b50905082518451148015613d7e57508351155b80613da257506001600160a01b03851660009081526009602052604090205460ff16155b15613e375760005b88811015613e3157898982818110613dbe57fe5b9050602002016020810190613dd3919061462e565b838281518110613ddf57fe5b60200260200101906001600160a01b031690816001600160a01b031681525050878782818110613e0b57fe5b90506020020135828281518110613e1e57fe5b6020908102919091010152600101613daa565b50613f3d565b60005b88811015613f3b57898982818110613e4e57fe5b9050602002016020810190613e63919061462e565b6001600160a01b0316858281518110613e7857fe5b60200260200101516001600160a01b03161415613f33576000888883818110613e9d57fe5b9050602002013590508a8a83818110613eb257fe5b9050602002016020810190613ec7919061462e565b848381518110613ed357fe5b60200260200101906001600160a01b031690816001600160a01b031681525050613f1981868481518110613f0357fe5b602002602001015161406f90919063ffffffff16565b838381518110613f2557fe5b602002602001018181525050505b600101613e3a565b505b97509795505050505050565b6001600160a01b038416600090815260086020526040902083613f90578251613f789082906020860190614312565b508151613f8e9060048301906020850190614377565b505b8360011415613fc6578251613fae9060018301906020860190614312565b508151613fc49060058301906020850190614377565b505b8360021415613ffc578251613fe49060028301906020860190614312565b508151613ffa9060068301906020850190614377565b505b836003141561403257825161401a9060038301906020860190614312565b5081516140309060078301906020850190614377565b505b5050505050565b6060806134d7836141e9565b60006134d7836001600160a01b038416614243565b60006134d7836001600160a01b03841661425b565b6000828201838110156134d75760405162461bcd60e51b8152600401610f0390614cdb565b6000805b600481101561416857806140ce5782515184108015906140bc575060208301515184105b156140ce575050805160200151610a9b565b80600114156141045760208301515184108015906140f0575060408301515184105b156141045750506020808201510151610a9b565b806002141561413b576040830151518410801590614126575060608301515184105b1561413b575050604081015160200151610a9b565b8060031415614160576060830151518410614160575050606081015160200151610a9b565b600101614098565b5092915050565b6000610a9b826142a5565b60006134d783836142a9565b600081848411156141aa5760405162461bcd60e51b8152600401610f039190614c31565b505050900390565b600081836141d35760405162461bcd60e51b8152600401610f039190614c31565b5060008385816141df57fe5b0495945050505050565b60608160000180548060200260200160405190810160405280929190818152602001828054801561112757602002820191906000526020600020908154815260200190600101908083116111135750505050509050919050565b60009081526001919091016020526040902054151590565b60006142678383614243565b61429d57508154600181810184556000848152602080822090930184905584548482528286019093526040902091909155610a9b565b506000610a9b565b5490565b60008260000182815481106142ba57fe5b9060005260206000200154905092915050565b60405180610100016040528060608152602001606081526020016060815260200160608152602001606081526020016060815260200160608152602001606081525090565b828054828255906000526020600020908101928215614367579160200282015b8281111561436757825182546001600160a01b0319166001600160a01b03909116178255602090920191600190910190614332565b50614373929150614468565b5090565b8280548282559060005260206000209081019282156143b2579160200282015b828111156143b2578251825591602001919060010190614397565b50614373929150614487565b828054828255906000526020600020908101928215614367579160200282015b828111156143675781546001600160a01b0319166001600160a01b038435161782556020909201916001909101906143de565b60408051808201909152600081526060602082015290565b604051806080016040528061443c61449c565b815260200161444961449c565b815260200161445661449c565b815260200161446361449c565b905290565b5b808211156143735780546001600160a01b0319168155600101614469565b5b808211156143735760008155600101614488565b60405180608001604052806144af6144d2565b81526020016144bc6144d2565b81526020016144c96144d2565b81526020016144635b604051806040016040528060008152602001600081525090565b60008083601f8401126144fd578182fd5b5081356001600160401b03811115614513578182fd5b602083019150836020808302850101111561452d57600080fd5b9250929050565b600082601f830112614544578081fd5b813561455761455282614f5e565b614f38565b81815291506020808301908481018184028601820187101561457857600080fd5b60005b848110156119115781358452928201929082019060010161457b565b600061010082840312156145a9578081fd5b6145b36080614f38565b90506145bf83836145fd565b81526145ce83604084016145fd565b60208201526145e083608084016145fd565b60408201526145f28360c084016145fd565b606082015292915050565b60006040828403121561460e578081fd5b6146186040614f38565b9050813581526020820135602082015292915050565b60006020828403121561463f578081fd5b81356134d781614f7d565b60006020828403121561465b578081fd5b81516134d781614f7d565b60008060408385031215614678578081fd5b823561468381614f7d565b9150602083013561469381614f7d565b809150509250929050565b600080600080600080608087890312156146b6578182fd5b86356146c181614f7d565b955060208701356146d181614f7d565b945060408701356001600160401b03808211156146ec578384fd5b6146f88a838b016144ec565b90965094506060890135915080821115614710578384fd5b5061471d89828a016144ec565b979a9699509497509295939492505050565b600080600060608486031215614743578283fd5b833561474e81614f7d565b9250602084013561475e81614f7d565b929592945050506040919091013590565b60008060408385031215614781578081fd5b823561478c81614f7d565b9150602083013561469381614f92565b6000808284036104208112156147b0578283fd5b83356147bb81614f7d565b9250610400601f19820112156147cf578182fd5b506147da6080614f38565b6147e78560208601614597565b81526147f7856101208601614597565b602082015261480a856102208601614597565b604082015261481d856103208601614597565b6060820152809150509250929050565b6000806040838503121561483f578182fd5b823561484a81614f7d565b946020939093013593505050565b60008060008060008060808789031215614870578384fd5b863561487b81614f7d565b95506020870135945060408701356001600160401b03808211156146ec578586fd5b600060208083850312156148af578182fd5b82516001600160401b038111156148c4578283fd5b8301601f810185136148d4578283fd5b80516148e261455282614f5e565b81815283810190838501858402850186018910156148fe578687fd5b8694505b8385101561492957805161491581614f7d565b835260019490940193918501918501614902565b50979650505050505050565b60008060408385031215614947578182fd5b82356001600160401b038082111561495d578384fd5b818501915085601f830112614970578384fd5b813561497e61455282614f5e565b80828252602080830192508086018a82838702890101111561499e578889fd5b8896505b848710156149c95780356149b581614f7d565b8452600196909601959281019281016149a2565b5090965087013593505050808211156149e0578283fd5b506149ed85828601614534565b9150509250929050565b60006020808385031215614a09578182fd5b82516001600160401b03811115614a1e578283fd5b8301601f81018513614a2e578283fd5b8051614a3c61455282614f5e565b8181528381019083850185840285018601891015614a58578687fd5b8694505b83851015614929578051835260019490940193918501918501614a5c565b600060208284031215614a8b578081fd5b81516134d781614f92565b600060208284031215614aa7578081fd5b8151600281106134d7578182fd5b600060208284031215614ac6578081fd5b5035919050565b600060208284031215614ade578081fd5b5051919050565b6000815180845260208085019450808401835b83811015614b1457815187529582019590820190600101614af8565b509495945050505050565b6001600160a01b0391909116815260200190565b6001600160a01b03929092168252602082015260400190565b6020808252825182820181905260009190848201906040850190845b81811015614b8d5783516001600160a01b031683529284019291840191600101614b68565b50909695505050505050565b60208082528251828201819052600091906040908185019080840286018301878501865b83811015614c0557888303603f19018552815180516001600160a01b03168452870151878401879052614bf287850182614ae5565b9588019593505090860190600101614bbd565b509098975050505050505050565b6000602082526134d76020830184614ae5565b901515815260200190565b6000602080835283518082850152825b81811015614c5d57858101830151858201604001528201614c41565b81811115614c6e5783604083870101525b50601f01601f1916929092016040019392505050565b60208082526012908201527122a9292fa727aa2fa1a7a72a2927a62622a960711b604082015260600190565b60208082526011908201527011549497d21054d7d393d7d49155d05491607a1b604082015260600190565b6020808252601b908201527a536166654d6174683a206164646974696f6e206f766572666c6f7760281b604082015260600190565b6020808252601a908201527908aa4a4bea89e968a9cbe988a9c8ea890be9c9ea8be9a82a886960331b604082015260600190565b6020808252600990820152684552525f545950455360b81b604082015260600190565b60208082526010908201526f20b2323932b9b99034b99027bbb732b960811b604082015260600190565b6020808252601790820152764552525f494e56414c49445f4b4f4c5f4144445245535360481b604082015260600190565b60208082526010908201526f4552525f5a45524f5f4144445245535360801b604082015260600190565b6020808252600990820152682737ba1027bbb732b960b91b604082015260600190565b60208082526006908201526506f776e6572560d41b604082015260600190565b6020808252601890820152774552525f494e56414c49445f504f4f4c5f4144445245535360401b604082015260600190565b60208082526021908201527f536166654d6174683a206d756c7469706c69636174696f6e206f766572666c6f6040820152607760f81b606082015260800190565b6020808252600d908201526c11549497d21054d7d4d1551151609a1b604082015260600190565b6020808252601990820152784552525f494e56414c49445f5641554c545f4144445245535360381b604082015260600190565b60208082526019908201527811549497d393d517d0d3d354131155115117d0d3d3131150d5603a1b604082015260600190565b90815260200190565b6040518181016001600160401b0381118282101715614f5657600080fd5b604052919050565b60006001600160401b03821115614f73578081fd5b5060209081020190565b6001600160a01b0381168114611e2557600080fd5b8015158114611e2557600080fdfea2646970667358221220e3472c24f722817bd4fd1adf5b2c7fe86223e657e2233e358962403e4509775b64736f6c634300060c0033",
  "devdoc": {
    "author": "Desyn Labs",
    "kind": "dev",
    "methods": {
      "getController()": {
        "details": "external for gas optimization",
        "returns": {
          "_0": "address - of the owner (AKA controller)"
        }
      },
      "removeOwner(address)": {
        "details": "Allows to remove an owner. Transaction has to be sent by wallet.",
        "params": {
          "owner": "Address of owner."
        }
      },
      "setAddAdminList(address,uint256)": {
        "details": "external for gas optimization",
        "params": {
          "newOwner": "- address of new owner"
        }
      },
      "setController(address)": {
        "details": "external for gas optimization",
        "params": {
          "newOwner": "- address of new owner"
        }
      }
    },
    "title": "Vault managerFee",
    "version": 1
  },
  "userdoc": {
    "kind": "user",
    "methods": {
      "getController()": {
        "notice": "Returns the address of the current owner"
      },
      "setAddAdminList(address,uint256)": {
        "notice": "Transfers ownership of the contract to a new account (`newOwner`).         Can only be called by the current owner"
      },
      "setController(address)": {
        "notice": "Transfers ownership of the contract to a new account (`newOwner`).         Can only be called by the current owner"
      }
    },
    "version": 1
  },
  "storageLayout": {
    "storage": [
      {
        "astId": 17820,
        "contract": "contracts/deploy/UserVault.sol:UserVault",
        "label": "_owner",
        "offset": 0,
        "slot": "0",
        "type": "t_address"
      },
      {
        "astId": 17824,
        "contract": "contracts/deploy/UserVault.sol:UserVault",
        "label": "adminList",
        "offset": 0,
        "slot": "1",
        "type": "t_mapping(t_address,t_bool)"
      },
      {
        "astId": 17827,
        "contract": "contracts/deploy/UserVault.sol:UserVault",
        "label": "owners",
        "offset": 0,
        "slot": "2",
        "type": "t_array(t_address)dyn_storage"
      },
      {
        "astId": 17830,
        "contract": "contracts/deploy/UserVault.sol:UserVault",
        "label": "ownerPercentage",
        "offset": 0,
        "slot": "3",
        "type": "t_array(t_uint256)dyn_storage"
      },
      {
        "astId": 17832,
        "contract": "contracts/deploy/UserVault.sol:UserVault",
        "label": "allOwnerPercentage",
        "offset": 0,
        "slot": "4",
        "type": "t_uint256"
      },
      {
        "astId": 10110,
        "contract": "contracts/deploy/UserVault.sol:UserVault",
        "label": "crpFactory",
        "offset": 0,
        "slot": "5",
        "type": "t_contract(ICRPFactory)10096"
      },
      {
        "astId": 10112,
        "contract": "contracts/deploy/UserVault.sol:UserVault",
        "label": "vaultAddress",
        "offset": 0,
        "slot": "6",
        "type": "t_address"
      },
      {
        "astId": 10175,
        "contract": "contracts/deploy/UserVault.sol:UserVault",
        "label": "pool_manager",
        "offset": 0,
        "slot": "7",
        "type": "t_mapping(t_address,t_address)"
      },
      {
        "astId": 10179,
        "contract": "contracts/deploy/UserVault.sol:UserVault",
        "label": "poolsTokens",
        "offset": 0,
        "slot": "8",
        "type": "t_mapping(t_address,t_struct(PoolTokens)10156_storage)"
      },
      {
        "astId": 10183,
        "contract": "contracts/deploy/UserVault.sol:UserVault",
        "label": "poolsStatus",
        "offset": 0,
        "slot": "9",
        "type": "t_mapping(t_address,t_struct(PoolStatus)10165_storage)"
      },
      {
        "astId": 10187,
        "contract": "contracts/deploy/UserVault.sol:UserVault",
        "label": "record_number",
        "offset": 0,
        "slot": "10",
        "type": "t_mapping(t_address,t_uint256)"
      },
      {
        "astId": 10193,
        "contract": "contracts/deploy/UserVault.sol:UserVault",
        "label": "record_List",
        "offset": 0,
        "slot": "11",
        "type": "t_mapping(t_address,t_mapping(t_uint256,t_struct(ClaimRecordInfo)10131_storage))"
      },
      {
        "astId": 10198,
        "contract": "contracts/deploy/UserVault.sol:UserVault",
        "label": "kol_token_list",
        "offset": 0,
        "slot": "12",
        "type": "t_mapping(t_address,t_array(t_address)dyn_storage)"
      },
      {
        "astId": 10202,
        "contract": "contracts/deploy/UserVault.sol:UserVault",
        "label": "init_totalAmount_list",
        "offset": 0,
        "slot": "13",
        "type": "t_mapping(t_address,t_uint256)"
      },
      {
        "astId": 10208,
        "contract": "contracts/deploy/UserVault.sol:UserVault",
        "label": "manager_claimed_list",
        "offset": 0,
        "slot": "14",
        "type": "t_mapping(t_address,t_mapping(t_address,t_uint256))"
      },
      {
        "astId": 10212,
        "contract": "contracts/deploy/UserVault.sol:UserVault",
        "label": "kols_list",
        "offset": 0,
        "slot": "15",
        "type": "t_mapping(t_address,t_struct(AddressSet)9874_storage)"
      },
      {
        "astId": 10218,
        "contract": "contracts/deploy/UserVault.sol:UserVault",
        "label": "kol_claimed_list",
        "offset": 0,
        "slot": "16",
        "type": "t_mapping(t_address,t_mapping(t_address,t_uint256))"
      },
      {
        "astId": 10225,
        "contract": "contracts/deploy/UserVault.sol:UserVault",
        "label": "kol_totalAmount_list",
        "offset": 0,
        "slot": "17",
        "type": "t_mapping(t_address,t_mapping(t_address,t_array(t_uint256)dyn_storage))"
      },
      {
        "astId": 10232,
        "contract": "contracts/deploy/UserVault.sol:UserVault",
        "label": "kol_user_info",
        "offset": 0,
        "slot": "18",
        "type": "t_mapping(t_address,t_mapping(t_address,t_array(t_struct(KolUserInfo)10171_storage)dyn_storage))"
      },
      {
        "astId": 10238,
        "contract": "contracts/deploy/UserVault.sol:UserVault",
        "label": "user_index_list",
        "offset": 0,
        "slot": "19",
        "type": "t_mapping(t_address,t_mapping(t_address,t_uint256))"
      },
      {
        "astId": 10244,
        "contract": "contracts/deploy/UserVault.sol:UserVault",
        "label": "user_kol_list",
        "offset": 0,
        "slot": "20",
        "type": "t_mapping(t_address,t_mapping(t_address,t_address))"
      },
      {
        "astId": 10247,
        "contract": "contracts/deploy/UserVault.sol:UserVault",
        "label": "RATIO_TOTAL",
        "offset": 0,
        "slot": "21",
        "type": "t_uint256"
      }
    ],
    "types": {
      "t_address": {
        "encoding": "inplace",
        "label": "address",
        "numberOfBytes": "20"
      },
      "t_array(t_address)dyn_storage": {
        "base": "t_address",
        "encoding": "dynamic_array",
        "label": "address[]",
        "numberOfBytes": "32"
      },
      "t_array(t_bytes32)dyn_storage": {
        "base": "t_bytes32",
        "encoding": "dynamic_array",
        "label": "bytes32[]",
        "numberOfBytes": "32"
      },
      "t_array(t_struct(ClaimtokensInfo)10125_storage)dyn_storage": {
        "base": "t_struct(ClaimtokensInfo)10125_storage",
        "encoding": "dynamic_array",
        "label": "struct UserVault.ClaimtokensInfo[]",
        "numberOfBytes": "32"
      },
      "t_array(t_struct(KolUserInfo)10171_storage)dyn_storage": {
        "base": "t_struct(KolUserInfo)10171_storage",
        "encoding": "dynamic_array",
        "label": "struct UserVault.KolUserInfo[]",
        "numberOfBytes": "32"
      },
      "t_array(t_uint256)dyn_storage": {
        "base": "t_uint256",
        "encoding": "dynamic_array",
        "label": "uint256[]",
        "numberOfBytes": "32"
      },
      "t_bool": {
        "encoding": "inplace",
        "label": "bool",
        "numberOfBytes": "1"
      },
      "t_bytes32": {
        "encoding": "inplace",
        "label": "bytes32",
        "numberOfBytes": "32"
      },
      "t_contract(ICRPFactory)10096": {
        "encoding": "inplace",
        "label": "contract ICRPFactory",
        "numberOfBytes": "20"
      },
      "t_mapping(t_address,t_address)": {
        "encoding": "mapping",
        "key": "t_address",
        "label": "mapping(address => address)",
        "numberOfBytes": "32",
        "value": "t_address"
      },
      "t_mapping(t_address,t_array(t_address)dyn_storage)": {
        "encoding": "mapping",
        "key": "t_address",
        "label": "mapping(address => address[])",
        "numberOfBytes": "32",
        "value": "t_array(t_address)dyn_storage"
      },
      "t_mapping(t_address,t_array(t_struct(KolUserInfo)10171_storage)dyn_storage)": {
        "encoding": "mapping",
        "key": "t_address",
        "label": "mapping(address => struct UserVault.KolUserInfo[])",
        "numberOfBytes": "32",
        "value": "t_array(t_struct(KolUserInfo)10171_storage)dyn_storage"
      },
      "t_mapping(t_address,t_array(t_uint256)dyn_storage)": {
        "encoding": "mapping",
        "key": "t_address",
        "label": "mapping(address => uint256[])",
        "numberOfBytes": "32",
        "value": "t_array(t_uint256)dyn_storage"
      },
      "t_mapping(t_address,t_bool)": {
        "encoding": "mapping",
        "key": "t_address",
        "label": "mapping(address => bool)",
        "numberOfBytes": "32",
        "value": "t_bool"
      },
      "t_mapping(t_address,t_mapping(t_address,t_address))": {
        "encoding": "mapping",
        "key": "t_address",
        "label": "mapping(address => mapping(address => address))",
        "numberOfBytes": "32",
        "value": "t_mapping(t_address,t_address)"
      },
      "t_mapping(t_address,t_mapping(t_address,t_array(t_struct(KolUserInfo)10171_storage)dyn_storage))": {
        "encoding": "mapping",
        "key": "t_address",
        "label": "mapping(address => mapping(address => struct UserVault.KolUserInfo[]))",
        "numberOfBytes": "32",
        "value": "t_mapping(t_address,t_array(t_struct(KolUserInfo)10171_storage)dyn_storage)"
      },
      "t_mapping(t_address,t_mapping(t_address,t_array(t_uint256)dyn_storage))": {
        "encoding": "mapping",
        "key": "t_address",
        "label": "mapping(address => mapping(address => uint256[]))",
        "numberOfBytes": "32",
        "value": "t_mapping(t_address,t_array(t_uint256)dyn_storage)"
      },
      "t_mapping(t_address,t_mapping(t_address,t_uint256))": {
        "encoding": "mapping",
        "key": "t_address",
        "label": "mapping(address => mapping(address => uint256))",
        "numberOfBytes": "32",
        "value": "t_mapping(t_address,t_uint256)"
      },
      "t_mapping(t_address,t_mapping(t_uint256,t_struct(ClaimRecordInfo)10131_storage))": {
        "encoding": "mapping",
        "key": "t_address",
        "label": "mapping(address => mapping(uint256 => struct UserVault.ClaimRecordInfo))",
        "numberOfBytes": "32",
        "value": "t_mapping(t_uint256,t_struct(ClaimRecordInfo)10131_storage)"
      },
      "t_mapping(t_address,t_struct(AddressSet)9874_storage)": {
        "encoding": "mapping",
        "key": "t_address",
        "label": "mapping(address => struct EnumerableSet.AddressSet)",
        "numberOfBytes": "32",
        "value": "t_struct(AddressSet)9874_storage"
      },
      "t_mapping(t_address,t_struct(PoolStatus)10165_storage)": {
        "encoding": "mapping",
        "key": "t_address",
        "label": "mapping(address => struct UserVault.PoolStatus)",
        "numberOfBytes": "32",
        "value": "t_struct(PoolStatus)10165_storage"
      },
      "t_mapping(t_address,t_struct(PoolTokens)10156_storage)": {
        "encoding": "mapping",
        "key": "t_address",
        "label": "mapping(address => struct UserVault.PoolTokens)",
        "numberOfBytes": "32",
        "value": "t_struct(PoolTokens)10156_storage"
      },
      "t_mapping(t_address,t_uint256)": {
        "encoding": "mapping",
        "key": "t_address",
        "label": "mapping(address => uint256)",
        "numberOfBytes": "32",
        "value": "t_uint256"
      },
      "t_mapping(t_bytes32,t_uint256)": {
        "encoding": "mapping",
        "key": "t_bytes32",
        "label": "mapping(bytes32 => uint256)",
        "numberOfBytes": "32",
        "value": "t_uint256"
      },
      "t_mapping(t_uint256,t_struct(ClaimRecordInfo)10131_storage)": {
        "encoding": "mapping",
        "key": "t_uint256",
        "label": "mapping(uint256 => struct UserVault.ClaimRecordInfo)",
        "numberOfBytes": "32",
        "value": "t_struct(ClaimRecordInfo)10131_storage"
      },
      "t_struct(AddressSet)9874_storage": {
        "encoding": "inplace",
        "label": "struct EnumerableSet.AddressSet",
        "members": [
          {
            "astId": 9873,
            "contract": "contracts/deploy/UserVault.sol:UserVault",
            "label": "_inner",
            "offset": 0,
            "slot": "0",
            "type": "t_struct(Set)9687_storage"
          }
        ],
        "numberOfBytes": "64"
      },
      "t_struct(ClaimRecordInfo)10131_storage": {
        "encoding": "inplace",
        "label": "struct UserVault.ClaimRecordInfo",
        "members": [
          {
            "astId": 10127,
            "contract": "contracts/deploy/UserVault.sol:UserVault",
            "label": "time",
            "offset": 0,
            "slot": "0",
            "type": "t_uint256"
          },
          {
            "astId": 10130,
            "contract": "contracts/deploy/UserVault.sol:UserVault",
            "label": "tokens",
            "offset": 0,
            "slot": "1",
            "type": "t_array(t_struct(ClaimtokensInfo)10125_storage)dyn_storage"
          }
        ],
        "numberOfBytes": "64"
      },
      "t_struct(ClaimtokensInfo)10125_storage": {
        "encoding": "inplace",
        "label": "struct UserVault.ClaimtokensInfo",
        "members": [
          {
            "astId": 10120,
            "contract": "contracts/deploy/UserVault.sol:UserVault",
            "label": "token",
            "offset": 0,
            "slot": "0",
            "type": "t_address"
          },
          {
            "astId": 10122,
            "contract": "contracts/deploy/UserVault.sol:UserVault",
            "label": "decimals",
            "offset": 0,
            "slot": "1",
            "type": "t_uint256"
          },
          {
            "astId": 10124,
            "contract": "contracts/deploy/UserVault.sol:UserVault",
            "label": "amount",
            "offset": 0,
            "slot": "2",
            "type": "t_uint256"
          }
        ],
        "numberOfBytes": "96"
      },
      "t_struct(KolPoolParams)16531_storage": {
        "encoding": "inplace",
        "label": "struct SmartPoolManager.KolPoolParams",
        "members": [
          {
            "astId": 16524,
            "contract": "contracts/deploy/UserVault.sol:UserVault",
            "label": "managerFee",
            "offset": 0,
            "slot": "0",
            "type": "t_struct(feeParams)16522_storage"
          },
          {
            "astId": 16526,
            "contract": "contracts/deploy/UserVault.sol:UserVault",
            "label": "issueFee",
            "offset": 0,
            "slot": "8",
            "type": "t_struct(feeParams)16522_storage"
          },
          {
            "astId": 16528,
            "contract": "contracts/deploy/UserVault.sol:UserVault",
            "label": "redeemFee",
            "offset": 0,
            "slot": "16",
            "type": "t_struct(feeParams)16522_storage"
          },
          {
            "astId": 16530,
            "contract": "contracts/deploy/UserVault.sol:UserVault",
            "label": "perfermanceFee",
            "offset": 0,
            "slot": "24",
            "type": "t_struct(feeParams)16522_storage"
          }
        ],
        "numberOfBytes": "1024"
      },
      "t_struct(KolUserInfo)10171_storage": {
        "encoding": "inplace",
        "label": "struct UserVault.KolUserInfo",
        "members": [
          {
            "astId": 10167,
            "contract": "contracts/deploy/UserVault.sol:UserVault",
            "label": "userAdr",
            "offset": 0,
            "slot": "0",
            "type": "t_address"
          },
          {
            "astId": 10170,
            "contract": "contracts/deploy/UserVault.sol:UserVault",
            "label": "userAmount",
            "offset": 0,
            "slot": "1",
            "type": "t_array(t_uint256)dyn_storage"
          }
        ],
        "numberOfBytes": "64"
      },
      "t_struct(PoolStatus)10165_storage": {
        "encoding": "inplace",
        "label": "struct UserVault.PoolStatus",
        "members": [
          {
            "astId": 10158,
            "contract": "contracts/deploy/UserVault.sol:UserVault",
            "label": "couldManagerClaim",
            "offset": 0,
            "slot": "0",
            "type": "t_bool"
          },
          {
            "astId": 10160,
            "contract": "contracts/deploy/UserVault.sol:UserVault",
            "label": "isBlackList",
            "offset": 1,
            "slot": "0",
            "type": "t_bool"
          },
          {
            "astId": 10162,
            "contract": "contracts/deploy/UserVault.sol:UserVault",
            "label": "isSetParams",
            "offset": 2,
            "slot": "0",
            "type": "t_bool"
          },
          {
            "astId": 10164,
            "contract": "contracts/deploy/UserVault.sol:UserVault",
            "label": "kolPoolConfig",
            "offset": 0,
            "slot": "1",
            "type": "t_struct(KolPoolParams)16531_storage"
          }
        ],
        "numberOfBytes": "1056"
      },
      "t_struct(PoolTokens)10156_storage": {
        "encoding": "inplace",
        "label": "struct UserVault.PoolTokens",
        "members": [
          {
            "astId": 10134,
            "contract": "contracts/deploy/UserVault.sol:UserVault",
            "label": "tokenList",
            "offset": 0,
            "slot": "0",
            "type": "t_array(t_address)dyn_storage"
          },
          {
            "astId": 10137,
            "contract": "contracts/deploy/UserVault.sol:UserVault",
            "label": "issueTokens",
            "offset": 0,
            "slot": "1",
            "type": "t_array(t_address)dyn_storage"
          },
          {
            "astId": 10140,
            "contract": "contracts/deploy/UserVault.sol:UserVault",
            "label": "redeemTokens",
            "offset": 0,
            "slot": "2",
            "type": "t_array(t_address)dyn_storage"
          },
          {
            "astId": 10143,
            "contract": "contracts/deploy/UserVault.sol:UserVault",
            "label": "perfermanceTokens",
            "offset": 0,
            "slot": "3",
            "type": "t_array(t_address)dyn_storage"
          },
          {
            "astId": 10146,
            "contract": "contracts/deploy/UserVault.sol:UserVault",
            "label": "managerAmount",
            "offset": 0,
            "slot": "4",
            "type": "t_array(t_uint256)dyn_storage"
          },
          {
            "astId": 10149,
            "contract": "contracts/deploy/UserVault.sol:UserVault",
            "label": "issueAmount",
            "offset": 0,
            "slot": "5",
            "type": "t_array(t_uint256)dyn_storage"
          },
          {
            "astId": 10152,
            "contract": "contracts/deploy/UserVault.sol:UserVault",
            "label": "redeemAmount",
            "offset": 0,
            "slot": "6",
            "type": "t_array(t_uint256)dyn_storage"
          },
          {
            "astId": 10155,
            "contract": "contracts/deploy/UserVault.sol:UserVault",
            "label": "perfermanceAmount",
            "offset": 0,
            "slot": "7",
            "type": "t_array(t_uint256)dyn_storage"
          }
        ],
        "numberOfBytes": "256"
      },
      "t_struct(Set)9687_storage": {
        "encoding": "inplace",
        "label": "struct EnumerableSet.Set",
        "members": [
          {
            "astId": 9682,
            "contract": "contracts/deploy/UserVault.sol:UserVault",
            "label": "_values",
            "offset": 0,
            "slot": "0",
            "type": "t_array(t_bytes32)dyn_storage"
          },
          {
            "astId": 9686,
            "contract": "contracts/deploy/UserVault.sol:UserVault",
            "label": "_indexes",
            "offset": 0,
            "slot": "1",
            "type": "t_mapping(t_bytes32,t_uint256)"
          }
        ],
        "numberOfBytes": "64"
      },
      "t_struct(feeParams)16522_storage": {
        "encoding": "inplace",
        "label": "struct SmartPoolManager.feeParams",
        "members": [
          {
            "astId": 16515,
            "contract": "contracts/deploy/UserVault.sol:UserVault",
            "label": "firstLevel",
            "offset": 0,
            "slot": "0",
            "type": "t_struct(levelParams)16513_storage"
          },
          {
            "astId": 16517,
            "contract": "contracts/deploy/UserVault.sol:UserVault",
            "label": "secondLevel",
            "offset": 0,
            "slot": "2",
            "type": "t_struct(levelParams)16513_storage"
          },
          {
            "astId": 16519,
            "contract": "contracts/deploy/UserVault.sol:UserVault",
            "label": "thirdLevel",
            "offset": 0,
            "slot": "4",
            "type": "t_struct(levelParams)16513_storage"
          },
          {
            "astId": 16521,
            "contract": "contracts/deploy/UserVault.sol:UserVault",
            "label": "fourLevel",
            "offset": 0,
            "slot": "6",
            "type": "t_struct(levelParams)16513_storage"
          }
        ],
        "numberOfBytes": "256"
      },
      "t_struct(levelParams)16513_storage": {
        "encoding": "inplace",
        "label": "struct SmartPoolManager.levelParams",
        "members": [
          {
            "astId": 16510,
            "contract": "contracts/deploy/UserVault.sol:UserVault",
            "label": "level",
            "offset": 0,
            "slot": "0",
            "type": "t_uint256"
          },
          {
            "astId": 16512,
            "contract": "contracts/deploy/UserVault.sol:UserVault",
            "label": "ratio",
            "offset": 0,
            "slot": "1",
            "type": "t_uint256"
          }
        ],
        "numberOfBytes": "64"
      },
      "t_uint256": {
        "encoding": "inplace",
        "label": "uint256",
        "numberOfBytes": "32"
      }
    }
  }
}