{
  "address": "0xFd185017B61721f11Df1FAe253540d94015A283E",
  "abi": [
    {
      "anonymous": false,
      "inputs": [
        {
          "indexed": true,
          "internalType": "address",
          "name": "caller",
          "type": "address"
        },
        {
          "indexed": true,
          "internalType": "address",
          "name": "kol",
          "type": "address"
        },
        {
          "indexed": false,
          "internalType": "address",
          "name": "token",
          "type": "address"
        },
        {
          "indexed": false,
          "internalType": "uint256",
          "name": "amount",
          "type": "uint256"
        },
        {
          "indexed": false,
          "internalType": "uint256",
          "name": "time",
          "type": "uint256"
        }
      ],
      "name": "KolClaim",
      "type": "event"
    },
    {
      "anonymous": true,
      "inputs": [
        {
          "indexed": true,
          "internalType": "bytes4",
          "name": "sig",
          "type": "bytes4"
        },
        {
          "indexed": true,
          "internalType": "address",
          "name": "caller",
          "type": "address"
        },
        {
          "indexed": false,
          "internalType": "bytes",
          "name": "data",
          "type": "bytes"
        }
      ],
      "name": "LOG_CALL",
      "type": "event"
    },
    {
      "anonymous": false,
      "inputs": [
        {
          "indexed": true,
          "internalType": "address",
          "name": "caller",
          "type": "address"
        },
        {
          "indexed": true,
          "internalType": "address",
          "name": "pool",
          "type": "address"
        },
        {
          "indexed": true,
          "internalType": "address",
          "name": "manager",
          "type": "address"
        },
        {
          "indexed": false,
          "internalType": "address",
          "name": "token",
          "type": "address"
        },
        {
          "indexed": false,
          "internalType": "uint256",
          "name": "amount",
          "type": "uint256"
        },
        {
          "indexed": false,
          "internalType": "uint256",
          "name": "time",
          "type": "uint256"
        }
      ],
      "name": "ManagerClaim",
      "type": "event"
    },
    {
      "anonymous": false,
      "inputs": [
        {
          "indexed": true,
          "internalType": "address",
          "name": "caller",
          "type": "address"
        },
        {
          "indexed": true,
          "internalType": "address",
          "name": "pool",
          "type": "address"
        },
        {
          "indexed": false,
          "internalType": "address",
          "name": "token",
          "type": "address"
        },
        {
          "indexed": false,
          "internalType": "uint256",
          "name": "amount",
          "type": "uint256"
        },
        {
          "indexed": false,
          "internalType": "uint256",
          "name": "time",
          "type": "uint256"
        }
      ],
      "name": "ManagersClaim",
      "type": "event"
    },
    {
      "anonymous": false,
      "inputs": [
        {
          "indexed": true,
          "internalType": "address",
          "name": "previousOwner",
          "type": "address"
        },
        {
          "indexed": true,
          "internalType": "address",
          "name": "newOwner",
          "type": "address"
        }
      ],
      "name": "OwnershipTransferred",
      "type": "event"
    },
    {
      "anonymous": false,
      "inputs": [
        {
          "indexed": true,
          "internalType": "address",
          "name": "pool",
          "type": "address"
        },
        {
          "indexed": false,
          "internalType": "uint256",
          "name": "types",
          "type": "uint256"
        },
        {
          "indexed": false,
          "internalType": "address",
          "name": "caller",
          "type": "address"
        },
        {
          "indexed": false,
          "internalType": "address",
          "name": "token",
          "type": "address"
        },
        {
          "indexed": false,
          "internalType": "uint256",
          "name": "balance",
          "type": "uint256"
        }
      ],
      "name": "TypeAmountIn",
      "type": "event"
    },
    {
      "inputs": [],
      "name": "claimEther",
      "outputs": [],
      "stateMutability": "payable",
      "type": "function"
    },
    {
      "inputs": [
        {
          "internalType": "address",
          "name": "token",
          "type": "address"
        },
        {
          "internalType": "address",
          "name": "user",
          "type": "address"
        },
        {
          "internalType": "uint256",
          "name": "amount",
          "type": "uint256"
        }
      ],
      "name": "claimToken",
      "outputs": [],
      "stateMutability": "nonpayable",
      "type": "function"
    },
    {
      "inputs": [
        {
          "internalType": "address",
          "name": "pool",
          "type": "address"
        },
        {
          "internalType": "uint256",
          "name": "types",
          "type": "uint256"
        },
        {
          "internalType": "address[]",
          "name": "tokensIn",
          "type": "address[]"
        },
        {
          "internalType": "uint256[]",
          "name": "amountsIn",
          "type": "uint256[]"
        }
      ],
      "name": "depositToken",
      "outputs": [],
      "stateMutability": "nonpayable",
      "type": "function"
    },
    {
      "inputs": [
        {
          "internalType": "address",
          "name": "pool",
          "type": "address"
        },
        {
          "internalType": "address",
          "name": "kol",
          "type": "address"
        }
      ],
      "name": "getKolFeeType",
      "outputs": [
        {
          "components": [
            {
              "internalType": "address[]",
              "name": "tokenList",
              "type": "address[]"
            },
            {
              "internalType": "uint256[]",
              "name": "managerAmount",
              "type": "uint256[]"
            },
            {
              "internalType": "uint256[]",
              "name": "issueAmount",
              "type": "uint256[]"
            },
            {
              "internalType": "uint256[]",
              "name": "redeemAmount",
              "type": "uint256[]"
            },
            {
              "internalType": "uint256[]",
              "name": "perfermanceAmount",
              "type": "uint256[]"
            }
          ],
          "internalType": "struct UserVault.PoolTokens",
          "name": "result",
          "type": "tuple"
        }
      ],
      "stateMutability": "view",
      "type": "function"
    },
    {
      "inputs": [
        {
          "internalType": "address",
          "name": "pool",
          "type": "address"
        },
        {
          "internalType": "address",
          "name": "kol",
          "type": "address"
        }
      ],
      "name": "getKolHasClaimed",
      "outputs": [
        {
          "components": [
            {
              "internalType": "address[]",
              "name": "tokens",
              "type": "address[]"
            },
            {
              "internalType": "uint256[]",
              "name": "amounts",
              "type": "uint256[]"
            }
          ],
          "internalType": "struct UserVault.ClaimTokens",
          "name": "",
          "type": "tuple"
        }
      ],
      "stateMutability": "view",
      "type": "function"
    },
    {
      "inputs": [
        {
          "internalType": "address",
          "name": "pool",
          "type": "address"
        },
        {
          "internalType": "address",
          "name": "kol",
          "type": "address"
        }
      ],
      "name": "getKolReward",
      "outputs": [
        {
          "internalType": "address[]",
          "name": "tokenList",
          "type": "address[]"
        },
        {
          "internalType": "uint256[]",
          "name": "balances",
          "type": "uint256[]"
        }
      ],
      "stateMutability": "view",
      "type": "function"
    },
    {
      "inputs": [
        {
          "internalType": "address",
          "name": "pool",
          "type": "address"
        },
        {
          "internalType": "address",
          "name": "kol",
          "type": "address"
        }
      ],
      "name": "getKolUserInfo",
      "outputs": [
        {
          "components": [
            {
              "internalType": "address",
              "name": "userAdr",
              "type": "address"
            },
            {
              "internalType": "uint256[]",
              "name": "userAmount",
              "type": "uint256[]"
            }
          ],
          "internalType": "struct UserVault.KolUserInfo[]",
          "name": "",
          "type": "tuple[]"
        }
      ],
      "stateMutability": "view",
      "type": "function"
    },
    {
      "inputs": [
        {
          "internalType": "address",
          "name": "pool",
          "type": "address"
        }
      ],
      "name": "getKolsAdr",
      "outputs": [
        {
          "internalType": "address[]",
          "name": "",
          "type": "address[]"
        }
      ],
      "stateMutability": "view",
      "type": "function"
    },
    {
      "inputs": [
        {
          "internalType": "address",
          "name": "pool",
          "type": "address"
        }
      ],
      "name": "getKolsReward",
      "outputs": [
        {
          "internalType": "address[]",
          "name": "",
          "type": "address[]"
        },
        {
          "internalType": "uint256[]",
          "name": "",
          "type": "uint256[]"
        }
      ],
      "stateMutability": "view",
      "type": "function"
    },
    {
      "inputs": [
        {
          "internalType": "address",
          "name": "pool",
          "type": "address"
        }
      ],
      "name": "getManageHasClaimed",
      "outputs": [
        {
          "components": [
            {
              "internalType": "address[]",
              "name": "tokens",
              "type": "address[]"
            },
            {
              "internalType": "uint256[]",
              "name": "amounts",
              "type": "uint256[]"
            }
          ],
          "internalType": "struct UserVault.ClaimTokens",
          "name": "",
          "type": "tuple"
        }
      ],
      "stateMutability": "view",
      "type": "function"
    },
    {
      "inputs": [
        {
          "internalType": "address",
          "name": "pool",
          "type": "address"
        }
      ],
      "name": "getManagerClaimBool",
      "outputs": [
        {
          "internalType": "bool",
          "name": "",
          "type": "bool"
        }
      ],
      "stateMutability": "view",
      "type": "function"
    },
    {
      "inputs": [
        {
          "internalType": "address",
          "name": "pool",
          "type": "address"
        }
      ],
      "name": "getManagerFeeTypes",
      "outputs": [
        {
          "components": [
            {
              "internalType": "address[]",
              "name": "tokenList",
              "type": "address[]"
            },
            {
              "internalType": "uint256[]",
              "name": "managerAmount",
              "type": "uint256[]"
            },
            {
              "internalType": "uint256[]",
              "name": "issueAmount",
              "type": "uint256[]"
            },
            {
              "internalType": "uint256[]",
              "name": "redeemAmount",
              "type": "uint256[]"
            },
            {
              "internalType": "uint256[]",
              "name": "perfermanceAmount",
              "type": "uint256[]"
            }
          ],
          "internalType": "struct UserVault.PoolTokens",
          "name": "result",
          "type": "tuple"
        }
      ],
      "stateMutability": "view",
      "type": "function"
    },
    {
      "inputs": [
        {
          "internalType": "address",
          "name": "pool",
          "type": "address"
        }
      ],
      "name": "getManagerReward",
      "outputs": [
        {
          "internalType": "address[]",
          "name": "",
          "type": "address[]"
        },
        {
          "internalType": "uint256[]",
          "name": "",
          "type": "uint256[]"
        }
      ],
      "stateMutability": "view",
      "type": "function"
    },
    {
      "inputs": [
        {
          "internalType": "address",
          "name": "pool",
          "type": "address"
        }
      ],
      "name": "getPoolConfig",
      "outputs": [
        {
          "components": [
            {
              "components": [
                {
                  "components": [
                    {
                      "internalType": "uint256",
                      "name": "level",
                      "type": "uint256"
                    },
                    {
                      "internalType": "uint256",
                      "name": "ratio",
                      "type": "uint256"
                    }
                  ],
                  "internalType": "struct SmartPoolManager.levelParams",
                  "name": "firstLevel",
                  "type": "tuple"
                },
                {
                  "components": [
                    {
                      "internalType": "uint256",
                      "name": "level",
                      "type": "uint256"
                    },
                    {
                      "internalType": "uint256",
                      "name": "ratio",
                      "type": "uint256"
                    }
                  ],
                  "internalType": "struct SmartPoolManager.levelParams",
                  "name": "secondLevel",
                  "type": "tuple"
                },
                {
                  "components": [
                    {
                      "internalType": "uint256",
                      "name": "level",
                      "type": "uint256"
                    },
                    {
                      "internalType": "uint256",
                      "name": "ratio",
                      "type": "uint256"
                    }
                  ],
                  "internalType": "struct SmartPoolManager.levelParams",
                  "name": "thirdLevel",
                  "type": "tuple"
                },
                {
                  "components": [
                    {
                      "internalType": "uint256",
                      "name": "level",
                      "type": "uint256"
                    },
                    {
                      "internalType": "uint256",
                      "name": "ratio",
                      "type": "uint256"
                    }
                  ],
                  "internalType": "struct SmartPoolManager.levelParams",
                  "name": "fourLevel",
                  "type": "tuple"
                }
              ],
              "internalType": "struct SmartPoolManager.feeParams",
              "name": "managerFee",
              "type": "tuple"
            },
            {
              "components": [
                {
                  "components": [
                    {
                      "internalType": "uint256",
                      "name": "level",
                      "type": "uint256"
                    },
                    {
                      "internalType": "uint256",
                      "name": "ratio",
                      "type": "uint256"
                    }
                  ],
                  "internalType": "struct SmartPoolManager.levelParams",
                  "name": "firstLevel",
                  "type": "tuple"
                },
                {
                  "components": [
                    {
                      "internalType": "uint256",
                      "name": "level",
                      "type": "uint256"
                    },
                    {
                      "internalType": "uint256",
                      "name": "ratio",
                      "type": "uint256"
                    }
                  ],
                  "internalType": "struct SmartPoolManager.levelParams",
                  "name": "secondLevel",
                  "type": "tuple"
                },
                {
                  "components": [
                    {
                      "internalType": "uint256",
                      "name": "level",
                      "type": "uint256"
                    },
                    {
                      "internalType": "uint256",
                      "name": "ratio",
                      "type": "uint256"
                    }
                  ],
                  "internalType": "struct SmartPoolManager.levelParams",
                  "name": "thirdLevel",
                  "type": "tuple"
                },
                {
                  "components": [
                    {
                      "internalType": "uint256",
                      "name": "level",
                      "type": "uint256"
                    },
                    {
                      "internalType": "uint256",
                      "name": "ratio",
                      "type": "uint256"
                    }
                  ],
                  "internalType": "struct SmartPoolManager.levelParams",
                  "name": "fourLevel",
                  "type": "tuple"
                }
              ],
              "internalType": "struct SmartPoolManager.feeParams",
              "name": "issueFee",
              "type": "tuple"
            },
            {
              "components": [
                {
                  "components": [
                    {
                      "internalType": "uint256",
                      "name": "level",
                      "type": "uint256"
                    },
                    {
                      "internalType": "uint256",
                      "name": "ratio",
                      "type": "uint256"
                    }
                  ],
                  "internalType": "struct SmartPoolManager.levelParams",
                  "name": "firstLevel",
                  "type": "tuple"
                },
                {
                  "components": [
                    {
                      "internalType": "uint256",
                      "name": "level",
                      "type": "uint256"
                    },
                    {
                      "internalType": "uint256",
                      "name": "ratio",
                      "type": "uint256"
                    }
                  ],
                  "internalType": "struct SmartPoolManager.levelParams",
                  "name": "secondLevel",
                  "type": "tuple"
                },
                {
                  "components": [
                    {
                      "internalType": "uint256",
                      "name": "level",
                      "type": "uint256"
                    },
                    {
                      "internalType": "uint256",
                      "name": "ratio",
                      "type": "uint256"
                    }
                  ],
                  "internalType": "struct SmartPoolManager.levelParams",
                  "name": "thirdLevel",
                  "type": "tuple"
                },
                {
                  "components": [
                    {
                      "internalType": "uint256",
                      "name": "level",
                      "type": "uint256"
                    },
                    {
                      "internalType": "uint256",
                      "name": "ratio",
                      "type": "uint256"
                    }
                  ],
                  "internalType": "struct SmartPoolManager.levelParams",
                  "name": "fourLevel",
                  "type": "tuple"
                }
              ],
              "internalType": "struct SmartPoolManager.feeParams",
              "name": "redeemFee",
              "type": "tuple"
            },
            {
              "components": [
                {
                  "components": [
                    {
                      "internalType": "uint256",
                      "name": "level",
                      "type": "uint256"
                    },
                    {
                      "internalType": "uint256",
                      "name": "ratio",
                      "type": "uint256"
                    }
                  ],
                  "internalType": "struct SmartPoolManager.levelParams",
                  "name": "firstLevel",
                  "type": "tuple"
                },
                {
                  "components": [
                    {
                      "internalType": "uint256",
                      "name": "level",
                      "type": "uint256"
                    },
                    {
                      "internalType": "uint256",
                      "name": "ratio",
                      "type": "uint256"
                    }
                  ],
                  "internalType": "struct SmartPoolManager.levelParams",
                  "name": "secondLevel",
                  "type": "tuple"
                },
                {
                  "components": [
                    {
                      "internalType": "uint256",
                      "name": "level",
                      "type": "uint256"
                    },
                    {
                      "internalType": "uint256",
                      "name": "ratio",
                      "type": "uint256"
                    }
                  ],
                  "internalType": "struct SmartPoolManager.levelParams",
                  "name": "thirdLevel",
                  "type": "tuple"
                },
                {
                  "components": [
                    {
                      "internalType": "uint256",
                      "name": "level",
                      "type": "uint256"
                    },
                    {
                      "internalType": "uint256",
                      "name": "ratio",
                      "type": "uint256"
                    }
                  ],
                  "internalType": "struct SmartPoolManager.levelParams",
                  "name": "fourLevel",
                  "type": "tuple"
                }
              ],
              "internalType": "struct SmartPoolManager.feeParams",
              "name": "perfermanceFee",
              "type": "tuple"
            }
          ],
          "internalType": "struct SmartPoolManager.KolPoolParams",
          "name": "",
          "type": "tuple"
        }
      ],
      "stateMutability": "view",
      "type": "function"
    },
    {
      "inputs": [
        {
          "internalType": "address",
          "name": "pool",
          "type": "address"
        }
      ],
      "name": "getPoolFeeTypes",
      "outputs": [
        {
          "components": [
            {
              "internalType": "address[]",
              "name": "tokenList",
              "type": "address[]"
            },
            {
              "internalType": "uint256[]",
              "name": "managerAmount",
              "type": "uint256[]"
            },
            {
              "internalType": "uint256[]",
              "name": "issueAmount",
              "type": "uint256[]"
            },
            {
              "internalType": "uint256[]",
              "name": "redeemAmount",
              "type": "uint256[]"
            },
            {
              "internalType": "uint256[]",
              "name": "perfermanceAmount",
              "type": "uint256[]"
            }
          ],
          "internalType": "struct UserVault.PoolTokens",
          "name": "result",
          "type": "tuple"
        }
      ],
      "stateMutability": "view",
      "type": "function"
    },
    {
      "inputs": [
        {
          "internalType": "address",
          "name": "pool",
          "type": "address"
        }
      ],
      "name": "getPoolReward",
      "outputs": [
        {
          "internalType": "address[]",
          "name": "tokenList",
          "type": "address[]"
        },
        {
          "internalType": "uint256[]",
          "name": "balances",
          "type": "uint256[]"
        }
      ],
      "stateMutability": "view",
      "type": "function"
    },
    {
      "inputs": [
        {
          "internalType": "address",
          "name": "pool",
          "type": "address"
        },
        {
          "internalType": "address",
          "name": "kol",
          "type": "address"
        }
      ],
      "name": "getUnKolReward",
      "outputs": [
        {
          "internalType": "address[]",
          "name": "",
          "type": "address[]"
        },
        {
          "internalType": "uint256[]",
          "name": "",
          "type": "uint256[]"
        }
      ],
      "stateMutability": "nonpayable",
      "type": "function"
    },
    {
      "inputs": [
        {
          "internalType": "address",
          "name": "pool",
          "type": "address"
        }
      ],
      "name": "getUnManagerReward",
      "outputs": [
        {
          "internalType": "address[]",
          "name": "",
          "type": "address[]"
        },
        {
          "internalType": "uint256[]",
          "name": "",
          "type": "uint256[]"
        }
      ],
      "stateMutability": "nonpayable",
      "type": "function"
    },
    {
      "inputs": [
        {
          "internalType": "address",
          "name": "pool",
          "type": "address"
        },
        {
          "internalType": "address",
          "name": "user",
          "type": "address"
        }
      ],
      "name": "getUserKolInfo",
      "outputs": [
        {
          "components": [
            {
              "internalType": "address",
              "name": "kol",
              "type": "address"
            },
            {
              "internalType": "uint256",
              "name": "index",
              "type": "uint256"
            }
          ],
          "internalType": "struct UserVault.UserKolInfo",
          "name": "",
          "type": "tuple"
        }
      ],
      "stateMutability": "view",
      "type": "function"
    },
    {
      "inputs": [
        {
          "internalType": "address",
          "name": "pool",
          "type": "address"
        }
      ],
      "name": "kolClaim",
      "outputs": [],
      "stateMutability": "nonpayable",
      "type": "function"
    },
    {
      "inputs": [
        {
          "internalType": "address",
          "name": "",
          "type": "address"
        },
        {
          "internalType": "address",
          "name": "",
          "type": "address"
        },
        {
          "internalType": "uint256",
          "name": "",
          "type": "uint256"
        }
      ],
      "name": "kolTotalAmountList",
      "outputs": [
        {
          "internalType": "uint256",
          "name": "",
          "type": "uint256"
        }
      ],
      "stateMutability": "view",
      "type": "function"
    },
    {
      "inputs": [
        {
          "internalType": "address",
          "name": "pool",
          "type": "address"
        }
      ],
      "name": "managerClaim",
      "outputs": [],
      "stateMutability": "nonpayable",
      "type": "function"
    },
    {
      "inputs": [],
      "name": "owner",
      "outputs": [
        {
          "internalType": "address",
          "name": "",
          "type": "address"
        }
      ],
      "stateMutability": "view",
      "type": "function"
    },
    {
      "inputs": [
        {
          "internalType": "address",
          "name": "",
          "type": "address"
        }
      ],
      "name": "poolInviteTotal",
      "outputs": [
        {
          "internalType": "uint256",
          "name": "",
          "type": "uint256"
        }
      ],
      "stateMutability": "view",
      "type": "function"
    },
    {
      "inputs": [
        {
          "internalType": "address",
          "name": "kol",
          "type": "address"
        },
        {
          "internalType": "address",
          "name": "user",
          "type": "address"
        },
        {
          "internalType": "address[]",
          "name": "poolTokens",
          "type": "address[]"
        },
        {
          "internalType": "uint256[]",
          "name": "tokensAmount",
          "type": "uint256[]"
        }
      ],
      "name": "recordTokenInfo",
      "outputs": [],
      "stateMutability": "nonpayable",
      "type": "function"
    },
    {
      "inputs": [],
      "name": "renounceOwnership",
      "outputs": [],
      "stateMutability": "nonpayable",
      "type": "function"
    },
    {
      "inputs": [
        {
          "internalType": "address",
          "name": "pool",
          "type": "address"
        },
        {
          "internalType": "bool",
          "name": "bools",
          "type": "bool"
        }
      ],
      "name": "setBlackList",
      "outputs": [],
      "stateMutability": "nonpayable",
      "type": "function"
    },
    {
      "inputs": [
        {
          "internalType": "address",
          "name": "adr",
          "type": "address"
        }
      ],
      "name": "setCrpFactory",
      "outputs": [],
      "stateMutability": "nonpayable",
      "type": "function"
    },
    {
      "inputs": [
        {
          "internalType": "address",
          "name": "pool",
          "type": "address"
        },
        {
          "components": [
            {
              "components": [
                {
                  "components": [
                    {
                      "internalType": "uint256",
                      "name": "level",
                      "type": "uint256"
                    },
                    {
                      "internalType": "uint256",
                      "name": "ratio",
                      "type": "uint256"
                    }
                  ],
                  "internalType": "struct SmartPoolManager.levelParams",
                  "name": "firstLevel",
                  "type": "tuple"
                },
                {
                  "components": [
                    {
                      "internalType": "uint256",
                      "name": "level",
                      "type": "uint256"
                    },
                    {
                      "internalType": "uint256",
                      "name": "ratio",
                      "type": "uint256"
                    }
                  ],
                  "internalType": "struct SmartPoolManager.levelParams",
                  "name": "secondLevel",
                  "type": "tuple"
                },
                {
                  "components": [
                    {
                      "internalType": "uint256",
                      "name": "level",
                      "type": "uint256"
                    },
                    {
                      "internalType": "uint256",
                      "name": "ratio",
                      "type": "uint256"
                    }
                  ],
                  "internalType": "struct SmartPoolManager.levelParams",
                  "name": "thirdLevel",
                  "type": "tuple"
                },
                {
                  "components": [
                    {
                      "internalType": "uint256",
                      "name": "level",
                      "type": "uint256"
                    },
                    {
                      "internalType": "uint256",
                      "name": "ratio",
                      "type": "uint256"
                    }
                  ],
                  "internalType": "struct SmartPoolManager.levelParams",
                  "name": "fourLevel",
                  "type": "tuple"
                }
              ],
              "internalType": "struct SmartPoolManager.feeParams",
              "name": "managerFee",
              "type": "tuple"
            },
            {
              "components": [
                {
                  "components": [
                    {
                      "internalType": "uint256",
                      "name": "level",
                      "type": "uint256"
                    },
                    {
                      "internalType": "uint256",
                      "name": "ratio",
                      "type": "uint256"
                    }
                  ],
                  "internalType": "struct SmartPoolManager.levelParams",
                  "name": "firstLevel",
                  "type": "tuple"
                },
                {
                  "components": [
                    {
                      "internalType": "uint256",
                      "name": "level",
                      "type": "uint256"
                    },
                    {
                      "internalType": "uint256",
                      "name": "ratio",
                      "type": "uint256"
                    }
                  ],
                  "internalType": "struct SmartPoolManager.levelParams",
                  "name": "secondLevel",
                  "type": "tuple"
                },
                {
                  "components": [
                    {
                      "internalType": "uint256",
                      "name": "level",
                      "type": "uint256"
                    },
                    {
                      "internalType": "uint256",
                      "name": "ratio",
                      "type": "uint256"
                    }
                  ],
                  "internalType": "struct SmartPoolManager.levelParams",
                  "name": "thirdLevel",
                  "type": "tuple"
                },
                {
                  "components": [
                    {
                      "internalType": "uint256",
                      "name": "level",
                      "type": "uint256"
                    },
                    {
                      "internalType": "uint256",
                      "name": "ratio",
                      "type": "uint256"
                    }
                  ],
                  "internalType": "struct SmartPoolManager.levelParams",
                  "name": "fourLevel",
                  "type": "tuple"
                }
              ],
              "internalType": "struct SmartPoolManager.feeParams",
              "name": "issueFee",
              "type": "tuple"
            },
            {
              "components": [
                {
                  "components": [
                    {
                      "internalType": "uint256",
                      "name": "level",
                      "type": "uint256"
                    },
                    {
                      "internalType": "uint256",
                      "name": "ratio",
                      "type": "uint256"
                    }
                  ],
                  "internalType": "struct SmartPoolManager.levelParams",
                  "name": "firstLevel",
                  "type": "tuple"
                },
                {
                  "components": [
                    {
                      "internalType": "uint256",
                      "name": "level",
                      "type": "uint256"
                    },
                    {
                      "internalType": "uint256",
                      "name": "ratio",
                      "type": "uint256"
                    }
                  ],
                  "internalType": "struct SmartPoolManager.levelParams",
                  "name": "secondLevel",
                  "type": "tuple"
                },
                {
                  "components": [
                    {
                      "internalType": "uint256",
                      "name": "level",
                      "type": "uint256"
                    },
                    {
                      "internalType": "uint256",
                      "name": "ratio",
                      "type": "uint256"
                    }
                  ],
                  "internalType": "struct SmartPoolManager.levelParams",
                  "name": "thirdLevel",
                  "type": "tuple"
                },
                {
                  "components": [
                    {
                      "internalType": "uint256",
                      "name": "level",
                      "type": "uint256"
                    },
                    {
                      "internalType": "uint256",
                      "name": "ratio",
                      "type": "uint256"
                    }
                  ],
                  "internalType": "struct SmartPoolManager.levelParams",
                  "name": "fourLevel",
                  "type": "tuple"
                }
              ],
              "internalType": "struct SmartPoolManager.feeParams",
              "name": "redeemFee",
              "type": "tuple"
            },
            {
              "components": [
                {
                  "components": [
                    {
                      "internalType": "uint256",
                      "name": "level",
                      "type": "uint256"
                    },
                    {
                      "internalType": "uint256",
                      "name": "ratio",
                      "type": "uint256"
                    }
                  ],
                  "internalType": "struct SmartPoolManager.levelParams",
                  "name": "firstLevel",
                  "type": "tuple"
                },
                {
                  "components": [
                    {
                      "internalType": "uint256",
                      "name": "level",
                      "type": "uint256"
                    },
                    {
                      "internalType": "uint256",
                      "name": "ratio",
                      "type": "uint256"
                    }
                  ],
                  "internalType": "struct SmartPoolManager.levelParams",
                  "name": "secondLevel",
                  "type": "tuple"
                },
                {
                  "components": [
                    {
                      "internalType": "uint256",
                      "name": "level",
                      "type": "uint256"
                    },
                    {
                      "internalType": "uint256",
                      "name": "ratio",
                      "type": "uint256"
                    }
                  ],
                  "internalType": "struct SmartPoolManager.levelParams",
                  "name": "thirdLevel",
                  "type": "tuple"
                },
                {
                  "components": [
                    {
                      "internalType": "uint256",
                      "name": "level",
                      "type": "uint256"
                    },
                    {
                      "internalType": "uint256",
                      "name": "ratio",
                      "type": "uint256"
                    }
                  ],
                  "internalType": "struct SmartPoolManager.levelParams",
                  "name": "fourLevel",
                  "type": "tuple"
                }
              ],
              "internalType": "struct SmartPoolManager.feeParams",
              "name": "perfermanceFee",
              "type": "tuple"
            }
          ],
          "internalType": "struct SmartPoolManager.KolPoolParams",
          "name": "_poolParams",
          "type": "tuple"
        }
      ],
      "name": "setPoolParams",
      "outputs": [],
      "stateMutability": "nonpayable",
      "type": "function"
    },
    {
      "inputs": [
        {
          "internalType": "address",
          "name": "adr",
          "type": "address"
        }
      ],
      "name": "setVaultAdr",
      "outputs": [],
      "stateMutability": "nonpayable",
      "type": "function"
    },
    {
      "inputs": [
        {
          "internalType": "address",
          "name": "newOwner",
          "type": "address"
        }
      ],
      "name": "transferOwnership",
      "outputs": [],
      "stateMutability": "nonpayable",
      "type": "function"
    },
    {
      "inputs": [
        {
          "internalType": "address",
          "name": "",
          "type": "address"
        },
        {
          "internalType": "address",
          "name": "",
          "type": "address"
        }
      ],
      "name": "userKolList",
      "outputs": [
        {
          "internalType": "address",
          "name": "kol",
          "type": "address"
        },
        {
          "internalType": "uint256",
          "name": "index",
          "type": "uint256"
        }
      ],
      "stateMutability": "view",
      "type": "function"
    },
    {
      "stateMutability": "payable",
      "type": "receive"
    }
  ],
  "transactionHash": "0x78b4c1c15c4dd15200847759cf29651c44b6755cc27a33560036ce523769fe7d",
  "args": [],
  "numDeployments": 2,
  "solcInputHash": "47f93d84f7f504b55c540a420e74e5ec",
  "bytecode": "0x60806040523480156200001157600080fd5b5060006200001e6200006e565b600080546001600160a01b0319166001600160a01b0383169081178255604051929350917f8be0079c531659141344cd1fd0a4f28419497f9722a3daafe3b4186f6b6457e0908290a35062000072565b3390565b615ccf80620000826000396000f3fe6080604052600436106101775760003560e01c8063125bfb66146101835780631437ac13146101a5578063245cd1db146101dc57806344e6a1de146101fc5780634660c5a51461022957806355291dbd146102495780635740845d14610251578063598797ad1461027e57806368092bd91461029e5780636fd4ba9c146102be578063715018a6146102de5780637234100a146102f35780638da5cb5b146103135780639155dae7146103355780639b1061b2146103555780639f1da16014610382578063a536ebf3146103af578063aa93ae49146103cf578063ad8d1281146103ef578063bb408f2d1461041c578063bf91b4c91461044a578063c0663cc91461046a578063c0fcb1661461048a578063c1e57622146104b7578063c90361dd146104d7578063c969229c14610504578063d6b485a514610524578063d7256c7014610544578063ebee7bcc14610564578063edb12adf14610584578063f29486a1146105a4578063f2fde38b146105d15761017e565b3661017e57005b600080fd5b34801561018f57600080fd5b506101a361019e366004615193565b6105f1565b005b3480156101b157600080fd5b506101c56101c0366004615092565b610652565b6040516101d392919061563a565b60405180910390f35b3480156101e857600080fd5b506101c56101f73660046150ca565b610831565b34801561020857600080fd5b5061021c6102173660046150ca565b610e86565b6040516101d39190615bb7565b34801561023557600080fd5b506101a3610244366004615200565b610ed9565b6101a3611126565b34801561025d57600080fd5b5061027161026c3660046150ca565b611194565b6040516101d39190615b25565b34801561028a57600080fd5b50610271610299366004615092565b6115c5565b3480156102aa57600080fd5b506101a36102b93660046151d3565b6117a9565b3480156102ca57600080fd5b506101c56102d9366004615092565b611853565b3480156102ea57600080fd5b506101a36119fc565b3480156102ff57600080fd5b506101c561030e366004615092565b611a85565b34801561031f57600080fd5b50610328611c38565b6040516101d391906155bf565b34801561034157600080fd5b506101a3610350366004615291565b611c47565b34801561036157600080fd5b506103756103703660046150ca565b611d2a565b6040516101d39190615668565b34801561038e57600080fd5b506103a261039d3660046150ca565b611e0f565b6040516101d39190615a96565b3480156103bb57600080fd5b506101c56103ca366004615092565b611efe565b3480156103db57600080fd5b506102716103ea366004615092565b6121c8565b3480156103fb57600080fd5b5061040f61040a366004615092565b6123b4565b6040516101d39190615bd7565b34801561042857600080fd5b5061043c6104373660046150ca565b6123c6565b6040516101d39291906155ed565b34801561045657600080fd5b506103a2610465366004615092565b6123f6565b34801561047657600080fd5b506101c56104853660046150ca565b6124d6565b34801561049657600080fd5b506104aa6104a5366004615092565b61268f565b6040516101d391906156e2565b3480156104c357600080fd5b506101a36104d2366004615092565b6126ad565b3480156104e357600080fd5b506104f76104f2366004615092565b612748565b6040516101d39190615627565b34801561051057600080fd5b506101a361051f366004615092565b61276c565b34801561053057600080fd5b506101a361053f366004615092565b612b59565b34801561055057600080fd5b506101a361055f366004615102565b612bf4565b34801561057057600080fd5b5061040f61057f366004615193565b6130a5565b34801561059057600080fd5b506101a361059f366004615092565b6130e0565b3480156105b057600080fd5b506105c46105bf366004615092565b61345b565b6040516101d39190615acf565b3480156105dd57600080fd5b506101a36105ec366004615092565b613670565b6105f9613730565b6001600160a01b031661060a611c38565b6001600160a01b0316146106395760405162461bcd60e51b81526004016106309061595d565b60405180910390fd5b61064d6001600160a01b0384168383613734565b505050565b6001600160a01b03811660009081526007602052604081206060918291906106798261378a565b6001600160a01b038616600090815260046020908152604091829020805483518184028101840190945280845293945060609390918301828280156106e757602002820191906000526020600020905b81546001600160a01b031681526001909101906020018083116106c9575b50505050509050606081516001600160401b038111801561070757600080fd5b50604051908082528060200260200182016040528015610731578160200160208202803683370190505b50905060005b838110156108245760603063245cd1db8a6107528986613795565b6040518363ffffffff1660e01b815260040161076f9291906155d3565b60006040518083038186803b15801561078757600080fd5b505afa15801561079b573d6000803e3d6000fd5b505050506040513d6000823e601f3d908101601f191682016040526107c39190810190615308565b91505060005b815181101561081a578181815181106107de57fe5b60200260200101518482815181106107f257fe5b60200260200101510184828151811061080757fe5b60209081029190910101526001016107c9565b5050600101610737565b5090945092505050915091565b6001600160a01b03808316600090815260086020908152604080832093851683529290529081205460609182916108695760006108a7565b6001600160a01b0380861660009081526008602090815260408083209388168352929052908120805490919061089b57fe5b90600052602060002001545b6001600160a01b0386166000908152600660205260409020549091506108cb614ca5565b506001600160a01b0386166000908152600560208181526040928390208351610140810185526001820154610100820190815260028301546101208301526080808301918252865180880188526003850154815260048501548187015260a0808501919091528751808901895296850154875260068501548787015260c080850197909752875180890189526007860154815260088601548188015260e0850152918352865180870188526009850154818301908152600a86015482850152815287518089018952600b8601548152600c860154818801528187015287518089018952600d8601548152600e860154818801528189015287518089018952600f86015481526010860154818801526060828101919091528487019190915287518088018952601186015481840190815260128701548286015281528851808a018a5260138701548152601487015481890152818801528851808a018a5260158701548152601687015481890152818a01528851808a018a52601787015481526018870154818901528183015284890152875196870188526019850154918701918252601a85015492870192909252855285518087018752601b8401548152601c840154818601528585015285518087018752601d8401548152601e84015481860152858701528551808701909652601f830154865291830154928501929092528281019390935291820152610ade614ce4565b6001600160a01b0388166000908152600460209081526040918290208251815460c09381028201840190945260a081018481529093919284928491840182828015610b5257602002820191906000526020600020905b81546001600160a01b03168152600190910190602001808311610b34575b5050505050815260200160018201805480602002602001604051908101604052809291908181526020018280548015610baa57602002820191906000526020600020905b815481526020019060010190808311610b96575b5050505050815260200160028201805480602002602001604051908101604052809291908181526020018280548015610c0257602002820191906000526020600020905b815481526020019060010190808311610bee575b5050505050815260200160038201805480602002602001604051908101604052809291908181526020018280548015610c5a57602002820191906000526020600020905b815481526020019060010190808311610c46575b5050505050815260200160048201805480602002602001604051908101604052809291908181526020018280548015610cb257602002820191906000526020600020905b815481526020019060010190808311610c9e575b50505050508152505090508060000151516001600160401b0381118015610cd857600080fd5b50604051908082528060200260200182016040528015610d02578160200160208202803683370190505b50815196509450610d11614d13565b6040518061012001604052808a6001600160a01b03168152602001610d3a8786600001516137a8565b8152602001610d4d8786602001516137a8565b8152602001610d608786604001516137a8565b8152602001610d738786606001516137a8565b81526020018360200151815260200183604001518152602001836060015181526020018360800151815250905060005b8751811015610e7957610e5a85610deb88610e54610df16064610deb89608001518a61010001518a81518110610dd557fe5b602002602001015161384f90919063ffffffff16565b90613889565b610e4e610e116064610deb8b606001518c60e001518c81518110610dd557fe5b610e4e610e316064610deb8d604001518e60c001518e81518110610dd557fe5b610e4e6064610deb8e602001518f60a001518f81518110610dd557fe5b906138c8565b9061384f565b878281518110610e6657fe5b6020908102919091010152600101610da3565b5050505050509250929050565b610e8e614d68565b506001600160a01b0380831660009081526009602090815260408083208585168452825291829020825180840190935280549093168252600190920154918101919091525b92915050565b6001546001600160a01b03163314610f035760405162461bcd60e51b81526004016106309061577b565b6001600160a01b03808316600090815260056020526040908190206001549151636e0cf42160e11b81529092919091169063dc19e84290610f489086906004016155bf565b60206040518083038186803b158015610f6057600080fd5b505afa158015610f74573d6000803e3d6000fd5b505050506040513d601f19601f82011682018060405250810190610f98919061539a565b610fb45760405162461bcd60e51b8152600401610630906158ea565b805462010000900460ff1615610fdc5760405162461bcd60e51b815260040161063090615992565b805462ff0000191662010000178155815180518051600184015560209081015160028401558082015180516003850155810151600484015560408083015180516005860155820151600685015560609283015180516007860155820151600885015581850151805180516009870155830151600a860155808301518051600b870155830151600c860155808201518051600d870155830151600e8601558301518051600f8601558201516010850155808501518051805160118701558301516012860155808301518051601387015583015160148601558082015180516015870155830151601686015583015180516017860155820151601885015593820151805180516019860155820151601a850155808201518051601b860155820151601c850155938401518051601d850155810151601e8401559201518051601f83015582015191015550565b61112e613730565b6001600160a01b031661113f611c38565b6001600160a01b0316146111655760405162461bcd60e51b81526004016106309061595d565b60405133904780156108fc02916000818181858888f19350505050158015611191573d6000803e3d6000fd5b50565b61119c614ce4565b6111a4614ce4565b6001600160a01b0384166000908152600460209081526040918290208251815460c09381028201840190945260a08101848152909391928492849184018282801561121857602002820191906000526020600020905b81546001600160a01b031681526001909101906020018083116111fa575b505050505081526020016001820180548060200260200160405190810160405280929190818152602001828054801561127057602002820191906000526020600020905b81548152602001906001019080831161125c575b50505050508152602001600282018054806020026020016040519081016040528092919081815260200182805480156112c857602002820191906000526020600020905b8154815260200190600101908083116112b4575b505050505081526020016003820180548060200260200160405190810160405280929190818152602001828054801561132057602002820191906000526020600020905b81548152602001906001019080831161130c575b505050505081526020016004820180548060200260200160405190810160405280929190818152602001828054801561137857602002820191906000526020600020905b815481526020019060010190808311611364575b5050509190925250508151845250805151909150806001600160401b03811180156113a257600080fd5b506040519080825280602002602001820160405280156113cc578160200160208202803683370190505b506020840152806001600160401b03811180156113e857600080fd5b50604051908082528060200260200182016040528015611412578160200160208202803683370190505b506040840152806001600160401b038111801561142e57600080fd5b50604051908082528060200260200182016040528015611458578160200160208202803683370190505b506060840152806001600160401b038111801561147457600080fd5b5060405190808252806020026020018201604052801561149e578160200160208202803683370190505b50608084015260005b818110156115bc576114e56114bf87876000856138ed565b856020015183815181106114cf57fe5b60200260200101516138c890919063ffffffff16565b846020015182815181106114f557fe5b60200260200101818152505061152161151187876001856138ed565b856040015183815181106114cf57fe5b8460400151828151811061153157fe5b60200260200101818152505061155d61154d87876002856138ed565b856060015183815181106114cf57fe5b8460600151828151811061156d57fe5b60200260200101818152505061159961158987876003856138ed565b856080015183815181106114cf57fe5b846080015182815181106115a957fe5b60209081029190910101526001016114a7565b50505092915050565b6115cd614ce4565b60405163aa93ae4960e01b8152309063aa93ae49906115f09085906004016155bf565b60006040518083038186803b15801561160857600080fd5b505afa15801561161c573d6000803e3d6000fd5b505050506040513d6000823e601f3d908101601f1916820160405261164491908101906153d5565b905061164e614ce4565b61165783613e74565b82515190915060005b818110156117a1576116a98360200151828151811061167b57fe5b60200260200101518560200151838151811061169357fe5b602002602001015161431290919063ffffffff16565b846020015182815181106116b957fe5b6020026020010181815250506116f0836040015182815181106116d857fe5b60200260200101518560400151838151811061169357fe5b8460400151828151811061170057fe5b6020026020010181815250506117378360600151828151811061171f57fe5b60200260200101518560600151838151811061169357fe5b8460600151828151811061174757fe5b60200260200101818152505061177e8360800151828151811061176657fe5b60200260200101518560800151838151811061169357fe5b8460800151828151811061178e57fe5b6020908102919091010152600101611660565b505050919050565b6117b1613730565b6001600160a01b03166117c2611c38565b6001600160a01b0316146117e85760405162461bcd60e51b81526004016106309061595d565b336001600160a01b03166000356001600160e01b0319166001600160e01b03191660003660405161181a9291906156ed565b60405180910390a26001600160a01b03909116600090815260056020526040902080549115156101000261ff0019909216919091179055565b606080606080306001600160a01b0316637234100a866040518263ffffffff1660e01b815260040161188591906155bf565b60006040518083038186803b15801561189d57600080fd5b505afa1580156118b1573d6000803e3d6000fd5b505050506040513d6000823e601f3d908101601f191682016040526118d99190810190615308565b6001600160a01b0387166000908152600b602090815260409091208351939550919350909161190d91839190860190614d7f565b506001810154835180821461194a5781810360005b8181101561194757600180860180548083018255600091825260208220015501611922565b50505b84516060816001600160401b038111801561196457600080fd5b5060405190808252806020026020018201604052801561198e578160200160208202803683370190505b50905060005b87518110156119eb578560010181815481106119ac57fe5b90600052602060002001548782815181106119c357fe5b6020026020010151038282815181106119d857fe5b6020908102919091010152600101611994565b509597509495505050505050915091565b611a04613730565b6001600160a01b0316611a15611c38565b6001600160a01b031614611a3b5760405162461bcd60e51b81526004016106309061595d565b600080546040516001600160a01b03909116907f8be0079c531659141344cd1fd0a4f28419497f9722a3daafe3b4186f6b6457e0908390a3600080546001600160a01b0319169055565b606080606080306001600160a01b031663a536ebf3866040518263ffffffff1660e01b8152600401611ab791906155bf565b60006040518083038186803b158015611acf57600080fd5b505afa158015611ae3573d6000803e3d6000fd5b505050506040513d6000823e601f3d908101601f19168201604052611b0b9190810190615308565b604051631437ac1360e01b815291935091506060903090631437ac1390611b369089906004016155bf565b60006040518083038186803b158015611b4e57600080fd5b505afa158015611b62573d6000803e3d6000fd5b505050506040513d6000823e601f3d908101601f19168201604052611b8a9190810190615308565b845190925090506060816001600160401b0381118015611ba957600080fd5b50604051908082528060200260200182016040528015611bd3578160200160208202803683370190505b50905060005b82811015611c2957838181518110611bed57fe5b6020026020010151858281518110611c0157fe5b602002602001015103828281518110611c1657fe5b6020908102919091010152600101611bd9565b50939550929350505050915091565b6000546001600160a01b031690565b6002546001600160a01b03163314611c715760405162461bcd60e51b81526004016106309061574f565b828114611c905760405162461bcd60e51b815260040161063090615850565b611cff868686868080602002602001604051908101604052809392919081815260200183836020028082843760009201919091525050604080516020808a0282810182019093528982529093508992508891829185019084908082843760009201919091525061435492505050565b5050506001600160a01b039092166000908152600560205260409020805460ff191660011790555050565b6001600160a01b0380831660009081526003602090815260408083209385168352928152828220805484518184028101840190955280855260609493919290919084015b82821015611e035760008481526020908190206040805180820182526002860290920180546001600160a01b03168352600181018054835181870281018701909452808452939491938583019392830182828015611deb57602002820191906000526020600020905b815481526020019060010190808311611dd7575b50505050508152505081526020019060010190611d6e565b50505050905092915050565b611e17614de4565b6001600160a01b038084166000908152600a602090815260408083209386168352928152908290208251815460609381028201840185529381018481529093919284928491840182828015611e9557602002820191906000526020600020905b81546001600160a01b03168152600190910190602001808311611e77575b5050505050815260200160018201805480602002602001604051908101604052809291908181526020018280548015611eed57602002820191906000526020600020905b815481526020019060010190808311611ed9575b505050505081525050905092915050565b606080611f09614ce4565b6001600160a01b0384166000908152600460209081526040918290208251815460c09381028201840190945260a081018481529093919284928491840182828015611f7d57602002820191906000526020600020905b81546001600160a01b03168152600190910190602001808311611f5f575b5050505050815260200160018201805480602002602001604051908101604052809291908181526020018280548015611fd557602002820191906000526020600020905b815481526020019060010190808311611fc1575b505050505081526020016002820180548060200260200160405190810160405280929190818152602001828054801561202d57602002820191906000526020600020905b815481526020019060010190808311612019575b505050505081526020016003820180548060200260200160405190810160405280929190818152602001828054801561208557602002820191906000526020600020905b815481526020019060010190808311612071575b50505050508152602001600482018054806020026020016040519081016040528092919081815260200182805480156120dd57602002820191906000526020600020905b8154815260200190600101908083116120c9575b5050509190925250508151519192508190506001600160401b038111801561210457600080fd5b5060405190808252806020026020018201604052801561212e578160200160208202803683370190505b5082519450925060005b818110156121c0576121a18360800151828151811061215357fe5b6020026020010151610e4e8560600151848151811061216e57fe5b6020026020010151610e4e8760400151868151811061218957fe5b6020026020010151886020015187815181106114cf57fe5b8482815181106121ad57fe5b6020908102919091010152600101612138565b505050915091565b6121d0614ce4565b6001600160a01b0382166000908152600460209081526040918290208251815460c09381028201840190945260a08101848152909391928492849184018282801561224457602002820191906000526020600020905b81546001600160a01b03168152600190910190602001808311612226575b505050505081526020016001820180548060200260200160405190810160405280929190818152602001828054801561229c57602002820191906000526020600020905b815481526020019060010190808311612288575b50505050508152602001600282018054806020026020016040519081016040528092919081815260200182805480156122f457602002820191906000526020600020905b8154815260200190600101908083116122e0575b505050505081526020016003820180548060200260200160405190810160405280929190818152602001828054801561234c57602002820191906000526020600020905b815481526020019060010190808311612338575b50505050508152602001600482018054806020026020016040519081016040528092919081815260200182805480156123a457602002820191906000526020600020905b815481526020019060010190808311612390575b5050505050815250509050919050565b60066020526000908152604090205481565b6009602090815260009283526040808420909152908252902080546001909101546001600160a01b039091169082565b6123fe614de4565b6001600160a01b0382166000908152600b6020908152604091829020825181546060938102820184018552938101848152909391928492849184018282801561247057602002820191906000526020600020905b81546001600160a01b03168152600190910190602001808311612452575b50505050508152602001600182018054806020026020016040519081016040528092919081815260200182805480156123a45760200282019190600052602060002090815481526020019060010190808311612390575050505050815250509050919050565b606080606080306001600160a01b031663245cd1db87876040518363ffffffff1660e01b815260040161250a9291906155d3565b60006040518083038186803b15801561252257600080fd5b505afa158015612536573d6000803e3d6000fd5b505050506040513d6000823e601f3d908101601f1916820160405261255e9190810190615308565b6001600160a01b038089166000908152600a60209081526040808320938b1683529281529190208351939550919350909161259e91839190860190614d7f565b50600181015483518082146125db5781810360005b818110156125d8576001808601805480830182556000918252602082200155016125b3565b50505b84516060816001600160401b03811180156125f557600080fd5b5060405190808252806020026020018201604052801561261f578160200160208202803683370190505b50905060005b8281101561267b5785600101818154811061263c57fe5b906000526020600020015487828151811061265357fe5b60200260200101510382828151811061266857fe5b6020908102919091010152600101612625565b5095975094955050505050505b9250929050565b6001600160a01b031660009081526005602052604090205460ff1690565b6126b5613730565b6001600160a01b03166126c6611c38565b6001600160a01b0316146126ec5760405162461bcd60e51b81526004016106309061595d565b336001600160a01b03166000356001600160e01b0319166001600160e01b03191660003660405161271e9291906156ed565b60405180910390a2600180546001600160a01b0319166001600160a01b0392909216919091179055565b6001600160a01b0381166000908152600760205260409020606090610ed3906145cc565b612775816145d8565b1561119157600154604051636e0cf42160e11b81526001600160a01b039091169063dc19e842906127aa9084906004016155bf565b60206040518083038186803b1580156127c257600080fd5b505afa1580156127d6573d6000803e3d6000fd5b505050506040513d601f19601f820116820180604052508101906127fa919061539a565b6128165760405162461bcd60e51b8152600401610630906158ea565b806001600160a01b0316635468d6d76040518163ffffffff1660e01b815260040160206040518083038186803b15801561284f57600080fd5b505afa158015612863573d6000803e3d6000fd5b505050506040513d601f19601f82011682018060405250810190612887919061539a565b6128a35760405162461bcd60e51b8152600401610630906159e2565b60405163245cd1db60e01b81526060908190309063245cd1db906128cd90869033906004016155d3565b60006040518083038186803b1580156128e557600080fd5b505afa1580156128f9573d6000803e3d6000fd5b505050506040513d6000823e601f3d908101601f191682016040526129219190810190615308565b6001600160a01b0385166000908152600a6020908152604080832033845282529091208351939550919350909161295d91839190860190614d7f565b506001810154835180821461299a5781810360005b8181101561299757600180860180548083018255600091825260208220015501612972565b50505b60006129a53361465f565b6129af5733612a20565b336001600160a01b0316638da5cb5b6040518163ffffffff1660e01b815260040160206040518083038186803b1580156129e857600080fd5b505afa1580156129fc573d6000803e3d6000fd5b505050506040513d601f19601f82011682018060405250810190612a2091906150ae565b905060005b8651811015612b4f576000856001018281548110612a3f57fe5b9060005260206000200154878381518110612a5657fe5b602002602001015103905080600014612b4657612a9a83828a8581518110612a7a57fe5b60200260200101516001600160a01b03166137349092919063ffffffff16565b612ac681876001018481548110612aad57fe5b90600052602060002001546138c890919063ffffffff16565b866001018381548110612ad557fe5b9060005260206000200181905550826001600160a01b0316336001600160a01b03167fcf0b5b5e344fd092a8b2211145583746df8436ec32469680c9d800af50d7b7378a8581518110612b2457fe5b60200260200101518442604051612b3d93929190615606565b60405180910390a35b50600101612a25565b5050505050505050565b612b61613730565b6001600160a01b0316612b72611c38565b6001600160a01b031614612b985760405162461bcd60e51b81526004016106309061595d565b336001600160a01b03166000356001600160e01b0319166001600160e01b031916600036604051612bca9291906156ed565b60405180910390a2600280546001600160a01b0319166001600160a01b0392909216919091179055565b3383828114612c155760405162461bcd60e51b815260040161063090615850565b600154604051636e0cf42160e11b81526001600160a01b039091169063dc19e84290612c459085906004016155bf565b60206040518083038186803b158015612c5d57600080fd5b505afa158015612c71573d6000803e3d6000fd5b505050506040513d601f19601f82011682018060405250810190612c95919061539a565b612cb15760405162461bcd60e51b8152600401610630906158ea565b6001600160a01b0380831660009081526009602090815260408083208b8516845290915290208054909116612d3f5780546001600160a01b0319166001600160a01b038a811691909117825583166000908152600760205260409020612d17908a614698565b612d3f576001600160a01b0383166000908152600760205260409020612d3d908a6146ad565b505b80546001600160a01b031680612d675760405162461bcd60e51b815260040161063090615884565b612d9f86866000818110612d7757fe5b6001600160a01b038816600090815260066020908152604090912054939102013590506138c8565b6001600160a01b0385166000908152600660205260409020556060836001600160401b0381118015612dd057600080fd5b50604051908082528060200260200182016040528015612dfa578160200160208202803683370190505b50905060005b84811015612ee7576001600160a01b038087166000908152600860209081526040808320938716835292905220541580612eb2576001600160a01b0380881660009081526008602090815260408083209388168352929052208054612e96919084908110612e6a57fe5b90600052602060002001548a8a85818110612e8157fe5b905060200201356138c890919063ffffffff16565b838381518110612ea257fe5b6020026020010181815250612edd565b888883818110612ebe57fe5b90506020020135838381518110612ed157fe5b60200260200101818152505b5050600101612e00565b506001600160a01b03808616600090815260086020908152604080832093861683529281529190208251612f1d92840190614dfe565b506001600160a01b038086166000908152600360209081526040808320938616835292905220600184015480612ff557612f55614e45565b6001600160a01b038d168152604080516020808c0282810182019093528b825290918c918c91829185019084908082843760009201829052506020868101958652885460018082018b558a845292829020885160029092020180546001600160a01b0319166001600160a01b039092169190911781559551805188979650612fe4955092860193500190614dfe565b505083546001880155506130969050565b6001600160a01b03808816600090815260036020908152604080832093881683529290529081208054600019840190811061302c57fe5b9060005260206000209060020201905060005b6001820154811015613093576130708b8b8381811061305a57fe5b90506020020135836001018381548110612aad57fe5b82600101828154811061307f57fe5b60009182526020909120015560010161303f565b50505b50505050505050505050505050565b600860205282600052604060002060205281600052604060002081815481106130ca57fe5b9060005260206000200160009250925050505481565b6130e9816145d8565b15611191576040516327304dfd60e01b81526000906001600160a01b038316906327304dfd9061311d9033906004016155bf565b60206040518083038186803b15801561313557600080fd5b505afa158015613149573d6000803e3d6000fd5b505050506040513d601f19601f8201168201806040525081019061316d919061539a565b806131f95750336001600160a01b0316826001600160a01b0316633018205f6040518163ffffffff1660e01b815260040160206040518083038186803b1580156131b657600080fd5b505afa1580156131ca573d6000803e3d6000fd5b505050506040513d601f19601f820116820180604052508101906131ee91906150ae565b6001600160a01b0316145b90506000826001600160a01b0316635468d6d76040518163ffffffff1660e01b815260040160206040518083038186803b15801561323657600080fd5b505afa15801561324a573d6000803e3d6000fd5b505050506040513d601f19601f8201168201806040525081019061326e919061539a565b90508061328d5760405162461bcd60e51b8152600401610630906159e2565b816132aa5760405162461bcd60e51b8152600401610630906159b9565b604051631bf52ea760e21b815260609081903090636fd4ba9c906132d29088906004016155bf565b600060405180830381600087803b1580156132ec57600080fd5b505af1158015613300573d6000803e3d6000fd5b505050506040513d6000823e601f3d908101601f191682016040526133289190810190615308565b6001600160a01b0387166000908152600560209081526040808320805460ff19169055600b82529091208351939550919350909161336b91839190860190614d7f565b50600181015483518082146133a85781810360005b818110156133a557600180860180548083018255600091825260208220015501613380565b50505b60005b85518110156134505760008682815181106133c257fe5b602002602001015190508582815181106133d857fe5b6020026020010151600014613447576134058a828885815181106133f857fe5b60200260200101516146c2565b61342b86838151811061341457fe5b6020026020010151866001018481548110612aad57fe5b85600101838154811061343a57fe5b6000918252602090912001555b506001016133ab565b505050505050505050565b613463614ca5565b506001600160a01b03166000908152600560208181526040928390208351610140810185526001820154610100820190815260028301546101208301526080808301918252865180880188526003850154815260048501548187015260a0808501919091528751808901895296850154875260068501548787015260c080850197909752875180890189526007860154815260088601548188015260e0850152918352865180870188526009850154818301908152600a86015482850152815287518089018952600b8601548152600c860154818801528187015287518089018952600d8601548152600e860154818801528189015287518089018952600f86015481526010860154818801526060828101919091528487019190915287518088018952601186015481840190815260128701548286015281528851808a018a5260138701548152601487015481890152818801528851808a018a5260158701548152601687015481890152818a01528851808a018a52601787015481526018870154818901528183015284890152875196870188526019850154918701918252601a85015492870192909252855285518087018752601b8401548152601c840154818601528585015285518087018752601d8401548152601e84015481860152858701528551808701909652601f83015486529183015492850192909252828101939093529182015290565b613678613730565b6001600160a01b0316613689611c38565b6001600160a01b0316146136af5760405162461bcd60e51b81526004016106309061595d565b6001600160a01b0381166136d55760405162461bcd60e51b8152600401610630906157a8565b600080546040516001600160a01b03808516939216917f8be0079c531659141344cd1fd0a4f28419497f9722a3daafe3b4186f6b6457e091a3600080546001600160a01b0319166001600160a01b0392909216919091179055565b3390565b61064d8363a9059cbb60e01b84846040516024016137539291906155ed565b60408051601f198184030181529190526020810180516001600160e01b03166001600160e01b031990931692909217909152614a19565b6000610ed382614b04565b60006137a18383614b08565b9392505050565b80515160009083108015906137c1575060208201515183105b156137d25750805160200151610ed3565b60208201515183108015906137eb575060408201515183105b156137fe57506020808201510151610ed3565b6040820151518310801590613817575060608201515183105b1561382b5750604081015160200151610ed3565b60608201515183106138465750606081015160200151610ed3565b50600092915050565b60008261385e57506000610ed3565b8282028284828161386b57fe5b04146137a15760405162461bcd60e51b81526004016106309061591c565b60006137a183836040518060400160405280601a815260200179536166654d6174683a206469766973696f6e206279207a65726f60301b815250614b2c565b6000828201838110156137a15760405162461bcd60e51b8152600401610630906157ee565b6001600160a01b0380851660009081526008602090815260408083209387168352929052908120548190613922576000613960565b6001600160a01b0380871660009081526008602090815260408083209389168352929052908120805490919061395457fe5b90600052602060002001545b905061396a614ca5565b506001600160a01b0386166000908152600560208181526040928390208351610140810185526001820154610100820190815260028301546101208301526080808301918252865180880188526003850154815260048501548187015260a0808501919091528751808901895296850154875260068501548787015260c080850197909752875180890189526007860154815260088601548188015260e0850152918352865180870188526009850154818301908152600a86015482850152815287518089018952600b8601548152600c860154818801528187015287518089018952600d8601548152600e860154818801528189015287518089018952600f86015481526010860154818801526060828101919091528487019190915287518088018952601186015481840190815260128701548286015281528851808a018a5260138701548152601487015481890152818801528851808a018a5260158701548152601687015481890152818a01528851808a018a52601787015481526018870154818901528183015284890152875196870188526019850154918701918252601a85015492870192909252855285518087018752601b8401548152601c840154818601528585015285518087018752601d8401548152601e84015481860152858701528551808701909652601f830154865291830154928501929092528281019390935291820152613b7d614ce4565b6001600160a01b0388166000908152600460209081526040918290208251815460c09381028201840190945260a081018481529093919284928491840182828015613bf157602002820191906000526020600020905b81546001600160a01b03168152600190910190602001808311613bd3575b5050505050815260200160018201805480602002602001604051908101604052809291908181526020018280548015613c4957602002820191906000526020600020905b815481526020019060010190808311613c35575b5050505050815260200160028201805480602002602001604051908101604052809291908181526020018280548015613ca157602002820191906000526020600020905b815481526020019060010190808311613c8d575b5050505050815260200160038201805480602002602001604051908101604052809291908181526020018280548015613cf957602002820191906000526020600020905b815481526020019060010190808311613ce5575b5050505050815260200160048201805480602002602001604051908101604052809291908181526020018280548015613d5157602002820191906000526020600020905b815481526020019060010190808311613d3d575b50505050508152505090508260001480613d6b5750805151155b15613d7c5760009350505050613e6c565b6001600160a01b03881660009081526006602052604090205486613dc757613dc06064610deb613db08787600001516137a8565b85602001518a81518110610dd557fe5b9450613e57565b8660011415613df657613dc06064610deb613de68787602001516137a8565b85604001518a81518110610dd557fe5b8660021415613e2557613dc06064610deb613e158787604001516137a8565b85606001518a81518110610dd557fe5b8660031415613e5757613e546064610deb613e448787606001516137a8565b85608001518a81518110610dd557fe5b94505b613e6581610deb878761384f565b9450505050505b949350505050565b613e7c614ce4565b613e84614ce4565b6001600160a01b0383166000908152600460209081526040918290208251815460c09381028201840190945260a081018481529093919284928491840182828015613ef857602002820191906000526020600020905b81546001600160a01b03168152600190910190602001808311613eda575b5050505050815260200160018201805480602002602001604051908101604052809291908181526020018280548015613f5057602002820191906000526020600020905b815481526020019060010190808311613f3c575b5050505050815260200160028201805480602002602001604051908101604052809291908181526020018280548015613fa857602002820191906000526020600020905b815481526020019060010190808311613f94575b505050505081526020016003820180548060200260200160405190810160405280929190818152602001828054801561400057602002820191906000526020600020905b815481526020019060010190808311613fec575b505050505081526020016004820180548060200260200160405190810160405280929190818152602001828054801561405857602002820191906000526020600020905b815481526020019060010190808311614044575b505050919092525050815180519085526001600160a01b0386166000908152600760205260408120939450909291506140908261378a565b9050826001600160401b03811180156140a857600080fd5b506040519080825280602002602001820160405280156140d2578160200160208202803683370190505b506020860152826001600160401b03811180156140ee57600080fd5b50604051908082528060200260200182016040528015614118578160200160208202803683370190505b506040860152826001600160401b038111801561413457600080fd5b5060405190808252806020026020018201604052801561415e578160200160208202803683370190505b506060860152826001600160401b038111801561417a57600080fd5b506040519080825280602002602001820160405280156141a4578160200160208202803683370190505b50608086015260005b60048110156143085760005b848110156142ff5760005b838110156142f6578261421b576141fa6141ea8a6141e28885613795565b6000866138ed565b896020015184815181106114cf57fe5b8860200151838151811061420a57fe5b6020026020010181815250506142ee565b826001141561425d5761424d61423d8a6142358885613795565b6001866138ed565b896040015184815181106114cf57fe5b8860400151838151811061420a57fe5b826002141561429f5761428f61427f8a6142778885613795565b6002866138ed565b896060015184815181106114cf57fe5b8860600151838151811061420a57fe5b82600314156142ee576142d16142c18a6142b98885613795565b6003866138ed565b896080015184815181106114cf57fe5b886080015183815181106142e157fe5b6020026020010181815250505b6001016141c4565b506001016141b9565b506001016141ad565b5050505050919050565b60006137a183836040518060400160405280601e81526020017f536166654d6174683a207375627472616374696f6e206f766572666c6f770000815250614b63565b6001600160a01b0384166000908152600460205260408120905b83518110156145c457600084828151811061438557fe5b60200260200101519050600084838151811061439d57fe5b602002602001015190506000806144108660000180548060200260200160405190810160405280929190818152602001828054801561440557602002820191906000526020600020905b81546001600160a01b031681526001909101906020018083116143e7575b505050505085614b8f565b91509150816144a057508454600180820187556000878152602080822090930180546001600160a01b0319166001600160a01b03881617905581880180548084018255908252838220018190556002880180548084018255908252838220018190556003880180548084018255908252838220018190556004880180549283018155815291822001558454600019015b82156145b457886144de576144be83876001018381548110612aad57fe5b8660010182815481106144cd57fe5b60009182526020909120015561456c565b8860011415614509576144fa83876002018381548110612aad57fe5b8660020182815481106144cd57fe5b88600214156145345761452583876003018381548110612aad57fe5b8660030182815481106144cd57fe5b886003141561456c5761455083876004018381548110612aad57fe5b86600401828154811061455f57fe5b6000918252602090912001555b896001600160a01b03167ff2dc555ffff33c7179f7e35e7fc8a68179aeecb49e12799e8ac2972420613eb98a3387876040516145ab9493929190615be0565b60405180910390a25b50506001909201915061436e9050565b505050505050565b6060806137a183614be7565b60006001826001600160a01b03166373a9855c6040518163ffffffff1660e01b815260040160206040518083038186803b15801561461557600080fd5b505afa158015614629573d6000803e3d6000fd5b505050506040513d601f19601f8201168201806040525081019061464d91906153b6565b600181111561465857fe5b1492915050565b6000813f7fc5d2460186f7233c927e7db2dcc703c0e500b653ca82273b7bfad8045d85a470818114801590613e6c575050151592915050565b60006137a1836001600160a01b038416614c43565b60006137a1836001600160a01b038416614c5b565b806146df5760405162461bcd60e51b815260040161063090615823565b6060836001600160a01b031663a0e67e2b6040518163ffffffff1660e01b815260040160006040518083038186803b15801561471a57600080fd5b505afa15801561472e573d6000803e3d6000fd5b505050506040513d6000823e601f3d908101601f1916820160405261475691908101906152d6565b90506060846001600160a01b031663309a042c6040518163ffffffff1660e01b815260040160006040518083038186803b15801561479357600080fd5b505afa1580156147a7573d6000803e3d6000fd5b505050506040513d6000823e601f3d908101601f191682016040526147cf9190810190615368565b90506000856001600160a01b031663d29986c16040518163ffffffff1660e01b815260040160206040518083038186803b15801561480c57600080fd5b505afa158015614820573d6000803e3d6000fd5b505050506040513d601f19601f8201168201806040525081019061484491906154cb565b905060005b83518110156149c157600061487985838151811061486357fe5b60200260200101516001600160a01b031661465f565b6148965784828151811061488957fe5b602002602001015161491a565b8482815181106148a257fe5b60200260200101516001600160a01b0316638da5cb5b6040518163ffffffff1660e01b815260040160206040518083038186803b1580156148e257600080fd5b505afa1580156148f6573d6000803e3d6000fd5b505050506040513d601f19601f8201168201806040525081019061491a91906150ae565b9050600061494884610deb87868151811061493157fe5b60200260200101518a61384f90919063ffffffff16565b905061495e6001600160a01b0389168383613734565b816001600160a01b0316896001600160a01b0316336001600160a01b03167f589269304a5775087fef7422dd5076938901ab1fa82e920b6de707864f198e608b85426040516149af93929190615606565b60405180910390a45050600101614849565b50856001600160a01b0316336001600160a01b03167f1bf0129823b56213a46996bc874ce50b318995cae2bbdcd2000933d36012547d878742604051614a0993929190615606565b60405180910390a3505050505050565b614a2b826001600160a01b031661465f565b614a475760405162461bcd60e51b815260040161063090615a5f565b60006060836001600160a01b031683604051614a6391906155a3565b6000604051808303816000865af19150503d8060008114614aa0576040519150601f19603f3d011682016040523d82523d6000602084013e614aa5565b606091505b509150915081614ac75760405162461bcd60e51b8152600401610630906158b5565b805115614afe5780806020019051810190614ae2919061539a565b614afe5760405162461bcd60e51b815260040161063090615a15565b50505050565b5490565b6000826000018281548110614b1957fe5b9060005260206000200154905092915050565b60008183614b4d5760405162461bcd60e51b8152600401610630919061571c565b506000838581614b5957fe5b0495945050505050565b60008184841115614b875760405162461bcd60e51b8152600401610630919061571c565b505050900390565b60008060005b8451811015614bdf57836001600160a01b0316858281518110614bb457fe5b60200260200101516001600160a01b03161415614bd75760019250809150614bdf565b600101614b95565b509250929050565b606081600001805480602002602001604051908101604052809291908181526020018280548015614c3757602002820191906000526020600020905b815481526020019060010190808311614c23575b50505050509050919050565b60009081526001919091016020526040902054151590565b6000614c678383614c43565b614c9d57508154600181810184556000848152602080822090930184905584548482528286019093526040902091909155610ed3565b506000610ed3565b6040518060800160405280614cb8614e5d565b8152602001614cc5614e5d565b8152602001614cd2614e5d565b8152602001614cdf614e5d565b905290565b6040518060a0016040528060608152602001606081526020016060815260200160608152602001606081525090565b60405180610120016040528060006001600160a01b0316815260200160008152602001600081526020016000815260200160008152602001606081526020016060815260200160608152602001606081525090565b604080518082019091526000808252602082015290565b828054828255906000526020600020908101928215614dd4579160200282015b82811115614dd457825182546001600160a01b0319166001600160a01b03909116178255602090920191600190910190614d9f565b50614de0929150614e97565b5090565b604051806040016040528060608152602001606081525090565b828054828255906000526020600020908101928215614e39579160200282015b82811115614e39578251825591602001919060010190614e1e565b50614de0929150614eb6565b60408051808201909152600081526060602082015290565b6040518060800160405280614e70614ecb565b8152602001614e7d614ecb565b8152602001614e8a614ecb565b8152602001614cdf614ecb565b5b80821115614de05780546001600160a01b0319168155600101614e98565b5b80821115614de05760008155600101614eb7565b604051806040016040528060008152602001600081525090565b60008083601f840112614ef6578182fd5b5081356001600160401b03811115614f0c578182fd5b602083019150836020808302850101111561268857600080fd5b600082601f830112614f36578081fd5b8151614f49614f4482615c2b565b615c05565b818152915060208083019084810181840286018201871015614f6a57600080fd5b60005b84811015614f92578151614f8081615c76565b84529282019290820190600101614f6d565b505050505092915050565b600082601f830112614fad578081fd5b8151614fbb614f4482615c2b565b818152915060208083019084810181840286018201871015614fdc57600080fd5b60005b84811015614f9257815184529282019290820190600101614fdf565b6000610100828403121561500d578081fd5b6150176080615c05565b90506150238383615061565b81526150328360408401615061565b60208201526150448360808401615061565b60408201526150568360c08401615061565b606082015292915050565b600060408284031215615072578081fd5b61507c6040615c05565b9050813581526020820135602082015292915050565b6000602082840312156150a3578081fd5b81356137a181615c76565b6000602082840312156150bf578081fd5b81516137a181615c76565b600080604083850312156150dc578081fd5b82356150e781615c76565b915060208301356150f781615c76565b809150509250929050565b6000806000806000806080878903121561511a578182fd5b863561512581615c76565b9550602087013561513581615c76565b945060408701356001600160401b0380821115615150578384fd5b61515c8a838b01614ee5565b90965094506060890135915080821115615174578384fd5b5061518189828a01614ee5565b979a9699509497509295939492505050565b6000806000606084860312156151a7578283fd5b83356151b281615c76565b925060208401356151c281615c76565b929592945050506040919091013590565b600080604083850312156151e5578182fd5b82356151f081615c76565b915060208301356150f781615c8b565b600080828403610420811215615214578283fd5b833561521f81615c76565b9250610400601f1982011215615233578182fd5b5061523e6080615c05565b61524b8560208601614ffb565b815261525b856101208601614ffb565b602082015261526e856102208601614ffb565b6040820152615281856103208601614ffb565b6060820152809150509250929050565b600080600080600080608087890312156152a9578384fd5b86356152b481615c76565b95506020870135945060408701356001600160401b0380821115615150578586fd5b6000602082840312156152e7578081fd5b81516001600160401b038111156152fc578182fd5b613e6c84828501614f26565b6000806040838503121561531a578182fd5b82516001600160401b0380821115615330578384fd5b61533c86838701614f26565b93506020850151915080821115615351578283fd5b5061535e85828601614f9d565b9150509250929050565b600060208284031215615379578081fd5b81516001600160401b0381111561538e578182fd5b613e6c84828501614f9d565b6000602082840312156153ab578081fd5b81516137a181615c8b565b6000602082840312156153c7578081fd5b8151600281106137a1578182fd5b6000602082840312156153e6578081fd5b81516001600160401b03808211156153fc578283fd5b9083019060a0828603121561540f578283fd5b61541960a0615c05565b825182811115615427578485fd5b61543387828601614f26565b825250602083015182811115615447578485fd5b61545387828601614f9d565b60208301525060408301518281111561546a578485fd5b61547687828601614f9d565b60408301525060608301518281111561548d578485fd5b61549987828601614f9d565b6060830152506080830151828111156154b0578485fd5b6154bc87828601614f9d565b60808301525095945050505050565b6000602082840312156154dc578081fd5b5051919050565b6000815180845260208085019450808401835b8381101561551b5781516001600160a01b0316875295820195908201906001016154f6565b509495945050505050565b6000815180845260208085019450808401835b8381101561551b57815187529582019590820190600101615539565b615560828251615594565b60208101516155726040840182615594565b5060408101516155856080840182615594565b50606081015161064d60c08401825b80518252602090810151910152565b600082516155b5818460208701615c4a565b9190910192915050565b6001600160a01b0391909116815260200190565b6001600160a01b0392831681529116602082015260400190565b6001600160a01b03929092168252602082015260400190565b6001600160a01b039390931683526020830191909152604082015260600190565b6000602082526137a160208301846154e3565b60006040825261564d60408301856154e3565b828103602084015261565f8185615526565b95945050505050565b60208082528251828201819052600091906040908185019080840286018301878501865b838110156156d457888303603f19018552815180516001600160a01b031684528701518784018790526156c187850182615526565b958801959350509086019060010161568c565b509098975050505050505050565b901515815260200190565b60006020825282602083015282846040840137818301604090810191909152601f909201601f19160101919050565b600060208252825180602084015261573b816040850160208701615c4a565b601f01601f19169190910160400192915050565b60208082526012908201527122a9292fa727aa2fa1a7a72a2927a62622a960711b604082015260600190565b6020808252601390820152724552525f4e4f545f4352505f464143544f525960681b604082015260600190565b60208082526026908201527f4f776e61626c653a206e6577206f776e657220697320746865207a65726f206160408201526564647265737360d01b606082015260800190565b6020808252601b908201527a536166654d6174683a206164646974696f6e206f766572666c6f7760281b604082015260600190565b6020808252601390820152724552525f494c4c4547414c5f42414c414e434560681b604082015260600190565b6020808252601a908201527908aa4a4bea89e968a9cbe988a9c8ea890be9c9ea8be9a82a886960331b604082015260600190565b6020808252601790820152764552525f494e56414c49445f4b4f4c5f4144445245535360481b604082015260600190565b6020808252818101527f5361666545524332303a206c6f772d6c6576656c2063616c6c206661696c6564604082015260600190565b6020808252601890820152774552525f494e56414c49445f504f4f4c5f4144445245535360401b604082015260600190565b60208082526021908201527f536166654d6174683a206d756c7469706c69636174696f6e206f766572666c6f6040820152607760f81b606082015260800190565b6020808252818101527f4f776e61626c653a2063616c6c6572206973206e6f7420746865206f776e6572604082015260600190565b6020808252600d908201526c11549497d21054d7d4d1551151609a1b604082015260600190565b6020808252600f908201526e22a9292fa727aa2fa6a0a720a3a2a960891b604082015260600190565b60208082526019908201527811549497d393d517d0d3d354131155115117d0d3d3131150d5603a1b604082015260600190565b6020808252602a908201527f5361666545524332303a204552433230206f7065726174696f6e20646964206e6040820152691bdd081cdd58d8d9595960b21b606082015260800190565b6020808252601f908201527f5361666545524332303a2063616c6c20746f206e6f6e2d636f6e747261637400604082015260600190565b600060208252825160406020840152615ab260608401826154e3565b90506020840151601f1984830301604085015261565f8282615526565b600061040082019050615ae3828451615555565b6020830151615af6610100840182615555565b506040830151615b0a610200840182615555565b506060830151615b1e610300840182615555565b5092915050565b600060208252825160a06020840152615b4160c08401826154e3565b90506020840151601f1980858403016040860152615b5f8383615526565b92506040860151915080858403016060860152615b7c8383615526565b92506060860151915080858403016080860152615b998383615526565b925060808601519150808584030160a08601525061565f8282615526565b81516001600160a01b031681526020918201519181019190915260400190565b90815260200190565b9384526001600160a01b03928316602085015291166040830152606082015260800190565b6040518181016001600160401b0381118282101715615c2357600080fd5b604052919050565b60006001600160401b03821115615c40578081fd5b5060209081020190565b60005b83811015615c65578181015183820152602001615c4d565b83811115614afe5750506000910152565b6001600160a01b038116811461119157600080fd5b801515811461119157600080fdfea2646970667358221220509f2dfdc67222d0044e3e2b708d5d787bf2c235b2ce7859d99a707c0a67d3f964736f6c634300060c0033",
  "libraries": {},
  "devdoc": {
    "author": "Desyn Labs",
    "kind": "dev",
    "methods": {
      "owner()": {
        "details": "Returns the address of the current owner."
      },
      "renounceOwnership()": {
        "details": "Leaves the contract without owner. It will not be possible to call `onlyOwner` functions anymore. Can only be called by the current owner. NOTE: Renouncing ownership will leave the contract without an owner, thereby removing any functionality that is only available to the owner."
      },
      "transferOwnership(address)": {
        "details": "Transfers ownership of the contract to a new account (`newOwner`). Can only be called by the current owner."
      }
    },
    "title": "Vault managerFee",
    "version": 1
  },
  "userdoc": {
    "kind": "user",
    "methods": {},
    "version": 1
  },
  "storageLayout": {
    "storage": [
      {
        "astId": 18362,
        "contract": "contracts/deploy/UserVault.sol:UserVault",
        "label": "_owner",
        "offset": 0,
        "slot": "0",
        "type": "t_address"
      },
      {
        "astId": 9912,
        "contract": "contracts/deploy/UserVault.sol:UserVault",
        "label": "crpFactory",
        "offset": 0,
        "slot": "1",
        "type": "t_contract(ICRPFactory)9813"
      },
      {
        "astId": 9914,
        "contract": "contracts/deploy/UserVault.sol:UserVault",
        "label": "vaultAddress",
        "offset": 0,
        "slot": "2",
        "type": "t_address"
      },
      {
        "astId": 9964,
        "contract": "contracts/deploy/UserVault.sol:UserVault",
        "label": "kolUserInfo",
        "offset": 0,
        "slot": "3",
        "type": "t_mapping(t_address,t_mapping(t_address,t_array(t_struct(KolUserInfo)9945_storage)dyn_storage))"
      },
      {
        "astId": 9968,
        "contract": "contracts/deploy/UserVault.sol:UserVault",
        "label": "poolsTokens",
        "offset": 0,
        "slot": "4",
        "type": "t_mapping(t_address,t_struct(PoolTokens)9930_storage)"
      },
      {
        "astId": 9972,
        "contract": "contracts/deploy/UserVault.sol:UserVault",
        "label": "poolsStatus",
        "offset": 0,
        "slot": "5",
        "type": "t_mapping(t_address,t_struct(PoolStatus)9939_storage)"
      },
      {
        "astId": 9976,
        "contract": "contracts/deploy/UserVault.sol:UserVault",
        "label": "poolInviteTotal",
        "offset": 0,
        "slot": "6",
        "type": "t_mapping(t_address,t_uint256)"
      },
      {
        "astId": 9980,
        "contract": "contracts/deploy/UserVault.sol:UserVault",
        "label": "kolsList",
        "offset": 0,
        "slot": "7",
        "type": "t_mapping(t_address,t_struct(AddressSet)16023_storage)"
      },
      {
        "astId": 9987,
        "contract": "contracts/deploy/UserVault.sol:UserVault",
        "label": "kolTotalAmountList",
        "offset": 0,
        "slot": "8",
        "type": "t_mapping(t_address,t_mapping(t_address,t_array(t_uint256)dyn_storage))"
      },
      {
        "astId": 9993,
        "contract": "contracts/deploy/UserVault.sol:UserVault",
        "label": "userKolList",
        "offset": 0,
        "slot": "9",
        "type": "t_mapping(t_address,t_mapping(t_address,t_struct(UserKolInfo)9950_storage))"
      },
      {
        "astId": 9999,
        "contract": "contracts/deploy/UserVault.sol:UserVault",
        "label": "kolHasClaimed",
        "offset": 0,
        "slot": "10",
        "type": "t_mapping(t_address,t_mapping(t_address,t_struct(ClaimTokens)9957_storage))"
      },
      {
        "astId": 10003,
        "contract": "contracts/deploy/UserVault.sol:UserVault",
        "label": "manageHasClaimed",
        "offset": 0,
        "slot": "11",
        "type": "t_mapping(t_address,t_struct(ClaimTokens)9957_storage)"
      }
    ],
    "types": {
      "t_address": {
        "encoding": "inplace",
        "label": "address",
        "numberOfBytes": "20"
      },
      "t_array(t_address)dyn_storage": {
        "base": "t_address",
        "encoding": "dynamic_array",
        "label": "address[]",
        "numberOfBytes": "32"
      },
      "t_array(t_bytes32)dyn_storage": {
        "base": "t_bytes32",
        "encoding": "dynamic_array",
        "label": "bytes32[]",
        "numberOfBytes": "32"
      },
      "t_array(t_struct(KolUserInfo)9945_storage)dyn_storage": {
        "base": "t_struct(KolUserInfo)9945_storage",
        "encoding": "dynamic_array",
        "label": "struct UserVault.KolUserInfo[]",
        "numberOfBytes": "32"
      },
      "t_array(t_uint256)dyn_storage": {
        "base": "t_uint256",
        "encoding": "dynamic_array",
        "label": "uint256[]",
        "numberOfBytes": "32"
      },
      "t_bool": {
        "encoding": "inplace",
        "label": "bool",
        "numberOfBytes": "1"
      },
      "t_bytes32": {
        "encoding": "inplace",
        "label": "bytes32",
        "numberOfBytes": "32"
      },
      "t_contract(ICRPFactory)9813": {
        "encoding": "inplace",
        "label": "contract ICRPFactory",
        "numberOfBytes": "20"
      },
      "t_mapping(t_address,t_array(t_struct(KolUserInfo)9945_storage)dyn_storage)": {
        "encoding": "mapping",
        "key": "t_address",
        "label": "mapping(address => struct UserVault.KolUserInfo[])",
        "numberOfBytes": "32",
        "value": "t_array(t_struct(KolUserInfo)9945_storage)dyn_storage"
      },
      "t_mapping(t_address,t_array(t_uint256)dyn_storage)": {
        "encoding": "mapping",
        "key": "t_address",
        "label": "mapping(address => uint256[])",
        "numberOfBytes": "32",
        "value": "t_array(t_uint256)dyn_storage"
      },
      "t_mapping(t_address,t_mapping(t_address,t_array(t_struct(KolUserInfo)9945_storage)dyn_storage))": {
        "encoding": "mapping",
        "key": "t_address",
        "label": "mapping(address => mapping(address => struct UserVault.KolUserInfo[]))",
        "numberOfBytes": "32",
        "value": "t_mapping(t_address,t_array(t_struct(KolUserInfo)9945_storage)dyn_storage)"
      },
      "t_mapping(t_address,t_mapping(t_address,t_array(t_uint256)dyn_storage))": {
        "encoding": "mapping",
        "key": "t_address",
        "label": "mapping(address => mapping(address => uint256[]))",
        "numberOfBytes": "32",
        "value": "t_mapping(t_address,t_array(t_uint256)dyn_storage)"
      },
      "t_mapping(t_address,t_mapping(t_address,t_struct(ClaimTokens)9957_storage))": {
        "encoding": "mapping",
        "key": "t_address",
        "label": "mapping(address => mapping(address => struct UserVault.ClaimTokens))",
        "numberOfBytes": "32",
        "value": "t_mapping(t_address,t_struct(ClaimTokens)9957_storage)"
      },
      "t_mapping(t_address,t_mapping(t_address,t_struct(UserKolInfo)9950_storage))": {
        "encoding": "mapping",
        "key": "t_address",
        "label": "mapping(address => mapping(address => struct UserVault.UserKolInfo))",
        "numberOfBytes": "32",
        "value": "t_mapping(t_address,t_struct(UserKolInfo)9950_storage)"
      },
      "t_mapping(t_address,t_struct(AddressSet)16023_storage)": {
        "encoding": "mapping",
        "key": "t_address",
        "label": "mapping(address => struct EnumerableSet.AddressSet)",
        "numberOfBytes": "32",
        "value": "t_struct(AddressSet)16023_storage"
      },
      "t_mapping(t_address,t_struct(ClaimTokens)9957_storage)": {
        "encoding": "mapping",
        "key": "t_address",
        "label": "mapping(address => struct UserVault.ClaimTokens)",
        "numberOfBytes": "32",
        "value": "t_struct(ClaimTokens)9957_storage"
      },
      "t_mapping(t_address,t_struct(PoolStatus)9939_storage)": {
        "encoding": "mapping",
        "key": "t_address",
        "label": "mapping(address => struct UserVault.PoolStatus)",
        "numberOfBytes": "32",
        "value": "t_struct(PoolStatus)9939_storage"
      },
      "t_mapping(t_address,t_struct(PoolTokens)9930_storage)": {
        "encoding": "mapping",
        "key": "t_address",
        "label": "mapping(address => struct UserVault.PoolTokens)",
        "numberOfBytes": "32",
        "value": "t_struct(PoolTokens)9930_storage"
      },
      "t_mapping(t_address,t_struct(UserKolInfo)9950_storage)": {
        "encoding": "mapping",
        "key": "t_address",
        "label": "mapping(address => struct UserVault.UserKolInfo)",
        "numberOfBytes": "32",
        "value": "t_struct(UserKolInfo)9950_storage"
      },
      "t_mapping(t_address,t_uint256)": {
        "encoding": "mapping",
        "key": "t_address",
        "label": "mapping(address => uint256)",
        "numberOfBytes": "32",
        "value": "t_uint256"
      },
      "t_mapping(t_bytes32,t_uint256)": {
        "encoding": "mapping",
        "key": "t_bytes32",
        "label": "mapping(bytes32 => uint256)",
        "numberOfBytes": "32",
        "value": "t_uint256"
      },
      "t_struct(AddressSet)16023_storage": {
        "encoding": "inplace",
        "label": "struct EnumerableSet.AddressSet",
        "members": [
          {
            "astId": 16022,
            "contract": "contracts/deploy/UserVault.sol:UserVault",
            "label": "_inner",
            "offset": 0,
            "slot": "0",
            "type": "t_struct(Set)15836_storage"
          }
        ],
        "numberOfBytes": "64"
      },
      "t_struct(ClaimTokens)9957_storage": {
        "encoding": "inplace",
        "label": "struct UserVault.ClaimTokens",
        "members": [
          {
            "astId": 9953,
            "contract": "contracts/deploy/UserVault.sol:UserVault",
            "label": "tokens",
            "offset": 0,
            "slot": "0",
            "type": "t_array(t_address)dyn_storage"
          },
          {
            "astId": 9956,
            "contract": "contracts/deploy/UserVault.sol:UserVault",
            "label": "amounts",
            "offset": 0,
            "slot": "1",
            "type": "t_array(t_uint256)dyn_storage"
          }
        ],
        "numberOfBytes": "64"
      },
      "t_struct(KolPoolParams)16839_storage": {
        "encoding": "inplace",
        "label": "struct SmartPoolManager.KolPoolParams",
        "members": [
          {
            "astId": 16832,
            "contract": "contracts/deploy/UserVault.sol:UserVault",
            "label": "managerFee",
            "offset": 0,
            "slot": "0",
            "type": "t_struct(feeParams)16830_storage"
          },
          {
            "astId": 16834,
            "contract": "contracts/deploy/UserVault.sol:UserVault",
            "label": "issueFee",
            "offset": 0,
            "slot": "8",
            "type": "t_struct(feeParams)16830_storage"
          },
          {
            "astId": 16836,
            "contract": "contracts/deploy/UserVault.sol:UserVault",
            "label": "redeemFee",
            "offset": 0,
            "slot": "16",
            "type": "t_struct(feeParams)16830_storage"
          },
          {
            "astId": 16838,
            "contract": "contracts/deploy/UserVault.sol:UserVault",
            "label": "perfermanceFee",
            "offset": 0,
            "slot": "24",
            "type": "t_struct(feeParams)16830_storage"
          }
        ],
        "numberOfBytes": "1024"
      },
      "t_struct(KolUserInfo)9945_storage": {
        "encoding": "inplace",
        "label": "struct UserVault.KolUserInfo",
        "members": [
          {
            "astId": 9941,
            "contract": "contracts/deploy/UserVault.sol:UserVault",
            "label": "userAdr",
            "offset": 0,
            "slot": "0",
            "type": "t_address"
          },
          {
            "astId": 9944,
            "contract": "contracts/deploy/UserVault.sol:UserVault",
            "label": "userAmount",
            "offset": 0,
            "slot": "1",
            "type": "t_array(t_uint256)dyn_storage"
          }
        ],
        "numberOfBytes": "64"
      },
      "t_struct(PoolStatus)9939_storage": {
        "encoding": "inplace",
        "label": "struct UserVault.PoolStatus",
        "members": [
          {
            "astId": 9932,
            "contract": "contracts/deploy/UserVault.sol:UserVault",
            "label": "couldManagerClaim",
            "offset": 0,
            "slot": "0",
            "type": "t_bool"
          },
          {
            "astId": 9934,
            "contract": "contracts/deploy/UserVault.sol:UserVault",
            "label": "isBlackList",
            "offset": 1,
            "slot": "0",
            "type": "t_bool"
          },
          {
            "astId": 9936,
            "contract": "contracts/deploy/UserVault.sol:UserVault",
            "label": "isSetParams",
            "offset": 2,
            "slot": "0",
            "type": "t_bool"
          },
          {
            "astId": 9938,
            "contract": "contracts/deploy/UserVault.sol:UserVault",
            "label": "kolPoolConfig",
            "offset": 0,
            "slot": "1",
            "type": "t_struct(KolPoolParams)16839_storage"
          }
        ],
        "numberOfBytes": "1056"
      },
      "t_struct(PoolTokens)9930_storage": {
        "encoding": "inplace",
        "label": "struct UserVault.PoolTokens",
        "members": [
          {
            "astId": 9917,
            "contract": "contracts/deploy/UserVault.sol:UserVault",
            "label": "tokenList",
            "offset": 0,
            "slot": "0",
            "type": "t_array(t_address)dyn_storage"
          },
          {
            "astId": 9920,
            "contract": "contracts/deploy/UserVault.sol:UserVault",
            "label": "managerAmount",
            "offset": 0,
            "slot": "1",
            "type": "t_array(t_uint256)dyn_storage"
          },
          {
            "astId": 9923,
            "contract": "contracts/deploy/UserVault.sol:UserVault",
            "label": "issueAmount",
            "offset": 0,
            "slot": "2",
            "type": "t_array(t_uint256)dyn_storage"
          },
          {
            "astId": 9926,
            "contract": "contracts/deploy/UserVault.sol:UserVault",
            "label": "redeemAmount",
            "offset": 0,
            "slot": "3",
            "type": "t_array(t_uint256)dyn_storage"
          },
          {
            "astId": 9929,
            "contract": "contracts/deploy/UserVault.sol:UserVault",
            "label": "perfermanceAmount",
            "offset": 0,
            "slot": "4",
            "type": "t_array(t_uint256)dyn_storage"
          }
        ],
        "numberOfBytes": "160"
      },
      "t_struct(Set)15836_storage": {
        "encoding": "inplace",
        "label": "struct EnumerableSet.Set",
        "members": [
          {
            "astId": 15831,
            "contract": "contracts/deploy/UserVault.sol:UserVault",
            "label": "_values",
            "offset": 0,
            "slot": "0",
            "type": "t_array(t_bytes32)dyn_storage"
          },
          {
            "astId": 15835,
            "contract": "contracts/deploy/UserVault.sol:UserVault",
            "label": "_indexes",
            "offset": 0,
            "slot": "1",
            "type": "t_mapping(t_bytes32,t_uint256)"
          }
        ],
        "numberOfBytes": "64"
      },
      "t_struct(UserKolInfo)9950_storage": {
        "encoding": "inplace",
        "label": "struct UserVault.UserKolInfo",
        "members": [
          {
            "astId": 9947,
            "contract": "contracts/deploy/UserVault.sol:UserVault",
            "label": "kol",
            "offset": 0,
            "slot": "0",
            "type": "t_address"
          },
          {
            "astId": 9949,
            "contract": "contracts/deploy/UserVault.sol:UserVault",
            "label": "index",
            "offset": 0,
            "slot": "1",
            "type": "t_uint256"
          }
        ],
        "numberOfBytes": "64"
      },
      "t_struct(feeParams)16830_storage": {
        "encoding": "inplace",
        "label": "struct SmartPoolManager.feeParams",
        "members": [
          {
            "astId": 16823,
            "contract": "contracts/deploy/UserVault.sol:UserVault",
            "label": "firstLevel",
            "offset": 0,
            "slot": "0",
            "type": "t_struct(levelParams)16821_storage"
          },
          {
            "astId": 16825,
            "contract": "contracts/deploy/UserVault.sol:UserVault",
            "label": "secondLevel",
            "offset": 0,
            "slot": "2",
            "type": "t_struct(levelParams)16821_storage"
          },
          {
            "astId": 16827,
            "contract": "contracts/deploy/UserVault.sol:UserVault",
            "label": "thirdLevel",
            "offset": 0,
            "slot": "4",
            "type": "t_struct(levelParams)16821_storage"
          },
          {
            "astId": 16829,
            "contract": "contracts/deploy/UserVault.sol:UserVault",
            "label": "fourLevel",
            "offset": 0,
            "slot": "6",
            "type": "t_struct(levelParams)16821_storage"
          }
        ],
        "numberOfBytes": "256"
      },
      "t_struct(levelParams)16821_storage": {
        "encoding": "inplace",
        "label": "struct SmartPoolManager.levelParams",
        "members": [
          {
            "astId": 16818,
            "contract": "contracts/deploy/UserVault.sol:UserVault",
            "label": "level",
            "offset": 0,
            "slot": "0",
            "type": "t_uint256"
          },
          {
            "astId": 16820,
            "contract": "contracts/deploy/UserVault.sol:UserVault",
            "label": "ratio",
            "offset": 0,
            "slot": "1",
            "type": "t_uint256"
          }
        ],
        "numberOfBytes": "64"
      },
      "t_uint256": {
        "encoding": "inplace",
        "label": "uint256",
        "numberOfBytes": "32"
      }
    }
  }
}