{
  "address": "0x2dddc604C43712D78e4Df9e6dDf16518ff1af824",
  "abi": [
    {
      "anonymous": false,
      "inputs": [
        {
          "indexed": true,
          "internalType": "address",
          "name": "newAdmin",
          "type": "address"
        },
        {
          "indexed": true,
          "internalType": "uint256",
          "name": "amount",
          "type": "uint256"
        }
      ],
      "name": "AddAdmin",
      "type": "event"
    },
    {
      "anonymous": false,
      "inputs": [
        {
          "indexed": true,
          "internalType": "address",
          "name": "manager",
          "type": "address"
        },
        {
          "indexed": true,
          "internalType": "address",
          "name": "caller",
          "type": "address"
        }
      ],
      "name": "LOGVaultAdr",
      "type": "event"
    },
    {
      "anonymous": false,
      "inputs": [
        {
          "indexed": true,
          "internalType": "address",
          "name": "previousOwner",
          "type": "address"
        },
        {
          "indexed": true,
          "internalType": "address",
          "name": "newOwner",
          "type": "address"
        }
      ],
      "name": "OwnershipTransferred",
      "type": "event"
    },
    {
      "anonymous": false,
      "inputs": [
        {
          "indexed": true,
          "internalType": "address",
          "name": "oldAdmin",
          "type": "address"
        },
        {
          "indexed": true,
          "internalType": "uint256",
          "name": "amount",
          "type": "uint256"
        }
      ],
      "name": "RemoveAdmin",
      "type": "event"
    },
    {
      "inputs": [],
      "name": "RATIO_TOTAL",
      "outputs": [
        {
          "internalType": "uint256",
          "name": "",
          "type": "uint256"
        }
      ],
      "stateMutability": "view",
      "type": "function"
    },
    {
      "inputs": [
        {
          "internalType": "address",
          "name": "pool",
          "type": "address"
        },
        {
          "internalType": "address",
          "name": "kol",
          "type": "address"
        },
        {
          "internalType": "uint256",
          "name": "types",
          "type": "uint256"
        }
      ],
      "name": "_computeReward",
      "outputs": [
        {
          "internalType": "uint256",
          "name": "",
          "type": "uint256"
        }
      ],
      "stateMutability": "view",
      "type": "function"
    },
    {
      "inputs": [
        {
          "internalType": "address",
          "name": "token",
          "type": "address"
        },
        {
          "internalType": "address",
          "name": "user",
          "type": "address"
        },
        {
          "internalType": "uint256",
          "name": "amount",
          "type": "uint256"
        }
      ],
      "name": "adminClaimToken",
      "outputs": [],
      "stateMutability": "nonpayable",
      "type": "function"
    },
    {
      "inputs": [
        {
          "internalType": "address",
          "name": "",
          "type": "address"
        }
      ],
      "name": "adminList",
      "outputs": [
        {
          "internalType": "bool",
          "name": "",
          "type": "bool"
        }
      ],
      "stateMutability": "view",
      "type": "function"
    },
    {
      "inputs": [],
      "name": "allOwnerPercentage",
      "outputs": [
        {
          "internalType": "uint256",
          "name": "",
          "type": "uint256"
        }
      ],
      "stateMutability": "view",
      "type": "function"
    },
    {
      "inputs": [
        {
          "internalType": "address",
          "name": "pool",
          "type": "address"
        }
      ],
      "name": "claimKolReward",
      "outputs": [],
      "stateMutability": "nonpayable",
      "type": "function"
    },
    {
      "inputs": [
        {
          "internalType": "address",
          "name": "pool",
          "type": "address"
        },
        {
          "internalType": "uint256",
          "name": "types",
          "type": "uint256"
        },
        {
          "internalType": "address[]",
          "name": "poolTokens",
          "type": "address[]"
        },
        {
          "internalType": "uint256[]",
          "name": "tokensAmount",
          "type": "uint256[]"
        }
      ],
      "name": "depositToken",
      "outputs": [],
      "stateMutability": "nonpayable",
      "type": "function"
    },
    {
      "inputs": [
        {
          "internalType": "address",
          "name": "pool",
          "type": "address"
        }
      ],
      "name": "getAllKolReward",
      "outputs": [
        {
          "internalType": "uint256",
          "name": "totalAmount",
          "type": "uint256"
        }
      ],
      "stateMutability": "view",
      "type": "function"
    },
    {
      "inputs": [],
      "name": "getBNB",
      "outputs": [],
      "stateMutability": "payable",
      "type": "function"
    },
    {
      "inputs": [],
      "name": "getController",
      "outputs": [
        {
          "internalType": "address",
          "name": "",
          "type": "address"
        }
      ],
      "stateMutability": "view",
      "type": "function"
    },
    {
      "inputs": [
        {
          "internalType": "address",
          "name": "pool",
          "type": "address"
        }
      ],
      "name": "getKolsAdr",
      "outputs": [
        {
          "internalType": "address[]",
          "name": "",
          "type": "address[]"
        }
      ],
      "stateMutability": "view",
      "type": "function"
    },
    {
      "inputs": [
        {
          "internalType": "address",
          "name": "pool",
          "type": "address"
        }
      ],
      "name": "getManagerClaimBool",
      "outputs": [
        {
          "internalType": "bool",
          "name": "bools",
          "type": "bool"
        }
      ],
      "stateMutability": "view",
      "type": "function"
    },
    {
      "inputs": [
        {
          "internalType": "address",
          "name": "pool",
          "type": "address"
        },
        {
          "internalType": "address",
          "name": "maragerAdr",
          "type": "address"
        }
      ],
      "name": "getManagerReward",
      "outputs": [
        {
          "internalType": "uint256",
          "name": "",
          "type": "uint256"
        }
      ],
      "stateMutability": "view",
      "type": "function"
    },
    {
      "inputs": [
        {
          "internalType": "address",
          "name": "pool",
          "type": "address"
        }
      ],
      "name": "getManagerReward",
      "outputs": [
        {
          "internalType": "uint256",
          "name": "",
          "type": "uint256"
        }
      ],
      "stateMutability": "view",
      "type": "function"
    },
    {
      "inputs": [],
      "name": "getOwnerPercentage",
      "outputs": [
        {
          "internalType": "uint256[]",
          "name": "",
          "type": "uint256[]"
        }
      ],
      "stateMutability": "view",
      "type": "function"
    },
    {
      "inputs": [],
      "name": "getOwners",
      "outputs": [
        {
          "internalType": "address[]",
          "name": "",
          "type": "address[]"
        }
      ],
      "stateMutability": "view",
      "type": "function"
    },
    {
      "inputs": [
        {
          "internalType": "address",
          "name": "pool",
          "type": "address"
        }
      ],
      "name": "getPoolAllFee",
      "outputs": [
        {
          "internalType": "uint256",
          "name": "totalAmount",
          "type": "uint256"
        }
      ],
      "stateMutability": "view",
      "type": "function"
    },
    {
      "inputs": [
        {
          "internalType": "address",
          "name": "pool",
          "type": "address"
        },
        {
          "internalType": "address",
          "name": "kol",
          "type": "address"
        }
      ],
      "name": "getPoolKolTotalAmounts",
      "outputs": [
        {
          "internalType": "uint256[]",
          "name": "",
          "type": "uint256[]"
        }
      ],
      "stateMutability": "view",
      "type": "function"
    },
    {
      "inputs": [
        {
          "internalType": "address",
          "name": "pool",
          "type": "address"
        },
        {
          "internalType": "address",
          "name": "kol",
          "type": "address"
        }
      ],
      "name": "getPoolKolUserInfo",
      "outputs": [
        {
          "components": [
            {
              "internalType": "address",
              "name": "userAdr",
              "type": "address"
            },
            {
              "internalType": "uint256[]",
              "name": "userAmount",
              "type": "uint256[]"
            }
          ],
          "internalType": "struct UserVault.KolUserInfo[]",
          "name": "info",
          "type": "tuple[]"
        }
      ],
      "stateMutability": "view",
      "type": "function"
    },
    {
      "inputs": [
        {
          "internalType": "address",
          "name": "pool",
          "type": "address"
        },
        {
          "internalType": "address",
          "name": "user",
          "type": "address"
        }
      ],
      "name": "getPoolUserKolAdr",
      "outputs": [
        {
          "internalType": "address",
          "name": "tokenAddress",
          "type": "address"
        }
      ],
      "stateMutability": "view",
      "type": "function"
    },
    {
      "inputs": [
        {
          "internalType": "address",
          "name": "pool",
          "type": "address"
        }
      ],
      "name": "getPoolUserList",
      "outputs": [
        {
          "internalType": "address[]",
          "name": "tokenList",
          "type": "address[]"
        }
      ],
      "stateMutability": "view",
      "type": "function"
    },
    {
      "inputs": [
        {
          "internalType": "address",
          "name": "pool",
          "type": "address"
        }
      ],
      "name": "getUnManagerReward",
      "outputs": [
        {
          "internalType": "uint256",
          "name": "",
          "type": "uint256"
        }
      ],
      "stateMutability": "view",
      "type": "function"
    },
    {
      "inputs": [
        {
          "internalType": "address",
          "name": "pool",
          "type": "address"
        },
        {
          "internalType": "address",
          "name": "maragerAdr",
          "type": "address"
        }
      ],
      "name": "getUnManagerReward",
      "outputs": [
        {
          "internalType": "uint256",
          "name": "",
          "type": "uint256"
        }
      ],
      "stateMutability": "view",
      "type": "function"
    },
    {
      "inputs": [
        {
          "internalType": "address[]",
          "name": "_owners",
          "type": "address[]"
        },
        {
          "internalType": "uint256[]",
          "name": "_ownerPercentage",
          "type": "uint256[]"
        }
      ],
      "name": "initHandle",
      "outputs": [],
      "stateMutability": "nonpayable",
      "type": "function"
    },
    {
      "inputs": [
        {
          "internalType": "address",
          "name": "",
          "type": "address"
        }
      ],
      "name": "init_totalAmount_list",
      "outputs": [
        {
          "internalType": "uint256",
          "name": "",
          "type": "uint256"
        }
      ],
      "stateMutability": "view",
      "type": "function"
    },
    {
      "inputs": [
        {
          "internalType": "address",
          "name": "pool",
          "type": "address"
        }
      ],
      "name": "isClosePool",
      "outputs": [
        {
          "internalType": "bool",
          "name": "",
          "type": "bool"
        }
      ],
      "stateMutability": "view",
      "type": "function"
    },
    {
      "inputs": [
        {
          "internalType": "address",
          "name": "pool",
          "type": "address"
        },
        {
          "internalType": "address",
          "name": "kol",
          "type": "address"
        }
      ],
      "name": "kolClaimTotal",
      "outputs": [
        {
          "internalType": "uint256",
          "name": "",
          "type": "uint256"
        }
      ],
      "stateMutability": "view",
      "type": "function"
    },
    {
      "inputs": [
        {
          "internalType": "address",
          "name": "pool",
          "type": "address"
        },
        {
          "internalType": "address",
          "name": "kol",
          "type": "address"
        }
      ],
      "name": "kolUnClaimAmount",
      "outputs": [
        {
          "internalType": "uint256",
          "name": "",
          "type": "uint256"
        }
      ],
      "stateMutability": "view",
      "type": "function"
    },
    {
      "inputs": [
        {
          "internalType": "address",
          "name": "",
          "type": "address"
        },
        {
          "internalType": "address",
          "name": "",
          "type": "address"
        }
      ],
      "name": "kol_claimed_list",
      "outputs": [
        {
          "internalType": "uint256",
          "name": "",
          "type": "uint256"
        }
      ],
      "stateMutability": "view",
      "type": "function"
    },
    {
      "inputs": [
        {
          "internalType": "address",
          "name": "",
          "type": "address"
        },
        {
          "internalType": "uint256",
          "name": "",
          "type": "uint256"
        }
      ],
      "name": "kol_token_list",
      "outputs": [
        {
          "internalType": "address",
          "name": "",
          "type": "address"
        }
      ],
      "stateMutability": "view",
      "type": "function"
    },
    {
      "inputs": [
        {
          "internalType": "address",
          "name": "",
          "type": "address"
        },
        {
          "internalType": "address",
          "name": "",
          "type": "address"
        },
        {
          "internalType": "uint256",
          "name": "",
          "type": "uint256"
        }
      ],
      "name": "kol_totalAmount_list",
      "outputs": [
        {
          "internalType": "uint256",
          "name": "",
          "type": "uint256"
        }
      ],
      "stateMutability": "view",
      "type": "function"
    },
    {
      "inputs": [
        {
          "internalType": "address",
          "name": "",
          "type": "address"
        },
        {
          "internalType": "address",
          "name": "",
          "type": "address"
        },
        {
          "internalType": "uint256",
          "name": "",
          "type": "uint256"
        }
      ],
      "name": "kol_user_info",
      "outputs": [
        {
          "internalType": "address",
          "name": "userAdr",
          "type": "address"
        }
      ],
      "stateMutability": "view",
      "type": "function"
    },
    {
      "inputs": [
        {
          "internalType": "address",
          "name": "pool",
          "type": "address"
        }
      ],
      "name": "managerClaim",
      "outputs": [],
      "stateMutability": "nonpayable",
      "type": "function"
    },
    {
      "inputs": [
        {
          "internalType": "address",
          "name": "pool",
          "type": "address"
        }
      ],
      "name": "managerClaimList",
      "outputs": [
        {
          "components": [
            {
              "internalType": "address",
              "name": "token",
              "type": "address"
            },
            {
              "internalType": "uint256",
              "name": "decimals",
              "type": "uint256"
            },
            {
              "internalType": "uint256",
              "name": "amount",
              "type": "uint256"
            }
          ],
          "internalType": "struct UserVault.ClaimTokenInfo[1]",
          "name": "",
          "type": "tuple[1]"
        }
      ],
      "stateMutability": "view",
      "type": "function"
    },
    {
      "inputs": [
        {
          "internalType": "address",
          "name": "pool",
          "type": "address"
        }
      ],
      "name": "managerClaimRecordList",
      "outputs": [
        {
          "components": [
            {
              "internalType": "uint256",
              "name": "time",
              "type": "uint256"
            },
            {
              "components": [
                {
                  "internalType": "address",
                  "name": "token",
                  "type": "address"
                },
                {
                  "internalType": "uint256",
                  "name": "decimals",
                  "type": "uint256"
                },
                {
                  "internalType": "uint256",
                  "name": "amount",
                  "type": "uint256"
                }
              ],
              "internalType": "struct UserVault.ClaimTokenInfo[]",
              "name": "tokens",
              "type": "tuple[]"
            }
          ],
          "internalType": "struct UserVault.ClaimRecordInfo[]",
          "name": "claimRecordInfos",
          "type": "tuple[]"
        }
      ],
      "stateMutability": "view",
      "type": "function"
    },
    {
      "inputs": [
        {
          "internalType": "address",
          "name": "",
          "type": "address"
        },
        {
          "internalType": "address",
          "name": "",
          "type": "address"
        }
      ],
      "name": "manager_claimed_list",
      "outputs": [
        {
          "internalType": "uint256",
          "name": "",
          "type": "uint256"
        }
      ],
      "stateMutability": "view",
      "type": "function"
    },
    {
      "inputs": [
        {
          "internalType": "uint256",
          "name": "",
          "type": "uint256"
        }
      ],
      "name": "ownerPercentage",
      "outputs": [
        {
          "internalType": "uint256",
          "name": "",
          "type": "uint256"
        }
      ],
      "stateMutability": "view",
      "type": "function"
    },
    {
      "inputs": [
        {
          "internalType": "uint256",
          "name": "",
          "type": "uint256"
        }
      ],
      "name": "owners",
      "outputs": [
        {
          "internalType": "address",
          "name": "",
          "type": "address"
        }
      ],
      "stateMutability": "view",
      "type": "function"
    },
    {
      "inputs": [
        {
          "internalType": "address",
          "name": "pool",
          "type": "address"
        }
      ],
      "name": "poolIssueTokenAmount",
      "outputs": [
        {
          "internalType": "uint256[]",
          "name": "tokenAmount",
          "type": "uint256[]"
        }
      ],
      "stateMutability": "view",
      "type": "function"
    },
    {
      "inputs": [
        {
          "internalType": "address",
          "name": "pool",
          "type": "address"
        }
      ],
      "name": "poolIssueTokenList",
      "outputs": [
        {
          "internalType": "address[]",
          "name": "tokens",
          "type": "address[]"
        }
      ],
      "stateMutability": "view",
      "type": "function"
    },
    {
      "inputs": [
        {
          "internalType": "address",
          "name": "pool",
          "type": "address"
        }
      ],
      "name": "poolManagerTokenAmount",
      "outputs": [
        {
          "internalType": "uint256[]",
          "name": "tokenAmount",
          "type": "uint256[]"
        }
      ],
      "stateMutability": "view",
      "type": "function"
    },
    {
      "inputs": [
        {
          "internalType": "address",
          "name": "pool",
          "type": "address"
        }
      ],
      "name": "poolManagerTokenList",
      "outputs": [
        {
          "internalType": "address[]",
          "name": "tokens",
          "type": "address[]"
        }
      ],
      "stateMutability": "view",
      "type": "function"
    },
    {
      "inputs": [
        {
          "internalType": "address",
          "name": "pool",
          "type": "address"
        }
      ],
      "name": "poolPerfermanceTokenAmount",
      "outputs": [
        {
          "internalType": "uint256[]",
          "name": "tokenAmount",
          "type": "uint256[]"
        }
      ],
      "stateMutability": "view",
      "type": "function"
    },
    {
      "inputs": [
        {
          "internalType": "address",
          "name": "pool",
          "type": "address"
        }
      ],
      "name": "poolPerfermanceTokenList",
      "outputs": [
        {
          "internalType": "address[]",
          "name": "tokens",
          "type": "address[]"
        }
      ],
      "stateMutability": "view",
      "type": "function"
    },
    {
      "inputs": [
        {
          "internalType": "address",
          "name": "pool",
          "type": "address"
        }
      ],
      "name": "poolRedeemTokenAmount",
      "outputs": [
        {
          "internalType": "uint256[]",
          "name": "tokenAmount",
          "type": "uint256[]"
        }
      ],
      "stateMutability": "view",
      "type": "function"
    },
    {
      "inputs": [
        {
          "internalType": "address",
          "name": "pool",
          "type": "address"
        }
      ],
      "name": "poolRedeemTokenList",
      "outputs": [
        {
          "internalType": "address[]",
          "name": "tokens",
          "type": "address[]"
        }
      ],
      "stateMutability": "view",
      "type": "function"
    },
    {
      "inputs": [
        {
          "internalType": "address",
          "name": "",
          "type": "address"
        }
      ],
      "name": "pool_manager",
      "outputs": [
        {
          "internalType": "address",
          "name": "",
          "type": "address"
        }
      ],
      "stateMutability": "view",
      "type": "function"
    },
    {
      "inputs": [
        {
          "internalType": "address",
          "name": "",
          "type": "address"
        }
      ],
      "name": "pool_manangerHasClaimed",
      "outputs": [
        {
          "internalType": "uint256",
          "name": "",
          "type": "uint256"
        }
      ],
      "stateMutability": "view",
      "type": "function"
    },
    {
      "inputs": [
        {
          "internalType": "address",
          "name": "kol",
          "type": "address"
        },
        {
          "internalType": "address",
          "name": "user",
          "type": "address"
        },
        {
          "internalType": "address[]",
          "name": "poolTokens",
          "type": "address[]"
        },
        {
          "internalType": "uint256[]",
          "name": "tokensAmount",
          "type": "uint256[]"
        }
      ],
      "name": "recordTokenInfo",
      "outputs": [],
      "stateMutability": "nonpayable",
      "type": "function"
    },
    {
      "inputs": [
        {
          "internalType": "address",
          "name": "",
          "type": "address"
        },
        {
          "internalType": "uint256",
          "name": "",
          "type": "uint256"
        }
      ],
      "name": "record_List",
      "outputs": [
        {
          "internalType": "uint256",
          "name": "time",
          "type": "uint256"
        }
      ],
      "stateMutability": "view",
      "type": "function"
    },
    {
      "inputs": [
        {
          "internalType": "address",
          "name": "",
          "type": "address"
        }
      ],
      "name": "record_number",
      "outputs": [
        {
          "internalType": "uint256",
          "name": "",
          "type": "uint256"
        }
      ],
      "stateMutability": "view",
      "type": "function"
    },
    {
      "inputs": [
        {
          "internalType": "address",
          "name": "owner",
          "type": "address"
        }
      ],
      "name": "removeOwner",
      "outputs": [],
      "stateMutability": "nonpayable",
      "type": "function"
    },
    {
      "inputs": [
        {
          "internalType": "address",
          "name": "newOwner",
          "type": "address"
        },
        {
          "internalType": "uint256",
          "name": "_ownerPercentage",
          "type": "uint256"
        }
      ],
      "name": "setAddAdminList",
      "outputs": [],
      "stateMutability": "nonpayable",
      "type": "function"
    },
    {
      "inputs": [
        {
          "internalType": "address",
          "name": "pool",
          "type": "address"
        },
        {
          "internalType": "bool",
          "name": "bools",
          "type": "bool"
        }
      ],
      "name": "setBlackList",
      "outputs": [],
      "stateMutability": "nonpayable",
      "type": "function"
    },
    {
      "inputs": [
        {
          "internalType": "address",
          "name": "newOwner",
          "type": "address"
        }
      ],
      "name": "setController",
      "outputs": [],
      "stateMutability": "nonpayable",
      "type": "function"
    },
    {
      "inputs": [
        {
          "internalType": "address",
          "name": "adr",
          "type": "address"
        }
      ],
      "name": "setCrpFactory",
      "outputs": [],
      "stateMutability": "nonpayable",
      "type": "function"
    },
    {
      "inputs": [
        {
          "internalType": "address",
          "name": "pool",
          "type": "address"
        },
        {
          "components": [
            {
              "components": [
                {
                  "components": [
                    {
                      "internalType": "uint256",
                      "name": "level",
                      "type": "uint256"
                    },
                    {
                      "internalType": "uint256",
                      "name": "ratio",
                      "type": "uint256"
                    }
                  ],
                  "internalType": "struct SmartPoolManager.levelParams",
                  "name": "firstLevel",
                  "type": "tuple"
                },
                {
                  "components": [
                    {
                      "internalType": "uint256",
                      "name": "level",
                      "type": "uint256"
                    },
                    {
                      "internalType": "uint256",
                      "name": "ratio",
                      "type": "uint256"
                    }
                  ],
                  "internalType": "struct SmartPoolManager.levelParams",
                  "name": "secondLevel",
                  "type": "tuple"
                },
                {
                  "components": [
                    {
                      "internalType": "uint256",
                      "name": "level",
                      "type": "uint256"
                    },
                    {
                      "internalType": "uint256",
                      "name": "ratio",
                      "type": "uint256"
                    }
                  ],
                  "internalType": "struct SmartPoolManager.levelParams",
                  "name": "thirdLevel",
                  "type": "tuple"
                },
                {
                  "components": [
                    {
                      "internalType": "uint256",
                      "name": "level",
                      "type": "uint256"
                    },
                    {
                      "internalType": "uint256",
                      "name": "ratio",
                      "type": "uint256"
                    }
                  ],
                  "internalType": "struct SmartPoolManager.levelParams",
                  "name": "fourLevel",
                  "type": "tuple"
                }
              ],
              "internalType": "struct SmartPoolManager.feeParams",
              "name": "managerFee",
              "type": "tuple"
            },
            {
              "components": [
                {
                  "components": [
                    {
                      "internalType": "uint256",
                      "name": "level",
                      "type": "uint256"
                    },
                    {
                      "internalType": "uint256",
                      "name": "ratio",
                      "type": "uint256"
                    }
                  ],
                  "internalType": "struct SmartPoolManager.levelParams",
                  "name": "firstLevel",
                  "type": "tuple"
                },
                {
                  "components": [
                    {
                      "internalType": "uint256",
                      "name": "level",
                      "type": "uint256"
                    },
                    {
                      "internalType": "uint256",
                      "name": "ratio",
                      "type": "uint256"
                    }
                  ],
                  "internalType": "struct SmartPoolManager.levelParams",
                  "name": "secondLevel",
                  "type": "tuple"
                },
                {
                  "components": [
                    {
                      "internalType": "uint256",
                      "name": "level",
                      "type": "uint256"
                    },
                    {
                      "internalType": "uint256",
                      "name": "ratio",
                      "type": "uint256"
                    }
                  ],
                  "internalType": "struct SmartPoolManager.levelParams",
                  "name": "thirdLevel",
                  "type": "tuple"
                },
                {
                  "components": [
                    {
                      "internalType": "uint256",
                      "name": "level",
                      "type": "uint256"
                    },
                    {
                      "internalType": "uint256",
                      "name": "ratio",
                      "type": "uint256"
                    }
                  ],
                  "internalType": "struct SmartPoolManager.levelParams",
                  "name": "fourLevel",
                  "type": "tuple"
                }
              ],
              "internalType": "struct SmartPoolManager.feeParams",
              "name": "issueFee",
              "type": "tuple"
            },
            {
              "components": [
                {
                  "components": [
                    {
                      "internalType": "uint256",
                      "name": "level",
                      "type": "uint256"
                    },
                    {
                      "internalType": "uint256",
                      "name": "ratio",
                      "type": "uint256"
                    }
                  ],
                  "internalType": "struct SmartPoolManager.levelParams",
                  "name": "firstLevel",
                  "type": "tuple"
                },
                {
                  "components": [
                    {
                      "internalType": "uint256",
                      "name": "level",
                      "type": "uint256"
                    },
                    {
                      "internalType": "uint256",
                      "name": "ratio",
                      "type": "uint256"
                    }
                  ],
                  "internalType": "struct SmartPoolManager.levelParams",
                  "name": "secondLevel",
                  "type": "tuple"
                },
                {
                  "components": [
                    {
                      "internalType": "uint256",
                      "name": "level",
                      "type": "uint256"
                    },
                    {
                      "internalType": "uint256",
                      "name": "ratio",
                      "type": "uint256"
                    }
                  ],
                  "internalType": "struct SmartPoolManager.levelParams",
                  "name": "thirdLevel",
                  "type": "tuple"
                },
                {
                  "components": [
                    {
                      "internalType": "uint256",
                      "name": "level",
                      "type": "uint256"
                    },
                    {
                      "internalType": "uint256",
                      "name": "ratio",
                      "type": "uint256"
                    }
                  ],
                  "internalType": "struct SmartPoolManager.levelParams",
                  "name": "fourLevel",
                  "type": "tuple"
                }
              ],
              "internalType": "struct SmartPoolManager.feeParams",
              "name": "redeemFee",
              "type": "tuple"
            },
            {
              "components": [
                {
                  "components": [
                    {
                      "internalType": "uint256",
                      "name": "level",
                      "type": "uint256"
                    },
                    {
                      "internalType": "uint256",
                      "name": "ratio",
                      "type": "uint256"
                    }
                  ],
                  "internalType": "struct SmartPoolManager.levelParams",
                  "name": "firstLevel",
                  "type": "tuple"
                },
                {
                  "components": [
                    {
                      "internalType": "uint256",
                      "name": "level",
                      "type": "uint256"
                    },
                    {
                      "internalType": "uint256",
                      "name": "ratio",
                      "type": "uint256"
                    }
                  ],
                  "internalType": "struct SmartPoolManager.levelParams",
                  "name": "secondLevel",
                  "type": "tuple"
                },
                {
                  "components": [
                    {
                      "internalType": "uint256",
                      "name": "level",
                      "type": "uint256"
                    },
                    {
                      "internalType": "uint256",
                      "name": "ratio",
                      "type": "uint256"
                    }
                  ],
                  "internalType": "struct SmartPoolManager.levelParams",
                  "name": "thirdLevel",
                  "type": "tuple"
                },
                {
                  "components": [
                    {
                      "internalType": "uint256",
                      "name": "level",
                      "type": "uint256"
                    },
                    {
                      "internalType": "uint256",
                      "name": "ratio",
                      "type": "uint256"
                    }
                  ],
                  "internalType": "struct SmartPoolManager.levelParams",
                  "name": "fourLevel",
                  "type": "tuple"
                }
              ],
              "internalType": "struct SmartPoolManager.feeParams",
              "name": "perfermanceFee",
              "type": "tuple"
            }
          ],
          "internalType": "struct SmartPoolManager.KolPoolParams",
          "name": "_poolParams",
          "type": "tuple"
        }
      ],
      "name": "setPoolParams",
      "outputs": [],
      "stateMutability": "nonpayable",
      "type": "function"
    },
    {
      "inputs": [
        {
          "internalType": "address",
          "name": "adr",
          "type": "address"
        }
      ],
      "name": "setVaultAdr",
      "outputs": [],
      "stateMutability": "nonpayable",
      "type": "function"
    },
    {
      "inputs": [
        {
          "internalType": "address",
          "name": "",
          "type": "address"
        },
        {
          "internalType": "address",
          "name": "",
          "type": "address"
        }
      ],
      "name": "user_index_list",
      "outputs": [
        {
          "internalType": "uint256",
          "name": "",
          "type": "uint256"
        }
      ],
      "stateMutability": "view",
      "type": "function"
    },
    {
      "inputs": [
        {
          "internalType": "address",
          "name": "",
          "type": "address"
        },
        {
          "internalType": "address",
          "name": "",
          "type": "address"
        }
      ],
      "name": "user_kol_list",
      "outputs": [
        {
          "internalType": "address",
          "name": "",
          "type": "address"
        }
      ],
      "stateMutability": "view",
      "type": "function"
    },
    {
      "inputs": [],
      "name": "vaultAddress",
      "outputs": [
        {
          "internalType": "address",
          "name": "",
          "type": "address"
        }
      ],
      "stateMutability": "view",
      "type": "function"
    },
    {
      "stateMutability": "payable",
      "type": "receive"
    }
  ],
  "transactionHash": "0xef516b36de368181ac798a32e548561a9f3f0a4b0ba7b8c13840d30683d5b259",
  "args": [],
  "numDeployments": 1,
  "solcInputHash": "ad611d3edcdf2b99f8b7701d90abc71c",
  "bytecode": "0x6080604052606460165534801561001557600080fd5b50600080546001600160a01b03191633179055615f4d80620000386000396000f3fe6080604052600436106102c65760003560e01c80636936674d116101775780636936674d146106cc5780636fd4ba9c146106ec5780637234100a1461070c57806378a619de1461072c57806379f66374146107345780638da901ba146107545780638f799e12146107745780639155dae71461079457806392eefe9b146107b4578063992f6ba5146107d4578063a0e67e2b146107f4578063a5168ee214610809578063a97f9f3314610829578063bbb6e80814610849578063c0fcb16614610869578063c1e5762214610889578063c3e4d04f146108a9578063c5318d0f146108c9578063c90361dd146108e9578063cf4fe63514610909578063d29986c114610936578063d6b485a51461094b578063d7256c701461096b578063de7f30221461098b578063e0bea5ac146109ab578063e65065d9146109cb578063ebef44d9146109eb578063ec7a4b5214610a0b578063edb12adf14610a2b578063edbfb5f514610a4b578063f36ed92814610a6b576102cd565b8063025e7c27146102d257806303a68ecb146103085780630b83e629146103355780630e99089c14610362578063154726b214610382578063173825d9146103a25780631a46506e146103c45780631cc9a579146103e45780631eae039c146104115780631f70e80b1461043157806327304dfd146104465780632b5230a9146104735780632c0bdbcf146104935780632c7c1bb5146104c05780633018205f146104e0578063309a042c146104f55780633d5e1b191461050a5780633eedcfa01461052a5780633ef144791461054a57806341c65e831461056a578063430bf08a1461058a5780634660c5a51461059f57806346bead89146105bf5780634bbe2fca146105df5780634d4ae12d146105ff5780634da384161461062c578063528b58531461064c5780635834bac41461066c57806358d2dbf01461068c57806368092bd9146106ac576102cd565b366102cd57005b600080fd5b3480156102de57600080fd5b506102f26102ed366004615881565b610a8b565b6040516102ff919061590c565b60405180910390f35b34801561031457600080fd5b506103286103233660046154fb565b610ab2565b6040516102ff9190615ea6565b34801561034157600080fd5b50610355610350366004615432565b610aed565b6040516102ff9190615b37565b34801561036e57600080fd5b5061032861037d3660046153fa565b610b67565b34801561038e57600080fd5b5061032861039d366004615432565b610f39565b3480156103ae57600080fd5b506103c26103bd3660046153fa565b610fef565b005b3480156103d057600080fd5b506103556103df3660046153fa565b6111da565b3480156103f057600080fd5b506104046103ff3660046153fa565b611249565b6040516102ff91906159c4565b34801561041d57600080fd5b506103c261042c3660046154fb565b6113b5565b34801561043d57600080fd5b50610328611465565b34801561045257600080fd5b506104666104613660046153fa565b61146b565b6040516102ff9190615b4a565b34801561047f57600080fd5b5061035561048e3660046153fa565b611480565b34801561049f57600080fd5b506104b36104ae3660046153fa565b6114ed565b6040516102ff9190615977565b3480156104cc57600080fd5b506103286104db366004615432565b611565565b3480156104ec57600080fd5b506102f2611582565b34801561050157600080fd5b50610355611591565b34801561051657600080fd5b506103286105253660046153fa565b6115e9565b34801561053657600080fd5b50610328610545366004615432565b6115fb565b34801561055657600080fd5b506103c2610565366004615701565b611618565b34801561057657600080fd5b506104b36105853660046153fa565b61173a565b34801561059657600080fd5b506102f26117b1565b3480156105ab57600080fd5b506103c26105ba366004615568565b6117c0565b3480156105cb57600080fd5b506103286105da366004615432565b611a17565b3480156105eb57600080fd5b506103286105fa3660046155f9565b611c80565b34801561060b57600080fd5b5061061f61061a3660046153fa565b611c9d565b6040516102ff9190615a77565b34801561063857600080fd5b506104b36106473660046153fa565b611dfd565b34801561065857600080fd5b506103286106673660046153fa565b611e71565b34801561067857600080fd5b506103286106873660046154fb565b611e83565b34801561069857600080fd5b506102f26106a7366004615432565b612565565b3480156106b857600080fd5b506103c26106c736600461553b565b61258f565b3480156106d857600080fd5b506103c26106e73660046153fa565b6125ea565b3480156106f857600080fd5b506103286107073660046153fa565b612aaa565b34801561071857600080fd5b506103286107273660046153fa565b612b41565b6103c2612bde565b34801561074057600080fd5b506102f261074f366004615432565b612c34565b34801561076057600080fd5b5061046661076f3660046153fa565b612c5a565b34801561078057600080fd5b5061032861078f366004615432565b612ce1565b3480156107a057600080fd5b506103c26107af366004615624565b612cfe565b3480156107c057600080fd5b506103c26107cf3660046153fa565b612e69565b3480156107e057600080fd5b506103c26107ef3660046155f9565b612f14565b34801561080057600080fd5b506104b361303d565b34801561081557600080fd5b506103556108243660046153fa565b61309e565b34801561083557600080fd5b506103556108443660046153fa565b61310b565b34801561085557600080fd5b506102f26108643660046154fb565b613178565b34801561087557600080fd5b506104666108843660046153fa565b6131bf565b34801561089557600080fd5b506103c26108a43660046153fa565b6131dd565b3480156108b557600080fd5b506102f26108c43660046153fa565b61322f565b3480156108d557600080fd5b506103286108e4366004615881565b61324a565b3480156108f557600080fd5b506104b36109043660046153fa565b613268565b34801561091557600080fd5b50610929610924366004615432565b61328c565b6040516102ff9190615acb565b34801561094257600080fd5b50610328613371565b34801561095757600080fd5b506103c26109663660046153fa565b613377565b34801561097757600080fd5b506103c261098636600461546a565b613414565b34801561099757600080fd5b506104b36109a63660046153fa565b613994565b3480156109b757600080fd5b506102f26109c63660046155f9565b613a0b565b3480156109d757600080fd5b506103286109e6366004615432565b613a40565b3480156109f757600080fd5b506104b3610a063660046153fa565b613bea565b348015610a1757600080fd5b50610328610a26366004615432565b613c5e565b348015610a3757600080fd5b506103c2610a463660046153fa565b613cb0565b348015610a5757600080fd5b50610328610a663660046153fa565b614209565b348015610a7757600080fd5b50610328610a863660046153fa565b61421b565b60028181548110610a9857fe5b6000918252602090912001546001600160a01b0316905081565b60126020528260005260406000206020528160005260406000208181548110610ad757fe5b9060005260206000200160009250925050505481565b6001600160a01b038083166000908152601260209081526040808320938516835292815290829020805483518184028101840190945280845260609392830182828015610b5957602002820191906000526020600020905b815481526020019060010190808311610b45575b505050505090505b92915050565b6000610b71615028565b6001600160a01b038316600090815260086020908152604091829020825181546101209381028201840190945261010081018481529093919284928491840182828015610be757602002820191906000526020600020905b81546001600160a01b03168152600190910190602001808311610bc9575b5050505050815260200160018201805480602002602001604051908101604052809291908181526020018280548015610c4957602002820191906000526020600020905b81546001600160a01b03168152600190910190602001808311610c2b575b5050505050815260200160028201805480602002602001604051908101604052809291908181526020018280548015610cab57602002820191906000526020600020905b81546001600160a01b03168152600190910190602001808311610c8d575b5050505050815260200160038201805480602002602001604051908101604052809291908181526020018280548015610d0d57602002820191906000526020600020905b81546001600160a01b03168152600190910190602001808311610cef575b5050505050815260200160048201805480602002602001604051908101604052809291908181526020018280548015610d6557602002820191906000526020600020905b815481526020019060010190808311610d51575b5050505050815260200160058201805480602002602001604051908101604052809291908181526020018280548015610dbd57602002820191906000526020600020905b815481526020019060010190808311610da9575b5050505050815260200160068201805480602002602001604051908101604052809291908181526020018280548015610e1557602002820191906000526020600020905b815481526020019060010190808311610e01575b5050505050815260200160078201805480602002602001604051908101604052809291908181526020018280548015610e6d57602002820191906000526020600020905b815481526020019060010190808311610e59575b5050505050815250509050600081608001515111610e8c576000610ea6565b8060800151600081518110610e9d57fe5b60200260200101515b60a082015151920191610eba576000610ed4565b8060a00151600081518110610ecb57fe5b60200260200101515b60c082015151920191610ee8576000610f02565b8060c00151600081518110610ef957fe5b60200260200101515b60e082015151920191610f16576000610f30565b8060e00151600081518110610f2757fe5b60200260200101515b90910192915050565b60405163e65065d960e01b81526000908190309063e65065d990610f639087908790600401615939565b60206040518083038186803b158015610f7b57600080fd5b505afa158015610f8f573d6000803e3d6000fd5b505050506040513d601f19601f82011682018060405250810190610fb39190615899565b6001600160a01b03808616600090815260116020908152604080832093881683529290522054909150610fe682826142dc565b95945050505050565b6000546001600160a01b031633146110225760405162461bcd60e51b815260040161101990615ba8565b60405180910390fd5b6001600160a01b0381166000908152600160205260408120805460ff19169055805b60025481101561114657826001600160a01b03166002828154811061106557fe5b6000918252602090912001546001600160a01b0316141561113e5760028054600019810190811061109257fe5b600091825260209091200154600280546001600160a01b0390921691839081106110b857fe5b9060005260206000200160006101000a8154816001600160a01b0302191690836001600160a01b03160217905550600381815481106110f357fe5b9060005260206000200154915060036001600380549050038154811061111557fe5b90600052602060002001546003828154811061112d57fe5b600091825260209091200155611146565b600101611044565b50600280548061115257fe5b600082815260209020810160001990810180546001600160a01b0319169055019055600380548061117f57fe5b600082815260208120820160001990810182905590910190915560048054839003905560405182916001600160a01b038516917f7b0884b4b6bb4e0c1385ad42168fa556c14d4d799c1bf22f081aff3efff6ea0c9190a35050565b6001600160a01b03811660009081526008602090815260409182902060070180548351818402810184019094528084526060939283018282801561123d57602002820191906000526020600020905b815481526020019060010190808311611229575b50505050509050919050565b6001600160a01b0381166000908152600a602052604090205460609081816001600160401b038111801561127c57600080fd5b506040519080825280602002602001820160405280156112b657816020015b6112a361506d565b81526020019060019003908161129b5790505b50905060015b826001018110156113ad576112cf61506d565b6001600160a01b0386166000908152600b60209081526040808320858452825280832081518083018352815481526001820180548451818702810187019095528085529195929486810194939192919084015b82821015611377576000848152602090819020604080516060810182526003860290920180546001600160a01b0316835260018082015484860152600290910154918301919091529083529092019101611322565b5050509152509091508190508361138f8460016142dc565b8151811061139957fe5b6020908102919091010152506001016112bc565b509392505050565b6000546001600160a01b031633146113df5760405162461bcd60e51b815260040161101990615ba8565b60405163a9059cbb60e01b81526001600160a01b0384169063a9059cbb9061140d9085908590600401615920565b602060405180830381600087803b15801561142757600080fd5b505af115801561143b573d6000803e3d6000fd5b505050506040513d601f19601f8201168201806040525081019061145f9190615846565b50505050565b60165481565b60016020526000908152604090205460ff1681565b6001600160a01b03811660009081526008602090815260409182902060060180548351818402810184019094528084526060939283018282801561123d57602002820191906000526020600020908154815260200190600101908083116112295750505050509050919050565b6001600160a01b03811660009081526008602090815260409182902060020180548351818402810184019094528084526060939283018282801561123d57602002820191906000526020600020905b81546001600160a01b0316815260019091019060200180831161153c5750505050509050919050565b601460209081526000928352604080842090915290825290205481565b6000546001600160a01b031690565b606060038054806020026020016040519081016040528092919081815260200182805480156115df57602002820191906000526020600020905b8154815260200190600101908083116115cb575b5050505050905090565b600f6020526000908152604090205481565b601160209081526000928352604080842090915290825290205481565b6000546001600160a01b031633146116425760405162461bcd60e51b815260040161101990615ba8565b80518251146116635760405162461bcd60e51b815260040161101990615d86565b60055460ff16156116865760405162461bcd60e51b815260040161101990615c61565b60005b82518110156117005781818151811061169e57fe5b602002602001015160046000828254019250508190555060018060008584815181106116c657fe5b6020908102919091018101516001600160a01b03168252810191909152604001600020805460ff1916911515919091179055600101611689565b508151611714906002906020850190615087565b5080516117289060039060208401906150ec565b50506005805460ff1916600117905550565b6001600160a01b03811660009081526008602090815260409182902060030180548351818402810184019094528084526060939283018282801561123d576020028201919060005260206000209081546001600160a01b0316815260019091019060200180831161153c5750505050509050919050565b6006546001600160a01b031681565b60055461010090046001600160a01b031633146117ef5760405162461bcd60e51b815260040161101990615bd4565b6001600160a01b03808316600090815260096020526040908190206005549151636e0cf42160e11b815290926101009092049091169063dc19e8429061183990869060040161590c565b60206040518083038186803b15801561185157600080fd5b505afa158015611865573d6000803e3d6000fd5b505050506040513d601f19601f820116820180604052508101906118899190615846565b6118a55760405162461bcd60e51b815260040161101990615da6565b805462010000900460ff16156118cd5760405162461bcd60e51b815260040161101990615e19565b805462ff0000191662010000178155815180518051600184015560209081015160028401558082015180516003850155810151600484015560408083015180516005860155820151600685015560609283015180516007860155820151600885015581850151805180516009870155830151600a860155808301518051600b870155830151600c860155808201518051600d870155830151600e8601558301518051600f8601558201516010850155808501518051805160118701558301516012860155808301518051601387015583015160148601558082015180516015870155830151601686015583015180516017860155820151601885015593820151805180516019860155820151601a850155808201518051601b860155820151601c850155938401518051601d850155810151601e8401559201518051601f83015582015191015550565b60405163391a080560e11b815260009081903090637234100a90611a3f90879060040161590c565b60206040518083038186803b158015611a5757600080fd5b505afa158015611a6b573d6000803e3d6000fd5b505050506040513d601f19601f82011682018060405250810190611a8f9190615899565b90506060846001600160a01b031663a0e67e2b6040518163ffffffff1660e01b815260040160006040518083038186803b158015611acc57600080fd5b505afa158015611ae0573d6000803e3d6000fd5b505050506040513d6000823e601f3d908101601f19168201604052611b089190810190615669565b90506060856001600160a01b031663309a042c6040518163ffffffff1660e01b815260040160006040518083038186803b158015611b4557600080fd5b505afa158015611b59573d6000803e3d6000fd5b505050506040513d6000823e601f3d908101601f19168201604052611b8191908101906157c3565b90506000866001600160a01b031663d29986c16040518163ffffffff1660e01b815260040160206040518083038186803b158015611bbe57600080fd5b505afa158015611bd2573d6000803e3d6000fd5b505050506040513d601f19601f82011682018060405250810190611bf69190615899565b905060005b8351811015611c7557838181518110611c1057fe5b60200260200101516001600160a01b0316876001600160a01b03161415611c6d57611c6182611c5b858481518110611c4457fe5b60200260200101518861431e90919063ffffffff16565b90614358565b95505050505050610b61565b600101611bfb565b505050505092915050565b600b60209081526000928352604080842090915290825290205481565b611ca5615133565b611cad615160565b6001600160a01b0383166000908152600c6020526040812080548290611ccf57fe5b6000918252602090912001546001600160a01b0316808352604051631bf52ea760e21b81529091503090636fd4ba9c90611d0d90879060040161590c565b60206040518083038186803b158015611d2557600080fd5b505afa158015611d39573d6000803e3d6000fd5b505050506040513d601f19601f82011682018060405250810190611d5d9190615899565b826040018181525050806001600160a01b031663313ce5676040518163ffffffff1660e01b815260040160206040518083038186803b158015611d9f57600080fd5b505afa158015611db3573d6000803e3d6000fd5b505050506040513d601f19601f82011682018060405250810190611dd791906158b1565b60ff166020830152611de7615133565b5050604080516020810190915290815292915050565b6001600160a01b0381166000908152600c602090815260409182902080548351818402810184019094528084526060939283018282801561123d576020028201919060005260206000209081546001600160a01b0316815260019091019060200180831161153c5750505050509050919050565b600d6020526000908152604090205481565b6001600160a01b0380841660009081526012602090815260408083209386168352929052908120548190611eb8576000611ef6565b6001600160a01b03808616600090815260126020908152604080832093881683529290529081208054909190611eea57fe5b90600052602060002001545b9050611f0061518a565b506001600160a01b03851660009081526009602081815260408084208151610140810183526001820154610100820190815260028301546101208301526080808301918252845180860186526003850154815260048501548188015260a080850191909152855180870187526005860154815260068601548189015260c08086019190915286518088018852600787015481526008870154818a015260e08601529284528551808401875297850154888301908152600a86015489830152885285518087018752600b8601548152600c860154818901528888015285518087018752600d8601548152600e860154818901528887015285518087018752600f860154815260108601548189015260608981019190915284880198909852855180840187526011860154818401908152601287015482840152815286518088018852601387015481526014870154818a01528189015286518088018852601587015481526016870154818a01528188015286518088018852601787015481526018870154818a0152818a015284870152855192830186526019850154918301918252601a85015490830152815283518085018552601b8401548152601c840154818701528186015283518085018552601d8401548152601e84015481870152818501528351808501909452601f83015484529184015493830193909352808401919091529181019190915290612113615028565b6001600160a01b03881660009081526008602090815260409182902082518154610120938102820184019094526101008101848152909391928492849184018282801561218957602002820191906000526020600020905b81546001600160a01b0316815260019091019060200180831161216b575b50505050508152602001600182018054806020026020016040519081016040528092919081815260200182805480156121eb57602002820191906000526020600020905b81546001600160a01b031681526001909101906020018083116121cd575b505050505081526020016002820180548060200260200160405190810160405280929190818152602001828054801561224d57602002820191906000526020600020905b81546001600160a01b0316815260019091019060200180831161222f575b50505050508152602001600382018054806020026020016040519081016040528092919081815260200182805480156122af57602002820191906000526020600020905b81546001600160a01b03168152600190910190602001808311612291575b505050505081526020016004820180548060200260200160405190810160405280929190818152602001828054801561230757602002820191906000526020600020905b8154815260200190600101908083116122f3575b505050505081526020016005820180548060200260200160405190810160405280929190818152602001828054801561235f57602002820191906000526020600020905b81548152602001906001019080831161234b575b50505050508152602001600682018054806020026020016040519081016040528092919081815260200182805480156123b757602002820191906000526020600020905b8154815260200190600101908083116123a3575b505050505081526020016007820180548060200260200160405190810160405280929190818152602001828054801561240f57602002820191906000526020600020905b8154815260200190600101908083116123fb575b5050505050815250509050836000141561243057600094505050505061255e565b8515801561244357506000816080015151115b1561248957612486601654611c5b61245f878760000151614397565b846080015160008151811061247057fe5b602002602001015161431e90919063ffffffff16565b91505b85600114801561249e575060008160a0015151115b156124ce576124cb601654611c5b6124ba878760200151614397565b8460a0015160008151811061247057fe5b91505b8560021480156124e3575060008160c0015151115b1561251357612510601654611c5b6124ff878760400151614397565b8460c0015160008151811061247057fe5b91505b856003148015612528575060008160e0015151115b1561255857612555601654611c5b612544878760600151614397565b8460e0015160008151811061247057fe5b91505b50925050505b9392505050565b6001600160a01b039182166000908152601560209081526040808320938516835292905220541690565b6000546001600160a01b031633146125b95760405162461bcd60e51b815260040161101990615ba8565b6001600160a01b03909116600090815260096020526040902080549115156101000261ff0019909216919091179055565b60065460405163edb12adf60e01b81526001600160a01b039091169063edb12adf9061261a90849060040161590c565b600060405180830381600087803b15801561263457600080fd5b505af1925050508015612645575060015b506040516346d480dd60e11b81523090638da901ba9061266990849060040161590c565b60206040518083038186803b15801561268157600080fd5b505afa158015612695573d6000803e3d6000fd5b505050506040513d601f19601f820116820180604052508101906126b99190615846565b15612aa757600554604051636e0cf42160e11b81526101009091046001600160a01b03169063dc19e842906126f290849060040161590c565b60206040518083038186803b15801561270a57600080fd5b505afa15801561271e573d6000803e3d6000fd5b505050506040513d601f19601f820116820180604052508101906127429190615846565b61275e5760405162461bcd60e51b815260040161101990615da6565b806001600160a01b0316635468d6d76040518163ffffffff1660e01b815260040160206040518083038186803b15801561279757600080fd5b505afa1580156127ab573d6000803e3d6000fd5b505050506040513d601f19601f820116820180604052508101906127cf9190615846565b6127eb5760405162461bcd60e51b815260040161101990615e73565b604051630aa3935960e11b8152600090309063154726b2906128139085903390600401615939565b60206040518083038186803b15801561282b57600080fd5b505afa15801561283f573d6000803e3d6000fd5b505050506040513d601f19601f820116820180604052508101906128639190615899565b9050600081116128855760405162461bcd60e51b815260040161101990615c01565b6001600160a01b03821660009081526011602090815260408083203380855292529091208054830190556128b890614472565b156129f3576001600160a01b0382166000908152600c6020526040812080549091906128e057fe5b9060005260206000200160009054906101000a90046001600160a01b03166001600160a01b031663a9059cbb336001600160a01b0316638da5cb5b6040518163ffffffff1660e01b815260040160206040518083038186803b15801561294557600080fd5b505afa158015612959573d6000803e3d6000fd5b505050506040513d601f19601f8201168201806040525081019061297d9190615416565b836040518363ffffffff1660e01b815260040161299b929190615920565b602060405180830381600087803b1580156129b557600080fd5b505af11580156129c9573d6000803e3d6000fd5b505050506040513d601f19601f820116820180604052508101906129ed9190615846565b50612aa5565b6001600160a01b0382166000908152600c602052604081208054909190612a1657fe5b60009182526020909120015460405163a9059cbb60e01b81526001600160a01b039091169063a9059cbb90612a519033908590600401615920565b602060405180830381600087803b158015612a6b57600080fd5b505af1158015612a7f573d6000803e3d6000fd5b505050506040513d601f19601f82011682018060405250810190612aa39190615846565b505b505b50565b6001600160a01b0381166000908152600f602052604080822054905163391a080560e11b8152610b6191903090637234100a90612aeb90879060040161590c565b60206040518083038186803b158015612b0357600080fd5b505afa158015612b17573d6000803e3d6000fd5b505050506040513d601f19601f82011682018060405250810190612b3b9190615899565b906142dc565b604051631e6ddb2560e31b8152600090610b6190309063f36ed92890612b6b90869060040161590c565b60206040518083038186803b158015612b8357600080fd5b505afa158015612b97573d6000803e3d6000fd5b505050506040513d601f19601f82011682018060405250810190612bbb9190615899565b6040516303a6422760e21b81523090630e99089c90612aeb90879060040161590c565b6000546001600160a01b03163314612c085760405162461bcd60e51b815260040161101990615ba8565b60405133904780156108fc02916000818181858888f19350505050158015612aa7573d6000803e3d6000fd5b60156020908152600092835260408084209091529082529020546001600160a01b031681565b60006001826001600160a01b03166373a9855c6040518163ffffffff1660e01b815260040160206040518083038186803b158015612c9757600080fd5b505afa158015612cab573d6000803e3d6000fd5b505050506040513d601f19601f82011682018060405250810190612ccf9190615862565b6001811115612cda57fe5b1492915050565b600e60209081526000928352604080842090915290825290205481565b6006546001600160a01b03163314612d285760405162461bcd60e51b815260040161101990615ba8565b828114612d475760405162461bcd60e51b815260040161101990615c87565b6001600160a01b0386811660009081526007602052604090205416612e0757856001600160a01b0316633018205f6040518163ffffffff1660e01b815260040160206040518083038186803b158015612d9f57600080fd5b505afa158015612db3573d6000803e3d6000fd5b505050506040513d601f19601f82011682018060405250810190612dd79190615416565b6001600160a01b03878116600090815260076020526040902080546001600160a01b031916929091169190911790555b606080612e1488886144ab565b91509150606080612e2a888888888e8989614843565b91509150612e3a8a8a8484614a85565b5050506001600160a01b039096166000908152600960205260409020805460ff19166001179055505050505050565b6000546001600160a01b03163314612e935760405162461bcd60e51b815260040161101990615ba8565b6001600160a01b038116612eb95760405162461bcd60e51b815260040161101990615d39565b600080546040516001600160a01b03808516939216917f8be0079c531659141344cd1fd0a4f28419497f9722a3daafe3b4186f6b6457e091a3600080546001600160a01b0319166001600160a01b0392909216919091179055565b6000546001600160a01b03163314612f3e5760405162461bcd60e51b815260040161101990615ba8565b6001600160a01b03821660009081526001602052604090205460ff1615612f775760405162461bcd60e51b815260040161101990615cde565b6001600160a01b0382166000818152600160208190526040808320805460ff191683179055600280548084019091557f405787fa12a823e0f2b7631cc41b3ba8828b3321ca811111fa75cd3aa3bb5ace0180546001600160a01b0319168517905560038054928301815583527fc2575a0e9e593c00f959f8c92f12db2869c3395a3b0502d05e2516446f71f85b9091018490556004805485019055518392917fbd5dcf0b25226117c4a68a0129ffdd4b0541ef5e482ad7de9a96ccb6d6a8ebde91a35050565b606060028054806020026020016040519081016040528092919081815260200182805480156115df57602002820191906000526020600020905b81546001600160a01b03168152600190910190602001808311613077575050505050905090565b6001600160a01b03811660009081526008602090815260409182902060050180548351818402810184019094528084526060939283018282801561123d57602002820191906000526020600020908154815260200190600101908083116112295750505050509050919050565b6001600160a01b03811660009081526008602090815260409182902060040180548351818402810184019094528084526060939283018282801561123d57602002820191906000526020600020908154815260200190600101908083116112295750505050509050919050565b6013602052826000526040600020602052816000526040600020818154811061319d57fe5b60009182526020909120600290910201546001600160a01b0316925083915050565b6001600160a01b031660009081526009602052604090205460ff1690565b6000546001600160a01b031633146132075760405162461bcd60e51b815260040161101990615ba8565b600580546001600160a01b0390921661010002610100600160a81b0319909216919091179055565b6007602052600090815260409020546001600160a01b031681565b6003818154811061325757fe5b600091825260209091200154905081565b6001600160a01b0381166000908152601060205260409020606090610b6190614b75565b6001600160a01b0380831660009081526013602090815260408083209385168352928152828220805484518184028101840190955280855260609493919290919084015b828210156133655760008481526020908190206040805180820182526002860290920180546001600160a01b0316835260018101805483518187028101870190945280845293949193858301939283018282801561334d57602002820191906000526020600020905b815481526020019060010190808311613339575b505050505081525050815260200190600101906132d0565b50505050905092915050565b60045481565b6000546001600160a01b031633146133a15760405162461bcd60e51b815260040161101990615ba8565b6001600160a01b0381166133c75760405162461bcd60e51b815260040161101990615e40565b600680546001600160a01b0319166001600160a01b0383169081179091556040513391907ff5e71cc69e4610808e8e7c9099d63353897264c5dfc4da1a0320395866de497190600090a350565b33838281146134355760405162461bcd60e51b815260040161101990615c87565b600554604051636e0cf42160e11b81526101009091046001600160a01b03169063dc19e8429061346990859060040161590c565b60206040518083038186803b15801561348157600080fd5b505afa158015613495573d6000803e3d6000fd5b505050506040513d601f19601f820116820180604052508101906134b99190615846565b6134d55760405162461bcd60e51b815260040161101990615da6565b6001600160a01b0382166000908152600c6020526040902054613517576001600160a01b0382166000908152600c602052604090206135159087876151c9565b505b6001600160a01b0382811660009081526015602090815260408083208b8516845290915290205416806135be576001600160a01b0383811660008181526015602090815260408083208d86168452825280832080546001600160a01b031916958f1695909517909455918152601090915220613593908a614b81565b6135bb576001600160a01b03831660009081526010602052604090206135b9908a614b96565b505b50875b6001600160a01b0381166135e45760405162461bcd60e51b815260040161101990615d08565b61361c858560008181106135f457fe5b6001600160a01b0387166000908152600d602090815260409091205493910201359050614bab565b6001600160a01b0384166000908152600d60205260409020556060826001600160401b038111801561364d57600080fd5b50604051908082528060200260200182016040528015613677578160200160208202803683370190505b50905060005b83811015613762576001600160a01b038086166000908152601260209081526040808320938716835292905220546136df578686828181106136bb57fe5b905060200201358282815181106136ce57fe5b60200260200101818152505061375a565b6001600160a01b038086166000908152601260209081526040808320938716835292905220805461374191908390811061371557fe5b906000526020600020015488888481811061372c57fe5b90506020020135614bab90919063ffffffff16565b82828151811061374d57fe5b6020026020010181815250505b60010161367d565b506001600160a01b03808516600090815260126020908152604080832093861683529281529190208251613798928401906150ec565b506001600160a01b0380851660008181526013602090815260408083208786168452825280832093835260148252808320948e1683529390529190912054806138cc576137e361521c565b6001600160a01b038c168152604080516020808b0282810182019093528a825290918b918b91829185019084908082843760009201829052506020868101958652885460018082018b558a845292829020885160029092020180546001600160a01b0319166001600160a01b0390921691909117815595518051889796506138729550928601935001906150ec565b505050828054905060146000896001600160a01b03166001600160a01b0316815260200190815260200160002060008e6001600160a01b03166001600160a01b031681526020019081526020016000208190555050613986565b6001600160a01b03808716600090815260136020908152604080832093881683529290529081208054600019840190811061390357fe5b9060005260206000209060020201905060005b6001820154811015613983576139608a8a8381811061393157fe5b9050602002013583600101838154811061394757fe5b9060005260206000200154614bab90919063ffffffff16565b82600101828154811061396f57fe5b600091825260209091200155600101613916565b50505b505050505050505050505050565b6001600160a01b03811660009081526008602090815260409182902060010180548351818402810184019094528084526060939283018282801561123d576020028201919060005260206000209081546001600160a01b0316815260019091019060200180831161153c5750505050509050919050565b600c6020528160005260406000208181548110613a2457fe5b6000918252602090912001546001600160a01b03169150829050565b6001600160a01b0380831660009081526012602090815260408083209385168352929052908120548190613a75579050610b61565b60405163160d2eb160e21b8152613af8903090635834bac490613aa19088908890600090600401615953565b60206040518083038186803b158015613ab957600080fd5b505afa158015613acd573d6000803e3d6000fd5b505050506040513d601f19601f82011682018060405250810190613af19190615899565b8290614bab565b60405163160d2eb160e21b8152909150613b27903090635834bac490613aa19088908890600190600401615953565b60405163160d2eb160e21b8152909150613b56903090635834bac490613aa19088908890600290600401615953565b60405163160d2eb160e21b8152909150613b85903090635834bac490613aa19088908890600390600401615953565b6001600160a01b038086166000908152600d60209081526040808320546012835281842094891684529390915281208054939450613be293611c5b9290613bc857fe5b90600052602060002001548461431e90919063ffffffff16565b949350505050565b6001600160a01b03811660009081526008602090815260409182902080548351818402810184019094528084526060939283018282801561123d576020028201919060005260206000209081546001600160a01b0316815260019091019060200180831161153c5750505050509050919050565b6001600160a01b038083166000908152600e6020908152604080832093851683529290528181205491516346bead8960e01b8152909161255e9130906346bead8990612aeb9088908890600401615939565b60065460405163edb12adf60e01b81526001600160a01b039091169063edb12adf90613ce090849060040161590c565b600060405180830381600087803b158015613cfa57600080fd5b505af1925050508015613d0b575060015b506040516346d480dd60e11b81523090638da901ba90613d2f90849060040161590c565b60206040518083038186803b158015613d4757600080fd5b505afa158015613d5b573d6000803e3d6000fd5b505050506040513d601f19601f82011682018060405250810190613d7f9190615846565b15612aa757600554604051636e0cf42160e11b81526101009091046001600160a01b03169063dc19e84290613db890849060040161590c565b60206040518083038186803b158015613dd057600080fd5b505afa158015613de4573d6000803e3d6000fd5b505050506040513d601f19601f82011682018060405250810190613e089190615846565b613e245760405162461bcd60e51b815260040161101990615da6565b806001600160a01b0316635468d6d76040518163ffffffff1660e01b815260040160206040518083038186803b158015613e5d57600080fd5b505afa158015613e71573d6000803e3d6000fd5b505050506040513d601f19601f82011682018060405250810190613e959190615846565b613eb15760405162461bcd60e51b815260040161101990615e73565b6040516327304dfd60e01b81526001600160a01b038216906327304dfd90613edd90339060040161590c565b60206040518083038186803b158015613ef557600080fd5b505afa158015613f09573d6000803e3d6000fd5b505050506040513d601f19601f82011682018060405250810190613f2d9190615846565b80613fb95750336001600160a01b0316816001600160a01b0316633018205f6040518163ffffffff1660e01b815260040160206040518083038186803b158015613f7657600080fd5b505afa158015613f8a573d6000803e3d6000fd5b505050506040513d601f19601f82011682018060405250810190613fae9190615416565b6001600160a01b0316145b613fd55760405162461bcd60e51b815260040161101990615d63565b604051631bf52ea760e21b81526000903090636fd4ba9c90613ffb90859060040161590c565b60206040518083038186803b15801561401357600080fd5b505afa158015614027573d6000803e3d6000fd5b505050506040513d601f19601f8201168201806040525081019061404b9190615899565b90506000811161406d5760405162461bcd60e51b815260040161101990615c01565b6001600160a01b0382166000908152600960209081526040808320805460ff19169055600f8252808320805485019055600a9091528120546140b0906001614bab565b6001600160a01b0384166000908152600c602052604081208054929350909182906140d757fe5b6000918252602090912001546001600160a01b031690506140f6615160565b816001600160a01b031663313ce5676040518163ffffffff1660e01b815260040160206040518083038186803b15801561412f57600080fd5b505afa158015614143573d6000803e3d6000fd5b505050506040513d601f19601f8201168201806040525081019061416791906158b1565b60ff1660208201526001600160a01b03821681526040810184905261418e85338487614bd0565b6001600160a01b039485166000908152600a60209081526040808320869055600b825280832095835294815284822042815560019081018054808301825590845292829020845160039094020180546001600160a01b0319169390981692909217875582015190860155909101516002909301929092555050565b600a6020526000908152604090205481565b6001600160a01b03811660009081526010602052604081208161423d82614eca565b905060005b818110156142d4573063e65065d98661425b8685614ed5565b6040518363ffffffff1660e01b8152600401614278929190615939565b60206040518083038186803b15801561429057600080fd5b505afa1580156142a4573d6000803e3d6000fd5b505050506040513d601f19601f820116820180604052508101906142c89190615899565b90930192600101614242565b505050919050565b600061255e83836040518060400160405280601e81526020017f536166654d6174683a207375627472616374696f6e206f766572666c6f770000815250614ee1565b60008261432d57506000610b61565b8282028284828161433a57fe5b041461255e5760405162461bcd60e51b815260040161101990615dd8565b600061255e83836040518060400160405280601a815260200179536166654d6174683a206469766973696f6e206279207a65726f60301b815250614f0d565b6000805b600481101561446b57806143d15782515184108015906143bf575060208301515184105b156143d1575050805160200151610b61565b80600114156144075760208301515184108015906143f3575060408301515184105b156144075750506020808201510151610b61565b806002141561443e576040830151518410801590614429575060608301515184105b1561443e575050604081015160200151610b61565b8060031415614463576060830151518410614463575050606081015160200151610b61565b60010161439b565b5092915050565b6000813f7fc5d2460186f7233c927e7db2dcc703c0e500b653ca82273b7bfad8045d85a470818114801590613be2575050151592915050565b606080600483106144ce5760405162461bcd60e51b815260040161101990615cbb565b6144d6615028565b6001600160a01b03851660009081526008602090815260409182902082518154610120938102820184019094526101008101848152909391928492849184018282801561454c57602002820191906000526020600020905b81546001600160a01b0316815260019091019060200180831161452e575b50505050508152602001600182018054806020026020016040519081016040528092919081815260200182805480156145ae57602002820191906000526020600020905b81546001600160a01b03168152600190910190602001808311614590575b505050505081526020016002820180548060200260200160405190810160405280929190818152602001828054801561461057602002820191906000526020600020905b81546001600160a01b031681526001909101906020018083116145f2575b505050505081526020016003820180548060200260200160405190810160405280929190818152602001828054801561467257602002820191906000526020600020905b81546001600160a01b03168152600190910190602001808311614654575b50505050508152602001600482018054806020026020016040519081016040528092919081815260200182805480156146ca57602002820191906000526020600020905b8154815260200190600101908083116146b6575b505050505081526020016005820180548060200260200160405190810160405280929190818152602001828054801561472257602002820191906000526020600020905b81548152602001906001019080831161470e575b505050505081526020016006820180548060200260200160405190810160405280929190818152602001828054801561477a57602002820191906000526020600020905b815481526020019060010190808311614766575b50505050508152602001600782018054806020026020016040519081016040528092919081815260200182805480156147d257602002820191906000526020600020905b8154815260200190600101908083116147be575b505050505081525050905083600014156147f3578051608082015190935091505b836001141561480b57806020015192508060a0015191505b836002141561482357806040015192508060c0015191505b836003141561483b57806060015192508060e0015191505b509250929050565b60608087806001600160401b038111801561485d57600080fd5b50604051908082528060200260200182016040528015614887578160200160208202803683370190505b509250806001600160401b03811180156148a057600080fd5b506040519080825280602002602001820160405280156148ca578160200160208202803683370190505b509150835160001480156148dd57508451155b156149725760005b8181101561496c578a8a828181106148f957fe5b905060200201602081019061490e91906153fa565b84828151811061491a57fe5b60200260200101906001600160a01b031690816001600160a01b03168152505088888281811061494657fe5b9050602002013583828151811061495957fe5b60209081029190910101526001016148e5565b50614a78565b60005b81811015614a76578a8a8281811061498957fe5b905060200201602081019061499e91906153fa565b6001600160a01b03168682815181106149b357fe5b60200260200101516001600160a01b03161415614a6e5760008989838181106149d857fe5b9050602002013590508b8b838181106149ed57fe5b9050602002016020810190614a0291906153fa565b858381518110614a0e57fe5b60200260200101906001600160a01b031690816001600160a01b031681525050614a5481878481518110614a3e57fe5b6020026020010151614bab90919063ffffffff16565b848381518110614a6057fe5b602002602001018181525050505b600101614975565b505b5097509795505050505050565b6001600160a01b038416600090815260086020526040902083614acc578251614ab49082906020860190615087565b508151614aca90600483019060208501906150ec565b505b8360011415614b02578251614aea9060018301906020860190615087565b508151614b0090600583019060208501906150ec565b505b8360021415614b38578251614b209060028301906020860190615087565b508151614b3690600683019060208501906150ec565b505b8360031415614b6e578251614b569060038301906020860190615087565b508151614b6c90600783019060208501906150ec565b505b5050505050565b60608061255e83614f44565b600061255e836001600160a01b038416614f9e565b600061255e836001600160a01b038416614fb6565b60008282018381101561255e5760405162461bcd60e51b815260040161101990615c2c565b6060846001600160a01b031663a0e67e2b6040518163ffffffff1660e01b815260040160006040518083038186803b158015614c0b57600080fd5b505afa158015614c1f573d6000803e3d6000fd5b505050506040513d6000823e601f3d908101601f19168201604052614c479190810190615669565b90506060856001600160a01b031663309a042c6040518163ffffffff1660e01b815260040160006040518083038186803b158015614c8457600080fd5b505afa158015614c98573d6000803e3d6000fd5b505050506040513d6000823e601f3d908101601f19168201604052614cc091908101906157c3565b90506000866001600160a01b031663d29986c16040518163ffffffff1660e01b815260040160206040518083038186803b158015614cfd57600080fd5b505afa158015614d11573d6000803e3d6000fd5b505050506040513d601f19601f82011682018060405250810190614d359190615899565b905060005b8351811015614ec0576000614d6a858381518110614d5457fe5b60200260200101516001600160a01b0316614472565b614d8757848281518110614d7a57fe5b6020026020010151614e0b565b848281518110614d9357fe5b60200260200101516001600160a01b0316638da5cb5b6040518163ffffffff1660e01b815260040160206040518083038186803b158015614dd357600080fd5b505afa158015614de7573d6000803e3d6000fd5b505050506040513d601f19601f82011682018060405250810190614e0b9190615416565b9050866001600160a01b031663a9059cbb82614e4786611c5b898881518110614e3057fe5b60200260200101518c61431e90919063ffffffff16565b6040518363ffffffff1660e01b8152600401614e64929190615920565b602060405180830381600087803b158015614e7e57600080fd5b505af1158015614e92573d6000803e3d6000fd5b505050506040513d601f19601f82011682018060405250810190614eb69190615846565b5050600101614d3a565b5050505050505050565b6000610b6182615000565b600061255e8383615004565b60008184841115614f055760405162461bcd60e51b81526004016110199190615b55565b505050900390565b60008183614f2e5760405162461bcd60e51b81526004016110199190615b55565b506000838581614f3a57fe5b0495945050505050565b60608160000180548060200260200160405190810160405280929190818152602001828054801561123d57602002820191906000526020600020908154815260200190600101908083116112295750505050509050919050565b60009081526001919091016020526040902054151590565b6000614fc28383614f9e565b614ff857508154600181810184556000848152602080822090930184905584548482528286019093526040902091909155610b61565b506000610b61565b5490565b600082600001828154811061501557fe5b9060005260206000200154905092915050565b60405180610100016040528060608152602001606081526020016060815260200160608152602001606081526020016060815260200160608152602001606081525090565b604051806040016040528060008152602001606081525090565b8280548282559060005260206000209081019282156150dc579160200282015b828111156150dc57825182546001600160a01b0319166001600160a01b039091161782556020909201916001909101906150a7565b506150e8929150615234565b5090565b828054828255906000526020600020908101928215615127579160200282015b8281111561512757825182559160200191906001019061510c565b506150e8929150615253565b60405180602001604052806001905b61514a615160565b8152602001906001900390816151425790505090565b604051806060016040528060006001600160a01b0316815260200160008152602001600081525090565b604051806080016040528061519d615268565b81526020016151aa615268565b81526020016151b7615268565b81526020016151c4615268565b905290565b8280548282559060005260206000209081019282156150dc579160200282015b828111156150dc5781546001600160a01b0319166001600160a01b038435161782556020909201916001909101906151e9565b60408051808201909152600081526060602082015290565b5b808211156150e85780546001600160a01b0319168155600101615235565b5b808211156150e85760008155600101615254565b604051806080016040528061527b61529e565b815260200161528861529e565b815260200161529561529e565b81526020016151c45b604051806040016040528060008152602001600081525090565b60008083601f8401126152c9578182fd5b5081356001600160401b038111156152df578182fd5b60208301915083602080830285010111156152f957600080fd5b9250929050565b600082601f830112615310578081fd5b813561532361531e82615ed5565b615eaf565b81815291506020808301908481018184028601820187101561534457600080fd5b60005b84811015611c7557813584529282019290820190600101615347565b60006101008284031215615375578081fd5b61537f6080615eaf565b905061538b83836153c9565b815261539a83604084016153c9565b60208201526153ac83608084016153c9565b60408201526153be8360c084016153c9565b606082015292915050565b6000604082840312156153da578081fd5b6153e46040615eaf565b9050813581526020820135602082015292915050565b60006020828403121561540b578081fd5b813561255e81615ef4565b600060208284031215615427578081fd5b815161255e81615ef4565b60008060408385031215615444578081fd5b823561544f81615ef4565b9150602083013561545f81615ef4565b809150509250929050565b60008060008060008060808789031215615482578182fd5b863561548d81615ef4565b9550602087013561549d81615ef4565b945060408701356001600160401b03808211156154b8578384fd5b6154c48a838b016152b8565b909650945060608901359150808211156154dc578384fd5b506154e989828a016152b8565b979a9699509497509295939492505050565b60008060006060848603121561550f578283fd5b833561551a81615ef4565b9250602084013561552a81615ef4565b929592945050506040919091013590565b6000806040838503121561554d578182fd5b823561555881615ef4565b9150602083013561545f81615f09565b60008082840361042081121561557c578283fd5b833561558781615ef4565b9250610400601f198201121561559b578182fd5b506155a66080615eaf565b6155b38560208601615363565b81526155c3856101208601615363565b60208201526155d6856102208601615363565b60408201526155e9856103208601615363565b6060820152809150509250929050565b6000806040838503121561560b578182fd5b823561561681615ef4565b946020939093013593505050565b6000806000806000806080878903121561563c578384fd5b863561564781615ef4565b95506020870135945060408701356001600160401b03808211156154b8578586fd5b6000602080838503121561567b578182fd5b82516001600160401b03811115615690578283fd5b8301601f810185136156a0578283fd5b80516156ae61531e82615ed5565b81815283810190838501858402850186018910156156ca578687fd5b8694505b838510156156f55780516156e181615ef4565b8352600194909401939185019185016156ce565b50979650505050505050565b60008060408385031215615713578182fd5b82356001600160401b0380821115615729578384fd5b818501915085601f83011261573c578384fd5b813561574a61531e82615ed5565b80828252602080830192508086018a82838702890101111561576a578889fd5b8896505b8487101561579557803561578181615ef4565b84526001969096019592810192810161576e565b5090965087013593505050808211156157ac578283fd5b506157b985828601615300565b9150509250929050565b600060208083850312156157d5578182fd5b82516001600160401b038111156157ea578283fd5b8301601f810185136157fa578283fd5b805161580861531e82615ed5565b8181528381019083850185840285018601891015615824578687fd5b8694505b838510156156f5578051835260019490940193918501918501615828565b600060208284031215615857578081fd5b815161255e81615f09565b600060208284031215615873578081fd5b81516002811061255e578182fd5b600060208284031215615892578081fd5b5035919050565b6000602082840312156158aa578081fd5b5051919050565b6000602082840312156158c2578081fd5b815160ff8116811461255e578182fd5b6000815180845260208085019450808401835b83811015615901578151875295820195908201906001016158e5565b509495945050505050565b6001600160a01b0391909116815260200190565b6001600160a01b03929092168252602082015260400190565b6001600160a01b0392831681529116602082015260400190565b6001600160a01b039384168152919092166020820152604081019190915260600190565b6020808252825182820181905260009190848201906040850190845b818110156159b85783516001600160a01b031683529284019291840191600101615993565b50909695505050505050565b60208082528251828201819052600091906040908185019080840286018301878501865b83811015615a6957888303603f19018552815180518452870151878401879052805187850181905290880190606090818601908b5b81811015615a5357845180516001600160a01b031684528c8101518d8501528b01518b840152938b019391830191600101615a1d565b50509689019694505050908601906001016159e8565b509098975050505050505050565b606081810190828460005b6001811015615ac157815180516001600160a01b0316845260208082015181860152604091820151918501919091529284019290910190600101615a82565b5050505092915050565b60208082528251828201819052600091906040908185019080840286018301878501865b83811015615a6957888303603f19018552815180516001600160a01b03168452870151878401879052615b24878501826158d2565b9588019593505090860190600101615aef565b60006020825261255e60208301846158d2565b901515815260200190565b6000602080835283518082850152825b81811015615b8157858101830151858201604001528201615b65565b81811115615b925783604083870101525b50601f01601f1916929092016040019392505050565b60208082526012908201527122a9292fa727aa2fa1a7a72a2927a62622a960711b604082015260600190565b6020808252601390820152724552525f4e4f545f4352505f464143544f525960681b604082015260600190565b60208082526011908201527011549497d21054d7d393d7d49155d05491607a1b604082015260600190565b6020808252601b908201527a536166654d6174683a206164646974696f6e206f766572666c6f7760281b604082015260600190565b6020808252600c908201526b696e697469616c697a65642160a01b604082015260600190565b6020808252601a908201527908aa4a4bea89e968a9cbe988a9c8ea890be9c9ea8be9a82a886960331b604082015260600190565b6020808252600990820152684552525f545950455360b81b604082015260600190565b60208082526010908201526f20b2323932b9b99034b99027bbb732b960811b604082015260600190565b6020808252601790820152764552525f494e56414c49445f4b4f4c5f4144445245535360481b604082015260600190565b60208082526010908201526f4552525f5a45524f5f4144445245535360801b604082015260600190565b6020808252600990820152682737ba1027bbb732b960b91b604082015260600190565b60208082526006908201526506f776e6572560d41b604082015260600190565b6020808252601890820152774552525f494e56414c49445f504f4f4c5f4144445245535360401b604082015260600190565b60208082526021908201527f536166654d6174683a206d756c7469706c69636174696f6e206f766572666c6f6040820152607760f81b606082015260800190565b6020808252600d908201526c11549497d21054d7d4d1551151609a1b604082015260600190565b6020808252601990820152784552525f494e56414c49445f5641554c545f4144445245535360381b604082015260600190565b60208082526019908201527811549497d393d517d0d3d354131155115117d0d3d3131150d5603a1b604082015260600190565b90815260200190565b6040518181016001600160401b0381118282101715615ecd57600080fd5b604052919050565b60006001600160401b03821115615eea578081fd5b5060209081020190565b6001600160a01b0381168114612aa757600080fd5b8015158114612aa757600080fdfea26469706673582212203a067712a9df1fd1e97ad321b41ee34571c4da3b984dad1b655216b7192a89af64736f6c634300060c0033",
  "libraries": {},
  "devdoc": {
    "author": "Desyn Labs",
    "kind": "dev",
    "methods": {
      "getController()": {
        "details": "external for gas optimization",
        "returns": {
          "_0": "address - of the owner (AKA controller)"
        }
      },
      "removeOwner(address)": {
        "details": "Allows to remove an owner. Transaction has to be sent by wallet.",
        "params": {
          "owner": "Address of owner."
        }
      },
      "setAddAdminList(address,uint256)": {
        "details": "external for gas optimization",
        "params": {
          "newOwner": "- address of new owner"
        }
      },
      "setController(address)": {
        "details": "external for gas optimization",
        "params": {
          "newOwner": "- address of new owner"
        }
      }
    },
    "title": "Vault managerFee",
    "version": 1
  },
  "userdoc": {
    "kind": "user",
    "methods": {
      "getController()": {
        "notice": "Returns the address of the current owner"
      },
      "setAddAdminList(address,uint256)": {
        "notice": "Transfers ownership of the contract to a new account (`newOwner`).         Can only be called by the current owner"
      },
      "setController(address)": {
        "notice": "Transfers ownership of the contract to a new account (`newOwner`).         Can only be called by the current owner"
      }
    },
    "version": 1
  },
  "storageLayout": {
    "storage": [
      {
        "astId": 18307,
        "contract": "contracts/deploy/UserVault.sol:UserVault",
        "label": "_owner",
        "offset": 0,
        "slot": "0",
        "type": "t_address"
      },
      {
        "astId": 18311,
        "contract": "contracts/deploy/UserVault.sol:UserVault",
        "label": "adminList",
        "offset": 0,
        "slot": "1",
        "type": "t_mapping(t_address,t_bool)"
      },
      {
        "astId": 18314,
        "contract": "contracts/deploy/UserVault.sol:UserVault",
        "label": "owners",
        "offset": 0,
        "slot": "2",
        "type": "t_array(t_address)dyn_storage"
      },
      {
        "astId": 18317,
        "contract": "contracts/deploy/UserVault.sol:UserVault",
        "label": "ownerPercentage",
        "offset": 0,
        "slot": "3",
        "type": "t_array(t_uint256)dyn_storage"
      },
      {
        "astId": 18319,
        "contract": "contracts/deploy/UserVault.sol:UserVault",
        "label": "allOwnerPercentage",
        "offset": 0,
        "slot": "4",
        "type": "t_uint256"
      },
      {
        "astId": 18321,
        "contract": "contracts/deploy/UserVault.sol:UserVault",
        "label": "initialized",
        "offset": 0,
        "slot": "5",
        "type": "t_bool"
      },
      {
        "astId": 10042,
        "contract": "contracts/deploy/UserVault.sol:UserVault",
        "label": "crpFactory",
        "offset": 1,
        "slot": "5",
        "type": "t_contract(ICRPFactory)10028"
      },
      {
        "astId": 10044,
        "contract": "contracts/deploy/UserVault.sol:UserVault",
        "label": "vaultAddress",
        "offset": 0,
        "slot": "6",
        "type": "t_address"
      },
      {
        "astId": 10107,
        "contract": "contracts/deploy/UserVault.sol:UserVault",
        "label": "pool_manager",
        "offset": 0,
        "slot": "7",
        "type": "t_mapping(t_address,t_address)"
      },
      {
        "astId": 10111,
        "contract": "contracts/deploy/UserVault.sol:UserVault",
        "label": "poolsTokens",
        "offset": 0,
        "slot": "8",
        "type": "t_mapping(t_address,t_struct(PoolTokens)10088_storage)"
      },
      {
        "astId": 10115,
        "contract": "contracts/deploy/UserVault.sol:UserVault",
        "label": "poolsStatus",
        "offset": 0,
        "slot": "9",
        "type": "t_mapping(t_address,t_struct(PoolStatus)10097_storage)"
      },
      {
        "astId": 10119,
        "contract": "contracts/deploy/UserVault.sol:UserVault",
        "label": "record_number",
        "offset": 0,
        "slot": "10",
        "type": "t_mapping(t_address,t_uint256)"
      },
      {
        "astId": 10125,
        "contract": "contracts/deploy/UserVault.sol:UserVault",
        "label": "record_List",
        "offset": 0,
        "slot": "11",
        "type": "t_mapping(t_address,t_mapping(t_uint256,t_struct(ClaimRecordInfo)10063_storage))"
      },
      {
        "astId": 10130,
        "contract": "contracts/deploy/UserVault.sol:UserVault",
        "label": "kol_token_list",
        "offset": 0,
        "slot": "12",
        "type": "t_mapping(t_address,t_array(t_address)dyn_storage)"
      },
      {
        "astId": 10134,
        "contract": "contracts/deploy/UserVault.sol:UserVault",
        "label": "init_totalAmount_list",
        "offset": 0,
        "slot": "13",
        "type": "t_mapping(t_address,t_uint256)"
      },
      {
        "astId": 10140,
        "contract": "contracts/deploy/UserVault.sol:UserVault",
        "label": "manager_claimed_list",
        "offset": 0,
        "slot": "14",
        "type": "t_mapping(t_address,t_mapping(t_address,t_uint256))"
      },
      {
        "astId": 10144,
        "contract": "contracts/deploy/UserVault.sol:UserVault",
        "label": "pool_manangerHasClaimed",
        "offset": 0,
        "slot": "15",
        "type": "t_mapping(t_address,t_uint256)"
      },
      {
        "astId": 10148,
        "contract": "contracts/deploy/UserVault.sol:UserVault",
        "label": "kols_list",
        "offset": 0,
        "slot": "16",
        "type": "t_mapping(t_address,t_struct(AddressSet)9806_storage)"
      },
      {
        "astId": 10154,
        "contract": "contracts/deploy/UserVault.sol:UserVault",
        "label": "kol_claimed_list",
        "offset": 0,
        "slot": "17",
        "type": "t_mapping(t_address,t_mapping(t_address,t_uint256))"
      },
      {
        "astId": 10161,
        "contract": "contracts/deploy/UserVault.sol:UserVault",
        "label": "kol_totalAmount_list",
        "offset": 0,
        "slot": "18",
        "type": "t_mapping(t_address,t_mapping(t_address,t_array(t_uint256)dyn_storage))"
      },
      {
        "astId": 10168,
        "contract": "contracts/deploy/UserVault.sol:UserVault",
        "label": "kol_user_info",
        "offset": 0,
        "slot": "19",
        "type": "t_mapping(t_address,t_mapping(t_address,t_array(t_struct(KolUserInfo)10103_storage)dyn_storage))"
      },
      {
        "astId": 10174,
        "contract": "contracts/deploy/UserVault.sol:UserVault",
        "label": "user_index_list",
        "offset": 0,
        "slot": "20",
        "type": "t_mapping(t_address,t_mapping(t_address,t_uint256))"
      },
      {
        "astId": 10180,
        "contract": "contracts/deploy/UserVault.sol:UserVault",
        "label": "user_kol_list",
        "offset": 0,
        "slot": "21",
        "type": "t_mapping(t_address,t_mapping(t_address,t_address))"
      },
      {
        "astId": 10183,
        "contract": "contracts/deploy/UserVault.sol:UserVault",
        "label": "RATIO_TOTAL",
        "offset": 0,
        "slot": "22",
        "type": "t_uint256"
      }
    ],
    "types": {
      "t_address": {
        "encoding": "inplace",
        "label": "address",
        "numberOfBytes": "20"
      },
      "t_array(t_address)dyn_storage": {
        "base": "t_address",
        "encoding": "dynamic_array",
        "label": "address[]",
        "numberOfBytes": "32"
      },
      "t_array(t_bytes32)dyn_storage": {
        "base": "t_bytes32",
        "encoding": "dynamic_array",
        "label": "bytes32[]",
        "numberOfBytes": "32"
      },
      "t_array(t_struct(ClaimTokenInfo)10057_storage)dyn_storage": {
        "base": "t_struct(ClaimTokenInfo)10057_storage",
        "encoding": "dynamic_array",
        "label": "struct UserVault.ClaimTokenInfo[]",
        "numberOfBytes": "32"
      },
      "t_array(t_struct(KolUserInfo)10103_storage)dyn_storage": {
        "base": "t_struct(KolUserInfo)10103_storage",
        "encoding": "dynamic_array",
        "label": "struct UserVault.KolUserInfo[]",
        "numberOfBytes": "32"
      },
      "t_array(t_uint256)dyn_storage": {
        "base": "t_uint256",
        "encoding": "dynamic_array",
        "label": "uint256[]",
        "numberOfBytes": "32"
      },
      "t_bool": {
        "encoding": "inplace",
        "label": "bool",
        "numberOfBytes": "1"
      },
      "t_bytes32": {
        "encoding": "inplace",
        "label": "bytes32",
        "numberOfBytes": "32"
      },
      "t_contract(ICRPFactory)10028": {
        "encoding": "inplace",
        "label": "contract ICRPFactory",
        "numberOfBytes": "20"
      },
      "t_mapping(t_address,t_address)": {
        "encoding": "mapping",
        "key": "t_address",
        "label": "mapping(address => address)",
        "numberOfBytes": "32",
        "value": "t_address"
      },
      "t_mapping(t_address,t_array(t_address)dyn_storage)": {
        "encoding": "mapping",
        "key": "t_address",
        "label": "mapping(address => address[])",
        "numberOfBytes": "32",
        "value": "t_array(t_address)dyn_storage"
      },
      "t_mapping(t_address,t_array(t_struct(KolUserInfo)10103_storage)dyn_storage)": {
        "encoding": "mapping",
        "key": "t_address",
        "label": "mapping(address => struct UserVault.KolUserInfo[])",
        "numberOfBytes": "32",
        "value": "t_array(t_struct(KolUserInfo)10103_storage)dyn_storage"
      },
      "t_mapping(t_address,t_array(t_uint256)dyn_storage)": {
        "encoding": "mapping",
        "key": "t_address",
        "label": "mapping(address => uint256[])",
        "numberOfBytes": "32",
        "value": "t_array(t_uint256)dyn_storage"
      },
      "t_mapping(t_address,t_bool)": {
        "encoding": "mapping",
        "key": "t_address",
        "label": "mapping(address => bool)",
        "numberOfBytes": "32",
        "value": "t_bool"
      },
      "t_mapping(t_address,t_mapping(t_address,t_address))": {
        "encoding": "mapping",
        "key": "t_address",
        "label": "mapping(address => mapping(address => address))",
        "numberOfBytes": "32",
        "value": "t_mapping(t_address,t_address)"
      },
      "t_mapping(t_address,t_mapping(t_address,t_array(t_struct(KolUserInfo)10103_storage)dyn_storage))": {
        "encoding": "mapping",
        "key": "t_address",
        "label": "mapping(address => mapping(address => struct UserVault.KolUserInfo[]))",
        "numberOfBytes": "32",
        "value": "t_mapping(t_address,t_array(t_struct(KolUserInfo)10103_storage)dyn_storage)"
      },
      "t_mapping(t_address,t_mapping(t_address,t_array(t_uint256)dyn_storage))": {
        "encoding": "mapping",
        "key": "t_address",
        "label": "mapping(address => mapping(address => uint256[]))",
        "numberOfBytes": "32",
        "value": "t_mapping(t_address,t_array(t_uint256)dyn_storage)"
      },
      "t_mapping(t_address,t_mapping(t_address,t_uint256))": {
        "encoding": "mapping",
        "key": "t_address",
        "label": "mapping(address => mapping(address => uint256))",
        "numberOfBytes": "32",
        "value": "t_mapping(t_address,t_uint256)"
      },
      "t_mapping(t_address,t_mapping(t_uint256,t_struct(ClaimRecordInfo)10063_storage))": {
        "encoding": "mapping",
        "key": "t_address",
        "label": "mapping(address => mapping(uint256 => struct UserVault.ClaimRecordInfo))",
        "numberOfBytes": "32",
        "value": "t_mapping(t_uint256,t_struct(ClaimRecordInfo)10063_storage)"
      },
      "t_mapping(t_address,t_struct(AddressSet)9806_storage)": {
        "encoding": "mapping",
        "key": "t_address",
        "label": "mapping(address => struct EnumerableSet.AddressSet)",
        "numberOfBytes": "32",
        "value": "t_struct(AddressSet)9806_storage"
      },
      "t_mapping(t_address,t_struct(PoolStatus)10097_storage)": {
        "encoding": "mapping",
        "key": "t_address",
        "label": "mapping(address => struct UserVault.PoolStatus)",
        "numberOfBytes": "32",
        "value": "t_struct(PoolStatus)10097_storage"
      },
      "t_mapping(t_address,t_struct(PoolTokens)10088_storage)": {
        "encoding": "mapping",
        "key": "t_address",
        "label": "mapping(address => struct UserVault.PoolTokens)",
        "numberOfBytes": "32",
        "value": "t_struct(PoolTokens)10088_storage"
      },
      "t_mapping(t_address,t_uint256)": {
        "encoding": "mapping",
        "key": "t_address",
        "label": "mapping(address => uint256)",
        "numberOfBytes": "32",
        "value": "t_uint256"
      },
      "t_mapping(t_bytes32,t_uint256)": {
        "encoding": "mapping",
        "key": "t_bytes32",
        "label": "mapping(bytes32 => uint256)",
        "numberOfBytes": "32",
        "value": "t_uint256"
      },
      "t_mapping(t_uint256,t_struct(ClaimRecordInfo)10063_storage)": {
        "encoding": "mapping",
        "key": "t_uint256",
        "label": "mapping(uint256 => struct UserVault.ClaimRecordInfo)",
        "numberOfBytes": "32",
        "value": "t_struct(ClaimRecordInfo)10063_storage"
      },
      "t_struct(AddressSet)9806_storage": {
        "encoding": "inplace",
        "label": "struct EnumerableSet.AddressSet",
        "members": [
          {
            "astId": 9805,
            "contract": "contracts/deploy/UserVault.sol:UserVault",
            "label": "_inner",
            "offset": 0,
            "slot": "0",
            "type": "t_struct(Set)9619_storage"
          }
        ],
        "numberOfBytes": "64"
      },
      "t_struct(ClaimRecordInfo)10063_storage": {
        "encoding": "inplace",
        "label": "struct UserVault.ClaimRecordInfo",
        "members": [
          {
            "astId": 10059,
            "contract": "contracts/deploy/UserVault.sol:UserVault",
            "label": "time",
            "offset": 0,
            "slot": "0",
            "type": "t_uint256"
          },
          {
            "astId": 10062,
            "contract": "contracts/deploy/UserVault.sol:UserVault",
            "label": "tokens",
            "offset": 0,
            "slot": "1",
            "type": "t_array(t_struct(ClaimTokenInfo)10057_storage)dyn_storage"
          }
        ],
        "numberOfBytes": "64"
      },
      "t_struct(ClaimTokenInfo)10057_storage": {
        "encoding": "inplace",
        "label": "struct UserVault.ClaimTokenInfo",
        "members": [
          {
            "astId": 10052,
            "contract": "contracts/deploy/UserVault.sol:UserVault",
            "label": "token",
            "offset": 0,
            "slot": "0",
            "type": "t_address"
          },
          {
            "astId": 10054,
            "contract": "contracts/deploy/UserVault.sol:UserVault",
            "label": "decimals",
            "offset": 0,
            "slot": "1",
            "type": "t_uint256"
          },
          {
            "astId": 10056,
            "contract": "contracts/deploy/UserVault.sol:UserVault",
            "label": "amount",
            "offset": 0,
            "slot": "2",
            "type": "t_uint256"
          }
        ],
        "numberOfBytes": "96"
      },
      "t_struct(KolPoolParams)16816_storage": {
        "encoding": "inplace",
        "label": "struct SmartPoolManager.KolPoolParams",
        "members": [
          {
            "astId": 16809,
            "contract": "contracts/deploy/UserVault.sol:UserVault",
            "label": "managerFee",
            "offset": 0,
            "slot": "0",
            "type": "t_struct(feeParams)16807_storage"
          },
          {
            "astId": 16811,
            "contract": "contracts/deploy/UserVault.sol:UserVault",
            "label": "issueFee",
            "offset": 0,
            "slot": "8",
            "type": "t_struct(feeParams)16807_storage"
          },
          {
            "astId": 16813,
            "contract": "contracts/deploy/UserVault.sol:UserVault",
            "label": "redeemFee",
            "offset": 0,
            "slot": "16",
            "type": "t_struct(feeParams)16807_storage"
          },
          {
            "astId": 16815,
            "contract": "contracts/deploy/UserVault.sol:UserVault",
            "label": "perfermanceFee",
            "offset": 0,
            "slot": "24",
            "type": "t_struct(feeParams)16807_storage"
          }
        ],
        "numberOfBytes": "1024"
      },
      "t_struct(KolUserInfo)10103_storage": {
        "encoding": "inplace",
        "label": "struct UserVault.KolUserInfo",
        "members": [
          {
            "astId": 10099,
            "contract": "contracts/deploy/UserVault.sol:UserVault",
            "label": "userAdr",
            "offset": 0,
            "slot": "0",
            "type": "t_address"
          },
          {
            "astId": 10102,
            "contract": "contracts/deploy/UserVault.sol:UserVault",
            "label": "userAmount",
            "offset": 0,
            "slot": "1",
            "type": "t_array(t_uint256)dyn_storage"
          }
        ],
        "numberOfBytes": "64"
      },
      "t_struct(PoolStatus)10097_storage": {
        "encoding": "inplace",
        "label": "struct UserVault.PoolStatus",
        "members": [
          {
            "astId": 10090,
            "contract": "contracts/deploy/UserVault.sol:UserVault",
            "label": "couldManagerClaim",
            "offset": 0,
            "slot": "0",
            "type": "t_bool"
          },
          {
            "astId": 10092,
            "contract": "contracts/deploy/UserVault.sol:UserVault",
            "label": "isBlackList",
            "offset": 1,
            "slot": "0",
            "type": "t_bool"
          },
          {
            "astId": 10094,
            "contract": "contracts/deploy/UserVault.sol:UserVault",
            "label": "isSetParams",
            "offset": 2,
            "slot": "0",
            "type": "t_bool"
          },
          {
            "astId": 10096,
            "contract": "contracts/deploy/UserVault.sol:UserVault",
            "label": "kolPoolConfig",
            "offset": 0,
            "slot": "1",
            "type": "t_struct(KolPoolParams)16816_storage"
          }
        ],
        "numberOfBytes": "1056"
      },
      "t_struct(PoolTokens)10088_storage": {
        "encoding": "inplace",
        "label": "struct UserVault.PoolTokens",
        "members": [
          {
            "astId": 10066,
            "contract": "contracts/deploy/UserVault.sol:UserVault",
            "label": "tokenList",
            "offset": 0,
            "slot": "0",
            "type": "t_array(t_address)dyn_storage"
          },
          {
            "astId": 10069,
            "contract": "contracts/deploy/UserVault.sol:UserVault",
            "label": "issueTokens",
            "offset": 0,
            "slot": "1",
            "type": "t_array(t_address)dyn_storage"
          },
          {
            "astId": 10072,
            "contract": "contracts/deploy/UserVault.sol:UserVault",
            "label": "redeemTokens",
            "offset": 0,
            "slot": "2",
            "type": "t_array(t_address)dyn_storage"
          },
          {
            "astId": 10075,
            "contract": "contracts/deploy/UserVault.sol:UserVault",
            "label": "perfermanceTokens",
            "offset": 0,
            "slot": "3",
            "type": "t_array(t_address)dyn_storage"
          },
          {
            "astId": 10078,
            "contract": "contracts/deploy/UserVault.sol:UserVault",
            "label": "managerAmount",
            "offset": 0,
            "slot": "4",
            "type": "t_array(t_uint256)dyn_storage"
          },
          {
            "astId": 10081,
            "contract": "contracts/deploy/UserVault.sol:UserVault",
            "label": "issueAmount",
            "offset": 0,
            "slot": "5",
            "type": "t_array(t_uint256)dyn_storage"
          },
          {
            "astId": 10084,
            "contract": "contracts/deploy/UserVault.sol:UserVault",
            "label": "redeemAmount",
            "offset": 0,
            "slot": "6",
            "type": "t_array(t_uint256)dyn_storage"
          },
          {
            "astId": 10087,
            "contract": "contracts/deploy/UserVault.sol:UserVault",
            "label": "perfermanceAmount",
            "offset": 0,
            "slot": "7",
            "type": "t_array(t_uint256)dyn_storage"
          }
        ],
        "numberOfBytes": "256"
      },
      "t_struct(Set)9619_storage": {
        "encoding": "inplace",
        "label": "struct EnumerableSet.Set",
        "members": [
          {
            "astId": 9614,
            "contract": "contracts/deploy/UserVault.sol:UserVault",
            "label": "_values",
            "offset": 0,
            "slot": "0",
            "type": "t_array(t_bytes32)dyn_storage"
          },
          {
            "astId": 9618,
            "contract": "contracts/deploy/UserVault.sol:UserVault",
            "label": "_indexes",
            "offset": 0,
            "slot": "1",
            "type": "t_mapping(t_bytes32,t_uint256)"
          }
        ],
        "numberOfBytes": "64"
      },
      "t_struct(feeParams)16807_storage": {
        "encoding": "inplace",
        "label": "struct SmartPoolManager.feeParams",
        "members": [
          {
            "astId": 16800,
            "contract": "contracts/deploy/UserVault.sol:UserVault",
            "label": "firstLevel",
            "offset": 0,
            "slot": "0",
            "type": "t_struct(levelParams)16798_storage"
          },
          {
            "astId": 16802,
            "contract": "contracts/deploy/UserVault.sol:UserVault",
            "label": "secondLevel",
            "offset": 0,
            "slot": "2",
            "type": "t_struct(levelParams)16798_storage"
          },
          {
            "astId": 16804,
            "contract": "contracts/deploy/UserVault.sol:UserVault",
            "label": "thirdLevel",
            "offset": 0,
            "slot": "4",
            "type": "t_struct(levelParams)16798_storage"
          },
          {
            "astId": 16806,
            "contract": "contracts/deploy/UserVault.sol:UserVault",
            "label": "fourLevel",
            "offset": 0,
            "slot": "6",
            "type": "t_struct(levelParams)16798_storage"
          }
        ],
        "numberOfBytes": "256"
      },
      "t_struct(levelParams)16798_storage": {
        "encoding": "inplace",
        "label": "struct SmartPoolManager.levelParams",
        "members": [
          {
            "astId": 16795,
            "contract": "contracts/deploy/UserVault.sol:UserVault",
            "label": "level",
            "offset": 0,
            "slot": "0",
            "type": "t_uint256"
          },
          {
            "astId": 16797,
            "contract": "contracts/deploy/UserVault.sol:UserVault",
            "label": "ratio",
            "offset": 0,
            "slot": "1",
            "type": "t_uint256"
          }
        ],
        "numberOfBytes": "64"
      },
      "t_uint256": {
        "encoding": "inplace",
        "label": "uint256",
        "numberOfBytes": "32"
      }
    }
  }
}