{
  "address": "0x780A35D4a31dc9F5F610d6db47bA58D5b51749Df",
  "abi": [
    {
      "anonymous": false,
      "inputs": [
        {
          "indexed": true,
          "internalType": "address",
          "name": "caller",
          "type": "address"
        },
        {
          "indexed": true,
          "internalType": "address",
          "name": "kol",
          "type": "address"
        },
        {
          "indexed": false,
          "internalType": "address",
          "name": "token",
          "type": "address"
        },
        {
          "indexed": false,
          "internalType": "uint256",
          "name": "amount",
          "type": "uint256"
        },
        {
          "indexed": false,
          "internalType": "uint256",
          "name": "time",
          "type": "uint256"
        }
      ],
      "name": "KolClaim",
      "type": "event"
    },
    {
      "anonymous": true,
      "inputs": [
        {
          "indexed": true,
          "internalType": "bytes4",
          "name": "sig",
          "type": "bytes4"
        },
        {
          "indexed": true,
          "internalType": "address",
          "name": "caller",
          "type": "address"
        },
        {
          "indexed": false,
          "internalType": "bytes",
          "name": "data",
          "type": "bytes"
        }
      ],
      "name": "LOG_CALL",
      "type": "event"
    },
    {
      "anonymous": false,
      "inputs": [
        {
          "indexed": true,
          "internalType": "address",
          "name": "caller",
          "type": "address"
        },
        {
          "indexed": true,
          "internalType": "address",
          "name": "manager",
          "type": "address"
        },
        {
          "indexed": false,
          "internalType": "address",
          "name": "token",
          "type": "address"
        },
        {
          "indexed": false,
          "internalType": "uint256",
          "name": "amount",
          "type": "uint256"
        },
        {
          "indexed": false,
          "internalType": "uint256",
          "name": "time",
          "type": "uint256"
        }
      ],
      "name": "ManagerClaim",
      "type": "event"
    },
    {
      "anonymous": false,
      "inputs": [
        {
          "indexed": true,
          "internalType": "address",
          "name": "caller",
          "type": "address"
        },
        {
          "indexed": true,
          "internalType": "address",
          "name": "pool",
          "type": "address"
        },
        {
          "indexed": false,
          "internalType": "address",
          "name": "token",
          "type": "address"
        },
        {
          "indexed": false,
          "internalType": "uint256",
          "name": "amount",
          "type": "uint256"
        },
        {
          "indexed": false,
          "internalType": "uint256",
          "name": "time",
          "type": "uint256"
        }
      ],
      "name": "ManagersClaim",
      "type": "event"
    },
    {
      "anonymous": false,
      "inputs": [
        {
          "indexed": true,
          "internalType": "address",
          "name": "previousOwner",
          "type": "address"
        },
        {
          "indexed": true,
          "internalType": "address",
          "name": "newOwner",
          "type": "address"
        }
      ],
      "name": "OwnershipTransferred",
      "type": "event"
    },
    {
      "anonymous": false,
      "inputs": [
        {
          "indexed": true,
          "internalType": "address",
          "name": "pool",
          "type": "address"
        },
        {
          "indexed": false,
          "internalType": "uint256",
          "name": "types",
          "type": "uint256"
        },
        {
          "indexed": false,
          "internalType": "address",
          "name": "caller",
          "type": "address"
        },
        {
          "indexed": false,
          "internalType": "address",
          "name": "token",
          "type": "address"
        },
        {
          "indexed": false,
          "internalType": "uint256",
          "name": "balance",
          "type": "uint256"
        }
      ],
      "name": "TypeAmountIn",
      "type": "event"
    },
    {
      "inputs": [
        {
          "internalType": "address",
          "name": "token",
          "type": "address"
        },
        {
          "internalType": "address",
          "name": "user",
          "type": "address"
        },
        {
          "internalType": "uint256",
          "name": "amount",
          "type": "uint256"
        }
      ],
      "name": "adminClaim",
      "outputs": [],
      "stateMutability": "nonpayable",
      "type": "function"
    },
    {
      "inputs": [
        {
          "internalType": "address",
          "name": "pool",
          "type": "address"
        },
        {
          "internalType": "uint256",
          "name": "types",
          "type": "uint256"
        },
        {
          "internalType": "address[]",
          "name": "tokensIn",
          "type": "address[]"
        },
        {
          "internalType": "uint256[]",
          "name": "amountsIn",
          "type": "uint256[]"
        }
      ],
      "name": "depositToken",
      "outputs": [],
      "stateMutability": "nonpayable",
      "type": "function"
    },
    {
      "inputs": [],
      "name": "getBNB",
      "outputs": [],
      "stateMutability": "payable",
      "type": "function"
    },
    {
      "inputs": [
        {
          "internalType": "address",
          "name": "pool",
          "type": "address"
        },
        {
          "internalType": "address",
          "name": "kol",
          "type": "address"
        }
      ],
      "name": "getKolFeeType",
      "outputs": [
        {
          "components": [
            {
              "internalType": "address[]",
              "name": "tokenList",
              "type": "address[]"
            },
            {
              "internalType": "uint256[]",
              "name": "managerAmount",
              "type": "uint256[]"
            },
            {
              "internalType": "uint256[]",
              "name": "issueAmount",
              "type": "uint256[]"
            },
            {
              "internalType": "uint256[]",
              "name": "redeemAmount",
              "type": "uint256[]"
            },
            {
              "internalType": "uint256[]",
              "name": "perfermanceAmount",
              "type": "uint256[]"
            }
          ],
          "internalType": "struct UserVault.FeeTypesTokens",
          "name": "result",
          "type": "tuple"
        }
      ],
      "stateMutability": "view",
      "type": "function"
    },
    {
      "inputs": [
        {
          "internalType": "address",
          "name": "pool",
          "type": "address"
        },
        {
          "internalType": "address",
          "name": "kol",
          "type": "address"
        }
      ],
      "name": "getKolHasClaimed",
      "outputs": [
        {
          "components": [
            {
              "internalType": "address[]",
              "name": "tokens",
              "type": "address[]"
            },
            {
              "internalType": "uint256[]",
              "name": "amounts",
              "type": "uint256[]"
            }
          ],
          "internalType": "struct UserVault.ClaimTokens",
          "name": "",
          "type": "tuple"
        }
      ],
      "stateMutability": "view",
      "type": "function"
    },
    {
      "inputs": [
        {
          "internalType": "address",
          "name": "pool",
          "type": "address"
        },
        {
          "internalType": "address",
          "name": "kol",
          "type": "address"
        }
      ],
      "name": "getKolReward",
      "outputs": [
        {
          "internalType": "address[]",
          "name": "",
          "type": "address[]"
        },
        {
          "internalType": "uint256[]",
          "name": "",
          "type": "uint256[]"
        }
      ],
      "stateMutability": "view",
      "type": "function"
    },
    {
      "inputs": [
        {
          "internalType": "address",
          "name": "pool",
          "type": "address"
        },
        {
          "internalType": "address",
          "name": "kol",
          "type": "address"
        }
      ],
      "name": "getKolUserInfo",
      "outputs": [
        {
          "components": [
            {
              "internalType": "address",
              "name": "userAdr",
              "type": "address"
            },
            {
              "internalType": "uint256[]",
              "name": "userAmount",
              "type": "uint256[]"
            }
          ],
          "internalType": "struct UserVault.KolUserInfo[]",
          "name": "",
          "type": "tuple[]"
        }
      ],
      "stateMutability": "view",
      "type": "function"
    },
    {
      "inputs": [
        {
          "internalType": "address",
          "name": "pool",
          "type": "address"
        }
      ],
      "name": "getKolsAdr",
      "outputs": [
        {
          "internalType": "address[]",
          "name": "",
          "type": "address[]"
        }
      ],
      "stateMutability": "view",
      "type": "function"
    },
    {
      "inputs": [
        {
          "internalType": "address",
          "name": "pool",
          "type": "address"
        }
      ],
      "name": "getKolsReward",
      "outputs": [
        {
          "internalType": "address[]",
          "name": "",
          "type": "address[]"
        },
        {
          "internalType": "uint256[]",
          "name": "",
          "type": "uint256[]"
        }
      ],
      "stateMutability": "view",
      "type": "function"
    },
    {
      "inputs": [
        {
          "internalType": "address",
          "name": "pool",
          "type": "address"
        }
      ],
      "name": "getManageHasClaimed",
      "outputs": [
        {
          "components": [
            {
              "internalType": "address[]",
              "name": "tokens",
              "type": "address[]"
            },
            {
              "internalType": "uint256[]",
              "name": "amounts",
              "type": "uint256[]"
            }
          ],
          "internalType": "struct UserVault.ClaimTokens",
          "name": "",
          "type": "tuple"
        }
      ],
      "stateMutability": "view",
      "type": "function"
    },
    {
      "inputs": [
        {
          "internalType": "address",
          "name": "pool",
          "type": "address"
        }
      ],
      "name": "getManagerFeeTypes",
      "outputs": [
        {
          "components": [
            {
              "internalType": "address[]",
              "name": "tokenList",
              "type": "address[]"
            },
            {
              "internalType": "uint256[]",
              "name": "managerAmount",
              "type": "uint256[]"
            },
            {
              "internalType": "uint256[]",
              "name": "issueAmount",
              "type": "uint256[]"
            },
            {
              "internalType": "uint256[]",
              "name": "redeemAmount",
              "type": "uint256[]"
            },
            {
              "internalType": "uint256[]",
              "name": "perfermanceAmount",
              "type": "uint256[]"
            }
          ],
          "internalType": "struct UserVault.FeeTypesTokens",
          "name": "result",
          "type": "tuple"
        }
      ],
      "stateMutability": "view",
      "type": "function"
    },
    {
      "inputs": [
        {
          "internalType": "address",
          "name": "pool",
          "type": "address"
        }
      ],
      "name": "getManagerReward",
      "outputs": [
        {
          "internalType": "address[]",
          "name": "",
          "type": "address[]"
        },
        {
          "internalType": "uint256[]",
          "name": "",
          "type": "uint256[]"
        }
      ],
      "stateMutability": "view",
      "type": "function"
    },
    {
      "inputs": [
        {
          "internalType": "address",
          "name": "pool",
          "type": "address"
        }
      ],
      "name": "getPoolFeeTypes",
      "outputs": [
        {
          "components": [
            {
              "internalType": "address[]",
              "name": "tokenList",
              "type": "address[]"
            },
            {
              "internalType": "uint256[]",
              "name": "managerAmount",
              "type": "uint256[]"
            },
            {
              "internalType": "uint256[]",
              "name": "issueAmount",
              "type": "uint256[]"
            },
            {
              "internalType": "uint256[]",
              "name": "redeemAmount",
              "type": "uint256[]"
            },
            {
              "internalType": "uint256[]",
              "name": "perfermanceAmount",
              "type": "uint256[]"
            }
          ],
          "internalType": "struct UserVault.FeeTypesTokens",
          "name": "result",
          "type": "tuple"
        }
      ],
      "stateMutability": "view",
      "type": "function"
    },
    {
      "inputs": [
        {
          "internalType": "address",
          "name": "pool",
          "type": "address"
        }
      ],
      "name": "getPoolReward",
      "outputs": [
        {
          "internalType": "address[]",
          "name": "tokenList",
          "type": "address[]"
        },
        {
          "internalType": "uint256[]",
          "name": "balances",
          "type": "uint256[]"
        }
      ],
      "stateMutability": "view",
      "type": "function"
    },
    {
      "inputs": [
        {
          "internalType": "address",
          "name": "pool",
          "type": "address"
        },
        {
          "internalType": "address",
          "name": "kol",
          "type": "address"
        }
      ],
      "name": "getUnKolReward",
      "outputs": [
        {
          "internalType": "address[]",
          "name": "",
          "type": "address[]"
        },
        {
          "internalType": "uint256[]",
          "name": "",
          "type": "uint256[]"
        }
      ],
      "stateMutability": "nonpayable",
      "type": "function"
    },
    {
      "inputs": [
        {
          "internalType": "address",
          "name": "pool",
          "type": "address"
        }
      ],
      "name": "getUnManagerReward",
      "outputs": [
        {
          "internalType": "address[]",
          "name": "",
          "type": "address[]"
        },
        {
          "internalType": "uint256[]",
          "name": "",
          "type": "uint256[]"
        }
      ],
      "stateMutability": "nonpayable",
      "type": "function"
    },
    {
      "inputs": [
        {
          "internalType": "address",
          "name": "pool",
          "type": "address"
        }
      ],
      "name": "kolClaim",
      "outputs": [],
      "stateMutability": "nonpayable",
      "type": "function"
    },
    {
      "inputs": [
        {
          "internalType": "address",
          "name": "",
          "type": "address"
        },
        {
          "internalType": "address",
          "name": "",
          "type": "address"
        },
        {
          "internalType": "uint256",
          "name": "",
          "type": "uint256"
        }
      ],
      "name": "kolTotalAmountList",
      "outputs": [
        {
          "internalType": "uint256",
          "name": "",
          "type": "uint256"
        }
      ],
      "stateMutability": "view",
      "type": "function"
    },
    {
      "inputs": [
        {
          "internalType": "address",
          "name": "pool",
          "type": "address"
        }
      ],
      "name": "managerClaim",
      "outputs": [],
      "stateMutability": "nonpayable",
      "type": "function"
    },
    {
      "inputs": [],
      "name": "owner",
      "outputs": [
        {
          "internalType": "address",
          "name": "",
          "type": "address"
        }
      ],
      "stateMutability": "view",
      "type": "function"
    },
    {
      "inputs": [
        {
          "internalType": "address",
          "name": "kol",
          "type": "address"
        },
        {
          "internalType": "address",
          "name": "user",
          "type": "address"
        },
        {
          "internalType": "address[]",
          "name": "poolTokens",
          "type": "address[]"
        },
        {
          "internalType": "uint256[]",
          "name": "tokensAmount",
          "type": "uint256[]"
        }
      ],
      "name": "recordTokenInfo",
      "outputs": [],
      "stateMutability": "nonpayable",
      "type": "function"
    },
    {
      "inputs": [],
      "name": "renounceOwnership",
      "outputs": [],
      "stateMutability": "nonpayable",
      "type": "function"
    },
    {
      "inputs": [
        {
          "internalType": "address",
          "name": "pool",
          "type": "address"
        },
        {
          "internalType": "bool",
          "name": "bools",
          "type": "bool"
        }
      ],
      "name": "setBlackList",
      "outputs": [],
      "stateMutability": "nonpayable",
      "type": "function"
    },
    {
      "inputs": [
        {
          "internalType": "address",
          "name": "adr",
          "type": "address"
        }
      ],
      "name": "setCrpFactory",
      "outputs": [],
      "stateMutability": "nonpayable",
      "type": "function"
    },
    {
      "inputs": [
        {
          "internalType": "address",
          "name": "pool",
          "type": "address"
        },
        {
          "components": [
            {
              "components": [
                {
                  "components": [
                    {
                      "internalType": "uint256",
                      "name": "level",
                      "type": "uint256"
                    },
                    {
                      "internalType": "uint256",
                      "name": "ratio",
                      "type": "uint256"
                    }
                  ],
                  "internalType": "struct SmartPoolManager.levelParams",
                  "name": "firstLevel",
                  "type": "tuple"
                },
                {
                  "components": [
                    {
                      "internalType": "uint256",
                      "name": "level",
                      "type": "uint256"
                    },
                    {
                      "internalType": "uint256",
                      "name": "ratio",
                      "type": "uint256"
                    }
                  ],
                  "internalType": "struct SmartPoolManager.levelParams",
                  "name": "secondLevel",
                  "type": "tuple"
                },
                {
                  "components": [
                    {
                      "internalType": "uint256",
                      "name": "level",
                      "type": "uint256"
                    },
                    {
                      "internalType": "uint256",
                      "name": "ratio",
                      "type": "uint256"
                    }
                  ],
                  "internalType": "struct SmartPoolManager.levelParams",
                  "name": "thirdLevel",
                  "type": "tuple"
                },
                {
                  "components": [
                    {
                      "internalType": "uint256",
                      "name": "level",
                      "type": "uint256"
                    },
                    {
                      "internalType": "uint256",
                      "name": "ratio",
                      "type": "uint256"
                    }
                  ],
                  "internalType": "struct SmartPoolManager.levelParams",
                  "name": "fourLevel",
                  "type": "tuple"
                }
              ],
              "internalType": "struct SmartPoolManager.feeParams",
              "name": "managerFee",
              "type": "tuple"
            },
            {
              "components": [
                {
                  "components": [
                    {
                      "internalType": "uint256",
                      "name": "level",
                      "type": "uint256"
                    },
                    {
                      "internalType": "uint256",
                      "name": "ratio",
                      "type": "uint256"
                    }
                  ],
                  "internalType": "struct SmartPoolManager.levelParams",
                  "name": "firstLevel",
                  "type": "tuple"
                },
                {
                  "components": [
                    {
                      "internalType": "uint256",
                      "name": "level",
                      "type": "uint256"
                    },
                    {
                      "internalType": "uint256",
                      "name": "ratio",
                      "type": "uint256"
                    }
                  ],
                  "internalType": "struct SmartPoolManager.levelParams",
                  "name": "secondLevel",
                  "type": "tuple"
                },
                {
                  "components": [
                    {
                      "internalType": "uint256",
                      "name": "level",
                      "type": "uint256"
                    },
                    {
                      "internalType": "uint256",
                      "name": "ratio",
                      "type": "uint256"
                    }
                  ],
                  "internalType": "struct SmartPoolManager.levelParams",
                  "name": "thirdLevel",
                  "type": "tuple"
                },
                {
                  "components": [
                    {
                      "internalType": "uint256",
                      "name": "level",
                      "type": "uint256"
                    },
                    {
                      "internalType": "uint256",
                      "name": "ratio",
                      "type": "uint256"
                    }
                  ],
                  "internalType": "struct SmartPoolManager.levelParams",
                  "name": "fourLevel",
                  "type": "tuple"
                }
              ],
              "internalType": "struct SmartPoolManager.feeParams",
              "name": "issueFee",
              "type": "tuple"
            },
            {
              "components": [
                {
                  "components": [
                    {
                      "internalType": "uint256",
                      "name": "level",
                      "type": "uint256"
                    },
                    {
                      "internalType": "uint256",
                      "name": "ratio",
                      "type": "uint256"
                    }
                  ],
                  "internalType": "struct SmartPoolManager.levelParams",
                  "name": "firstLevel",
                  "type": "tuple"
                },
                {
                  "components": [
                    {
                      "internalType": "uint256",
                      "name": "level",
                      "type": "uint256"
                    },
                    {
                      "internalType": "uint256",
                      "name": "ratio",
                      "type": "uint256"
                    }
                  ],
                  "internalType": "struct SmartPoolManager.levelParams",
                  "name": "secondLevel",
                  "type": "tuple"
                },
                {
                  "components": [
                    {
                      "internalType": "uint256",
                      "name": "level",
                      "type": "uint256"
                    },
                    {
                      "internalType": "uint256",
                      "name": "ratio",
                      "type": "uint256"
                    }
                  ],
                  "internalType": "struct SmartPoolManager.levelParams",
                  "name": "thirdLevel",
                  "type": "tuple"
                },
                {
                  "components": [
                    {
                      "internalType": "uint256",
                      "name": "level",
                      "type": "uint256"
                    },
                    {
                      "internalType": "uint256",
                      "name": "ratio",
                      "type": "uint256"
                    }
                  ],
                  "internalType": "struct SmartPoolManager.levelParams",
                  "name": "fourLevel",
                  "type": "tuple"
                }
              ],
              "internalType": "struct SmartPoolManager.feeParams",
              "name": "redeemFee",
              "type": "tuple"
            },
            {
              "components": [
                {
                  "components": [
                    {
                      "internalType": "uint256",
                      "name": "level",
                      "type": "uint256"
                    },
                    {
                      "internalType": "uint256",
                      "name": "ratio",
                      "type": "uint256"
                    }
                  ],
                  "internalType": "struct SmartPoolManager.levelParams",
                  "name": "firstLevel",
                  "type": "tuple"
                },
                {
                  "components": [
                    {
                      "internalType": "uint256",
                      "name": "level",
                      "type": "uint256"
                    },
                    {
                      "internalType": "uint256",
                      "name": "ratio",
                      "type": "uint256"
                    }
                  ],
                  "internalType": "struct SmartPoolManager.levelParams",
                  "name": "secondLevel",
                  "type": "tuple"
                },
                {
                  "components": [
                    {
                      "internalType": "uint256",
                      "name": "level",
                      "type": "uint256"
                    },
                    {
                      "internalType": "uint256",
                      "name": "ratio",
                      "type": "uint256"
                    }
                  ],
                  "internalType": "struct SmartPoolManager.levelParams",
                  "name": "thirdLevel",
                  "type": "tuple"
                },
                {
                  "components": [
                    {
                      "internalType": "uint256",
                      "name": "level",
                      "type": "uint256"
                    },
                    {
                      "internalType": "uint256",
                      "name": "ratio",
                      "type": "uint256"
                    }
                  ],
                  "internalType": "struct SmartPoolManager.levelParams",
                  "name": "fourLevel",
                  "type": "tuple"
                }
              ],
              "internalType": "struct SmartPoolManager.feeParams",
              "name": "perfermanceFee",
              "type": "tuple"
            }
          ],
          "internalType": "struct SmartPoolManager.KolPoolParams",
          "name": "_poolParams",
          "type": "tuple"
        }
      ],
      "name": "setPoolParams",
      "outputs": [],
      "stateMutability": "nonpayable",
      "type": "function"
    },
    {
      "inputs": [
        {
          "internalType": "address",
          "name": "adr",
          "type": "address"
        }
      ],
      "name": "setVaultAdr",
      "outputs": [],
      "stateMutability": "nonpayable",
      "type": "function"
    },
    {
      "inputs": [
        {
          "internalType": "address",
          "name": "newOwner",
          "type": "address"
        }
      ],
      "name": "transferOwnership",
      "outputs": [],
      "stateMutability": "nonpayable",
      "type": "function"
    },
    {
      "inputs": [
        {
          "internalType": "address",
          "name": "",
          "type": "address"
        },
        {
          "internalType": "address",
          "name": "",
          "type": "address"
        }
      ],
      "name": "userKolList",
      "outputs": [
        {
          "internalType": "address",
          "name": "",
          "type": "address"
        }
      ],
      "stateMutability": "view",
      "type": "function"
    },
    {
      "stateMutability": "payable",
      "type": "receive"
    }
  ],
  "transactionHash": "0x670676b678e5b5bc1f505200362681560db859978ef30b2160b11145cfedf1c8",
  "args": [],
  "numDeployments": 1,
  "solcInputHash": "5d54d21ba156fcd13fa09c358c75c0de",
  "bytecode": "0x60806040526064600d553480156200001657600080fd5b5060006200002362000073565b600080546001600160a01b0319166001600160a01b0383169081178255604051929350917f8be0079c531659141344cd1fd0a4f28419497f9722a3daafe3b4186f6b6457e0908290a35062000077565b3390565b61597480620000876000396000f3fe60806040526004361061014b5760003560e01c80631437ac1314610157578063245cd1db1461018e5780634660c5a5146101ae5780635740845d146101d0578063598797ad146101fd57806368092bd91461021d5780636fd4ba9c1461023d578063715018a61461025d5780637234100a1461027257806378a619de146102925780638da5cb5b1461029a5780639155dae7146102bc5780639b1061b2146102dc5780639f1da16014610309578063a536ebf314610336578063aa93ae4914610356578063b8baccb814610376578063bb408f2d14610396578063bf91b4c9146103b6578063c0663cc9146103d6578063c1e57622146103f6578063c90361dd14610416578063c969229c14610443578063d6b485a514610463578063d7256c7014610483578063ebee7bcc146104a3578063edb12adf146104d0578063f2fde38b146104f057610152565b3661015257005b600080fd5b34801561016357600080fd5b50610177610172366004614de4565b610510565b60405161018592919061533e565b60405180910390f35b34801561019a57600080fd5b506101776101a9366004614e1c565b6106ef565b3480156101ba57600080fd5b506101ce6101c9366004614f52565b610d58565b005b3480156101dc57600080fd5b506101f06101eb366004614e1c565b610fa5565b60405161018591906157ef565b34801561020957600080fd5b506101f0610218366004614de4565b6113d6565b34801561022957600080fd5b506101ce610238366004614f25565b6115ba565b34801561024957600080fd5b50610177610258366004614de4565b611664565b34801561026957600080fd5b506101ce61180d565b34801561027e57600080fd5b5061017761028d366004614de4565b611896565b6101ce611a49565b3480156102a657600080fd5b506102af611ab7565b60405161018591906152c3565b3480156102c857600080fd5b506101ce6102d7366004614fe3565b611ac6565b3480156102e857600080fd5b506102fc6102f7366004614e1c565b611ba9565b604051610185919061536c565b34801561031557600080fd5b50610329610324366004614e1c565b611c8f565b60405161018591906157b6565b34801561034257600080fd5b50610177610351366004614de4565b611d7e565b34801561036257600080fd5b506101f0610371366004614de4565b612048565b34801561038257600080fd5b506101ce610391366004614ee5565b612268565b3480156103a257600080fd5b506102af6103b1366004614e1c565b6122c0565b3480156103c257600080fd5b506103296103d1366004614de4565b6122e6565b3480156103e257600080fd5b506101776103f1366004614e1c565b6123c8565b34801561040257600080fd5b506101ce610411366004614de4565b61257b565b34801561042257600080fd5b50610436610431366004614de4565b612616565b604051610185919061532b565b34801561044f57600080fd5b506101ce61045e366004614de4565b61263a565b34801561046f57600080fd5b506101ce61047e366004614de4565b612a1e565b34801561048f57600080fd5b506101ce61049e366004614e54565b612ab9565b3480156104af57600080fd5b506104c36104be366004614ee5565b612fda565b6040516101859190615881565b3480156104dc57600080fd5b506101ce6104eb366004614de4565b613015565b3480156104fc57600080fd5b506101ce61050b366004614de4565b613374565b6001600160a01b038116600090815260076020526040812060609182919061053782613434565b6001600160a01b038616600090815260046020908152604091829020805483518184028101840190945280845293945060609390918301828280156105a557602002820191906000526020600020905b81546001600160a01b03168152600190910190602001808311610587575b50505050509050606081516001600160401b03811180156105c557600080fd5b506040519080825280602002602001820160405280156105ef578160200160208202803683370190505b50905060005b838110156106e25760603063245cd1db8a610610898661343f565b6040518363ffffffff1660e01b815260040161062d9291906152d7565b60006040518083038186803b15801561064557600080fd5b505afa158015610659573d6000803e3d6000fd5b505050506040513d6000823e601f3d908101601f19168201604052610681919081019061505a565b91505060005b81518110156106d85781818151811061069c57fe5b60200260200101518482815181106106b057fe5b6020026020010151018482815181106106c557fe5b6020908102919091010152600101610687565b50506001016105f5565b5090945092505050915091565b6001600160a01b0380831660009081526008602090815260408083209385168352929052908120546060918291610727576000610765565b6001600160a01b0380861660009081526008602090815260408083209388168352929052908120805490919061075957fe5b90600052602060002001545b9050600081116107905760405162461bcd60e51b815260040161078790615750565b60405180910390fd5b610798614a63565b506001600160a01b0385166000908152600560208181526040928390208351610140810185526001820154610100820190815260028301546101208301526080808301918252865180880188526003850154815260048501548187015260a0808501919091528751808901895296850154875260068501548787015260c080850197909752875180890189526007860154815260088601548188015260e0850152918352865180870188526009850154818301908152600a86015482850152815287518089018952600b8601548152600c860154818801528187015287518089018952600d8601548152600e860154818801528189015287518089018952600f86015481526010860154818801526060828101919091528487019190915287518088018952601186015481840190815260128701548286015281528851808a018a5260138701548152601487015481890152818801528851808a018a5260158701548152601687015481890152818a01528851808a018a52601787015481526018870154818901528183015284890152875196870188526019850154918701918252601a85015492870192909252855285518087018752601b8401548152601c840154818601528585015285518087018752601d8401548152601e84015481860152858701528551808701909652601f8301548652918301549285019290925282810193909352918201526109ab614aa2565b6001600160a01b0387166000908152600460209081526040918290208251815460c09381028201840190945260a081018481529093919284928491840182828015610a1f57602002820191906000526020600020905b81546001600160a01b03168152600190910190602001808311610a01575b5050505050815260200160028201805480602002602001604051908101604052809291908181526020018280548015610a7757602002820191906000526020600020905b815481526020019060010190808311610a63575b5050505050815260200160038201805480602002602001604051908101604052809291908181526020018280548015610acf57602002820191906000526020600020905b815481526020019060010190808311610abb575b5050505050815260200160048201805480602002602001604051908101604052809291908181526020018280548015610b2757602002820191906000526020600020905b815481526020019060010190808311610b13575b5050505050815260200160058201805480602002602001604051908101604052809291908181526020018280548015610b7f57602002820191906000526020600020905b815481526020019060010190808311610b6b575b505050505081525050905060608160000151516001600160401b0381118015610ba757600080fd5b50604051908082528060200260200182016040528015610bd1578160200160208202803683370190505b506001600160a01b03808a1660009081526006602090815260408083205460088352818420948d168452939091528120805493945091929091908290610c1357fe5b9060005260206000200154905060005b845151811015610d45576000610c72600d54610c6c610c468b8b60000151613452565b89602001518681518110610c5657fe5b60200260200101516134f990919063ffffffff16565b90613533565b90506000610c9d600d54610c6c610c8d8c8c60200151613452565b8a604001518781518110610c5657fe5b90506000610cc8600d54610c6c610cb88d8d60400151613452565b8b606001518881518110610c5657fe5b90506000610cf3600d54610c6c610ce38e8e60600151613452565b8c608001518981518110610c5657fe5b90506000610d0d82610d0785818989613572565b90613572565b9050610d1d88610c6c838a6134f9565b898781518110610d2957fe5b6020908102919091010152505060019093019250610c23915050565b50509151955093505050505b9250929050565b6001546001600160a01b03163314610d825760405162461bcd60e51b815260040161078790615499565b6001600160a01b03808316600090815260056020526040908190206001549151636e0cf42160e11b81529092919091169063dc19e84290610dc79086906004016152c3565b60206040518083038186803b158015610ddf57600080fd5b505afa158015610df3573d6000803e3d6000fd5b505050506040513d601f19601f82011682018060405250810190610e1791906150ec565b610e335760405162461bcd60e51b8152600401610787906155db565b805462010000900460ff1615610e5b5760405162461bcd60e51b815260040161078790615683565b805462ff0000191662010000178155815180518051600184015560209081015160028401558082015180516003850155810151600484015560408083015180516005860155820151600685015560609283015180516007860155820151600885015581850151805180516009870155830151600a860155808301518051600b870155830151600c860155808201518051600d870155830151600e8601558301518051600f8601558201516010850155808501518051805160118701558301516012860155808301518051601387015583015160148601558082015180516015870155830151601686015583015180516017860155820151601885015593820151805180516019860155820151601a850155808201518051601b860155820151601c850155938401518051601d850155810151601e8401559201518051601f83015582015191015550565b610fad614aa2565b610fb5614aa2565b6001600160a01b0384166000908152600460209081526040918290208251815460c09381028201840190945260a08101848152909391928492849184018282801561102957602002820191906000526020600020905b81546001600160a01b0316815260019091019060200180831161100b575b505050505081526020016002820180548060200260200160405190810160405280929190818152602001828054801561108157602002820191906000526020600020905b81548152602001906001019080831161106d575b50505050508152602001600382018054806020026020016040519081016040528092919081815260200182805480156110d957602002820191906000526020600020905b8154815260200190600101908083116110c5575b505050505081526020016004820180548060200260200160405190810160405280929190818152602001828054801561113157602002820191906000526020600020905b81548152602001906001019080831161111d575b505050505081526020016005820180548060200260200160405190810160405280929190818152602001828054801561118957602002820191906000526020600020905b815481526020019060010190808311611175575b5050509190925250508151845250805151909150806001600160401b03811180156111b357600080fd5b506040519080825280602002602001820160405280156111dd578160200160208202803683370190505b506020840152806001600160401b03811180156111f957600080fd5b50604051908082528060200260200182016040528015611223578160200160208202803683370190505b506040840152806001600160401b038111801561123f57600080fd5b50604051908082528060200260200182016040528015611269578160200160208202803683370190505b506060840152806001600160401b038111801561128557600080fd5b506040519080825280602002602001820160405280156112af578160200160208202803683370190505b50608084015260005b818110156113cd576112f66112d08787600085613597565b856020015183815181106112e057fe5b602002602001015161357290919063ffffffff16565b8460200151828151811061130657fe5b6020026020010181815250506113326113228787600185613597565b856040015183815181106112e057fe5b8460400151828151811061134257fe5b60200260200101818152505061136e61135e8787600285613597565b856060015183815181106112e057fe5b8460600151828151811061137e57fe5b6020026020010181815250506113aa61139a8787600385613597565b856080015183815181106112e057fe5b846080015182815181106113ba57fe5b60209081029190910101526001016112b8565b50505092915050565b6113de614aa2565b60405163aa93ae4960e01b8152309063aa93ae49906114019085906004016152c3565b60006040518083038186803b15801561141957600080fd5b505afa15801561142d573d6000803e3d6000fd5b505050506040513d6000823e601f3d908101601f191682016040526114559190810190615127565b905061145f614aa2565b61146883613b7b565b82515190915060005b818110156115b2576114ba8360200151828151811061148c57fe5b6020026020010151856020015183815181106114a457fe5b602002602001015161402f90919063ffffffff16565b846020015182815181106114ca57fe5b602002602001018181525050611501836040015182815181106114e957fe5b6020026020010151856040015183815181106114a457fe5b8460400151828151811061151157fe5b6020026020010181815250506115488360600151828151811061153057fe5b6020026020010151856060015183815181106114a457fe5b8460600151828151811061155857fe5b60200260200101818152505061158f8360800151828151811061157757fe5b6020026020010151856080015183815181106114a457fe5b8460800151828151811061159f57fe5b6020908102919091010152600101611471565b505050919050565b6115c2614071565b6001600160a01b03166115d3611ab7565b6001600160a01b0316146115f95760405162461bcd60e51b81526004016107879061564e565b336001600160a01b03166000356001600160e01b0319166001600160e01b03191660003660405161162b9291906153e6565b60405180910390a26001600160a01b03909116600090815260056020526040902080549115156101000261ff0019909216919091179055565b606080606080306001600160a01b0316637234100a866040518263ffffffff1660e01b815260040161169691906152c3565b60006040518083038186803b1580156116ae57600080fd5b505afa1580156116c2573d6000803e3d6000fd5b505050506040513d6000823e601f3d908101601f191682016040526116ea919081019061505a565b6001600160a01b0387166000908152600c602090815260409091208351939550919350909161171e91839190860190614ad1565b506001810154835180821461175b5781810360005b8181101561175857600180860180548083018255600091825260208220015501611733565b50505b84516060816001600160401b038111801561177557600080fd5b5060405190808252806020026020018201604052801561179f578160200160208202803683370190505b50905060005b87518110156117fc578560010181815481106117bd57fe5b90600052602060002001548782815181106117d457fe5b6020026020010151038282815181106117e957fe5b60209081029190910101526001016117a5565b509597509495505050505050915091565b611815614071565b6001600160a01b0316611826611ab7565b6001600160a01b03161461184c5760405162461bcd60e51b81526004016107879061564e565b600080546040516001600160a01b03909116907f8be0079c531659141344cd1fd0a4f28419497f9722a3daafe3b4186f6b6457e0908390a3600080546001600160a01b0319169055565b606080606080306001600160a01b031663a536ebf3866040518263ffffffff1660e01b81526004016118c891906152c3565b60006040518083038186803b1580156118e057600080fd5b505afa1580156118f4573d6000803e3d6000fd5b505050506040513d6000823e601f3d908101601f1916820160405261191c919081019061505a565b604051631437ac1360e01b815291935091506060903090631437ac13906119479089906004016152c3565b60006040518083038186803b15801561195f57600080fd5b505afa158015611973573d6000803e3d6000fd5b505050506040513d6000823e601f3d908101601f1916820160405261199b919081019061505a565b845190925090506060816001600160401b03811180156119ba57600080fd5b506040519080825280602002602001820160405280156119e4578160200160208202803683370190505b50905060005b82811015611a3a578381815181106119fe57fe5b6020026020010151858281518110611a1257fe5b602002602001015103828281518110611a2757fe5b60209081029190910101526001016119ea565b50939550929350505050915091565b611a51614071565b6001600160a01b0316611a62611ab7565b6001600160a01b031614611a885760405162461bcd60e51b81526004016107879061564e565b60405133904780156108fc02916000818181858888f19350505050158015611ab4573d6000803e3d6000fd5b50565b6000546001600160a01b031690565b6002546001600160a01b03163314611af05760405162461bcd60e51b81526004016107879061546d565b828114611b0f5760405162461bcd60e51b815260040161078790615541565b611b7e868686868080602002602001604051908101604052809392919081815260200183836020028082843760009201919091525050604080516020808a0282810182019093528982529093508992508891829185019084908082843760009201919091525061407592505050565b5050506001600160a01b039092166000908152600560205260409020805460ff191660011790555050565b6001600160a01b0380831660009081526003602090815260408083209385168352928152828220805484518184028101840190955280855260609493919290919084015b82821015611c825760008481526020908190206040805180820182526002860290920180546001600160a01b03168352600181018054835181870281018701909452808452939491938583019392830182828015611c6a57602002820191906000526020600020905b815481526020019060010190808311611c56575b50505050508152505081526020019060010190611bed565b5050505090505b92915050565b611c97614b36565b6001600160a01b038084166000908152600b602090815260408083209386168352928152908290208251815460609381028201840185529381018481529093919284928491840182828015611d1557602002820191906000526020600020905b81546001600160a01b03168152600190910190602001808311611cf7575b5050505050815260200160018201805480602002602001604051908101604052809291908181526020018280548015611d6d57602002820191906000526020600020905b815481526020019060010190808311611d59575b505050505081525050905092915050565b606080611d89614aa2565b6001600160a01b0384166000908152600460209081526040918290208251815460c09381028201840190945260a081018481529093919284928491840182828015611dfd57602002820191906000526020600020905b81546001600160a01b03168152600190910190602001808311611ddf575b5050505050815260200160028201805480602002602001604051908101604052809291908181526020018280548015611e5557602002820191906000526020600020905b815481526020019060010190808311611e41575b5050505050815260200160038201805480602002602001604051908101604052809291908181526020018280548015611ead57602002820191906000526020600020905b815481526020019060010190808311611e99575b5050505050815260200160048201805480602002602001604051908101604052809291908181526020018280548015611f0557602002820191906000526020600020905b815481526020019060010190808311611ef1575b5050505050815260200160058201805480602002602001604051908101604052809291908181526020018280548015611f5d57602002820191906000526020600020905b815481526020019060010190808311611f49575b5050509190925250508151519192508190506001600160401b0381118015611f8457600080fd5b50604051908082528060200260200182016040528015611fae578160200160208202803683370190505b5082519450925060005b818110156120405761202183608001518281518110611fd357fe5b6020026020010151610d0785606001518481518110611fee57fe5b6020026020010151610d078760400151868151811061200957fe5b6020026020010151886020015187815181106112e057fe5b84828151811061202d57fe5b6020908102919091010152600101611fb8565b505050915091565b612050614aa2565b612058614aa2565b6001600160a01b0383166000908152600460209081526040918290208251815460c09381028201840190945260a0810184815290939192849284918401828280156120cc57602002820191906000526020600020905b81546001600160a01b031681526001909101906020018083116120ae575b505050505081526020016002820180548060200260200160405190810160405280929190818152602001828054801561212457602002820191906000526020600020905b815481526020019060010190808311612110575b505050505081526020016003820180548060200260200160405190810160405280929190818152602001828054801561217c57602002820191906000526020600020905b815481526020019060010190808311612168575b50505050508152602001600482018054806020026020016040519081016040528092919081815260200182805480156121d457602002820191906000526020600020905b8154815260200190600101908083116121c0575b505050505081526020016005820180548060200260200160405190810160405280929190818152602001828054801561222c57602002820191906000526020600020905b815481526020019060010190808311612218575b50505091909252505081518452506020808201519084015260408082015190840152606080820151908401526080908101519083015250919050565b612270614071565b6001600160a01b0316612281611ab7565b6001600160a01b0316146122a75760405162461bcd60e51b81526004016107879061564e565b6122bb6001600160a01b03841683836143b3565b505050565b600a6020908152600092835260408084209091529082529020546001600160a01b031681565b6122ee614b36565b6001600160a01b0382166000908152600c6020908152604091829020825181546060938102820184018552938101848152909391928492849184018282801561236057602002820191906000526020600020905b81546001600160a01b03168152600190910190602001808311612342575b50505050508152602001600182018054806020026020016040519081016040528092919081815260200182805480156123b857602002820191906000526020600020905b8154815260200190600101908083116123a4575b5050505050815250509050919050565b606080606080306001600160a01b031663245cd1db87876040518363ffffffff1660e01b81526004016123fc9291906152d7565b60006040518083038186803b15801561241457600080fd5b505afa158015612428573d6000803e3d6000fd5b505050506040513d6000823e601f3d908101601f19168201604052612450919081019061505a565b6001600160a01b0388166000908152600b6020908152604080832033845282529091208351939550919350909161248c91839190860190614ad1565b50600181015483518082146124c95781810360005b818110156124c6576001808601805480830182556000918252602082200155016124a1565b50505b84516060816001600160401b03811180156124e357600080fd5b5060405190808252806020026020018201604052801561250d578160200160208202803683370190505b50905060005b828110156125695785600101818154811061252a57fe5b906000526020600020015487828151811061254157fe5b60200260200101510382828151811061255657fe5b6020908102919091010152600101612513565b50959a95995094975050505050505050565b612583614071565b6001600160a01b0316612594611ab7565b6001600160a01b0316146125ba5760405162461bcd60e51b81526004016107879061564e565b336001600160a01b03166000356001600160e01b0319166001600160e01b0319166000366040516125ec9291906153e6565b60405180910390a2600180546001600160a01b0319166001600160a01b0392909216919091179055565b6001600160a01b0381166000908152600760205260409020606090611c8990614409565b61264381614415565b15611ab457600154604051636e0cf42160e11b81526001600160a01b039091169063dc19e842906126789084906004016152c3565b60206040518083038186803b15801561269057600080fd5b505afa1580156126a4573d6000803e3d6000fd5b505050506040513d601f19601f820116820180604052508101906126c891906150ec565b6126e45760405162461bcd60e51b8152600401610787906155db565b806001600160a01b0316635468d6d76040518163ffffffff1660e01b815260040160206040518083038186803b15801561271d57600080fd5b505afa158015612731573d6000803e3d6000fd5b505050506040513d601f19601f8201168201806040525081019061275591906150ec565b6127715760405162461bcd60e51b8152600401610787906156d3565b60405163245cd1db60e01b81526060908190309063245cd1db9061279b90869033906004016152d7565b60006040518083038186803b1580156127b357600080fd5b505afa1580156127c7573d6000803e3d6000fd5b505050506040513d6000823e601f3d908101601f191682016040526127ef919081019061505a565b6001600160a01b0385166000908152600b6020908152604080832033845282529091208351939550919350909161282b91839190860190614ad1565b50600181015483518082146128685781810360005b8181101561286557600180860180548083018255600091825260208220015501612840565b50505b60006128733361449c565b61287d57336128ee565b336001600160a01b0316638da5cb5b6040518163ffffffff1660e01b815260040160206040518083038186803b1580156128b657600080fd5b505afa1580156128ca573d6000803e3d6000fd5b505050506040513d601f19601f820116820180604052508101906128ee9190614e00565b905060005b8651811015612a1457600085600101828154811061290d57fe5b906000526020600020015487838151811061292457fe5b602002602001015103905061296083828a858151811061294057fe5b60200260200101516001600160a01b03166143b39092919063ffffffff16565b61298c8187600101848154811061297357fe5b906000526020600020015461357290919063ffffffff16565b86600101838154811061299b57fe5b9060005260206000200181905550826001600160a01b0316336001600160a01b03167fcf0b5b5e344fd092a8b2211145583746df8436ec32469680c9d800af50d7b7378a85815181106129ea57fe5b60200260200101518442604051612a039392919061530a565b60405180910390a3506001016128f3565b5050505050505050565b612a26614071565b6001600160a01b0316612a37611ab7565b6001600160a01b031614612a5d5760405162461bcd60e51b81526004016107879061564e565b336001600160a01b03166000356001600160e01b0319166001600160e01b031916600036604051612a8f9291906153e6565b60405180910390a2600280546001600160a01b0319166001600160a01b0392909216919091179055565b3383828114612ada5760405162461bcd60e51b815260040161078790615541565b600154604051636e0cf42160e11b81526001600160a01b039091169063dc19e84290612b0a9085906004016152c3565b60206040518083038186803b158015612b2257600080fd5b505afa158015612b36573d6000803e3d6000fd5b505050506040513d601f19601f82011682018060405250810190612b5a91906150ec565b612b765760405162461bcd60e51b8152600401610787906155db565b6001600160a01b038281166000908152600a602090815260408083208b851684529091529020541680612c1d576001600160a01b038381166000818152600a602090815260408083208d86168452825280832080546001600160a01b031916958f1695909517909455918152600790915220612bf2908a6144d5565b612c1a576001600160a01b0383166000908152600760205260409020612c18908a6144ea565b505b50875b6001600160a01b038116612c435760405162461bcd60e51b815260040161078790615575565b612c7b85856000818110612c5357fe5b6001600160a01b03871660009081526006602090815260409091205493910201359050613572565b6001600160a01b0384166000908152600660205260409020556060826001600160401b0381118015612cac57600080fd5b50604051908082528060200260200182016040528015612cd6578160200160208202803683370190505b50905060005b83811015612dc1576001600160a01b03808616600090815260086020908152604080832093871683529290522054612d3e57868682818110612d1a57fe5b90506020020135828281518110612d2d57fe5b602002602001018181525050612db9565b6001600160a01b0380861660009081526008602090815260408083209387168352929052208054612da0919083908110612d7457fe5b9060005260206000200154888884818110612d8b57fe5b9050602002013561357290919063ffffffff16565b828281518110612dac57fe5b6020026020010181815250505b600101612cdc565b506001600160a01b03808516600090815260086020908152604080832093861683529281529190208251612df792840190614b50565b506001600160a01b0380851660008181526003602090815260408083208786168452825280832093835260098252808320948e168352939052919091205480612f2b57612e42614b97565b6001600160a01b038c168152604080516020808b0282810182019093528a825290918b918b91829185019084908082843760009201829052506020868101958652885460018082018b558a845292829020885160029092020180546001600160a01b0319166001600160a01b039092169190911781559551805188979650612ed1955092860193500190614b50565b505050828054905060096000896001600160a01b03166001600160a01b0316815260200190815260200160002060008e6001600160a01b03166001600160a01b031681526020019081526020016000208190555050612fcc565b6001600160a01b038087166000908152600360209081526040808320938816835292905290812080546000198401908110612f6257fe5b9060005260206000209060020201905060005b6001820154811015612fc957612fa68a8a83818110612f9057fe5b9050602002013583600101838154811061297357fe5b826001018281548110612fb557fe5b600091825260209091200155600101612f75565b50505b505050505050505050505050565b60086020528260005260406000206020528160005260406000208181548110612fff57fe5b9060005260206000200160009250925050505481565b61301e81614415565b15611ab4576040516327304dfd60e01b81526000906001600160a01b038316906327304dfd906130529033906004016152c3565b60206040518083038186803b15801561306a57600080fd5b505afa15801561307e573d6000803e3d6000fd5b505050506040513d601f19601f820116820180604052508101906130a291906150ec565b8061312e5750336001600160a01b0316826001600160a01b0316633018205f6040518163ffffffff1660e01b815260040160206040518083038186803b1580156130eb57600080fd5b505afa1580156130ff573d6000803e3d6000fd5b505050506040513d601f19601f820116820180604052508101906131239190614e00565b6001600160a01b0316145b90506000826001600160a01b0316635468d6d76040518163ffffffff1660e01b815260040160206040518083038186803b15801561316b57600080fd5b505afa15801561317f573d6000803e3d6000fd5b505050506040513d601f19601f820116820180604052508101906131a391906150ec565b9050806131c25760405162461bcd60e51b8152600401610787906156d3565b816131df5760405162461bcd60e51b8152600401610787906156aa565b604051631bf52ea760e21b815260609081903090636fd4ba9c906132079088906004016152c3565b600060405180830381600087803b15801561322157600080fd5b505af1158015613235573d6000803e3d6000fd5b505050506040513d6000823e601f3d908101601f1916820160405261325d919081019061505a565b6001600160a01b0387166000908152600560209081526040808320805460ff19169055600c8252909120835193955091935090916132a091839190860190614ad1565b50600181015483518082146132dd5781810360005b818110156132da576001808601805480830182556000918252602082200155016132b5565b50505b60005b85518110156133695760008682815181106132f757fe5b6020026020010151905061331f8a8288858151811061331257fe5b60200260200101516144ff565b61334586838151811061332e57fe5b602002602001015186600101848154811061297357fe5b85600101838154811061335457fe5b600091825260209091200155506001016132e0565b505050505050505050565b61337c614071565b6001600160a01b031661338d611ab7565b6001600160a01b0316146133b35760405162461bcd60e51b81526004016107879061564e565b6001600160a01b0381166133d95760405162461bcd60e51b8152600401610787906154c6565b600080546040516001600160a01b03808516939216917f8be0079c531659141344cd1fd0a4f28419497f9722a3daafe3b4186f6b6457e091a3600080546001600160a01b0319166001600160a01b0392909216919091179055565b6000611c898261482f565b600061344b8383614833565b9392505050565b805151600090831080159061346b575060208201515183105b1561347c5750805160200151611c89565b6020820151518310801590613495575060408201515183105b156134a857506020808201510151611c89565b60408201515183108015906134c1575060608201515183105b156134d55750604081015160200151611c89565b60608201515183106134f05750606081015160200151611c89565b50600092915050565b60008261350857506000611c89565b8282028284828161351557fe5b041461344b5760405162461bcd60e51b81526004016107879061560d565b600061344b83836040518060400160405280601a815260200179536166654d6174683a206469766973696f6e206279207a65726f60301b815250614857565b60008282018381101561344b5760405162461bcd60e51b81526004016107879061550c565b6001600160a01b03808516600090815260086020908152604080832093871683529290529081205481906135cc57600061360a565b6001600160a01b038087166000908152600860209081526040808320938916835292905290812080549091906135fe57fe5b90600052602060002001545b9050613614614a63565b506001600160a01b03861660009081526005602081815260408084208151610140810183526001820154610100820190815260028301546101208301526080808301918252845180860186526003850154815260048501548188015260a0808501919091528551808701875297850154885260068501548888015260c080850198909852855180870187526007860154815260088601548189015260e0850152918352845180880186526009850154818301908152600a86015482850152815285518087018752600b8601548152600c860154818901528188015285518087018752600d8601548152600e860154818901528187015285518087018752600f860154815260108601548189015260608281019190915284880191909152855180890187526011860154818401908152601287015482860152815286518088018852601387015481526014870154818a01528189015286518088018852601587015481526016870154818a01528188015286518088018852601787015481526018870154818a01528183015284870152855197880186526019850154918801918252601a85015492880192909252865283518085018552601b8401548152601c840154818701528686015283518085018552601d8401548152601e84015481870152868501528351808501909452601f830154845291840154938301939093528381019190915281019190915290613829614aa2565b6001600160a01b0389166000908152600460209081526040918290208251815460c09381028201840190945260a08101848152909391928492849184018282801561389d57602002820191906000526020600020905b81546001600160a01b0316815260019091019060200180831161387f575b50505050508152602001600282018054806020026020016040519081016040528092919081815260200182805480156138f557602002820191906000526020600020905b8154815260200190600101908083116138e1575b505050505081526020016003820180548060200260200160405190810160405280929190818152602001828054801561394d57602002820191906000526020600020905b815481526020019060010190808311613939575b50505050508152602001600482018054806020026020016040519081016040528092919081815260200182805480156139a557602002820191906000526020600020905b815481526020019060010190808311613991575b50505050508152602001600582018054806020026020016040519081016040528092919081815260200182805480156139fd57602002820191906000526020600020905b8154815260200190600101908083116139e9575b50505050508152505090508360001415613a1e576000945050505050613b73565b6001600160a01b03891660009081526006602052604090205487158015613a4a57506000826020015151115b15613a8757613a84600d54610c6c83610c6c89613a7e613a6e8c8c60000151613452565b89602001518f81518110610c5657fe5b906134f9565b92505b876001148015613a9c57506000826040015151115b15613ad357613ad0600d54610c6c83610c6c89613a7e613ac08c8c60200151613452565b89604001518f81518110610c5657fe5b92505b876002148015613ae857506000826060015151115b15613b1f57613b1c600d54610c6c83610c6c89613a7e613b0c8c8c60400151613452565b89606001518f81518110610c5657fe5b92505b876003148015613b3457506000826080015151115b15613b6b57613b68600d54610c6c83610c6c89613a7e613b588c8c60600151613452565b89608001518f81518110610c5657fe5b92505b509093505050505b949350505050565b613b83614aa2565b613b8b614aa2565b6001600160a01b0383166000908152600460209081526040918290208251815460c09381028201840190945260a081018481529093919284928491840182828015613bff57602002820191906000526020600020905b81546001600160a01b03168152600190910190602001808311613be1575b5050505050815260200160028201805480602002602001604051908101604052809291908181526020018280548015613c5757602002820191906000526020600020905b815481526020019060010190808311613c43575b5050505050815260200160038201805480602002602001604051908101604052809291908181526020018280548015613caf57602002820191906000526020600020905b815481526020019060010190808311613c9b575b5050505050815260200160048201805480602002602001604051908101604052809291908181526020018280548015613d0757602002820191906000526020600020905b815481526020019060010190808311613cf3575b5050505050815260200160058201805480602002602001604051908101604052809291908181526020018280548015613d5f57602002820191906000526020600020905b815481526020019060010190808311613d4b575b505050919092525050815180519085526001600160a01b038616600090815260076020526040812093945090929150613d9782613434565b9050826001600160401b0381118015613daf57600080fd5b50604051908082528060200260200182016040528015613dd9578160200160208202803683370190505b506020860152826001600160401b0381118015613df557600080fd5b50604051908082528060200260200182016040528015613e1f578160200160208202803683370190505b506040860152826001600160401b0381118015613e3b57600080fd5b50604051908082528060200260200182016040528015613e65578160200160208202803683370190505b506060860152826001600160401b0381118015613e8157600080fd5b50604051908082528060200260200182016040528015613eab578160200160208202803683370190505b50608086015260005b60048110156140255760005b8481101561401c5760005b838110156140135782613f1e57613f01613ef18a613ee9888561343f565b600086613597565b896020015184815181106112e057fe5b88602001518381518110613f1157fe5b6020026020010181815250505b8260011415613f6d57613f50613f408a613f38888561343f565b600186613597565b896040015184815181106112e057fe5b88604001518381518110613f6057fe5b6020026020010181815250505b8260021415613fbc57613f9f613f8f8a613f87888561343f565b600286613597565b896060015184815181106112e057fe5b88606001518381518110613faf57fe5b6020026020010181815250505b826003141561400b57613fee613fde8a613fd6888561343f565b600386613597565b896080015184815181106112e057fe5b88608001518381518110613ffe57fe5b6020026020010181815250505b600101613ecb565b50600101613ec0565b50600101613eb4565b5050505050919050565b600061344b83836040518060400160405280601e81526020017f536166654d6174683a207375627472616374696f6e206f766572666c6f77000081525061488e565b3390565b6001600160a01b0384166000908152600460205260408120905b83518110156143ab5760008482815181106140a657fe5b6020026020010151905060008483815181106140be57fe5b6020908102919091018101516001600160a01b03841660009081526001870190925260408220548654919350919015614131578115801561412c5750836001600160a01b03168660000160008154811061411457fe5b6000918252602090912001546001600160a01b031614155b614134565b60015b905080156141df578554600180820188556000888152602080822090930180546001600160a01b0319166001600160a01b03891690811790915560028a01805480850182559083528483200182905560038a01805480850182559083528483200182905560048a01805480850182559083528483200182905560058a018054808501825590835284832001829055895490825291890190925260409091206000199091019081905591505b8861424b576141f78387600201848154811061297357fe5b86600201838154811061420657fe5b9060005260206000200181905550896001600160a01b031660008051602061591f83398151915260003387876040516142429493929190615415565b60405180910390a25b88600114156142bb576142678387600301848154811061297357fe5b86600301838154811061427657fe5b9060005260206000200181905550896001600160a01b031660008051602061591f83398151915260013387876040516142b29493929190615415565b60405180910390a25b886002141561432b576142d78387600401848154811061297357fe5b8660040183815481106142e657fe5b9060005260206000200181905550896001600160a01b031660008051602061591f83398151915260023387876040516143229493929190615415565b60405180910390a25b886003141561439b576143478387600501848154811061297357fe5b86600501838154811061435657fe5b9060005260206000200181905550896001600160a01b031660008051602061591f83398151915260033387876040516143929493929190615415565b60405180910390a25b50506001909201915061408f9050565b505050505050565b6122bb8363a9059cbb60e01b84846040516024016143d29291906152f1565b60408051601f198184030181529190526020810180516001600160e01b03166001600160e01b0319909316929092179091526148ba565b60608061344b836149a5565b60006001826001600160a01b03166373a9855c6040518163ffffffff1660e01b815260040160206040518083038186803b15801561445257600080fd5b505afa158015614466573d6000803e3d6000fd5b505050506040513d601f19601f8201168201806040525081019061448a9190615108565b600181111561449557fe5b1492915050565b6000813f7fc5d2460186f7233c927e7db2dcc703c0e500b653ca82273b7bfad8045d85a470818114801590613b73575050151592915050565b600061344b836001600160a01b038416614a01565b600061344b836001600160a01b038416614a19565b6060836001600160a01b031663a0e67e2b6040518163ffffffff1660e01b815260040160006040518083038186803b15801561453a57600080fd5b505afa15801561454e573d6000803e3d6000fd5b505050506040513d6000823e601f3d908101601f191682016040526145769190810190615028565b90506060846001600160a01b031663309a042c6040518163ffffffff1660e01b815260040160006040518083038186803b1580156145b357600080fd5b505afa1580156145c7573d6000803e3d6000fd5b505050506040513d6000823e601f3d908101601f191682016040526145ef91908101906150ba565b90506000856001600160a01b031663d29986c16040518163ffffffff1660e01b815260040160206040518083038186803b15801561462c57600080fd5b505afa158015614640573d6000803e3d6000fd5b505050506040513d601f19601f82011682018060405250810190614664919061521d565b905060005b83518110156147d757600061469985838151811061468357fe5b60200260200101516001600160a01b031661449c565b6146b6578482815181106146a957fe5b602002602001015161473a565b8482815181106146c257fe5b60200260200101516001600160a01b0316638da5cb5b6040518163ffffffff1660e01b815260040160206040518083038186803b15801561470257600080fd5b505afa158015614716573d6000803e3d6000fd5b505050506040513d601f19601f8201168201806040525081019061473a9190614e00565b9050600061476884610c6c87868151811061475157fe5b60200260200101518a6134f990919063ffffffff16565b905061477e6001600160a01b03891683836143b3565b816001600160a01b0316336001600160a01b03167f749a9ef4b9bff1f02a1a1d45429a3949e524fd93e3948001eab8dca05f1fcd6d8a84426040516147c59392919061530a565b60405180910390a35050600101614669565b50856001600160a01b0316336001600160a01b03167f1bf0129823b56213a46996bc874ce50b318995cae2bbdcd2000933d36012547d87874260405161481f9392919061530a565b60405180910390a3505050505050565b5490565b600082600001828154811061484457fe5b9060005260206000200154905092915050565b600081836148785760405162461bcd60e51b8152600401610787919061543a565b50600083858161488457fe5b0495945050505050565b600081848411156148b25760405162461bcd60e51b8152600401610787919061543a565b505050900390565b6148cc826001600160a01b031661449c565b6148e85760405162461bcd60e51b81526004016107879061577f565b60006060836001600160a01b03168360405161490491906152a7565b6000604051808303816000865af19150503d8060008114614941576040519150601f19603f3d011682016040523d82523d6000602084013e614946565b606091505b5091509150816149685760405162461bcd60e51b8152600401610787906155a6565b80511561499f578080602001905181019061498391906150ec565b61499f5760405162461bcd60e51b815260040161078790615706565b50505050565b6060816000018054806020026020016040519081016040528092919081815260200182805480156149f557602002820191906000526020600020905b8154815260200190600101908083116149e1575b50505050509050919050565b60009081526001919091016020526040902054151590565b6000614a258383614a01565b614a5b57508154600181810184556000848152602080822090930184905584548482528286019093526040902091909155611c89565b506000611c89565b6040518060800160405280614a76614baf565b8152602001614a83614baf565b8152602001614a90614baf565b8152602001614a9d614baf565b905290565b6040518060a0016040528060608152602001606081526020016060815260200160608152602001606081525090565b828054828255906000526020600020908101928215614b26579160200282015b82811115614b2657825182546001600160a01b0319166001600160a01b03909116178255602090920191600190910190614af1565b50614b32929150614be9565b5090565b604051806040016040528060608152602001606081525090565b828054828255906000526020600020908101928215614b8b579160200282015b82811115614b8b578251825591602001919060010190614b70565b50614b32929150614c08565b60408051808201909152600081526060602082015290565b6040518060800160405280614bc2614c1d565b8152602001614bcf614c1d565b8152602001614bdc614c1d565b8152602001614a9d614c1d565b5b80821115614b325780546001600160a01b0319168155600101614bea565b5b80821115614b325760008155600101614c09565b604051806040016040528060008152602001600081525090565b60008083601f840112614c48578182fd5b5081356001600160401b03811115614c5e578182fd5b6020830191508360208083028501011115610d5157600080fd5b600082601f830112614c88578081fd5b8151614c9b614c96826158b0565b61588a565b818152915060208083019084810181840286018201871015614cbc57600080fd5b60005b84811015614ce4578151614cd2816158fb565b84529282019290820190600101614cbf565b505050505092915050565b600082601f830112614cff578081fd5b8151614d0d614c96826158b0565b818152915060208083019084810181840286018201871015614d2e57600080fd5b60005b84811015614ce457815184529282019290820190600101614d31565b60006101008284031215614d5f578081fd5b614d69608061588a565b9050614d758383614db3565b8152614d848360408401614db3565b6020820152614d968360808401614db3565b6040820152614da88360c08401614db3565b606082015292915050565b600060408284031215614dc4578081fd5b614dce604061588a565b9050813581526020820135602082015292915050565b600060208284031215614df5578081fd5b813561344b816158fb565b600060208284031215614e11578081fd5b815161344b816158fb565b60008060408385031215614e2e578081fd5b8235614e39816158fb565b91506020830135614e49816158fb565b809150509250929050565b60008060008060008060808789031215614e6c578182fd5b8635614e77816158fb565b95506020870135614e87816158fb565b945060408701356001600160401b0380821115614ea2578384fd5b614eae8a838b01614c37565b90965094506060890135915080821115614ec6578384fd5b50614ed389828a01614c37565b979a9699509497509295939492505050565b600080600060608486031215614ef9578283fd5b8335614f04816158fb565b92506020840135614f14816158fb565b929592945050506040919091013590565b60008060408385031215614f37578182fd5b8235614f42816158fb565b91506020830135614e4981615910565b600080828403610420811215614f66578283fd5b8335614f71816158fb565b9250610400601f1982011215614f85578182fd5b50614f90608061588a565b614f9d8560208601614d4d565b8152614fad856101208601614d4d565b6020820152614fc0856102208601614d4d565b6040820152614fd3856103208601614d4d565b6060820152809150509250929050565b60008060008060008060808789031215614ffb578384fd5b8635615006816158fb565b95506020870135945060408701356001600160401b0380821115614ea2578586fd5b600060208284031215615039578081fd5b81516001600160401b0381111561504e578182fd5b613b7384828501614c78565b6000806040838503121561506c578182fd5b82516001600160401b0380821115615082578384fd5b61508e86838701614c78565b935060208501519150808211156150a3578283fd5b506150b085828601614cef565b9150509250929050565b6000602082840312156150cb578081fd5b81516001600160401b038111156150e0578182fd5b613b7384828501614cef565b6000602082840312156150fd578081fd5b815161344b81615910565b600060208284031215615119578081fd5b81516002811061344b578182fd5b600060208284031215615138578081fd5b81516001600160401b038082111561514e578283fd5b9083019060a08286031215615161578283fd5b61516b60a061588a565b825182811115615179578485fd5b61518587828601614c78565b825250602083015182811115615199578485fd5b6151a587828601614cef565b6020830152506040830151828111156151bc578485fd5b6151c887828601614cef565b6040830152506060830151828111156151df578485fd5b6151eb87828601614cef565b606083015250608083015182811115615202578485fd5b61520e87828601614cef565b60808301525095945050505050565b60006020828403121561522e578081fd5b5051919050565b6000815180845260208085019450808401835b8381101561526d5781516001600160a01b031687529582019590820190600101615248565b509495945050505050565b6000815180845260208085019450808401835b8381101561526d5781518752958201959082019060010161528b565b600082516152b98184602087016158cf565b9190910192915050565b6001600160a01b0391909116815260200190565b6001600160a01b0392831681529116602082015260400190565b6001600160a01b03929092168252602082015260400190565b6001600160a01b039390931683526020830191909152604082015260600190565b60006020825261344b6020830184615235565b6000604082526153516040830185615235565b82810360208401526153638185615278565b95945050505050565b60208082528251828201819052600091906040908185019080840286018301878501865b838110156153d857888303603f19018552815180516001600160a01b031684528701518784018790526153c587850182615278565b9588019593505090860190600101615390565b509098975050505050505050565b60006020825282602083015282846040840137818301604090810191909152601f909201601f19160101919050565b9384526001600160a01b03928316602085015291166040830152606082015260800190565b60006020825282518060208401526154598160408501602087016158cf565b601f01601f19169190910160400192915050565b60208082526012908201527122a9292fa727aa2fa1a7a72a2927a62622a960711b604082015260600190565b6020808252601390820152724552525f4e4f545f4352505f464143544f525960681b604082015260600190565b60208082526026908201527f4f776e61626c653a206e6577206f776e657220697320746865207a65726f206160408201526564647265737360d01b606082015260800190565b6020808252601b908201527a536166654d6174683a206164646974696f6e206f766572666c6f7760281b604082015260600190565b6020808252601a908201527908aa4a4bea89e968a9cbe988a9c8ea890be9c9ea8be9a82a886960331b604082015260600190565b6020808252601790820152764552525f494e56414c49445f4b4f4c5f4144445245535360481b604082015260600190565b6020808252818101527f5361666545524332303a206c6f772d6c6576656c2063616c6c206661696c6564604082015260600190565b6020808252601890820152774552525f494e56414c49445f504f4f4c5f4144445245535360401b604082015260600190565b60208082526021908201527f536166654d6174683a206d756c7469706c69636174696f6e206f766572666c6f6040820152607760f81b606082015260800190565b6020808252818101527f4f776e61626c653a2063616c6c6572206973206e6f7420746865206f776e6572604082015260600190565b6020808252600d908201526c11549497d21054d7d4d1551151609a1b604082015260600190565b6020808252600f908201526e22a9292fa727aa2fa6a0a720a3a2a960891b604082015260600190565b60208082526019908201527811549497d393d517d0d3d354131155115117d0d3d3131150d5603a1b604082015260600190565b6020808252602a908201527f5361666545524332303a204552433230206f7065726174696f6e20646964206e6040820152691bdd081cdd58d8d9595960b21b606082015260800190565b60208082526015908201527411549497d2d3d317d21054d7d393d7d49155d05491605a1b604082015260600190565b6020808252601f908201527f5361666545524332303a2063616c6c20746f206e6f6e2d636f6e747261637400604082015260600190565b6000602082528251604060208401526157d26060840182615235565b90506020840151601f198483030160408501526153638282615278565b600060208252825160a0602084015261580b60c0840182615235565b90506020840151601f19808584030160408601526158298383615278565b925060408601519150808584030160608601526158468383615278565b925060608601519150808584030160808601526158638383615278565b925060808601519150808584030160a0860152506153638282615278565b90815260200190565b6040518181016001600160401b03811182821017156158a857600080fd5b604052919050565b60006001600160401b038211156158c5578081fd5b5060209081020190565b60005b838110156158ea5781810151838201526020016158d2565b8381111561499f5750506000910152565b6001600160a01b0381168114611ab457600080fd5b8015158114611ab457600080fdfef2dc555ffff33c7179f7e35e7fc8a68179aeecb49e12799e8ac2972420613eb9a2646970667358221220d876ef6c76bb00b110fdcb78b76de97aa69bac2b148ad9e959b5408e1e11283564736f6c634300060c0033",
  "libraries": {},
  "devdoc": {
    "author": "Desyn Labs",
    "kind": "dev",
    "methods": {
      "owner()": {
        "details": "Returns the address of the current owner."
      },
      "renounceOwnership()": {
        "details": "Leaves the contract without owner. It will not be possible to call `onlyOwner` functions anymore. Can only be called by the current owner. NOTE: Renouncing ownership will leave the contract without an owner, thereby removing any functionality that is only available to the owner."
      },
      "transferOwnership(address)": {
        "details": "Transfers ownership of the contract to a new account (`newOwner`). Can only be called by the current owner."
      }
    },
    "title": "Vault managerFee",
    "version": 1
  },
  "userdoc": {
    "kind": "user",
    "methods": {},
    "version": 1
  },
  "storageLayout": {
    "storage": [
      {
        "astId": 18082,
        "contract": "contracts/deploy/UserVault.sol:UserVault",
        "label": "_owner",
        "offset": 0,
        "slot": "0",
        "type": "t_address"
      },
      {
        "astId": 9693,
        "contract": "contracts/deploy/UserVault.sol:UserVault",
        "label": "crpFactory",
        "offset": 0,
        "slot": "1",
        "type": "t_contract(ICRPFactory)9596"
      },
      {
        "astId": 9695,
        "contract": "contracts/deploy/UserVault.sol:UserVault",
        "label": "vaultAddress",
        "offset": 0,
        "slot": "2",
        "type": "t_address"
      },
      {
        "astId": 9737,
        "contract": "contracts/deploy/UserVault.sol:UserVault",
        "label": "kolUserInfo",
        "offset": 0,
        "slot": "3",
        "type": "t_mapping(t_address,t_mapping(t_address,t_array(t_struct(KolUserInfo)9730_storage)dyn_storage))"
      },
      {
        "astId": 9758,
        "contract": "contracts/deploy/UserVault.sol:UserVault",
        "label": "poolsTokens",
        "offset": 0,
        "slot": "4",
        "type": "t_mapping(t_address,t_struct(PoolTokens)9715_storage)"
      },
      {
        "astId": 9762,
        "contract": "contracts/deploy/UserVault.sol:UserVault",
        "label": "poolsStatus",
        "offset": 0,
        "slot": "5",
        "type": "t_mapping(t_address,t_struct(PoolStatus)9724_storage)"
      },
      {
        "astId": 9766,
        "contract": "contracts/deploy/UserVault.sol:UserVault",
        "label": "poolInviteTotal",
        "offset": 0,
        "slot": "6",
        "type": "t_mapping(t_address,t_uint256)"
      },
      {
        "astId": 9770,
        "contract": "contracts/deploy/UserVault.sol:UserVault",
        "label": "kolsList",
        "offset": 0,
        "slot": "7",
        "type": "t_mapping(t_address,t_struct(AddressSet)15743_storage)"
      },
      {
        "astId": 9777,
        "contract": "contracts/deploy/UserVault.sol:UserVault",
        "label": "kolTotalAmountList",
        "offset": 0,
        "slot": "8",
        "type": "t_mapping(t_address,t_mapping(t_address,t_array(t_uint256)dyn_storage))"
      },
      {
        "astId": 9783,
        "contract": "contracts/deploy/UserVault.sol:UserVault",
        "label": "userIndexList",
        "offset": 0,
        "slot": "9",
        "type": "t_mapping(t_address,t_mapping(t_address,t_uint256))"
      },
      {
        "astId": 9789,
        "contract": "contracts/deploy/UserVault.sol:UserVault",
        "label": "userKolList",
        "offset": 0,
        "slot": "10",
        "type": "t_mapping(t_address,t_mapping(t_address,t_address))"
      },
      {
        "astId": 9818,
        "contract": "contracts/deploy/UserVault.sol:UserVault",
        "label": "kolHasClaimed",
        "offset": 0,
        "slot": "11",
        "type": "t_mapping(t_address,t_mapping(t_address,t_struct(ClaimTokens)9796_storage))"
      },
      {
        "astId": 9838,
        "contract": "contracts/deploy/UserVault.sol:UserVault",
        "label": "manageHasClaimed",
        "offset": 0,
        "slot": "12",
        "type": "t_mapping(t_address,t_struct(ClaimTokens)9796_storage)"
      },
      {
        "astId": 9853,
        "contract": "contracts/deploy/UserVault.sol:UserVault",
        "label": "RATIO_TOTAL",
        "offset": 0,
        "slot": "13",
        "type": "t_uint256"
      }
    ],
    "types": {
      "t_address": {
        "encoding": "inplace",
        "label": "address",
        "numberOfBytes": "20"
      },
      "t_array(t_address)dyn_storage": {
        "base": "t_address",
        "encoding": "dynamic_array",
        "label": "address[]",
        "numberOfBytes": "32"
      },
      "t_array(t_bytes32)dyn_storage": {
        "base": "t_bytes32",
        "encoding": "dynamic_array",
        "label": "bytes32[]",
        "numberOfBytes": "32"
      },
      "t_array(t_struct(KolUserInfo)9730_storage)dyn_storage": {
        "base": "t_struct(KolUserInfo)9730_storage",
        "encoding": "dynamic_array",
        "label": "struct UserVault.KolUserInfo[]",
        "numberOfBytes": "32"
      },
      "t_array(t_uint256)dyn_storage": {
        "base": "t_uint256",
        "encoding": "dynamic_array",
        "label": "uint256[]",
        "numberOfBytes": "32"
      },
      "t_bool": {
        "encoding": "inplace",
        "label": "bool",
        "numberOfBytes": "1"
      },
      "t_bytes32": {
        "encoding": "inplace",
        "label": "bytes32",
        "numberOfBytes": "32"
      },
      "t_contract(ICRPFactory)9596": {
        "encoding": "inplace",
        "label": "contract ICRPFactory",
        "numberOfBytes": "20"
      },
      "t_mapping(t_address,t_address)": {
        "encoding": "mapping",
        "key": "t_address",
        "label": "mapping(address => address)",
        "numberOfBytes": "32",
        "value": "t_address"
      },
      "t_mapping(t_address,t_array(t_struct(KolUserInfo)9730_storage)dyn_storage)": {
        "encoding": "mapping",
        "key": "t_address",
        "label": "mapping(address => struct UserVault.KolUserInfo[])",
        "numberOfBytes": "32",
        "value": "t_array(t_struct(KolUserInfo)9730_storage)dyn_storage"
      },
      "t_mapping(t_address,t_array(t_uint256)dyn_storage)": {
        "encoding": "mapping",
        "key": "t_address",
        "label": "mapping(address => uint256[])",
        "numberOfBytes": "32",
        "value": "t_array(t_uint256)dyn_storage"
      },
      "t_mapping(t_address,t_mapping(t_address,t_address))": {
        "encoding": "mapping",
        "key": "t_address",
        "label": "mapping(address => mapping(address => address))",
        "numberOfBytes": "32",
        "value": "t_mapping(t_address,t_address)"
      },
      "t_mapping(t_address,t_mapping(t_address,t_array(t_struct(KolUserInfo)9730_storage)dyn_storage))": {
        "encoding": "mapping",
        "key": "t_address",
        "label": "mapping(address => mapping(address => struct UserVault.KolUserInfo[]))",
        "numberOfBytes": "32",
        "value": "t_mapping(t_address,t_array(t_struct(KolUserInfo)9730_storage)dyn_storage)"
      },
      "t_mapping(t_address,t_mapping(t_address,t_array(t_uint256)dyn_storage))": {
        "encoding": "mapping",
        "key": "t_address",
        "label": "mapping(address => mapping(address => uint256[]))",
        "numberOfBytes": "32",
        "value": "t_mapping(t_address,t_array(t_uint256)dyn_storage)"
      },
      "t_mapping(t_address,t_mapping(t_address,t_struct(ClaimTokens)9796_storage))": {
        "encoding": "mapping",
        "key": "t_address",
        "label": "mapping(address => mapping(address => struct UserVault.ClaimTokens))",
        "numberOfBytes": "32",
        "value": "t_mapping(t_address,t_struct(ClaimTokens)9796_storage)"
      },
      "t_mapping(t_address,t_mapping(t_address,t_uint256))": {
        "encoding": "mapping",
        "key": "t_address",
        "label": "mapping(address => mapping(address => uint256))",
        "numberOfBytes": "32",
        "value": "t_mapping(t_address,t_uint256)"
      },
      "t_mapping(t_address,t_struct(AddressSet)15743_storage)": {
        "encoding": "mapping",
        "key": "t_address",
        "label": "mapping(address => struct EnumerableSet.AddressSet)",
        "numberOfBytes": "32",
        "value": "t_struct(AddressSet)15743_storage"
      },
      "t_mapping(t_address,t_struct(ClaimTokens)9796_storage)": {
        "encoding": "mapping",
        "key": "t_address",
        "label": "mapping(address => struct UserVault.ClaimTokens)",
        "numberOfBytes": "32",
        "value": "t_struct(ClaimTokens)9796_storage"
      },
      "t_mapping(t_address,t_struct(PoolStatus)9724_storage)": {
        "encoding": "mapping",
        "key": "t_address",
        "label": "mapping(address => struct UserVault.PoolStatus)",
        "numberOfBytes": "32",
        "value": "t_struct(PoolStatus)9724_storage"
      },
      "t_mapping(t_address,t_struct(PoolTokens)9715_storage)": {
        "encoding": "mapping",
        "key": "t_address",
        "label": "mapping(address => struct UserVault.PoolTokens)",
        "numberOfBytes": "32",
        "value": "t_struct(PoolTokens)9715_storage"
      },
      "t_mapping(t_address,t_uint256)": {
        "encoding": "mapping",
        "key": "t_address",
        "label": "mapping(address => uint256)",
        "numberOfBytes": "32",
        "value": "t_uint256"
      },
      "t_mapping(t_bytes32,t_uint256)": {
        "encoding": "mapping",
        "key": "t_bytes32",
        "label": "mapping(bytes32 => uint256)",
        "numberOfBytes": "32",
        "value": "t_uint256"
      },
      "t_struct(AddressSet)15743_storage": {
        "encoding": "inplace",
        "label": "struct EnumerableSet.AddressSet",
        "members": [
          {
            "astId": 15742,
            "contract": "contracts/deploy/UserVault.sol:UserVault",
            "label": "_inner",
            "offset": 0,
            "slot": "0",
            "type": "t_struct(Set)15556_storage"
          }
        ],
        "numberOfBytes": "64"
      },
      "t_struct(ClaimTokens)9796_storage": {
        "encoding": "inplace",
        "label": "struct UserVault.ClaimTokens",
        "members": [
          {
            "astId": 9792,
            "contract": "contracts/deploy/UserVault.sol:UserVault",
            "label": "tokens",
            "offset": 0,
            "slot": "0",
            "type": "t_array(t_address)dyn_storage"
          },
          {
            "astId": 9795,
            "contract": "contracts/deploy/UserVault.sol:UserVault",
            "label": "amounts",
            "offset": 0,
            "slot": "1",
            "type": "t_array(t_uint256)dyn_storage"
          }
        ],
        "numberOfBytes": "64"
      },
      "t_struct(KolPoolParams)16559_storage": {
        "encoding": "inplace",
        "label": "struct SmartPoolManager.KolPoolParams",
        "members": [
          {
            "astId": 16552,
            "contract": "contracts/deploy/UserVault.sol:UserVault",
            "label": "managerFee",
            "offset": 0,
            "slot": "0",
            "type": "t_struct(feeParams)16550_storage"
          },
          {
            "astId": 16554,
            "contract": "contracts/deploy/UserVault.sol:UserVault",
            "label": "issueFee",
            "offset": 0,
            "slot": "8",
            "type": "t_struct(feeParams)16550_storage"
          },
          {
            "astId": 16556,
            "contract": "contracts/deploy/UserVault.sol:UserVault",
            "label": "redeemFee",
            "offset": 0,
            "slot": "16",
            "type": "t_struct(feeParams)16550_storage"
          },
          {
            "astId": 16558,
            "contract": "contracts/deploy/UserVault.sol:UserVault",
            "label": "perfermanceFee",
            "offset": 0,
            "slot": "24",
            "type": "t_struct(feeParams)16550_storage"
          }
        ],
        "numberOfBytes": "1024"
      },
      "t_struct(KolUserInfo)9730_storage": {
        "encoding": "inplace",
        "label": "struct UserVault.KolUserInfo",
        "members": [
          {
            "astId": 9726,
            "contract": "contracts/deploy/UserVault.sol:UserVault",
            "label": "userAdr",
            "offset": 0,
            "slot": "0",
            "type": "t_address"
          },
          {
            "astId": 9729,
            "contract": "contracts/deploy/UserVault.sol:UserVault",
            "label": "userAmount",
            "offset": 0,
            "slot": "1",
            "type": "t_array(t_uint256)dyn_storage"
          }
        ],
        "numberOfBytes": "64"
      },
      "t_struct(PoolStatus)9724_storage": {
        "encoding": "inplace",
        "label": "struct UserVault.PoolStatus",
        "members": [
          {
            "astId": 9717,
            "contract": "contracts/deploy/UserVault.sol:UserVault",
            "label": "couldManagerClaim",
            "offset": 0,
            "slot": "0",
            "type": "t_bool"
          },
          {
            "astId": 9719,
            "contract": "contracts/deploy/UserVault.sol:UserVault",
            "label": "isBlackList",
            "offset": 1,
            "slot": "0",
            "type": "t_bool"
          },
          {
            "astId": 9721,
            "contract": "contracts/deploy/UserVault.sol:UserVault",
            "label": "isSetParams",
            "offset": 2,
            "slot": "0",
            "type": "t_bool"
          },
          {
            "astId": 9723,
            "contract": "contracts/deploy/UserVault.sol:UserVault",
            "label": "kolPoolConfig",
            "offset": 0,
            "slot": "1",
            "type": "t_struct(KolPoolParams)16559_storage"
          }
        ],
        "numberOfBytes": "1056"
      },
      "t_struct(PoolTokens)9715_storage": {
        "encoding": "inplace",
        "label": "struct UserVault.PoolTokens",
        "members": [
          {
            "astId": 9698,
            "contract": "contracts/deploy/UserVault.sol:UserVault",
            "label": "tokenList",
            "offset": 0,
            "slot": "0",
            "type": "t_array(t_address)dyn_storage"
          },
          {
            "astId": 9702,
            "contract": "contracts/deploy/UserVault.sol:UserVault",
            "label": "tokenIndex",
            "offset": 0,
            "slot": "1",
            "type": "t_mapping(t_address,t_uint256)"
          },
          {
            "astId": 9705,
            "contract": "contracts/deploy/UserVault.sol:UserVault",
            "label": "managerAmount",
            "offset": 0,
            "slot": "2",
            "type": "t_array(t_uint256)dyn_storage"
          },
          {
            "astId": 9708,
            "contract": "contracts/deploy/UserVault.sol:UserVault",
            "label": "issueAmount",
            "offset": 0,
            "slot": "3",
            "type": "t_array(t_uint256)dyn_storage"
          },
          {
            "astId": 9711,
            "contract": "contracts/deploy/UserVault.sol:UserVault",
            "label": "redeemAmount",
            "offset": 0,
            "slot": "4",
            "type": "t_array(t_uint256)dyn_storage"
          },
          {
            "astId": 9714,
            "contract": "contracts/deploy/UserVault.sol:UserVault",
            "label": "perfermanceAmount",
            "offset": 0,
            "slot": "5",
            "type": "t_array(t_uint256)dyn_storage"
          }
        ],
        "numberOfBytes": "192"
      },
      "t_struct(Set)15556_storage": {
        "encoding": "inplace",
        "label": "struct EnumerableSet.Set",
        "members": [
          {
            "astId": 15551,
            "contract": "contracts/deploy/UserVault.sol:UserVault",
            "label": "_values",
            "offset": 0,
            "slot": "0",
            "type": "t_array(t_bytes32)dyn_storage"
          },
          {
            "astId": 15555,
            "contract": "contracts/deploy/UserVault.sol:UserVault",
            "label": "_indexes",
            "offset": 0,
            "slot": "1",
            "type": "t_mapping(t_bytes32,t_uint256)"
          }
        ],
        "numberOfBytes": "64"
      },
      "t_struct(feeParams)16550_storage": {
        "encoding": "inplace",
        "label": "struct SmartPoolManager.feeParams",
        "members": [
          {
            "astId": 16543,
            "contract": "contracts/deploy/UserVault.sol:UserVault",
            "label": "firstLevel",
            "offset": 0,
            "slot": "0",
            "type": "t_struct(levelParams)16541_storage"
          },
          {
            "astId": 16545,
            "contract": "contracts/deploy/UserVault.sol:UserVault",
            "label": "secondLevel",
            "offset": 0,
            "slot": "2",
            "type": "t_struct(levelParams)16541_storage"
          },
          {
            "astId": 16547,
            "contract": "contracts/deploy/UserVault.sol:UserVault",
            "label": "thirdLevel",
            "offset": 0,
            "slot": "4",
            "type": "t_struct(levelParams)16541_storage"
          },
          {
            "astId": 16549,
            "contract": "contracts/deploy/UserVault.sol:UserVault",
            "label": "fourLevel",
            "offset": 0,
            "slot": "6",
            "type": "t_struct(levelParams)16541_storage"
          }
        ],
        "numberOfBytes": "256"
      },
      "t_struct(levelParams)16541_storage": {
        "encoding": "inplace",
        "label": "struct SmartPoolManager.levelParams",
        "members": [
          {
            "astId": 16538,
            "contract": "contracts/deploy/UserVault.sol:UserVault",
            "label": "level",
            "offset": 0,
            "slot": "0",
            "type": "t_uint256"
          },
          {
            "astId": 16540,
            "contract": "contracts/deploy/UserVault.sol:UserVault",
            "label": "ratio",
            "offset": 0,
            "slot": "1",
            "type": "t_uint256"
          }
        ],
        "numberOfBytes": "64"
      },
      "t_uint256": {
        "encoding": "inplace",
        "label": "uint256",
        "numberOfBytes": "32"
      }
    }
  }
}