{
  "address": "0x7Bf73846e3413Cba0735f465b6412dD389059746",
  "abi": [
    {
      "anonymous": false,
      "inputs": [
        {
          "indexed": true,
          "internalType": "address",
          "name": "newAdmin",
          "type": "address"
        },
        {
          "indexed": true,
          "internalType": "uint256",
          "name": "amount",
          "type": "uint256"
        }
      ],
      "name": "AddAdmin",
      "type": "event"
    },
    {
      "anonymous": true,
      "inputs": [
        {
          "indexed": true,
          "internalType": "bytes4",
          "name": "sig",
          "type": "bytes4"
        },
        {
          "indexed": true,
          "internalType": "address",
          "name": "caller",
          "type": "address"
        },
        {
          "indexed": false,
          "internalType": "bytes",
          "name": "data",
          "type": "bytes"
        }
      ],
      "name": "LOG_CALL",
      "type": "event"
    },
    {
      "anonymous": false,
      "inputs": [
        {
          "indexed": true,
          "internalType": "address",
          "name": "manager",
          "type": "address"
        },
        {
          "indexed": true,
          "internalType": "address",
          "name": "caller",
          "type": "address"
        }
      ],
      "name": "LogVaultAdr",
      "type": "event"
    },
    {
      "anonymous": false,
      "inputs": [
        {
          "indexed": true,
          "internalType": "address",
          "name": "previousOwner",
          "type": "address"
        },
        {
          "indexed": true,
          "internalType": "address",
          "name": "newOwner",
          "type": "address"
        }
      ],
      "name": "OwnershipTransferred",
      "type": "event"
    },
    {
      "anonymous": false,
      "inputs": [
        {
          "indexed": true,
          "internalType": "address",
          "name": "oldAdmin",
          "type": "address"
        },
        {
          "indexed": true,
          "internalType": "uint256",
          "name": "amount",
          "type": "uint256"
        }
      ],
      "name": "RemoveAdmin",
      "type": "event"
    },
    {
      "inputs": [],
      "name": "RATIO_TOTAL",
      "outputs": [
        {
          "internalType": "uint256",
          "name": "",
          "type": "uint256"
        }
      ],
      "stateMutability": "view",
      "type": "function"
    },
    {
      "inputs": [
        {
          "internalType": "address",
          "name": "pool",
          "type": "address"
        },
        {
          "internalType": "address",
          "name": "kol",
          "type": "address"
        },
        {
          "internalType": "uint256",
          "name": "types",
          "type": "uint256"
        }
      ],
      "name": "_computeReward",
      "outputs": [
        {
          "internalType": "uint256",
          "name": "",
          "type": "uint256"
        }
      ],
      "stateMutability": "view",
      "type": "function"
    },
    {
      "inputs": [
        {
          "internalType": "address",
          "name": "token",
          "type": "address"
        },
        {
          "internalType": "address",
          "name": "user",
          "type": "address"
        },
        {
          "internalType": "uint256",
          "name": "amount",
          "type": "uint256"
        }
      ],
      "name": "adminClaimToken",
      "outputs": [],
      "stateMutability": "nonpayable",
      "type": "function"
    },
    {
      "inputs": [
        {
          "internalType": "address",
          "name": "",
          "type": "address"
        }
      ],
      "name": "adminList",
      "outputs": [
        {
          "internalType": "bool",
          "name": "",
          "type": "bool"
        }
      ],
      "stateMutability": "view",
      "type": "function"
    },
    {
      "inputs": [],
      "name": "allOwnerPercentage",
      "outputs": [
        {
          "internalType": "uint256",
          "name": "",
          "type": "uint256"
        }
      ],
      "stateMutability": "view",
      "type": "function"
    },
    {
      "inputs": [
        {
          "internalType": "address",
          "name": "pool",
          "type": "address"
        }
      ],
      "name": "claimKolReward",
      "outputs": [],
      "stateMutability": "nonpayable",
      "type": "function"
    },
    {
      "inputs": [
        {
          "internalType": "address",
          "name": "pool",
          "type": "address"
        },
        {
          "internalType": "uint256",
          "name": "types",
          "type": "uint256"
        },
        {
          "internalType": "address[]",
          "name": "poolTokens",
          "type": "address[]"
        },
        {
          "internalType": "uint256[]",
          "name": "tokensAmount",
          "type": "uint256[]"
        }
      ],
      "name": "depositToken",
      "outputs": [],
      "stateMutability": "nonpayable",
      "type": "function"
    },
    {
      "inputs": [
        {
          "internalType": "address",
          "name": "pool",
          "type": "address"
        }
      ],
      "name": "getAllKolReward",
      "outputs": [
        {
          "internalType": "uint256",
          "name": "totalAmount",
          "type": "uint256"
        }
      ],
      "stateMutability": "view",
      "type": "function"
    },
    {
      "inputs": [],
      "name": "getBNB",
      "outputs": [],
      "stateMutability": "payable",
      "type": "function"
    },
    {
      "inputs": [],
      "name": "getController",
      "outputs": [
        {
          "internalType": "address",
          "name": "",
          "type": "address"
        }
      ],
      "stateMutability": "view",
      "type": "function"
    },
    {
      "inputs": [
        {
          "internalType": "address",
          "name": "pool",
          "type": "address"
        }
      ],
      "name": "getKolTokenList",
      "outputs": [
        {
          "internalType": "address[]",
          "name": "tokenList",
          "type": "address[]"
        }
      ],
      "stateMutability": "view",
      "type": "function"
    },
    {
      "inputs": [
        {
          "internalType": "address",
          "name": "pool",
          "type": "address"
        }
      ],
      "name": "getKolsAdr",
      "outputs": [
        {
          "internalType": "address[]",
          "name": "",
          "type": "address[]"
        }
      ],
      "stateMutability": "view",
      "type": "function"
    },
    {
      "inputs": [
        {
          "internalType": "address",
          "name": "pool",
          "type": "address"
        }
      ],
      "name": "getManagerClaimBool",
      "outputs": [
        {
          "internalType": "bool",
          "name": "bools",
          "type": "bool"
        }
      ],
      "stateMutability": "view",
      "type": "function"
    },
    {
      "inputs": [
        {
          "internalType": "address",
          "name": "pool",
          "type": "address"
        },
        {
          "internalType": "address",
          "name": "maragerAdr",
          "type": "address"
        }
      ],
      "name": "getManagerReward",
      "outputs": [
        {
          "internalType": "uint256",
          "name": "",
          "type": "uint256"
        }
      ],
      "stateMutability": "view",
      "type": "function"
    },
    {
      "inputs": [
        {
          "internalType": "address",
          "name": "pool",
          "type": "address"
        }
      ],
      "name": "getManagerReward",
      "outputs": [
        {
          "internalType": "uint256",
          "name": "",
          "type": "uint256"
        }
      ],
      "stateMutability": "view",
      "type": "function"
    },
    {
      "inputs": [],
      "name": "getOwnerPercentage",
      "outputs": [
        {
          "internalType": "uint256[]",
          "name": "",
          "type": "uint256[]"
        }
      ],
      "stateMutability": "view",
      "type": "function"
    },
    {
      "inputs": [],
      "name": "getOwners",
      "outputs": [
        {
          "internalType": "address[]",
          "name": "",
          "type": "address[]"
        }
      ],
      "stateMutability": "view",
      "type": "function"
    },
    {
      "inputs": [
        {
          "internalType": "address",
          "name": "pool",
          "type": "address"
        }
      ],
      "name": "getPoolAllFee",
      "outputs": [
        {
          "internalType": "uint256",
          "name": "totalAmount",
          "type": "uint256"
        }
      ],
      "stateMutability": "view",
      "type": "function"
    },
    {
      "inputs": [
        {
          "internalType": "address",
          "name": "pool",
          "type": "address"
        },
        {
          "internalType": "address",
          "name": "kol",
          "type": "address"
        }
      ],
      "name": "getPoolKolTotalAmounts",
      "outputs": [
        {
          "internalType": "uint256[]",
          "name": "",
          "type": "uint256[]"
        }
      ],
      "stateMutability": "view",
      "type": "function"
    },
    {
      "inputs": [
        {
          "internalType": "address",
          "name": "pool",
          "type": "address"
        },
        {
          "internalType": "address",
          "name": "kol",
          "type": "address"
        }
      ],
      "name": "getPoolKolUserInfo",
      "outputs": [
        {
          "components": [
            {
              "internalType": "address",
              "name": "userAdr",
              "type": "address"
            },
            {
              "internalType": "uint256[]",
              "name": "userAmount",
              "type": "uint256[]"
            }
          ],
          "internalType": "struct UserVault.KolUserInfo[]",
          "name": "info",
          "type": "tuple[]"
        }
      ],
      "stateMutability": "view",
      "type": "function"
    },
    {
      "inputs": [
        {
          "internalType": "address",
          "name": "pool",
          "type": "address"
        }
      ],
      "name": "getPoolTokenInfo",
      "outputs": [
        {
          "components": [
            {
              "internalType": "address[]",
              "name": "tokenList",
              "type": "address[]"
            },
            {
              "internalType": "address[]",
              "name": "issueTokens",
              "type": "address[]"
            },
            {
              "internalType": "address[]",
              "name": "redeemTokens",
              "type": "address[]"
            },
            {
              "internalType": "address[]",
              "name": "perfermanceTokens",
              "type": "address[]"
            },
            {
              "internalType": "uint256[]",
              "name": "managerAmount",
              "type": "uint256[]"
            },
            {
              "internalType": "uint256[]",
              "name": "issueAmount",
              "type": "uint256[]"
            },
            {
              "internalType": "uint256[]",
              "name": "redeemAmount",
              "type": "uint256[]"
            },
            {
              "internalType": "uint256[]",
              "name": "perfermanceAmount",
              "type": "uint256[]"
            }
          ],
          "internalType": "struct UserVault.PoolTokens",
          "name": "",
          "type": "tuple"
        }
      ],
      "stateMutability": "view",
      "type": "function"
    },
    {
      "inputs": [
        {
          "internalType": "address",
          "name": "pool",
          "type": "address"
        }
      ],
      "name": "getUnManagerReward",
      "outputs": [
        {
          "internalType": "uint256",
          "name": "",
          "type": "uint256"
        }
      ],
      "stateMutability": "view",
      "type": "function"
    },
    {
      "inputs": [
        {
          "internalType": "address",
          "name": "pool",
          "type": "address"
        },
        {
          "internalType": "address",
          "name": "maragerAdr",
          "type": "address"
        }
      ],
      "name": "getUnManagerReward",
      "outputs": [
        {
          "internalType": "uint256",
          "name": "",
          "type": "uint256"
        }
      ],
      "stateMutability": "view",
      "type": "function"
    },
    {
      "inputs": [
        {
          "internalType": "address[]",
          "name": "_owners",
          "type": "address[]"
        },
        {
          "internalType": "uint256[]",
          "name": "_ownerPercentage",
          "type": "uint256[]"
        }
      ],
      "name": "initHandle",
      "outputs": [],
      "stateMutability": "nonpayable",
      "type": "function"
    },
    {
      "inputs": [
        {
          "internalType": "address",
          "name": "",
          "type": "address"
        }
      ],
      "name": "initTotalAmountList",
      "outputs": [
        {
          "internalType": "uint256",
          "name": "",
          "type": "uint256"
        }
      ],
      "stateMutability": "view",
      "type": "function"
    },
    {
      "inputs": [
        {
          "internalType": "address",
          "name": "pool",
          "type": "address"
        }
      ],
      "name": "isClosePool",
      "outputs": [
        {
          "internalType": "bool",
          "name": "",
          "type": "bool"
        }
      ],
      "stateMutability": "view",
      "type": "function"
    },
    {
      "inputs": [
        {
          "internalType": "address",
          "name": "pool",
          "type": "address"
        },
        {
          "internalType": "address",
          "name": "kol",
          "type": "address"
        }
      ],
      "name": "kolClaimTotal",
      "outputs": [
        {
          "internalType": "uint256",
          "name": "",
          "type": "uint256"
        }
      ],
      "stateMutability": "view",
      "type": "function"
    },
    {
      "inputs": [
        {
          "internalType": "address",
          "name": "",
          "type": "address"
        },
        {
          "internalType": "address",
          "name": "",
          "type": "address"
        }
      ],
      "name": "kolClaimedList",
      "outputs": [
        {
          "internalType": "uint256",
          "name": "",
          "type": "uint256"
        }
      ],
      "stateMutability": "view",
      "type": "function"
    },
    {
      "inputs": [
        {
          "internalType": "address",
          "name": "",
          "type": "address"
        },
        {
          "internalType": "uint256",
          "name": "",
          "type": "uint256"
        }
      ],
      "name": "kolTokenList",
      "outputs": [
        {
          "internalType": "address",
          "name": "",
          "type": "address"
        }
      ],
      "stateMutability": "view",
      "type": "function"
    },
    {
      "inputs": [
        {
          "internalType": "address",
          "name": "",
          "type": "address"
        },
        {
          "internalType": "address",
          "name": "",
          "type": "address"
        },
        {
          "internalType": "uint256",
          "name": "",
          "type": "uint256"
        }
      ],
      "name": "kolTotalAmountList",
      "outputs": [
        {
          "internalType": "uint256",
          "name": "",
          "type": "uint256"
        }
      ],
      "stateMutability": "view",
      "type": "function"
    },
    {
      "inputs": [
        {
          "internalType": "address",
          "name": "pool",
          "type": "address"
        },
        {
          "internalType": "address",
          "name": "kol",
          "type": "address"
        }
      ],
      "name": "kolUnClaimAmount",
      "outputs": [
        {
          "internalType": "uint256",
          "name": "",
          "type": "uint256"
        }
      ],
      "stateMutability": "view",
      "type": "function"
    },
    {
      "inputs": [
        {
          "internalType": "address",
          "name": "",
          "type": "address"
        },
        {
          "internalType": "address",
          "name": "",
          "type": "address"
        },
        {
          "internalType": "uint256",
          "name": "",
          "type": "uint256"
        }
      ],
      "name": "kolUserInfo",
      "outputs": [
        {
          "internalType": "address",
          "name": "userAdr",
          "type": "address"
        }
      ],
      "stateMutability": "view",
      "type": "function"
    },
    {
      "inputs": [
        {
          "internalType": "address",
          "name": "pool",
          "type": "address"
        }
      ],
      "name": "managerClaim",
      "outputs": [],
      "stateMutability": "nonpayable",
      "type": "function"
    },
    {
      "inputs": [
        {
          "internalType": "address",
          "name": "pool",
          "type": "address"
        }
      ],
      "name": "managerClaimList",
      "outputs": [
        {
          "components": [
            {
              "internalType": "address",
              "name": "token",
              "type": "address"
            },
            {
              "internalType": "uint256",
              "name": "decimals",
              "type": "uint256"
            },
            {
              "internalType": "uint256",
              "name": "amount",
              "type": "uint256"
            }
          ],
          "internalType": "struct UserVault.ClaimTokenInfo[1]",
          "name": "",
          "type": "tuple[1]"
        }
      ],
      "stateMutability": "view",
      "type": "function"
    },
    {
      "inputs": [
        {
          "internalType": "address",
          "name": "pool",
          "type": "address"
        }
      ],
      "name": "managerClaimRecordList",
      "outputs": [
        {
          "components": [
            {
              "internalType": "uint256",
              "name": "time",
              "type": "uint256"
            },
            {
              "components": [
                {
                  "internalType": "address",
                  "name": "token",
                  "type": "address"
                },
                {
                  "internalType": "uint256",
                  "name": "decimals",
                  "type": "uint256"
                },
                {
                  "internalType": "uint256",
                  "name": "amount",
                  "type": "uint256"
                }
              ],
              "internalType": "struct UserVault.ClaimTokenInfo[]",
              "name": "tokens",
              "type": "tuple[]"
            }
          ],
          "internalType": "struct UserVault.ClaimRecordInfo[]",
          "name": "claimRecordInfos",
          "type": "tuple[]"
        }
      ],
      "stateMutability": "view",
      "type": "function"
    },
    {
      "inputs": [
        {
          "internalType": "address",
          "name": "",
          "type": "address"
        },
        {
          "internalType": "address",
          "name": "",
          "type": "address"
        }
      ],
      "name": "managerClaimedList",
      "outputs": [
        {
          "internalType": "uint256",
          "name": "",
          "type": "uint256"
        }
      ],
      "stateMutability": "view",
      "type": "function"
    },
    {
      "inputs": [
        {
          "internalType": "uint256",
          "name": "",
          "type": "uint256"
        }
      ],
      "name": "ownerPercentage",
      "outputs": [
        {
          "internalType": "uint256",
          "name": "",
          "type": "uint256"
        }
      ],
      "stateMutability": "view",
      "type": "function"
    },
    {
      "inputs": [
        {
          "internalType": "uint256",
          "name": "",
          "type": "uint256"
        }
      ],
      "name": "owners",
      "outputs": [
        {
          "internalType": "address",
          "name": "",
          "type": "address"
        }
      ],
      "stateMutability": "view",
      "type": "function"
    },
    {
      "inputs": [
        {
          "internalType": "address",
          "name": "",
          "type": "address"
        }
      ],
      "name": "poolManager",
      "outputs": [
        {
          "internalType": "address",
          "name": "",
          "type": "address"
        }
      ],
      "stateMutability": "view",
      "type": "function"
    },
    {
      "inputs": [
        {
          "internalType": "address",
          "name": "",
          "type": "address"
        }
      ],
      "name": "poolManangerHasClaimed",
      "outputs": [
        {
          "internalType": "uint256",
          "name": "",
          "type": "uint256"
        }
      ],
      "stateMutability": "view",
      "type": "function"
    },
    {
      "inputs": [
        {
          "internalType": "address",
          "name": "",
          "type": "address"
        },
        {
          "internalType": "uint256",
          "name": "",
          "type": "uint256"
        }
      ],
      "name": "recordList",
      "outputs": [
        {
          "internalType": "uint256",
          "name": "time",
          "type": "uint256"
        }
      ],
      "stateMutability": "view",
      "type": "function"
    },
    {
      "inputs": [
        {
          "internalType": "address",
          "name": "",
          "type": "address"
        }
      ],
      "name": "recordNumber",
      "outputs": [
        {
          "internalType": "uint256",
          "name": "",
          "type": "uint256"
        }
      ],
      "stateMutability": "view",
      "type": "function"
    },
    {
      "inputs": [
        {
          "internalType": "address",
          "name": "kol",
          "type": "address"
        },
        {
          "internalType": "address",
          "name": "user",
          "type": "address"
        },
        {
          "internalType": "address[]",
          "name": "poolTokens",
          "type": "address[]"
        },
        {
          "internalType": "uint256[]",
          "name": "tokensAmount",
          "type": "uint256[]"
        }
      ],
      "name": "recordTokenInfo",
      "outputs": [],
      "stateMutability": "nonpayable",
      "type": "function"
    },
    {
      "inputs": [
        {
          "internalType": "address",
          "name": "owner",
          "type": "address"
        }
      ],
      "name": "removeOwner",
      "outputs": [],
      "stateMutability": "nonpayable",
      "type": "function"
    },
    {
      "inputs": [
        {
          "internalType": "address",
          "name": "newOwner",
          "type": "address"
        },
        {
          "internalType": "uint256",
          "name": "_ownerPercentage",
          "type": "uint256"
        }
      ],
      "name": "setAddAdminList",
      "outputs": [],
      "stateMutability": "nonpayable",
      "type": "function"
    },
    {
      "inputs": [
        {
          "internalType": "address",
          "name": "pool",
          "type": "address"
        },
        {
          "internalType": "bool",
          "name": "bools",
          "type": "bool"
        }
      ],
      "name": "setBlackList",
      "outputs": [],
      "stateMutability": "nonpayable",
      "type": "function"
    },
    {
      "inputs": [
        {
          "internalType": "address",
          "name": "newOwner",
          "type": "address"
        }
      ],
      "name": "setController",
      "outputs": [],
      "stateMutability": "nonpayable",
      "type": "function"
    },
    {
      "inputs": [
        {
          "internalType": "address",
          "name": "adr",
          "type": "address"
        }
      ],
      "name": "setCrpFactory",
      "outputs": [],
      "stateMutability": "nonpayable",
      "type": "function"
    },
    {
      "inputs": [
        {
          "internalType": "address",
          "name": "pool",
          "type": "address"
        },
        {
          "components": [
            {
              "components": [
                {
                  "components": [
                    {
                      "internalType": "uint256",
                      "name": "level",
                      "type": "uint256"
                    },
                    {
                      "internalType": "uint256",
                      "name": "ratio",
                      "type": "uint256"
                    }
                  ],
                  "internalType": "struct SmartPoolManager.levelParams",
                  "name": "firstLevel",
                  "type": "tuple"
                },
                {
                  "components": [
                    {
                      "internalType": "uint256",
                      "name": "level",
                      "type": "uint256"
                    },
                    {
                      "internalType": "uint256",
                      "name": "ratio",
                      "type": "uint256"
                    }
                  ],
                  "internalType": "struct SmartPoolManager.levelParams",
                  "name": "secondLevel",
                  "type": "tuple"
                },
                {
                  "components": [
                    {
                      "internalType": "uint256",
                      "name": "level",
                      "type": "uint256"
                    },
                    {
                      "internalType": "uint256",
                      "name": "ratio",
                      "type": "uint256"
                    }
                  ],
                  "internalType": "struct SmartPoolManager.levelParams",
                  "name": "thirdLevel",
                  "type": "tuple"
                },
                {
                  "components": [
                    {
                      "internalType": "uint256",
                      "name": "level",
                      "type": "uint256"
                    },
                    {
                      "internalType": "uint256",
                      "name": "ratio",
                      "type": "uint256"
                    }
                  ],
                  "internalType": "struct SmartPoolManager.levelParams",
                  "name": "fourLevel",
                  "type": "tuple"
                }
              ],
              "internalType": "struct SmartPoolManager.feeParams",
              "name": "managerFee",
              "type": "tuple"
            },
            {
              "components": [
                {
                  "components": [
                    {
                      "internalType": "uint256",
                      "name": "level",
                      "type": "uint256"
                    },
                    {
                      "internalType": "uint256",
                      "name": "ratio",
                      "type": "uint256"
                    }
                  ],
                  "internalType": "struct SmartPoolManager.levelParams",
                  "name": "firstLevel",
                  "type": "tuple"
                },
                {
                  "components": [
                    {
                      "internalType": "uint256",
                      "name": "level",
                      "type": "uint256"
                    },
                    {
                      "internalType": "uint256",
                      "name": "ratio",
                      "type": "uint256"
                    }
                  ],
                  "internalType": "struct SmartPoolManager.levelParams",
                  "name": "secondLevel",
                  "type": "tuple"
                },
                {
                  "components": [
                    {
                      "internalType": "uint256",
                      "name": "level",
                      "type": "uint256"
                    },
                    {
                      "internalType": "uint256",
                      "name": "ratio",
                      "type": "uint256"
                    }
                  ],
                  "internalType": "struct SmartPoolManager.levelParams",
                  "name": "thirdLevel",
                  "type": "tuple"
                },
                {
                  "components": [
                    {
                      "internalType": "uint256",
                      "name": "level",
                      "type": "uint256"
                    },
                    {
                      "internalType": "uint256",
                      "name": "ratio",
                      "type": "uint256"
                    }
                  ],
                  "internalType": "struct SmartPoolManager.levelParams",
                  "name": "fourLevel",
                  "type": "tuple"
                }
              ],
              "internalType": "struct SmartPoolManager.feeParams",
              "name": "issueFee",
              "type": "tuple"
            },
            {
              "components": [
                {
                  "components": [
                    {
                      "internalType": "uint256",
                      "name": "level",
                      "type": "uint256"
                    },
                    {
                      "internalType": "uint256",
                      "name": "ratio",
                      "type": "uint256"
                    }
                  ],
                  "internalType": "struct SmartPoolManager.levelParams",
                  "name": "firstLevel",
                  "type": "tuple"
                },
                {
                  "components": [
                    {
                      "internalType": "uint256",
                      "name": "level",
                      "type": "uint256"
                    },
                    {
                      "internalType": "uint256",
                      "name": "ratio",
                      "type": "uint256"
                    }
                  ],
                  "internalType": "struct SmartPoolManager.levelParams",
                  "name": "secondLevel",
                  "type": "tuple"
                },
                {
                  "components": [
                    {
                      "internalType": "uint256",
                      "name": "level",
                      "type": "uint256"
                    },
                    {
                      "internalType": "uint256",
                      "name": "ratio",
                      "type": "uint256"
                    }
                  ],
                  "internalType": "struct SmartPoolManager.levelParams",
                  "name": "thirdLevel",
                  "type": "tuple"
                },
                {
                  "components": [
                    {
                      "internalType": "uint256",
                      "name": "level",
                      "type": "uint256"
                    },
                    {
                      "internalType": "uint256",
                      "name": "ratio",
                      "type": "uint256"
                    }
                  ],
                  "internalType": "struct SmartPoolManager.levelParams",
                  "name": "fourLevel",
                  "type": "tuple"
                }
              ],
              "internalType": "struct SmartPoolManager.feeParams",
              "name": "redeemFee",
              "type": "tuple"
            },
            {
              "components": [
                {
                  "components": [
                    {
                      "internalType": "uint256",
                      "name": "level",
                      "type": "uint256"
                    },
                    {
                      "internalType": "uint256",
                      "name": "ratio",
                      "type": "uint256"
                    }
                  ],
                  "internalType": "struct SmartPoolManager.levelParams",
                  "name": "firstLevel",
                  "type": "tuple"
                },
                {
                  "components": [
                    {
                      "internalType": "uint256",
                      "name": "level",
                      "type": "uint256"
                    },
                    {
                      "internalType": "uint256",
                      "name": "ratio",
                      "type": "uint256"
                    }
                  ],
                  "internalType": "struct SmartPoolManager.levelParams",
                  "name": "secondLevel",
                  "type": "tuple"
                },
                {
                  "components": [
                    {
                      "internalType": "uint256",
                      "name": "level",
                      "type": "uint256"
                    },
                    {
                      "internalType": "uint256",
                      "name": "ratio",
                      "type": "uint256"
                    }
                  ],
                  "internalType": "struct SmartPoolManager.levelParams",
                  "name": "thirdLevel",
                  "type": "tuple"
                },
                {
                  "components": [
                    {
                      "internalType": "uint256",
                      "name": "level",
                      "type": "uint256"
                    },
                    {
                      "internalType": "uint256",
                      "name": "ratio",
                      "type": "uint256"
                    }
                  ],
                  "internalType": "struct SmartPoolManager.levelParams",
                  "name": "fourLevel",
                  "type": "tuple"
                }
              ],
              "internalType": "struct SmartPoolManager.feeParams",
              "name": "perfermanceFee",
              "type": "tuple"
            }
          ],
          "internalType": "struct SmartPoolManager.KolPoolParams",
          "name": "_poolParams",
          "type": "tuple"
        }
      ],
      "name": "setPoolParams",
      "outputs": [],
      "stateMutability": "nonpayable",
      "type": "function"
    },
    {
      "inputs": [
        {
          "internalType": "address",
          "name": "adr",
          "type": "address"
        }
      ],
      "name": "setVaultAdr",
      "outputs": [],
      "stateMutability": "nonpayable",
      "type": "function"
    },
    {
      "inputs": [
        {
          "internalType": "address",
          "name": "",
          "type": "address"
        },
        {
          "internalType": "address",
          "name": "",
          "type": "address"
        }
      ],
      "name": "userIndexList",
      "outputs": [
        {
          "internalType": "uint256",
          "name": "",
          "type": "uint256"
        }
      ],
      "stateMutability": "view",
      "type": "function"
    },
    {
      "inputs": [
        {
          "internalType": "address",
          "name": "",
          "type": "address"
        },
        {
          "internalType": "address",
          "name": "",
          "type": "address"
        }
      ],
      "name": "userKolList",
      "outputs": [
        {
          "internalType": "address",
          "name": "",
          "type": "address"
        }
      ],
      "stateMutability": "view",
      "type": "function"
    },
    {
      "inputs": [],
      "name": "vaultAddress",
      "outputs": [
        {
          "internalType": "address",
          "name": "",
          "type": "address"
        }
      ],
      "stateMutability": "view",
      "type": "function"
    },
    {
      "stateMutability": "payable",
      "type": "receive"
    }
  ],
  "transactionHash": "0x9c253f8b8bd9135961c7c1709784453268d6874a9b6e14fefb26b3834e3bdfdd",
  "args": [],
  "numDeployments": 1,
  "solcInputHash": "0e997af3b88dbcb9772d4d5054dabb5f",
  "bytecode": "0x6080604052606460165534801561001557600080fd5b50600080546001600160a01b03191633179055615f3780620000386000396000f3fe60806040526004361061026e5760003560e01c80638da901ba1161014b5780638da901ba146105e95780639155dae714610609578063921850541461062957806392eefe9b14610649578063990cc58614610669578063992f6ba51461068957806399e44181146106a9578063a0e67e2b146106c9578063a74f1524146106de578063bb408f2d146106fe578063c0fcb1661461071e578063c1e576221461073e578063c5318d0f1461075e578063c90361dd1461077e578063cf4fe6351461079e578063cfa11d7e146107cb578063d29986c1146107eb578063d6b485a514610800578063d7256c7014610820578063e65065d914610840578063ebee7bcc14610860578063ec7a4b5214610880578063ece23143146108a0578063edb12adf146108c0578063f26bee8a146108e0578063f36ed92814610900578063f8b24b091461092057610275565b8063025e7c271461027a5780630b83e629146102b05780630e99089c146102dd57806314b60ee71461030a578063154726b21461032a578063173825d91461034a5780631cc9a5791461036c5780631eae039c146103995780631f70e80b146103b957806327304dfd146103ce5780633018205f146103fb578063309a042c146104105780633ef1447914610425578063430bf08a146104455780634660c5a51461045a57806346bead891461047a5780634934d18f1461049a5780634d4ae12d146104ba5780635834bac4146104e75780636429866a1461050757806367e0e0761461053457806368092bd9146105615780636936674d146105815780636fd4ba9c146105a15780637234100a146105c157806378a619de146105e157610275565b3661027557005b600080fd5b34801561028657600080fd5b5061029a61029536600461569b565b610940565b6040516102a791906157a1565b60405180910390f35b3480156102bc57600080fd5b506102d06102cb36600461524c565b610967565b6040516102a7919061596a565b3480156102e957600080fd5b506102fd6102f8366004615214565b6109e1565b6040516102a79190615e64565b34801561031657600080fd5b506102fd610325366004615413565b610db3565b34801561033657600080fd5b506102fd61034536600461524c565b610dd0565b34801561035657600080fd5b5061036a610365366004615214565b610e86565b005b34801561037857600080fd5b5061038c610387366004615214565b6110a9565b6040516102a7919061581f565b3480156103a557600080fd5b5061036a6103b4366004615315565b611215565b3480156103c557600080fd5b506102fd611258565b3480156103da57600080fd5b506103ee6103e9366004615214565b61125e565b6040516102a7919061597d565b34801561040757600080fd5b5061029a611273565b34801561041c57600080fd5b506102d0611282565b34801561043157600080fd5b5061036a61044036600461551b565b6112da565b34801561045157600080fd5b5061029a611430565b34801561046657600080fd5b5061036a610475366004615382565b61143f565b34801561048657600080fd5b506102fd61049536600461524c565b611696565b3480156104a657600080fd5b5061029a6104b5366004615214565b6118ff565b3480156104c657600080fd5b506104da6104d5366004615214565b61191a565b6040516102a791906158c7565b3480156104f357600080fd5b506102fd610502366004615315565b611a7a565b34801561051357600080fd5b50610527610522366004615214565b61215c565b6040516102a7919061580c565b34801561054057600080fd5b5061055461054f366004615214565b6121d2565b6040516102a79190615d6f565b34801561056d57600080fd5b5061036a61057c366004615355565b6124e6565b34801561058d57600080fd5b5061036a61059c366004615214565b61257b565b3480156105ad57600080fd5b506102fd6105bc366004615214565b6128e5565b3480156105cd57600080fd5b506102fd6105dc366004615214565b61297c565b61036a612a19565b3480156105f557600080fd5b506103ee610604366004615214565b612a6f565b34801561061557600080fd5b5061036a61062436600461543e565b612af6565b34801561063557600080fd5b506102fd610644366004615214565b612c61565b34801561065557600080fd5b5061036a610664366004615214565b612c73565b34801561067557600080fd5b5061029a610684366004615413565b612dd5565b34801561069557600080fd5b5061036a6106a4366004615413565b612e0a565b3480156106b557600080fd5b506102fd6106c436600461524c565b612f33565b3480156106d557600080fd5b50610527612f50565b3480156106ea57600080fd5b506102fd6106f936600461524c565b612fb1565b34801561070a57600080fd5b5061029a61071936600461524c565b612fce565b34801561072a57600080fd5b506103ee610739366004615214565b612ff4565b34801561074a57600080fd5b5061036a610759366004615214565b613012565b34801561076a57600080fd5b506102fd61077936600461569b565b61309e565b34801561078a57600080fd5b50610527610799366004615214565b6130bc565b3480156107aa57600080fd5b506107be6107b936600461524c565b6130e0565b6040516102a791906158fe565b3480156107d757600080fd5b5061029a6107e6366004615315565b6131c5565b3480156107f757600080fd5b506102fd61320c565b34801561080c57600080fd5b5061036a61081b366004615214565b613212565b34801561082c57600080fd5b5061036a61083b366004615284565b613289565b34801561084c57600080fd5b506102fd61085b36600461524c565b613809565b34801561086c57600080fd5b506102fd61087b366004615315565b6139b3565b34801561088c57600080fd5b506102fd61089b36600461524c565b6139ee565b3480156108ac57600080fd5b506102fd6108bb366004615214565b613a40565b3480156108cc57600080fd5b5061036a6108db366004615214565b613a52565b3480156108ec57600080fd5b506102fd6108fb36600461524c565b613f4f565b34801561090c57600080fd5b506102fd61091b366004615214565b613f6c565b34801561092c57600080fd5b506102fd61093b366004615214565b61402d565b6002818154811061094d57fe5b6000918252602090912001546001600160a01b0316905081565b6001600160a01b0380831660009081526012602090815260408083209385168352928152908290208054835181840281018401909452808452606093928301828280156109d357602002820191906000526020600020905b8154815260200190600101908083116109bf575b505050505090505b92915050565b60006109eb614e42565b6001600160a01b038316600090815260086020908152604091829020825181546101209381028201840190945261010081018481529093919284928491840182828015610a6157602002820191906000526020600020905b81546001600160a01b03168152600190910190602001808311610a43575b5050505050815260200160018201805480602002602001604051908101604052809291908181526020018280548015610ac357602002820191906000526020600020905b81546001600160a01b03168152600190910190602001808311610aa5575b5050505050815260200160028201805480602002602001604051908101604052809291908181526020018280548015610b2557602002820191906000526020600020905b81546001600160a01b03168152600190910190602001808311610b07575b5050505050815260200160038201805480602002602001604051908101604052809291908181526020018280548015610b8757602002820191906000526020600020905b81546001600160a01b03168152600190910190602001808311610b69575b5050505050815260200160048201805480602002602001604051908101604052809291908181526020018280548015610bdf57602002820191906000526020600020905b815481526020019060010190808311610bcb575b5050505050815260200160058201805480602002602001604051908101604052809291908181526020018280548015610c3757602002820191906000526020600020905b815481526020019060010190808311610c23575b5050505050815260200160068201805480602002602001604051908101604052809291908181526020018280548015610c8f57602002820191906000526020600020905b815481526020019060010190808311610c7b575b5050505050815260200160078201805480602002602001604051908101604052809291908181526020018280548015610ce757602002820191906000526020600020905b815481526020019060010190808311610cd3575b5050505050815250509050600081608001515111610d06576000610d20565b8060800151600081518110610d1757fe5b60200260200101515b60a082015151920191610d34576000610d4e565b8060a00151600081518110610d4557fe5b60200260200101515b60c082015151920191610d62576000610d7c565b8060c00151600081518110610d7357fe5b60200260200101515b60e082015151920191610d90576000610daa565b8060e00151600081518110610da157fe5b60200260200101515b90910192915050565b600b60209081526000928352604080842090915290825290205481565b60405163e65065d960e01b81526000908190309063e65065d990610dfa90879087906004016157b5565b60206040518083038186803b158015610e1257600080fd5b505afa158015610e26573d6000803e3d6000fd5b505050506040513d601f19601f82011682018060405250810190610e4a91906156b3565b6001600160a01b03808616600090815260116020908152604080832093881683529290522054909150610e7d828261403f565b95945050505050565b6000546001600160a01b03163314610eb95760405162461bcd60e51b8152600401610eb0906159ea565b60405180910390fd5b6001600160a01b03811660009081526001602052604090205460ff16610ef15760405162461bcd60e51b8152600401610eb090615a43565b6001600160a01b0381166000908152600160205260408120805460ff19169055805b60025481101561101557826001600160a01b031660028281548110610f3457fe5b6000918252602090912001546001600160a01b0316141561100d57600280546000198101908110610f6157fe5b600091825260209091200154600280546001600160a01b039092169183908110610f8757fe5b9060005260206000200160006101000a8154816001600160a01b0302191690836001600160a01b0316021790555060038181548110610fc257fe5b90600052602060002001549150600360016003805490500381548110610fe457fe5b906000526020600020015460038281548110610ffc57fe5b600091825260209091200155611015565b600101610f13565b50600280548061102157fe5b600082815260209020810160001990810180546001600160a01b0319169055019055600380548061104e57fe5b600082815260208120820160001990810182905590910190915560048054839003905560405182916001600160a01b038516917f7b0884b4b6bb4e0c1385ad42168fa556c14d4d799c1bf22f081aff3efff6ea0c9190a35050565b6001600160a01b0381166000908152600a602052604090205460609081816001600160401b03811180156110dc57600080fd5b5060405190808252806020026020018201604052801561111657816020015b611103614e87565b8152602001906001900390816110fb5790505b50905060015b8260010181101561120d5761112f614e87565b6001600160a01b0386166000908152600b60209081526040808320858452825280832081518083018352815481526001820180548451818702810187019095528085529195929486810194939192919084015b828210156111d7576000848152602090819020604080516060810182526003860290920180546001600160a01b0316835260018082015484860152600290910154918301919091529083529092019101611182565b505050915250909150819050836111ef84600161403f565b815181106111f957fe5b60209081029190910101525060010161111c565b509392505050565b6000546001600160a01b0316331461123f5760405162461bcd60e51b8152600401610eb0906159ea565b6112536001600160a01b0384168383614081565b505050565b60165481565b60016020526000908152604090205460ff1681565b6000546001600160a01b031690565b606060038054806020026020016040519081016040528092919081815260200182805480156112d057602002820191906000526020600020905b8154815260200190600101908083116112bc575b5050505050905090565b6000546001600160a01b031633146113045760405162461bcd60e51b8152600401610eb0906159ea565b80518251146113255760405162461bcd60e51b8152600401610eb090615c01565b60055460ff16156113485760405162461bcd60e51b8152600401610eb090615aca565b60005b82518110156113f657600083828151811061136257fe5b6020908102919091018101516001600160a01b0381166000908152600190925260409091205490915060ff16156113ab5760405162461bcd60e51b8152600401610eb090615b24565b8282815181106113b757fe5b6020908102919091018101516004805490910190556001600160a01b03909116600090815260019182905260409020805460ff1916821790550161134b565b50815161140a906002906020850190614ea1565b50805161141e906003906020840190614f06565b50506005805460ff1916600117905550565b6006546001600160a01b031681565b60055461010090046001600160a01b0316331461146e5760405162461bcd60e51b8152600401610eb090615a16565b6001600160a01b03808316600090815260096020526040908190206005549151636e0cf42160e11b815290926101009092049091169063dc19e842906114b89086906004016157a1565b60206040518083038186803b1580156114d057600080fd5b505afa1580156114e4573d6000803e3d6000fd5b505050506040513d601f19601f820116820180604052508101906115089190615660565b6115245760405162461bcd60e51b8152600401610eb090615c21565b805462010000900460ff161561154c5760405162461bcd60e51b8152600401610eb090615c94565b805462ff0000191662010000178155815180518051600184015560209081015160028401558082015180516003850155810151600484015560408083015180516005860155820151600685015560609283015180516007860155820151600885015581850151805180516009870155830151600a860155808301518051600b870155830151600c860155808201518051600d870155830151600e8601558301518051600f8601558201516010850155808501518051805160118701558301516012860155808301518051601387015583015160148601558082015180516015870155830151601686015583015180516017860155820151601885015593820151805180516019860155820151601a850155808201518051601b860155820151601c850155938401518051601d850155810151601e8401559201518051601f83015582015191015550565b60405163391a080560e11b815260009081903090637234100a906116be9087906004016157a1565b60206040518083038186803b1580156116d657600080fd5b505afa1580156116ea573d6000803e3d6000fd5b505050506040513d601f19601f8201168201806040525081019061170e91906156b3565b90506060846001600160a01b031663a0e67e2b6040518163ffffffff1660e01b815260040160006040518083038186803b15801561174b57600080fd5b505afa15801561175f573d6000803e3d6000fd5b505050506040513d6000823e601f3d908101601f191682016040526117879190810190615483565b90506060856001600160a01b031663309a042c6040518163ffffffff1660e01b815260040160006040518083038186803b1580156117c457600080fd5b505afa1580156117d8573d6000803e3d6000fd5b505050506040513d6000823e601f3d908101601f1916820160405261180091908101906155dd565b90506000866001600160a01b031663d29986c16040518163ffffffff1660e01b815260040160206040518083038186803b15801561183d57600080fd5b505afa158015611851573d6000803e3d6000fd5b505050506040513d601f19601f8201168201806040525081019061187591906156b3565b905060005b83518110156118f45783818151811061188f57fe5b60200260200101516001600160a01b0316876001600160a01b031614156118ec576118e0826118da8584815181106118c357fe5b6020026020010151886140d790919063ffffffff16565b90614111565b955050505050506109db565b60010161187a565b505050505092915050565b6007602052600090815260409020546001600160a01b031681565b611922614f4d565b61192a614f7a565b6001600160a01b0383166000908152600c602052604081208054829061194c57fe5b6000918252602090912001546001600160a01b0316808352604051631bf52ea760e21b81529091503090636fd4ba9c9061198a9087906004016157a1565b60206040518083038186803b1580156119a257600080fd5b505afa1580156119b6573d6000803e3d6000fd5b505050506040513d601f19601f820116820180604052508101906119da91906156b3565b826040018181525050806001600160a01b031663313ce5676040518163ffffffff1660e01b815260040160206040518083038186803b158015611a1c57600080fd5b505afa158015611a30573d6000803e3d6000fd5b505050506040513d601f19601f82011682018060405250810190611a5491906156cb565b60ff166020830152611a64614f4d565b5050604080516020810190915290815292915050565b6001600160a01b0380841660009081526012602090815260408083209386168352929052908120548190611aaf576000611aed565b6001600160a01b03808616600090815260126020908152604080832093881683529290529081208054909190611ae157fe5b90600052602060002001545b9050611af7614fa4565b506001600160a01b03851660009081526009602081815260408084208151610140810183526001820154610100820190815260028301546101208301526080808301918252845180860186526003850154815260048501548188015260a080850191909152855180870187526005860154815260068601548189015260c08086019190915286518088018852600787015481526008870154818a015260e08601529284528551808401875297850154888301908152600a86015489830152885285518087018752600b8601548152600c860154818901528888015285518087018752600d8601548152600e860154818901528887015285518087018752600f860154815260108601548189015260608981019190915284880198909852855180840187526011860154818401908152601287015482840152815286518088018852601387015481526014870154818a01528189015286518088018852601587015481526016870154818a01528188015286518088018852601787015481526018870154818a0152818a015284870152855192830186526019850154918301918252601a85015490830152815283518085018552601b8401548152601c840154818701528186015283518085018552601d8401548152601e84015481870152818501528351808501909452601f83015484529184015493830193909352808401919091529181019190915290611d0a614e42565b6001600160a01b038816600090815260086020908152604091829020825181546101209381028201840190945261010081018481529093919284928491840182828015611d8057602002820191906000526020600020905b81546001600160a01b03168152600190910190602001808311611d62575b5050505050815260200160018201805480602002602001604051908101604052809291908181526020018280548015611de257602002820191906000526020600020905b81546001600160a01b03168152600190910190602001808311611dc4575b5050505050815260200160028201805480602002602001604051908101604052809291908181526020018280548015611e4457602002820191906000526020600020905b81546001600160a01b03168152600190910190602001808311611e26575b5050505050815260200160038201805480602002602001604051908101604052809291908181526020018280548015611ea657602002820191906000526020600020905b81546001600160a01b03168152600190910190602001808311611e88575b5050505050815260200160048201805480602002602001604051908101604052809291908181526020018280548015611efe57602002820191906000526020600020905b815481526020019060010190808311611eea575b5050505050815260200160058201805480602002602001604051908101604052809291908181526020018280548015611f5657602002820191906000526020600020905b815481526020019060010190808311611f42575b5050505050815260200160068201805480602002602001604051908101604052809291908181526020018280548015611fae57602002820191906000526020600020905b815481526020019060010190808311611f9a575b505050505081526020016007820180548060200260200160405190810160405280929190818152602001828054801561200657602002820191906000526020600020905b815481526020019060010190808311611ff2575b50505050508152505090508360001415612027576000945050505050612155565b8515801561203a57506000816080015151115b156120805761207d6016546118da612056878760000151614150565b846080015160008151811061206757fe5b60200260200101516140d790919063ffffffff16565b91505b856001148015612095575060008160a0015151115b156120c5576120c26016546118da6120b1878760200151614150565b8460a0015160008151811061206757fe5b91505b8560021480156120da575060008160c0015151115b1561210a576121076016546118da6120f6878760400151614150565b8460c0015160008151811061206757fe5b91505b85600314801561211f575060008160e0015151115b1561214f5761214c6016546118da61213b878760600151614150565b8460e0015160008151811061206757fe5b91505b50925050505b9392505050565b6001600160a01b0381166000908152600c60209081526040918290208054835181840281018401909452808452606093928301828280156121c657602002820191906000526020600020905b81546001600160a01b031681526001909101906020018083116121a8575b50505050509050919050565b6121da614e42565b6001600160a01b03821660009081526008602090815260409182902082518154610120938102820184019094526101008101848152909391928492849184018282801561225057602002820191906000526020600020905b81546001600160a01b03168152600190910190602001808311612232575b50505050508152602001600182018054806020026020016040519081016040528092919081815260200182805480156122b257602002820191906000526020600020905b81546001600160a01b03168152600190910190602001808311612294575b505050505081526020016002820180548060200260200160405190810160405280929190818152602001828054801561231457602002820191906000526020600020905b81546001600160a01b031681526001909101906020018083116122f6575b505050505081526020016003820180548060200260200160405190810160405280929190818152602001828054801561237657602002820191906000526020600020905b81546001600160a01b03168152600190910190602001808311612358575b50505050508152602001600482018054806020026020016040519081016040528092919081815260200182805480156123ce57602002820191906000526020600020905b8154815260200190600101908083116123ba575b505050505081526020016005820180548060200260200160405190810160405280929190818152602001828054801561242657602002820191906000526020600020905b815481526020019060010190808311612412575b505050505081526020016006820180548060200260200160405190810160405280929190818152602001828054801561247e57602002820191906000526020600020905b81548152602001906001019080831161246a575b50505050508152602001600782018054806020026020016040519081016040528092919081815260200182805480156124d657602002820191906000526020600020905b8154815260200190600101908083116124c2575b5050505050815250509050919050565b6000546001600160a01b031633146125105760405162461bcd60e51b8152600401610eb0906159ea565b336001600160a01b03166000356001600160e01b0319166001600160e01b031916600036604051612542929190615988565b60405180910390a26001600160a01b03909116600090815260096020526040902080549115156101000261ff0019909216919091179055565b6040516346d480dd60e11b81523090638da901ba9061259e9084906004016157a1565b60206040518083038186803b1580156125b657600080fd5b505afa1580156125ca573d6000803e3d6000fd5b505050506040513d601f19601f820116820180604052508101906125ee9190615660565b156128e257600554604051636e0cf42160e11b81526101009091046001600160a01b03169063dc19e842906126279084906004016157a1565b60206040518083038186803b15801561263f57600080fd5b505afa158015612653573d6000803e3d6000fd5b505050506040513d601f19601f820116820180604052508101906126779190615660565b6126935760405162461bcd60e51b8152600401610eb090615c21565b806001600160a01b0316635468d6d76040518163ffffffff1660e01b815260040160206040518083038186803b1580156126cc57600080fd5b505afa1580156126e0573d6000803e3d6000fd5b505050506040513d601f19601f820116820180604052508101906127049190615660565b6127205760405162461bcd60e51b8152600401610eb090615cbb565b604051630aa3935960e11b8152600090309063154726b29061274890859033906004016157b5565b60206040518083038186803b15801561276057600080fd5b505afa158015612774573d6000803e3d6000fd5b505050506040513d601f19601f8201168201806040525081019061279891906156b3565b9050600081116127ba5760405162461bcd60e51b8152600401610eb090615a6a565b6001600160a01b03821660009081526011602090815260408083203380855292529091208054830190556127ed906141f7565b156128aa576128a5336001600160a01b0316638da5cb5b6040518163ffffffff1660e01b815260040160206040518083038186803b15801561282e57600080fd5b505afa158015612842573d6000803e3d6000fd5b505050506040513d601f19601f820116820180604052508101906128669190615230565b6001600160a01b0384166000908152600c60205260408120805485929061288957fe5b6000918252602090912001546001600160a01b03169190614081565b6128e0565b6128e03382600c6000866001600160a01b03166001600160a01b0316815260200190815260200160002060008154811061288957fe5b505b50565b6001600160a01b0381166000908152600f602052604080822054905163391a080560e11b81526109db91903090637234100a906129269087906004016157a1565b60206040518083038186803b15801561293e57600080fd5b505afa158015612952573d6000803e3d6000fd5b505050506040513d601f19601f8201168201806040525081019061297691906156b3565b9061403f565b604051631e6ddb2560e31b81526000906109db90309063f36ed928906129a69086906004016157a1565b60206040518083038186803b1580156129be57600080fd5b505afa1580156129d2573d6000803e3d6000fd5b505050506040513d601f19601f820116820180604052508101906129f691906156b3565b6040516303a6422760e21b81523090630e99089c906129269087906004016157a1565b6000546001600160a01b03163314612a435760405162461bcd60e51b8152600401610eb0906159ea565b60405133904780156108fc02916000818181858888f193505050501580156128e2573d6000803e3d6000fd5b60006001826001600160a01b03166373a9855c6040518163ffffffff1660e01b815260040160206040518083038186803b158015612aac57600080fd5b505afa158015612ac0573d6000803e3d6000fd5b505050506040513d601f19601f82011682018060405250810190612ae4919061567c565b6001811115612aef57fe5b1492915050565b6006546001600160a01b03163314612b205760405162461bcd60e51b8152600401610eb0906159ea565b828114612b3f5760405162461bcd60e51b8152600401610eb090615af0565b6001600160a01b0386811660009081526007602052604090205416612bff57856001600160a01b0316633018205f6040518163ffffffff1660e01b815260040160206040518083038186803b158015612b9757600080fd5b505afa158015612bab573d6000803e3d6000fd5b505050506040513d601f19601f82011682018060405250810190612bcf9190615230565b6001600160a01b03878116600090815260076020526040902080546001600160a01b031916929091169190911790555b606080612c0c8888614230565b91509150606080612c22888888888e89896145a8565b91509150612c328a8a84846147ea565b5050506001600160a01b039096166000908152600960205260409020805460ff19166001179055505050505050565b600a6020526000908152604090205481565b6000546001600160a01b03163314612c9d5760405162461bcd60e51b8152600401610eb0906159ea565b6001600160a01b038116612cc35760405162461bcd60e51b8152600401610eb090615bb4565b600080546040516001600160a01b03808516939216917f8be0079c531659141344cd1fd0a4f28419497f9722a3daafe3b4186f6b6457e091a360005b600254811015612d8657600054600280546001600160a01b039092169183908110612d2657fe5b6000918252602090912001546001600160a01b03161415612d7e578160028281548110612d4f57fe5b9060005260206000200160006101000a8154816001600160a01b0302191690836001600160a01b031602179055505b600101612cff565b50600080546001600160a01b039081168252600160208190526040808420805460ff199081169091559490921680845291832080549094161790925580546001600160a01b0319169091179055565b600c6020528160005260406000208181548110612dee57fe5b6000918252602090912001546001600160a01b03169150829050565b6000546001600160a01b03163314612e345760405162461bcd60e51b8152600401610eb0906159ea565b6001600160a01b03821660009081526001602052604090205460ff1615612e6d5760405162461bcd60e51b8152600401610eb090615b24565b6001600160a01b0382166000818152600160208190526040808320805460ff191683179055600280548084019091557f405787fa12a823e0f2b7631cc41b3ba8828b3321ca811111fa75cd3aa3bb5ace0180546001600160a01b0319168517905560038054928301815583527fc2575a0e9e593c00f959f8c92f12db2869c3395a3b0502d05e2516446f71f85b9091018490556004805485019055518392917fbd5dcf0b25226117c4a68a0129ffdd4b0541ef5e482ad7de9a96ccb6d6a8ebde91a35050565b601460209081526000928352604080842090915290825290205481565b606060028054806020026020016040519081016040528092919081815260200182805480156112d057602002820191906000526020600020905b81546001600160a01b03168152600190910190602001808311612f8a575050505050905090565b601160209081526000928352604080842090915290825290205481565b60156020908152600092835260408084209091529082529020546001600160a01b031681565b6001600160a01b031660009081526009602052604090205460ff1690565b6000546001600160a01b0316331461303c5760405162461bcd60e51b8152600401610eb0906159ea565b336001600160a01b03166000356001600160e01b0319166001600160e01b03191660003660405161306e929190615988565b60405180910390a2600580546001600160a01b0390921661010002610100600160a81b0319909216919091179055565b600381815481106130ab57fe5b600091825260209091200154905081565b6001600160a01b03811660009081526010602052604090206060906109db906148da565b6001600160a01b0380831660009081526013602090815260408083209385168352928152828220805484518184028101840190955280855260609493919290919084015b828210156131b95760008481526020908190206040805180820182526002860290920180546001600160a01b031683526001810180548351818702810187019094528084529394919385830193928301828280156131a157602002820191906000526020600020905b81548152602001906001019080831161318d575b50505050508152505081526020019060010190613124565b50505050905092915050565b601360205282600052604060002060205281600052604060002081815481106131ea57fe5b60009182526020909120600290910201546001600160a01b0316925083915050565b60045481565b6000546001600160a01b0316331461323c5760405162461bcd60e51b8152600401610eb0906159ea565b600680546001600160a01b0319166001600160a01b0383169081179091556040513391907fc138928eab767a64470bc0dd3d04bce552ce80a6ceb398aa7e37f6dd9891fc1590600090a350565b33838281146132aa5760405162461bcd60e51b8152600401610eb090615af0565b600554604051636e0cf42160e11b81526101009091046001600160a01b03169063dc19e842906132de9085906004016157a1565b60206040518083038186803b1580156132f657600080fd5b505afa15801561330a573d6000803e3d6000fd5b505050506040513d601f19601f8201168201806040525081019061332e9190615660565b61334a5760405162461bcd60e51b8152600401610eb090615c21565b6001600160a01b0382166000908152600c602052604090205461338c576001600160a01b0382166000908152600c6020526040902061338a908787614fe3565b505b6001600160a01b0382811660009081526015602090815260408083208b851684529091529020541680613433576001600160a01b0383811660008181526015602090815260408083208d86168452825280832080546001600160a01b031916958f1695909517909455918152601090915220613408908a6148e6565b613430576001600160a01b038316600090815260106020526040902061342e908a6148fb565b505b50875b6001600160a01b0381166134595760405162461bcd60e51b8152600401610eb090615b4e565b6134918585600081811061346957fe5b6001600160a01b0387166000908152600d602090815260409091205493910201359050614910565b6001600160a01b0384166000908152600d60205260409020556060826001600160401b03811180156134c257600080fd5b506040519080825280602002602001820160405280156134ec578160200160208202803683370190505b50905060005b838110156135d7576001600160a01b038086166000908152601260209081526040808320938716835292905220546135545786868281811061353057fe5b9050602002013582828151811061354357fe5b6020026020010181815250506135cf565b6001600160a01b03808616600090815260126020908152604080832093871683529290522080546135b691908390811061358a57fe5b90600052602060002001548888848181106135a157fe5b9050602002013561491090919063ffffffff16565b8282815181106135c257fe5b6020026020010181815250505b6001016134f2565b506001600160a01b0380851660009081526012602090815260408083209386168352928152919020825161360d92840190614f06565b506001600160a01b0380851660008181526013602090815260408083208786168452825280832093835260148252808320948e16835293905291909120548061374157613658615036565b6001600160a01b038c168152604080516020808b0282810182019093528a825290918b918b91829185019084908082843760009201829052506020868101958652885460018082018b558a845292829020885160029092020180546001600160a01b0319166001600160a01b0390921691909117815595518051889796506136e7955092860193500190614f06565b505050828054905060146000896001600160a01b03166001600160a01b0316815260200190815260200160002060008e6001600160a01b03166001600160a01b0316815260200190815260200160002081905550506137fb565b6001600160a01b03808716600090815260136020908152604080832093881683529290529081208054600019840190811061377857fe5b9060005260206000209060020201905060005b60018201548110156137f8576137d58a8a838181106137a657fe5b905060200201358360010183815481106137bc57fe5b906000526020600020015461491090919063ffffffff16565b8260010182815481106137e457fe5b60009182526020909120015560010161378b565b50505b505050505050505050505050565b6001600160a01b038083166000908152601260209081526040808320938516835292905290812054819061383e5790506109db565b60405163160d2eb160e21b81526138c1903090635834bac49061386a90889088906000906004016157cf565b60206040518083038186803b15801561388257600080fd5b505afa158015613896573d6000803e3d6000fd5b505050506040513d601f19601f820116820180604052508101906138ba91906156b3565b8290614910565b60405163160d2eb160e21b81529091506138f0903090635834bac49061386a90889088906001906004016157cf565b60405163160d2eb160e21b815290915061391f903090635834bac49061386a90889088906002906004016157cf565b60405163160d2eb160e21b815290915061394e903090635834bac49061386a90889088906003906004016157cf565b6001600160a01b038086166000908152600d602090815260408083205460128352818420948916845293909152812080549394506139ab936118da929061399157fe5b9060005260206000200154846140d790919063ffffffff16565b949350505050565b601260205282600052604060002060205281600052604060002081815481106139d857fe5b9060005260206000200160009250925050505481565b6001600160a01b038083166000908152600e6020908152604080832093851683529290528181205491516346bead8960e01b815290916121559130906346bead899061292690889088906004016157b5565b600d6020526000908152604090205481565b6040516346d480dd60e11b81523090638da901ba90613a759084906004016157a1565b60206040518083038186803b158015613a8d57600080fd5b505afa158015613aa1573d6000803e3d6000fd5b505050506040513d601f19601f82011682018060405250810190613ac59190615660565b156128e257600554604051636e0cf42160e11b81526101009091046001600160a01b03169063dc19e84290613afe9084906004016157a1565b60206040518083038186803b158015613b1657600080fd5b505afa158015613b2a573d6000803e3d6000fd5b505050506040513d601f19601f82011682018060405250810190613b4e9190615660565b613b6a5760405162461bcd60e51b8152600401610eb090615c21565b806001600160a01b0316635468d6d76040518163ffffffff1660e01b815260040160206040518083038186803b158015613ba357600080fd5b505afa158015613bb7573d6000803e3d6000fd5b505050506040513d601f19601f82011682018060405250810190613bdb9190615660565b613bf75760405162461bcd60e51b8152600401610eb090615cbb565b6040516327304dfd60e01b81526001600160a01b038216906327304dfd90613c239033906004016157a1565b60206040518083038186803b158015613c3b57600080fd5b505afa158015613c4f573d6000803e3d6000fd5b505050506040513d601f19601f82011682018060405250810190613c739190615660565b80613cff5750336001600160a01b0316816001600160a01b0316633018205f6040518163ffffffff1660e01b815260040160206040518083038186803b158015613cbc57600080fd5b505afa158015613cd0573d6000803e3d6000fd5b505050506040513d601f19601f82011682018060405250810190613cf49190615230565b6001600160a01b0316145b613d1b5760405162461bcd60e51b8152600401610eb090615bde565b604051631bf52ea760e21b81526000903090636fd4ba9c90613d419085906004016157a1565b60206040518083038186803b158015613d5957600080fd5b505afa158015613d6d573d6000803e3d6000fd5b505050506040513d601f19601f82011682018060405250810190613d9191906156b3565b905060008111613db35760405162461bcd60e51b8152600401610eb090615a6a565b6001600160a01b0382166000908152600960209081526040808320805460ff19169055600f8252808320805485019055600a909152812054613df6906001614910565b6001600160a01b0384166000908152600c60205260408120805492935090918290613e1d57fe5b6000918252602090912001546001600160a01b03169050613e3c614f7a565b816001600160a01b031663313ce5676040518163ffffffff1660e01b815260040160206040518083038186803b158015613e7557600080fd5b505afa158015613e89573d6000803e3d6000fd5b505050506040513d601f19601f82011682018060405250810190613ead91906156cb565b60ff1660208201526001600160a01b038216815260408101849052613ed485338487614935565b6001600160a01b039485166000908152600a60209081526040808320869055600b825280832095835294815284822042815560019081018054808301825590845292829020845160039094020180546001600160a01b0319169390981692909217875582015190860155909101516002909301929092555050565b600e60209081526000928352604080842090915290825290205481565b6001600160a01b038116600090815260106020526040812081613f8e82614bf8565b905060005b81811015614025573063e65065d986613fac8685614c03565b6040518363ffffffff1660e01b8152600401613fc99291906157b5565b60206040518083038186803b158015613fe157600080fd5b505afa158015613ff5573d6000803e3d6000fd5b505050506040513d601f19601f8201168201806040525081019061401991906156b3565b90930192600101613f93565b505050919050565b600f6020526000908152604090205481565b600061215583836040518060400160405280601e81526020017f536166654d6174683a207375627472616374696f6e206f766572666c6f770000815250614c0f565b6112538363a9059cbb60e01b84846040516024016140a09291906157f3565b60408051601f198184030181529190526020810180516001600160e01b03166001600160e01b031990931692909217909152614c3b565b6000826140e6575060006109db565b828202828482816140f357fe5b04146121555760405162461bcd60e51b8152600401610eb090615c53565b600061215583836040518060400160405280601a815260200179536166654d6174683a206469766973696f6e206279207a65726f60301b815250614d26565b8051516000908310801590614169575060208201515183105b1561417a57508051602001516109db565b6020820151518310801590614193575060408201515183105b156141a6575060208082015101516109db565b60408201515183108015906141bf575060608201515183105b156141d357506040810151602001516109db565b60608201515183106141ee57506060810151602001516109db565b50600092915050565b6000813f7fc5d2460186f7233c927e7db2dcc703c0e500b653ca82273b7bfad8045d85a4708181148015906139ab575050151592915050565b60608061423b614e42565b6001600160a01b0385166000908152600860209081526040918290208251815461012093810282018401909452610100810184815290939192849284918401828280156142b157602002820191906000526020600020905b81546001600160a01b03168152600190910190602001808311614293575b505050505081526020016001820180548060200260200160405190810160405280929190818152602001828054801561431357602002820191906000526020600020905b81546001600160a01b031681526001909101906020018083116142f5575b505050505081526020016002820180548060200260200160405190810160405280929190818152602001828054801561437557602002820191906000526020600020905b81546001600160a01b03168152600190910190602001808311614357575b50505050508152602001600382018054806020026020016040519081016040528092919081815260200182805480156143d757602002820191906000526020600020905b81546001600160a01b031681526001909101906020018083116143b9575b505050505081526020016004820180548060200260200160405190810160405280929190818152602001828054801561442f57602002820191906000526020600020905b81548152602001906001019080831161441b575b505050505081526020016005820180548060200260200160405190810160405280929190818152602001828054801561448757602002820191906000526020600020905b815481526020019060010190808311614473575b50505050508152602001600682018054806020026020016040519081016040528092919081815260200182805480156144df57602002820191906000526020600020905b8154815260200190600101908083116144cb575b505050505081526020016007820180548060200260200160405190810160405280929190818152602001828054801561453757602002820191906000526020600020905b815481526020019060010190808311614523575b50505050508152505090508360001415614558578051608082015190935091505b836001141561457057806020015192508060a0015191505b836002141561458857806040015192508060c0015191505b83600314156145a057806060015192508060e0015191505b509250929050565b60608087806001600160401b03811180156145c257600080fd5b506040519080825280602002602001820160405280156145ec578160200160208202803683370190505b509250806001600160401b038111801561460557600080fd5b5060405190808252806020026020018201604052801561462f578160200160208202803683370190505b5091508351600014801561464257508451155b156146d75760005b818110156146d1578a8a8281811061465e57fe5b90506020020160208101906146739190615214565b84828151811061467f57fe5b60200260200101906001600160a01b031690816001600160a01b0316815250508888828181106146ab57fe5b905060200201358382815181106146be57fe5b602090810291909101015260010161464a565b506147dd565b60005b818110156147db578a8a828181106146ee57fe5b90506020020160208101906147039190615214565b6001600160a01b031686828151811061471857fe5b60200260200101516001600160a01b031614156147d357600089898381811061473d57fe5b9050602002013590508b8b8381811061475257fe5b90506020020160208101906147679190615214565b85838151811061477357fe5b60200260200101906001600160a01b031690816001600160a01b0316815250506147b9818784815181106147a357fe5b602002602001015161491090919063ffffffff16565b8483815181106147c557fe5b602002602001018181525050505b6001016146da565b505b5097509795505050505050565b6001600160a01b0384166000908152600860205260409020836148315782516148199082906020860190614ea1565b50815161482f9060048301906020850190614f06565b505b836001141561486757825161484f9060018301906020860190614ea1565b5081516148659060058301906020850190614f06565b505b836002141561489d5782516148859060028301906020860190614ea1565b50815161489b9060068301906020850190614f06565b505b83600314156148d35782516148bb9060038301906020860190614ea1565b5081516148d19060078301906020850190614f06565b505b5050505050565b60608061215583614d5d565b6000612155836001600160a01b038416614db8565b6000612155836001600160a01b038416614dd0565b6000828201838110156121555760405162461bcd60e51b8152600401610eb090615a95565b6060846001600160a01b031663a0e67e2b6040518163ffffffff1660e01b815260040160006040518083038186803b15801561497057600080fd5b505afa158015614984573d6000803e3d6000fd5b505050506040513d6000823e601f3d908101601f191682016040526149ac9190810190615483565b90506060856001600160a01b031663309a042c6040518163ffffffff1660e01b815260040160006040518083038186803b1580156149e957600080fd5b505afa1580156149fd573d6000803e3d6000fd5b505050506040513d6000823e601f3d908101601f19168201604052614a2591908101906155dd565b90506000866001600160a01b031663d29986c16040518163ffffffff1660e01b815260040160206040518083038186803b158015614a6257600080fd5b505afa158015614a76573d6000803e3d6000fd5b505050506040513d601f19601f82011682018060405250810190614a9a91906156b3565b905060005b8351811015614bee576000614ad4836118da868581518110614abd57fe5b6020026020010151896140d790919063ffffffff16565b6001600160a01b03808b166000908152600e60209081526040808320938d168352929052908120805483019055865191925090614b2d90879085908110614b1757fe5b60200260200101516001600160a01b03166141f7565b614b4a57858381518110614b3d57fe5b6020026020010151614bce565b858381518110614b5657fe5b60200260200101516001600160a01b0316638da5cb5b6040518163ffffffff1660e01b815260040160206040518083038186803b158015614b9657600080fd5b505afa158015614baa573d6000803e3d6000fd5b505050506040513d601f19601f82011682018060405250810190614bce9190615230565b9050614be46001600160a01b0389168284614081565b5050600101614a9f565b5050505050505050565b60006109db82614e1a565b60006121558383614e1e565b60008184841115614c335760405162461bcd60e51b8152600401610eb091906159b7565b505050900390565b614c4d826001600160a01b03166141f7565b614c695760405162461bcd60e51b8152600401610eb090615d38565b60006060836001600160a01b031683604051614c859190615785565b6000604051808303816000865af19150503d8060008114614cc2576040519150601f19603f3d011682016040523d82523d6000602084013e614cc7565b606091505b509150915081614ce95760405162461bcd60e51b8152600401610eb090615b7f565b805115614d205780806020019051810190614d049190615660565b614d205760405162461bcd60e51b8152600401610eb090615cee565b50505050565b60008183614d475760405162461bcd60e51b8152600401610eb091906159b7565b506000838581614d5357fe5b0495945050505050565b6060816000018054806020026020016040519081016040528092919081815260200182805480156121c657602002820191906000526020600020905b815481526020019060010190808311614d995750505050509050919050565b60009081526001919091016020526040902054151590565b6000614ddc8383614db8565b614e12575081546001818101845560008481526020808220909301849055845484825282860190935260409020919091556109db565b5060006109db565b5490565b6000826000018281548110614e2f57fe5b9060005260206000200154905092915050565b60405180610100016040528060608152602001606081526020016060815260200160608152602001606081526020016060815260200160608152602001606081525090565b604051806040016040528060008152602001606081525090565b828054828255906000526020600020908101928215614ef6579160200282015b82811115614ef657825182546001600160a01b0319166001600160a01b03909116178255602090920191600190910190614ec1565b50614f0292915061504e565b5090565b828054828255906000526020600020908101928215614f41579160200282015b82811115614f41578251825591602001919060010190614f26565b50614f0292915061506d565b60405180602001604052806001905b614f64614f7a565b815260200190600190039081614f5c5790505090565b604051806060016040528060006001600160a01b0316815260200160008152602001600081525090565b6040518060800160405280614fb7615082565b8152602001614fc4615082565b8152602001614fd1615082565b8152602001614fde615082565b905290565b828054828255906000526020600020908101928215614ef6579160200282015b82811115614ef65781546001600160a01b0319166001600160a01b03843516178255602090920191600190910190615003565b60408051808201909152600081526060602082015290565b5b80821115614f025780546001600160a01b031916815560010161504f565b5b80821115614f02576000815560010161506e565b60405180608001604052806150956150b8565b81526020016150a26150b8565b81526020016150af6150b8565b8152602001614fde5b604051806040016040528060008152602001600081525090565b60008083601f8401126150e3578182fd5b5081356001600160401b038111156150f9578182fd5b602083019150836020808302850101111561511357600080fd5b9250929050565b600082601f83011261512a578081fd5b813561513d61513882615e93565b615e6d565b81815291506020808301908481018184028601820187101561515e57600080fd5b60005b848110156118f457813584529282019290820190600101615161565b6000610100828403121561518f578081fd5b6151996080615e6d565b90506151a583836151e3565b81526151b483604084016151e3565b60208201526151c683608084016151e3565b60408201526151d88360c084016151e3565b606082015292915050565b6000604082840312156151f4578081fd5b6151fe6040615e6d565b9050813581526020820135602082015292915050565b600060208284031215615225578081fd5b813561215581615ede565b600060208284031215615241578081fd5b815161215581615ede565b6000806040838503121561525e578081fd5b823561526981615ede565b9150602083013561527981615ede565b809150509250929050565b6000806000806000806080878903121561529c578182fd5b86356152a781615ede565b955060208701356152b781615ede565b945060408701356001600160401b03808211156152d2578384fd5b6152de8a838b016150d2565b909650945060608901359150808211156152f6578384fd5b5061530389828a016150d2565b979a9699509497509295939492505050565b600080600060608486031215615329578283fd5b833561533481615ede565b9250602084013561534481615ede565b929592945050506040919091013590565b60008060408385031215615367578182fd5b823561537281615ede565b9150602083013561527981615ef3565b600080828403610420811215615396578283fd5b83356153a181615ede565b9250610400601f19820112156153b5578182fd5b506153c06080615e6d565b6153cd856020860161517d565b81526153dd85610120860161517d565b60208201526153f085610220860161517d565b604082015261540385610320860161517d565b6060820152809150509250929050565b60008060408385031215615425578182fd5b823561543081615ede565b946020939093013593505050565b60008060008060008060808789031215615456578384fd5b863561546181615ede565b95506020870135945060408701356001600160401b03808211156152d2578586fd5b60006020808385031215615495578182fd5b82516001600160401b038111156154aa578283fd5b8301601f810185136154ba578283fd5b80516154c861513882615e93565b81815283810190838501858402850186018910156154e4578687fd5b8694505b8385101561550f5780516154fb81615ede565b8352600194909401939185019185016154e8565b50979650505050505050565b6000806040838503121561552d578182fd5b82356001600160401b0380821115615543578384fd5b818501915085601f830112615556578384fd5b813561556461513882615e93565b80828252602080830192508086018a828387028901011115615584578889fd5b8896505b848710156155af57803561559b81615ede565b845260019690960195928101928101615588565b5090965087013593505050808211156155c6578283fd5b506155d38582860161511a565b9150509250929050565b600060208083850312156155ef578182fd5b82516001600160401b03811115615604578283fd5b8301601f81018513615614578283fd5b805161562261513882615e93565b818152838101908385018584028501860189101561563e578687fd5b8694505b8385101561550f578051835260019490940193918501918501615642565b600060208284031215615671578081fd5b815161215581615ef3565b60006020828403121561568d578081fd5b815160028110612155578182fd5b6000602082840312156156ac578081fd5b5035919050565b6000602082840312156156c4578081fd5b5051919050565b6000602082840312156156dc578081fd5b815160ff81168114612155578182fd5b80516001600160a01b03168252602080820151908301526040908101519082015260600190565b6000815180845260208085019450808401835b8381101561574b5781516001600160a01b031687529582019590820190600101615726565b509495945050505050565b6000815180845260208085019450808401835b8381101561574b57815187529582019590820190600101615769565b60008251615797818460208701615eb2565b9190910192915050565b6001600160a01b0391909116815260200190565b6001600160a01b0392831681529116602082015260400190565b6001600160a01b039384168152919092166020820152604081019190915260600190565b6001600160a01b03929092168252602082015260400190565b6000602082526121556020830184615713565b60208082528251828201819052600091906040908185019080840286018301878501865b838110156158b957888303603f1901855281518051845287015187840187905280518785019081906158758183615e64565b938b01938c935091505b808310156158a4576158928285516156ec565b91508a8401935060018301925061587f565b50968901969450505090860190600101615843565b509098975050505050505050565b60608101818360005b60018110156158f5576158e48383516156ec565b9250602091909101906001016158d0565b50505092915050565b60208082528251828201819052600091906040908185019080840286018301878501865b838110156158b957888303603f19018552815180516001600160a01b0316845287015187840187905261595787850182615756565b9588019593505090860190600101615922565b6000602082526121556020830184615756565b901515815260200190565b60006020825282602083015282846040840137818301604090810191909152601f909201601f19160101919050565b60006020825282518060208401526159d6816040850160208701615eb2565b601f01601f19169190910160400192915050565b60208082526012908201527122a9292fa727aa2fa1a7a72a2927a62622a960711b604082015260600190565b6020808252601390820152724552525f4e4f545f4352505f464143544f525960681b604082015260600190565b6020808252600d908201526c22a9292fa727aa2fa7aba722a960991b604082015260600190565b60208082526011908201527011549497d21054d7d393d7d49155d05491607a1b604082015260600190565b6020808252601b908201527a536166654d6174683a206164646974696f6e206f766572666c6f7760281b604082015260600190565b6020808252600c908201526b696e697469616c697a65642160a01b604082015260600190565b6020808252601a908201527908aa4a4bea89e968a9cbe988a9c8ea890be9c9ea8be9a82a886960331b604082015260600190565b60208082526010908201526f20b2323932b9b99034b99027bbb732b960811b604082015260600190565b6020808252601790820152764552525f494e56414c49445f4b4f4c5f4144445245535360481b604082015260600190565b6020808252818101527f5361666545524332303a206c6f772d6c6576656c2063616c6c206661696c6564604082015260600190565b60208082526010908201526f4552525f5a45524f5f4144445245535360801b604082015260600190565b6020808252600990820152682737ba1027bbb732b960b91b604082015260600190565b60208082526006908201526506f776e6572560d41b604082015260600190565b6020808252601890820152774552525f494e56414c49445f504f4f4c5f4144445245535360401b604082015260600190565b60208082526021908201527f536166654d6174683a206d756c7469706c69636174696f6e206f766572666c6f6040820152607760f81b606082015260800190565b6020808252600d908201526c11549497d21054d7d4d1551151609a1b604082015260600190565b60208082526019908201527811549497d393d517d0d3d354131155115117d0d3d3131150d5603a1b604082015260600190565b6020808252602a908201527f5361666545524332303a204552433230206f7065726174696f6e20646964206e6040820152691bdd081cdd58d8d9595960b21b606082015260800190565b6020808252601f908201527f5361666545524332303a2063616c6c20746f206e6f6e2d636f6e747261637400604082015260600190565b6000602082528251610100806020850152615d8e610120850183615713565b91506020850151601f1980868503016040870152615dac8483615713565b93506040870151915080868503016060870152615dc98483615713565b93506060870151915080868503016080870152615de68483615713565b935060808701519150808685030160a0870152615e038483615756565b935060a08701519150808685030160c0870152615e208483615756565b935060c08701519150808685030160e0870152615e3d8483615756565b935060e0870151915080868503018387015250615e5a8382615756565b9695505050505050565b90815260200190565b6040518181016001600160401b0381118282101715615e8b57600080fd5b604052919050565b60006001600160401b03821115615ea8578081fd5b5060209081020190565b60005b83811015615ecd578181015183820152602001615eb5565b83811115614d205750506000910152565b6001600160a01b03811681146128e257600080fd5b80151581146128e257600080fdfea26469706673582212207118d0ac63a855d0d8be2198f88e04ac08511afea6dfcf80cc7d6a82d93d25b264736f6c634300060c0033",
  "libraries": {},
  "devdoc": {
    "author": "Desyn Labs",
    "kind": "dev",
    "methods": {
      "getController()": {
        "details": "external for gas optimization",
        "returns": {
          "_0": "address - of the owner (AKA controller)"
        }
      },
      "removeOwner(address)": {
        "details": "Allows to remove an owner. Transaction has to be sent by wallet.",
        "params": {
          "owner": "Address of owner."
        }
      },
      "setAddAdminList(address,uint256)": {
        "details": "external for gas optimization",
        "params": {
          "newOwner": "- address of new owner"
        }
      },
      "setController(address)": {
        "details": "external for gas optimization",
        "params": {
          "newOwner": "- address of new owner"
        }
      }
    },
    "title": "Vault managerFee",
    "version": 1
  },
  "userdoc": {
    "kind": "user",
    "methods": {
      "getController()": {
        "notice": "Returns the address of the current owner"
      },
      "setAddAdminList(address,uint256)": {
        "notice": "Transfers ownership of the contract to a new account (`newOwner`).         Can only be called by the current owner"
      },
      "setController(address)": {
        "notice": "Transfers ownership of the contract to a new account (`newOwner`).         Can only be called by the current owner"
      }
    },
    "version": 1
  },
  "storageLayout": {
    "storage": [
      {
        "astId": 17729,
        "contract": "contracts/deploy/UserVault.sol:UserVault",
        "label": "_owner",
        "offset": 0,
        "slot": "0",
        "type": "t_address"
      },
      {
        "astId": 17733,
        "contract": "contracts/deploy/UserVault.sol:UserVault",
        "label": "adminList",
        "offset": 0,
        "slot": "1",
        "type": "t_mapping(t_address,t_bool)"
      },
      {
        "astId": 17736,
        "contract": "contracts/deploy/UserVault.sol:UserVault",
        "label": "owners",
        "offset": 0,
        "slot": "2",
        "type": "t_array(t_address)dyn_storage"
      },
      {
        "astId": 17739,
        "contract": "contracts/deploy/UserVault.sol:UserVault",
        "label": "ownerPercentage",
        "offset": 0,
        "slot": "3",
        "type": "t_array(t_uint256)dyn_storage"
      },
      {
        "astId": 17741,
        "contract": "contracts/deploy/UserVault.sol:UserVault",
        "label": "allOwnerPercentage",
        "offset": 0,
        "slot": "4",
        "type": "t_uint256"
      },
      {
        "astId": 17743,
        "contract": "contracts/deploy/UserVault.sol:UserVault",
        "label": "initialized",
        "offset": 0,
        "slot": "5",
        "type": "t_bool"
      },
      {
        "astId": 9601,
        "contract": "contracts/deploy/UserVault.sol:UserVault",
        "label": "crpFactory",
        "offset": 1,
        "slot": "5",
        "type": "t_contract(ICRPFactory)9582"
      },
      {
        "astId": 9603,
        "contract": "contracts/deploy/UserVault.sol:UserVault",
        "label": "vaultAddress",
        "offset": 0,
        "slot": "6",
        "type": "t_address"
      },
      {
        "astId": 9666,
        "contract": "contracts/deploy/UserVault.sol:UserVault",
        "label": "poolManager",
        "offset": 0,
        "slot": "7",
        "type": "t_mapping(t_address,t_address)"
      },
      {
        "astId": 9670,
        "contract": "contracts/deploy/UserVault.sol:UserVault",
        "label": "poolsTokens",
        "offset": 0,
        "slot": "8",
        "type": "t_mapping(t_address,t_struct(PoolTokens)9647_storage)"
      },
      {
        "astId": 9674,
        "contract": "contracts/deploy/UserVault.sol:UserVault",
        "label": "poolsStatus",
        "offset": 0,
        "slot": "9",
        "type": "t_mapping(t_address,t_struct(PoolStatus)9656_storage)"
      },
      {
        "astId": 9678,
        "contract": "contracts/deploy/UserVault.sol:UserVault",
        "label": "recordNumber",
        "offset": 0,
        "slot": "10",
        "type": "t_mapping(t_address,t_uint256)"
      },
      {
        "astId": 9684,
        "contract": "contracts/deploy/UserVault.sol:UserVault",
        "label": "recordList",
        "offset": 0,
        "slot": "11",
        "type": "t_mapping(t_address,t_mapping(t_uint256,t_struct(ClaimRecordInfo)9622_storage))"
      },
      {
        "astId": 9689,
        "contract": "contracts/deploy/UserVault.sol:UserVault",
        "label": "kolTokenList",
        "offset": 0,
        "slot": "12",
        "type": "t_mapping(t_address,t_array(t_address)dyn_storage)"
      },
      {
        "astId": 9693,
        "contract": "contracts/deploy/UserVault.sol:UserVault",
        "label": "initTotalAmountList",
        "offset": 0,
        "slot": "13",
        "type": "t_mapping(t_address,t_uint256)"
      },
      {
        "astId": 9699,
        "contract": "contracts/deploy/UserVault.sol:UserVault",
        "label": "managerClaimedList",
        "offset": 0,
        "slot": "14",
        "type": "t_mapping(t_address,t_mapping(t_address,t_uint256))"
      },
      {
        "astId": 9703,
        "contract": "contracts/deploy/UserVault.sol:UserVault",
        "label": "poolManangerHasClaimed",
        "offset": 0,
        "slot": "15",
        "type": "t_mapping(t_address,t_uint256)"
      },
      {
        "astId": 9707,
        "contract": "contracts/deploy/UserVault.sol:UserVault",
        "label": "kolsList",
        "offset": 0,
        "slot": "16",
        "type": "t_mapping(t_address,t_struct(AddressSet)15412_storage)"
      },
      {
        "astId": 9713,
        "contract": "contracts/deploy/UserVault.sol:UserVault",
        "label": "kolClaimedList",
        "offset": 0,
        "slot": "17",
        "type": "t_mapping(t_address,t_mapping(t_address,t_uint256))"
      },
      {
        "astId": 9720,
        "contract": "contracts/deploy/UserVault.sol:UserVault",
        "label": "kolTotalAmountList",
        "offset": 0,
        "slot": "18",
        "type": "t_mapping(t_address,t_mapping(t_address,t_array(t_uint256)dyn_storage))"
      },
      {
        "astId": 9727,
        "contract": "contracts/deploy/UserVault.sol:UserVault",
        "label": "kolUserInfo",
        "offset": 0,
        "slot": "19",
        "type": "t_mapping(t_address,t_mapping(t_address,t_array(t_struct(KolUserInfo)9662_storage)dyn_storage))"
      },
      {
        "astId": 9733,
        "contract": "contracts/deploy/UserVault.sol:UserVault",
        "label": "userIndexList",
        "offset": 0,
        "slot": "20",
        "type": "t_mapping(t_address,t_mapping(t_address,t_uint256))"
      },
      {
        "astId": 9739,
        "contract": "contracts/deploy/UserVault.sol:UserVault",
        "label": "userKolList",
        "offset": 0,
        "slot": "21",
        "type": "t_mapping(t_address,t_mapping(t_address,t_address))"
      },
      {
        "astId": 9742,
        "contract": "contracts/deploy/UserVault.sol:UserVault",
        "label": "RATIO_TOTAL",
        "offset": 0,
        "slot": "22",
        "type": "t_uint256"
      }
    ],
    "types": {
      "t_address": {
        "encoding": "inplace",
        "label": "address",
        "numberOfBytes": "20"
      },
      "t_array(t_address)dyn_storage": {
        "base": "t_address",
        "encoding": "dynamic_array",
        "label": "address[]",
        "numberOfBytes": "32"
      },
      "t_array(t_bytes32)dyn_storage": {
        "base": "t_bytes32",
        "encoding": "dynamic_array",
        "label": "bytes32[]",
        "numberOfBytes": "32"
      },
      "t_array(t_struct(ClaimTokenInfo)9616_storage)dyn_storage": {
        "base": "t_struct(ClaimTokenInfo)9616_storage",
        "encoding": "dynamic_array",
        "label": "struct UserVault.ClaimTokenInfo[]",
        "numberOfBytes": "32"
      },
      "t_array(t_struct(KolUserInfo)9662_storage)dyn_storage": {
        "base": "t_struct(KolUserInfo)9662_storage",
        "encoding": "dynamic_array",
        "label": "struct UserVault.KolUserInfo[]",
        "numberOfBytes": "32"
      },
      "t_array(t_uint256)dyn_storage": {
        "base": "t_uint256",
        "encoding": "dynamic_array",
        "label": "uint256[]",
        "numberOfBytes": "32"
      },
      "t_bool": {
        "encoding": "inplace",
        "label": "bool",
        "numberOfBytes": "1"
      },
      "t_bytes32": {
        "encoding": "inplace",
        "label": "bytes32",
        "numberOfBytes": "32"
      },
      "t_contract(ICRPFactory)9582": {
        "encoding": "inplace",
        "label": "contract ICRPFactory",
        "numberOfBytes": "20"
      },
      "t_mapping(t_address,t_address)": {
        "encoding": "mapping",
        "key": "t_address",
        "label": "mapping(address => address)",
        "numberOfBytes": "32",
        "value": "t_address"
      },
      "t_mapping(t_address,t_array(t_address)dyn_storage)": {
        "encoding": "mapping",
        "key": "t_address",
        "label": "mapping(address => address[])",
        "numberOfBytes": "32",
        "value": "t_array(t_address)dyn_storage"
      },
      "t_mapping(t_address,t_array(t_struct(KolUserInfo)9662_storage)dyn_storage)": {
        "encoding": "mapping",
        "key": "t_address",
        "label": "mapping(address => struct UserVault.KolUserInfo[])",
        "numberOfBytes": "32",
        "value": "t_array(t_struct(KolUserInfo)9662_storage)dyn_storage"
      },
      "t_mapping(t_address,t_array(t_uint256)dyn_storage)": {
        "encoding": "mapping",
        "key": "t_address",
        "label": "mapping(address => uint256[])",
        "numberOfBytes": "32",
        "value": "t_array(t_uint256)dyn_storage"
      },
      "t_mapping(t_address,t_bool)": {
        "encoding": "mapping",
        "key": "t_address",
        "label": "mapping(address => bool)",
        "numberOfBytes": "32",
        "value": "t_bool"
      },
      "t_mapping(t_address,t_mapping(t_address,t_address))": {
        "encoding": "mapping",
        "key": "t_address",
        "label": "mapping(address => mapping(address => address))",
        "numberOfBytes": "32",
        "value": "t_mapping(t_address,t_address)"
      },
      "t_mapping(t_address,t_mapping(t_address,t_array(t_struct(KolUserInfo)9662_storage)dyn_storage))": {
        "encoding": "mapping",
        "key": "t_address",
        "label": "mapping(address => mapping(address => struct UserVault.KolUserInfo[]))",
        "numberOfBytes": "32",
        "value": "t_mapping(t_address,t_array(t_struct(KolUserInfo)9662_storage)dyn_storage)"
      },
      "t_mapping(t_address,t_mapping(t_address,t_array(t_uint256)dyn_storage))": {
        "encoding": "mapping",
        "key": "t_address",
        "label": "mapping(address => mapping(address => uint256[]))",
        "numberOfBytes": "32",
        "value": "t_mapping(t_address,t_array(t_uint256)dyn_storage)"
      },
      "t_mapping(t_address,t_mapping(t_address,t_uint256))": {
        "encoding": "mapping",
        "key": "t_address",
        "label": "mapping(address => mapping(address => uint256))",
        "numberOfBytes": "32",
        "value": "t_mapping(t_address,t_uint256)"
      },
      "t_mapping(t_address,t_mapping(t_uint256,t_struct(ClaimRecordInfo)9622_storage))": {
        "encoding": "mapping",
        "key": "t_address",
        "label": "mapping(address => mapping(uint256 => struct UserVault.ClaimRecordInfo))",
        "numberOfBytes": "32",
        "value": "t_mapping(t_uint256,t_struct(ClaimRecordInfo)9622_storage)"
      },
      "t_mapping(t_address,t_struct(AddressSet)15412_storage)": {
        "encoding": "mapping",
        "key": "t_address",
        "label": "mapping(address => struct EnumerableSet.AddressSet)",
        "numberOfBytes": "32",
        "value": "t_struct(AddressSet)15412_storage"
      },
      "t_mapping(t_address,t_struct(PoolStatus)9656_storage)": {
        "encoding": "mapping",
        "key": "t_address",
        "label": "mapping(address => struct UserVault.PoolStatus)",
        "numberOfBytes": "32",
        "value": "t_struct(PoolStatus)9656_storage"
      },
      "t_mapping(t_address,t_struct(PoolTokens)9647_storage)": {
        "encoding": "mapping",
        "key": "t_address",
        "label": "mapping(address => struct UserVault.PoolTokens)",
        "numberOfBytes": "32",
        "value": "t_struct(PoolTokens)9647_storage"
      },
      "t_mapping(t_address,t_uint256)": {
        "encoding": "mapping",
        "key": "t_address",
        "label": "mapping(address => uint256)",
        "numberOfBytes": "32",
        "value": "t_uint256"
      },
      "t_mapping(t_bytes32,t_uint256)": {
        "encoding": "mapping",
        "key": "t_bytes32",
        "label": "mapping(bytes32 => uint256)",
        "numberOfBytes": "32",
        "value": "t_uint256"
      },
      "t_mapping(t_uint256,t_struct(ClaimRecordInfo)9622_storage)": {
        "encoding": "mapping",
        "key": "t_uint256",
        "label": "mapping(uint256 => struct UserVault.ClaimRecordInfo)",
        "numberOfBytes": "32",
        "value": "t_struct(ClaimRecordInfo)9622_storage"
      },
      "t_struct(AddressSet)15412_storage": {
        "encoding": "inplace",
        "label": "struct EnumerableSet.AddressSet",
        "members": [
          {
            "astId": 15411,
            "contract": "contracts/deploy/UserVault.sol:UserVault",
            "label": "_inner",
            "offset": 0,
            "slot": "0",
            "type": "t_struct(Set)15225_storage"
          }
        ],
        "numberOfBytes": "64"
      },
      "t_struct(ClaimRecordInfo)9622_storage": {
        "encoding": "inplace",
        "label": "struct UserVault.ClaimRecordInfo",
        "members": [
          {
            "astId": 9618,
            "contract": "contracts/deploy/UserVault.sol:UserVault",
            "label": "time",
            "offset": 0,
            "slot": "0",
            "type": "t_uint256"
          },
          {
            "astId": 9621,
            "contract": "contracts/deploy/UserVault.sol:UserVault",
            "label": "tokens",
            "offset": 0,
            "slot": "1",
            "type": "t_array(t_struct(ClaimTokenInfo)9616_storage)dyn_storage"
          }
        ],
        "numberOfBytes": "64"
      },
      "t_struct(ClaimTokenInfo)9616_storage": {
        "encoding": "inplace",
        "label": "struct UserVault.ClaimTokenInfo",
        "members": [
          {
            "astId": 9611,
            "contract": "contracts/deploy/UserVault.sol:UserVault",
            "label": "token",
            "offset": 0,
            "slot": "0",
            "type": "t_address"
          },
          {
            "astId": 9613,
            "contract": "contracts/deploy/UserVault.sol:UserVault",
            "label": "decimals",
            "offset": 0,
            "slot": "1",
            "type": "t_uint256"
          },
          {
            "astId": 9615,
            "contract": "contracts/deploy/UserVault.sol:UserVault",
            "label": "amount",
            "offset": 0,
            "slot": "2",
            "type": "t_uint256"
          }
        ],
        "numberOfBytes": "96"
      },
      "t_struct(KolPoolParams)16229_storage": {
        "encoding": "inplace",
        "label": "struct SmartPoolManager.KolPoolParams",
        "members": [
          {
            "astId": 16222,
            "contract": "contracts/deploy/UserVault.sol:UserVault",
            "label": "managerFee",
            "offset": 0,
            "slot": "0",
            "type": "t_struct(feeParams)16220_storage"
          },
          {
            "astId": 16224,
            "contract": "contracts/deploy/UserVault.sol:UserVault",
            "label": "issueFee",
            "offset": 0,
            "slot": "8",
            "type": "t_struct(feeParams)16220_storage"
          },
          {
            "astId": 16226,
            "contract": "contracts/deploy/UserVault.sol:UserVault",
            "label": "redeemFee",
            "offset": 0,
            "slot": "16",
            "type": "t_struct(feeParams)16220_storage"
          },
          {
            "astId": 16228,
            "contract": "contracts/deploy/UserVault.sol:UserVault",
            "label": "perfermanceFee",
            "offset": 0,
            "slot": "24",
            "type": "t_struct(feeParams)16220_storage"
          }
        ],
        "numberOfBytes": "1024"
      },
      "t_struct(KolUserInfo)9662_storage": {
        "encoding": "inplace",
        "label": "struct UserVault.KolUserInfo",
        "members": [
          {
            "astId": 9658,
            "contract": "contracts/deploy/UserVault.sol:UserVault",
            "label": "userAdr",
            "offset": 0,
            "slot": "0",
            "type": "t_address"
          },
          {
            "astId": 9661,
            "contract": "contracts/deploy/UserVault.sol:UserVault",
            "label": "userAmount",
            "offset": 0,
            "slot": "1",
            "type": "t_array(t_uint256)dyn_storage"
          }
        ],
        "numberOfBytes": "64"
      },
      "t_struct(PoolStatus)9656_storage": {
        "encoding": "inplace",
        "label": "struct UserVault.PoolStatus",
        "members": [
          {
            "astId": 9649,
            "contract": "contracts/deploy/UserVault.sol:UserVault",
            "label": "couldManagerClaim",
            "offset": 0,
            "slot": "0",
            "type": "t_bool"
          },
          {
            "astId": 9651,
            "contract": "contracts/deploy/UserVault.sol:UserVault",
            "label": "isBlackList",
            "offset": 1,
            "slot": "0",
            "type": "t_bool"
          },
          {
            "astId": 9653,
            "contract": "contracts/deploy/UserVault.sol:UserVault",
            "label": "isSetParams",
            "offset": 2,
            "slot": "0",
            "type": "t_bool"
          },
          {
            "astId": 9655,
            "contract": "contracts/deploy/UserVault.sol:UserVault",
            "label": "kolPoolConfig",
            "offset": 0,
            "slot": "1",
            "type": "t_struct(KolPoolParams)16229_storage"
          }
        ],
        "numberOfBytes": "1056"
      },
      "t_struct(PoolTokens)9647_storage": {
        "encoding": "inplace",
        "label": "struct UserVault.PoolTokens",
        "members": [
          {
            "astId": 9625,
            "contract": "contracts/deploy/UserVault.sol:UserVault",
            "label": "tokenList",
            "offset": 0,
            "slot": "0",
            "type": "t_array(t_address)dyn_storage"
          },
          {
            "astId": 9628,
            "contract": "contracts/deploy/UserVault.sol:UserVault",
            "label": "issueTokens",
            "offset": 0,
            "slot": "1",
            "type": "t_array(t_address)dyn_storage"
          },
          {
            "astId": 9631,
            "contract": "contracts/deploy/UserVault.sol:UserVault",
            "label": "redeemTokens",
            "offset": 0,
            "slot": "2",
            "type": "t_array(t_address)dyn_storage"
          },
          {
            "astId": 9634,
            "contract": "contracts/deploy/UserVault.sol:UserVault",
            "label": "perfermanceTokens",
            "offset": 0,
            "slot": "3",
            "type": "t_array(t_address)dyn_storage"
          },
          {
            "astId": 9637,
            "contract": "contracts/deploy/UserVault.sol:UserVault",
            "label": "managerAmount",
            "offset": 0,
            "slot": "4",
            "type": "t_array(t_uint256)dyn_storage"
          },
          {
            "astId": 9640,
            "contract": "contracts/deploy/UserVault.sol:UserVault",
            "label": "issueAmount",
            "offset": 0,
            "slot": "5",
            "type": "t_array(t_uint256)dyn_storage"
          },
          {
            "astId": 9643,
            "contract": "contracts/deploy/UserVault.sol:UserVault",
            "label": "redeemAmount",
            "offset": 0,
            "slot": "6",
            "type": "t_array(t_uint256)dyn_storage"
          },
          {
            "astId": 9646,
            "contract": "contracts/deploy/UserVault.sol:UserVault",
            "label": "perfermanceAmount",
            "offset": 0,
            "slot": "7",
            "type": "t_array(t_uint256)dyn_storage"
          }
        ],
        "numberOfBytes": "256"
      },
      "t_struct(Set)15225_storage": {
        "encoding": "inplace",
        "label": "struct EnumerableSet.Set",
        "members": [
          {
            "astId": 15220,
            "contract": "contracts/deploy/UserVault.sol:UserVault",
            "label": "_values",
            "offset": 0,
            "slot": "0",
            "type": "t_array(t_bytes32)dyn_storage"
          },
          {
            "astId": 15224,
            "contract": "contracts/deploy/UserVault.sol:UserVault",
            "label": "_indexes",
            "offset": 0,
            "slot": "1",
            "type": "t_mapping(t_bytes32,t_uint256)"
          }
        ],
        "numberOfBytes": "64"
      },
      "t_struct(feeParams)16220_storage": {
        "encoding": "inplace",
        "label": "struct SmartPoolManager.feeParams",
        "members": [
          {
            "astId": 16213,
            "contract": "contracts/deploy/UserVault.sol:UserVault",
            "label": "firstLevel",
            "offset": 0,
            "slot": "0",
            "type": "t_struct(levelParams)16211_storage"
          },
          {
            "astId": 16215,
            "contract": "contracts/deploy/UserVault.sol:UserVault",
            "label": "secondLevel",
            "offset": 0,
            "slot": "2",
            "type": "t_struct(levelParams)16211_storage"
          },
          {
            "astId": 16217,
            "contract": "contracts/deploy/UserVault.sol:UserVault",
            "label": "thirdLevel",
            "offset": 0,
            "slot": "4",
            "type": "t_struct(levelParams)16211_storage"
          },
          {
            "astId": 16219,
            "contract": "contracts/deploy/UserVault.sol:UserVault",
            "label": "fourLevel",
            "offset": 0,
            "slot": "6",
            "type": "t_struct(levelParams)16211_storage"
          }
        ],
        "numberOfBytes": "256"
      },
      "t_struct(levelParams)16211_storage": {
        "encoding": "inplace",
        "label": "struct SmartPoolManager.levelParams",
        "members": [
          {
            "astId": 16208,
            "contract": "contracts/deploy/UserVault.sol:UserVault",
            "label": "level",
            "offset": 0,
            "slot": "0",
            "type": "t_uint256"
          },
          {
            "astId": 16210,
            "contract": "contracts/deploy/UserVault.sol:UserVault",
            "label": "ratio",
            "offset": 0,
            "slot": "1",
            "type": "t_uint256"
          }
        ],
        "numberOfBytes": "64"
      },
      "t_uint256": {
        "encoding": "inplace",
        "label": "uint256",
        "numberOfBytes": "32"
      }
    }
  }
}