{
  "address": "0x8F2B77167400138276D1fC552755d1F16c73599c",
  "abi": [
    {
      "anonymous": false,
      "inputs": [
        {
          "indexed": true,
          "internalType": "address",
          "name": "caller",
          "type": "address"
        },
        {
          "indexed": true,
          "internalType": "address",
          "name": "kol",
          "type": "address"
        },
        {
          "indexed": false,
          "internalType": "address",
          "name": "token",
          "type": "address"
        },
        {
          "indexed": false,
          "internalType": "uint256",
          "name": "amount",
          "type": "uint256"
        },
        {
          "indexed": false,
          "internalType": "uint256",
          "name": "time",
          "type": "uint256"
        }
      ],
      "name": "KolClaim",
      "type": "event"
    },
    {
      "anonymous": true,
      "inputs": [
        {
          "indexed": true,
          "internalType": "bytes4",
          "name": "sig",
          "type": "bytes4"
        },
        {
          "indexed": true,
          "internalType": "address",
          "name": "caller",
          "type": "address"
        },
        {
          "indexed": false,
          "internalType": "bytes",
          "name": "data",
          "type": "bytes"
        }
      ],
      "name": "LOG_CALL",
      "type": "event"
    },
    {
      "anonymous": false,
      "inputs": [
        {
          "indexed": true,
          "internalType": "address",
          "name": "caller",
          "type": "address"
        },
        {
          "indexed": true,
          "internalType": "address",
          "name": "manager",
          "type": "address"
        },
        {
          "indexed": false,
          "internalType": "address",
          "name": "token",
          "type": "address"
        },
        {
          "indexed": false,
          "internalType": "uint256",
          "name": "amount",
          "type": "uint256"
        },
        {
          "indexed": false,
          "internalType": "uint256",
          "name": "time",
          "type": "uint256"
        }
      ],
      "name": "ManagerClaim",
      "type": "event"
    },
    {
      "anonymous": false,
      "inputs": [
        {
          "indexed": true,
          "internalType": "address",
          "name": "caller",
          "type": "address"
        },
        {
          "indexed": true,
          "internalType": "address",
          "name": "pool",
          "type": "address"
        },
        {
          "indexed": false,
          "internalType": "address",
          "name": "token",
          "type": "address"
        },
        {
          "indexed": false,
          "internalType": "uint256",
          "name": "amount",
          "type": "uint256"
        },
        {
          "indexed": false,
          "internalType": "uint256",
          "name": "time",
          "type": "uint256"
        }
      ],
      "name": "ManagersClaim",
      "type": "event"
    },
    {
      "anonymous": false,
      "inputs": [
        {
          "indexed": true,
          "internalType": "address",
          "name": "previousOwner",
          "type": "address"
        },
        {
          "indexed": true,
          "internalType": "address",
          "name": "newOwner",
          "type": "address"
        }
      ],
      "name": "OwnershipTransferred",
      "type": "event"
    },
    {
      "anonymous": false,
      "inputs": [
        {
          "indexed": true,
          "internalType": "address",
          "name": "pool",
          "type": "address"
        },
        {
          "indexed": false,
          "internalType": "uint256",
          "name": "types",
          "type": "uint256"
        },
        {
          "indexed": false,
          "internalType": "address",
          "name": "caller",
          "type": "address"
        },
        {
          "indexed": false,
          "internalType": "address",
          "name": "token",
          "type": "address"
        },
        {
          "indexed": false,
          "internalType": "uint256",
          "name": "balance",
          "type": "uint256"
        }
      ],
      "name": "TypeAmountIn",
      "type": "event"
    },
    {
      "inputs": [],
      "name": "claimEther",
      "outputs": [],
      "stateMutability": "payable",
      "type": "function"
    },
    {
      "inputs": [
        {
          "internalType": "address",
          "name": "token",
          "type": "address"
        },
        {
          "internalType": "address",
          "name": "user",
          "type": "address"
        },
        {
          "internalType": "uint256",
          "name": "amount",
          "type": "uint256"
        }
      ],
      "name": "claimToken",
      "outputs": [],
      "stateMutability": "nonpayable",
      "type": "function"
    },
    {
      "inputs": [
        {
          "internalType": "address",
          "name": "pool",
          "type": "address"
        },
        {
          "internalType": "uint256",
          "name": "types",
          "type": "uint256"
        },
        {
          "internalType": "address[]",
          "name": "tokensIn",
          "type": "address[]"
        },
        {
          "internalType": "uint256[]",
          "name": "amountsIn",
          "type": "uint256[]"
        }
      ],
      "name": "depositToken",
      "outputs": [],
      "stateMutability": "nonpayable",
      "type": "function"
    },
    {
      "inputs": [
        {
          "internalType": "address",
          "name": "pool",
          "type": "address"
        },
        {
          "internalType": "address",
          "name": "kol",
          "type": "address"
        }
      ],
      "name": "getKolFeeType",
      "outputs": [
        {
          "components": [
            {
              "internalType": "address[]",
              "name": "tokenList",
              "type": "address[]"
            },
            {
              "internalType": "uint256[]",
              "name": "managerAmount",
              "type": "uint256[]"
            },
            {
              "internalType": "uint256[]",
              "name": "issueAmount",
              "type": "uint256[]"
            },
            {
              "internalType": "uint256[]",
              "name": "redeemAmount",
              "type": "uint256[]"
            },
            {
              "internalType": "uint256[]",
              "name": "perfermanceAmount",
              "type": "uint256[]"
            }
          ],
          "internalType": "struct UserVault.PoolTokens",
          "name": "result",
          "type": "tuple"
        }
      ],
      "stateMutability": "view",
      "type": "function"
    },
    {
      "inputs": [
        {
          "internalType": "address",
          "name": "pool",
          "type": "address"
        },
        {
          "internalType": "address",
          "name": "kol",
          "type": "address"
        }
      ],
      "name": "getKolHasClaimed",
      "outputs": [
        {
          "components": [
            {
              "internalType": "address[]",
              "name": "tokens",
              "type": "address[]"
            },
            {
              "internalType": "uint256[]",
              "name": "amounts",
              "type": "uint256[]"
            }
          ],
          "internalType": "struct UserVault.ClaimTokens",
          "name": "",
          "type": "tuple"
        }
      ],
      "stateMutability": "view",
      "type": "function"
    },
    {
      "inputs": [
        {
          "internalType": "address",
          "name": "pool",
          "type": "address"
        },
        {
          "internalType": "address",
          "name": "kol",
          "type": "address"
        }
      ],
      "name": "getKolReward",
      "outputs": [
        {
          "internalType": "address[]",
          "name": "",
          "type": "address[]"
        },
        {
          "internalType": "uint256[]",
          "name": "",
          "type": "uint256[]"
        }
      ],
      "stateMutability": "view",
      "type": "function"
    },
    {
      "inputs": [
        {
          "internalType": "address",
          "name": "pool",
          "type": "address"
        },
        {
          "internalType": "address",
          "name": "kol",
          "type": "address"
        }
      ],
      "name": "getKolUserInfo",
      "outputs": [
        {
          "components": [
            {
              "internalType": "address",
              "name": "userAdr",
              "type": "address"
            },
            {
              "internalType": "uint256[]",
              "name": "userAmount",
              "type": "uint256[]"
            }
          ],
          "internalType": "struct UserVault.KolUserInfo[]",
          "name": "",
          "type": "tuple[]"
        }
      ],
      "stateMutability": "view",
      "type": "function"
    },
    {
      "inputs": [
        {
          "internalType": "address",
          "name": "pool",
          "type": "address"
        }
      ],
      "name": "getKolsAdr",
      "outputs": [
        {
          "internalType": "address[]",
          "name": "",
          "type": "address[]"
        }
      ],
      "stateMutability": "view",
      "type": "function"
    },
    {
      "inputs": [
        {
          "internalType": "address",
          "name": "pool",
          "type": "address"
        }
      ],
      "name": "getKolsReward",
      "outputs": [
        {
          "internalType": "address[]",
          "name": "",
          "type": "address[]"
        },
        {
          "internalType": "uint256[]",
          "name": "",
          "type": "uint256[]"
        }
      ],
      "stateMutability": "view",
      "type": "function"
    },
    {
      "inputs": [
        {
          "internalType": "address",
          "name": "pool",
          "type": "address"
        }
      ],
      "name": "getManageHasClaimed",
      "outputs": [
        {
          "components": [
            {
              "internalType": "address[]",
              "name": "tokens",
              "type": "address[]"
            },
            {
              "internalType": "uint256[]",
              "name": "amounts",
              "type": "uint256[]"
            }
          ],
          "internalType": "struct UserVault.ClaimTokens",
          "name": "",
          "type": "tuple"
        }
      ],
      "stateMutability": "view",
      "type": "function"
    },
    {
      "inputs": [
        {
          "internalType": "address",
          "name": "pool",
          "type": "address"
        }
      ],
      "name": "getManagerFeeTypes",
      "outputs": [
        {
          "components": [
            {
              "internalType": "address[]",
              "name": "tokenList",
              "type": "address[]"
            },
            {
              "internalType": "uint256[]",
              "name": "managerAmount",
              "type": "uint256[]"
            },
            {
              "internalType": "uint256[]",
              "name": "issueAmount",
              "type": "uint256[]"
            },
            {
              "internalType": "uint256[]",
              "name": "redeemAmount",
              "type": "uint256[]"
            },
            {
              "internalType": "uint256[]",
              "name": "perfermanceAmount",
              "type": "uint256[]"
            }
          ],
          "internalType": "struct UserVault.PoolTokens",
          "name": "result",
          "type": "tuple"
        }
      ],
      "stateMutability": "view",
      "type": "function"
    },
    {
      "inputs": [
        {
          "internalType": "address",
          "name": "pool",
          "type": "address"
        }
      ],
      "name": "getManagerReward",
      "outputs": [
        {
          "internalType": "address[]",
          "name": "",
          "type": "address[]"
        },
        {
          "internalType": "uint256[]",
          "name": "",
          "type": "uint256[]"
        }
      ],
      "stateMutability": "view",
      "type": "function"
    },
    {
      "inputs": [
        {
          "internalType": "address",
          "name": "pool",
          "type": "address"
        }
      ],
      "name": "getPoolConfig",
      "outputs": [
        {
          "components": [
            {
              "components": [
                {
                  "components": [
                    {
                      "internalType": "uint256",
                      "name": "level",
                      "type": "uint256"
                    },
                    {
                      "internalType": "uint256",
                      "name": "ratio",
                      "type": "uint256"
                    }
                  ],
                  "internalType": "struct SmartPoolManager.levelParams",
                  "name": "firstLevel",
                  "type": "tuple"
                },
                {
                  "components": [
                    {
                      "internalType": "uint256",
                      "name": "level",
                      "type": "uint256"
                    },
                    {
                      "internalType": "uint256",
                      "name": "ratio",
                      "type": "uint256"
                    }
                  ],
                  "internalType": "struct SmartPoolManager.levelParams",
                  "name": "secondLevel",
                  "type": "tuple"
                },
                {
                  "components": [
                    {
                      "internalType": "uint256",
                      "name": "level",
                      "type": "uint256"
                    },
                    {
                      "internalType": "uint256",
                      "name": "ratio",
                      "type": "uint256"
                    }
                  ],
                  "internalType": "struct SmartPoolManager.levelParams",
                  "name": "thirdLevel",
                  "type": "tuple"
                },
                {
                  "components": [
                    {
                      "internalType": "uint256",
                      "name": "level",
                      "type": "uint256"
                    },
                    {
                      "internalType": "uint256",
                      "name": "ratio",
                      "type": "uint256"
                    }
                  ],
                  "internalType": "struct SmartPoolManager.levelParams",
                  "name": "fourLevel",
                  "type": "tuple"
                }
              ],
              "internalType": "struct SmartPoolManager.feeParams",
              "name": "managerFee",
              "type": "tuple"
            },
            {
              "components": [
                {
                  "components": [
                    {
                      "internalType": "uint256",
                      "name": "level",
                      "type": "uint256"
                    },
                    {
                      "internalType": "uint256",
                      "name": "ratio",
                      "type": "uint256"
                    }
                  ],
                  "internalType": "struct SmartPoolManager.levelParams",
                  "name": "firstLevel",
                  "type": "tuple"
                },
                {
                  "components": [
                    {
                      "internalType": "uint256",
                      "name": "level",
                      "type": "uint256"
                    },
                    {
                      "internalType": "uint256",
                      "name": "ratio",
                      "type": "uint256"
                    }
                  ],
                  "internalType": "struct SmartPoolManager.levelParams",
                  "name": "secondLevel",
                  "type": "tuple"
                },
                {
                  "components": [
                    {
                      "internalType": "uint256",
                      "name": "level",
                      "type": "uint256"
                    },
                    {
                      "internalType": "uint256",
                      "name": "ratio",
                      "type": "uint256"
                    }
                  ],
                  "internalType": "struct SmartPoolManager.levelParams",
                  "name": "thirdLevel",
                  "type": "tuple"
                },
                {
                  "components": [
                    {
                      "internalType": "uint256",
                      "name": "level",
                      "type": "uint256"
                    },
                    {
                      "internalType": "uint256",
                      "name": "ratio",
                      "type": "uint256"
                    }
                  ],
                  "internalType": "struct SmartPoolManager.levelParams",
                  "name": "fourLevel",
                  "type": "tuple"
                }
              ],
              "internalType": "struct SmartPoolManager.feeParams",
              "name": "issueFee",
              "type": "tuple"
            },
            {
              "components": [
                {
                  "components": [
                    {
                      "internalType": "uint256",
                      "name": "level",
                      "type": "uint256"
                    },
                    {
                      "internalType": "uint256",
                      "name": "ratio",
                      "type": "uint256"
                    }
                  ],
                  "internalType": "struct SmartPoolManager.levelParams",
                  "name": "firstLevel",
                  "type": "tuple"
                },
                {
                  "components": [
                    {
                      "internalType": "uint256",
                      "name": "level",
                      "type": "uint256"
                    },
                    {
                      "internalType": "uint256",
                      "name": "ratio",
                      "type": "uint256"
                    }
                  ],
                  "internalType": "struct SmartPoolManager.levelParams",
                  "name": "secondLevel",
                  "type": "tuple"
                },
                {
                  "components": [
                    {
                      "internalType": "uint256",
                      "name": "level",
                      "type": "uint256"
                    },
                    {
                      "internalType": "uint256",
                      "name": "ratio",
                      "type": "uint256"
                    }
                  ],
                  "internalType": "struct SmartPoolManager.levelParams",
                  "name": "thirdLevel",
                  "type": "tuple"
                },
                {
                  "components": [
                    {
                      "internalType": "uint256",
                      "name": "level",
                      "type": "uint256"
                    },
                    {
                      "internalType": "uint256",
                      "name": "ratio",
                      "type": "uint256"
                    }
                  ],
                  "internalType": "struct SmartPoolManager.levelParams",
                  "name": "fourLevel",
                  "type": "tuple"
                }
              ],
              "internalType": "struct SmartPoolManager.feeParams",
              "name": "redeemFee",
              "type": "tuple"
            },
            {
              "components": [
                {
                  "components": [
                    {
                      "internalType": "uint256",
                      "name": "level",
                      "type": "uint256"
                    },
                    {
                      "internalType": "uint256",
                      "name": "ratio",
                      "type": "uint256"
                    }
                  ],
                  "internalType": "struct SmartPoolManager.levelParams",
                  "name": "firstLevel",
                  "type": "tuple"
                },
                {
                  "components": [
                    {
                      "internalType": "uint256",
                      "name": "level",
                      "type": "uint256"
                    },
                    {
                      "internalType": "uint256",
                      "name": "ratio",
                      "type": "uint256"
                    }
                  ],
                  "internalType": "struct SmartPoolManager.levelParams",
                  "name": "secondLevel",
                  "type": "tuple"
                },
                {
                  "components": [
                    {
                      "internalType": "uint256",
                      "name": "level",
                      "type": "uint256"
                    },
                    {
                      "internalType": "uint256",
                      "name": "ratio",
                      "type": "uint256"
                    }
                  ],
                  "internalType": "struct SmartPoolManager.levelParams",
                  "name": "thirdLevel",
                  "type": "tuple"
                },
                {
                  "components": [
                    {
                      "internalType": "uint256",
                      "name": "level",
                      "type": "uint256"
                    },
                    {
                      "internalType": "uint256",
                      "name": "ratio",
                      "type": "uint256"
                    }
                  ],
                  "internalType": "struct SmartPoolManager.levelParams",
                  "name": "fourLevel",
                  "type": "tuple"
                }
              ],
              "internalType": "struct SmartPoolManager.feeParams",
              "name": "perfermanceFee",
              "type": "tuple"
            }
          ],
          "internalType": "struct SmartPoolManager.KolPoolParams",
          "name": "",
          "type": "tuple"
        }
      ],
      "stateMutability": "view",
      "type": "function"
    },
    {
      "inputs": [
        {
          "internalType": "address",
          "name": "pool",
          "type": "address"
        }
      ],
      "name": "getPoolFeeTypes",
      "outputs": [
        {
          "components": [
            {
              "internalType": "address[]",
              "name": "tokenList",
              "type": "address[]"
            },
            {
              "internalType": "uint256[]",
              "name": "managerAmount",
              "type": "uint256[]"
            },
            {
              "internalType": "uint256[]",
              "name": "issueAmount",
              "type": "uint256[]"
            },
            {
              "internalType": "uint256[]",
              "name": "redeemAmount",
              "type": "uint256[]"
            },
            {
              "internalType": "uint256[]",
              "name": "perfermanceAmount",
              "type": "uint256[]"
            }
          ],
          "internalType": "struct UserVault.PoolTokens",
          "name": "result",
          "type": "tuple"
        }
      ],
      "stateMutability": "view",
      "type": "function"
    },
    {
      "inputs": [
        {
          "internalType": "address",
          "name": "pool",
          "type": "address"
        }
      ],
      "name": "getPoolReward",
      "outputs": [
        {
          "internalType": "address[]",
          "name": "tokenList",
          "type": "address[]"
        },
        {
          "internalType": "uint256[]",
          "name": "balances",
          "type": "uint256[]"
        }
      ],
      "stateMutability": "view",
      "type": "function"
    },
    {
      "inputs": [
        {
          "internalType": "address",
          "name": "pool",
          "type": "address"
        },
        {
          "internalType": "address",
          "name": "kol",
          "type": "address"
        }
      ],
      "name": "getUnKolReward",
      "outputs": [
        {
          "internalType": "address[]",
          "name": "",
          "type": "address[]"
        },
        {
          "internalType": "uint256[]",
          "name": "",
          "type": "uint256[]"
        }
      ],
      "stateMutability": "nonpayable",
      "type": "function"
    },
    {
      "inputs": [
        {
          "internalType": "address",
          "name": "pool",
          "type": "address"
        }
      ],
      "name": "getUnManagerReward",
      "outputs": [
        {
          "internalType": "address[]",
          "name": "",
          "type": "address[]"
        },
        {
          "internalType": "uint256[]",
          "name": "",
          "type": "uint256[]"
        }
      ],
      "stateMutability": "nonpayable",
      "type": "function"
    },
    {
      "inputs": [
        {
          "internalType": "address",
          "name": "pool",
          "type": "address"
        }
      ],
      "name": "kolClaim",
      "outputs": [],
      "stateMutability": "nonpayable",
      "type": "function"
    },
    {
      "inputs": [
        {
          "internalType": "address",
          "name": "",
          "type": "address"
        },
        {
          "internalType": "address",
          "name": "",
          "type": "address"
        },
        {
          "internalType": "uint256",
          "name": "",
          "type": "uint256"
        }
      ],
      "name": "kolTotalAmountList",
      "outputs": [
        {
          "internalType": "uint256",
          "name": "",
          "type": "uint256"
        }
      ],
      "stateMutability": "view",
      "type": "function"
    },
    {
      "inputs": [
        {
          "internalType": "address",
          "name": "pool",
          "type": "address"
        }
      ],
      "name": "managerClaim",
      "outputs": [],
      "stateMutability": "nonpayable",
      "type": "function"
    },
    {
      "inputs": [],
      "name": "owner",
      "outputs": [
        {
          "internalType": "address",
          "name": "",
          "type": "address"
        }
      ],
      "stateMutability": "view",
      "type": "function"
    },
    {
      "inputs": [
        {
          "internalType": "address",
          "name": "kol",
          "type": "address"
        },
        {
          "internalType": "address",
          "name": "user",
          "type": "address"
        },
        {
          "internalType": "address[]",
          "name": "poolTokens",
          "type": "address[]"
        },
        {
          "internalType": "uint256[]",
          "name": "tokensAmount",
          "type": "uint256[]"
        }
      ],
      "name": "recordTokenInfo",
      "outputs": [],
      "stateMutability": "nonpayable",
      "type": "function"
    },
    {
      "inputs": [],
      "name": "renounceOwnership",
      "outputs": [],
      "stateMutability": "nonpayable",
      "type": "function"
    },
    {
      "inputs": [
        {
          "internalType": "address",
          "name": "pool",
          "type": "address"
        },
        {
          "internalType": "bool",
          "name": "bools",
          "type": "bool"
        }
      ],
      "name": "setBlackList",
      "outputs": [],
      "stateMutability": "nonpayable",
      "type": "function"
    },
    {
      "inputs": [
        {
          "internalType": "address",
          "name": "adr",
          "type": "address"
        }
      ],
      "name": "setCrpFactory",
      "outputs": [],
      "stateMutability": "nonpayable",
      "type": "function"
    },
    {
      "inputs": [
        {
          "internalType": "address",
          "name": "pool",
          "type": "address"
        },
        {
          "components": [
            {
              "components": [
                {
                  "components": [
                    {
                      "internalType": "uint256",
                      "name": "level",
                      "type": "uint256"
                    },
                    {
                      "internalType": "uint256",
                      "name": "ratio",
                      "type": "uint256"
                    }
                  ],
                  "internalType": "struct SmartPoolManager.levelParams",
                  "name": "firstLevel",
                  "type": "tuple"
                },
                {
                  "components": [
                    {
                      "internalType": "uint256",
                      "name": "level",
                      "type": "uint256"
                    },
                    {
                      "internalType": "uint256",
                      "name": "ratio",
                      "type": "uint256"
                    }
                  ],
                  "internalType": "struct SmartPoolManager.levelParams",
                  "name": "secondLevel",
                  "type": "tuple"
                },
                {
                  "components": [
                    {
                      "internalType": "uint256",
                      "name": "level",
                      "type": "uint256"
                    },
                    {
                      "internalType": "uint256",
                      "name": "ratio",
                      "type": "uint256"
                    }
                  ],
                  "internalType": "struct SmartPoolManager.levelParams",
                  "name": "thirdLevel",
                  "type": "tuple"
                },
                {
                  "components": [
                    {
                      "internalType": "uint256",
                      "name": "level",
                      "type": "uint256"
                    },
                    {
                      "internalType": "uint256",
                      "name": "ratio",
                      "type": "uint256"
                    }
                  ],
                  "internalType": "struct SmartPoolManager.levelParams",
                  "name": "fourLevel",
                  "type": "tuple"
                }
              ],
              "internalType": "struct SmartPoolManager.feeParams",
              "name": "managerFee",
              "type": "tuple"
            },
            {
              "components": [
                {
                  "components": [
                    {
                      "internalType": "uint256",
                      "name": "level",
                      "type": "uint256"
                    },
                    {
                      "internalType": "uint256",
                      "name": "ratio",
                      "type": "uint256"
                    }
                  ],
                  "internalType": "struct SmartPoolManager.levelParams",
                  "name": "firstLevel",
                  "type": "tuple"
                },
                {
                  "components": [
                    {
                      "internalType": "uint256",
                      "name": "level",
                      "type": "uint256"
                    },
                    {
                      "internalType": "uint256",
                      "name": "ratio",
                      "type": "uint256"
                    }
                  ],
                  "internalType": "struct SmartPoolManager.levelParams",
                  "name": "secondLevel",
                  "type": "tuple"
                },
                {
                  "components": [
                    {
                      "internalType": "uint256",
                      "name": "level",
                      "type": "uint256"
                    },
                    {
                      "internalType": "uint256",
                      "name": "ratio",
                      "type": "uint256"
                    }
                  ],
                  "internalType": "struct SmartPoolManager.levelParams",
                  "name": "thirdLevel",
                  "type": "tuple"
                },
                {
                  "components": [
                    {
                      "internalType": "uint256",
                      "name": "level",
                      "type": "uint256"
                    },
                    {
                      "internalType": "uint256",
                      "name": "ratio",
                      "type": "uint256"
                    }
                  ],
                  "internalType": "struct SmartPoolManager.levelParams",
                  "name": "fourLevel",
                  "type": "tuple"
                }
              ],
              "internalType": "struct SmartPoolManager.feeParams",
              "name": "issueFee",
              "type": "tuple"
            },
            {
              "components": [
                {
                  "components": [
                    {
                      "internalType": "uint256",
                      "name": "level",
                      "type": "uint256"
                    },
                    {
                      "internalType": "uint256",
                      "name": "ratio",
                      "type": "uint256"
                    }
                  ],
                  "internalType": "struct SmartPoolManager.levelParams",
                  "name": "firstLevel",
                  "type": "tuple"
                },
                {
                  "components": [
                    {
                      "internalType": "uint256",
                      "name": "level",
                      "type": "uint256"
                    },
                    {
                      "internalType": "uint256",
                      "name": "ratio",
                      "type": "uint256"
                    }
                  ],
                  "internalType": "struct SmartPoolManager.levelParams",
                  "name": "secondLevel",
                  "type": "tuple"
                },
                {
                  "components": [
                    {
                      "internalType": "uint256",
                      "name": "level",
                      "type": "uint256"
                    },
                    {
                      "internalType": "uint256",
                      "name": "ratio",
                      "type": "uint256"
                    }
                  ],
                  "internalType": "struct SmartPoolManager.levelParams",
                  "name": "thirdLevel",
                  "type": "tuple"
                },
                {
                  "components": [
                    {
                      "internalType": "uint256",
                      "name": "level",
                      "type": "uint256"
                    },
                    {
                      "internalType": "uint256",
                      "name": "ratio",
                      "type": "uint256"
                    }
                  ],
                  "internalType": "struct SmartPoolManager.levelParams",
                  "name": "fourLevel",
                  "type": "tuple"
                }
              ],
              "internalType": "struct SmartPoolManager.feeParams",
              "name": "redeemFee",
              "type": "tuple"
            },
            {
              "components": [
                {
                  "components": [
                    {
                      "internalType": "uint256",
                      "name": "level",
                      "type": "uint256"
                    },
                    {
                      "internalType": "uint256",
                      "name": "ratio",
                      "type": "uint256"
                    }
                  ],
                  "internalType": "struct SmartPoolManager.levelParams",
                  "name": "firstLevel",
                  "type": "tuple"
                },
                {
                  "components": [
                    {
                      "internalType": "uint256",
                      "name": "level",
                      "type": "uint256"
                    },
                    {
                      "internalType": "uint256",
                      "name": "ratio",
                      "type": "uint256"
                    }
                  ],
                  "internalType": "struct SmartPoolManager.levelParams",
                  "name": "secondLevel",
                  "type": "tuple"
                },
                {
                  "components": [
                    {
                      "internalType": "uint256",
                      "name": "level",
                      "type": "uint256"
                    },
                    {
                      "internalType": "uint256",
                      "name": "ratio",
                      "type": "uint256"
                    }
                  ],
                  "internalType": "struct SmartPoolManager.levelParams",
                  "name": "thirdLevel",
                  "type": "tuple"
                },
                {
                  "components": [
                    {
                      "internalType": "uint256",
                      "name": "level",
                      "type": "uint256"
                    },
                    {
                      "internalType": "uint256",
                      "name": "ratio",
                      "type": "uint256"
                    }
                  ],
                  "internalType": "struct SmartPoolManager.levelParams",
                  "name": "fourLevel",
                  "type": "tuple"
                }
              ],
              "internalType": "struct SmartPoolManager.feeParams",
              "name": "perfermanceFee",
              "type": "tuple"
            }
          ],
          "internalType": "struct SmartPoolManager.KolPoolParams",
          "name": "_poolParams",
          "type": "tuple"
        }
      ],
      "name": "setPoolParams",
      "outputs": [],
      "stateMutability": "nonpayable",
      "type": "function"
    },
    {
      "inputs": [
        {
          "internalType": "address",
          "name": "adr",
          "type": "address"
        }
      ],
      "name": "setVaultAdr",
      "outputs": [],
      "stateMutability": "nonpayable",
      "type": "function"
    },
    {
      "inputs": [
        {
          "internalType": "address",
          "name": "newOwner",
          "type": "address"
        }
      ],
      "name": "transferOwnership",
      "outputs": [],
      "stateMutability": "nonpayable",
      "type": "function"
    },
    {
      "inputs": [
        {
          "internalType": "address",
          "name": "",
          "type": "address"
        },
        {
          "internalType": "address",
          "name": "",
          "type": "address"
        }
      ],
      "name": "userKolList",
      "outputs": [
        {
          "internalType": "address",
          "name": "",
          "type": "address"
        }
      ],
      "stateMutability": "view",
      "type": "function"
    },
    {
      "stateMutability": "payable",
      "type": "receive"
    }
  ],
  "transactionHash": "0x49d1626c4de6a1b73c90b5c40d07b671c04ec27833f75383cc175a84085d9b30",
  "args": [],
  "numDeployments": 1,
  "solcInputHash": "9b5416e7767fff75ac6acc2d0c498232",
  "bytecode": "0x60806040526064600d553480156200001657600080fd5b5060006200002362000073565b600080546001600160a01b0319166001600160a01b0383169081178255604051929350917f8be0079c531659141344cd1fd0a4f28419497f9722a3daafe3b4186f6b6457e0908290a35062000077565b3390565b615c0780620000876000396000f3fe6080604052600436106101565760003560e01c8063125bfb66146101625780631437ac1314610184578063245cd1db146101bb5780634660c5a5146101db57806355291dbd146101fb5780635740845d14610203578063598797ad1461023057806368092bd9146102505780636fd4ba9c14610270578063715018a6146102905780637234100a146102a55780638da5cb5b146102c55780639155dae7146102e75780639b1061b2146103075780639f1da16014610334578063a536ebf314610361578063aa93ae4914610381578063bb408f2d146103a1578063bf91b4c9146103c1578063c0663cc9146103e1578063c1e5762214610401578063c90361dd14610421578063c969229c1461044e578063d6b485a51461046e578063d7256c701461048e578063ebee7bcc146104ae578063edb12adf146104db578063f29486a1146104fb578063f2fde38b146105285761015d565b3661015d57005b600080fd5b34801561016e57600080fd5b5061018261017d3660046150c7565b610548565b005b34801561019057600080fd5b506101a461019f366004614fc6565b6105a9565b6040516101b292919061556e565b60405180910390f35b3480156101c757600080fd5b506101a46101d6366004614ffe565b610788565b3480156101e757600080fd5b506101826101f6366004615134565b610de8565b610182611035565b34801561020f57600080fd5b5061022361021e366004614ffe565b6110a3565b6040516101b29190615a7d565b34801561023c57600080fd5b5061022361024b366004614fc6565b6114d4565b34801561025c57600080fd5b5061018261026b366004615107565b6116b8565b34801561027c57600080fd5b506101a461028b366004614fc6565b611762565b34801561029c57600080fd5b5061018261190b565b3480156102b157600080fd5b506101a46102c0366004614fc6565b611994565b3480156102d157600080fd5b506102da611b47565b6040516101b291906154f3565b3480156102f357600080fd5b506101826103023660046151c5565b611b56565b34801561031357600080fd5b50610327610322366004614ffe565b611c39565b6040516101b2919061559c565b34801561034057600080fd5b5061035461034f366004614ffe565b611d1f565b6040516101b291906159ee565b34801561036d57600080fd5b506101a461037c366004614fc6565b611e0e565b34801561038d57600080fd5b5061022361039c366004614fc6565b6120d8565b3480156103ad57600080fd5b506102da6103bc366004614ffe565b6122c4565b3480156103cd57600080fd5b506103546103dc366004614fc6565b6122ea565b3480156103ed57600080fd5b506101a46103fc366004614ffe565b6123ca565b34801561040d57600080fd5b5061018261041c366004614fc6565b61257d565b34801561042d57600080fd5b5061044161043c366004614fc6565b612618565b6040516101b2919061555b565b34801561045a57600080fd5b50610182610469366004614fc6565b61263c565b34801561047a57600080fd5b50610182610489366004614fc6565b612a29565b34801561049a57600080fd5b506101826104a9366004615036565b612ac4565b3480156104ba57600080fd5b506104ce6104c93660046150c7565b612fe5565b6040516101b29190615b0f565b3480156104e757600080fd5b506101826104f6366004614fc6565b613020565b34801561050757600080fd5b5061051b610516366004614fc6565b61339b565b6040516101b29190615a27565b34801561053457600080fd5b50610182610543366004614fc6565b6135b0565b610550613670565b6001600160a01b0316610561611b47565b6001600160a01b0316146105905760405162461bcd60e51b815260040161058790615886565b60405180910390fd5b6105a46001600160a01b0384168383613674565b505050565b6001600160a01b03811660009081526007602052604081206060918291906105d0826136ca565b6001600160a01b0386166000908152600460209081526040918290208054835181840281018401909452808452939450606093909183018282801561063e57602002820191906000526020600020905b81546001600160a01b03168152600190910190602001808311610620575b50505050509050606081516001600160401b038111801561065e57600080fd5b50604051908082528060200260200182016040528015610688578160200160208202803683370190505b50905060005b8381101561077b5760603063245cd1db8a6106a989866136d5565b6040518363ffffffff1660e01b81526004016106c6929190615507565b60006040518083038186803b1580156106de57600080fd5b505afa1580156106f2573d6000803e3d6000fd5b505050506040513d6000823e601f3d908101601f1916820160405261071a919081019061523c565b91505060005b81518110156107715781818151811061073557fe5b602002602001015184828151811061074957fe5b60200260200101510184828151811061075e57fe5b6020908102919091010152600101610720565b505060010161068e565b5090945092505050915091565b6001600160a01b03808316600090815260086020908152604080832093851683529290529081205460609182916107c05760006107fe565b6001600160a01b038086166000908152600860209081526040808320938816835292905290812080549091906107f257fe5b90600052602060002001545b9050600081116108205760405162461bcd60e51b815260040161058790615988565b610828614c45565b506001600160a01b0385166000908152600560208181526040928390208351610140810185526001820154610100820190815260028301546101208301526080808301918252865180880188526003850154815260048501548187015260a0808501919091528751808901895296850154875260068501548787015260c080850197909752875180890189526007860154815260088601548188015260e0850152918352865180870188526009850154818301908152600a86015482850152815287518089018952600b8601548152600c860154818801528187015287518089018952600d8601548152600e860154818801528189015287518089018952600f86015481526010860154818801526060828101919091528487019190915287518088018952601186015481840190815260128701548286015281528851808a018a5260138701548152601487015481890152818801528851808a018a5260158701548152601687015481890152818a01528851808a018a52601787015481526018870154818901528183015284890152875196870188526019850154918701918252601a85015492870192909252855285518087018752601b8401548152601c840154818601528585015285518087018752601d8401548152601e84015481860152858701528551808701909652601f830154865291830154928501929092528281019390935291820152610a3b614c84565b6001600160a01b0387166000908152600460209081526040918290208251815460c09381028201840190945260a081018481529093919284928491840182828015610aaf57602002820191906000526020600020905b81546001600160a01b03168152600190910190602001808311610a91575b5050505050815260200160018201805480602002602001604051908101604052809291908181526020018280548015610b0757602002820191906000526020600020905b815481526020019060010190808311610af3575b5050505050815260200160028201805480602002602001604051908101604052809291908181526020018280548015610b5f57602002820191906000526020600020905b815481526020019060010190808311610b4b575b5050505050815260200160038201805480602002602001604051908101604052809291908181526020018280548015610bb757602002820191906000526020600020905b815481526020019060010190808311610ba3575b5050505050815260200160048201805480602002602001604051908101604052809291908181526020018280548015610c0f57602002820191906000526020600020905b815481526020019060010190808311610bfb575b505050505081525050905060608160000151516001600160401b0381118015610c3757600080fd5b50604051908082528060200260200182016040528015610c61578160200160208202803683370190505b506001600160a01b03808a1660009081526006602090815260408083205460088352818420948d168452939091528120805493945091929091908290610ca357fe5b9060005260206000200154905060005b845151811015610dd5576000610d02600d54610cfc610cd68b8b600001516136e8565b89602001518681518110610ce657fe5b602002602001015161378f90919063ffffffff16565b906137c9565b90506000610d2d600d54610cfc610d1d8c8c602001516136e8565b8a604001518781518110610ce657fe5b90506000610d58600d54610cfc610d488d8d604001516136e8565b8b606001518881518110610ce657fe5b90506000610d83600d54610cfc610d738e8e606001516136e8565b8c608001518981518110610ce657fe5b90506000610d9d82610d9785818989613808565b90613808565b9050610dad88610cfc838a61378f565b898781518110610db957fe5b6020908102919091010152505060019093019250610cb3915050565b50509151955093505050505b9250929050565b6001546001600160a01b03163314610e125760405162461bcd60e51b8152600401610587906156a4565b6001600160a01b03808316600090815260056020526040908190206001549151636e0cf42160e11b81529092919091169063dc19e84290610e579086906004016154f3565b60206040518083038186803b158015610e6f57600080fd5b505afa158015610e83573d6000803e3d6000fd5b505050506040513d601f19601f82011682018060405250810190610ea791906152ce565b610ec35760405162461bcd60e51b815260040161058790615813565b805462010000900460ff1615610eeb5760405162461bcd60e51b8152600401610587906158bb565b805462ff0000191662010000178155815180518051600184015560209081015160028401558082015180516003850155810151600484015560408083015180516005860155820151600685015560609283015180516007860155820151600885015581850151805180516009870155830151600a860155808301518051600b870155830151600c860155808201518051600d870155830151600e8601558301518051600f8601558201516010850155808501518051805160118701558301516012860155808301518051601387015583015160148601558082015180516015870155830151601686015583015180516017860155820151601885015593820151805180516019860155820151601a850155808201518051601b860155820151601c850155938401518051601d850155810151601e8401559201518051601f83015582015191015550565b61103d613670565b6001600160a01b031661104e611b47565b6001600160a01b0316146110745760405162461bcd60e51b815260040161058790615886565b60405133904780156108fc02916000818181858888f193505050501580156110a0573d6000803e3d6000fd5b50565b6110ab614c84565b6110b3614c84565b6001600160a01b0384166000908152600460209081526040918290208251815460c09381028201840190945260a08101848152909391928492849184018282801561112757602002820191906000526020600020905b81546001600160a01b03168152600190910190602001808311611109575b505050505081526020016001820180548060200260200160405190810160405280929190818152602001828054801561117f57602002820191906000526020600020905b81548152602001906001019080831161116b575b50505050508152602001600282018054806020026020016040519081016040528092919081815260200182805480156111d757602002820191906000526020600020905b8154815260200190600101908083116111c3575b505050505081526020016003820180548060200260200160405190810160405280929190818152602001828054801561122f57602002820191906000526020600020905b81548152602001906001019080831161121b575b505050505081526020016004820180548060200260200160405190810160405280929190818152602001828054801561128757602002820191906000526020600020905b815481526020019060010190808311611273575b5050509190925250508151845250805151909150806001600160401b03811180156112b157600080fd5b506040519080825280602002602001820160405280156112db578160200160208202803683370190505b506020840152806001600160401b03811180156112f757600080fd5b50604051908082528060200260200182016040528015611321578160200160208202803683370190505b506040840152806001600160401b038111801561133d57600080fd5b50604051908082528060200260200182016040528015611367578160200160208202803683370190505b506060840152806001600160401b038111801561138357600080fd5b506040519080825280602002602001820160405280156113ad578160200160208202803683370190505b50608084015260005b818110156114cb576113f46113ce878760008561382d565b856020015183815181106113de57fe5b602002602001015161380890919063ffffffff16565b8460200151828151811061140457fe5b602002602001018181525050611430611420878760018561382d565b856040015183815181106113de57fe5b8460400151828151811061144057fe5b60200260200101818152505061146c61145c878760028561382d565b856060015183815181106113de57fe5b8460600151828151811061147c57fe5b6020026020010181815250506114a8611498878760038561382d565b856080015183815181106113de57fe5b846080015182815181106114b857fe5b60209081029190910101526001016113b6565b50505092915050565b6114dc614c84565b60405163aa93ae4960e01b8152309063aa93ae49906114ff9085906004016154f3565b60006040518083038186803b15801561151757600080fd5b505afa15801561152b573d6000803e3d6000fd5b505050506040513d6000823e601f3d908101601f191682016040526115539190810190615309565b905061155d614c84565b61156683613df9565b82515190915060005b818110156116b0576115b88360200151828151811061158a57fe5b6020026020010151856020015183815181106115a257fe5b60200260200101516142ad90919063ffffffff16565b846020015182815181106115c857fe5b6020026020010181815250506115ff836040015182815181106115e757fe5b6020026020010151856040015183815181106115a257fe5b8460400151828151811061160f57fe5b6020026020010181815250506116468360600151828151811061162e57fe5b6020026020010151856060015183815181106115a257fe5b8460600151828151811061165657fe5b60200260200101818152505061168d8360800151828151811061167557fe5b6020026020010151856080015183815181106115a257fe5b8460800151828151811061169d57fe5b602090810291909101015260010161156f565b505050919050565b6116c0613670565b6001600160a01b03166116d1611b47565b6001600160a01b0316146116f75760405162461bcd60e51b815260040161058790615886565b336001600160a01b03166000356001600160e01b0319166001600160e01b031916600036604051611729929190615616565b60405180910390a26001600160a01b03909116600090815260056020526040902080549115156101000261ff0019909216919091179055565b606080606080306001600160a01b0316637234100a866040518263ffffffff1660e01b815260040161179491906154f3565b60006040518083038186803b1580156117ac57600080fd5b505afa1580156117c0573d6000803e3d6000fd5b505050506040513d6000823e601f3d908101601f191682016040526117e8919081019061523c565b6001600160a01b0387166000908152600c602090815260409091208351939550919350909161181c91839190860190614cb3565b50600181015483518082146118595781810360005b8181101561185657600180860180548083018255600091825260208220015501611831565b50505b84516060816001600160401b038111801561187357600080fd5b5060405190808252806020026020018201604052801561189d578160200160208202803683370190505b50905060005b87518110156118fa578560010181815481106118bb57fe5b90600052602060002001548782815181106118d257fe5b6020026020010151038282815181106118e757fe5b60209081029190910101526001016118a3565b509597509495505050505050915091565b611913613670565b6001600160a01b0316611924611b47565b6001600160a01b03161461194a5760405162461bcd60e51b815260040161058790615886565b600080546040516001600160a01b03909116907f8be0079c531659141344cd1fd0a4f28419497f9722a3daafe3b4186f6b6457e0908390a3600080546001600160a01b0319169055565b606080606080306001600160a01b031663a536ebf3866040518263ffffffff1660e01b81526004016119c691906154f3565b60006040518083038186803b1580156119de57600080fd5b505afa1580156119f2573d6000803e3d6000fd5b505050506040513d6000823e601f3d908101601f19168201604052611a1a919081019061523c565b604051631437ac1360e01b815291935091506060903090631437ac1390611a459089906004016154f3565b60006040518083038186803b158015611a5d57600080fd5b505afa158015611a71573d6000803e3d6000fd5b505050506040513d6000823e601f3d908101601f19168201604052611a99919081019061523c565b845190925090506060816001600160401b0381118015611ab857600080fd5b50604051908082528060200260200182016040528015611ae2578160200160208202803683370190505b50905060005b82811015611b3857838181518110611afc57fe5b6020026020010151858281518110611b1057fe5b602002602001015103828281518110611b2557fe5b6020908102919091010152600101611ae8565b50939550929350505050915091565b6000546001600160a01b031690565b6002546001600160a01b03163314611b805760405162461bcd60e51b815260040161058790615678565b828114611b9f5760405162461bcd60e51b815260040161058790615779565b611c0e868686868080602002602001604051908101604052809392919081815260200183836020028082843760009201919091525050604080516020808a028281018201909352898252909350899250889182918501908490808284376000920191909152506142ef92505050565b5050506001600160a01b039092166000908152600560205260409020805460ff191660011790555050565b6001600160a01b0380831660009081526003602090815260408083209385168352928152828220805484518184028101840190955280855260609493919290919084015b82821015611d125760008481526020908190206040805180820182526002860290920180546001600160a01b03168352600181018054835181870281018701909452808452939491938583019392830182828015611cfa57602002820191906000526020600020905b815481526020019060010190808311611ce6575b50505050508152505081526020019060010190611c7d565b5050505090505b92915050565b611d27614d18565b6001600160a01b038084166000908152600b602090815260408083209386168352928152908290208251815460609381028201840185529381018481529093919284928491840182828015611da557602002820191906000526020600020905b81546001600160a01b03168152600190910190602001808311611d87575b5050505050815260200160018201805480602002602001604051908101604052809291908181526020018280548015611dfd57602002820191906000526020600020905b815481526020019060010190808311611de9575b505050505081525050905092915050565b606080611e19614c84565b6001600160a01b0384166000908152600460209081526040918290208251815460c09381028201840190945260a081018481529093919284928491840182828015611e8d57602002820191906000526020600020905b81546001600160a01b03168152600190910190602001808311611e6f575b5050505050815260200160018201805480602002602001604051908101604052809291908181526020018280548015611ee557602002820191906000526020600020905b815481526020019060010190808311611ed1575b5050505050815260200160028201805480602002602001604051908101604052809291908181526020018280548015611f3d57602002820191906000526020600020905b815481526020019060010190808311611f29575b5050505050815260200160038201805480602002602001604051908101604052809291908181526020018280548015611f9557602002820191906000526020600020905b815481526020019060010190808311611f81575b5050505050815260200160048201805480602002602001604051908101604052809291908181526020018280548015611fed57602002820191906000526020600020905b815481526020019060010190808311611fd9575b5050509190925250508151519192508190506001600160401b038111801561201457600080fd5b5060405190808252806020026020018201604052801561203e578160200160208202803683370190505b5082519450925060005b818110156120d0576120b18360800151828151811061206357fe5b6020026020010151610d978560600151848151811061207e57fe5b6020026020010151610d978760400151868151811061209957fe5b6020026020010151886020015187815181106113de57fe5b8482815181106120bd57fe5b6020908102919091010152600101612048565b505050915091565b6120e0614c84565b6001600160a01b0382166000908152600460209081526040918290208251815460c09381028201840190945260a08101848152909391928492849184018282801561215457602002820191906000526020600020905b81546001600160a01b03168152600190910190602001808311612136575b50505050508152602001600182018054806020026020016040519081016040528092919081815260200182805480156121ac57602002820191906000526020600020905b815481526020019060010190808311612198575b505050505081526020016002820180548060200260200160405190810160405280929190818152602001828054801561220457602002820191906000526020600020905b8154815260200190600101908083116121f0575b505050505081526020016003820180548060200260200160405190810160405280929190818152602001828054801561225c57602002820191906000526020600020905b815481526020019060010190808311612248575b50505050508152602001600482018054806020026020016040519081016040528092919081815260200182805480156122b457602002820191906000526020600020905b8154815260200190600101908083116122a0575b5050505050815250509050919050565b600a6020908152600092835260408084209091529082529020546001600160a01b031681565b6122f2614d18565b6001600160a01b0382166000908152600c6020908152604091829020825181546060938102820184018552938101848152909391928492849184018282801561236457602002820191906000526020600020905b81546001600160a01b03168152600190910190602001808311612346575b50505050508152602001600182018054806020026020016040519081016040528092919081815260200182805480156122b457602002820191906000526020600020908154815260200190600101908083116122a0575050505050815250509050919050565b606080606080306001600160a01b031663245cd1db87876040518363ffffffff1660e01b81526004016123fe929190615507565b60006040518083038186803b15801561241657600080fd5b505afa15801561242a573d6000803e3d6000fd5b505050506040513d6000823e601f3d908101601f19168201604052612452919081019061523c565b6001600160a01b0388166000908152600b6020908152604080832033845282529091208351939550919350909161248e91839190860190614cb3565b50600181015483518082146124cb5781810360005b818110156124c8576001808601805480830182556000918252602082200155016124a3565b50505b84516060816001600160401b03811180156124e557600080fd5b5060405190808252806020026020018201604052801561250f578160200160208202803683370190505b50905060005b8281101561256b5785600101818154811061252c57fe5b906000526020600020015487828151811061254357fe5b60200260200101510382828151811061255857fe5b6020908102919091010152600101612515565b50959a95995094975050505050505050565b612585613670565b6001600160a01b0316612596611b47565b6001600160a01b0316146125bc5760405162461bcd60e51b815260040161058790615886565b336001600160a01b03166000356001600160e01b0319166001600160e01b0319166000366040516125ee929190615616565b60405180910390a2600180546001600160a01b0319166001600160a01b0392909216919091179055565b6001600160a01b0381166000908152600760205260409020606090611d1990614576565b61264581614582565b156110a057600154604051636e0cf42160e11b81526001600160a01b039091169063dc19e8429061267a9084906004016154f3565b60206040518083038186803b15801561269257600080fd5b505afa1580156126a6573d6000803e3d6000fd5b505050506040513d601f19601f820116820180604052508101906126ca91906152ce565b6126e65760405162461bcd60e51b815260040161058790615813565b806001600160a01b0316635468d6d76040518163ffffffff1660e01b815260040160206040518083038186803b15801561271f57600080fd5b505afa158015612733573d6000803e3d6000fd5b505050506040513d601f19601f8201168201806040525081019061275791906152ce565b6127735760405162461bcd60e51b81526004016105879061590b565b60405163245cd1db60e01b81526060908190309063245cd1db9061279d9086903390600401615507565b60006040518083038186803b1580156127b557600080fd5b505afa1580156127c9573d6000803e3d6000fd5b505050506040513d6000823e601f3d908101601f191682016040526127f1919081019061523c565b6001600160a01b0385166000908152600b6020908152604080832033845282529091208351939550919350909161282d91839190860190614cb3565b506001810154835180821461286a5781810360005b8181101561286757600180860180548083018255600091825260208220015501612842565b50505b600061287533614609565b61287f57336128f0565b336001600160a01b0316638da5cb5b6040518163ffffffff1660e01b815260040160206040518083038186803b1580156128b857600080fd5b505afa1580156128cc573d6000803e3d6000fd5b505050506040513d601f19601f820116820180604052508101906128f09190614fe2565b905060005b8651811015612a1f57600085600101828154811061290f57fe5b906000526020600020015487838151811061292657fe5b602002602001015103905080600014612a165761296a83828a858151811061294a57fe5b60200260200101516001600160a01b03166136749092919063ffffffff16565b6129968187600101848154811061297d57fe5b906000526020600020015461380890919063ffffffff16565b8660010183815481106129a557fe5b9060005260206000200181905550826001600160a01b0316336001600160a01b03167fcf0b5b5e344fd092a8b2211145583746df8436ec32469680c9d800af50d7b7378a85815181106129f457fe5b60200260200101518442604051612a0d9392919061553a565b60405180910390a35b506001016128f5565b5050505050505050565b612a31613670565b6001600160a01b0316612a42611b47565b6001600160a01b031614612a685760405162461bcd60e51b815260040161058790615886565b336001600160a01b03166000356001600160e01b0319166001600160e01b031916600036604051612a9a929190615616565b60405180910390a2600280546001600160a01b0319166001600160a01b0392909216919091179055565b3383828114612ae55760405162461bcd60e51b815260040161058790615779565b600154604051636e0cf42160e11b81526001600160a01b039091169063dc19e84290612b159085906004016154f3565b60206040518083038186803b158015612b2d57600080fd5b505afa158015612b41573d6000803e3d6000fd5b505050506040513d601f19601f82011682018060405250810190612b6591906152ce565b612b815760405162461bcd60e51b815260040161058790615813565b6001600160a01b038281166000908152600a602090815260408083208b851684529091529020541680612c28576001600160a01b038381166000818152600a602090815260408083208d86168452825280832080546001600160a01b031916958f1695909517909455918152600790915220612bfd908a614642565b612c25576001600160a01b0383166000908152600760205260409020612c23908a614657565b505b50875b6001600160a01b038116612c4e5760405162461bcd60e51b8152600401610587906157ad565b612c8685856000818110612c5e57fe5b6001600160a01b03871660009081526006602090815260409091205493910201359050613808565b6001600160a01b0384166000908152600660205260409020556060826001600160401b0381118015612cb757600080fd5b50604051908082528060200260200182016040528015612ce1578160200160208202803683370190505b50905060005b83811015612dcc576001600160a01b03808616600090815260086020908152604080832093871683529290522054612d4957868682818110612d2557fe5b90506020020135828281518110612d3857fe5b602002602001018181525050612dc4565b6001600160a01b0380861660009081526008602090815260408083209387168352929052208054612dab919083908110612d7f57fe5b9060005260206000200154888884818110612d9657fe5b9050602002013561380890919063ffffffff16565b828281518110612db757fe5b6020026020010181815250505b600101612ce7565b506001600160a01b03808516600090815260086020908152604080832093861683529281529190208251612e0292840190614d32565b506001600160a01b0380851660008181526003602090815260408083208786168452825280832093835260098252808320948e168352939052919091205480612f3657612e4d614d79565b6001600160a01b038c168152604080516020808b0282810182019093528a825290918b918b91829185019084908082843760009201829052506020868101958652885460018082018b558a845292829020885160029092020180546001600160a01b0319166001600160a01b039092169190911781559551805188979650612edc955092860193500190614d32565b505050828054905060096000896001600160a01b03166001600160a01b0316815260200190815260200160002060008e6001600160a01b03166001600160a01b031681526020019081526020016000208190555050612fd7565b6001600160a01b038087166000908152600360209081526040808320938816835292905290812080546000198401908110612f6d57fe5b9060005260206000209060020201905060005b6001820154811015612fd457612fb18a8a83818110612f9b57fe5b9050602002013583600101838154811061297d57fe5b826001018281548110612fc057fe5b600091825260209091200155600101612f80565b50505b505050505050505050505050565b6008602052826000526040600020602052816000526040600020818154811061300a57fe5b9060005260206000200160009250925050505481565b61302981614582565b156110a0576040516327304dfd60e01b81526000906001600160a01b038316906327304dfd9061305d9033906004016154f3565b60206040518083038186803b15801561307557600080fd5b505afa158015613089573d6000803e3d6000fd5b505050506040513d601f19601f820116820180604052508101906130ad91906152ce565b806131395750336001600160a01b0316826001600160a01b0316633018205f6040518163ffffffff1660e01b815260040160206040518083038186803b1580156130f657600080fd5b505afa15801561310a573d6000803e3d6000fd5b505050506040513d601f19601f8201168201806040525081019061312e9190614fe2565b6001600160a01b0316145b90506000826001600160a01b0316635468d6d76040518163ffffffff1660e01b815260040160206040518083038186803b15801561317657600080fd5b505afa15801561318a573d6000803e3d6000fd5b505050506040513d601f19601f820116820180604052508101906131ae91906152ce565b9050806131cd5760405162461bcd60e51b81526004016105879061590b565b816131ea5760405162461bcd60e51b8152600401610587906158e2565b604051631bf52ea760e21b815260609081903090636fd4ba9c906132129088906004016154f3565b600060405180830381600087803b15801561322c57600080fd5b505af1158015613240573d6000803e3d6000fd5b505050506040513d6000823e601f3d908101601f19168201604052613268919081019061523c565b6001600160a01b0387166000908152600560209081526040808320805460ff19169055600c8252909120835193955091935090916132ab91839190860190614cb3565b50600181015483518082146132e85781810360005b818110156132e5576001808601805480830182556000918252602082200155016132c0565b50505b60005b855181101561339057600086828151811061330257fe5b6020026020010151905085828151811061331857fe5b6020026020010151600014613387576133458a8288858151811061333857fe5b602002602001015161466c565b61336b86838151811061335457fe5b602002602001015186600101848154811061297d57fe5b85600101838154811061337a57fe5b6000918252602090912001555b506001016132eb565b505050505050505050565b6133a3614c45565b506001600160a01b03166000908152600560208181526040928390208351610140810185526001820154610100820190815260028301546101208301526080808301918252865180880188526003850154815260048501548187015260a0808501919091528751808901895296850154875260068501548787015260c080850197909752875180890189526007860154815260088601548188015260e0850152918352865180870188526009850154818301908152600a86015482850152815287518089018952600b8601548152600c860154818801528187015287518089018952600d8601548152600e860154818801528189015287518089018952600f86015481526010860154818801526060828101919091528487019190915287518088018952601186015481840190815260128701548286015281528851808a018a5260138701548152601487015481890152818801528851808a018a5260158701548152601687015481890152818a01528851808a018a52601787015481526018870154818901528183015284890152875196870188526019850154918701918252601a85015492870192909252855285518087018752601b8401548152601c840154818601528585015285518087018752601d8401548152601e84015481860152858701528551808701909652601f83015486529183015492850192909252828101939093529182015290565b6135b8613670565b6001600160a01b03166135c9611b47565b6001600160a01b0316146135ef5760405162461bcd60e51b815260040161058790615886565b6001600160a01b0381166136155760405162461bcd60e51b8152600401610587906156d1565b600080546040516001600160a01b03808516939216917f8be0079c531659141344cd1fd0a4f28419497f9722a3daafe3b4186f6b6457e091a3600080546001600160a01b0319166001600160a01b0392909216919091179055565b3390565b6105a48363a9059cbb60e01b8484604051602401613693929190615521565b60408051601f198184030181529190526020810180516001600160e01b03166001600160e01b0319909316929092179091526149b9565b6000611d1982614aa4565b60006136e18383614aa8565b9392505050565b8051516000908310801590613701575060208201515183105b156137125750805160200151611d19565b602082015151831080159061372b575060408201515183105b1561373e57506020808201510151611d19565b6040820151518310801590613757575060608201515183105b1561376b5750604081015160200151611d19565b60608201515183106137865750606081015160200151611d19565b50600092915050565b60008261379e57506000611d19565b828202828482816137ab57fe5b04146136e15760405162461bcd60e51b815260040161058790615845565b60006136e183836040518060400160405280601a815260200179536166654d6174683a206469766973696f6e206279207a65726f60301b815250614acc565b6000828201838110156136e15760405162461bcd60e51b815260040161058790615717565b6001600160a01b03808516600090815260086020908152604080832093871683529290529081205481906138625760006138a0565b6001600160a01b0380871660009081526008602090815260408083209389168352929052908120805490919061389457fe5b90600052602060002001545b90506138aa614c45565b506001600160a01b03861660009081526005602081815260408084208151610140810183526001820154610100820190815260028301546101208301526080808301918252845180860186526003850154815260048501548188015260a0808501919091528551808701875297850154885260068501548888015260c080850198909852855180870187526007860154815260088601548189015260e0850152918352845180880186526009850154818301908152600a86015482850152815285518087018752600b8601548152600c860154818901528188015285518087018752600d8601548152600e860154818901528187015285518087018752600f860154815260108601548189015260608281019190915284880191909152855180890187526011860154818401908152601287015482860152815286518088018852601387015481526014870154818a01528189015286518088018852601587015481526016870154818a01528188015286518088018852601787015481526018870154818a01528183015284870152855197880186526019850154918801918252601a85015492880192909252865283518085018552601b8401548152601c840154818701528686015283518085018552601d8401548152601e84015481870152868501528351808501909452601f830154845291840154938301939093528381019190915281019190915290613abf614c84565b6001600160a01b0389166000908152600460209081526040918290208251815460c09381028201840190945260a081018481529093919284928491840182828015613b3357602002820191906000526020600020905b81546001600160a01b03168152600190910190602001808311613b15575b5050505050815260200160018201805480602002602001604051908101604052809291908181526020018280548015613b8b57602002820191906000526020600020905b815481526020019060010190808311613b77575b5050505050815260200160028201805480602002602001604051908101604052809291908181526020018280548015613be357602002820191906000526020600020905b815481526020019060010190808311613bcf575b5050505050815260200160038201805480602002602001604051908101604052809291908181526020018280548015613c3b57602002820191906000526020600020905b815481526020019060010190808311613c27575b5050505050815260200160048201805480602002602001604051908101604052809291908181526020018280548015613c9357602002820191906000526020600020905b815481526020019060010190808311613c7f575b50505050508152505090508360001415613cb4576000945050505050613df1565b6001600160a01b03891660009081526006602052604090205487158015613ce057506000826020015151115b15613d0f57613d0c600d54610cfc613cfc8888600001516136e8565b85602001518b81518110610ce657fe5b92505b876001148015613d2457506000826040015151115b15613d5357613d50600d54610cfc613d408888602001516136e8565b85604001518b81518110610ce657fe5b92505b876002148015613d6857506000826060015151115b15613d9757613d94600d54610cfc613d848888604001516136e8565b85606001518b81518110610ce657fe5b92505b876003148015613dac57506000826080015151115b15613ddb57613dd8600d54610cfc613dc88888606001516136e8565b85608001518b81518110610ce657fe5b92505b613de981610cfc858861378f565b955050505050505b949350505050565b613e01614c84565b613e09614c84565b6001600160a01b0383166000908152600460209081526040918290208251815460c09381028201840190945260a081018481529093919284928491840182828015613e7d57602002820191906000526020600020905b81546001600160a01b03168152600190910190602001808311613e5f575b5050505050815260200160018201805480602002602001604051908101604052809291908181526020018280548015613ed557602002820191906000526020600020905b815481526020019060010190808311613ec1575b5050505050815260200160028201805480602002602001604051908101604052809291908181526020018280548015613f2d57602002820191906000526020600020905b815481526020019060010190808311613f19575b5050505050815260200160038201805480602002602001604051908101604052809291908181526020018280548015613f8557602002820191906000526020600020905b815481526020019060010190808311613f71575b5050505050815260200160048201805480602002602001604051908101604052809291908181526020018280548015613fdd57602002820191906000526020600020905b815481526020019060010190808311613fc9575b505050919092525050815180519085526001600160a01b038616600090815260076020526040812093945090929150614015826136ca565b9050826001600160401b038111801561402d57600080fd5b50604051908082528060200260200182016040528015614057578160200160208202803683370190505b506020860152826001600160401b038111801561407357600080fd5b5060405190808252806020026020018201604052801561409d578160200160208202803683370190505b506040860152826001600160401b03811180156140b957600080fd5b506040519080825280602002602001820160405280156140e3578160200160208202803683370190505b506060860152826001600160401b03811180156140ff57600080fd5b50604051908082528060200260200182016040528015614129578160200160208202803683370190505b50608086015260005b60048110156142a35760005b8481101561429a5760005b83811015614291578261419c5761417f61416f8a61416788856136d5565b60008661382d565b896020015184815181106113de57fe5b8860200151838151811061418f57fe5b6020026020010181815250505b82600114156141eb576141ce6141be8a6141b688856136d5565b60018661382d565b896040015184815181106113de57fe5b886040015183815181106141de57fe5b6020026020010181815250505b826002141561423a5761421d61420d8a61420588856136d5565b60028661382d565b896060015184815181106113de57fe5b8860600151838151811061422d57fe5b6020026020010181815250505b82600314156142895761426c61425c8a61425488856136d5565b60038661382d565b896080015184815181106113de57fe5b8860800151838151811061427c57fe5b6020026020010181815250505b600101614149565b5060010161413e565b50600101614132565b5050505050919050565b60006136e183836040518060400160405280601e81526020017f536166654d6174683a207375627472616374696f6e206f766572666c6f770000815250614b03565b6001600160a01b0384166000908152600460205260408120905b835181101561456e57600084828151811061432057fe5b60200260200101519050600084838151811061433857fe5b602002602001015190506000806143ab866000018054806020026020016040519081016040528092919081815260200182805480156143a057602002820191906000526020600020905b81546001600160a01b03168152600190910190602001808311614382575b505050505085614b2f565b915091508161443b57508454600180820187556000878152602080822090930180546001600160a01b0319166001600160a01b03881617905581880180548084018255908252838220018190556002880180548084018255908252838220018190556003880180548084018255908252838220018190556004880180549283018155815291822001558454600019015b8861446f576144538387600101838154811061297d57fe5b86600101828154811061446257fe5b6000918252602090912001555b88600114156144a75761448b8387600201838154811061297d57fe5b86600201828154811061449a57fe5b6000918252602090912001555b88600214156144df576144c38387600301838154811061297d57fe5b8660030182815481106144d257fe5b6000918252602090912001555b8860031415614517576144fb8387600401838154811061297d57fe5b86600401828154811061450a57fe5b6000918252602090912001555b896001600160a01b03167ff2dc555ffff33c7179f7e35e7fc8a68179aeecb49e12799e8ac2972420613eb98a3387876040516145569493929190615b18565b60405180910390a25050600190920191506143099050565b505050505050565b6060806136e183614b87565b60006001826001600160a01b03166373a9855c6040518163ffffffff1660e01b815260040160206040518083038186803b1580156145bf57600080fd5b505afa1580156145d3573d6000803e3d6000fd5b505050506040513d601f19601f820116820180604052508101906145f791906152ea565b600181111561460257fe5b1492915050565b6000813f7fc5d2460186f7233c927e7db2dcc703c0e500b653ca82273b7bfad8045d85a470818114801590613df1575050151592915050565b60006136e1836001600160a01b038416614be3565b60006136e1836001600160a01b038416614bfb565b806146895760405162461bcd60e51b81526004016105879061574c565b6060836001600160a01b031663a0e67e2b6040518163ffffffff1660e01b815260040160006040518083038186803b1580156146c457600080fd5b505afa1580156146d8573d6000803e3d6000fd5b505050506040513d6000823e601f3d908101601f19168201604052614700919081019061520a565b90506060846001600160a01b031663309a042c6040518163ffffffff1660e01b815260040160006040518083038186803b15801561473d57600080fd5b505afa158015614751573d6000803e3d6000fd5b505050506040513d6000823e601f3d908101601f19168201604052614779919081019061529c565b90506000856001600160a01b031663d29986c16040518163ffffffff1660e01b815260040160206040518083038186803b1580156147b657600080fd5b505afa1580156147ca573d6000803e3d6000fd5b505050506040513d601f19601f820116820180604052508101906147ee91906153ff565b905060005b835181101561496157600061482385838151811061480d57fe5b60200260200101516001600160a01b0316614609565b6148405784828151811061483357fe5b60200260200101516148c4565b84828151811061484c57fe5b60200260200101516001600160a01b0316638da5cb5b6040518163ffffffff1660e01b815260040160206040518083038186803b15801561488c57600080fd5b505afa1580156148a0573d6000803e3d6000fd5b505050506040513d601f19601f820116820180604052508101906148c49190614fe2565b905060006148f284610cfc8786815181106148db57fe5b60200260200101518a61378f90919063ffffffff16565b90506149086001600160a01b0389168383613674565b816001600160a01b0316336001600160a01b03167f749a9ef4b9bff1f02a1a1d45429a3949e524fd93e3948001eab8dca05f1fcd6d8a844260405161494f9392919061553a565b60405180910390a350506001016147f3565b50856001600160a01b0316336001600160a01b03167f1bf0129823b56213a46996bc874ce50b318995cae2bbdcd2000933d36012547d8787426040516149a99392919061553a565b60405180910390a3505050505050565b6149cb826001600160a01b0316614609565b6149e75760405162461bcd60e51b8152600401610587906159b7565b60006060836001600160a01b031683604051614a0391906154d7565b6000604051808303816000865af19150503d8060008114614a40576040519150601f19603f3d011682016040523d82523d6000602084013e614a45565b606091505b509150915081614a675760405162461bcd60e51b8152600401610587906157de565b805115614a9e5780806020019051810190614a8291906152ce565b614a9e5760405162461bcd60e51b81526004016105879061593e565b50505050565b5490565b6000826000018281548110614ab957fe5b9060005260206000200154905092915050565b60008183614aed5760405162461bcd60e51b81526004016105879190615645565b506000838581614af957fe5b0495945050505050565b60008184841115614b275760405162461bcd60e51b81526004016105879190615645565b505050900390565b60008060005b8451811015614b7f57836001600160a01b0316858281518110614b5457fe5b60200260200101516001600160a01b03161415614b775760019250809150614b7f565b600101614b35565b509250929050565b606081600001805480602002602001604051908101604052809291908181526020018280548015614bd757602002820191906000526020600020905b815481526020019060010190808311614bc3575b50505050509050919050565b60009081526001919091016020526040902054151590565b6000614c078383614be3565b614c3d57508154600181810184556000848152602080822090930184905584548482528286019093526040902091909155611d19565b506000611d19565b6040518060800160405280614c58614d91565b8152602001614c65614d91565b8152602001614c72614d91565b8152602001614c7f614d91565b905290565b6040518060a0016040528060608152602001606081526020016060815260200160608152602001606081525090565b828054828255906000526020600020908101928215614d08579160200282015b82811115614d0857825182546001600160a01b0319166001600160a01b03909116178255602090920191600190910190614cd3565b50614d14929150614dcb565b5090565b604051806040016040528060608152602001606081525090565b828054828255906000526020600020908101928215614d6d579160200282015b82811115614d6d578251825591602001919060010190614d52565b50614d14929150614dea565b60408051808201909152600081526060602082015290565b6040518060800160405280614da4614dff565b8152602001614db1614dff565b8152602001614dbe614dff565b8152602001614c7f614dff565b5b80821115614d145780546001600160a01b0319168155600101614dcc565b5b80821115614d145760008155600101614deb565b604051806040016040528060008152602001600081525090565b60008083601f840112614e2a578182fd5b5081356001600160401b03811115614e40578182fd5b6020830191508360208083028501011115610de157600080fd5b600082601f830112614e6a578081fd5b8151614e7d614e7882615b63565b615b3d565b818152915060208083019084810181840286018201871015614e9e57600080fd5b60005b84811015614ec6578151614eb481615bae565b84529282019290820190600101614ea1565b505050505092915050565b600082601f830112614ee1578081fd5b8151614eef614e7882615b63565b818152915060208083019084810181840286018201871015614f1057600080fd5b60005b84811015614ec657815184529282019290820190600101614f13565b60006101008284031215614f41578081fd5b614f4b6080615b3d565b9050614f578383614f95565b8152614f668360408401614f95565b6020820152614f788360808401614f95565b6040820152614f8a8360c08401614f95565b606082015292915050565b600060408284031215614fa6578081fd5b614fb06040615b3d565b9050813581526020820135602082015292915050565b600060208284031215614fd7578081fd5b81356136e181615bae565b600060208284031215614ff3578081fd5b81516136e181615bae565b60008060408385031215615010578081fd5b823561501b81615bae565b9150602083013561502b81615bae565b809150509250929050565b6000806000806000806080878903121561504e578182fd5b863561505981615bae565b9550602087013561506981615bae565b945060408701356001600160401b0380821115615084578384fd5b6150908a838b01614e19565b909650945060608901359150808211156150a8578384fd5b506150b589828a01614e19565b979a9699509497509295939492505050565b6000806000606084860312156150db578283fd5b83356150e681615bae565b925060208401356150f681615bae565b929592945050506040919091013590565b60008060408385031215615119578182fd5b823561512481615bae565b9150602083013561502b81615bc3565b600080828403610420811215615148578283fd5b833561515381615bae565b9250610400601f1982011215615167578182fd5b506151726080615b3d565b61517f8560208601614f2f565b815261518f856101208601614f2f565b60208201526151a2856102208601614f2f565b60408201526151b5856103208601614f2f565b6060820152809150509250929050565b600080600080600080608087890312156151dd578384fd5b86356151e881615bae565b95506020870135945060408701356001600160401b0380821115615084578586fd5b60006020828403121561521b578081fd5b81516001600160401b03811115615230578182fd5b613df184828501614e5a565b6000806040838503121561524e578182fd5b82516001600160401b0380821115615264578384fd5b61527086838701614e5a565b93506020850151915080821115615285578283fd5b5061529285828601614ed1565b9150509250929050565b6000602082840312156152ad578081fd5b81516001600160401b038111156152c2578182fd5b613df184828501614ed1565b6000602082840312156152df578081fd5b81516136e181615bc3565b6000602082840312156152fb578081fd5b8151600281106136e1578182fd5b60006020828403121561531a578081fd5b81516001600160401b0380821115615330578283fd5b9083019060a08286031215615343578283fd5b61534d60a0615b3d565b82518281111561535b578485fd5b61536787828601614e5a565b82525060208301518281111561537b578485fd5b61538787828601614ed1565b60208301525060408301518281111561539e578485fd5b6153aa87828601614ed1565b6040830152506060830151828111156153c1578485fd5b6153cd87828601614ed1565b6060830152506080830151828111156153e4578485fd5b6153f087828601614ed1565b60808301525095945050505050565b600060208284031215615410578081fd5b5051919050565b6000815180845260208085019450808401835b8381101561544f5781516001600160a01b03168752958201959082019060010161542a565b509495945050505050565b6000815180845260208085019450808401835b8381101561544f5781518752958201959082019060010161546d565b6154948282516154c8565b60208101516154a660408401826154c8565b5060408101516154b960808401826154c8565b5060608101516105a460c08401825b80518252602090810151910152565b600082516154e9818460208701615b82565b9190910192915050565b6001600160a01b0391909116815260200190565b6001600160a01b0392831681529116602082015260400190565b6001600160a01b03929092168252602082015260400190565b6001600160a01b039390931683526020830191909152604082015260600190565b6000602082526136e16020830184615417565b6000604082526155816040830185615417565b8281036020840152615593818561545a565b95945050505050565b60208082528251828201819052600091906040908185019080840286018301878501865b8381101561560857888303603f19018552815180516001600160a01b031684528701518784018790526155f58785018261545a565b95880195935050908601906001016155c0565b509098975050505050505050565b60006020825282602083015282846040840137818301604090810191909152601f909201601f19160101919050565b6000602082528251806020840152615664816040850160208701615b82565b601f01601f19169190910160400192915050565b60208082526012908201527122a9292fa727aa2fa1a7a72a2927a62622a960711b604082015260600190565b6020808252601390820152724552525f4e4f545f4352505f464143544f525960681b604082015260600190565b60208082526026908201527f4f776e61626c653a206e6577206f776e657220697320746865207a65726f206160408201526564647265737360d01b606082015260800190565b6020808252601b908201527a536166654d6174683a206164646974696f6e206f766572666c6f7760281b604082015260600190565b6020808252601390820152724552525f494c4c4547414c5f42414c414e434560681b604082015260600190565b6020808252601a908201527908aa4a4bea89e968a9cbe988a9c8ea890be9c9ea8be9a82a886960331b604082015260600190565b6020808252601790820152764552525f494e56414c49445f4b4f4c5f4144445245535360481b604082015260600190565b6020808252818101527f5361666545524332303a206c6f772d6c6576656c2063616c6c206661696c6564604082015260600190565b6020808252601890820152774552525f494e56414c49445f504f4f4c5f4144445245535360401b604082015260600190565b60208082526021908201527f536166654d6174683a206d756c7469706c69636174696f6e206f766572666c6f6040820152607760f81b606082015260800190565b6020808252818101527f4f776e61626c653a2063616c6c6572206973206e6f7420746865206f776e6572604082015260600190565b6020808252600d908201526c11549497d21054d7d4d1551151609a1b604082015260600190565b6020808252600f908201526e22a9292fa727aa2fa6a0a720a3a2a960891b604082015260600190565b60208082526019908201527811549497d393d517d0d3d354131155115117d0d3d3131150d5603a1b604082015260600190565b6020808252602a908201527f5361666545524332303a204552433230206f7065726174696f6e20646964206e6040820152691bdd081cdd58d8d9595960b21b606082015260800190565b60208082526015908201527411549497d2d3d317d21054d7d393d7d49155d05491605a1b604082015260600190565b6020808252601f908201527f5361666545524332303a2063616c6c20746f206e6f6e2d636f6e747261637400604082015260600190565b600060208252825160406020840152615a0a6060840182615417565b90506020840151601f19848303016040850152615593828261545a565b600061040082019050615a3b828451615489565b6020830151615a4e610100840182615489565b506040830151615a62610200840182615489565b506060830151615a76610300840182615489565b5092915050565b600060208252825160a06020840152615a9960c0840182615417565b90506020840151601f1980858403016040860152615ab7838361545a565b92506040860151915080858403016060860152615ad4838361545a565b92506060860151915080858403016080860152615af1838361545a565b925060808601519150808584030160a086015250615593828261545a565b90815260200190565b9384526001600160a01b03928316602085015291166040830152606082015260800190565b6040518181016001600160401b0381118282101715615b5b57600080fd5b604052919050565b60006001600160401b03821115615b78578081fd5b5060209081020190565b60005b83811015615b9d578181015183820152602001615b85565b83811115614a9e5750506000910152565b6001600160a01b03811681146110a057600080fd5b80151581146110a057600080fdfea2646970667358221220cef938935e4fc8ff283025000c5c890740ae9e07541de281a3cd6d3c0b38dc9b64736f6c634300060c0033",
  "libraries": {},
  "devdoc": {
    "author": "Desyn Labs",
    "kind": "dev",
    "methods": {
      "owner()": {
        "details": "Returns the address of the current owner."
      },
      "renounceOwnership()": {
        "details": "Leaves the contract without owner. It will not be possible to call `onlyOwner` functions anymore. Can only be called by the current owner. NOTE: Renouncing ownership will leave the contract without an owner, thereby removing any functionality that is only available to the owner."
      },
      "transferOwnership(address)": {
        "details": "Transfers ownership of the contract to a new account (`newOwner`). Can only be called by the current owner."
      }
    },
    "title": "Vault managerFee",
    "version": 1
  },
  "userdoc": {
    "kind": "user",
    "methods": {},
    "version": 1
  },
  "storageLayout": {
    "storage": [
      {
        "astId": 18202,
        "contract": "contracts/deploy/UserVault.sol:UserVault",
        "label": "_owner",
        "offset": 0,
        "slot": "0",
        "type": "t_address"
      },
      {
        "astId": 9693,
        "contract": "contracts/deploy/UserVault.sol:UserVault",
        "label": "crpFactory",
        "offset": 0,
        "slot": "1",
        "type": "t_contract(ICRPFactory)9596"
      },
      {
        "astId": 9695,
        "contract": "contracts/deploy/UserVault.sol:UserVault",
        "label": "vaultAddress",
        "offset": 0,
        "slot": "2",
        "type": "t_address"
      },
      {
        "astId": 9733,
        "contract": "contracts/deploy/UserVault.sol:UserVault",
        "label": "kolUserInfo",
        "offset": 0,
        "slot": "3",
        "type": "t_mapping(t_address,t_mapping(t_address,t_array(t_struct(KolUserInfo)9726_storage)dyn_storage))"
      },
      {
        "astId": 9754,
        "contract": "contracts/deploy/UserVault.sol:UserVault",
        "label": "poolsTokens",
        "offset": 0,
        "slot": "4",
        "type": "t_mapping(t_address,t_struct(PoolTokens)9711_storage)"
      },
      {
        "astId": 9758,
        "contract": "contracts/deploy/UserVault.sol:UserVault",
        "label": "poolsStatus",
        "offset": 0,
        "slot": "5",
        "type": "t_mapping(t_address,t_struct(PoolStatus)9720_storage)"
      },
      {
        "astId": 9762,
        "contract": "contracts/deploy/UserVault.sol:UserVault",
        "label": "poolInviteTotal",
        "offset": 0,
        "slot": "6",
        "type": "t_mapping(t_address,t_uint256)"
      },
      {
        "astId": 9766,
        "contract": "contracts/deploy/UserVault.sol:UserVault",
        "label": "kolsList",
        "offset": 0,
        "slot": "7",
        "type": "t_mapping(t_address,t_struct(AddressSet)15863_storage)"
      },
      {
        "astId": 9773,
        "contract": "contracts/deploy/UserVault.sol:UserVault",
        "label": "kolTotalAmountList",
        "offset": 0,
        "slot": "8",
        "type": "t_mapping(t_address,t_mapping(t_address,t_array(t_uint256)dyn_storage))"
      },
      {
        "astId": 9779,
        "contract": "contracts/deploy/UserVault.sol:UserVault",
        "label": "userIndexList",
        "offset": 0,
        "slot": "9",
        "type": "t_mapping(t_address,t_mapping(t_address,t_uint256))"
      },
      {
        "astId": 9785,
        "contract": "contracts/deploy/UserVault.sol:UserVault",
        "label": "userKolList",
        "offset": 0,
        "slot": "10",
        "type": "t_mapping(t_address,t_mapping(t_address,t_address))"
      },
      {
        "astId": 9798,
        "contract": "contracts/deploy/UserVault.sol:UserVault",
        "label": "kolHasClaimed",
        "offset": 0,
        "slot": "11",
        "type": "t_mapping(t_address,t_mapping(t_address,t_struct(ClaimTokens)9792_storage))"
      },
      {
        "astId": 9818,
        "contract": "contracts/deploy/UserVault.sol:UserVault",
        "label": "manageHasClaimed",
        "offset": 0,
        "slot": "12",
        "type": "t_mapping(t_address,t_struct(ClaimTokens)9792_storage)"
      },
      {
        "astId": 9833,
        "contract": "contracts/deploy/UserVault.sol:UserVault",
        "label": "RATIO_TOTAL",
        "offset": 0,
        "slot": "13",
        "type": "t_uint256"
      }
    ],
    "types": {
      "t_address": {
        "encoding": "inplace",
        "label": "address",
        "numberOfBytes": "20"
      },
      "t_array(t_address)dyn_storage": {
        "base": "t_address",
        "encoding": "dynamic_array",
        "label": "address[]",
        "numberOfBytes": "32"
      },
      "t_array(t_bytes32)dyn_storage": {
        "base": "t_bytes32",
        "encoding": "dynamic_array",
        "label": "bytes32[]",
        "numberOfBytes": "32"
      },
      "t_array(t_struct(KolUserInfo)9726_storage)dyn_storage": {
        "base": "t_struct(KolUserInfo)9726_storage",
        "encoding": "dynamic_array",
        "label": "struct UserVault.KolUserInfo[]",
        "numberOfBytes": "32"
      },
      "t_array(t_uint256)dyn_storage": {
        "base": "t_uint256",
        "encoding": "dynamic_array",
        "label": "uint256[]",
        "numberOfBytes": "32"
      },
      "t_bool": {
        "encoding": "inplace",
        "label": "bool",
        "numberOfBytes": "1"
      },
      "t_bytes32": {
        "encoding": "inplace",
        "label": "bytes32",
        "numberOfBytes": "32"
      },
      "t_contract(ICRPFactory)9596": {
        "encoding": "inplace",
        "label": "contract ICRPFactory",
        "numberOfBytes": "20"
      },
      "t_mapping(t_address,t_address)": {
        "encoding": "mapping",
        "key": "t_address",
        "label": "mapping(address => address)",
        "numberOfBytes": "32",
        "value": "t_address"
      },
      "t_mapping(t_address,t_array(t_struct(KolUserInfo)9726_storage)dyn_storage)": {
        "encoding": "mapping",
        "key": "t_address",
        "label": "mapping(address => struct UserVault.KolUserInfo[])",
        "numberOfBytes": "32",
        "value": "t_array(t_struct(KolUserInfo)9726_storage)dyn_storage"
      },
      "t_mapping(t_address,t_array(t_uint256)dyn_storage)": {
        "encoding": "mapping",
        "key": "t_address",
        "label": "mapping(address => uint256[])",
        "numberOfBytes": "32",
        "value": "t_array(t_uint256)dyn_storage"
      },
      "t_mapping(t_address,t_mapping(t_address,t_address))": {
        "encoding": "mapping",
        "key": "t_address",
        "label": "mapping(address => mapping(address => address))",
        "numberOfBytes": "32",
        "value": "t_mapping(t_address,t_address)"
      },
      "t_mapping(t_address,t_mapping(t_address,t_array(t_struct(KolUserInfo)9726_storage)dyn_storage))": {
        "encoding": "mapping",
        "key": "t_address",
        "label": "mapping(address => mapping(address => struct UserVault.KolUserInfo[]))",
        "numberOfBytes": "32",
        "value": "t_mapping(t_address,t_array(t_struct(KolUserInfo)9726_storage)dyn_storage)"
      },
      "t_mapping(t_address,t_mapping(t_address,t_array(t_uint256)dyn_storage))": {
        "encoding": "mapping",
        "key": "t_address",
        "label": "mapping(address => mapping(address => uint256[]))",
        "numberOfBytes": "32",
        "value": "t_mapping(t_address,t_array(t_uint256)dyn_storage)"
      },
      "t_mapping(t_address,t_mapping(t_address,t_struct(ClaimTokens)9792_storage))": {
        "encoding": "mapping",
        "key": "t_address",
        "label": "mapping(address => mapping(address => struct UserVault.ClaimTokens))",
        "numberOfBytes": "32",
        "value": "t_mapping(t_address,t_struct(ClaimTokens)9792_storage)"
      },
      "t_mapping(t_address,t_mapping(t_address,t_uint256))": {
        "encoding": "mapping",
        "key": "t_address",
        "label": "mapping(address => mapping(address => uint256))",
        "numberOfBytes": "32",
        "value": "t_mapping(t_address,t_uint256)"
      },
      "t_mapping(t_address,t_struct(AddressSet)15863_storage)": {
        "encoding": "mapping",
        "key": "t_address",
        "label": "mapping(address => struct EnumerableSet.AddressSet)",
        "numberOfBytes": "32",
        "value": "t_struct(AddressSet)15863_storage"
      },
      "t_mapping(t_address,t_struct(ClaimTokens)9792_storage)": {
        "encoding": "mapping",
        "key": "t_address",
        "label": "mapping(address => struct UserVault.ClaimTokens)",
        "numberOfBytes": "32",
        "value": "t_struct(ClaimTokens)9792_storage"
      },
      "t_mapping(t_address,t_struct(PoolStatus)9720_storage)": {
        "encoding": "mapping",
        "key": "t_address",
        "label": "mapping(address => struct UserVault.PoolStatus)",
        "numberOfBytes": "32",
        "value": "t_struct(PoolStatus)9720_storage"
      },
      "t_mapping(t_address,t_struct(PoolTokens)9711_storage)": {
        "encoding": "mapping",
        "key": "t_address",
        "label": "mapping(address => struct UserVault.PoolTokens)",
        "numberOfBytes": "32",
        "value": "t_struct(PoolTokens)9711_storage"
      },
      "t_mapping(t_address,t_uint256)": {
        "encoding": "mapping",
        "key": "t_address",
        "label": "mapping(address => uint256)",
        "numberOfBytes": "32",
        "value": "t_uint256"
      },
      "t_mapping(t_bytes32,t_uint256)": {
        "encoding": "mapping",
        "key": "t_bytes32",
        "label": "mapping(bytes32 => uint256)",
        "numberOfBytes": "32",
        "value": "t_uint256"
      },
      "t_struct(AddressSet)15863_storage": {
        "encoding": "inplace",
        "label": "struct EnumerableSet.AddressSet",
        "members": [
          {
            "astId": 15862,
            "contract": "contracts/deploy/UserVault.sol:UserVault",
            "label": "_inner",
            "offset": 0,
            "slot": "0",
            "type": "t_struct(Set)15676_storage"
          }
        ],
        "numberOfBytes": "64"
      },
      "t_struct(ClaimTokens)9792_storage": {
        "encoding": "inplace",
        "label": "struct UserVault.ClaimTokens",
        "members": [
          {
            "astId": 9788,
            "contract": "contracts/deploy/UserVault.sol:UserVault",
            "label": "tokens",
            "offset": 0,
            "slot": "0",
            "type": "t_array(t_address)dyn_storage"
          },
          {
            "astId": 9791,
            "contract": "contracts/deploy/UserVault.sol:UserVault",
            "label": "amounts",
            "offset": 0,
            "slot": "1",
            "type": "t_array(t_uint256)dyn_storage"
          }
        ],
        "numberOfBytes": "64"
      },
      "t_struct(KolPoolParams)16679_storage": {
        "encoding": "inplace",
        "label": "struct SmartPoolManager.KolPoolParams",
        "members": [
          {
            "astId": 16672,
            "contract": "contracts/deploy/UserVault.sol:UserVault",
            "label": "managerFee",
            "offset": 0,
            "slot": "0",
            "type": "t_struct(feeParams)16670_storage"
          },
          {
            "astId": 16674,
            "contract": "contracts/deploy/UserVault.sol:UserVault",
            "label": "issueFee",
            "offset": 0,
            "slot": "8",
            "type": "t_struct(feeParams)16670_storage"
          },
          {
            "astId": 16676,
            "contract": "contracts/deploy/UserVault.sol:UserVault",
            "label": "redeemFee",
            "offset": 0,
            "slot": "16",
            "type": "t_struct(feeParams)16670_storage"
          },
          {
            "astId": 16678,
            "contract": "contracts/deploy/UserVault.sol:UserVault",
            "label": "perfermanceFee",
            "offset": 0,
            "slot": "24",
            "type": "t_struct(feeParams)16670_storage"
          }
        ],
        "numberOfBytes": "1024"
      },
      "t_struct(KolUserInfo)9726_storage": {
        "encoding": "inplace",
        "label": "struct UserVault.KolUserInfo",
        "members": [
          {
            "astId": 9722,
            "contract": "contracts/deploy/UserVault.sol:UserVault",
            "label": "userAdr",
            "offset": 0,
            "slot": "0",
            "type": "t_address"
          },
          {
            "astId": 9725,
            "contract": "contracts/deploy/UserVault.sol:UserVault",
            "label": "userAmount",
            "offset": 0,
            "slot": "1",
            "type": "t_array(t_uint256)dyn_storage"
          }
        ],
        "numberOfBytes": "64"
      },
      "t_struct(PoolStatus)9720_storage": {
        "encoding": "inplace",
        "label": "struct UserVault.PoolStatus",
        "members": [
          {
            "astId": 9713,
            "contract": "contracts/deploy/UserVault.sol:UserVault",
            "label": "couldManagerClaim",
            "offset": 0,
            "slot": "0",
            "type": "t_bool"
          },
          {
            "astId": 9715,
            "contract": "contracts/deploy/UserVault.sol:UserVault",
            "label": "isBlackList",
            "offset": 1,
            "slot": "0",
            "type": "t_bool"
          },
          {
            "astId": 9717,
            "contract": "contracts/deploy/UserVault.sol:UserVault",
            "label": "isSetParams",
            "offset": 2,
            "slot": "0",
            "type": "t_bool"
          },
          {
            "astId": 9719,
            "contract": "contracts/deploy/UserVault.sol:UserVault",
            "label": "kolPoolConfig",
            "offset": 0,
            "slot": "1",
            "type": "t_struct(KolPoolParams)16679_storage"
          }
        ],
        "numberOfBytes": "1056"
      },
      "t_struct(PoolTokens)9711_storage": {
        "encoding": "inplace",
        "label": "struct UserVault.PoolTokens",
        "members": [
          {
            "astId": 9698,
            "contract": "contracts/deploy/UserVault.sol:UserVault",
            "label": "tokenList",
            "offset": 0,
            "slot": "0",
            "type": "t_array(t_address)dyn_storage"
          },
          {
            "astId": 9701,
            "contract": "contracts/deploy/UserVault.sol:UserVault",
            "label": "managerAmount",
            "offset": 0,
            "slot": "1",
            "type": "t_array(t_uint256)dyn_storage"
          },
          {
            "astId": 9704,
            "contract": "contracts/deploy/UserVault.sol:UserVault",
            "label": "issueAmount",
            "offset": 0,
            "slot": "2",
            "type": "t_array(t_uint256)dyn_storage"
          },
          {
            "astId": 9707,
            "contract": "contracts/deploy/UserVault.sol:UserVault",
            "label": "redeemAmount",
            "offset": 0,
            "slot": "3",
            "type": "t_array(t_uint256)dyn_storage"
          },
          {
            "astId": 9710,
            "contract": "contracts/deploy/UserVault.sol:UserVault",
            "label": "perfermanceAmount",
            "offset": 0,
            "slot": "4",
            "type": "t_array(t_uint256)dyn_storage"
          }
        ],
        "numberOfBytes": "160"
      },
      "t_struct(Set)15676_storage": {
        "encoding": "inplace",
        "label": "struct EnumerableSet.Set",
        "members": [
          {
            "astId": 15671,
            "contract": "contracts/deploy/UserVault.sol:UserVault",
            "label": "_values",
            "offset": 0,
            "slot": "0",
            "type": "t_array(t_bytes32)dyn_storage"
          },
          {
            "astId": 15675,
            "contract": "contracts/deploy/UserVault.sol:UserVault",
            "label": "_indexes",
            "offset": 0,
            "slot": "1",
            "type": "t_mapping(t_bytes32,t_uint256)"
          }
        ],
        "numberOfBytes": "64"
      },
      "t_struct(feeParams)16670_storage": {
        "encoding": "inplace",
        "label": "struct SmartPoolManager.feeParams",
        "members": [
          {
            "astId": 16663,
            "contract": "contracts/deploy/UserVault.sol:UserVault",
            "label": "firstLevel",
            "offset": 0,
            "slot": "0",
            "type": "t_struct(levelParams)16661_storage"
          },
          {
            "astId": 16665,
            "contract": "contracts/deploy/UserVault.sol:UserVault",
            "label": "secondLevel",
            "offset": 0,
            "slot": "2",
            "type": "t_struct(levelParams)16661_storage"
          },
          {
            "astId": 16667,
            "contract": "contracts/deploy/UserVault.sol:UserVault",
            "label": "thirdLevel",
            "offset": 0,
            "slot": "4",
            "type": "t_struct(levelParams)16661_storage"
          },
          {
            "astId": 16669,
            "contract": "contracts/deploy/UserVault.sol:UserVault",
            "label": "fourLevel",
            "offset": 0,
            "slot": "6",
            "type": "t_struct(levelParams)16661_storage"
          }
        ],
        "numberOfBytes": "256"
      },
      "t_struct(levelParams)16661_storage": {
        "encoding": "inplace",
        "label": "struct SmartPoolManager.levelParams",
        "members": [
          {
            "astId": 16658,
            "contract": "contracts/deploy/UserVault.sol:UserVault",
            "label": "level",
            "offset": 0,
            "slot": "0",
            "type": "t_uint256"
          },
          {
            "astId": 16660,
            "contract": "contracts/deploy/UserVault.sol:UserVault",
            "label": "ratio",
            "offset": 0,
            "slot": "1",
            "type": "t_uint256"
          }
        ],
        "numberOfBytes": "64"
      },
      "t_uint256": {
        "encoding": "inplace",
        "label": "uint256",
        "numberOfBytes": "32"
      }
    }
  }
}