{
  "address": "0x69b33add9F3cAC9B0D6a33156c26D61434AEb785",
  "abi": [
    {
      "anonymous": false,
      "inputs": [
        {
          "indexed": true,
          "internalType": "address",
          "name": "caller",
          "type": "address"
        },
        {
          "indexed": true,
          "internalType": "address",
          "name": "kol",
          "type": "address"
        },
        {
          "indexed": false,
          "internalType": "address",
          "name": "token",
          "type": "address"
        },
        {
          "indexed": false,
          "internalType": "uint256",
          "name": "amount",
          "type": "uint256"
        },
        {
          "indexed": false,
          "internalType": "uint256",
          "name": "time",
          "type": "uint256"
        }
      ],
      "name": "KolClaim",
      "type": "event"
    },
    {
      "anonymous": true,
      "inputs": [
        {
          "indexed": true,
          "internalType": "bytes4",
          "name": "sig",
          "type": "bytes4"
        },
        {
          "indexed": true,
          "internalType": "address",
          "name": "caller",
          "type": "address"
        },
        {
          "indexed": false,
          "internalType": "bytes",
          "name": "data",
          "type": "bytes"
        }
      ],
      "name": "LOG_CALL",
      "type": "event"
    },
    {
      "anonymous": false,
      "inputs": [
        {
          "indexed": true,
          "internalType": "address",
          "name": "caller",
          "type": "address"
        },
        {
          "indexed": true,
          "internalType": "address",
          "name": "manager",
          "type": "address"
        },
        {
          "indexed": false,
          "internalType": "address",
          "name": "token",
          "type": "address"
        },
        {
          "indexed": false,
          "internalType": "uint256",
          "name": "amount",
          "type": "uint256"
        },
        {
          "indexed": false,
          "internalType": "uint256",
          "name": "time",
          "type": "uint256"
        }
      ],
      "name": "ManagerClaim",
      "type": "event"
    },
    {
      "anonymous": false,
      "inputs": [
        {
          "indexed": true,
          "internalType": "address",
          "name": "caller",
          "type": "address"
        },
        {
          "indexed": true,
          "internalType": "address",
          "name": "pool",
          "type": "address"
        },
        {
          "indexed": false,
          "internalType": "address",
          "name": "token",
          "type": "address"
        },
        {
          "indexed": false,
          "internalType": "uint256",
          "name": "amount",
          "type": "uint256"
        },
        {
          "indexed": false,
          "internalType": "uint256",
          "name": "time",
          "type": "uint256"
        }
      ],
      "name": "ManagersClaim",
      "type": "event"
    },
    {
      "anonymous": false,
      "inputs": [
        {
          "indexed": true,
          "internalType": "address",
          "name": "previousOwner",
          "type": "address"
        },
        {
          "indexed": true,
          "internalType": "address",
          "name": "newOwner",
          "type": "address"
        }
      ],
      "name": "OwnershipTransferred",
      "type": "event"
    },
    {
      "anonymous": false,
      "inputs": [
        {
          "indexed": true,
          "internalType": "address",
          "name": "pool",
          "type": "address"
        },
        {
          "indexed": false,
          "internalType": "uint256",
          "name": "types",
          "type": "uint256"
        },
        {
          "indexed": false,
          "internalType": "address",
          "name": "caller",
          "type": "address"
        },
        {
          "indexed": false,
          "internalType": "address",
          "name": "token",
          "type": "address"
        },
        {
          "indexed": false,
          "internalType": "uint256",
          "name": "balance",
          "type": "uint256"
        }
      ],
      "name": "TypeAmountIn",
      "type": "event"
    },
    {
      "inputs": [],
      "name": "claimEther",
      "outputs": [],
      "stateMutability": "payable",
      "type": "function"
    },
    {
      "inputs": [
        {
          "internalType": "address",
          "name": "token",
          "type": "address"
        },
        {
          "internalType": "address",
          "name": "user",
          "type": "address"
        },
        {
          "internalType": "uint256",
          "name": "amount",
          "type": "uint256"
        }
      ],
      "name": "claimToken",
      "outputs": [],
      "stateMutability": "nonpayable",
      "type": "function"
    },
    {
      "inputs": [
        {
          "internalType": "address",
          "name": "pool",
          "type": "address"
        },
        {
          "internalType": "uint256",
          "name": "types",
          "type": "uint256"
        },
        {
          "internalType": "address[]",
          "name": "tokensIn",
          "type": "address[]"
        },
        {
          "internalType": "uint256[]",
          "name": "amountsIn",
          "type": "uint256[]"
        }
      ],
      "name": "depositToken",
      "outputs": [],
      "stateMutability": "nonpayable",
      "type": "function"
    },
    {
      "inputs": [
        {
          "internalType": "address",
          "name": "pool",
          "type": "address"
        },
        {
          "internalType": "address",
          "name": "kol",
          "type": "address"
        }
      ],
      "name": "getKolFeeType",
      "outputs": [
        {
          "components": [
            {
              "internalType": "address[]",
              "name": "tokenList",
              "type": "address[]"
            },
            {
              "internalType": "uint256[]",
              "name": "managerAmount",
              "type": "uint256[]"
            },
            {
              "internalType": "uint256[]",
              "name": "issueAmount",
              "type": "uint256[]"
            },
            {
              "internalType": "uint256[]",
              "name": "redeemAmount",
              "type": "uint256[]"
            },
            {
              "internalType": "uint256[]",
              "name": "perfermanceAmount",
              "type": "uint256[]"
            }
          ],
          "internalType": "struct UserVault.PoolTokens",
          "name": "result",
          "type": "tuple"
        }
      ],
      "stateMutability": "view",
      "type": "function"
    },
    {
      "inputs": [
        {
          "internalType": "address",
          "name": "pool",
          "type": "address"
        },
        {
          "internalType": "address",
          "name": "kol",
          "type": "address"
        }
      ],
      "name": "getKolHasClaimed",
      "outputs": [
        {
          "components": [
            {
              "internalType": "address[]",
              "name": "tokens",
              "type": "address[]"
            },
            {
              "internalType": "uint256[]",
              "name": "amounts",
              "type": "uint256[]"
            }
          ],
          "internalType": "struct UserVault.ClaimTokens",
          "name": "",
          "type": "tuple"
        }
      ],
      "stateMutability": "view",
      "type": "function"
    },
    {
      "inputs": [
        {
          "internalType": "address",
          "name": "pool",
          "type": "address"
        },
        {
          "internalType": "address",
          "name": "kol",
          "type": "address"
        }
      ],
      "name": "getKolReward",
      "outputs": [
        {
          "internalType": "address[]",
          "name": "tokenList",
          "type": "address[]"
        },
        {
          "internalType": "uint256[]",
          "name": "balances",
          "type": "uint256[]"
        }
      ],
      "stateMutability": "view",
      "type": "function"
    },
    {
      "inputs": [
        {
          "internalType": "address",
          "name": "pool",
          "type": "address"
        },
        {
          "internalType": "address",
          "name": "kol",
          "type": "address"
        }
      ],
      "name": "getKolUserInfo",
      "outputs": [
        {
          "components": [
            {
              "internalType": "address",
              "name": "userAdr",
              "type": "address"
            },
            {
              "internalType": "uint256[]",
              "name": "userAmount",
              "type": "uint256[]"
            }
          ],
          "internalType": "struct UserVault.KolUserInfo[]",
          "name": "",
          "type": "tuple[]"
        }
      ],
      "stateMutability": "view",
      "type": "function"
    },
    {
      "inputs": [
        {
          "internalType": "address",
          "name": "pool",
          "type": "address"
        }
      ],
      "name": "getKolsAdr",
      "outputs": [
        {
          "internalType": "address[]",
          "name": "",
          "type": "address[]"
        }
      ],
      "stateMutability": "view",
      "type": "function"
    },
    {
      "inputs": [
        {
          "internalType": "address",
          "name": "pool",
          "type": "address"
        }
      ],
      "name": "getKolsReward",
      "outputs": [
        {
          "internalType": "address[]",
          "name": "",
          "type": "address[]"
        },
        {
          "internalType": "uint256[]",
          "name": "",
          "type": "uint256[]"
        }
      ],
      "stateMutability": "view",
      "type": "function"
    },
    {
      "inputs": [
        {
          "internalType": "address",
          "name": "pool",
          "type": "address"
        }
      ],
      "name": "getManageHasClaimed",
      "outputs": [
        {
          "components": [
            {
              "internalType": "address[]",
              "name": "tokens",
              "type": "address[]"
            },
            {
              "internalType": "uint256[]",
              "name": "amounts",
              "type": "uint256[]"
            }
          ],
          "internalType": "struct UserVault.ClaimTokens",
          "name": "",
          "type": "tuple"
        }
      ],
      "stateMutability": "view",
      "type": "function"
    },
    {
      "inputs": [
        {
          "internalType": "address",
          "name": "pool",
          "type": "address"
        }
      ],
      "name": "getManagerFeeTypes",
      "outputs": [
        {
          "components": [
            {
              "internalType": "address[]",
              "name": "tokenList",
              "type": "address[]"
            },
            {
              "internalType": "uint256[]",
              "name": "managerAmount",
              "type": "uint256[]"
            },
            {
              "internalType": "uint256[]",
              "name": "issueAmount",
              "type": "uint256[]"
            },
            {
              "internalType": "uint256[]",
              "name": "redeemAmount",
              "type": "uint256[]"
            },
            {
              "internalType": "uint256[]",
              "name": "perfermanceAmount",
              "type": "uint256[]"
            }
          ],
          "internalType": "struct UserVault.PoolTokens",
          "name": "result",
          "type": "tuple"
        }
      ],
      "stateMutability": "view",
      "type": "function"
    },
    {
      "inputs": [
        {
          "internalType": "address",
          "name": "pool",
          "type": "address"
        }
      ],
      "name": "getManagerReward",
      "outputs": [
        {
          "internalType": "address[]",
          "name": "",
          "type": "address[]"
        },
        {
          "internalType": "uint256[]",
          "name": "",
          "type": "uint256[]"
        }
      ],
      "stateMutability": "view",
      "type": "function"
    },
    {
      "inputs": [
        {
          "internalType": "address",
          "name": "pool",
          "type": "address"
        }
      ],
      "name": "getPoolConfig",
      "outputs": [
        {
          "components": [
            {
              "components": [
                {
                  "components": [
                    {
                      "internalType": "uint256",
                      "name": "level",
                      "type": "uint256"
                    },
                    {
                      "internalType": "uint256",
                      "name": "ratio",
                      "type": "uint256"
                    }
                  ],
                  "internalType": "struct SmartPoolManager.levelParams",
                  "name": "firstLevel",
                  "type": "tuple"
                },
                {
                  "components": [
                    {
                      "internalType": "uint256",
                      "name": "level",
                      "type": "uint256"
                    },
                    {
                      "internalType": "uint256",
                      "name": "ratio",
                      "type": "uint256"
                    }
                  ],
                  "internalType": "struct SmartPoolManager.levelParams",
                  "name": "secondLevel",
                  "type": "tuple"
                },
                {
                  "components": [
                    {
                      "internalType": "uint256",
                      "name": "level",
                      "type": "uint256"
                    },
                    {
                      "internalType": "uint256",
                      "name": "ratio",
                      "type": "uint256"
                    }
                  ],
                  "internalType": "struct SmartPoolManager.levelParams",
                  "name": "thirdLevel",
                  "type": "tuple"
                },
                {
                  "components": [
                    {
                      "internalType": "uint256",
                      "name": "level",
                      "type": "uint256"
                    },
                    {
                      "internalType": "uint256",
                      "name": "ratio",
                      "type": "uint256"
                    }
                  ],
                  "internalType": "struct SmartPoolManager.levelParams",
                  "name": "fourLevel",
                  "type": "tuple"
                }
              ],
              "internalType": "struct SmartPoolManager.feeParams",
              "name": "managerFee",
              "type": "tuple"
            },
            {
              "components": [
                {
                  "components": [
                    {
                      "internalType": "uint256",
                      "name": "level",
                      "type": "uint256"
                    },
                    {
                      "internalType": "uint256",
                      "name": "ratio",
                      "type": "uint256"
                    }
                  ],
                  "internalType": "struct SmartPoolManager.levelParams",
                  "name": "firstLevel",
                  "type": "tuple"
                },
                {
                  "components": [
                    {
                      "internalType": "uint256",
                      "name": "level",
                      "type": "uint256"
                    },
                    {
                      "internalType": "uint256",
                      "name": "ratio",
                      "type": "uint256"
                    }
                  ],
                  "internalType": "struct SmartPoolManager.levelParams",
                  "name": "secondLevel",
                  "type": "tuple"
                },
                {
                  "components": [
                    {
                      "internalType": "uint256",
                      "name": "level",
                      "type": "uint256"
                    },
                    {
                      "internalType": "uint256",
                      "name": "ratio",
                      "type": "uint256"
                    }
                  ],
                  "internalType": "struct SmartPoolManager.levelParams",
                  "name": "thirdLevel",
                  "type": "tuple"
                },
                {
                  "components": [
                    {
                      "internalType": "uint256",
                      "name": "level",
                      "type": "uint256"
                    },
                    {
                      "internalType": "uint256",
                      "name": "ratio",
                      "type": "uint256"
                    }
                  ],
                  "internalType": "struct SmartPoolManager.levelParams",
                  "name": "fourLevel",
                  "type": "tuple"
                }
              ],
              "internalType": "struct SmartPoolManager.feeParams",
              "name": "issueFee",
              "type": "tuple"
            },
            {
              "components": [
                {
                  "components": [
                    {
                      "internalType": "uint256",
                      "name": "level",
                      "type": "uint256"
                    },
                    {
                      "internalType": "uint256",
                      "name": "ratio",
                      "type": "uint256"
                    }
                  ],
                  "internalType": "struct SmartPoolManager.levelParams",
                  "name": "firstLevel",
                  "type": "tuple"
                },
                {
                  "components": [
                    {
                      "internalType": "uint256",
                      "name": "level",
                      "type": "uint256"
                    },
                    {
                      "internalType": "uint256",
                      "name": "ratio",
                      "type": "uint256"
                    }
                  ],
                  "internalType": "struct SmartPoolManager.levelParams",
                  "name": "secondLevel",
                  "type": "tuple"
                },
                {
                  "components": [
                    {
                      "internalType": "uint256",
                      "name": "level",
                      "type": "uint256"
                    },
                    {
                      "internalType": "uint256",
                      "name": "ratio",
                      "type": "uint256"
                    }
                  ],
                  "internalType": "struct SmartPoolManager.levelParams",
                  "name": "thirdLevel",
                  "type": "tuple"
                },
                {
                  "components": [
                    {
                      "internalType": "uint256",
                      "name": "level",
                      "type": "uint256"
                    },
                    {
                      "internalType": "uint256",
                      "name": "ratio",
                      "type": "uint256"
                    }
                  ],
                  "internalType": "struct SmartPoolManager.levelParams",
                  "name": "fourLevel",
                  "type": "tuple"
                }
              ],
              "internalType": "struct SmartPoolManager.feeParams",
              "name": "redeemFee",
              "type": "tuple"
            },
            {
              "components": [
                {
                  "components": [
                    {
                      "internalType": "uint256",
                      "name": "level",
                      "type": "uint256"
                    },
                    {
                      "internalType": "uint256",
                      "name": "ratio",
                      "type": "uint256"
                    }
                  ],
                  "internalType": "struct SmartPoolManager.levelParams",
                  "name": "firstLevel",
                  "type": "tuple"
                },
                {
                  "components": [
                    {
                      "internalType": "uint256",
                      "name": "level",
                      "type": "uint256"
                    },
                    {
                      "internalType": "uint256",
                      "name": "ratio",
                      "type": "uint256"
                    }
                  ],
                  "internalType": "struct SmartPoolManager.levelParams",
                  "name": "secondLevel",
                  "type": "tuple"
                },
                {
                  "components": [
                    {
                      "internalType": "uint256",
                      "name": "level",
                      "type": "uint256"
                    },
                    {
                      "internalType": "uint256",
                      "name": "ratio",
                      "type": "uint256"
                    }
                  ],
                  "internalType": "struct SmartPoolManager.levelParams",
                  "name": "thirdLevel",
                  "type": "tuple"
                },
                {
                  "components": [
                    {
                      "internalType": "uint256",
                      "name": "level",
                      "type": "uint256"
                    },
                    {
                      "internalType": "uint256",
                      "name": "ratio",
                      "type": "uint256"
                    }
                  ],
                  "internalType": "struct SmartPoolManager.levelParams",
                  "name": "fourLevel",
                  "type": "tuple"
                }
              ],
              "internalType": "struct SmartPoolManager.feeParams",
              "name": "perfermanceFee",
              "type": "tuple"
            }
          ],
          "internalType": "struct SmartPoolManager.KolPoolParams",
          "name": "",
          "type": "tuple"
        }
      ],
      "stateMutability": "view",
      "type": "function"
    },
    {
      "inputs": [
        {
          "internalType": "address",
          "name": "pool",
          "type": "address"
        }
      ],
      "name": "getPoolFeeTypes",
      "outputs": [
        {
          "components": [
            {
              "internalType": "address[]",
              "name": "tokenList",
              "type": "address[]"
            },
            {
              "internalType": "uint256[]",
              "name": "managerAmount",
              "type": "uint256[]"
            },
            {
              "internalType": "uint256[]",
              "name": "issueAmount",
              "type": "uint256[]"
            },
            {
              "internalType": "uint256[]",
              "name": "redeemAmount",
              "type": "uint256[]"
            },
            {
              "internalType": "uint256[]",
              "name": "perfermanceAmount",
              "type": "uint256[]"
            }
          ],
          "internalType": "struct UserVault.PoolTokens",
          "name": "result",
          "type": "tuple"
        }
      ],
      "stateMutability": "view",
      "type": "function"
    },
    {
      "inputs": [
        {
          "internalType": "address",
          "name": "pool",
          "type": "address"
        }
      ],
      "name": "getPoolReward",
      "outputs": [
        {
          "internalType": "address[]",
          "name": "tokenList",
          "type": "address[]"
        },
        {
          "internalType": "uint256[]",
          "name": "balances",
          "type": "uint256[]"
        }
      ],
      "stateMutability": "view",
      "type": "function"
    },
    {
      "inputs": [
        {
          "internalType": "address",
          "name": "pool",
          "type": "address"
        },
        {
          "internalType": "address",
          "name": "kol",
          "type": "address"
        }
      ],
      "name": "getUnKolReward",
      "outputs": [
        {
          "internalType": "address[]",
          "name": "",
          "type": "address[]"
        },
        {
          "internalType": "uint256[]",
          "name": "",
          "type": "uint256[]"
        }
      ],
      "stateMutability": "nonpayable",
      "type": "function"
    },
    {
      "inputs": [
        {
          "internalType": "address",
          "name": "pool",
          "type": "address"
        }
      ],
      "name": "getUnManagerReward",
      "outputs": [
        {
          "internalType": "address[]",
          "name": "",
          "type": "address[]"
        },
        {
          "internalType": "uint256[]",
          "name": "",
          "type": "uint256[]"
        }
      ],
      "stateMutability": "nonpayable",
      "type": "function"
    },
    {
      "inputs": [
        {
          "internalType": "address",
          "name": "pool",
          "type": "address"
        },
        {
          "internalType": "address",
          "name": "user",
          "type": "address"
        }
      ],
      "name": "getUserKolInfo",
      "outputs": [
        {
          "components": [
            {
              "internalType": "address",
              "name": "kol",
              "type": "address"
            },
            {
              "internalType": "uint256",
              "name": "index",
              "type": "uint256"
            }
          ],
          "internalType": "struct UserVault.UserKolInfo",
          "name": "",
          "type": "tuple"
        }
      ],
      "stateMutability": "view",
      "type": "function"
    },
    {
      "inputs": [
        {
          "internalType": "address",
          "name": "pool",
          "type": "address"
        }
      ],
      "name": "kolClaim",
      "outputs": [],
      "stateMutability": "nonpayable",
      "type": "function"
    },
    {
      "inputs": [
        {
          "internalType": "address",
          "name": "",
          "type": "address"
        },
        {
          "internalType": "address",
          "name": "",
          "type": "address"
        },
        {
          "internalType": "uint256",
          "name": "",
          "type": "uint256"
        }
      ],
      "name": "kolTotalAmountList",
      "outputs": [
        {
          "internalType": "uint256",
          "name": "",
          "type": "uint256"
        }
      ],
      "stateMutability": "view",
      "type": "function"
    },
    {
      "inputs": [
        {
          "internalType": "address",
          "name": "pool",
          "type": "address"
        }
      ],
      "name": "managerClaim",
      "outputs": [],
      "stateMutability": "nonpayable",
      "type": "function"
    },
    {
      "inputs": [],
      "name": "owner",
      "outputs": [
        {
          "internalType": "address",
          "name": "",
          "type": "address"
        }
      ],
      "stateMutability": "view",
      "type": "function"
    },
    {
      "inputs": [
        {
          "internalType": "address",
          "name": "kol",
          "type": "address"
        },
        {
          "internalType": "address",
          "name": "user",
          "type": "address"
        },
        {
          "internalType": "address[]",
          "name": "poolTokens",
          "type": "address[]"
        },
        {
          "internalType": "uint256[]",
          "name": "tokensAmount",
          "type": "uint256[]"
        }
      ],
      "name": "recordTokenInfo",
      "outputs": [],
      "stateMutability": "nonpayable",
      "type": "function"
    },
    {
      "inputs": [],
      "name": "renounceOwnership",
      "outputs": [],
      "stateMutability": "nonpayable",
      "type": "function"
    },
    {
      "inputs": [
        {
          "internalType": "address",
          "name": "pool",
          "type": "address"
        },
        {
          "internalType": "bool",
          "name": "bools",
          "type": "bool"
        }
      ],
      "name": "setBlackList",
      "outputs": [],
      "stateMutability": "nonpayable",
      "type": "function"
    },
    {
      "inputs": [
        {
          "internalType": "address",
          "name": "adr",
          "type": "address"
        }
      ],
      "name": "setCrpFactory",
      "outputs": [],
      "stateMutability": "nonpayable",
      "type": "function"
    },
    {
      "inputs": [
        {
          "internalType": "address",
          "name": "pool",
          "type": "address"
        },
        {
          "components": [
            {
              "components": [
                {
                  "components": [
                    {
                      "internalType": "uint256",
                      "name": "level",
                      "type": "uint256"
                    },
                    {
                      "internalType": "uint256",
                      "name": "ratio",
                      "type": "uint256"
                    }
                  ],
                  "internalType": "struct SmartPoolManager.levelParams",
                  "name": "firstLevel",
                  "type": "tuple"
                },
                {
                  "components": [
                    {
                      "internalType": "uint256",
                      "name": "level",
                      "type": "uint256"
                    },
                    {
                      "internalType": "uint256",
                      "name": "ratio",
                      "type": "uint256"
                    }
                  ],
                  "internalType": "struct SmartPoolManager.levelParams",
                  "name": "secondLevel",
                  "type": "tuple"
                },
                {
                  "components": [
                    {
                      "internalType": "uint256",
                      "name": "level",
                      "type": "uint256"
                    },
                    {
                      "internalType": "uint256",
                      "name": "ratio",
                      "type": "uint256"
                    }
                  ],
                  "internalType": "struct SmartPoolManager.levelParams",
                  "name": "thirdLevel",
                  "type": "tuple"
                },
                {
                  "components": [
                    {
                      "internalType": "uint256",
                      "name": "level",
                      "type": "uint256"
                    },
                    {
                      "internalType": "uint256",
                      "name": "ratio",
                      "type": "uint256"
                    }
                  ],
                  "internalType": "struct SmartPoolManager.levelParams",
                  "name": "fourLevel",
                  "type": "tuple"
                }
              ],
              "internalType": "struct SmartPoolManager.feeParams",
              "name": "managerFee",
              "type": "tuple"
            },
            {
              "components": [
                {
                  "components": [
                    {
                      "internalType": "uint256",
                      "name": "level",
                      "type": "uint256"
                    },
                    {
                      "internalType": "uint256",
                      "name": "ratio",
                      "type": "uint256"
                    }
                  ],
                  "internalType": "struct SmartPoolManager.levelParams",
                  "name": "firstLevel",
                  "type": "tuple"
                },
                {
                  "components": [
                    {
                      "internalType": "uint256",
                      "name": "level",
                      "type": "uint256"
                    },
                    {
                      "internalType": "uint256",
                      "name": "ratio",
                      "type": "uint256"
                    }
                  ],
                  "internalType": "struct SmartPoolManager.levelParams",
                  "name": "secondLevel",
                  "type": "tuple"
                },
                {
                  "components": [
                    {
                      "internalType": "uint256",
                      "name": "level",
                      "type": "uint256"
                    },
                    {
                      "internalType": "uint256",
                      "name": "ratio",
                      "type": "uint256"
                    }
                  ],
                  "internalType": "struct SmartPoolManager.levelParams",
                  "name": "thirdLevel",
                  "type": "tuple"
                },
                {
                  "components": [
                    {
                      "internalType": "uint256",
                      "name": "level",
                      "type": "uint256"
                    },
                    {
                      "internalType": "uint256",
                      "name": "ratio",
                      "type": "uint256"
                    }
                  ],
                  "internalType": "struct SmartPoolManager.levelParams",
                  "name": "fourLevel",
                  "type": "tuple"
                }
              ],
              "internalType": "struct SmartPoolManager.feeParams",
              "name": "issueFee",
              "type": "tuple"
            },
            {
              "components": [
                {
                  "components": [
                    {
                      "internalType": "uint256",
                      "name": "level",
                      "type": "uint256"
                    },
                    {
                      "internalType": "uint256",
                      "name": "ratio",
                      "type": "uint256"
                    }
                  ],
                  "internalType": "struct SmartPoolManager.levelParams",
                  "name": "firstLevel",
                  "type": "tuple"
                },
                {
                  "components": [
                    {
                      "internalType": "uint256",
                      "name": "level",
                      "type": "uint256"
                    },
                    {
                      "internalType": "uint256",
                      "name": "ratio",
                      "type": "uint256"
                    }
                  ],
                  "internalType": "struct SmartPoolManager.levelParams",
                  "name": "secondLevel",
                  "type": "tuple"
                },
                {
                  "components": [
                    {
                      "internalType": "uint256",
                      "name": "level",
                      "type": "uint256"
                    },
                    {
                      "internalType": "uint256",
                      "name": "ratio",
                      "type": "uint256"
                    }
                  ],
                  "internalType": "struct SmartPoolManager.levelParams",
                  "name": "thirdLevel",
                  "type": "tuple"
                },
                {
                  "components": [
                    {
                      "internalType": "uint256",
                      "name": "level",
                      "type": "uint256"
                    },
                    {
                      "internalType": "uint256",
                      "name": "ratio",
                      "type": "uint256"
                    }
                  ],
                  "internalType": "struct SmartPoolManager.levelParams",
                  "name": "fourLevel",
                  "type": "tuple"
                }
              ],
              "internalType": "struct SmartPoolManager.feeParams",
              "name": "redeemFee",
              "type": "tuple"
            },
            {
              "components": [
                {
                  "components": [
                    {
                      "internalType": "uint256",
                      "name": "level",
                      "type": "uint256"
                    },
                    {
                      "internalType": "uint256",
                      "name": "ratio",
                      "type": "uint256"
                    }
                  ],
                  "internalType": "struct SmartPoolManager.levelParams",
                  "name": "firstLevel",
                  "type": "tuple"
                },
                {
                  "components": [
                    {
                      "internalType": "uint256",
                      "name": "level",
                      "type": "uint256"
                    },
                    {
                      "internalType": "uint256",
                      "name": "ratio",
                      "type": "uint256"
                    }
                  ],
                  "internalType": "struct SmartPoolManager.levelParams",
                  "name": "secondLevel",
                  "type": "tuple"
                },
                {
                  "components": [
                    {
                      "internalType": "uint256",
                      "name": "level",
                      "type": "uint256"
                    },
                    {
                      "internalType": "uint256",
                      "name": "ratio",
                      "type": "uint256"
                    }
                  ],
                  "internalType": "struct SmartPoolManager.levelParams",
                  "name": "thirdLevel",
                  "type": "tuple"
                },
                {
                  "components": [
                    {
                      "internalType": "uint256",
                      "name": "level",
                      "type": "uint256"
                    },
                    {
                      "internalType": "uint256",
                      "name": "ratio",
                      "type": "uint256"
                    }
                  ],
                  "internalType": "struct SmartPoolManager.levelParams",
                  "name": "fourLevel",
                  "type": "tuple"
                }
              ],
              "internalType": "struct SmartPoolManager.feeParams",
              "name": "perfermanceFee",
              "type": "tuple"
            }
          ],
          "internalType": "struct SmartPoolManager.KolPoolParams",
          "name": "_poolParams",
          "type": "tuple"
        }
      ],
      "name": "setPoolParams",
      "outputs": [],
      "stateMutability": "nonpayable",
      "type": "function"
    },
    {
      "inputs": [
        {
          "internalType": "address",
          "name": "adr",
          "type": "address"
        }
      ],
      "name": "setVaultAdr",
      "outputs": [],
      "stateMutability": "nonpayable",
      "type": "function"
    },
    {
      "inputs": [
        {
          "internalType": "address",
          "name": "newOwner",
          "type": "address"
        }
      ],
      "name": "transferOwnership",
      "outputs": [],
      "stateMutability": "nonpayable",
      "type": "function"
    },
    {
      "inputs": [
        {
          "internalType": "address",
          "name": "",
          "type": "address"
        },
        {
          "internalType": "address",
          "name": "",
          "type": "address"
        }
      ],
      "name": "userKolList",
      "outputs": [
        {
          "internalType": "address",
          "name": "kol",
          "type": "address"
        },
        {
          "internalType": "uint256",
          "name": "index",
          "type": "uint256"
        }
      ],
      "stateMutability": "view",
      "type": "function"
    },
    {
      "stateMutability": "payable",
      "type": "receive"
    }
  ],
  "transactionHash": "0x4d23da5b40ec488fe49eaec7262fcd1a470adf5b9be9e009a47fdc95cf7623a4",
  "args": [],
  "numDeployments": 2,
  "solcInputHash": "8edc9bccdc253d565e9e68cb11eb6767",
  "bytecode": "0x60806040523480156200001157600080fd5b5060006200001e6200006e565b600080546001600160a01b0319166001600160a01b0383169081178255604051929350917f8be0079c531659141344cd1fd0a4f28419497f9722a3daafe3b4186f6b6457e0908290a35062000072565b3390565b615fc380620000826000396000f3fe6080604052600436106101615760003560e01c8063125bfb661461016d5780631437ac131461018f578063245cd1db146101c657806344e6a1de146101e65780634660c5a51461021357806355291dbd146102335780635740845d1461023b578063598797ad1461026857806368092bd9146102885780636fd4ba9c146102a8578063715018a6146102c85780637234100a146102dd5780638da5cb5b146102fd5780639155dae71461031f5780639b1061b21461033f5780639f1da1601461036c578063a536ebf314610399578063aa93ae49146103b9578063bb408f2d146103d9578063bf91b4c914610407578063c0663cc914610427578063c1e5762214610447578063c90361dd14610467578063c969229c14610494578063d6b485a5146104b4578063d7256c70146104d4578063ebee7bcc146104f4578063edb12adf14610521578063f29486a114610541578063f2fde38b1461056e57610168565b3661016857005b600080fd5b34801561017957600080fd5b5061018d610188366004615499565b61058e565b005b34801561019b57600080fd5b506101af6101aa366004615398565b6105ef565b6040516101bd929190615940565b60405180910390f35b3480156101d257600080fd5b506101af6101e13660046153d0565b6107ce565b3480156101f257600080fd5b506102066102013660046153d0565b610e8a565b6040516101bd9190615eab565b34801561021f57600080fd5b5061018d61022e366004615506565b610edd565b61018d61112a565b34801561024757600080fd5b5061025b6102563660046153d0565b611198565b6040516101bd9190615e19565b34801561027457600080fd5b5061025b610283366004615398565b6115c9565b34801561029457600080fd5b5061018d6102a33660046154d9565b6117ad565b3480156102b457600080fd5b506101af6102c3366004615398565b611857565b3480156102d457600080fd5b5061018d611a00565b3480156102e957600080fd5b506101af6102f8366004615398565b611a89565b34801561030957600080fd5b50610312611c3c565b6040516101bd91906158c5565b34801561032b57600080fd5b5061018d61033a366004615597565b611c4b565b34801561034b57600080fd5b5061035f61035a3660046153d0565b611d2e565b6040516101bd919061596e565b34801561037857600080fd5b5061038c6103873660046153d0565b611e13565b6040516101bd9190615d91565b3480156103a557600080fd5b506101af6103b4366004615398565b611f02565b3480156103c557600080fd5b5061025b6103d4366004615398565b6121cc565b3480156103e557600080fd5b506103f96103f43660046153d0565b6123b8565b6040516101bd9291906158f3565b34801561041357600080fd5b5061038c610422366004615398565b6123e8565b34801561043357600080fd5b506101af6104423660046153d0565b6124c8565b34801561045357600080fd5b5061018d610462366004615398565b61267d565b34801561047357600080fd5b50610487610482366004615398565b612718565b6040516101bd919061592d565b3480156104a057600080fd5b5061018d6104af366004615398565b61273c565b3480156104c057600080fd5b5061018d6104cf366004615398565b612b29565b3480156104e057600080fd5b5061018d6104ef366004615408565b612bc4565b34801561050057600080fd5b5061051461050f366004615499565b613075565b6040516101bd9190615ecb565b34801561052d57600080fd5b5061018d61053c366004615398565b6130b0565b34801561054d57600080fd5b5061056161055c366004615398565b61342b565b6040516101bd9190615dca565b34801561057a57600080fd5b5061018d610589366004615398565b613640565b610596613700565b6001600160a01b03166105a7611c3c565b6001600160a01b0316146105d65760405162461bcd60e51b81526004016105cd90615c58565b60405180910390fd5b6105ea6001600160a01b0384168383613704565b505050565b6001600160a01b03811660009081526007602052604081206060918291906106168261375a565b6001600160a01b0386166000908152600460209081526040918290208054835181840281018401909452808452939450606093909183018282801561068457602002820191906000526020600020905b81546001600160a01b03168152600190910190602001808311610666575b50505050509050606081516001600160401b03811180156106a457600080fd5b506040519080825280602002602001820160405280156106ce578160200160208202803683370190505b50905060005b838110156107c15760603063245cd1db8a6106ef8986613765565b6040518363ffffffff1660e01b815260040161070c9291906158d9565b60006040518083038186803b15801561072457600080fd5b505afa158015610738573d6000803e3d6000fd5b505050506040513d6000823e601f3d908101601f19168201604052610760919081019061560e565b91505060005b81518110156107b75781818151811061077b57fe5b602002602001015184828151811061078f57fe5b6020026020010151018482815181106107a457fe5b6020908102919091010152600101610766565b50506001016106d4565b5090945092505050915091565b6001600160a01b0380831660009081526008602090815260408083209385168352929052908120546060918291610806576000610844565b6001600160a01b0380861660009081526008602090815260408083209388168352929052908120805490919061083857fe5b90600052602060002001545b905061084e614fab565b506001600160a01b0385166000908152600560208181526040928390208351610140810185526001820154610100820190815260028301546101208301526080808301918252865180880188526003850154815260048501548187015260a0808501919091528751808901895296850154875260068501548787015260c080850197909752875180890189526007860154815260088601548188015260e0850152918352865180870188526009850154818301908152600a86015482850152815287518089018952600b8601548152600c860154818801528187015287518089018952600d8601548152600e860154818801528189015287518089018952600f86015481526010860154818801526060828101919091528487019190915287518088018952601186015481840190815260128701548286015281528851808a018a5260138701548152601487015481890152818801528851808a018a5260158701548152601687015481890152818a01528851808a018a52601787015481526018870154818901528183015284890152875196870188526019850154918701918252601a85015492870192909252855285518087018752601b8401548152601c840154818601528585015285518087018752601d8401548152601e84015481860152858701528551808701909652601f830154865291830154928501929092528281019390935291820152610a61614fea565b6001600160a01b0387166000908152600460209081526040918290208251815460c09381028201840190945260a081018481529093919284928491840182828015610ad557602002820191906000526020600020905b81546001600160a01b03168152600190910190602001808311610ab7575b5050505050815260200160018201805480602002602001604051908101604052809291908181526020018280548015610b2d57602002820191906000526020600020905b815481526020019060010190808311610b19575b5050505050815260200160028201805480602002602001604051908101604052809291908181526020018280548015610b8557602002820191906000526020600020905b815481526020019060010190808311610b71575b5050505050815260200160038201805480602002602001604051908101604052809291908181526020018280548015610bdd57602002820191906000526020600020905b815481526020019060010190808311610bc9575b5050505050815260200160048201805480602002602001604051908101604052809291908181526020018280548015610c3557602002820191906000526020600020905b815481526020019060010190808311610c21575b50505050508152505090508060000151516001600160401b0381118015610c5b57600080fd5b50604051908082528060200260200182016040528015610c85578160200160208202803683370190505b5081516001600160a01b03808a1660009081526006602090815260408083205460088352818420948d1684529390915281208054939950939750909290918290610ccb57fe5b90600052602060002001549050610ce0615019565b6040518061012001604052808b6001600160a01b03168152602001610d09888860000151613778565b8152602001610d1c888860200151613778565b8152602001610d2f888860400151613778565b8152602001610d42888860600151613778565b81526020018560400151815260200185602001518152602001856080015181526020018560600151815250905060005b8851811015610e7c57610e5d84610dc685610e57610dcc610d988860000151600361381f565b610dc689608001518a60e001518a81518110610db057fe5b6020026020010151613b3b90919063ffffffff16565b90613b75565b610e51610dfa610de18a60000151600261381f565b610dc68b606001518c61010001518c81518110610db057fe5b610e51610e27610e0f8c60000151600161381f565b610dc68d604001518e60a001518e81518110610db057fe5b610e51610e398d60000151600061381f565b610dc68e602001518f60c001518f81518110610db057fe5b90613bb4565b90613b3b565b888281518110610e6957fe5b6020908102919091010152600101610d72565b505050505050509250929050565b610e9261506e565b506001600160a01b0380831660009081526009602090815260408083208585168452825291829020825180840190935280549093168252600190920154918101919091525b92915050565b6001546001600160a01b03163314610f075760405162461bcd60e51b81526004016105cd90615a76565b6001600160a01b03808316600090815260056020526040908190206001549151636e0cf42160e11b81529092919091169063dc19e84290610f4c9086906004016158c5565b60206040518083038186803b158015610f6457600080fd5b505afa158015610f78573d6000803e3d6000fd5b505050506040513d601f19601f82011682018060405250810190610f9c91906156a0565b610fb85760405162461bcd60e51b81526004016105cd90615be5565b805462010000900460ff1615610fe05760405162461bcd60e51b81526004016105cd90615c8d565b805462ff0000191662010000178155815180518051600184015560209081015160028401558082015180516003850155810151600484015560408083015180516005860155820151600685015560609283015180516007860155820151600885015581850151805180516009870155830151600a860155808301518051600b870155830151600c860155808201518051600d870155830151600e8601558301518051600f8601558201516010850155808501518051805160118701558301516012860155808301518051601387015583015160148601558082015180516015870155830151601686015583015180516017860155820151601885015593820151805180516019860155820151601a850155808201518051601b860155820151601c850155938401518051601d850155810151601e8401559201518051601f83015582015191015550565b611132613700565b6001600160a01b0316611143611c3c565b6001600160a01b0316146111695760405162461bcd60e51b81526004016105cd90615c58565b60405133904780156108fc02916000818181858888f19350505050158015611195573d6000803e3d6000fd5b50565b6111a0614fea565b6111a8614fea565b6001600160a01b0384166000908152600460209081526040918290208251815460c09381028201840190945260a08101848152909391928492849184018282801561121c57602002820191906000526020600020905b81546001600160a01b031681526001909101906020018083116111fe575b505050505081526020016001820180548060200260200160405190810160405280929190818152602001828054801561127457602002820191906000526020600020905b815481526020019060010190808311611260575b50505050508152602001600282018054806020026020016040519081016040528092919081815260200182805480156112cc57602002820191906000526020600020905b8154815260200190600101908083116112b8575b505050505081526020016003820180548060200260200160405190810160405280929190818152602001828054801561132457602002820191906000526020600020905b815481526020019060010190808311611310575b505050505081526020016004820180548060200260200160405190810160405280929190818152602001828054801561137c57602002820191906000526020600020905b815481526020019060010190808311611368575b5050509190925250508151845250805151909150806001600160401b03811180156113a657600080fd5b506040519080825280602002602001820160405280156113d0578160200160208202803683370190505b506020840152806001600160401b03811180156113ec57600080fd5b50604051908082528060200260200182016040528015611416578160200160208202803683370190505b506040840152806001600160401b038111801561143257600080fd5b5060405190808252806020026020018201604052801561145c578160200160208202803683370190505b506060840152806001600160401b038111801561147857600080fd5b506040519080825280602002602001820160405280156114a2578160200160208202803683370190505b50608084015260005b818110156115c0576114e96114c38787600085613bd9565b856020015183815181106114d357fe5b6020026020010151613bb490919063ffffffff16565b846020015182815181106114f957fe5b6020026020010181815250506115256115158787600185613bd9565b856040015183815181106114d357fe5b8460400151828151811061153557fe5b6020026020010181815250506115616115518787600285613bd9565b856060015183815181106114d357fe5b8460600151828151811061157157fe5b60200260200101818152505061159d61158d8787600385613bd9565b856080015183815181106114d357fe5b846080015182815181106115ad57fe5b60209081029190910101526001016114ab565b50505092915050565b6115d1614fea565b60405163aa93ae4960e01b8152309063aa93ae49906115f49085906004016158c5565b60006040518083038186803b15801561160c57600080fd5b505afa158015611620573d6000803e3d6000fd5b505050506040513d6000823e601f3d908101601f1916820160405261164891908101906156db565b9050611652614fea565b61165b83614184565b82515190915060005b818110156117a5576116ad8360200151828151811061167f57fe5b60200260200101518560200151838151811061169757fe5b602002602001015161462290919063ffffffff16565b846020015182815181106116bd57fe5b6020026020010181815250506116f4836040015182815181106116dc57fe5b60200260200101518560400151838151811061169757fe5b8460400151828151811061170457fe5b60200260200101818152505061173b8360600151828151811061172357fe5b60200260200101518560600151838151811061169757fe5b8460600151828151811061174b57fe5b6020026020010181815250506117828360800151828151811061176a57fe5b60200260200101518560800151838151811061169757fe5b8460800151828151811061179257fe5b6020908102919091010152600101611664565b505050919050565b6117b5613700565b6001600160a01b03166117c6611c3c565b6001600160a01b0316146117ec5760405162461bcd60e51b81526004016105cd90615c58565b336001600160a01b03166000356001600160e01b0319166001600160e01b03191660003660405161181e9291906159e8565b60405180910390a26001600160a01b03909116600090815260056020526040902080549115156101000261ff0019909216919091179055565b606080606080306001600160a01b0316637234100a866040518263ffffffff1660e01b815260040161188991906158c5565b60006040518083038186803b1580156118a157600080fd5b505afa1580156118b5573d6000803e3d6000fd5b505050506040513d6000823e601f3d908101601f191682016040526118dd919081019061560e565b6001600160a01b0387166000908152600b602090815260409091208351939550919350909161191191839190860190615085565b506001810154835180821461194e5781810360005b8181101561194b57600180860180548083018255600091825260208220015501611926565b50505b84516060816001600160401b038111801561196857600080fd5b50604051908082528060200260200182016040528015611992578160200160208202803683370190505b50905060005b87518110156119ef578560010181815481106119b057fe5b90600052602060002001548782815181106119c757fe5b6020026020010151038282815181106119dc57fe5b6020908102919091010152600101611998565b509597509495505050505050915091565b611a08613700565b6001600160a01b0316611a19611c3c565b6001600160a01b031614611a3f5760405162461bcd60e51b81526004016105cd90615c58565b600080546040516001600160a01b03909116907f8be0079c531659141344cd1fd0a4f28419497f9722a3daafe3b4186f6b6457e0908390a3600080546001600160a01b0319169055565b606080606080306001600160a01b031663a536ebf3866040518263ffffffff1660e01b8152600401611abb91906158c5565b60006040518083038186803b158015611ad357600080fd5b505afa158015611ae7573d6000803e3d6000fd5b505050506040513d6000823e601f3d908101601f19168201604052611b0f919081019061560e565b604051631437ac1360e01b815291935091506060903090631437ac1390611b3a9089906004016158c5565b60006040518083038186803b158015611b5257600080fd5b505afa158015611b66573d6000803e3d6000fd5b505050506040513d6000823e601f3d908101601f19168201604052611b8e919081019061560e565b845190925090506060816001600160401b0381118015611bad57600080fd5b50604051908082528060200260200182016040528015611bd7578160200160208202803683370190505b50905060005b82811015611c2d57838181518110611bf157fe5b6020026020010151858281518110611c0557fe5b602002602001015103828281518110611c1a57fe5b6020908102919091010152600101611bdd565b50939550929350505050915091565b6000546001600160a01b031690565b6002546001600160a01b03163314611c755760405162461bcd60e51b81526004016105cd90615a4a565b828114611c945760405162461bcd60e51b81526004016105cd90615b4b565b611d03868686868080602002602001604051908101604052809392919081815260200183836020028082843760009201919091525050604080516020808a0282810182019093528982529093508992508891829185019084908082843760009201919091525061466492505050565b5050506001600160a01b039092166000908152600560205260409020805460ff191660011790555050565b6001600160a01b0380831660009081526003602090815260408083209385168352928152828220805484518184028101840190955280855260609493919290919084015b82821015611e075760008481526020908190206040805180820182526002860290920180546001600160a01b03168352600181018054835181870281018701909452808452939491938583019392830182828015611def57602002820191906000526020600020905b815481526020019060010190808311611ddb575b50505050508152505081526020019060010190611d72565b50505050905092915050565b611e1b6150ea565b6001600160a01b038084166000908152600a602090815260408083209386168352928152908290208251815460609381028201840185529381018481529093919284928491840182828015611e9957602002820191906000526020600020905b81546001600160a01b03168152600190910190602001808311611e7b575b5050505050815260200160018201805480602002602001604051908101604052809291908181526020018280548015611ef157602002820191906000526020600020905b815481526020019060010190808311611edd575b505050505081525050905092915050565b606080611f0d614fea565b6001600160a01b0384166000908152600460209081526040918290208251815460c09381028201840190945260a081018481529093919284928491840182828015611f8157602002820191906000526020600020905b81546001600160a01b03168152600190910190602001808311611f63575b5050505050815260200160018201805480602002602001604051908101604052809291908181526020018280548015611fd957602002820191906000526020600020905b815481526020019060010190808311611fc5575b505050505081526020016002820180548060200260200160405190810160405280929190818152602001828054801561203157602002820191906000526020600020905b81548152602001906001019080831161201d575b505050505081526020016003820180548060200260200160405190810160405280929190818152602001828054801561208957602002820191906000526020600020905b815481526020019060010190808311612075575b50505050508152602001600482018054806020026020016040519081016040528092919081815260200182805480156120e157602002820191906000526020600020905b8154815260200190600101908083116120cd575b5050509190925250508151519192508190506001600160401b038111801561210857600080fd5b50604051908082528060200260200182016040528015612132578160200160208202803683370190505b5082519450925060005b818110156121c4576121a58360800151828151811061215757fe5b6020026020010151610e518560600151848151811061217257fe5b6020026020010151610e518760400151868151811061218d57fe5b6020026020010151886020015187815181106114d357fe5b8482815181106121b157fe5b602090810291909101015260010161213c565b505050915091565b6121d4614fea565b6001600160a01b0382166000908152600460209081526040918290208251815460c09381028201840190945260a08101848152909391928492849184018282801561224857602002820191906000526020600020905b81546001600160a01b0316815260019091019060200180831161222a575b50505050508152602001600182018054806020026020016040519081016040528092919081815260200182805480156122a057602002820191906000526020600020905b81548152602001906001019080831161228c575b50505050508152602001600282018054806020026020016040519081016040528092919081815260200182805480156122f857602002820191906000526020600020905b8154815260200190600101908083116122e4575b505050505081526020016003820180548060200260200160405190810160405280929190818152602001828054801561235057602002820191906000526020600020905b81548152602001906001019080831161233c575b50505050508152602001600482018054806020026020016040519081016040528092919081815260200182805480156123a857602002820191906000526020600020905b815481526020019060010190808311612394575b5050505050815250509050919050565b6009602090815260009283526040808420909152908252902080546001909101546001600160a01b039091169082565b6123f06150ea565b6001600160a01b0382166000908152600b6020908152604091829020825181546060938102820184018552938101848152909391928492849184018282801561246257602002820191906000526020600020905b81546001600160a01b03168152600190910190602001808311612444575b50505050508152602001600182018054806020026020016040519081016040528092919081815260200182805480156123a85760200282019190600052602060002090815481526020019060010190808311612394575050505050815250509050919050565b606080606080306001600160a01b031663245cd1db87876040518363ffffffff1660e01b81526004016124fc9291906158d9565b60006040518083038186803b15801561251457600080fd5b505afa158015612528573d6000803e3d6000fd5b505050506040513d6000823e601f3d908101601f19168201604052612550919081019061560e565b6001600160a01b0388166000908152600a6020908152604080832033845282529091208351939550919350909161258c91839190860190615085565b50600181015483518082146125c95781810360005b818110156125c6576001808601805480830182556000918252602082200155016125a1565b50505b84516060816001600160401b03811180156125e357600080fd5b5060405190808252806020026020018201604052801561260d578160200160208202803683370190505b50905060005b828110156126695785600101818154811061262a57fe5b906000526020600020015487828151811061264157fe5b60200260200101510382828151811061265657fe5b6020908102919091010152600101612613565b5095975094955050505050505b9250929050565b612685613700565b6001600160a01b0316612696611c3c565b6001600160a01b0316146126bc5760405162461bcd60e51b81526004016105cd90615c58565b336001600160a01b03166000356001600160e01b0319166001600160e01b0319166000366040516126ee9291906159e8565b60405180910390a2600180546001600160a01b0319166001600160a01b0392909216919091179055565b6001600160a01b0381166000908152600760205260409020606090610ed7906148dc565b612745816148e8565b1561119557600154604051636e0cf42160e11b81526001600160a01b039091169063dc19e8429061277a9084906004016158c5565b60206040518083038186803b15801561279257600080fd5b505afa1580156127a6573d6000803e3d6000fd5b505050506040513d601f19601f820116820180604052508101906127ca91906156a0565b6127e65760405162461bcd60e51b81526004016105cd90615be5565b806001600160a01b0316635468d6d76040518163ffffffff1660e01b815260040160206040518083038186803b15801561281f57600080fd5b505afa158015612833573d6000803e3d6000fd5b505050506040513d601f19601f8201168201806040525081019061285791906156a0565b6128735760405162461bcd60e51b81526004016105cd90615cdd565b60405163245cd1db60e01b81526060908190309063245cd1db9061289d90869033906004016158d9565b60006040518083038186803b1580156128b557600080fd5b505afa1580156128c9573d6000803e3d6000fd5b505050506040513d6000823e601f3d908101601f191682016040526128f1919081019061560e565b6001600160a01b0385166000908152600a6020908152604080832033845282529091208351939550919350909161292d91839190860190615085565b506001810154835180821461296a5781810360005b8181101561296757600180860180548083018255600091825260208220015501612942565b50505b60006129753361496f565b61297f57336129f0565b336001600160a01b0316638da5cb5b6040518163ffffffff1660e01b815260040160206040518083038186803b1580156129b857600080fd5b505afa1580156129cc573d6000803e3d6000fd5b505050506040513d601f19601f820116820180604052508101906129f091906153b4565b905060005b8651811015612b1f576000856001018281548110612a0f57fe5b9060005260206000200154878381518110612a2657fe5b602002602001015103905080600014612b1657612a6a83828a8581518110612a4a57fe5b60200260200101516001600160a01b03166137049092919063ffffffff16565b612a9681876001018481548110612a7d57fe5b9060005260206000200154613bb490919063ffffffff16565b866001018381548110612aa557fe5b9060005260206000200181905550826001600160a01b0316336001600160a01b03167fcf0b5b5e344fd092a8b2211145583746df8436ec32469680c9d800af50d7b7378a8581518110612af457fe5b60200260200101518442604051612b0d9392919061590c565b60405180910390a35b506001016129f5565b5050505050505050565b612b31613700565b6001600160a01b0316612b42611c3c565b6001600160a01b031614612b685760405162461bcd60e51b81526004016105cd90615c58565b336001600160a01b03166000356001600160e01b0319166001600160e01b031916600036604051612b9a9291906159e8565b60405180910390a2600280546001600160a01b0319166001600160a01b0392909216919091179055565b3383828114612be55760405162461bcd60e51b81526004016105cd90615b4b565b600154604051636e0cf42160e11b81526001600160a01b039091169063dc19e84290612c159085906004016158c5565b60206040518083038186803b158015612c2d57600080fd5b505afa158015612c41573d6000803e3d6000fd5b505050506040513d601f19601f82011682018060405250810190612c6591906156a0565b612c815760405162461bcd60e51b81526004016105cd90615be5565b6001600160a01b0380831660009081526009602090815260408083208b8516845290915290208054909116612d0f5780546001600160a01b0319166001600160a01b038a811691909117825583166000908152600760205260409020612ce7908a6149a8565b612d0f576001600160a01b0383166000908152600760205260409020612d0d908a6149bd565b505b80546001600160a01b031680612d375760405162461bcd60e51b81526004016105cd90615b7f565b612d6f86866000818110612d4757fe5b6001600160a01b03881660009081526006602090815260409091205493910201359050613bb4565b6001600160a01b0385166000908152600660205260409020556060836001600160401b0381118015612da057600080fd5b50604051908082528060200260200182016040528015612dca578160200160208202803683370190505b50905060005b84811015612eb7576001600160a01b038087166000908152600860209081526040808320938716835292905220541580612e82576001600160a01b0380881660009081526008602090815260408083209388168352929052208054612e66919084908110612e3a57fe5b90600052602060002001548a8a85818110612e5157fe5b90506020020135613bb490919063ffffffff16565b838381518110612e7257fe5b6020026020010181815250612ead565b888883818110612e8e57fe5b90506020020135838381518110612ea157fe5b60200260200101818152505b5050600101612dd0565b506001600160a01b03808616600090815260086020908152604080832093861683529281529190208251612eed92840190615104565b506001600160a01b038086166000908152600360209081526040808320938616835292905220600184015480612fc557612f2561514b565b6001600160a01b038d168152604080516020808c0282810182019093528b825290918c918c91829185019084908082843760009201829052506020868101958652885460018082018b558a845292829020885160029092020180546001600160a01b0319166001600160a01b039092169190911781559551805188979650612fb4955092860193500190615104565b505083546001880155506130669050565b6001600160a01b038088166000908152600360209081526040808320938816835292905290812080546000198401908110612ffc57fe5b9060005260206000209060020201905060005b6001820154811015613063576130408b8b8381811061302a57fe5b90506020020135836001018381548110612a7d57fe5b82600101828154811061304f57fe5b60009182526020909120015560010161300f565b50505b50505050505050505050505050565b6008602052826000526040600020602052816000526040600020818154811061309a57fe5b9060005260206000200160009250925050505481565b6130b9816148e8565b15611195576040516327304dfd60e01b81526000906001600160a01b038316906327304dfd906130ed9033906004016158c5565b60206040518083038186803b15801561310557600080fd5b505afa158015613119573d6000803e3d6000fd5b505050506040513d601f19601f8201168201806040525081019061313d91906156a0565b806131c95750336001600160a01b0316826001600160a01b0316633018205f6040518163ffffffff1660e01b815260040160206040518083038186803b15801561318657600080fd5b505afa15801561319a573d6000803e3d6000fd5b505050506040513d601f19601f820116820180604052508101906131be91906153b4565b6001600160a01b0316145b90506000826001600160a01b0316635468d6d76040518163ffffffff1660e01b815260040160206040518083038186803b15801561320657600080fd5b505afa15801561321a573d6000803e3d6000fd5b505050506040513d601f19601f8201168201806040525081019061323e91906156a0565b90508061325d5760405162461bcd60e51b81526004016105cd90615cdd565b8161327a5760405162461bcd60e51b81526004016105cd90615cb4565b604051631bf52ea760e21b815260609081903090636fd4ba9c906132a29088906004016158c5565b600060405180830381600087803b1580156132bc57600080fd5b505af11580156132d0573d6000803e3d6000fd5b505050506040513d6000823e601f3d908101601f191682016040526132f8919081019061560e565b6001600160a01b0387166000908152600560209081526040808320805460ff19169055600b82529091208351939550919350909161333b91839190860190615085565b50600181015483518082146133785781810360005b8181101561337557600180860180548083018255600091825260208220015501613350565b50505b60005b855181101561342057600086828151811061339257fe5b602002602001015190508582815181106133a857fe5b6020026020010151600014613417576133d58a828885815181106133c857fe5b60200260200101516149d2565b6133fb8683815181106133e457fe5b6020026020010151866001018481548110612a7d57fe5b85600101838154811061340a57fe5b6000918252602090912001555b5060010161337b565b505050505050505050565b613433614fab565b506001600160a01b03166000908152600560208181526040928390208351610140810185526001820154610100820190815260028301546101208301526080808301918252865180880188526003850154815260048501548187015260a0808501919091528751808901895296850154875260068501548787015260c080850197909752875180890189526007860154815260088601548188015260e0850152918352865180870188526009850154818301908152600a86015482850152815287518089018952600b8601548152600c860154818801528187015287518089018952600d8601548152600e860154818801528189015287518089018952600f86015481526010860154818801526060828101919091528487019190915287518088018952601186015481840190815260128701548286015281528851808a018a5260138701548152601487015481890152818801528851808a018a5260158701548152601687015481890152818a01528851808a018a52601787015481526018870154818901528183015284890152875196870188526019850154918701918252601a85015492870192909252855285518087018752601b8401548152601c840154818601528585015285518087018752601d8401548152601e84015481860152858701528551808701909652601f83015486529183015492850192909252828101939093529182015290565b613648613700565b6001600160a01b0316613659611c3c565b6001600160a01b03161461367f5760405162461bcd60e51b81526004016105cd90615c58565b6001600160a01b0381166136a55760405162461bcd60e51b81526004016105cd90615aa3565b600080546040516001600160a01b03808516939216917f8be0079c531659141344cd1fd0a4f28419497f9722a3daafe3b4186f6b6457e091a3600080546001600160a01b0319166001600160a01b0392909216919091179055565b3390565b6105ea8363a9059cbb60e01b84846040516024016137239291906158f3565b60408051601f198184030181529190526020810180516001600160e01b03166001600160e01b031990931692909217909152614d1f565b6000610ed782614e0a565b60006137718383614e0e565b9392505050565b8051516000908310801590613791575060208201515183105b156137a25750805160200151610ed7565b60208201515183108015906137bb575060408201515183105b156137ce57506020808201510151610ed7565b60408201515183108015906137e7575060608201515183105b156137fb5750604081015160200151610ed7565b60608201515183106138165750606081015160200151610ed7565b50600092915050565b6000613829614fab565b506001600160a01b0383166000908152600560208181526040928390208351610140810185526001820154610100820190815260028301546101208301526080808301918252865180880188526003850154815260048501548187015260a0808501919091528751808901895296850154875260068501548787015260c080850197909752875180890189526007860154815260088601548188015260e0850152918352865180870188526009850154818301908152600a86015482850152815287518089018952600b8601548152600c860154818801528187015287518089018952600d8601548152600e860154818801528189015287518089018952600f86015481526010860154818801526060828101919091528487019190915287518088018952601186015481840190815260128701548286015281528851808a018a5260138701548152601487015481890152818801528851808a018a5260158701548152601687015481890152818a01528851808a018a52601787015481526018870154818901528183015284890152875196870188526019850154918701918252601a85015492870192909252855285518087018752601b8401548152601c840154818601528585015285518087018752601d8401548152601e84015481860152858701528551808701909652601f83015486529183015492850192909252828101939093529182015282613a765780516060810151602090810151604083015182015182840151830151935190920151613a6e939192610e519290918391613bb4565b915050610ed7565b8260011415613ab4576020808201516060810151820151604082015183015182840151840151925190930151613a6e939192610e5192918391613bb4565b8260021415613af35760408082015160608101516020908101519282015181015181830151820151925190910151613a6e9392610e5192918391613bb4565b8260031415613b345760608082015190810151602090810151604083015182015182840151830151935190920151613a6e939192610e519290918391613bb4565b5092915050565b600082613b4a57506000610ed7565b82820282848281613b5757fe5b04146137715760405162461bcd60e51b81526004016105cd90615c17565b600061377183836040518060400160405280601a815260200179536166654d6174683a206469766973696f6e206279207a65726f60301b815250614e32565b6000828201838110156137715760405162461bcd60e51b81526004016105cd90615ae9565b6001600160a01b0380851660009081526008602090815260408083209387168352929052908120548190613c0e576000613c4c565b6001600160a01b03808716600090815260086020908152604080832093891683529290529081208054909190613c4057fe5b90600052602060002001545b9050613c56614fab565b506001600160a01b0386166000908152600560208181526040928390208351610140810185526001820154610100820190815260028301546101208301526080808301918252865180880188526003850154815260048501548187015260a0808501919091528751808901895296850154875260068501548787015260c080850197909752875180890189526007860154815260088601548188015260e0850152918352865180870188526009850154818301908152600a86015482850152815287518089018952600b8601548152600c860154818801528187015287518089018952600d8601548152600e860154818801528189015287518089018952600f86015481526010860154818801526060828101919091528487019190915287518088018952601186015481840190815260128701548286015281528851808a018a5260138701548152601487015481890152818801528851808a018a5260158701548152601687015481890152818a01528851808a018a52601787015481526018870154818901528183015284890152875196870188526019850154918701918252601a85015492870192909252855285518087018752601b8401548152601c840154818601528585015285518087018752601d8401548152601e84015481860152858701528551808701909652601f830154865291830154928501929092528281019390935291820152613e69614fea565b6001600160a01b0388166000908152600460209081526040918290208251815460c09381028201840190945260a081018481529093919284928491840182828015613edd57602002820191906000526020600020905b81546001600160a01b03168152600190910190602001808311613ebf575b5050505050815260200160018201805480602002602001604051908101604052809291908181526020018280548015613f3557602002820191906000526020600020905b815481526020019060010190808311613f21575b5050505050815260200160028201805480602002602001604051908101604052809291908181526020018280548015613f8d57602002820191906000526020600020905b815481526020019060010190808311613f79575b5050505050815260200160038201805480602002602001604051908101604052809291908181526020018280548015613fe557602002820191906000526020600020905b815481526020019060010190808311613fd1575b505050505081526020016004820180548060200260200160405190810160405280929190818152602001828054801561403d57602002820191906000526020600020905b815481526020019060010190808311614029575b505050505081525050905082600014806140575750805151155b15614068576000935050505061417c565b6001600160a01b038816600090815260066020526040902054866140bc576140b56140948a600061381f565b610dc66140a5878760000151613778565b85602001518a81518110610db057fe5b9450614167565b86600114156140f4576140b56140d38a600161381f565b610dc66140e4878760200151613778565b85604001518a81518110610db057fe5b866002141561412c576140b561410b8a600261381f565b610dc661411c878760400151613778565b85606001518a81518110610db057fe5b8660031415614167576141646141438a600361381f565b610dc6614154878760600151613778565b85608001518a81518110610db057fe5b94505b61417581610dc68787613b3b565b9450505050505b949350505050565b61418c614fea565b614194614fea565b6001600160a01b0383166000908152600460209081526040918290208251815460c09381028201840190945260a08101848152909391928492849184018282801561420857602002820191906000526020600020905b81546001600160a01b031681526001909101906020018083116141ea575b505050505081526020016001820180548060200260200160405190810160405280929190818152602001828054801561426057602002820191906000526020600020905b81548152602001906001019080831161424c575b50505050508152602001600282018054806020026020016040519081016040528092919081815260200182805480156142b857602002820191906000526020600020905b8154815260200190600101908083116142a4575b505050505081526020016003820180548060200260200160405190810160405280929190818152602001828054801561431057602002820191906000526020600020905b8154815260200190600101908083116142fc575b505050505081526020016004820180548060200260200160405190810160405280929190818152602001828054801561436857602002820191906000526020600020905b815481526020019060010190808311614354575b505050919092525050815180519085526001600160a01b0386166000908152600760205260408120939450909291506143a08261375a565b9050826001600160401b03811180156143b857600080fd5b506040519080825280602002602001820160405280156143e2578160200160208202803683370190505b506020860152826001600160401b03811180156143fe57600080fd5b50604051908082528060200260200182016040528015614428578160200160208202803683370190505b506040860152826001600160401b038111801561444457600080fd5b5060405190808252806020026020018201604052801561446e578160200160208202803683370190505b506060860152826001600160401b038111801561448a57600080fd5b506040519080825280602002602001820160405280156144b4578160200160208202803683370190505b50608086015260005b60048110156146185760005b8481101561460f5760005b83811015614606578261452b5761450a6144fa8a6144f28885613765565b600086613bd9565b896020015184815181106114d357fe5b8860200151838151811061451a57fe5b6020026020010181815250506145fe565b826001141561456d5761455d61454d8a6145458885613765565b600186613bd9565b896040015184815181106114d357fe5b8860400151838151811061451a57fe5b82600214156145af5761459f61458f8a6145878885613765565b600286613bd9565b896060015184815181106114d357fe5b8860600151838151811061451a57fe5b82600314156145fe576145e16145d18a6145c98885613765565b600386613bd9565b896080015184815181106114d357fe5b886080015183815181106145f157fe5b6020026020010181815250505b6001016144d4565b506001016144c9565b506001016144bd565b5050505050919050565b600061377183836040518060400160405280601e81526020017f536166654d6174683a207375627472616374696f6e206f766572666c6f770000815250614e69565b6001600160a01b0384166000908152600460205260408120905b83518110156148d457600084828151811061469557fe5b6020026020010151905060008483815181106146ad57fe5b602002602001015190506000806147208660000180548060200260200160405190810160405280929190818152602001828054801561471557602002820191906000526020600020905b81546001600160a01b031681526001909101906020018083116146f7575b505050505085614e95565b91509150816147b057508454600180820187556000878152602080822090930180546001600160a01b0319166001600160a01b03881617905581880180548084018255908252838220018190556002880180548084018255908252838220018190556003880180548084018255908252838220018190556004880180549283018155815291822001558454600019015b82156148c457886147ee576147ce83876001018381548110612a7d57fe5b8660010182815481106147dd57fe5b60009182526020909120015561487c565b88600114156148195761480a83876002018381548110612a7d57fe5b8660020182815481106147dd57fe5b88600214156148445761483583876003018381548110612a7d57fe5b8660030182815481106147dd57fe5b886003141561487c5761486083876004018381548110612a7d57fe5b86600401828154811061486f57fe5b6000918252602090912001555b896001600160a01b03167ff2dc555ffff33c7179f7e35e7fc8a68179aeecb49e12799e8ac2972420613eb98a3387876040516148bb9493929190615ed4565b60405180910390a25b50506001909201915061467e9050565b505050505050565b60608061377183614eed565b60006001826001600160a01b03166373a9855c6040518163ffffffff1660e01b815260040160206040518083038186803b15801561492557600080fd5b505afa158015614939573d6000803e3d6000fd5b505050506040513d601f19601f8201168201806040525081019061495d91906156bc565b600181111561496857fe5b1492915050565b6000813f7fc5d2460186f7233c927e7db2dcc703c0e500b653ca82273b7bfad8045d85a47081811480159061417c575050151592915050565b6000613771836001600160a01b038416614f49565b6000613771836001600160a01b038416614f61565b806149ef5760405162461bcd60e51b81526004016105cd90615b1e565b6060836001600160a01b031663a0e67e2b6040518163ffffffff1660e01b815260040160006040518083038186803b158015614a2a57600080fd5b505afa158015614a3e573d6000803e3d6000fd5b505050506040513d6000823e601f3d908101601f19168201604052614a6691908101906155dc565b90506060846001600160a01b031663309a042c6040518163ffffffff1660e01b815260040160006040518083038186803b158015614aa357600080fd5b505afa158015614ab7573d6000803e3d6000fd5b505050506040513d6000823e601f3d908101601f19168201604052614adf919081019061566e565b90506000856001600160a01b031663d29986c16040518163ffffffff1660e01b815260040160206040518083038186803b158015614b1c57600080fd5b505afa158015614b30573d6000803e3d6000fd5b505050506040513d601f19601f82011682018060405250810190614b5491906157d1565b905060005b8351811015614cc7576000614b89858381518110614b7357fe5b60200260200101516001600160a01b031661496f565b614ba657848281518110614b9957fe5b6020026020010151614c2a565b848281518110614bb257fe5b60200260200101516001600160a01b0316638da5cb5b6040518163ffffffff1660e01b815260040160206040518083038186803b158015614bf257600080fd5b505afa158015614c06573d6000803e3d6000fd5b505050506040513d601f19601f82011682018060405250810190614c2a91906153b4565b90506000614c5884610dc6878681518110614c4157fe5b60200260200101518a613b3b90919063ffffffff16565b9050614c6e6001600160a01b0389168383613704565b816001600160a01b0316336001600160a01b03167f749a9ef4b9bff1f02a1a1d45429a3949e524fd93e3948001eab8dca05f1fcd6d8a8442604051614cb59392919061590c565b60405180910390a35050600101614b59565b50856001600160a01b0316336001600160a01b03167f1bf0129823b56213a46996bc874ce50b318995cae2bbdcd2000933d36012547d878742604051614d0f9392919061590c565b60405180910390a3505050505050565b614d31826001600160a01b031661496f565b614d4d5760405162461bcd60e51b81526004016105cd90615d5a565b60006060836001600160a01b031683604051614d6991906158a9565b6000604051808303816000865af19150503d8060008114614da6576040519150601f19603f3d011682016040523d82523d6000602084013e614dab565b606091505b509150915081614dcd5760405162461bcd60e51b81526004016105cd90615bb0565b805115614e045780806020019051810190614de891906156a0565b614e045760405162461bcd60e51b81526004016105cd90615d10565b50505050565b5490565b6000826000018281548110614e1f57fe5b9060005260206000200154905092915050565b60008183614e535760405162461bcd60e51b81526004016105cd9190615a17565b506000838581614e5f57fe5b0495945050505050565b60008184841115614e8d5760405162461bcd60e51b81526004016105cd9190615a17565b505050900390565b60008060005b8451811015614ee557836001600160a01b0316858281518110614eba57fe5b60200260200101516001600160a01b03161415614edd5760019250809150614ee5565b600101614e9b565b509250929050565b606081600001805480602002602001604051908101604052809291908181526020018280548015614f3d57602002820191906000526020600020905b815481526020019060010190808311614f29575b50505050509050919050565b60009081526001919091016020526040902054151590565b6000614f6d8383614f49565b614fa357508154600181810184556000848152602080822090930184905584548482528286019093526040902091909155610ed7565b506000610ed7565b6040518060800160405280614fbe615163565b8152602001614fcb615163565b8152602001614fd8615163565b8152602001614fe5615163565b905290565b6040518060a0016040528060608152602001606081526020016060815260200160608152602001606081525090565b60405180610120016040528060006001600160a01b0316815260200160008152602001600081526020016000815260200160008152602001606081526020016060815260200160608152602001606081525090565b604080518082019091526000808252602082015290565b8280548282559060005260206000209081019282156150da579160200282015b828111156150da57825182546001600160a01b0319166001600160a01b039091161782556020909201916001909101906150a5565b506150e692915061519d565b5090565b604051806040016040528060608152602001606081525090565b82805482825590600052602060002090810192821561513f579160200282015b8281111561513f578251825591602001919060010190615124565b506150e69291506151bc565b60408051808201909152600081526060602082015290565b60405180608001604052806151766151d1565b81526020016151836151d1565b81526020016151906151d1565b8152602001614fe56151d1565b5b808211156150e65780546001600160a01b031916815560010161519e565b5b808211156150e657600081556001016151bd565b604051806040016040528060008152602001600081525090565b60008083601f8401126151fc578182fd5b5081356001600160401b03811115615212578182fd5b602083019150836020808302850101111561267657600080fd5b600082601f83011261523c578081fd5b815161524f61524a82615f1f565b615ef9565b81815291506020808301908481018184028601820187101561527057600080fd5b60005b8481101561529857815161528681615f6a565b84529282019290820190600101615273565b505050505092915050565b600082601f8301126152b3578081fd5b81516152c161524a82615f1f565b8181529150602080830190848101818402860182018710156152e257600080fd5b60005b84811015615298578151845292820192908201906001016152e5565b60006101008284031215615313578081fd5b61531d6080615ef9565b90506153298383615367565b81526153388360408401615367565b602082015261534a8360808401615367565b604082015261535c8360c08401615367565b606082015292915050565b600060408284031215615378578081fd5b6153826040615ef9565b9050813581526020820135602082015292915050565b6000602082840312156153a9578081fd5b813561377181615f6a565b6000602082840312156153c5578081fd5b815161377181615f6a565b600080604083850312156153e2578081fd5b82356153ed81615f6a565b915060208301356153fd81615f6a565b809150509250929050565b60008060008060008060808789031215615420578182fd5b863561542b81615f6a565b9550602087013561543b81615f6a565b945060408701356001600160401b0380821115615456578384fd5b6154628a838b016151eb565b9096509450606089013591508082111561547a578384fd5b5061548789828a016151eb565b979a9699509497509295939492505050565b6000806000606084860312156154ad578283fd5b83356154b881615f6a565b925060208401356154c881615f6a565b929592945050506040919091013590565b600080604083850312156154eb578182fd5b82356154f681615f6a565b915060208301356153fd81615f7f565b60008082840361042081121561551a578283fd5b833561552581615f6a565b9250610400601f1982011215615539578182fd5b506155446080615ef9565b6155518560208601615301565b8152615561856101208601615301565b6020820152615574856102208601615301565b6040820152615587856103208601615301565b6060820152809150509250929050565b600080600080600080608087890312156155af578384fd5b86356155ba81615f6a565b95506020870135945060408701356001600160401b0380821115615456578586fd5b6000602082840312156155ed578081fd5b81516001600160401b03811115615602578182fd5b61417c8482850161522c565b60008060408385031215615620578182fd5b82516001600160401b0380821115615636578384fd5b6156428683870161522c565b93506020850151915080821115615657578283fd5b50615664858286016152a3565b9150509250929050565b60006020828403121561567f578081fd5b81516001600160401b03811115615694578182fd5b61417c848285016152a3565b6000602082840312156156b1578081fd5b815161377181615f7f565b6000602082840312156156cd578081fd5b815160028110613771578182fd5b6000602082840312156156ec578081fd5b81516001600160401b0380821115615702578283fd5b9083019060a08286031215615715578283fd5b61571f60a0615ef9565b82518281111561572d578485fd5b6157398782860161522c565b82525060208301518281111561574d578485fd5b615759878286016152a3565b602083015250604083015182811115615770578485fd5b61577c878286016152a3565b604083015250606083015182811115615793578485fd5b61579f878286016152a3565b6060830152506080830151828111156157b6578485fd5b6157c2878286016152a3565b60808301525095945050505050565b6000602082840312156157e2578081fd5b5051919050565b6000815180845260208085019450808401835b838110156158215781516001600160a01b0316875295820195908201906001016157fc565b509495945050505050565b6000815180845260208085019450808401835b838110156158215781518752958201959082019060010161583f565b61586682825161589a565b6020810151615878604084018261589a565b50604081015161588b608084018261589a565b5060608101516105ea60c08401825b80518252602090810151910152565b600082516158bb818460208701615f3e565b9190910192915050565b6001600160a01b0391909116815260200190565b6001600160a01b0392831681529116602082015260400190565b6001600160a01b03929092168252602082015260400190565b6001600160a01b039390931683526020830191909152604082015260600190565b60006020825261377160208301846157e9565b60006040825261595360408301856157e9565b8281036020840152615965818561582c565b95945050505050565b60208082528251828201819052600091906040908185019080840286018301878501865b838110156159da57888303603f19018552815180516001600160a01b031684528701518784018790526159c78785018261582c565b9588019593505090860190600101615992565b509098975050505050505050565b60006020825282602083015282846040840137818301604090810191909152601f909201601f19160101919050565b6000602082528251806020840152615a36816040850160208701615f3e565b601f01601f19169190910160400192915050565b60208082526012908201527122a9292fa727aa2fa1a7a72a2927a62622a960711b604082015260600190565b6020808252601390820152724552525f4e4f545f4352505f464143544f525960681b604082015260600190565b60208082526026908201527f4f776e61626c653a206e6577206f776e657220697320746865207a65726f206160408201526564647265737360d01b606082015260800190565b6020808252601b908201527a536166654d6174683a206164646974696f6e206f766572666c6f7760281b604082015260600190565b6020808252601390820152724552525f494c4c4547414c5f42414c414e434560681b604082015260600190565b6020808252601a908201527908aa4a4bea89e968a9cbe988a9c8ea890be9c9ea8be9a82a886960331b604082015260600190565b6020808252601790820152764552525f494e56414c49445f4b4f4c5f4144445245535360481b604082015260600190565b6020808252818101527f5361666545524332303a206c6f772d6c6576656c2063616c6c206661696c6564604082015260600190565b6020808252601890820152774552525f494e56414c49445f504f4f4c5f4144445245535360401b604082015260600190565b60208082526021908201527f536166654d6174683a206d756c7469706c69636174696f6e206f766572666c6f6040820152607760f81b606082015260800190565b6020808252818101527f4f776e61626c653a2063616c6c6572206973206e6f7420746865206f776e6572604082015260600190565b6020808252600d908201526c11549497d21054d7d4d1551151609a1b604082015260600190565b6020808252600f908201526e22a9292fa727aa2fa6a0a720a3a2a960891b604082015260600190565b60208082526019908201527811549497d393d517d0d3d354131155115117d0d3d3131150d5603a1b604082015260600190565b6020808252602a908201527f5361666545524332303a204552433230206f7065726174696f6e20646964206e6040820152691bdd081cdd58d8d9595960b21b606082015260800190565b6020808252601f908201527f5361666545524332303a2063616c6c20746f206e6f6e2d636f6e747261637400604082015260600190565b600060208252825160406020840152615dad60608401826157e9565b90506020840151601f19848303016040850152615965828261582c565b600061040082019050615dde82845161585b565b6020830151615df161010084018261585b565b506040830151615e0561020084018261585b565b506060830151613b3461030084018261585b565b600060208252825160a06020840152615e3560c08401826157e9565b90506020840151601f1980858403016040860152615e53838361582c565b92506040860151915080858403016060860152615e70838361582c565b92506060860151915080858403016080860152615e8d838361582c565b925060808601519150808584030160a086015250615965828261582c565b81516001600160a01b031681526020918201519181019190915260400190565b90815260200190565b9384526001600160a01b03928316602085015291166040830152606082015260800190565b6040518181016001600160401b0381118282101715615f1757600080fd5b604052919050565b60006001600160401b03821115615f34578081fd5b5060209081020190565b60005b83811015615f59578181015183820152602001615f41565b83811115614e045750506000910152565b6001600160a01b038116811461119557600080fd5b801515811461119557600080fdfea26469706673582212207063cbb81c7329cc52a77589266b3975a5c6d3707ef1ddea86f9dc9b2813c0ca64736f6c634300060c0033",
  "libraries": {},
  "devdoc": {
    "author": "Desyn Labs",
    "kind": "dev",
    "methods": {
      "owner()": {
        "details": "Returns the address of the current owner."
      },
      "renounceOwnership()": {
        "details": "Leaves the contract without owner. It will not be possible to call `onlyOwner` functions anymore. Can only be called by the current owner. NOTE: Renouncing ownership will leave the contract without an owner, thereby removing any functionality that is only available to the owner."
      },
      "transferOwnership(address)": {
        "details": "Transfers ownership of the contract to a new account (`newOwner`). Can only be called by the current owner."
      }
    },
    "title": "Vault managerFee",
    "version": 1
  },
  "userdoc": {
    "kind": "user",
    "methods": {},
    "version": 1
  },
  "storageLayout": {
    "storage": [
      {
        "astId": 18293,
        "contract": "contracts/deploy/UserVault.sol:UserVault",
        "label": "_owner",
        "offset": 0,
        "slot": "0",
        "type": "t_address"
      },
      {
        "astId": 9693,
        "contract": "contracts/deploy/UserVault.sol:UserVault",
        "label": "crpFactory",
        "offset": 0,
        "slot": "1",
        "type": "t_contract(ICRPFactory)9596"
      },
      {
        "astId": 9695,
        "contract": "contracts/deploy/UserVault.sol:UserVault",
        "label": "vaultAddress",
        "offset": 0,
        "slot": "2",
        "type": "t_address"
      },
      {
        "astId": 9745,
        "contract": "contracts/deploy/UserVault.sol:UserVault",
        "label": "kolUserInfo",
        "offset": 0,
        "slot": "3",
        "type": "t_mapping(t_address,t_mapping(t_address,t_array(t_struct(KolUserInfo)9726_storage)dyn_storage))"
      },
      {
        "astId": 9749,
        "contract": "contracts/deploy/UserVault.sol:UserVault",
        "label": "poolsTokens",
        "offset": 0,
        "slot": "4",
        "type": "t_mapping(t_address,t_struct(PoolTokens)9711_storage)"
      },
      {
        "astId": 9753,
        "contract": "contracts/deploy/UserVault.sol:UserVault",
        "label": "poolsStatus",
        "offset": 0,
        "slot": "5",
        "type": "t_mapping(t_address,t_struct(PoolStatus)9720_storage)"
      },
      {
        "astId": 9757,
        "contract": "contracts/deploy/UserVault.sol:UserVault",
        "label": "poolInviteTotal",
        "offset": 0,
        "slot": "6",
        "type": "t_mapping(t_address,t_uint256)"
      },
      {
        "astId": 9761,
        "contract": "contracts/deploy/UserVault.sol:UserVault",
        "label": "kolsList",
        "offset": 0,
        "slot": "7",
        "type": "t_mapping(t_address,t_struct(AddressSet)15954_storage)"
      },
      {
        "astId": 9768,
        "contract": "contracts/deploy/UserVault.sol:UserVault",
        "label": "kolTotalAmountList",
        "offset": 0,
        "slot": "8",
        "type": "t_mapping(t_address,t_mapping(t_address,t_array(t_uint256)dyn_storage))"
      },
      {
        "astId": 9774,
        "contract": "contracts/deploy/UserVault.sol:UserVault",
        "label": "userKolList",
        "offset": 0,
        "slot": "9",
        "type": "t_mapping(t_address,t_mapping(t_address,t_struct(UserKolInfo)9731_storage))"
      },
      {
        "astId": 9780,
        "contract": "contracts/deploy/UserVault.sol:UserVault",
        "label": "kolHasClaimed",
        "offset": 0,
        "slot": "10",
        "type": "t_mapping(t_address,t_mapping(t_address,t_struct(ClaimTokens)9738_storage))"
      },
      {
        "astId": 9784,
        "contract": "contracts/deploy/UserVault.sol:UserVault",
        "label": "manageHasClaimed",
        "offset": 0,
        "slot": "11",
        "type": "t_mapping(t_address,t_struct(ClaimTokens)9738_storage)"
      }
    ],
    "types": {
      "t_address": {
        "encoding": "inplace",
        "label": "address",
        "numberOfBytes": "20"
      },
      "t_array(t_address)dyn_storage": {
        "base": "t_address",
        "encoding": "dynamic_array",
        "label": "address[]",
        "numberOfBytes": "32"
      },
      "t_array(t_bytes32)dyn_storage": {
        "base": "t_bytes32",
        "encoding": "dynamic_array",
        "label": "bytes32[]",
        "numberOfBytes": "32"
      },
      "t_array(t_struct(KolUserInfo)9726_storage)dyn_storage": {
        "base": "t_struct(KolUserInfo)9726_storage",
        "encoding": "dynamic_array",
        "label": "struct UserVault.KolUserInfo[]",
        "numberOfBytes": "32"
      },
      "t_array(t_uint256)dyn_storage": {
        "base": "t_uint256",
        "encoding": "dynamic_array",
        "label": "uint256[]",
        "numberOfBytes": "32"
      },
      "t_bool": {
        "encoding": "inplace",
        "label": "bool",
        "numberOfBytes": "1"
      },
      "t_bytes32": {
        "encoding": "inplace",
        "label": "bytes32",
        "numberOfBytes": "32"
      },
      "t_contract(ICRPFactory)9596": {
        "encoding": "inplace",
        "label": "contract ICRPFactory",
        "numberOfBytes": "20"
      },
      "t_mapping(t_address,t_array(t_struct(KolUserInfo)9726_storage)dyn_storage)": {
        "encoding": "mapping",
        "key": "t_address",
        "label": "mapping(address => struct UserVault.KolUserInfo[])",
        "numberOfBytes": "32",
        "value": "t_array(t_struct(KolUserInfo)9726_storage)dyn_storage"
      },
      "t_mapping(t_address,t_array(t_uint256)dyn_storage)": {
        "encoding": "mapping",
        "key": "t_address",
        "label": "mapping(address => uint256[])",
        "numberOfBytes": "32",
        "value": "t_array(t_uint256)dyn_storage"
      },
      "t_mapping(t_address,t_mapping(t_address,t_array(t_struct(KolUserInfo)9726_storage)dyn_storage))": {
        "encoding": "mapping",
        "key": "t_address",
        "label": "mapping(address => mapping(address => struct UserVault.KolUserInfo[]))",
        "numberOfBytes": "32",
        "value": "t_mapping(t_address,t_array(t_struct(KolUserInfo)9726_storage)dyn_storage)"
      },
      "t_mapping(t_address,t_mapping(t_address,t_array(t_uint256)dyn_storage))": {
        "encoding": "mapping",
        "key": "t_address",
        "label": "mapping(address => mapping(address => uint256[]))",
        "numberOfBytes": "32",
        "value": "t_mapping(t_address,t_array(t_uint256)dyn_storage)"
      },
      "t_mapping(t_address,t_mapping(t_address,t_struct(ClaimTokens)9738_storage))": {
        "encoding": "mapping",
        "key": "t_address",
        "label": "mapping(address => mapping(address => struct UserVault.ClaimTokens))",
        "numberOfBytes": "32",
        "value": "t_mapping(t_address,t_struct(ClaimTokens)9738_storage)"
      },
      "t_mapping(t_address,t_mapping(t_address,t_struct(UserKolInfo)9731_storage))": {
        "encoding": "mapping",
        "key": "t_address",
        "label": "mapping(address => mapping(address => struct UserVault.UserKolInfo))",
        "numberOfBytes": "32",
        "value": "t_mapping(t_address,t_struct(UserKolInfo)9731_storage)"
      },
      "t_mapping(t_address,t_struct(AddressSet)15954_storage)": {
        "encoding": "mapping",
        "key": "t_address",
        "label": "mapping(address => struct EnumerableSet.AddressSet)",
        "numberOfBytes": "32",
        "value": "t_struct(AddressSet)15954_storage"
      },
      "t_mapping(t_address,t_struct(ClaimTokens)9738_storage)": {
        "encoding": "mapping",
        "key": "t_address",
        "label": "mapping(address => struct UserVault.ClaimTokens)",
        "numberOfBytes": "32",
        "value": "t_struct(ClaimTokens)9738_storage"
      },
      "t_mapping(t_address,t_struct(PoolStatus)9720_storage)": {
        "encoding": "mapping",
        "key": "t_address",
        "label": "mapping(address => struct UserVault.PoolStatus)",
        "numberOfBytes": "32",
        "value": "t_struct(PoolStatus)9720_storage"
      },
      "t_mapping(t_address,t_struct(PoolTokens)9711_storage)": {
        "encoding": "mapping",
        "key": "t_address",
        "label": "mapping(address => struct UserVault.PoolTokens)",
        "numberOfBytes": "32",
        "value": "t_struct(PoolTokens)9711_storage"
      },
      "t_mapping(t_address,t_struct(UserKolInfo)9731_storage)": {
        "encoding": "mapping",
        "key": "t_address",
        "label": "mapping(address => struct UserVault.UserKolInfo)",
        "numberOfBytes": "32",
        "value": "t_struct(UserKolInfo)9731_storage"
      },
      "t_mapping(t_address,t_uint256)": {
        "encoding": "mapping",
        "key": "t_address",
        "label": "mapping(address => uint256)",
        "numberOfBytes": "32",
        "value": "t_uint256"
      },
      "t_mapping(t_bytes32,t_uint256)": {
        "encoding": "mapping",
        "key": "t_bytes32",
        "label": "mapping(bytes32 => uint256)",
        "numberOfBytes": "32",
        "value": "t_uint256"
      },
      "t_struct(AddressSet)15954_storage": {
        "encoding": "inplace",
        "label": "struct EnumerableSet.AddressSet",
        "members": [
          {
            "astId": 15953,
            "contract": "contracts/deploy/UserVault.sol:UserVault",
            "label": "_inner",
            "offset": 0,
            "slot": "0",
            "type": "t_struct(Set)15767_storage"
          }
        ],
        "numberOfBytes": "64"
      },
      "t_struct(ClaimTokens)9738_storage": {
        "encoding": "inplace",
        "label": "struct UserVault.ClaimTokens",
        "members": [
          {
            "astId": 9734,
            "contract": "contracts/deploy/UserVault.sol:UserVault",
            "label": "tokens",
            "offset": 0,
            "slot": "0",
            "type": "t_array(t_address)dyn_storage"
          },
          {
            "astId": 9737,
            "contract": "contracts/deploy/UserVault.sol:UserVault",
            "label": "amounts",
            "offset": 0,
            "slot": "1",
            "type": "t_array(t_uint256)dyn_storage"
          }
        ],
        "numberOfBytes": "64"
      },
      "t_struct(KolPoolParams)16770_storage": {
        "encoding": "inplace",
        "label": "struct SmartPoolManager.KolPoolParams",
        "members": [
          {
            "astId": 16763,
            "contract": "contracts/deploy/UserVault.sol:UserVault",
            "label": "managerFee",
            "offset": 0,
            "slot": "0",
            "type": "t_struct(feeParams)16761_storage"
          },
          {
            "astId": 16765,
            "contract": "contracts/deploy/UserVault.sol:UserVault",
            "label": "issueFee",
            "offset": 0,
            "slot": "8",
            "type": "t_struct(feeParams)16761_storage"
          },
          {
            "astId": 16767,
            "contract": "contracts/deploy/UserVault.sol:UserVault",
            "label": "redeemFee",
            "offset": 0,
            "slot": "16",
            "type": "t_struct(feeParams)16761_storage"
          },
          {
            "astId": 16769,
            "contract": "contracts/deploy/UserVault.sol:UserVault",
            "label": "perfermanceFee",
            "offset": 0,
            "slot": "24",
            "type": "t_struct(feeParams)16761_storage"
          }
        ],
        "numberOfBytes": "1024"
      },
      "t_struct(KolUserInfo)9726_storage": {
        "encoding": "inplace",
        "label": "struct UserVault.KolUserInfo",
        "members": [
          {
            "astId": 9722,
            "contract": "contracts/deploy/UserVault.sol:UserVault",
            "label": "userAdr",
            "offset": 0,
            "slot": "0",
            "type": "t_address"
          },
          {
            "astId": 9725,
            "contract": "contracts/deploy/UserVault.sol:UserVault",
            "label": "userAmount",
            "offset": 0,
            "slot": "1",
            "type": "t_array(t_uint256)dyn_storage"
          }
        ],
        "numberOfBytes": "64"
      },
      "t_struct(PoolStatus)9720_storage": {
        "encoding": "inplace",
        "label": "struct UserVault.PoolStatus",
        "members": [
          {
            "astId": 9713,
            "contract": "contracts/deploy/UserVault.sol:UserVault",
            "label": "couldManagerClaim",
            "offset": 0,
            "slot": "0",
            "type": "t_bool"
          },
          {
            "astId": 9715,
            "contract": "contracts/deploy/UserVault.sol:UserVault",
            "label": "isBlackList",
            "offset": 1,
            "slot": "0",
            "type": "t_bool"
          },
          {
            "astId": 9717,
            "contract": "contracts/deploy/UserVault.sol:UserVault",
            "label": "isSetParams",
            "offset": 2,
            "slot": "0",
            "type": "t_bool"
          },
          {
            "astId": 9719,
            "contract": "contracts/deploy/UserVault.sol:UserVault",
            "label": "kolPoolConfig",
            "offset": 0,
            "slot": "1",
            "type": "t_struct(KolPoolParams)16770_storage"
          }
        ],
        "numberOfBytes": "1056"
      },
      "t_struct(PoolTokens)9711_storage": {
        "encoding": "inplace",
        "label": "struct UserVault.PoolTokens",
        "members": [
          {
            "astId": 9698,
            "contract": "contracts/deploy/UserVault.sol:UserVault",
            "label": "tokenList",
            "offset": 0,
            "slot": "0",
            "type": "t_array(t_address)dyn_storage"
          },
          {
            "astId": 9701,
            "contract": "contracts/deploy/UserVault.sol:UserVault",
            "label": "managerAmount",
            "offset": 0,
            "slot": "1",
            "type": "t_array(t_uint256)dyn_storage"
          },
          {
            "astId": 9704,
            "contract": "contracts/deploy/UserVault.sol:UserVault",
            "label": "issueAmount",
            "offset": 0,
            "slot": "2",
            "type": "t_array(t_uint256)dyn_storage"
          },
          {
            "astId": 9707,
            "contract": "contracts/deploy/UserVault.sol:UserVault",
            "label": "redeemAmount",
            "offset": 0,
            "slot": "3",
            "type": "t_array(t_uint256)dyn_storage"
          },
          {
            "astId": 9710,
            "contract": "contracts/deploy/UserVault.sol:UserVault",
            "label": "perfermanceAmount",
            "offset": 0,
            "slot": "4",
            "type": "t_array(t_uint256)dyn_storage"
          }
        ],
        "numberOfBytes": "160"
      },
      "t_struct(Set)15767_storage": {
        "encoding": "inplace",
        "label": "struct EnumerableSet.Set",
        "members": [
          {
            "astId": 15762,
            "contract": "contracts/deploy/UserVault.sol:UserVault",
            "label": "_values",
            "offset": 0,
            "slot": "0",
            "type": "t_array(t_bytes32)dyn_storage"
          },
          {
            "astId": 15766,
            "contract": "contracts/deploy/UserVault.sol:UserVault",
            "label": "_indexes",
            "offset": 0,
            "slot": "1",
            "type": "t_mapping(t_bytes32,t_uint256)"
          }
        ],
        "numberOfBytes": "64"
      },
      "t_struct(UserKolInfo)9731_storage": {
        "encoding": "inplace",
        "label": "struct UserVault.UserKolInfo",
        "members": [
          {
            "astId": 9728,
            "contract": "contracts/deploy/UserVault.sol:UserVault",
            "label": "kol",
            "offset": 0,
            "slot": "0",
            "type": "t_address"
          },
          {
            "astId": 9730,
            "contract": "contracts/deploy/UserVault.sol:UserVault",
            "label": "index",
            "offset": 0,
            "slot": "1",
            "type": "t_uint256"
          }
        ],
        "numberOfBytes": "64"
      },
      "t_struct(feeParams)16761_storage": {
        "encoding": "inplace",
        "label": "struct SmartPoolManager.feeParams",
        "members": [
          {
            "astId": 16754,
            "contract": "contracts/deploy/UserVault.sol:UserVault",
            "label": "firstLevel",
            "offset": 0,
            "slot": "0",
            "type": "t_struct(levelParams)16752_storage"
          },
          {
            "astId": 16756,
            "contract": "contracts/deploy/UserVault.sol:UserVault",
            "label": "secondLevel",
            "offset": 0,
            "slot": "2",
            "type": "t_struct(levelParams)16752_storage"
          },
          {
            "astId": 16758,
            "contract": "contracts/deploy/UserVault.sol:UserVault",
            "label": "thirdLevel",
            "offset": 0,
            "slot": "4",
            "type": "t_struct(levelParams)16752_storage"
          },
          {
            "astId": 16760,
            "contract": "contracts/deploy/UserVault.sol:UserVault",
            "label": "fourLevel",
            "offset": 0,
            "slot": "6",
            "type": "t_struct(levelParams)16752_storage"
          }
        ],
        "numberOfBytes": "256"
      },
      "t_struct(levelParams)16752_storage": {
        "encoding": "inplace",
        "label": "struct SmartPoolManager.levelParams",
        "members": [
          {
            "astId": 16749,
            "contract": "contracts/deploy/UserVault.sol:UserVault",
            "label": "level",
            "offset": 0,
            "slot": "0",
            "type": "t_uint256"
          },
          {
            "astId": 16751,
            "contract": "contracts/deploy/UserVault.sol:UserVault",
            "label": "ratio",
            "offset": 0,
            "slot": "1",
            "type": "t_uint256"
          }
        ],
        "numberOfBytes": "64"
      },
      "t_uint256": {
        "encoding": "inplace",
        "label": "uint256",
        "numberOfBytes": "32"
      }
    }
  }
}