{
  "address": "0xA0D6c9976cf7738B8A8c4351dd9475b102700f47",
  "abi": [
    {
      "anonymous": false,
      "inputs": [
        {
          "indexed": true,
          "internalType": "address",
          "name": "newAdmin",
          "type": "address"
        },
        {
          "indexed": true,
          "internalType": "uint256",
          "name": "amount",
          "type": "uint256"
        }
      ],
      "name": "AddAdmin",
      "type": "event"
    },
    {
      "anonymous": false,
      "inputs": [
        {
          "indexed": true,
          "internalType": "address",
          "name": "manager",
          "type": "address"
        },
        {
          "indexed": true,
          "internalType": "address",
          "name": "caller",
          "type": "address"
        }
      ],
      "name": "LOGVaultAdr",
      "type": "event"
    },
    {
      "anonymous": false,
      "inputs": [
        {
          "indexed": true,
          "internalType": "address",
          "name": "previousOwner",
          "type": "address"
        },
        {
          "indexed": true,
          "internalType": "address",
          "name": "newOwner",
          "type": "address"
        }
      ],
      "name": "OwnershipTransferred",
      "type": "event"
    },
    {
      "anonymous": false,
      "inputs": [
        {
          "indexed": true,
          "internalType": "address",
          "name": "oldAdmin",
          "type": "address"
        },
        {
          "indexed": true,
          "internalType": "uint256",
          "name": "amount",
          "type": "uint256"
        }
      ],
      "name": "RemoveAdmin",
      "type": "event"
    },
    {
      "inputs": [],
      "name": "RATIO_TOTAL",
      "outputs": [
        {
          "internalType": "uint256",
          "name": "",
          "type": "uint256"
        }
      ],
      "stateMutability": "view",
      "type": "function"
    },
    {
      "inputs": [
        {
          "internalType": "address",
          "name": "pool",
          "type": "address"
        },
        {
          "internalType": "address",
          "name": "kol",
          "type": "address"
        },
        {
          "internalType": "uint256",
          "name": "types",
          "type": "uint256"
        }
      ],
      "name": "_computeReward",
      "outputs": [
        {
          "internalType": "uint256",
          "name": "",
          "type": "uint256"
        }
      ],
      "stateMutability": "view",
      "type": "function"
    },
    {
      "inputs": [
        {
          "internalType": "address",
          "name": "token",
          "type": "address"
        },
        {
          "internalType": "address",
          "name": "user",
          "type": "address"
        },
        {
          "internalType": "uint256",
          "name": "amount",
          "type": "uint256"
        }
      ],
      "name": "adminClaimToken",
      "outputs": [],
      "stateMutability": "nonpayable",
      "type": "function"
    },
    {
      "inputs": [
        {
          "internalType": "address",
          "name": "",
          "type": "address"
        }
      ],
      "name": "adminList",
      "outputs": [
        {
          "internalType": "bool",
          "name": "",
          "type": "bool"
        }
      ],
      "stateMutability": "view",
      "type": "function"
    },
    {
      "inputs": [],
      "name": "allOwnerPercentage",
      "outputs": [
        {
          "internalType": "uint256",
          "name": "",
          "type": "uint256"
        }
      ],
      "stateMutability": "view",
      "type": "function"
    },
    {
      "inputs": [
        {
          "internalType": "address",
          "name": "pool",
          "type": "address"
        }
      ],
      "name": "claimKolReward",
      "outputs": [],
      "stateMutability": "nonpayable",
      "type": "function"
    },
    {
      "inputs": [
        {
          "internalType": "address",
          "name": "pool",
          "type": "address"
        },
        {
          "internalType": "uint256",
          "name": "types",
          "type": "uint256"
        },
        {
          "internalType": "address[]",
          "name": "poolTokens",
          "type": "address[]"
        },
        {
          "internalType": "uint256[]",
          "name": "tokensAmount",
          "type": "uint256[]"
        }
      ],
      "name": "depositToken",
      "outputs": [],
      "stateMutability": "nonpayable",
      "type": "function"
    },
    {
      "inputs": [
        {
          "internalType": "address",
          "name": "pool",
          "type": "address"
        }
      ],
      "name": "getAllKolReward",
      "outputs": [
        {
          "internalType": "uint256",
          "name": "totalAmount",
          "type": "uint256"
        }
      ],
      "stateMutability": "view",
      "type": "function"
    },
    {
      "inputs": [],
      "name": "getBNB",
      "outputs": [],
      "stateMutability": "payable",
      "type": "function"
    },
    {
      "inputs": [],
      "name": "getController",
      "outputs": [
        {
          "internalType": "address",
          "name": "",
          "type": "address"
        }
      ],
      "stateMutability": "view",
      "type": "function"
    },
    {
      "inputs": [
        {
          "internalType": "address",
          "name": "pool",
          "type": "address"
        }
      ],
      "name": "getKolsAdr",
      "outputs": [
        {
          "internalType": "address[]",
          "name": "",
          "type": "address[]"
        }
      ],
      "stateMutability": "view",
      "type": "function"
    },
    {
      "inputs": [
        {
          "internalType": "address",
          "name": "pool",
          "type": "address"
        }
      ],
      "name": "getManagerClaimBool",
      "outputs": [
        {
          "internalType": "bool",
          "name": "bools",
          "type": "bool"
        }
      ],
      "stateMutability": "view",
      "type": "function"
    },
    {
      "inputs": [
        {
          "internalType": "address",
          "name": "pool",
          "type": "address"
        },
        {
          "internalType": "address",
          "name": "maragerAdr",
          "type": "address"
        }
      ],
      "name": "getManagerReward",
      "outputs": [
        {
          "internalType": "uint256",
          "name": "",
          "type": "uint256"
        }
      ],
      "stateMutability": "view",
      "type": "function"
    },
    {
      "inputs": [
        {
          "internalType": "address",
          "name": "pool",
          "type": "address"
        }
      ],
      "name": "getManagerReward",
      "outputs": [
        {
          "internalType": "uint256",
          "name": "",
          "type": "uint256"
        }
      ],
      "stateMutability": "view",
      "type": "function"
    },
    {
      "inputs": [],
      "name": "getOwnerPercentage",
      "outputs": [
        {
          "internalType": "uint256[]",
          "name": "",
          "type": "uint256[]"
        }
      ],
      "stateMutability": "view",
      "type": "function"
    },
    {
      "inputs": [],
      "name": "getOwners",
      "outputs": [
        {
          "internalType": "address[]",
          "name": "",
          "type": "address[]"
        }
      ],
      "stateMutability": "view",
      "type": "function"
    },
    {
      "inputs": [
        {
          "internalType": "address",
          "name": "pool",
          "type": "address"
        }
      ],
      "name": "getPoolAllFee",
      "outputs": [
        {
          "internalType": "uint256",
          "name": "totalAmount",
          "type": "uint256"
        }
      ],
      "stateMutability": "view",
      "type": "function"
    },
    {
      "inputs": [
        {
          "internalType": "address",
          "name": "pool",
          "type": "address"
        },
        {
          "internalType": "address",
          "name": "kol",
          "type": "address"
        }
      ],
      "name": "getPoolKolTotalAmounts",
      "outputs": [
        {
          "internalType": "uint256[]",
          "name": "",
          "type": "uint256[]"
        }
      ],
      "stateMutability": "view",
      "type": "function"
    },
    {
      "inputs": [
        {
          "internalType": "address",
          "name": "pool",
          "type": "address"
        },
        {
          "internalType": "address",
          "name": "kol",
          "type": "address"
        }
      ],
      "name": "getPoolKolUserInfo",
      "outputs": [
        {
          "components": [
            {
              "internalType": "address",
              "name": "userAdr",
              "type": "address"
            },
            {
              "internalType": "uint256[]",
              "name": "userAmount",
              "type": "uint256[]"
            }
          ],
          "internalType": "struct UserVault.KolUserInfo[]",
          "name": "info",
          "type": "tuple[]"
        }
      ],
      "stateMutability": "view",
      "type": "function"
    },
    {
      "inputs": [
        {
          "internalType": "address",
          "name": "pool",
          "type": "address"
        },
        {
          "internalType": "address",
          "name": "user",
          "type": "address"
        }
      ],
      "name": "getPoolUserKolAdr",
      "outputs": [
        {
          "internalType": "address",
          "name": "tokenAddress",
          "type": "address"
        }
      ],
      "stateMutability": "view",
      "type": "function"
    },
    {
      "inputs": [
        {
          "internalType": "address",
          "name": "pool",
          "type": "address"
        }
      ],
      "name": "getPoolUserList",
      "outputs": [
        {
          "internalType": "address[]",
          "name": "tokenList",
          "type": "address[]"
        }
      ],
      "stateMutability": "view",
      "type": "function"
    },
    {
      "inputs": [
        {
          "internalType": "address",
          "name": "pool",
          "type": "address"
        }
      ],
      "name": "getUnManagerReward",
      "outputs": [
        {
          "internalType": "uint256",
          "name": "",
          "type": "uint256"
        }
      ],
      "stateMutability": "view",
      "type": "function"
    },
    {
      "inputs": [
        {
          "internalType": "address",
          "name": "pool",
          "type": "address"
        },
        {
          "internalType": "address",
          "name": "maragerAdr",
          "type": "address"
        }
      ],
      "name": "getUnManagerReward",
      "outputs": [
        {
          "internalType": "uint256",
          "name": "",
          "type": "uint256"
        }
      ],
      "stateMutability": "view",
      "type": "function"
    },
    {
      "inputs": [
        {
          "internalType": "address[]",
          "name": "_owners",
          "type": "address[]"
        },
        {
          "internalType": "uint256[]",
          "name": "_ownerPercentage",
          "type": "uint256[]"
        }
      ],
      "name": "initHandle",
      "outputs": [],
      "stateMutability": "nonpayable",
      "type": "function"
    },
    {
      "inputs": [
        {
          "internalType": "address",
          "name": "",
          "type": "address"
        }
      ],
      "name": "init_totalAmount_list",
      "outputs": [
        {
          "internalType": "uint256",
          "name": "",
          "type": "uint256"
        }
      ],
      "stateMutability": "view",
      "type": "function"
    },
    {
      "inputs": [
        {
          "internalType": "address",
          "name": "pool",
          "type": "address"
        }
      ],
      "name": "isClosePool",
      "outputs": [
        {
          "internalType": "bool",
          "name": "",
          "type": "bool"
        }
      ],
      "stateMutability": "view",
      "type": "function"
    },
    {
      "inputs": [
        {
          "internalType": "address",
          "name": "pool",
          "type": "address"
        },
        {
          "internalType": "address",
          "name": "kol",
          "type": "address"
        }
      ],
      "name": "kolClaimTotal",
      "outputs": [
        {
          "internalType": "uint256",
          "name": "",
          "type": "uint256"
        }
      ],
      "stateMutability": "view",
      "type": "function"
    },
    {
      "inputs": [
        {
          "internalType": "address",
          "name": "pool",
          "type": "address"
        },
        {
          "internalType": "address",
          "name": "kol",
          "type": "address"
        }
      ],
      "name": "kolUnClaimAmount",
      "outputs": [
        {
          "internalType": "uint256",
          "name": "",
          "type": "uint256"
        }
      ],
      "stateMutability": "view",
      "type": "function"
    },
    {
      "inputs": [
        {
          "internalType": "address",
          "name": "",
          "type": "address"
        },
        {
          "internalType": "address",
          "name": "",
          "type": "address"
        }
      ],
      "name": "kol_claimed_list",
      "outputs": [
        {
          "internalType": "uint256",
          "name": "",
          "type": "uint256"
        }
      ],
      "stateMutability": "view",
      "type": "function"
    },
    {
      "inputs": [
        {
          "internalType": "address",
          "name": "",
          "type": "address"
        },
        {
          "internalType": "uint256",
          "name": "",
          "type": "uint256"
        }
      ],
      "name": "kol_token_list",
      "outputs": [
        {
          "internalType": "address",
          "name": "",
          "type": "address"
        }
      ],
      "stateMutability": "view",
      "type": "function"
    },
    {
      "inputs": [
        {
          "internalType": "address",
          "name": "",
          "type": "address"
        },
        {
          "internalType": "address",
          "name": "",
          "type": "address"
        },
        {
          "internalType": "uint256",
          "name": "",
          "type": "uint256"
        }
      ],
      "name": "kol_totalAmount_list",
      "outputs": [
        {
          "internalType": "uint256",
          "name": "",
          "type": "uint256"
        }
      ],
      "stateMutability": "view",
      "type": "function"
    },
    {
      "inputs": [
        {
          "internalType": "address",
          "name": "",
          "type": "address"
        },
        {
          "internalType": "address",
          "name": "",
          "type": "address"
        },
        {
          "internalType": "uint256",
          "name": "",
          "type": "uint256"
        }
      ],
      "name": "kol_user_info",
      "outputs": [
        {
          "internalType": "address",
          "name": "userAdr",
          "type": "address"
        }
      ],
      "stateMutability": "view",
      "type": "function"
    },
    {
      "inputs": [
        {
          "internalType": "address",
          "name": "pool",
          "type": "address"
        }
      ],
      "name": "managerClaim",
      "outputs": [],
      "stateMutability": "nonpayable",
      "type": "function"
    },
    {
      "inputs": [
        {
          "internalType": "address",
          "name": "pool",
          "type": "address"
        }
      ],
      "name": "managerClaimList",
      "outputs": [
        {
          "components": [
            {
              "internalType": "address",
              "name": "token",
              "type": "address"
            },
            {
              "internalType": "uint256",
              "name": "decimals",
              "type": "uint256"
            },
            {
              "internalType": "uint256",
              "name": "amount",
              "type": "uint256"
            }
          ],
          "internalType": "struct UserVault.ClaimTokenInfo[1]",
          "name": "",
          "type": "tuple[1]"
        }
      ],
      "stateMutability": "view",
      "type": "function"
    },
    {
      "inputs": [
        {
          "internalType": "address",
          "name": "pool",
          "type": "address"
        }
      ],
      "name": "managerClaimRecordList",
      "outputs": [
        {
          "components": [
            {
              "internalType": "uint256",
              "name": "time",
              "type": "uint256"
            },
            {
              "components": [
                {
                  "internalType": "address",
                  "name": "token",
                  "type": "address"
                },
                {
                  "internalType": "uint256",
                  "name": "decimals",
                  "type": "uint256"
                },
                {
                  "internalType": "uint256",
                  "name": "amount",
                  "type": "uint256"
                }
              ],
              "internalType": "struct UserVault.ClaimTokenInfo[]",
              "name": "tokens",
              "type": "tuple[]"
            }
          ],
          "internalType": "struct UserVault.ClaimRecordInfo[]",
          "name": "claimRecordInfos",
          "type": "tuple[]"
        }
      ],
      "stateMutability": "view",
      "type": "function"
    },
    {
      "inputs": [
        {
          "internalType": "address",
          "name": "",
          "type": "address"
        },
        {
          "internalType": "address",
          "name": "",
          "type": "address"
        }
      ],
      "name": "manager_claimed_list",
      "outputs": [
        {
          "internalType": "uint256",
          "name": "",
          "type": "uint256"
        }
      ],
      "stateMutability": "view",
      "type": "function"
    },
    {
      "inputs": [
        {
          "internalType": "uint256",
          "name": "",
          "type": "uint256"
        }
      ],
      "name": "ownerPercentage",
      "outputs": [
        {
          "internalType": "uint256",
          "name": "",
          "type": "uint256"
        }
      ],
      "stateMutability": "view",
      "type": "function"
    },
    {
      "inputs": [
        {
          "internalType": "uint256",
          "name": "",
          "type": "uint256"
        }
      ],
      "name": "owners",
      "outputs": [
        {
          "internalType": "address",
          "name": "",
          "type": "address"
        }
      ],
      "stateMutability": "view",
      "type": "function"
    },
    {
      "inputs": [
        {
          "internalType": "address",
          "name": "pool",
          "type": "address"
        }
      ],
      "name": "poolIssueTokenAmount",
      "outputs": [
        {
          "internalType": "uint256[]",
          "name": "tokenAmount",
          "type": "uint256[]"
        }
      ],
      "stateMutability": "view",
      "type": "function"
    },
    {
      "inputs": [
        {
          "internalType": "address",
          "name": "pool",
          "type": "address"
        }
      ],
      "name": "poolIssueTokenList",
      "outputs": [
        {
          "internalType": "address[]",
          "name": "tokens",
          "type": "address[]"
        }
      ],
      "stateMutability": "view",
      "type": "function"
    },
    {
      "inputs": [
        {
          "internalType": "address",
          "name": "pool",
          "type": "address"
        }
      ],
      "name": "poolManagerTokenAmount",
      "outputs": [
        {
          "internalType": "uint256[]",
          "name": "tokenAmount",
          "type": "uint256[]"
        }
      ],
      "stateMutability": "view",
      "type": "function"
    },
    {
      "inputs": [
        {
          "internalType": "address",
          "name": "pool",
          "type": "address"
        }
      ],
      "name": "poolManagerTokenList",
      "outputs": [
        {
          "internalType": "address[]",
          "name": "tokens",
          "type": "address[]"
        }
      ],
      "stateMutability": "view",
      "type": "function"
    },
    {
      "inputs": [
        {
          "internalType": "address",
          "name": "pool",
          "type": "address"
        }
      ],
      "name": "poolPerfermanceTokenAmount",
      "outputs": [
        {
          "internalType": "uint256[]",
          "name": "tokenAmount",
          "type": "uint256[]"
        }
      ],
      "stateMutability": "view",
      "type": "function"
    },
    {
      "inputs": [
        {
          "internalType": "address",
          "name": "pool",
          "type": "address"
        }
      ],
      "name": "poolPerfermanceTokenList",
      "outputs": [
        {
          "internalType": "address[]",
          "name": "tokens",
          "type": "address[]"
        }
      ],
      "stateMutability": "view",
      "type": "function"
    },
    {
      "inputs": [
        {
          "internalType": "address",
          "name": "pool",
          "type": "address"
        }
      ],
      "name": "poolRedeemTokenAmount",
      "outputs": [
        {
          "internalType": "uint256[]",
          "name": "tokenAmount",
          "type": "uint256[]"
        }
      ],
      "stateMutability": "view",
      "type": "function"
    },
    {
      "inputs": [
        {
          "internalType": "address",
          "name": "pool",
          "type": "address"
        }
      ],
      "name": "poolRedeemTokenList",
      "outputs": [
        {
          "internalType": "address[]",
          "name": "tokens",
          "type": "address[]"
        }
      ],
      "stateMutability": "view",
      "type": "function"
    },
    {
      "inputs": [
        {
          "internalType": "address",
          "name": "",
          "type": "address"
        }
      ],
      "name": "pool_manager",
      "outputs": [
        {
          "internalType": "address",
          "name": "",
          "type": "address"
        }
      ],
      "stateMutability": "view",
      "type": "function"
    },
    {
      "inputs": [
        {
          "internalType": "address",
          "name": "",
          "type": "address"
        }
      ],
      "name": "pool_manangerHasClaimed",
      "outputs": [
        {
          "internalType": "uint256",
          "name": "",
          "type": "uint256"
        }
      ],
      "stateMutability": "view",
      "type": "function"
    },
    {
      "inputs": [
        {
          "internalType": "address",
          "name": "kol",
          "type": "address"
        },
        {
          "internalType": "address",
          "name": "user",
          "type": "address"
        },
        {
          "internalType": "address[]",
          "name": "poolTokens",
          "type": "address[]"
        },
        {
          "internalType": "uint256[]",
          "name": "tokensAmount",
          "type": "uint256[]"
        }
      ],
      "name": "recordTokenInfo",
      "outputs": [],
      "stateMutability": "nonpayable",
      "type": "function"
    },
    {
      "inputs": [
        {
          "internalType": "address",
          "name": "",
          "type": "address"
        },
        {
          "internalType": "uint256",
          "name": "",
          "type": "uint256"
        }
      ],
      "name": "record_List",
      "outputs": [
        {
          "internalType": "uint256",
          "name": "time",
          "type": "uint256"
        }
      ],
      "stateMutability": "view",
      "type": "function"
    },
    {
      "inputs": [
        {
          "internalType": "address",
          "name": "",
          "type": "address"
        }
      ],
      "name": "record_number",
      "outputs": [
        {
          "internalType": "uint256",
          "name": "",
          "type": "uint256"
        }
      ],
      "stateMutability": "view",
      "type": "function"
    },
    {
      "inputs": [
        {
          "internalType": "address",
          "name": "owner",
          "type": "address"
        }
      ],
      "name": "removeOwner",
      "outputs": [],
      "stateMutability": "nonpayable",
      "type": "function"
    },
    {
      "inputs": [
        {
          "internalType": "address",
          "name": "newOwner",
          "type": "address"
        },
        {
          "internalType": "uint256",
          "name": "_ownerPercentage",
          "type": "uint256"
        }
      ],
      "name": "setAddAdminList",
      "outputs": [],
      "stateMutability": "nonpayable",
      "type": "function"
    },
    {
      "inputs": [
        {
          "internalType": "address",
          "name": "pool",
          "type": "address"
        },
        {
          "internalType": "bool",
          "name": "bools",
          "type": "bool"
        }
      ],
      "name": "setBlackList",
      "outputs": [],
      "stateMutability": "nonpayable",
      "type": "function"
    },
    {
      "inputs": [
        {
          "internalType": "address",
          "name": "newOwner",
          "type": "address"
        }
      ],
      "name": "setController",
      "outputs": [],
      "stateMutability": "nonpayable",
      "type": "function"
    },
    {
      "inputs": [
        {
          "internalType": "address",
          "name": "adr",
          "type": "address"
        }
      ],
      "name": "setCrpFactory",
      "outputs": [],
      "stateMutability": "nonpayable",
      "type": "function"
    },
    {
      "inputs": [
        {
          "internalType": "address",
          "name": "pool",
          "type": "address"
        },
        {
          "components": [
            {
              "components": [
                {
                  "components": [
                    {
                      "internalType": "uint256",
                      "name": "level",
                      "type": "uint256"
                    },
                    {
                      "internalType": "uint256",
                      "name": "ratio",
                      "type": "uint256"
                    }
                  ],
                  "internalType": "struct SmartPoolManager.levelParams",
                  "name": "firstLevel",
                  "type": "tuple"
                },
                {
                  "components": [
                    {
                      "internalType": "uint256",
                      "name": "level",
                      "type": "uint256"
                    },
                    {
                      "internalType": "uint256",
                      "name": "ratio",
                      "type": "uint256"
                    }
                  ],
                  "internalType": "struct SmartPoolManager.levelParams",
                  "name": "secondLevel",
                  "type": "tuple"
                },
                {
                  "components": [
                    {
                      "internalType": "uint256",
                      "name": "level",
                      "type": "uint256"
                    },
                    {
                      "internalType": "uint256",
                      "name": "ratio",
                      "type": "uint256"
                    }
                  ],
                  "internalType": "struct SmartPoolManager.levelParams",
                  "name": "thirdLevel",
                  "type": "tuple"
                },
                {
                  "components": [
                    {
                      "internalType": "uint256",
                      "name": "level",
                      "type": "uint256"
                    },
                    {
                      "internalType": "uint256",
                      "name": "ratio",
                      "type": "uint256"
                    }
                  ],
                  "internalType": "struct SmartPoolManager.levelParams",
                  "name": "fourLevel",
                  "type": "tuple"
                }
              ],
              "internalType": "struct SmartPoolManager.feeParams",
              "name": "managerFee",
              "type": "tuple"
            },
            {
              "components": [
                {
                  "components": [
                    {
                      "internalType": "uint256",
                      "name": "level",
                      "type": "uint256"
                    },
                    {
                      "internalType": "uint256",
                      "name": "ratio",
                      "type": "uint256"
                    }
                  ],
                  "internalType": "struct SmartPoolManager.levelParams",
                  "name": "firstLevel",
                  "type": "tuple"
                },
                {
                  "components": [
                    {
                      "internalType": "uint256",
                      "name": "level",
                      "type": "uint256"
                    },
                    {
                      "internalType": "uint256",
                      "name": "ratio",
                      "type": "uint256"
                    }
                  ],
                  "internalType": "struct SmartPoolManager.levelParams",
                  "name": "secondLevel",
                  "type": "tuple"
                },
                {
                  "components": [
                    {
                      "internalType": "uint256",
                      "name": "level",
                      "type": "uint256"
                    },
                    {
                      "internalType": "uint256",
                      "name": "ratio",
                      "type": "uint256"
                    }
                  ],
                  "internalType": "struct SmartPoolManager.levelParams",
                  "name": "thirdLevel",
                  "type": "tuple"
                },
                {
                  "components": [
                    {
                      "internalType": "uint256",
                      "name": "level",
                      "type": "uint256"
                    },
                    {
                      "internalType": "uint256",
                      "name": "ratio",
                      "type": "uint256"
                    }
                  ],
                  "internalType": "struct SmartPoolManager.levelParams",
                  "name": "fourLevel",
                  "type": "tuple"
                }
              ],
              "internalType": "struct SmartPoolManager.feeParams",
              "name": "issueFee",
              "type": "tuple"
            },
            {
              "components": [
                {
                  "components": [
                    {
                      "internalType": "uint256",
                      "name": "level",
                      "type": "uint256"
                    },
                    {
                      "internalType": "uint256",
                      "name": "ratio",
                      "type": "uint256"
                    }
                  ],
                  "internalType": "struct SmartPoolManager.levelParams",
                  "name": "firstLevel",
                  "type": "tuple"
                },
                {
                  "components": [
                    {
                      "internalType": "uint256",
                      "name": "level",
                      "type": "uint256"
                    },
                    {
                      "internalType": "uint256",
                      "name": "ratio",
                      "type": "uint256"
                    }
                  ],
                  "internalType": "struct SmartPoolManager.levelParams",
                  "name": "secondLevel",
                  "type": "tuple"
                },
                {
                  "components": [
                    {
                      "internalType": "uint256",
                      "name": "level",
                      "type": "uint256"
                    },
                    {
                      "internalType": "uint256",
                      "name": "ratio",
                      "type": "uint256"
                    }
                  ],
                  "internalType": "struct SmartPoolManager.levelParams",
                  "name": "thirdLevel",
                  "type": "tuple"
                },
                {
                  "components": [
                    {
                      "internalType": "uint256",
                      "name": "level",
                      "type": "uint256"
                    },
                    {
                      "internalType": "uint256",
                      "name": "ratio",
                      "type": "uint256"
                    }
                  ],
                  "internalType": "struct SmartPoolManager.levelParams",
                  "name": "fourLevel",
                  "type": "tuple"
                }
              ],
              "internalType": "struct SmartPoolManager.feeParams",
              "name": "redeemFee",
              "type": "tuple"
            },
            {
              "components": [
                {
                  "components": [
                    {
                      "internalType": "uint256",
                      "name": "level",
                      "type": "uint256"
                    },
                    {
                      "internalType": "uint256",
                      "name": "ratio",
                      "type": "uint256"
                    }
                  ],
                  "internalType": "struct SmartPoolManager.levelParams",
                  "name": "firstLevel",
                  "type": "tuple"
                },
                {
                  "components": [
                    {
                      "internalType": "uint256",
                      "name": "level",
                      "type": "uint256"
                    },
                    {
                      "internalType": "uint256",
                      "name": "ratio",
                      "type": "uint256"
                    }
                  ],
                  "internalType": "struct SmartPoolManager.levelParams",
                  "name": "secondLevel",
                  "type": "tuple"
                },
                {
                  "components": [
                    {
                      "internalType": "uint256",
                      "name": "level",
                      "type": "uint256"
                    },
                    {
                      "internalType": "uint256",
                      "name": "ratio",
                      "type": "uint256"
                    }
                  ],
                  "internalType": "struct SmartPoolManager.levelParams",
                  "name": "thirdLevel",
                  "type": "tuple"
                },
                {
                  "components": [
                    {
                      "internalType": "uint256",
                      "name": "level",
                      "type": "uint256"
                    },
                    {
                      "internalType": "uint256",
                      "name": "ratio",
                      "type": "uint256"
                    }
                  ],
                  "internalType": "struct SmartPoolManager.levelParams",
                  "name": "fourLevel",
                  "type": "tuple"
                }
              ],
              "internalType": "struct SmartPoolManager.feeParams",
              "name": "perfermanceFee",
              "type": "tuple"
            }
          ],
          "internalType": "struct SmartPoolManager.KolPoolParams",
          "name": "_poolParams",
          "type": "tuple"
        }
      ],
      "name": "setPoolParams",
      "outputs": [],
      "stateMutability": "nonpayable",
      "type": "function"
    },
    {
      "inputs": [
        {
          "internalType": "address",
          "name": "adr",
          "type": "address"
        }
      ],
      "name": "setVaultAdr",
      "outputs": [],
      "stateMutability": "nonpayable",
      "type": "function"
    },
    {
      "inputs": [
        {
          "internalType": "address",
          "name": "",
          "type": "address"
        },
        {
          "internalType": "address",
          "name": "",
          "type": "address"
        }
      ],
      "name": "user_index_list",
      "outputs": [
        {
          "internalType": "uint256",
          "name": "",
          "type": "uint256"
        }
      ],
      "stateMutability": "view",
      "type": "function"
    },
    {
      "inputs": [
        {
          "internalType": "address",
          "name": "",
          "type": "address"
        },
        {
          "internalType": "address",
          "name": "",
          "type": "address"
        }
      ],
      "name": "user_kol_list",
      "outputs": [
        {
          "internalType": "address",
          "name": "",
          "type": "address"
        }
      ],
      "stateMutability": "view",
      "type": "function"
    },
    {
      "inputs": [],
      "name": "vaultAddress",
      "outputs": [
        {
          "internalType": "address",
          "name": "",
          "type": "address"
        }
      ],
      "stateMutability": "view",
      "type": "function"
    },
    {
      "stateMutability": "payable",
      "type": "receive"
    }
  ],
  "transactionHash": "0xb006ac624444f0f80783ec8273e72b41048e676595fadd56b3b5b3e049854db8",
  "args": [],
  "numDeployments": 1,
  "solcInputHash": "5f6d7dee0cbbf6ed76ee6017fc498031",
  "bytecode": "0x6080604052606460165534801561001557600080fd5b50600080546001600160a01b03191633179055615f7080620000386000396000f3fe6080604052600436106102c65760003560e01c80636936674d116101775780636936674d146106cc5780636fd4ba9c146106ec5780637234100a1461070c57806378a619de1461072c57806379f66374146107345780638da901ba146107545780638f799e12146107745780639155dae71461079457806392eefe9b146107b4578063992f6ba5146107d4578063a0e67e2b146107f4578063a5168ee214610809578063a97f9f3314610829578063bbb6e80814610849578063c0fcb16614610869578063c1e5762214610889578063c3e4d04f146108a9578063c5318d0f146108c9578063c90361dd146108e9578063cf4fe63514610909578063d29986c114610936578063d6b485a51461094b578063d7256c701461096b578063de7f30221461098b578063e0bea5ac146109ab578063e65065d9146109cb578063ebef44d9146109eb578063ec7a4b5214610a0b578063edb12adf14610a2b578063edbfb5f514610a4b578063f36ed92814610a6b576102cd565b8063025e7c27146102d257806303a68ecb146103085780630b83e629146103355780630e99089c14610362578063154726b214610382578063173825d9146103a25780631a46506e146103c45780631cc9a579146103e45780631eae039c146104115780631f70e80b1461043157806327304dfd146104465780632b5230a9146104735780632c0bdbcf146104935780632c7c1bb5146104c05780633018205f146104e0578063309a042c146104f55780633d5e1b191461050a5780633eedcfa01461052a5780633ef144791461054a57806341c65e831461056a578063430bf08a1461058a5780634660c5a51461059f57806346bead89146105bf5780634bbe2fca146105df5780634d4ae12d146105ff5780634da384161461062c578063528b58531461064c5780635834bac41461066c57806358d2dbf01461068c57806368092bd9146106ac576102cd565b366102cd57005b600080fd5b3480156102de57600080fd5b506102f26102ed3660046158a5565b610a8b565b6040516102ff9190615957565b60405180910390f35b34801561031457600080fd5b5061032861032336600461551f565b610ab2565b6040516102ff9190615ec9565b34801561034157600080fd5b50610355610350366004615456565b610aed565b6040516102ff9190615b5a565b34801561036e57600080fd5b5061032861037d36600461541e565b610b67565b34801561038e57600080fd5b5061032861039d366004615456565b610f39565b3480156103ae57600080fd5b506103c26103bd36600461541e565b610fef565b005b3480156103d057600080fd5b506103556103df36600461541e565b6111da565b3480156103f057600080fd5b506104046103ff36600461541e565b611249565b6040516102ff9190615a0f565b34801561041d57600080fd5b506103c261042c36600461551f565b6113b5565b34801561043d57600080fd5b50610328611465565b34801561045257600080fd5b5061046661046136600461541e565b61146b565b6040516102ff9190615b6d565b34801561047f57600080fd5b5061035561048e36600461541e565b611480565b34801561049f57600080fd5b506104b36104ae36600461541e565b6114ed565b6040516102ff91906159c2565b3480156104cc57600080fd5b506103286104db366004615456565b611565565b3480156104ec57600080fd5b506102f2611582565b34801561050157600080fd5b50610355611591565b34801561051657600080fd5b5061032861052536600461541e565b6115e9565b34801561053657600080fd5b50610328610545366004615456565b6115fb565b34801561055657600080fd5b506103c2610565366004615725565b611618565b34801561057657600080fd5b506104b361058536600461541e565b61173a565b34801561059657600080fd5b506102f26117b1565b3480156105ab57600080fd5b506103c26105ba36600461558c565b6117c0565b3480156105cb57600080fd5b506103286105da366004615456565b611a17565b3480156105eb57600080fd5b506103286105fa36600461561d565b611c80565b34801561060b57600080fd5b5061061f61061a36600461541e565b611c9d565b6040516102ff9190615ab7565b34801561063857600080fd5b506104b361064736600461541e565b611dfd565b34801561065857600080fd5b5061032861066736600461541e565b611e71565b34801561067857600080fd5b5061032861068736600461551f565b611e83565b34801561069857600080fd5b506102f26106a7366004615456565b612565565b3480156106b857600080fd5b506103c26106c736600461555f565b61258f565b3480156106d857600080fd5b506103c26106e736600461541e565b6125ea565b3480156106f857600080fd5b5061032861070736600461541e565b612aaa565b34801561071857600080fd5b5061032861072736600461541e565b612b41565b6103c2612bde565b34801561074057600080fd5b506102f261074f366004615456565b612c34565b34801561076057600080fd5b5061046661076f36600461541e565b612c5a565b34801561078057600080fd5b5061032861078f366004615456565b612ce1565b3480156107a057600080fd5b506103c26107af366004615648565b612cfe565b3480156107c057600080fd5b506103c26107cf36600461541e565b612e69565b3480156107e057600080fd5b506103c26107ef36600461561d565b612f14565b34801561080057600080fd5b506104b361303d565b34801561081557600080fd5b5061035561082436600461541e565b61309e565b34801561083557600080fd5b5061035561084436600461541e565b61310b565b34801561085557600080fd5b506102f261086436600461551f565b613178565b34801561087557600080fd5b5061046661088436600461541e565b6131bf565b34801561089557600080fd5b506103c26108a436600461541e565b6131dd565b3480156108b557600080fd5b506102f26108c436600461541e565b61322f565b3480156108d557600080fd5b506103286108e43660046158a5565b61324a565b3480156108f557600080fd5b506104b361090436600461541e565b613268565b34801561091557600080fd5b50610929610924366004615456565b61328c565b6040516102ff9190615aee565b34801561094257600080fd5b50610328613371565b34801561095757600080fd5b506103c261096636600461541e565b613377565b34801561097757600080fd5b506103c261098636600461548e565b613414565b34801561099757600080fd5b506104b36109a636600461541e565b613994565b3480156109b757600080fd5b506102f26109c636600461561d565b613a0b565b3480156109d757600080fd5b506103286109e6366004615456565b613a40565b3480156109f757600080fd5b506104b3610a0636600461541e565b613bea565b348015610a1757600080fd5b50610328610a26366004615456565b613c5e565b348015610a3757600080fd5b506103c2610a4636600461541e565b613cb0565b348015610a5757600080fd5b50610328610a6636600461541e565b614209565b348015610a7757600080fd5b50610328610a8636600461541e565b61421b565b60028181548110610a9857fe5b6000918252602090912001546001600160a01b0316905081565b60126020528260005260406000206020528160005260406000208181548110610ad757fe5b9060005260206000200160009250925050505481565b6001600160a01b038083166000908152601260209081526040808320938516835292815290829020805483518184028101840190945280845260609392830182828015610b5957602002820191906000526020600020905b815481526020019060010190808311610b45575b505050505090505b92915050565b6000610b7161504c565b6001600160a01b038316600090815260086020908152604091829020825181546101209381028201840190945261010081018481529093919284928491840182828015610be757602002820191906000526020600020905b81546001600160a01b03168152600190910190602001808311610bc9575b5050505050815260200160018201805480602002602001604051908101604052809291908181526020018280548015610c4957602002820191906000526020600020905b81546001600160a01b03168152600190910190602001808311610c2b575b5050505050815260200160028201805480602002602001604051908101604052809291908181526020018280548015610cab57602002820191906000526020600020905b81546001600160a01b03168152600190910190602001808311610c8d575b5050505050815260200160038201805480602002602001604051908101604052809291908181526020018280548015610d0d57602002820191906000526020600020905b81546001600160a01b03168152600190910190602001808311610cef575b5050505050815260200160048201805480602002602001604051908101604052809291908181526020018280548015610d6557602002820191906000526020600020905b815481526020019060010190808311610d51575b5050505050815260200160058201805480602002602001604051908101604052809291908181526020018280548015610dbd57602002820191906000526020600020905b815481526020019060010190808311610da9575b5050505050815260200160068201805480602002602001604051908101604052809291908181526020018280548015610e1557602002820191906000526020600020905b815481526020019060010190808311610e01575b5050505050815260200160078201805480602002602001604051908101604052809291908181526020018280548015610e6d57602002820191906000526020600020905b815481526020019060010190808311610e59575b5050505050815250509050600081608001515111610e8c576000610ea6565b8060800151600081518110610e9d57fe5b60200260200101515b60a082015151920191610eba576000610ed4565b8060a00151600081518110610ecb57fe5b60200260200101515b60c082015151920191610ee8576000610f02565b8060c00151600081518110610ef957fe5b60200260200101515b60e082015151920191610f16576000610f30565b8060e00151600081518110610f2757fe5b60200260200101515b90910192915050565b60405163e65065d960e01b81526000908190309063e65065d990610f639087908790600401615984565b60206040518083038186803b158015610f7b57600080fd5b505afa158015610f8f573d6000803e3d6000fd5b505050506040513d601f19601f82011682018060405250810190610fb391906158bd565b6001600160a01b03808616600090815260116020908152604080832093881683529290522054909150610fe682826142dc565b95945050505050565b6000546001600160a01b031633146110225760405162461bcd60e51b815260040161101990615bcb565b60405180910390fd5b6001600160a01b0381166000908152600160205260408120805460ff19169055805b60025481101561114657826001600160a01b03166002828154811061106557fe5b6000918252602090912001546001600160a01b0316141561113e5760028054600019810190811061109257fe5b600091825260209091200154600280546001600160a01b0390921691839081106110b857fe5b9060005260206000200160006101000a8154816001600160a01b0302191690836001600160a01b03160217905550600381815481106110f357fe5b9060005260206000200154915060036001600380549050038154811061111557fe5b90600052602060002001546003828154811061112d57fe5b600091825260209091200155611146565b600101611044565b50600280548061115257fe5b600082815260209020810160001990810180546001600160a01b0319169055019055600380548061117f57fe5b600082815260208120820160001990810182905590910190915560048054839003905560405182916001600160a01b038516917f7b0884b4b6bb4e0c1385ad42168fa556c14d4d799c1bf22f081aff3efff6ea0c9190a35050565b6001600160a01b03811660009081526008602090815260409182902060070180548351818402810184019094528084526060939283018282801561123d57602002820191906000526020600020905b815481526020019060010190808311611229575b50505050509050919050565b6001600160a01b0381166000908152600a602052604090205460609081816001600160401b038111801561127c57600080fd5b506040519080825280602002602001820160405280156112b657816020015b6112a3615091565b81526020019060019003908161129b5790505b50905060015b826001018110156113ad576112cf615091565b6001600160a01b0386166000908152600b60209081526040808320858452825280832081518083018352815481526001820180548451818702810187019095528085529195929486810194939192919084015b82821015611377576000848152602090819020604080516060810182526003860290920180546001600160a01b0316835260018082015484860152600290910154918301919091529083529092019101611322565b5050509152509091508190508361138f8460016142dc565b8151811061139957fe5b6020908102919091010152506001016112bc565b509392505050565b6000546001600160a01b031633146113df5760405162461bcd60e51b815260040161101990615bcb565b60405163a9059cbb60e01b81526001600160a01b0384169063a9059cbb9061140d908590859060040161596b565b602060405180830381600087803b15801561142757600080fd5b505af115801561143b573d6000803e3d6000fd5b505050506040513d601f19601f8201168201806040525081019061145f919061586a565b50505050565b60165481565b60016020526000908152604090205460ff1681565b6001600160a01b03811660009081526008602090815260409182902060060180548351818402810184019094528084526060939283018282801561123d57602002820191906000526020600020908154815260200190600101908083116112295750505050509050919050565b6001600160a01b03811660009081526008602090815260409182902060020180548351818402810184019094528084526060939283018282801561123d57602002820191906000526020600020905b81546001600160a01b0316815260019091019060200180831161153c5750505050509050919050565b601460209081526000928352604080842090915290825290205481565b6000546001600160a01b031690565b606060038054806020026020016040519081016040528092919081815260200182805480156115df57602002820191906000526020600020905b8154815260200190600101908083116115cb575b5050505050905090565b600f6020526000908152604090205481565b601160209081526000928352604080842090915290825290205481565b6000546001600160a01b031633146116425760405162461bcd60e51b815260040161101990615bcb565b80518251146116635760405162461bcd60e51b815260040161101990615da9565b60055460ff16156116865760405162461bcd60e51b815260040161101990615c84565b60005b82518110156117005781818151811061169e57fe5b602002602001015160046000828254019250508190555060018060008584815181106116c657fe5b6020908102919091018101516001600160a01b03168252810191909152604001600020805460ff1916911515919091179055600101611689565b5081516117149060029060208501906150ab565b508051611728906003906020840190615110565b50506005805460ff1916600117905550565b6001600160a01b03811660009081526008602090815260409182902060030180548351818402810184019094528084526060939283018282801561123d576020028201919060005260206000209081546001600160a01b0316815260019091019060200180831161153c5750505050509050919050565b6006546001600160a01b031681565b60055461010090046001600160a01b031633146117ef5760405162461bcd60e51b815260040161101990615bf7565b6001600160a01b03808316600090815260096020526040908190206005549151636e0cf42160e11b815290926101009092049091169063dc19e84290611839908690600401615957565b60206040518083038186803b15801561185157600080fd5b505afa158015611865573d6000803e3d6000fd5b505050506040513d601f19601f82011682018060405250810190611889919061586a565b6118a55760405162461bcd60e51b815260040161101990615dc9565b805462010000900460ff16156118cd5760405162461bcd60e51b815260040161101990615e3c565b805462ff0000191662010000178155815180518051600184015560209081015160028401558082015180516003850155810151600484015560408083015180516005860155820151600685015560609283015180516007860155820151600885015581850151805180516009870155830151600a860155808301518051600b870155830151600c860155808201518051600d870155830151600e8601558301518051600f8601558201516010850155808501518051805160118701558301516012860155808301518051601387015583015160148601558082015180516015870155830151601686015583015180516017860155820151601885015593820151805180516019860155820151601a850155808201518051601b860155820151601c850155938401518051601d850155810151601e8401559201518051601f83015582015191015550565b60405163391a080560e11b815260009081903090637234100a90611a3f908790600401615957565b60206040518083038186803b158015611a5757600080fd5b505afa158015611a6b573d6000803e3d6000fd5b505050506040513d601f19601f82011682018060405250810190611a8f91906158bd565b90506060846001600160a01b031663a0e67e2b6040518163ffffffff1660e01b815260040160006040518083038186803b158015611acc57600080fd5b505afa158015611ae0573d6000803e3d6000fd5b505050506040513d6000823e601f3d908101601f19168201604052611b08919081019061568d565b90506060856001600160a01b031663309a042c6040518163ffffffff1660e01b815260040160006040518083038186803b158015611b4557600080fd5b505afa158015611b59573d6000803e3d6000fd5b505050506040513d6000823e601f3d908101601f19168201604052611b8191908101906157e7565b90506000866001600160a01b031663d29986c16040518163ffffffff1660e01b815260040160206040518083038186803b158015611bbe57600080fd5b505afa158015611bd2573d6000803e3d6000fd5b505050506040513d601f19601f82011682018060405250810190611bf691906158bd565b905060005b8351811015611c7557838181518110611c1057fe5b60200260200101516001600160a01b0316876001600160a01b03161415611c6d57611c6182611c5b858481518110611c4457fe5b60200260200101518861431e90919063ffffffff16565b90614358565b95505050505050610b61565b600101611bfb565b505050505092915050565b600b60209081526000928352604080842090915290825290205481565b611ca5615157565b611cad615184565b6001600160a01b0383166000908152600c6020526040812080548290611ccf57fe5b6000918252602090912001546001600160a01b0316808352604051631bf52ea760e21b81529091503090636fd4ba9c90611d0d908790600401615957565b60206040518083038186803b158015611d2557600080fd5b505afa158015611d39573d6000803e3d6000fd5b505050506040513d601f19601f82011682018060405250810190611d5d91906158bd565b826040018181525050806001600160a01b031663313ce5676040518163ffffffff1660e01b815260040160206040518083038186803b158015611d9f57600080fd5b505afa158015611db3573d6000803e3d6000fd5b505050506040513d601f19601f82011682018060405250810190611dd791906158d5565b60ff166020830152611de7615157565b5050604080516020810190915290815292915050565b6001600160a01b0381166000908152600c602090815260409182902080548351818402810184019094528084526060939283018282801561123d576020028201919060005260206000209081546001600160a01b0316815260019091019060200180831161153c5750505050509050919050565b600d6020526000908152604090205481565b6001600160a01b0380841660009081526012602090815260408083209386168352929052908120548190611eb8576000611ef6565b6001600160a01b03808616600090815260126020908152604080832093881683529290529081208054909190611eea57fe5b90600052602060002001545b9050611f006151ae565b506001600160a01b03851660009081526009602081815260408084208151610140810183526001820154610100820190815260028301546101208301526080808301918252845180860186526003850154815260048501548188015260a080850191909152855180870187526005860154815260068601548189015260c08086019190915286518088018852600787015481526008870154818a015260e08601529284528551808401875297850154888301908152600a86015489830152885285518087018752600b8601548152600c860154818901528888015285518087018752600d8601548152600e860154818901528887015285518087018752600f860154815260108601548189015260608981019190915284880198909852855180840187526011860154818401908152601287015482840152815286518088018852601387015481526014870154818a01528189015286518088018852601587015481526016870154818a01528188015286518088018852601787015481526018870154818a0152818a015284870152855192830186526019850154918301918252601a85015490830152815283518085018552601b8401548152601c840154818701528186015283518085018552601d8401548152601e84015481870152818501528351808501909452601f8301548452918401549383019390935280840191909152918101919091529061211361504c565b6001600160a01b03881660009081526008602090815260409182902082518154610120938102820184019094526101008101848152909391928492849184018282801561218957602002820191906000526020600020905b81546001600160a01b0316815260019091019060200180831161216b575b50505050508152602001600182018054806020026020016040519081016040528092919081815260200182805480156121eb57602002820191906000526020600020905b81546001600160a01b031681526001909101906020018083116121cd575b505050505081526020016002820180548060200260200160405190810160405280929190818152602001828054801561224d57602002820191906000526020600020905b81546001600160a01b0316815260019091019060200180831161222f575b50505050508152602001600382018054806020026020016040519081016040528092919081815260200182805480156122af57602002820191906000526020600020905b81546001600160a01b03168152600190910190602001808311612291575b505050505081526020016004820180548060200260200160405190810160405280929190818152602001828054801561230757602002820191906000526020600020905b8154815260200190600101908083116122f3575b505050505081526020016005820180548060200260200160405190810160405280929190818152602001828054801561235f57602002820191906000526020600020905b81548152602001906001019080831161234b575b50505050508152602001600682018054806020026020016040519081016040528092919081815260200182805480156123b757602002820191906000526020600020905b8154815260200190600101908083116123a3575b505050505081526020016007820180548060200260200160405190810160405280929190818152602001828054801561240f57602002820191906000526020600020905b8154815260200190600101908083116123fb575b5050505050815250509050836000141561243057600094505050505061255e565b8515801561244357506000816080015151115b1561248957612486601654611c5b61245f878760000151614397565b846080015160008151811061247057fe5b602002602001015161431e90919063ffffffff16565b91505b85600114801561249e575060008160a0015151115b156124ce576124cb601654611c5b6124ba878760200151614397565b8460a0015160008151811061247057fe5b91505b8560021480156124e3575060008160c0015151115b1561251357612510601654611c5b6124ff878760400151614397565b8460c0015160008151811061247057fe5b91505b856003148015612528575060008160e0015151115b1561255857612555601654611c5b612544878760600151614397565b8460e0015160008151811061247057fe5b91505b50925050505b9392505050565b6001600160a01b039182166000908152601560209081526040808320938516835292905220541690565b6000546001600160a01b031633146125b95760405162461bcd60e51b815260040161101990615bcb565b6001600160a01b03909116600090815260096020526040902080549115156101000261ff0019909216919091179055565b60065460405163edb12adf60e01b81526001600160a01b039091169063edb12adf9061261a908490600401615957565b600060405180830381600087803b15801561263457600080fd5b505af1925050508015612645575060015b506040516346d480dd60e11b81523090638da901ba90612669908490600401615957565b60206040518083038186803b15801561268157600080fd5b505afa158015612695573d6000803e3d6000fd5b505050506040513d601f19601f820116820180604052508101906126b9919061586a565b15612aa757600554604051636e0cf42160e11b81526101009091046001600160a01b03169063dc19e842906126f2908490600401615957565b60206040518083038186803b15801561270a57600080fd5b505afa15801561271e573d6000803e3d6000fd5b505050506040513d601f19601f82011682018060405250810190612742919061586a565b61275e5760405162461bcd60e51b815260040161101990615dc9565b806001600160a01b0316635468d6d76040518163ffffffff1660e01b815260040160206040518083038186803b15801561279757600080fd5b505afa1580156127ab573d6000803e3d6000fd5b505050506040513d601f19601f820116820180604052508101906127cf919061586a565b6127eb5760405162461bcd60e51b815260040161101990615e96565b604051630aa3935960e11b8152600090309063154726b2906128139085903390600401615984565b60206040518083038186803b15801561282b57600080fd5b505afa15801561283f573d6000803e3d6000fd5b505050506040513d601f19601f8201168201806040525081019061286391906158bd565b9050600081116128855760405162461bcd60e51b815260040161101990615c24565b6001600160a01b03821660009081526011602090815260408083203380855292529091208054830190556128b890614472565b156129f3576001600160a01b0382166000908152600c6020526040812080549091906128e057fe5b9060005260206000200160009054906101000a90046001600160a01b03166001600160a01b031663a9059cbb336001600160a01b0316638da5cb5b6040518163ffffffff1660e01b815260040160206040518083038186803b15801561294557600080fd5b505afa158015612959573d6000803e3d6000fd5b505050506040513d601f19601f8201168201806040525081019061297d919061543a565b836040518363ffffffff1660e01b815260040161299b92919061596b565b602060405180830381600087803b1580156129b557600080fd5b505af11580156129c9573d6000803e3d6000fd5b505050506040513d601f19601f820116820180604052508101906129ed919061586a565b50612aa5565b6001600160a01b0382166000908152600c602052604081208054909190612a1657fe5b60009182526020909120015460405163a9059cbb60e01b81526001600160a01b039091169063a9059cbb90612a51903390859060040161596b565b602060405180830381600087803b158015612a6b57600080fd5b505af1158015612a7f573d6000803e3d6000fd5b505050506040513d601f19601f82011682018060405250810190612aa3919061586a565b505b505b50565b6001600160a01b0381166000908152600f602052604080822054905163391a080560e11b8152610b6191903090637234100a90612aeb908790600401615957565b60206040518083038186803b158015612b0357600080fd5b505afa158015612b17573d6000803e3d6000fd5b505050506040513d601f19601f82011682018060405250810190612b3b91906158bd565b906142dc565b604051631e6ddb2560e31b8152600090610b6190309063f36ed92890612b6b908690600401615957565b60206040518083038186803b158015612b8357600080fd5b505afa158015612b97573d6000803e3d6000fd5b505050506040513d601f19601f82011682018060405250810190612bbb91906158bd565b6040516303a6422760e21b81523090630e99089c90612aeb908790600401615957565b6000546001600160a01b03163314612c085760405162461bcd60e51b815260040161101990615bcb565b60405133904780156108fc02916000818181858888f19350505050158015612aa7573d6000803e3d6000fd5b60156020908152600092835260408084209091529082529020546001600160a01b031681565b60006001826001600160a01b03166373a9855c6040518163ffffffff1660e01b815260040160206040518083038186803b158015612c9757600080fd5b505afa158015612cab573d6000803e3d6000fd5b505050506040513d601f19601f82011682018060405250810190612ccf9190615886565b6001811115612cda57fe5b1492915050565b600e60209081526000928352604080842090915290825290205481565b6006546001600160a01b03163314612d285760405162461bcd60e51b815260040161101990615bcb565b828114612d475760405162461bcd60e51b815260040161101990615caa565b6001600160a01b0386811660009081526007602052604090205416612e0757856001600160a01b0316633018205f6040518163ffffffff1660e01b815260040160206040518083038186803b158015612d9f57600080fd5b505afa158015612db3573d6000803e3d6000fd5b505050506040513d601f19601f82011682018060405250810190612dd7919061543a565b6001600160a01b03878116600090815260076020526040902080546001600160a01b031916929091169190911790555b606080612e1488886144ab565b91509150606080612e2a888888888e8989614843565b91509150612e3a8a8a8484614aa9565b5050506001600160a01b039096166000908152600960205260409020805460ff19166001179055505050505050565b6000546001600160a01b03163314612e935760405162461bcd60e51b815260040161101990615bcb565b6001600160a01b038116612eb95760405162461bcd60e51b815260040161101990615d5c565b600080546040516001600160a01b03808516939216917f8be0079c531659141344cd1fd0a4f28419497f9722a3daafe3b4186f6b6457e091a3600080546001600160a01b0319166001600160a01b0392909216919091179055565b6000546001600160a01b03163314612f3e5760405162461bcd60e51b815260040161101990615bcb565b6001600160a01b03821660009081526001602052604090205460ff1615612f775760405162461bcd60e51b815260040161101990615d01565b6001600160a01b0382166000818152600160208190526040808320805460ff191683179055600280548084019091557f405787fa12a823e0f2b7631cc41b3ba8828b3321ca811111fa75cd3aa3bb5ace0180546001600160a01b0319168517905560038054928301815583527fc2575a0e9e593c00f959f8c92f12db2869c3395a3b0502d05e2516446f71f85b9091018490556004805485019055518392917fbd5dcf0b25226117c4a68a0129ffdd4b0541ef5e482ad7de9a96ccb6d6a8ebde91a35050565b606060028054806020026020016040519081016040528092919081815260200182805480156115df57602002820191906000526020600020905b81546001600160a01b03168152600190910190602001808311613077575050505050905090565b6001600160a01b03811660009081526008602090815260409182902060050180548351818402810184019094528084526060939283018282801561123d57602002820191906000526020600020908154815260200190600101908083116112295750505050509050919050565b6001600160a01b03811660009081526008602090815260409182902060040180548351818402810184019094528084526060939283018282801561123d57602002820191906000526020600020908154815260200190600101908083116112295750505050509050919050565b6013602052826000526040600020602052816000526040600020818154811061319d57fe5b60009182526020909120600290910201546001600160a01b0316925083915050565b6001600160a01b031660009081526009602052604090205460ff1690565b6000546001600160a01b031633146132075760405162461bcd60e51b815260040161101990615bcb565b600580546001600160a01b0390921661010002610100600160a81b0319909216919091179055565b6007602052600090815260409020546001600160a01b031681565b6003818154811061325757fe5b600091825260209091200154905081565b6001600160a01b0381166000908152601060205260409020606090610b6190614b99565b6001600160a01b0380831660009081526013602090815260408083209385168352928152828220805484518184028101840190955280855260609493919290919084015b828210156133655760008481526020908190206040805180820182526002860290920180546001600160a01b0316835260018101805483518187028101870190945280845293949193858301939283018282801561334d57602002820191906000526020600020905b815481526020019060010190808311613339575b505050505081525050815260200190600101906132d0565b50505050905092915050565b60045481565b6000546001600160a01b031633146133a15760405162461bcd60e51b815260040161101990615bcb565b6001600160a01b0381166133c75760405162461bcd60e51b815260040161101990615e63565b600680546001600160a01b0319166001600160a01b0383169081179091556040513391907ff5e71cc69e4610808e8e7c9099d63353897264c5dfc4da1a0320395866de497190600090a350565b33838281146134355760405162461bcd60e51b815260040161101990615caa565b600554604051636e0cf42160e11b81526101009091046001600160a01b03169063dc19e84290613469908590600401615957565b60206040518083038186803b15801561348157600080fd5b505afa158015613495573d6000803e3d6000fd5b505050506040513d601f19601f820116820180604052508101906134b9919061586a565b6134d55760405162461bcd60e51b815260040161101990615dc9565b6001600160a01b0382166000908152600c6020526040902054613517576001600160a01b0382166000908152600c602052604090206135159087876151ed565b505b6001600160a01b0382811660009081526015602090815260408083208b8516845290915290205416806135be576001600160a01b0383811660008181526015602090815260408083208d86168452825280832080546001600160a01b031916958f1695909517909455918152601090915220613593908a614ba5565b6135bb576001600160a01b03831660009081526010602052604090206135b9908a614bba565b505b50875b6001600160a01b0381166135e45760405162461bcd60e51b815260040161101990615d2b565b61361c858560008181106135f457fe5b6001600160a01b0387166000908152600d602090815260409091205493910201359050614bcf565b6001600160a01b0384166000908152600d60205260409020556060826001600160401b038111801561364d57600080fd5b50604051908082528060200260200182016040528015613677578160200160208202803683370190505b50905060005b83811015613762576001600160a01b038086166000908152601260209081526040808320938716835292905220546136df578686828181106136bb57fe5b905060200201358282815181106136ce57fe5b60200260200101818152505061375a565b6001600160a01b038086166000908152601260209081526040808320938716835292905220805461374191908390811061371557fe5b906000526020600020015488888481811061372c57fe5b90506020020135614bcf90919063ffffffff16565b82828151811061374d57fe5b6020026020010181815250505b60010161367d565b506001600160a01b0380851660009081526012602090815260408083209386168352928152919020825161379892840190615110565b506001600160a01b0380851660008181526013602090815260408083208786168452825280832093835260148252808320948e1683529390529190912054806138cc576137e3615240565b6001600160a01b038c168152604080516020808b0282810182019093528a825290918b918b91829185019084908082843760009201829052506020868101958652885460018082018b558a845292829020885160029092020180546001600160a01b0319166001600160a01b039092169190911781559551805188979650613872955092860193500190615110565b505050828054905060146000896001600160a01b03166001600160a01b0316815260200190815260200160002060008e6001600160a01b03166001600160a01b031681526020019081526020016000208190555050613986565b6001600160a01b03808716600090815260136020908152604080832093881683529290529081208054600019840190811061390357fe5b9060005260206000209060020201905060005b6001820154811015613983576139608a8a8381811061393157fe5b9050602002013583600101838154811061394757fe5b9060005260206000200154614bcf90919063ffffffff16565b82600101828154811061396f57fe5b600091825260209091200155600101613916565b50505b505050505050505050505050565b6001600160a01b03811660009081526008602090815260409182902060010180548351818402810184019094528084526060939283018282801561123d576020028201919060005260206000209081546001600160a01b0316815260019091019060200180831161153c5750505050509050919050565b600c6020528160005260406000208181548110613a2457fe5b6000918252602090912001546001600160a01b03169150829050565b6001600160a01b0380831660009081526012602090815260408083209385168352929052908120548190613a75579050610b61565b60405163160d2eb160e21b8152613af8903090635834bac490613aa1908890889060009060040161599e565b60206040518083038186803b158015613ab957600080fd5b505afa158015613acd573d6000803e3d6000fd5b505050506040513d601f19601f82011682018060405250810190613af191906158bd565b8290614bcf565b60405163160d2eb160e21b8152909150613b27903090635834bac490613aa1908890889060019060040161599e565b60405163160d2eb160e21b8152909150613b56903090635834bac490613aa1908890889060029060040161599e565b60405163160d2eb160e21b8152909150613b85903090635834bac490613aa1908890889060039060040161599e565b6001600160a01b038086166000908152600d60209081526040808320546012835281842094891684529390915281208054939450613be293611c5b9290613bc857fe5b90600052602060002001548461431e90919063ffffffff16565b949350505050565b6001600160a01b03811660009081526008602090815260409182902080548351818402810184019094528084526060939283018282801561123d576020028201919060005260206000209081546001600160a01b0316815260019091019060200180831161153c5750505050509050919050565b6001600160a01b038083166000908152600e6020908152604080832093851683529290528181205491516346bead8960e01b8152909161255e9130906346bead8990612aeb9088908890600401615984565b60065460405163edb12adf60e01b81526001600160a01b039091169063edb12adf90613ce0908490600401615957565b600060405180830381600087803b158015613cfa57600080fd5b505af1925050508015613d0b575060015b506040516346d480dd60e11b81523090638da901ba90613d2f908490600401615957565b60206040518083038186803b158015613d4757600080fd5b505afa158015613d5b573d6000803e3d6000fd5b505050506040513d601f19601f82011682018060405250810190613d7f919061586a565b15612aa757600554604051636e0cf42160e11b81526101009091046001600160a01b03169063dc19e84290613db8908490600401615957565b60206040518083038186803b158015613dd057600080fd5b505afa158015613de4573d6000803e3d6000fd5b505050506040513d601f19601f82011682018060405250810190613e08919061586a565b613e245760405162461bcd60e51b815260040161101990615dc9565b806001600160a01b0316635468d6d76040518163ffffffff1660e01b815260040160206040518083038186803b158015613e5d57600080fd5b505afa158015613e71573d6000803e3d6000fd5b505050506040513d601f19601f82011682018060405250810190613e95919061586a565b613eb15760405162461bcd60e51b815260040161101990615e96565b6040516327304dfd60e01b81526001600160a01b038216906327304dfd90613edd903390600401615957565b60206040518083038186803b158015613ef557600080fd5b505afa158015613f09573d6000803e3d6000fd5b505050506040513d601f19601f82011682018060405250810190613f2d919061586a565b80613fb95750336001600160a01b0316816001600160a01b0316633018205f6040518163ffffffff1660e01b815260040160206040518083038186803b158015613f7657600080fd5b505afa158015613f8a573d6000803e3d6000fd5b505050506040513d601f19601f82011682018060405250810190613fae919061543a565b6001600160a01b0316145b613fd55760405162461bcd60e51b815260040161101990615d86565b604051631bf52ea760e21b81526000903090636fd4ba9c90613ffb908590600401615957565b60206040518083038186803b15801561401357600080fd5b505afa158015614027573d6000803e3d6000fd5b505050506040513d601f19601f8201168201806040525081019061404b91906158bd565b90506000811161406d5760405162461bcd60e51b815260040161101990615c24565b6001600160a01b0382166000908152600960209081526040808320805460ff19169055600f8252808320805485019055600a9091528120546140b0906001614bcf565b6001600160a01b0384166000908152600c602052604081208054929350909182906140d757fe5b6000918252602090912001546001600160a01b031690506140f6615184565b816001600160a01b031663313ce5676040518163ffffffff1660e01b815260040160206040518083038186803b15801561412f57600080fd5b505afa158015614143573d6000803e3d6000fd5b505050506040513d601f19601f8201168201806040525081019061416791906158d5565b60ff1660208201526001600160a01b03821681526040810184905261418e85338487614bf4565b6001600160a01b039485166000908152600a60209081526040808320869055600b825280832095835294815284822042815560019081018054808301825590845292829020845160039094020180546001600160a01b0319169390981692909217875582015190860155909101516002909301929092555050565b600a6020526000908152604090205481565b6001600160a01b03811660009081526010602052604081208161423d82614eee565b905060005b818110156142d4573063e65065d98661425b8685614ef9565b6040518363ffffffff1660e01b8152600401614278929190615984565b60206040518083038186803b15801561429057600080fd5b505afa1580156142a4573d6000803e3d6000fd5b505050506040513d601f19601f820116820180604052508101906142c891906158bd565b90930192600101614242565b505050919050565b600061255e83836040518060400160405280601e81526020017f536166654d6174683a207375627472616374696f6e206f766572666c6f770000815250614f05565b60008261432d57506000610b61565b8282028284828161433a57fe5b041461255e5760405162461bcd60e51b815260040161101990615dfb565b600061255e83836040518060400160405280601a815260200179536166654d6174683a206469766973696f6e206279207a65726f60301b815250614f31565b6000805b600481101561446b57806143d15782515184108015906143bf575060208301515184105b156143d1575050805160200151610b61565b80600114156144075760208301515184108015906143f3575060408301515184105b156144075750506020808201510151610b61565b806002141561443e576040830151518410801590614429575060608301515184105b1561443e575050604081015160200151610b61565b8060031415614463576060830151518410614463575050606081015160200151610b61565b60010161439b565b5092915050565b6000813f7fc5d2460186f7233c927e7db2dcc703c0e500b653ca82273b7bfad8045d85a470818114801590613be2575050151592915050565b606080600483106144ce5760405162461bcd60e51b815260040161101990615cde565b6144d661504c565b6001600160a01b03851660009081526008602090815260409182902082518154610120938102820184019094526101008101848152909391928492849184018282801561454c57602002820191906000526020600020905b81546001600160a01b0316815260019091019060200180831161452e575b50505050508152602001600182018054806020026020016040519081016040528092919081815260200182805480156145ae57602002820191906000526020600020905b81546001600160a01b03168152600190910190602001808311614590575b505050505081526020016002820180548060200260200160405190810160405280929190818152602001828054801561461057602002820191906000526020600020905b81546001600160a01b031681526001909101906020018083116145f2575b505050505081526020016003820180548060200260200160405190810160405280929190818152602001828054801561467257602002820191906000526020600020905b81546001600160a01b03168152600190910190602001808311614654575b50505050508152602001600482018054806020026020016040519081016040528092919081815260200182805480156146ca57602002820191906000526020600020905b8154815260200190600101908083116146b6575b505050505081526020016005820180548060200260200160405190810160405280929190818152602001828054801561472257602002820191906000526020600020905b81548152602001906001019080831161470e575b505050505081526020016006820180548060200260200160405190810160405280929190818152602001828054801561477a57602002820191906000526020600020905b815481526020019060010190808311614766575b50505050508152602001600782018054806020026020016040519081016040528092919081815260200182805480156147d257602002820191906000526020600020905b8154815260200190600101908083116147be575b505050505081525050905083600014156147f3578051608082015190935091505b836001141561480b57806020015192508060a0015191505b836002141561482357806040015192508060c0015191505b836003141561483b57806060015192508060e0015191505b509250929050565b60608087806001600160401b038111801561485d57600080fd5b50604051908082528060200260200182016040528015614887578160200160208202803683370190505b509250806001600160401b03811180156148a057600080fd5b506040519080825280602002602001820160405280156148ca578160200160208202803683370190505b509150835185511480156148dd57508451155b8061490157506001600160a01b03861660009081526009602052604090205460ff16155b156149965760005b81811015614990578a8a8281811061491d57fe5b9050602002016020810190614932919061541e565b84828151811061493e57fe5b60200260200101906001600160a01b031690816001600160a01b03168152505088888281811061496a57fe5b9050602002013583828151811061497d57fe5b6020908102919091010152600101614909565b50614a9c565b60005b81811015614a9a578a8a828181106149ad57fe5b90506020020160208101906149c2919061541e565b6001600160a01b03168682815181106149d757fe5b60200260200101516001600160a01b03161415614a925760008989838181106149fc57fe5b9050602002013590508b8b83818110614a1157fe5b9050602002016020810190614a26919061541e565b858381518110614a3257fe5b60200260200101906001600160a01b031690816001600160a01b031681525050614a7881878481518110614a6257fe5b6020026020010151614bcf90919063ffffffff16565b848381518110614a8457fe5b602002602001018181525050505b600101614999565b505b5097509795505050505050565b6001600160a01b038416600090815260086020526040902083614af0578251614ad890829060208601906150ab565b508151614aee9060048301906020850190615110565b505b8360011415614b26578251614b0e90600183019060208601906150ab565b508151614b249060058301906020850190615110565b505b8360021415614b5c578251614b4490600283019060208601906150ab565b508151614b5a9060068301906020850190615110565b505b8360031415614b92578251614b7a90600383019060208601906150ab565b508151614b909060078301906020850190615110565b505b5050505050565b60608061255e83614f68565b600061255e836001600160a01b038416614fc2565b600061255e836001600160a01b038416614fda565b60008282018381101561255e5760405162461bcd60e51b815260040161101990615c4f565b6060846001600160a01b031663a0e67e2b6040518163ffffffff1660e01b815260040160006040518083038186803b158015614c2f57600080fd5b505afa158015614c43573d6000803e3d6000fd5b505050506040513d6000823e601f3d908101601f19168201604052614c6b919081019061568d565b90506060856001600160a01b031663309a042c6040518163ffffffff1660e01b815260040160006040518083038186803b158015614ca857600080fd5b505afa158015614cbc573d6000803e3d6000fd5b505050506040513d6000823e601f3d908101601f19168201604052614ce491908101906157e7565b90506000866001600160a01b031663d29986c16040518163ffffffff1660e01b815260040160206040518083038186803b158015614d2157600080fd5b505afa158015614d35573d6000803e3d6000fd5b505050506040513d601f19601f82011682018060405250810190614d5991906158bd565b905060005b8351811015614ee4576000614d8e858381518110614d7857fe5b60200260200101516001600160a01b0316614472565b614dab57848281518110614d9e57fe5b6020026020010151614e2f565b848281518110614db757fe5b60200260200101516001600160a01b0316638da5cb5b6040518163ffffffff1660e01b815260040160206040518083038186803b158015614df757600080fd5b505afa158015614e0b573d6000803e3d6000fd5b505050506040513d601f19601f82011682018060405250810190614e2f919061543a565b9050866001600160a01b031663a9059cbb82614e6b86611c5b898881518110614e5457fe5b60200260200101518c61431e90919063ffffffff16565b6040518363ffffffff1660e01b8152600401614e8892919061596b565b602060405180830381600087803b158015614ea257600080fd5b505af1158015614eb6573d6000803e3d6000fd5b505050506040513d601f19601f82011682018060405250810190614eda919061586a565b5050600101614d5e565b5050505050505050565b6000610b6182615024565b600061255e8383615028565b60008184841115614f295760405162461bcd60e51b81526004016110199190615b78565b505050900390565b60008183614f525760405162461bcd60e51b81526004016110199190615b78565b506000838581614f5e57fe5b0495945050505050565b60608160000180548060200260200160405190810160405280929190818152602001828054801561123d57602002820191906000526020600020908154815260200190600101908083116112295750505050509050919050565b60009081526001919091016020526040902054151590565b6000614fe68383614fc2565b61501c57508154600181810184556000848152602080822090930184905584548482528286019093526040902091909155610b61565b506000610b61565b5490565b600082600001828154811061503957fe5b9060005260206000200154905092915050565b60405180610100016040528060608152602001606081526020016060815260200160608152602001606081526020016060815260200160608152602001606081525090565b604051806040016040528060008152602001606081525090565b828054828255906000526020600020908101928215615100579160200282015b8281111561510057825182546001600160a01b0319166001600160a01b039091161782556020909201916001909101906150cb565b5061510c929150615258565b5090565b82805482825590600052602060002090810192821561514b579160200282015b8281111561514b578251825591602001919060010190615130565b5061510c929150615277565b60405180602001604052806001905b61516e615184565b8152602001906001900390816151665790505090565b604051806060016040528060006001600160a01b0316815260200160008152602001600081525090565b60405180608001604052806151c161528c565b81526020016151ce61528c565b81526020016151db61528c565b81526020016151e861528c565b905290565b828054828255906000526020600020908101928215615100579160200282015b828111156151005781546001600160a01b0319166001600160a01b0384351617825560209092019160019091019061520d565b60408051808201909152600081526060602082015290565b5b8082111561510c5780546001600160a01b0319168155600101615259565b5b8082111561510c5760008155600101615278565b604051806080016040528061529f6152c2565b81526020016152ac6152c2565b81526020016152b96152c2565b81526020016151e85b604051806040016040528060008152602001600081525090565b60008083601f8401126152ed578182fd5b5081356001600160401b03811115615303578182fd5b602083019150836020808302850101111561531d57600080fd5b9250929050565b600082601f830112615334578081fd5b813561534761534282615ef8565b615ed2565b81815291506020808301908481018184028601820187101561536857600080fd5b60005b84811015611c755781358452928201929082019060010161536b565b60006101008284031215615399578081fd5b6153a36080615ed2565b90506153af83836153ed565b81526153be83604084016153ed565b60208201526153d083608084016153ed565b60408201526153e28360c084016153ed565b606082015292915050565b6000604082840312156153fe578081fd5b6154086040615ed2565b9050813581526020820135602082015292915050565b60006020828403121561542f578081fd5b813561255e81615f17565b60006020828403121561544b578081fd5b815161255e81615f17565b60008060408385031215615468578081fd5b823561547381615f17565b9150602083013561548381615f17565b809150509250929050565b600080600080600080608087890312156154a6578182fd5b86356154b181615f17565b955060208701356154c181615f17565b945060408701356001600160401b03808211156154dc578384fd5b6154e88a838b016152dc565b90965094506060890135915080821115615500578384fd5b5061550d89828a016152dc565b979a9699509497509295939492505050565b600080600060608486031215615533578283fd5b833561553e81615f17565b9250602084013561554e81615f17565b929592945050506040919091013590565b60008060408385031215615571578182fd5b823561557c81615f17565b9150602083013561548381615f2c565b6000808284036104208112156155a0578283fd5b83356155ab81615f17565b9250610400601f19820112156155bf578182fd5b506155ca6080615ed2565b6155d78560208601615387565b81526155e7856101208601615387565b60208201526155fa856102208601615387565b604082015261560d856103208601615387565b6060820152809150509250929050565b6000806040838503121561562f578182fd5b823561563a81615f17565b946020939093013593505050565b60008060008060008060808789031215615660578384fd5b863561566b81615f17565b95506020870135945060408701356001600160401b03808211156154dc578586fd5b6000602080838503121561569f578182fd5b82516001600160401b038111156156b4578283fd5b8301601f810185136156c4578283fd5b80516156d261534282615ef8565b81815283810190838501858402850186018910156156ee578687fd5b8694505b8385101561571957805161570581615f17565b8352600194909401939185019185016156f2565b50979650505050505050565b60008060408385031215615737578182fd5b82356001600160401b038082111561574d578384fd5b818501915085601f830112615760578384fd5b813561576e61534282615ef8565b80828252602080830192508086018a82838702890101111561578e578889fd5b8896505b848710156157b95780356157a581615f17565b845260019690960195928101928101615792565b5090965087013593505050808211156157d0578283fd5b506157dd85828601615324565b9150509250929050565b600060208083850312156157f9578182fd5b82516001600160401b0381111561580e578283fd5b8301601f8101851361581e578283fd5b805161582c61534282615ef8565b8181528381019083850185840285018601891015615848578687fd5b8694505b8385101561571957805183526001949094019391850191850161584c565b60006020828403121561587b578081fd5b815161255e81615f2c565b600060208284031215615897578081fd5b81516002811061255e578182fd5b6000602082840312156158b6578081fd5b5035919050565b6000602082840312156158ce578081fd5b5051919050565b6000602082840312156158e6578081fd5b815160ff8116811461255e578182fd5b80516001600160a01b03168252602080820151908301526040908101519082015260600190565b6000815180845260208085019450808401835b8381101561594c57815187529582019590820190600101615930565b509495945050505050565b6001600160a01b0391909116815260200190565b6001600160a01b03929092168252602082015260400190565b6001600160a01b0392831681529116602082015260400190565b6001600160a01b039384168152919092166020820152604081019190915260600190565b6020808252825182820181905260009190848201906040850190845b81811015615a035783516001600160a01b0316835292840192918401916001016159de565b50909695505050505050565b60208082528251828201819052600091906040908185019080840286018301878501865b83811015615aa957888303603f190185528151805184528701518784018790528051878501908190615a658183615ec9565b938b01938c935091505b80831015615a9457615a828285516158f6565b91508a84019350600183019250615a6f565b50968901969450505090860190600101615a33565b509098975050505050505050565b60608101818360005b6001811015615ae557615ad48383516158f6565b925060209190910190600101615ac0565b50505092915050565b60208082528251828201819052600091906040908185019080840286018301878501865b83811015615aa957888303603f19018552815180516001600160a01b03168452870151878401879052615b478785018261591d565b9588019593505090860190600101615b12565b60006020825261255e602083018461591d565b901515815260200190565b6000602080835283518082850152825b81811015615ba457858101830151858201604001528201615b88565b81811115615bb55783604083870101525b50601f01601f1916929092016040019392505050565b60208082526012908201527122a9292fa727aa2fa1a7a72a2927a62622a960711b604082015260600190565b6020808252601390820152724552525f4e4f545f4352505f464143544f525960681b604082015260600190565b60208082526011908201527011549497d21054d7d393d7d49155d05491607a1b604082015260600190565b6020808252601b908201527a536166654d6174683a206164646974696f6e206f766572666c6f7760281b604082015260600190565b6020808252600c908201526b696e697469616c697a65642160a01b604082015260600190565b6020808252601a908201527908aa4a4bea89e968a9cbe988a9c8ea890be9c9ea8be9a82a886960331b604082015260600190565b6020808252600990820152684552525f545950455360b81b604082015260600190565b60208082526010908201526f20b2323932b9b99034b99027bbb732b960811b604082015260600190565b6020808252601790820152764552525f494e56414c49445f4b4f4c5f4144445245535360481b604082015260600190565b60208082526010908201526f4552525f5a45524f5f4144445245535360801b604082015260600190565b6020808252600990820152682737ba1027bbb732b960b91b604082015260600190565b60208082526006908201526506f776e6572560d41b604082015260600190565b6020808252601890820152774552525f494e56414c49445f504f4f4c5f4144445245535360401b604082015260600190565b60208082526021908201527f536166654d6174683a206d756c7469706c69636174696f6e206f766572666c6f6040820152607760f81b606082015260800190565b6020808252600d908201526c11549497d21054d7d4d1551151609a1b604082015260600190565b6020808252601990820152784552525f494e56414c49445f5641554c545f4144445245535360381b604082015260600190565b60208082526019908201527811549497d393d517d0d3d354131155115117d0d3d3131150d5603a1b604082015260600190565b90815260200190565b6040518181016001600160401b0381118282101715615ef057600080fd5b604052919050565b60006001600160401b03821115615f0d578081fd5b5060209081020190565b6001600160a01b0381168114612aa757600080fd5b8015158114612aa757600080fdfea2646970667358221220c2012f2a2759c06025bd96233008a7a73f746c3d8bddd54101cd7d467ce9786164736f6c634300060c0033",
  "libraries": {},
  "devdoc": {
    "author": "Desyn Labs",
    "kind": "dev",
    "methods": {
      "getController()": {
        "details": "external for gas optimization",
        "returns": {
          "_0": "address - of the owner (AKA controller)"
        }
      },
      "removeOwner(address)": {
        "details": "Allows to remove an owner. Transaction has to be sent by wallet.",
        "params": {
          "owner": "Address of owner."
        }
      },
      "setAddAdminList(address,uint256)": {
        "details": "external for gas optimization",
        "params": {
          "newOwner": "- address of new owner"
        }
      },
      "setController(address)": {
        "details": "external for gas optimization",
        "params": {
          "newOwner": "- address of new owner"
        }
      }
    },
    "title": "Vault managerFee",
    "version": 1
  },
  "userdoc": {
    "kind": "user",
    "methods": {
      "getController()": {
        "notice": "Returns the address of the current owner"
      },
      "setAddAdminList(address,uint256)": {
        "notice": "Transfers ownership of the contract to a new account (`newOwner`).         Can only be called by the current owner"
      },
      "setController(address)": {
        "notice": "Transfers ownership of the contract to a new account (`newOwner`).         Can only be called by the current owner"
      }
    },
    "version": 1
  },
  "storageLayout": {
    "storage": [
      {
        "astId": 18293,
        "contract": "contracts/deploy/UserVault.sol:UserVault",
        "label": "_owner",
        "offset": 0,
        "slot": "0",
        "type": "t_address"
      },
      {
        "astId": 18297,
        "contract": "contracts/deploy/UserVault.sol:UserVault",
        "label": "adminList",
        "offset": 0,
        "slot": "1",
        "type": "t_mapping(t_address,t_bool)"
      },
      {
        "astId": 18300,
        "contract": "contracts/deploy/UserVault.sol:UserVault",
        "label": "owners",
        "offset": 0,
        "slot": "2",
        "type": "t_array(t_address)dyn_storage"
      },
      {
        "astId": 18303,
        "contract": "contracts/deploy/UserVault.sol:UserVault",
        "label": "ownerPercentage",
        "offset": 0,
        "slot": "3",
        "type": "t_array(t_uint256)dyn_storage"
      },
      {
        "astId": 18305,
        "contract": "contracts/deploy/UserVault.sol:UserVault",
        "label": "allOwnerPercentage",
        "offset": 0,
        "slot": "4",
        "type": "t_uint256"
      },
      {
        "astId": 18307,
        "contract": "contracts/deploy/UserVault.sol:UserVault",
        "label": "initialized",
        "offset": 0,
        "slot": "5",
        "type": "t_bool"
      },
      {
        "astId": 10075,
        "contract": "contracts/deploy/UserVault.sol:UserVault",
        "label": "crpFactory",
        "offset": 1,
        "slot": "5",
        "type": "t_contract(ICRPFactory)10061"
      },
      {
        "astId": 10077,
        "contract": "contracts/deploy/UserVault.sol:UserVault",
        "label": "vaultAddress",
        "offset": 0,
        "slot": "6",
        "type": "t_address"
      },
      {
        "astId": 10140,
        "contract": "contracts/deploy/UserVault.sol:UserVault",
        "label": "pool_manager",
        "offset": 0,
        "slot": "7",
        "type": "t_mapping(t_address,t_address)"
      },
      {
        "astId": 10144,
        "contract": "contracts/deploy/UserVault.sol:UserVault",
        "label": "poolsTokens",
        "offset": 0,
        "slot": "8",
        "type": "t_mapping(t_address,t_struct(PoolTokens)10121_storage)"
      },
      {
        "astId": 10148,
        "contract": "contracts/deploy/UserVault.sol:UserVault",
        "label": "poolsStatus",
        "offset": 0,
        "slot": "9",
        "type": "t_mapping(t_address,t_struct(PoolStatus)10130_storage)"
      },
      {
        "astId": 10152,
        "contract": "contracts/deploy/UserVault.sol:UserVault",
        "label": "record_number",
        "offset": 0,
        "slot": "10",
        "type": "t_mapping(t_address,t_uint256)"
      },
      {
        "astId": 10158,
        "contract": "contracts/deploy/UserVault.sol:UserVault",
        "label": "record_List",
        "offset": 0,
        "slot": "11",
        "type": "t_mapping(t_address,t_mapping(t_uint256,t_struct(ClaimRecordInfo)10096_storage))"
      },
      {
        "astId": 10163,
        "contract": "contracts/deploy/UserVault.sol:UserVault",
        "label": "kol_token_list",
        "offset": 0,
        "slot": "12",
        "type": "t_mapping(t_address,t_array(t_address)dyn_storage)"
      },
      {
        "astId": 10167,
        "contract": "contracts/deploy/UserVault.sol:UserVault",
        "label": "init_totalAmount_list",
        "offset": 0,
        "slot": "13",
        "type": "t_mapping(t_address,t_uint256)"
      },
      {
        "astId": 10173,
        "contract": "contracts/deploy/UserVault.sol:UserVault",
        "label": "manager_claimed_list",
        "offset": 0,
        "slot": "14",
        "type": "t_mapping(t_address,t_mapping(t_address,t_uint256))"
      },
      {
        "astId": 10177,
        "contract": "contracts/deploy/UserVault.sol:UserVault",
        "label": "pool_manangerHasClaimed",
        "offset": 0,
        "slot": "15",
        "type": "t_mapping(t_address,t_uint256)"
      },
      {
        "astId": 10181,
        "contract": "contracts/deploy/UserVault.sol:UserVault",
        "label": "kols_list",
        "offset": 0,
        "slot": "16",
        "type": "t_mapping(t_address,t_struct(AddressSet)9839_storage)"
      },
      {
        "astId": 10187,
        "contract": "contracts/deploy/UserVault.sol:UserVault",
        "label": "kol_claimed_list",
        "offset": 0,
        "slot": "17",
        "type": "t_mapping(t_address,t_mapping(t_address,t_uint256))"
      },
      {
        "astId": 10194,
        "contract": "contracts/deploy/UserVault.sol:UserVault",
        "label": "kol_totalAmount_list",
        "offset": 0,
        "slot": "18",
        "type": "t_mapping(t_address,t_mapping(t_address,t_array(t_uint256)dyn_storage))"
      },
      {
        "astId": 10201,
        "contract": "contracts/deploy/UserVault.sol:UserVault",
        "label": "kol_user_info",
        "offset": 0,
        "slot": "19",
        "type": "t_mapping(t_address,t_mapping(t_address,t_array(t_struct(KolUserInfo)10136_storage)dyn_storage))"
      },
      {
        "astId": 10207,
        "contract": "contracts/deploy/UserVault.sol:UserVault",
        "label": "user_index_list",
        "offset": 0,
        "slot": "20",
        "type": "t_mapping(t_address,t_mapping(t_address,t_uint256))"
      },
      {
        "astId": 10213,
        "contract": "contracts/deploy/UserVault.sol:UserVault",
        "label": "user_kol_list",
        "offset": 0,
        "slot": "21",
        "type": "t_mapping(t_address,t_mapping(t_address,t_address))"
      },
      {
        "astId": 10216,
        "contract": "contracts/deploy/UserVault.sol:UserVault",
        "label": "RATIO_TOTAL",
        "offset": 0,
        "slot": "22",
        "type": "t_uint256"
      }
    ],
    "types": {
      "t_address": {
        "encoding": "inplace",
        "label": "address",
        "numberOfBytes": "20"
      },
      "t_array(t_address)dyn_storage": {
        "base": "t_address",
        "encoding": "dynamic_array",
        "label": "address[]",
        "numberOfBytes": "32"
      },
      "t_array(t_bytes32)dyn_storage": {
        "base": "t_bytes32",
        "encoding": "dynamic_array",
        "label": "bytes32[]",
        "numberOfBytes": "32"
      },
      "t_array(t_struct(ClaimTokenInfo)10090_storage)dyn_storage": {
        "base": "t_struct(ClaimTokenInfo)10090_storage",
        "encoding": "dynamic_array",
        "label": "struct UserVault.ClaimTokenInfo[]",
        "numberOfBytes": "32"
      },
      "t_array(t_struct(KolUserInfo)10136_storage)dyn_storage": {
        "base": "t_struct(KolUserInfo)10136_storage",
        "encoding": "dynamic_array",
        "label": "struct UserVault.KolUserInfo[]",
        "numberOfBytes": "32"
      },
      "t_array(t_uint256)dyn_storage": {
        "base": "t_uint256",
        "encoding": "dynamic_array",
        "label": "uint256[]",
        "numberOfBytes": "32"
      },
      "t_bool": {
        "encoding": "inplace",
        "label": "bool",
        "numberOfBytes": "1"
      },
      "t_bytes32": {
        "encoding": "inplace",
        "label": "bytes32",
        "numberOfBytes": "32"
      },
      "t_contract(ICRPFactory)10061": {
        "encoding": "inplace",
        "label": "contract ICRPFactory",
        "numberOfBytes": "20"
      },
      "t_mapping(t_address,t_address)": {
        "encoding": "mapping",
        "key": "t_address",
        "label": "mapping(address => address)",
        "numberOfBytes": "32",
        "value": "t_address"
      },
      "t_mapping(t_address,t_array(t_address)dyn_storage)": {
        "encoding": "mapping",
        "key": "t_address",
        "label": "mapping(address => address[])",
        "numberOfBytes": "32",
        "value": "t_array(t_address)dyn_storage"
      },
      "t_mapping(t_address,t_array(t_struct(KolUserInfo)10136_storage)dyn_storage)": {
        "encoding": "mapping",
        "key": "t_address",
        "label": "mapping(address => struct UserVault.KolUserInfo[])",
        "numberOfBytes": "32",
        "value": "t_array(t_struct(KolUserInfo)10136_storage)dyn_storage"
      },
      "t_mapping(t_address,t_array(t_uint256)dyn_storage)": {
        "encoding": "mapping",
        "key": "t_address",
        "label": "mapping(address => uint256[])",
        "numberOfBytes": "32",
        "value": "t_array(t_uint256)dyn_storage"
      },
      "t_mapping(t_address,t_bool)": {
        "encoding": "mapping",
        "key": "t_address",
        "label": "mapping(address => bool)",
        "numberOfBytes": "32",
        "value": "t_bool"
      },
      "t_mapping(t_address,t_mapping(t_address,t_address))": {
        "encoding": "mapping",
        "key": "t_address",
        "label": "mapping(address => mapping(address => address))",
        "numberOfBytes": "32",
        "value": "t_mapping(t_address,t_address)"
      },
      "t_mapping(t_address,t_mapping(t_address,t_array(t_struct(KolUserInfo)10136_storage)dyn_storage))": {
        "encoding": "mapping",
        "key": "t_address",
        "label": "mapping(address => mapping(address => struct UserVault.KolUserInfo[]))",
        "numberOfBytes": "32",
        "value": "t_mapping(t_address,t_array(t_struct(KolUserInfo)10136_storage)dyn_storage)"
      },
      "t_mapping(t_address,t_mapping(t_address,t_array(t_uint256)dyn_storage))": {
        "encoding": "mapping",
        "key": "t_address",
        "label": "mapping(address => mapping(address => uint256[]))",
        "numberOfBytes": "32",
        "value": "t_mapping(t_address,t_array(t_uint256)dyn_storage)"
      },
      "t_mapping(t_address,t_mapping(t_address,t_uint256))": {
        "encoding": "mapping",
        "key": "t_address",
        "label": "mapping(address => mapping(address => uint256))",
        "numberOfBytes": "32",
        "value": "t_mapping(t_address,t_uint256)"
      },
      "t_mapping(t_address,t_mapping(t_uint256,t_struct(ClaimRecordInfo)10096_storage))": {
        "encoding": "mapping",
        "key": "t_address",
        "label": "mapping(address => mapping(uint256 => struct UserVault.ClaimRecordInfo))",
        "numberOfBytes": "32",
        "value": "t_mapping(t_uint256,t_struct(ClaimRecordInfo)10096_storage)"
      },
      "t_mapping(t_address,t_struct(AddressSet)9839_storage)": {
        "encoding": "mapping",
        "key": "t_address",
        "label": "mapping(address => struct EnumerableSet.AddressSet)",
        "numberOfBytes": "32",
        "value": "t_struct(AddressSet)9839_storage"
      },
      "t_mapping(t_address,t_struct(PoolStatus)10130_storage)": {
        "encoding": "mapping",
        "key": "t_address",
        "label": "mapping(address => struct UserVault.PoolStatus)",
        "numberOfBytes": "32",
        "value": "t_struct(PoolStatus)10130_storage"
      },
      "t_mapping(t_address,t_struct(PoolTokens)10121_storage)": {
        "encoding": "mapping",
        "key": "t_address",
        "label": "mapping(address => struct UserVault.PoolTokens)",
        "numberOfBytes": "32",
        "value": "t_struct(PoolTokens)10121_storage"
      },
      "t_mapping(t_address,t_uint256)": {
        "encoding": "mapping",
        "key": "t_address",
        "label": "mapping(address => uint256)",
        "numberOfBytes": "32",
        "value": "t_uint256"
      },
      "t_mapping(t_bytes32,t_uint256)": {
        "encoding": "mapping",
        "key": "t_bytes32",
        "label": "mapping(bytes32 => uint256)",
        "numberOfBytes": "32",
        "value": "t_uint256"
      },
      "t_mapping(t_uint256,t_struct(ClaimRecordInfo)10096_storage)": {
        "encoding": "mapping",
        "key": "t_uint256",
        "label": "mapping(uint256 => struct UserVault.ClaimRecordInfo)",
        "numberOfBytes": "32",
        "value": "t_struct(ClaimRecordInfo)10096_storage"
      },
      "t_struct(AddressSet)9839_storage": {
        "encoding": "inplace",
        "label": "struct EnumerableSet.AddressSet",
        "members": [
          {
            "astId": 9838,
            "contract": "contracts/deploy/UserVault.sol:UserVault",
            "label": "_inner",
            "offset": 0,
            "slot": "0",
            "type": "t_struct(Set)9652_storage"
          }
        ],
        "numberOfBytes": "64"
      },
      "t_struct(ClaimRecordInfo)10096_storage": {
        "encoding": "inplace",
        "label": "struct UserVault.ClaimRecordInfo",
        "members": [
          {
            "astId": 10092,
            "contract": "contracts/deploy/UserVault.sol:UserVault",
            "label": "time",
            "offset": 0,
            "slot": "0",
            "type": "t_uint256"
          },
          {
            "astId": 10095,
            "contract": "contracts/deploy/UserVault.sol:UserVault",
            "label": "tokens",
            "offset": 0,
            "slot": "1",
            "type": "t_array(t_struct(ClaimTokenInfo)10090_storage)dyn_storage"
          }
        ],
        "numberOfBytes": "64"
      },
      "t_struct(ClaimTokenInfo)10090_storage": {
        "encoding": "inplace",
        "label": "struct UserVault.ClaimTokenInfo",
        "members": [
          {
            "astId": 10085,
            "contract": "contracts/deploy/UserVault.sol:UserVault",
            "label": "token",
            "offset": 0,
            "slot": "0",
            "type": "t_address"
          },
          {
            "astId": 10087,
            "contract": "contracts/deploy/UserVault.sol:UserVault",
            "label": "decimals",
            "offset": 0,
            "slot": "1",
            "type": "t_uint256"
          },
          {
            "astId": 10089,
            "contract": "contracts/deploy/UserVault.sol:UserVault",
            "label": "amount",
            "offset": 0,
            "slot": "2",
            "type": "t_uint256"
          }
        ],
        "numberOfBytes": "96"
      },
      "t_struct(KolPoolParams)16852_storage": {
        "encoding": "inplace",
        "label": "struct SmartPoolManager.KolPoolParams",
        "members": [
          {
            "astId": 16845,
            "contract": "contracts/deploy/UserVault.sol:UserVault",
            "label": "managerFee",
            "offset": 0,
            "slot": "0",
            "type": "t_struct(feeParams)16843_storage"
          },
          {
            "astId": 16847,
            "contract": "contracts/deploy/UserVault.sol:UserVault",
            "label": "issueFee",
            "offset": 0,
            "slot": "8",
            "type": "t_struct(feeParams)16843_storage"
          },
          {
            "astId": 16849,
            "contract": "contracts/deploy/UserVault.sol:UserVault",
            "label": "redeemFee",
            "offset": 0,
            "slot": "16",
            "type": "t_struct(feeParams)16843_storage"
          },
          {
            "astId": 16851,
            "contract": "contracts/deploy/UserVault.sol:UserVault",
            "label": "perfermanceFee",
            "offset": 0,
            "slot": "24",
            "type": "t_struct(feeParams)16843_storage"
          }
        ],
        "numberOfBytes": "1024"
      },
      "t_struct(KolUserInfo)10136_storage": {
        "encoding": "inplace",
        "label": "struct UserVault.KolUserInfo",
        "members": [
          {
            "astId": 10132,
            "contract": "contracts/deploy/UserVault.sol:UserVault",
            "label": "userAdr",
            "offset": 0,
            "slot": "0",
            "type": "t_address"
          },
          {
            "astId": 10135,
            "contract": "contracts/deploy/UserVault.sol:UserVault",
            "label": "userAmount",
            "offset": 0,
            "slot": "1",
            "type": "t_array(t_uint256)dyn_storage"
          }
        ],
        "numberOfBytes": "64"
      },
      "t_struct(PoolStatus)10130_storage": {
        "encoding": "inplace",
        "label": "struct UserVault.PoolStatus",
        "members": [
          {
            "astId": 10123,
            "contract": "contracts/deploy/UserVault.sol:UserVault",
            "label": "couldManagerClaim",
            "offset": 0,
            "slot": "0",
            "type": "t_bool"
          },
          {
            "astId": 10125,
            "contract": "contracts/deploy/UserVault.sol:UserVault",
            "label": "isBlackList",
            "offset": 1,
            "slot": "0",
            "type": "t_bool"
          },
          {
            "astId": 10127,
            "contract": "contracts/deploy/UserVault.sol:UserVault",
            "label": "isSetParams",
            "offset": 2,
            "slot": "0",
            "type": "t_bool"
          },
          {
            "astId": 10129,
            "contract": "contracts/deploy/UserVault.sol:UserVault",
            "label": "kolPoolConfig",
            "offset": 0,
            "slot": "1",
            "type": "t_struct(KolPoolParams)16852_storage"
          }
        ],
        "numberOfBytes": "1056"
      },
      "t_struct(PoolTokens)10121_storage": {
        "encoding": "inplace",
        "label": "struct UserVault.PoolTokens",
        "members": [
          {
            "astId": 10099,
            "contract": "contracts/deploy/UserVault.sol:UserVault",
            "label": "tokenList",
            "offset": 0,
            "slot": "0",
            "type": "t_array(t_address)dyn_storage"
          },
          {
            "astId": 10102,
            "contract": "contracts/deploy/UserVault.sol:UserVault",
            "label": "issueTokens",
            "offset": 0,
            "slot": "1",
            "type": "t_array(t_address)dyn_storage"
          },
          {
            "astId": 10105,
            "contract": "contracts/deploy/UserVault.sol:UserVault",
            "label": "redeemTokens",
            "offset": 0,
            "slot": "2",
            "type": "t_array(t_address)dyn_storage"
          },
          {
            "astId": 10108,
            "contract": "contracts/deploy/UserVault.sol:UserVault",
            "label": "perfermanceTokens",
            "offset": 0,
            "slot": "3",
            "type": "t_array(t_address)dyn_storage"
          },
          {
            "astId": 10111,
            "contract": "contracts/deploy/UserVault.sol:UserVault",
            "label": "managerAmount",
            "offset": 0,
            "slot": "4",
            "type": "t_array(t_uint256)dyn_storage"
          },
          {
            "astId": 10114,
            "contract": "contracts/deploy/UserVault.sol:UserVault",
            "label": "issueAmount",
            "offset": 0,
            "slot": "5",
            "type": "t_array(t_uint256)dyn_storage"
          },
          {
            "astId": 10117,
            "contract": "contracts/deploy/UserVault.sol:UserVault",
            "label": "redeemAmount",
            "offset": 0,
            "slot": "6",
            "type": "t_array(t_uint256)dyn_storage"
          },
          {
            "astId": 10120,
            "contract": "contracts/deploy/UserVault.sol:UserVault",
            "label": "perfermanceAmount",
            "offset": 0,
            "slot": "7",
            "type": "t_array(t_uint256)dyn_storage"
          }
        ],
        "numberOfBytes": "256"
      },
      "t_struct(Set)9652_storage": {
        "encoding": "inplace",
        "label": "struct EnumerableSet.Set",
        "members": [
          {
            "astId": 9647,
            "contract": "contracts/deploy/UserVault.sol:UserVault",
            "label": "_values",
            "offset": 0,
            "slot": "0",
            "type": "t_array(t_bytes32)dyn_storage"
          },
          {
            "astId": 9651,
            "contract": "contracts/deploy/UserVault.sol:UserVault",
            "label": "_indexes",
            "offset": 0,
            "slot": "1",
            "type": "t_mapping(t_bytes32,t_uint256)"
          }
        ],
        "numberOfBytes": "64"
      },
      "t_struct(feeParams)16843_storage": {
        "encoding": "inplace",
        "label": "struct SmartPoolManager.feeParams",
        "members": [
          {
            "astId": 16836,
            "contract": "contracts/deploy/UserVault.sol:UserVault",
            "label": "firstLevel",
            "offset": 0,
            "slot": "0",
            "type": "t_struct(levelParams)16834_storage"
          },
          {
            "astId": 16838,
            "contract": "contracts/deploy/UserVault.sol:UserVault",
            "label": "secondLevel",
            "offset": 0,
            "slot": "2",
            "type": "t_struct(levelParams)16834_storage"
          },
          {
            "astId": 16840,
            "contract": "contracts/deploy/UserVault.sol:UserVault",
            "label": "thirdLevel",
            "offset": 0,
            "slot": "4",
            "type": "t_struct(levelParams)16834_storage"
          },
          {
            "astId": 16842,
            "contract": "contracts/deploy/UserVault.sol:UserVault",
            "label": "fourLevel",
            "offset": 0,
            "slot": "6",
            "type": "t_struct(levelParams)16834_storage"
          }
        ],
        "numberOfBytes": "256"
      },
      "t_struct(levelParams)16834_storage": {
        "encoding": "inplace",
        "label": "struct SmartPoolManager.levelParams",
        "members": [
          {
            "astId": 16831,
            "contract": "contracts/deploy/UserVault.sol:UserVault",
            "label": "level",
            "offset": 0,
            "slot": "0",
            "type": "t_uint256"
          },
          {
            "astId": 16833,
            "contract": "contracts/deploy/UserVault.sol:UserVault",
            "label": "ratio",
            "offset": 0,
            "slot": "1",
            "type": "t_uint256"
          }
        ],
        "numberOfBytes": "64"
      },
      "t_uint256": {
        "encoding": "inplace",
        "label": "uint256",
        "numberOfBytes": "32"
      }
    }
  }
}