{
  "address": "0x483CFF823317b334243F1aa46694088C4F3cc1b1",
  "abi": [
    {
      "anonymous": false,
      "inputs": [
        {
          "indexed": true,
          "internalType": "address",
          "name": "newAdmin",
          "type": "address"
        },
        {
          "indexed": true,
          "internalType": "uint256",
          "name": "amount",
          "type": "uint256"
        }
      ],
      "name": "AddAdmin",
      "type": "event"
    },
    {
      "anonymous": false,
      "inputs": [
        {
          "indexed": true,
          "internalType": "address",
          "name": "manager",
          "type": "address"
        },
        {
          "indexed": true,
          "internalType": "address",
          "name": "caller",
          "type": "address"
        }
      ],
      "name": "LOGVaultAdr",
      "type": "event"
    },
    {
      "anonymous": false,
      "inputs": [
        {
          "indexed": true,
          "internalType": "address",
          "name": "previousOwner",
          "type": "address"
        },
        {
          "indexed": true,
          "internalType": "address",
          "name": "newOwner",
          "type": "address"
        }
      ],
      "name": "OwnershipTransferred",
      "type": "event"
    },
    {
      "anonymous": false,
      "inputs": [
        {
          "indexed": true,
          "internalType": "address",
          "name": "oldAdmin",
          "type": "address"
        },
        {
          "indexed": true,
          "internalType": "uint256",
          "name": "amount",
          "type": "uint256"
        }
      ],
      "name": "RemoveAdmin",
      "type": "event"
    },
    {
      "inputs": [],
      "name": "RATIO_TOTAL",
      "outputs": [
        {
          "internalType": "uint256",
          "name": "",
          "type": "uint256"
        }
      ],
      "stateMutability": "view",
      "type": "function"
    },
    {
      "inputs": [
        {
          "internalType": "address",
          "name": "pool",
          "type": "address"
        },
        {
          "internalType": "address",
          "name": "kol",
          "type": "address"
        },
        {
          "internalType": "uint256",
          "name": "types",
          "type": "uint256"
        }
      ],
      "name": "_computeReward",
      "outputs": [
        {
          "internalType": "uint256",
          "name": "",
          "type": "uint256"
        }
      ],
      "stateMutability": "view",
      "type": "function"
    },
    {
      "inputs": [
        {
          "internalType": "address",
          "name": "token",
          "type": "address"
        },
        {
          "internalType": "address",
          "name": "user",
          "type": "address"
        },
        {
          "internalType": "uint256",
          "name": "amount",
          "type": "uint256"
        }
      ],
      "name": "adminClaimToken",
      "outputs": [],
      "stateMutability": "nonpayable",
      "type": "function"
    },
    {
      "inputs": [
        {
          "internalType": "address",
          "name": "",
          "type": "address"
        }
      ],
      "name": "adminList",
      "outputs": [
        {
          "internalType": "bool",
          "name": "",
          "type": "bool"
        }
      ],
      "stateMutability": "view",
      "type": "function"
    },
    {
      "inputs": [],
      "name": "allOwnerPercentage",
      "outputs": [
        {
          "internalType": "uint256",
          "name": "",
          "type": "uint256"
        }
      ],
      "stateMutability": "view",
      "type": "function"
    },
    {
      "inputs": [
        {
          "internalType": "address",
          "name": "pool",
          "type": "address"
        }
      ],
      "name": "claimKolReward",
      "outputs": [],
      "stateMutability": "nonpayable",
      "type": "function"
    },
    {
      "inputs": [
        {
          "internalType": "address",
          "name": "pool",
          "type": "address"
        },
        {
          "internalType": "uint256",
          "name": "types",
          "type": "uint256"
        },
        {
          "internalType": "address[]",
          "name": "poolTokens",
          "type": "address[]"
        },
        {
          "internalType": "uint256[]",
          "name": "tokensAmount",
          "type": "uint256[]"
        }
      ],
      "name": "depositToken",
      "outputs": [],
      "stateMutability": "nonpayable",
      "type": "function"
    },
    {
      "inputs": [
        {
          "internalType": "address",
          "name": "pool",
          "type": "address"
        }
      ],
      "name": "getAllKolReward",
      "outputs": [
        {
          "internalType": "uint256",
          "name": "totalAmount",
          "type": "uint256"
        }
      ],
      "stateMutability": "view",
      "type": "function"
    },
    {
      "inputs": [
        {
          "internalType": "address",
          "name": "pool",
          "type": "address"
        }
      ],
      "name": "getAllManagersReward",
      "outputs": [
        {
          "internalType": "uint256",
          "name": "",
          "type": "uint256"
        }
      ],
      "stateMutability": "view",
      "type": "function"
    },
    {
      "inputs": [],
      "name": "getBNB",
      "outputs": [],
      "stateMutability": "payable",
      "type": "function"
    },
    {
      "inputs": [],
      "name": "getController",
      "outputs": [
        {
          "internalType": "address",
          "name": "",
          "type": "address"
        }
      ],
      "stateMutability": "view",
      "type": "function"
    },
    {
      "inputs": [
        {
          "internalType": "address",
          "name": "pool",
          "type": "address"
        }
      ],
      "name": "getKolsAdr",
      "outputs": [
        {
          "internalType": "address[]",
          "name": "",
          "type": "address[]"
        }
      ],
      "stateMutability": "view",
      "type": "function"
    },
    {
      "inputs": [
        {
          "internalType": "address",
          "name": "pool",
          "type": "address"
        }
      ],
      "name": "getManagerClaimBool",
      "outputs": [
        {
          "internalType": "bool",
          "name": "bools",
          "type": "bool"
        }
      ],
      "stateMutability": "view",
      "type": "function"
    },
    {
      "inputs": [
        {
          "internalType": "address",
          "name": "pool",
          "type": "address"
        },
        {
          "internalType": "address",
          "name": "maragerAdr",
          "type": "address"
        }
      ],
      "name": "getManagerReward",
      "outputs": [
        {
          "internalType": "uint256",
          "name": "",
          "type": "uint256"
        }
      ],
      "stateMutability": "view",
      "type": "function"
    },
    {
      "inputs": [],
      "name": "getOwnerPercentage",
      "outputs": [
        {
          "internalType": "uint256[]",
          "name": "",
          "type": "uint256[]"
        }
      ],
      "stateMutability": "view",
      "type": "function"
    },
    {
      "inputs": [],
      "name": "getOwners",
      "outputs": [
        {
          "internalType": "address[]",
          "name": "",
          "type": "address[]"
        }
      ],
      "stateMutability": "view",
      "type": "function"
    },
    {
      "inputs": [
        {
          "internalType": "address",
          "name": "pool",
          "type": "address"
        }
      ],
      "name": "getPoolAllFee",
      "outputs": [
        {
          "internalType": "uint256",
          "name": "totalAmount",
          "type": "uint256"
        }
      ],
      "stateMutability": "view",
      "type": "function"
    },
    {
      "inputs": [
        {
          "internalType": "address",
          "name": "pool",
          "type": "address"
        },
        {
          "internalType": "address",
          "name": "kol",
          "type": "address"
        }
      ],
      "name": "getPoolKolTotalAmounts",
      "outputs": [
        {
          "internalType": "uint256[]",
          "name": "",
          "type": "uint256[]"
        }
      ],
      "stateMutability": "view",
      "type": "function"
    },
    {
      "inputs": [
        {
          "internalType": "address",
          "name": "pool",
          "type": "address"
        },
        {
          "internalType": "address",
          "name": "kol",
          "type": "address"
        }
      ],
      "name": "getPoolKolUserInfo",
      "outputs": [
        {
          "components": [
            {
              "internalType": "address",
              "name": "userAdr",
              "type": "address"
            },
            {
              "internalType": "uint256[]",
              "name": "userAmount",
              "type": "uint256[]"
            }
          ],
          "internalType": "struct UserVault.KolUserInfo[]",
          "name": "info",
          "type": "tuple[]"
        }
      ],
      "stateMutability": "view",
      "type": "function"
    },
    {
      "inputs": [
        {
          "internalType": "address",
          "name": "pool",
          "type": "address"
        },
        {
          "internalType": "address",
          "name": "user",
          "type": "address"
        }
      ],
      "name": "getPoolUserKolAdr",
      "outputs": [
        {
          "internalType": "address",
          "name": "tokenAddress",
          "type": "address"
        }
      ],
      "stateMutability": "view",
      "type": "function"
    },
    {
      "inputs": [
        {
          "internalType": "address",
          "name": "pool",
          "type": "address"
        }
      ],
      "name": "getPoolUserList",
      "outputs": [
        {
          "internalType": "address[]",
          "name": "tokenList",
          "type": "address[]"
        }
      ],
      "stateMutability": "view",
      "type": "function"
    },
    {
      "inputs": [
        {
          "internalType": "address",
          "name": "pool",
          "type": "address"
        },
        {
          "internalType": "address",
          "name": "maragerAdr",
          "type": "address"
        }
      ],
      "name": "getUnManagerReward",
      "outputs": [
        {
          "internalType": "uint256",
          "name": "",
          "type": "uint256"
        }
      ],
      "stateMutability": "view",
      "type": "function"
    },
    {
      "inputs": [
        {
          "internalType": "address[]",
          "name": "_owners",
          "type": "address[]"
        },
        {
          "internalType": "uint256[]",
          "name": "_ownerPercentage",
          "type": "uint256[]"
        }
      ],
      "name": "initHandle",
      "outputs": [],
      "stateMutability": "nonpayable",
      "type": "function"
    },
    {
      "inputs": [
        {
          "internalType": "address",
          "name": "",
          "type": "address"
        }
      ],
      "name": "init_totalAmount_list",
      "outputs": [
        {
          "internalType": "uint256",
          "name": "",
          "type": "uint256"
        }
      ],
      "stateMutability": "view",
      "type": "function"
    },
    {
      "inputs": [
        {
          "internalType": "address",
          "name": "pool",
          "type": "address"
        }
      ],
      "name": "isClosePool",
      "outputs": [
        {
          "internalType": "bool",
          "name": "",
          "type": "bool"
        }
      ],
      "stateMutability": "view",
      "type": "function"
    },
    {
      "inputs": [
        {
          "internalType": "address",
          "name": "pool",
          "type": "address"
        },
        {
          "internalType": "address",
          "name": "kol",
          "type": "address"
        }
      ],
      "name": "kolClaimTotal",
      "outputs": [
        {
          "internalType": "uint256",
          "name": "",
          "type": "uint256"
        }
      ],
      "stateMutability": "view",
      "type": "function"
    },
    {
      "inputs": [
        {
          "internalType": "address",
          "name": "pool",
          "type": "address"
        },
        {
          "internalType": "address",
          "name": "kol",
          "type": "address"
        }
      ],
      "name": "kolUnClaimAmount",
      "outputs": [
        {
          "internalType": "uint256",
          "name": "",
          "type": "uint256"
        }
      ],
      "stateMutability": "view",
      "type": "function"
    },
    {
      "inputs": [
        {
          "internalType": "address",
          "name": "",
          "type": "address"
        },
        {
          "internalType": "address",
          "name": "",
          "type": "address"
        }
      ],
      "name": "kol_claimed_list",
      "outputs": [
        {
          "internalType": "uint256",
          "name": "",
          "type": "uint256"
        }
      ],
      "stateMutability": "view",
      "type": "function"
    },
    {
      "inputs": [
        {
          "internalType": "address",
          "name": "",
          "type": "address"
        },
        {
          "internalType": "uint256",
          "name": "",
          "type": "uint256"
        }
      ],
      "name": "kol_token_list",
      "outputs": [
        {
          "internalType": "address",
          "name": "",
          "type": "address"
        }
      ],
      "stateMutability": "view",
      "type": "function"
    },
    {
      "inputs": [
        {
          "internalType": "address",
          "name": "",
          "type": "address"
        },
        {
          "internalType": "address",
          "name": "",
          "type": "address"
        },
        {
          "internalType": "uint256",
          "name": "",
          "type": "uint256"
        }
      ],
      "name": "kol_totalAmount_list",
      "outputs": [
        {
          "internalType": "uint256",
          "name": "",
          "type": "uint256"
        }
      ],
      "stateMutability": "view",
      "type": "function"
    },
    {
      "inputs": [
        {
          "internalType": "address",
          "name": "",
          "type": "address"
        },
        {
          "internalType": "address",
          "name": "",
          "type": "address"
        },
        {
          "internalType": "uint256",
          "name": "",
          "type": "uint256"
        }
      ],
      "name": "kol_user_info",
      "outputs": [
        {
          "internalType": "address",
          "name": "userAdr",
          "type": "address"
        }
      ],
      "stateMutability": "view",
      "type": "function"
    },
    {
      "inputs": [
        {
          "internalType": "address",
          "name": "pool",
          "type": "address"
        }
      ],
      "name": "managerClaim",
      "outputs": [],
      "stateMutability": "nonpayable",
      "type": "function"
    },
    {
      "inputs": [
        {
          "internalType": "address",
          "name": "pool",
          "type": "address"
        }
      ],
      "name": "managerClaimRecordList",
      "outputs": [
        {
          "components": [
            {
              "internalType": "uint256",
              "name": "time",
              "type": "uint256"
            },
            {
              "components": [
                {
                  "internalType": "address",
                  "name": "token",
                  "type": "address"
                },
                {
                  "internalType": "uint256",
                  "name": "decimals",
                  "type": "uint256"
                },
                {
                  "internalType": "uint256",
                  "name": "amount",
                  "type": "uint256"
                }
              ],
              "internalType": "struct UserVault.ClaimtokensInfo[]",
              "name": "tokens",
              "type": "tuple[]"
            }
          ],
          "internalType": "struct UserVault.ClaimRecordInfo[]",
          "name": "claimRecordInfos",
          "type": "tuple[]"
        }
      ],
      "stateMutability": "view",
      "type": "function"
    },
    {
      "inputs": [
        {
          "internalType": "address",
          "name": "",
          "type": "address"
        },
        {
          "internalType": "address",
          "name": "",
          "type": "address"
        }
      ],
      "name": "manager_claimed_list",
      "outputs": [
        {
          "internalType": "uint256",
          "name": "",
          "type": "uint256"
        }
      ],
      "stateMutability": "view",
      "type": "function"
    },
    {
      "inputs": [
        {
          "internalType": "uint256",
          "name": "",
          "type": "uint256"
        }
      ],
      "name": "ownerPercentage",
      "outputs": [
        {
          "internalType": "uint256",
          "name": "",
          "type": "uint256"
        }
      ],
      "stateMutability": "view",
      "type": "function"
    },
    {
      "inputs": [
        {
          "internalType": "uint256",
          "name": "",
          "type": "uint256"
        }
      ],
      "name": "owners",
      "outputs": [
        {
          "internalType": "address",
          "name": "",
          "type": "address"
        }
      ],
      "stateMutability": "view",
      "type": "function"
    },
    {
      "inputs": [
        {
          "internalType": "address",
          "name": "pool",
          "type": "address"
        }
      ],
      "name": "poolIssueTokenAmount",
      "outputs": [
        {
          "internalType": "uint256[]",
          "name": "tokenAmount",
          "type": "uint256[]"
        }
      ],
      "stateMutability": "view",
      "type": "function"
    },
    {
      "inputs": [
        {
          "internalType": "address",
          "name": "pool",
          "type": "address"
        }
      ],
      "name": "poolIssueTokenList",
      "outputs": [
        {
          "internalType": "address[]",
          "name": "tokens",
          "type": "address[]"
        }
      ],
      "stateMutability": "view",
      "type": "function"
    },
    {
      "inputs": [
        {
          "internalType": "address",
          "name": "pool",
          "type": "address"
        }
      ],
      "name": "poolManagerTokenAmount",
      "outputs": [
        {
          "internalType": "uint256[]",
          "name": "tokenAmount",
          "type": "uint256[]"
        }
      ],
      "stateMutability": "view",
      "type": "function"
    },
    {
      "inputs": [
        {
          "internalType": "address",
          "name": "pool",
          "type": "address"
        }
      ],
      "name": "poolManagerTokenList",
      "outputs": [
        {
          "internalType": "address[]",
          "name": "tokens",
          "type": "address[]"
        }
      ],
      "stateMutability": "view",
      "type": "function"
    },
    {
      "inputs": [
        {
          "internalType": "address",
          "name": "pool",
          "type": "address"
        }
      ],
      "name": "poolPerfermanceTokenAmount",
      "outputs": [
        {
          "internalType": "uint256[]",
          "name": "tokenAmount",
          "type": "uint256[]"
        }
      ],
      "stateMutability": "view",
      "type": "function"
    },
    {
      "inputs": [
        {
          "internalType": "address",
          "name": "pool",
          "type": "address"
        }
      ],
      "name": "poolPerfermanceTokenList",
      "outputs": [
        {
          "internalType": "address[]",
          "name": "tokens",
          "type": "address[]"
        }
      ],
      "stateMutability": "view",
      "type": "function"
    },
    {
      "inputs": [
        {
          "internalType": "address",
          "name": "pool",
          "type": "address"
        }
      ],
      "name": "poolRedeemTokenAmount",
      "outputs": [
        {
          "internalType": "uint256[]",
          "name": "tokenAmount",
          "type": "uint256[]"
        }
      ],
      "stateMutability": "view",
      "type": "function"
    },
    {
      "inputs": [
        {
          "internalType": "address",
          "name": "pool",
          "type": "address"
        }
      ],
      "name": "poolRedeemTokenList",
      "outputs": [
        {
          "internalType": "address[]",
          "name": "tokens",
          "type": "address[]"
        }
      ],
      "stateMutability": "view",
      "type": "function"
    },
    {
      "inputs": [
        {
          "internalType": "address",
          "name": "",
          "type": "address"
        }
      ],
      "name": "pool_manager",
      "outputs": [
        {
          "internalType": "address",
          "name": "",
          "type": "address"
        }
      ],
      "stateMutability": "view",
      "type": "function"
    },
    {
      "inputs": [
        {
          "internalType": "address",
          "name": "kol",
          "type": "address"
        },
        {
          "internalType": "address",
          "name": "user",
          "type": "address"
        },
        {
          "internalType": "address[]",
          "name": "poolTokens",
          "type": "address[]"
        },
        {
          "internalType": "uint256[]",
          "name": "tokensAmount",
          "type": "uint256[]"
        }
      ],
      "name": "recordTokenInfo",
      "outputs": [],
      "stateMutability": "nonpayable",
      "type": "function"
    },
    {
      "inputs": [
        {
          "internalType": "address",
          "name": "",
          "type": "address"
        },
        {
          "internalType": "uint256",
          "name": "",
          "type": "uint256"
        }
      ],
      "name": "record_List",
      "outputs": [
        {
          "internalType": "uint256",
          "name": "time",
          "type": "uint256"
        }
      ],
      "stateMutability": "view",
      "type": "function"
    },
    {
      "inputs": [
        {
          "internalType": "address",
          "name": "",
          "type": "address"
        }
      ],
      "name": "record_number",
      "outputs": [
        {
          "internalType": "uint256",
          "name": "",
          "type": "uint256"
        }
      ],
      "stateMutability": "view",
      "type": "function"
    },
    {
      "inputs": [
        {
          "internalType": "address",
          "name": "owner",
          "type": "address"
        }
      ],
      "name": "removeOwner",
      "outputs": [],
      "stateMutability": "nonpayable",
      "type": "function"
    },
    {
      "inputs": [
        {
          "internalType": "address",
          "name": "newOwner",
          "type": "address"
        },
        {
          "internalType": "uint256",
          "name": "_ownerPercentage",
          "type": "uint256"
        }
      ],
      "name": "setAddAdminList",
      "outputs": [],
      "stateMutability": "nonpayable",
      "type": "function"
    },
    {
      "inputs": [
        {
          "internalType": "address",
          "name": "pool",
          "type": "address"
        },
        {
          "internalType": "bool",
          "name": "bools",
          "type": "bool"
        }
      ],
      "name": "setBlackList",
      "outputs": [],
      "stateMutability": "nonpayable",
      "type": "function"
    },
    {
      "inputs": [
        {
          "internalType": "address",
          "name": "newOwner",
          "type": "address"
        }
      ],
      "name": "setController",
      "outputs": [],
      "stateMutability": "nonpayable",
      "type": "function"
    },
    {
      "inputs": [
        {
          "internalType": "address",
          "name": "adr",
          "type": "address"
        }
      ],
      "name": "setCrpFactory",
      "outputs": [],
      "stateMutability": "nonpayable",
      "type": "function"
    },
    {
      "inputs": [
        {
          "internalType": "address",
          "name": "pool",
          "type": "address"
        },
        {
          "components": [
            {
              "components": [
                {
                  "components": [
                    {
                      "internalType": "uint256",
                      "name": "level",
                      "type": "uint256"
                    },
                    {
                      "internalType": "uint256",
                      "name": "ratio",
                      "type": "uint256"
                    }
                  ],
                  "internalType": "struct SmartPoolManager.levelParams",
                  "name": "firstLevel",
                  "type": "tuple"
                },
                {
                  "components": [
                    {
                      "internalType": "uint256",
                      "name": "level",
                      "type": "uint256"
                    },
                    {
                      "internalType": "uint256",
                      "name": "ratio",
                      "type": "uint256"
                    }
                  ],
                  "internalType": "struct SmartPoolManager.levelParams",
                  "name": "secondLevel",
                  "type": "tuple"
                },
                {
                  "components": [
                    {
                      "internalType": "uint256",
                      "name": "level",
                      "type": "uint256"
                    },
                    {
                      "internalType": "uint256",
                      "name": "ratio",
                      "type": "uint256"
                    }
                  ],
                  "internalType": "struct SmartPoolManager.levelParams",
                  "name": "thirdLevel",
                  "type": "tuple"
                },
                {
                  "components": [
                    {
                      "internalType": "uint256",
                      "name": "level",
                      "type": "uint256"
                    },
                    {
                      "internalType": "uint256",
                      "name": "ratio",
                      "type": "uint256"
                    }
                  ],
                  "internalType": "struct SmartPoolManager.levelParams",
                  "name": "fourLevel",
                  "type": "tuple"
                }
              ],
              "internalType": "struct SmartPoolManager.feeParams",
              "name": "managerFee",
              "type": "tuple"
            },
            {
              "components": [
                {
                  "components": [
                    {
                      "internalType": "uint256",
                      "name": "level",
                      "type": "uint256"
                    },
                    {
                      "internalType": "uint256",
                      "name": "ratio",
                      "type": "uint256"
                    }
                  ],
                  "internalType": "struct SmartPoolManager.levelParams",
                  "name": "firstLevel",
                  "type": "tuple"
                },
                {
                  "components": [
                    {
                      "internalType": "uint256",
                      "name": "level",
                      "type": "uint256"
                    },
                    {
                      "internalType": "uint256",
                      "name": "ratio",
                      "type": "uint256"
                    }
                  ],
                  "internalType": "struct SmartPoolManager.levelParams",
                  "name": "secondLevel",
                  "type": "tuple"
                },
                {
                  "components": [
                    {
                      "internalType": "uint256",
                      "name": "level",
                      "type": "uint256"
                    },
                    {
                      "internalType": "uint256",
                      "name": "ratio",
                      "type": "uint256"
                    }
                  ],
                  "internalType": "struct SmartPoolManager.levelParams",
                  "name": "thirdLevel",
                  "type": "tuple"
                },
                {
                  "components": [
                    {
                      "internalType": "uint256",
                      "name": "level",
                      "type": "uint256"
                    },
                    {
                      "internalType": "uint256",
                      "name": "ratio",
                      "type": "uint256"
                    }
                  ],
                  "internalType": "struct SmartPoolManager.levelParams",
                  "name": "fourLevel",
                  "type": "tuple"
                }
              ],
              "internalType": "struct SmartPoolManager.feeParams",
              "name": "issueFee",
              "type": "tuple"
            },
            {
              "components": [
                {
                  "components": [
                    {
                      "internalType": "uint256",
                      "name": "level",
                      "type": "uint256"
                    },
                    {
                      "internalType": "uint256",
                      "name": "ratio",
                      "type": "uint256"
                    }
                  ],
                  "internalType": "struct SmartPoolManager.levelParams",
                  "name": "firstLevel",
                  "type": "tuple"
                },
                {
                  "components": [
                    {
                      "internalType": "uint256",
                      "name": "level",
                      "type": "uint256"
                    },
                    {
                      "internalType": "uint256",
                      "name": "ratio",
                      "type": "uint256"
                    }
                  ],
                  "internalType": "struct SmartPoolManager.levelParams",
                  "name": "secondLevel",
                  "type": "tuple"
                },
                {
                  "components": [
                    {
                      "internalType": "uint256",
                      "name": "level",
                      "type": "uint256"
                    },
                    {
                      "internalType": "uint256",
                      "name": "ratio",
                      "type": "uint256"
                    }
                  ],
                  "internalType": "struct SmartPoolManager.levelParams",
                  "name": "thirdLevel",
                  "type": "tuple"
                },
                {
                  "components": [
                    {
                      "internalType": "uint256",
                      "name": "level",
                      "type": "uint256"
                    },
                    {
                      "internalType": "uint256",
                      "name": "ratio",
                      "type": "uint256"
                    }
                  ],
                  "internalType": "struct SmartPoolManager.levelParams",
                  "name": "fourLevel",
                  "type": "tuple"
                }
              ],
              "internalType": "struct SmartPoolManager.feeParams",
              "name": "redeemFee",
              "type": "tuple"
            },
            {
              "components": [
                {
                  "components": [
                    {
                      "internalType": "uint256",
                      "name": "level",
                      "type": "uint256"
                    },
                    {
                      "internalType": "uint256",
                      "name": "ratio",
                      "type": "uint256"
                    }
                  ],
                  "internalType": "struct SmartPoolManager.levelParams",
                  "name": "firstLevel",
                  "type": "tuple"
                },
                {
                  "components": [
                    {
                      "internalType": "uint256",
                      "name": "level",
                      "type": "uint256"
                    },
                    {
                      "internalType": "uint256",
                      "name": "ratio",
                      "type": "uint256"
                    }
                  ],
                  "internalType": "struct SmartPoolManager.levelParams",
                  "name": "secondLevel",
                  "type": "tuple"
                },
                {
                  "components": [
                    {
                      "internalType": "uint256",
                      "name": "level",
                      "type": "uint256"
                    },
                    {
                      "internalType": "uint256",
                      "name": "ratio",
                      "type": "uint256"
                    }
                  ],
                  "internalType": "struct SmartPoolManager.levelParams",
                  "name": "thirdLevel",
                  "type": "tuple"
                },
                {
                  "components": [
                    {
                      "internalType": "uint256",
                      "name": "level",
                      "type": "uint256"
                    },
                    {
                      "internalType": "uint256",
                      "name": "ratio",
                      "type": "uint256"
                    }
                  ],
                  "internalType": "struct SmartPoolManager.levelParams",
                  "name": "fourLevel",
                  "type": "tuple"
                }
              ],
              "internalType": "struct SmartPoolManager.feeParams",
              "name": "perfermanceFee",
              "type": "tuple"
            }
          ],
          "internalType": "struct SmartPoolManager.KolPoolParams",
          "name": "_poolParams",
          "type": "tuple"
        }
      ],
      "name": "setPoolParams",
      "outputs": [],
      "stateMutability": "nonpayable",
      "type": "function"
    },
    {
      "inputs": [
        {
          "internalType": "address",
          "name": "adr",
          "type": "address"
        }
      ],
      "name": "setVaultAdr",
      "outputs": [],
      "stateMutability": "nonpayable",
      "type": "function"
    },
    {
      "inputs": [
        {
          "internalType": "address",
          "name": "",
          "type": "address"
        },
        {
          "internalType": "address",
          "name": "",
          "type": "address"
        }
      ],
      "name": "user_index_list",
      "outputs": [
        {
          "internalType": "uint256",
          "name": "",
          "type": "uint256"
        }
      ],
      "stateMutability": "view",
      "type": "function"
    },
    {
      "inputs": [
        {
          "internalType": "address",
          "name": "",
          "type": "address"
        },
        {
          "internalType": "address",
          "name": "",
          "type": "address"
        }
      ],
      "name": "user_kol_list",
      "outputs": [
        {
          "internalType": "address",
          "name": "",
          "type": "address"
        }
      ],
      "stateMutability": "view",
      "type": "function"
    },
    {
      "inputs": [],
      "name": "vaultAddress",
      "outputs": [
        {
          "internalType": "address",
          "name": "",
          "type": "address"
        }
      ],
      "stateMutability": "view",
      "type": "function"
    },
    {
      "stateMutability": "payable",
      "type": "receive"
    }
  ],
  "transactionHash": "0x1e77cb7b510b66c1e9a6d48c7684b46ee476289340928990778b5eb8b2029f0b",
  "args": [],
  "numDeployments": 1,
  "solcInputHash": "9b997fc78ba6c4832a214c7fe0ff54c7",
  "bytecode": "0x6080604052606460155534801561001557600080fd5b50600080546001600160a01b03191633179055615a4780620000386000396000f3fe6080604052600436106102a55760003560e01c80636936674d116101615780636936674d1461067e57806378a619de1461069e57806379f66374146106a65780638da901ba146106c65780638f799e12146106e65780639155dae71461070657806392eefe9b14610726578063992f6ba514610746578063a0e67e2b14610766578063a5168ee21461077b578063a97f9f331461079b578063bbb6e808146107bb578063c0fcb166146107db578063c1e57622146107fb578063c3e4d04f1461081b578063c5318d0f1461083b578063c90361dd1461085b578063cf4fe6351461087b578063d29986c1146108a8578063d6b485a5146108bd578063d7256c70146108dd578063de7f3022146108fd578063e0bea5ac1461091d578063e65065d91461093d578063ebef44d91461095d578063ec7a4b521461097d578063edb12adf1461099d578063edbfb5f5146109bd578063f36ed928146109dd576102ac565b8063025e7c27146102b157806303a68ecb146102e75780630b83e629146103145780630e99089c1461034157806311e1532a14610361578063154726b214610381578063173825d9146103a15780631a46506e146103c35780631cc9a579146103e35780631eae039c146104105780631f70e80b1461043057806327304dfd146104455780632b5230a9146104725780632c0bdbcf146104925780632c7c1bb5146104bf5780633018205f146104df578063309a042c146104f45780633eedcfa0146105095780633ef144791461052957806341c65e8314610549578063430bf08a146105695780634660c5a51461057e57806346bead891461059e5780634bbe2fca146105be5780634da38416146105de578063528b5853146105fe5780635834bac41461061e57806358d2dbf01461063e57806368092bd91461065e576102ac565b366102ac57005b600080fd5b3480156102bd57600080fd5b506102d16102cc3660046153fc565b6109fd565b6040516102de9190615487565b60405180910390f35b3480156102f357600080fd5b50610307610302366004615076565b610a24565b6040516102de91906159a0565b34801561032057600080fd5b5061033461032f366004614fad565b610a5f565b6040516102de919061565e565b34801561034d57600080fd5b5061030761035c366004614f75565b610ad9565b34801561036d57600080fd5b5061030761037c366004614f75565b610eab565b34801561038d57600080fd5b5061030761039c366004614fad565b610f9e565b3480156103ad57600080fd5b506103c16103bc366004614f75565b611054565b005b3480156103cf57600080fd5b506103346103de366004614f75565b61123f565b3480156103ef57600080fd5b506104036103fe366004614f75565b6112ae565b6040516102de919061553f565b34801561041c57600080fd5b506103c161042b366004615076565b61141a565b34801561043c57600080fd5b506103076114ca565b34801561045157600080fd5b50610465610460366004614f75565b6114d0565b6040516102de9190615671565b34801561047e57600080fd5b5061033461048d366004614f75565b6114e5565b34801561049e57600080fd5b506104b26104ad366004614f75565b611552565b6040516102de91906154f2565b3480156104cb57600080fd5b506103076104da366004614fad565b6115ca565b3480156104eb57600080fd5b506102d16115e7565b34801561050057600080fd5b506103346115f6565b34801561051557600080fd5b50610307610524366004614fad565b61164e565b34801561053557600080fd5b506103c161054436600461527c565b61166b565b34801561055557600080fd5b506104b2610564366004614f75565b61178d565b34801561057557600080fd5b506102d1611804565b34801561058a57600080fd5b506103c16105993660046150e3565b611813565b3480156105aa57600080fd5b506103076105b9366004614fad565b611a3b565b3480156105ca57600080fd5b506103076105d9366004615174565b611ca4565b3480156105ea57600080fd5b506104b26105f9366004614f75565b611cc1565b34801561060a57600080fd5b50610307610619366004614f75565b611d35565b34801561062a57600080fd5b50610307610639366004615076565b611d47565b34801561064a57600080fd5b506102d1610659366004614fad565b612429565b34801561066a57600080fd5b506103c16106793660046150b6565b612453565b34801561068a57600080fd5b506103c1610699366004614f75565b6124ae565b6103c161296e565b3480156106b257600080fd5b506102d16106c1366004614fad565b6129c4565b3480156106d257600080fd5b506104656106e1366004614f75565b6129ea565b3480156106f257600080fd5b50610307610701366004614fad565b612a71565b34801561071257600080fd5b506103c161072136600461519f565b612a8e565b34801561073257600080fd5b506103c1610741366004614f75565b612bf9565b34801561075257600080fd5b506103c1610761366004615174565b612ca4565b34801561077257600080fd5b506104b2612dcd565b34801561078757600080fd5b50610334610796366004614f75565b612e2e565b3480156107a757600080fd5b506103346107b6366004614f75565b612e9b565b3480156107c757600080fd5b506102d16107d6366004615076565b612f08565b3480156107e757600080fd5b506104656107f6366004614f75565b612f4f565b34801561080757600080fd5b506103c1610816366004614f75565b612f6d565b34801561082757600080fd5b506102d1610836366004614f75565b612fbf565b34801561084757600080fd5b506103076108563660046153fc565b612fda565b34801561086757600080fd5b506104b2610876366004614f75565b612ff8565b34801561088757600080fd5b5061089b610896366004614fad565b61301c565b6040516102de91906155f2565b3480156108b457600080fd5b50610307613101565b3480156108c957600080fd5b506103c16108d8366004614f75565b613107565b3480156108e957600080fd5b506103c16108f8366004614fe5565b6131a4565b34801561090957600080fd5b506104b2610918366004614f75565b613724565b34801561092957600080fd5b506102d1610938366004615174565b61379b565b34801561094957600080fd5b50610307610958366004614fad565b6137d0565b34801561096957600080fd5b506104b2610978366004614f75565b61397a565b34801561098957600080fd5b50610307610998366004614fad565b6139ee565b3480156109a957600080fd5b506103c16109b8366004614f75565b613a40565b3480156109c957600080fd5b506103076109d8366004614f75565b614087565b3480156109e957600080fd5b506103076109f8366004614f75565b614099565b60028181548110610a0a57fe5b6000918252602090912001546001600160a01b0316905081565b60116020528260005260406000206020528160005260406000208181548110610a4957fe5b9060005260206000200160009250925050505481565b6001600160a01b038083166000908152601160209081526040808320938516835292815290829020805483518184028101840190945280845260609392830182828015610acb57602002820191906000526020600020905b815481526020019060010190808311610ab7575b505050505090505b92915050565b6000610ae3614bd0565b6001600160a01b038316600090815260086020908152604091829020825181546101209381028201840190945261010081018481529093919284928491840182828015610b5957602002820191906000526020600020905b81546001600160a01b03168152600190910190602001808311610b3b575b5050505050815260200160018201805480602002602001604051908101604052809291908181526020018280548015610bbb57602002820191906000526020600020905b81546001600160a01b03168152600190910190602001808311610b9d575b5050505050815260200160028201805480602002602001604051908101604052809291908181526020018280548015610c1d57602002820191906000526020600020905b81546001600160a01b03168152600190910190602001808311610bff575b5050505050815260200160038201805480602002602001604051908101604052809291908181526020018280548015610c7f57602002820191906000526020600020905b81546001600160a01b03168152600190910190602001808311610c61575b5050505050815260200160048201805480602002602001604051908101604052809291908181526020018280548015610cd757602002820191906000526020600020905b815481526020019060010190808311610cc3575b5050505050815260200160058201805480602002602001604051908101604052809291908181526020018280548015610d2f57602002820191906000526020600020905b815481526020019060010190808311610d1b575b5050505050815260200160068201805480602002602001604051908101604052809291908181526020018280548015610d8757602002820191906000526020600020905b815481526020019060010190808311610d73575b5050505050815260200160078201805480602002602001604051908101604052809291908181526020018280548015610ddf57602002820191906000526020600020905b815481526020019060010190808311610dcb575b5050505050815250509050600081608001515111610dfe576000610e18565b8060800151600081518110610e0f57fe5b60200260200101515b60a082015151920191610e2c576000610e46565b8060a00151600081518110610e3d57fe5b60200260200101515b60c082015151920191610e5a576000610e74565b8060c00151600081518110610e6b57fe5b60200260200101515b60e082015151920191610e88576000610ea2565b8060e00151600081518110610e9957fe5b60200260200101515b90910192915050565b604051631e6ddb2560e31b8152600090610ad390309063f36ed92890610ed5908690600401615487565b60206040518083038186803b158015610eed57600080fd5b505afa158015610f01573d6000803e3d6000fd5b505050506040513d601f19601f82011682018060405250810190610f259190615414565b6040516303a6422760e21b81523090630e99089c90610f48908790600401615487565b60206040518083038186803b158015610f6057600080fd5b505afa158015610f74573d6000803e3d6000fd5b505050506040513d601f19601f82011682018060405250810190610f989190615414565b9061415a565b60405163e65065d960e01b81526000908190309063e65065d990610fc890879087906004016154b4565b60206040518083038186803b158015610fe057600080fd5b505afa158015610ff4573d6000803e3d6000fd5b505050506040513d601f19601f820116820180604052508101906110189190615414565b6001600160a01b0380861660009081526010602090815260408083209388168352929052205490915061104b828261415a565b95945050505050565b6000546001600160a01b031633146110875760405162461bcd60e51b815260040161107e906156cf565b60405180910390fd5b6001600160a01b0381166000908152600160205260408120805460ff19169055805b6002548110156111ab57826001600160a01b0316600282815481106110ca57fe5b6000918252602090912001546001600160a01b031614156111a3576002805460001981019081106110f757fe5b600091825260209091200154600280546001600160a01b03909216918390811061111d57fe5b9060005260206000200160006101000a8154816001600160a01b0302191690836001600160a01b031602179055506003818154811061115857fe5b9060005260206000200154915060036001600380549050038154811061117a57fe5b90600052602060002001546003828154811061119257fe5b6000918252602090912001556111ab565b6001016110a9565b5060028054806111b757fe5b600082815260209020810160001990810180546001600160a01b031916905501905560038054806111e457fe5b600082815260208120820160001990810182905590910190915560048054839003905560405182916001600160a01b038516917f7b0884b4b6bb4e0c1385ad42168fa556c14d4d799c1bf22f081aff3efff6ea0c9190a35050565b6001600160a01b0381166000908152600860209081526040918290206007018054835181840281018401909452808452606093928301828280156112a257602002820191906000526020600020905b81548152602001906001019080831161128e575b50505050509050919050565b6001600160a01b0381166000908152600a602052604090205460609081816001600160401b03811180156112e157600080fd5b5060405190808252806020026020018201604052801561131b57816020015b611308614c15565b8152602001906001900390816113005790505b50905060015b8260010181101561141257611334614c15565b6001600160a01b0386166000908152600b60209081526040808320858452825280832081518083018352815481526001820180548451818702810187019095528085529195929486810194939192919084015b828210156113dc576000848152602090819020604080516060810182526003860290920180546001600160a01b0316835260018082015484860152600290910154918301919091529083529092019101611387565b505050915250909150819050836113f484600161415a565b815181106113fe57fe5b602090810291909101015250600101611321565b509392505050565b6000546001600160a01b031633146114445760405162461bcd60e51b815260040161107e906156cf565b60405163a9059cbb60e01b81526001600160a01b0384169063a9059cbb90611472908590859060040161549b565b602060405180830381600087803b15801561148c57600080fd5b505af11580156114a0573d6000803e3d6000fd5b505050506040513d601f19601f820116820180604052508101906114c491906153c1565b50505050565b60155481565b60016020526000908152604090205460ff1681565b6001600160a01b0381166000908152600860209081526040918290206006018054835181840281018401909452808452606093928301828280156112a2576020028201919060005260206000209081548152602001906001019080831161128e5750505050509050919050565b6001600160a01b0381166000908152600860209081526040918290206002018054835181840281018401909452808452606093928301828280156112a257602002820191906000526020600020905b81546001600160a01b031681526001909101906020018083116115a15750505050509050919050565b601360209081526000928352604080842090915290825290205481565b6000546001600160a01b031690565b6060600380548060200260200160405190810160405280929190818152602001828054801561164457602002820191906000526020600020905b815481526020019060010190808311611630575b5050505050905090565b601060209081526000928352604080842090915290825290205481565b6000546001600160a01b031633146116955760405162461bcd60e51b815260040161107e906156cf565b80518251146116b65760405162461bcd60e51b815260040161107e90615880565b60055460ff16156116d95760405162461bcd60e51b815260040161107e9061575b565b60005b8251811015611753578181815181106116f157fe5b6020026020010151600460008282540192505081905550600180600085848151811061171957fe5b6020908102919091018101516001600160a01b03168252810191909152604001600020805460ff19169115159190911790556001016116dc565b508151611767906002906020850190614c2f565b50805161177b906003906020840190614c94565b50506005805460ff1916600117905550565b6001600160a01b0381166000908152600860209081526040918290206003018054835181840281018401909452808452606093928301828280156112a2576020028201919060005260206000209081546001600160a01b031681526001909101906020018083116115a15750505050509050919050565b6006546001600160a01b031681565b6001600160a01b03808316600090815260096020526040908190206005549151636e0cf42160e11b815290926101009092049091169063dc19e8429061185d908690600401615487565b60206040518083038186803b15801561187557600080fd5b505afa158015611889573d6000803e3d6000fd5b505050506040513d601f19601f820116820180604052508101906118ad91906153c1565b6118c95760405162461bcd60e51b815260040161107e906158a0565b805462010000900460ff16156118f15760405162461bcd60e51b815260040161107e90615913565b805462ff0000191662010000178155815180518051600184015560209081015160028401558082015180516003850155810151600484015560408083015180516005860155820151600685015560609283015180516007860155820151600885015581850151805180516009870155830151600a860155808301518051600b870155830151600c860155808201518051600d870155830151600e8601558301518051600f8601558201516010850155808501518051805160118701558301516012860155808301518051601387015583015160148601558082015180516015870155830151601686015583015180516017860155820151601885015593820151805180516019860155820151601a850155808201518051601b860155820151601c850155938401518051601d850155810151601e8401559201518051601f83015582015191015550565b6040516308f0a99560e11b8152600090819030906311e1532a90611a63908790600401615487565b60206040518083038186803b158015611a7b57600080fd5b505afa158015611a8f573d6000803e3d6000fd5b505050506040513d601f19601f82011682018060405250810190611ab39190615414565b90506060846001600160a01b031663a0e67e2b6040518163ffffffff1660e01b815260040160006040518083038186803b158015611af057600080fd5b505afa158015611b04573d6000803e3d6000fd5b505050506040513d6000823e601f3d908101601f19168201604052611b2c91908101906151e4565b90506060856001600160a01b031663309a042c6040518163ffffffff1660e01b815260040160006040518083038186803b158015611b6957600080fd5b505afa158015611b7d573d6000803e3d6000fd5b505050506040513d6000823e601f3d908101601f19168201604052611ba5919081019061533e565b90506000866001600160a01b031663d29986c16040518163ffffffff1660e01b815260040160206040518083038186803b158015611be257600080fd5b505afa158015611bf6573d6000803e3d6000fd5b505050506040513d601f19601f82011682018060405250810190611c1a9190615414565b905060005b8351811015611c9957838181518110611c3457fe5b60200260200101516001600160a01b0316876001600160a01b03161415611c9157611c8582611c7f858481518110611c6857fe5b60200260200101518861419c90919063ffffffff16565b906141d6565b95505050505050610ad3565b600101611c1f565b505050505092915050565b600b60209081526000928352604080842090915290825290205481565b6001600160a01b0381166000908152600c60209081526040918290208054835181840281018401909452808452606093928301828280156112a2576020028201919060005260206000209081546001600160a01b031681526001909101906020018083116115a15750505050509050919050565b600d6020526000908152604090205481565b6001600160a01b0380841660009081526011602090815260408083209386168352929052908120548190611d7c576000611dba565b6001600160a01b03808616600090815260116020908152604080832093881683529290529081208054909190611dae57fe5b90600052602060002001545b9050611dc4614cdb565b506001600160a01b03851660009081526009602081815260408084208151610140810183526001820154610100820190815260028301546101208301526080808301918252845180860186526003850154815260048501548188015260a080850191909152855180870187526005860154815260068601548189015260c08086019190915286518088018852600787015481526008870154818a015260e08601529284528551808401875297850154888301908152600a86015489830152885285518087018752600b8601548152600c860154818901528888015285518087018752600d8601548152600e860154818901528887015285518087018752600f860154815260108601548189015260608981019190915284880198909852855180840187526011860154818401908152601287015482840152815286518088018852601387015481526014870154818a01528189015286518088018852601587015481526016870154818a01528188015286518088018852601787015481526018870154818a0152818a015284870152855192830186526019850154918301918252601a85015490830152815283518085018552601b8401548152601c840154818701528186015283518085018552601d8401548152601e84015481870152818501528351808501909452601f83015484529184015493830193909352808401919091529181019190915290611fd7614bd0565b6001600160a01b03881660009081526008602090815260409182902082518154610120938102820184019094526101008101848152909391928492849184018282801561204d57602002820191906000526020600020905b81546001600160a01b0316815260019091019060200180831161202f575b50505050508152602001600182018054806020026020016040519081016040528092919081815260200182805480156120af57602002820191906000526020600020905b81546001600160a01b03168152600190910190602001808311612091575b505050505081526020016002820180548060200260200160405190810160405280929190818152602001828054801561211157602002820191906000526020600020905b81546001600160a01b031681526001909101906020018083116120f3575b505050505081526020016003820180548060200260200160405190810160405280929190818152602001828054801561217357602002820191906000526020600020905b81546001600160a01b03168152600190910190602001808311612155575b50505050508152602001600482018054806020026020016040519081016040528092919081815260200182805480156121cb57602002820191906000526020600020905b8154815260200190600101908083116121b7575b505050505081526020016005820180548060200260200160405190810160405280929190818152602001828054801561222357602002820191906000526020600020905b81548152602001906001019080831161220f575b505050505081526020016006820180548060200260200160405190810160405280929190818152602001828054801561227b57602002820191906000526020600020905b815481526020019060010190808311612267575b50505050508152602001600782018054806020026020016040519081016040528092919081815260200182805480156122d357602002820191906000526020600020905b8154815260200190600101908083116122bf575b505050505081525050905083600014156122f4576000945050505050612422565b8515801561230757506000816080015151115b1561234d5761234a601554611c7f612323878760000151614215565b846080015160008151811061233457fe5b602002602001015161419c90919063ffffffff16565b91505b856001148015612362575060008160a0015151115b156123925761238f601554611c7f61237e878760200151614215565b8460a0015160008151811061233457fe5b91505b8560021480156123a7575060008160c0015151115b156123d7576123d4601554611c7f6123c3878760400151614215565b8460c0015160008151811061233457fe5b91505b8560031480156123ec575060008160e0015151115b1561241c57612419601554611c7f612408878760600151614215565b8460e0015160008151811061233457fe5b91505b50925050505b9392505050565b6001600160a01b039182166000908152601460209081526040808320938516835292905220541690565b6000546001600160a01b0316331461247d5760405162461bcd60e51b815260040161107e906156cf565b6001600160a01b03909116600090815260096020526040902080549115156101000261ff0019909216919091179055565b60065460405163edb12adf60e01b81526001600160a01b039091169063edb12adf906124de908490600401615487565b600060405180830381600087803b1580156124f857600080fd5b505af1925050508015612509575060015b506040516346d480dd60e11b81523090638da901ba9061252d908490600401615487565b60206040518083038186803b15801561254557600080fd5b505afa158015612559573d6000803e3d6000fd5b505050506040513d601f19601f8201168201806040525081019061257d91906153c1565b1561296b57600554604051636e0cf42160e11b81526101009091046001600160a01b03169063dc19e842906125b6908490600401615487565b60206040518083038186803b1580156125ce57600080fd5b505afa1580156125e2573d6000803e3d6000fd5b505050506040513d601f19601f8201168201806040525081019061260691906153c1565b6126225760405162461bcd60e51b815260040161107e906158a0565b806001600160a01b0316635468d6d76040518163ffffffff1660e01b815260040160206040518083038186803b15801561265b57600080fd5b505afa15801561266f573d6000803e3d6000fd5b505050506040513d601f19601f8201168201806040525081019061269391906153c1565b6126af5760405162461bcd60e51b815260040161107e9061596d565b604051630aa3935960e11b8152600090309063154726b2906126d790859033906004016154b4565b60206040518083038186803b1580156126ef57600080fd5b505afa158015612703573d6000803e3d6000fd5b505050506040513d601f19601f820116820180604052508101906127279190615414565b9050600081116127495760405162461bcd60e51b815260040161107e906156fb565b6001600160a01b038216600090815260106020908152604080832033808552925290912080548301905561277c906142f0565b156128b7576001600160a01b0382166000908152600c6020526040812080549091906127a457fe5b9060005260206000200160009054906101000a90046001600160a01b03166001600160a01b031663a9059cbb336001600160a01b0316638da5cb5b6040518163ffffffff1660e01b815260040160206040518083038186803b15801561280957600080fd5b505afa15801561281d573d6000803e3d6000fd5b505050506040513d601f19601f820116820180604052508101906128419190614f91565b836040518363ffffffff1660e01b815260040161285f92919061549b565b602060405180830381600087803b15801561287957600080fd5b505af115801561288d573d6000803e3d6000fd5b505050506040513d601f19601f820116820180604052508101906128b191906153c1565b50612969565b6001600160a01b0382166000908152600c6020526040812080549091906128da57fe5b60009182526020909120015460405163a9059cbb60e01b81526001600160a01b039091169063a9059cbb90612915903390859060040161549b565b602060405180830381600087803b15801561292f57600080fd5b505af1158015612943573d6000803e3d6000fd5b505050506040513d601f19601f8201168201806040525081019061296791906153c1565b505b505b50565b6000546001600160a01b031633146129985760405162461bcd60e51b815260040161107e906156cf565b60405133904780156108fc02916000818181858888f1935050505015801561296b573d6000803e3d6000fd5b60146020908152600092835260408084209091529082529020546001600160a01b031681565b60006001826001600160a01b03166373a9855c6040518163ffffffff1660e01b815260040160206040518083038186803b158015612a2757600080fd5b505afa158015612a3b573d6000803e3d6000fd5b505050506040513d601f19601f82011682018060405250810190612a5f91906153dd565b6001811115612a6a57fe5b1492915050565b600e60209081526000928352604080842090915290825290205481565b6006546001600160a01b03163314612ab85760405162461bcd60e51b815260040161107e906156cf565b828114612ad75760405162461bcd60e51b815260040161107e90615781565b6001600160a01b0386811660009081526007602052604090205416612b9757856001600160a01b0316633018205f6040518163ffffffff1660e01b815260040160206040518083038186803b158015612b2f57600080fd5b505afa158015612b43573d6000803e3d6000fd5b505050506040513d601f19601f82011682018060405250810190612b679190614f91565b6001600160a01b03878116600090815260076020526040902080546001600160a01b031916929091169190911790555b606080612ba48888614329565b91509150606080612bba888888888e89896146c1565b91509150612bca8a8a8484614927565b5050506001600160a01b039096166000908152600960205260409020805460ff19166001179055505050505050565b6000546001600160a01b03163314612c235760405162461bcd60e51b815260040161107e906156cf565b6001600160a01b038116612c495760405162461bcd60e51b815260040161107e90615833565b600080546040516001600160a01b03808516939216917f8be0079c531659141344cd1fd0a4f28419497f9722a3daafe3b4186f6b6457e091a3600080546001600160a01b0319166001600160a01b0392909216919091179055565b6000546001600160a01b03163314612cce5760405162461bcd60e51b815260040161107e906156cf565b6001600160a01b03821660009081526001602052604090205460ff1615612d075760405162461bcd60e51b815260040161107e906157d8565b6001600160a01b0382166000818152600160208190526040808320805460ff191683179055600280548084019091557f405787fa12a823e0f2b7631cc41b3ba8828b3321ca811111fa75cd3aa3bb5ace0180546001600160a01b0319168517905560038054928301815583527fc2575a0e9e593c00f959f8c92f12db2869c3395a3b0502d05e2516446f71f85b9091018490556004805485019055518392917fbd5dcf0b25226117c4a68a0129ffdd4b0541ef5e482ad7de9a96ccb6d6a8ebde91a35050565b6060600280548060200260200160405190810160405280929190818152602001828054801561164457602002820191906000526020600020905b81546001600160a01b03168152600190910190602001808311612e07575050505050905090565b6001600160a01b0381166000908152600860209081526040918290206005018054835181840281018401909452808452606093928301828280156112a2576020028201919060005260206000209081548152602001906001019080831161128e5750505050509050919050565b6001600160a01b0381166000908152600860209081526040918290206004018054835181840281018401909452808452606093928301828280156112a2576020028201919060005260206000209081548152602001906001019080831161128e5750505050509050919050565b60126020528260005260406000206020528160005260406000208181548110612f2d57fe5b60009182526020909120600290910201546001600160a01b0316925083915050565b6001600160a01b031660009081526009602052604090205460ff1690565b6000546001600160a01b03163314612f975760405162461bcd60e51b815260040161107e906156cf565b600580546001600160a01b0390921661010002610100600160a81b0319909216919091179055565b6007602052600090815260409020546001600160a01b031681565b60038181548110612fe757fe5b600091825260209091200154905081565b6001600160a01b0381166000908152600f60205260409020606090610ad390614a17565b6001600160a01b0380831660009081526012602090815260408083209385168352928152828220805484518184028101840190955280855260609493919290919084015b828210156130f55760008481526020908190206040805180820182526002860290920180546001600160a01b031683526001810180548351818702810187019094528084529394919385830193928301828280156130dd57602002820191906000526020600020905b8154815260200190600101908083116130c9575b50505050508152505081526020019060010190613060565b50505050905092915050565b60045481565b6000546001600160a01b031633146131315760405162461bcd60e51b815260040161107e906156cf565b6001600160a01b0381166131575760405162461bcd60e51b815260040161107e9061593a565b600680546001600160a01b0319166001600160a01b0383169081179091556040513391907ff5e71cc69e4610808e8e7c9099d63353897264c5dfc4da1a0320395866de497190600090a350565b33838281146131c55760405162461bcd60e51b815260040161107e90615781565b600554604051636e0cf42160e11b81526101009091046001600160a01b03169063dc19e842906131f9908590600401615487565b60206040518083038186803b15801561321157600080fd5b505afa158015613225573d6000803e3d6000fd5b505050506040513d601f19601f8201168201806040525081019061324991906153c1565b6132655760405162461bcd60e51b815260040161107e906158a0565b6001600160a01b0382166000908152600c60205260409020546132a7576001600160a01b0382166000908152600c602052604090206132a5908787614d1a565b505b6001600160a01b0382811660009081526014602090815260408083208b85168452909152902054168061334e576001600160a01b0383811660008181526014602090815260408083208d86168452825280832080546001600160a01b031916958f1695909517909455918152600f90915220613323908a614a23565b61334b576001600160a01b0383166000908152600f60205260409020613349908a614a38565b505b50875b6001600160a01b0381166133745760405162461bcd60e51b815260040161107e90615802565b6133ac8585600081811061338457fe5b6001600160a01b0387166000908152600d602090815260409091205493910201359050614a4d565b6001600160a01b0384166000908152600d60205260409020556060826001600160401b03811180156133dd57600080fd5b50604051908082528060200260200182016040528015613407578160200160208202803683370190505b50905060005b838110156134f2576001600160a01b0380861660009081526011602090815260408083209387168352929052205461346f5786868281811061344b57fe5b9050602002013582828151811061345e57fe5b6020026020010181815250506134ea565b6001600160a01b03808616600090815260116020908152604080832093871683529290522080546134d19190839081106134a557fe5b90600052602060002001548888848181106134bc57fe5b90506020020135614a4d90919063ffffffff16565b8282815181106134dd57fe5b6020026020010181815250505b60010161340d565b506001600160a01b0380851660009081526011602090815260408083209386168352928152919020825161352892840190614c94565b506001600160a01b0380851660008181526012602090815260408083208786168452825280832093835260138252808320948e16835293905291909120548061365c57613573614d6d565b6001600160a01b038c168152604080516020808b0282810182019093528a825290918b918b91829185019084908082843760009201829052506020868101958652885460018082018b558a845292829020885160029092020180546001600160a01b0319166001600160a01b039092169190911781559551805188979650613602955092860193500190614c94565b505050828054905060136000896001600160a01b03166001600160a01b0316815260200190815260200160002060008e6001600160a01b03166001600160a01b031681526020019081526020016000208190555050613716565b6001600160a01b03808716600090815260126020908152604080832093881683529290529081208054600019840190811061369357fe5b9060005260206000209060020201905060005b6001820154811015613713576136f08a8a838181106136c157fe5b905060200201358360010183815481106136d757fe5b9060005260206000200154614a4d90919063ffffffff16565b8260010182815481106136ff57fe5b6000918252602090912001556001016136a6565b50505b505050505050505050505050565b6001600160a01b0381166000908152600860209081526040918290206001018054835181840281018401909452808452606093928301828280156112a2576020028201919060005260206000209081546001600160a01b031681526001909101906020018083116115a15750505050509050919050565b600c60205281600052604060002081815481106137b457fe5b6000918252602090912001546001600160a01b03169150829050565b6001600160a01b0380831660009081526011602090815260408083209385168352929052908120548190613805579050610ad3565b60405163160d2eb160e21b8152613888903090635834bac49061383190889088906000906004016154ce565b60206040518083038186803b15801561384957600080fd5b505afa15801561385d573d6000803e3d6000fd5b505050506040513d601f19601f820116820180604052508101906138819190615414565b8290614a4d565b60405163160d2eb160e21b81529091506138b7903090635834bac49061383190889088906001906004016154ce565b60405163160d2eb160e21b81529091506138e6903090635834bac49061383190889088906002906004016154ce565b60405163160d2eb160e21b8152909150613915903090635834bac49061383190889088906003906004016154ce565b6001600160a01b038086166000908152600d6020908152604080832054601183528184209489168452939091528120805493945061397293611c7f929061395857fe5b90600052602060002001548461419c90919063ffffffff16565b949350505050565b6001600160a01b0381166000908152600860209081526040918290208054835181840281018401909452808452606093928301828280156112a2576020028201919060005260206000209081546001600160a01b031681526001909101906020018083116115a15750505050509050919050565b6001600160a01b038083166000908152600e6020908152604080832093851683529290528181205491516346bead8960e01b815290916124229130906346bead8990610f4890889088906004016154b4565b60065460405163edb12adf60e01b81526001600160a01b039091169063edb12adf90613a70908490600401615487565b600060405180830381600087803b158015613a8a57600080fd5b505af1925050508015613a9b575060015b506040516346d480dd60e11b81523090638da901ba90613abf908490600401615487565b60206040518083038186803b158015613ad757600080fd5b505afa158015613aeb573d6000803e3d6000fd5b505050506040513d601f19601f82011682018060405250810190613b0f91906153c1565b1561296b57600554604051636e0cf42160e11b81526101009091046001600160a01b03169063dc19e84290613b48908490600401615487565b60206040518083038186803b158015613b6057600080fd5b505afa158015613b74573d6000803e3d6000fd5b505050506040513d601f19601f82011682018060405250810190613b9891906153c1565b613bb45760405162461bcd60e51b815260040161107e906158a0565b806001600160a01b0316635468d6d76040518163ffffffff1660e01b815260040160206040518083038186803b158015613bed57600080fd5b505afa158015613c01573d6000803e3d6000fd5b505050506040513d601f19601f82011682018060405250810190613c2591906153c1565b613c415760405162461bcd60e51b815260040161107e9061596d565b6040516327304dfd60e01b81526001600160a01b038216906327304dfd90613c6d903390600401615487565b60206040518083038186803b158015613c8557600080fd5b505afa158015613c99573d6000803e3d6000fd5b505050506040513d601f19601f82011682018060405250810190613cbd91906153c1565b80613d495750336001600160a01b0316816001600160a01b0316633018205f6040518163ffffffff1660e01b815260040160206040518083038186803b158015613d0657600080fd5b505afa158015613d1a573d6000803e3d6000fd5b505050506040513d601f19601f82011682018060405250810190613d3e9190614f91565b6001600160a01b0316145b613d655760405162461bcd60e51b815260040161107e9061585d565b60405163763d25a960e11b8152600090309063ec7a4b5290613d8d90859033906004016154b4565b60206040518083038186803b158015613da557600080fd5b505afa158015613db9573d6000803e3d6000fd5b505050506040513d601f19601f82011682018060405250810190613ddd9190615414565b905060008111613dff5760405162461bcd60e51b815260040161107e906156fb565b6001600160a01b0382166000818152600e602090815260408083203384528252808320805486019055928252600a905290812054613e3e906001614a4d565b6001600160a01b0384166000908152600c60205260408120805492935090918290613e6557fe5b60009182526020822001546001600160a01b03169150613e84336142f0565b613e8e5733613eff565b336001600160a01b0316638da5cb5b6040518163ffffffff1660e01b815260040160206040518083038186803b158015613ec757600080fd5b505afa158015613edb573d6000803e3d6000fd5b505050506040513d601f19601f82011682018060405250810190613eff9190614f91565b9050613f09614d85565b826001600160a01b031663313ce5676040518163ffffffff1660e01b815260040160206040518083038186803b158015613f4257600080fd5b505afa158015613f56573d6000803e3d6000fd5b505050506040513d601f19601f82011682018060405250810190613f7a919061542c565b60ff1660208201526001600160a01b03831680825260408083018790525163a9059cbb60e01b815263a9059cbb90613fb8908590899060040161549b565b602060405180830381600087803b158015613fd257600080fd5b505af1158015613fe6573d6000803e3d6000fd5b505050506040513d601f19601f8201168201806040525081019061400a91906153c1565b506001600160a01b039586166000908152600a60209081526040808320879055600b825280832096835295815285822042815560019081018054808301825590845292829020845160039094020180546001600160a01b031916939099169290921788558201519087015590920151600290940193909355505050565b600a6020526000908152604090205481565b6001600160a01b0381166000908152600f60205260408120816140bb82614a72565b905060005b81811015614152573063e65065d9866140d98685614a7d565b6040518363ffffffff1660e01b81526004016140f69291906154b4565b60206040518083038186803b15801561410e57600080fd5b505afa158015614122573d6000803e3d6000fd5b505050506040513d601f19601f820116820180604052508101906141469190615414565b909301926001016140c0565b505050919050565b600061242283836040518060400160405280601e81526020017f536166654d6174683a207375627472616374696f6e206f766572666c6f770000815250614a89565b6000826141ab57506000610ad3565b828202828482816141b857fe5b04146124225760405162461bcd60e51b815260040161107e906158d2565b600061242283836040518060400160405280601a815260200179536166654d6174683a206469766973696f6e206279207a65726f60301b815250614ab5565b6000805b60048110156142e9578061424f57825151841080159061423d575060208301515184105b1561424f575050805160200151610ad3565b8060011415614285576020830151518410801590614271575060408301515184105b156142855750506020808201510151610ad3565b80600214156142bc5760408301515184108015906142a7575060608301515184105b156142bc575050604081015160200151610ad3565b80600314156142e15760608301515184106142e1575050606081015160200151610ad3565b600101614219565b5092915050565b6000813f7fc5d2460186f7233c927e7db2dcc703c0e500b653ca82273b7bfad8045d85a470818114801590613972575050151592915050565b6060806004831061434c5760405162461bcd60e51b815260040161107e906157b5565b614354614bd0565b6001600160a01b0385166000908152600860209081526040918290208251815461012093810282018401909452610100810184815290939192849284918401828280156143ca57602002820191906000526020600020905b81546001600160a01b031681526001909101906020018083116143ac575b505050505081526020016001820180548060200260200160405190810160405280929190818152602001828054801561442c57602002820191906000526020600020905b81546001600160a01b0316815260019091019060200180831161440e575b505050505081526020016002820180548060200260200160405190810160405280929190818152602001828054801561448e57602002820191906000526020600020905b81546001600160a01b03168152600190910190602001808311614470575b50505050508152602001600382018054806020026020016040519081016040528092919081815260200182805480156144f057602002820191906000526020600020905b81546001600160a01b031681526001909101906020018083116144d2575b505050505081526020016004820180548060200260200160405190810160405280929190818152602001828054801561454857602002820191906000526020600020905b815481526020019060010190808311614534575b50505050508152602001600582018054806020026020016040519081016040528092919081815260200182805480156145a057602002820191906000526020600020905b81548152602001906001019080831161458c575b50505050508152602001600682018054806020026020016040519081016040528092919081815260200182805480156145f857602002820191906000526020600020905b8154815260200190600101908083116145e4575b505050505081526020016007820180548060200260200160405190810160405280929190818152602001828054801561465057602002820191906000526020600020905b81548152602001906001019080831161463c575b50505050508152505090508360001415614671578051608082015190935091505b836001141561468957806020015192508060a0015191505b83600214156146a157806040015192508060c0015191505b83600314156146b957806060015192508060e0015191505b509250929050565b60608087806001600160401b03811180156146db57600080fd5b50604051908082528060200260200182016040528015614705578160200160208202803683370190505b509250806001600160401b038111801561471e57600080fd5b50604051908082528060200260200182016040528015614748578160200160208202803683370190505b5091508351855114801561475b57508451155b8061477f57506001600160a01b03861660009081526009602052604090205460ff16155b156148145760005b8181101561480e578a8a8281811061479b57fe5b90506020020160208101906147b09190614f75565b8482815181106147bc57fe5b60200260200101906001600160a01b031690816001600160a01b0316815250508888828181106147e857fe5b905060200201358382815181106147fb57fe5b6020908102919091010152600101614787565b5061491a565b60005b81811015614918578a8a8281811061482b57fe5b90506020020160208101906148409190614f75565b6001600160a01b031686828151811061485557fe5b60200260200101516001600160a01b0316141561491057600089898381811061487a57fe5b9050602002013590508b8b8381811061488f57fe5b90506020020160208101906148a49190614f75565b8583815181106148b057fe5b60200260200101906001600160a01b031690816001600160a01b0316815250506148f6818784815181106148e057fe5b6020026020010151614a4d90919063ffffffff16565b84838151811061490257fe5b602002602001018181525050505b600101614817565b505b5097509795505050505050565b6001600160a01b03841660009081526008602052604090208361496e5782516149569082906020860190614c2f565b50815161496c9060048301906020850190614c94565b505b83600114156149a457825161498c9060018301906020860190614c2f565b5081516149a29060058301906020850190614c94565b505b83600214156149da5782516149c29060028301906020860190614c2f565b5081516149d89060068301906020850190614c94565b505b8360031415614a105782516149f89060038301906020860190614c2f565b508151614a0e9060078301906020850190614c94565b505b5050505050565b60608061242283614aec565b6000612422836001600160a01b038416614b46565b6000612422836001600160a01b038416614b5e565b6000828201838110156124225760405162461bcd60e51b815260040161107e90615726565b6000610ad382614ba8565b60006124228383614bac565b60008184841115614aad5760405162461bcd60e51b815260040161107e919061567c565b505050900390565b60008183614ad65760405162461bcd60e51b815260040161107e919061567c565b506000838581614ae257fe5b0495945050505050565b6060816000018054806020026020016040519081016040528092919081815260200182805480156112a2576020028201919060005260206000209081548152602001906001019080831161128e5750505050509050919050565b60009081526001919091016020526040902054151590565b6000614b6a8383614b46565b614ba057508154600181810184556000848152602080822090930184905584548482528286019093526040902091909155610ad3565b506000610ad3565b5490565b6000826000018281548110614bbd57fe5b9060005260206000200154905092915050565b60405180610100016040528060608152602001606081526020016060815260200160608152602001606081526020016060815260200160608152602001606081525090565b604051806040016040528060008152602001606081525090565b828054828255906000526020600020908101928215614c84579160200282015b82811115614c8457825182546001600160a01b0319166001600160a01b03909116178255602090920191600190910190614c4f565b50614c90929150614daf565b5090565b828054828255906000526020600020908101928215614ccf579160200282015b82811115614ccf578251825591602001919060010190614cb4565b50614c90929150614dce565b6040518060800160405280614cee614de3565b8152602001614cfb614de3565b8152602001614d08614de3565b8152602001614d15614de3565b905290565b828054828255906000526020600020908101928215614c84579160200282015b82811115614c845781546001600160a01b0319166001600160a01b03843516178255602090920191600190910190614d3a565b60408051808201909152600081526060602082015290565b604051806060016040528060006001600160a01b0316815260200160008152602001600081525090565b5b80821115614c905780546001600160a01b0319168155600101614db0565b5b80821115614c905760008155600101614dcf565b6040518060800160405280614df6614e19565b8152602001614e03614e19565b8152602001614e10614e19565b8152602001614d155b604051806040016040528060008152602001600081525090565b60008083601f840112614e44578182fd5b5081356001600160401b03811115614e5a578182fd5b6020830191508360208083028501011115614e7457600080fd5b9250929050565b600082601f830112614e8b578081fd5b8135614e9e614e99826159cf565b6159a9565b818152915060208083019084810181840286018201871015614ebf57600080fd5b60005b84811015611c9957813584529282019290820190600101614ec2565b60006101008284031215614ef0578081fd5b614efa60806159a9565b9050614f068383614f44565b8152614f158360408401614f44565b6020820152614f278360808401614f44565b6040820152614f398360c08401614f44565b606082015292915050565b600060408284031215614f55578081fd5b614f5f60406159a9565b9050813581526020820135602082015292915050565b600060208284031215614f86578081fd5b8135612422816159ee565b600060208284031215614fa2578081fd5b8151612422816159ee565b60008060408385031215614fbf578081fd5b8235614fca816159ee565b91506020830135614fda816159ee565b809150509250929050565b60008060008060008060808789031215614ffd578182fd5b8635615008816159ee565b95506020870135615018816159ee565b945060408701356001600160401b0380821115615033578384fd5b61503f8a838b01614e33565b90965094506060890135915080821115615057578384fd5b5061506489828a01614e33565b979a9699509497509295939492505050565b60008060006060848603121561508a578283fd5b8335615095816159ee565b925060208401356150a5816159ee565b929592945050506040919091013590565b600080604083850312156150c8578182fd5b82356150d3816159ee565b91506020830135614fda81615a03565b6000808284036104208112156150f7578283fd5b8335615102816159ee565b9250610400601f1982011215615116578182fd5b5061512160806159a9565b61512e8560208601614ede565b815261513e856101208601614ede565b6020820152615151856102208601614ede565b6040820152615164856103208601614ede565b6060820152809150509250929050565b60008060408385031215615186578182fd5b8235615191816159ee565b946020939093013593505050565b600080600080600080608087890312156151b7578384fd5b86356151c2816159ee565b95506020870135945060408701356001600160401b0380821115615033578586fd5b600060208083850312156151f6578182fd5b82516001600160401b0381111561520b578283fd5b8301601f8101851361521b578283fd5b8051615229614e99826159cf565b8181528381019083850185840285018601891015615245578687fd5b8694505b8385101561527057805161525c816159ee565b835260019490940193918501918501615249565b50979650505050505050565b6000806040838503121561528e578182fd5b82356001600160401b03808211156152a4578384fd5b818501915085601f8301126152b7578384fd5b81356152c5614e99826159cf565b80828252602080830192508086018a8283870289010111156152e5578889fd5b8896505b848710156153105780356152fc816159ee565b8452600196909601959281019281016152e9565b509096508701359350505080821115615327578283fd5b5061533485828601614e7b565b9150509250929050565b60006020808385031215615350578182fd5b82516001600160401b03811115615365578283fd5b8301601f81018513615375578283fd5b8051615383614e99826159cf565b818152838101908385018584028501860189101561539f578687fd5b8694505b838510156152705780518352600194909401939185019185016153a3565b6000602082840312156153d2578081fd5b815161242281615a03565b6000602082840312156153ee578081fd5b815160028110612422578182fd5b60006020828403121561540d578081fd5b5035919050565b600060208284031215615425578081fd5b5051919050565b60006020828403121561543d578081fd5b815160ff81168114612422578182fd5b6000815180845260208085019450808401835b8381101561547c57815187529582019590820190600101615460565b509495945050505050565b6001600160a01b0391909116815260200190565b6001600160a01b03929092168252602082015260400190565b6001600160a01b0392831681529116602082015260400190565b6001600160a01b039384168152919092166020820152604081019190915260600190565b6020808252825182820181905260009190848201906040850190845b818110156155335783516001600160a01b03168352928401929184019160010161550e565b50909695505050505050565b60208082528251828201819052600091906040908185019080840286018301878501865b838110156155e457888303603f19018552815180518452870151878401879052805187850181905290880190606090818601908b5b818110156155ce57845180516001600160a01b031684528c8101518d8501528b01518b840152938b019391830191600101615598565b5050968901969450505090860190600101615563565b509098975050505050505050565b60208082528251828201819052600091906040908185019080840286018301878501865b838110156155e457888303603f19018552815180516001600160a01b0316845287015187840187905261564b8785018261544d565b9588019593505090860190600101615616565b600060208252612422602083018461544d565b901515815260200190565b6000602080835283518082850152825b818110156156a85785810183015185820160400152820161568c565b818111156156b95783604083870101525b50601f01601f1916929092016040019392505050565b60208082526012908201527122a9292fa727aa2fa1a7a72a2927a62622a960711b604082015260600190565b60208082526011908201527011549497d21054d7d393d7d49155d05491607a1b604082015260600190565b6020808252601b908201527a536166654d6174683a206164646974696f6e206f766572666c6f7760281b604082015260600190565b6020808252600c908201526b696e697469616c697a65642160a01b604082015260600190565b6020808252601a908201527908aa4a4bea89e968a9cbe988a9c8ea890be9c9ea8be9a82a886960331b604082015260600190565b6020808252600990820152684552525f545950455360b81b604082015260600190565b60208082526010908201526f20b2323932b9b99034b99027bbb732b960811b604082015260600190565b6020808252601790820152764552525f494e56414c49445f4b4f4c5f4144445245535360481b604082015260600190565b60208082526010908201526f4552525f5a45524f5f4144445245535360801b604082015260600190565b6020808252600990820152682737ba1027bbb732b960b91b604082015260600190565b60208082526006908201526506f776e6572560d41b604082015260600190565b6020808252601890820152774552525f494e56414c49445f504f4f4c5f4144445245535360401b604082015260600190565b60208082526021908201527f536166654d6174683a206d756c7469706c69636174696f6e206f766572666c6f6040820152607760f81b606082015260800190565b6020808252600d908201526c11549497d21054d7d4d1551151609a1b604082015260600190565b6020808252601990820152784552525f494e56414c49445f5641554c545f4144445245535360381b604082015260600190565b60208082526019908201527811549497d393d517d0d3d354131155115117d0d3d3131150d5603a1b604082015260600190565b90815260200190565b6040518181016001600160401b03811182821017156159c757600080fd5b604052919050565b60006001600160401b038211156159e4578081fd5b5060209081020190565b6001600160a01b038116811461296b57600080fd5b801515811461296b57600080fdfea2646970667358221220e8d76a55bc6232e898728783d31f037fa8bba5effba19b1cc14806d69370bd3964736f6c634300060c0033",
  "devdoc": {
    "author": "Desyn Labs",
    "kind": "dev",
    "methods": {
      "getController()": {
        "details": "external for gas optimization",
        "returns": {
          "_0": "address - of the owner (AKA controller)"
        }
      },
      "removeOwner(address)": {
        "details": "Allows to remove an owner. Transaction has to be sent by wallet.",
        "params": {
          "owner": "Address of owner."
        }
      },
      "setAddAdminList(address,uint256)": {
        "details": "external for gas optimization",
        "params": {
          "newOwner": "- address of new owner"
        }
      },
      "setController(address)": {
        "details": "external for gas optimization",
        "params": {
          "newOwner": "- address of new owner"
        }
      }
    },
    "title": "Vault managerFee",
    "version": 1
  },
  "userdoc": {
    "kind": "user",
    "methods": {
      "getController()": {
        "notice": "Returns the address of the current owner"
      },
      "setAddAdminList(address,uint256)": {
        "notice": "Transfers ownership of the contract to a new account (`newOwner`).         Can only be called by the current owner"
      },
      "setController(address)": {
        "notice": "Transfers ownership of the contract to a new account (`newOwner`).         Can only be called by the current owner"
      }
    },
    "version": 1
  },
  "storageLayout": {
    "storage": [
      {
        "astId": 18033,
        "contract": "contracts/deploy/UserVault.sol:UserVault",
        "label": "_owner",
        "offset": 0,
        "slot": "0",
        "type": "t_address"
      },
      {
        "astId": 18037,
        "contract": "contracts/deploy/UserVault.sol:UserVault",
        "label": "adminList",
        "offset": 0,
        "slot": "1",
        "type": "t_mapping(t_address,t_bool)"
      },
      {
        "astId": 18040,
        "contract": "contracts/deploy/UserVault.sol:UserVault",
        "label": "owners",
        "offset": 0,
        "slot": "2",
        "type": "t_array(t_address)dyn_storage"
      },
      {
        "astId": 18043,
        "contract": "contracts/deploy/UserVault.sol:UserVault",
        "label": "ownerPercentage",
        "offset": 0,
        "slot": "3",
        "type": "t_array(t_uint256)dyn_storage"
      },
      {
        "astId": 18045,
        "contract": "contracts/deploy/UserVault.sol:UserVault",
        "label": "allOwnerPercentage",
        "offset": 0,
        "slot": "4",
        "type": "t_uint256"
      },
      {
        "astId": 18047,
        "contract": "contracts/deploy/UserVault.sol:UserVault",
        "label": "initialized",
        "offset": 0,
        "slot": "5",
        "type": "t_bool"
      },
      {
        "astId": 10170,
        "contract": "contracts/deploy/UserVault.sol:UserVault",
        "label": "crpFactory",
        "offset": 1,
        "slot": "5",
        "type": "t_contract(ICRPFactory)10156"
      },
      {
        "astId": 10172,
        "contract": "contracts/deploy/UserVault.sol:UserVault",
        "label": "vaultAddress",
        "offset": 0,
        "slot": "6",
        "type": "t_address"
      },
      {
        "astId": 10235,
        "contract": "contracts/deploy/UserVault.sol:UserVault",
        "label": "pool_manager",
        "offset": 0,
        "slot": "7",
        "type": "t_mapping(t_address,t_address)"
      },
      {
        "astId": 10239,
        "contract": "contracts/deploy/UserVault.sol:UserVault",
        "label": "poolsTokens",
        "offset": 0,
        "slot": "8",
        "type": "t_mapping(t_address,t_struct(PoolTokens)10216_storage)"
      },
      {
        "astId": 10243,
        "contract": "contracts/deploy/UserVault.sol:UserVault",
        "label": "poolsStatus",
        "offset": 0,
        "slot": "9",
        "type": "t_mapping(t_address,t_struct(PoolStatus)10225_storage)"
      },
      {
        "astId": 10247,
        "contract": "contracts/deploy/UserVault.sol:UserVault",
        "label": "record_number",
        "offset": 0,
        "slot": "10",
        "type": "t_mapping(t_address,t_uint256)"
      },
      {
        "astId": 10253,
        "contract": "contracts/deploy/UserVault.sol:UserVault",
        "label": "record_List",
        "offset": 0,
        "slot": "11",
        "type": "t_mapping(t_address,t_mapping(t_uint256,t_struct(ClaimRecordInfo)10191_storage))"
      },
      {
        "astId": 10258,
        "contract": "contracts/deploy/UserVault.sol:UserVault",
        "label": "kol_token_list",
        "offset": 0,
        "slot": "12",
        "type": "t_mapping(t_address,t_array(t_address)dyn_storage)"
      },
      {
        "astId": 10262,
        "contract": "contracts/deploy/UserVault.sol:UserVault",
        "label": "init_totalAmount_list",
        "offset": 0,
        "slot": "13",
        "type": "t_mapping(t_address,t_uint256)"
      },
      {
        "astId": 10268,
        "contract": "contracts/deploy/UserVault.sol:UserVault",
        "label": "manager_claimed_list",
        "offset": 0,
        "slot": "14",
        "type": "t_mapping(t_address,t_mapping(t_address,t_uint256))"
      },
      {
        "astId": 10272,
        "contract": "contracts/deploy/UserVault.sol:UserVault",
        "label": "kols_list",
        "offset": 0,
        "slot": "15",
        "type": "t_mapping(t_address,t_struct(AddressSet)9934_storage)"
      },
      {
        "astId": 10278,
        "contract": "contracts/deploy/UserVault.sol:UserVault",
        "label": "kol_claimed_list",
        "offset": 0,
        "slot": "16",
        "type": "t_mapping(t_address,t_mapping(t_address,t_uint256))"
      },
      {
        "astId": 10285,
        "contract": "contracts/deploy/UserVault.sol:UserVault",
        "label": "kol_totalAmount_list",
        "offset": 0,
        "slot": "17",
        "type": "t_mapping(t_address,t_mapping(t_address,t_array(t_uint256)dyn_storage))"
      },
      {
        "astId": 10292,
        "contract": "contracts/deploy/UserVault.sol:UserVault",
        "label": "kol_user_info",
        "offset": 0,
        "slot": "18",
        "type": "t_mapping(t_address,t_mapping(t_address,t_array(t_struct(KolUserInfo)10231_storage)dyn_storage))"
      },
      {
        "astId": 10298,
        "contract": "contracts/deploy/UserVault.sol:UserVault",
        "label": "user_index_list",
        "offset": 0,
        "slot": "19",
        "type": "t_mapping(t_address,t_mapping(t_address,t_uint256))"
      },
      {
        "astId": 10304,
        "contract": "contracts/deploy/UserVault.sol:UserVault",
        "label": "user_kol_list",
        "offset": 0,
        "slot": "20",
        "type": "t_mapping(t_address,t_mapping(t_address,t_address))"
      },
      {
        "astId": 10307,
        "contract": "contracts/deploy/UserVault.sol:UserVault",
        "label": "RATIO_TOTAL",
        "offset": 0,
        "slot": "21",
        "type": "t_uint256"
      }
    ],
    "types": {
      "t_address": {
        "encoding": "inplace",
        "label": "address",
        "numberOfBytes": "20"
      },
      "t_array(t_address)dyn_storage": {
        "base": "t_address",
        "encoding": "dynamic_array",
        "label": "address[]",
        "numberOfBytes": "32"
      },
      "t_array(t_bytes32)dyn_storage": {
        "base": "t_bytes32",
        "encoding": "dynamic_array",
        "label": "bytes32[]",
        "numberOfBytes": "32"
      },
      "t_array(t_struct(ClaimtokensInfo)10185_storage)dyn_storage": {
        "base": "t_struct(ClaimtokensInfo)10185_storage",
        "encoding": "dynamic_array",
        "label": "struct UserVault.ClaimtokensInfo[]",
        "numberOfBytes": "32"
      },
      "t_array(t_struct(KolUserInfo)10231_storage)dyn_storage": {
        "base": "t_struct(KolUserInfo)10231_storage",
        "encoding": "dynamic_array",
        "label": "struct UserVault.KolUserInfo[]",
        "numberOfBytes": "32"
      },
      "t_array(t_uint256)dyn_storage": {
        "base": "t_uint256",
        "encoding": "dynamic_array",
        "label": "uint256[]",
        "numberOfBytes": "32"
      },
      "t_bool": {
        "encoding": "inplace",
        "label": "bool",
        "numberOfBytes": "1"
      },
      "t_bytes32": {
        "encoding": "inplace",
        "label": "bytes32",
        "numberOfBytes": "32"
      },
      "t_contract(ICRPFactory)10156": {
        "encoding": "inplace",
        "label": "contract ICRPFactory",
        "numberOfBytes": "20"
      },
      "t_mapping(t_address,t_address)": {
        "encoding": "mapping",
        "key": "t_address",
        "label": "mapping(address => address)",
        "numberOfBytes": "32",
        "value": "t_address"
      },
      "t_mapping(t_address,t_array(t_address)dyn_storage)": {
        "encoding": "mapping",
        "key": "t_address",
        "label": "mapping(address => address[])",
        "numberOfBytes": "32",
        "value": "t_array(t_address)dyn_storage"
      },
      "t_mapping(t_address,t_array(t_struct(KolUserInfo)10231_storage)dyn_storage)": {
        "encoding": "mapping",
        "key": "t_address",
        "label": "mapping(address => struct UserVault.KolUserInfo[])",
        "numberOfBytes": "32",
        "value": "t_array(t_struct(KolUserInfo)10231_storage)dyn_storage"
      },
      "t_mapping(t_address,t_array(t_uint256)dyn_storage)": {
        "encoding": "mapping",
        "key": "t_address",
        "label": "mapping(address => uint256[])",
        "numberOfBytes": "32",
        "value": "t_array(t_uint256)dyn_storage"
      },
      "t_mapping(t_address,t_bool)": {
        "encoding": "mapping",
        "key": "t_address",
        "label": "mapping(address => bool)",
        "numberOfBytes": "32",
        "value": "t_bool"
      },
      "t_mapping(t_address,t_mapping(t_address,t_address))": {
        "encoding": "mapping",
        "key": "t_address",
        "label": "mapping(address => mapping(address => address))",
        "numberOfBytes": "32",
        "value": "t_mapping(t_address,t_address)"
      },
      "t_mapping(t_address,t_mapping(t_address,t_array(t_struct(KolUserInfo)10231_storage)dyn_storage))": {
        "encoding": "mapping",
        "key": "t_address",
        "label": "mapping(address => mapping(address => struct UserVault.KolUserInfo[]))",
        "numberOfBytes": "32",
        "value": "t_mapping(t_address,t_array(t_struct(KolUserInfo)10231_storage)dyn_storage)"
      },
      "t_mapping(t_address,t_mapping(t_address,t_array(t_uint256)dyn_storage))": {
        "encoding": "mapping",
        "key": "t_address",
        "label": "mapping(address => mapping(address => uint256[]))",
        "numberOfBytes": "32",
        "value": "t_mapping(t_address,t_array(t_uint256)dyn_storage)"
      },
      "t_mapping(t_address,t_mapping(t_address,t_uint256))": {
        "encoding": "mapping",
        "key": "t_address",
        "label": "mapping(address => mapping(address => uint256))",
        "numberOfBytes": "32",
        "value": "t_mapping(t_address,t_uint256)"
      },
      "t_mapping(t_address,t_mapping(t_uint256,t_struct(ClaimRecordInfo)10191_storage))": {
        "encoding": "mapping",
        "key": "t_address",
        "label": "mapping(address => mapping(uint256 => struct UserVault.ClaimRecordInfo))",
        "numberOfBytes": "32",
        "value": "t_mapping(t_uint256,t_struct(ClaimRecordInfo)10191_storage)"
      },
      "t_mapping(t_address,t_struct(AddressSet)9934_storage)": {
        "encoding": "mapping",
        "key": "t_address",
        "label": "mapping(address => struct EnumerableSet.AddressSet)",
        "numberOfBytes": "32",
        "value": "t_struct(AddressSet)9934_storage"
      },
      "t_mapping(t_address,t_struct(PoolStatus)10225_storage)": {
        "encoding": "mapping",
        "key": "t_address",
        "label": "mapping(address => struct UserVault.PoolStatus)",
        "numberOfBytes": "32",
        "value": "t_struct(PoolStatus)10225_storage"
      },
      "t_mapping(t_address,t_struct(PoolTokens)10216_storage)": {
        "encoding": "mapping",
        "key": "t_address",
        "label": "mapping(address => struct UserVault.PoolTokens)",
        "numberOfBytes": "32",
        "value": "t_struct(PoolTokens)10216_storage"
      },
      "t_mapping(t_address,t_uint256)": {
        "encoding": "mapping",
        "key": "t_address",
        "label": "mapping(address => uint256)",
        "numberOfBytes": "32",
        "value": "t_uint256"
      },
      "t_mapping(t_bytes32,t_uint256)": {
        "encoding": "mapping",
        "key": "t_bytes32",
        "label": "mapping(bytes32 => uint256)",
        "numberOfBytes": "32",
        "value": "t_uint256"
      },
      "t_mapping(t_uint256,t_struct(ClaimRecordInfo)10191_storage)": {
        "encoding": "mapping",
        "key": "t_uint256",
        "label": "mapping(uint256 => struct UserVault.ClaimRecordInfo)",
        "numberOfBytes": "32",
        "value": "t_struct(ClaimRecordInfo)10191_storage"
      },
      "t_struct(AddressSet)9934_storage": {
        "encoding": "inplace",
        "label": "struct EnumerableSet.AddressSet",
        "members": [
          {
            "astId": 9933,
            "contract": "contracts/deploy/UserVault.sol:UserVault",
            "label": "_inner",
            "offset": 0,
            "slot": "0",
            "type": "t_struct(Set)9747_storage"
          }
        ],
        "numberOfBytes": "64"
      },
      "t_struct(ClaimRecordInfo)10191_storage": {
        "encoding": "inplace",
        "label": "struct UserVault.ClaimRecordInfo",
        "members": [
          {
            "astId": 10187,
            "contract": "contracts/deploy/UserVault.sol:UserVault",
            "label": "time",
            "offset": 0,
            "slot": "0",
            "type": "t_uint256"
          },
          {
            "astId": 10190,
            "contract": "contracts/deploy/UserVault.sol:UserVault",
            "label": "tokens",
            "offset": 0,
            "slot": "1",
            "type": "t_array(t_struct(ClaimtokensInfo)10185_storage)dyn_storage"
          }
        ],
        "numberOfBytes": "64"
      },
      "t_struct(ClaimtokensInfo)10185_storage": {
        "encoding": "inplace",
        "label": "struct UserVault.ClaimtokensInfo",
        "members": [
          {
            "astId": 10180,
            "contract": "contracts/deploy/UserVault.sol:UserVault",
            "label": "token",
            "offset": 0,
            "slot": "0",
            "type": "t_address"
          },
          {
            "astId": 10182,
            "contract": "contracts/deploy/UserVault.sol:UserVault",
            "label": "decimals",
            "offset": 0,
            "slot": "1",
            "type": "t_uint256"
          },
          {
            "astId": 10184,
            "contract": "contracts/deploy/UserVault.sol:UserVault",
            "label": "amount",
            "offset": 0,
            "slot": "2",
            "type": "t_uint256"
          }
        ],
        "numberOfBytes": "96"
      },
      "t_struct(KolPoolParams)16742_storage": {
        "encoding": "inplace",
        "label": "struct SmartPoolManager.KolPoolParams",
        "members": [
          {
            "astId": 16735,
            "contract": "contracts/deploy/UserVault.sol:UserVault",
            "label": "managerFee",
            "offset": 0,
            "slot": "0",
            "type": "t_struct(feeParams)16733_storage"
          },
          {
            "astId": 16737,
            "contract": "contracts/deploy/UserVault.sol:UserVault",
            "label": "issueFee",
            "offset": 0,
            "slot": "8",
            "type": "t_struct(feeParams)16733_storage"
          },
          {
            "astId": 16739,
            "contract": "contracts/deploy/UserVault.sol:UserVault",
            "label": "redeemFee",
            "offset": 0,
            "slot": "16",
            "type": "t_struct(feeParams)16733_storage"
          },
          {
            "astId": 16741,
            "contract": "contracts/deploy/UserVault.sol:UserVault",
            "label": "perfermanceFee",
            "offset": 0,
            "slot": "24",
            "type": "t_struct(feeParams)16733_storage"
          }
        ],
        "numberOfBytes": "1024"
      },
      "t_struct(KolUserInfo)10231_storage": {
        "encoding": "inplace",
        "label": "struct UserVault.KolUserInfo",
        "members": [
          {
            "astId": 10227,
            "contract": "contracts/deploy/UserVault.sol:UserVault",
            "label": "userAdr",
            "offset": 0,
            "slot": "0",
            "type": "t_address"
          },
          {
            "astId": 10230,
            "contract": "contracts/deploy/UserVault.sol:UserVault",
            "label": "userAmount",
            "offset": 0,
            "slot": "1",
            "type": "t_array(t_uint256)dyn_storage"
          }
        ],
        "numberOfBytes": "64"
      },
      "t_struct(PoolStatus)10225_storage": {
        "encoding": "inplace",
        "label": "struct UserVault.PoolStatus",
        "members": [
          {
            "astId": 10218,
            "contract": "contracts/deploy/UserVault.sol:UserVault",
            "label": "couldManagerClaim",
            "offset": 0,
            "slot": "0",
            "type": "t_bool"
          },
          {
            "astId": 10220,
            "contract": "contracts/deploy/UserVault.sol:UserVault",
            "label": "isBlackList",
            "offset": 1,
            "slot": "0",
            "type": "t_bool"
          },
          {
            "astId": 10222,
            "contract": "contracts/deploy/UserVault.sol:UserVault",
            "label": "isSetParams",
            "offset": 2,
            "slot": "0",
            "type": "t_bool"
          },
          {
            "astId": 10224,
            "contract": "contracts/deploy/UserVault.sol:UserVault",
            "label": "kolPoolConfig",
            "offset": 0,
            "slot": "1",
            "type": "t_struct(KolPoolParams)16742_storage"
          }
        ],
        "numberOfBytes": "1056"
      },
      "t_struct(PoolTokens)10216_storage": {
        "encoding": "inplace",
        "label": "struct UserVault.PoolTokens",
        "members": [
          {
            "astId": 10194,
            "contract": "contracts/deploy/UserVault.sol:UserVault",
            "label": "tokenList",
            "offset": 0,
            "slot": "0",
            "type": "t_array(t_address)dyn_storage"
          },
          {
            "astId": 10197,
            "contract": "contracts/deploy/UserVault.sol:UserVault",
            "label": "issueTokens",
            "offset": 0,
            "slot": "1",
            "type": "t_array(t_address)dyn_storage"
          },
          {
            "astId": 10200,
            "contract": "contracts/deploy/UserVault.sol:UserVault",
            "label": "redeemTokens",
            "offset": 0,
            "slot": "2",
            "type": "t_array(t_address)dyn_storage"
          },
          {
            "astId": 10203,
            "contract": "contracts/deploy/UserVault.sol:UserVault",
            "label": "perfermanceTokens",
            "offset": 0,
            "slot": "3",
            "type": "t_array(t_address)dyn_storage"
          },
          {
            "astId": 10206,
            "contract": "contracts/deploy/UserVault.sol:UserVault",
            "label": "managerAmount",
            "offset": 0,
            "slot": "4",
            "type": "t_array(t_uint256)dyn_storage"
          },
          {
            "astId": 10209,
            "contract": "contracts/deploy/UserVault.sol:UserVault",
            "label": "issueAmount",
            "offset": 0,
            "slot": "5",
            "type": "t_array(t_uint256)dyn_storage"
          },
          {
            "astId": 10212,
            "contract": "contracts/deploy/UserVault.sol:UserVault",
            "label": "redeemAmount",
            "offset": 0,
            "slot": "6",
            "type": "t_array(t_uint256)dyn_storage"
          },
          {
            "astId": 10215,
            "contract": "contracts/deploy/UserVault.sol:UserVault",
            "label": "perfermanceAmount",
            "offset": 0,
            "slot": "7",
            "type": "t_array(t_uint256)dyn_storage"
          }
        ],
        "numberOfBytes": "256"
      },
      "t_struct(Set)9747_storage": {
        "encoding": "inplace",
        "label": "struct EnumerableSet.Set",
        "members": [
          {
            "astId": 9742,
            "contract": "contracts/deploy/UserVault.sol:UserVault",
            "label": "_values",
            "offset": 0,
            "slot": "0",
            "type": "t_array(t_bytes32)dyn_storage"
          },
          {
            "astId": 9746,
            "contract": "contracts/deploy/UserVault.sol:UserVault",
            "label": "_indexes",
            "offset": 0,
            "slot": "1",
            "type": "t_mapping(t_bytes32,t_uint256)"
          }
        ],
        "numberOfBytes": "64"
      },
      "t_struct(feeParams)16733_storage": {
        "encoding": "inplace",
        "label": "struct SmartPoolManager.feeParams",
        "members": [
          {
            "astId": 16726,
            "contract": "contracts/deploy/UserVault.sol:UserVault",
            "label": "firstLevel",
            "offset": 0,
            "slot": "0",
            "type": "t_struct(levelParams)16724_storage"
          },
          {
            "astId": 16728,
            "contract": "contracts/deploy/UserVault.sol:UserVault",
            "label": "secondLevel",
            "offset": 0,
            "slot": "2",
            "type": "t_struct(levelParams)16724_storage"
          },
          {
            "astId": 16730,
            "contract": "contracts/deploy/UserVault.sol:UserVault",
            "label": "thirdLevel",
            "offset": 0,
            "slot": "4",
            "type": "t_struct(levelParams)16724_storage"
          },
          {
            "astId": 16732,
            "contract": "contracts/deploy/UserVault.sol:UserVault",
            "label": "fourLevel",
            "offset": 0,
            "slot": "6",
            "type": "t_struct(levelParams)16724_storage"
          }
        ],
        "numberOfBytes": "256"
      },
      "t_struct(levelParams)16724_storage": {
        "encoding": "inplace",
        "label": "struct SmartPoolManager.levelParams",
        "members": [
          {
            "astId": 16721,
            "contract": "contracts/deploy/UserVault.sol:UserVault",
            "label": "level",
            "offset": 0,
            "slot": "0",
            "type": "t_uint256"
          },
          {
            "astId": 16723,
            "contract": "contracts/deploy/UserVault.sol:UserVault",
            "label": "ratio",
            "offset": 0,
            "slot": "1",
            "type": "t_uint256"
          }
        ],
        "numberOfBytes": "64"
      },
      "t_uint256": {
        "encoding": "inplace",
        "label": "uint256",
        "numberOfBytes": "32"
      }
    }
  }
}