{
  "address": "0x3d57b7f41B12da88E50d66ef0eCCBb2B9A75dfeE",
  "abi": [
    {
      "anonymous": false,
      "inputs": [
        {
          "indexed": true,
          "internalType": "address",
          "name": "newAdmin",
          "type": "address"
        },
        {
          "indexed": true,
          "internalType": "uint256",
          "name": "amount",
          "type": "uint256"
        }
      ],
      "name": "AddAdmin",
      "type": "event"
    },
    {
      "anonymous": false,
      "inputs": [
        {
          "indexed": true,
          "internalType": "address",
          "name": "manager",
          "type": "address"
        },
        {
          "indexed": true,
          "internalType": "address",
          "name": "caller",
          "type": "address"
        }
      ],
      "name": "LOGVaultAdr",
      "type": "event"
    },
    {
      "anonymous": false,
      "inputs": [
        {
          "indexed": true,
          "internalType": "address",
          "name": "previousOwner",
          "type": "address"
        },
        {
          "indexed": true,
          "internalType": "address",
          "name": "newOwner",
          "type": "address"
        }
      ],
      "name": "OwnershipTransferred",
      "type": "event"
    },
    {
      "anonymous": false,
      "inputs": [
        {
          "indexed": true,
          "internalType": "address",
          "name": "oldAdmin",
          "type": "address"
        },
        {
          "indexed": true,
          "internalType": "uint256",
          "name": "amount",
          "type": "uint256"
        }
      ],
      "name": "RemoveAdmin",
      "type": "event"
    },
    {
      "inputs": [],
      "name": "RATIO_TOTAL",
      "outputs": [
        {
          "internalType": "uint256",
          "name": "",
          "type": "uint256"
        }
      ],
      "stateMutability": "view",
      "type": "function"
    },
    {
      "inputs": [
        {
          "internalType": "address",
          "name": "pool",
          "type": "address"
        },
        {
          "internalType": "address",
          "name": "kol",
          "type": "address"
        },
        {
          "internalType": "uint256",
          "name": "types",
          "type": "uint256"
        }
      ],
      "name": "_computeReward",
      "outputs": [
        {
          "internalType": "uint256",
          "name": "",
          "type": "uint256"
        }
      ],
      "stateMutability": "view",
      "type": "function"
    },
    {
      "inputs": [
        {
          "internalType": "address",
          "name": "token",
          "type": "address"
        },
        {
          "internalType": "address",
          "name": "user",
          "type": "address"
        },
        {
          "internalType": "uint256",
          "name": "amount",
          "type": "uint256"
        }
      ],
      "name": "adminClaimToken",
      "outputs": [],
      "stateMutability": "nonpayable",
      "type": "function"
    },
    {
      "inputs": [
        {
          "internalType": "address",
          "name": "",
          "type": "address"
        }
      ],
      "name": "adminList",
      "outputs": [
        {
          "internalType": "bool",
          "name": "",
          "type": "bool"
        }
      ],
      "stateMutability": "view",
      "type": "function"
    },
    {
      "inputs": [],
      "name": "allOwnerPercentage",
      "outputs": [
        {
          "internalType": "uint256",
          "name": "",
          "type": "uint256"
        }
      ],
      "stateMutability": "view",
      "type": "function"
    },
    {
      "inputs": [
        {
          "internalType": "address",
          "name": "pool",
          "type": "address"
        }
      ],
      "name": "claimKolReward",
      "outputs": [],
      "stateMutability": "nonpayable",
      "type": "function"
    },
    {
      "inputs": [
        {
          "internalType": "address",
          "name": "pool",
          "type": "address"
        },
        {
          "internalType": "uint256",
          "name": "types",
          "type": "uint256"
        },
        {
          "internalType": "address[]",
          "name": "poolTokens",
          "type": "address[]"
        },
        {
          "internalType": "uint256[]",
          "name": "tokensAmount",
          "type": "uint256[]"
        }
      ],
      "name": "depositToken",
      "outputs": [],
      "stateMutability": "nonpayable",
      "type": "function"
    },
    {
      "inputs": [
        {
          "internalType": "address",
          "name": "pool",
          "type": "address"
        }
      ],
      "name": "getAllKolReward",
      "outputs": [
        {
          "internalType": "uint256",
          "name": "totalAmount",
          "type": "uint256"
        }
      ],
      "stateMutability": "view",
      "type": "function"
    },
    {
      "inputs": [
        {
          "internalType": "address",
          "name": "pool",
          "type": "address"
        }
      ],
      "name": "getAllManagersReward",
      "outputs": [
        {
          "internalType": "uint256",
          "name": "",
          "type": "uint256"
        }
      ],
      "stateMutability": "view",
      "type": "function"
    },
    {
      "inputs": [],
      "name": "getBNB",
      "outputs": [],
      "stateMutability": "payable",
      "type": "function"
    },
    {
      "inputs": [],
      "name": "getController",
      "outputs": [
        {
          "internalType": "address",
          "name": "",
          "type": "address"
        }
      ],
      "stateMutability": "view",
      "type": "function"
    },
    {
      "inputs": [
        {
          "internalType": "address",
          "name": "pool",
          "type": "address"
        }
      ],
      "name": "getKolsAdr",
      "outputs": [
        {
          "internalType": "address[]",
          "name": "",
          "type": "address[]"
        }
      ],
      "stateMutability": "view",
      "type": "function"
    },
    {
      "inputs": [
        {
          "internalType": "address",
          "name": "pool",
          "type": "address"
        }
      ],
      "name": "getManagerClaimBool",
      "outputs": [
        {
          "internalType": "bool",
          "name": "bools",
          "type": "bool"
        }
      ],
      "stateMutability": "view",
      "type": "function"
    },
    {
      "inputs": [
        {
          "internalType": "address",
          "name": "pool",
          "type": "address"
        },
        {
          "internalType": "address",
          "name": "maragerAdr",
          "type": "address"
        }
      ],
      "name": "getManagerReward",
      "outputs": [
        {
          "internalType": "uint256",
          "name": "",
          "type": "uint256"
        }
      ],
      "stateMutability": "view",
      "type": "function"
    },
    {
      "inputs": [],
      "name": "getOwnerPercentage",
      "outputs": [
        {
          "internalType": "uint256[]",
          "name": "",
          "type": "uint256[]"
        }
      ],
      "stateMutability": "view",
      "type": "function"
    },
    {
      "inputs": [],
      "name": "getOwners",
      "outputs": [
        {
          "internalType": "address[]",
          "name": "",
          "type": "address[]"
        }
      ],
      "stateMutability": "view",
      "type": "function"
    },
    {
      "inputs": [
        {
          "internalType": "address",
          "name": "pool",
          "type": "address"
        }
      ],
      "name": "getPoolAllFee",
      "outputs": [
        {
          "internalType": "uint256",
          "name": "totalAmount",
          "type": "uint256"
        }
      ],
      "stateMutability": "view",
      "type": "function"
    },
    {
      "inputs": [
        {
          "internalType": "address",
          "name": "pool",
          "type": "address"
        },
        {
          "internalType": "address",
          "name": "kol",
          "type": "address"
        }
      ],
      "name": "getPoolKolTotalAmounts",
      "outputs": [
        {
          "internalType": "uint256[]",
          "name": "",
          "type": "uint256[]"
        }
      ],
      "stateMutability": "view",
      "type": "function"
    },
    {
      "inputs": [
        {
          "internalType": "address",
          "name": "pool",
          "type": "address"
        },
        {
          "internalType": "address",
          "name": "kol",
          "type": "address"
        }
      ],
      "name": "getPoolKolUserInfo",
      "outputs": [
        {
          "components": [
            {
              "internalType": "address",
              "name": "userAdr",
              "type": "address"
            },
            {
              "internalType": "uint256[]",
              "name": "userAmount",
              "type": "uint256[]"
            }
          ],
          "internalType": "struct UserVault.KolUserInfo[]",
          "name": "info",
          "type": "tuple[]"
        }
      ],
      "stateMutability": "view",
      "type": "function"
    },
    {
      "inputs": [
        {
          "internalType": "address",
          "name": "pool",
          "type": "address"
        },
        {
          "internalType": "address",
          "name": "user",
          "type": "address"
        }
      ],
      "name": "getPoolUserKolAdr",
      "outputs": [
        {
          "internalType": "address",
          "name": "tokenAddress",
          "type": "address"
        }
      ],
      "stateMutability": "view",
      "type": "function"
    },
    {
      "inputs": [
        {
          "internalType": "address",
          "name": "pool",
          "type": "address"
        }
      ],
      "name": "getPoolUserList",
      "outputs": [
        {
          "internalType": "address[]",
          "name": "tokenList",
          "type": "address[]"
        }
      ],
      "stateMutability": "view",
      "type": "function"
    },
    {
      "inputs": [
        {
          "internalType": "address",
          "name": "pool",
          "type": "address"
        },
        {
          "internalType": "address",
          "name": "maragerAdr",
          "type": "address"
        }
      ],
      "name": "getUnManagerReward",
      "outputs": [
        {
          "internalType": "uint256",
          "name": "",
          "type": "uint256"
        }
      ],
      "stateMutability": "view",
      "type": "function"
    },
    {
      "inputs": [
        {
          "internalType": "address[]",
          "name": "_owners",
          "type": "address[]"
        },
        {
          "internalType": "uint256[]",
          "name": "_ownerPercentage",
          "type": "uint256[]"
        }
      ],
      "name": "initHandle",
      "outputs": [],
      "stateMutability": "nonpayable",
      "type": "function"
    },
    {
      "inputs": [
        {
          "internalType": "address",
          "name": "",
          "type": "address"
        }
      ],
      "name": "init_totalAmount_list",
      "outputs": [
        {
          "internalType": "uint256",
          "name": "",
          "type": "uint256"
        }
      ],
      "stateMutability": "view",
      "type": "function"
    },
    {
      "inputs": [
        {
          "internalType": "address",
          "name": "pool",
          "type": "address"
        }
      ],
      "name": "isClosePool",
      "outputs": [
        {
          "internalType": "bool",
          "name": "",
          "type": "bool"
        }
      ],
      "stateMutability": "view",
      "type": "function"
    },
    {
      "inputs": [
        {
          "internalType": "address",
          "name": "pool",
          "type": "address"
        },
        {
          "internalType": "address",
          "name": "kol",
          "type": "address"
        }
      ],
      "name": "kolClaimTotal",
      "outputs": [
        {
          "internalType": "uint256",
          "name": "",
          "type": "uint256"
        }
      ],
      "stateMutability": "view",
      "type": "function"
    },
    {
      "inputs": [
        {
          "internalType": "address",
          "name": "pool",
          "type": "address"
        },
        {
          "internalType": "address",
          "name": "kol",
          "type": "address"
        }
      ],
      "name": "kolUnClaimAmount",
      "outputs": [
        {
          "internalType": "uint256",
          "name": "",
          "type": "uint256"
        }
      ],
      "stateMutability": "view",
      "type": "function"
    },
    {
      "inputs": [
        {
          "internalType": "address",
          "name": "",
          "type": "address"
        },
        {
          "internalType": "address",
          "name": "",
          "type": "address"
        }
      ],
      "name": "kol_claimed_list",
      "outputs": [
        {
          "internalType": "uint256",
          "name": "",
          "type": "uint256"
        }
      ],
      "stateMutability": "view",
      "type": "function"
    },
    {
      "inputs": [
        {
          "internalType": "address",
          "name": "",
          "type": "address"
        },
        {
          "internalType": "uint256",
          "name": "",
          "type": "uint256"
        }
      ],
      "name": "kol_token_list",
      "outputs": [
        {
          "internalType": "address",
          "name": "",
          "type": "address"
        }
      ],
      "stateMutability": "view",
      "type": "function"
    },
    {
      "inputs": [
        {
          "internalType": "address",
          "name": "",
          "type": "address"
        },
        {
          "internalType": "address",
          "name": "",
          "type": "address"
        },
        {
          "internalType": "uint256",
          "name": "",
          "type": "uint256"
        }
      ],
      "name": "kol_totalAmount_list",
      "outputs": [
        {
          "internalType": "uint256",
          "name": "",
          "type": "uint256"
        }
      ],
      "stateMutability": "view",
      "type": "function"
    },
    {
      "inputs": [
        {
          "internalType": "address",
          "name": "",
          "type": "address"
        },
        {
          "internalType": "address",
          "name": "",
          "type": "address"
        },
        {
          "internalType": "uint256",
          "name": "",
          "type": "uint256"
        }
      ],
      "name": "kol_user_info",
      "outputs": [
        {
          "internalType": "address",
          "name": "userAdr",
          "type": "address"
        }
      ],
      "stateMutability": "view",
      "type": "function"
    },
    {
      "inputs": [
        {
          "internalType": "address",
          "name": "pool",
          "type": "address"
        }
      ],
      "name": "managerClaim",
      "outputs": [],
      "stateMutability": "nonpayable",
      "type": "function"
    },
    {
      "inputs": [
        {
          "internalType": "address",
          "name": "pool",
          "type": "address"
        }
      ],
      "name": "managerClaimList",
      "outputs": [
        {
          "components": [
            {
              "internalType": "address",
              "name": "token",
              "type": "address"
            },
            {
              "internalType": "uint256",
              "name": "decimals",
              "type": "uint256"
            },
            {
              "internalType": "uint256",
              "name": "amount",
              "type": "uint256"
            }
          ],
          "internalType": "struct UserVault.ClaimTokenInfo[1]",
          "name": "",
          "type": "tuple[1]"
        }
      ],
      "stateMutability": "view",
      "type": "function"
    },
    {
      "inputs": [
        {
          "internalType": "address",
          "name": "pool",
          "type": "address"
        }
      ],
      "name": "managerClaimRecordList",
      "outputs": [
        {
          "components": [
            {
              "internalType": "uint256",
              "name": "time",
              "type": "uint256"
            },
            {
              "components": [
                {
                  "internalType": "address",
                  "name": "token",
                  "type": "address"
                },
                {
                  "internalType": "uint256",
                  "name": "decimals",
                  "type": "uint256"
                },
                {
                  "internalType": "uint256",
                  "name": "amount",
                  "type": "uint256"
                }
              ],
              "internalType": "struct UserVault.ClaimTokenInfo[]",
              "name": "tokens",
              "type": "tuple[]"
            }
          ],
          "internalType": "struct UserVault.ClaimRecordInfo[]",
          "name": "claimRecordInfos",
          "type": "tuple[]"
        }
      ],
      "stateMutability": "view",
      "type": "function"
    },
    {
      "inputs": [
        {
          "internalType": "address",
          "name": "",
          "type": "address"
        },
        {
          "internalType": "address",
          "name": "",
          "type": "address"
        }
      ],
      "name": "manager_claimed_list",
      "outputs": [
        {
          "internalType": "uint256",
          "name": "",
          "type": "uint256"
        }
      ],
      "stateMutability": "view",
      "type": "function"
    },
    {
      "inputs": [
        {
          "internalType": "uint256",
          "name": "",
          "type": "uint256"
        }
      ],
      "name": "ownerPercentage",
      "outputs": [
        {
          "internalType": "uint256",
          "name": "",
          "type": "uint256"
        }
      ],
      "stateMutability": "view",
      "type": "function"
    },
    {
      "inputs": [
        {
          "internalType": "uint256",
          "name": "",
          "type": "uint256"
        }
      ],
      "name": "owners",
      "outputs": [
        {
          "internalType": "address",
          "name": "",
          "type": "address"
        }
      ],
      "stateMutability": "view",
      "type": "function"
    },
    {
      "inputs": [
        {
          "internalType": "address",
          "name": "pool",
          "type": "address"
        }
      ],
      "name": "poolIssueTokenAmount",
      "outputs": [
        {
          "internalType": "uint256[]",
          "name": "tokenAmount",
          "type": "uint256[]"
        }
      ],
      "stateMutability": "view",
      "type": "function"
    },
    {
      "inputs": [
        {
          "internalType": "address",
          "name": "pool",
          "type": "address"
        }
      ],
      "name": "poolIssueTokenList",
      "outputs": [
        {
          "internalType": "address[]",
          "name": "tokens",
          "type": "address[]"
        }
      ],
      "stateMutability": "view",
      "type": "function"
    },
    {
      "inputs": [
        {
          "internalType": "address",
          "name": "pool",
          "type": "address"
        }
      ],
      "name": "poolManagerTokenAmount",
      "outputs": [
        {
          "internalType": "uint256[]",
          "name": "tokenAmount",
          "type": "uint256[]"
        }
      ],
      "stateMutability": "view",
      "type": "function"
    },
    {
      "inputs": [
        {
          "internalType": "address",
          "name": "pool",
          "type": "address"
        }
      ],
      "name": "poolManagerTokenList",
      "outputs": [
        {
          "internalType": "address[]",
          "name": "tokens",
          "type": "address[]"
        }
      ],
      "stateMutability": "view",
      "type": "function"
    },
    {
      "inputs": [
        {
          "internalType": "address",
          "name": "pool",
          "type": "address"
        }
      ],
      "name": "poolPerfermanceTokenAmount",
      "outputs": [
        {
          "internalType": "uint256[]",
          "name": "tokenAmount",
          "type": "uint256[]"
        }
      ],
      "stateMutability": "view",
      "type": "function"
    },
    {
      "inputs": [
        {
          "internalType": "address",
          "name": "pool",
          "type": "address"
        }
      ],
      "name": "poolPerfermanceTokenList",
      "outputs": [
        {
          "internalType": "address[]",
          "name": "tokens",
          "type": "address[]"
        }
      ],
      "stateMutability": "view",
      "type": "function"
    },
    {
      "inputs": [
        {
          "internalType": "address",
          "name": "pool",
          "type": "address"
        }
      ],
      "name": "poolRedeemTokenAmount",
      "outputs": [
        {
          "internalType": "uint256[]",
          "name": "tokenAmount",
          "type": "uint256[]"
        }
      ],
      "stateMutability": "view",
      "type": "function"
    },
    {
      "inputs": [
        {
          "internalType": "address",
          "name": "pool",
          "type": "address"
        }
      ],
      "name": "poolRedeemTokenList",
      "outputs": [
        {
          "internalType": "address[]",
          "name": "tokens",
          "type": "address[]"
        }
      ],
      "stateMutability": "view",
      "type": "function"
    },
    {
      "inputs": [
        {
          "internalType": "address",
          "name": "",
          "type": "address"
        }
      ],
      "name": "pool_manager",
      "outputs": [
        {
          "internalType": "address",
          "name": "",
          "type": "address"
        }
      ],
      "stateMutability": "view",
      "type": "function"
    },
    {
      "inputs": [
        {
          "internalType": "address",
          "name": "kol",
          "type": "address"
        },
        {
          "internalType": "address",
          "name": "user",
          "type": "address"
        },
        {
          "internalType": "address[]",
          "name": "poolTokens",
          "type": "address[]"
        },
        {
          "internalType": "uint256[]",
          "name": "tokensAmount",
          "type": "uint256[]"
        }
      ],
      "name": "recordTokenInfo",
      "outputs": [],
      "stateMutability": "nonpayable",
      "type": "function"
    },
    {
      "inputs": [
        {
          "internalType": "address",
          "name": "",
          "type": "address"
        },
        {
          "internalType": "uint256",
          "name": "",
          "type": "uint256"
        }
      ],
      "name": "record_List",
      "outputs": [
        {
          "internalType": "uint256",
          "name": "time",
          "type": "uint256"
        }
      ],
      "stateMutability": "view",
      "type": "function"
    },
    {
      "inputs": [
        {
          "internalType": "address",
          "name": "",
          "type": "address"
        }
      ],
      "name": "record_number",
      "outputs": [
        {
          "internalType": "uint256",
          "name": "",
          "type": "uint256"
        }
      ],
      "stateMutability": "view",
      "type": "function"
    },
    {
      "inputs": [
        {
          "internalType": "address",
          "name": "owner",
          "type": "address"
        }
      ],
      "name": "removeOwner",
      "outputs": [],
      "stateMutability": "nonpayable",
      "type": "function"
    },
    {
      "inputs": [
        {
          "internalType": "address",
          "name": "newOwner",
          "type": "address"
        },
        {
          "internalType": "uint256",
          "name": "_ownerPercentage",
          "type": "uint256"
        }
      ],
      "name": "setAddAdminList",
      "outputs": [],
      "stateMutability": "nonpayable",
      "type": "function"
    },
    {
      "inputs": [
        {
          "internalType": "address",
          "name": "pool",
          "type": "address"
        },
        {
          "internalType": "bool",
          "name": "bools",
          "type": "bool"
        }
      ],
      "name": "setBlackList",
      "outputs": [],
      "stateMutability": "nonpayable",
      "type": "function"
    },
    {
      "inputs": [
        {
          "internalType": "address",
          "name": "newOwner",
          "type": "address"
        }
      ],
      "name": "setController",
      "outputs": [],
      "stateMutability": "nonpayable",
      "type": "function"
    },
    {
      "inputs": [
        {
          "internalType": "address",
          "name": "adr",
          "type": "address"
        }
      ],
      "name": "setCrpFactory",
      "outputs": [],
      "stateMutability": "nonpayable",
      "type": "function"
    },
    {
      "inputs": [
        {
          "internalType": "address",
          "name": "pool",
          "type": "address"
        },
        {
          "components": [
            {
              "components": [
                {
                  "components": [
                    {
                      "internalType": "uint256",
                      "name": "level",
                      "type": "uint256"
                    },
                    {
                      "internalType": "uint256",
                      "name": "ratio",
                      "type": "uint256"
                    }
                  ],
                  "internalType": "struct SmartPoolManager.levelParams",
                  "name": "firstLevel",
                  "type": "tuple"
                },
                {
                  "components": [
                    {
                      "internalType": "uint256",
                      "name": "level",
                      "type": "uint256"
                    },
                    {
                      "internalType": "uint256",
                      "name": "ratio",
                      "type": "uint256"
                    }
                  ],
                  "internalType": "struct SmartPoolManager.levelParams",
                  "name": "secondLevel",
                  "type": "tuple"
                },
                {
                  "components": [
                    {
                      "internalType": "uint256",
                      "name": "level",
                      "type": "uint256"
                    },
                    {
                      "internalType": "uint256",
                      "name": "ratio",
                      "type": "uint256"
                    }
                  ],
                  "internalType": "struct SmartPoolManager.levelParams",
                  "name": "thirdLevel",
                  "type": "tuple"
                },
                {
                  "components": [
                    {
                      "internalType": "uint256",
                      "name": "level",
                      "type": "uint256"
                    },
                    {
                      "internalType": "uint256",
                      "name": "ratio",
                      "type": "uint256"
                    }
                  ],
                  "internalType": "struct SmartPoolManager.levelParams",
                  "name": "fourLevel",
                  "type": "tuple"
                }
              ],
              "internalType": "struct SmartPoolManager.feeParams",
              "name": "managerFee",
              "type": "tuple"
            },
            {
              "components": [
                {
                  "components": [
                    {
                      "internalType": "uint256",
                      "name": "level",
                      "type": "uint256"
                    },
                    {
                      "internalType": "uint256",
                      "name": "ratio",
                      "type": "uint256"
                    }
                  ],
                  "internalType": "struct SmartPoolManager.levelParams",
                  "name": "firstLevel",
                  "type": "tuple"
                },
                {
                  "components": [
                    {
                      "internalType": "uint256",
                      "name": "level",
                      "type": "uint256"
                    },
                    {
                      "internalType": "uint256",
                      "name": "ratio",
                      "type": "uint256"
                    }
                  ],
                  "internalType": "struct SmartPoolManager.levelParams",
                  "name": "secondLevel",
                  "type": "tuple"
                },
                {
                  "components": [
                    {
                      "internalType": "uint256",
                      "name": "level",
                      "type": "uint256"
                    },
                    {
                      "internalType": "uint256",
                      "name": "ratio",
                      "type": "uint256"
                    }
                  ],
                  "internalType": "struct SmartPoolManager.levelParams",
                  "name": "thirdLevel",
                  "type": "tuple"
                },
                {
                  "components": [
                    {
                      "internalType": "uint256",
                      "name": "level",
                      "type": "uint256"
                    },
                    {
                      "internalType": "uint256",
                      "name": "ratio",
                      "type": "uint256"
                    }
                  ],
                  "internalType": "struct SmartPoolManager.levelParams",
                  "name": "fourLevel",
                  "type": "tuple"
                }
              ],
              "internalType": "struct SmartPoolManager.feeParams",
              "name": "issueFee",
              "type": "tuple"
            },
            {
              "components": [
                {
                  "components": [
                    {
                      "internalType": "uint256",
                      "name": "level",
                      "type": "uint256"
                    },
                    {
                      "internalType": "uint256",
                      "name": "ratio",
                      "type": "uint256"
                    }
                  ],
                  "internalType": "struct SmartPoolManager.levelParams",
                  "name": "firstLevel",
                  "type": "tuple"
                },
                {
                  "components": [
                    {
                      "internalType": "uint256",
                      "name": "level",
                      "type": "uint256"
                    },
                    {
                      "internalType": "uint256",
                      "name": "ratio",
                      "type": "uint256"
                    }
                  ],
                  "internalType": "struct SmartPoolManager.levelParams",
                  "name": "secondLevel",
                  "type": "tuple"
                },
                {
                  "components": [
                    {
                      "internalType": "uint256",
                      "name": "level",
                      "type": "uint256"
                    },
                    {
                      "internalType": "uint256",
                      "name": "ratio",
                      "type": "uint256"
                    }
                  ],
                  "internalType": "struct SmartPoolManager.levelParams",
                  "name": "thirdLevel",
                  "type": "tuple"
                },
                {
                  "components": [
                    {
                      "internalType": "uint256",
                      "name": "level",
                      "type": "uint256"
                    },
                    {
                      "internalType": "uint256",
                      "name": "ratio",
                      "type": "uint256"
                    }
                  ],
                  "internalType": "struct SmartPoolManager.levelParams",
                  "name": "fourLevel",
                  "type": "tuple"
                }
              ],
              "internalType": "struct SmartPoolManager.feeParams",
              "name": "redeemFee",
              "type": "tuple"
            },
            {
              "components": [
                {
                  "components": [
                    {
                      "internalType": "uint256",
                      "name": "level",
                      "type": "uint256"
                    },
                    {
                      "internalType": "uint256",
                      "name": "ratio",
                      "type": "uint256"
                    }
                  ],
                  "internalType": "struct SmartPoolManager.levelParams",
                  "name": "firstLevel",
                  "type": "tuple"
                },
                {
                  "components": [
                    {
                      "internalType": "uint256",
                      "name": "level",
                      "type": "uint256"
                    },
                    {
                      "internalType": "uint256",
                      "name": "ratio",
                      "type": "uint256"
                    }
                  ],
                  "internalType": "struct SmartPoolManager.levelParams",
                  "name": "secondLevel",
                  "type": "tuple"
                },
                {
                  "components": [
                    {
                      "internalType": "uint256",
                      "name": "level",
                      "type": "uint256"
                    },
                    {
                      "internalType": "uint256",
                      "name": "ratio",
                      "type": "uint256"
                    }
                  ],
                  "internalType": "struct SmartPoolManager.levelParams",
                  "name": "thirdLevel",
                  "type": "tuple"
                },
                {
                  "components": [
                    {
                      "internalType": "uint256",
                      "name": "level",
                      "type": "uint256"
                    },
                    {
                      "internalType": "uint256",
                      "name": "ratio",
                      "type": "uint256"
                    }
                  ],
                  "internalType": "struct SmartPoolManager.levelParams",
                  "name": "fourLevel",
                  "type": "tuple"
                }
              ],
              "internalType": "struct SmartPoolManager.feeParams",
              "name": "perfermanceFee",
              "type": "tuple"
            }
          ],
          "internalType": "struct SmartPoolManager.KolPoolParams",
          "name": "_poolParams",
          "type": "tuple"
        }
      ],
      "name": "setPoolParams",
      "outputs": [],
      "stateMutability": "nonpayable",
      "type": "function"
    },
    {
      "inputs": [
        {
          "internalType": "address",
          "name": "adr",
          "type": "address"
        }
      ],
      "name": "setVaultAdr",
      "outputs": [],
      "stateMutability": "nonpayable",
      "type": "function"
    },
    {
      "inputs": [
        {
          "internalType": "address",
          "name": "",
          "type": "address"
        },
        {
          "internalType": "address",
          "name": "",
          "type": "address"
        }
      ],
      "name": "user_index_list",
      "outputs": [
        {
          "internalType": "uint256",
          "name": "",
          "type": "uint256"
        }
      ],
      "stateMutability": "view",
      "type": "function"
    },
    {
      "inputs": [
        {
          "internalType": "address",
          "name": "",
          "type": "address"
        },
        {
          "internalType": "address",
          "name": "",
          "type": "address"
        }
      ],
      "name": "user_kol_list",
      "outputs": [
        {
          "internalType": "address",
          "name": "",
          "type": "address"
        }
      ],
      "stateMutability": "view",
      "type": "function"
    },
    {
      "inputs": [],
      "name": "vaultAddress",
      "outputs": [
        {
          "internalType": "address",
          "name": "",
          "type": "address"
        }
      ],
      "stateMutability": "view",
      "type": "function"
    },
    {
      "stateMutability": "payable",
      "type": "receive"
    }
  ],
  "transactionHash": "0xfe9b367f68cf04ee00d67d3b84a3f75f835b69695843fb936f35d60232cc0e28",
  "args": [],
  "numDeployments": 2,
  "solcInputHash": "8e675aca78e6b0fdd4120e4ec233ef3f",
  "bytecode": "0x6080604052606460155534801561001557600080fd5b50600080546001600160a01b03191633179055615c6280620000386000396000f3fe6080604052600436106102b05760003560e01c806368092bd91161016c57806368092bd9146106965780636936674d146106b657806378a619de146106d657806379f66374146106de5780638da901ba146106fe5780638f799e121461071e5780639155dae71461073e57806392eefe9b1461075e578063992f6ba51461077e578063a0e67e2b1461079e578063a5168ee2146107b3578063a97f9f33146107d3578063bbb6e808146107f3578063c0fcb16614610813578063c1e5762214610833578063c3e4d04f14610853578063c5318d0f14610873578063c90361dd14610893578063cf4fe635146108b3578063d29986c1146108e0578063d6b485a5146108f5578063d7256c7014610915578063de7f302214610935578063e0bea5ac14610955578063e65065d914610975578063ebef44d914610995578063ec7a4b52146109b5578063edb12adf146109d5578063edbfb5f5146109f5578063f36ed92814610a15576102b7565b8063025e7c27146102bc57806303a68ecb146102f25780630b83e6291461031f5780630e99089c1461034c57806311e1532a1461036c578063154726b21461038c578063173825d9146103ac5780631a46506e146103ce5780631cc9a579146103ee5780631eae039c1461041b5780631f70e80b1461043b57806327304dfd146104505780632b5230a91461047d5780632c0bdbcf1461049d5780632c7c1bb5146104ca5780633018205f146104ea578063309a042c146104ff5780633eedcfa0146105145780633ef144791461053457806341c65e8314610554578063430bf08a146105745780634660c5a51461058957806346bead89146105a95780634bbe2fca146105c95780634d4ae12d146105e95780634da3841614610616578063528b5853146106365780635834bac41461065657806358d2dbf014610676576102b7565b366102b757005b600080fd5b3480156102c857600080fd5b506102dc6102d73660046155c3565b610a35565b6040516102e9919061564e565b60405180910390f35b3480156102fe57600080fd5b5061031261030d36600461523d565b610a5c565b6040516102e99190615bbb565b34801561032b57600080fd5b5061033f61033a366004615174565b610a97565b6040516102e99190615879565b34801561035857600080fd5b5061031261036736600461513c565b610b11565b34801561037857600080fd5b5061031261038736600461513c565b610ee3565b34801561039857600080fd5b506103126103a7366004615174565b610fd6565b3480156103b857600080fd5b506103cc6103c736600461513c565b61108c565b005b3480156103da57600080fd5b5061033f6103e936600461513c565b611277565b3480156103fa57600080fd5b5061040e61040936600461513c565b6112e6565b6040516102e99190615706565b34801561042757600080fd5b506103cc61043636600461523d565b611452565b34801561044757600080fd5b50610312611502565b34801561045c57600080fd5b5061047061046b36600461513c565b611508565b6040516102e9919061588c565b34801561048957600080fd5b5061033f61049836600461513c565b61151d565b3480156104a957600080fd5b506104bd6104b836600461513c565b61158a565b6040516102e991906156b9565b3480156104d657600080fd5b506103126104e5366004615174565b611602565b3480156104f657600080fd5b506102dc61161f565b34801561050b57600080fd5b5061033f61162e565b34801561052057600080fd5b5061031261052f366004615174565b611686565b34801561054057600080fd5b506103cc61054f366004615443565b6116a3565b34801561056057600080fd5b506104bd61056f36600461513c565b6117c5565b34801561058057600080fd5b506102dc61183c565b34801561059557600080fd5b506103cc6105a43660046152aa565b61184b565b3480156105b557600080fd5b506103126105c4366004615174565b611a73565b3480156105d557600080fd5b506103126105e436600461533b565b611cdc565b3480156105f557600080fd5b5061060961060436600461513c565b611cf9565b6040516102e991906157b9565b34801561062257600080fd5b506104bd61063136600461513c565b611e5b565b34801561064257600080fd5b5061031261065136600461513c565b611ecf565b34801561066257600080fd5b5061031261067136600461523d565b611ee1565b34801561068257600080fd5b506102dc610691366004615174565b6125c3565b3480156106a257600080fd5b506103cc6106b136600461527d565b6125ed565b3480156106c257600080fd5b506103cc6106d136600461513c565b612648565b6103cc612b08565b3480156106ea57600080fd5b506102dc6106f9366004615174565b612b5e565b34801561070a57600080fd5b5061047061071936600461513c565b612b84565b34801561072a57600080fd5b50610312610739366004615174565b612c0b565b34801561074a57600080fd5b506103cc610759366004615366565b612c28565b34801561076a57600080fd5b506103cc61077936600461513c565b612d93565b34801561078a57600080fd5b506103cc61079936600461533b565b612e3e565b3480156107aa57600080fd5b506104bd612f67565b3480156107bf57600080fd5b5061033f6107ce36600461513c565b612fc8565b3480156107df57600080fd5b5061033f6107ee36600461513c565b613035565b3480156107ff57600080fd5b506102dc61080e36600461523d565b6130a2565b34801561081f57600080fd5b5061047061082e36600461513c565b6130e9565b34801561083f57600080fd5b506103cc61084e36600461513c565b613107565b34801561085f57600080fd5b506102dc61086e36600461513c565b613159565b34801561087f57600080fd5b5061031261088e3660046155c3565b613174565b34801561089f57600080fd5b506104bd6108ae36600461513c565b613192565b3480156108bf57600080fd5b506108d36108ce366004615174565b6131b6565b6040516102e9919061580d565b3480156108ec57600080fd5b5061031261329b565b34801561090157600080fd5b506103cc61091036600461513c565b6132a1565b34801561092157600080fd5b506103cc6109303660046151ac565b61333e565b34801561094157600080fd5b506104bd61095036600461513c565b6138be565b34801561096157600080fd5b506102dc61097036600461533b565b613935565b34801561098157600080fd5b50610312610990366004615174565b61396a565b3480156109a157600080fd5b506104bd6109b036600461513c565b613b14565b3480156109c157600080fd5b506103126109d0366004615174565b613b88565b3480156109e157600080fd5b506103cc6109f036600461513c565b613bda565b348015610a0157600080fd5b50610312610a1036600461513c565b614221565b348015610a2157600080fd5b50610312610a3036600461513c565b614233565b60028181548110610a4257fe5b6000918252602090912001546001600160a01b0316905081565b60116020528260005260406000206020528160005260406000208181548110610a8157fe5b9060005260206000200160009250925050505481565b6001600160a01b038083166000908152601160209081526040808320938516835292815290829020805483518184028101840190945280845260609392830182828015610b0357602002820191906000526020600020905b815481526020019060010190808311610aef575b505050505090505b92915050565b6000610b1b614d6a565b6001600160a01b038316600090815260086020908152604091829020825181546101209381028201840190945261010081018481529093919284928491840182828015610b9157602002820191906000526020600020905b81546001600160a01b03168152600190910190602001808311610b73575b5050505050815260200160018201805480602002602001604051908101604052809291908181526020018280548015610bf357602002820191906000526020600020905b81546001600160a01b03168152600190910190602001808311610bd5575b5050505050815260200160028201805480602002602001604051908101604052809291908181526020018280548015610c5557602002820191906000526020600020905b81546001600160a01b03168152600190910190602001808311610c37575b5050505050815260200160038201805480602002602001604051908101604052809291908181526020018280548015610cb757602002820191906000526020600020905b81546001600160a01b03168152600190910190602001808311610c99575b5050505050815260200160048201805480602002602001604051908101604052809291908181526020018280548015610d0f57602002820191906000526020600020905b815481526020019060010190808311610cfb575b5050505050815260200160058201805480602002602001604051908101604052809291908181526020018280548015610d6757602002820191906000526020600020905b815481526020019060010190808311610d53575b5050505050815260200160068201805480602002602001604051908101604052809291908181526020018280548015610dbf57602002820191906000526020600020905b815481526020019060010190808311610dab575b5050505050815260200160078201805480602002602001604051908101604052809291908181526020018280548015610e1757602002820191906000526020600020905b815481526020019060010190808311610e03575b5050505050815250509050600081608001515111610e36576000610e50565b8060800151600081518110610e4757fe5b60200260200101515b60a082015151920191610e64576000610e7e565b8060a00151600081518110610e7557fe5b60200260200101515b60c082015151920191610e92576000610eac565b8060c00151600081518110610ea357fe5b60200260200101515b60e082015151920191610ec0576000610eda565b8060e00151600081518110610ed157fe5b60200260200101515b90910192915050565b604051631e6ddb2560e31b8152600090610b0b90309063f36ed92890610f0d90869060040161564e565b60206040518083038186803b158015610f2557600080fd5b505afa158015610f39573d6000803e3d6000fd5b505050506040513d601f19601f82011682018060405250810190610f5d91906155db565b6040516303a6422760e21b81523090630e99089c90610f8090879060040161564e565b60206040518083038186803b158015610f9857600080fd5b505afa158015610fac573d6000803e3d6000fd5b505050506040513d601f19601f82011682018060405250810190610fd091906155db565b906142f4565b60405163e65065d960e01b81526000908190309063e65065d990611000908790879060040161567b565b60206040518083038186803b15801561101857600080fd5b505afa15801561102c573d6000803e3d6000fd5b505050506040513d601f19601f8201168201806040525081019061105091906155db565b6001600160a01b0380861660009081526010602090815260408083209388168352929052205490915061108382826142f4565b95945050505050565b6000546001600160a01b031633146110bf5760405162461bcd60e51b81526004016110b6906158ea565b60405180910390fd5b6001600160a01b0381166000908152600160205260408120805460ff19169055805b6002548110156111e357826001600160a01b03166002828154811061110257fe5b6000918252602090912001546001600160a01b031614156111db5760028054600019810190811061112f57fe5b600091825260209091200154600280546001600160a01b03909216918390811061115557fe5b9060005260206000200160006101000a8154816001600160a01b0302191690836001600160a01b031602179055506003818154811061119057fe5b906000526020600020015491506003600160038054905003815481106111b257fe5b9060005260206000200154600382815481106111ca57fe5b6000918252602090912001556111e3565b6001016110e1565b5060028054806111ef57fe5b600082815260209020810160001990810180546001600160a01b0319169055019055600380548061121c57fe5b600082815260208120820160001990810182905590910190915560048054839003905560405182916001600160a01b038516917f7b0884b4b6bb4e0c1385ad42168fa556c14d4d799c1bf22f081aff3efff6ea0c9190a35050565b6001600160a01b0381166000908152600860209081526040918290206007018054835181840281018401909452808452606093928301828280156112da57602002820191906000526020600020905b8154815260200190600101908083116112c6575b50505050509050919050565b6001600160a01b0381166000908152600a602052604090205460609081816001600160401b038111801561131957600080fd5b5060405190808252806020026020018201604052801561135357816020015b611340614daf565b8152602001906001900390816113385790505b50905060015b8260010181101561144a5761136c614daf565b6001600160a01b0386166000908152600b60209081526040808320858452825280832081518083018352815481526001820180548451818702810187019095528085529195929486810194939192919084015b82821015611414576000848152602090819020604080516060810182526003860290920180546001600160a01b03168352600180820154848601526002909101549183019190915290835290920191016113bf565b5050509152509091508190508361142c8460016142f4565b8151811061143657fe5b602090810291909101015250600101611359565b509392505050565b6000546001600160a01b0316331461147c5760405162461bcd60e51b81526004016110b6906158ea565b60405163a9059cbb60e01b81526001600160a01b0384169063a9059cbb906114aa9085908590600401615662565b602060405180830381600087803b1580156114c457600080fd5b505af11580156114d8573d6000803e3d6000fd5b505050506040513d601f19601f820116820180604052508101906114fc9190615588565b50505050565b60155481565b60016020526000908152604090205460ff1681565b6001600160a01b0381166000908152600860209081526040918290206006018054835181840281018401909452808452606093928301828280156112da57602002820191906000526020600020908154815260200190600101908083116112c65750505050509050919050565b6001600160a01b0381166000908152600860209081526040918290206002018054835181840281018401909452808452606093928301828280156112da57602002820191906000526020600020905b81546001600160a01b031681526001909101906020018083116115d95750505050509050919050565b601360209081526000928352604080842090915290825290205481565b6000546001600160a01b031690565b6060600380548060200260200160405190810160405280929190818152602001828054801561167c57602002820191906000526020600020905b815481526020019060010190808311611668575b5050505050905090565b601060209081526000928352604080842090915290825290205481565b6000546001600160a01b031633146116cd5760405162461bcd60e51b81526004016110b6906158ea565b80518251146116ee5760405162461bcd60e51b81526004016110b690615a9b565b60055460ff16156117115760405162461bcd60e51b81526004016110b690615976565b60005b825181101561178b5781818151811061172957fe5b6020026020010151600460008282540192505081905550600180600085848151811061175157fe5b6020908102919091018101516001600160a01b03168252810191909152604001600020805460ff1916911515919091179055600101611714565b50815161179f906002906020850190614dc9565b5080516117b3906003906020840190614e2e565b50506005805460ff1916600117905550565b6001600160a01b0381166000908152600860209081526040918290206003018054835181840281018401909452808452606093928301828280156112da576020028201919060005260206000209081546001600160a01b031681526001909101906020018083116115d95750505050509050919050565b6006546001600160a01b031681565b6001600160a01b03808316600090815260096020526040908190206005549151636e0cf42160e11b815290926101009092049091169063dc19e8429061189590869060040161564e565b60206040518083038186803b1580156118ad57600080fd5b505afa1580156118c1573d6000803e3d6000fd5b505050506040513d601f19601f820116820180604052508101906118e59190615588565b6119015760405162461bcd60e51b81526004016110b690615abb565b805462010000900460ff16156119295760405162461bcd60e51b81526004016110b690615b2e565b805462ff0000191662010000178155815180518051600184015560209081015160028401558082015180516003850155810151600484015560408083015180516005860155820151600685015560609283015180516007860155820151600885015581850151805180516009870155830151600a860155808301518051600b870155830151600c860155808201518051600d870155830151600e8601558301518051600f8601558201516010850155808501518051805160118701558301516012860155808301518051601387015583015160148601558082015180516015870155830151601686015583015180516017860155820151601885015593820151805180516019860155820151601a850155808201518051601b860155820151601c850155938401518051601d850155810151601e8401559201518051601f83015582015191015550565b6040516308f0a99560e11b8152600090819030906311e1532a90611a9b90879060040161564e565b60206040518083038186803b158015611ab357600080fd5b505afa158015611ac7573d6000803e3d6000fd5b505050506040513d601f19601f82011682018060405250810190611aeb91906155db565b90506060846001600160a01b031663a0e67e2b6040518163ffffffff1660e01b815260040160006040518083038186803b158015611b2857600080fd5b505afa158015611b3c573d6000803e3d6000fd5b505050506040513d6000823e601f3d908101601f19168201604052611b6491908101906153ab565b90506060856001600160a01b031663309a042c6040518163ffffffff1660e01b815260040160006040518083038186803b158015611ba157600080fd5b505afa158015611bb5573d6000803e3d6000fd5b505050506040513d6000823e601f3d908101601f19168201604052611bdd9190810190615505565b90506000866001600160a01b031663d29986c16040518163ffffffff1660e01b815260040160206040518083038186803b158015611c1a57600080fd5b505afa158015611c2e573d6000803e3d6000fd5b505050506040513d601f19601f82011682018060405250810190611c5291906155db565b905060005b8351811015611cd157838181518110611c6c57fe5b60200260200101516001600160a01b0316876001600160a01b03161415611cc957611cbd82611cb7858481518110611ca057fe5b60200260200101518861433690919063ffffffff16565b90614370565b95505050505050610b0b565b600101611c57565b505050505092915050565b600b60209081526000928352604080842090915290825290205481565b611d01614e75565b611d09614ea2565b6001600160a01b0383166000908152600c6020526040812080548290611d2b57fe5b6000918252602090912001546001600160a01b031680835260405163763d25a960e11b8152909150309063ec7a4b5290611d6b908790339060040161567b565b60206040518083038186803b158015611d8357600080fd5b505afa158015611d97573d6000803e3d6000fd5b505050506040513d601f19601f82011682018060405250810190611dbb91906155db565b826040018181525050806001600160a01b031663313ce5676040518163ffffffff1660e01b815260040160206040518083038186803b158015611dfd57600080fd5b505afa158015611e11573d6000803e3d6000fd5b505050506040513d601f19601f82011682018060405250810190611e3591906155f3565b60ff166020830152611e45614e75565b5050604080516020810190915290815292915050565b6001600160a01b0381166000908152600c60209081526040918290208054835181840281018401909452808452606093928301828280156112da576020028201919060005260206000209081546001600160a01b031681526001909101906020018083116115d95750505050509050919050565b600d6020526000908152604090205481565b6001600160a01b0380841660009081526011602090815260408083209386168352929052908120548190611f16576000611f54565b6001600160a01b03808616600090815260116020908152604080832093881683529290529081208054909190611f4857fe5b90600052602060002001545b9050611f5e614ecc565b506001600160a01b03851660009081526009602081815260408084208151610140810183526001820154610100820190815260028301546101208301526080808301918252845180860186526003850154815260048501548188015260a080850191909152855180870187526005860154815260068601548189015260c08086019190915286518088018852600787015481526008870154818a015260e08601529284528551808401875297850154888301908152600a86015489830152885285518087018752600b8601548152600c860154818901528888015285518087018752600d8601548152600e860154818901528887015285518087018752600f860154815260108601548189015260608981019190915284880198909852855180840187526011860154818401908152601287015482840152815286518088018852601387015481526014870154818a01528189015286518088018852601587015481526016870154818a01528188015286518088018852601787015481526018870154818a0152818a015284870152855192830186526019850154918301918252601a85015490830152815283518085018552601b8401548152601c840154818701528186015283518085018552601d8401548152601e84015481870152818501528351808501909452601f83015484529184015493830193909352808401919091529181019190915290612171614d6a565b6001600160a01b0388166000908152600860209081526040918290208251815461012093810282018401909452610100810184815290939192849284918401828280156121e757602002820191906000526020600020905b81546001600160a01b031681526001909101906020018083116121c9575b505050505081526020016001820180548060200260200160405190810160405280929190818152602001828054801561224957602002820191906000526020600020905b81546001600160a01b0316815260019091019060200180831161222b575b50505050508152602001600282018054806020026020016040519081016040528092919081815260200182805480156122ab57602002820191906000526020600020905b81546001600160a01b0316815260019091019060200180831161228d575b505050505081526020016003820180548060200260200160405190810160405280929190818152602001828054801561230d57602002820191906000526020600020905b81546001600160a01b031681526001909101906020018083116122ef575b505050505081526020016004820180548060200260200160405190810160405280929190818152602001828054801561236557602002820191906000526020600020905b815481526020019060010190808311612351575b50505050508152602001600582018054806020026020016040519081016040528092919081815260200182805480156123bd57602002820191906000526020600020905b8154815260200190600101908083116123a9575b505050505081526020016006820180548060200260200160405190810160405280929190818152602001828054801561241557602002820191906000526020600020905b815481526020019060010190808311612401575b505050505081526020016007820180548060200260200160405190810160405280929190818152602001828054801561246d57602002820191906000526020600020905b815481526020019060010190808311612459575b5050505050815250509050836000141561248e5760009450505050506125bc565b851580156124a157506000816080015151115b156124e7576124e4601554611cb76124bd8787600001516143af565b84608001516000815181106124ce57fe5b602002602001015161433690919063ffffffff16565b91505b8560011480156124fc575060008160a0015151115b1561252c57612529601554611cb76125188787602001516143af565b8460a001516000815181106124ce57fe5b91505b856002148015612541575060008160c0015151115b156125715761256e601554611cb761255d8787604001516143af565b8460c001516000815181106124ce57fe5b91505b856003148015612586575060008160e0015151115b156125b6576125b3601554611cb76125a28787606001516143af565b8460e001516000815181106124ce57fe5b91505b50925050505b9392505050565b6001600160a01b039182166000908152601460209081526040808320938516835292905220541690565b6000546001600160a01b031633146126175760405162461bcd60e51b81526004016110b6906158ea565b6001600160a01b03909116600090815260096020526040902080549115156101000261ff0019909216919091179055565b60065460405163edb12adf60e01b81526001600160a01b039091169063edb12adf9061267890849060040161564e565b600060405180830381600087803b15801561269257600080fd5b505af19250505080156126a3575060015b506040516346d480dd60e11b81523090638da901ba906126c790849060040161564e565b60206040518083038186803b1580156126df57600080fd5b505afa1580156126f3573d6000803e3d6000fd5b505050506040513d601f19601f820116820180604052508101906127179190615588565b15612b0557600554604051636e0cf42160e11b81526101009091046001600160a01b03169063dc19e8429061275090849060040161564e565b60206040518083038186803b15801561276857600080fd5b505afa15801561277c573d6000803e3d6000fd5b505050506040513d601f19601f820116820180604052508101906127a09190615588565b6127bc5760405162461bcd60e51b81526004016110b690615abb565b806001600160a01b0316635468d6d76040518163ffffffff1660e01b815260040160206040518083038186803b1580156127f557600080fd5b505afa158015612809573d6000803e3d6000fd5b505050506040513d601f19601f8201168201806040525081019061282d9190615588565b6128495760405162461bcd60e51b81526004016110b690615b88565b604051630aa3935960e11b8152600090309063154726b290612871908590339060040161567b565b60206040518083038186803b15801561288957600080fd5b505afa15801561289d573d6000803e3d6000fd5b505050506040513d601f19601f820116820180604052508101906128c191906155db565b9050600081116128e35760405162461bcd60e51b81526004016110b690615916565b6001600160a01b03821660009081526010602090815260408083203380855292529091208054830190556129169061448a565b15612a51576001600160a01b0382166000908152600c60205260408120805490919061293e57fe5b9060005260206000200160009054906101000a90046001600160a01b03166001600160a01b031663a9059cbb336001600160a01b0316638da5cb5b6040518163ffffffff1660e01b815260040160206040518083038186803b1580156129a357600080fd5b505afa1580156129b7573d6000803e3d6000fd5b505050506040513d601f19601f820116820180604052508101906129db9190615158565b836040518363ffffffff1660e01b81526004016129f9929190615662565b602060405180830381600087803b158015612a1357600080fd5b505af1158015612a27573d6000803e3d6000fd5b505050506040513d601f19601f82011682018060405250810190612a4b9190615588565b50612b03565b6001600160a01b0382166000908152600c602052604081208054909190612a7457fe5b60009182526020909120015460405163a9059cbb60e01b81526001600160a01b039091169063a9059cbb90612aaf9033908590600401615662565b602060405180830381600087803b158015612ac957600080fd5b505af1158015612add573d6000803e3d6000fd5b505050506040513d601f19601f82011682018060405250810190612b019190615588565b505b505b50565b6000546001600160a01b03163314612b325760405162461bcd60e51b81526004016110b6906158ea565b60405133904780156108fc02916000818181858888f19350505050158015612b05573d6000803e3d6000fd5b60146020908152600092835260408084209091529082529020546001600160a01b031681565b60006001826001600160a01b03166373a9855c6040518163ffffffff1660e01b815260040160206040518083038186803b158015612bc157600080fd5b505afa158015612bd5573d6000803e3d6000fd5b505050506040513d601f19601f82011682018060405250810190612bf991906155a4565b6001811115612c0457fe5b1492915050565b600e60209081526000928352604080842090915290825290205481565b6006546001600160a01b03163314612c525760405162461bcd60e51b81526004016110b6906158ea565b828114612c715760405162461bcd60e51b81526004016110b69061599c565b6001600160a01b0386811660009081526007602052604090205416612d3157856001600160a01b0316633018205f6040518163ffffffff1660e01b815260040160206040518083038186803b158015612cc957600080fd5b505afa158015612cdd573d6000803e3d6000fd5b505050506040513d601f19601f82011682018060405250810190612d019190615158565b6001600160a01b03878116600090815260076020526040902080546001600160a01b031916929091169190911790555b606080612d3e88886144c3565b91509150606080612d54888888888e898961485b565b91509150612d648a8a8484614ac1565b5050506001600160a01b039096166000908152600960205260409020805460ff19166001179055505050505050565b6000546001600160a01b03163314612dbd5760405162461bcd60e51b81526004016110b6906158ea565b6001600160a01b038116612de35760405162461bcd60e51b81526004016110b690615a4e565b600080546040516001600160a01b03808516939216917f8be0079c531659141344cd1fd0a4f28419497f9722a3daafe3b4186f6b6457e091a3600080546001600160a01b0319166001600160a01b0392909216919091179055565b6000546001600160a01b03163314612e685760405162461bcd60e51b81526004016110b6906158ea565b6001600160a01b03821660009081526001602052604090205460ff1615612ea15760405162461bcd60e51b81526004016110b6906159f3565b6001600160a01b0382166000818152600160208190526040808320805460ff191683179055600280548084019091557f405787fa12a823e0f2b7631cc41b3ba8828b3321ca811111fa75cd3aa3bb5ace0180546001600160a01b0319168517905560038054928301815583527fc2575a0e9e593c00f959f8c92f12db2869c3395a3b0502d05e2516446f71f85b9091018490556004805485019055518392917fbd5dcf0b25226117c4a68a0129ffdd4b0541ef5e482ad7de9a96ccb6d6a8ebde91a35050565b6060600280548060200260200160405190810160405280929190818152602001828054801561167c57602002820191906000526020600020905b81546001600160a01b03168152600190910190602001808311612fa1575050505050905090565b6001600160a01b0381166000908152600860209081526040918290206005018054835181840281018401909452808452606093928301828280156112da57602002820191906000526020600020908154815260200190600101908083116112c65750505050509050919050565b6001600160a01b0381166000908152600860209081526040918290206004018054835181840281018401909452808452606093928301828280156112da57602002820191906000526020600020908154815260200190600101908083116112c65750505050509050919050565b601260205282600052604060002060205281600052604060002081815481106130c757fe5b60009182526020909120600290910201546001600160a01b0316925083915050565b6001600160a01b031660009081526009602052604090205460ff1690565b6000546001600160a01b031633146131315760405162461bcd60e51b81526004016110b6906158ea565b600580546001600160a01b0390921661010002610100600160a81b0319909216919091179055565b6007602052600090815260409020546001600160a01b031681565b6003818154811061318157fe5b600091825260209091200154905081565b6001600160a01b0381166000908152600f60205260409020606090610b0b90614bb1565b6001600160a01b0380831660009081526012602090815260408083209385168352928152828220805484518184028101840190955280855260609493919290919084015b8282101561328f5760008481526020908190206040805180820182526002860290920180546001600160a01b0316835260018101805483518187028101870190945280845293949193858301939283018282801561327757602002820191906000526020600020905b815481526020019060010190808311613263575b505050505081525050815260200190600101906131fa565b50505050905092915050565b60045481565b6000546001600160a01b031633146132cb5760405162461bcd60e51b81526004016110b6906158ea565b6001600160a01b0381166132f15760405162461bcd60e51b81526004016110b690615b55565b600680546001600160a01b0319166001600160a01b0383169081179091556040513391907ff5e71cc69e4610808e8e7c9099d63353897264c5dfc4da1a0320395866de497190600090a350565b338382811461335f5760405162461bcd60e51b81526004016110b69061599c565b600554604051636e0cf42160e11b81526101009091046001600160a01b03169063dc19e8429061339390859060040161564e565b60206040518083038186803b1580156133ab57600080fd5b505afa1580156133bf573d6000803e3d6000fd5b505050506040513d601f19601f820116820180604052508101906133e39190615588565b6133ff5760405162461bcd60e51b81526004016110b690615abb565b6001600160a01b0382166000908152600c6020526040902054613441576001600160a01b0382166000908152600c6020526040902061343f908787614f0b565b505b6001600160a01b0382811660009081526014602090815260408083208b8516845290915290205416806134e8576001600160a01b0383811660008181526014602090815260408083208d86168452825280832080546001600160a01b031916958f1695909517909455918152600f909152206134bd908a614bbd565b6134e5576001600160a01b0383166000908152600f602052604090206134e3908a614bd2565b505b50875b6001600160a01b03811661350e5760405162461bcd60e51b81526004016110b690615a1d565b6135468585600081811061351e57fe5b6001600160a01b0387166000908152600d602090815260409091205493910201359050614be7565b6001600160a01b0384166000908152600d60205260409020556060826001600160401b038111801561357757600080fd5b506040519080825280602002602001820160405280156135a1578160200160208202803683370190505b50905060005b8381101561368c576001600160a01b03808616600090815260116020908152604080832093871683529290522054613609578686828181106135e557fe5b905060200201358282815181106135f857fe5b602002602001018181525050613684565b6001600160a01b038086166000908152601160209081526040808320938716835292905220805461366b91908390811061363f57fe5b906000526020600020015488888481811061365657fe5b90506020020135614be790919063ffffffff16565b82828151811061367757fe5b6020026020010181815250505b6001016135a7565b506001600160a01b038085166000908152601160209081526040808320938616835292815291902082516136c292840190614e2e565b506001600160a01b0380851660008181526012602090815260408083208786168452825280832093835260138252808320948e1683529390529190912054806137f65761370d614f5e565b6001600160a01b038c168152604080516020808b0282810182019093528a825290918b918b91829185019084908082843760009201829052506020868101958652885460018082018b558a845292829020885160029092020180546001600160a01b0319166001600160a01b03909216919091178155955180518897965061379c955092860193500190614e2e565b505050828054905060136000896001600160a01b03166001600160a01b0316815260200190815260200160002060008e6001600160a01b03166001600160a01b0316815260200190815260200160002081905550506138b0565b6001600160a01b03808716600090815260126020908152604080832093881683529290529081208054600019840190811061382d57fe5b9060005260206000209060020201905060005b60018201548110156138ad5761388a8a8a8381811061385b57fe5b9050602002013583600101838154811061387157fe5b9060005260206000200154614be790919063ffffffff16565b82600101828154811061389957fe5b600091825260209091200155600101613840565b50505b505050505050505050505050565b6001600160a01b0381166000908152600860209081526040918290206001018054835181840281018401909452808452606093928301828280156112da576020028201919060005260206000209081546001600160a01b031681526001909101906020018083116115d95750505050509050919050565b600c602052816000526040600020818154811061394e57fe5b6000918252602090912001546001600160a01b03169150829050565b6001600160a01b038083166000908152601160209081526040808320938516835292905290812054819061399f579050610b0b565b60405163160d2eb160e21b8152613a22903090635834bac4906139cb9088908890600090600401615695565b60206040518083038186803b1580156139e357600080fd5b505afa1580156139f7573d6000803e3d6000fd5b505050506040513d601f19601f82011682018060405250810190613a1b91906155db565b8290614be7565b60405163160d2eb160e21b8152909150613a51903090635834bac4906139cb9088908890600190600401615695565b60405163160d2eb160e21b8152909150613a80903090635834bac4906139cb9088908890600290600401615695565b60405163160d2eb160e21b8152909150613aaf903090635834bac4906139cb9088908890600390600401615695565b6001600160a01b038086166000908152600d60209081526040808320546011835281842094891684529390915281208054939450613b0c93611cb79290613af257fe5b90600052602060002001548461433690919063ffffffff16565b949350505050565b6001600160a01b0381166000908152600860209081526040918290208054835181840281018401909452808452606093928301828280156112da576020028201919060005260206000209081546001600160a01b031681526001909101906020018083116115d95750505050509050919050565b6001600160a01b038083166000908152600e6020908152604080832093851683529290528181205491516346bead8960e01b815290916125bc9130906346bead8990610f80908890889060040161567b565b60065460405163edb12adf60e01b81526001600160a01b039091169063edb12adf90613c0a90849060040161564e565b600060405180830381600087803b158015613c2457600080fd5b505af1925050508015613c35575060015b506040516346d480dd60e11b81523090638da901ba90613c5990849060040161564e565b60206040518083038186803b158015613c7157600080fd5b505afa158015613c85573d6000803e3d6000fd5b505050506040513d601f19601f82011682018060405250810190613ca99190615588565b15612b0557600554604051636e0cf42160e11b81526101009091046001600160a01b03169063dc19e84290613ce290849060040161564e565b60206040518083038186803b158015613cfa57600080fd5b505afa158015613d0e573d6000803e3d6000fd5b505050506040513d601f19601f82011682018060405250810190613d329190615588565b613d4e5760405162461bcd60e51b81526004016110b690615abb565b806001600160a01b0316635468d6d76040518163ffffffff1660e01b815260040160206040518083038186803b158015613d8757600080fd5b505afa158015613d9b573d6000803e3d6000fd5b505050506040513d601f19601f82011682018060405250810190613dbf9190615588565b613ddb5760405162461bcd60e51b81526004016110b690615b88565b6040516327304dfd60e01b81526001600160a01b038216906327304dfd90613e0790339060040161564e565b60206040518083038186803b158015613e1f57600080fd5b505afa158015613e33573d6000803e3d6000fd5b505050506040513d601f19601f82011682018060405250810190613e579190615588565b80613ee35750336001600160a01b0316816001600160a01b0316633018205f6040518163ffffffff1660e01b815260040160206040518083038186803b158015613ea057600080fd5b505afa158015613eb4573d6000803e3d6000fd5b505050506040513d601f19601f82011682018060405250810190613ed89190615158565b6001600160a01b0316145b613eff5760405162461bcd60e51b81526004016110b690615a78565b60405163763d25a960e11b8152600090309063ec7a4b5290613f27908590339060040161567b565b60206040518083038186803b158015613f3f57600080fd5b505afa158015613f53573d6000803e3d6000fd5b505050506040513d601f19601f82011682018060405250810190613f7791906155db565b905060008111613f995760405162461bcd60e51b81526004016110b690615916565b6001600160a01b0382166000818152600e602090815260408083203384528252808320805486019055928252600a905290812054613fd8906001614be7565b6001600160a01b0384166000908152600c60205260408120805492935090918290613fff57fe5b60009182526020822001546001600160a01b0316915061401e3361448a565b6140285733614099565b336001600160a01b0316638da5cb5b6040518163ffffffff1660e01b815260040160206040518083038186803b15801561406157600080fd5b505afa158015614075573d6000803e3d6000fd5b505050506040513d601f19601f820116820180604052508101906140999190615158565b90506140a3614ea2565b826001600160a01b031663313ce5676040518163ffffffff1660e01b815260040160206040518083038186803b1580156140dc57600080fd5b505afa1580156140f0573d6000803e3d6000fd5b505050506040513d601f19601f8201168201806040525081019061411491906155f3565b60ff1660208201526001600160a01b03831680825260408083018790525163a9059cbb60e01b815263a9059cbb906141529085908990600401615662565b602060405180830381600087803b15801561416c57600080fd5b505af1158015614180573d6000803e3d6000fd5b505050506040513d601f19601f820116820180604052508101906141a49190615588565b506001600160a01b039586166000908152600a60209081526040808320879055600b825280832096835295815285822042815560019081018054808301825590845292829020845160039094020180546001600160a01b031916939099169290921788558201519087015590920151600290940193909355505050565b600a6020526000908152604090205481565b6001600160a01b0381166000908152600f602052604081208161425582614c0c565b905060005b818110156142ec573063e65065d9866142738685614c17565b6040518363ffffffff1660e01b815260040161429092919061567b565b60206040518083038186803b1580156142a857600080fd5b505afa1580156142bc573d6000803e3d6000fd5b505050506040513d601f19601f820116820180604052508101906142e091906155db565b9093019260010161425a565b505050919050565b60006125bc83836040518060400160405280601e81526020017f536166654d6174683a207375627472616374696f6e206f766572666c6f770000815250614c23565b60008261434557506000610b0b565b8282028284828161435257fe5b04146125bc5760405162461bcd60e51b81526004016110b690615aed565b60006125bc83836040518060400160405280601a815260200179536166654d6174683a206469766973696f6e206279207a65726f60301b815250614c4f565b6000805b600481101561448357806143e95782515184108015906143d7575060208301515184105b156143e9575050805160200151610b0b565b806001141561441f57602083015151841080159061440b575060408301515184105b1561441f5750506020808201510151610b0b565b8060021415614456576040830151518410801590614441575060608301515184105b15614456575050604081015160200151610b0b565b806003141561447b57606083015151841061447b575050606081015160200151610b0b565b6001016143b3565b5092915050565b6000813f7fc5d2460186f7233c927e7db2dcc703c0e500b653ca82273b7bfad8045d85a470818114801590613b0c575050151592915050565b606080600483106144e65760405162461bcd60e51b81526004016110b6906159d0565b6144ee614d6a565b6001600160a01b03851660009081526008602090815260409182902082518154610120938102820184019094526101008101848152909391928492849184018282801561456457602002820191906000526020600020905b81546001600160a01b03168152600190910190602001808311614546575b50505050508152602001600182018054806020026020016040519081016040528092919081815260200182805480156145c657602002820191906000526020600020905b81546001600160a01b031681526001909101906020018083116145a8575b505050505081526020016002820180548060200260200160405190810160405280929190818152602001828054801561462857602002820191906000526020600020905b81546001600160a01b0316815260019091019060200180831161460a575b505050505081526020016003820180548060200260200160405190810160405280929190818152602001828054801561468a57602002820191906000526020600020905b81546001600160a01b0316815260019091019060200180831161466c575b50505050508152602001600482018054806020026020016040519081016040528092919081815260200182805480156146e257602002820191906000526020600020905b8154815260200190600101908083116146ce575b505050505081526020016005820180548060200260200160405190810160405280929190818152602001828054801561473a57602002820191906000526020600020905b815481526020019060010190808311614726575b505050505081526020016006820180548060200260200160405190810160405280929190818152602001828054801561479257602002820191906000526020600020905b81548152602001906001019080831161477e575b50505050508152602001600782018054806020026020016040519081016040528092919081815260200182805480156147ea57602002820191906000526020600020905b8154815260200190600101908083116147d6575b5050505050815250509050836000141561480b578051608082015190935091505b836001141561482357806020015192508060a0015191505b836002141561483b57806040015192508060c0015191505b836003141561485357806060015192508060e0015191505b509250929050565b60608087806001600160401b038111801561487557600080fd5b5060405190808252806020026020018201604052801561489f578160200160208202803683370190505b509250806001600160401b03811180156148b857600080fd5b506040519080825280602002602001820160405280156148e2578160200160208202803683370190505b509150835185511480156148f557508451155b8061491957506001600160a01b03861660009081526009602052604090205460ff16155b156149ae5760005b818110156149a8578a8a8281811061493557fe5b905060200201602081019061494a919061513c565b84828151811061495657fe5b60200260200101906001600160a01b031690816001600160a01b03168152505088888281811061498257fe5b9050602002013583828151811061499557fe5b6020908102919091010152600101614921565b50614ab4565b60005b81811015614ab2578a8a828181106149c557fe5b90506020020160208101906149da919061513c565b6001600160a01b03168682815181106149ef57fe5b60200260200101516001600160a01b03161415614aaa576000898983818110614a1457fe5b9050602002013590508b8b83818110614a2957fe5b9050602002016020810190614a3e919061513c565b858381518110614a4a57fe5b60200260200101906001600160a01b031690816001600160a01b031681525050614a9081878481518110614a7a57fe5b6020026020010151614be790919063ffffffff16565b848381518110614a9c57fe5b602002602001018181525050505b6001016149b1565b505b5097509795505050505050565b6001600160a01b038416600090815260086020526040902083614b08578251614af09082906020860190614dc9565b508151614b069060048301906020850190614e2e565b505b8360011415614b3e578251614b269060018301906020860190614dc9565b508151614b3c9060058301906020850190614e2e565b505b8360021415614b74578251614b5c9060028301906020860190614dc9565b508151614b729060068301906020850190614e2e565b505b8360031415614baa578251614b929060038301906020860190614dc9565b508151614ba89060078301906020850190614e2e565b505b5050505050565b6060806125bc83614c86565b60006125bc836001600160a01b038416614ce0565b60006125bc836001600160a01b038416614cf8565b6000828201838110156125bc5760405162461bcd60e51b81526004016110b690615941565b6000610b0b82614d42565b60006125bc8383614d46565b60008184841115614c475760405162461bcd60e51b81526004016110b69190615897565b505050900390565b60008183614c705760405162461bcd60e51b81526004016110b69190615897565b506000838581614c7c57fe5b0495945050505050565b6060816000018054806020026020016040519081016040528092919081815260200182805480156112da57602002820191906000526020600020908154815260200190600101908083116112c65750505050509050919050565b60009081526001919091016020526040902054151590565b6000614d048383614ce0565b614d3a57508154600181810184556000848152602080822090930184905584548482528286019093526040902091909155610b0b565b506000610b0b565b5490565b6000826000018281548110614d5757fe5b9060005260206000200154905092915050565b60405180610100016040528060608152602001606081526020016060815260200160608152602001606081526020016060815260200160608152602001606081525090565b604051806040016040528060008152602001606081525090565b828054828255906000526020600020908101928215614e1e579160200282015b82811115614e1e57825182546001600160a01b0319166001600160a01b03909116178255602090920191600190910190614de9565b50614e2a929150614f76565b5090565b828054828255906000526020600020908101928215614e69579160200282015b82811115614e69578251825591602001919060010190614e4e565b50614e2a929150614f95565b60405180602001604052806001905b614e8c614ea2565b815260200190600190039081614e845790505090565b604051806060016040528060006001600160a01b0316815260200160008152602001600081525090565b6040518060800160405280614edf614faa565b8152602001614eec614faa565b8152602001614ef9614faa565b8152602001614f06614faa565b905290565b828054828255906000526020600020908101928215614e1e579160200282015b82811115614e1e5781546001600160a01b0319166001600160a01b03843516178255602090920191600190910190614f2b565b60408051808201909152600081526060602082015290565b5b80821115614e2a5780546001600160a01b0319168155600101614f77565b5b80821115614e2a5760008155600101614f96565b6040518060800160405280614fbd614fe0565b8152602001614fca614fe0565b8152602001614fd7614fe0565b8152602001614f065b604051806040016040528060008152602001600081525090565b60008083601f84011261500b578182fd5b5081356001600160401b03811115615021578182fd5b602083019150836020808302850101111561503b57600080fd5b9250929050565b600082601f830112615052578081fd5b813561506561506082615bea565b615bc4565b81815291506020808301908481018184028601820187101561508657600080fd5b60005b84811015611cd157813584529282019290820190600101615089565b600061010082840312156150b7578081fd5b6150c16080615bc4565b90506150cd838361510b565b81526150dc836040840161510b565b60208201526150ee836080840161510b565b60408201526151008360c0840161510b565b606082015292915050565b60006040828403121561511c578081fd5b6151266040615bc4565b9050813581526020820135602082015292915050565b60006020828403121561514d578081fd5b81356125bc81615c09565b600060208284031215615169578081fd5b81516125bc81615c09565b60008060408385031215615186578081fd5b823561519181615c09565b915060208301356151a181615c09565b809150509250929050565b600080600080600080608087890312156151c4578182fd5b86356151cf81615c09565b955060208701356151df81615c09565b945060408701356001600160401b03808211156151fa578384fd5b6152068a838b01614ffa565b9096509450606089013591508082111561521e578384fd5b5061522b89828a01614ffa565b979a9699509497509295939492505050565b600080600060608486031215615251578283fd5b833561525c81615c09565b9250602084013561526c81615c09565b929592945050506040919091013590565b6000806040838503121561528f578182fd5b823561529a81615c09565b915060208301356151a181615c1e565b6000808284036104208112156152be578283fd5b83356152c981615c09565b9250610400601f19820112156152dd578182fd5b506152e86080615bc4565b6152f585602086016150a5565b81526153058561012086016150a5565b60208201526153188561022086016150a5565b604082015261532b8561032086016150a5565b6060820152809150509250929050565b6000806040838503121561534d578182fd5b823561535881615c09565b946020939093013593505050565b6000806000806000806080878903121561537e578384fd5b863561538981615c09565b95506020870135945060408701356001600160401b03808211156151fa578586fd5b600060208083850312156153bd578182fd5b82516001600160401b038111156153d2578283fd5b8301601f810185136153e2578283fd5b80516153f061506082615bea565b818152838101908385018584028501860189101561540c578687fd5b8694505b8385101561543757805161542381615c09565b835260019490940193918501918501615410565b50979650505050505050565b60008060408385031215615455578182fd5b82356001600160401b038082111561546b578384fd5b818501915085601f83011261547e578384fd5b813561548c61506082615bea565b80828252602080830192508086018a8283870289010111156154ac578889fd5b8896505b848710156154d75780356154c381615c09565b8452600196909601959281019281016154b0565b5090965087013593505050808211156154ee578283fd5b506154fb85828601615042565b9150509250929050565b60006020808385031215615517578182fd5b82516001600160401b0381111561552c578283fd5b8301601f8101851361553c578283fd5b805161554a61506082615bea565b8181528381019083850185840285018601891015615566578687fd5b8694505b8385101561543757805183526001949094019391850191850161556a565b600060208284031215615599578081fd5b81516125bc81615c1e565b6000602082840312156155b5578081fd5b8151600281106125bc578182fd5b6000602082840312156155d4578081fd5b5035919050565b6000602082840312156155ec578081fd5b5051919050565b600060208284031215615604578081fd5b815160ff811681146125bc578182fd5b6000815180845260208085019450808401835b8381101561564357815187529582019590820190600101615627565b509495945050505050565b6001600160a01b0391909116815260200190565b6001600160a01b03929092168252602082015260400190565b6001600160a01b0392831681529116602082015260400190565b6001600160a01b039384168152919092166020820152604081019190915260600190565b6020808252825182820181905260009190848201906040850190845b818110156156fa5783516001600160a01b0316835292840192918401916001016156d5565b50909695505050505050565b60208082528251828201819052600091906040908185019080840286018301878501865b838110156157ab57888303603f19018552815180518452870151878401879052805187850181905290880190606090818601908b5b8181101561579557845180516001600160a01b031684528c8101518d8501528b01518b840152938b01939183019160010161575f565b505096890196945050509086019060010161572a565b509098975050505050505050565b606081810190828460005b600181101561580357815180516001600160a01b03168452602080820151818601526040918201519185019190915292840192909101906001016157c4565b5050505092915050565b60208082528251828201819052600091906040908185019080840286018301878501865b838110156157ab57888303603f19018552815180516001600160a01b0316845287015187840187905261586687850182615614565b9588019593505090860190600101615831565b6000602082526125bc6020830184615614565b901515815260200190565b6000602080835283518082850152825b818110156158c3578581018301518582016040015282016158a7565b818111156158d45783604083870101525b50601f01601f1916929092016040019392505050565b60208082526012908201527122a9292fa727aa2fa1a7a72a2927a62622a960711b604082015260600190565b60208082526011908201527011549497d21054d7d393d7d49155d05491607a1b604082015260600190565b6020808252601b908201527a536166654d6174683a206164646974696f6e206f766572666c6f7760281b604082015260600190565b6020808252600c908201526b696e697469616c697a65642160a01b604082015260600190565b6020808252601a908201527908aa4a4bea89e968a9cbe988a9c8ea890be9c9ea8be9a82a886960331b604082015260600190565b6020808252600990820152684552525f545950455360b81b604082015260600190565b60208082526010908201526f20b2323932b9b99034b99027bbb732b960811b604082015260600190565b6020808252601790820152764552525f494e56414c49445f4b4f4c5f4144445245535360481b604082015260600190565b60208082526010908201526f4552525f5a45524f5f4144445245535360801b604082015260600190565b6020808252600990820152682737ba1027bbb732b960b91b604082015260600190565b60208082526006908201526506f776e6572560d41b604082015260600190565b6020808252601890820152774552525f494e56414c49445f504f4f4c5f4144445245535360401b604082015260600190565b60208082526021908201527f536166654d6174683a206d756c7469706c69636174696f6e206f766572666c6f6040820152607760f81b606082015260800190565b6020808252600d908201526c11549497d21054d7d4d1551151609a1b604082015260600190565b6020808252601990820152784552525f494e56414c49445f5641554c545f4144445245535360381b604082015260600190565b60208082526019908201527811549497d393d517d0d3d354131155115117d0d3d3131150d5603a1b604082015260600190565b90815260200190565b6040518181016001600160401b0381118282101715615be257600080fd5b604052919050565b60006001600160401b03821115615bff578081fd5b5060209081020190565b6001600160a01b0381168114612b0557600080fd5b8015158114612b0557600080fdfea26469706673582212205531285caddcccd6689f3f8f99bf183f4d515a098d3616db74ad1a430e585d3d64736f6c634300060c0033",
  "devdoc": {
    "author": "Desyn Labs",
    "kind": "dev",
    "methods": {
      "getController()": {
        "details": "external for gas optimization",
        "returns": {
          "_0": "address - of the owner (AKA controller)"
        }
      },
      "removeOwner(address)": {
        "details": "Allows to remove an owner. Transaction has to be sent by wallet.",
        "params": {
          "owner": "Address of owner."
        }
      },
      "setAddAdminList(address,uint256)": {
        "details": "external for gas optimization",
        "params": {
          "newOwner": "- address of new owner"
        }
      },
      "setController(address)": {
        "details": "external for gas optimization",
        "params": {
          "newOwner": "- address of new owner"
        }
      }
    },
    "title": "Vault managerFee",
    "version": 1
  },
  "userdoc": {
    "kind": "user",
    "methods": {
      "getController()": {
        "notice": "Returns the address of the current owner"
      },
      "setAddAdminList(address,uint256)": {
        "notice": "Transfers ownership of the contract to a new account (`newOwner`).         Can only be called by the current owner"
      },
      "setController(address)": {
        "notice": "Transfers ownership of the contract to a new account (`newOwner`).         Can only be called by the current owner"
      }
    },
    "version": 1
  },
  "storageLayout": {
    "storage": [
      {
        "astId": 18091,
        "contract": "contracts/deploy/UserVault.sol:UserVault",
        "label": "_owner",
        "offset": 0,
        "slot": "0",
        "type": "t_address"
      },
      {
        "astId": 18095,
        "contract": "contracts/deploy/UserVault.sol:UserVault",
        "label": "adminList",
        "offset": 0,
        "slot": "1",
        "type": "t_mapping(t_address,t_bool)"
      },
      {
        "astId": 18098,
        "contract": "contracts/deploy/UserVault.sol:UserVault",
        "label": "owners",
        "offset": 0,
        "slot": "2",
        "type": "t_array(t_address)dyn_storage"
      },
      {
        "astId": 18101,
        "contract": "contracts/deploy/UserVault.sol:UserVault",
        "label": "ownerPercentage",
        "offset": 0,
        "slot": "3",
        "type": "t_array(t_uint256)dyn_storage"
      },
      {
        "astId": 18103,
        "contract": "contracts/deploy/UserVault.sol:UserVault",
        "label": "allOwnerPercentage",
        "offset": 0,
        "slot": "4",
        "type": "t_uint256"
      },
      {
        "astId": 18105,
        "contract": "contracts/deploy/UserVault.sol:UserVault",
        "label": "initialized",
        "offset": 0,
        "slot": "5",
        "type": "t_bool"
      },
      {
        "astId": 10170,
        "contract": "contracts/deploy/UserVault.sol:UserVault",
        "label": "crpFactory",
        "offset": 1,
        "slot": "5",
        "type": "t_contract(ICRPFactory)10156"
      },
      {
        "astId": 10172,
        "contract": "contracts/deploy/UserVault.sol:UserVault",
        "label": "vaultAddress",
        "offset": 0,
        "slot": "6",
        "type": "t_address"
      },
      {
        "astId": 10235,
        "contract": "contracts/deploy/UserVault.sol:UserVault",
        "label": "pool_manager",
        "offset": 0,
        "slot": "7",
        "type": "t_mapping(t_address,t_address)"
      },
      {
        "astId": 10239,
        "contract": "contracts/deploy/UserVault.sol:UserVault",
        "label": "poolsTokens",
        "offset": 0,
        "slot": "8",
        "type": "t_mapping(t_address,t_struct(PoolTokens)10216_storage)"
      },
      {
        "astId": 10243,
        "contract": "contracts/deploy/UserVault.sol:UserVault",
        "label": "poolsStatus",
        "offset": 0,
        "slot": "9",
        "type": "t_mapping(t_address,t_struct(PoolStatus)10225_storage)"
      },
      {
        "astId": 10247,
        "contract": "contracts/deploy/UserVault.sol:UserVault",
        "label": "record_number",
        "offset": 0,
        "slot": "10",
        "type": "t_mapping(t_address,t_uint256)"
      },
      {
        "astId": 10253,
        "contract": "contracts/deploy/UserVault.sol:UserVault",
        "label": "record_List",
        "offset": 0,
        "slot": "11",
        "type": "t_mapping(t_address,t_mapping(t_uint256,t_struct(ClaimRecordInfo)10191_storage))"
      },
      {
        "astId": 10258,
        "contract": "contracts/deploy/UserVault.sol:UserVault",
        "label": "kol_token_list",
        "offset": 0,
        "slot": "12",
        "type": "t_mapping(t_address,t_array(t_address)dyn_storage)"
      },
      {
        "astId": 10262,
        "contract": "contracts/deploy/UserVault.sol:UserVault",
        "label": "init_totalAmount_list",
        "offset": 0,
        "slot": "13",
        "type": "t_mapping(t_address,t_uint256)"
      },
      {
        "astId": 10268,
        "contract": "contracts/deploy/UserVault.sol:UserVault",
        "label": "manager_claimed_list",
        "offset": 0,
        "slot": "14",
        "type": "t_mapping(t_address,t_mapping(t_address,t_uint256))"
      },
      {
        "astId": 10272,
        "contract": "contracts/deploy/UserVault.sol:UserVault",
        "label": "kols_list",
        "offset": 0,
        "slot": "15",
        "type": "t_mapping(t_address,t_struct(AddressSet)9934_storage)"
      },
      {
        "astId": 10278,
        "contract": "contracts/deploy/UserVault.sol:UserVault",
        "label": "kol_claimed_list",
        "offset": 0,
        "slot": "16",
        "type": "t_mapping(t_address,t_mapping(t_address,t_uint256))"
      },
      {
        "astId": 10285,
        "contract": "contracts/deploy/UserVault.sol:UserVault",
        "label": "kol_totalAmount_list",
        "offset": 0,
        "slot": "17",
        "type": "t_mapping(t_address,t_mapping(t_address,t_array(t_uint256)dyn_storage))"
      },
      {
        "astId": 10292,
        "contract": "contracts/deploy/UserVault.sol:UserVault",
        "label": "kol_user_info",
        "offset": 0,
        "slot": "18",
        "type": "t_mapping(t_address,t_mapping(t_address,t_array(t_struct(KolUserInfo)10231_storage)dyn_storage))"
      },
      {
        "astId": 10298,
        "contract": "contracts/deploy/UserVault.sol:UserVault",
        "label": "user_index_list",
        "offset": 0,
        "slot": "19",
        "type": "t_mapping(t_address,t_mapping(t_address,t_uint256))"
      },
      {
        "astId": 10304,
        "contract": "contracts/deploy/UserVault.sol:UserVault",
        "label": "user_kol_list",
        "offset": 0,
        "slot": "20",
        "type": "t_mapping(t_address,t_mapping(t_address,t_address))"
      },
      {
        "astId": 10307,
        "contract": "contracts/deploy/UserVault.sol:UserVault",
        "label": "RATIO_TOTAL",
        "offset": 0,
        "slot": "21",
        "type": "t_uint256"
      }
    ],
    "types": {
      "t_address": {
        "encoding": "inplace",
        "label": "address",
        "numberOfBytes": "20"
      },
      "t_array(t_address)dyn_storage": {
        "base": "t_address",
        "encoding": "dynamic_array",
        "label": "address[]",
        "numberOfBytes": "32"
      },
      "t_array(t_bytes32)dyn_storage": {
        "base": "t_bytes32",
        "encoding": "dynamic_array",
        "label": "bytes32[]",
        "numberOfBytes": "32"
      },
      "t_array(t_struct(ClaimTokenInfo)10185_storage)dyn_storage": {
        "base": "t_struct(ClaimTokenInfo)10185_storage",
        "encoding": "dynamic_array",
        "label": "struct UserVault.ClaimTokenInfo[]",
        "numberOfBytes": "32"
      },
      "t_array(t_struct(KolUserInfo)10231_storage)dyn_storage": {
        "base": "t_struct(KolUserInfo)10231_storage",
        "encoding": "dynamic_array",
        "label": "struct UserVault.KolUserInfo[]",
        "numberOfBytes": "32"
      },
      "t_array(t_uint256)dyn_storage": {
        "base": "t_uint256",
        "encoding": "dynamic_array",
        "label": "uint256[]",
        "numberOfBytes": "32"
      },
      "t_bool": {
        "encoding": "inplace",
        "label": "bool",
        "numberOfBytes": "1"
      },
      "t_bytes32": {
        "encoding": "inplace",
        "label": "bytes32",
        "numberOfBytes": "32"
      },
      "t_contract(ICRPFactory)10156": {
        "encoding": "inplace",
        "label": "contract ICRPFactory",
        "numberOfBytes": "20"
      },
      "t_mapping(t_address,t_address)": {
        "encoding": "mapping",
        "key": "t_address",
        "label": "mapping(address => address)",
        "numberOfBytes": "32",
        "value": "t_address"
      },
      "t_mapping(t_address,t_array(t_address)dyn_storage)": {
        "encoding": "mapping",
        "key": "t_address",
        "label": "mapping(address => address[])",
        "numberOfBytes": "32",
        "value": "t_array(t_address)dyn_storage"
      },
      "t_mapping(t_address,t_array(t_struct(KolUserInfo)10231_storage)dyn_storage)": {
        "encoding": "mapping",
        "key": "t_address",
        "label": "mapping(address => struct UserVault.KolUserInfo[])",
        "numberOfBytes": "32",
        "value": "t_array(t_struct(KolUserInfo)10231_storage)dyn_storage"
      },
      "t_mapping(t_address,t_array(t_uint256)dyn_storage)": {
        "encoding": "mapping",
        "key": "t_address",
        "label": "mapping(address => uint256[])",
        "numberOfBytes": "32",
        "value": "t_array(t_uint256)dyn_storage"
      },
      "t_mapping(t_address,t_bool)": {
        "encoding": "mapping",
        "key": "t_address",
        "label": "mapping(address => bool)",
        "numberOfBytes": "32",
        "value": "t_bool"
      },
      "t_mapping(t_address,t_mapping(t_address,t_address))": {
        "encoding": "mapping",
        "key": "t_address",
        "label": "mapping(address => mapping(address => address))",
        "numberOfBytes": "32",
        "value": "t_mapping(t_address,t_address)"
      },
      "t_mapping(t_address,t_mapping(t_address,t_array(t_struct(KolUserInfo)10231_storage)dyn_storage))": {
        "encoding": "mapping",
        "key": "t_address",
        "label": "mapping(address => mapping(address => struct UserVault.KolUserInfo[]))",
        "numberOfBytes": "32",
        "value": "t_mapping(t_address,t_array(t_struct(KolUserInfo)10231_storage)dyn_storage)"
      },
      "t_mapping(t_address,t_mapping(t_address,t_array(t_uint256)dyn_storage))": {
        "encoding": "mapping",
        "key": "t_address",
        "label": "mapping(address => mapping(address => uint256[]))",
        "numberOfBytes": "32",
        "value": "t_mapping(t_address,t_array(t_uint256)dyn_storage)"
      },
      "t_mapping(t_address,t_mapping(t_address,t_uint256))": {
        "encoding": "mapping",
        "key": "t_address",
        "label": "mapping(address => mapping(address => uint256))",
        "numberOfBytes": "32",
        "value": "t_mapping(t_address,t_uint256)"
      },
      "t_mapping(t_address,t_mapping(t_uint256,t_struct(ClaimRecordInfo)10191_storage))": {
        "encoding": "mapping",
        "key": "t_address",
        "label": "mapping(address => mapping(uint256 => struct UserVault.ClaimRecordInfo))",
        "numberOfBytes": "32",
        "value": "t_mapping(t_uint256,t_struct(ClaimRecordInfo)10191_storage)"
      },
      "t_mapping(t_address,t_struct(AddressSet)9934_storage)": {
        "encoding": "mapping",
        "key": "t_address",
        "label": "mapping(address => struct EnumerableSet.AddressSet)",
        "numberOfBytes": "32",
        "value": "t_struct(AddressSet)9934_storage"
      },
      "t_mapping(t_address,t_struct(PoolStatus)10225_storage)": {
        "encoding": "mapping",
        "key": "t_address",
        "label": "mapping(address => struct UserVault.PoolStatus)",
        "numberOfBytes": "32",
        "value": "t_struct(PoolStatus)10225_storage"
      },
      "t_mapping(t_address,t_struct(PoolTokens)10216_storage)": {
        "encoding": "mapping",
        "key": "t_address",
        "label": "mapping(address => struct UserVault.PoolTokens)",
        "numberOfBytes": "32",
        "value": "t_struct(PoolTokens)10216_storage"
      },
      "t_mapping(t_address,t_uint256)": {
        "encoding": "mapping",
        "key": "t_address",
        "label": "mapping(address => uint256)",
        "numberOfBytes": "32",
        "value": "t_uint256"
      },
      "t_mapping(t_bytes32,t_uint256)": {
        "encoding": "mapping",
        "key": "t_bytes32",
        "label": "mapping(bytes32 => uint256)",
        "numberOfBytes": "32",
        "value": "t_uint256"
      },
      "t_mapping(t_uint256,t_struct(ClaimRecordInfo)10191_storage)": {
        "encoding": "mapping",
        "key": "t_uint256",
        "label": "mapping(uint256 => struct UserVault.ClaimRecordInfo)",
        "numberOfBytes": "32",
        "value": "t_struct(ClaimRecordInfo)10191_storage"
      },
      "t_struct(AddressSet)9934_storage": {
        "encoding": "inplace",
        "label": "struct EnumerableSet.AddressSet",
        "members": [
          {
            "astId": 9933,
            "contract": "contracts/deploy/UserVault.sol:UserVault",
            "label": "_inner",
            "offset": 0,
            "slot": "0",
            "type": "t_struct(Set)9747_storage"
          }
        ],
        "numberOfBytes": "64"
      },
      "t_struct(ClaimRecordInfo)10191_storage": {
        "encoding": "inplace",
        "label": "struct UserVault.ClaimRecordInfo",
        "members": [
          {
            "astId": 10187,
            "contract": "contracts/deploy/UserVault.sol:UserVault",
            "label": "time",
            "offset": 0,
            "slot": "0",
            "type": "t_uint256"
          },
          {
            "astId": 10190,
            "contract": "contracts/deploy/UserVault.sol:UserVault",
            "label": "tokens",
            "offset": 0,
            "slot": "1",
            "type": "t_array(t_struct(ClaimTokenInfo)10185_storage)dyn_storage"
          }
        ],
        "numberOfBytes": "64"
      },
      "t_struct(ClaimTokenInfo)10185_storage": {
        "encoding": "inplace",
        "label": "struct UserVault.ClaimTokenInfo",
        "members": [
          {
            "astId": 10180,
            "contract": "contracts/deploy/UserVault.sol:UserVault",
            "label": "token",
            "offset": 0,
            "slot": "0",
            "type": "t_address"
          },
          {
            "astId": 10182,
            "contract": "contracts/deploy/UserVault.sol:UserVault",
            "label": "decimals",
            "offset": 0,
            "slot": "1",
            "type": "t_uint256"
          },
          {
            "astId": 10184,
            "contract": "contracts/deploy/UserVault.sol:UserVault",
            "label": "amount",
            "offset": 0,
            "slot": "2",
            "type": "t_uint256"
          }
        ],
        "numberOfBytes": "96"
      },
      "t_struct(KolPoolParams)16800_storage": {
        "encoding": "inplace",
        "label": "struct SmartPoolManager.KolPoolParams",
        "members": [
          {
            "astId": 16793,
            "contract": "contracts/deploy/UserVault.sol:UserVault",
            "label": "managerFee",
            "offset": 0,
            "slot": "0",
            "type": "t_struct(feeParams)16791_storage"
          },
          {
            "astId": 16795,
            "contract": "contracts/deploy/UserVault.sol:UserVault",
            "label": "issueFee",
            "offset": 0,
            "slot": "8",
            "type": "t_struct(feeParams)16791_storage"
          },
          {
            "astId": 16797,
            "contract": "contracts/deploy/UserVault.sol:UserVault",
            "label": "redeemFee",
            "offset": 0,
            "slot": "16",
            "type": "t_struct(feeParams)16791_storage"
          },
          {
            "astId": 16799,
            "contract": "contracts/deploy/UserVault.sol:UserVault",
            "label": "perfermanceFee",
            "offset": 0,
            "slot": "24",
            "type": "t_struct(feeParams)16791_storage"
          }
        ],
        "numberOfBytes": "1024"
      },
      "t_struct(KolUserInfo)10231_storage": {
        "encoding": "inplace",
        "label": "struct UserVault.KolUserInfo",
        "members": [
          {
            "astId": 10227,
            "contract": "contracts/deploy/UserVault.sol:UserVault",
            "label": "userAdr",
            "offset": 0,
            "slot": "0",
            "type": "t_address"
          },
          {
            "astId": 10230,
            "contract": "contracts/deploy/UserVault.sol:UserVault",
            "label": "userAmount",
            "offset": 0,
            "slot": "1",
            "type": "t_array(t_uint256)dyn_storage"
          }
        ],
        "numberOfBytes": "64"
      },
      "t_struct(PoolStatus)10225_storage": {
        "encoding": "inplace",
        "label": "struct UserVault.PoolStatus",
        "members": [
          {
            "astId": 10218,
            "contract": "contracts/deploy/UserVault.sol:UserVault",
            "label": "couldManagerClaim",
            "offset": 0,
            "slot": "0",
            "type": "t_bool"
          },
          {
            "astId": 10220,
            "contract": "contracts/deploy/UserVault.sol:UserVault",
            "label": "isBlackList",
            "offset": 1,
            "slot": "0",
            "type": "t_bool"
          },
          {
            "astId": 10222,
            "contract": "contracts/deploy/UserVault.sol:UserVault",
            "label": "isSetParams",
            "offset": 2,
            "slot": "0",
            "type": "t_bool"
          },
          {
            "astId": 10224,
            "contract": "contracts/deploy/UserVault.sol:UserVault",
            "label": "kolPoolConfig",
            "offset": 0,
            "slot": "1",
            "type": "t_struct(KolPoolParams)16800_storage"
          }
        ],
        "numberOfBytes": "1056"
      },
      "t_struct(PoolTokens)10216_storage": {
        "encoding": "inplace",
        "label": "struct UserVault.PoolTokens",
        "members": [
          {
            "astId": 10194,
            "contract": "contracts/deploy/UserVault.sol:UserVault",
            "label": "tokenList",
            "offset": 0,
            "slot": "0",
            "type": "t_array(t_address)dyn_storage"
          },
          {
            "astId": 10197,
            "contract": "contracts/deploy/UserVault.sol:UserVault",
            "label": "issueTokens",
            "offset": 0,
            "slot": "1",
            "type": "t_array(t_address)dyn_storage"
          },
          {
            "astId": 10200,
            "contract": "contracts/deploy/UserVault.sol:UserVault",
            "label": "redeemTokens",
            "offset": 0,
            "slot": "2",
            "type": "t_array(t_address)dyn_storage"
          },
          {
            "astId": 10203,
            "contract": "contracts/deploy/UserVault.sol:UserVault",
            "label": "perfermanceTokens",
            "offset": 0,
            "slot": "3",
            "type": "t_array(t_address)dyn_storage"
          },
          {
            "astId": 10206,
            "contract": "contracts/deploy/UserVault.sol:UserVault",
            "label": "managerAmount",
            "offset": 0,
            "slot": "4",
            "type": "t_array(t_uint256)dyn_storage"
          },
          {
            "astId": 10209,
            "contract": "contracts/deploy/UserVault.sol:UserVault",
            "label": "issueAmount",
            "offset": 0,
            "slot": "5",
            "type": "t_array(t_uint256)dyn_storage"
          },
          {
            "astId": 10212,
            "contract": "contracts/deploy/UserVault.sol:UserVault",
            "label": "redeemAmount",
            "offset": 0,
            "slot": "6",
            "type": "t_array(t_uint256)dyn_storage"
          },
          {
            "astId": 10215,
            "contract": "contracts/deploy/UserVault.sol:UserVault",
            "label": "perfermanceAmount",
            "offset": 0,
            "slot": "7",
            "type": "t_array(t_uint256)dyn_storage"
          }
        ],
        "numberOfBytes": "256"
      },
      "t_struct(Set)9747_storage": {
        "encoding": "inplace",
        "label": "struct EnumerableSet.Set",
        "members": [
          {
            "astId": 9742,
            "contract": "contracts/deploy/UserVault.sol:UserVault",
            "label": "_values",
            "offset": 0,
            "slot": "0",
            "type": "t_array(t_bytes32)dyn_storage"
          },
          {
            "astId": 9746,
            "contract": "contracts/deploy/UserVault.sol:UserVault",
            "label": "_indexes",
            "offset": 0,
            "slot": "1",
            "type": "t_mapping(t_bytes32,t_uint256)"
          }
        ],
        "numberOfBytes": "64"
      },
      "t_struct(feeParams)16791_storage": {
        "encoding": "inplace",
        "label": "struct SmartPoolManager.feeParams",
        "members": [
          {
            "astId": 16784,
            "contract": "contracts/deploy/UserVault.sol:UserVault",
            "label": "firstLevel",
            "offset": 0,
            "slot": "0",
            "type": "t_struct(levelParams)16782_storage"
          },
          {
            "astId": 16786,
            "contract": "contracts/deploy/UserVault.sol:UserVault",
            "label": "secondLevel",
            "offset": 0,
            "slot": "2",
            "type": "t_struct(levelParams)16782_storage"
          },
          {
            "astId": 16788,
            "contract": "contracts/deploy/UserVault.sol:UserVault",
            "label": "thirdLevel",
            "offset": 0,
            "slot": "4",
            "type": "t_struct(levelParams)16782_storage"
          },
          {
            "astId": 16790,
            "contract": "contracts/deploy/UserVault.sol:UserVault",
            "label": "fourLevel",
            "offset": 0,
            "slot": "6",
            "type": "t_struct(levelParams)16782_storage"
          }
        ],
        "numberOfBytes": "256"
      },
      "t_struct(levelParams)16782_storage": {
        "encoding": "inplace",
        "label": "struct SmartPoolManager.levelParams",
        "members": [
          {
            "astId": 16779,
            "contract": "contracts/deploy/UserVault.sol:UserVault",
            "label": "level",
            "offset": 0,
            "slot": "0",
            "type": "t_uint256"
          },
          {
            "astId": 16781,
            "contract": "contracts/deploy/UserVault.sol:UserVault",
            "label": "ratio",
            "offset": 0,
            "slot": "1",
            "type": "t_uint256"
          }
        ],
        "numberOfBytes": "64"
      },
      "t_uint256": {
        "encoding": "inplace",
        "label": "uint256",
        "numberOfBytes": "32"
      }
    }
  }
}