{
  "address": "0x63de2f72343f2ff63ef399530ed24b29a8349d3c",
  "abi": [
    {
      "inputs": [],
      "stateMutability": "nonpayable",
      "type": "constructor"
    },
    {
      "anonymous": false,
      "inputs": [
        {
          "indexed": true,
          "internalType": "address",
          "name": "newAdmin",
          "type": "address"
        },
        {
          "indexed": true,
          "internalType": "uint256",
          "name": "amount",
          "type": "uint256"
        }
      ],
      "name": "AddAdmin",
      "type": "event"
    },
    {
      "anonymous": false,
      "inputs": [
        {
          "indexed": true,
          "internalType": "address",
          "name": "manager",
          "type": "address"
        },
        {
          "indexed": true,
          "internalType": "address",
          "name": "caller",
          "type": "address"
        }
      ],
      "name": "LOGVaultAdr",
      "type": "event"
    },
    {
      "anonymous": false,
      "inputs": [
        {
          "indexed": true,
          "internalType": "address",
          "name": "previousOwner",
          "type": "address"
        },
        {
          "indexed": true,
          "internalType": "address",
          "name": "newOwner",
          "type": "address"
        }
      ],
      "name": "OwnershipTransferred",
      "type": "event"
    },
    {
      "anonymous": false,
      "inputs": [
        {
          "indexed": true,
          "internalType": "address",
          "name": "oldAdmin",
          "type": "address"
        },
        {
          "indexed": true,
          "internalType": "uint256",
          "name": "amount",
          "type": "uint256"
        }
      ],
      "name": "RemoveAdmin",
      "type": "event"
    },
    {
      "inputs": [
        {
          "internalType": "address",
          "name": "token",
          "type": "address"
        },
        {
          "internalType": "address",
          "name": "user",
          "type": "address"
        },
        {
          "internalType": "uint256",
          "name": "amount",
          "type": "uint256"
        }
      ],
      "name": "adminClaimToken",
      "outputs": [],
      "stateMutability": "nonpayable",
      "type": "function"
    },
    {
      "inputs": [
        {
          "internalType": "address",
          "name": "",
          "type": "address"
        }
      ],
      "name": "adminList",
      "outputs": [
        {
          "internalType": "bool",
          "name": "",
          "type": "bool"
        }
      ],
      "stateMutability": "view",
      "type": "function"
    },
    {
      "inputs": [],
      "name": "allOwnerPercentage",
      "outputs": [
        {
          "internalType": "uint256",
          "name": "",
          "type": "uint256"
        }
      ],
      "stateMutability": "view",
      "type": "function"
    },
    {
      "inputs": [
        {
          "internalType": "address",
          "name": "",
          "type": "address"
        }
      ],
      "name": "black_list",
      "outputs": [
        {
          "internalType": "bool",
          "name": "",
          "type": "bool"
        }
      ],
      "stateMutability": "view",
      "type": "function"
    },
    {
      "inputs": [
        {
          "internalType": "address",
          "name": "pool",
          "type": "address"
        }
      ],
      "name": "claimKolReward",
      "outputs": [],
      "stateMutability": "nonpayable",
      "type": "function"
    },
    {
      "inputs": [
        {
          "internalType": "address",
          "name": "pool",
          "type": "address"
        }
      ],
      "name": "claimManagersReward",
      "outputs": [],
      "stateMutability": "nonpayable",
      "type": "function"
    },
    {
      "inputs": [
        {
          "internalType": "address",
          "name": "pool",
          "type": "address"
        },
        {
          "internalType": "address",
          "name": "kol",
          "type": "address"
        },
        {
          "internalType": "uint256",
          "name": "types",
          "type": "uint256"
        }
      ],
      "name": "computeReward",
      "outputs": [
        {
          "internalType": "uint256",
          "name": "",
          "type": "uint256"
        }
      ],
      "stateMutability": "view",
      "type": "function"
    },
    {
      "inputs": [
        {
          "internalType": "address",
          "name": "pool",
          "type": "address"
        },
        {
          "internalType": "uint256",
          "name": "types",
          "type": "uint256"
        },
        {
          "internalType": "address[]",
          "name": "poolTokens",
          "type": "address[]"
        },
        {
          "internalType": "uint256[]",
          "name": "tokensAmount",
          "type": "uint256[]"
        }
      ],
      "name": "depositToken",
      "outputs": [],
      "stateMutability": "nonpayable",
      "type": "function"
    },
    {
      "inputs": [
        {
          "internalType": "address",
          "name": "pool",
          "type": "address"
        }
      ],
      "name": "getAllKolReward",
      "outputs": [
        {
          "internalType": "uint256",
          "name": "totalAmount",
          "type": "uint256"
        }
      ],
      "stateMutability": "view",
      "type": "function"
    },
    {
      "inputs": [
        {
          "internalType": "address",
          "name": "pool",
          "type": "address"
        }
      ],
      "name": "getAllManagersReward",
      "outputs": [
        {
          "internalType": "uint256",
          "name": "",
          "type": "uint256"
        }
      ],
      "stateMutability": "view",
      "type": "function"
    },
    {
      "inputs": [],
      "name": "getBNB",
      "outputs": [],
      "stateMutability": "payable",
      "type": "function"
    },
    {
      "inputs": [],
      "name": "getController",
      "outputs": [
        {
          "internalType": "address",
          "name": "",
          "type": "address"
        }
      ],
      "stateMutability": "view",
      "type": "function"
    },
    {
      "inputs": [
        {
          "internalType": "address",
          "name": "pool",
          "type": "address"
        }
      ],
      "name": "getKolsAdr",
      "outputs": [
        {
          "internalType": "address[]",
          "name": "",
          "type": "address[]"
        }
      ],
      "stateMutability": "view",
      "type": "function"
    },
    {
      "inputs": [
        {
          "internalType": "address",
          "name": "pool",
          "type": "address"
        }
      ],
      "name": "getManagerClaimBool",
      "outputs": [
        {
          "internalType": "bool",
          "name": "bools",
          "type": "bool"
        }
      ],
      "stateMutability": "view",
      "type": "function"
    },
    {
      "inputs": [
        {
          "internalType": "address",
          "name": "pool",
          "type": "address"
        },
        {
          "internalType": "address",
          "name": "maragerAdr",
          "type": "address"
        }
      ],
      "name": "getManagerReward",
      "outputs": [
        {
          "internalType": "uint256",
          "name": "",
          "type": "uint256"
        }
      ],
      "stateMutability": "view",
      "type": "function"
    },
    {
      "inputs": [],
      "name": "getOwnerPercentage",
      "outputs": [
        {
          "internalType": "uint256[]",
          "name": "",
          "type": "uint256[]"
        }
      ],
      "stateMutability": "view",
      "type": "function"
    },
    {
      "inputs": [],
      "name": "getOwners",
      "outputs": [
        {
          "internalType": "address[]",
          "name": "",
          "type": "address[]"
        }
      ],
      "stateMutability": "view",
      "type": "function"
    },
    {
      "inputs": [
        {
          "internalType": "address",
          "name": "pool",
          "type": "address"
        }
      ],
      "name": "getPoolAllFee",
      "outputs": [
        {
          "internalType": "uint256",
          "name": "totalAmount",
          "type": "uint256"
        }
      ],
      "stateMutability": "view",
      "type": "function"
    },
    {
      "inputs": [
        {
          "internalType": "address",
          "name": "pool",
          "type": "address"
        },
        {
          "internalType": "address",
          "name": "kol",
          "type": "address"
        }
      ],
      "name": "getPoolKolTotalAmounts",
      "outputs": [
        {
          "internalType": "uint256[]",
          "name": "",
          "type": "uint256[]"
        }
      ],
      "stateMutability": "view",
      "type": "function"
    },
    {
      "inputs": [
        {
          "internalType": "address",
          "name": "pool",
          "type": "address"
        },
        {
          "internalType": "address",
          "name": "kol",
          "type": "address"
        }
      ],
      "name": "getPoolKolUserInfo",
      "outputs": [
        {
          "components": [
            {
              "internalType": "address",
              "name": "userAdr",
              "type": "address"
            },
            {
              "internalType": "uint256[]",
              "name": "userAmount",
              "type": "uint256[]"
            }
          ],
          "internalType": "struct UserVault.kolUserInfo[]",
          "name": "info",
          "type": "tuple[]"
        }
      ],
      "stateMutability": "view",
      "type": "function"
    },
    {
      "inputs": [
        {
          "internalType": "address",
          "name": "pool",
          "type": "address"
        },
        {
          "internalType": "address",
          "name": "user",
          "type": "address"
        }
      ],
      "name": "getPoolUserKolAdr",
      "outputs": [
        {
          "internalType": "address",
          "name": "tokenAddress",
          "type": "address"
        }
      ],
      "stateMutability": "view",
      "type": "function"
    },
    {
      "inputs": [
        {
          "internalType": "address",
          "name": "pool",
          "type": "address"
        }
      ],
      "name": "getPoolUserList",
      "outputs": [
        {
          "internalType": "address[]",
          "name": "tokenList",
          "type": "address[]"
        }
      ],
      "stateMutability": "view",
      "type": "function"
    },
    {
      "inputs": [
        {
          "internalType": "address",
          "name": "pool",
          "type": "address"
        },
        {
          "internalType": "address",
          "name": "maragerAdr",
          "type": "address"
        }
      ],
      "name": "getUnManagerReward",
      "outputs": [
        {
          "internalType": "uint256",
          "name": "",
          "type": "uint256"
        }
      ],
      "stateMutability": "view",
      "type": "function"
    },
    {
      "inputs": [
        {
          "internalType": "address[]",
          "name": "_owners",
          "type": "address[]"
        },
        {
          "internalType": "uint256[]",
          "name": "_ownerPercentage",
          "type": "uint256[]"
        }
      ],
      "name": "initHandle",
      "outputs": [],
      "stateMutability": "nonpayable",
      "type": "function"
    },
    {
      "inputs": [
        {
          "internalType": "address",
          "name": "",
          "type": "address"
        }
      ],
      "name": "init_totalAmount_list",
      "outputs": [
        {
          "internalType": "uint256",
          "name": "",
          "type": "uint256"
        }
      ],
      "stateMutability": "view",
      "type": "function"
    },
    {
      "inputs": [
        {
          "internalType": "address",
          "name": "pool",
          "type": "address"
        }
      ],
      "name": "isClosePool",
      "outputs": [
        {
          "internalType": "bool",
          "name": "",
          "type": "bool"
        }
      ],
      "stateMutability": "view",
      "type": "function"
    },
    {
      "inputs": [
        {
          "internalType": "address",
          "name": "",
          "type": "address"
        }
      ],
      "name": "is_set_params",
      "outputs": [
        {
          "internalType": "bool",
          "name": "",
          "type": "bool"
        }
      ],
      "stateMutability": "view",
      "type": "function"
    },
    {
      "inputs": [
        {
          "internalType": "address",
          "name": "pool",
          "type": "address"
        },
        {
          "internalType": "address",
          "name": "kol",
          "type": "address"
        }
      ],
      "name": "kolClaimTotal",
      "outputs": [
        {
          "internalType": "uint256",
          "name": "",
          "type": "uint256"
        }
      ],
      "stateMutability": "view",
      "type": "function"
    },
    {
      "inputs": [
        {
          "internalType": "address",
          "name": "pool",
          "type": "address"
        },
        {
          "internalType": "address",
          "name": "kol",
          "type": "address"
        }
      ],
      "name": "kolUnClaimAmount",
      "outputs": [
        {
          "internalType": "uint256",
          "name": "",
          "type": "uint256"
        }
      ],
      "stateMutability": "view",
      "type": "function"
    },
    {
      "inputs": [
        {
          "internalType": "address",
          "name": "",
          "type": "address"
        },
        {
          "internalType": "address",
          "name": "",
          "type": "address"
        }
      ],
      "name": "kol_claimed_list",
      "outputs": [
        {
          "internalType": "uint256",
          "name": "",
          "type": "uint256"
        }
      ],
      "stateMutability": "view",
      "type": "function"
    },
    {
      "inputs": [
        {
          "internalType": "address",
          "name": "",
          "type": "address"
        }
      ],
      "name": "kol_pool_params",
      "outputs": [
        {
          "components": [
            {
              "components": [
                {
                  "internalType": "uint256",
                  "name": "level",
                  "type": "uint256"
                },
                {
                  "internalType": "uint256",
                  "name": "ratio",
                  "type": "uint256"
                }
              ],
              "internalType": "struct SmartPoolManager.levelParams",
              "name": "firstLevel",
              "type": "tuple"
            },
            {
              "components": [
                {
                  "internalType": "uint256",
                  "name": "level",
                  "type": "uint256"
                },
                {
                  "internalType": "uint256",
                  "name": "ratio",
                  "type": "uint256"
                }
              ],
              "internalType": "struct SmartPoolManager.levelParams",
              "name": "secondLevel",
              "type": "tuple"
            },
            {
              "components": [
                {
                  "internalType": "uint256",
                  "name": "level",
                  "type": "uint256"
                },
                {
                  "internalType": "uint256",
                  "name": "ratio",
                  "type": "uint256"
                }
              ],
              "internalType": "struct SmartPoolManager.levelParams",
              "name": "thirdLevel",
              "type": "tuple"
            },
            {
              "components": [
                {
                  "internalType": "uint256",
                  "name": "level",
                  "type": "uint256"
                },
                {
                  "internalType": "uint256",
                  "name": "ratio",
                  "type": "uint256"
                }
              ],
              "internalType": "struct SmartPoolManager.levelParams",
              "name": "fourLevel",
              "type": "tuple"
            }
          ],
          "internalType": "struct SmartPoolManager.feeParams",
          "name": "managerFee",
          "type": "tuple"
        },
        {
          "components": [
            {
              "components": [
                {
                  "internalType": "uint256",
                  "name": "level",
                  "type": "uint256"
                },
                {
                  "internalType": "uint256",
                  "name": "ratio",
                  "type": "uint256"
                }
              ],
              "internalType": "struct SmartPoolManager.levelParams",
              "name": "firstLevel",
              "type": "tuple"
            },
            {
              "components": [
                {
                  "internalType": "uint256",
                  "name": "level",
                  "type": "uint256"
                },
                {
                  "internalType": "uint256",
                  "name": "ratio",
                  "type": "uint256"
                }
              ],
              "internalType": "struct SmartPoolManager.levelParams",
              "name": "secondLevel",
              "type": "tuple"
            },
            {
              "components": [
                {
                  "internalType": "uint256",
                  "name": "level",
                  "type": "uint256"
                },
                {
                  "internalType": "uint256",
                  "name": "ratio",
                  "type": "uint256"
                }
              ],
              "internalType": "struct SmartPoolManager.levelParams",
              "name": "thirdLevel",
              "type": "tuple"
            },
            {
              "components": [
                {
                  "internalType": "uint256",
                  "name": "level",
                  "type": "uint256"
                },
                {
                  "internalType": "uint256",
                  "name": "ratio",
                  "type": "uint256"
                }
              ],
              "internalType": "struct SmartPoolManager.levelParams",
              "name": "fourLevel",
              "type": "tuple"
            }
          ],
          "internalType": "struct SmartPoolManager.feeParams",
          "name": "issueFee",
          "type": "tuple"
        },
        {
          "components": [
            {
              "components": [
                {
                  "internalType": "uint256",
                  "name": "level",
                  "type": "uint256"
                },
                {
                  "internalType": "uint256",
                  "name": "ratio",
                  "type": "uint256"
                }
              ],
              "internalType": "struct SmartPoolManager.levelParams",
              "name": "firstLevel",
              "type": "tuple"
            },
            {
              "components": [
                {
                  "internalType": "uint256",
                  "name": "level",
                  "type": "uint256"
                },
                {
                  "internalType": "uint256",
                  "name": "ratio",
                  "type": "uint256"
                }
              ],
              "internalType": "struct SmartPoolManager.levelParams",
              "name": "secondLevel",
              "type": "tuple"
            },
            {
              "components": [
                {
                  "internalType": "uint256",
                  "name": "level",
                  "type": "uint256"
                },
                {
                  "internalType": "uint256",
                  "name": "ratio",
                  "type": "uint256"
                }
              ],
              "internalType": "struct SmartPoolManager.levelParams",
              "name": "thirdLevel",
              "type": "tuple"
            },
            {
              "components": [
                {
                  "internalType": "uint256",
                  "name": "level",
                  "type": "uint256"
                },
                {
                  "internalType": "uint256",
                  "name": "ratio",
                  "type": "uint256"
                }
              ],
              "internalType": "struct SmartPoolManager.levelParams",
              "name": "fourLevel",
              "type": "tuple"
            }
          ],
          "internalType": "struct SmartPoolManager.feeParams",
          "name": "redeemFee",
          "type": "tuple"
        },
        {
          "components": [
            {
              "components": [
                {
                  "internalType": "uint256",
                  "name": "level",
                  "type": "uint256"
                },
                {
                  "internalType": "uint256",
                  "name": "ratio",
                  "type": "uint256"
                }
              ],
              "internalType": "struct SmartPoolManager.levelParams",
              "name": "firstLevel",
              "type": "tuple"
            },
            {
              "components": [
                {
                  "internalType": "uint256",
                  "name": "level",
                  "type": "uint256"
                },
                {
                  "internalType": "uint256",
                  "name": "ratio",
                  "type": "uint256"
                }
              ],
              "internalType": "struct SmartPoolManager.levelParams",
              "name": "secondLevel",
              "type": "tuple"
            },
            {
              "components": [
                {
                  "internalType": "uint256",
                  "name": "level",
                  "type": "uint256"
                },
                {
                  "internalType": "uint256",
                  "name": "ratio",
                  "type": "uint256"
                }
              ],
              "internalType": "struct SmartPoolManager.levelParams",
              "name": "thirdLevel",
              "type": "tuple"
            },
            {
              "components": [
                {
                  "internalType": "uint256",
                  "name": "level",
                  "type": "uint256"
                },
                {
                  "internalType": "uint256",
                  "name": "ratio",
                  "type": "uint256"
                }
              ],
              "internalType": "struct SmartPoolManager.levelParams",
              "name": "fourLevel",
              "type": "tuple"
            }
          ],
          "internalType": "struct SmartPoolManager.feeParams",
          "name": "perfermanceFee",
          "type": "tuple"
        }
      ],
      "stateMutability": "view",
      "type": "function"
    },
    {
      "inputs": [
        {
          "internalType": "address",
          "name": "",
          "type": "address"
        },
        {
          "internalType": "uint256",
          "name": "",
          "type": "uint256"
        }
      ],
      "name": "kol_token_list",
      "outputs": [
        {
          "internalType": "address",
          "name": "",
          "type": "address"
        }
      ],
      "stateMutability": "view",
      "type": "function"
    },
    {
      "inputs": [
        {
          "internalType": "address",
          "name": "",
          "type": "address"
        },
        {
          "internalType": "address",
          "name": "",
          "type": "address"
        },
        {
          "internalType": "uint256",
          "name": "",
          "type": "uint256"
        }
      ],
      "name": "kol_totalAmount_list",
      "outputs": [
        {
          "internalType": "uint256",
          "name": "",
          "type": "uint256"
        }
      ],
      "stateMutability": "view",
      "type": "function"
    },
    {
      "inputs": [
        {
          "internalType": "address",
          "name": "",
          "type": "address"
        },
        {
          "internalType": "address",
          "name": "",
          "type": "address"
        },
        {
          "internalType": "uint256",
          "name": "",
          "type": "uint256"
        }
      ],
      "name": "kol_user_info",
      "outputs": [
        {
          "internalType": "address",
          "name": "userAdr",
          "type": "address"
        }
      ],
      "stateMutability": "view",
      "type": "function"
    },
    {
      "inputs": [
        {
          "internalType": "address",
          "name": "",
          "type": "address"
        },
        {
          "internalType": "address",
          "name": "",
          "type": "address"
        }
      ],
      "name": "manager_claimed_list",
      "outputs": [
        {
          "internalType": "uint256",
          "name": "",
          "type": "uint256"
        }
      ],
      "stateMutability": "view",
      "type": "function"
    },
    {
      "inputs": [
        {
          "internalType": "uint256",
          "name": "",
          "type": "uint256"
        }
      ],
      "name": "ownerPercentage",
      "outputs": [
        {
          "internalType": "uint256",
          "name": "",
          "type": "uint256"
        }
      ],
      "stateMutability": "view",
      "type": "function"
    },
    {
      "inputs": [
        {
          "internalType": "uint256",
          "name": "",
          "type": "uint256"
        }
      ],
      "name": "owners",
      "outputs": [
        {
          "internalType": "address",
          "name": "",
          "type": "address"
        }
      ],
      "stateMutability": "view",
      "type": "function"
    },
    {
      "inputs": [
        {
          "internalType": "address",
          "name": "pool",
          "type": "address"
        }
      ],
      "name": "poolIssueTokenAmount",
      "outputs": [
        {
          "internalType": "uint256[]",
          "name": "tokenAmount",
          "type": "uint256[]"
        }
      ],
      "stateMutability": "view",
      "type": "function"
    },
    {
      "inputs": [
        {
          "internalType": "address",
          "name": "pool",
          "type": "address"
        }
      ],
      "name": "poolIssueTokenList",
      "outputs": [
        {
          "internalType": "address[]",
          "name": "tokens",
          "type": "address[]"
        }
      ],
      "stateMutability": "view",
      "type": "function"
    },
    {
      "inputs": [
        {
          "internalType": "address",
          "name": "pool",
          "type": "address"
        }
      ],
      "name": "poolManagerTokenAmount",
      "outputs": [
        {
          "internalType": "uint256[]",
          "name": "tokenAmount",
          "type": "uint256[]"
        }
      ],
      "stateMutability": "view",
      "type": "function"
    },
    {
      "inputs": [
        {
          "internalType": "address",
          "name": "pool",
          "type": "address"
        }
      ],
      "name": "poolManagerTokenList",
      "outputs": [
        {
          "internalType": "address[]",
          "name": "tokens",
          "type": "address[]"
        }
      ],
      "stateMutability": "view",
      "type": "function"
    },
    {
      "inputs": [
        {
          "internalType": "address",
          "name": "pool",
          "type": "address"
        }
      ],
      "name": "poolPerfermanceTokenAmount",
      "outputs": [
        {
          "internalType": "uint256[]",
          "name": "tokenAmount",
          "type": "uint256[]"
        }
      ],
      "stateMutability": "view",
      "type": "function"
    },
    {
      "inputs": [
        {
          "internalType": "address",
          "name": "pool",
          "type": "address"
        }
      ],
      "name": "poolPerfermanceTokenList",
      "outputs": [
        {
          "internalType": "address[]",
          "name": "tokens",
          "type": "address[]"
        }
      ],
      "stateMutability": "view",
      "type": "function"
    },
    {
      "inputs": [
        {
          "internalType": "address",
          "name": "pool",
          "type": "address"
        }
      ],
      "name": "poolRedeemTokenAmount",
      "outputs": [
        {
          "internalType": "uint256[]",
          "name": "tokenAmount",
          "type": "uint256[]"
        }
      ],
      "stateMutability": "view",
      "type": "function"
    },
    {
      "inputs": [
        {
          "internalType": "address",
          "name": "pool",
          "type": "address"
        }
      ],
      "name": "poolRedeemTokenList",
      "outputs": [
        {
          "internalType": "address[]",
          "name": "tokens",
          "type": "address[]"
        }
      ],
      "stateMutability": "view",
      "type": "function"
    },
    {
      "inputs": [
        {
          "internalType": "address",
          "name": "",
          "type": "address"
        },
        {
          "internalType": "uint256",
          "name": "",
          "type": "uint256"
        }
      ],
      "name": "pool_issue_tokenAmount",
      "outputs": [
        {
          "internalType": "uint256",
          "name": "",
          "type": "uint256"
        }
      ],
      "stateMutability": "view",
      "type": "function"
    },
    {
      "inputs": [
        {
          "internalType": "address",
          "name": "",
          "type": "address"
        },
        {
          "internalType": "uint256",
          "name": "",
          "type": "uint256"
        }
      ],
      "name": "pool_issue_tokenList",
      "outputs": [
        {
          "internalType": "address",
          "name": "",
          "type": "address"
        }
      ],
      "stateMutability": "view",
      "type": "function"
    },
    {
      "inputs": [
        {
          "internalType": "address",
          "name": "",
          "type": "address"
        }
      ],
      "name": "pool_manager",
      "outputs": [
        {
          "internalType": "address",
          "name": "",
          "type": "address"
        }
      ],
      "stateMutability": "view",
      "type": "function"
    },
    {
      "inputs": [
        {
          "internalType": "address",
          "name": "",
          "type": "address"
        }
      ],
      "name": "pool_manager_isClaim",
      "outputs": [
        {
          "internalType": "bool",
          "name": "",
          "type": "bool"
        }
      ],
      "stateMutability": "view",
      "type": "function"
    },
    {
      "inputs": [
        {
          "internalType": "address",
          "name": "",
          "type": "address"
        },
        {
          "internalType": "uint256",
          "name": "",
          "type": "uint256"
        }
      ],
      "name": "pool_manager_tokenAmount",
      "outputs": [
        {
          "internalType": "uint256",
          "name": "",
          "type": "uint256"
        }
      ],
      "stateMutability": "view",
      "type": "function"
    },
    {
      "inputs": [
        {
          "internalType": "address",
          "name": "",
          "type": "address"
        },
        {
          "internalType": "uint256",
          "name": "",
          "type": "uint256"
        }
      ],
      "name": "pool_manager_tokenList",
      "outputs": [
        {
          "internalType": "address",
          "name": "",
          "type": "address"
        }
      ],
      "stateMutability": "view",
      "type": "function"
    },
    {
      "inputs": [
        {
          "internalType": "address",
          "name": "",
          "type": "address"
        },
        {
          "internalType": "uint256",
          "name": "",
          "type": "uint256"
        }
      ],
      "name": "pool_perfermance_tokenAmount",
      "outputs": [
        {
          "internalType": "uint256",
          "name": "",
          "type": "uint256"
        }
      ],
      "stateMutability": "view",
      "type": "function"
    },
    {
      "inputs": [
        {
          "internalType": "address",
          "name": "",
          "type": "address"
        },
        {
          "internalType": "uint256",
          "name": "",
          "type": "uint256"
        }
      ],
      "name": "pool_perfermance_tokenList",
      "outputs": [
        {
          "internalType": "address",
          "name": "",
          "type": "address"
        }
      ],
      "stateMutability": "view",
      "type": "function"
    },
    {
      "inputs": [
        {
          "internalType": "address",
          "name": "",
          "type": "address"
        },
        {
          "internalType": "uint256",
          "name": "",
          "type": "uint256"
        }
      ],
      "name": "pool_redeem_tokenAmount",
      "outputs": [
        {
          "internalType": "uint256",
          "name": "",
          "type": "uint256"
        }
      ],
      "stateMutability": "view",
      "type": "function"
    },
    {
      "inputs": [
        {
          "internalType": "address",
          "name": "",
          "type": "address"
        },
        {
          "internalType": "uint256",
          "name": "",
          "type": "uint256"
        }
      ],
      "name": "pool_redeem_tokenList",
      "outputs": [
        {
          "internalType": "address",
          "name": "",
          "type": "address"
        }
      ],
      "stateMutability": "view",
      "type": "function"
    },
    {
      "inputs": [
        {
          "internalType": "address",
          "name": "kol",
          "type": "address"
        },
        {
          "internalType": "address",
          "name": "user",
          "type": "address"
        },
        {
          "internalType": "address[]",
          "name": "poolTokens",
          "type": "address[]"
        },
        {
          "internalType": "uint256[]",
          "name": "tokensAmount",
          "type": "uint256[]"
        }
      ],
      "name": "recordTokenInfo",
      "outputs": [],
      "stateMutability": "nonpayable",
      "type": "function"
    },
    {
      "inputs": [
        {
          "internalType": "address",
          "name": "",
          "type": "address"
        },
        {
          "internalType": "uint256",
          "name": "",
          "type": "uint256"
        }
      ],
      "name": "record_List",
      "outputs": [
        {
          "internalType": "uint256",
          "name": "time",
          "type": "uint256"
        }
      ],
      "stateMutability": "view",
      "type": "function"
    },
    {
      "inputs": [
        {
          "internalType": "address",
          "name": "",
          "type": "address"
        }
      ],
      "name": "record_number",
      "outputs": [
        {
          "internalType": "uint256",
          "name": "",
          "type": "uint256"
        }
      ],
      "stateMutability": "view",
      "type": "function"
    },
    {
      "inputs": [
        {
          "internalType": "address",
          "name": "owner",
          "type": "address"
        }
      ],
      "name": "removeOwner",
      "outputs": [],
      "stateMutability": "nonpayable",
      "type": "function"
    },
    {
      "inputs": [
        {
          "internalType": "address",
          "name": "newOwner",
          "type": "address"
        },
        {
          "internalType": "uint256",
          "name": "_ownerPercentage",
          "type": "uint256"
        }
      ],
      "name": "setAddAdminList",
      "outputs": [],
      "stateMutability": "nonpayable",
      "type": "function"
    },
    {
      "inputs": [
        {
          "internalType": "address",
          "name": "pool",
          "type": "address"
        },
        {
          "internalType": "bool",
          "name": "bools",
          "type": "bool"
        }
      ],
      "name": "setBlackList",
      "outputs": [],
      "stateMutability": "nonpayable",
      "type": "function"
    },
    {
      "inputs": [
        {
          "internalType": "address",
          "name": "newOwner",
          "type": "address"
        }
      ],
      "name": "setController",
      "outputs": [],
      "stateMutability": "nonpayable",
      "type": "function"
    },
    {
      "inputs": [
        {
          "internalType": "address",
          "name": "adr",
          "type": "address"
        }
      ],
      "name": "setCrpFactory",
      "outputs": [],
      "stateMutability": "nonpayable",
      "type": "function"
    },
    {
      "inputs": [
        {
          "internalType": "address",
          "name": "pool",
          "type": "address"
        },
        {
          "components": [
            {
              "components": [
                {
                  "components": [
                    {
                      "internalType": "uint256",
                      "name": "level",
                      "type": "uint256"
                    },
                    {
                      "internalType": "uint256",
                      "name": "ratio",
                      "type": "uint256"
                    }
                  ],
                  "internalType": "struct SmartPoolManager.levelParams",
                  "name": "firstLevel",
                  "type": "tuple"
                },
                {
                  "components": [
                    {
                      "internalType": "uint256",
                      "name": "level",
                      "type": "uint256"
                    },
                    {
                      "internalType": "uint256",
                      "name": "ratio",
                      "type": "uint256"
                    }
                  ],
                  "internalType": "struct SmartPoolManager.levelParams",
                  "name": "secondLevel",
                  "type": "tuple"
                },
                {
                  "components": [
                    {
                      "internalType": "uint256",
                      "name": "level",
                      "type": "uint256"
                    },
                    {
                      "internalType": "uint256",
                      "name": "ratio",
                      "type": "uint256"
                    }
                  ],
                  "internalType": "struct SmartPoolManager.levelParams",
                  "name": "thirdLevel",
                  "type": "tuple"
                },
                {
                  "components": [
                    {
                      "internalType": "uint256",
                      "name": "level",
                      "type": "uint256"
                    },
                    {
                      "internalType": "uint256",
                      "name": "ratio",
                      "type": "uint256"
                    }
                  ],
                  "internalType": "struct SmartPoolManager.levelParams",
                  "name": "fourLevel",
                  "type": "tuple"
                }
              ],
              "internalType": "struct SmartPoolManager.feeParams",
              "name": "managerFee",
              "type": "tuple"
            },
            {
              "components": [
                {
                  "components": [
                    {
                      "internalType": "uint256",
                      "name": "level",
                      "type": "uint256"
                    },
                    {
                      "internalType": "uint256",
                      "name": "ratio",
                      "type": "uint256"
                    }
                  ],
                  "internalType": "struct SmartPoolManager.levelParams",
                  "name": "firstLevel",
                  "type": "tuple"
                },
                {
                  "components": [
                    {
                      "internalType": "uint256",
                      "name": "level",
                      "type": "uint256"
                    },
                    {
                      "internalType": "uint256",
                      "name": "ratio",
                      "type": "uint256"
                    }
                  ],
                  "internalType": "struct SmartPoolManager.levelParams",
                  "name": "secondLevel",
                  "type": "tuple"
                },
                {
                  "components": [
                    {
                      "internalType": "uint256",
                      "name": "level",
                      "type": "uint256"
                    },
                    {
                      "internalType": "uint256",
                      "name": "ratio",
                      "type": "uint256"
                    }
                  ],
                  "internalType": "struct SmartPoolManager.levelParams",
                  "name": "thirdLevel",
                  "type": "tuple"
                },
                {
                  "components": [
                    {
                      "internalType": "uint256",
                      "name": "level",
                      "type": "uint256"
                    },
                    {
                      "internalType": "uint256",
                      "name": "ratio",
                      "type": "uint256"
                    }
                  ],
                  "internalType": "struct SmartPoolManager.levelParams",
                  "name": "fourLevel",
                  "type": "tuple"
                }
              ],
              "internalType": "struct SmartPoolManager.feeParams",
              "name": "issueFee",
              "type": "tuple"
            },
            {
              "components": [
                {
                  "components": [
                    {
                      "internalType": "uint256",
                      "name": "level",
                      "type": "uint256"
                    },
                    {
                      "internalType": "uint256",
                      "name": "ratio",
                      "type": "uint256"
                    }
                  ],
                  "internalType": "struct SmartPoolManager.levelParams",
                  "name": "firstLevel",
                  "type": "tuple"
                },
                {
                  "components": [
                    {
                      "internalType": "uint256",
                      "name": "level",
                      "type": "uint256"
                    },
                    {
                      "internalType": "uint256",
                      "name": "ratio",
                      "type": "uint256"
                    }
                  ],
                  "internalType": "struct SmartPoolManager.levelParams",
                  "name": "secondLevel",
                  "type": "tuple"
                },
                {
                  "components": [
                    {
                      "internalType": "uint256",
                      "name": "level",
                      "type": "uint256"
                    },
                    {
                      "internalType": "uint256",
                      "name": "ratio",
                      "type": "uint256"
                    }
                  ],
                  "internalType": "struct SmartPoolManager.levelParams",
                  "name": "thirdLevel",
                  "type": "tuple"
                },
                {
                  "components": [
                    {
                      "internalType": "uint256",
                      "name": "level",
                      "type": "uint256"
                    },
                    {
                      "internalType": "uint256",
                      "name": "ratio",
                      "type": "uint256"
                    }
                  ],
                  "internalType": "struct SmartPoolManager.levelParams",
                  "name": "fourLevel",
                  "type": "tuple"
                }
              ],
              "internalType": "struct SmartPoolManager.feeParams",
              "name": "redeemFee",
              "type": "tuple"
            },
            {
              "components": [
                {
                  "components": [
                    {
                      "internalType": "uint256",
                      "name": "level",
                      "type": "uint256"
                    },
                    {
                      "internalType": "uint256",
                      "name": "ratio",
                      "type": "uint256"
                    }
                  ],
                  "internalType": "struct SmartPoolManager.levelParams",
                  "name": "firstLevel",
                  "type": "tuple"
                },
                {
                  "components": [
                    {
                      "internalType": "uint256",
                      "name": "level",
                      "type": "uint256"
                    },
                    {
                      "internalType": "uint256",
                      "name": "ratio",
                      "type": "uint256"
                    }
                  ],
                  "internalType": "struct SmartPoolManager.levelParams",
                  "name": "secondLevel",
                  "type": "tuple"
                },
                {
                  "components": [
                    {
                      "internalType": "uint256",
                      "name": "level",
                      "type": "uint256"
                    },
                    {
                      "internalType": "uint256",
                      "name": "ratio",
                      "type": "uint256"
                    }
                  ],
                  "internalType": "struct SmartPoolManager.levelParams",
                  "name": "thirdLevel",
                  "type": "tuple"
                },
                {
                  "components": [
                    {
                      "internalType": "uint256",
                      "name": "level",
                      "type": "uint256"
                    },
                    {
                      "internalType": "uint256",
                      "name": "ratio",
                      "type": "uint256"
                    }
                  ],
                  "internalType": "struct SmartPoolManager.levelParams",
                  "name": "fourLevel",
                  "type": "tuple"
                }
              ],
              "internalType": "struct SmartPoolManager.feeParams",
              "name": "perfermanceFee",
              "type": "tuple"
            }
          ],
          "internalType": "struct SmartPoolManager.KolPoolParams",
          "name": "_poolParams",
          "type": "tuple"
        }
      ],
      "name": "setPoolParams",
      "outputs": [],
      "stateMutability": "nonpayable",
      "type": "function"
    },
    {
      "inputs": [
        {
          "internalType": "address",
          "name": "adr",
          "type": "address"
        }
      ],
      "name": "setVaultAdr",
      "outputs": [],
      "stateMutability": "nonpayable",
      "type": "function"
    },
    {
      "inputs": [],
      "name": "total_ratio",
      "outputs": [
        {
          "internalType": "uint256",
          "name": "",
          "type": "uint256"
        }
      ],
      "stateMutability": "view",
      "type": "function"
    },
    {
      "inputs": [
        {
          "internalType": "address",
          "name": "",
          "type": "address"
        },
        {
          "internalType": "address",
          "name": "",
          "type": "address"
        }
      ],
      "name": "user_index_list",
      "outputs": [
        {
          "internalType": "uint256",
          "name": "",
          "type": "uint256"
        }
      ],
      "stateMutability": "view",
      "type": "function"
    },
    {
      "inputs": [
        {
          "internalType": "address",
          "name": "",
          "type": "address"
        },
        {
          "internalType": "address",
          "name": "",
          "type": "address"
        }
      ],
      "name": "user_kol_list",
      "outputs": [
        {
          "internalType": "address",
          "name": "",
          "type": "address"
        }
      ],
      "stateMutability": "view",
      "type": "function"
    },
    {
      "inputs": [],
      "name": "vaultAddress",
      "outputs": [
        {
          "internalType": "address",
          "name": "",
          "type": "address"
        }
      ],
      "stateMutability": "view",
      "type": "function"
    },
    {
      "stateMutability": "payable",
      "type": "receive"
    }
  ],
  "transactionHash": "0xc05e3ea1ce577c8cc45a6e5d4198b802235e993c98e7b64f1598026b9326539a",
  "args": [],
  "numDeployments": 1,
  "solcInputHash": "341113e2dc51548f479e05a10fb81ca7",
  "bytecode": "0x60806040526064601e5534801561001557600080fd5b50600080546001600160a01b0319163317905561508a806100376000396000f3fe60806040526004361061033e5760003560e01c806379f66374116101b3578063c3e4d04f116100f3578063c3e4d04f146109b7578063c5318d0f146109d7578063c90361dd146109f7578063cf4fe63514610a17578063d29986c114610a44578063d6b485a514610a59578063d7256c7014610a79578063d832839014610a99578063de7f302214610ab9578063e0bea5ac14610ad9578063e65065d914610af9578063e9c6931914610b19578063ebef44d914610b39578063ec7a4b5214610b59578063ed6aa3af14610b79578063ed76f94914610b99578063edbfb5f514610bb9578063f36ed92814610bd957610345565b806379f66374146107a25780638da901ba146107c25780638f799e12146107e25780639155dae71461080257806392a0bb631461082257806392eefe9b14610842578063992f6ba514610862578063a0e67e2b14610882578063a5168ee214610897578063a97f9f33146108b7578063a9884df4146108d7578063bbb6e808146108f7578063bc15c84014610917578063bd0011c214610937578063bdac429814610957578063c0fcb16614610977578063c1e576221461099757610345565b8063334a5d961161027e578063334a5d96146105955780633eedcfa0146105b55780633ef14479146105d557806341c65e83146105f5578063430bf08a146106155780634660c5a51461062a57806346bead891461064a5780634b414ab51461066a5780634bbe2fca1461068a5780634da38416146106aa578063528b5853146106ca578063549d9f60146106ea57806358d2dbf01461071a57806368092bd91461073a5780636936674d1461075a57806378a619de1461077a57806378c32a4b1461078257610345565b8063025e7c271461034a57806303a68ecb146103805780630b83e629146103ad5780630e99089c146103da57806311e1532a146103fa5780631374aaf01461041a578063154726b21461042f5780631556523a1461044f578063173825d91461047c5780631a46506e1461049e5780631eae039c146104be57806327304dfd146104de5780632b5230a9146104fe5780632c0bdbcf1461051e5780632c7c1bb51461054b5780633018205f1461056b578063309a042c1461058057610345565b3661034557005b600080fd5b34801561035657600080fd5b5061036a610365366004614b19565b610bf9565b6040516103779190614bd1565b60405180910390f35b34801561038c57600080fd5b506103a061039b366004614793565b610c20565b6040516103779190614fe3565b3480156103b957600080fd5b506103cd6103c83660046146ca565b610c5b565b6040516103779190614cc5565b3480156103e657600080fd5b506103a06103f5366004614692565b610cd5565b34801561040657600080fd5b506103a0610415366004614692565b610e30565b34801561042657600080fd5b506103a0610e4d565b34801561043b57600080fd5b506103a061044a3660046146ca565b610e53565b34801561045b57600080fd5b5061046f61046a366004614692565b610e9c565b6040516103779190614cd8565b34801561048857600080fd5b5061049c610497366004614692565b610eb1565b005b3480156104aa57600080fd5b506103cd6104b9366004614692565b61109c565b3480156104ca57600080fd5b5061049c6104d9366004614793565b611108565b3480156104ea57600080fd5b5061046f6104f9366004614692565b6111b8565b34801561050a57600080fd5b506103cd610519366004614692565b6111cd565b34801561052a57600080fd5b5061053e610539366004614692565b611237565b6040516103779190614bfe565b34801561055757600080fd5b506103a06105663660046146ca565b6112ac565b34801561057757600080fd5b5061036a6112c9565b34801561058c57600080fd5b506103cd6112d8565b3480156105a157600080fd5b506103a06105b0366004614891565b611330565b3480156105c157600080fd5b506103a06105d03660046146ca565b61135e565b3480156105e157600080fd5b5061049c6105f0366004614999565b61137b565b34801561060157600080fd5b5061053e610610366004614692565b61146d565b34801561062157600080fd5b5061036a6114e1565b34801561063657600080fd5b5061049c610645366004614800565b6114f0565b34801561065657600080fd5b506103a06106653660046146ca565b611733565b34801561067657600080fd5b5061036a610685366004614891565b611930565b34801561069657600080fd5b506103a06106a5366004614891565b611965565b3480156106b657600080fd5b5061053e6106c5366004614692565b611982565b3480156106d657600080fd5b506103a06106e5366004614692565b6119f6565b3480156106f657600080fd5b5061070a610705366004614692565b611a08565b6040516103779493929190614faa565b34801561072657600080fd5b5061036a6107353660046146ca565b611bf0565b34801561074657600080fd5b5061049c6107553660046147d3565b611c1a565b34801561076657600080fd5b5061049c610775366004614692565b611c6f565b61049c612053565b34801561078e57600080fd5b5061036a61079d366004614891565b6120a9565b3480156107ae57600080fd5b5061036a6107bd3660046146ca565b6120c2565b3480156107ce57600080fd5b5061046f6107dd366004614692565b6120e8565b3480156107ee57600080fd5b506103a06107fd3660046146ca565b61216f565b34801561080e57600080fd5b5061049c61081d3660046148bc565b61218c565b34801561082e57600080fd5b5061046f61083d366004614692565b6122f9565b34801561084e57600080fd5b5061049c61085d366004614692565b61230e565b34801561086e57600080fd5b5061049c61087d366004614891565b6123b9565b34801561088e57600080fd5b5061053e6124e2565b3480156108a357600080fd5b506103cd6108b2366004614692565b612543565b3480156108c357600080fd5b506103cd6108d2366004614692565b6125ad565b3480156108e357600080fd5b506103a06108f2366004614891565b612617565b34801561090357600080fd5b5061036a610912366004614793565b612630565b34801561092357600080fd5b5061036a610932366004614891565b612677565b34801561094357600080fd5b5061046f610952366004614692565b612690565b34801561096357600080fd5b506103a0610972366004614891565b6126a5565b34801561098357600080fd5b5061046f610992366004614692565b6126be565b3480156109a357600080fd5b5061049c6109b2366004614692565b6126dc565b3480156109c357600080fd5b5061036a6109d2366004614692565b612728565b3480156109e357600080fd5b506103a06109f2366004614b19565b612743565b348015610a0357600080fd5b5061053e610a12366004614692565b612761565b348015610a2357600080fd5b50610a37610a323660046146ca565b612785565b6040516103779190614c4b565b348015610a5057600080fd5b506103a061286a565b348015610a6557600080fd5b5061049c610a74366004614692565b612870565b348015610a8557600080fd5b5061049c610a94366004614702565b61290d565b348015610aa557600080fd5b5061036a610ab4366004614891565b612e44565b348015610ac557600080fd5b5061053e610ad4366004614692565b612e5d565b348015610ae557600080fd5b5061036a610af4366004614891565b612ed1565b348015610b0557600080fd5b506103a0610b143660046146ca565b612eea565b348015610b2557600080fd5b506103a0610b34366004614793565b612fcd565b348015610b4557600080fd5b5061053e610b54366004614692565b613409565b348015610b6557600080fd5b506103a0610b743660046146ca565b61347d565b348015610b8557600080fd5b5061049c610b94366004614692565b6134ba565b348015610ba557600080fd5b506103a0610bb4366004614891565b6137d2565b348015610bc557600080fd5b506103a0610bd4366004614692565b6137eb565b348015610be557600080fd5b506103a0610bf4366004614692565b6137fd565b60028181548110610c0657fe5b6000918252602090912001546001600160a01b0316905081565b60186020528260005260406000206020528160005260406000208181548110610c4557fe5b9060005260206000200160009250925050505481565b6001600160a01b038083166000908152601860209081526040808320938516835292815290829020805483518184028101840190945280845260609392830182828015610cc757602002820191906000526020600020905b815481526020019060010190808311610cb3575b505050505090505b92915050565b6001600160a01b038116600090815260086020526040812054610cf9576000610d28565b6001600160a01b03821660009081526008602052604081208054909190610d1c57fe5b90600052602060002001545b6001600160a01b0383166000908152600a6020526040902054910190610d4f576000610d7e565b6001600160a01b0382166000908152600a602052604081208054909190610d7257fe5b90600052602060002001545b6001600160a01b0383166000908152600c6020526040902054910190610da5576000610dd4565b6001600160a01b0382166000908152600c602052604081208054909190610dc857fe5b90600052602060002001545b6001600160a01b0383166000908152600e6020526040902054910190610dfb576000610e2a565b6001600160a01b0382166000908152600e602052604081208054909190610e1e57fe5b90600052602060002001545b01919050565b6000610ccf610e3e836137fd565b610e4784610cd5565b9061384e565b601e5481565b600080610e608484612eea565b6001600160a01b03808616600090815260176020908152604080832093881683529290522054909150610e93828261384e565b95945050505050565b601c6020526000908152604090205460ff1681565b6000546001600160a01b03163314610ee45760405162461bcd60e51b8152600401610edb90614d36565b60405180910390fd5b6001600160a01b0381166000908152600160205260408120805460ff19169055805b60025481101561100857826001600160a01b031660028281548110610f2757fe5b6000918252602090912001546001600160a01b0316141561100057600280546000198101908110610f5457fe5b600091825260209091200154600280546001600160a01b039092169183908110610f7a57fe5b9060005260206000200160006101000a8154816001600160a01b0302191690836001600160a01b0316021790555060038181548110610fb557fe5b90600052602060002001549150600360016003805490500381548110610fd757fe5b906000526020600020015460038281548110610fef57fe5b600091825260209091200155611008565b600101610f06565b50600280548061101457fe5b600082815260209020810160001990810180546001600160a01b0319169055019055600380548061104157fe5b600082815260208120820160001990810182905590910190915560048054839003905560405182916001600160a01b038516917f7b0884b4b6bb4e0c1385ad42168fa556c14d4d799c1bf22f081aff3efff6ea0c9190a35050565b6001600160a01b0381166000908152600e60209081526040918290208054835181840281018401909452808452606093928301828280156110fc57602002820191906000526020600020905b8154815260200190600101908083116110e8575b50505050509050919050565b6000546001600160a01b031633146111325760405162461bcd60e51b8152600401610edb90614d36565b60405163a9059cbb60e01b81526001600160a01b0384169063a9059cbb906111609085908590600401614be5565b602060405180830381600087803b15801561117a57600080fd5b505af115801561118e573d6000803e3d6000fd5b505050506040513d601f19601f820116820180604052508101906111b29190614ade565b50505050565b60016020526000908152604090205460ff1681565b6001600160a01b0381166000908152600c60209081526040918290208054835181840281018401909452808452606093928301828280156110fc57602002820191906000526020600020908154815260200190600101908083116110e85750505050509050919050565b6001600160a01b0381166000908152600b60209081526040918290208054835181840281018401909452808452606093928301828280156110fc57602002820191906000526020600020905b81546001600160a01b031681526001909101906020018083116112835750505050509050919050565b601960209081526000928352604080842090915290825290205481565b6000546001600160a01b031690565b6060600380548060200260200160405190810160405280929190818152602001828054801561132657602002820191906000526020600020905b815481526020019060010190808311611312575b5050505050905090565b6008602052816000526040600020818154811061134957fe5b90600052602060002001600091509150505481565b601760209081526000928352604080842090915290825290205481565b6000546001600160a01b031633146113a55760405162461bcd60e51b8152600401610edb90614d36565b80518251146113c65760405162461bcd60e51b8152600401610edb90614e37565b60005b8251811015611440578181815181106113de57fe5b6020026020010151600460008282540192505081905550600180600085848151811061140657fe5b6020908102919091018101516001600160a01b03168252810191909152604001600020805460ff19169115159190911790556001016113c9565b50815161145490600290602085019061437d565b5080516114689060039060208401906143e2565b505050565b6001600160a01b0381166000908152600d60209081526040918290208054835181840281018401909452808452606093928301828280156110fc576020028201919060005260206000209081546001600160a01b031681526001909101906020018083116112835750505050509050919050565b601f546001600160a01b031681565b600554604051636e0cf42160e11b81526001600160a01b039091169063dc19e84290611520908590600401614bd1565b60206040518083038186803b15801561153857600080fd5b505afa15801561154c573d6000803e3d6000fd5b505050506040513d601f19601f820116820180604052508101906115709190614ade565b61158c5760405162461bcd60e51b8152600401610edb90614e57565b6001600160a01b0382166000908152601c602052604090205460ff16156115c55760405162461bcd60e51b8152600401610edb90614ec1565b6001600160a01b039091166000908152601c60208181526040808420805460ff19166001908117909155601d808452948290208651805180518355850151928201929092558184015180516002830155840151600382015581830151805160048301558401516005820155606091820151805160068301558401516007820155868401518051805160088401558501516009830155808501518051600a840155850151600b830155808401518051600c840155850151600d8301558201518051600e830155840151600f8201558683015180518051601084015585015160118301558085015180516012840155850151601383015580840151805160148401558501516015830155820151805160168301558401516017820155958101518051805160188901558401516019880155808401518051601a890155840151601b8801559182015180519487019490945592820151938501939093559101518051601e8401550151601f90910155565b60008061173f84610e30565b90506060846001600160a01b031663a0e67e2b6040518163ffffffff1660e01b815260040160006040518083038186803b15801561177c57600080fd5b505afa158015611790573d6000803e3d6000fd5b505050506040513d6000823e601f3d908101601f191682016040526117b89190810190614901565b90506060856001600160a01b031663309a042c6040518163ffffffff1660e01b815260040160006040518083038186803b1580156117f557600080fd5b505afa158015611809573d6000803e3d6000fd5b505050506040513d6000823e601f3d908101601f191682016040526118319190810190614a5b565b90506000866001600160a01b031663d29986c16040518163ffffffff1660e01b815260040160206040518083038186803b15801561186e57600080fd5b505afa158015611882573d6000803e3d6000fd5b505050506040513d601f19601f820116820180604052508101906118a69190614b31565b905060005b8351811015611925578381815181106118c057fe5b60200260200101516001600160a01b0316876001600160a01b0316141561191d576119118261190b8584815181106118f457fe5b60200260200101518861389090919063ffffffff16565b906138ca565b95505050505050610ccf565b6001016118ab565b505050505092915050565b600b602052816000526040600020818154811061194957fe5b6000918252602090912001546001600160a01b03169150829050565b601260209081526000928352604080842090915290825290205481565b6001600160a01b0381166000908152601360209081526040918290208054835181840281018401909452808452606093928301828280156110fc576020028201919060005260206000209081546001600160a01b031681526001909101906020018083116112835750505050509050919050565b60156020526000908152604090205481565b601d60208181526000928352604092839020835160c0808201865282546080808401918252600185015460a080860191909152918452875180890189526002860154815260038601548188015284870152875180890189526004860154815260058601548188015284890152875180890189526006860154815260078601548188015260608086019190915288518085018a52600887015481840190815260098801548286015281528951808b018b52600a8801548152600b880154818a0152818901528951808b018b52600c8801548152600d880154818a0152818b01528951808b018b52600e8801548152600f880154818a01528183015289518086018b52601088015481850190815260118901548287015281528a51808c018c52601289015481526013890154818b0152818a01528a51808c018c52601489015481526015890154818b0152818c01528a51808c018c52601689015481526017890154818b0152818401528a519586018b5260188801549386019384526019880154948601949094529184528851808a018a52601a8701548152601b87015481890152848801528851808a018a52601c87015481529786015488880152838901979097528751808901909852601e8501548852601f9094015494870194909452938401949094529184565b6001600160a01b039182166000908152601a60209081526040808320938516835292905220541690565b6000546001600160a01b03163314611c445760405162461bcd60e51b8152600401610edb90614d36565b6001600160a01b03919091166000908152601060205260409020805460ff1916911515919091179055565b601f5460405163edb12adf60e01b81526001600160a01b039091169063edb12adf90611c9f908490600401614bd1565b600060405180830381600087803b158015611cb957600080fd5b505af1925050508015611cca575060015b50611cd4816120e8565b1561205057600554604051636e0cf42160e11b81526001600160a01b039091169063dc19e84290611d09908490600401614bd1565b60206040518083038186803b158015611d2157600080fd5b505afa158015611d35573d6000803e3d6000fd5b505050506040513d601f19601f82011682018060405250810190611d599190614ade565b611d755760405162461bcd60e51b8152600401610edb90614e57565b806001600160a01b0316635468d6d76040518163ffffffff1660e01b815260040160206040518083038186803b158015611dae57600080fd5b505afa158015611dc2573d6000803e3d6000fd5b505050506040513d601f19601f82011682018060405250810190611de69190614ade565b611e025760405162461bcd60e51b8152600401610edb90614f4f565b6000611e0e8233610e53565b905060008111611e305760405162461bcd60e51b8152600401610edb90614f2b565b6001600160a01b0382166000908152601760209081526040808320338085529252909120805483019055611e6390613909565b15611f9e576001600160a01b03821660009081526013602052604081208054909190611e8b57fe5b9060005260206000200160009054906101000a90046001600160a01b03166001600160a01b031663a9059cbb336001600160a01b0316638da5cb5b6040518163ffffffff1660e01b815260040160206040518083038186803b158015611ef057600080fd5b505afa158015611f04573d6000803e3d6000fd5b505050506040513d601f19601f82011682018060405250810190611f2891906146ae565b836040518363ffffffff1660e01b8152600401611f46929190614be5565b602060405180830381600087803b158015611f6057600080fd5b505af1158015611f74573d6000803e3d6000fd5b505050506040513d601f19601f82011682018060405250810190611f989190614ade565b5061204e565b6001600160a01b03821660009081526013602052604081208054909190611fc157fe5b60009182526020909120015460405163a9059cbb60e01b81526001600160a01b039091169063a9059cbb90611ffc9033908590600401614be5565b602060405180830381600087803b15801561201657600080fd5b505af115801561202a573d6000803e3d6000fd5b505050506040513d601f19601f820116820180604052508101906114689190614ade565b505b50565b6000546001600160a01b0316331461207d5760405162461bcd60e51b8152600401610edb90614d36565b60405133904780156108fc02916000818181858888f19350505050158015612050573d6000803e3d6000fd5b6007602052816000526040600020818154811061194957fe5b601a6020908152600092835260408084209091529082529020546001600160a01b031681565b60006001826001600160a01b03166373a9855c6040518163ffffffff1660e01b815260040160206040518083038186803b15801561212557600080fd5b505afa158015612139573d6000803e3d6000fd5b505050506040513d601f19601f8201168201806040525081019061215d9190614afa565b600181111561216857fe5b1492915050565b601660209081526000928352604080842090915290825290205481565b601f546001600160a01b031633146121b65760405162461bcd60e51b8152600401610edb90614d36565b8281146121d55760405162461bcd60e51b8152600401610edb90614e80565b6001600160a01b0386811660009081526006602052604090205416612297576000866001600160a01b0316633018205f6040518163ffffffff1660e01b815260040160206040518083038186803b15801561222f57600080fd5b505afa158015612243573d6000803e3d6000fd5b505050506040513d601f19601f8201168201806040525081019061226791906146ae565b6001600160a01b0380891660009081526006602052604090208054919092166001600160a01b0319909116179055505b6060806122a48888613942565b915091506060806122ba888888888e8989613d0c565b915091506122ca8a8a8484613f70565b5050506001600160a01b039096166000908152600f60205260409020805460ff19166001179055505050505050565b600f6020526000908152604090205460ff1681565b6000546001600160a01b031633146123385760405162461bcd60e51b8152600401610edb90614d36565b6001600160a01b03811661235e5760405162461bcd60e51b8152600401610edb90614dea565b600080546040516001600160a01b03808516939216917f8be0079c531659141344cd1fd0a4f28419497f9722a3daafe3b4186f6b6457e091a3600080546001600160a01b0319166001600160a01b0392909216919091179055565b6000546001600160a01b031633146123e35760405162461bcd60e51b8152600401610edb90614d36565b6001600160a01b03821660009081526001602052604090205460ff161561241c5760405162461bcd60e51b8152600401610edb90614dc0565b6001600160a01b0382166000818152600160208190526040808320805460ff191683179055600280548084019091557f405787fa12a823e0f2b7631cc41b3ba8828b3321ca811111fa75cd3aa3bb5ace0180546001600160a01b0319168517905560038054928301815583527fc2575a0e9e593c00f959f8c92f12db2869c3395a3b0502d05e2516446f71f85b9091018490556004805485019055518392917fbd5dcf0b25226117c4a68a0129ffdd4b0541ef5e482ad7de9a96ccb6d6a8ebde91a35050565b6060600280548060200260200160405190810160405280929190818152602001828054801561132657602002820191906000526020600020905b81546001600160a01b0316815260019091019060200180831161251c575050505050905090565b6001600160a01b0381166000908152600a60209081526040918290208054835181840281018401909452808452606093928301828280156110fc57602002820191906000526020600020908154815260200190600101908083116110e85750505050509050919050565b6001600160a01b0381166000908152600860209081526040918290208054835181840281018401909452808452606093928301828280156110fc57602002820191906000526020600020908154815260200190600101908083116110e85750505050509050919050565b600a602052816000526040600020818154811061134957fe5b601b602052826000526040600020602052816000526040600020818154811061265557fe5b60009182526020909120600290910201546001600160a01b0316925083915050565b6009602052816000526040600020818154811061194957fe5b60106020526000908152604090205460ff1681565b600e602052816000526040600020818154811061134957fe5b6001600160a01b03166000908152600f602052604090205460ff1690565b6000546001600160a01b031633146127065760405162461bcd60e51b8152600401610edb90614d36565b600580546001600160a01b0319166001600160a01b0392909216919091179055565b6006602052600090815260409020546001600160a01b031681565b6003818154811061275057fe5b600091825260209091200154905081565b6001600160a01b0381166000908152601460205260409020606090610ccf906140e9565b6001600160a01b038083166000908152601b602090815260408083209385168352928152828220805484518184028101840190955280855260609493919290919084015b8282101561285e5760008481526020908190206040805180820182526002860290920180546001600160a01b0316835260018101805483518187028101870190945280845293949193858301939283018282801561284657602002820191906000526020600020905b815481526020019060010190808311612832575b505050505081525050815260200190600101906127c9565b50505050905092915050565b60045481565b6000546001600160a01b0316331461289a5760405162461bcd60e51b8152600401610edb90614d36565b6001600160a01b0381166128c05760405162461bcd60e51b8152600401610edb90614d97565b601f80546001600160a01b0319166001600160a01b0383169081179091556040513391907ff5e71cc69e4610808e8e7c9099d63353897264c5dfc4da1a0320395866de497190600090a350565b82811461292c5760405162461bcd60e51b8152600401610edb90614e80565b600554604051636e0cf42160e11b81526001600160a01b039091169063dc19e8429061295c903390600401614bd1565b60206040518083038186803b15801561297457600080fd5b505afa158015612988573d6000803e3d6000fd5b505050506040513d601f19601f820116820180604052508101906129ac9190614ade565b6129c85760405162461bcd60e51b8152600401610edb90614e57565b336000908152601360205260409020546129f8573360009081526013602052604090206129f6908585614429565b505b336000908152601a602090815260408083206001600160a01b0389811685529252909120541680612a9157336000818152601a602090815260408083206001600160a01b038b8116855290835281842080546001600160a01b031916918d169190911790559282526014905220612a6f90886140f5565b612a8e57336000908152601460205260409020612a8c908861410a565b505b50855b6001600160a01b038116612ab75760405162461bcd60e51b8152600401610edb90614f7d565b612ae683836000818110612ac757fe5b336000908152601560209081526040909120549391020135905061411f565b336000908152601560205260409020556060846001600160401b0381118015612b0e57600080fd5b50604051908082528060200260200182016040528015612b38578160200160208202803683370190505b50905060005b85811015612c1f573360009081526018602090815260408083206001600160a01b0387168452909152902054612b9e57848482818110612b7a57fe5b90506020020135828281518110612b8d57fe5b602002602001018181525050612c17565b3360009081526018602090815260408083206001600160a01b038716845290915290208054612bfe919083908110612bd257fe5b9060005260206000200154868684818110612be957fe5b9050602002013561411f90919063ffffffff16565b828281518110612c0a57fe5b6020026020010181815250505b600101612b3e565b503360009081526018602090815260408083206001600160a01b038616845282529091208251612c51928401906143e2565b50336000818152601b602090815260408083206001600160a01b03878116855290835281842094845260198352818420908c16845290915290205480612d8257612c9961447c565b6001600160a01b038a1681526040805160208089028281018201909352888252909189918991829185019084908082843760009201829052506020868101958652885460018082018b558a845292829020885160029092020180546001600160a01b0319166001600160a01b039092169190911781559551805188979650612d289550928601935001906143e2565b505050828054905060196000336001600160a01b03166001600160a01b0316815260200190815260200160002060008c6001600160a01b03166001600160a01b031681526020019081526020016000208190555050612e38565b336000908152601b602090815260408083206001600160a01b0388168452909152812080546000198401908110612db557fe5b9060005260206000209060020201905060005b6001820154811015612e3557612e12888883818110612de357fe5b90506020020135836001018381548110612df957fe5b906000526020600020015461411f90919063ffffffff16565b826001018281548110612e2157fe5b600091825260209091200155600101612dc8565b50505b50505050505050505050565b600d602052816000526040600020818154811061194957fe5b6001600160a01b0381166000908152600960209081526040918290208054835181840281018401909452808452606093928301828280156110fc576020028201919060005260206000209081546001600160a01b031681526001909101906020018083116112835750505050509050919050565b6013602052816000526040600020818154811061194957fe5b6001600160a01b0380831660009081526018602090815260408083209385168352929052908120548190612f1f579050610ccf565b612f35612f2e85856000612fcd565b829061411f565b9050612f46612f2e85856001612fcd565b9050612f57612f2e85856002612fcd565b9050612f68612f2e85856003612fcd565b6001600160a01b038086166000908152601560209081526040808320546018835281842094891684529390915281208054939450612fc59361190b9290612fab57fe5b90600052602060002001548461389090919063ffffffff16565b949350505050565b6001600160a01b0380841660009081526018602090815260408083209386168352929052908120548190613002576000613040565b6001600160a01b0380861660009081526018602090815260408083209388168352929052908120805490919061303457fe5b90600052602060002001545b905061304a614494565b506001600160a01b0385166000908152601d602081815260408084208151610140810183528154610100820190815260018301546101208301526080808301918252845180860186526002850154815260038501548188015260a080850191909152855180870187526004860154815260058601548189015260c08086019190915286518088018852600687015481526007870154818a015260e0860152928452855180840187526008860154818401908152600987015482840152815286518088018852600a8701548152600b870154818a01528189015286518088018852600c8701548152600d870154818a01528188015286518088018852600e8701548152600f870154818a015260608281019190915285890191909152865180850188526010870154818501908152601188015482850152815287518089018952601288015481526013880154818b0152818a015287518089018952601488015481526015880154818b01528189015287518089018952601688015481526017880154818b0152818301528588015286519384018752601886015492840192835260198601549184019190915290825284518086018652601a8501548152601b850154818801528287015284518086018652601c85015481529684015487870152818501969096528351808501909452601e8301548452601f9092015493830193909352808401919091529181019190915290846132d9576001600160a01b038716600090815260086020526040902054156132d4576132d1601e5461190b613295868660000151614144565b6001600160a01b038b16600090815260086020526040812080549091906132b857fe5b906000526020600020015461389090919063ffffffff16565b90505b6133ff565b846001141561333a576001600160a01b0387166000908152600a6020526040902054156132d4576132d1601e5461190b613317868660200151614144565b6001600160a01b038b166000908152600a6020526040812080549091906132b857fe5b846002141561339b576001600160a01b0387166000908152600c6020526040902054156132d4576132d1601e5461190b613378868660400151614144565b6001600160a01b038b166000908152600c6020526040812080549091906132b857fe5b84600314156133ff576001600160a01b0387166000908152600e6020526040902054156133ff576133fc601e5461190b6133d9868660600151614144565b6001600160a01b038b166000908152600e6020526040812080549091906132b857fe5b90505b9695505050505050565b6001600160a01b0381166000908152600760209081526040918290208054835181840281018401909452808452606093928301828280156110fc576020028201919060005260206000209081546001600160a01b031681526001909101906020018083116112835750505050509050919050565b6001600160a01b0380831660009081526016602090815260408083209385168352929052908120546134b390610e478585611733565b9392505050565b601f5460405163edb12adf60e01b81526001600160a01b039091169063edb12adf906134ea908490600401614bd1565b600060405180830381600087803b15801561350457600080fd5b505af1925050508015613515575060015b5061351f816120e8565b1561205057600554604051636e0cf42160e11b81526001600160a01b039091169063dc19e84290613554908490600401614bd1565b60206040518083038186803b15801561356c57600080fd5b505afa158015613580573d6000803e3d6000fd5b505050506040513d601f19601f820116820180604052508101906135a49190614ade565b6135c05760405162461bcd60e51b8152600401610edb90614e57565b806001600160a01b0316635468d6d76040518163ffffffff1660e01b815260040160206040518083038186803b1580156135f957600080fd5b505afa15801561360d573d6000803e3d6000fd5b505050506040513d601f19601f820116820180604052508101906136319190614ade565b61364d5760405162461bcd60e51b8152600401610edb90614f4f565b6040516327304dfd60e01b81526001600160a01b038216906327304dfd90613679903390600401614bd1565b60206040518083038186803b15801561369157600080fd5b505afa1580156136a5573d6000803e3d6000fd5b505050506040513d601f19601f820116820180604052508101906136c99190614ade565b806137555750336001600160a01b0316816001600160a01b0316633018205f6040518163ffffffff1660e01b815260040160206040518083038186803b15801561371257600080fd5b505afa158015613726573d6000803e3d6000fd5b505050506040513d601f19601f8201168201806040525081019061374a91906146ae565b6001600160a01b0316145b6137715760405162461bcd60e51b8152600401610edb90614e14565b600061377d823361347d565b90506000811161379f5760405162461bcd60e51b8152600401610edb90614f2b565b6001600160a01b0382166000908152601660209081526040808320338085529252909120805483019055611e6390613909565b600c602052816000526040600020818154811061134957fe5b60116020526000908152604090205481565b6001600160a01b03811660009081526014602052604081208161381f8261421f565b905060005b818110156138465761383a85610b14858461422a565b90930192600101613824565b505050919050565b60006134b383836040518060400160405280601e81526020017f536166654d6174683a207375627472616374696f6e206f766572666c6f770000815250614236565b60008261389f57506000610ccf565b828202828482816138ac57fe5b04146134b35760405162461bcd60e51b8152600401610edb90614eea565b60006134b383836040518060400160405280601a815260200179536166654d6174683a206469766973696f6e206279207a65726f60301b815250614262565b6000813f7fc5d2460186f7233c927e7db2dcc703c0e500b653ca82273b7bfad8045d85a470818114801590612fc5575050151592915050565b60608082613a34576001600160a01b038416600090815260076020908152604091829020805483518184028101840190945280845290918301828280156139b257602002820191906000526020600020905b81546001600160a01b03168152600190910190602001808311613994575b5050505050915060086000856001600160a01b03166001600160a01b03168152602001908152602001600020805480602002602001604051908101604052809291908181526020018280548015613a2857602002820191906000526020600020905b815481526020019060010190808311613a14575b50505050509050613d05565b8260011415613b25576001600160a01b03841660009081526009602090815260409182902080548351818402810184019094528084529091830182828015613aa557602002820191906000526020600020905b81546001600160a01b03168152600190910190602001808311613a87575b50505050509150600a6000856001600160a01b03166001600160a01b03168152602001908152602001600020805480602002602001604051908101604052809291908181526020018280548015613a285760200282019190600052602060002090815481526020019060010190808311613a145750505050509050613d05565b8260021415613c16576001600160a01b0384166000908152600b602090815260409182902080548351818402810184019094528084529091830182828015613b9657602002820191906000526020600020905b81546001600160a01b03168152600190910190602001808311613b78575b50505050509150600c6000856001600160a01b03166001600160a01b03168152602001908152602001600020805480602002602001604051908101604052809291908181526020018280548015613a285760200282019190600052602060002090815481526020019060010190808311613a145750505050509050613d05565b8260031415613d05576001600160a01b0384166000908152600d602090815260409182902080548351818402810184019094528084529091830182828015613c8757602002820191906000526020600020905b81546001600160a01b03168152600190910190602001808311613c69575b50505050509150600e6000856001600160a01b03166001600160a01b03168152602001908152602001600020805480602002602001604051908101604052809291908181526020018280548015613cfd57602002820191906000526020600020905b815481526020019060010190808311613ce9575b505050505090505b9250929050565b606080876001600160401b0381118015613d2557600080fd5b50604051908082528060200260200182016040528015613d4f578160200160208202803683370190505b509150876001600160401b0381118015613d6857600080fd5b50604051908082528060200260200182016040528015613d92578160200160208202803683370190505b50905082518451148015613da557508351155b80613dc957506001600160a01b0385166000908152600f602052604090205460ff16155b15613e5e5760005b88811015613e5857898982818110613de557fe5b9050602002016020810190613dfa9190614692565b838281518110613e0657fe5b60200260200101906001600160a01b031690816001600160a01b031681525050878782818110613e3257fe5b90506020020135828281518110613e4557fe5b6020908102919091010152600101613dd1565b50613f64565b60005b88811015613f6257898982818110613e7557fe5b9050602002016020810190613e8a9190614692565b6001600160a01b0316858281518110613e9f57fe5b60200260200101516001600160a01b03161415613f5a576000888883818110613ec457fe5b9050602002013590508a8a83818110613ed957fe5b9050602002016020810190613eee9190614692565b848381518110613efa57fe5b60200260200101906001600160a01b031690816001600160a01b031681525050613f4081868481518110613f2a57fe5b602002602001015161411f90919063ffffffff16565b838381518110613f4c57fe5b602002602001018181525050505b600101613e61565b505b97509795505050505050565b82613fce576001600160a01b03841660009081526007602090815260409091208351613f9e9285019061437d565b506001600160a01b03841660009081526008602090815260409091208251613fc8928401906143e2565b506111b2565b826001141561402a576001600160a01b038416600090815260096020908152604090912083516140009285019061437d565b506001600160a01b0384166000908152600a602090815260409091208251613fc8928401906143e2565b8260021415614086576001600160a01b0384166000908152600b60209081526040909120835161405c9285019061437d565b506001600160a01b0384166000908152600c602090815260409091208251613fc8928401906143e2565b82600314156111b2576001600160a01b0384166000908152600d6020908152604090912083516140b89285019061437d565b506001600160a01b0384166000908152600e6020908152604090912082516140e2928401906143e2565b5050505050565b6060806134b383614299565b60006134b3836001600160a01b0384166142f3565b60006134b3836001600160a01b03841661430b565b6000828201838110156134b35760405162461bcd60e51b8152600401610edb90614d62565b6000805b6004811015614218578061417e57825151841080159061416c575060208301515184105b1561417e575050805160200151610ccf565b80600114156141b45760208301515184108015906141a0575060408301515184105b156141b45750506020808201510151610ccf565b80600214156141eb5760408301515184108015906141d6575060608301515184105b156141eb575050604081015160200151610ccf565b8060031415614210576060830151518410614210575050606081015160200151610ccf565b600101614148565b5092915050565b6000610ccf82614355565b60006134b38383614359565b6000818484111561425a5760405162461bcd60e51b8152600401610edb9190614ce3565b505050900390565b600081836142835760405162461bcd60e51b8152600401610edb9190614ce3565b50600083858161428f57fe5b0495945050505050565b6060816000018054806020026020016040519081016040528092919081815260200182805480156110fc57602002820191906000526020600020908154815260200190600101908083116110e85750505050509050919050565b60009081526001919091016020526040902054151590565b600061431783836142f3565b61434d57508154600181810184556000848152602080822090930184905584548482528286019093526040902091909155610ccf565b506000610ccf565b5490565b600082600001828154811061436a57fe5b9060005260206000200154905092915050565b8280548282559060005260206000209081019282156143d2579160200282015b828111156143d257825182546001600160a01b0319166001600160a01b0390911617825560209092019160019091019061439d565b506143de9291506144d3565b5090565b82805482825590600052602060002090810192821561441d579160200282015b8281111561441d578251825591602001919060010190614402565b506143de9291506144f2565b8280548282559060005260206000209081019282156143d2579160200282015b828111156143d25781546001600160a01b0319166001600160a01b03843516178255602090920191600190910190614449565b60408051808201909152600081526060602082015290565b60405180608001604052806144a7614507565b81526020016144b4614507565b81526020016144c1614507565b81526020016144ce614507565b905290565b5b808211156143de5780546001600160a01b03191681556001016144d4565b5b808211156143de57600081556001016144f3565b604051806080016040528061451a61453d565b815260200161452761453d565b815260200161453461453d565b81526020016144ce5b604051806040016040528060008152602001600081525090565b60008083601f840112614568578182fd5b5081356001600160401b0381111561457e578182fd5b6020830191508360208083028501011115613d0557600080fd5b600082601f8301126145a8578081fd5b81356145bb6145b682615012565b614fec565b8181529150602080830190848101818402860182018710156145dc57600080fd5b60005b84811015611925578135845292820192908201906001016145df565b6000610100828403121561460d578081fd5b6146176080614fec565b90506146238383614661565b81526146328360408401614661565b60208201526146448360808401614661565b60408201526146568360c08401614661565b606082015292915050565b600060408284031215614672578081fd5b61467c6040614fec565b9050813581526020820135602082015292915050565b6000602082840312156146a3578081fd5b81356134b381615031565b6000602082840312156146bf578081fd5b81516134b381615031565b600080604083850312156146dc578081fd5b82356146e781615031565b915060208301356146f781615031565b809150509250929050565b6000806000806000806080878903121561471a578182fd5b863561472581615031565b9550602087013561473581615031565b945060408701356001600160401b0380821115614750578384fd5b61475c8a838b01614557565b90965094506060890135915080821115614774578384fd5b5061478189828a01614557565b979a9699509497509295939492505050565b6000806000606084860312156147a7578283fd5b83356147b281615031565b925060208401356147c281615031565b929592945050506040919091013590565b600080604083850312156147e5578081fd5b82356147f081615031565b915060208301356146f781615046565b600080828403610420811215614814578283fd5b833561481f81615031565b9250610400601f1982011215614833578182fd5b5061483e6080614fec565b61484b85602086016145fb565b815261485b8561012086016145fb565b602082015261486e8561022086016145fb565b60408201526148818561032086016145fb565b6060820152809150509250929050565b600080604083850312156148a3578182fd5b82356148ae81615031565b946020939093013593505050565b600080600080600080608087890312156148d4578384fd5b86356148df81615031565b95506020870135945060408701356001600160401b0380821115614750578586fd5b60006020808385031215614913578182fd5b82516001600160401b03811115614928578283fd5b8301601f81018513614938578283fd5b80516149466145b682615012565b8181528381019083850185840285018601891015614962578687fd5b8694505b8385101561498d57805161497981615031565b835260019490940193918501918501614966565b50979650505050505050565b600080604083850312156149ab578182fd5b82356001600160401b03808211156149c1578384fd5b818501915085601f8301126149d4578384fd5b81356149e26145b682615012565b80828252602080830192508086018a828387028901011115614a02578889fd5b8896505b84871015614a2d578035614a1981615031565b845260019690960195928101928101614a06565b509096508701359350505080821115614a44578283fd5b50614a5185828601614598565b9150509250929050565b60006020808385031215614a6d578182fd5b82516001600160401b03811115614a82578283fd5b8301601f81018513614a92578283fd5b8051614aa06145b682615012565b8181528381019083850185840285018601891015614abc578687fd5b8694505b8385101561498d578051835260019490940193918501918501614ac0565b600060208284031215614aef578081fd5b81516134b381615046565b600060208284031215614b0b578081fd5b8151600281106134b3578182fd5b600060208284031215614b2a578081fd5b5035919050565b600060208284031215614b42578081fd5b5051919050565b6000815180845260208085019450808401835b83811015614b7857815187529582019590820190600101614b5c565b509495945050505050565b614b8e828251614bc2565b6020810151614ba06040840182614bc2565b506040810151614bb36080840182614bc2565b50606081015161146860c08401825b80518252602090810151910152565b6001600160a01b0391909116815260200190565b6001600160a01b03929092168252602082015260400190565b6020808252825182820181905260009190848201906040850190845b81811015614c3f5783516001600160a01b031683529284019291840191600101614c1a565b50909695505050505050565b60208082528251828201819052600091906040908185019080840286018301878501865b83811015614cb757888303603f19018552815180516001600160a01b03168452870151878401879052614ca487850182614b49565b9588019593505090860190600101614c6f565b509098975050505050505050565b6000602082526134b36020830184614b49565b901515815260200190565b6000602080835283518082850152825b81811015614d0f57858101830151858201604001528201614cf3565b81811115614d205783604083870101525b50601f01601f1916929092016040019392505050565b60208082526012908201527122a9292fa727aa2fa1a7a72a2927a62622a960711b604082015260600190565b6020808252601b908201527a536166654d6174683a206164646974696f6e206f766572666c6f7760281b604082015260600190565b6020808252600f908201526e41646472657373206973205a65726f60881b604082015260600190565b60208082526010908201526f20b2323932b9b99034b99027bbb732b960811b604082015260600190565b60208082526010908201526f4552525f5a45524f5f4144445245535360801b604082015260600190565b6020808252600990820152682737ba1027bbb732b960b91b604082015260600190565b60208082526006908201526506f776e6572560d41b604082015260600190565b6020808252600f908201526e696e76616c6964206164647265737360881b604082015260600190565b60208082526021908201527f546f6b656e206c697374206c656e677468206973206e6f742065657175616c716040820152607560f81b606082015260800190565b6020808252600f908201526e14185c985b5cc81a5cc81cd95d1959608a1b604082015260600190565b60208082526021908201527f536166654d6174683a206d756c7469706c69636174696f6e206f766572666c6f6040820152607760f81b606082015260800190565b6020808252600a9082015269139bdd0814995dd85c9960b21b604082015260600190565b602080825260149082015273139bdd0810dbdb5c1b195d195910dbdb1b1958dd60621b604082015260600190565b6020808252601390820152726b6f6c2061646472657373206973207a6f726560681b604082015260600190565b6104008101614fb98287614b83565b614fc7610100830186614b83565b614fd5610200830185614b83565b610e93610300830184614b83565b90815260200190565b6040518181016001600160401b038111828210171561500a57600080fd5b604052919050565b60006001600160401b03821115615027578081fd5b5060209081020190565b6001600160a01b038116811461205057600080fd5b801515811461205057600080fdfea264697066735822122033e3b6fc53bcfe533607f3d5a6826643102102512b48fadfeabdcf822035f5ef64736f6c634300060c0033",
  "devdoc": {
    "author": "Desyn Labs",
    "kind": "dev",
    "methods": {
      "getController()": {
        "details": "external for gas optimization",
        "returns": {
          "_0": "address - of the owner (AKA controller)"
        }
      },
      "removeOwner(address)": {
        "details": "Allows to remove an owner. Transaction has to be sent by wallet.",
        "params": {
          "owner": "Address of owner."
        }
      },
      "setAddAdminList(address,uint256)": {
        "details": "external for gas optimization",
        "params": {
          "newOwner": "- address of new owner"
        }
      },
      "setController(address)": {
        "details": "external for gas optimization",
        "params": {
          "newOwner": "- address of new owner"
        }
      }
    },
    "title": "Vault managerFee",
    "version": 1
  },
  "userdoc": {
    "kind": "user",
    "methods": {
      "getController()": {
        "notice": "Returns the address of the current owner"
      },
      "setAddAdminList(address,uint256)": {
        "notice": "Transfers ownership of the contract to a new account (`newOwner`).         Can only be called by the current owner"
      },
      "setController(address)": {
        "notice": "Transfers ownership of the contract to a new account (`newOwner`).         Can only be called by the current owner"
      }
    },
    "version": 1
  },
  "storageLayout": {
    "storage": [
      {
        "astId": 17857,
        "contract": "contracts/deploy/UserVault.sol:UserVault",
        "label": "_owner",
        "offset": 0,
        "slot": "0",
        "type": "t_address"
      },
      {
        "astId": 17861,
        "contract": "contracts/deploy/UserVault.sol:UserVault",
        "label": "adminList",
        "offset": 0,
        "slot": "1",
        "type": "t_mapping(t_address,t_bool)"
      },
      {
        "astId": 17864,
        "contract": "contracts/deploy/UserVault.sol:UserVault",
        "label": "owners",
        "offset": 0,
        "slot": "2",
        "type": "t_array(t_address)dyn_storage"
      },
      {
        "astId": 17867,
        "contract": "contracts/deploy/UserVault.sol:UserVault",
        "label": "ownerPercentage",
        "offset": 0,
        "slot": "3",
        "type": "t_array(t_uint256)dyn_storage"
      },
      {
        "astId": 17869,
        "contract": "contracts/deploy/UserVault.sol:UserVault",
        "label": "allOwnerPercentage",
        "offset": 0,
        "slot": "4",
        "type": "t_uint256"
      },
      {
        "astId": 10153,
        "contract": "contracts/deploy/UserVault.sol:UserVault",
        "label": "crpFactory",
        "offset": 0,
        "slot": "5",
        "type": "t_contract(ICRPFactory)10108"
      },
      {
        "astId": 10157,
        "contract": "contracts/deploy/UserVault.sol:UserVault",
        "label": "pool_manager",
        "offset": 0,
        "slot": "6",
        "type": "t_mapping(t_address,t_address)"
      },
      {
        "astId": 10162,
        "contract": "contracts/deploy/UserVault.sol:UserVault",
        "label": "pool_manager_tokenList",
        "offset": 0,
        "slot": "7",
        "type": "t_mapping(t_address,t_array(t_address)dyn_storage)"
      },
      {
        "astId": 10167,
        "contract": "contracts/deploy/UserVault.sol:UserVault",
        "label": "pool_manager_tokenAmount",
        "offset": 0,
        "slot": "8",
        "type": "t_mapping(t_address,t_array(t_uint256)dyn_storage)"
      },
      {
        "astId": 10172,
        "contract": "contracts/deploy/UserVault.sol:UserVault",
        "label": "pool_issue_tokenList",
        "offset": 0,
        "slot": "9",
        "type": "t_mapping(t_address,t_array(t_address)dyn_storage)"
      },
      {
        "astId": 10177,
        "contract": "contracts/deploy/UserVault.sol:UserVault",
        "label": "pool_issue_tokenAmount",
        "offset": 0,
        "slot": "10",
        "type": "t_mapping(t_address,t_array(t_uint256)dyn_storage)"
      },
      {
        "astId": 10182,
        "contract": "contracts/deploy/UserVault.sol:UserVault",
        "label": "pool_redeem_tokenList",
        "offset": 0,
        "slot": "11",
        "type": "t_mapping(t_address,t_array(t_address)dyn_storage)"
      },
      {
        "astId": 10187,
        "contract": "contracts/deploy/UserVault.sol:UserVault",
        "label": "pool_redeem_tokenAmount",
        "offset": 0,
        "slot": "12",
        "type": "t_mapping(t_address,t_array(t_uint256)dyn_storage)"
      },
      {
        "astId": 10192,
        "contract": "contracts/deploy/UserVault.sol:UserVault",
        "label": "pool_perfermance_tokenList",
        "offset": 0,
        "slot": "13",
        "type": "t_mapping(t_address,t_array(t_address)dyn_storage)"
      },
      {
        "astId": 10197,
        "contract": "contracts/deploy/UserVault.sol:UserVault",
        "label": "pool_perfermance_tokenAmount",
        "offset": 0,
        "slot": "14",
        "type": "t_mapping(t_address,t_array(t_uint256)dyn_storage)"
      },
      {
        "astId": 10201,
        "contract": "contracts/deploy/UserVault.sol:UserVault",
        "label": "pool_manager_isClaim",
        "offset": 0,
        "slot": "15",
        "type": "t_mapping(t_address,t_bool)"
      },
      {
        "astId": 10205,
        "contract": "contracts/deploy/UserVault.sol:UserVault",
        "label": "black_list",
        "offset": 0,
        "slot": "16",
        "type": "t_mapping(t_address,t_bool)"
      },
      {
        "astId": 10209,
        "contract": "contracts/deploy/UserVault.sol:UserVault",
        "label": "record_number",
        "offset": 0,
        "slot": "17",
        "type": "t_mapping(t_address,t_uint256)"
      },
      {
        "astId": 10215,
        "contract": "contracts/deploy/UserVault.sol:UserVault",
        "label": "record_List",
        "offset": 0,
        "slot": "18",
        "type": "t_mapping(t_address,t_mapping(t_uint256,t_struct(claimRecordInfo)10151_storage))"
      },
      {
        "astId": 10226,
        "contract": "contracts/deploy/UserVault.sol:UserVault",
        "label": "kol_token_list",
        "offset": 0,
        "slot": "19",
        "type": "t_mapping(t_address,t_array(t_address)dyn_storage)"
      },
      {
        "astId": 10230,
        "contract": "contracts/deploy/UserVault.sol:UserVault",
        "label": "kols_list",
        "offset": 0,
        "slot": "20",
        "type": "t_mapping(t_address,t_struct(AddressSet)9886_storage)"
      },
      {
        "astId": 10234,
        "contract": "contracts/deploy/UserVault.sol:UserVault",
        "label": "init_totalAmount_list",
        "offset": 0,
        "slot": "21",
        "type": "t_mapping(t_address,t_uint256)"
      },
      {
        "astId": 10240,
        "contract": "contracts/deploy/UserVault.sol:UserVault",
        "label": "manager_claimed_list",
        "offset": 0,
        "slot": "22",
        "type": "t_mapping(t_address,t_mapping(t_address,t_uint256))"
      },
      {
        "astId": 10246,
        "contract": "contracts/deploy/UserVault.sol:UserVault",
        "label": "kol_claimed_list",
        "offset": 0,
        "slot": "23",
        "type": "t_mapping(t_address,t_mapping(t_address,t_uint256))"
      },
      {
        "astId": 10253,
        "contract": "contracts/deploy/UserVault.sol:UserVault",
        "label": "kol_totalAmount_list",
        "offset": 0,
        "slot": "24",
        "type": "t_mapping(t_address,t_mapping(t_address,t_array(t_uint256)dyn_storage))"
      },
      {
        "astId": 10259,
        "contract": "contracts/deploy/UserVault.sol:UserVault",
        "label": "user_index_list",
        "offset": 0,
        "slot": "25",
        "type": "t_mapping(t_address,t_mapping(t_address,t_uint256))"
      },
      {
        "astId": 10265,
        "contract": "contracts/deploy/UserVault.sol:UserVault",
        "label": "user_kol_list",
        "offset": 0,
        "slot": "26",
        "type": "t_mapping(t_address,t_mapping(t_address,t_address))"
      },
      {
        "astId": 10272,
        "contract": "contracts/deploy/UserVault.sol:UserVault",
        "label": "kol_user_info",
        "offset": 0,
        "slot": "27",
        "type": "t_mapping(t_address,t_mapping(t_address,t_array(t_struct(kolUserInfo)10221_storage)dyn_storage))"
      },
      {
        "astId": 10276,
        "contract": "contracts/deploy/UserVault.sol:UserVault",
        "label": "is_set_params",
        "offset": 0,
        "slot": "28",
        "type": "t_mapping(t_address,t_bool)"
      },
      {
        "astId": 10280,
        "contract": "contracts/deploy/UserVault.sol:UserVault",
        "label": "kol_pool_params",
        "offset": 0,
        "slot": "29",
        "type": "t_mapping(t_address,t_struct(KolPoolParams)16838_storage)"
      },
      {
        "astId": 10283,
        "contract": "contracts/deploy/UserVault.sol:UserVault",
        "label": "total_ratio",
        "offset": 0,
        "slot": "30",
        "type": "t_uint256"
      },
      {
        "astId": 10285,
        "contract": "contracts/deploy/UserVault.sol:UserVault",
        "label": "vaultAddress",
        "offset": 0,
        "slot": "31",
        "type": "t_address"
      }
    ],
    "types": {
      "t_address": {
        "encoding": "inplace",
        "label": "address",
        "numberOfBytes": "20"
      },
      "t_array(t_address)dyn_storage": {
        "base": "t_address",
        "encoding": "dynamic_array",
        "label": "address[]",
        "numberOfBytes": "32"
      },
      "t_array(t_bytes32)dyn_storage": {
        "base": "t_bytes32",
        "encoding": "dynamic_array",
        "label": "bytes32[]",
        "numberOfBytes": "32"
      },
      "t_array(t_struct(claimTokenInfo)10127_storage)dyn_storage": {
        "base": "t_struct(claimTokenInfo)10127_storage",
        "encoding": "dynamic_array",
        "label": "struct UserVault.claimTokenInfo[]",
        "numberOfBytes": "32"
      },
      "t_array(t_struct(kolUserInfo)10221_storage)dyn_storage": {
        "base": "t_struct(kolUserInfo)10221_storage",
        "encoding": "dynamic_array",
        "label": "struct UserVault.kolUserInfo[]",
        "numberOfBytes": "32"
      },
      "t_array(t_uint256)dyn_storage": {
        "base": "t_uint256",
        "encoding": "dynamic_array",
        "label": "uint256[]",
        "numberOfBytes": "32"
      },
      "t_bool": {
        "encoding": "inplace",
        "label": "bool",
        "numberOfBytes": "1"
      },
      "t_bytes32": {
        "encoding": "inplace",
        "label": "bytes32",
        "numberOfBytes": "32"
      },
      "t_contract(ICRPFactory)10108": {
        "encoding": "inplace",
        "label": "contract ICRPFactory",
        "numberOfBytes": "20"
      },
      "t_mapping(t_address,t_address)": {
        "encoding": "mapping",
        "key": "t_address",
        "label": "mapping(address => address)",
        "numberOfBytes": "32",
        "value": "t_address"
      },
      "t_mapping(t_address,t_array(t_address)dyn_storage)": {
        "encoding": "mapping",
        "key": "t_address",
        "label": "mapping(address => address[])",
        "numberOfBytes": "32",
        "value": "t_array(t_address)dyn_storage"
      },
      "t_mapping(t_address,t_array(t_struct(kolUserInfo)10221_storage)dyn_storage)": {
        "encoding": "mapping",
        "key": "t_address",
        "label": "mapping(address => struct UserVault.kolUserInfo[])",
        "numberOfBytes": "32",
        "value": "t_array(t_struct(kolUserInfo)10221_storage)dyn_storage"
      },
      "t_mapping(t_address,t_array(t_uint256)dyn_storage)": {
        "encoding": "mapping",
        "key": "t_address",
        "label": "mapping(address => uint256[])",
        "numberOfBytes": "32",
        "value": "t_array(t_uint256)dyn_storage"
      },
      "t_mapping(t_address,t_bool)": {
        "encoding": "mapping",
        "key": "t_address",
        "label": "mapping(address => bool)",
        "numberOfBytes": "32",
        "value": "t_bool"
      },
      "t_mapping(t_address,t_mapping(t_address,t_address))": {
        "encoding": "mapping",
        "key": "t_address",
        "label": "mapping(address => mapping(address => address))",
        "numberOfBytes": "32",
        "value": "t_mapping(t_address,t_address)"
      },
      "t_mapping(t_address,t_mapping(t_address,t_array(t_struct(kolUserInfo)10221_storage)dyn_storage))": {
        "encoding": "mapping",
        "key": "t_address",
        "label": "mapping(address => mapping(address => struct UserVault.kolUserInfo[]))",
        "numberOfBytes": "32",
        "value": "t_mapping(t_address,t_array(t_struct(kolUserInfo)10221_storage)dyn_storage)"
      },
      "t_mapping(t_address,t_mapping(t_address,t_array(t_uint256)dyn_storage))": {
        "encoding": "mapping",
        "key": "t_address",
        "label": "mapping(address => mapping(address => uint256[]))",
        "numberOfBytes": "32",
        "value": "t_mapping(t_address,t_array(t_uint256)dyn_storage)"
      },
      "t_mapping(t_address,t_mapping(t_address,t_uint256))": {
        "encoding": "mapping",
        "key": "t_address",
        "label": "mapping(address => mapping(address => uint256))",
        "numberOfBytes": "32",
        "value": "t_mapping(t_address,t_uint256)"
      },
      "t_mapping(t_address,t_mapping(t_uint256,t_struct(claimRecordInfo)10151_storage))": {
        "encoding": "mapping",
        "key": "t_address",
        "label": "mapping(address => mapping(uint256 => struct UserVault.claimRecordInfo))",
        "numberOfBytes": "32",
        "value": "t_mapping(t_uint256,t_struct(claimRecordInfo)10151_storage)"
      },
      "t_mapping(t_address,t_struct(AddressSet)9886_storage)": {
        "encoding": "mapping",
        "key": "t_address",
        "label": "mapping(address => struct EnumerableSet.AddressSet)",
        "numberOfBytes": "32",
        "value": "t_struct(AddressSet)9886_storage"
      },
      "t_mapping(t_address,t_struct(KolPoolParams)16838_storage)": {
        "encoding": "mapping",
        "key": "t_address",
        "label": "mapping(address => struct SmartPoolManager.KolPoolParams)",
        "numberOfBytes": "32",
        "value": "t_struct(KolPoolParams)16838_storage"
      },
      "t_mapping(t_address,t_uint256)": {
        "encoding": "mapping",
        "key": "t_address",
        "label": "mapping(address => uint256)",
        "numberOfBytes": "32",
        "value": "t_uint256"
      },
      "t_mapping(t_bytes32,t_uint256)": {
        "encoding": "mapping",
        "key": "t_bytes32",
        "label": "mapping(bytes32 => uint256)",
        "numberOfBytes": "32",
        "value": "t_uint256"
      },
      "t_mapping(t_uint256,t_struct(claimRecordInfo)10151_storage)": {
        "encoding": "mapping",
        "key": "t_uint256",
        "label": "mapping(uint256 => struct UserVault.claimRecordInfo)",
        "numberOfBytes": "32",
        "value": "t_struct(claimRecordInfo)10151_storage"
      },
      "t_struct(AddressSet)9886_storage": {
        "encoding": "inplace",
        "label": "struct EnumerableSet.AddressSet",
        "members": [
          {
            "astId": 9885,
            "contract": "contracts/deploy/UserVault.sol:UserVault",
            "label": "_inner",
            "offset": 0,
            "slot": "0",
            "type": "t_struct(Set)9699_storage"
          }
        ],
        "numberOfBytes": "64"
      },
      "t_struct(KolPoolParams)16838_storage": {
        "encoding": "inplace",
        "label": "struct SmartPoolManager.KolPoolParams",
        "members": [
          {
            "astId": 16831,
            "contract": "contracts/deploy/UserVault.sol:UserVault",
            "label": "managerFee",
            "offset": 0,
            "slot": "0",
            "type": "t_struct(feeParams)16829_storage"
          },
          {
            "astId": 16833,
            "contract": "contracts/deploy/UserVault.sol:UserVault",
            "label": "issueFee",
            "offset": 0,
            "slot": "8",
            "type": "t_struct(feeParams)16829_storage"
          },
          {
            "astId": 16835,
            "contract": "contracts/deploy/UserVault.sol:UserVault",
            "label": "redeemFee",
            "offset": 0,
            "slot": "16",
            "type": "t_struct(feeParams)16829_storage"
          },
          {
            "astId": 16837,
            "contract": "contracts/deploy/UserVault.sol:UserVault",
            "label": "perfermanceFee",
            "offset": 0,
            "slot": "24",
            "type": "t_struct(feeParams)16829_storage"
          }
        ],
        "numberOfBytes": "1024"
      },
      "t_struct(Set)9699_storage": {
        "encoding": "inplace",
        "label": "struct EnumerableSet.Set",
        "members": [
          {
            "astId": 9694,
            "contract": "contracts/deploy/UserVault.sol:UserVault",
            "label": "_values",
            "offset": 0,
            "slot": "0",
            "type": "t_array(t_bytes32)dyn_storage"
          },
          {
            "astId": 9698,
            "contract": "contracts/deploy/UserVault.sol:UserVault",
            "label": "_indexes",
            "offset": 0,
            "slot": "1",
            "type": "t_mapping(t_bytes32,t_uint256)"
          }
        ],
        "numberOfBytes": "64"
      },
      "t_struct(claimRecordInfo)10151_storage": {
        "encoding": "inplace",
        "label": "struct UserVault.claimRecordInfo",
        "members": [
          {
            "astId": 10147,
            "contract": "contracts/deploy/UserVault.sol:UserVault",
            "label": "time",
            "offset": 0,
            "slot": "0",
            "type": "t_uint256"
          },
          {
            "astId": 10150,
            "contract": "contracts/deploy/UserVault.sol:UserVault",
            "label": "tokens",
            "offset": 0,
            "slot": "1",
            "type": "t_array(t_struct(claimTokenInfo)10127_storage)dyn_storage"
          }
        ],
        "numberOfBytes": "64"
      },
      "t_struct(claimTokenInfo)10127_storage": {
        "encoding": "inplace",
        "label": "struct UserVault.claimTokenInfo",
        "members": [
          {
            "astId": 10122,
            "contract": "contracts/deploy/UserVault.sol:UserVault",
            "label": "token",
            "offset": 0,
            "slot": "0",
            "type": "t_address"
          },
          {
            "astId": 10124,
            "contract": "contracts/deploy/UserVault.sol:UserVault",
            "label": "decimals",
            "offset": 0,
            "slot": "1",
            "type": "t_uint256"
          },
          {
            "astId": 10126,
            "contract": "contracts/deploy/UserVault.sol:UserVault",
            "label": "amount",
            "offset": 0,
            "slot": "2",
            "type": "t_uint256"
          }
        ],
        "numberOfBytes": "96"
      },
      "t_struct(feeParams)16829_storage": {
        "encoding": "inplace",
        "label": "struct SmartPoolManager.feeParams",
        "members": [
          {
            "astId": 16822,
            "contract": "contracts/deploy/UserVault.sol:UserVault",
            "label": "firstLevel",
            "offset": 0,
            "slot": "0",
            "type": "t_struct(levelParams)16820_storage"
          },
          {
            "astId": 16824,
            "contract": "contracts/deploy/UserVault.sol:UserVault",
            "label": "secondLevel",
            "offset": 0,
            "slot": "2",
            "type": "t_struct(levelParams)16820_storage"
          },
          {
            "astId": 16826,
            "contract": "contracts/deploy/UserVault.sol:UserVault",
            "label": "thirdLevel",
            "offset": 0,
            "slot": "4",
            "type": "t_struct(levelParams)16820_storage"
          },
          {
            "astId": 16828,
            "contract": "contracts/deploy/UserVault.sol:UserVault",
            "label": "fourLevel",
            "offset": 0,
            "slot": "6",
            "type": "t_struct(levelParams)16820_storage"
          }
        ],
        "numberOfBytes": "256"
      },
      "t_struct(kolUserInfo)10221_storage": {
        "encoding": "inplace",
        "label": "struct UserVault.kolUserInfo",
        "members": [
          {
            "astId": 10217,
            "contract": "contracts/deploy/UserVault.sol:UserVault",
            "label": "userAdr",
            "offset": 0,
            "slot": "0",
            "type": "t_address"
          },
          {
            "astId": 10220,
            "contract": "contracts/deploy/UserVault.sol:UserVault",
            "label": "userAmount",
            "offset": 0,
            "slot": "1",
            "type": "t_array(t_uint256)dyn_storage"
          }
        ],
        "numberOfBytes": "64"
      },
      "t_struct(levelParams)16820_storage": {
        "encoding": "inplace",
        "label": "struct SmartPoolManager.levelParams",
        "members": [
          {
            "astId": 16817,
            "contract": "contracts/deploy/UserVault.sol:UserVault",
            "label": "level",
            "offset": 0,
            "slot": "0",
            "type": "t_uint256"
          },
          {
            "astId": 16819,
            "contract": "contracts/deploy/UserVault.sol:UserVault",
            "label": "ratio",
            "offset": 0,
            "slot": "1",
            "type": "t_uint256"
          }
        ],
        "numberOfBytes": "64"
      },
      "t_uint256": {
        "encoding": "inplace",
        "label": "uint256",
        "numberOfBytes": "32"
      }
    }
  }
}