{
  "address": "0x8A4D9d6430B861AD4d31f787F0Da41cFfbCfB788",
  "abi": [
    {
      "anonymous": false,
      "inputs": [
        {
          "indexed": true,
          "internalType": "address",
          "name": "newAdmin",
          "type": "address"
        },
        {
          "indexed": true,
          "internalType": "uint256",
          "name": "amount",
          "type": "uint256"
        }
      ],
      "name": "AddAdmin",
      "type": "event"
    },
    {
      "anonymous": false,
      "inputs": [
        {
          "indexed": true,
          "internalType": "address",
          "name": "caller",
          "type": "address"
        },
        {
          "indexed": true,
          "internalType": "uint256",
          "name": "amount",
          "type": "uint256"
        }
      ],
      "name": "IssueRatio",
      "type": "event"
    },
    {
      "anonymous": false,
      "inputs": [
        {
          "indexed": true,
          "internalType": "address",
          "name": "manager",
          "type": "address"
        },
        {
          "indexed": true,
          "internalType": "address",
          "name": "caller",
          "type": "address"
        }
      ],
      "name": "LOGUserVaultAdr",
      "type": "event"
    },
    {
      "anonymous": false,
      "inputs": [
        {
          "indexed": true,
          "internalType": "address",
          "name": "caller",
          "type": "address"
        },
        {
          "indexed": true,
          "internalType": "uint256",
          "name": "amount",
          "type": "uint256"
        }
      ],
      "name": "ManagerRatio",
      "type": "event"
    },
    {
      "anonymous": false,
      "inputs": [
        {
          "indexed": true,
          "internalType": "address",
          "name": "previousOwner",
          "type": "address"
        },
        {
          "indexed": true,
          "internalType": "address",
          "name": "newOwner",
          "type": "address"
        }
      ],
      "name": "OwnershipTransferred",
      "type": "event"
    },
    {
      "anonymous": false,
      "inputs": [
        {
          "indexed": true,
          "internalType": "address",
          "name": "caller",
          "type": "address"
        },
        {
          "indexed": true,
          "internalType": "uint256",
          "name": "amount",
          "type": "uint256"
        }
      ],
      "name": "RedeemRatio",
      "type": "event"
    },
    {
      "anonymous": false,
      "inputs": [
        {
          "indexed": true,
          "internalType": "address",
          "name": "oldAdmin",
          "type": "address"
        },
        {
          "indexed": true,
          "internalType": "uint256",
          "name": "amount",
          "type": "uint256"
        }
      ],
      "name": "RemoveAdmin",
      "type": "event"
    },
    {
      "inputs": [],
      "name": "RATIO_ISSUE",
      "outputs": [
        {
          "internalType": "uint256",
          "name": "",
          "type": "uint256"
        }
      ],
      "stateMutability": "view",
      "type": "function"
    },
    {
      "inputs": [],
      "name": "RATIO_MANAGER",
      "outputs": [
        {
          "internalType": "uint256",
          "name": "",
          "type": "uint256"
        }
      ],
      "stateMutability": "view",
      "type": "function"
    },
    {
      "inputs": [],
      "name": "RATIO_PERFERMANCE",
      "outputs": [
        {
          "internalType": "uint256",
          "name": "",
          "type": "uint256"
        }
      ],
      "stateMutability": "view",
      "type": "function"
    },
    {
      "inputs": [],
      "name": "RATIO_REDEEM",
      "outputs": [
        {
          "internalType": "uint256",
          "name": "",
          "type": "uint256"
        }
      ],
      "stateMutability": "view",
      "type": "function"
    },
    {
      "inputs": [],
      "name": "RATIO_TOTAL",
      "outputs": [
        {
          "internalType": "uint256",
          "name": "",
          "type": "uint256"
        }
      ],
      "stateMutability": "view",
      "type": "function"
    },
    {
      "inputs": [
        {
          "internalType": "address",
          "name": "token",
          "type": "address"
        },
        {
          "internalType": "address",
          "name": "user",
          "type": "address"
        },
        {
          "internalType": "uint256",
          "name": "amount",
          "type": "uint256"
        }
      ],
      "name": "adminClaimToken",
      "outputs": [],
      "stateMutability": "nonpayable",
      "type": "function"
    },
    {
      "inputs": [
        {
          "internalType": "address",
          "name": "",
          "type": "address"
        }
      ],
      "name": "adminList",
      "outputs": [
        {
          "internalType": "bool",
          "name": "",
          "type": "bool"
        }
      ],
      "stateMutability": "view",
      "type": "function"
    },
    {
      "inputs": [],
      "name": "allOwnerPercentage",
      "outputs": [
        {
          "internalType": "uint256",
          "name": "",
          "type": "uint256"
        }
      ],
      "stateMutability": "view",
      "type": "function"
    },
    {
      "inputs": [
        {
          "internalType": "address[]",
          "name": "poolTokens",
          "type": "address[]"
        },
        {
          "internalType": "uint256[]",
          "name": "tokensAmount",
          "type": "uint256[]"
        },
        {
          "internalType": "uint256[]",
          "name": "tokensAmountIR",
          "type": "uint256[]"
        },
        {
          "internalType": "bool",
          "name": "isPerfermance",
          "type": "bool"
        }
      ],
      "name": "depositIssueRedeemPToken",
      "outputs": [],
      "stateMutability": "nonpayable",
      "type": "function"
    },
    {
      "inputs": [
        {
          "internalType": "address[]",
          "name": "poolTokens",
          "type": "address[]"
        },
        {
          "internalType": "uint256[]",
          "name": "tokensAmount",
          "type": "uint256[]"
        }
      ],
      "name": "depositManagerToken",
      "outputs": [],
      "stateMutability": "nonpayable",
      "type": "function"
    },
    {
      "inputs": [],
      "name": "getBNB",
      "outputs": [],
      "stateMutability": "payable",
      "type": "function"
    },
    {
      "inputs": [],
      "name": "getController",
      "outputs": [
        {
          "internalType": "address",
          "name": "",
          "type": "address"
        }
      ],
      "stateMutability": "view",
      "type": "function"
    },
    {
      "inputs": [
        {
          "internalType": "address",
          "name": "pool",
          "type": "address"
        }
      ],
      "name": "getManagerClaimBool",
      "outputs": [
        {
          "internalType": "bool",
          "name": "bools",
          "type": "bool"
        }
      ],
      "stateMutability": "view",
      "type": "function"
    },
    {
      "inputs": [],
      "name": "getOwnerPercentage",
      "outputs": [
        {
          "internalType": "uint256[]",
          "name": "",
          "type": "uint256[]"
        }
      ],
      "stateMutability": "view",
      "type": "function"
    },
    {
      "inputs": [],
      "name": "getOwners",
      "outputs": [
        {
          "internalType": "address[]",
          "name": "",
          "type": "address[]"
        }
      ],
      "stateMutability": "view",
      "type": "function"
    },
    {
      "inputs": [
        {
          "internalType": "address[]",
          "name": "_owners",
          "type": "address[]"
        },
        {
          "internalType": "uint256[]",
          "name": "_ownerPercentage",
          "type": "uint256[]"
        }
      ],
      "name": "initHandle",
      "outputs": [],
      "stateMutability": "nonpayable",
      "type": "function"
    },
    {
      "inputs": [
        {
          "internalType": "address",
          "name": "pool",
          "type": "address"
        }
      ],
      "name": "isClosePool",
      "outputs": [
        {
          "internalType": "bool",
          "name": "",
          "type": "bool"
        }
      ],
      "stateMutability": "view",
      "type": "function"
    },
    {
      "inputs": [
        {
          "internalType": "address",
          "name": "pool",
          "type": "address"
        }
      ],
      "name": "managerClaim",
      "outputs": [],
      "stateMutability": "nonpayable",
      "type": "function"
    },
    {
      "inputs": [
        {
          "internalType": "address",
          "name": "pool",
          "type": "address"
        }
      ],
      "name": "managerClaimList",
      "outputs": [
        {
          "components": [
            {
              "internalType": "address",
              "name": "token",
              "type": "address"
            },
            {
              "internalType": "uint256",
              "name": "decimals",
              "type": "uint256"
            },
            {
              "internalType": "uint256",
              "name": "amount",
              "type": "uint256"
            }
          ],
          "internalType": "struct Vault.ClaimTokenInfo[]",
          "name": "claimTokenInfos",
          "type": "tuple[]"
        }
      ],
      "stateMutability": "view",
      "type": "function"
    },
    {
      "inputs": [
        {
          "internalType": "address",
          "name": "pool",
          "type": "address"
        }
      ],
      "name": "managerClaimRecordList",
      "outputs": [
        {
          "components": [
            {
              "internalType": "uint256",
              "name": "time",
              "type": "uint256"
            },
            {
              "components": [
                {
                  "internalType": "address",
                  "name": "token",
                  "type": "address"
                },
                {
                  "internalType": "uint256",
                  "name": "decimals",
                  "type": "uint256"
                },
                {
                  "internalType": "uint256",
                  "name": "amount",
                  "type": "uint256"
                }
              ],
              "internalType": "struct Vault.ClaimTokenInfo[]",
              "name": "tokens",
              "type": "tuple[]"
            }
          ],
          "internalType": "struct Vault.ClaimRecordInfo[]",
          "name": "claimRecordInfos",
          "type": "tuple[]"
        }
      ],
      "stateMutability": "view",
      "type": "function"
    },
    {
      "inputs": [
        {
          "internalType": "uint256",
          "name": "",
          "type": "uint256"
        }
      ],
      "name": "ownerPercentage",
      "outputs": [
        {
          "internalType": "uint256",
          "name": "",
          "type": "uint256"
        }
      ],
      "stateMutability": "view",
      "type": "function"
    },
    {
      "inputs": [
        {
          "internalType": "uint256",
          "name": "",
          "type": "uint256"
        }
      ],
      "name": "owners",
      "outputs": [
        {
          "internalType": "address",
          "name": "",
          "type": "address"
        }
      ],
      "stateMutability": "view",
      "type": "function"
    },
    {
      "inputs": [
        {
          "internalType": "address",
          "name": "pool",
          "type": "address"
        }
      ],
      "name": "poolIssueTokenAmount",
      "outputs": [
        {
          "internalType": "uint256[]",
          "name": "tokenAmount",
          "type": "uint256[]"
        }
      ],
      "stateMutability": "view",
      "type": "function"
    },
    {
      "inputs": [
        {
          "internalType": "address",
          "name": "pool",
          "type": "address"
        }
      ],
      "name": "poolIssueTokenList",
      "outputs": [
        {
          "internalType": "address[]",
          "name": "tokens",
          "type": "address[]"
        }
      ],
      "stateMutability": "view",
      "type": "function"
    },
    {
      "inputs": [
        {
          "internalType": "address",
          "name": "pool",
          "type": "address"
        }
      ],
      "name": "poolManagerTokenAmount",
      "outputs": [
        {
          "internalType": "uint256[]",
          "name": "tokenAmount",
          "type": "uint256[]"
        }
      ],
      "stateMutability": "view",
      "type": "function"
    },
    {
      "inputs": [
        {
          "internalType": "address",
          "name": "pool",
          "type": "address"
        }
      ],
      "name": "poolManagerTokenList",
      "outputs": [
        {
          "internalType": "address[]",
          "name": "tokens",
          "type": "address[]"
        }
      ],
      "stateMutability": "view",
      "type": "function"
    },
    {
      "inputs": [
        {
          "internalType": "address",
          "name": "pool",
          "type": "address"
        }
      ],
      "name": "poolPerfermanceTokenAmount",
      "outputs": [
        {
          "internalType": "uint256[]",
          "name": "tokenAmount",
          "type": "uint256[]"
        }
      ],
      "stateMutability": "view",
      "type": "function"
    },
    {
      "inputs": [
        {
          "internalType": "address",
          "name": "pool",
          "type": "address"
        }
      ],
      "name": "poolPerfermanceTokenList",
      "outputs": [
        {
          "internalType": "address[]",
          "name": "tokens",
          "type": "address[]"
        }
      ],
      "stateMutability": "view",
      "type": "function"
    },
    {
      "inputs": [
        {
          "internalType": "address",
          "name": "pool",
          "type": "address"
        }
      ],
      "name": "poolRedeemTokenAmount",
      "outputs": [
        {
          "internalType": "uint256[]",
          "name": "tokenAmount",
          "type": "uint256[]"
        }
      ],
      "stateMutability": "view",
      "type": "function"
    },
    {
      "inputs": [
        {
          "internalType": "address",
          "name": "pool",
          "type": "address"
        }
      ],
      "name": "poolRedeemTokenList",
      "outputs": [
        {
          "internalType": "address[]",
          "name": "tokens",
          "type": "address[]"
        }
      ],
      "stateMutability": "view",
      "type": "function"
    },
    {
      "inputs": [
        {
          "internalType": "address",
          "name": "",
          "type": "address"
        }
      ],
      "name": "pool_manager",
      "outputs": [
        {
          "internalType": "address",
          "name": "",
          "type": "address"
        }
      ],
      "stateMutability": "view",
      "type": "function"
    },
    {
      "inputs": [
        {
          "internalType": "address",
          "name": "",
          "type": "address"
        }
      ],
      "name": "poolsStatus",
      "outputs": [
        {
          "internalType": "bool",
          "name": "couldManagerClaim",
          "type": "bool"
        },
        {
          "internalType": "bool",
          "name": "isBlackList",
          "type": "bool"
        }
      ],
      "stateMutability": "view",
      "type": "function"
    },
    {
      "inputs": [
        {
          "internalType": "address",
          "name": "",
          "type": "address"
        },
        {
          "internalType": "uint256",
          "name": "",
          "type": "uint256"
        }
      ],
      "name": "record_List",
      "outputs": [
        {
          "internalType": "uint256",
          "name": "time",
          "type": "uint256"
        }
      ],
      "stateMutability": "view",
      "type": "function"
    },
    {
      "inputs": [
        {
          "internalType": "address",
          "name": "",
          "type": "address"
        }
      ],
      "name": "record_number",
      "outputs": [
        {
          "internalType": "uint256",
          "name": "",
          "type": "uint256"
        }
      ],
      "stateMutability": "view",
      "type": "function"
    },
    {
      "inputs": [
        {
          "internalType": "address",
          "name": "owner",
          "type": "address"
        }
      ],
      "name": "removeOwner",
      "outputs": [],
      "stateMutability": "nonpayable",
      "type": "function"
    },
    {
      "inputs": [
        {
          "internalType": "address",
          "name": "newOwner",
          "type": "address"
        },
        {
          "internalType": "uint256",
          "name": "_ownerPercentage",
          "type": "uint256"
        }
      ],
      "name": "setAddAdminList",
      "outputs": [],
      "stateMutability": "nonpayable",
      "type": "function"
    },
    {
      "inputs": [
        {
          "internalType": "address",
          "name": "pool",
          "type": "address"
        },
        {
          "internalType": "bool",
          "name": "bools",
          "type": "bool"
        }
      ],
      "name": "setBlackList",
      "outputs": [],
      "stateMutability": "nonpayable",
      "type": "function"
    },
    {
      "inputs": [
        {
          "internalType": "address",
          "name": "newOwner",
          "type": "address"
        }
      ],
      "name": "setController",
      "outputs": [],
      "stateMutability": "nonpayable",
      "type": "function"
    },
    {
      "inputs": [
        {
          "internalType": "address",
          "name": "adr",
          "type": "address"
        }
      ],
      "name": "setCrpFactory",
      "outputs": [],
      "stateMutability": "nonpayable",
      "type": "function"
    },
    {
      "inputs": [
        {
          "internalType": "uint256",
          "name": "amount",
          "type": "uint256"
        }
      ],
      "name": "setIssueRatio",
      "outputs": [],
      "stateMutability": "nonpayable",
      "type": "function"
    },
    {
      "inputs": [
        {
          "internalType": "uint256",
          "name": "amount",
          "type": "uint256"
        }
      ],
      "name": "setManagerRatio",
      "outputs": [],
      "stateMutability": "nonpayable",
      "type": "function"
    },
    {
      "inputs": [
        {
          "internalType": "uint256",
          "name": "amount",
          "type": "uint256"
        }
      ],
      "name": "setPerfermanceRatio",
      "outputs": [],
      "stateMutability": "nonpayable",
      "type": "function"
    },
    {
      "inputs": [
        {
          "internalType": "uint256",
          "name": "amount",
          "type": "uint256"
        }
      ],
      "name": "setRedeemRatio",
      "outputs": [],
      "stateMutability": "nonpayable",
      "type": "function"
    },
    {
      "inputs": [
        {
          "internalType": "address",
          "name": "adr",
          "type": "address"
        }
      ],
      "name": "setUserVaultAdr",
      "outputs": [],
      "stateMutability": "nonpayable",
      "type": "function"
    },
    {
      "inputs": [],
      "name": "userVault",
      "outputs": [
        {
          "internalType": "address",
          "name": "",
          "type": "address"
        }
      ],
      "stateMutability": "view",
      "type": "function"
    },
    {
      "stateMutability": "payable",
      "type": "receive"
    }
  ],
  "transactionHash": "0xa8893e0cac141e44538d34a64f207baddd245aa9e2aea6bf1379aba8af6595fd",
  "args": [],
  "numDeployments": 1,
  "solcInputHash": "b797a048c0c4a3d2fc0b1fe77be725b8",
  "bytecode": "0x60806040526103e8600c55610320600d55610320600e55610320600f5561032060105534801561002e57600080fd5b50600080546001600160a01b03191633179055615184806100506000396000f3fe6080604052600436106102165760003560e01c80634d4ae12d1161011f5780634d4ae12d1461051257806368092bd91461053f57806371bb41a91461055f57806378a619de1461057f57806389a612e5146105875780638da901ba146105a757806392eefe9b146105c7578063992f6ba5146105e75780639daafec714610607578063a0e67e2b1461061c578063a5168ee214610631578063a5d2bf6314610651578063a97f9f3314610666578063c0fcb16614610686578063c1cad458146106a6578063c1e57622146106bb578063c3e4d04f146106db578063c5318d0f146106fb578063d29986c11461071b578063de7f302214610730578063ebef44d914610750578063edb12adf14610770578063edbfb5f5146107905761021d565b8063025e7c27146102225780630922f29d146102585780630a0148641461027a5780630b6b3b2a1461029c5780630bac7b81146102bc5780631483d99d146102dc578063173825d9146102fc5780631a46506e1461031c5780631cc9a579146103495780631eae039c146103765780631f70e80b14610396578063265f30da146103ab57806327304dfd146103c05780632b5230a9146103ed5780632c0bdbcf1461040d5780633018205f1461043a578063309a042c1461044f57806336e4c87f146104645780633ef144791461049257806341c65e83146104b2578063483e1948146104d25780634bbe2fca146104f25761021d565b3661021d57005b600080fd5b34801561022e57600080fd5b5061024261023d366004614b9f565b6107b0565b60405161024f9190614c8f565b60405180910390f35b34801561026457600080fd5b5061027861027336600461479b565b6107d7565b005b34801561028657600080fd5b5061028f61087d565b60405161024f91906150dd565b3480156102a857600080fd5b506102786102b7366004614b9f565b610883565b3480156102c857600080fd5b506102786102d7366004614876565b6108b2565b3480156102e857600080fd5b506102786102f73660046148de565b610bcf565b34801561030857600080fd5b5061027861031736600461479b565b610f66565b34801561032857600080fd5b5061033c61033736600461479b565b611148565b60405161024f9190614dbb565b34801561035557600080fd5b5061036961036436600461479b565b6111b7565b60405161024f9190614d37565b34801561038257600080fd5b506102786103913660046147d3565b611323565b3480156103a257600080fd5b5061028f6113d3565b3480156103b757600080fd5b5061028f6113d9565b3480156103cc57600080fd5b506103e06103db36600461479b565b6113df565b60405161024f9190614dce565b3480156103f957600080fd5b5061033c61040836600461479b565b6113f4565b34801561041957600080fd5b5061042d61042836600461479b565b611461565b60405161024f9190614d24565b34801561044657600080fd5b506102426114d9565b34801561045b57600080fd5b5061033c6114e8565b34801561047057600080fd5b5061048461047f36600461479b565b611540565b60405161024f929190614dd9565b34801561049e57600080fd5b506102786104ad366004614a1f565b61155e565b3480156104be57600080fd5b5061042d6104cd36600461479b565b611650565b3480156104de57600080fd5b506102786104ed366004614b9f565b6116c7565b3480156104fe57600080fd5b5061028f61050d36600461484b565b611748565b34801561051e57600080fd5b5061053261052d36600461479b565b611765565b60405161024f9190614da8565b34801561054b57600080fd5b5061027861055a366004614813565b611c1e565b34801561056b57600080fd5b5061027861057a366004614b9f565b611c79565b610278611cfa565b34801561059357600080fd5b506102786105a2366004614b9f565b611d53565b3480156105b357600080fd5b506103e06105c236600461479b565b611dd4565b3480156105d357600080fd5b506102786105e236600461479b565b611e5b565b3480156105f357600080fd5b5061027861060236600461484b565b611f06565b34801561061357600080fd5b5061024261202f565b34801561062857600080fd5b5061042d61203e565b34801561063d57600080fd5b5061033c61064c36600461479b565b61209f565b34801561065d57600080fd5b5061028f61210c565b34801561067257600080fd5b5061033c61068136600461479b565b612112565b34801561069257600080fd5b506103e06106a136600461479b565b61217f565b3480156106b257600080fd5b5061028f61219d565b3480156106c757600080fd5b506102786106d636600461479b565b6121a3565b3480156106e757600080fd5b506102426106f636600461479b565b6121ef565b34801561070757600080fd5b5061028f610716366004614b9f565b61220a565b34801561072757600080fd5b5061028f612228565b34801561073c57600080fd5b5061042d61074b36600461479b565b61222e565b34801561075c57600080fd5b5061042d61076b36600461479b565b6122a5565b34801561077c57600080fd5b5061027861078b36600461479b565b612319565b34801561079c57600080fd5b5061028f6107ab36600461479b565b612bd5565b600281815481106107bd57fe5b6000918252602090912001546001600160a01b0316905081565b6000546001600160a01b0316331461080a5760405162461bcd60e51b815260040161080190614e3e565b60405180910390fd5b6001600160a01b0381166108305760405162461bcd60e51b815260040161080190614e9a565b600680546001600160a01b0319166001600160a01b0383169081179091556040513391907fda49b6b843d6c52e6a8fa0f8645f8a33373438a8bf8500d292bf7a96a0a8041790600090a350565b600e5481565b6000546001600160a01b031633146108ad5760405162461bcd60e51b815260040161080190614e3e565b601055565b600554604051636e0cf42160e11b815233916001600160a01b03169063dc19e842906108e2908490600401614c8f565b60206040518083038186803b1580156108fa57600080fd5b505afa15801561090e573d6000803e3d6000fd5b505050506040513d601f19601f820116820180604052508101906109329190614b64565b61094e5760405162461bcd60e51b815260040161080190615006565b83821461096d5760405162461bcd60e51b815260040161080190614f06565b6001600160a01b038181166000908152600b602052604090205416610a2d57806001600160a01b0316633018205f6040518163ffffffff1660e01b815260040160206040518083038186803b1580156109c557600080fd5b505afa1580156109d9573d6000803e3d6000fd5b505050506040513d601f19601f820116820180604052508101906109fd91906147b7565b6001600160a01b038281166000908152600b6020526040902080546001600160a01b031916929091169190911790555b600060076000836001600160a01b03166001600160a01b031681526020019081526020016000209050606080610b16888888888888600001805480602002602001604051908101604052809291908181526020018280548015610ab957602002820191906000526020600020905b81546001600160a01b03168152600190910190602001808311610a9b575b505050505089600401805480602002602001604051908101604052809291908181526020018280548015610b0c57602002820191906000526020600020905b815481526020019060010190808311610af8575b5050505050612be7565b81519193509150610b2d9084906020850190614492565b508051610b4390600485019060208401906144f7565b506001600160a01b0384166000908152600860205260409020805460ff19166001179055610b7084611dd4565b15610bc55760405163edb12adf60e01b8152309063edb12adf90610b98908790600401614c8f565b600060405180830381600087803b158015610bb257600080fd5b505af1925050508015610bc3575060015b505b5050505050505050565b600554604051636e0cf42160e11b815233916001600160a01b03169063dc19e84290610bff908490600401614c8f565b60206040518083038186803b158015610c1757600080fd5b505afa158015610c2b573d6000803e3d6000fd5b505050506040513d601f19601f82011682018060405250810190610c4f9190614b64565b610c6b5760405162461bcd60e51b815260040161080190615006565b868514610c8a5760405162461bcd60e51b815260040161080190614f06565b6001600160a01b038181166000908152600b602052604090205416610d4a57806001600160a01b0316633018205f6040518163ffffffff1660e01b815260040160206040518083038186803b158015610ce257600080fd5b505afa158015610cf6573d6000803e3d6000fd5b505050506040513d601f19601f82011682018060405250810190610d1a91906147b7565b6001600160a01b038281166000908152600b6020526040902080546001600160a01b031916929091169190911790555b6001600160a01b038116600090815260076020526040902082610e5957606080610e258b8b8b8b8888600101805480602002602001604051908101604052809291908181526020018280548015610dca57602002820191906000526020600020905b81546001600160a01b03168152600190910190602001808311610dac575b505050505089600501805480602002602001604051908101604052809291908181526020018280548015610b0c5760200282019190600052602060002090815481526020019060010190808311610af8575050505050612be7565b81519193509150610e3f9060018501906020850190614492565b508051610e5590600585019060208401906144f7565b5050505b8215610edb57606080606080610e748d8d8d8d8d8d8c612fb5565b835193975091955093509150610e939060028701906020870190614492565b508251610ea990600687019060208601906144f7565b508151610ebf9060038701906020850190614492565b508051610ed590600787019060208401906144f7565b50505050505b6001600160a01b0382166000908152600860205260409020805460ff19166001179055610f0782611dd4565b15610bc35760405163edb12adf60e01b8152309063edb12adf90610f2f908590600401614c8f565b600060405180830381600087803b158015610f4957600080fd5b505af1925050508015610f5a575060015b50505050505050505050565b6000546001600160a01b03163314610f905760405162461bcd60e51b815260040161080190614e3e565b6001600160a01b0381166000908152600160205260408120805460ff19169055805b6002548110156110b457826001600160a01b031660028281548110610fd357fe5b6000918252602090912001546001600160a01b031614156110ac5760028054600019810190811061100057fe5b600091825260209091200154600280546001600160a01b03909216918390811061102657fe5b9060005260206000200160006101000a8154816001600160a01b0302191690836001600160a01b031602179055506003818154811061106157fe5b9060005260206000200154915060036001600380549050038154811061108357fe5b90600052602060002001546003828154811061109b57fe5b6000918252602090912001556110b4565b600101610fb2565b5060028054806110c057fe5b600082815260209020810160001990810180546001600160a01b031916905501905560038054806110ed57fe5b600082815260208120820160001990810182905590910190915560048054839003905560405182916001600160a01b038516917f7b0884b4b6bb4e0c1385ad42168fa556c14d4d799c1bf22f081aff3efff6ea0c9190a35050565b6001600160a01b0381166000908152600760208181526040928390209091018054835181840281018401909452808452606093928301828280156111ab57602002820191906000526020600020905b815481526020019060010190808311611197575b50505050509050919050565b6001600160a01b03811660009081526009602052604090205460609081816001600160401b03811180156111ea57600080fd5b5060405190808252806020026020018201604052801561122457816020015b61121161453e565b8152602001906001900390816112095790505b50905060015b8260010181101561131b5761123d61453e565b6001600160a01b0386166000908152600a60209081526040808320858452825280832081518083018352815481526001820180548451818702810187019095528085529195929486810194939192919084015b828210156112e5576000848152602090819020604080516060810182526003860290920180546001600160a01b0316835260018082015484860152600290910154918301919091529083529092019101611290565b505050915250909150819050836112fd8460016135e8565b8151811061130757fe5b60209081029190910101525060010161122a565b509392505050565b6000546001600160a01b0316331461134d5760405162461bcd60e51b815260040161080190614e3e565b60405163a9059cbb60e01b81526001600160a01b0384169063a9059cbb9061137b9085908590600401614d0b565b602060405180830381600087803b15801561139557600080fd5b505af11580156113a9573d6000803e3d6000fd5b505050506040513d601f19601f820116820180604052508101906113cd9190614b64565b50505050565b600c5481565b60105481565b60016020526000908152604090205460ff1681565b6001600160a01b0381166000908152600760209081526040918290206006018054835181840281018401909452808452606093928301828280156111ab57602002820191906000526020600020908154815260200190600101908083116111975750505050509050919050565b6001600160a01b0381166000908152600760209081526040918290206002018054835181840281018401909452808452606093928301828280156111ab57602002820191906000526020600020905b81546001600160a01b031681526001909101906020018083116114b05750505050509050919050565b6000546001600160a01b031690565b6060600380548060200260200160405190810160405280929190818152602001828054801561153657602002820191906000526020600020905b815481526020019060010190808311611522575b5050505050905090565b60086020526000908152604090205460ff8082169161010090041682565b6000546001600160a01b031633146115885760405162461bcd60e51b815260040161080190614e3e565b80518251146115a95760405162461bcd60e51b815260040161080190614fe6565b60005b8251811015611623578181815181106115c157fe5b602002602001015160046000828254019250508190555060018060008584815181106115e957fe5b6020908102919091018101516001600160a01b03168252810191909152604001600020805460ff19169115159190911790556001016115ac565b508151611637906002906020850190614492565b50805161164b9060039060208401906144f7565b505050565b6001600160a01b0381166000908152600760209081526040918290206003018054835181840281018401909452808452606093928301828280156111ab576020028201919060005260206000209081546001600160a01b031681526001909101906020018083116114b05750505050509050919050565b6000546001600160a01b031633146116f15760405162461bcd60e51b815260040161080190614e3e565b600c548111156117135760405162461bcd60e51b815260040161080190614e6a565b600f819055604051819033907f401a2e9de953ac26f52ac90650c1c1c1d95f78ef7661efad2ab1f2c59b9fd5e490600090a350565b600a60209081526000928352604080842090915290825290205481565b606061176f614558565b6001600160a01b0383166000908152600760209081526040918290208251815461012093810282018401909452610100810184815290939192849284918401828280156117e557602002820191906000526020600020905b81546001600160a01b031681526001909101906020018083116117c7575b505050505081526020016001820180548060200260200160405190810160405280929190818152602001828054801561184757602002820191906000526020600020905b81546001600160a01b03168152600190910190602001808311611829575b50505050508152602001600282018054806020026020016040519081016040528092919081815260200182805480156118a957602002820191906000526020600020905b81546001600160a01b0316815260019091019060200180831161188b575b505050505081526020016003820180548060200260200160405190810160405280929190818152602001828054801561190b57602002820191906000526020600020905b81546001600160a01b031681526001909101906020018083116118ed575b505050505081526020016004820180548060200260200160405190810160405280929190818152602001828054801561196357602002820191906000526020600020905b81548152602001906001019080831161194f575b50505050508152602001600582018054806020026020016040519081016040528092919081815260200182805480156119bb57602002820191906000526020600020905b8154815260200190600101908083116119a7575b5050505050815260200160068201805480602002602001604051908101604052809291908181526020018280548015611a1357602002820191906000526020600020905b8154815260200190600101908083116119ff575b5050505050815260200160078201805480602002602001604051908101604052809291908181526020018280548015611a6b57602002820191906000526020600020905b815481526020019060010190808311611a57575b5050505050815250509050606081600001515160001415611aba57602082015151611aaf57604082015151611aa4578160600151611aaa565b81604001515b611ab5565b81602001515b611abd565b81515b9050606081516001600160401b0381118015611ad857600080fd5b50604051908082528060200260200182016040528015611b1257816020015b611aff61459d565b815260200190600190039081611af75790505b50905060005b8251811015611c1557611b2961459d565b838281518110611b3557fe5b60209081029190910101516001600160a01b031681526000611b578389613633565b50505050905080826040018181525050848381518110611b7357fe5b60200260200101516001600160a01b031663313ce5676040518163ffffffff1660e01b815260040160206040518083038186803b158015611bb357600080fd5b505afa158015611bc7573d6000803e3d6000fd5b505050506040513d601f19601f82011682018060405250810190611beb9190614bb7565b602083015283518290859085908110611c0057fe5b60209081029190910101525050600101611b18565b50949350505050565b6000546001600160a01b03163314611c485760405162461bcd60e51b815260040161080190614e3e565b6001600160a01b03909116600090815260086020526040902080549115156101000261ff0019909216919091179055565b6000546001600160a01b03163314611ca35760405162461bcd60e51b815260040161080190614e3e565b600c54811115611cc55760405162461bcd60e51b815260040161080190614e6a565b600e819055604051819033907f448dcad41b13f10b7abd9393b3e1bb9887110740a9f0f9c7d2ed0b762652971f90600090a350565b6000546001600160a01b03163314611d245760405162461bcd60e51b815260040161080190614e3e565b60405133904780156108fc02916000818181858888f19350505050158015611d50573d6000803e3d6000fd5b50565b6000546001600160a01b03163314611d7d5760405162461bcd60e51b815260040161080190614e3e565b600c54811115611d9f5760405162461bcd60e51b815260040161080190614e6a565b600d819055604051819033907f7d624dbda9646ad98f8b1fbd8de61497fb7a4e93b94bc13a6548b81c9b0ce91a90600090a350565b60006001826001600160a01b03166373a9855c6040518163ffffffff1660e01b815260040160206040518083038186803b158015611e1157600080fd5b505afa158015611e25573d6000803e3d6000fd5b505050506040513d601f19601f82011682018060405250810190611e499190614b80565b6001811115611e5457fe5b1492915050565b6000546001600160a01b03163314611e855760405162461bcd60e51b815260040161080190614e3e565b6001600160a01b038116611eab5760405162461bcd60e51b815260040161080190614f64565b600080546040516001600160a01b03808516939216917f8be0079c531659141344cd1fd0a4f28419497f9722a3daafe3b4186f6b6457e091a3600080546001600160a01b0319166001600160a01b0392909216919091179055565b6000546001600160a01b03163314611f305760405162461bcd60e51b815260040161080190614e3e565b6001600160a01b03821660009081526001602052604090205460ff1615611f695760405162461bcd60e51b815260040161080190614f3a565b6001600160a01b0382166000818152600160208190526040808320805460ff191683179055600280548084019091557f405787fa12a823e0f2b7631cc41b3ba8828b3321ca811111fa75cd3aa3bb5ace0180546001600160a01b0319168517905560038054928301815583527fc2575a0e9e593c00f959f8c92f12db2869c3395a3b0502d05e2516446f71f85b9091018490556004805485019055518392917fbd5dcf0b25226117c4a68a0129ffdd4b0541ef5e482ad7de9a96ccb6d6a8ebde91a35050565b6006546001600160a01b031681565b6060600280548060200260200160405190810160405280929190818152602001828054801561153657602002820191906000526020600020905b81546001600160a01b03168152600190910190602001808311612078575050505050905090565b6001600160a01b0381166000908152600760209081526040918290206005018054835181840281018401909452808452606093928301828280156111ab57602002820191906000526020600020908154815260200190600101908083116111975750505050509050919050565b600f5481565b6001600160a01b0381166000908152600760209081526040918290206004018054835181840281018401909452808452606093928301828280156111ab57602002820191906000526020600020908154815260200190600101908083116111975750505050509050919050565b6001600160a01b031660009081526008602052604090205460ff1690565b600d5481565b6000546001600160a01b031633146121cd5760405162461bcd60e51b815260040161080190614e3e565b600580546001600160a01b0319166001600160a01b0392909216919091179055565b600b602052600090815260409020546001600160a01b031681565b6003818154811061221757fe5b600091825260209091200154905081565b60045481565b6001600160a01b0381166000908152600760209081526040918290206001018054835181840281018401909452808452606093928301828280156111ab576020028201919060005260206000209081546001600160a01b031681526001909101906020018083116114b05750505050509050919050565b6001600160a01b0381166000908152600760209081526040918290208054835181840281018401909452808452606093928301828280156111ab576020028201919060005260206000209081546001600160a01b031681526001909101906020018083116114b05750505050509050919050565b600554604051636e0cf42160e11b81526001600160a01b039091169063dc19e84290612349908490600401614c8f565b60206040518083038186803b15801561236157600080fd5b505afa158015612375573d6000803e3d6000fd5b505050506040513d601f19601f820116820180604052508101906123999190614b64565b6123b55760405162461bcd60e51b815260040161080190615006565b6000816001600160a01b0316633018205f6040518163ffffffff1660e01b815260040160206040518083038186803b1580156123f057600080fd5b505afa158015612404573d6000803e3d6000fd5b505050506040513d601f19601f8201168201806040525081019061242891906147b7565b9050612432614558565b6001600160a01b0383166000908152600760209081526040918290208251815461012093810282018401909452610100810184815290939192849284918401828280156124a857602002820191906000526020600020905b81546001600160a01b0316815260019091019060200180831161248a575b505050505081526020016001820180548060200260200160405190810160405280929190818152602001828054801561250a57602002820191906000526020600020905b81546001600160a01b031681526001909101906020018083116124ec575b505050505081526020016002820180548060200260200160405190810160405280929190818152602001828054801561256c57602002820191906000526020600020905b81546001600160a01b0316815260019091019060200180831161254e575b50505050508152602001600382018054806020026020016040519081016040528092919081815260200182805480156125ce57602002820191906000526020600020905b81546001600160a01b031681526001909101906020018083116125b0575b505050505081526020016004820180548060200260200160405190810160405280929190818152602001828054801561262657602002820191906000526020600020905b815481526020019060010190808311612612575b505050505081526020016005820180548060200260200160405190810160405280929190818152602001828054801561267e57602002820191906000526020600020905b81548152602001906001019080831161266a575b50505050508152602001600682018054806020026020016040519081016040528092919081815260200182805480156126d657602002820191906000526020600020905b8154815260200190600101908083116126c2575b505050505081526020016007820180548060200260200160405190810160405280929190818152602001828054801561272e57602002820191906000526020600020905b81548152602001906001019080831161271a575b505050919092525050506001600160a01b038416600090815260086020526040902081515191925090606090612792576020830151516127875760408301515161277c578260600151612782565b82604001515b61278d565b82602001515b612795565b82515b8254909150610100900460ff16156127bf5760405162461bcd60e51b8152600401610801906150ae565b6001600160a01b038581166000908152600b60205260409020548116908516146127fb5760405162461bcd60e51b815260040161080190614f8e565b600081511161281c5760405162461bcd60e51b815260040161080190614fba565b815460ff1661283d5760405162461bcd60e51b815260040161080190615079565b815460ff191682556001600160a01b0385166000908152600a6020908152604080832060099092528220548290612875906001613a4b565b81526020019081526020016000209050806000016000905580600101600061289d91906145c7565b42815581516060906001600160401b03811180156128ba57600080fd5b506040519080825280602002602001820160405280156128e4578160200160208202803683370190505b509050606083516001600160401b038111801561290057600080fd5b5060405190808252806020026020018201604052801561292a578160200160208202803683370190505b509050606084516001600160401b038111801561294657600080fd5b50604051908082528060200260200182016040528015612970578160200160208202803683370190505b509050606085516001600160401b038111801561298c57600080fd5b506040519080825280602002602001820160405280156129b6578160200160208202803683370190505b50905060005b8651811015612b405760006129cf61459d565b6129d9838e613633565b8b88815181106129e557fe5b602002602001018b89815181106129f857fe5b602002602001018b8a81518110612a0b57fe5b602002602001018b8b81518110612a1e57fe5b6020908102919091010193909352929091529190525289519092506000908a9085908110612a4857fe5b6020908102919091018101516001600160a01b0381168085526040808601879052805163313ce56760e01b81529051929450909263313ce56792600480840193829003018186803b158015612a9c57600080fd5b505afa158015612ab0573d6000803e3d6000fd5b505050506040513d601f19601f82011682018060405250810190612ad49190614bb7565b602083810191825260018b8101805480830182556000918252929020855160039093020180546001600160a01b0319166001600160a01b039093169290921782559151918101919091556040830151600290910155612b358e8e8386613a70565b5050506001016129bc565b50612b4a8a611dd4565b15612b5d57612b5d8a8786868686613e08565b6001600160a01b038a16600090815260096020526040902054612b81906001613a4b565b6001600160a01b038b166000908152600960209081526040808320849055600a8252808320938352929052208554815560018087018054889392612bc892908401916145e8565b50905050610f5a8a6142f5565b60096020526000908152604090205481565b606080876001600160401b0381118015612c0057600080fd5b50604051908082528060200260200182016040528015612c2a578160200160208202803683370190505b509150876001600160401b0381118015612c4357600080fd5b50604051908082528060200260200182016040528015612c6d578160200160208202803683370190505b50905082518451148015612c8057508351155b80612ca457506001600160a01b03851660009081526008602052604090205460ff16155b15612dfa5760005b88811015612df45760008a8a83818110612cc257fe5b9050602002016020810190612cd7919061479b565b90506000898984818110612ce757fe5b905060200201359050816001600160a01b03166323b872dd3330846040518463ffffffff1660e01b8152600401612d2093929190614ca3565b602060405180830381600087803b158015612d3a57600080fd5b505af1158015612d4e573d6000803e3d6000fd5b505050506040513d601f19601f82011682018060405250810190612d729190614b64565b508b8b84818110612d7f57fe5b9050602002016020810190612d94919061479b565b858481518110612da057fe5b60200260200101906001600160a01b031690816001600160a01b031681525050898984818110612dcc57fe5b90506020020135848481518110612ddf57fe5b60209081029190910101525050600101612cac565b50612fa9565b60005b88811015612fa757898982818110612e1157fe5b9050602002016020810190612e26919061479b565b6001600160a01b0316858281518110612e3b57fe5b60200260200101516001600160a01b03161415612f9f5760008a8a83818110612e6057fe5b9050602002016020810190612e75919061479b565b90506000898984818110612e8557fe5b905060200201359050816001600160a01b03166323b872dd3330846040518463ffffffff1660e01b8152600401612ebe93929190614ca3565b602060405180830381600087803b158015612ed857600080fd5b505af1158015612eec573d6000803e3d6000fd5b505050506040513d601f19601f82011682018060405250810190612f109190614b64565b508b8b84818110612f1d57fe5b9050602002016020810190612f32919061479b565b858481518110612f3e57fe5b60200260200101906001600160a01b031690816001600160a01b031681525050612f8481878581518110612f6e57fe5b6020026020010151613a4b90919063ffffffff16565b848481518110612f9057fe5b60200260200101818152505050505b600101612dfd565b505b97509795505050505050565b6060808080896001600160401b0381118015612fd057600080fd5b50604051908082528060200260200182016040528015612ffa578160200160208202803683370190505b509350896001600160401b038111801561301357600080fd5b5060405190808252806020026020018201604052801561303d578160200160208202803683370190505b509250896001600160401b038111801561305657600080fd5b50604051908082528060200260200182016040528015613080578160200160208202803683370190505b509150896001600160401b038111801561309957600080fd5b506040519080825280602002602001820160405280156130c3578160200160208202803683370190505b506001600160a01b03861660009081526007602052604090206006810154600282015492935090911480156130fa57506002810154155b8061311e57506001600160a01b03861660009081526008602052604090205460ff16155b1561326e5760005b8b8110156132685760008b8b8381811061313c57fe5b9050602002013590508d8d8381811061315157fe5b9050602002016020810190613166919061479b565b6001600160a01b03166323b872dd3330846040518463ffffffff1660e01b815260040161319593929190614ca3565b602060405180830381600087803b1580156131af57600080fd5b505af11580156131c3573d6000803e3d6000fd5b505050506040513d601f19601f820116820180604052508101906131e79190614b64565b508d8d838181106131f457fe5b9050602002016020810190613209919061479b565b87838151811061321557fe5b60200260200101906001600160a01b031690816001600160a01b03168152505089898381811061324157fe5b9050602002013586838151811061325457fe5b602090810291909101015250600101613126565b50613436565b60005b8b811015613434578c8c8281811061328557fe5b905060200201602081019061329a919061479b565b6001600160a01b03168260020182815481106132b257fe5b6000918252602090912001546001600160a01b0316141561342c5760008b8b838181106132db57fe5b9050602002013590508d8d838181106132f057fe5b9050602002016020810190613305919061479b565b6001600160a01b03166323b872dd3330846040518463ffffffff1660e01b815260040161333493929190614ca3565b602060405180830381600087803b15801561334e57600080fd5b505af1158015613362573d6000803e3d6000fd5b505050506040513d601f19601f820116820180604052508101906133869190614b64565b508d8d8381811061339357fe5b90506020020160208101906133a8919061479b565b8783815181106133b457fe5b60200260200101906001600160a01b031690816001600160a01b0316815250506134128a8a848181106133e357fe5b905060200201358460070184815481106133f957fe5b9060005260206000200154613a4b90919063ffffffff16565b86838151811061341e57fe5b602002602001018181525050505b600101613271565b505b6007810154600382015414801561344f57506003810154155b8061347357506001600160a01b03861660009081526008602052604090205460ff16155b1561352c5760005b8b811015613526578c8c8281811061348f57fe5b90506020020160208101906134a4919061479b565b8482815181106134b057fe5b60200260200101906001600160a01b031690816001600160a01b0316815250506135078989838181106134df57fe5b905060200201358c8c848181106134f257fe5b905060200201356135e890919063ffffffff16565b83828151811061351357fe5b602090810291909101015260010161347b565b506135d9565b60005b8b8110156135d7578c8c8281811061354357fe5b9050602002016020810190613558919061479b565b84828151811061356457fe5b60200260200101906001600160a01b031690816001600160a01b0316815250506135b86135a98a8a8481811061359657fe5b905060200201358d8d858181106134f257fe5b8360070183815481106133f957fe5b8382815181106135c457fe5b602090810291909101015260010161352f565b505b50975097509750979350505050565b600061362a83836040518060400160405280601e81526020017f536166654d6174683a207375627472616374696f6e206f766572666c6f77000081525061437a565b90505b92915050565b6000806000806000613643614558565b6001600160a01b0387166000908152600760209081526040918290208251815461012093810282018401909452610100810184815290939192849284918401828280156136b957602002820191906000526020600020905b81546001600160a01b0316815260019091019060200180831161369b575b505050505081526020016001820180548060200260200160405190810160405280929190818152602001828054801561371b57602002820191906000526020600020905b81546001600160a01b031681526001909101906020018083116136fd575b505050505081526020016002820180548060200260200160405190810160405280929190818152602001828054801561377d57602002820191906000526020600020905b81546001600160a01b0316815260019091019060200180831161375f575b50505050508152602001600382018054806020026020016040519081016040528092919081815260200182805480156137df57602002820191906000526020600020905b81546001600160a01b031681526001909101906020018083116137c1575b505050505081526020016004820180548060200260200160405190810160405280929190818152602001828054801561383757602002820191906000526020600020905b815481526020019060010190808311613823575b505050505081526020016005820180548060200260200160405190810160405280929190818152602001828054801561388f57602002820191906000526020600020905b81548152602001906001019080831161387b575b50505050508152602001600682018054806020026020016040519081016040528092919081815260200182805480156138e757602002820191906000526020600020905b8154815260200190600101908083116138d3575b505050505081526020016007820180548060200260200160405190810160405280929190818152602001828054801561393f57602002820191906000526020600020905b81548152602001906001019080831161392b575b505050505081525050905080608001515160001461399e5761398f600c54613989600d5484608001518c8151811061397357fe5b60200260200101516143a690919063ffffffff16565b906143e0565b945061399b8686613a4b565b95505b60a081015151156139d4576139c5600c54613989600e548460a001518c8151811061397357fe5b93506139d18685613a4b565b95505b60c08101515115613a0a576139fb600c54613989600f548460c001518c8151811061397357fe5b9250613a078684613a4b565b95505b60e08101515115613a4057613a31600c546139896010548460e001518c8151811061397357fe5b9150613a3d8683613a4b565b95505b509295509295909350565b60008282018381101561362a5760405162461bcd60e51b815260040161080190614ed1565b6000613a7b85611dd4565b905080156000613a936001600160a01b03871661441f565b90508215613b235760065460405163a9059cbb60e01b81526001600160a01b038781169263a9059cbb92613acf92909116908890600401614d0b565b602060405180830381600087803b158015613ae957600080fd5b505af1158015613afd573d6000803e3d6000fd5b505050506040513d601f19601f82011682018060405250810190613b219190614b64565b505b818015613b2d5750805b15613d6f576060876001600160a01b031663a0e67e2b6040518163ffffffff1660e01b815260040160006040518083038186803b158015613b6d57600080fd5b505afa158015613b81573d6000803e3d6000fd5b505050506040513d6000823e601f3d908101601f19168201604052613ba99190810190614987565b90506060886001600160a01b031663309a042c6040518163ffffffff1660e01b815260040160006040518083038186803b158015613be657600080fd5b505afa158015613bfa573d6000803e3d6000fd5b505050506040513d6000823e601f3d908101601f19168201604052613c229190810190614ae1565b90506000896001600160a01b031663d29986c16040518163ffffffff1660e01b815260040160206040518083038186803b158015613c5f57600080fd5b505afa158015613c73573d6000803e3d6000fd5b505050506040513d601f19601f82011682018060405250810190613c979190614bb7565b905060005b8351811015613d6a57886001600160a01b031663a9059cbb858381518110613cc057fe5b6020026020010151613cf285613989888781518110613cdb57fe5b60200260200101518e6143a690919063ffffffff16565b6040518363ffffffff1660e01b8152600401613d0f929190614d0b565b602060405180830381600087803b158015613d2957600080fd5b505af1158015613d3d573d6000803e3d6000fd5b505050506040513d601f19601f82011682018060405250810190613d619190614b64565b50600101613c9c565b505050505b818015613d7a575080155b15613dff5760405163a9059cbb60e01b81526001600160a01b0386169063a9059cbb90613dad9089908890600401614d0b565b602060405180830381600087803b158015613dc757600080fd5b505af1158015613ddb573d6000803e3d6000fd5b505050506040513d601f19601f82011682018060405250810190610bc59190614b64565b50505050505050565b613e10614558565b6001600160a01b038716600090815260076020908152604091829020825181546101209381028201840190945261010081018481529093919284928491840182828015613e8657602002820191906000526020600020905b81546001600160a01b03168152600190910190602001808311613e68575b5050505050815260200160018201805480602002602001604051908101604052809291908181526020018280548015613ee857602002820191906000526020600020905b81546001600160a01b03168152600190910190602001808311613eca575b5050505050815260200160028201805480602002602001604051908101604052809291908181526020018280548015613f4a57602002820191906000526020600020905b81546001600160a01b03168152600190910190602001808311613f2c575b5050505050815260200160038201805480602002602001604051908101604052809291908181526020018280548015613fac57602002820191906000526020600020905b81546001600160a01b03168152600190910190602001808311613f8e575b505050505081526020016004820180548060200260200160405190810160405280929190818152602001828054801561400457602002820191906000526020600020905b815481526020019060010190808311613ff0575b505050505081526020016005820180548060200260200160405190810160405280929190818152602001828054801561405c57602002820191906000526020600020905b815481526020019060010190808311614048575b50505050508152602001600682018054806020026020016040519081016040528092919081815260200182805480156140b457602002820191906000526020600020905b8154815260200190600101908083116140a0575b505050505081526020016007820180548060200260200160405190810160405280929190818152602001828054801561410c57602002820191906000526020600020905b8154815260200190600101908083116140f8575b505050505081525050905080608001515160001461418e57600654604051639155dae760e01b81526001600160a01b0390911690639155dae79061415b908a906000908b908b90600401614cc7565b600060405180830381600087803b15801561417557600080fd5b505af1158015614189573d6000803e3d6000fd5b505050505b60a0810151511561420357600654604051639155dae760e01b81526001600160a01b0390911690639155dae7906141d0908a906001908b908a90600401614cc7565b600060405180830381600087803b1580156141ea57600080fd5b505af11580156141fe573d6000803e3d6000fd5b505050505b60c0810151511561427857600654604051639155dae760e01b81526001600160a01b0390911690639155dae790614245908a906002908b908990600401614cc7565b600060405180830381600087803b15801561425f57600080fd5b505af1158015614273573d6000803e3d6000fd5b505050505b60e08101515115613dff57600654604051639155dae760e01b81526001600160a01b0390911690639155dae7906142ba908a906003908b908890600401614cc7565b600060405180830381600087803b1580156142d457600080fd5b505af11580156142e8573d6000803e3d6000fd5b5050505050505050505050565b6001600160a01b0381166000908152600760205260408120906143188282614666565b614326600183016000614666565b614334600283016000614666565b614342600383016000614666565b614350600483016000614666565b61435e600583016000614666565b61436c600683016000614666565b61164b600783016000614666565b6000818484111561439e5760405162461bcd60e51b81526004016108019190614deb565b505050900390565b6000826143b55750600061362d565b828202828482816143c257fe5b041461362a5760405162461bcd60e51b815260040161080190615038565b600061362a83836040518060400160405280601a815260200179536166654d6174683a206469766973696f6e206279207a65726f60301b81525061445b565b6000813f7fc5d2460186f7233c927e7db2dcc703c0e500b653ca82273b7bfad8045d85a47081811480159061445357508115155b949350505050565b6000818361447c5760405162461bcd60e51b81526004016108019190614deb565b50600083858161448857fe5b0495945050505050565b8280548282559060005260206000209081019282156144e7579160200282015b828111156144e757825182546001600160a01b0319166001600160a01b039091161782556020909201916001909101906144b2565b506144f3929150614684565b5090565b828054828255906000526020600020908101928215614532579160200282015b82811115614532578251825591602001919060010190614517565b506144f39291506146a3565b604051806040016040528060008152602001606081525090565b60405180610100016040528060608152602001606081526020016060815260200160608152602001606081526020016060815260200160608152602001606081525090565b604051806060016040528060006001600160a01b0316815260200160008152602001600081525090565b5080546000825560030290600052602060002090810190611d5091906146b8565b82805482825590600052602060002090600302810192821561465a5760005260206000209160030282015b8281111561465a57825482546001600160a01b0319166001600160a01b03909116178255600180840154908301556002808401549083015560039283019290910190614613565b506144f39291506146b8565b5080546000825590600052602060002090810190611d5091906146a3565b5b808211156144f35780546001600160a01b0319168155600101614685565b5b808211156144f357600081556001016146a4565b5b808211156144f35780546001600160a01b031916815560006001820181905560028201556003016146b9565b60008083601f8401126146f6578182fd5b5081356001600160401b0381111561470c578182fd5b602083019150836020808302850101111561472657600080fd5b9250929050565b600082601f83011261473d578081fd5b813561475061474b8261510c565b6150e6565b81815291506020808301908481018184028601820187101561477157600080fd5b60005b8481101561479057813584529282019290820190600101614774565b505050505092915050565b6000602082840312156147ac578081fd5b813561362a8161512b565b6000602082840312156147c8578081fd5b815161362a8161512b565b6000806000606084860312156147e7578182fd5b83356147f28161512b565b925060208401356148028161512b565b929592945050506040919091013590565b60008060408385031215614825578182fd5b82356148308161512b565b9150602083013561484081615140565b809150509250929050565b6000806040838503121561485d578182fd5b82356148688161512b565b946020939093013593505050565b6000806000806040858703121561488b578081fd5b84356001600160401b03808211156148a1578283fd5b6148ad888389016146e5565b909650945060208701359150808211156148c5578283fd5b506148d2878288016146e5565b95989497509550505050565b60008060008060008060006080888a0312156148f8578283fd5b87356001600160401b038082111561490e578485fd5b61491a8b838c016146e5565b909950975060208a0135915080821115614932578485fd5b61493e8b838c016146e5565b909750955060408a0135915080821115614956578485fd5b506149638a828b016146e5565b909450925050606088013561497781615140565b8091505092959891949750929550565b60006020808385031215614999578182fd5b82516001600160401b038111156149ae578283fd5b8301601f810185136149be578283fd5b80516149cc61474b8261510c565b81815283810190838501858402850186018910156149e8578687fd5b8694505b83851015614a135780516149ff8161512b565b8352600194909401939185019185016149ec565b50979650505050505050565b60008060408385031215614a31578182fd5b82356001600160401b0380821115614a47578384fd5b818501915085601f830112614a5a578384fd5b8135614a6861474b8261510c565b80828252602080830192508086018a828387028901011115614a88578889fd5b8896505b84871015614ab3578035614a9f8161512b565b845260019690960195928101928101614a8c565b509096508701359350505080821115614aca578283fd5b50614ad78582860161472d565b9150509250929050565b60006020808385031215614af3578182fd5b82516001600160401b03811115614b08578283fd5b8301601f81018513614b18578283fd5b8051614b2661474b8261510c565b8181528381019083850185840285018601891015614b42578687fd5b8694505b83851015614a13578051835260019490940193918501918501614b46565b600060208284031215614b75578081fd5b815161362a81615140565b600060208284031215614b91578081fd5b81516002811061362a578182fd5b600060208284031215614bb0578081fd5b5035919050565b600060208284031215614bc8578081fd5b5051919050565b6000815180845260208085019450808401835b83811015614c075781516001600160a01b031687529582019590820190600101614be2565b509495945050505050565b6000815180845260208085019450808401835b83811015614c0757815180516001600160a01b0316885283810151848901526040908101519088015260609096019590820190600101614c25565b6000815180845260208085019450808401835b83811015614c0757815187529582019590820190600101614c73565b6001600160a01b0391909116815260200190565b6001600160a01b039384168152919092166020820152604081019190915260600190565b600060018060a01b038616825284602083015260806040830152614cee6080830185614bcf565b8281036060840152614d008185614c60565b979650505050505050565b6001600160a01b03929092168252602082015260400190565b60006020825261362a6020830184614bcf565b60208082528251828201819052600091906040908185019080840286018301878501865b83811015614d9a57888303603f19018552815180518452870151878401879052614d8787850182614c12565b9588019593505090860190600101614d5b565b509098975050505050505050565b60006020825261362a6020830184614c12565b60006020825261362a6020830184614c60565b901515815260200190565b91151582521515602082015260400190565b6000602080835283518082850152825b81811015614e1757858101830151858201604001528201614dfb565b81811115614e285783604083870101525b50601f01601f1916929092016040019392505050565b60208082526012908201527122a9292fa727aa2fa1a7a72a2927a62622a960711b604082015260600190565b60208082526016908201527513585e1a5b5d5b481b1a5b5a5d08195e18d95959195960521b604082015260600190565b6020808252601d908201527f4552525f494e56414c49445f555345525641554c545f41444452455353000000604082015260600190565b6020808252601b908201527a536166654d6174683a206164646974696f6e206f766572666c6f7760281b604082015260600190565b6020808252601a908201527908aa4a4bea89e968a9cbe988a9c8ea890be9c9ea8be9a82a886960331b604082015260600190565b60208082526010908201526f20b2323932b9b99034b99027bbb732b960811b604082015260600190565b60208082526010908201526f4552525f5a45524f5f4144445245535360801b604082015260600190565b60208082526012908201527122a9292fa4a9afa727aa2fa6a0a720a3a2a960711b604082015260600190565b6020808252601290820152714552525f4e4f545f4d414e4745525f46454560701b604082015260600190565b60208082526006908201526506f776e6572560d41b604082015260600190565b6020808252601890820152774552525f494e56414c49445f504f4f4c5f4144445245535360401b604082015260600190565b60208082526021908201527f536166654d6174683a206d756c7469706c69636174696f6e206f766572666c6f6040820152607760f81b606082015260800190565b6020808252601b908201527a4552525f4d414e414745525f434f554c445f4e4f545f434c41494d60281b604082015260600190565b60208082526015908201527411549497d413d3d317d254d7d0931050d2d31254d5605a1b604082015260600190565b90815260200190565b6040518181016001600160401b038111828210171561510457600080fd5b604052919050565b60006001600160401b03821115615121578081fd5b5060209081020190565b6001600160a01b0381168114611d5057600080fd5b8015158114611d5057600080fdfea26469706673582212203de1deca7f45e0808401cec7f1ccb9f786ca8e711ef13d592c7c95d2f60f0f1664736f6c634300060c0033",
  "devdoc": {
    "author": "Desyn Labs",
    "kind": "dev",
    "methods": {
      "getController()": {
        "details": "external for gas optimization",
        "returns": {
          "_0": "address - of the owner (AKA controller)"
        }
      },
      "removeOwner(address)": {
        "details": "Allows to remove an owner. Transaction has to be sent by wallet.",
        "params": {
          "owner": "Address of owner."
        }
      },
      "setAddAdminList(address,uint256)": {
        "details": "external for gas optimization",
        "params": {
          "newOwner": "- address of new owner"
        }
      },
      "setController(address)": {
        "details": "external for gas optimization",
        "params": {
          "newOwner": "- address of new owner"
        }
      }
    },
    "title": "Vault managerFee",
    "version": 1
  },
  "userdoc": {
    "kind": "user",
    "methods": {
      "getController()": {
        "notice": "Returns the address of the current owner"
      },
      "setAddAdminList(address,uint256)": {
        "notice": "Transfers ownership of the contract to a new account (`newOwner`).         Can only be called by the current owner"
      },
      "setController(address)": {
        "notice": "Transfers ownership of the contract to a new account (`newOwner`).         Can only be called by the current owner"
      }
    },
    "version": 1
  },
  "storageLayout": {
    "storage": [
      {
        "astId": 17820,
        "contract": "contracts/deploy/Vault.sol:Vault",
        "label": "_owner",
        "offset": 0,
        "slot": "0",
        "type": "t_address"
      },
      {
        "astId": 17824,
        "contract": "contracts/deploy/Vault.sol:Vault",
        "label": "adminList",
        "offset": 0,
        "slot": "1",
        "type": "t_mapping(t_address,t_bool)"
      },
      {
        "astId": 17827,
        "contract": "contracts/deploy/Vault.sol:Vault",
        "label": "owners",
        "offset": 0,
        "slot": "2",
        "type": "t_array(t_address)dyn_storage"
      },
      {
        "astId": 17830,
        "contract": "contracts/deploy/Vault.sol:Vault",
        "label": "ownerPercentage",
        "offset": 0,
        "slot": "3",
        "type": "t_array(t_uint256)dyn_storage"
      },
      {
        "astId": 17832,
        "contract": "contracts/deploy/Vault.sol:Vault",
        "label": "allOwnerPercentage",
        "offset": 0,
        "slot": "4",
        "type": "t_uint256"
      },
      {
        "astId": 12617,
        "contract": "contracts/deploy/Vault.sol:Vault",
        "label": "crpFactory",
        "offset": 0,
        "slot": "5",
        "type": "t_contract(ICRPFactory)12606"
      },
      {
        "astId": 12619,
        "contract": "contracts/deploy/Vault.sol:Vault",
        "label": "userVault",
        "offset": 0,
        "slot": "6",
        "type": "t_address"
      },
      {
        "astId": 12690,
        "contract": "contracts/deploy/Vault.sol:Vault",
        "label": "poolsTokens",
        "offset": 0,
        "slot": "7",
        "type": "t_mapping(t_address,t_struct(PoolTokens)12681_storage)"
      },
      {
        "astId": 12694,
        "contract": "contracts/deploy/Vault.sol:Vault",
        "label": "poolsStatus",
        "offset": 0,
        "slot": "8",
        "type": "t_mapping(t_address,t_struct(PoolStatus)12686_storage)"
      },
      {
        "astId": 12698,
        "contract": "contracts/deploy/Vault.sol:Vault",
        "label": "record_number",
        "offset": 0,
        "slot": "9",
        "type": "t_mapping(t_address,t_uint256)"
      },
      {
        "astId": 12704,
        "contract": "contracts/deploy/Vault.sol:Vault",
        "label": "record_List",
        "offset": 0,
        "slot": "10",
        "type": "t_mapping(t_address,t_mapping(t_uint256,t_struct(ClaimRecordInfo)12656_storage))"
      },
      {
        "astId": 12708,
        "contract": "contracts/deploy/Vault.sol:Vault",
        "label": "pool_manager",
        "offset": 0,
        "slot": "11",
        "type": "t_mapping(t_address,t_address)"
      },
      {
        "astId": 12711,
        "contract": "contracts/deploy/Vault.sol:Vault",
        "label": "RATIO_TOTAL",
        "offset": 0,
        "slot": "12",
        "type": "t_uint256"
      },
      {
        "astId": 12714,
        "contract": "contracts/deploy/Vault.sol:Vault",
        "label": "RATIO_MANAGER",
        "offset": 0,
        "slot": "13",
        "type": "t_uint256"
      },
      {
        "astId": 12717,
        "contract": "contracts/deploy/Vault.sol:Vault",
        "label": "RATIO_ISSUE",
        "offset": 0,
        "slot": "14",
        "type": "t_uint256"
      },
      {
        "astId": 12720,
        "contract": "contracts/deploy/Vault.sol:Vault",
        "label": "RATIO_REDEEM",
        "offset": 0,
        "slot": "15",
        "type": "t_uint256"
      },
      {
        "astId": 12723,
        "contract": "contracts/deploy/Vault.sol:Vault",
        "label": "RATIO_PERFERMANCE",
        "offset": 0,
        "slot": "16",
        "type": "t_uint256"
      }
    ],
    "types": {
      "t_address": {
        "encoding": "inplace",
        "label": "address",
        "numberOfBytes": "20"
      },
      "t_array(t_address)dyn_storage": {
        "base": "t_address",
        "encoding": "dynamic_array",
        "label": "address[]",
        "numberOfBytes": "32"
      },
      "t_array(t_struct(ClaimTokenInfo)12650_storage)dyn_storage": {
        "base": "t_struct(ClaimTokenInfo)12650_storage",
        "encoding": "dynamic_array",
        "label": "struct Vault.ClaimTokenInfo[]",
        "numberOfBytes": "32"
      },
      "t_array(t_uint256)dyn_storage": {
        "base": "t_uint256",
        "encoding": "dynamic_array",
        "label": "uint256[]",
        "numberOfBytes": "32"
      },
      "t_bool": {
        "encoding": "inplace",
        "label": "bool",
        "numberOfBytes": "1"
      },
      "t_contract(ICRPFactory)12606": {
        "encoding": "inplace",
        "label": "contract ICRPFactory",
        "numberOfBytes": "20"
      },
      "t_mapping(t_address,t_address)": {
        "encoding": "mapping",
        "key": "t_address",
        "label": "mapping(address => address)",
        "numberOfBytes": "32",
        "value": "t_address"
      },
      "t_mapping(t_address,t_bool)": {
        "encoding": "mapping",
        "key": "t_address",
        "label": "mapping(address => bool)",
        "numberOfBytes": "32",
        "value": "t_bool"
      },
      "t_mapping(t_address,t_mapping(t_uint256,t_struct(ClaimRecordInfo)12656_storage))": {
        "encoding": "mapping",
        "key": "t_address",
        "label": "mapping(address => mapping(uint256 => struct Vault.ClaimRecordInfo))",
        "numberOfBytes": "32",
        "value": "t_mapping(t_uint256,t_struct(ClaimRecordInfo)12656_storage)"
      },
      "t_mapping(t_address,t_struct(PoolStatus)12686_storage)": {
        "encoding": "mapping",
        "key": "t_address",
        "label": "mapping(address => struct Vault.PoolStatus)",
        "numberOfBytes": "32",
        "value": "t_struct(PoolStatus)12686_storage"
      },
      "t_mapping(t_address,t_struct(PoolTokens)12681_storage)": {
        "encoding": "mapping",
        "key": "t_address",
        "label": "mapping(address => struct Vault.PoolTokens)",
        "numberOfBytes": "32",
        "value": "t_struct(PoolTokens)12681_storage"
      },
      "t_mapping(t_address,t_uint256)": {
        "encoding": "mapping",
        "key": "t_address",
        "label": "mapping(address => uint256)",
        "numberOfBytes": "32",
        "value": "t_uint256"
      },
      "t_mapping(t_uint256,t_struct(ClaimRecordInfo)12656_storage)": {
        "encoding": "mapping",
        "key": "t_uint256",
        "label": "mapping(uint256 => struct Vault.ClaimRecordInfo)",
        "numberOfBytes": "32",
        "value": "t_struct(ClaimRecordInfo)12656_storage"
      },
      "t_struct(ClaimRecordInfo)12656_storage": {
        "encoding": "inplace",
        "label": "struct Vault.ClaimRecordInfo",
        "members": [
          {
            "astId": 12652,
            "contract": "contracts/deploy/Vault.sol:Vault",
            "label": "time",
            "offset": 0,
            "slot": "0",
            "type": "t_uint256"
          },
          {
            "astId": 12655,
            "contract": "contracts/deploy/Vault.sol:Vault",
            "label": "tokens",
            "offset": 0,
            "slot": "1",
            "type": "t_array(t_struct(ClaimTokenInfo)12650_storage)dyn_storage"
          }
        ],
        "numberOfBytes": "64"
      },
      "t_struct(ClaimTokenInfo)12650_storage": {
        "encoding": "inplace",
        "label": "struct Vault.ClaimTokenInfo",
        "members": [
          {
            "astId": 12645,
            "contract": "contracts/deploy/Vault.sol:Vault",
            "label": "token",
            "offset": 0,
            "slot": "0",
            "type": "t_address"
          },
          {
            "astId": 12647,
            "contract": "contracts/deploy/Vault.sol:Vault",
            "label": "decimals",
            "offset": 0,
            "slot": "1",
            "type": "t_uint256"
          },
          {
            "astId": 12649,
            "contract": "contracts/deploy/Vault.sol:Vault",
            "label": "amount",
            "offset": 0,
            "slot": "2",
            "type": "t_uint256"
          }
        ],
        "numberOfBytes": "96"
      },
      "t_struct(PoolStatus)12686_storage": {
        "encoding": "inplace",
        "label": "struct Vault.PoolStatus",
        "members": [
          {
            "astId": 12683,
            "contract": "contracts/deploy/Vault.sol:Vault",
            "label": "couldManagerClaim",
            "offset": 0,
            "slot": "0",
            "type": "t_bool"
          },
          {
            "astId": 12685,
            "contract": "contracts/deploy/Vault.sol:Vault",
            "label": "isBlackList",
            "offset": 1,
            "slot": "0",
            "type": "t_bool"
          }
        ],
        "numberOfBytes": "32"
      },
      "t_struct(PoolTokens)12681_storage": {
        "encoding": "inplace",
        "label": "struct Vault.PoolTokens",
        "members": [
          {
            "astId": 12659,
            "contract": "contracts/deploy/Vault.sol:Vault",
            "label": "tokenList",
            "offset": 0,
            "slot": "0",
            "type": "t_array(t_address)dyn_storage"
          },
          {
            "astId": 12662,
            "contract": "contracts/deploy/Vault.sol:Vault",
            "label": "issueTokens",
            "offset": 0,
            "slot": "1",
            "type": "t_array(t_address)dyn_storage"
          },
          {
            "astId": 12665,
            "contract": "contracts/deploy/Vault.sol:Vault",
            "label": "redeemTokens",
            "offset": 0,
            "slot": "2",
            "type": "t_array(t_address)dyn_storage"
          },
          {
            "astId": 12668,
            "contract": "contracts/deploy/Vault.sol:Vault",
            "label": "perfermanceTokens",
            "offset": 0,
            "slot": "3",
            "type": "t_array(t_address)dyn_storage"
          },
          {
            "astId": 12671,
            "contract": "contracts/deploy/Vault.sol:Vault",
            "label": "managerAmount",
            "offset": 0,
            "slot": "4",
            "type": "t_array(t_uint256)dyn_storage"
          },
          {
            "astId": 12674,
            "contract": "contracts/deploy/Vault.sol:Vault",
            "label": "issueAmount",
            "offset": 0,
            "slot": "5",
            "type": "t_array(t_uint256)dyn_storage"
          },
          {
            "astId": 12677,
            "contract": "contracts/deploy/Vault.sol:Vault",
            "label": "redeemAmount",
            "offset": 0,
            "slot": "6",
            "type": "t_array(t_uint256)dyn_storage"
          },
          {
            "astId": 12680,
            "contract": "contracts/deploy/Vault.sol:Vault",
            "label": "perfermanceAmount",
            "offset": 0,
            "slot": "7",
            "type": "t_array(t_uint256)dyn_storage"
          }
        ],
        "numberOfBytes": "256"
      },
      "t_uint256": {
        "encoding": "inplace",
        "label": "uint256",
        "numberOfBytes": "32"
      }
    }
  }
}