{
  "address": "0xB14656D1B326c5965E314eDa8c428De506763857",
  "abi": [
    {
      "inputs": [],
      "stateMutability": "nonpayable",
      "type": "constructor"
    },
    {
      "anonymous": false,
      "inputs": [
        {
          "indexed": true,
          "internalType": "address",
          "name": "newAdmin",
          "type": "address"
        },
        {
          "indexed": true,
          "internalType": "uint256",
          "name": "amount",
          "type": "uint256"
        }
      ],
      "name": "AddAdmin",
      "type": "event"
    },
    {
      "anonymous": false,
      "inputs": [
        {
          "indexed": true,
          "internalType": "address",
          "name": "caller",
          "type": "address"
        },
        {
          "indexed": true,
          "internalType": "uint256",
          "name": "amount",
          "type": "uint256"
        }
      ],
      "name": "IssueRatio",
      "type": "event"
    },
    {
      "anonymous": false,
      "inputs": [
        {
          "indexed": true,
          "internalType": "address",
          "name": "manager",
          "type": "address"
        },
        {
          "indexed": true,
          "internalType": "address",
          "name": "caller",
          "type": "address"
        }
      ],
      "name": "LOGUserVaultAdr",
      "type": "event"
    },
    {
      "anonymous": false,
      "inputs": [
        {
          "indexed": true,
          "internalType": "address",
          "name": "caller",
          "type": "address"
        },
        {
          "indexed": true,
          "internalType": "uint256",
          "name": "amount",
          "type": "uint256"
        }
      ],
      "name": "ManagerRatio",
      "type": "event"
    },
    {
      "anonymous": false,
      "inputs": [
        {
          "indexed": true,
          "internalType": "address",
          "name": "previousOwner",
          "type": "address"
        },
        {
          "indexed": true,
          "internalType": "address",
          "name": "newOwner",
          "type": "address"
        }
      ],
      "name": "OwnershipTransferred",
      "type": "event"
    },
    {
      "anonymous": false,
      "inputs": [
        {
          "indexed": true,
          "internalType": "address",
          "name": "caller",
          "type": "address"
        },
        {
          "indexed": true,
          "internalType": "uint256",
          "name": "amount",
          "type": "uint256"
        }
      ],
      "name": "RedeemRatio",
      "type": "event"
    },
    {
      "anonymous": false,
      "inputs": [
        {
          "indexed": true,
          "internalType": "address",
          "name": "oldAdmin",
          "type": "address"
        },
        {
          "indexed": true,
          "internalType": "uint256",
          "name": "amount",
          "type": "uint256"
        }
      ],
      "name": "RemoveAdmin",
      "type": "event"
    },
    {
      "inputs": [
        {
          "internalType": "address",
          "name": "token",
          "type": "address"
        },
        {
          "internalType": "address",
          "name": "user",
          "type": "address"
        },
        {
          "internalType": "uint256",
          "name": "amount",
          "type": "uint256"
        }
      ],
      "name": "adminClaimToken",
      "outputs": [],
      "stateMutability": "nonpayable",
      "type": "function"
    },
    {
      "inputs": [
        {
          "internalType": "address",
          "name": "",
          "type": "address"
        }
      ],
      "name": "adminList",
      "outputs": [
        {
          "internalType": "bool",
          "name": "",
          "type": "bool"
        }
      ],
      "stateMutability": "view",
      "type": "function"
    },
    {
      "inputs": [],
      "name": "allOwnerPercentage",
      "outputs": [
        {
          "internalType": "uint256",
          "name": "",
          "type": "uint256"
        }
      ],
      "stateMutability": "view",
      "type": "function"
    },
    {
      "inputs": [
        {
          "internalType": "address",
          "name": "",
          "type": "address"
        }
      ],
      "name": "black_list",
      "outputs": [
        {
          "internalType": "bool",
          "name": "",
          "type": "bool"
        }
      ],
      "stateMutability": "view",
      "type": "function"
    },
    {
      "inputs": [
        {
          "internalType": "address[]",
          "name": "poolTokens",
          "type": "address[]"
        },
        {
          "internalType": "uint256[]",
          "name": "tokensAmount",
          "type": "uint256[]"
        },
        {
          "internalType": "uint256[]",
          "name": "tokensAmountIR",
          "type": "uint256[]"
        },
        {
          "internalType": "bool",
          "name": "isPerfermance",
          "type": "bool"
        }
      ],
      "name": "depositIssueRedeemPToken",
      "outputs": [],
      "stateMutability": "nonpayable",
      "type": "function"
    },
    {
      "inputs": [
        {
          "internalType": "address[]",
          "name": "poolTokens",
          "type": "address[]"
        },
        {
          "internalType": "uint256[]",
          "name": "tokensAmount",
          "type": "uint256[]"
        }
      ],
      "name": "depositManagerToken",
      "outputs": [],
      "stateMutability": "nonpayable",
      "type": "function"
    },
    {
      "inputs": [],
      "name": "getBNB",
      "outputs": [],
      "stateMutability": "payable",
      "type": "function"
    },
    {
      "inputs": [],
      "name": "getController",
      "outputs": [
        {
          "internalType": "address",
          "name": "",
          "type": "address"
        }
      ],
      "stateMutability": "view",
      "type": "function"
    },
    {
      "inputs": [
        {
          "internalType": "address",
          "name": "pool",
          "type": "address"
        }
      ],
      "name": "getManagerClaimBool",
      "outputs": [
        {
          "internalType": "bool",
          "name": "bools",
          "type": "bool"
        }
      ],
      "stateMutability": "view",
      "type": "function"
    },
    {
      "inputs": [],
      "name": "getOwnerPercentage",
      "outputs": [
        {
          "internalType": "uint256[]",
          "name": "",
          "type": "uint256[]"
        }
      ],
      "stateMutability": "view",
      "type": "function"
    },
    {
      "inputs": [],
      "name": "getOwners",
      "outputs": [
        {
          "internalType": "address[]",
          "name": "",
          "type": "address[]"
        }
      ],
      "stateMutability": "view",
      "type": "function"
    },
    {
      "inputs": [
        {
          "internalType": "address[]",
          "name": "_owners",
          "type": "address[]"
        },
        {
          "internalType": "uint256[]",
          "name": "_ownerPercentage",
          "type": "uint256[]"
        }
      ],
      "name": "initHandle",
      "outputs": [],
      "stateMutability": "nonpayable",
      "type": "function"
    },
    {
      "inputs": [
        {
          "internalType": "address",
          "name": "pool",
          "type": "address"
        }
      ],
      "name": "isClosePool",
      "outputs": [
        {
          "internalType": "bool",
          "name": "",
          "type": "bool"
        }
      ],
      "stateMutability": "view",
      "type": "function"
    },
    {
      "inputs": [],
      "name": "issue_ratio",
      "outputs": [
        {
          "internalType": "uint256",
          "name": "",
          "type": "uint256"
        }
      ],
      "stateMutability": "view",
      "type": "function"
    },
    {
      "inputs": [
        {
          "internalType": "address",
          "name": "pool",
          "type": "address"
        }
      ],
      "name": "managerClaim",
      "outputs": [],
      "stateMutability": "nonpayable",
      "type": "function"
    },
    {
      "inputs": [
        {
          "internalType": "address",
          "name": "pool",
          "type": "address"
        }
      ],
      "name": "managerClaimList",
      "outputs": [
        {
          "components": [
            {
              "internalType": "address",
              "name": "token",
              "type": "address"
            },
            {
              "internalType": "uint256",
              "name": "decimals",
              "type": "uint256"
            },
            {
              "internalType": "uint256",
              "name": "amount",
              "type": "uint256"
            }
          ],
          "internalType": "struct Vault.claimTokenInfo[]",
          "name": "claimTokenInfos",
          "type": "tuple[]"
        }
      ],
      "stateMutability": "view",
      "type": "function"
    },
    {
      "inputs": [
        {
          "internalType": "address",
          "name": "pool",
          "type": "address"
        }
      ],
      "name": "managerClaimRecordList",
      "outputs": [
        {
          "components": [
            {
              "internalType": "uint256",
              "name": "time",
              "type": "uint256"
            },
            {
              "components": [
                {
                  "internalType": "address",
                  "name": "token",
                  "type": "address"
                },
                {
                  "internalType": "uint256",
                  "name": "decimals",
                  "type": "uint256"
                },
                {
                  "internalType": "uint256",
                  "name": "amount",
                  "type": "uint256"
                }
              ],
              "internalType": "struct Vault.claimTokenInfo[]",
              "name": "tokens",
              "type": "tuple[]"
            }
          ],
          "internalType": "struct Vault.claimRecordInfo[]",
          "name": "claimRecordInfos",
          "type": "tuple[]"
        }
      ],
      "stateMutability": "view",
      "type": "function"
    },
    {
      "inputs": [],
      "name": "manager_ratio",
      "outputs": [
        {
          "internalType": "uint256",
          "name": "",
          "type": "uint256"
        }
      ],
      "stateMutability": "view",
      "type": "function"
    },
    {
      "inputs": [
        {
          "internalType": "uint256",
          "name": "",
          "type": "uint256"
        }
      ],
      "name": "ownerPercentage",
      "outputs": [
        {
          "internalType": "uint256",
          "name": "",
          "type": "uint256"
        }
      ],
      "stateMutability": "view",
      "type": "function"
    },
    {
      "inputs": [
        {
          "internalType": "uint256",
          "name": "",
          "type": "uint256"
        }
      ],
      "name": "owners",
      "outputs": [
        {
          "internalType": "address",
          "name": "",
          "type": "address"
        }
      ],
      "stateMutability": "view",
      "type": "function"
    },
    {
      "inputs": [],
      "name": "perfermance_ratio",
      "outputs": [
        {
          "internalType": "uint256",
          "name": "",
          "type": "uint256"
        }
      ],
      "stateMutability": "view",
      "type": "function"
    },
    {
      "inputs": [
        {
          "internalType": "address",
          "name": "pool",
          "type": "address"
        }
      ],
      "name": "poolIssueTokenAmount",
      "outputs": [
        {
          "internalType": "uint256[]",
          "name": "tokenAmount",
          "type": "uint256[]"
        }
      ],
      "stateMutability": "view",
      "type": "function"
    },
    {
      "inputs": [
        {
          "internalType": "address",
          "name": "pool",
          "type": "address"
        }
      ],
      "name": "poolIssueTokenList",
      "outputs": [
        {
          "internalType": "address[]",
          "name": "tokens",
          "type": "address[]"
        }
      ],
      "stateMutability": "view",
      "type": "function"
    },
    {
      "inputs": [
        {
          "internalType": "address",
          "name": "pool",
          "type": "address"
        }
      ],
      "name": "poolManagerTokenAmount",
      "outputs": [
        {
          "internalType": "uint256[]",
          "name": "tokenAmount",
          "type": "uint256[]"
        }
      ],
      "stateMutability": "view",
      "type": "function"
    },
    {
      "inputs": [
        {
          "internalType": "address",
          "name": "pool",
          "type": "address"
        }
      ],
      "name": "poolManagerTokenList",
      "outputs": [
        {
          "internalType": "address[]",
          "name": "tokens",
          "type": "address[]"
        }
      ],
      "stateMutability": "view",
      "type": "function"
    },
    {
      "inputs": [
        {
          "internalType": "address",
          "name": "pool",
          "type": "address"
        }
      ],
      "name": "poolPerfermanceTokenAmount",
      "outputs": [
        {
          "internalType": "uint256[]",
          "name": "tokenAmount",
          "type": "uint256[]"
        }
      ],
      "stateMutability": "view",
      "type": "function"
    },
    {
      "inputs": [
        {
          "internalType": "address",
          "name": "pool",
          "type": "address"
        }
      ],
      "name": "poolPerfermanceTokenList",
      "outputs": [
        {
          "internalType": "address[]",
          "name": "tokens",
          "type": "address[]"
        }
      ],
      "stateMutability": "view",
      "type": "function"
    },
    {
      "inputs": [
        {
          "internalType": "address",
          "name": "pool",
          "type": "address"
        }
      ],
      "name": "poolRedeemTokenAmount",
      "outputs": [
        {
          "internalType": "uint256[]",
          "name": "tokenAmount",
          "type": "uint256[]"
        }
      ],
      "stateMutability": "view",
      "type": "function"
    },
    {
      "inputs": [
        {
          "internalType": "address",
          "name": "pool",
          "type": "address"
        }
      ],
      "name": "poolRedeemTokenList",
      "outputs": [
        {
          "internalType": "address[]",
          "name": "tokens",
          "type": "address[]"
        }
      ],
      "stateMutability": "view",
      "type": "function"
    },
    {
      "inputs": [
        {
          "internalType": "address",
          "name": "",
          "type": "address"
        },
        {
          "internalType": "uint256",
          "name": "",
          "type": "uint256"
        }
      ],
      "name": "pool_issue_tokenAmount",
      "outputs": [
        {
          "internalType": "uint256",
          "name": "",
          "type": "uint256"
        }
      ],
      "stateMutability": "view",
      "type": "function"
    },
    {
      "inputs": [
        {
          "internalType": "address",
          "name": "",
          "type": "address"
        },
        {
          "internalType": "uint256",
          "name": "",
          "type": "uint256"
        }
      ],
      "name": "pool_issue_tokenList",
      "outputs": [
        {
          "internalType": "address",
          "name": "",
          "type": "address"
        }
      ],
      "stateMutability": "view",
      "type": "function"
    },
    {
      "inputs": [
        {
          "internalType": "address",
          "name": "",
          "type": "address"
        }
      ],
      "name": "pool_manager",
      "outputs": [
        {
          "internalType": "address",
          "name": "",
          "type": "address"
        }
      ],
      "stateMutability": "view",
      "type": "function"
    },
    {
      "inputs": [
        {
          "internalType": "address",
          "name": "",
          "type": "address"
        }
      ],
      "name": "pool_manager_isClaim",
      "outputs": [
        {
          "internalType": "bool",
          "name": "",
          "type": "bool"
        }
      ],
      "stateMutability": "view",
      "type": "function"
    },
    {
      "inputs": [
        {
          "internalType": "address",
          "name": "",
          "type": "address"
        },
        {
          "internalType": "uint256",
          "name": "",
          "type": "uint256"
        }
      ],
      "name": "pool_manager_tokenAmount",
      "outputs": [
        {
          "internalType": "uint256",
          "name": "",
          "type": "uint256"
        }
      ],
      "stateMutability": "view",
      "type": "function"
    },
    {
      "inputs": [
        {
          "internalType": "address",
          "name": "",
          "type": "address"
        },
        {
          "internalType": "uint256",
          "name": "",
          "type": "uint256"
        }
      ],
      "name": "pool_manager_tokenList",
      "outputs": [
        {
          "internalType": "address",
          "name": "",
          "type": "address"
        }
      ],
      "stateMutability": "view",
      "type": "function"
    },
    {
      "inputs": [
        {
          "internalType": "address",
          "name": "",
          "type": "address"
        },
        {
          "internalType": "uint256",
          "name": "",
          "type": "uint256"
        }
      ],
      "name": "pool_perfermance_tokenAmount",
      "outputs": [
        {
          "internalType": "uint256",
          "name": "",
          "type": "uint256"
        }
      ],
      "stateMutability": "view",
      "type": "function"
    },
    {
      "inputs": [
        {
          "internalType": "address",
          "name": "",
          "type": "address"
        },
        {
          "internalType": "uint256",
          "name": "",
          "type": "uint256"
        }
      ],
      "name": "pool_perfermance_tokenList",
      "outputs": [
        {
          "internalType": "address",
          "name": "",
          "type": "address"
        }
      ],
      "stateMutability": "view",
      "type": "function"
    },
    {
      "inputs": [
        {
          "internalType": "address",
          "name": "",
          "type": "address"
        },
        {
          "internalType": "uint256",
          "name": "",
          "type": "uint256"
        }
      ],
      "name": "pool_redeem_tokenAmount",
      "outputs": [
        {
          "internalType": "uint256",
          "name": "",
          "type": "uint256"
        }
      ],
      "stateMutability": "view",
      "type": "function"
    },
    {
      "inputs": [
        {
          "internalType": "address",
          "name": "",
          "type": "address"
        },
        {
          "internalType": "uint256",
          "name": "",
          "type": "uint256"
        }
      ],
      "name": "pool_redeem_tokenList",
      "outputs": [
        {
          "internalType": "address",
          "name": "",
          "type": "address"
        }
      ],
      "stateMutability": "view",
      "type": "function"
    },
    {
      "inputs": [
        {
          "internalType": "address",
          "name": "",
          "type": "address"
        },
        {
          "internalType": "uint256",
          "name": "",
          "type": "uint256"
        }
      ],
      "name": "record_List",
      "outputs": [
        {
          "internalType": "uint256",
          "name": "time",
          "type": "uint256"
        }
      ],
      "stateMutability": "view",
      "type": "function"
    },
    {
      "inputs": [
        {
          "internalType": "address",
          "name": "",
          "type": "address"
        }
      ],
      "name": "record_number",
      "outputs": [
        {
          "internalType": "uint256",
          "name": "",
          "type": "uint256"
        }
      ],
      "stateMutability": "view",
      "type": "function"
    },
    {
      "inputs": [],
      "name": "redeem_ratio",
      "outputs": [
        {
          "internalType": "uint256",
          "name": "",
          "type": "uint256"
        }
      ],
      "stateMutability": "view",
      "type": "function"
    },
    {
      "inputs": [
        {
          "internalType": "address",
          "name": "owner",
          "type": "address"
        }
      ],
      "name": "removeOwner",
      "outputs": [],
      "stateMutability": "nonpayable",
      "type": "function"
    },
    {
      "inputs": [
        {
          "internalType": "address",
          "name": "newOwner",
          "type": "address"
        },
        {
          "internalType": "uint256",
          "name": "_ownerPercentage",
          "type": "uint256"
        }
      ],
      "name": "setAddAdminList",
      "outputs": [],
      "stateMutability": "nonpayable",
      "type": "function"
    },
    {
      "inputs": [
        {
          "internalType": "address",
          "name": "pool",
          "type": "address"
        },
        {
          "internalType": "bool",
          "name": "bools",
          "type": "bool"
        }
      ],
      "name": "setBlackList",
      "outputs": [],
      "stateMutability": "nonpayable",
      "type": "function"
    },
    {
      "inputs": [
        {
          "internalType": "address",
          "name": "newOwner",
          "type": "address"
        }
      ],
      "name": "setController",
      "outputs": [],
      "stateMutability": "nonpayable",
      "type": "function"
    },
    {
      "inputs": [
        {
          "internalType": "address",
          "name": "adr",
          "type": "address"
        }
      ],
      "name": "setCrpFactory",
      "outputs": [],
      "stateMutability": "nonpayable",
      "type": "function"
    },
    {
      "inputs": [
        {
          "internalType": "uint256",
          "name": "amount",
          "type": "uint256"
        }
      ],
      "name": "setIssueRatio",
      "outputs": [],
      "stateMutability": "nonpayable",
      "type": "function"
    },
    {
      "inputs": [
        {
          "internalType": "uint256",
          "name": "amount",
          "type": "uint256"
        }
      ],
      "name": "setManagerRatio",
      "outputs": [],
      "stateMutability": "nonpayable",
      "type": "function"
    },
    {
      "inputs": [
        {
          "internalType": "uint256",
          "name": "amount",
          "type": "uint256"
        }
      ],
      "name": "setPerfermanceRatio",
      "outputs": [],
      "stateMutability": "nonpayable",
      "type": "function"
    },
    {
      "inputs": [
        {
          "internalType": "uint256",
          "name": "amount",
          "type": "uint256"
        }
      ],
      "name": "setRedeemRatio",
      "outputs": [],
      "stateMutability": "nonpayable",
      "type": "function"
    },
    {
      "inputs": [
        {
          "internalType": "address",
          "name": "adr",
          "type": "address"
        }
      ],
      "name": "setUserVaultAdr",
      "outputs": [],
      "stateMutability": "nonpayable",
      "type": "function"
    },
    {
      "inputs": [],
      "name": "total_ratio",
      "outputs": [
        {
          "internalType": "uint256",
          "name": "",
          "type": "uint256"
        }
      ],
      "stateMutability": "view",
      "type": "function"
    },
    {
      "inputs": [],
      "name": "userVault",
      "outputs": [
        {
          "internalType": "address",
          "name": "",
          "type": "address"
        }
      ],
      "stateMutability": "view",
      "type": "function"
    },
    {
      "stateMutability": "payable",
      "type": "receive"
    }
  ],
  "transactionHash": "0x227802be26858dc2974cd6a7ddc7b6c6f96fd7ab2632e88d80c95fdc99cadcc6",
  "args": [],
  "numDeployments": 1,
  "solcInputHash": "848d7f24244776f3bd5955430eb8d847",
  "bytecode": "0x60806040526103e860145560c860155560c860165560c860175560c860185534801561002a57600080fd5b50600080546001600160a01b0319163317905561505a8061004c6000396000f3fe6080604052600436106102795760003560e01c806378bb32851161014b57806378bb3285146105fc57806378c32a4b1461061157806389a612e5146106315780638da901ba1461065157806392a0bb631461067157806392eefe9b14610691578063992f6ba5146106b15780639daafec7146106d1578063a0e67e2b146106e6578063a5168ee2146106fb578063a97f9f331461071b578063a9884df41461073b578063bc15c8401461075b578063bd0011c21461077b578063bdac42981461079b578063bef44bff146107bb578063c0fcb166146107d0578063c1e57622146107f0578063c3e4d04f14610810578063c5318d0f14610830578063d29986c114610850578063d832839014610865578063de7f302214610885578063ebef44d9146108a5578063ed76f949146108c5578063edb12adf146108e5578063edbfb5f51461090557610280565b8063025e7c27146102855780630922f29d146102bb5780630b6b3b2a146102dd5780630bac7b81146102fd5780631374aaf01461031d5780631483d99d1461033f578063173825d91461035f5780631a46506e1461037f5780631cc9a579146103ac5780631eae039c146103d957806327304dfd146103f957806328a3ed45146104265780632b5230a91461043b5780632c0bdbcf1461045b5780633018205f14610488578063309a042c1461049d578063334a5d96146104b25780633ef14479146104d257806341c65e83146104f2578063483e1948146105125780634b414ab5146105325780634bbe2fca146105525780634d4ae12d146105725780634dbd8dab1461059f57806368092bd9146105b457806371bb41a9146105d457806378a619de146105f457610280565b3661028057005b600080fd5b34801561029157600080fd5b506102a56102a0366004614a80565b610925565b6040516102b29190614b70565b60405180910390f35b3480156102c757600080fd5b506102db6102d6366004614688565b61094c565b005b3480156102e957600080fd5b506102db6102f8366004614a80565b6109f2565b34801561030957600080fd5b506102db610318366004614763565b610a21565b34801561032957600080fd5b50610332610ce5565b6040516102b29190614fb3565b34801561034b57600080fd5b506102db61035a3660046147cb565b610ceb565b34801561036b57600080fd5b506102db61037a366004614688565b611065565b34801561038b57600080fd5b5061039f61039a366004614688565b611247565b6040516102b29190614c9c565b3480156103b857600080fd5b506103cc6103c7366004614688565b6112b3565b6040516102b29190614c18565b3480156103e557600080fd5b506102db6103f43660046146c0565b61141f565b34801561040557600080fd5b50610419610414366004614688565b6114cf565b6040516102b29190614caf565b34801561043257600080fd5b506103326114e4565b34801561044757600080fd5b5061039f610456366004614688565b6114ea565b34801561046757600080fd5b5061047b610476366004614688565b611554565b6040516102b29190614c05565b34801561049457600080fd5b506102a56115c9565b3480156104a957600080fd5b5061039f6115d8565b3480156104be57600080fd5b506103326104cd366004614738565b611630565b3480156104de57600080fd5b506102db6104ed366004614900565b61165e565b3480156104fe57600080fd5b5061047b61050d366004614688565b611750565b34801561051e57600080fd5b506102db61052d366004614a80565b6117c4565b34801561053e57600080fd5b506102a561054d366004614738565b611845565b34801561055e57600080fd5b5061033261056d366004614738565b61187a565b34801561057e57600080fd5b5061059261058d366004614688565b611897565b6040516102b29190614c89565b3480156105ab57600080fd5b50610332611dd6565b3480156105c057600080fd5b506102db6105cf366004614700565b611ddc565b3480156105e057600080fd5b506102db6105ef366004614a80565b611e31565b6102db611eb2565b34801561060857600080fd5b50610332611f0b565b34801561061d57600080fd5b506102a561062c366004614738565b611f11565b34801561063d57600080fd5b506102db61064c366004614a80565b611f2a565b34801561065d57600080fd5b5061041961066c366004614688565b611fab565b34801561067d57600080fd5b5061041961068c366004614688565b612032565b34801561069d57600080fd5b506102db6106ac366004614688565b612047565b3480156106bd57600080fd5b506102db6106cc366004614738565b6120f2565b3480156106dd57600080fd5b506102a561221b565b3480156106f257600080fd5b5061047b61222a565b34801561070757600080fd5b5061039f610716366004614688565b61228b565b34801561072757600080fd5b5061039f610736366004614688565b6122f5565b34801561074757600080fd5b50610332610756366004614738565b61235f565b34801561076757600080fd5b506102a5610776366004614738565b612378565b34801561078757600080fd5b50610419610796366004614688565b612391565b3480156107a757600080fd5b506103326107b6366004614738565b6123a6565b3480156107c757600080fd5b506103326123bf565b3480156107dc57600080fd5b506104196107eb366004614688565b6123c5565b3480156107fc57600080fd5b506102db61080b366004614688565b6123e3565b34801561081c57600080fd5b506102a561082b366004614688565b61242f565b34801561083c57600080fd5b5061033261084b366004614a80565b61244a565b34801561085c57600080fd5b50610332612468565b34801561087157600080fd5b506102a5610880366004614738565b61246e565b34801561089157600080fd5b5061047b6108a0366004614688565b612487565b3480156108b157600080fd5b5061047b6108c0366004614688565b6124fb565b3480156108d157600080fd5b506103326108e0366004614738565b61256f565b3480156108f157600080fd5b506102db610900366004614688565b612588565b34801561091157600080fd5b50610332610920366004614688565b612c39565b6002818154811061093257fe5b6000918252602090912001546001600160a01b0316905081565b6000546001600160a01b0316331461097f5760405162461bcd60e51b815260040161097690614d0d565b60405180910390fd5b6001600160a01b0381166109a55760405162461bcd60e51b815260040161097690614dd3565b601380546001600160a01b0319166001600160a01b0383169081179091556040513391907fda49b6b843d6c52e6a8fa0f8645f8a33373438a8bf8500d292bf7a96a0a8041790600090a350565b6000546001600160a01b03163314610a1c5760405162461bcd60e51b815260040161097690614d0d565b601855565b600554604051636e0cf42160e11b81526001600160a01b039091169063dc19e84290610a51903390600401614b70565b60206040518083038186803b158015610a6957600080fd5b505afa158015610a7d573d6000803e3d6000fd5b505050506040513d601f19601f82011682018060405250810190610aa19190614a45565b610abd5760405162461bcd60e51b815260040161097690614ea7565b828114610adc5760405162461bcd60e51b815260040161097690614ed0565b336000908152600660205260409020546001600160a01b0316610b9b576000336001600160a01b0316633018205f6040518163ffffffff1660e01b815260040160206040518083038186803b158015610b3457600080fd5b505afa158015610b48573d6000803e3d6000fd5b505050506040513d601f19601f82011682018060405250810190610b6c91906146a4565b33600090815260066020526040902080546001600160a01b0319166001600160a01b0392909216919091179055505b33600090815260076020908152604091829020805483518184028101840190945280845260609392830182828015610bfc57602002820191906000526020600020905b81546001600160a01b03168152600190910190602001808311610bde575b50503360009081526008602090815260409182902080548351818402810184019094528084529697506060969295509350909150830182828015610c5f57602002820191906000526020600020905b815481526020019060010190808311610c4b575b50505050509050606080610c7888888888338989612c4b565b3360009081526007602090815260409091208351939550919350610c9f92908501906143e2565b503360009081526008602090815260409091208251610cc092840190614447565b5050336000908152600f60205260409020805460ff1916600117905550505050505050565b60145481565b600554604051636e0cf42160e11b81526001600160a01b039091169063dc19e84290610d1b903390600401614b70565b60206040518083038186803b158015610d3357600080fd5b505afa158015610d47573d6000803e3d6000fd5b505050506040513d601f19601f82011682018060405250810190610d6b9190614a45565b610d875760405162461bcd60e51b815260040161097690614ea7565b858414610da65760405162461bcd60e51b815260040161097690614ed0565b336000908152600660205260409020546001600160a01b0316610e65576000336001600160a01b0316633018205f6040518163ffffffff1660e01b815260040160206040518083038186803b158015610dfe57600080fd5b505afa158015610e12573d6000803e3d6000fd5b505050506040513d601f19601f82011682018060405250810190610e3691906146a4565b33600090815260066020526040902080546001600160a01b0319166001600160a01b0392909216919091179055505b33600090815260096020908152604091829020805483518184028101840190945280845260609392830182828015610ec657602002820191906000526020600020905b81546001600160a01b03168152600190910190602001808311610ea8575b5050336000908152600a602090815260409182902080548351818402810184019094528084529697506060969295509350909150830182828015610f2957602002820191906000526020600020905b815481526020019060010190808311610f15575b5050505050905082610f9757606080610f478b8b8b8b338989612c4b565b3360009081526009602090815260409091208351939550919350610f6e92908501906143e2565b50336000908152600a602090815260409091208251610f8f92840190614447565b505050610cc0565b606080606080610fac8d8d8d8d8d8d33613019565b336000908152600b6020908152604090912085519599509397509195509350610fd892908701906143e2565b50336000908152600d602090815260409091208351610ff9928501906143e2565b50336000908152600c60209081526040909120845161101a92860190614447565b50336000908152600e60209081526040909120825161103b92840190614447565b50505050505050336000908152600f60205260409020805460ff1916600117905550505050505050565b6000546001600160a01b0316331461108f5760405162461bcd60e51b815260040161097690614d0d565b6001600160a01b0381166000908152600160205260408120805460ff19169055805b6002548110156111b357826001600160a01b0316600282815481106110d257fe5b6000918252602090912001546001600160a01b031614156111ab576002805460001981019081106110ff57fe5b600091825260209091200154600280546001600160a01b03909216918390811061112557fe5b9060005260206000200160006101000a8154816001600160a01b0302191690836001600160a01b031602179055506003818154811061116057fe5b9060005260206000200154915060036001600380549050038154811061118257fe5b90600052602060002001546003828154811061119a57fe5b6000918252602090912001556111b3565b6001016110b1565b5060028054806111bf57fe5b600082815260209020810160001990810180546001600160a01b031916905501905560038054806111ec57fe5b600082815260208120820160001990810182905590910190915560048054839003905560405182916001600160a01b038516917f7b0884b4b6bb4e0c1385ad42168fa556c14d4d799c1bf22f081aff3efff6ea0c9190a35050565b6001600160a01b0381166000908152600e60209081526040918290208054835181840281018401909452808452606093928301828280156112a757602002820191906000526020600020905b815481526020019060010190808311611293575b50505050509050919050565b6001600160a01b03811660009081526011602052604090205460609081816001600160401b03811180156112e657600080fd5b5060405190808252806020026020018201604052801561132057816020015b61130d61448e565b8152602001906001900390816113055790505b50905060015b826001018110156114175761133961448e565b6001600160a01b0386166000908152601260209081526040808320858452825280832081518083018352815481526001820180548451818702810187019095528085529195929486810194939192919084015b828210156113e1576000848152602090819020604080516060810182526003860290920180546001600160a01b031683526001808201548486015260029091015491830191909152908352909201910161138c565b505050915250909150819050836113f98460016136e6565b8151811061140357fe5b602090810291909101015250600101611326565b509392505050565b6000546001600160a01b031633146114495760405162461bcd60e51b815260040161097690614d0d565b60405163a9059cbb60e01b81526001600160a01b0384169063a9059cbb906114779085908590600401614bec565b602060405180830381600087803b15801561149157600080fd5b505af11580156114a5573d6000803e3d6000fd5b505050506040513d601f19601f820116820180604052508101906114c99190614a45565b50505050565b60016020526000908152604090205460ff1681565b60155481565b6001600160a01b0381166000908152600c60209081526040918290208054835181840281018401909452808452606093928301828280156112a757602002820191906000526020600020908154815260200190600101908083116112935750505050509050919050565b6001600160a01b0381166000908152600b60209081526040918290208054835181840281018401909452808452606093928301828280156112a757602002820191906000526020600020905b81546001600160a01b031681526001909101906020018083116115a05750505050509050919050565b6000546001600160a01b031690565b6060600380548060200260200160405190810160405280929190818152602001828054801561162657602002820191906000526020600020905b815481526020019060010190808311611612575b5050505050905090565b6008602052816000526040600020818154811061164957fe5b90600052602060002001600091509150505481565b6000546001600160a01b031633146116885760405162461bcd60e51b815260040161097690614d0d565b80518251146116a95760405162461bcd60e51b815260040161097690614e87565b60005b8251811015611723578181815181106116c157fe5b602002602001015160046000828254019250508190555060018060008584815181106116e957fe5b6020908102919091018101516001600160a01b03168252810191909152604001600020805460ff19169115159190911790556001016116ac565b5081516117379060029060208501906143e2565b50805161174b906003906020840190614447565b505050565b6001600160a01b0381166000908152600d60209081526040918290208054835181840281018401909452808452606093928301828280156112a7576020028201919060005260206000209081546001600160a01b031681526001909101906020018083116115a05750505050509050919050565b6000546001600160a01b031633146117ee5760405162461bcd60e51b815260040161097690614d0d565b6014548111156118105760405162461bcd60e51b815260040161097690614d6e565b6017819055604051819033907f401a2e9de953ac26f52ac90650c1c1c1d95f78ef7661efad2ab1f2c59b9fd5e490600090a350565b600b602052816000526040600020818154811061185e57fe5b6000918252602090912001546001600160a01b03169150829050565b601260209081526000928352604080842090915290825290205481565b6001600160a01b038116600090815260076020526040902054606090819061194c576001600160a01b03831660009081526009602052604090205461192e576001600160a01b0383166000908152600b6020526040902054611910576001600160a01b0383166000908152600d60205260409020611929565b6001600160a01b0383166000908152600b602052604090205b611947565b6001600160a01b03831660009081526009602052604090205b611965565b6001600160a01b03831660009081526007602052604090205b8054806020026020016040519081016040528092919081815260200182805480156119b957602002820191906000526020600020905b81546001600160a01b0316815260019091019060200180831161199b575b5050506001600160a01b03861660009081526008602090815260409182902080548351818402810184019094528084529596506060959294509250830182828015611a2357602002820191906000526020600020905b815481526020019060010190808311611a0f575b5050506001600160a01b0387166000908152600a602090815260409182902080548351818402810184019094528084529596506060959294509250830182828015611a8d57602002820191906000526020600020905b815481526020019060010190808311611a79575b5050506001600160a01b0388166000908152600c602090815260409182902080548351818402810184019094528084529596506060959294509250830182828015611af757602002820191906000526020600020905b815481526020019060010190808311611ae3575b5050506001600160a01b0389166000908152600e602090815260409182902080548351818402810184019094528084529596506060959294509250830182828015611b6157602002820191906000526020600020905b815481526020019060010190808311611b4d575b50505050509050606085516001600160401b0381118015611b8157600080fd5b50604051908082528060200260200182016040528015611bbb57816020015b611ba86144a8565b815260200190600190039081611ba05790505b50905060005b8651811015611dca57611bd26144a8565b878281518110611bde57fe5b60209081029190910101516001600160a01b03168152865160009015611c05576001611c08565b60005b15611c53576000611c43601454611c3d6015548c8881518110611c2757fe5b602002602001015161373190919063ffffffff16565b9061376b565b9050611c4f82826137aa565b9150505b865115611c61576001611c64565b60005b15611c93576000611c83601454611c3d6016548b8881518110611c2757fe5b9050611c8f82826137aa565b9150505b855115611ca1576001611ca4565b60005b15611cd3576000611cc3601454611c3d6017548a8881518110611c2757fe5b9050611ccf82826137aa565b9150505b845115611ce1576001611ce4565b60005b15611d13576000611d03601454611c3d601854898881518110611c2757fe5b9050611d0f82826137aa565b9150505b604082018190528851899084908110611d2857fe5b60200260200101516001600160a01b031663313ce5676040518163ffffffff1660e01b815260040160206040518083038186803b158015611d6857600080fd5b505afa158015611d7c573d6000803e3d6000fd5b505050506040513d601f19601f82011682018060405250810190611da09190614a98565b602083015283518290859085908110611db557fe5b60209081029190910101525050600101611bc1565b50979650505050505050565b60185481565b6000546001600160a01b03163314611e065760405162461bcd60e51b815260040161097690614d0d565b6001600160a01b03919091166000908152601060205260409020805460ff1916911515919091179055565b6000546001600160a01b03163314611e5b5760405162461bcd60e51b815260040161097690614d0d565b601454811115611e7d5760405162461bcd60e51b815260040161097690614d6e565b6016819055604051819033907f448dcad41b13f10b7abd9393b3e1bb9887110740a9f0f9c7d2ed0b762652971f90600090a350565b6000546001600160a01b03163314611edc5760405162461bcd60e51b815260040161097690614d0d565b60405133904780156108fc02916000818181858888f19350505050158015611f08573d6000803e3d6000fd5b50565b60165481565b6007602052816000526040600020818154811061185e57fe5b6000546001600160a01b03163314611f545760405162461bcd60e51b815260040161097690614d0d565b601454811115611f765760405162461bcd60e51b815260040161097690614d6e565b6015819055604051819033907f7d624dbda9646ad98f8b1fbd8de61497fb7a4e93b94bc13a6548b81c9b0ce91a90600090a350565b60006001826001600160a01b03166373a9855c6040518163ffffffff1660e01b815260040160206040518083038186803b158015611fe857600080fd5b505afa158015611ffc573d6000803e3d6000fd5b505050506040513d601f19601f820116820180604052508101906120209190614a61565b600181111561202b57fe5b1492915050565b600f6020526000908152604090205460ff1681565b6000546001600160a01b031633146120715760405162461bcd60e51b815260040161097690614d0d565b6001600160a01b0381166120975760405162461bcd60e51b815260040161097690614e5d565b600080546040516001600160a01b03808516939216917f8be0079c531659141344cd1fd0a4f28419497f9722a3daafe3b4186f6b6457e091a3600080546001600160a01b0319166001600160a01b0392909216919091179055565b6000546001600160a01b0316331461211c5760405162461bcd60e51b815260040161097690614d0d565b6001600160a01b03821660009081526001602052604090205460ff16156121555760405162461bcd60e51b815260040161097690614e33565b6001600160a01b0382166000818152600160208190526040808320805460ff191683179055600280548084019091557f405787fa12a823e0f2b7631cc41b3ba8828b3321ca811111fa75cd3aa3bb5ace0180546001600160a01b0319168517905560038054928301815583527fc2575a0e9e593c00f959f8c92f12db2869c3395a3b0502d05e2516446f71f85b9091018490556004805485019055518392917fbd5dcf0b25226117c4a68a0129ffdd4b0541ef5e482ad7de9a96ccb6d6a8ebde91a35050565b6013546001600160a01b031681565b6060600280548060200260200160405190810160405280929190818152602001828054801561162657602002820191906000526020600020905b81546001600160a01b03168152600190910190602001808311612264575050505050905090565b6001600160a01b0381166000908152600a60209081526040918290208054835181840281018401909452808452606093928301828280156112a757602002820191906000526020600020908154815260200190600101908083116112935750505050509050919050565b6001600160a01b0381166000908152600860209081526040918290208054835181840281018401909452808452606093928301828280156112a757602002820191906000526020600020908154815260200190600101908083116112935750505050509050919050565b600a602052816000526040600020818154811061164957fe5b6009602052816000526040600020818154811061185e57fe5b60106020526000908152604090205460ff1681565b600e602052816000526040600020818154811061164957fe5b60175481565b6001600160a01b03166000908152600f602052604090205460ff1690565b6000546001600160a01b0316331461240d5760405162461bcd60e51b815260040161097690614d0d565b600580546001600160a01b0319166001600160a01b0392909216919091179055565b6006602052600090815260409020546001600160a01b031681565b6003818154811061245757fe5b600091825260209091200154905081565b60045481565b600d602052816000526040600020818154811061185e57fe5b6001600160a01b0381166000908152600960209081526040918290208054835181840281018401909452808452606093928301828280156112a7576020028201919060005260206000209081546001600160a01b031681526001909101906020018083116115a05750505050509050919050565b6001600160a01b0381166000908152600760209081526040918290208054835181840281018401909452808452606093928301828280156112a7576020028201919060005260206000209081546001600160a01b031681526001909101906020018083116115a05750505050509050919050565b600c602052816000526040600020818154811061164957fe5b600554604051636e0cf42160e11b81526001600160a01b039091169063dc19e842906125b8908490600401614b70565b60206040518083038186803b1580156125d057600080fd5b505afa1580156125e4573d6000803e3d6000fd5b505050506040513d601f19601f820116820180604052508101906126089190614a45565b6126245760405162461bcd60e51b815260040161097690614ea7565b6000816001600160a01b0316633018205f6040518163ffffffff1660e01b815260040160206040518083038186803b15801561265f57600080fd5b505afa158015612673573d6000803e3d6000fd5b505050506040513d601f19601f8201168201806040525081019061269791906146a4565b6001600160a01b03831660009081526007602052604090205490915060609061274d576001600160a01b03831660009081526009602052604090205461272f576001600160a01b0383166000908152600b6020526040902054612711576001600160a01b0383166000908152600d6020526040902061272a565b6001600160a01b0383166000908152600b602052604090205b612748565b6001600160a01b03831660009081526009602052604090205b612766565b6001600160a01b03831660009081526007602052604090205b8054806020026020016040519081016040528092919081815260200182805480156127ba57602002820191906000526020600020905b81546001600160a01b0316815260019091019060200180831161279c575b5050506001600160a01b038616600090815260106020526040902054929350505060ff16156127fb5760405162461bcd60e51b815260040161097690614dfc565b6001600160a01b038381166000908152600660205260409020548116908316146128375760405162461bcd60e51b815260040161097690614f85565b60008151116128585760405162461bcd60e51b815260040161097690614d39565b6001600160a01b0383166000908152600f602052604090205460ff166128905760405162461bcd60e51b815260040161097690614f52565b6001600160a01b0383166000908152600f60209081526040808320805460ff1916905560128252808320601190925282205482906128cf9060016137aa565b8152602001908152602001600020905080600001600090558060010160006128f791906144d2565b42815581516060906001600160401b038111801561291457600080fd5b5060405190808252806020026020018201604052801561293e578160200160208202803683370190505b509050606083516001600160401b038111801561295a57600080fd5b50604051908082528060200260200182016040528015612984578160200160208202803683370190505b509050606084516001600160401b03811180156129a057600080fd5b506040519080825280602002602001820160405280156129ca578160200160208202803683370190505b509050606085516001600160401b03811180156129e657600080fd5b50604051908082528060200260200182016040528015612a10578160200160208202803683370190505b50905060005b8651811015612b9a576000612a296144a8565b612a33838c6137cf565b8b8881518110612a3f57fe5b602002602001018b8981518110612a5257fe5b602002602001018b8a81518110612a6557fe5b602002602001018b8b81518110612a7857fe5b6020908102919091010193909352929091529190525289519092506000908a9085908110612aa257fe5b6020908102919091018101516001600160a01b0381168085526040808601879052805163313ce56760e01b81529051929450909263313ce56792600480840193829003018186803b158015612af657600080fd5b505afa158015612b0a573d6000803e3d6000fd5b505050506040513d601f19601f82011682018060405250810190612b2e9190614a98565b602083810191825260018b8101805480830182556000918252929020855160039093020180546001600160a01b0319166001600160a01b039093169290921782559151918101919091556040830151600290910155612b8f8c8c8386613a7e565b505050600101612a16565b50612ba488611fab565b15612bb757612bb7888786868686613dfd565b6001600160a01b038816600090815260116020526040902054612bdb9060016137aa565b6001600160a01b038916600090815260116020908152604080832084905560128252808320938352929052208554815560018087018054889392612c2292908401916144f3565b50905050612c2f886141b0565b5050505050505050565b60116020526000908152604090205481565b606080876001600160401b0381118015612c6457600080fd5b50604051908082528060200260200182016040528015612c8e578160200160208202803683370190505b509150876001600160401b0381118015612ca757600080fd5b50604051908082528060200260200182016040528015612cd1578160200160208202803683370190505b50905082518451148015612ce457508351155b80612d0857506001600160a01b0385166000908152600f602052604090205460ff16155b15612e5e5760005b88811015612e585760008a8a83818110612d2657fe5b9050602002016020810190612d3b9190614688565b90506000898984818110612d4b57fe5b905060200201359050816001600160a01b03166323b872dd3330846040518463ffffffff1660e01b8152600401612d8493929190614b84565b602060405180830381600087803b158015612d9e57600080fd5b505af1158015612db2573d6000803e3d6000fd5b505050506040513d601f19601f82011682018060405250810190612dd69190614a45565b508b8b84818110612de357fe5b9050602002016020810190612df89190614688565b858481518110612e0457fe5b60200260200101906001600160a01b031690816001600160a01b031681525050898984818110612e3057fe5b90506020020135848481518110612e4357fe5b60209081029190910101525050600101612d10565b5061300d565b60005b8881101561300b57898982818110612e7557fe5b9050602002016020810190612e8a9190614688565b6001600160a01b0316858281518110612e9f57fe5b60200260200101516001600160a01b031614156130035760008a8a83818110612ec457fe5b9050602002016020810190612ed99190614688565b90506000898984818110612ee957fe5b905060200201359050816001600160a01b03166323b872dd3330846040518463ffffffff1660e01b8152600401612f2293929190614b84565b602060405180830381600087803b158015612f3c57600080fd5b505af1158015612f50573d6000803e3d6000fd5b505050506040513d601f19601f82011682018060405250810190612f749190614a45565b508b8b84818110612f8157fe5b9050602002016020810190612f969190614688565b858481518110612fa257fe5b60200260200101906001600160a01b031690816001600160a01b031681525050612fe881878581518110612fd257fe5b60200260200101516137aa90919063ffffffff16565b848481518110612ff457fe5b60200260200101818152505050505b600101612e61565b505b97509795505050505050565b6060808080896001600160401b038111801561303457600080fd5b5060405190808252806020026020018201604052801561305e578160200160208202803683370190505b509350896001600160401b038111801561307757600080fd5b506040519080825280602002602001820160405280156130a1578160200160208202803683370190505b509250896001600160401b03811180156130ba57600080fd5b506040519080825280602002602001820160405280156130e4578160200160208202803683370190505b509150896001600160401b03811180156130fd57600080fd5b50604051908082528060200260200182016040528015613127578160200160208202803683370190505b506001600160a01b0386166000908152600c6020908152604080832054600b9092529091205491925014801561317357506001600160a01b0385166000908152600b6020526040902054155b8061319757506001600160a01b0385166000908152600f602052604090205460ff16155b156132e75760005b8a8110156132e15760008a8a838181106131b557fe5b9050602002013590508c8c838181106131ca57fe5b90506020020160208101906131df9190614688565b6001600160a01b03166323b872dd3330846040518463ffffffff1660e01b815260040161320e93929190614b84565b602060405180830381600087803b15801561322857600080fd5b505af115801561323c573d6000803e3d6000fd5b505050506040513d601f19601f820116820180604052508101906132609190614a45565b508c8c8381811061326d57fe5b90506020020160208101906132829190614688565b86838151811061328e57fe5b60200260200101906001600160a01b031690816001600160a01b0316815250508888838181106132ba57fe5b905060200201358583815181106132cd57fe5b60209081029190910101525060010161319f565b506134f1565b60005b8a8110156134ef578b8b828181106132fe57fe5b90506020020160208101906133139190614688565b6001600160a01b0316600b6000886001600160a01b03166001600160a01b03168152602001908152602001600020828154811061334c57fe5b6000918252602090912001546001600160a01b031614156134e75760008a8a8381811061337557fe5b9050602002013590508c8c8381811061338a57fe5b905060200201602081019061339f9190614688565b6001600160a01b03166323b872dd3330846040518463ffffffff1660e01b81526004016133ce93929190614b84565b602060405180830381600087803b1580156133e857600080fd5b505af11580156133fc573d6000803e3d6000fd5b505050506040513d601f19601f820116820180604052508101906134209190614a45565b508c8c8381811061342d57fe5b90506020020160208101906134429190614688565b86838151811061344e57fe5b60200260200101906001600160a01b031690816001600160a01b0316815250506134cd89898481811061347d57fe5b90506020020135600c60008a6001600160a01b03166001600160a01b0316815260200190815260200160002084815481106134b457fe5b90600052602060002001546137aa90919063ffffffff16565b8583815181106134d957fe5b602002602001018181525050505b6001016132ea565b505b6001600160a01b0385166000908152600e6020908152604080832054600d9092529091205414801561353957506001600160a01b0385166000908152600d6020526040902054155b8061355d57506001600160a01b0385166000908152600f602052604090205460ff16155b156136165760005b8a811015613610578b8b8281811061357957fe5b905060200201602081019061358e9190614688565b83828151811061359a57fe5b60200260200101906001600160a01b031690816001600160a01b0316815250506135f18888838181106135c957fe5b905060200201358b8b848181106135dc57fe5b905060200201356136e690919063ffffffff16565b8282815181106135fd57fe5b6020908102919091010152600101613565565b506136d8565b60005b8a8110156136d6578b8b8281811061362d57fe5b90506020020160208101906136429190614688565b83828151811061364e57fe5b60200260200101906001600160a01b031690816001600160a01b0316815250506136b761369389898481811061368057fe5b905060200201358c8c858181106135dc57fe5b6001600160a01b0388166000908152600e602052604090208054849081106134b457fe5b8282815181106136c357fe5b6020908102919091010152600101613619565b505b975097509750979350505050565b600061372883836040518060400160405280601e81526020017f536166654d6174683a207375627472616374696f6e206f766572666c6f770000815250614343565b90505b92915050565b6000826137405750600061372b565b8282028284828161374d57fe5b04146137285760405162461bcd60e51b815260040161097690614f11565b600061372883836040518060400160405280601a815260200179536166654d6174683a206469766973696f6e206279207a65726f60301b81525061436f565b6000828201838110156137285760405162461bcd60e51b815260040161097690614d9e565b6001600160a01b03811660009081526008602090815260408083208054825181850281018501909352808352849384938493849360609383018282801561383557602002820191906000526020600020905b815481526020019060010190808311613821575b5050506001600160a01b038a166000908152600a60209081526040918290208054835181840281018401909452808452959650606095929450925083018282801561389f57602002820191906000526020600020905b81548152602001906001019080831161388b575b5050506001600160a01b038b166000908152600c60209081526040918290208054835181840281018401909452808452959650606095929450925083018282801561390957602002820191906000526020600020905b8154815260200190600101908083116138f5575b5050506001600160a01b038c166000908152600e60209081526040918290208054835181840281018401909452808452959650606095929450925083018282801561397357602002820191906000526020600020905b81548152602001906001019080831161395f575b50505050509050835160001461398a57600161398d565b60005b156139b9576139aa601454611c3d601554878f81518110611c2757fe5b97506139b689896137aa565b98505b8251156139c75760016139ca565b60005b156139f6576139e7601454611c3d601654868f81518110611c2757fe5b96506139f389886137aa565b98505b815115613a04576001613a07565b60005b15613a3357613a24601454611c3d601754858f81518110611c2757fe5b9550613a3089876137aa565b98505b805115613a41576001613a44565b60005b15613a7057613a61601454611c3d601854848f81518110611c2757fe5b9450613a6d89866137aa565b98505b505050509295509295909350565b613a8784611fab565b613d7057613a9d836001600160a01b03166143a6565b15613ce95760008490506060816001600160a01b031663a0e67e2b6040518163ffffffff1660e01b815260040160006040518083038186803b158015613ae257600080fd5b505afa158015613af6573d6000803e3d6000fd5b505050506040513d6000823e601f3d908101601f19168201604052613b1e9190810190614874565b90506060826001600160a01b031663309a042c6040518163ffffffff1660e01b815260040160006040518083038186803b158015613b5b57600080fd5b505afa158015613b6f573d6000803e3d6000fd5b505050506040513d6000823e601f3d908101601f19168201604052613b9791908101906149c2565b90506000836001600160a01b031663d29986c16040518163ffffffff1660e01b815260040160206040518083038186803b158015613bd457600080fd5b505afa158015613be8573d6000803e3d6000fd5b505050506040513d601f19601f82011682018060405250810190613c0c9190614a98565b905060005b8351811015613cdf57866001600160a01b031663a9059cbb858381518110613c3557fe5b6020026020010151613c6785611c3d888781518110613c5057fe5b60200260200101518c61373190919063ffffffff16565b6040518363ffffffff1660e01b8152600401613c84929190614bec565b602060405180830381600087803b158015613c9e57600080fd5b505af1158015613cb2573d6000803e3d6000fd5b505050506040513d601f19601f82011682018060405250810190613cd69190614a45565b50600101613c11565b5050505050613d6b565b60405163a9059cbb60e01b81526001600160a01b0383169063a9059cbb90613d179086908590600401614bec565b602060405180830381600087803b158015613d3157600080fd5b505af1158015613d45573d6000803e3d6000fd5b505050506040513d601f19601f82011682018060405250810190613d699190614a45565b505b6114c9565b60135460405163a9059cbb60e01b81526001600160a01b038481169263a9059cbb92613da492909116908590600401614bec565b602060405180830381600087803b158015613dbe57600080fd5b505af1158015613dd2573d6000803e3d6000fd5b505050506040513d601f19601f82011682018060405250810190613df69190614a45565b5050505050565b6001600160a01b038616600090815260086020908152604091829020805483518184028101840190945280845260609392830182828015613e5d57602002820191906000526020600020905b815481526020019060010190808311613e49575b5050506001600160a01b038a166000908152600a602090815260409182902080548351818402810184019094528084529596506060959294509250830182828015613ec757602002820191906000526020600020905b815481526020019060010190808311613eb3575b5050506001600160a01b038b166000908152600c602090815260409182902080548351818402810184019094528084529596506060959294509250830182828015613f3157602002820191906000526020600020905b815481526020019060010190808311613f1d575b5050506001600160a01b038c166000908152600e602090815260409182902080548351818402810184019094528084529596506060959294509250830182828015613f9b57602002820191906000526020600020905b815481526020019060010190808311613f87575b505050505090508351600014613fb2576001613fb5565b60005b1561402457601354604051639155dae760e01b81526001600160a01b0390911690639155dae790613ff1908d906000908e908e90600401614ba8565b600060405180830381600087803b15801561400b57600080fd5b505af115801561401f573d6000803e3d6000fd5b505050505b825115614032576001614035565b60005b156140a457601354604051639155dae760e01b81526001600160a01b0390911690639155dae790614071908d906001908e908d90600401614ba8565b600060405180830381600087803b15801561408b57600080fd5b505af115801561409f573d6000803e3d6000fd5b505050505b8151156140b25760016140b5565b60005b1561412457601354604051639155dae760e01b81526001600160a01b0390911690639155dae7906140f1908d906002908e908c90600401614ba8565b600060405180830381600087803b15801561410b57600080fd5b505af115801561411f573d6000803e3d6000fd5b505050505b805115614132576001614135565b60005b156141a457601354604051639155dae760e01b81526001600160a01b0390911690639155dae790614171908d906003908e908b90600401614ba8565b600060405180830381600087803b15801561418b57600080fd5b505af115801561419f573d6000803e3d6000fd5b505050505b50505050505050505050565b60408051600080825260208083018085526001600160a01b0386168352600890915292902090516141e19290614447565b5060408051600080825260208083018085526001600160a01b03861683526007909152929020905161421392906143e2565b5060408051600080825260208083018085526001600160a01b0386168352600a90915292902090516142459290614447565b5060408051600080825260208083018085526001600160a01b03861683526009909152929020905161427792906143e2565b5060408051600080825260208083018085526001600160a01b0386168352600c90915292902090516142a99290614447565b5060408051600080825260208083018085526001600160a01b0386168352600b90915292902090516142db92906143e2565b5060408051600080825260208083018085526001600160a01b0386168352600e909152929020905161430d9290614447565b5060408051600080825260208083018085526001600160a01b0386168352600d909152929020905161433f92906143e2565b5050565b600081848411156143675760405162461bcd60e51b81526004016109769190614cba565b505050900390565b600081836143905760405162461bcd60e51b81526004016109769190614cba565b50600083858161439c57fe5b0495945050505050565b6000813f7fc5d2460186f7233c927e7db2dcc703c0e500b653ca82273b7bfad8045d85a4708181148015906143da57508115155b949350505050565b828054828255906000526020600020908101928215614437579160200282015b8281111561443757825182546001600160a01b0319166001600160a01b03909116178255602090920191600190910190614402565b50614443929150614571565b5090565b828054828255906000526020600020908101928215614482579160200282015b82811115614482578251825591602001919060010190614467565b50614443929150614590565b604051806040016040528060008152602001606081525090565b604051806060016040528060006001600160a01b0316815260200160008152602001600081525090565b5080546000825560030290600052602060002090810190611f0891906145a5565b8280548282559060005260206000209060030281019282156145655760005260206000209160030282015b8281111561456557825482546001600160a01b0319166001600160a01b0390911617825560018084015490830155600280840154908301556003928301929091019061451e565b506144439291506145a5565b5b808211156144435780546001600160a01b0319168155600101614572565b5b808211156144435760008155600101614591565b5b808211156144435780546001600160a01b031916815560006001820181905560028201556003016145a6565b60008083601f8401126145e3578182fd5b5081356001600160401b038111156145f9578182fd5b602083019150836020808302850101111561461357600080fd5b9250929050565b600082601f83011261462a578081fd5b813561463d61463882614fe2565b614fbc565b81815291506020808301908481018184028601820187101561465e57600080fd5b60005b8481101561467d57813584529282019290820190600101614661565b505050505092915050565b600060208284031215614699578081fd5b813561372881615001565b6000602082840312156146b5578081fd5b815161372881615001565b6000806000606084860312156146d4578182fd5b83356146df81615001565b925060208401356146ef81615001565b929592945050506040919091013590565b60008060408385031215614712578182fd5b823561471d81615001565b9150602083013561472d81615016565b809150509250929050565b6000806040838503121561474a578182fd5b823561475581615001565b946020939093013593505050565b60008060008060408587031215614778578081fd5b84356001600160401b038082111561478e578283fd5b61479a888389016145d2565b909650945060208701359150808211156147b2578283fd5b506147bf878288016145d2565b95989497509550505050565b60008060008060008060006080888a0312156147e5578283fd5b87356001600160401b03808211156147fb578485fd5b6148078b838c016145d2565b909950975060208a013591508082111561481f578485fd5b61482b8b838c016145d2565b909750955060408a0135915080821115614843578485fd5b506148508a828b016145d2565b909450925050606088013561486481615016565b8091505092959891949750929550565b60006020808385031215614886578182fd5b82516001600160401b0381111561489b578283fd5b8301601f810185136148ab578283fd5b80516148b961463882614fe2565b81815283810190838501858402850186018910156148d5578687fd5b8694505b83851015611dca5780516148ec81615001565b8352600194909401939185019185016148d9565b60008060408385031215614912578182fd5b82356001600160401b0380821115614928578384fd5b818501915085601f83011261493b578384fd5b813561494961463882614fe2565b80828252602080830192508086018a828387028901011115614969578889fd5b8896505b8487101561499457803561498081615001565b84526001969096019592810192810161496d565b5090965087013593505050808211156149ab578283fd5b506149b88582860161461a565b9150509250929050565b600060208083850312156149d4578182fd5b82516001600160401b038111156149e9578283fd5b8301601f810185136149f9578283fd5b8051614a0761463882614fe2565b8181528381019083850185840285018601891015614a23578687fd5b8694505b83851015611dca578051835260019490940193918501918501614a27565b600060208284031215614a56578081fd5b815161372881615016565b600060208284031215614a72578081fd5b815160028110613728578182fd5b600060208284031215614a91578081fd5b5035919050565b600060208284031215614aa9578081fd5b5051919050565b6000815180845260208085019450808401835b83811015614ae85781516001600160a01b031687529582019590820190600101614ac3565b509495945050505050565b6000815180845260208085019450808401835b83811015614ae857815180516001600160a01b0316885283810151848901526040908101519088015260609096019590820190600101614b06565b6000815180845260208085019450808401835b83811015614ae857815187529582019590820190600101614b54565b6001600160a01b0391909116815260200190565b6001600160a01b039384168152919092166020820152604081019190915260600190565b600060018060a01b038616825284602083015260806040830152614bcf6080830185614ab0565b8281036060840152614be18185614b41565b979650505050505050565b6001600160a01b03929092168252602082015260400190565b6000602082526137286020830184614ab0565b60208082528251828201819052600091906040908185019080840286018301878501865b83811015614c7b57888303603f19018552815180518452870151878401879052614c6887850182614af3565b9588019593505090860190600101614c3c565b509098975050505050505050565b6000602082526137286020830184614af3565b6000602082526137286020830184614b41565b901515815260200190565b6000602080835283518082850152825b81811015614ce657858101830151858201604001528201614cca565b81811115614cf75783604083870101525b50601f01601f1916929092016040019392505050565b60208082526012908201527122a9292fa727aa2fa1a7a72a2927a62622a960711b604082015260600190565b6020808252601b908201527a54686520706f6f6c206973206e6f74206d616e616765722066656560281b604082015260600190565b60208082526016908201527513585e1a5b5d5b481b1a5b5a5d08195e18d95959195960521b604082015260600190565b6020808252601b908201527a536166654d6174683a206164646974696f6e206f766572666c6f7760281b604082015260600190565b6020808252600f908201526e41646472657373206973205a65726f60881b604082015260600190565b6020808252601f908201527f54686520706f6f6c206d616e61676572206973206e6f7420636c61696d656400604082015260600190565b60208082526010908201526f20b2323932b9b99034b99027bbb732b960811b604082015260600190565b60208082526010908201526f4552525f5a45524f5f4144445245535360801b604082015260600190565b60208082526006908201526506f776e6572560d41b604082015260600190565b6020808252600f908201526e696e76616c6964206164647265737360881b604082015260600190565b60208082526021908201527f546f6b656e206c697374206c656e677468206973206e6f742065657175616c716040820152607560f81b606082015260800190565b60208082526021908201527f536166654d6174683a206d756c7469706c69636174696f6e206f766572666c6f6040820152607760f81b606082015260800190565b60208082526019908201527854686520706f6f6c206d616e6167657220697320636c61696d60381b604082015260600190565b60208082526014908201527331b630b4b69034b9903737ba1036b0b730b3b2b960611b604082015260600190565b90815260200190565b6040518181016001600160401b0381118282101715614fda57600080fd5b604052919050565b60006001600160401b03821115614ff7578081fd5b5060209081020190565b6001600160a01b0381168114611f0857600080fd5b8015158114611f0857600080fdfea2646970667358221220653ecce69fe735da69dae7efd50fb46eff43e73bc2dc6011ac039edca609a58c64736f6c634300060c0033",
  "devdoc": {
    "author": "Desyn Labs",
    "kind": "dev",
    "methods": {
      "getController()": {
        "details": "external for gas optimization",
        "returns": {
          "_0": "address - of the owner (AKA controller)"
        }
      },
      "removeOwner(address)": {
        "details": "Allows to remove an owner. Transaction has to be sent by wallet.",
        "params": {
          "owner": "Address of owner."
        }
      },
      "setAddAdminList(address,uint256)": {
        "details": "external for gas optimization",
        "params": {
          "newOwner": "- address of new owner"
        }
      },
      "setController(address)": {
        "details": "external for gas optimization",
        "params": {
          "newOwner": "- address of new owner"
        }
      }
    },
    "title": "Vault managerFee",
    "version": 1
  },
  "userdoc": {
    "kind": "user",
    "methods": {
      "getController()": {
        "notice": "Returns the address of the current owner"
      },
      "setAddAdminList(address,uint256)": {
        "notice": "Transfers ownership of the contract to a new account (`newOwner`).         Can only be called by the current owner"
      },
      "setController(address)": {
        "notice": "Transfers ownership of the contract to a new account (`newOwner`).         Can only be called by the current owner"
      }
    },
    "version": 1
  },
  "storageLayout": {
    "storage": [
      {
        "astId": 17459,
        "contract": "contracts/deploy/Vault.sol:Vault",
        "label": "_owner",
        "offset": 0,
        "slot": "0",
        "type": "t_address"
      },
      {
        "astId": 17463,
        "contract": "contracts/deploy/Vault.sol:Vault",
        "label": "adminList",
        "offset": 0,
        "slot": "1",
        "type": "t_mapping(t_address,t_bool)"
      },
      {
        "astId": 17466,
        "contract": "contracts/deploy/Vault.sol:Vault",
        "label": "owners",
        "offset": 0,
        "slot": "2",
        "type": "t_array(t_address)dyn_storage"
      },
      {
        "astId": 17469,
        "contract": "contracts/deploy/Vault.sol:Vault",
        "label": "ownerPercentage",
        "offset": 0,
        "slot": "3",
        "type": "t_array(t_uint256)dyn_storage"
      },
      {
        "astId": 17471,
        "contract": "contracts/deploy/Vault.sol:Vault",
        "label": "allOwnerPercentage",
        "offset": 0,
        "slot": "4",
        "type": "t_uint256"
      },
      {
        "astId": 12325,
        "contract": "contracts/deploy/Vault.sol:Vault",
        "label": "crpFactory",
        "offset": 0,
        "slot": "5",
        "type": "t_contract(ICRPFactory)12277"
      },
      {
        "astId": 12329,
        "contract": "contracts/deploy/Vault.sol:Vault",
        "label": "pool_manager",
        "offset": 0,
        "slot": "6",
        "type": "t_mapping(t_address,t_address)"
      },
      {
        "astId": 12334,
        "contract": "contracts/deploy/Vault.sol:Vault",
        "label": "pool_manager_tokenList",
        "offset": 0,
        "slot": "7",
        "type": "t_mapping(t_address,t_array(t_address)dyn_storage)"
      },
      {
        "astId": 12339,
        "contract": "contracts/deploy/Vault.sol:Vault",
        "label": "pool_manager_tokenAmount",
        "offset": 0,
        "slot": "8",
        "type": "t_mapping(t_address,t_array(t_uint256)dyn_storage)"
      },
      {
        "astId": 12344,
        "contract": "contracts/deploy/Vault.sol:Vault",
        "label": "pool_issue_tokenList",
        "offset": 0,
        "slot": "9",
        "type": "t_mapping(t_address,t_array(t_address)dyn_storage)"
      },
      {
        "astId": 12349,
        "contract": "contracts/deploy/Vault.sol:Vault",
        "label": "pool_issue_tokenAmount",
        "offset": 0,
        "slot": "10",
        "type": "t_mapping(t_address,t_array(t_uint256)dyn_storage)"
      },
      {
        "astId": 12354,
        "contract": "contracts/deploy/Vault.sol:Vault",
        "label": "pool_redeem_tokenList",
        "offset": 0,
        "slot": "11",
        "type": "t_mapping(t_address,t_array(t_address)dyn_storage)"
      },
      {
        "astId": 12359,
        "contract": "contracts/deploy/Vault.sol:Vault",
        "label": "pool_redeem_tokenAmount",
        "offset": 0,
        "slot": "12",
        "type": "t_mapping(t_address,t_array(t_uint256)dyn_storage)"
      },
      {
        "astId": 12364,
        "contract": "contracts/deploy/Vault.sol:Vault",
        "label": "pool_perfermance_tokenList",
        "offset": 0,
        "slot": "13",
        "type": "t_mapping(t_address,t_array(t_address)dyn_storage)"
      },
      {
        "astId": 12369,
        "contract": "contracts/deploy/Vault.sol:Vault",
        "label": "pool_perfermance_tokenAmount",
        "offset": 0,
        "slot": "14",
        "type": "t_mapping(t_address,t_array(t_uint256)dyn_storage)"
      },
      {
        "astId": 12373,
        "contract": "contracts/deploy/Vault.sol:Vault",
        "label": "pool_manager_isClaim",
        "offset": 0,
        "slot": "15",
        "type": "t_mapping(t_address,t_bool)"
      },
      {
        "astId": 12377,
        "contract": "contracts/deploy/Vault.sol:Vault",
        "label": "black_list",
        "offset": 0,
        "slot": "16",
        "type": "t_mapping(t_address,t_bool)"
      },
      {
        "astId": 12381,
        "contract": "contracts/deploy/Vault.sol:Vault",
        "label": "record_number",
        "offset": 0,
        "slot": "17",
        "type": "t_mapping(t_address,t_uint256)"
      },
      {
        "astId": 12387,
        "contract": "contracts/deploy/Vault.sol:Vault",
        "label": "record_List",
        "offset": 0,
        "slot": "18",
        "type": "t_mapping(t_address,t_mapping(t_uint256,t_struct(claimRecordInfo)12323_storage))"
      },
      {
        "astId": 12389,
        "contract": "contracts/deploy/Vault.sol:Vault",
        "label": "userVault",
        "offset": 0,
        "slot": "19",
        "type": "t_address"
      },
      {
        "astId": 12392,
        "contract": "contracts/deploy/Vault.sol:Vault",
        "label": "total_ratio",
        "offset": 0,
        "slot": "20",
        "type": "t_uint256"
      },
      {
        "astId": 12395,
        "contract": "contracts/deploy/Vault.sol:Vault",
        "label": "manager_ratio",
        "offset": 0,
        "slot": "21",
        "type": "t_uint256"
      },
      {
        "astId": 12398,
        "contract": "contracts/deploy/Vault.sol:Vault",
        "label": "issue_ratio",
        "offset": 0,
        "slot": "22",
        "type": "t_uint256"
      },
      {
        "astId": 12401,
        "contract": "contracts/deploy/Vault.sol:Vault",
        "label": "redeem_ratio",
        "offset": 0,
        "slot": "23",
        "type": "t_uint256"
      },
      {
        "astId": 12404,
        "contract": "contracts/deploy/Vault.sol:Vault",
        "label": "perfermance_ratio",
        "offset": 0,
        "slot": "24",
        "type": "t_uint256"
      }
    ],
    "types": {
      "t_address": {
        "encoding": "inplace",
        "label": "address",
        "numberOfBytes": "20"
      },
      "t_array(t_address)dyn_storage": {
        "base": "t_address",
        "encoding": "dynamic_array",
        "label": "address[]",
        "numberOfBytes": "32"
      },
      "t_array(t_struct(claimTokenInfo)12293_storage)dyn_storage": {
        "base": "t_struct(claimTokenInfo)12293_storage",
        "encoding": "dynamic_array",
        "label": "struct Vault.claimTokenInfo[]",
        "numberOfBytes": "32"
      },
      "t_array(t_uint256)dyn_storage": {
        "base": "t_uint256",
        "encoding": "dynamic_array",
        "label": "uint256[]",
        "numberOfBytes": "32"
      },
      "t_bool": {
        "encoding": "inplace",
        "label": "bool",
        "numberOfBytes": "1"
      },
      "t_contract(ICRPFactory)12277": {
        "encoding": "inplace",
        "label": "contract ICRPFactory",
        "numberOfBytes": "20"
      },
      "t_mapping(t_address,t_address)": {
        "encoding": "mapping",
        "key": "t_address",
        "label": "mapping(address => address)",
        "numberOfBytes": "32",
        "value": "t_address"
      },
      "t_mapping(t_address,t_array(t_address)dyn_storage)": {
        "encoding": "mapping",
        "key": "t_address",
        "label": "mapping(address => address[])",
        "numberOfBytes": "32",
        "value": "t_array(t_address)dyn_storage"
      },
      "t_mapping(t_address,t_array(t_uint256)dyn_storage)": {
        "encoding": "mapping",
        "key": "t_address",
        "label": "mapping(address => uint256[])",
        "numberOfBytes": "32",
        "value": "t_array(t_uint256)dyn_storage"
      },
      "t_mapping(t_address,t_bool)": {
        "encoding": "mapping",
        "key": "t_address",
        "label": "mapping(address => bool)",
        "numberOfBytes": "32",
        "value": "t_bool"
      },
      "t_mapping(t_address,t_mapping(t_uint256,t_struct(claimRecordInfo)12323_storage))": {
        "encoding": "mapping",
        "key": "t_address",
        "label": "mapping(address => mapping(uint256 => struct Vault.claimRecordInfo))",
        "numberOfBytes": "32",
        "value": "t_mapping(t_uint256,t_struct(claimRecordInfo)12323_storage)"
      },
      "t_mapping(t_address,t_uint256)": {
        "encoding": "mapping",
        "key": "t_address",
        "label": "mapping(address => uint256)",
        "numberOfBytes": "32",
        "value": "t_uint256"
      },
      "t_mapping(t_uint256,t_struct(claimRecordInfo)12323_storage)": {
        "encoding": "mapping",
        "key": "t_uint256",
        "label": "mapping(uint256 => struct Vault.claimRecordInfo)",
        "numberOfBytes": "32",
        "value": "t_struct(claimRecordInfo)12323_storage"
      },
      "t_struct(claimRecordInfo)12323_storage": {
        "encoding": "inplace",
        "label": "struct Vault.claimRecordInfo",
        "members": [
          {
            "astId": 12319,
            "contract": "contracts/deploy/Vault.sol:Vault",
            "label": "time",
            "offset": 0,
            "slot": "0",
            "type": "t_uint256"
          },
          {
            "astId": 12322,
            "contract": "contracts/deploy/Vault.sol:Vault",
            "label": "tokens",
            "offset": 0,
            "slot": "1",
            "type": "t_array(t_struct(claimTokenInfo)12293_storage)dyn_storage"
          }
        ],
        "numberOfBytes": "64"
      },
      "t_struct(claimTokenInfo)12293_storage": {
        "encoding": "inplace",
        "label": "struct Vault.claimTokenInfo",
        "members": [
          {
            "astId": 12288,
            "contract": "contracts/deploy/Vault.sol:Vault",
            "label": "token",
            "offset": 0,
            "slot": "0",
            "type": "t_address"
          },
          {
            "astId": 12290,
            "contract": "contracts/deploy/Vault.sol:Vault",
            "label": "decimals",
            "offset": 0,
            "slot": "1",
            "type": "t_uint256"
          },
          {
            "astId": 12292,
            "contract": "contracts/deploy/Vault.sol:Vault",
            "label": "amount",
            "offset": 0,
            "slot": "2",
            "type": "t_uint256"
          }
        ],
        "numberOfBytes": "96"
      },
      "t_uint256": {
        "encoding": "inplace",
        "label": "uint256",
        "numberOfBytes": "32"
      }
    }
  }
}