{
  "address": "0x47d98d066d752b30d7e4597ff50b464e22fe986b",
  "abi": [
    {
      "inputs": [],
      "stateMutability": "nonpayable",
      "type": "constructor"
    },
    {
      "anonymous": false,
      "inputs": [
        {
          "indexed": true,
          "internalType": "address",
          "name": "newAdmin",
          "type": "address"
        },
        {
          "indexed": true,
          "internalType": "uint256",
          "name": "amount",
          "type": "uint256"
        }
      ],
      "name": "AddAdmin",
      "type": "event"
    },
    {
      "anonymous": false,
      "inputs": [
        {
          "indexed": true,
          "internalType": "address",
          "name": "caller",
          "type": "address"
        },
        {
          "indexed": true,
          "internalType": "uint256",
          "name": "amount",
          "type": "uint256"
        }
      ],
      "name": "IssueRatio",
      "type": "event"
    },
    {
      "anonymous": false,
      "inputs": [
        {
          "indexed": true,
          "internalType": "address",
          "name": "manager",
          "type": "address"
        },
        {
          "indexed": true,
          "internalType": "address",
          "name": "caller",
          "type": "address"
        }
      ],
      "name": "LOGUserVaultAdr",
      "type": "event"
    },
    {
      "anonymous": false,
      "inputs": [
        {
          "indexed": true,
          "internalType": "address",
          "name": "caller",
          "type": "address"
        },
        {
          "indexed": true,
          "internalType": "uint256",
          "name": "amount",
          "type": "uint256"
        }
      ],
      "name": "ManagerRatio",
      "type": "event"
    },
    {
      "anonymous": false,
      "inputs": [
        {
          "indexed": true,
          "internalType": "address",
          "name": "previousOwner",
          "type": "address"
        },
        {
          "indexed": true,
          "internalType": "address",
          "name": "newOwner",
          "type": "address"
        }
      ],
      "name": "OwnershipTransferred",
      "type": "event"
    },
    {
      "anonymous": false,
      "inputs": [
        {
          "indexed": true,
          "internalType": "address",
          "name": "caller",
          "type": "address"
        },
        {
          "indexed": true,
          "internalType": "uint256",
          "name": "amount",
          "type": "uint256"
        }
      ],
      "name": "RedeemRatio",
      "type": "event"
    },
    {
      "anonymous": false,
      "inputs": [
        {
          "indexed": true,
          "internalType": "address",
          "name": "oldAdmin",
          "type": "address"
        },
        {
          "indexed": true,
          "internalType": "uint256",
          "name": "amount",
          "type": "uint256"
        }
      ],
      "name": "RemoveAdmin",
      "type": "event"
    },
    {
      "inputs": [
        {
          "internalType": "address",
          "name": "token",
          "type": "address"
        },
        {
          "internalType": "address",
          "name": "user",
          "type": "address"
        },
        {
          "internalType": "uint256",
          "name": "amount",
          "type": "uint256"
        }
      ],
      "name": "adminClaimToken",
      "outputs": [],
      "stateMutability": "nonpayable",
      "type": "function"
    },
    {
      "inputs": [
        {
          "internalType": "address",
          "name": "",
          "type": "address"
        }
      ],
      "name": "adminList",
      "outputs": [
        {
          "internalType": "bool",
          "name": "",
          "type": "bool"
        }
      ],
      "stateMutability": "view",
      "type": "function"
    },
    {
      "inputs": [],
      "name": "allOwnerPercentage",
      "outputs": [
        {
          "internalType": "uint256",
          "name": "",
          "type": "uint256"
        }
      ],
      "stateMutability": "view",
      "type": "function"
    },
    {
      "inputs": [
        {
          "internalType": "address",
          "name": "",
          "type": "address"
        }
      ],
      "name": "black_list",
      "outputs": [
        {
          "internalType": "bool",
          "name": "",
          "type": "bool"
        }
      ],
      "stateMutability": "view",
      "type": "function"
    },
    {
      "inputs": [
        {
          "internalType": "address[]",
          "name": "poolTokens",
          "type": "address[]"
        },
        {
          "internalType": "uint256[]",
          "name": "tokensAmount",
          "type": "uint256[]"
        },
        {
          "internalType": "uint256[]",
          "name": "tokensAmountIR",
          "type": "uint256[]"
        },
        {
          "internalType": "bool",
          "name": "isPerfermance",
          "type": "bool"
        }
      ],
      "name": "depositIssueRedeemPToken",
      "outputs": [],
      "stateMutability": "nonpayable",
      "type": "function"
    },
    {
      "inputs": [
        {
          "internalType": "address[]",
          "name": "poolTokens",
          "type": "address[]"
        },
        {
          "internalType": "uint256[]",
          "name": "tokensAmount",
          "type": "uint256[]"
        }
      ],
      "name": "depositManagerToken",
      "outputs": [],
      "stateMutability": "nonpayable",
      "type": "function"
    },
    {
      "inputs": [],
      "name": "getBNB",
      "outputs": [],
      "stateMutability": "payable",
      "type": "function"
    },
    {
      "inputs": [],
      "name": "getController",
      "outputs": [
        {
          "internalType": "address",
          "name": "",
          "type": "address"
        }
      ],
      "stateMutability": "view",
      "type": "function"
    },
    {
      "inputs": [
        {
          "internalType": "address",
          "name": "pool",
          "type": "address"
        }
      ],
      "name": "getManagerClaimBool",
      "outputs": [
        {
          "internalType": "bool",
          "name": "bools",
          "type": "bool"
        }
      ],
      "stateMutability": "view",
      "type": "function"
    },
    {
      "inputs": [],
      "name": "getOwnerPercentage",
      "outputs": [
        {
          "internalType": "uint256[]",
          "name": "",
          "type": "uint256[]"
        }
      ],
      "stateMutability": "view",
      "type": "function"
    },
    {
      "inputs": [],
      "name": "getOwners",
      "outputs": [
        {
          "internalType": "address[]",
          "name": "",
          "type": "address[]"
        }
      ],
      "stateMutability": "view",
      "type": "function"
    },
    {
      "inputs": [
        {
          "internalType": "address[]",
          "name": "_owners",
          "type": "address[]"
        },
        {
          "internalType": "uint256[]",
          "name": "_ownerPercentage",
          "type": "uint256[]"
        }
      ],
      "name": "initHandle",
      "outputs": [],
      "stateMutability": "nonpayable",
      "type": "function"
    },
    {
      "inputs": [
        {
          "internalType": "address",
          "name": "pool",
          "type": "address"
        }
      ],
      "name": "isClosePool",
      "outputs": [
        {
          "internalType": "bool",
          "name": "",
          "type": "bool"
        }
      ],
      "stateMutability": "view",
      "type": "function"
    },
    {
      "inputs": [],
      "name": "issue_ratio",
      "outputs": [
        {
          "internalType": "uint256",
          "name": "",
          "type": "uint256"
        }
      ],
      "stateMutability": "view",
      "type": "function"
    },
    {
      "inputs": [
        {
          "internalType": "address",
          "name": "pool",
          "type": "address"
        }
      ],
      "name": "managerClaim",
      "outputs": [],
      "stateMutability": "nonpayable",
      "type": "function"
    },
    {
      "inputs": [
        {
          "internalType": "address",
          "name": "pool",
          "type": "address"
        }
      ],
      "name": "managerClaimList",
      "outputs": [
        {
          "components": [
            {
              "internalType": "address",
              "name": "token",
              "type": "address"
            },
            {
              "internalType": "uint256",
              "name": "decimals",
              "type": "uint256"
            },
            {
              "internalType": "uint256",
              "name": "amount",
              "type": "uint256"
            }
          ],
          "internalType": "struct Vault.claimTokenInfo[]",
          "name": "claimTokenInfos",
          "type": "tuple[]"
        }
      ],
      "stateMutability": "view",
      "type": "function"
    },
    {
      "inputs": [
        {
          "internalType": "address",
          "name": "pool",
          "type": "address"
        }
      ],
      "name": "managerClaimRecordList",
      "outputs": [
        {
          "components": [
            {
              "internalType": "uint256",
              "name": "time",
              "type": "uint256"
            },
            {
              "components": [
                {
                  "internalType": "address",
                  "name": "token",
                  "type": "address"
                },
                {
                  "internalType": "uint256",
                  "name": "decimals",
                  "type": "uint256"
                },
                {
                  "internalType": "uint256",
                  "name": "amount",
                  "type": "uint256"
                }
              ],
              "internalType": "struct Vault.claimTokenInfo[]",
              "name": "tokens",
              "type": "tuple[]"
            }
          ],
          "internalType": "struct Vault.claimRecordInfo[]",
          "name": "claimRecordInfos",
          "type": "tuple[]"
        }
      ],
      "stateMutability": "view",
      "type": "function"
    },
    {
      "inputs": [],
      "name": "manager_ratio",
      "outputs": [
        {
          "internalType": "uint256",
          "name": "",
          "type": "uint256"
        }
      ],
      "stateMutability": "view",
      "type": "function"
    },
    {
      "inputs": [
        {
          "internalType": "uint256",
          "name": "",
          "type": "uint256"
        }
      ],
      "name": "ownerPercentage",
      "outputs": [
        {
          "internalType": "uint256",
          "name": "",
          "type": "uint256"
        }
      ],
      "stateMutability": "view",
      "type": "function"
    },
    {
      "inputs": [
        {
          "internalType": "uint256",
          "name": "",
          "type": "uint256"
        }
      ],
      "name": "owners",
      "outputs": [
        {
          "internalType": "address",
          "name": "",
          "type": "address"
        }
      ],
      "stateMutability": "view",
      "type": "function"
    },
    {
      "inputs": [],
      "name": "perfermance_ratio",
      "outputs": [
        {
          "internalType": "uint256",
          "name": "",
          "type": "uint256"
        }
      ],
      "stateMutability": "view",
      "type": "function"
    },
    {
      "inputs": [
        {
          "internalType": "address",
          "name": "pool",
          "type": "address"
        }
      ],
      "name": "poolIssueTokenAmount",
      "outputs": [
        {
          "internalType": "uint256[]",
          "name": "tokenAmount",
          "type": "uint256[]"
        }
      ],
      "stateMutability": "view",
      "type": "function"
    },
    {
      "inputs": [
        {
          "internalType": "address",
          "name": "pool",
          "type": "address"
        }
      ],
      "name": "poolIssueTokenList",
      "outputs": [
        {
          "internalType": "address[]",
          "name": "tokens",
          "type": "address[]"
        }
      ],
      "stateMutability": "view",
      "type": "function"
    },
    {
      "inputs": [
        {
          "internalType": "address",
          "name": "pool",
          "type": "address"
        }
      ],
      "name": "poolManagerTokenAmount",
      "outputs": [
        {
          "internalType": "uint256[]",
          "name": "tokenAmount",
          "type": "uint256[]"
        }
      ],
      "stateMutability": "view",
      "type": "function"
    },
    {
      "inputs": [
        {
          "internalType": "address",
          "name": "pool",
          "type": "address"
        }
      ],
      "name": "poolManagerTokenList",
      "outputs": [
        {
          "internalType": "address[]",
          "name": "tokens",
          "type": "address[]"
        }
      ],
      "stateMutability": "view",
      "type": "function"
    },
    {
      "inputs": [
        {
          "internalType": "address",
          "name": "pool",
          "type": "address"
        }
      ],
      "name": "poolPerfermanceTokenAmount",
      "outputs": [
        {
          "internalType": "uint256[]",
          "name": "tokenAmount",
          "type": "uint256[]"
        }
      ],
      "stateMutability": "view",
      "type": "function"
    },
    {
      "inputs": [
        {
          "internalType": "address",
          "name": "pool",
          "type": "address"
        }
      ],
      "name": "poolPerfermanceTokenList",
      "outputs": [
        {
          "internalType": "address[]",
          "name": "tokens",
          "type": "address[]"
        }
      ],
      "stateMutability": "view",
      "type": "function"
    },
    {
      "inputs": [
        {
          "internalType": "address",
          "name": "pool",
          "type": "address"
        }
      ],
      "name": "poolRedeemTokenAmount",
      "outputs": [
        {
          "internalType": "uint256[]",
          "name": "tokenAmount",
          "type": "uint256[]"
        }
      ],
      "stateMutability": "view",
      "type": "function"
    },
    {
      "inputs": [
        {
          "internalType": "address",
          "name": "pool",
          "type": "address"
        }
      ],
      "name": "poolRedeemTokenList",
      "outputs": [
        {
          "internalType": "address[]",
          "name": "tokens",
          "type": "address[]"
        }
      ],
      "stateMutability": "view",
      "type": "function"
    },
    {
      "inputs": [
        {
          "internalType": "address",
          "name": "",
          "type": "address"
        },
        {
          "internalType": "uint256",
          "name": "",
          "type": "uint256"
        }
      ],
      "name": "pool_issue_tokenAmount",
      "outputs": [
        {
          "internalType": "uint256",
          "name": "",
          "type": "uint256"
        }
      ],
      "stateMutability": "view",
      "type": "function"
    },
    {
      "inputs": [
        {
          "internalType": "address",
          "name": "",
          "type": "address"
        },
        {
          "internalType": "uint256",
          "name": "",
          "type": "uint256"
        }
      ],
      "name": "pool_issue_tokenList",
      "outputs": [
        {
          "internalType": "address",
          "name": "",
          "type": "address"
        }
      ],
      "stateMutability": "view",
      "type": "function"
    },
    {
      "inputs": [
        {
          "internalType": "address",
          "name": "",
          "type": "address"
        }
      ],
      "name": "pool_manager",
      "outputs": [
        {
          "internalType": "address",
          "name": "",
          "type": "address"
        }
      ],
      "stateMutability": "view",
      "type": "function"
    },
    {
      "inputs": [
        {
          "internalType": "address",
          "name": "",
          "type": "address"
        }
      ],
      "name": "pool_manager_isClaim",
      "outputs": [
        {
          "internalType": "bool",
          "name": "",
          "type": "bool"
        }
      ],
      "stateMutability": "view",
      "type": "function"
    },
    {
      "inputs": [
        {
          "internalType": "address",
          "name": "",
          "type": "address"
        },
        {
          "internalType": "uint256",
          "name": "",
          "type": "uint256"
        }
      ],
      "name": "pool_manager_tokenAmount",
      "outputs": [
        {
          "internalType": "uint256",
          "name": "",
          "type": "uint256"
        }
      ],
      "stateMutability": "view",
      "type": "function"
    },
    {
      "inputs": [
        {
          "internalType": "address",
          "name": "",
          "type": "address"
        },
        {
          "internalType": "uint256",
          "name": "",
          "type": "uint256"
        }
      ],
      "name": "pool_manager_tokenList",
      "outputs": [
        {
          "internalType": "address",
          "name": "",
          "type": "address"
        }
      ],
      "stateMutability": "view",
      "type": "function"
    },
    {
      "inputs": [
        {
          "internalType": "address",
          "name": "",
          "type": "address"
        },
        {
          "internalType": "uint256",
          "name": "",
          "type": "uint256"
        }
      ],
      "name": "pool_perfermance_tokenAmount",
      "outputs": [
        {
          "internalType": "uint256",
          "name": "",
          "type": "uint256"
        }
      ],
      "stateMutability": "view",
      "type": "function"
    },
    {
      "inputs": [
        {
          "internalType": "address",
          "name": "",
          "type": "address"
        },
        {
          "internalType": "uint256",
          "name": "",
          "type": "uint256"
        }
      ],
      "name": "pool_perfermance_tokenList",
      "outputs": [
        {
          "internalType": "address",
          "name": "",
          "type": "address"
        }
      ],
      "stateMutability": "view",
      "type": "function"
    },
    {
      "inputs": [
        {
          "internalType": "address",
          "name": "",
          "type": "address"
        },
        {
          "internalType": "uint256",
          "name": "",
          "type": "uint256"
        }
      ],
      "name": "pool_redeem_tokenAmount",
      "outputs": [
        {
          "internalType": "uint256",
          "name": "",
          "type": "uint256"
        }
      ],
      "stateMutability": "view",
      "type": "function"
    },
    {
      "inputs": [
        {
          "internalType": "address",
          "name": "",
          "type": "address"
        },
        {
          "internalType": "uint256",
          "name": "",
          "type": "uint256"
        }
      ],
      "name": "pool_redeem_tokenList",
      "outputs": [
        {
          "internalType": "address",
          "name": "",
          "type": "address"
        }
      ],
      "stateMutability": "view",
      "type": "function"
    },
    {
      "inputs": [
        {
          "internalType": "address",
          "name": "",
          "type": "address"
        },
        {
          "internalType": "uint256",
          "name": "",
          "type": "uint256"
        }
      ],
      "name": "record_List",
      "outputs": [
        {
          "internalType": "uint256",
          "name": "time",
          "type": "uint256"
        }
      ],
      "stateMutability": "view",
      "type": "function"
    },
    {
      "inputs": [
        {
          "internalType": "address",
          "name": "",
          "type": "address"
        }
      ],
      "name": "record_number",
      "outputs": [
        {
          "internalType": "uint256",
          "name": "",
          "type": "uint256"
        }
      ],
      "stateMutability": "view",
      "type": "function"
    },
    {
      "inputs": [],
      "name": "redeem_ratio",
      "outputs": [
        {
          "internalType": "uint256",
          "name": "",
          "type": "uint256"
        }
      ],
      "stateMutability": "view",
      "type": "function"
    },
    {
      "inputs": [
        {
          "internalType": "address",
          "name": "owner",
          "type": "address"
        }
      ],
      "name": "removeOwner",
      "outputs": [],
      "stateMutability": "nonpayable",
      "type": "function"
    },
    {
      "inputs": [
        {
          "internalType": "address",
          "name": "newOwner",
          "type": "address"
        },
        {
          "internalType": "uint256",
          "name": "_ownerPercentage",
          "type": "uint256"
        }
      ],
      "name": "setAddAdminList",
      "outputs": [],
      "stateMutability": "nonpayable",
      "type": "function"
    },
    {
      "inputs": [
        {
          "internalType": "address",
          "name": "pool",
          "type": "address"
        },
        {
          "internalType": "bool",
          "name": "bools",
          "type": "bool"
        }
      ],
      "name": "setBlackList",
      "outputs": [],
      "stateMutability": "nonpayable",
      "type": "function"
    },
    {
      "inputs": [
        {
          "internalType": "address",
          "name": "newOwner",
          "type": "address"
        }
      ],
      "name": "setController",
      "outputs": [],
      "stateMutability": "nonpayable",
      "type": "function"
    },
    {
      "inputs": [
        {
          "internalType": "address",
          "name": "adr",
          "type": "address"
        }
      ],
      "name": "setCrpFactory",
      "outputs": [],
      "stateMutability": "nonpayable",
      "type": "function"
    },
    {
      "inputs": [
        {
          "internalType": "uint256",
          "name": "amount",
          "type": "uint256"
        }
      ],
      "name": "setIssueRatio",
      "outputs": [],
      "stateMutability": "nonpayable",
      "type": "function"
    },
    {
      "inputs": [
        {
          "internalType": "uint256",
          "name": "amount",
          "type": "uint256"
        }
      ],
      "name": "setManagerRatio",
      "outputs": [],
      "stateMutability": "nonpayable",
      "type": "function"
    },
    {
      "inputs": [
        {
          "internalType": "uint256",
          "name": "amount",
          "type": "uint256"
        }
      ],
      "name": "setPerfermanceRatio",
      "outputs": [],
      "stateMutability": "nonpayable",
      "type": "function"
    },
    {
      "inputs": [
        {
          "internalType": "uint256",
          "name": "amount",
          "type": "uint256"
        }
      ],
      "name": "setRedeemRatio",
      "outputs": [],
      "stateMutability": "nonpayable",
      "type": "function"
    },
    {
      "inputs": [
        {
          "internalType": "address",
          "name": "adr",
          "type": "address"
        }
      ],
      "name": "setUserVaultAdr",
      "outputs": [],
      "stateMutability": "nonpayable",
      "type": "function"
    },
    {
      "inputs": [],
      "name": "total_ratio",
      "outputs": [
        {
          "internalType": "uint256",
          "name": "",
          "type": "uint256"
        }
      ],
      "stateMutability": "view",
      "type": "function"
    },
    {
      "inputs": [],
      "name": "userVault",
      "outputs": [
        {
          "internalType": "address",
          "name": "",
          "type": "address"
        }
      ],
      "stateMutability": "view",
      "type": "function"
    },
    {
      "stateMutability": "payable",
      "type": "receive"
    }
  ],
  "transactionHash": "0xfd5992b5d2176b12503a0aa15afe28c293682ab82523e92c276fc5b3144bc8f7",
  "args": [],
  "numDeployments": 1,
  "solcInputHash": "fb819474c91a9f9b6eff6d48e5bd8bf9",
  "bytecode": "0x60806040526103e860145560c860155560c860165560c860175560c860185534801561002a57600080fd5b50600080546001600160a01b0319163317905561510b8061004c6000396000f3fe6080604052600436106102795760003560e01c806378bb32851161014b57806378bb3285146105fc57806378c32a4b1461061157806389a612e5146106315780638da901ba1461065157806392a0bb631461067157806392eefe9b14610691578063992f6ba5146106b15780639daafec7146106d1578063a0e67e2b146106e6578063a5168ee2146106fb578063a97f9f331461071b578063a9884df41461073b578063bc15c8401461075b578063bd0011c21461077b578063bdac42981461079b578063bef44bff146107bb578063c0fcb166146107d0578063c1e57622146107f0578063c3e4d04f14610810578063c5318d0f14610830578063d29986c114610850578063d832839014610865578063de7f302214610885578063ebef44d9146108a5578063ed76f949146108c5578063edb12adf146108e5578063edbfb5f51461090557610280565b8063025e7c27146102855780630922f29d146102bb5780630b6b3b2a146102dd5780630bac7b81146102fd5780631374aaf01461031d5780631483d99d1461033f578063173825d91461035f5780631a46506e1461037f5780631cc9a579146103ac5780631eae039c146103d957806327304dfd146103f957806328a3ed45146104265780632b5230a91461043b5780632c0bdbcf1461045b5780633018205f14610488578063309a042c1461049d578063334a5d96146104b25780633ef14479146104d257806341c65e83146104f2578063483e1948146105125780634b414ab5146105325780634bbe2fca146105525780634d4ae12d146105725780634dbd8dab1461059f57806368092bd9146105b457806371bb41a9146105d457806378a619de146105f457610280565b3661028057005b600080fd5b34801561029157600080fd5b506102a56102a0366004614b31565b610925565b6040516102b29190614c21565b60405180910390f35b3480156102c757600080fd5b506102db6102d6366004614739565b61094c565b005b3480156102e957600080fd5b506102db6102f8366004614b31565b6109f2565b34801561030957600080fd5b506102db610318366004614814565b610a21565b34801561032957600080fd5b50610332610d43565b6040516102b29190615064565b34801561034b57600080fd5b506102db61035a36600461487c565b610d49565b34801561036b57600080fd5b506102db61037a366004614739565b611121565b34801561038b57600080fd5b5061039f61039a366004614739565b611303565b6040516102b29190614d4d565b3480156103b857600080fd5b506103cc6103c7366004614739565b61136f565b6040516102b29190614cc9565b3480156103e557600080fd5b506102db6103f4366004614771565b6114db565b34801561040557600080fd5b50610419610414366004614739565b61158b565b6040516102b29190614d60565b34801561043257600080fd5b506103326115a0565b34801561044757600080fd5b5061039f610456366004614739565b6115a6565b34801561046757600080fd5b5061047b610476366004614739565b611610565b6040516102b29190614cb6565b34801561049457600080fd5b506102a5611685565b3480156104a957600080fd5b5061039f611694565b3480156104be57600080fd5b506103326104cd3660046147e9565b6116ec565b3480156104de57600080fd5b506102db6104ed3660046149b1565b61171a565b3480156104fe57600080fd5b5061047b61050d366004614739565b61180c565b34801561051e57600080fd5b506102db61052d366004614b31565b611880565b34801561053e57600080fd5b506102a561054d3660046147e9565b611901565b34801561055e57600080fd5b5061033261056d3660046147e9565b611936565b34801561057e57600080fd5b5061059261058d366004614739565b611953565b6040516102b29190614d3a565b3480156105ab57600080fd5b50610332611e92565b3480156105c057600080fd5b506102db6105cf3660046147b1565b611e98565b3480156105e057600080fd5b506102db6105ef366004614b31565b611eed565b6102db611f6e565b34801561060857600080fd5b50610332611fc7565b34801561061d57600080fd5b506102a561062c3660046147e9565b611fcd565b34801561063d57600080fd5b506102db61064c366004614b31565b611fe6565b34801561065d57600080fd5b5061041961066c366004614739565b612067565b34801561067d57600080fd5b5061041961068c366004614739565b6120ee565b34801561069d57600080fd5b506102db6106ac366004614739565b612103565b3480156106bd57600080fd5b506102db6106cc3660046147e9565b6121ae565b3480156106dd57600080fd5b506102a56122d7565b3480156106f257600080fd5b5061047b6122e6565b34801561070757600080fd5b5061039f610716366004614739565b612347565b34801561072757600080fd5b5061039f610736366004614739565b6123b1565b34801561074757600080fd5b506103326107563660046147e9565b61241b565b34801561076757600080fd5b506102a56107763660046147e9565b612434565b34801561078757600080fd5b50610419610796366004614739565b61244d565b3480156107a757600080fd5b506103326107b63660046147e9565b612462565b3480156107c757600080fd5b5061033261247b565b3480156107dc57600080fd5b506104196107eb366004614739565b612481565b3480156107fc57600080fd5b506102db61080b366004614739565b61249f565b34801561081c57600080fd5b506102a561082b366004614739565b6124eb565b34801561083c57600080fd5b5061033261084b366004614b31565b612506565b34801561085c57600080fd5b50610332612524565b34801561087157600080fd5b506102a56108803660046147e9565b61252a565b34801561089157600080fd5b5061047b6108a0366004614739565b612543565b3480156108b157600080fd5b5061047b6108c0366004614739565b6125b7565b3480156108d157600080fd5b506103326108e03660046147e9565b61262b565b3480156108f157600080fd5b506102db610900366004614739565b612644565b34801561091157600080fd5b50610332610920366004614739565b612ceb565b6002818154811061093257fe5b6000918252602090912001546001600160a01b0316905081565b6000546001600160a01b0316331461097f5760405162461bcd60e51b815260040161097690614dbe565b60405180910390fd5b6001600160a01b0381166109a55760405162461bcd60e51b815260040161097690614e84565b601380546001600160a01b0319166001600160a01b0383169081179091556040513391907fda49b6b843d6c52e6a8fa0f8645f8a33373438a8bf8500d292bf7a96a0a8041790600090a350565b6000546001600160a01b03163314610a1c5760405162461bcd60e51b815260040161097690614dbe565b601855565b600554604051636e0cf42160e11b81526001600160a01b039091169063dc19e84290610a51903390600401614c21565b60206040518083038186803b158015610a6957600080fd5b505afa158015610a7d573d6000803e3d6000fd5b505050506040513d601f19601f82011682018060405250810190610aa19190614af6565b610abd5760405162461bcd60e51b815260040161097690614f58565b828114610adc5760405162461bcd60e51b815260040161097690614f81565b336000908152600660205260409020546001600160a01b0316610b9b576000336001600160a01b0316633018205f6040518163ffffffff1660e01b815260040160206040518083038186803b158015610b3457600080fd5b505afa158015610b48573d6000803e3d6000fd5b505050506040513d601f19601f82011682018060405250810190610b6c9190614755565b33600090815260066020526040902080546001600160a01b0319166001600160a01b0392909216919091179055505b33600090815260076020908152604091829020805483518184028101840190945280845260609392830182828015610bfc57602002820191906000526020600020905b81546001600160a01b03168152600190910190602001808311610bde575b50503360009081526008602090815260409182902080548351818402810184019094528084529697506060969295509350909150830182828015610c5f57602002820191906000526020600020905b815481526020019060010190808311610c4b575b50505050509050606080610c7888888888338989612cfd565b3360009081526007602090815260409091208351939550919350610c9f9290850190614493565b503360009081526008602090815260409091208251610cc0928401906144f8565b50336000818152600f60205260409020805460ff19166001179055610ce490612067565b15610d395760405163edb12adf60e01b8152309063edb12adf90610d0c903390600401614c21565b600060405180830381600087803b158015610d2657600080fd5b505af1925050508015610d37575060015b505b5050505050505050565b60145481565b600554604051636e0cf42160e11b81526001600160a01b039091169063dc19e84290610d79903390600401614c21565b60206040518083038186803b158015610d9157600080fd5b505afa158015610da5573d6000803e3d6000fd5b505050506040513d601f19601f82011682018060405250810190610dc99190614af6565b610de55760405162461bcd60e51b815260040161097690614f58565b858414610e045760405162461bcd60e51b815260040161097690614f81565b336000908152600660205260409020546001600160a01b0316610ec3576000336001600160a01b0316633018205f6040518163ffffffff1660e01b815260040160206040518083038186803b158015610e5c57600080fd5b505afa158015610e70573d6000803e3d6000fd5b505050506040513d601f19601f82011682018060405250810190610e949190614755565b33600090815260066020526040902080546001600160a01b0319166001600160a01b0392909216919091179055505b33600090815260096020908152604091829020805483518184028101840190945280845260609392830182828015610f2457602002820191906000526020600020905b81546001600160a01b03168152600190910190602001808311610f06575b5050336000908152600a602090815260409182902080548351818402810184019094528084529697506060969295509350909150830182828015610f8757602002820191906000526020600020905b815481526020019060010190808311610f73575b5050505050905082610ff557606080610fa58b8b8b8b338989612cfd565b3360009081526009602090815260409091208351939550919350610fcc9290850190614493565b50336000908152600a602090815260409091208251610fed928401906144f8565b50505061109f565b60608060608061100a8d8d8d8d8d8d336130cb565b336000908152600b60209081526040909120855195995093975091955093506110369290870190614493565b50336000908152600d60209081526040909120835161105792850190614493565b50336000908152600c602090815260409091208451611078928601906144f8565b50336000908152600e602090815260409091208251611099928401906144f8565b50505050505b336000818152600f60205260409020805460ff191660011790556110c290612067565b15610d375760405163edb12adf60e01b8152309063edb12adf906110ea903390600401614c21565b600060405180830381600087803b15801561110457600080fd5b505af1925050508015611115575060015b50505050505050505050565b6000546001600160a01b0316331461114b5760405162461bcd60e51b815260040161097690614dbe565b6001600160a01b0381166000908152600160205260408120805460ff19169055805b60025481101561126f57826001600160a01b03166002828154811061118e57fe5b6000918252602090912001546001600160a01b03161415611267576002805460001981019081106111bb57fe5b600091825260209091200154600280546001600160a01b0390921691839081106111e157fe5b9060005260206000200160006101000a8154816001600160a01b0302191690836001600160a01b031602179055506003818154811061121c57fe5b9060005260206000200154915060036001600380549050038154811061123e57fe5b90600052602060002001546003828154811061125657fe5b60009182526020909120015561126f565b60010161116d565b50600280548061127b57fe5b600082815260209020810160001990810180546001600160a01b031916905501905560038054806112a857fe5b600082815260208120820160001990810182905590910190915560048054839003905560405182916001600160a01b038516917f7b0884b4b6bb4e0c1385ad42168fa556c14d4d799c1bf22f081aff3efff6ea0c9190a35050565b6001600160a01b0381166000908152600e602090815260409182902080548351818402810184019094528084526060939283018282801561136357602002820191906000526020600020905b81548152602001906001019080831161134f575b50505050509050919050565b6001600160a01b03811660009081526011602052604090205460609081816001600160401b03811180156113a257600080fd5b506040519080825280602002602001820160405280156113dc57816020015b6113c961453f565b8152602001906001900390816113c15790505b50905060015b826001018110156114d3576113f561453f565b6001600160a01b0386166000908152601260209081526040808320858452825280832081518083018352815481526001820180548451818702810187019095528085529195929486810194939192919084015b8282101561149d576000848152602090819020604080516060810182526003860290920180546001600160a01b0316835260018082015484860152600290910154918301919091529083529092019101611448565b505050915250909150819050836114b5846001613798565b815181106114bf57fe5b6020908102919091010152506001016113e2565b509392505050565b6000546001600160a01b031633146115055760405162461bcd60e51b815260040161097690614dbe565b60405163a9059cbb60e01b81526001600160a01b0384169063a9059cbb906115339085908590600401614c9d565b602060405180830381600087803b15801561154d57600080fd5b505af1158015611561573d6000803e3d6000fd5b505050506040513d601f19601f820116820180604052508101906115859190614af6565b50505050565b60016020526000908152604090205460ff1681565b60155481565b6001600160a01b0381166000908152600c6020908152604091829020805483518184028101840190945280845260609392830182828015611363576020028201919060005260206000209081548152602001906001019080831161134f5750505050509050919050565b6001600160a01b0381166000908152600b602090815260409182902080548351818402810184019094528084526060939283018282801561136357602002820191906000526020600020905b81546001600160a01b0316815260019091019060200180831161165c5750505050509050919050565b6000546001600160a01b031690565b606060038054806020026020016040519081016040528092919081815260200182805480156116e257602002820191906000526020600020905b8154815260200190600101908083116116ce575b5050505050905090565b6008602052816000526040600020818154811061170557fe5b90600052602060002001600091509150505481565b6000546001600160a01b031633146117445760405162461bcd60e51b815260040161097690614dbe565b80518251146117655760405162461bcd60e51b815260040161097690614f38565b60005b82518110156117df5781818151811061177d57fe5b602002602001015160046000828254019250508190555060018060008584815181106117a557fe5b6020908102919091018101516001600160a01b03168252810191909152604001600020805460ff1916911515919091179055600101611768565b5081516117f3906002906020850190614493565b5080516118079060039060208401906144f8565b505050565b6001600160a01b0381166000908152600d6020908152604091829020805483518184028101840190945280845260609392830182828015611363576020028201919060005260206000209081546001600160a01b0316815260019091019060200180831161165c5750505050509050919050565b6000546001600160a01b031633146118aa5760405162461bcd60e51b815260040161097690614dbe565b6014548111156118cc5760405162461bcd60e51b815260040161097690614e1f565b6017819055604051819033907f401a2e9de953ac26f52ac90650c1c1c1d95f78ef7661efad2ab1f2c59b9fd5e490600090a350565b600b602052816000526040600020818154811061191a57fe5b6000918252602090912001546001600160a01b03169150829050565b601260209081526000928352604080842090915290825290205481565b6001600160a01b0381166000908152600760205260409020546060908190611a08576001600160a01b0383166000908152600960205260409020546119ea576001600160a01b0383166000908152600b60205260409020546119cc576001600160a01b0383166000908152600d602052604090206119e5565b6001600160a01b0383166000908152600b602052604090205b611a03565b6001600160a01b03831660009081526009602052604090205b611a21565b6001600160a01b03831660009081526007602052604090205b805480602002602001604051908101604052809291908181526020018280548015611a7557602002820191906000526020600020905b81546001600160a01b03168152600190910190602001808311611a57575b5050506001600160a01b03861660009081526008602090815260409182902080548351818402810184019094528084529596506060959294509250830182828015611adf57602002820191906000526020600020905b815481526020019060010190808311611acb575b5050506001600160a01b0387166000908152600a602090815260409182902080548351818402810184019094528084529596506060959294509250830182828015611b4957602002820191906000526020600020905b815481526020019060010190808311611b35575b5050506001600160a01b0388166000908152600c602090815260409182902080548351818402810184019094528084529596506060959294509250830182828015611bb357602002820191906000526020600020905b815481526020019060010190808311611b9f575b5050506001600160a01b0389166000908152600e602090815260409182902080548351818402810184019094528084529596506060959294509250830182828015611c1d57602002820191906000526020600020905b815481526020019060010190808311611c09575b50505050509050606085516001600160401b0381118015611c3d57600080fd5b50604051908082528060200260200182016040528015611c7757816020015b611c64614559565b815260200190600190039081611c5c5790505b50905060005b8651811015611e8657611c8e614559565b878281518110611c9a57fe5b60209081029190910101516001600160a01b03168152865160009015611cc1576001611cc4565b60005b15611d0f576000611cff601454611cf96015548c8881518110611ce357fe5b60200260200101516137e390919063ffffffff16565b9061381d565b9050611d0b828261385c565b9150505b865115611d1d576001611d20565b60005b15611d4f576000611d3f601454611cf96016548b8881518110611ce357fe5b9050611d4b828261385c565b9150505b855115611d5d576001611d60565b60005b15611d8f576000611d7f601454611cf96017548a8881518110611ce357fe5b9050611d8b828261385c565b9150505b845115611d9d576001611da0565b60005b15611dcf576000611dbf601454611cf9601854898881518110611ce357fe5b9050611dcb828261385c565b9150505b604082018190528851899084908110611de457fe5b60200260200101516001600160a01b031663313ce5676040518163ffffffff1660e01b815260040160206040518083038186803b158015611e2457600080fd5b505afa158015611e38573d6000803e3d6000fd5b505050506040513d601f19601f82011682018060405250810190611e5c9190614b49565b602083015283518290859085908110611e7157fe5b60209081029190910101525050600101611c7d565b50979650505050505050565b60185481565b6000546001600160a01b03163314611ec25760405162461bcd60e51b815260040161097690614dbe565b6001600160a01b03919091166000908152601060205260409020805460ff1916911515919091179055565b6000546001600160a01b03163314611f175760405162461bcd60e51b815260040161097690614dbe565b601454811115611f395760405162461bcd60e51b815260040161097690614e1f565b6016819055604051819033907f448dcad41b13f10b7abd9393b3e1bb9887110740a9f0f9c7d2ed0b762652971f90600090a350565b6000546001600160a01b03163314611f985760405162461bcd60e51b815260040161097690614dbe565b60405133904780156108fc02916000818181858888f19350505050158015611fc4573d6000803e3d6000fd5b50565b60165481565b6007602052816000526040600020818154811061191a57fe5b6000546001600160a01b031633146120105760405162461bcd60e51b815260040161097690614dbe565b6014548111156120325760405162461bcd60e51b815260040161097690614e1f565b6015819055604051819033907f7d624dbda9646ad98f8b1fbd8de61497fb7a4e93b94bc13a6548b81c9b0ce91a90600090a350565b60006001826001600160a01b03166373a9855c6040518163ffffffff1660e01b815260040160206040518083038186803b1580156120a457600080fd5b505afa1580156120b8573d6000803e3d6000fd5b505050506040513d601f19601f820116820180604052508101906120dc9190614b12565b60018111156120e757fe5b1492915050565b600f6020526000908152604090205460ff1681565b6000546001600160a01b0316331461212d5760405162461bcd60e51b815260040161097690614dbe565b6001600160a01b0381166121535760405162461bcd60e51b815260040161097690614f0e565b600080546040516001600160a01b03808516939216917f8be0079c531659141344cd1fd0a4f28419497f9722a3daafe3b4186f6b6457e091a3600080546001600160a01b0319166001600160a01b0392909216919091179055565b6000546001600160a01b031633146121d85760405162461bcd60e51b815260040161097690614dbe565b6001600160a01b03821660009081526001602052604090205460ff16156122115760405162461bcd60e51b815260040161097690614ee4565b6001600160a01b0382166000818152600160208190526040808320805460ff191683179055600280548084019091557f405787fa12a823e0f2b7631cc41b3ba8828b3321ca811111fa75cd3aa3bb5ace0180546001600160a01b0319168517905560038054928301815583527fc2575a0e9e593c00f959f8c92f12db2869c3395a3b0502d05e2516446f71f85b9091018490556004805485019055518392917fbd5dcf0b25226117c4a68a0129ffdd4b0541ef5e482ad7de9a96ccb6d6a8ebde91a35050565b6013546001600160a01b031681565b606060028054806020026020016040519081016040528092919081815260200182805480156116e257602002820191906000526020600020905b81546001600160a01b03168152600190910190602001808311612320575050505050905090565b6001600160a01b0381166000908152600a6020908152604091829020805483518184028101840190945280845260609392830182828015611363576020028201919060005260206000209081548152602001906001019080831161134f5750505050509050919050565b6001600160a01b038116600090815260086020908152604091829020805483518184028101840190945280845260609392830182828015611363576020028201919060005260206000209081548152602001906001019080831161134f5750505050509050919050565b600a602052816000526040600020818154811061170557fe5b6009602052816000526040600020818154811061191a57fe5b60106020526000908152604090205460ff1681565b600e602052816000526040600020818154811061170557fe5b60175481565b6001600160a01b03166000908152600f602052604090205460ff1690565b6000546001600160a01b031633146124c95760405162461bcd60e51b815260040161097690614dbe565b600580546001600160a01b0319166001600160a01b0392909216919091179055565b6006602052600090815260409020546001600160a01b031681565b6003818154811061251357fe5b600091825260209091200154905081565b60045481565b600d602052816000526040600020818154811061191a57fe5b6001600160a01b038116600090815260096020908152604091829020805483518184028101840190945280845260609392830182828015611363576020028201919060005260206000209081546001600160a01b0316815260019091019060200180831161165c5750505050509050919050565b6001600160a01b038116600090815260076020908152604091829020805483518184028101840190945280845260609392830182828015611363576020028201919060005260206000209081546001600160a01b0316815260019091019060200180831161165c5750505050509050919050565b600c602052816000526040600020818154811061170557fe5b600554604051636e0cf42160e11b81526001600160a01b039091169063dc19e84290612674908490600401614c21565b60206040518083038186803b15801561268c57600080fd5b505afa1580156126a0573d6000803e3d6000fd5b505050506040513d601f19601f820116820180604052508101906126c49190614af6565b6126e05760405162461bcd60e51b815260040161097690614f58565b6000816001600160a01b0316633018205f6040518163ffffffff1660e01b815260040160206040518083038186803b15801561271b57600080fd5b505afa15801561272f573d6000803e3d6000fd5b505050506040513d601f19601f820116820180604052508101906127539190614755565b6001600160a01b038316600090815260076020526040902054909150606090612809576001600160a01b0383166000908152600960205260409020546127eb576001600160a01b0383166000908152600b60205260409020546127cd576001600160a01b0383166000908152600d602052604090206127e6565b6001600160a01b0383166000908152600b602052604090205b612804565b6001600160a01b03831660009081526009602052604090205b612822565b6001600160a01b03831660009081526007602052604090205b80548060200260200160405190810160405280929190818152602001828054801561287657602002820191906000526020600020905b81546001600160a01b03168152600190910190602001808311612858575b5050506001600160a01b038616600090815260106020526040902054929350505060ff16156128b75760405162461bcd60e51b815260040161097690614ead565b6001600160a01b038381166000908152600660205260409020548116908316146128f35760405162461bcd60e51b815260040161097690615036565b60008151116129145760405162461bcd60e51b815260040161097690614dea565b6001600160a01b0383166000908152600f602052604090205460ff1661294c5760405162461bcd60e51b815260040161097690615003565b6001600160a01b0383166000908152600f60209081526040808320805460ff19169055601282528083206011909252822054829061298b90600161385c565b8152602001908152602001600020905080600001600090558060010160006129b39190614583565b42815581516060906001600160401b03811180156129d057600080fd5b506040519080825280602002602001820160405280156129fa578160200160208202803683370190505b509050606083516001600160401b0381118015612a1657600080fd5b50604051908082528060200260200182016040528015612a40578160200160208202803683370190505b509050606084516001600160401b0381118015612a5c57600080fd5b50604051908082528060200260200182016040528015612a86578160200160208202803683370190505b509050606085516001600160401b0381118015612aa257600080fd5b50604051908082528060200260200182016040528015612acc578160200160208202803683370190505b50905060005b8651811015612c56576000612ae5614559565b612aef838c613881565b8b8881518110612afb57fe5b602002602001018b8981518110612b0e57fe5b602002602001018b8a81518110612b2157fe5b602002602001018b8b81518110612b3457fe5b6020908102919091010193909352929091529190525289519092506000908a9085908110612b5e57fe5b6020908102919091018101516001600160a01b0381168085526040808601879052805163313ce56760e01b81529051929450909263313ce56792600480840193829003018186803b158015612bb257600080fd5b505afa158015612bc6573d6000803e3d6000fd5b505050506040513d601f19601f82011682018060405250810190612bea9190614b49565b602083810191825260018b8101805480830182556000918252929020855160039093020180546001600160a01b0319166001600160a01b039093169290921782559151918101919091556040830151600290910155612c4b8c8c8386613b30565b505050600101612ad2565b50612c6088612067565b15612c7357612c73888786868686613eaf565b6001600160a01b038816600090815260116020526040902054612c9790600161385c565b6001600160a01b038916600090815260116020908152604080832084905560128252808320938352929052208554815560018087018054889392612cde92908401916145a4565b50905050610d3988614261565b60116020526000908152604090205481565b606080876001600160401b0381118015612d1657600080fd5b50604051908082528060200260200182016040528015612d40578160200160208202803683370190505b509150876001600160401b0381118015612d5957600080fd5b50604051908082528060200260200182016040528015612d83578160200160208202803683370190505b50905082518451148015612d9657508351155b80612dba57506001600160a01b0385166000908152600f602052604090205460ff16155b15612f105760005b88811015612f0a5760008a8a83818110612dd857fe5b9050602002016020810190612ded9190614739565b90506000898984818110612dfd57fe5b905060200201359050816001600160a01b03166323b872dd3330846040518463ffffffff1660e01b8152600401612e3693929190614c35565b602060405180830381600087803b158015612e5057600080fd5b505af1158015612e64573d6000803e3d6000fd5b505050506040513d601f19601f82011682018060405250810190612e889190614af6565b508b8b84818110612e9557fe5b9050602002016020810190612eaa9190614739565b858481518110612eb657fe5b60200260200101906001600160a01b031690816001600160a01b031681525050898984818110612ee257fe5b90506020020135848481518110612ef557fe5b60209081029190910101525050600101612dc2565b506130bf565b60005b888110156130bd57898982818110612f2757fe5b9050602002016020810190612f3c9190614739565b6001600160a01b0316858281518110612f5157fe5b60200260200101516001600160a01b031614156130b55760008a8a83818110612f7657fe5b9050602002016020810190612f8b9190614739565b90506000898984818110612f9b57fe5b905060200201359050816001600160a01b03166323b872dd3330846040518463ffffffff1660e01b8152600401612fd493929190614c35565b602060405180830381600087803b158015612fee57600080fd5b505af1158015613002573d6000803e3d6000fd5b505050506040513d601f19601f820116820180604052508101906130269190614af6565b508b8b8481811061303357fe5b90506020020160208101906130489190614739565b85848151811061305457fe5b60200260200101906001600160a01b031690816001600160a01b03168152505061309a8187858151811061308457fe5b602002602001015161385c90919063ffffffff16565b8484815181106130a657fe5b60200260200101818152505050505b600101612f13565b505b97509795505050505050565b6060808080896001600160401b03811180156130e657600080fd5b50604051908082528060200260200182016040528015613110578160200160208202803683370190505b509350896001600160401b038111801561312957600080fd5b50604051908082528060200260200182016040528015613153578160200160208202803683370190505b509250896001600160401b038111801561316c57600080fd5b50604051908082528060200260200182016040528015613196578160200160208202803683370190505b509150896001600160401b03811180156131af57600080fd5b506040519080825280602002602001820160405280156131d9578160200160208202803683370190505b506001600160a01b0386166000908152600c6020908152604080832054600b9092529091205491925014801561322557506001600160a01b0385166000908152600b6020526040902054155b8061324957506001600160a01b0385166000908152600f602052604090205460ff16155b156133995760005b8a8110156133935760008a8a8381811061326757fe5b9050602002013590508c8c8381811061327c57fe5b90506020020160208101906132919190614739565b6001600160a01b03166323b872dd3330846040518463ffffffff1660e01b81526004016132c093929190614c35565b602060405180830381600087803b1580156132da57600080fd5b505af11580156132ee573d6000803e3d6000fd5b505050506040513d601f19601f820116820180604052508101906133129190614af6565b508c8c8381811061331f57fe5b90506020020160208101906133349190614739565b86838151811061334057fe5b60200260200101906001600160a01b031690816001600160a01b03168152505088888381811061336c57fe5b9050602002013585838151811061337f57fe5b602090810291909101015250600101613251565b506135a3565b60005b8a8110156135a1578b8b828181106133b057fe5b90506020020160208101906133c59190614739565b6001600160a01b0316600b6000886001600160a01b03166001600160a01b0316815260200190815260200160002082815481106133fe57fe5b6000918252602090912001546001600160a01b031614156135995760008a8a8381811061342757fe5b9050602002013590508c8c8381811061343c57fe5b90506020020160208101906134519190614739565b6001600160a01b03166323b872dd3330846040518463ffffffff1660e01b815260040161348093929190614c35565b602060405180830381600087803b15801561349a57600080fd5b505af11580156134ae573d6000803e3d6000fd5b505050506040513d601f19601f820116820180604052508101906134d29190614af6565b508c8c838181106134df57fe5b90506020020160208101906134f49190614739565b86838151811061350057fe5b60200260200101906001600160a01b031690816001600160a01b03168152505061357f89898481811061352f57fe5b90506020020135600c60008a6001600160a01b03166001600160a01b03168152602001908152602001600020848154811061356657fe5b906000526020600020015461385c90919063ffffffff16565b85838151811061358b57fe5b602002602001018181525050505b60010161339c565b505b6001600160a01b0385166000908152600e6020908152604080832054600d909252909120541480156135eb57506001600160a01b0385166000908152600d6020526040902054155b8061360f57506001600160a01b0385166000908152600f602052604090205460ff16155b156136c85760005b8a8110156136c2578b8b8281811061362b57fe5b90506020020160208101906136409190614739565b83828151811061364c57fe5b60200260200101906001600160a01b031690816001600160a01b0316815250506136a388888381811061367b57fe5b905060200201358b8b8481811061368e57fe5b9050602002013561379890919063ffffffff16565b8282815181106136af57fe5b6020908102919091010152600101613617565b5061378a565b60005b8a811015613788578b8b828181106136df57fe5b90506020020160208101906136f49190614739565b83828151811061370057fe5b60200260200101906001600160a01b031690816001600160a01b03168152505061376961374589898481811061373257fe5b905060200201358c8c8581811061368e57fe5b6001600160a01b0388166000908152600e6020526040902080548490811061356657fe5b82828151811061377557fe5b60209081029190910101526001016136cb565b505b975097509750979350505050565b60006137da83836040518060400160405280601e81526020017f536166654d6174683a207375627472616374696f6e206f766572666c6f7700008152506143f4565b90505b92915050565b6000826137f2575060006137dd565b828202828482816137ff57fe5b04146137da5760405162461bcd60e51b815260040161097690614fc2565b60006137da83836040518060400160405280601a815260200179536166654d6174683a206469766973696f6e206279207a65726f60301b815250614420565b6000828201838110156137da5760405162461bcd60e51b815260040161097690614e4f565b6001600160a01b0381166000908152600860209081526040808320805482518185028101850190935280835284938493849384936060938301828280156138e757602002820191906000526020600020905b8154815260200190600101908083116138d3575b5050506001600160a01b038a166000908152600a60209081526040918290208054835181840281018401909452808452959650606095929450925083018282801561395157602002820191906000526020600020905b81548152602001906001019080831161393d575b5050506001600160a01b038b166000908152600c6020908152604091829020805483518184028101840190945280845295965060609592945092508301828280156139bb57602002820191906000526020600020905b8154815260200190600101908083116139a7575b5050506001600160a01b038c166000908152600e602090815260409182902080548351818402810184019094528084529596506060959294509250830182828015613a2557602002820191906000526020600020905b815481526020019060010190808311613a11575b505050505090508351600014613a3c576001613a3f565b60005b15613a6b57613a5c601454611cf9601554878f81518110611ce357fe5b9750613a68898961385c565b98505b825115613a79576001613a7c565b60005b15613aa857613a99601454611cf9601654868f81518110611ce357fe5b9650613aa5898861385c565b98505b815115613ab6576001613ab9565b60005b15613ae557613ad6601454611cf9601754858f81518110611ce357fe5b9550613ae2898761385c565b98505b805115613af3576001613af6565b60005b15613b2257613b13601454611cf9601854848f81518110611ce357fe5b9450613b1f898661385c565b98505b505050509295509295909350565b613b3984612067565b613e2257613b4f836001600160a01b0316614457565b15613d9b5760008490506060816001600160a01b031663a0e67e2b6040518163ffffffff1660e01b815260040160006040518083038186803b158015613b9457600080fd5b505afa158015613ba8573d6000803e3d6000fd5b505050506040513d6000823e601f3d908101601f19168201604052613bd09190810190614925565b90506060826001600160a01b031663309a042c6040518163ffffffff1660e01b815260040160006040518083038186803b158015613c0d57600080fd5b505afa158015613c21573d6000803e3d6000fd5b505050506040513d6000823e601f3d908101601f19168201604052613c499190810190614a73565b90506000836001600160a01b031663d29986c16040518163ffffffff1660e01b815260040160206040518083038186803b158015613c8657600080fd5b505afa158015613c9a573d6000803e3d6000fd5b505050506040513d601f19601f82011682018060405250810190613cbe9190614b49565b905060005b8351811015613d9157866001600160a01b031663a9059cbb858381518110613ce757fe5b6020026020010151613d1985611cf9888781518110613d0257fe5b60200260200101518c6137e390919063ffffffff16565b6040518363ffffffff1660e01b8152600401613d36929190614c9d565b602060405180830381600087803b158015613d5057600080fd5b505af1158015613d64573d6000803e3d6000fd5b505050506040513d601f19601f82011682018060405250810190613d889190614af6565b50600101613cc3565b5050505050613e1d565b60405163a9059cbb60e01b81526001600160a01b0383169063a9059cbb90613dc99086908590600401614c9d565b602060405180830381600087803b158015613de357600080fd5b505af1158015613df7573d6000803e3d6000fd5b505050506040513d601f19601f82011682018060405250810190613e1b9190614af6565b505b611585565b60135460405163a9059cbb60e01b81526001600160a01b038481169263a9059cbb92613e5692909116908590600401614c9d565b602060405180830381600087803b158015613e7057600080fd5b505af1158015613e84573d6000803e3d6000fd5b505050506040513d601f19601f82011682018060405250810190613ea89190614af6565b5050505050565b6001600160a01b038616600090815260086020908152604091829020805483518184028101840190945280845260609392830182828015613f0f57602002820191906000526020600020905b815481526020019060010190808311613efb575b5050506001600160a01b038a166000908152600a602090815260409182902080548351818402810184019094528084529596506060959294509250830182828015613f7957602002820191906000526020600020905b815481526020019060010190808311613f65575b5050506001600160a01b038b166000908152600c602090815260409182902080548351818402810184019094528084529596506060959294509250830182828015613fe357602002820191906000526020600020905b815481526020019060010190808311613fcf575b5050506001600160a01b038c166000908152600e60209081526040918290208054835181840281018401909452808452959650606095929450925083018282801561404d57602002820191906000526020600020905b815481526020019060010190808311614039575b505050505090508351600014614064576001614067565b60005b156140d657601354604051639155dae760e01b81526001600160a01b0390911690639155dae7906140a3908d906000908e908e90600401614c59565b600060405180830381600087803b1580156140bd57600080fd5b505af11580156140d1573d6000803e3d6000fd5b505050505b8251156140e45760016140e7565b60005b1561415657601354604051639155dae760e01b81526001600160a01b0390911690639155dae790614123908d906001908e908d90600401614c59565b600060405180830381600087803b15801561413d57600080fd5b505af1158015614151573d6000803e3d6000fd5b505050505b815115614164576001614167565b60005b156141d657601354604051639155dae760e01b81526001600160a01b0390911690639155dae7906141a3908d906002908e908c90600401614c59565b600060405180830381600087803b1580156141bd57600080fd5b505af11580156141d1573d6000803e3d6000fd5b505050505b8051156141e45760016141e7565b60005b1561111557601354604051639155dae760e01b81526001600160a01b0390911690639155dae790614223908d906003908e908b90600401614c59565b600060405180830381600087803b15801561423d57600080fd5b505af1158015614251573d6000803e3d6000fd5b5050505050505050505050505050565b60408051600080825260208083018085526001600160a01b03861683526008909152929020905161429292906144f8565b5060408051600080825260208083018085526001600160a01b0386168352600790915292902090516142c49290614493565b5060408051600080825260208083018085526001600160a01b0386168352600a90915292902090516142f692906144f8565b5060408051600080825260208083018085526001600160a01b0386168352600990915292902090516143289290614493565b5060408051600080825260208083018085526001600160a01b0386168352600c909152929020905161435a92906144f8565b5060408051600080825260208083018085526001600160a01b0386168352600b909152929020905161438c9290614493565b5060408051600080825260208083018085526001600160a01b0386168352600e90915292902090516143be92906144f8565b5060408051600080825260208083018085526001600160a01b0386168352600d90915292902090516143f09290614493565b5050565b600081848411156144185760405162461bcd60e51b81526004016109769190614d6b565b505050900390565b600081836144415760405162461bcd60e51b81526004016109769190614d6b565b50600083858161444d57fe5b0495945050505050565b6000813f7fc5d2460186f7233c927e7db2dcc703c0e500b653ca82273b7bfad8045d85a47081811480159061448b57508115155b949350505050565b8280548282559060005260206000209081019282156144e8579160200282015b828111156144e857825182546001600160a01b0319166001600160a01b039091161782556020909201916001909101906144b3565b506144f4929150614622565b5090565b828054828255906000526020600020908101928215614533579160200282015b82811115614533578251825591602001919060010190614518565b506144f4929150614641565b604051806040016040528060008152602001606081525090565b604051806060016040528060006001600160a01b0316815260200160008152602001600081525090565b5080546000825560030290600052602060002090810190611fc49190614656565b8280548282559060005260206000209060030281019282156146165760005260206000209160030282015b8281111561461657825482546001600160a01b0319166001600160a01b039091161782556001808401549083015560028084015490830155600392830192909101906145cf565b506144f4929150614656565b5b808211156144f45780546001600160a01b0319168155600101614623565b5b808211156144f45760008155600101614642565b5b808211156144f45780546001600160a01b03191681556000600182018190556002820155600301614657565b60008083601f840112614694578182fd5b5081356001600160401b038111156146aa578182fd5b60208301915083602080830285010111156146c457600080fd5b9250929050565b600082601f8301126146db578081fd5b81356146ee6146e982615093565b61506d565b81815291506020808301908481018184028601820187101561470f57600080fd5b60005b8481101561472e57813584529282019290820190600101614712565b505050505092915050565b60006020828403121561474a578081fd5b81356137da816150b2565b600060208284031215614766578081fd5b81516137da816150b2565b600080600060608486031215614785578182fd5b8335614790816150b2565b925060208401356147a0816150b2565b929592945050506040919091013590565b600080604083850312156147c3578182fd5b82356147ce816150b2565b915060208301356147de816150c7565b809150509250929050565b600080604083850312156147fb578182fd5b8235614806816150b2565b946020939093013593505050565b60008060008060408587031215614829578081fd5b84356001600160401b038082111561483f578283fd5b61484b88838901614683565b90965094506020870135915080821115614863578283fd5b5061487087828801614683565b95989497509550505050565b60008060008060008060006080888a031215614896578283fd5b87356001600160401b03808211156148ac578485fd5b6148b88b838c01614683565b909950975060208a01359150808211156148d0578485fd5b6148dc8b838c01614683565b909750955060408a01359150808211156148f4578485fd5b506149018a828b01614683565b9094509250506060880135614915816150c7565b8091505092959891949750929550565b60006020808385031215614937578182fd5b82516001600160401b0381111561494c578283fd5b8301601f8101851361495c578283fd5b805161496a6146e982615093565b8181528381019083850185840285018601891015614986578687fd5b8694505b83851015611e8657805161499d816150b2565b83526001949094019391850191850161498a565b600080604083850312156149c3578182fd5b82356001600160401b03808211156149d9578384fd5b818501915085601f8301126149ec578384fd5b81356149fa6146e982615093565b80828252602080830192508086018a828387028901011115614a1a578889fd5b8896505b84871015614a45578035614a31816150b2565b845260019690960195928101928101614a1e565b509096508701359350505080821115614a5c578283fd5b50614a69858286016146cb565b9150509250929050565b60006020808385031215614a85578182fd5b82516001600160401b03811115614a9a578283fd5b8301601f81018513614aaa578283fd5b8051614ab86146e982615093565b8181528381019083850185840285018601891015614ad4578687fd5b8694505b83851015611e86578051835260019490940193918501918501614ad8565b600060208284031215614b07578081fd5b81516137da816150c7565b600060208284031215614b23578081fd5b8151600281106137da578182fd5b600060208284031215614b42578081fd5b5035919050565b600060208284031215614b5a578081fd5b5051919050565b6000815180845260208085019450808401835b83811015614b995781516001600160a01b031687529582019590820190600101614b74565b509495945050505050565b6000815180845260208085019450808401835b83811015614b9957815180516001600160a01b0316885283810151848901526040908101519088015260609096019590820190600101614bb7565b6000815180845260208085019450808401835b83811015614b9957815187529582019590820190600101614c05565b6001600160a01b0391909116815260200190565b6001600160a01b039384168152919092166020820152604081019190915260600190565b600060018060a01b038616825284602083015260806040830152614c806080830185614b61565b8281036060840152614c928185614bf2565b979650505050505050565b6001600160a01b03929092168252602082015260400190565b6000602082526137da6020830184614b61565b60208082528251828201819052600091906040908185019080840286018301878501865b83811015614d2c57888303603f19018552815180518452870151878401879052614d1987850182614ba4565b9588019593505090860190600101614ced565b509098975050505050505050565b6000602082526137da6020830184614ba4565b6000602082526137da6020830184614bf2565b901515815260200190565b6000602080835283518082850152825b81811015614d9757858101830151858201604001528201614d7b565b81811115614da85783604083870101525b50601f01601f1916929092016040019392505050565b60208082526012908201527122a9292fa727aa2fa1a7a72a2927a62622a960711b604082015260600190565b6020808252601b908201527a54686520706f6f6c206973206e6f74206d616e616765722066656560281b604082015260600190565b60208082526016908201527513585e1a5b5d5b481b1a5b5a5d08195e18d95959195960521b604082015260600190565b6020808252601b908201527a536166654d6174683a206164646974696f6e206f766572666c6f7760281b604082015260600190565b6020808252600f908201526e41646472657373206973205a65726f60881b604082015260600190565b6020808252601f908201527f54686520706f6f6c206d616e61676572206973206e6f7420636c61696d656400604082015260600190565b60208082526010908201526f20b2323932b9b99034b99027bbb732b960811b604082015260600190565b60208082526010908201526f4552525f5a45524f5f4144445245535360801b604082015260600190565b60208082526006908201526506f776e6572560d41b604082015260600190565b6020808252600f908201526e696e76616c6964206164647265737360881b604082015260600190565b60208082526021908201527f546f6b656e206c697374206c656e677468206973206e6f742065657175616c716040820152607560f81b606082015260800190565b60208082526021908201527f536166654d6174683a206d756c7469706c69636174696f6e206f766572666c6f6040820152607760f81b606082015260800190565b60208082526019908201527854686520706f6f6c206d616e6167657220697320636c61696d60381b604082015260600190565b60208082526014908201527331b630b4b69034b9903737ba1036b0b730b3b2b960611b604082015260600190565b90815260200190565b6040518181016001600160401b038111828210171561508b57600080fd5b604052919050565b60006001600160401b038211156150a8578081fd5b5060209081020190565b6001600160a01b0381168114611fc457600080fd5b8015158114611fc457600080fdfea26469706673582212207e996fe3862c90477eba6ad0d8a7a277df3e70d6a58cac125b0d9ebaa2f20ffe64736f6c634300060c0033",
  "devdoc": {
    "author": "Desyn Labs",
    "kind": "dev",
    "methods": {
      "getController()": {
        "details": "external for gas optimization",
        "returns": {
          "_0": "address - of the owner (AKA controller)"
        }
      },
      "removeOwner(address)": {
        "details": "Allows to remove an owner. Transaction has to be sent by wallet.",
        "params": {
          "owner": "Address of owner."
        }
      },
      "setAddAdminList(address,uint256)": {
        "details": "external for gas optimization",
        "params": {
          "newOwner": "- address of new owner"
        }
      },
      "setController(address)": {
        "details": "external for gas optimization",
        "params": {
          "newOwner": "- address of new owner"
        }
      }
    },
    "title": "Vault managerFee",
    "version": 1
  },
  "userdoc": {
    "kind": "user",
    "methods": {
      "getController()": {
        "notice": "Returns the address of the current owner"
      },
      "setAddAdminList(address,uint256)": {
        "notice": "Transfers ownership of the contract to a new account (`newOwner`).         Can only be called by the current owner"
      },
      "setController(address)": {
        "notice": "Transfers ownership of the contract to a new account (`newOwner`).         Can only be called by the current owner"
      }
    },
    "version": 1
  },
  "storageLayout": {
    "storage": [
      {
        "astId": 17889,
        "contract": "contracts/deploy/Vault.sol:Vault",
        "label": "_owner",
        "offset": 0,
        "slot": "0",
        "type": "t_address"
      },
      {
        "astId": 17893,
        "contract": "contracts/deploy/Vault.sol:Vault",
        "label": "adminList",
        "offset": 0,
        "slot": "1",
        "type": "t_mapping(t_address,t_bool)"
      },
      {
        "astId": 17896,
        "contract": "contracts/deploy/Vault.sol:Vault",
        "label": "owners",
        "offset": 0,
        "slot": "2",
        "type": "t_array(t_address)dyn_storage"
      },
      {
        "astId": 17899,
        "contract": "contracts/deploy/Vault.sol:Vault",
        "label": "ownerPercentage",
        "offset": 0,
        "slot": "3",
        "type": "t_array(t_uint256)dyn_storage"
      },
      {
        "astId": 17901,
        "contract": "contracts/deploy/Vault.sol:Vault",
        "label": "allOwnerPercentage",
        "offset": 0,
        "slot": "4",
        "type": "t_uint256"
      },
      {
        "astId": 12675,
        "contract": "contracts/deploy/Vault.sol:Vault",
        "label": "crpFactory",
        "offset": 0,
        "slot": "5",
        "type": "t_contract(ICRPFactory)12627"
      },
      {
        "astId": 12679,
        "contract": "contracts/deploy/Vault.sol:Vault",
        "label": "pool_manager",
        "offset": 0,
        "slot": "6",
        "type": "t_mapping(t_address,t_address)"
      },
      {
        "astId": 12684,
        "contract": "contracts/deploy/Vault.sol:Vault",
        "label": "pool_manager_tokenList",
        "offset": 0,
        "slot": "7",
        "type": "t_mapping(t_address,t_array(t_address)dyn_storage)"
      },
      {
        "astId": 12689,
        "contract": "contracts/deploy/Vault.sol:Vault",
        "label": "pool_manager_tokenAmount",
        "offset": 0,
        "slot": "8",
        "type": "t_mapping(t_address,t_array(t_uint256)dyn_storage)"
      },
      {
        "astId": 12694,
        "contract": "contracts/deploy/Vault.sol:Vault",
        "label": "pool_issue_tokenList",
        "offset": 0,
        "slot": "9",
        "type": "t_mapping(t_address,t_array(t_address)dyn_storage)"
      },
      {
        "astId": 12699,
        "contract": "contracts/deploy/Vault.sol:Vault",
        "label": "pool_issue_tokenAmount",
        "offset": 0,
        "slot": "10",
        "type": "t_mapping(t_address,t_array(t_uint256)dyn_storage)"
      },
      {
        "astId": 12704,
        "contract": "contracts/deploy/Vault.sol:Vault",
        "label": "pool_redeem_tokenList",
        "offset": 0,
        "slot": "11",
        "type": "t_mapping(t_address,t_array(t_address)dyn_storage)"
      },
      {
        "astId": 12709,
        "contract": "contracts/deploy/Vault.sol:Vault",
        "label": "pool_redeem_tokenAmount",
        "offset": 0,
        "slot": "12",
        "type": "t_mapping(t_address,t_array(t_uint256)dyn_storage)"
      },
      {
        "astId": 12714,
        "contract": "contracts/deploy/Vault.sol:Vault",
        "label": "pool_perfermance_tokenList",
        "offset": 0,
        "slot": "13",
        "type": "t_mapping(t_address,t_array(t_address)dyn_storage)"
      },
      {
        "astId": 12719,
        "contract": "contracts/deploy/Vault.sol:Vault",
        "label": "pool_perfermance_tokenAmount",
        "offset": 0,
        "slot": "14",
        "type": "t_mapping(t_address,t_array(t_uint256)dyn_storage)"
      },
      {
        "astId": 12723,
        "contract": "contracts/deploy/Vault.sol:Vault",
        "label": "pool_manager_isClaim",
        "offset": 0,
        "slot": "15",
        "type": "t_mapping(t_address,t_bool)"
      },
      {
        "astId": 12727,
        "contract": "contracts/deploy/Vault.sol:Vault",
        "label": "black_list",
        "offset": 0,
        "slot": "16",
        "type": "t_mapping(t_address,t_bool)"
      },
      {
        "astId": 12731,
        "contract": "contracts/deploy/Vault.sol:Vault",
        "label": "record_number",
        "offset": 0,
        "slot": "17",
        "type": "t_mapping(t_address,t_uint256)"
      },
      {
        "astId": 12737,
        "contract": "contracts/deploy/Vault.sol:Vault",
        "label": "record_List",
        "offset": 0,
        "slot": "18",
        "type": "t_mapping(t_address,t_mapping(t_uint256,t_struct(claimRecordInfo)12673_storage))"
      },
      {
        "astId": 12739,
        "contract": "contracts/deploy/Vault.sol:Vault",
        "label": "userVault",
        "offset": 0,
        "slot": "19",
        "type": "t_address"
      },
      {
        "astId": 12742,
        "contract": "contracts/deploy/Vault.sol:Vault",
        "label": "total_ratio",
        "offset": 0,
        "slot": "20",
        "type": "t_uint256"
      },
      {
        "astId": 12745,
        "contract": "contracts/deploy/Vault.sol:Vault",
        "label": "manager_ratio",
        "offset": 0,
        "slot": "21",
        "type": "t_uint256"
      },
      {
        "astId": 12748,
        "contract": "contracts/deploy/Vault.sol:Vault",
        "label": "issue_ratio",
        "offset": 0,
        "slot": "22",
        "type": "t_uint256"
      },
      {
        "astId": 12751,
        "contract": "contracts/deploy/Vault.sol:Vault",
        "label": "redeem_ratio",
        "offset": 0,
        "slot": "23",
        "type": "t_uint256"
      },
      {
        "astId": 12754,
        "contract": "contracts/deploy/Vault.sol:Vault",
        "label": "perfermance_ratio",
        "offset": 0,
        "slot": "24",
        "type": "t_uint256"
      }
    ],
    "types": {
      "t_address": {
        "encoding": "inplace",
        "label": "address",
        "numberOfBytes": "20"
      },
      "t_array(t_address)dyn_storage": {
        "base": "t_address",
        "encoding": "dynamic_array",
        "label": "address[]",
        "numberOfBytes": "32"
      },
      "t_array(t_struct(claimTokenInfo)12643_storage)dyn_storage": {
        "base": "t_struct(claimTokenInfo)12643_storage",
        "encoding": "dynamic_array",
        "label": "struct Vault.claimTokenInfo[]",
        "numberOfBytes": "32"
      },
      "t_array(t_uint256)dyn_storage": {
        "base": "t_uint256",
        "encoding": "dynamic_array",
        "label": "uint256[]",
        "numberOfBytes": "32"
      },
      "t_bool": {
        "encoding": "inplace",
        "label": "bool",
        "numberOfBytes": "1"
      },
      "t_contract(ICRPFactory)12627": {
        "encoding": "inplace",
        "label": "contract ICRPFactory",
        "numberOfBytes": "20"
      },
      "t_mapping(t_address,t_address)": {
        "encoding": "mapping",
        "key": "t_address",
        "label": "mapping(address => address)",
        "numberOfBytes": "32",
        "value": "t_address"
      },
      "t_mapping(t_address,t_array(t_address)dyn_storage)": {
        "encoding": "mapping",
        "key": "t_address",
        "label": "mapping(address => address[])",
        "numberOfBytes": "32",
        "value": "t_array(t_address)dyn_storage"
      },
      "t_mapping(t_address,t_array(t_uint256)dyn_storage)": {
        "encoding": "mapping",
        "key": "t_address",
        "label": "mapping(address => uint256[])",
        "numberOfBytes": "32",
        "value": "t_array(t_uint256)dyn_storage"
      },
      "t_mapping(t_address,t_bool)": {
        "encoding": "mapping",
        "key": "t_address",
        "label": "mapping(address => bool)",
        "numberOfBytes": "32",
        "value": "t_bool"
      },
      "t_mapping(t_address,t_mapping(t_uint256,t_struct(claimRecordInfo)12673_storage))": {
        "encoding": "mapping",
        "key": "t_address",
        "label": "mapping(address => mapping(uint256 => struct Vault.claimRecordInfo))",
        "numberOfBytes": "32",
        "value": "t_mapping(t_uint256,t_struct(claimRecordInfo)12673_storage)"
      },
      "t_mapping(t_address,t_uint256)": {
        "encoding": "mapping",
        "key": "t_address",
        "label": "mapping(address => uint256)",
        "numberOfBytes": "32",
        "value": "t_uint256"
      },
      "t_mapping(t_uint256,t_struct(claimRecordInfo)12673_storage)": {
        "encoding": "mapping",
        "key": "t_uint256",
        "label": "mapping(uint256 => struct Vault.claimRecordInfo)",
        "numberOfBytes": "32",
        "value": "t_struct(claimRecordInfo)12673_storage"
      },
      "t_struct(claimRecordInfo)12673_storage": {
        "encoding": "inplace",
        "label": "struct Vault.claimRecordInfo",
        "members": [
          {
            "astId": 12669,
            "contract": "contracts/deploy/Vault.sol:Vault",
            "label": "time",
            "offset": 0,
            "slot": "0",
            "type": "t_uint256"
          },
          {
            "astId": 12672,
            "contract": "contracts/deploy/Vault.sol:Vault",
            "label": "tokens",
            "offset": 0,
            "slot": "1",
            "type": "t_array(t_struct(claimTokenInfo)12643_storage)dyn_storage"
          }
        ],
        "numberOfBytes": "64"
      },
      "t_struct(claimTokenInfo)12643_storage": {
        "encoding": "inplace",
        "label": "struct Vault.claimTokenInfo",
        "members": [
          {
            "astId": 12638,
            "contract": "contracts/deploy/Vault.sol:Vault",
            "label": "token",
            "offset": 0,
            "slot": "0",
            "type": "t_address"
          },
          {
            "astId": 12640,
            "contract": "contracts/deploy/Vault.sol:Vault",
            "label": "decimals",
            "offset": 0,
            "slot": "1",
            "type": "t_uint256"
          },
          {
            "astId": 12642,
            "contract": "contracts/deploy/Vault.sol:Vault",
            "label": "amount",
            "offset": 0,
            "slot": "2",
            "type": "t_uint256"
          }
        ],
        "numberOfBytes": "96"
      },
      "t_uint256": {
        "encoding": "inplace",
        "label": "uint256",
        "numberOfBytes": "32"
      }
    }
  }
}